{
  "_format": "hh-sol-artifact-1",
  "contractName": "$SafeERC20",
  "sourceName": "contracts-exposed/token/ERC20/utils/SafeERC20.sol",
  "abi": [
    {
      "inputs": [],
      "stateMutability": "payable",
      "type": "constructor"
    },
    {
      "inputs": [
        {
          "internalType": "address",
          "name": "target",
          "type": "address"
        }
      ],
      "name": "AddressEmptyCode",
      "type": "error"
    },
    {
      "inputs": [
        {
          "internalType": "address",
          "name": "account",
          "type": "address"
        }
      ],
      "name": "AddressInsufficientBalance",
      "type": "error"
    },
    {
      "inputs": [],
      "name": "FailedInnerCall",
      "type": "error"
    },
    {
      "inputs": [
        {
          "internalType": "address",
          "name": "spender",
          "type": "address"
        },
        {
          "internalType": "uint256",
          "name": "currentAllowance",
          "type": "uint256"
        },
        {
          "internalType": "uint256",
          "name": "requestedDecrease",
          "type": "uint256"
        }
      ],
      "name": "SafeERC20FailedDecreaseAllowance",
      "type": "error"
    },
    {
      "inputs": [
        {
          "internalType": "address",
          "name": "token",
          "type": "address"
        }
      ],
      "name": "SafeERC20FailedOperation",
      "type": "error"
    },
    {
      "inputs": [
        {
          "internalType": "contract IERC20",
          "name": "token",
          "type": "address"
        },
        {
          "internalType": "address",
          "name": "spender",
          "type": "address"
        },
        {
          "internalType": "uint256",
          "name": "value",
          "type": "uint256"
        }
      ],
      "name": "$forceApprove",
      "outputs": [],
      "stateMutability": "payable",
      "type": "function"
    },
    {
      "inputs": [
        {
          "internalType": "contract IERC20",
          "name": "token",
          "type": "address"
        },
        {
          "internalType": "address",
          "name": "spender",
          "type": "address"
        },
        {
          "internalType": "uint256",
          "name": "requestedDecrease",
          "type": "uint256"
        }
      ],
      "name": "$safeDecreaseAllowance",
      "outputs": [],
      "stateMutability": "payable",
      "type": "function"
    },
    {
      "inputs": [
        {
          "internalType": "contract IERC20",
          "name": "token",
          "type": "address"
        },
        {
          "internalType": "address",
          "name": "spender",
          "type": "address"
        },
        {
          "internalType": "uint256",
          "name": "value",
          "type": "uint256"
        }
      ],
      "name": "$safeIncreaseAllowance",
      "outputs": [],
      "stateMutability": "payable",
      "type": "function"
    },
    {
      "inputs": [
        {
          "internalType": "contract IERC20Permit",
          "name": "token",
          "type": "address"
        },
        {
          "internalType": "address",
          "name": "owner",
          "type": "address"
        },
        {
          "internalType": "address",
          "name": "spender",
          "type": "address"
        },
        {
          "internalType": "uint256",
          "name": "value",
          "type": "uint256"
        },
        {
          "internalType": "uint256",
          "name": "deadline",
          "type": "uint256"
        },
        {
          "internalType": "uint8",
          "name": "v",
          "type": "uint8"
        },
        {
          "internalType": "bytes32",
          "name": "r",
          "type": "bytes32"
        },
        {
          "internalType": "bytes32",
          "name": "s",
          "type": "bytes32"
        }
      ],
      "name": "$safePermit",
      "outputs": [],
      "stateMutability": "payable",
      "type": "function"
    },
    {
      "inputs": [
        {
          "internalType": "contract IERC20",
          "name": "token",
          "type": "address"
        },
        {
          "internalType": "address",
          "name": "to",
          "type": "address"
        },
        {
          "internalType": "uint256",
          "name": "value",
          "type": "uint256"
        }
      ],
      "name": "$safeTransfer",
      "outputs": [],
      "stateMutability": "payable",
      "type": "function"
    },
    {
      "inputs": [
        {
          "internalType": "contract IERC20",
          "name": "token",
          "type": "address"
        },
        {
          "internalType": "address",
          "name": "from",
          "type": "address"
        },
        {
          "internalType": "address",
          "name": "to",
          "type": "address"
        },
        {
          "internalType": "uint256",
          "name": "value",
          "type": "uint256"
        }
      ],
      "name": "$safeTransferFrom",
      "outputs": [],
      "stateMutability": "payable",
      "type": "function"
    },
    {
      "inputs": [],
      "name": "__hh_exposed_bytecode_marker",
      "outputs": [
        {
          "internalType": "bytes32",
          "name": "",
          "type": "bytes32"
        }
      ],
      "stateMutability": "view",
      "type": "function"
    },
    {
      "stateMutability": "payable",
      "type": "receive"
    }
  ],
  "bytecode": "0x60806040526109a0806100115f395ff3fe608060405260043610610071575f3560e01c80636ea26aab1161004c5780636ea26aab146100db5780637359698e146100ee5780637da4e8da1461010157806395b4796014610114575f80fd5b806329b3dfeb1461007c578063342db739146100915780636bec7603146100c8575f80fd5b3661007857005b5f80fd5b61008f61008a3660046107da565b610127565b005b34801561009c575f80fd5b506100b66e1a185c991a185d0b595e1c1bdcd959608a1b81565b60405190815260200160405180910390f35b61008f6100d63660046107da565b610137565b61008f6100e9366004610818565b610142565b61008f6100fc36600461089b565b61015c565b61008f61010f3660046107da565b61016e565b61008f6101223660046107da565b610179565b610132838383610184565b505050565b610132838383610243565b61015288888888888888886102a2565b5050505050505050565b6101688484848461043f565b50505050565b610132838383610478565b6101328383836104fa565b604051636eb1769f60e11b81523060048201526001600160a01b0383811660248301525f919085169063dd62ed3e90604401602060405180830381865afa1580156101d1573d5f803e3d5ffd5b505050506040513d601f19601f820116820180604052508101906101f591906108e9565b9050818110156102365760405163e570110f60e01b81526001600160a01b038416600482015260248101829052604481018390526064015b60405180910390fd5b61016884848484036104fa565b6040516001600160a01b0383811660248301526044820183905261013291859182169063a9059cbb906064015b604051602081830303815290604052915060e01b6020820180516001600160e01b038381831617835250505050610585565b604051623f675f60e91b81526001600160a01b0388811660048301525f91908a1690637ecebe0090602401602060405180830381865afa1580156102e8573d5f803e3d5ffd5b505050506040513d601f19601f8201168201806040525081019061030c91906108e9565b60405163d505accf60e01b81526001600160a01b038a811660048301528981166024830152604482018990526064820188905260ff8716608483015260a4820186905260c48201859052919250908a169063d505accf9060e4015f604051808303815f87803b15801561037d575f80fd5b505af115801561038f573d5f803e3d5ffd5b5050604051623f675f60e91b81526001600160a01b038b811660048301525f93508c169150637ecebe0090602401602060405180830381865afa1580156103d8573d5f803e3d5ffd5b505050506040513d601f19601f820116820180604052508101906103fc91906108e9565b9050610409826001610900565b811461043357604051635274afe760e01b81526001600160a01b038b16600482015260240161022d565b50505050505050505050565b6040516001600160a01b0384811660248301528381166044830152606482018390526101689186918216906323b872dd90608401610270565b604051636eb1769f60e11b81523060048201526001600160a01b0383811660248301525f919085169063dd62ed3e90604401602060405180830381865afa1580156104c5573d5f803e3d5ffd5b505050506040513d601f19601f820116820180604052508101906104e991906108e9565b905061016884846104fa8585610900565b604080516001600160a01b038416602482015260448082018490528251808303909101815260649091019091526020810180516001600160e01b031663095ea7b360e01b17905261054b84826105e6565b610168576040516001600160a01b0384811660248301525f604483015261057f91869182169063095ea7b390606401610270565b61016884825b5f6105996001600160a01b03841683610689565b905080515f141580156105bd5750808060200190518101906105bb919061091f565b155b1561013257604051635274afe760e01b81526001600160a01b038416600482015260240161022d565b5f805f846001600160a01b031684604051610601919061093e565b5f604051808303815f865af19150503d805f811461063a576040519150601f19603f3d011682016040523d82523d5f602084013e61063f565b606091505b5091509150818015610669575080511580610669575080806020019051810190610669919061091f565b801561067e57505f856001600160a01b03163b115b925050505b92915050565b606061069983835f6106a06106b9565b9392505050565b604051630a12f52160e11b815260040160405180910390fd5b6060824710156106de5760405163cd78605960e01b815230600482015260240161022d565b5f80866001600160a01b031685876040516106f9919061093e565b5f6040518083038185875af1925050503d805f8114610733576040519150601f19603f3d011682016040523d82523d5f602084013e610738565b606091505b509150915061074987838387610756565b925050505b949350505050565b606083156107a25782515f0361079b57846001600160a01b03163b5f0361079b57604051639996b31560e01b81526001600160a01b038616600482015260240161022d565b508161074e565b61074e83838151156107b75781518083602001fd5b6106a08163ffffffff16565b6001600160a01b03811681146107d7575f80fd5b50565b5f805f606084860312156107ec575f80fd5b83356107f7816107c3565b92506020840135610807816107c3565b929592945050506040919091013590565b5f805f805f805f80610100898b031215610830575f80fd5b883561083b816107c3565b9750602089013561084b816107c3565b9650604089013561085b816107c3565b9550606089013594506080890135935060a089013560ff8116811461087e575f80fd5b979a969950949793969295929450505060c08201359160e0013590565b5f805f80608085870312156108ae575f80fd5b84356108b9816107c3565b935060208501356108c9816107c3565b925060408501356108d9816107c3565b9396929550929360600135925050565b5f602082840312156108f9575f80fd5b5051919050565b8082018082111561068357634e487b7160e01b5f52601160045260245ffd5b5f6020828403121561092f575f80fd5b81518015158114610699575f80fd5b5f82515f5b8181101561095d5760208186018101518583015201610943565b505f92019182525091905056fea264697066735822122037ae51b4b6480de830453866029df2fb84ea123564afa96dbe338fbd4a4a768d64736f6c63430008140033",
  "linkReferences": {},
  "deployedLinkReferences": {}
}