{
  "_format": "hh-sol-artifact-1",
  "contractName": "$UUPSUpgradeableUnsafeMock",
  "sourceName": "contracts-exposed/mocks/proxy/UUPSUpgradeableMock.sol",
  "abi": [
    {
      "inputs": [],
      "stateMutability": "payable",
      "type": "constructor"
    },
    {
      "inputs": [
        {
          "internalType": "address",
          "name": "target",
          "type": "address"
        }
      ],
      "name": "AddressEmptyCode",
      "type": "error"
    },
    {
      "inputs": [
        {
          "internalType": "address",
          "name": "implementation",
          "type": "address"
        }
      ],
      "name": "ERC1967InvalidImplementation",
      "type": "error"
    },
    {
      "inputs": [],
      "name": "ERC1967NonPayable",
      "type": "error"
    },
    {
      "inputs": [],
      "name": "FailedInnerCall",
      "type": "error"
    },
    {
      "inputs": [],
      "name": "UUPSUnauthorizedCallContext",
      "type": "error"
    },
    {
      "inputs": [
        {
          "internalType": "bytes32",
          "name": "slot",
          "type": "bytes32"
        }
      ],
      "name": "UUPSUnsupportedProxiableUUID",
      "type": "error"
    },
    {
      "anonymous": false,
      "inputs": [
        {
          "indexed": true,
          "internalType": "address",
          "name": "implementation",
          "type": "address"
        }
      ],
      "name": "Upgraded",
      "type": "event"
    },
    {
      "inputs": [
        {
          "internalType": "address",
          "name": "arg0",
          "type": "address"
        }
      ],
      "name": "$_authorizeUpgrade",
      "outputs": [],
      "stateMutability": "nonpayable",
      "type": "function"
    },
    {
      "inputs": [],
      "name": "$_counter",
      "outputs": [
        {
          "internalType": "uint256",
          "name": "",
          "type": "uint256"
        }
      ],
      "stateMutability": "view",
      "type": "function"
    },
    {
      "inputs": [],
      "name": "UPGRADE_INTERFACE_VERSION",
      "outputs": [
        {
          "internalType": "string",
          "name": "",
          "type": "string"
        }
      ],
      "stateMutability": "view",
      "type": "function"
    },
    {
      "inputs": [],
      "name": "__hh_exposed_bytecode_marker",
      "outputs": [
        {
          "internalType": "bytes32",
          "name": "",
          "type": "bytes32"
        }
      ],
      "stateMutability": "view",
      "type": "function"
    },
    {
      "inputs": [],
      "name": "current",
      "outputs": [
        {
          "internalType": "uint256",
          "name": "",
          "type": "uint256"
        }
      ],
      "stateMutability": "view",
      "type": "function"
    },
    {
      "inputs": [],
      "name": "increment",
      "outputs": [],
      "stateMutability": "nonpayable",
      "type": "function"
    },
    {
      "inputs": [],
      "name": "proxiableUUID",
      "outputs": [
        {
          "internalType": "bytes32",
          "name": "",
          "type": "bytes32"
        }
      ],
      "stateMutability": "view",
      "type": "function"
    },
    {
      "inputs": [
        {
          "internalType": "address",
          "name": "newImplementation",
          "type": "address"
        },
        {
          "internalType": "bytes",
          "name": "data",
          "type": "bytes"
        }
      ],
      "name": "upgradeToAndCall",
      "outputs": [],
      "stateMutability": "payable",
      "type": "function"
    },
    {
      "stateMutability": "payable",
      "type": "receive"
    }
  ],
  "bytecode": "0x60a0604052306080526080516105d96100205f395f61018301526105d95ff3fe60806040526004361061007c575f3560e01c80639fa6a6e31161004c5780639fa6a6e3146100e8578063ad3cb1cc146100fb578063d09de08a14610138578063fbf9c9ce1461014c575f80fd5b8063342db739146100875780634f1ef286146100bf57806352d1902d146100d45780637e10e8d6146100e8575f80fd5b3661008357005b5f80fd5b348015610092575f80fd5b506100ac6e1a185c991a185d0b595e1c1bdcd959608a1b81565b6040519081526020015b60405180910390f35b6100d26100cd36600461043b565b610169565b005b3480156100df575f80fd5b506100ac610177565b3480156100f3575f80fd5b505f546100ac565b348015610106575f80fd5b5061012b604051806040016040528060058152602001640352e302e360dc1b81525081565b6040516100b69190610519565b348015610143575f80fd5b506100d26101e6565b348015610157575f80fd5b506100d261016636600461054b565b50565b61017382826101f9565b5050565b5f306001600160a01b037f000000000000000000000000000000000000000000000000000000000000000016146101c15760405163703e46dd60e11b815260040160405180910390fd5b507f360894a13ba1a3210667c828492db98dca3e2076cc3735a920a3ca505d382bbc90565b5f8081546101f390610564565b90915550565b61020282610253565b6040516001600160a01b038316907fbc7cd75a20ee27fd9adebab32041f755214dbc6bffa90cc0225b39da2e5c2d3b905f90a280511561024b5761024682826102ce565b505050565b6101736102e4565b806001600160a01b03163b5f0361028d57604051634c9c8ce360e01b81526001600160a01b03821660048201526024015b60405180910390fd5b7f360894a13ba1a3210667c828492db98dca3e2076cc3735a920a3ca505d382bbc80546001600160a01b0319166001600160a01b0392909216919091179055565b60606102dd838361030561031e565b9392505050565b34156103035760405163b398979f60e01b815260040160405180910390fd5b565b604051630a12f52160e11b815260040160405180910390fd5b60605f80856001600160a01b03168560405161033a9190610588565b5f60405180830381855af49150503d805f8114610372576040519150601f19603f3d011682016040523d82523d5f602084013e610377565b606091505b509150915061038886838387610392565b9695505050505050565b606083156103de5782515f036103d757846001600160a01b03163b5f036103d757604051639996b31560e01b81526001600160a01b0386166004820152602401610284565b50816103e8565b6103e883836103f0565b949350505050565b8151156104005781518083602001fd5b6103058163ffffffff16565b80356001600160a01b0381168114610422575f80fd5b919050565b634e487b7160e01b5f52604160045260245ffd5b5f806040838503121561044c575f80fd5b6104558361040c565b9150602083013567ffffffffffffffff80821115610471575f80fd5b818501915085601f830112610484575f80fd5b81358181111561049657610496610427565b604051601f8201601f19908116603f011681019083821181831017156104be576104be610427565b816040528281528860208487010111156104d6575f80fd5b826020860160208301375f6020848301015280955050505050509250929050565b5f5b838110156105115781810151838201526020016104f9565b50505f910152565b602081525f82518060208401526105378160408501602087016104f7565b601f01601f19169190910160400192915050565b5f6020828403121561055b575f80fd5b6102dd8261040c565b5f6001820161058157634e487b7160e01b5f52601160045260245ffd5b5060010190565b5f82516105998184602087016104f7565b919091019291505056fea2646970667358221220ebff6dc56cfb11626d0518384fac74590e7bfa4590badd6f53a5c169b13216f764736f6c63430008140033",
  "linkReferences": {},
  "deployedLinkReferences": {}
}