{
  "_format": "hh-sol-artifact-1",
  "contractName": "$UUPSUnsupportedProxiableUUID",
  "sourceName": "contracts-exposed/mocks/proxy/UUPSUpgradeableMock.sol",
  "abi": [
    {
      "inputs": [],
      "stateMutability": "payable",
      "type": "constructor"
    },
    {
      "inputs": [
        {
          "internalType": "address",
          "name": "target",
          "type": "address"
        }
      ],
      "name": "AddressEmptyCode",
      "type": "error"
    },
    {
      "inputs": [
        {
          "internalType": "address",
          "name": "implementation",
          "type": "address"
        }
      ],
      "name": "ERC1967InvalidImplementation",
      "type": "error"
    },
    {
      "inputs": [],
      "name": "ERC1967NonPayable",
      "type": "error"
    },
    {
      "inputs": [],
      "name": "FailedInnerCall",
      "type": "error"
    },
    {
      "inputs": [],
      "name": "UUPSUnauthorizedCallContext",
      "type": "error"
    },
    {
      "inputs": [
        {
          "internalType": "bytes32",
          "name": "slot",
          "type": "bytes32"
        }
      ],
      "name": "UUPSUnsupportedProxiableUUID",
      "type": "error"
    },
    {
      "anonymous": false,
      "inputs": [
        {
          "indexed": true,
          "internalType": "address",
          "name": "implementation",
          "type": "address"
        }
      ],
      "name": "Upgraded",
      "type": "event"
    },
    {
      "inputs": [
        {
          "internalType": "address",
          "name": "arg0",
          "type": "address"
        }
      ],
      "name": "$_authorizeUpgrade",
      "outputs": [],
      "stateMutability": "nonpayable",
      "type": "function"
    },
    {
      "inputs": [],
      "name": "$_counter",
      "outputs": [
        {
          "internalType": "uint256",
          "name": "",
          "type": "uint256"
        }
      ],
      "stateMutability": "view",
      "type": "function"
    },
    {
      "inputs": [],
      "name": "UPGRADE_INTERFACE_VERSION",
      "outputs": [
        {
          "internalType": "string",
          "name": "",
          "type": "string"
        }
      ],
      "stateMutability": "view",
      "type": "function"
    },
    {
      "inputs": [],
      "name": "__hh_exposed_bytecode_marker",
      "outputs": [
        {
          "internalType": "bytes32",
          "name": "",
          "type": "bytes32"
        }
      ],
      "stateMutability": "view",
      "type": "function"
    },
    {
      "inputs": [],
      "name": "current",
      "outputs": [
        {
          "internalType": "uint256",
          "name": "",
          "type": "uint256"
        }
      ],
      "stateMutability": "view",
      "type": "function"
    },
    {
      "inputs": [],
      "name": "increment",
      "outputs": [],
      "stateMutability": "nonpayable",
      "type": "function"
    },
    {
      "inputs": [],
      "name": "proxiableUUID",
      "outputs": [
        {
          "internalType": "bytes32",
          "name": "",
          "type": "bytes32"
        }
      ],
      "stateMutability": "pure",
      "type": "function"
    },
    {
      "inputs": [
        {
          "internalType": "address",
          "name": "newImplementation",
          "type": "address"
        },
        {
          "internalType": "bytes",
          "name": "data",
          "type": "bytes"
        }
      ],
      "name": "upgradeToAndCall",
      "outputs": [],
      "stateMutability": "payable",
      "type": "function"
    },
    {
      "stateMutability": "payable",
      "type": "receive"
    }
  ],
  "bytecode": "0x60a0604052306080526080516107256100275f395f818161019201526101bb01526107255ff3fe60806040526004361061007c575f3560e01c80639fa6a6e31161004c5780639fa6a6e314610106578063ad3cb1cc14610119578063d09de08a14610156578063fbf9c9ce1461016a575f80fd5b8063342db739146100875780634f1ef286146100bf57806352d1902d146100d45780637e10e8d614610106575f80fd5b3661008357005b5f80fd5b348015610092575f80fd5b506100ac6e1a185c991a185d0b595e1c1bdcd959608a1b81565b6040519081526020015b60405180910390f35b6100d26100cd366004610570565b610187565b005b3480156100df575f80fd5b507fc7bdf275ab48e354dbabdecbbb74bbfdd6e318310cd733f757b9d79846c9a09a6100ac565b348015610111575f80fd5b505f546100ac565b348015610124575f80fd5b50610149604051806040016040528060058152602001640352e302e360dc1b81525081565b6040516100b6919061064e565b348015610161575f80fd5b506100d261024c565b348015610175575f80fd5b506100d2610184366004610680565b50565b306001600160a01b037f000000000000000000000000000000000000000000000000000000000000000016148061022057507f00000000000000000000000000000000000000000000000000000000000000006001600160a01b03166102147f360894a13ba1a3210667c828492db98dca3e2076cc3735a920a3ca505d382bbc546001600160a01b031690565b6001600160a01b031614155b1561023e5760405163703e46dd60e11b815260040160405180910390fd5b610248828261025f565b5050565b5f80815461025990610699565b90915550565b816001600160a01b03166352d1902d6040518163ffffffff1660e01b8152600401602060405180830381865afa9250505080156102b9575060408051601f3d908101601f191682019092526102b6918101906106bd565b60015b6102e657604051634c9c8ce360e01b81526001600160a01b03831660048201526024015b60405180910390fd5b7f360894a13ba1a3210667c828492db98dca3e2076cc3735a920a3ca505d382bbc811461032957604051632a87526960e21b8152600481018290526024016102dd565b6103338383610338565b505050565b6103418261038d565b6040516001600160a01b038316907fbc7cd75a20ee27fd9adebab32041f755214dbc6bffa90cc0225b39da2e5c2d3b905f90a2805115610385576103338282610403565b610248610419565b806001600160a01b03163b5f036103c257604051634c9c8ce360e01b81526001600160a01b03821660048201526024016102dd565b7f360894a13ba1a3210667c828492db98dca3e2076cc3735a920a3ca505d382bbc80546001600160a01b0319166001600160a01b0392909216919091179055565b6060610412838361043a610453565b9392505050565b34156104385760405163b398979f60e01b815260040160405180910390fd5b565b604051630a12f52160e11b815260040160405180910390fd5b60605f80856001600160a01b03168560405161046f91906106d4565b5f60405180830381855af49150503d805f81146104a7576040519150601f19603f3d011682016040523d82523d5f602084013e6104ac565b606091505b50915091506104bd868383876104c7565b9695505050505050565b606083156105135782515f0361050c57846001600160a01b03163b5f0361050c57604051639996b31560e01b81526001600160a01b03861660048201526024016102dd565b508161051d565b61051d8383610525565b949350505050565b8151156105355781518083602001fd5b61043a8163ffffffff16565b80356001600160a01b0381168114610557575f80fd5b919050565b634e487b7160e01b5f52604160045260245ffd5b5f8060408385031215610581575f80fd5b61058a83610541565b9150602083013567ffffffffffffffff808211156105a6575f80fd5b818501915085601f8301126105b9575f80fd5b8135818111156105cb576105cb61055c565b604051601f8201601f19908116603f011681019083821181831017156105f3576105f361055c565b8160405282815288602084870101111561060b575f80fd5b826020860160208301375f6020848301015280955050505050509250929050565b5f5b8381101561064657818101518382015260200161062e565b50505f910152565b602081525f825180602084015261066c81604085016020870161062c565b601f01601f19169190910160400192915050565b5f60208284031215610690575f80fd5b61041282610541565b5f600182016106b657634e487b7160e01b5f52601160045260245ffd5b5060010190565b5f602082840312156106cd575f80fd5b5051919050565b5f82516106e581846020870161062c565b919091019291505056fea2646970667358221220cfc696281f3faad7e84d3fde954abeb445ab76f05de515978fb58d96a690703d64736f6c63430008140033",
  "linkReferences": {},
  "deployedLinkReferences": {}
}