{
  "_format": "hh-sol-artifact-1",
  "contractName": "$ChildConstructorInitializableMock",
  "sourceName": "contracts-exposed/mocks/InitializableMock.sol",
  "abi": [
    {
      "inputs": [],
      "stateMutability": "payable",
      "type": "constructor"
    },
    {
      "inputs": [],
      "name": "AlreadyInitialized",
      "type": "error"
    },
    {
      "inputs": [],
      "name": "NotInitializing",
      "type": "error"
    },
    {
      "anonymous": false,
      "inputs": [
        {
          "indexed": false,
          "internalType": "uint8",
          "name": "version",
          "type": "uint8"
        }
      ],
      "name": "Initialized",
      "type": "event"
    },
    {
      "inputs": [],
      "name": "$_disableInitializers",
      "outputs": [],
      "stateMutability": "nonpayable",
      "type": "function"
    },
    {
      "inputs": [],
      "name": "$_getInitializedVersion",
      "outputs": [
        {
          "internalType": "uint8",
          "name": "ret0",
          "type": "uint8"
        }
      ],
      "stateMutability": "view",
      "type": "function"
    },
    {
      "inputs": [],
      "name": "$_isInitializing",
      "outputs": [
        {
          "internalType": "bool",
          "name": "ret0",
          "type": "bool"
        }
      ],
      "stateMutability": "view",
      "type": "function"
    },
    {
      "inputs": [],
      "name": "__hh_exposed_bytecode_marker",
      "outputs": [
        {
          "internalType": "bytes32",
          "name": "",
          "type": "bytes32"
        }
      ],
      "stateMutability": "view",
      "type": "function"
    },
    {
      "inputs": [],
      "name": "childInitialize",
      "outputs": [],
      "stateMutability": "nonpayable",
      "type": "function"
    },
    {
      "inputs": [],
      "name": "childInitializerRan",
      "outputs": [
        {
          "internalType": "bool",
          "name": "",
          "type": "bool"
        }
      ],
      "stateMutability": "view",
      "type": "function"
    },
    {
      "inputs": [],
      "name": "initialize",
      "outputs": [],
      "stateMutability": "nonpayable",
      "type": "function"
    },
    {
      "inputs": [],
      "name": "initializeOnlyInitializing",
      "outputs": [],
      "stateMutability": "nonpayable",
      "type": "function"
    },
    {
      "inputs": [],
      "name": "initializerRan",
      "outputs": [
        {
          "internalType": "bool",
          "name": "",
          "type": "bool"
        }
      ],
      "stateMutability": "view",
      "type": "function"
    },
    {
      "inputs": [],
      "name": "onlyInitializingRan",
      "outputs": [
        {
          "internalType": "bool",
          "name": "",
          "type": "bool"
        }
      ],
      "stateMutability": "view",
      "type": "function"
    },
    {
      "stateMutability": "payable",
      "type": "receive"
    }
  ],
  "bytecode": "0x60806040525f54610100900460ff161580801561002257505f54600160ff909116105b15801561003f5750303b15801561003d57505f5460ff166001145b155b1561005c5760405162dc149f60e41b815260040160405180910390fd5b5f805460ff19166001179055801561007d575f805461ff0019166101001790555b610085610179565b61008d610238565b80156100bf575f805461ff0019169055604051600181525f8051602061079b8339815191529060200160405180910390a15b505f54610100900460ff16158080156100de57505f54600160ff909116105b1580156100fb5750303b1580156100f957505f5460ff166001145b155b156101185760405162dc149f60e41b815260040160405180910390fd5b5f805460ff191660011790558015610139575f805461ff0019166101001790555b610141610273565b8015610173575f805461ff0019169055604051600181525f8051602061079b8339815191529060200160405180910390a15b5061032d565b5f54610100900460ff161580801561019757505f54600160ff909116105b1580156101b45750303b1580156101b257505f5460ff166001145b155b156101d15760405162dc149f60e41b815260040160405180910390fd5b5f805460ff1916600117905580156101f2575f805461ff0019166101001790555b5f805462ff00001916620100001790558015610235575f805461ff0019169055604051600181525f8051602061079b833981519152906020015b60405180910390a15b50565b5f54610100900460ff1661025f57604051631afcd79f60e31b815260040160405180910390fd5b5f805463ff00000019166301000000179055565b5f54610100900460ff161580801561029157505f54600160ff909116105b1580156102ae5750303b1580156102ac57505f5460ff166001145b155b156102cb5760405162dc149f60e41b815260040160405180910390fd5b5f805460ff1916600117905580156102ec575f805461ff0019166101001790555b5f805460ff60201b19166401000000001790558015610235575f805461ff0019169055604051600181525f8051602061079b8339815191529060200161022c565b6104618061033a5f395ff3fe608060405260043610610092575f3560e01c8063b23d810b11610057578063b23d810b1461014e578063c3b8ef2a1461016e578063c9eb05711461018c578063de74c703146101a7578063f5f1bec0146101bb575f80fd5b806310065ed21461009d578063342db739146100b35780634fd5303d146100eb5780637cffe97a1461010b5780638129fc1c1461013a575f80fd5b3661009957005b5f80fd5b3480156100a8575f80fd5b506100b16101cf565b005b3480156100be575f80fd5b506100d86e1a185c991a185d0b595e1c1bdcd959608a1b81565b6040519081526020015b60405180910390f35b3480156100f6575f80fd5b505f5460405160ff90911681526020016100e2565b348015610116575f80fd5b505f5461012a906301000000900460ff1681565b60405190151581526020016100e2565b348015610145575f80fd5b506100b161020a565b348015610159575f80fd5b505f5461012a90640100000000900460ff1681565b348015610179575f80fd5b505f5461012a9062010000900460ff1681565b348015610197575f80fd5b505f54610100900460ff1661012a565b3480156101b2575f80fd5b506100b16102dc565b3480156101c6575f80fd5b506100b16103aa565b5f54610100900460ff166101f657604051631afcd79f60e31b815260040160405180910390fd5b5f805463ff00000019166301000000179055565b5f54610100900460ff161580801561022857505f54600160ff909116105b1580156102455750303b15801561024357505f5460ff166001145b155b156102625760405162dc149f60e41b815260040160405180910390fd5b5f805460ff191660011790558015610283575f805461ff0019166101001790555b5f805462ff000019166201000017905580156102d9575f805461ff0019169055604051600181527f7f26b83ff96e1f2b6a682f133852f6798a09c465da95921460cefb3847402498906020015b60405180910390a15b50565b5f54610100900460ff16158080156102fa57505f54600160ff909116105b1580156103175750303b15801561031557505f5460ff166001145b155b156103345760405162dc149f60e41b815260040160405180910390fd5b5f805460ff191660011790558015610355575f805461ff0019166101001790555b5f805464ff00000000191664010000000017905580156102d9575f805461ff0019169055604051600181527f7f26b83ff96e1f2b6a682f133852f6798a09c465da95921460cefb3847402498906020016102d0565b6103b26103b4565b565b5f54610100900460ff16156103db5760405162dc149f60e41b815260040160405180910390fd5b5f5460ff908116146103b2575f805460ff191660ff9081179091556040519081527f7f26b83ff96e1f2b6a682f133852f6798a09c465da95921460cefb38474024989060200160405180910390a156fea264697066735822122013d35d1afc19f6d98b52223ea037b7ab052dea9bf53a8a6169e99bb0f1d651e364736f6c634300081400337f26b83ff96e1f2b6a682f133852f6798a09c465da95921460cefb3847402498",
  "linkReferences": {},
  "deployedLinkReferences": {}
}