{
  "_format": "hh-sol-artifact-1",
  "contractName": "$ConstructorInitializableMock",
  "sourceName": "contracts-exposed/mocks/InitializableMock.sol",
  "abi": [
    {
      "inputs": [],
      "stateMutability": "payable",
      "type": "constructor"
    },
    {
      "inputs": [],
      "name": "AlreadyInitialized",
      "type": "error"
    },
    {
      "inputs": [],
      "name": "NotInitializing",
      "type": "error"
    },
    {
      "anonymous": false,
      "inputs": [
        {
          "indexed": false,
          "internalType": "uint8",
          "name": "version",
          "type": "uint8"
        }
      ],
      "name": "Initialized",
      "type": "event"
    },
    {
      "inputs": [],
      "name": "$_disableInitializers",
      "outputs": [],
      "stateMutability": "nonpayable",
      "type": "function"
    },
    {
      "inputs": [],
      "name": "$_getInitializedVersion",
      "outputs": [
        {
          "internalType": "uint8",
          "name": "ret0",
          "type": "uint8"
        }
      ],
      "stateMutability": "view",
      "type": "function"
    },
    {
      "inputs": [],
      "name": "$_isInitializing",
      "outputs": [
        {
          "internalType": "bool",
          "name": "ret0",
          "type": "bool"
        }
      ],
      "stateMutability": "view",
      "type": "function"
    },
    {
      "inputs": [],
      "name": "__hh_exposed_bytecode_marker",
      "outputs": [
        {
          "internalType": "bytes32",
          "name": "",
          "type": "bytes32"
        }
      ],
      "stateMutability": "view",
      "type": "function"
    },
    {
      "inputs": [],
      "name": "initialize",
      "outputs": [],
      "stateMutability": "nonpayable",
      "type": "function"
    },
    {
      "inputs": [],
      "name": "initializeOnlyInitializing",
      "outputs": [],
      "stateMutability": "nonpayable",
      "type": "function"
    },
    {
      "inputs": [],
      "name": "initializerRan",
      "outputs": [
        {
          "internalType": "bool",
          "name": "",
          "type": "bool"
        }
      ],
      "stateMutability": "view",
      "type": "function"
    },
    {
      "inputs": [],
      "name": "onlyInitializingRan",
      "outputs": [
        {
          "internalType": "bool",
          "name": "",
          "type": "bool"
        }
      ],
      "stateMutability": "view",
      "type": "function"
    },
    {
      "stateMutability": "payable",
      "type": "receive"
    }
  ],
  "bytecode": "0x60806040525f54610100900460ff161580801561002257505f54600160ff909116105b15801561003f5750303b15801561003d57505f5460ff166001145b155b1561005c5760405162dc149f60e41b815260040160405180910390fd5b5f805460ff19166001179055801561007d575f805461ff0019166101001790555b6100856100c5565b61008d610183565b80156100bf575f805461ff0019169055604051600181525f805160206105138339815191529060200160405180910390a15b506101be565b5f54610100900460ff16158080156100e357505f54600160ff909116105b1580156101005750303b1580156100fe57505f5460ff166001145b155b1561011d5760405162dc149f60e41b815260040160405180910390fd5b5f805460ff19166001179055801561013e575f805461ff0019166101001790555b5f805462ff00001916620100001790558015610180575f805461ff0019169055604051600181525f805160206105138339815191529060200160405180910390a15b50565b5f54610100900460ff166101aa57604051631afcd79f60e31b815260040160405180910390fd5b5f805463ff00000019166301000000179055565b610348806101cb5f395ff3fe60806040526004361061007c575f3560e01c80638129fc1c1161004c5780638129fc1c14610124578063c3b8ef2a14610138578063c9eb057114610156578063f5f1bec014610171575f80fd5b806310065ed214610087578063342db7391461009d5780634fd5303d146100d55780637cffe97a146100f5575f80fd5b3661008357005b5f80fd5b348015610092575f80fd5b5061009b610185565b005b3480156100a8575f80fd5b506100c26e1a185c991a185d0b595e1c1bdcd959608a1b81565b6040519081526020015b60405180910390f35b3480156100e0575f80fd5b505f5460405160ff90911681526020016100cc565b348015610100575f80fd5b505f54610114906301000000900460ff1681565b60405190151581526020016100cc565b34801561012f575f80fd5b5061009b6101c0565b348015610143575f80fd5b505f546101149062010000900460ff1681565b348015610161575f80fd5b505f54610100900460ff16610114565b34801561017c575f80fd5b5061009b610291565b5f54610100900460ff166101ac57604051631afcd79f60e31b815260040160405180910390fd5b5f805463ff00000019166301000000179055565b5f54610100900460ff16158080156101de57505f54600160ff909116105b1580156101fb5750303b1580156101f957505f5460ff166001145b155b156102185760405162dc149f60e41b815260040160405180910390fd5b5f805460ff191660011790558015610239575f805461ff0019166101001790555b5f805462ff0000191662010000179055801561028e575f805461ff0019169055604051600181527f7f26b83ff96e1f2b6a682f133852f6798a09c465da95921460cefb38474024989060200160405180910390a15b50565b61029961029b565b565b5f54610100900460ff16156102c25760405162dc149f60e41b815260040160405180910390fd5b5f5460ff90811614610299575f805460ff191660ff9081179091556040519081527f7f26b83ff96e1f2b6a682f133852f6798a09c465da95921460cefb38474024989060200160405180910390a156fea2646970667358221220b260ed1750a3c386ca89d8378266bd9e7bbc76e3ce35ba1378193d26e58678d264736f6c634300081400337f26b83ff96e1f2b6a682f133852f6798a09c465da95921460cefb3847402498",
  "linkReferences": {},
  "deployedLinkReferences": {}
}