{
  "_format": "hh-sol-artifact-1",
  "contractName": "$DisableBad1",
  "sourceName": "contracts-exposed/mocks/InitializableMock.sol",
  "abi": [
    {
      "inputs": [],
      "stateMutability": "payable",
      "type": "constructor"
    },
    {
      "inputs": [],
      "name": "AlreadyInitialized",
      "type": "error"
    },
    {
      "inputs": [],
      "name": "NotInitializing",
      "type": "error"
    },
    {
      "anonymous": false,
      "inputs": [
        {
          "indexed": false,
          "internalType": "uint8",
          "name": "version",
          "type": "uint8"
        }
      ],
      "name": "Initialized",
      "type": "event"
    },
    {
      "inputs": [],
      "name": "$_disableInitializers",
      "outputs": [],
      "stateMutability": "nonpayable",
      "type": "function"
    },
    {
      "inputs": [],
      "name": "$_getInitializedVersion",
      "outputs": [
        {
          "internalType": "uint8",
          "name": "ret0",
          "type": "uint8"
        }
      ],
      "stateMutability": "view",
      "type": "function"
    },
    {
      "inputs": [],
      "name": "$_isInitializing",
      "outputs": [
        {
          "internalType": "bool",
          "name": "ret0",
          "type": "bool"
        }
      ],
      "stateMutability": "view",
      "type": "function"
    },
    {
      "inputs": [],
      "name": "__hh_exposed_bytecode_marker",
      "outputs": [
        {
          "internalType": "bytes32",
          "name": "",
          "type": "bytes32"
        }
      ],
      "stateMutability": "view",
      "type": "function"
    },
    {
      "stateMutability": "payable",
      "type": "receive"
    }
  ],
  "bytecode": "0x608060405261000c6100bd565b5f54610100900460ff161580801561002a57505f54600160ff909116105b1580156100475750303b15801561004557505f5460ff166001145b155b156100645760405162dc149f60e41b815260040160405180910390fd5b5f805460ff191660011790558015610085575f805461ff0019166101001790555b80156100b7575f805461ff0019169055604051600181525f805160206102c68339815191529060200160405180910390a15b50610122565b5f54610100900460ff16156100e45760405162dc149f60e41b815260040160405180910390fd5b5f5460ff90811614610120575f805460ff191660ff9081179091556040519081525f805160206102c68339815191529060200160405180910390a15b565b6101978061012f5f395ff3fe608060405260043610610041575f3560e01c8063342db7391461004c5780634fd5303d14610084578063c9eb0571146100a4578063f5f1bec0146100ca575f80fd5b3661004857005b5f80fd5b348015610057575f80fd5b506100716e1a185c991a185d0b595e1c1bdcd959608a1b81565b6040519081526020015b60405180910390f35b34801561008f575f80fd5b505f5460405160ff909116815260200161007b565b3480156100af575f80fd5b505f54610100900460ff16604051901515815260200161007b565b3480156100d5575f80fd5b506100de6100e0565b005b6100e86100ea565b565b5f54610100900460ff16156101115760405162dc149f60e41b815260040160405180910390fd5b5f5460ff908116146100e8575f805460ff191660ff9081179091556040519081527f7f26b83ff96e1f2b6a682f133852f6798a09c465da95921460cefb38474024989060200160405180910390a156fea26469706673582212205152c867243e92f552526298ebec84071a641666bfc28da441023cb74323d2d264736f6c634300081400337f26b83ff96e1f2b6a682f133852f6798a09c465da95921460cefb3847402498",
  "linkReferences": {},
  "deployedLinkReferences": {}
}