{
  "_format": "hh-sol-artifact-1",
  "contractName": "$InitializableMock",
  "sourceName": "contracts-exposed/mocks/InitializableMock.sol",
  "abi": [
    {
      "inputs": [],
      "stateMutability": "payable",
      "type": "constructor"
    },
    {
      "inputs": [],
      "name": "AlreadyInitialized",
      "type": "error"
    },
    {
      "inputs": [],
      "name": "NotInitializing",
      "type": "error"
    },
    {
      "anonymous": false,
      "inputs": [
        {
          "indexed": false,
          "internalType": "uint8",
          "name": "version",
          "type": "uint8"
        }
      ],
      "name": "Initialized",
      "type": "event"
    },
    {
      "inputs": [],
      "name": "$_disableInitializers",
      "outputs": [],
      "stateMutability": "nonpayable",
      "type": "function"
    },
    {
      "inputs": [],
      "name": "$_getInitializedVersion",
      "outputs": [
        {
          "internalType": "uint8",
          "name": "ret0",
          "type": "uint8"
        }
      ],
      "stateMutability": "view",
      "type": "function"
    },
    {
      "inputs": [],
      "name": "$_isInitializing",
      "outputs": [
        {
          "internalType": "bool",
          "name": "ret0",
          "type": "bool"
        }
      ],
      "stateMutability": "view",
      "type": "function"
    },
    {
      "inputs": [],
      "name": "__hh_exposed_bytecode_marker",
      "outputs": [
        {
          "internalType": "bytes32",
          "name": "",
          "type": "bytes32"
        }
      ],
      "stateMutability": "view",
      "type": "function"
    },
    {
      "inputs": [],
      "name": "fail",
      "outputs": [],
      "stateMutability": "pure",
      "type": "function"
    },
    {
      "inputs": [],
      "name": "initialize",
      "outputs": [],
      "stateMutability": "nonpayable",
      "type": "function"
    },
    {
      "inputs": [],
      "name": "initializeOnlyInitializing",
      "outputs": [],
      "stateMutability": "nonpayable",
      "type": "function"
    },
    {
      "inputs": [
        {
          "internalType": "uint256",
          "name": "_x",
          "type": "uint256"
        }
      ],
      "name": "initializeWithX",
      "outputs": [],
      "stateMutability": "payable",
      "type": "function"
    },
    {
      "inputs": [],
      "name": "initializerNested",
      "outputs": [],
      "stateMutability": "nonpayable",
      "type": "function"
    },
    {
      "inputs": [],
      "name": "initializerRan",
      "outputs": [
        {
          "internalType": "bool",
          "name": "",
          "type": "bool"
        }
      ],
      "stateMutability": "view",
      "type": "function"
    },
    {
      "inputs": [],
      "name": "isInitializing",
      "outputs": [
        {
          "internalType": "bool",
          "name": "",
          "type": "bool"
        }
      ],
      "stateMutability": "view",
      "type": "function"
    },
    {
      "inputs": [
        {
          "internalType": "uint256",
          "name": "_x",
          "type": "uint256"
        }
      ],
      "name": "nonInitializable",
      "outputs": [],
      "stateMutability": "payable",
      "type": "function"
    },
    {
      "inputs": [],
      "name": "onlyInitializingNested",
      "outputs": [],
      "stateMutability": "nonpayable",
      "type": "function"
    },
    {
      "inputs": [],
      "name": "onlyInitializingRan",
      "outputs": [
        {
          "internalType": "bool",
          "name": "",
          "type": "bool"
        }
      ],
      "stateMutability": "view",
      "type": "function"
    },
    {
      "inputs": [],
      "name": "x",
      "outputs": [
        {
          "internalType": "uint256",
          "name": "",
          "type": "uint256"
        }
      ],
      "stateMutability": "view",
      "type": "function"
    },
    {
      "stateMutability": "payable",
      "type": "receive"
    }
  ],
  "bytecode": "0x608060405261065e806100115f395ff3fe6080604052600436106100e6575f3560e01c806376268ae811610087578063c3b8ef2a11610057578063c3b8ef2a1461021d578063c9eb057114610167578063e955c9ec1461023b578063f5f1bec01461024e575f80fd5b806376268ae8146101c25780637cffe97a146101d65780638129fc1c146101f5578063a9cc471814610209575f80fd5b8063342db739116100c2578063342db739146101425780633ec91f05146101675780634fd5303d1461018e57806368449d1b146101ae575f80fd5b806218eaa8146100f15780630c55699c1461010657806310065ed21461012e575f80fd5b366100ed57005b5f80fd5b6101046100ff3660046105f1565b610262565b005b348015610111575f80fd5b5061011b60015481565b6040519081526020015b60405180910390f35b348015610139575f80fd5b50610104610316565b34801561014d575f80fd5b5061011b6e1a185c991a185d0b595e1c1bdcd959608a1b81565b348015610172575f80fd5b505f54610100900460ff165b6040519015158152602001610125565b348015610199575f80fd5b505f5460405160ff9091168152602001610125565b3480156101b9575f80fd5b50610104610351565b3480156101cd575f80fd5b50610104610408565b3480156101e1575f80fd5b505f5461017e906301000000900460ff1681565b348015610200575f80fd5b50610104610485565b348015610214575f80fd5b5061010461053c565b348015610228575f80fd5b505f5461017e9062010000900460ff1681565b6101046102493660046105f1565b600155565b348015610259575f80fd5b5061010461058a565b5f54610100900460ff161580801561028057505f54600160ff909116105b15801561029d5750303b15801561029b57505f5460ff166001145b155b156102ba5760405162dc149f60e41b815260040160405180910390fd5b5f805460ff1916600117905580156102db575f805461ff0019166101001790555b60018290558015610312575f805461ff0019169055604051600181525f805160206106098339815191529060200160405180910390a15b5050565b5f54610100900460ff1661033d57604051631afcd79f60e31b815260040160405180910390fd5b5f805463ff00000019166301000000179055565b5f54610100900460ff161580801561036f57505f54600160ff909116105b15801561038c5750303b15801561038a57505f5460ff166001145b155b156103a95760405162dc149f60e41b815260040160405180910390fd5b5f805460ff1916600117905580156103ca575f805461ff0019166101001790555b6103d2610316565b8015610405575f805461ff0019169055604051600181525f80516020610609833981519152906020015b60405180910390a15b50565b5f54610100900460ff161580801561042657505f54600160ff909116105b1580156104435750303b15801561044157505f5460ff166001145b155b156104605760405162dc149f60e41b815260040160405180910390fd5b5f805460ff191660011790558015610481575f805461ff0019166101001790555b6103d25b5f54610100900460ff16158080156104a357505f54600160ff909116105b1580156104c05750303b1580156104be57505f5460ff166001145b155b156104dd5760405162dc149f60e41b815260040160405180910390fd5b5f805460ff1916600117905580156104fe575f805461ff0019166101001790555b5f805462ff00001916620100001790558015610405575f805461ff0019169055604051600181525f80516020610609833981519152906020016103fc565b60405162461bcd60e51b815260206004820181905260248201527f496e697469616c697a61626c654d6f636b20666f72636564206661696c757265604482015260640160405180910390fd5b565b6105885f54610100900460ff16156105b45760405162dc149f60e41b815260040160405180910390fd5b5f5460ff90811614610588575f805460ff191660ff9081179091556040519081525f805160206106098339815191529060200160405180910390a1565b5f60208284031215610601575f80fd5b503591905056fe7f26b83ff96e1f2b6a682f133852f6798a09c465da95921460cefb3847402498a2646970667358221220827939a287cad5bd39f726c8fc5a402a6bd26993776a0fd01fa3fcd54cffc80564736f6c63430008140033",
  "linkReferences": {},
  "deployedLinkReferences": {}
}