{
  "_format": "hh-sol-artifact-1",
  "contractName": "$ReinitializerMock",
  "sourceName": "contracts-exposed/mocks/InitializableMock.sol",
  "abi": [
    {
      "inputs": [],
      "stateMutability": "payable",
      "type": "constructor"
    },
    {
      "inputs": [],
      "name": "AlreadyInitialized",
      "type": "error"
    },
    {
      "inputs": [],
      "name": "NotInitializing",
      "type": "error"
    },
    {
      "anonymous": false,
      "inputs": [
        {
          "indexed": false,
          "internalType": "uint8",
          "name": "version",
          "type": "uint8"
        }
      ],
      "name": "Initialized",
      "type": "event"
    },
    {
      "inputs": [],
      "name": "$_disableInitializers",
      "outputs": [],
      "stateMutability": "nonpayable",
      "type": "function"
    },
    {
      "inputs": [],
      "name": "$_getInitializedVersion",
      "outputs": [
        {
          "internalType": "uint8",
          "name": "ret0",
          "type": "uint8"
        }
      ],
      "stateMutability": "view",
      "type": "function"
    },
    {
      "inputs": [],
      "name": "$_isInitializing",
      "outputs": [
        {
          "internalType": "bool",
          "name": "ret0",
          "type": "bool"
        }
      ],
      "stateMutability": "view",
      "type": "function"
    },
    {
      "inputs": [],
      "name": "__hh_exposed_bytecode_marker",
      "outputs": [
        {
          "internalType": "bytes32",
          "name": "",
          "type": "bytes32"
        }
      ],
      "stateMutability": "view",
      "type": "function"
    },
    {
      "inputs": [
        {
          "internalType": "uint8",
          "name": "i",
          "type": "uint8"
        },
        {
          "internalType": "uint8",
          "name": "j",
          "type": "uint8"
        }
      ],
      "name": "chainReinitialize",
      "outputs": [],
      "stateMutability": "nonpayable",
      "type": "function"
    },
    {
      "inputs": [],
      "name": "counter",
      "outputs": [
        {
          "internalType": "uint256",
          "name": "",
          "type": "uint256"
        }
      ],
      "stateMutability": "view",
      "type": "function"
    },
    {
      "inputs": [],
      "name": "disableInitializers",
      "outputs": [],
      "stateMutability": "nonpayable",
      "type": "function"
    },
    {
      "inputs": [],
      "name": "doStuff",
      "outputs": [],
      "stateMutability": "nonpayable",
      "type": "function"
    },
    {
      "inputs": [],
      "name": "getInitializedVersion",
      "outputs": [
        {
          "internalType": "uint8",
          "name": "",
          "type": "uint8"
        }
      ],
      "stateMutability": "view",
      "type": "function"
    },
    {
      "inputs": [],
      "name": "initialize",
      "outputs": [],
      "stateMutability": "nonpayable",
      "type": "function"
    },
    {
      "inputs": [
        {
          "internalType": "uint8",
          "name": "i",
          "type": "uint8"
        },
        {
          "internalType": "uint8",
          "name": "j",
          "type": "uint8"
        }
      ],
      "name": "nestedReinitialize",
      "outputs": [],
      "stateMutability": "nonpayable",
      "type": "function"
    },
    {
      "inputs": [
        {
          "internalType": "uint8",
          "name": "i",
          "type": "uint8"
        }
      ],
      "name": "reinitialize",
      "outputs": [],
      "stateMutability": "nonpayable",
      "type": "function"
    },
    {
      "stateMutability": "payable",
      "type": "receive"
    }
  ],
  "bytecode": "0x6080604052610548806100115f395ff3fe6080604052600436106100a8575f3560e01c80638129fc1c116100625780638129fc1c14610174578063874f33a114610188578063b3c6501514610120578063c9eb05711461019c578063f5f1bec0146100d4578063f8d6cdba146101c2575f80fd5b8063073de42e146100b357806331f44900146100d4578063342db739146100e85780634fd5303d1461012057806361bc221a146101405780636b2d8f8f14610155575f80fd5b366100af57005b5f80fd5b3480156100be575f80fd5b506100d26100cd36600461047d565b6101e1565b005b3480156100df575f80fd5b506100d2610268565b3480156100f3575f80fd5b5061010d6e1a185c991a185d0b595e1c1bdcd959608a1b81565b6040519081526020015b60405180910390f35b34801561012b575f80fd5b505f5460405160ff9091168152602001610117565b34801561014b575f80fd5b5061010d60015481565b348015610160575f80fd5b506100d261016f36600461049d565b610272565b34801561017f575f80fd5b506100d2610288565b348015610193575f80fd5b506100d261033e565b3480156101a7575f80fd5b505f54610100900460ff166040519015158152602001610117565b3480156101cd575f80fd5b506100d26101dc36600461049d565b61037b565b5f548190610100900460ff16806101ff57505f5460ff808316911610155b1561021c5760405162dc149f60e41b815260040160405180910390fd5b5f805461ffff191660ff83161761010017905561023761033e565b5f805461ff001916905560405160ff821681525f805160206104f38339815191529060200160405180910390a15050565b610270610404565b565b61027b826101e1565b610284816101e1565b5050565b5f54610100900460ff16158080156102a657505f54600160ff909116105b1580156102c35750303b1580156102c157505f5460ff166001145b155b156102e05760405162dc149f60e41b815260040160405180910390fd5b5f805460ff191660011790558015610301575f805461ff0019166101001790555b61030961033e565b801561033b575f805461ff0019169055604051600181525f805160206104f38339815191529060200160405180910390a15b50565b5f54610100900460ff1661036557604051631afcd79f60e31b815260040160405180910390fd5b60018054905f610374836104ce565b9190505550565b5f548290610100900460ff168061039957505f5460ff808316911610155b156103b65760405162dc149f60e41b815260040160405180910390fd5b5f805461ffff191660ff8316176101001790556103d2826101e1565b5f805461ff001916905560405160ff821681525f805160206104f38339815191529060200160405180910390a1505050565b5f54610100900460ff161561042b5760405162dc149f60e41b815260040160405180910390fd5b5f5460ff90811614610270575f805460ff191660ff9081179091556040519081525f805160206104f38339815191529060200160405180910390a1565b803560ff81168114610478575f80fd5b919050565b5f6020828403121561048d575f80fd5b61049682610468565b9392505050565b5f80604083850312156104ae575f80fd5b6104b783610468565b91506104c560208401610468565b90509250929050565b5f600182016104eb57634e487b7160e01b5f52601160045260245ffd5b506001019056fe7f26b83ff96e1f2b6a682f133852f6798a09c465da95921460cefb3847402498a2646970667358221220e0de782cebf1ed382e72eebc78e9b11539896b1d95f553429ab6a9a14b71ea2a64736f6c63430008140033",
  "linkReferences": {},
  "deployedLinkReferences": {}
}