{
  "_format": "hh-sol-artifact-1",
  "contractName": "$ERC4626LimitsMock",
  "sourceName": "contracts-exposed/mocks/token/ERC4626LimitsMock.sol",
  "abi": [
    {
      "inputs": [
        {
          "internalType": "string",
          "name": "name_",
          "type": "string"
        },
        {
          "internalType": "string",
          "name": "symbol_",
          "type": "string"
        },
        {
          "internalType": "contract IERC20",
          "name": "asset_",
          "type": "address"
        }
      ],
      "stateMutability": "payable",
      "type": "constructor"
    },
    {
      "inputs": [
        {
          "internalType": "address",
          "name": "target",
          "type": "address"
        }
      ],
      "name": "AddressEmptyCode",
      "type": "error"
    },
    {
      "inputs": [
        {
          "internalType": "address",
          "name": "account",
          "type": "address"
        }
      ],
      "name": "AddressInsufficientBalance",
      "type": "error"
    },
    {
      "inputs": [
        {
          "internalType": "address",
          "name": "spender",
          "type": "address"
        },
        {
          "internalType": "uint256",
          "name": "currentAllowance",
          "type": "uint256"
        },
        {
          "internalType": "uint256",
          "name": "requestedDecrease",
          "type": "uint256"
        }
      ],
      "name": "ERC20FailedDecreaseAllowance",
      "type": "error"
    },
    {
      "inputs": [
        {
          "internalType": "address",
          "name": "spender",
          "type": "address"
        },
        {
          "internalType": "uint256",
          "name": "allowance",
          "type": "uint256"
        },
        {
          "internalType": "uint256",
          "name": "needed",
          "type": "uint256"
        }
      ],
      "name": "ERC20InsufficientAllowance",
      "type": "error"
    },
    {
      "inputs": [
        {
          "internalType": "address",
          "name": "sender",
          "type": "address"
        },
        {
          "internalType": "uint256",
          "name": "balance",
          "type": "uint256"
        },
        {
          "internalType": "uint256",
          "name": "needed",
          "type": "uint256"
        }
      ],
      "name": "ERC20InsufficientBalance",
      "type": "error"
    },
    {
      "inputs": [
        {
          "internalType": "address",
          "name": "approver",
          "type": "address"
        }
      ],
      "name": "ERC20InvalidApprover",
      "type": "error"
    },
    {
      "inputs": [
        {
          "internalType": "address",
          "name": "receiver",
          "type": "address"
        }
      ],
      "name": "ERC20InvalidReceiver",
      "type": "error"
    },
    {
      "inputs": [
        {
          "internalType": "address",
          "name": "sender",
          "type": "address"
        }
      ],
      "name": "ERC20InvalidSender",
      "type": "error"
    },
    {
      "inputs": [
        {
          "internalType": "address",
          "name": "spender",
          "type": "address"
        }
      ],
      "name": "ERC20InvalidSpender",
      "type": "error"
    },
    {
      "inputs": [
        {
          "internalType": "address",
          "name": "receiver",
          "type": "address"
        },
        {
          "internalType": "uint256",
          "name": "assets",
          "type": "uint256"
        },
        {
          "internalType": "uint256",
          "name": "max",
          "type": "uint256"
        }
      ],
      "name": "ERC4626ExceededMaxDeposit",
      "type": "error"
    },
    {
      "inputs": [
        {
          "internalType": "address",
          "name": "receiver",
          "type": "address"
        },
        {
          "internalType": "uint256",
          "name": "shares",
          "type": "uint256"
        },
        {
          "internalType": "uint256",
          "name": "max",
          "type": "uint256"
        }
      ],
      "name": "ERC4626ExceededMaxMint",
      "type": "error"
    },
    {
      "inputs": [
        {
          "internalType": "address",
          "name": "owner",
          "type": "address"
        },
        {
          "internalType": "uint256",
          "name": "shares",
          "type": "uint256"
        },
        {
          "internalType": "uint256",
          "name": "max",
          "type": "uint256"
        }
      ],
      "name": "ERC4626ExceededMaxRedeem",
      "type": "error"
    },
    {
      "inputs": [
        {
          "internalType": "address",
          "name": "owner",
          "type": "address"
        },
        {
          "internalType": "uint256",
          "name": "assets",
          "type": "uint256"
        },
        {
          "internalType": "uint256",
          "name": "max",
          "type": "uint256"
        }
      ],
      "name": "ERC4626ExceededMaxWithdraw",
      "type": "error"
    },
    {
      "inputs": [],
      "name": "FailedInnerCall",
      "type": "error"
    },
    {
      "inputs": [],
      "name": "MathOverflowedMulDiv",
      "type": "error"
    },
    {
      "inputs": [
        {
          "internalType": "address",
          "name": "token",
          "type": "address"
        }
      ],
      "name": "SafeERC20FailedOperation",
      "type": "error"
    },
    {
      "anonymous": false,
      "inputs": [
        {
          "indexed": true,
          "internalType": "address",
          "name": "owner",
          "type": "address"
        },
        {
          "indexed": true,
          "internalType": "address",
          "name": "spender",
          "type": "address"
        },
        {
          "indexed": false,
          "internalType": "uint256",
          "name": "value",
          "type": "uint256"
        }
      ],
      "name": "Approval",
      "type": "event"
    },
    {
      "anonymous": false,
      "inputs": [
        {
          "indexed": true,
          "internalType": "address",
          "name": "sender",
          "type": "address"
        },
        {
          "indexed": true,
          "internalType": "address",
          "name": "owner",
          "type": "address"
        },
        {
          "indexed": false,
          "internalType": "uint256",
          "name": "assets",
          "type": "uint256"
        },
        {
          "indexed": false,
          "internalType": "uint256",
          "name": "shares",
          "type": "uint256"
        }
      ],
      "name": "Deposit",
      "type": "event"
    },
    {
      "anonymous": false,
      "inputs": [
        {
          "indexed": true,
          "internalType": "address",
          "name": "from",
          "type": "address"
        },
        {
          "indexed": true,
          "internalType": "address",
          "name": "to",
          "type": "address"
        },
        {
          "indexed": false,
          "internalType": "uint256",
          "name": "value",
          "type": "uint256"
        }
      ],
      "name": "Transfer",
      "type": "event"
    },
    {
      "anonymous": false,
      "inputs": [
        {
          "indexed": true,
          "internalType": "address",
          "name": "sender",
          "type": "address"
        },
        {
          "indexed": true,
          "internalType": "address",
          "name": "receiver",
          "type": "address"
        },
        {
          "indexed": true,
          "internalType": "address",
          "name": "owner",
          "type": "address"
        },
        {
          "indexed": false,
          "internalType": "uint256",
          "name": "assets",
          "type": "uint256"
        },
        {
          "indexed": false,
          "internalType": "uint256",
          "name": "shares",
          "type": "uint256"
        }
      ],
      "name": "Withdraw",
      "type": "event"
    },
    {
      "inputs": [
        {
          "internalType": "address",
          "name": "owner",
          "type": "address"
        },
        {
          "internalType": "address",
          "name": "spender",
          "type": "address"
        },
        {
          "internalType": "uint256",
          "name": "value",
          "type": "uint256"
        },
        {
          "internalType": "bool",
          "name": "emitEvent",
          "type": "bool"
        }
      ],
      "name": "$_approve",
      "outputs": [],
      "stateMutability": "nonpayable",
      "type": "function"
    },
    {
      "inputs": [
        {
          "internalType": "address",
          "name": "owner",
          "type": "address"
        },
        {
          "internalType": "address",
          "name": "spender",
          "type": "address"
        },
        {
          "internalType": "uint256",
          "name": "value",
          "type": "uint256"
        }
      ],
      "name": "$_approve",
      "outputs": [],
      "stateMutability": "nonpayable",
      "type": "function"
    },
    {
      "inputs": [
        {
          "internalType": "address",
          "name": "account",
          "type": "address"
        },
        {
          "internalType": "uint256",
          "name": "value",
          "type": "uint256"
        }
      ],
      "name": "$_burn",
      "outputs": [],
      "stateMutability": "nonpayable",
      "type": "function"
    },
    {
      "inputs": [
        {
          "internalType": "uint256",
          "name": "shares",
          "type": "uint256"
        },
        {
          "internalType": "enum Math.Rounding",
          "name": "rounding",
          "type": "uint8"
        }
      ],
      "name": "$_convertToAssets",
      "outputs": [
        {
          "internalType": "uint256",
          "name": "ret0",
          "type": "uint256"
        }
      ],
      "stateMutability": "view",
      "type": "function"
    },
    {
      "inputs": [
        {
          "internalType": "uint256",
          "name": "assets",
          "type": "uint256"
        },
        {
          "internalType": "enum Math.Rounding",
          "name": "rounding",
          "type": "uint8"
        }
      ],
      "name": "$_convertToShares",
      "outputs": [
        {
          "internalType": "uint256",
          "name": "ret0",
          "type": "uint256"
        }
      ],
      "stateMutability": "view",
      "type": "function"
    },
    {
      "inputs": [],
      "name": "$_decimalsOffset",
      "outputs": [
        {
          "internalType": "uint8",
          "name": "ret0",
          "type": "uint8"
        }
      ],
      "stateMutability": "view",
      "type": "function"
    },
    {
      "inputs": [
        {
          "internalType": "address",
          "name": "caller",
          "type": "address"
        },
        {
          "internalType": "address",
          "name": "receiver",
          "type": "address"
        },
        {
          "internalType": "uint256",
          "name": "assets",
          "type": "uint256"
        },
        {
          "internalType": "uint256",
          "name": "shares",
          "type": "uint256"
        }
      ],
      "name": "$_deposit",
      "outputs": [],
      "stateMutability": "nonpayable",
      "type": "function"
    },
    {
      "inputs": [],
      "name": "$_maxDeposit",
      "outputs": [
        {
          "internalType": "uint256",
          "name": "",
          "type": "uint256"
        }
      ],
      "stateMutability": "view",
      "type": "function"
    },
    {
      "inputs": [],
      "name": "$_maxMint",
      "outputs": [
        {
          "internalType": "uint256",
          "name": "",
          "type": "uint256"
        }
      ],
      "stateMutability": "view",
      "type": "function"
    },
    {
      "inputs": [
        {
          "internalType": "address",
          "name": "account",
          "type": "address"
        },
        {
          "internalType": "uint256",
          "name": "value",
          "type": "uint256"
        }
      ],
      "name": "$_mint",
      "outputs": [],
      "stateMutability": "nonpayable",
      "type": "function"
    },
    {
      "inputs": [],
      "name": "$_msgData",
      "outputs": [
        {
          "internalType": "bytes",
          "name": "ret0",
          "type": "bytes"
        }
      ],
      "stateMutability": "view",
      "type": "function"
    },
    {
      "inputs": [],
      "name": "$_msgSender",
      "outputs": [
        {
          "internalType": "address",
          "name": "ret0",
          "type": "address"
        }
      ],
      "stateMutability": "view",
      "type": "function"
    },
    {
      "inputs": [
        {
          "internalType": "address",
          "name": "owner",
          "type": "address"
        },
        {
          "internalType": "address",
          "name": "spender",
          "type": "address"
        },
        {
          "internalType": "uint256",
          "name": "value",
          "type": "uint256"
        }
      ],
      "name": "$_spendAllowance",
      "outputs": [],
      "stateMutability": "nonpayable",
      "type": "function"
    },
    {
      "inputs": [
        {
          "internalType": "address",
          "name": "from",
          "type": "address"
        },
        {
          "internalType": "address",
          "name": "to",
          "type": "address"
        },
        {
          "internalType": "uint256",
          "name": "value",
          "type": "uint256"
        }
      ],
      "name": "$_transfer",
      "outputs": [],
      "stateMutability": "nonpayable",
      "type": "function"
    },
    {
      "inputs": [
        {
          "internalType": "address",
          "name": "from",
          "type": "address"
        },
        {
          "internalType": "address",
          "name": "to",
          "type": "address"
        },
        {
          "internalType": "uint256",
          "name": "value",
          "type": "uint256"
        }
      ],
      "name": "$_update",
      "outputs": [],
      "stateMutability": "nonpayable",
      "type": "function"
    },
    {
      "inputs": [
        {
          "internalType": "address",
          "name": "caller",
          "type": "address"
        },
        {
          "internalType": "address",
          "name": "receiver",
          "type": "address"
        },
        {
          "internalType": "address",
          "name": "owner",
          "type": "address"
        },
        {
          "internalType": "uint256",
          "name": "assets",
          "type": "uint256"
        },
        {
          "internalType": "uint256",
          "name": "shares",
          "type": "uint256"
        }
      ],
      "name": "$_withdraw",
      "outputs": [],
      "stateMutability": "nonpayable",
      "type": "function"
    },
    {
      "inputs": [],
      "name": "__hh_exposed_bytecode_marker",
      "outputs": [
        {
          "internalType": "bytes32",
          "name": "",
          "type": "bytes32"
        }
      ],
      "stateMutability": "view",
      "type": "function"
    },
    {
      "inputs": [
        {
          "internalType": "address",
          "name": "owner",
          "type": "address"
        },
        {
          "internalType": "address",
          "name": "spender",
          "type": "address"
        }
      ],
      "name": "allowance",
      "outputs": [
        {
          "internalType": "uint256",
          "name": "",
          "type": "uint256"
        }
      ],
      "stateMutability": "view",
      "type": "function"
    },
    {
      "inputs": [
        {
          "internalType": "address",
          "name": "spender",
          "type": "address"
        },
        {
          "internalType": "uint256",
          "name": "value",
          "type": "uint256"
        }
      ],
      "name": "approve",
      "outputs": [
        {
          "internalType": "bool",
          "name": "",
          "type": "bool"
        }
      ],
      "stateMutability": "nonpayable",
      "type": "function"
    },
    {
      "inputs": [],
      "name": "asset",
      "outputs": [
        {
          "internalType": "address",
          "name": "",
          "type": "address"
        }
      ],
      "stateMutability": "view",
      "type": "function"
    },
    {
      "inputs": [
        {
          "internalType": "address",
          "name": "account",
          "type": "address"
        }
      ],
      "name": "balanceOf",
      "outputs": [
        {
          "internalType": "uint256",
          "name": "",
          "type": "uint256"
        }
      ],
      "stateMutability": "view",
      "type": "function"
    },
    {
      "inputs": [
        {
          "internalType": "uint256",
          "name": "shares",
          "type": "uint256"
        }
      ],
      "name": "convertToAssets",
      "outputs": [
        {
          "internalType": "uint256",
          "name": "",
          "type": "uint256"
        }
      ],
      "stateMutability": "view",
      "type": "function"
    },
    {
      "inputs": [
        {
          "internalType": "uint256",
          "name": "assets",
          "type": "uint256"
        }
      ],
      "name": "convertToShares",
      "outputs": [
        {
          "internalType": "uint256",
          "name": "",
          "type": "uint256"
        }
      ],
      "stateMutability": "view",
      "type": "function"
    },
    {
      "inputs": [],
      "name": "decimals",
      "outputs": [
        {
          "internalType": "uint8",
          "name": "",
          "type": "uint8"
        }
      ],
      "stateMutability": "view",
      "type": "function"
    },
    {
      "inputs": [
        {
          "internalType": "address",
          "name": "spender",
          "type": "address"
        },
        {
          "internalType": "uint256",
          "name": "requestedDecrease",
          "type": "uint256"
        }
      ],
      "name": "decreaseAllowance",
      "outputs": [
        {
          "internalType": "bool",
          "name": "",
          "type": "bool"
        }
      ],
      "stateMutability": "nonpayable",
      "type": "function"
    },
    {
      "inputs": [
        {
          "internalType": "uint256",
          "name": "assets",
          "type": "uint256"
        },
        {
          "internalType": "address",
          "name": "receiver",
          "type": "address"
        }
      ],
      "name": "deposit",
      "outputs": [
        {
          "internalType": "uint256",
          "name": "",
          "type": "uint256"
        }
      ],
      "stateMutability": "nonpayable",
      "type": "function"
    },
    {
      "inputs": [
        {
          "internalType": "address",
          "name": "spender",
          "type": "address"
        },
        {
          "internalType": "uint256",
          "name": "addedValue",
          "type": "uint256"
        }
      ],
      "name": "increaseAllowance",
      "outputs": [
        {
          "internalType": "bool",
          "name": "",
          "type": "bool"
        }
      ],
      "stateMutability": "nonpayable",
      "type": "function"
    },
    {
      "inputs": [
        {
          "internalType": "address",
          "name": "",
          "type": "address"
        }
      ],
      "name": "maxDeposit",
      "outputs": [
        {
          "internalType": "uint256",
          "name": "",
          "type": "uint256"
        }
      ],
      "stateMutability": "view",
      "type": "function"
    },
    {
      "inputs": [
        {
          "internalType": "address",
          "name": "",
          "type": "address"
        }
      ],
      "name": "maxMint",
      "outputs": [
        {
          "internalType": "uint256",
          "name": "",
          "type": "uint256"
        }
      ],
      "stateMutability": "view",
      "type": "function"
    },
    {
      "inputs": [
        {
          "internalType": "address",
          "name": "owner",
          "type": "address"
        }
      ],
      "name": "maxRedeem",
      "outputs": [
        {
          "internalType": "uint256",
          "name": "",
          "type": "uint256"
        }
      ],
      "stateMutability": "view",
      "type": "function"
    },
    {
      "inputs": [
        {
          "internalType": "address",
          "name": "owner",
          "type": "address"
        }
      ],
      "name": "maxWithdraw",
      "outputs": [
        {
          "internalType": "uint256",
          "name": "",
          "type": "uint256"
        }
      ],
      "stateMutability": "view",
      "type": "function"
    },
    {
      "inputs": [
        {
          "internalType": "uint256",
          "name": "shares",
          "type": "uint256"
        },
        {
          "internalType": "address",
          "name": "receiver",
          "type": "address"
        }
      ],
      "name": "mint",
      "outputs": [
        {
          "internalType": "uint256",
          "name": "",
          "type": "uint256"
        }
      ],
      "stateMutability": "nonpayable",
      "type": "function"
    },
    {
      "inputs": [],
      "name": "name",
      "outputs": [
        {
          "internalType": "string",
          "name": "",
          "type": "string"
        }
      ],
      "stateMutability": "view",
      "type": "function"
    },
    {
      "inputs": [
        {
          "internalType": "uint256",
          "name": "assets",
          "type": "uint256"
        }
      ],
      "name": "previewDeposit",
      "outputs": [
        {
          "internalType": "uint256",
          "name": "",
          "type": "uint256"
        }
      ],
      "stateMutability": "view",
      "type": "function"
    },
    {
      "inputs": [
        {
          "internalType": "uint256",
          "name": "shares",
          "type": "uint256"
        }
      ],
      "name": "previewMint",
      "outputs": [
        {
          "internalType": "uint256",
          "name": "",
          "type": "uint256"
        }
      ],
      "stateMutability": "view",
      "type": "function"
    },
    {
      "inputs": [
        {
          "internalType": "uint256",
          "name": "shares",
          "type": "uint256"
        }
      ],
      "name": "previewRedeem",
      "outputs": [
        {
          "internalType": "uint256",
          "name": "",
          "type": "uint256"
        }
      ],
      "stateMutability": "view",
      "type": "function"
    },
    {
      "inputs": [
        {
          "internalType": "uint256",
          "name": "assets",
          "type": "uint256"
        }
      ],
      "name": "previewWithdraw",
      "outputs": [
        {
          "internalType": "uint256",
          "name": "",
          "type": "uint256"
        }
      ],
      "stateMutability": "view",
      "type": "function"
    },
    {
      "inputs": [
        {
          "internalType": "uint256",
          "name": "shares",
          "type": "uint256"
        },
        {
          "internalType": "address",
          "name": "receiver",
          "type": "address"
        },
        {
          "internalType": "address",
          "name": "owner",
          "type": "address"
        }
      ],
      "name": "redeem",
      "outputs": [
        {
          "internalType": "uint256",
          "name": "",
          "type": "uint256"
        }
      ],
      "stateMutability": "nonpayable",
      "type": "function"
    },
    {
      "inputs": [],
      "name": "symbol",
      "outputs": [
        {
          "internalType": "string",
          "name": "",
          "type": "string"
        }
      ],
      "stateMutability": "view",
      "type": "function"
    },
    {
      "inputs": [],
      "name": "totalAssets",
      "outputs": [
        {
          "internalType": "uint256",
          "name": "",
          "type": "uint256"
        }
      ],
      "stateMutability": "view",
      "type": "function"
    },
    {
      "inputs": [],
      "name": "totalSupply",
      "outputs": [
        {
          "internalType": "uint256",
          "name": "",
          "type": "uint256"
        }
      ],
      "stateMutability": "view",
      "type": "function"
    },
    {
      "inputs": [
        {
          "internalType": "address",
          "name": "to",
          "type": "address"
        },
        {
          "internalType": "uint256",
          "name": "value",
          "type": "uint256"
        }
      ],
      "name": "transfer",
      "outputs": [
        {
          "internalType": "bool",
          "name": "",
          "type": "bool"
        }
      ],
      "stateMutability": "nonpayable",
      "type": "function"
    },
    {
      "inputs": [
        {
          "internalType": "address",
          "name": "from",
          "type": "address"
        },
        {
          "internalType": "address",
          "name": "to",
          "type": "address"
        },
        {
          "internalType": "uint256",
          "name": "value",
          "type": "uint256"
        }
      ],
      "name": "transferFrom",
      "outputs": [
        {
          "internalType": "bool",
          "name": "",
          "type": "bool"
        }
      ],
      "stateMutability": "nonpayable",
      "type": "function"
    },
    {
      "inputs": [
        {
          "internalType": "uint256",
          "name": "assets",
          "type": "uint256"
        },
        {
          "internalType": "address",
          "name": "receiver",
          "type": "address"
        },
        {
          "internalType": "address",
          "name": "owner",
          "type": "address"
        }
      ],
      "name": "withdraw",
      "outputs": [
        {
          "internalType": "uint256",
          "name": "",
          "type": "uint256"
        }
      ],
      "stateMutability": "nonpayable",
      "type": "function"
    },
    {
      "stateMutability": "payable",
      "type": "receive"
    }
  ],
  "bytecode": "0x60c060405260405162001e0038038062001e00833981016040819052620000269162000244565b808383600362000037838262000357565b50600462000046828262000357565b5050505f806200005c836200009f60201b60201c565b91509150816200006e57601262000070565b805b60ff1660a05250506001600160a01b0316608052505068056bc75e2d6310000060058190556006555062000454565b60408051600481526024810182526020810180516001600160e01b031663313ce56760e01b17905290515f918291829182916001600160a01b03871691620000e7916200041f565b5f60405180830381855afa9150503d805f811462000121576040519150601f19603f3d011682016040523d82523d5f602084013e62000126565b606091505b50915091508180156200013b57506020815110155b1562000172575f818060200190518101906200015891906200043c565b905060ff811162000170576001969095509350505050565b505b505f9485945092505050565b634e487b7160e01b5f52604160045260245ffd5b5f5b83811015620001ae57818101518382015260200162000194565b50505f910152565b5f82601f830112620001c6575f80fd5b81516001600160401b0380821115620001e357620001e36200017e565b604051601f8301601f19908116603f011681019082821181831017156200020e576200020e6200017e565b8160405283815286602085880101111562000227575f80fd5b6200023a84602083016020890162000192565b9695505050505050565b5f805f6060848603121562000257575f80fd5b83516001600160401b03808211156200026e575f80fd5b6200027c87838801620001b6565b9450602086015191508082111562000292575f80fd5b50620002a186828701620001b6565b604086015190935090506001600160a01b0381168114620002c0575f80fd5b809150509250925092565b600181811c90821680620002e057607f821691505b602082108103620002ff57634e487b7160e01b5f52602260045260245ffd5b50919050565b601f82111562000352575f81815260208120601f850160051c810160208610156200032d5750805b601f850160051c820191505b818110156200034e5782815560010162000339565b5050505b505050565b81516001600160401b038111156200037357620003736200017e565b6200038b81620003848454620002cb565b8462000305565b602080601f831160018114620003c1575f8415620003a95750858301515b5f19600386901b1c1916600185901b1785556200034e565b5f85815260208120601f198616915b82811015620003f157888601518255948401946001909101908401620003d0565b50858210156200040f57878501515f19600388901b60f8161c191681555b5050505050600190811b01905550565b5f82516200043281846020870162000192565b9190910192915050565b5f602082840312156200044d575f80fd5b5051919050565b60805160a0516119756200048b5f395f61091801525f8181610409015281816107b201528181610f5b015261100d01526119755ff3fe608060405260043610610262575f3560e01c806394bf804d1161013f578063c6e6f592116100b3578063d905777e11610078578063d905777e1461070d578063dd62ed3e1461072c578063e047838d1461074b578063ef4f78d11461076a578063ef8b30f71461067d578063efb43b071461077c575f80fd5b8063c6e6f5921461067d578063ca10eca01461069c578063cc461d62146106bb578063ce18d3ff146106da578063ce96cb77146106ee575f80fd5b8063b2331d7d11610104578063b2331d7d146105cc578063b3d7f6b9146105eb578063b460af941461060a578063ba08765214610629578063c63d75b614610648578063c6b3d64814610669575f80fd5b806394bf804d1461053c57806395d89b411461055b5780639c0b90c71461056f578063a457c2d71461058e578063a9059cbb146105ad575f80fd5b8063342db739116101d65780636855a1781161019b5780636855a1781461046d5780636e553f651461048c57806370a08231146104ab57806383b95579146104df578063861e3d3d146104fe5780638b4e914a1461051d575f80fd5b8063342db739146103d657806338d52e0f146103fb578063395093511461042d578063402d267d1461044c5780634cdad506146102b5575f80fd5b806318160ddd1161022757806318160ddd1461032257806323b872dd146103365780632904df2914610355578063313ce5671461037b57806332bc74aa146103a157806332cadf3c146103c2575f80fd5b806301e1d1141461026d57806306fdde031461029457806307a2d13a146102b5578063095ea7b3146102d45780630a28a47714610303575f80fd5b3661026957005b5f80fd5b348015610278575f80fd5b5061028161079b565b6040519081526020015b60405180910390f35b34801561029f575f80fd5b506102a8610828565b60405161028b91906114b0565b3480156102c0575f80fd5b506102816102cf3660046114c2565b6108b8565b3480156102df575f80fd5b506102f36102ee3660046114f4565b6108c9565b604051901515815260200161028b565b34801561030e575f80fd5b5061028161031d3660046114c2565b6108e0565b34801561032d575f80fd5b50600254610281565b348015610341575f80fd5b506102f361035036600461151c565b6108ec565b348015610360575f80fd5b50335b6040516001600160a01b03909116815260200161028b565b348015610386575f80fd5b5061038f610911565b60405160ff909116815260200161028b565b3480156103ac575f80fd5b506103c06103bb366004611565565b61093c565b005b3480156103cd575f80fd5b506102a861094e565b3480156103e1575f80fd5b506102816e1a185c991a185d0b595e1c1bdcd959608a1b81565b348015610406575f80fd5b507f0000000000000000000000000000000000000000000000000000000000000000610363565b348015610438575f80fd5b506102f36104473660046114f4565b61098b565b348015610457575f80fd5b506102816104663660046115b1565b5060055490565b348015610478575f80fd5b506103c061048736600461151c565b6109ac565b348015610497575f80fd5b506102816104a63660046115ca565b6109bc565b3480156104b6575f80fd5b506102816104c53660046115b1565b6001600160a01b03165f9081526020819052604090205490565b3480156104ea575f80fd5b506103c06104f93660046115f4565b610a19565b348015610509575f80fd5b506103c061051836600461151c565b610a2d565b348015610528575f80fd5b50610281610537366004611645565b610a38565b348015610547575f80fd5b506102816105563660046115ca565b610a43565b348015610566575f80fd5b506102a8610a8f565b34801561057a575f80fd5b506103c0610589366004611676565b610a9e565b348015610599575f80fd5b506102f36105a83660046114f4565b610aaa565b3480156105b8575f80fd5b506102f36105c73660046114f4565b610af8565b3480156105d7575f80fd5b506103c06105e636600461151c565b610b05565b3480156105f6575f80fd5b506102816106053660046114c2565b610b10565b348015610615575f80fd5b506102816106243660046116b5565b610b1c565b348015610634575f80fd5b506102816106433660046116b5565b610b72565b348015610653575f80fd5b506102816106623660046115b1565b5060065490565b348015610674575f80fd5b50600654610281565b348015610688575f80fd5b506102816106973660046114c2565b610bbf565b3480156106a7575f80fd5b506102816106b6366004611645565b610bca565b3480156106c6575f80fd5b506103c06106d53660046114f4565b610bd5565b3480156106e5575f80fd5b50600554610281565b3480156106f9575f80fd5b506102816107083660046115b1565b610be3565b348015610718575f80fd5b506102816107273660046115b1565b610c05565b348015610737575f80fd5b506102816107463660046116ee565b610c22565b348015610756575f80fd5b506103c06107653660046114f4565b610c4c565b348015610775575f80fd5b505f61038f565b348015610787575f80fd5b506103c061079636600461151c565b610c56565b6040516370a0823160e01b81523060048201525f907f00000000000000000000000000000000000000000000000000000000000000006001600160a01b0316906370a0823190602401602060405180830381865afa1580156107ff573d5f803e3d5ffd5b505050506040513d601f19601f820116820180604052508101906108239190611716565b905090565b6060600380546108379061172d565b80601f01602080910402602001604051908101604052809291908181526020018280546108639061172d565b80156108ae5780601f10610885576101008083540402835291602001916108ae565b820191905f5260205f20905b81548152906001019060200180831161089157829003601f168201915b5050505050905090565b5f6108c3825f610c61565b92915050565b5f336108d6818585610c99565b5060019392505050565b5f6108c3826001610ca6565b5f336108f9858285610cd5565b610904858585610d1f565b60019150505b9392505050565b5f610823817f0000000000000000000000000000000000000000000000000000000000000000611779565b61094884848484610d71565b50505050565b60605f368080601f0160208091040260200160405190810160405280939291908181526020018383808284375f9201919091525092949350505050565b5f336108d681858561099d8383610c22565b6109a79190611792565b610c99565b6109b7838383610e43565b505050565b5f806109c760055490565b9050808411156109f957828482604051633c8097d960e11b81526004016109f0939291906117a5565b60405180910390fd5b5f610a0385610bbf565b9050610a1133858784610f56565b949350505050565b610a268585858585610fda565b5050505050565b6109b7838383610c99565b5f61090a8383610ca6565b5f80610a4e60065490565b905080841115610a775782848260405163284ff66760e01b81526004016109f0939291906117a5565b5f610a8185610b10565b9050610a1133858388610f56565b6060600480546108379061172d565b61094884848484610f56565b5f3381610ab78286610c22565b905083811015610ae057848185604051632983c0c360e21b81526004016109f0939291906117a5565b610aed8286868403610c99565b506001949350505050565b5f336108d6818585610d1f565b6109b7838383610cd5565b5f6108c3826001610c61565b5f80610b2783610be3565b905080851115610b5057828582604051633fa733bb60e21b81526004016109f0939291906117a5565b5f610b5a866108e0565b9050610b693386868985610fda565b95945050505050565b5f80610b7d83610c05565b905080851115610ba657828582604051632e52afbb60e21b81526004016109f0939291906117a5565b5f610bb0866108b8565b9050610b69338686848a610fda565b5f6108c3825f610ca6565b5f61090a8383610c61565b610bdf828261109a565b5050565b6001600160a01b0381165f908152602081905260408120546108c3905f610c61565b6001600160a01b0381165f908152602081905260408120546108c3565b6001600160a01b039182165f90815260016020908152604080832093909416825291909152205490565b610bdf82826110ce565b6109b7838383610d1f565b5f61090a610c6d61079b565b610c78906001611792565b610c835f600a6118a6565b600254610c909190611792565b85919085611102565b6109b78383836001610d71565b5f61090a610cb582600a6118a6565b600254610cc29190611792565b610cca61079b565b610c90906001611792565b5f610ce08484610c22565b90505f1981146109485781811015610d1157828183604051637dc7a0d960e11b81526004016109f0939291906117a5565b61094884848484035f610d71565b6001600160a01b038316610d4857604051634b637e8f60e11b81525f60048201526024016109f0565b6001600160a01b0382166109ac5760405163ec442f0560e01b81525f60048201526024016109f0565b6001600160a01b038416610d9a5760405163e602df0560e01b81525f60048201526024016109f0565b6001600160a01b038316610dc357604051634a1406b160e11b81525f60048201526024016109f0565b6001600160a01b038085165f908152600160209081526040808320938716835292905220829055801561094857826001600160a01b0316846001600160a01b03167f8c5be1e5ebec7d5bd14f71427d1e84f3dd0314c0f7b2291e5b200ac8c7c3b92584604051610e3591815260200190565b60405180910390a350505050565b6001600160a01b038316610e6d578060025f828254610e629190611792565b90915550610eca9050565b6001600160a01b0383165f9081526020819052604090205481811015610eac5783818360405163391434e360e21b81526004016109f0939291906117a5565b6001600160a01b0384165f9081526020819052604090209082900390555b6001600160a01b038216610ee657600280548290039055610f04565b6001600160a01b0382165f9081526020819052604090208054820190555b816001600160a01b0316836001600160a01b03167fddf252ad1be2c89b69c2b068fc378daa952ba7f163c4a11628f55a4df523b3ef83604051610f4991815260200190565b60405180910390a3505050565b610f827f000000000000000000000000000000000000000000000000000000000000000085308561114f565b610f8c838261109a565b826001600160a01b0316846001600160a01b03167fdcbc1c05240f31ff3ad067ef1ee35ce4997762752e3a095284754544f4c709d78484604051610e35929190918252602082015260400190565b826001600160a01b0316856001600160a01b031614610ffe57610ffe838683610cd5565b61100883826110ce565b6110337f000000000000000000000000000000000000000000000000000000000000000085846111b6565b826001600160a01b0316846001600160a01b0316866001600160a01b03167ffbde797d201c681b91056529119e0b02407c7bb96a4a2c75c01fc9667232c8db858560405161108b929190918252602082015260400190565b60405180910390a45050505050565b6001600160a01b0382166110c35760405163ec442f0560e01b81525f60048201526024016109f0565b610bdf5f8383610e43565b6001600160a01b0382166110f757604051634b637e8f60e11b81525f60048201526024016109f0565b610bdf825f83610e43565b5f8061110f8686866111e7565b905061111a836112a5565b801561113557505f8480611130576111306118b4565b868809115b15610b6957611145600182611792565b9695505050505050565b6040516001600160a01b0384811660248301528381166044830152606482018390526109489186918216906323b872dd906084015b604051602081830303815290604052915060e01b6020820180516001600160e01b0383818316178352505050506112d1565b6040516001600160a01b038381166024830152604482018390526109b791859182169063a9059cbb90606401611184565b5f80805f19858709858702925082811083820303915050805f0361121e57838281611214576112146118b4565b049250505061090a565b80841161123e5760405163227bc15360e01b815260040160405180910390fd5b5f8486880960026001871981018816978890046003810283188082028403028082028403028082028403028082028403028082028403029081029092039091025f889003889004909101858311909403939093029303949094049190911702949350505050565b5f60028260038111156112ba576112ba6118c8565b6112c491906118dc565b60ff166001149050919050565b5f6112e56001600160a01b03841683611332565b905080515f141580156113095750808060200190518101906113079190611909565b155b156109b757604051635274afe760e01b81526001600160a01b03841660048201526024016109f0565b606061090a83835f61134261135b565b604051630a12f52160e11b815260040160405180910390fd5b6060824710156113805760405163cd78605960e01b81523060048201526024016109f0565b5f80866001600160a01b0316858760405161139b9190611924565b5f6040518083038185875af1925050503d805f81146113d5576040519150601f19603f3d011682016040523d82523d5f602084013e6113da565b606091505b50915091506113eb878383876113f6565b979650505050505050565b606083156114425782515f0361143b57846001600160a01b03163b5f0361143b57604051639996b31560e01b81526001600160a01b03861660048201526024016109f0565b5081610a11565b610a1183838151156114575781518083602001fd5b6113428163ffffffff16565b5f5b8381101561147d578181015183820152602001611465565b50505f910152565b5f815180845261149c816020860160208601611463565b601f01601f19169290920160200192915050565b602081525f61090a6020830184611485565b5f602082840312156114d2575f80fd5b5035919050565b80356001600160a01b03811681146114ef575f80fd5b919050565b5f8060408385031215611505575f80fd5b61150e836114d9565b946020939093013593505050565b5f805f6060848603121561152e575f80fd5b611537846114d9565b9250611545602085016114d9565b9150604084013590509250925092565b8015158114611562575f80fd5b50565b5f805f8060808587031215611578575f80fd5b611581856114d9565b935061158f602086016114d9565b92506040850135915060608501356115a681611555565b939692955090935050565b5f602082840312156115c1575f80fd5b61090a826114d9565b5f80604083850312156115db575f80fd5b823591506115eb602084016114d9565b90509250929050565b5f805f805f60a08688031215611608575f80fd5b611611866114d9565b945061161f602087016114d9565b935061162d604087016114d9565b94979396509394606081013594506080013592915050565b5f8060408385031215611656575f80fd5b8235915060208301356004811061166b575f80fd5b809150509250929050565b5f805f8060808587031215611689575f80fd5b611692856114d9565b93506116a0602086016114d9565b93969395505050506040820135916060013590565b5f805f606084860312156116c7575f80fd5b833592506116d7602085016114d9565b91506116e5604085016114d9565b90509250925092565b5f80604083850312156116ff575f80fd5b611708836114d9565b91506115eb602084016114d9565b5f60208284031215611726575f80fd5b5051919050565b600181811c9082168061174157607f821691505b60208210810361175f57634e487b7160e01b5f52602260045260245ffd5b50919050565b634e487b7160e01b5f52601160045260245ffd5b60ff81811683821601908111156108c3576108c3611765565b808201808211156108c3576108c3611765565b6001600160a01b039390931683526020830191909152604082015260600190565b600181815b8085111561180057815f19048211156117e6576117e6611765565b808516156117f357918102915b93841c93908002906117cb565b509250929050565b5f82611816575060016108c3565b8161182257505f6108c3565b816001811461183857600281146118425761185e565b60019150506108c3565b60ff84111561185357611853611765565b50506001821b6108c3565b5060208310610133831016604e8410600b8410161715611881575081810a6108c3565b61188b83836117c6565b805f190482111561189e5761189e611765565b029392505050565b5f61090a60ff841683611808565b634e487b7160e01b5f52601260045260245ffd5b634e487b7160e01b5f52602160045260245ffd5b5f60ff8316806118fa57634e487b7160e01b5f52601260045260245ffd5b8060ff84160691505092915050565b5f60208284031215611919575f80fd5b815161090a81611555565b5f8251611935818460208701611463565b919091019291505056fea26469706673582212201e714d3db88eb196e7538f8deae3c120cfab90ba52781eb839de24b19bd875d964736f6c63430008140033",
  "linkReferences": {},
  "deployedLinkReferences": {}
}