{"abi":[{"type":"fallback","stateMutability":"nonpayable"},{"type":"function","name":"getValue","inputs":[],"outputs":[{"name":"","type":"uint256","internalType":"uint256"}],"stateMutability":"view"},{"type":"function","name":"initialize","inputs":[],"outputs":[],"stateMutability":"nonpayable"},{"type":"function","name":"setValue","inputs":[{"name":"_number","type":"uint256","internalType":"uint256"}],"outputs":[],"stateMutability":"nonpayable"},{"type":"event","name":"Initialized","inputs":[{"name":"version","type":"uint8","indexed":false,"internalType":"uint8"}],"anonymous":false},{"type":"error","name":"AlreadyInitialized","inputs":[]},{"type":"error","name":"NotInitializing","inputs":[]}],"bytecode":{"object":"0x6080604052348015600f57600080fd5b5061018b8061001f6000396000f3fe608060405234801561001057600080fd5b50600436106100415760003560e01c80632096525514610048578063552410771461005d5780638129fc1c14610072575b6001808055005b60015460405190815260200160405180910390f35b61007061006b36600461013c565b600155565b005b610070600054610100900460ff16158080156100955750600054600160ff909116105b1580156100b35750303b1580156100b1575060005460ff166001145b155b156100d05760405162dc149f60e41b815260040160405180910390fd5b6000805460ff1916600117905580156100f3576000805461ff0019166101001790555b8015610139576000805461ff0019169055604051600181527f7f26b83ff96e1f2b6a682f133852f6798a09c465da95921460cefb38474024989060200160405180910390a15b50565b60006020828403121561014e57600080fd5b503591905056fea264697066735822122043941ac47961d10185ed01f0fd32f655d878ab5ca3bd13111fc4e16217ed675e64736f6c634300081b0033","linkReferences":{}},"methodIdentifiers":{"getValue()":"20965255","initialize()":"8129fc1c","setValue(uint256)":"55241077"},"id":81}