{
  "_format": "hh-sol-artifact-1",
  "contractName": "$Context",
  "sourceName": "contracts-exposed/utils/Context.sol",
  "abi": [
    {
      "inputs": [],
      "stateMutability": "payable",
      "type": "constructor"
    },
    {
      "inputs": [],
      "name": "$_msgData",
      "outputs": [
        {
          "internalType": "bytes",
          "name": "ret0",
          "type": "bytes"
        }
      ],
      "stateMutability": "view",
      "type": "function"
    },
    {
      "inputs": [],
      "name": "$_msgSender",
      "outputs": [
        {
          "internalType": "address",
          "name": "ret0",
          "type": "address"
        }
      ],
      "stateMutability": "view",
      "type": "function"
    },
    {
      "inputs": [],
      "name": "__hh_exposed_bytecode_marker",
      "outputs": [
        {
          "internalType": "bytes32",
          "name": "",
          "type": "bytes32"
        }
      ],
      "stateMutability": "view",
      "type": "function"
    },
    {
      "stateMutability": "payable",
      "type": "receive"
    }
  ],
  "bytecode": "0x6080604052610172806100115f395ff3fe608060405260043610610036575f3560e01c80632904df291461004157806332cadf3c14610060578063342db73914610081575f80fd5b3661003d57005b5f80fd5b34801561004c575f80fd5b506040513381526020015b60405180910390f35b34801561006b575f80fd5b506100746100b4565b60405161005791906100f1565b34801561008c575f80fd5b506100a66e1a185c991a185d0b595e1c1bdcd959608a1b81565b604051908152602001610057565b60605f368080601f0160208091040260200160405190810160405280939291908181526020018383808284375f9201919091525092949350505050565b5f6020808352835180828501525f5b8181101561011c57858101830151858201604001528201610100565b505f604082860101526040601f19601f830116850101925050509291505056fea2646970667358221220e12e773ffbfa747890c728e4995760d7bfc02a0718314cdd265f46d72a6979eb64736f6c63430008140033",
  "linkReferences": {},
  "deployedLinkReferences": {}
}