{
  "_format": "hh-sol-artifact-1",
  "contractName": "ReentrancyMock",
  "sourceName": "contracts/mocks/ReentrancyMock.sol",
  "abi": [
    {
      "inputs": [],
      "stateMutability": "nonpayable",
      "type": "constructor"
    },
    {
      "inputs": [],
      "name": "ReentrancyGuardReentrantCall",
      "type": "error"
    },
    {
      "inputs": [],
      "name": "callback",
      "outputs": [],
      "stateMutability": "nonpayable",
      "type": "function"
    },
    {
      "inputs": [
        {
          "internalType": "contract ReentrancyAttack",
          "name": "attacker",
          "type": "address"
        }
      ],
      "name": "countAndCall",
      "outputs": [],
      "stateMutability": "nonpayable",
      "type": "function"
    },
    {
      "inputs": [
        {
          "internalType": "uint256",
          "name": "n",
          "type": "uint256"
        }
      ],
      "name": "countLocalRecursive",
      "outputs": [],
      "stateMutability": "nonpayable",
      "type": "function"
    },
    {
      "inputs": [
        {
          "internalType": "uint256",
          "name": "n",
          "type": "uint256"
        }
      ],
      "name": "countThisRecursive",
      "outputs": [],
      "stateMutability": "nonpayable",
      "type": "function"
    },
    {
      "inputs": [],
      "name": "counter",
      "outputs": [
        {
          "internalType": "uint256",
          "name": "",
          "type": "uint256"
        }
      ],
      "stateMutability": "view",
      "type": "function"
    },
    {
      "inputs": [],
      "name": "guardedCheckEntered",
      "outputs": [],
      "stateMutability": "nonpayable",
      "type": "function"
    },
    {
      "inputs": [],
      "name": "unguardedCheckNotEntered",
      "outputs": [],
      "stateMutability": "view",
      "type": "function"
    }
  ],
  "bytecode": "0x608060405234801561000f575f80fd5b5060015f8181559055610462806100255f395ff3fe608060405234801561000f575f80fd5b506004361061007a575f3560e01c806396ffa6901161005857806396ffa690146100b6578063a408f312146100c9578063b672ad8b146100d1578063cecc95a7146100e4575f80fd5b8063083b27321461007e57806361bc221a146100885780638c5344fa146100a3575b5f80fd5b6100866100ec565b005b61009160015481565b60405190815260200160405180910390f35b6100866100b1366004610339565b610107565b6100866100c4366004610339565b61021b565b61008661023f565b6100866100df366004610350565b610254565b6100866102ec565b6100f46102f9565b6100fc610321565b61010560015f55565b565b61010f6102f9565b801561020f5761011d610321565b5f3080638c5344fa610130600186610391565b60405160240161014291815260200190565b60408051601f198184030181529181526020820180516001600160e01b031660e09490941b93909317909252905161017a92506103cc565b5f604051808303815f865af19150503d805f81146101b3576040519150601f19603f3d011682016040523d82523d5f602084013e6101b8565b606091505b505090508061020d5760405162461bcd60e51b815260206004820152601b60248201527f5265656e7472616e63794d6f636b3a206661696c65642063616c6c0000000000604482015260640160405180910390fd5b505b61021860015f55565b50565b6102236102f9565b801561020f57610231610321565b61020f6100c4600183610391565b6102476102f9565b5f546002146100fc575f80fd5b61025c6102f9565b610264610321565b6040805160048082526024820183526020820180516001600160e01b031663041d939960e11b179052915163f8123dd560e01b81526001600160a01b0384169263f8123dd5926102b6929091016103e7565b5f604051808303815f87803b1580156102cd575f80fd5b505af11580156102df573d5f803e3d5ffd5b5050505061021860015f55565b5f54600203610105575f80fd5b60025f540361031b57604051633ee5aeb560e01b815260040160405180910390fd5b60025f55565b6001805f8282546103329190610419565b9091555050565b5f60208284031215610349575f80fd5b5035919050565b5f60208284031215610360575f80fd5b81356001600160a01b0381168114610376575f80fd5b9392505050565b634e487b7160e01b5f52601160045260245ffd5b818103818111156103a4576103a461037d565b92915050565b5f5b838110156103c45781810151838201526020016103ac565b50505f910152565b5f82516103dd8184602087016103aa565b9190910192915050565b602081525f82518060208401526104058160408501602087016103aa565b601f01601f19169190910160400192915050565b808201808211156103a4576103a461037d56fea2646970667358221220d52433f2814f5b4bf625907c3fa9f3cb51d668aa418728202977d22cd735eff464736f6c63430008140033",
  "linkReferences": {},
  "deployedLinkReferences": {}
}