{
  "_format": "hh-sol-artifact-1",
  "contractName": "$ERC721Royalty",
  "sourceName": "contracts-exposed/token/ERC721/extensions/ERC721Royalty.sol",
  "abi": [
    {
      "inputs": [
        {
          "internalType": "string",
          "name": "name_",
          "type": "string"
        },
        {
          "internalType": "string",
          "name": "symbol_",
          "type": "string"
        }
      ],
      "stateMutability": "payable",
      "type": "constructor"
    },
    {
      "inputs": [
        {
          "internalType": "uint256",
          "name": "numerator",
          "type": "uint256"
        },
        {
          "internalType": "uint256",
          "name": "denominator",
          "type": "uint256"
        }
      ],
      "name": "ERC2981InvalidDefaultRoyalty",
      "type": "error"
    },
    {
      "inputs": [
        {
          "internalType": "address",
          "name": "receiver",
          "type": "address"
        }
      ],
      "name": "ERC2981InvalidDefaultRoyaltyReceiver",
      "type": "error"
    },
    {
      "inputs": [
        {
          "internalType": "uint256",
          "name": "tokenId",
          "type": "uint256"
        },
        {
          "internalType": "uint256",
          "name": "numerator",
          "type": "uint256"
        },
        {
          "internalType": "uint256",
          "name": "denominator",
          "type": "uint256"
        }
      ],
      "name": "ERC2981InvalidTokenRoyalty",
      "type": "error"
    },
    {
      "inputs": [
        {
          "internalType": "uint256",
          "name": "tokenId",
          "type": "uint256"
        },
        {
          "internalType": "address",
          "name": "receiver",
          "type": "address"
        }
      ],
      "name": "ERC2981InvalidTokenRoyaltyReceiver",
      "type": "error"
    },
    {
      "inputs": [
        {
          "internalType": "address",
          "name": "sender",
          "type": "address"
        },
        {
          "internalType": "uint256",
          "name": "tokenId",
          "type": "uint256"
        },
        {
          "internalType": "address",
          "name": "owner",
          "type": "address"
        }
      ],
      "name": "ERC721IncorrectOwner",
      "type": "error"
    },
    {
      "inputs": [
        {
          "internalType": "address",
          "name": "operator",
          "type": "address"
        },
        {
          "internalType": "uint256",
          "name": "tokenId",
          "type": "uint256"
        }
      ],
      "name": "ERC721InsufficientApproval",
      "type": "error"
    },
    {
      "inputs": [
        {
          "internalType": "address",
          "name": "approver",
          "type": "address"
        }
      ],
      "name": "ERC721InvalidApprover",
      "type": "error"
    },
    {
      "inputs": [
        {
          "internalType": "address",
          "name": "operator",
          "type": "address"
        }
      ],
      "name": "ERC721InvalidOperator",
      "type": "error"
    },
    {
      "inputs": [
        {
          "internalType": "address",
          "name": "owner",
          "type": "address"
        }
      ],
      "name": "ERC721InvalidOwner",
      "type": "error"
    },
    {
      "inputs": [
        {
          "internalType": "address",
          "name": "receiver",
          "type": "address"
        }
      ],
      "name": "ERC721InvalidReceiver",
      "type": "error"
    },
    {
      "inputs": [
        {
          "internalType": "address",
          "name": "sender",
          "type": "address"
        }
      ],
      "name": "ERC721InvalidSender",
      "type": "error"
    },
    {
      "inputs": [
        {
          "internalType": "uint256",
          "name": "tokenId",
          "type": "uint256"
        }
      ],
      "name": "ERC721NonexistentToken",
      "type": "error"
    },
    {
      "anonymous": false,
      "inputs": [
        {
          "indexed": true,
          "internalType": "address",
          "name": "owner",
          "type": "address"
        },
        {
          "indexed": true,
          "internalType": "address",
          "name": "approved",
          "type": "address"
        },
        {
          "indexed": true,
          "internalType": "uint256",
          "name": "tokenId",
          "type": "uint256"
        }
      ],
      "name": "Approval",
      "type": "event"
    },
    {
      "anonymous": false,
      "inputs": [
        {
          "indexed": true,
          "internalType": "address",
          "name": "owner",
          "type": "address"
        },
        {
          "indexed": true,
          "internalType": "address",
          "name": "operator",
          "type": "address"
        },
        {
          "indexed": false,
          "internalType": "bool",
          "name": "approved",
          "type": "bool"
        }
      ],
      "name": "ApprovalForAll",
      "type": "event"
    },
    {
      "anonymous": false,
      "inputs": [
        {
          "indexed": true,
          "internalType": "address",
          "name": "from",
          "type": "address"
        },
        {
          "indexed": true,
          "internalType": "address",
          "name": "to",
          "type": "address"
        },
        {
          "indexed": true,
          "internalType": "uint256",
          "name": "tokenId",
          "type": "uint256"
        }
      ],
      "name": "Transfer",
      "type": "event"
    },
    {
      "inputs": [
        {
          "internalType": "address",
          "name": "account",
          "type": "address"
        },
        {
          "internalType": "uint256",
          "name": "value",
          "type": "uint256"
        }
      ],
      "name": "$__unsafe_increaseBalance",
      "outputs": [],
      "stateMutability": "nonpayable",
      "type": "function"
    },
    {
      "inputs": [
        {
          "internalType": "address",
          "name": "from",
          "type": "address"
        },
        {
          "internalType": "address",
          "name": "to",
          "type": "address"
        },
        {
          "internalType": "uint256",
          "name": "firstTokenId",
          "type": "uint256"
        },
        {
          "internalType": "uint256",
          "name": "batchSize",
          "type": "uint256"
        }
      ],
      "name": "$_afterTokenTransfer",
      "outputs": [],
      "stateMutability": "nonpayable",
      "type": "function"
    },
    {
      "inputs": [
        {
          "internalType": "address",
          "name": "to",
          "type": "address"
        },
        {
          "internalType": "uint256",
          "name": "tokenId",
          "type": "uint256"
        }
      ],
      "name": "$_approve",
      "outputs": [],
      "stateMutability": "nonpayable",
      "type": "function"
    },
    {
      "inputs": [],
      "name": "$_baseURI",
      "outputs": [
        {
          "internalType": "string",
          "name": "ret0",
          "type": "string"
        }
      ],
      "stateMutability": "view",
      "type": "function"
    },
    {
      "inputs": [
        {
          "internalType": "address",
          "name": "from",
          "type": "address"
        },
        {
          "internalType": "address",
          "name": "to",
          "type": "address"
        },
        {
          "internalType": "uint256",
          "name": "firstTokenId",
          "type": "uint256"
        },
        {
          "internalType": "uint256",
          "name": "batchSize",
          "type": "uint256"
        }
      ],
      "name": "$_beforeTokenTransfer",
      "outputs": [],
      "stateMutability": "nonpayable",
      "type": "function"
    },
    {
      "inputs": [
        {
          "internalType": "uint256",
          "name": "tokenId",
          "type": "uint256"
        }
      ],
      "name": "$_burn",
      "outputs": [],
      "stateMutability": "nonpayable",
      "type": "function"
    },
    {
      "inputs": [],
      "name": "$_deleteDefaultRoyalty",
      "outputs": [],
      "stateMutability": "nonpayable",
      "type": "function"
    },
    {
      "inputs": [
        {
          "internalType": "uint256",
          "name": "tokenId",
          "type": "uint256"
        }
      ],
      "name": "$_exists",
      "outputs": [
        {
          "internalType": "bool",
          "name": "ret0",
          "type": "bool"
        }
      ],
      "stateMutability": "view",
      "type": "function"
    },
    {
      "inputs": [],
      "name": "$_feeDenominator",
      "outputs": [
        {
          "internalType": "uint96",
          "name": "ret0",
          "type": "uint96"
        }
      ],
      "stateMutability": "pure",
      "type": "function"
    },
    {
      "inputs": [
        {
          "internalType": "address",
          "name": "spender",
          "type": "address"
        },
        {
          "internalType": "uint256",
          "name": "tokenId",
          "type": "uint256"
        }
      ],
      "name": "$_isApprovedOrOwner",
      "outputs": [
        {
          "internalType": "bool",
          "name": "ret0",
          "type": "bool"
        }
      ],
      "stateMutability": "view",
      "type": "function"
    },
    {
      "inputs": [
        {
          "internalType": "address",
          "name": "to",
          "type": "address"
        },
        {
          "internalType": "uint256",
          "name": "tokenId",
          "type": "uint256"
        }
      ],
      "name": "$_mint",
      "outputs": [],
      "stateMutability": "nonpayable",
      "type": "function"
    },
    {
      "inputs": [],
      "name": "$_msgData",
      "outputs": [
        {
          "internalType": "bytes",
          "name": "ret0",
          "type": "bytes"
        }
      ],
      "stateMutability": "view",
      "type": "function"
    },
    {
      "inputs": [],
      "name": "$_msgSender",
      "outputs": [
        {
          "internalType": "address",
          "name": "ret0",
          "type": "address"
        }
      ],
      "stateMutability": "view",
      "type": "function"
    },
    {
      "inputs": [
        {
          "internalType": "uint256",
          "name": "tokenId",
          "type": "uint256"
        }
      ],
      "name": "$_ownerOf",
      "outputs": [
        {
          "internalType": "address",
          "name": "ret0",
          "type": "address"
        }
      ],
      "stateMutability": "view",
      "type": "function"
    },
    {
      "inputs": [
        {
          "internalType": "uint256",
          "name": "tokenId",
          "type": "uint256"
        }
      ],
      "name": "$_requireMinted",
      "outputs": [],
      "stateMutability": "view",
      "type": "function"
    },
    {
      "inputs": [
        {
          "internalType": "uint256",
          "name": "tokenId",
          "type": "uint256"
        }
      ],
      "name": "$_resetTokenRoyalty",
      "outputs": [],
      "stateMutability": "nonpayable",
      "type": "function"
    },
    {
      "inputs": [
        {
          "internalType": "address",
          "name": "to",
          "type": "address"
        },
        {
          "internalType": "uint256",
          "name": "tokenId",
          "type": "uint256"
        },
        {
          "internalType": "bytes",
          "name": "data",
          "type": "bytes"
        }
      ],
      "name": "$_safeMint",
      "outputs": [],
      "stateMutability": "nonpayable",
      "type": "function"
    },
    {
      "inputs": [
        {
          "internalType": "address",
          "name": "to",
          "type": "address"
        },
        {
          "internalType": "uint256",
          "name": "tokenId",
          "type": "uint256"
        }
      ],
      "name": "$_safeMint",
      "outputs": [],
      "stateMutability": "nonpayable",
      "type": "function"
    },
    {
      "inputs": [
        {
          "internalType": "address",
          "name": "from",
          "type": "address"
        },
        {
          "internalType": "address",
          "name": "to",
          "type": "address"
        },
        {
          "internalType": "uint256",
          "name": "tokenId",
          "type": "uint256"
        },
        {
          "internalType": "bytes",
          "name": "data",
          "type": "bytes"
        }
      ],
      "name": "$_safeTransfer",
      "outputs": [],
      "stateMutability": "nonpayable",
      "type": "function"
    },
    {
      "inputs": [
        {
          "internalType": "address",
          "name": "owner",
          "type": "address"
        },
        {
          "internalType": "address",
          "name": "operator",
          "type": "address"
        },
        {
          "internalType": "bool",
          "name": "approved",
          "type": "bool"
        }
      ],
      "name": "$_setApprovalForAll",
      "outputs": [],
      "stateMutability": "nonpayable",
      "type": "function"
    },
    {
      "inputs": [
        {
          "internalType": "address",
          "name": "receiver",
          "type": "address"
        },
        {
          "internalType": "uint96",
          "name": "feeNumerator",
          "type": "uint96"
        }
      ],
      "name": "$_setDefaultRoyalty",
      "outputs": [],
      "stateMutability": "nonpayable",
      "type": "function"
    },
    {
      "inputs": [
        {
          "internalType": "uint256",
          "name": "tokenId",
          "type": "uint256"
        },
        {
          "internalType": "address",
          "name": "receiver",
          "type": "address"
        },
        {
          "internalType": "uint96",
          "name": "feeNumerator",
          "type": "uint96"
        }
      ],
      "name": "$_setTokenRoyalty",
      "outputs": [],
      "stateMutability": "nonpayable",
      "type": "function"
    },
    {
      "inputs": [
        {
          "internalType": "address",
          "name": "from",
          "type": "address"
        },
        {
          "internalType": "address",
          "name": "to",
          "type": "address"
        },
        {
          "internalType": "uint256",
          "name": "tokenId",
          "type": "uint256"
        }
      ],
      "name": "$_transfer",
      "outputs": [],
      "stateMutability": "nonpayable",
      "type": "function"
    },
    {
      "inputs": [],
      "name": "__hh_exposed_bytecode_marker",
      "outputs": [
        {
          "internalType": "bytes32",
          "name": "",
          "type": "bytes32"
        }
      ],
      "stateMutability": "view",
      "type": "function"
    },
    {
      "inputs": [
        {
          "internalType": "address",
          "name": "to",
          "type": "address"
        },
        {
          "internalType": "uint256",
          "name": "tokenId",
          "type": "uint256"
        }
      ],
      "name": "approve",
      "outputs": [],
      "stateMutability": "nonpayable",
      "type": "function"
    },
    {
      "inputs": [
        {
          "internalType": "address",
          "name": "owner",
          "type": "address"
        }
      ],
      "name": "balanceOf",
      "outputs": [
        {
          "internalType": "uint256",
          "name": "",
          "type": "uint256"
        }
      ],
      "stateMutability": "view",
      "type": "function"
    },
    {
      "inputs": [
        {
          "internalType": "uint256",
          "name": "tokenId",
          "type": "uint256"
        }
      ],
      "name": "getApproved",
      "outputs": [
        {
          "internalType": "address",
          "name": "",
          "type": "address"
        }
      ],
      "stateMutability": "view",
      "type": "function"
    },
    {
      "inputs": [
        {
          "internalType": "address",
          "name": "owner",
          "type": "address"
        },
        {
          "internalType": "address",
          "name": "operator",
          "type": "address"
        }
      ],
      "name": "isApprovedForAll",
      "outputs": [
        {
          "internalType": "bool",
          "name": "",
          "type": "bool"
        }
      ],
      "stateMutability": "view",
      "type": "function"
    },
    {
      "inputs": [],
      "name": "name",
      "outputs": [
        {
          "internalType": "string",
          "name": "",
          "type": "string"
        }
      ],
      "stateMutability": "view",
      "type": "function"
    },
    {
      "inputs": [
        {
          "internalType": "uint256",
          "name": "tokenId",
          "type": "uint256"
        }
      ],
      "name": "ownerOf",
      "outputs": [
        {
          "internalType": "address",
          "name": "",
          "type": "address"
        }
      ],
      "stateMutability": "view",
      "type": "function"
    },
    {
      "inputs": [
        {
          "internalType": "uint256",
          "name": "tokenId",
          "type": "uint256"
        },
        {
          "internalType": "uint256",
          "name": "salePrice",
          "type": "uint256"
        }
      ],
      "name": "royaltyInfo",
      "outputs": [
        {
          "internalType": "address",
          "name": "",
          "type": "address"
        },
        {
          "internalType": "uint256",
          "name": "",
          "type": "uint256"
        }
      ],
      "stateMutability": "view",
      "type": "function"
    },
    {
      "inputs": [
        {
          "internalType": "address",
          "name": "from",
          "type": "address"
        },
        {
          "internalType": "address",
          "name": "to",
          "type": "address"
        },
        {
          "internalType": "uint256",
          "name": "tokenId",
          "type": "uint256"
        }
      ],
      "name": "safeTransferFrom",
      "outputs": [],
      "stateMutability": "nonpayable",
      "type": "function"
    },
    {
      "inputs": [
        {
          "internalType": "address",
          "name": "from",
          "type": "address"
        },
        {
          "internalType": "address",
          "name": "to",
          "type": "address"
        },
        {
          "internalType": "uint256",
          "name": "tokenId",
          "type": "uint256"
        },
        {
          "internalType": "bytes",
          "name": "data",
          "type": "bytes"
        }
      ],
      "name": "safeTransferFrom",
      "outputs": [],
      "stateMutability": "nonpayable",
      "type": "function"
    },
    {
      "inputs": [
        {
          "internalType": "address",
          "name": "operator",
          "type": "address"
        },
        {
          "internalType": "bool",
          "name": "approved",
          "type": "bool"
        }
      ],
      "name": "setApprovalForAll",
      "outputs": [],
      "stateMutability": "nonpayable",
      "type": "function"
    },
    {
      "inputs": [
        {
          "internalType": "bytes4",
          "name": "interfaceId",
          "type": "bytes4"
        }
      ],
      "name": "supportsInterface",
      "outputs": [
        {
          "internalType": "bool",
          "name": "",
          "type": "bool"
        }
      ],
      "stateMutability": "view",
      "type": "function"
    },
    {
      "inputs": [],
      "name": "symbol",
      "outputs": [
        {
          "internalType": "string",
          "name": "",
          "type": "string"
        }
      ],
      "stateMutability": "view",
      "type": "function"
    },
    {
      "inputs": [
        {
          "internalType": "uint256",
          "name": "tokenId",
          "type": "uint256"
        }
      ],
      "name": "tokenURI",
      "outputs": [
        {
          "internalType": "string",
          "name": "",
          "type": "string"
        }
      ],
      "stateMutability": "view",
      "type": "function"
    },
    {
      "inputs": [
        {
          "internalType": "address",
          "name": "from",
          "type": "address"
        },
        {
          "internalType": "address",
          "name": "to",
          "type": "address"
        },
        {
          "internalType": "uint256",
          "name": "tokenId",
          "type": "uint256"
        }
      ],
      "name": "transferFrom",
      "outputs": [],
      "stateMutability": "nonpayable",
      "type": "function"
    },
    {
      "stateMutability": "payable",
      "type": "receive"
    }
  ],
  "bytecode": "0x608060405260405162001f1038038062001f1083398101604081905262000026916200010e565b8181600262000036838262000200565b50600362000045828262000200565b5050505050620002c8565b634e487b7160e01b5f52604160045260245ffd5b5f82601f83011262000074575f80fd5b81516001600160401b038082111562000091576200009162000050565b604051601f8301601f19908116603f01168101908282118183101715620000bc57620000bc62000050565b81604052838152602092508683858801011115620000d8575f80fd5b5f91505b83821015620000fb5785820183015181830184015290820190620000dc565b5f93810190920192909252949350505050565b5f806040838503121562000120575f80fd5b82516001600160401b038082111562000137575f80fd5b620001458683870162000064565b935060208501519150808211156200015b575f80fd5b506200016a8582860162000064565b9150509250929050565b600181811c908216806200018957607f821691505b602082108103620001a857634e487b7160e01b5f52602260045260245ffd5b50919050565b601f821115620001fb575f81815260208120601f850160051c81016020861015620001d65750805b601f850160051c820191505b81811015620001f757828155600101620001e2565b5050505b505050565b81516001600160401b038111156200021c576200021c62000050565b62000234816200022d845462000174565b84620001ae565b602080601f8311600181146200026a575f8415620002525750858301515b5f19600386901b1c1916600185901b178555620001f7565b5f85815260208120601f198616915b828110156200029a5788860151825594840194600190910190840162000279565b5085821015620002b857878501515f19600388901b60f8161c191681555b5050505050600190811b01905550565b611c3a80620002d65f395ff3fe608060405260043610610220575f3560e01c80638bf12a761161011e578063c4a96fa6116100a8578063d261af541161006d578063d261af541461065e578063da696ff11461067d578063e07084c2146102f7578063e985e9c51461069c578063efb43b07146106bb575f80fd5b8063c4a96fa6146105c3578063c87b56dd146105e2578063cc461d6214610601578063cd43f47d14610620578063cfeea0d41461063f575f80fd5b8063a22cb465116100ee578063a22cb46514610533578063a2373a8214610552578063b3b673c814610571578063b88d4fde14610585578063c37add51146105a4575f80fd5b80638bf12a76146104c557806395d89b41146104e157806398a1f7a0146104f55780639ff2f02d14610514575f80fd5b80632a55205a116101aa5780636352211e1161016f5780636352211e1461041f57806370a082311461043e578063733555ec1461045d5780637ac8fa3a1461047c57806387ce502f146104a6575f80fd5b80632a55205a1461035c57806332cadf3c1461039a578063342db739146103ae57806342842e0e146103e1578063458ee00214610400575f80fd5b806309854d72116101f057806309854d72146102d8578063147619da146102f7578063161e977d1461031757806323b872dd1461032b5780632904df291461034a575f80fd5b806301ffc9a71461022b57806306fdde031461025f578063081812fc14610280578063095ea7b3146102b7575f80fd5b3661022757005b5f80fd5b348015610236575f80fd5b5061024a610245366004611655565b6106da565b60405190151581526020015b60405180910390f35b34801561026a575f80fd5b506102736106ea565b60405161025691906116bd565b34801561028b575f80fd5b5061029f61029a3660046116cf565b61077a565b6040516001600160a01b039091168152602001610256565b3480156102c2575f80fd5b506102d66102d1366004611701565b61079f565b005b3480156102e3575f80fd5b506102d66102f23660046116cf565b61083c565b348015610302575f80fd5b506102d6610311366004611729565b50505050565b348015610322575f80fd5b50610273610848565b348015610336575f80fd5b506102d6610345366004611768565b610863565b348015610355575f80fd5b503361029f565b348015610367575f80fd5b5061037b6103763660046117a1565b61089e565b604080516001600160a01b039093168352602083019190915201610256565b3480156103a5575f80fd5b50610273610949565b3480156103b9575f80fd5b506103d36e1a185c991a185d0b595e1c1bdcd959608a1b81565b604051908152602001610256565b3480156103ec575f80fd5b506102d66103fb366004611768565b610986565b34801561040b575f80fd5b5061029f61041a3660046116cf565b6109a0565b34801561042a575f80fd5b5061029f6104393660046116cf565b6109bc565b348015610449575f80fd5b506103d36104583660046117c1565b6109f4565b348015610468575f80fd5b506102d6610477366004611818565b610a39565b348015610487575f80fd5b506102d66104963660046116cf565b5f90815260016020526040812055565b3480156104b1575f80fd5b506102d66104c0366004611898565b610a81565b3480156104d0575f80fd5b506040516127108152602001610256565b3480156104ec575f80fd5b50610273610a8c565b348015610500575f80fd5b506102d661050f366004611701565b610a9b565b34801561051f575f80fd5b506102d661052e3660046118d1565b610aa9565b34801561053e575f80fd5b506102d661054d366004611936565b610ae9565b34801561055d575f80fd5b506102d661056c3660046116cf565b610af4565b34801561057c575f80fd5b506102d6610afd565b348015610590575f80fd5b506102d661059f36600461197b565b610b07565b3480156105af575f80fd5b5061024a6105be3660046116cf565b610b43565b3480156105ce575f80fd5b5061024a6105dd366004611701565b610b61565b3480156105ed575f80fd5b506102736105fc3660046116cf565b610b73565b34801561060c575f80fd5b506102d661061b366004611701565b610be2565b34801561062b575f80fd5b506102d661063a366004611701565b610bec565b34801561064a575f80fd5b506102d6610659366004611a50565b610bf6565b348015610669575f80fd5b506102d6610678366004611701565b610c01565b348015610688575f80fd5b506102d6610697366004611a87565b610c0b565b3480156106a7575f80fd5b5061024a6106b6366004611aaf565b610c15565b3480156106c6575f80fd5b506102d66106d5366004611768565b610893565b5f6106e482610c42565b92915050565b6060600280546106f990611ad7565b80601f016020809104026020016040519081016040528092919081815260200182805461072590611ad7565b80156107705780601f1061074757610100808354040283529160200191610770565b820191905f5260205f20905b81548152906001019060200180831161075357829003601f168201915b5050505050905090565b5f61078482610c81565b505f908152600660205260409020546001600160a01b031690565b5f6107a9826109bc565b9050806001600160a01b0316836001600160a01b0316036107ed57604051630b61174360e31b81526001600160a01b03821660048201526024015b60405180910390fd5b336001600160a01b0382161480159061080d575061080b8133610c15565b155b1561082d5760405163a9fbf51f60e01b81523360048201526024016107e4565b6108378383610cb8565b505050565b61084581610c81565b50565b606061085e60408051602081019091525f815290565b905090565b61086d3382610d25565b6108935760405163177e802f60e01b8152336004820152602481018290526044016107e4565b610837838383610d83565b5f8281526001602090815260408083208151808301909252546001600160a01b038116808352600160a01b9091046001600160601b03169282019290925282916109115750604080518082019091525f546001600160a01b0381168252600160a01b90046001600160601b031660208201525b60208101515f906127109061092f906001600160601b031687611b23565b6109399190611b3a565b91519350909150505b9250929050565b60605f368080601f0160208091040260200160405190810160405280939291908181526020018383808284375f9201919091525092949350505050565b61083783838360405180602001604052805f815250610b07565b5f818152600460205260408120546001600160a01b03166106e4565b5f818152600460205260408120546001600160a01b0316806106e457604051637e27328960e01b8152600481018490526024016107e4565b5f6001600160a01b038216610a1e576040516322718ad960e21b81525f60048201526024016107e4565b506001600160a01b03165f9081526005602052604090205490565b610a7a85858585858080601f0160208091040260200160405190810160405280939291908181526020018383808284375f92019190915250610f0d92505050565b5050505050565b610837838383610f4c565b6060600380546106f990611ad7565b610aa5828261100c565b5050565b610311848484848080601f0160208091040260200160405190810160405280939291908181526020018383808284375f9201919091525061103c92505050565b610aa533838361107a565b61084581611123565b610b055f8055565b565b610b113383610d25565b610b375760405163177e802f60e01b8152336004820152602481018390526044016107e4565b61031184848484610f0d565b5f818152600460205260408120546001600160a01b031615156106e4565b5f610b6c8383610d25565b9392505050565b6060610b7e82610c81565b5f610b9360408051602081019091525f815290565b90505f815111610bb15760405180602001604052805f815250610b6c565b80610bbb8461112c565b604051602001610bcc929190611b59565b6040516020818303038152906040529392505050565b610aa582826111bc565b610aa58282610cb8565b61083783838361107a565b610aa582826112bd565b610aa582826112d6565b6001600160a01b039182165f90815260076020908152604080832093909416825291909152205460ff1690565b5f6001600160e01b031982166380ac58cd60e01b1480610c7257506001600160e01b03198216635b5e139f60e01b145b806106e457506106e482611377565b5f818152600460205260409020546001600160a01b031661084557604051637e27328960e01b8152600481018290526024016107e4565b5f81815260066020526040902080546001600160a01b0319166001600160a01b0384169081179091558190610cec826109bc565b6001600160a01b03167f8c5be1e5ebec7d5bd14f71427d1e84f3dd0314c0f7b2291e5b200ac8c7c3b92560405160405180910390a45050565b5f80610d30836109bc565b9050806001600160a01b0316846001600160a01b03161480610d575750610d578185610c15565b80610d7b5750836001600160a01b0316610d708461077a565b6001600160a01b0316145b949350505050565b5f610d8d826109bc565b9050836001600160a01b0316816001600160a01b031614610ddb576040516364283d7b60e01b81526001600160a01b03808616600483015260248201849052821660448201526064016107e4565b6001600160a01b038316610e0457604051633250574960e11b81525f60048201526024016107e4565b610e0d826109bc565b9050836001600160a01b0316816001600160a01b031614610e5b576040516364283d7b60e01b81526001600160a01b03808616600483015260248201849052821660448201526064016107e4565b5f82815260066020908152604080832080546001600160a01b03191690556001600160a01b038716835260059091528120805460019290610e9d908490611b87565b90915550506001600160a01b038084165f81815260056020908152604080832080546001019055868352600490915280822080546001600160a01b031916841790555185938816917fddf252ad1be2c89b69c2b068fc378daa952ba7f163c4a11628f55a4df523b3ef91a4610311565b610f18848484610d83565b610f24848484846113ab565b61031157604051633250574960e11b81526001600160a01b03841660048201526024016107e4565b6127106001600160601b038216811015610f925760405163dfd1fc1b60e01b8152600481018590526001600160601b0383166024820152604481018290526064016107e4565b6001600160a01b038316610fc257604051634b4f842960e11b8152600481018590525f60248201526044016107e4565b506040805180820182526001600160a01b0393841681526001600160601b0392831660208083019182525f968752600190529190942093519051909116600160a01b029116179055565b6001600160a01b0382165f9081526005602052604081208054839290611033908490611b9a565b90915550505050565b61104683836111bc565b6110525f8484846113ab565b61083757604051633250574960e11b81526001600160a01b03841660048201526024016107e4565b816001600160a01b0316836001600160a01b0316036110b757604051630b61174360e31b81526001600160a01b03841660048201526024016107e4565b6001600160a01b038381165f81815260076020908152604080832094871680845294825291829020805460ff191686151590811790915591519182527f17307eab39ab6107e8899845ad3d59bd9653f200f220920489ca2b5937696c31910160405180910390a3505050565b610496816114b4565b60605f61113883611569565b60010190505f8167ffffffffffffffff81111561115757611157611967565b6040519080825280601f01601f191660200182016040528015611181576020820181803683370190505b5090508181016020015b5f19016f181899199a1a9b1b9c1cb0b131b232b360811b600a86061a8153600a850494508461118b57509392505050565b6001600160a01b0382166111e557604051633250574960e11b81525f60048201526024016107e4565b5f818152600460205260409020546001600160a01b03161561121c576040516339e3563760e11b81525f60048201526024016107e4565b5f818152600460205260409020546001600160a01b031615611253576040516339e3563760e11b81525f60048201526024016107e4565b6001600160a01b0382165f81815260056020908152604080832080546001019055848352600490915280822080546001600160a01b0319168417905551839291907fddf252ad1be2c89b69c2b068fc378daa952ba7f163c4a11628f55a4df523b3ef908290a45050565b610aa5828260405180602001604052805f81525061103c565b6127106001600160601b03821681101561131557604051636f483d0960e01b81526001600160601b0383166004820152602481018290526044016107e4565b6001600160a01b03831661133e57604051635b6cc80560e11b81525f60048201526024016107e4565b50604080518082019091526001600160a01b039092168083526001600160601b039091166020909201829052600160a01b909102175f55565b5f6001600160e01b0319821663152a902d60e11b14806106e457506301ffc9a760e01b6001600160e01b03198316146106e4565b5f6001600160a01b0384163b156114a957604051630a85bd0160e11b81526001600160a01b0385169063150b7a02906113ee903390899088908890600401611bad565b6020604051808303815f875af1925050508015611428575060408051601f3d908101601f1916820190925261142591810190611be9565b60015b61148f573d808015611455576040519150601f19603f3d011682016040523d82523d5f602084013e61145a565b606091505b5080515f0361148757604051633250574960e11b81526001600160a01b03861660048201526024016107e4565b805181602001fd5b6001600160e01b031916630a85bd0160e11b149050610d7b565b506001949350505050565b5f6114be826109bc565b90506114c9826109bc565b5f83815260066020908152604080832080546001600160a01b03191690556001600160a01b0384168352600590915281208054929350600192909190611510908490611b87565b90915550505f8281526004602052604080822080546001600160a01b0319169055518391906001600160a01b038416907fddf252ad1be2c89b69c2b068fc378daa952ba7f163c4a11628f55a4df523b3ef908390a45050565b5f8072184f03e93ff9f4daa797ed6e38ed64bf6a1f0160401b83106115a75772184f03e93ff9f4daa797ed6e38ed64bf6a1f0160401b830492506040015b6d04ee2d6d415b85acef810000000083106115d3576d04ee2d6d415b85acef8100000000830492506020015b662386f26fc1000083106115f157662386f26fc10000830492506010015b6305f5e1008310611609576305f5e100830492506008015b612710831061161d57612710830492506004015b6064831061162f576064830492506002015b600a83106106e45760010192915050565b6001600160e01b031981168114610845575f80fd5b5f60208284031215611665575f80fd5b8135610b6c81611640565b5f5b8381101561168a578181015183820152602001611672565b50505f910152565b5f81518084526116a9816020860160208601611670565b601f01601f19169290920160200192915050565b602081525f610b6c6020830184611692565b5f602082840312156116df575f80fd5b5035919050565b80356001600160a01b03811681146116fc575f80fd5b919050565b5f8060408385031215611712575f80fd5b61171b836116e6565b946020939093013593505050565b5f805f806080858703121561173c575f80fd5b611745856116e6565b9350611753602086016116e6565b93969395505050506040820135916060013590565b5f805f6060848603121561177a575f80fd5b611783846116e6565b9250611791602085016116e6565b9150604084013590509250925092565b5f80604083850312156117b2575f80fd5b50508035926020909101359150565b5f602082840312156117d1575f80fd5b610b6c826116e6565b5f8083601f8401126117ea575f80fd5b50813567ffffffffffffffff811115611801575f80fd5b602083019150836020828501011115610942575f80fd5b5f805f805f6080868803121561182c575f80fd5b611835866116e6565b9450611843602087016116e6565b935060408601359250606086013567ffffffffffffffff811115611865575f80fd5b611871888289016117da565b969995985093965092949392505050565b80356001600160601b03811681146116fc575f80fd5b5f805f606084860312156118aa575f80fd5b833592506118ba602085016116e6565b91506118c860408501611882565b90509250925092565b5f805f80606085870312156118e4575f80fd5b6118ed856116e6565b935060208501359250604085013567ffffffffffffffff81111561190f575f80fd5b61191b878288016117da565b95989497509550505050565b803580151581146116fc575f80fd5b5f8060408385031215611947575f80fd5b611950836116e6565b915061195e60208401611927565b90509250929050565b634e487b7160e01b5f52604160045260245ffd5b5f805f806080858703121561198e575f80fd5b611997856116e6565b93506119a5602086016116e6565b925060408501359150606085013567ffffffffffffffff808211156119c8575f80fd5b818701915087601f8301126119db575f80fd5b8135818111156119ed576119ed611967565b604051601f8201601f19908116603f01168101908382118183101715611a1557611a15611967565b816040528281528a6020848701011115611a2d575f80fd5b826020860160208301375f60208483010152809550505050505092959194509250565b5f805f60608486031215611a62575f80fd5b611a6b846116e6565b9250611a79602085016116e6565b91506118c860408501611927565b5f8060408385031215611a98575f80fd5b611aa1836116e6565b915061195e60208401611882565b5f8060408385031215611ac0575f80fd5b611ac9836116e6565b915061195e602084016116e6565b600181811c90821680611aeb57607f821691505b602082108103611b0957634e487b7160e01b5f52602260045260245ffd5b50919050565b634e487b7160e01b5f52601160045260245ffd5b80820281158282048414176106e4576106e4611b0f565b5f82611b5457634e487b7160e01b5f52601260045260245ffd5b500490565b5f8351611b6a818460208801611670565b835190830190611b7e818360208801611670565b01949350505050565b818103818111156106e4576106e4611b0f565b808201808211156106e4576106e4611b0f565b6001600160a01b03858116825284166020820152604081018390526080606082018190525f90611bdf90830184611692565b9695505050505050565b5f60208284031215611bf9575f80fd5b8151610b6c8161164056fea2646970667358221220dc97dae8b3e048f1ecf059b593f93acfece952a1629caa15db524937665d18dd64736f6c63430008140033",
  "linkReferences": {},
  "deployedLinkReferences": {}
}