{
  "_format": "hh-sol-artifact-1",
  "contractName": "$Arrays",
  "sourceName": "contracts-exposed/utils/Arrays.sol",
  "abi": [
    {
      "inputs": [],
      "stateMutability": "payable",
      "type": "constructor"
    },
    {
      "inputs": [
        {
          "internalType": "uint256",
          "name": "array",
          "type": "uint256"
        },
        {
          "internalType": "uint256",
          "name": "element",
          "type": "uint256"
        }
      ],
      "name": "$findUpperBound",
      "outputs": [
        {
          "internalType": "uint256",
          "name": "ret0",
          "type": "uint256"
        }
      ],
      "stateMutability": "view",
      "type": "function"
    },
    {
      "inputs": [
        {
          "internalType": "uint256",
          "name": "arr",
          "type": "uint256"
        },
        {
          "internalType": "uint256",
          "name": "pos",
          "type": "uint256"
        }
      ],
      "name": "$unsafeAccess_address_",
      "outputs": [
        {
          "components": [
            {
              "internalType": "address",
              "name": "value",
              "type": "address"
            }
          ],
          "internalType": "struct StorageSlot.AddressSlot",
          "name": "ret0",
          "type": "tuple"
        }
      ],
      "stateMutability": "view",
      "type": "function"
    },
    {
      "inputs": [
        {
          "internalType": "uint256",
          "name": "arr",
          "type": "uint256"
        },
        {
          "internalType": "uint256",
          "name": "pos",
          "type": "uint256"
        }
      ],
      "name": "$unsafeAccess_bytes32_",
      "outputs": [
        {
          "components": [
            {
              "internalType": "bytes32",
              "name": "value",
              "type": "bytes32"
            }
          ],
          "internalType": "struct StorageSlot.Bytes32Slot",
          "name": "ret0",
          "type": "tuple"
        }
      ],
      "stateMutability": "view",
      "type": "function"
    },
    {
      "inputs": [
        {
          "internalType": "uint256",
          "name": "arr",
          "type": "uint256"
        },
        {
          "internalType": "uint256",
          "name": "pos",
          "type": "uint256"
        }
      ],
      "name": "$unsafeAccess_uint256_",
      "outputs": [
        {
          "components": [
            {
              "internalType": "uint256",
              "name": "value",
              "type": "uint256"
            }
          ],
          "internalType": "struct StorageSlot.Uint256Slot",
          "name": "ret0",
          "type": "tuple"
        }
      ],
      "stateMutability": "view",
      "type": "function"
    },
    {
      "inputs": [
        {
          "internalType": "address[]",
          "name": "arr",
          "type": "address[]"
        },
        {
          "internalType": "uint256",
          "name": "pos",
          "type": "uint256"
        }
      ],
      "name": "$unsafeMemoryAccess",
      "outputs": [
        {
          "internalType": "address",
          "name": "res",
          "type": "address"
        }
      ],
      "stateMutability": "pure",
      "type": "function"
    },
    {
      "inputs": [
        {
          "internalType": "uint256[]",
          "name": "arr",
          "type": "uint256[]"
        },
        {
          "internalType": "uint256",
          "name": "pos",
          "type": "uint256"
        }
      ],
      "name": "$unsafeMemoryAccess",
      "outputs": [
        {
          "internalType": "uint256",
          "name": "res",
          "type": "uint256"
        }
      ],
      "stateMutability": "pure",
      "type": "function"
    },
    {
      "inputs": [],
      "name": "__hh_exposed_bytecode_marker",
      "outputs": [
        {
          "internalType": "bytes32",
          "name": "",
          "type": "bytes32"
        }
      ],
      "stateMutability": "view",
      "type": "function"
    },
    {
      "stateMutability": "payable",
      "type": "receive"
    }
  ],
  "bytecode": "0x60806040526104c1806100115f395ff3fe608060405260043610610071575f3560e01c806345bd30261161004c57806345bd3026146101225780638e5a210f14610141578063c34fa4f51461015b578063fcd86a9014610189575f80fd5b80632ab9cf101461007c578063342db739146100b857806338657a24146100eb575f80fd5b3661007857005b5f80fd5b348015610087575f80fd5b5061009b610096366004610382565b6101a8565b60405190516001600160a01b031681526020015b60405180910390f35b3480156100c3575f80fd5b506100dd6e1a185c991a185d0b595e1c1bdcd959608a1b81565b6040519081526020016100af565b3480156100f6575f80fd5b5061010a6101053660046103ea565b6101ec565b6040516001600160a01b0390911681526020016100af565b34801561012d575f80fd5b506100dd61013c366004610382565b610232565b34801561014c575f80fd5b506100dd6101053660046103ea565b348015610166575f80fd5b5061017a610175366004610382565b610250565b604051905181526020016100af565b348015610194575f80fd5b5061017a6101a3366004610382565b61028b565b60408051602081019091525f81525f8381526001602052604090206101cd90836102ac565b604080516020810190915290546001600160a01b031681529392505050565b5f61022a8484808060200260200160405190810160405280939291908181526020018383602002808284375f920191909152508692506102bd915050565b949350505050565b5f82815260208190526040812061024990836102cb565b9392505050565b60408051602081019091525f81525f83815260026020526040902061027590836102ac565b6040805160208101909152905481529392505050565b60408051602081019091525f81525f83815260208190526040902061027590835b5f8281526020902081015b92915050565b602090810291909101015190565b81545f9081908082036102e2575f925050506102b7565b80821015610325575f6102f58383610368565b90508461030287836102ac565b5411156103115780915061031f565b61031c816001610446565b92505b506102e2565b5f821180156103475750836103448661033f600186610459565b6102ac565b54145b1561036057610357600183610459565b925050506102b7565b5090506102b7565b5f610376600284841861046c565b61024990848416610446565b5f8060408385031215610393575f80fd5b50508035926020909101359150565b5f8083601f8401126103b2575f80fd5b50813567ffffffffffffffff8111156103c9575f80fd5b6020830191508360208260051b85010111156103e3575f80fd5b9250929050565b5f805f604084860312156103fc575f80fd5b833567ffffffffffffffff811115610412575f80fd5b61041e868287016103a2565b909790965060209590950135949350505050565b634e487b7160e01b5f52601160045260245ffd5b808201808211156102b7576102b7610432565b818103818111156102b7576102b7610432565b5f8261048657634e487b7160e01b5f52601260045260245ffd5b50049056fea26469706673582212207582bd6c4b9aa36b53d8b62301dfcf45d884dd1c73ababc07cd84cf2631c8bdf64736f6c63430008140033",
  "linkReferences": {},
  "deployedLinkReferences": {}
}