{
  "_format": "hh-sol-artifact-1",
  "contractName": "MyToken",
  "sourceName": "contracts/mocks/docs/governance/MyToken.sol",
  "abi": [
    {
      "inputs": [],
      "stateMutability": "nonpayable",
      "type": "constructor"
    },
    {
      "inputs": [],
      "name": "CheckpointUnorderedInsertion",
      "type": "error"
    },
    {
      "inputs": [],
      "name": "ECDSAInvalidSignature",
      "type": "error"
    },
    {
      "inputs": [
        {
          "internalType": "uint256",
          "name": "length",
          "type": "uint256"
        }
      ],
      "name": "ECDSAInvalidSignatureLength",
      "type": "error"
    },
    {
      "inputs": [
        {
          "internalType": "bytes32",
          "name": "s",
          "type": "bytes32"
        }
      ],
      "name": "ECDSAInvalidSignatureS",
      "type": "error"
    },
    {
      "inputs": [
        {
          "internalType": "uint256",
          "name": "increasedSupply",
          "type": "uint256"
        },
        {
          "internalType": "uint256",
          "name": "cap",
          "type": "uint256"
        }
      ],
      "name": "ERC20ExceededSafeSupply",
      "type": "error"
    },
    {
      "inputs": [
        {
          "internalType": "address",
          "name": "spender",
          "type": "address"
        },
        {
          "internalType": "uint256",
          "name": "currentAllowance",
          "type": "uint256"
        },
        {
          "internalType": "uint256",
          "name": "requestedDecrease",
          "type": "uint256"
        }
      ],
      "name": "ERC20FailedDecreaseAllowance",
      "type": "error"
    },
    {
      "inputs": [
        {
          "internalType": "address",
          "name": "spender",
          "type": "address"
        },
        {
          "internalType": "uint256",
          "name": "allowance",
          "type": "uint256"
        },
        {
          "internalType": "uint256",
          "name": "needed",
          "type": "uint256"
        }
      ],
      "name": "ERC20InsufficientAllowance",
      "type": "error"
    },
    {
      "inputs": [
        {
          "internalType": "address",
          "name": "sender",
          "type": "address"
        },
        {
          "internalType": "uint256",
          "name": "balance",
          "type": "uint256"
        },
        {
          "internalType": "uint256",
          "name": "needed",
          "type": "uint256"
        }
      ],
      "name": "ERC20InsufficientBalance",
      "type": "error"
    },
    {
      "inputs": [
        {
          "internalType": "address",
          "name": "approver",
          "type": "address"
        }
      ],
      "name": "ERC20InvalidApprover",
      "type": "error"
    },
    {
      "inputs": [
        {
          "internalType": "address",
          "name": "receiver",
          "type": "address"
        }
      ],
      "name": "ERC20InvalidReceiver",
      "type": "error"
    },
    {
      "inputs": [
        {
          "internalType": "address",
          "name": "sender",
          "type": "address"
        }
      ],
      "name": "ERC20InvalidSender",
      "type": "error"
    },
    {
      "inputs": [
        {
          "internalType": "address",
          "name": "spender",
          "type": "address"
        }
      ],
      "name": "ERC20InvalidSpender",
      "type": "error"
    },
    {
      "inputs": [
        {
          "internalType": "uint256",
          "name": "deadline",
          "type": "uint256"
        }
      ],
      "name": "ERC2612ExpiredSignature",
      "type": "error"
    },
    {
      "inputs": [
        {
          "internalType": "address",
          "name": "signer",
          "type": "address"
        },
        {
          "internalType": "address",
          "name": "owner",
          "type": "address"
        }
      ],
      "name": "ERC2612InvalidSigner",
      "type": "error"
    },
    {
      "inputs": [
        {
          "internalType": "uint256",
          "name": "timepoint",
          "type": "uint256"
        },
        {
          "internalType": "uint48",
          "name": "clock",
          "type": "uint48"
        }
      ],
      "name": "ERC5805FutureLookup",
      "type": "error"
    },
    {
      "inputs": [],
      "name": "ERC6372InconsistentClock",
      "type": "error"
    },
    {
      "inputs": [
        {
          "internalType": "address",
          "name": "account",
          "type": "address"
        },
        {
          "internalType": "uint256",
          "name": "currentNonce",
          "type": "uint256"
        }
      ],
      "name": "InvalidAccountNonce",
      "type": "error"
    },
    {
      "inputs": [],
      "name": "InvalidShortString",
      "type": "error"
    },
    {
      "inputs": [
        {
          "internalType": "uint8",
          "name": "bits",
          "type": "uint8"
        },
        {
          "internalType": "uint256",
          "name": "value",
          "type": "uint256"
        }
      ],
      "name": "SafeCastOverflowedUintDowncast",
      "type": "error"
    },
    {
      "inputs": [
        {
          "internalType": "string",
          "name": "str",
          "type": "string"
        }
      ],
      "name": "StringTooLong",
      "type": "error"
    },
    {
      "inputs": [
        {
          "internalType": "uint256",
          "name": "expiry",
          "type": "uint256"
        }
      ],
      "name": "VotesExpiredSignature",
      "type": "error"
    },
    {
      "anonymous": false,
      "inputs": [
        {
          "indexed": true,
          "internalType": "address",
          "name": "owner",
          "type": "address"
        },
        {
          "indexed": true,
          "internalType": "address",
          "name": "spender",
          "type": "address"
        },
        {
          "indexed": false,
          "internalType": "uint256",
          "name": "value",
          "type": "uint256"
        }
      ],
      "name": "Approval",
      "type": "event"
    },
    {
      "anonymous": false,
      "inputs": [
        {
          "indexed": true,
          "internalType": "address",
          "name": "delegator",
          "type": "address"
        },
        {
          "indexed": true,
          "internalType": "address",
          "name": "fromDelegate",
          "type": "address"
        },
        {
          "indexed": true,
          "internalType": "address",
          "name": "toDelegate",
          "type": "address"
        }
      ],
      "name": "DelegateChanged",
      "type": "event"
    },
    {
      "anonymous": false,
      "inputs": [
        {
          "indexed": true,
          "internalType": "address",
          "name": "delegate",
          "type": "address"
        },
        {
          "indexed": false,
          "internalType": "uint256",
          "name": "previousVotes",
          "type": "uint256"
        },
        {
          "indexed": false,
          "internalType": "uint256",
          "name": "newVotes",
          "type": "uint256"
        }
      ],
      "name": "DelegateVotesChanged",
      "type": "event"
    },
    {
      "anonymous": false,
      "inputs": [],
      "name": "EIP712DomainChanged",
      "type": "event"
    },
    {
      "anonymous": false,
      "inputs": [
        {
          "indexed": true,
          "internalType": "address",
          "name": "from",
          "type": "address"
        },
        {
          "indexed": true,
          "internalType": "address",
          "name": "to",
          "type": "address"
        },
        {
          "indexed": false,
          "internalType": "uint256",
          "name": "value",
          "type": "uint256"
        }
      ],
      "name": "Transfer",
      "type": "event"
    },
    {
      "inputs": [],
      "name": "CLOCK_MODE",
      "outputs": [
        {
          "internalType": "string",
          "name": "",
          "type": "string"
        }
      ],
      "stateMutability": "view",
      "type": "function"
    },
    {
      "inputs": [],
      "name": "DOMAIN_SEPARATOR",
      "outputs": [
        {
          "internalType": "bytes32",
          "name": "",
          "type": "bytes32"
        }
      ],
      "stateMutability": "view",
      "type": "function"
    },
    {
      "inputs": [
        {
          "internalType": "address",
          "name": "owner",
          "type": "address"
        },
        {
          "internalType": "address",
          "name": "spender",
          "type": "address"
        }
      ],
      "name": "allowance",
      "outputs": [
        {
          "internalType": "uint256",
          "name": "",
          "type": "uint256"
        }
      ],
      "stateMutability": "view",
      "type": "function"
    },
    {
      "inputs": [
        {
          "internalType": "address",
          "name": "spender",
          "type": "address"
        },
        {
          "internalType": "uint256",
          "name": "value",
          "type": "uint256"
        }
      ],
      "name": "approve",
      "outputs": [
        {
          "internalType": "bool",
          "name": "",
          "type": "bool"
        }
      ],
      "stateMutability": "nonpayable",
      "type": "function"
    },
    {
      "inputs": [
        {
          "internalType": "address",
          "name": "account",
          "type": "address"
        }
      ],
      "name": "balanceOf",
      "outputs": [
        {
          "internalType": "uint256",
          "name": "",
          "type": "uint256"
        }
      ],
      "stateMutability": "view",
      "type": "function"
    },
    {
      "inputs": [
        {
          "internalType": "address",
          "name": "account",
          "type": "address"
        },
        {
          "internalType": "uint32",
          "name": "pos",
          "type": "uint32"
        }
      ],
      "name": "checkpoints",
      "outputs": [
        {
          "components": [
            {
              "internalType": "uint32",
              "name": "_key",
              "type": "uint32"
            },
            {
              "internalType": "uint224",
              "name": "_value",
              "type": "uint224"
            }
          ],
          "internalType": "struct Checkpoints.Checkpoint224",
          "name": "",
          "type": "tuple"
        }
      ],
      "stateMutability": "view",
      "type": "function"
    },
    {
      "inputs": [],
      "name": "clock",
      "outputs": [
        {
          "internalType": "uint48",
          "name": "",
          "type": "uint48"
        }
      ],
      "stateMutability": "view",
      "type": "function"
    },
    {
      "inputs": [],
      "name": "decimals",
      "outputs": [
        {
          "internalType": "uint8",
          "name": "",
          "type": "uint8"
        }
      ],
      "stateMutability": "view",
      "type": "function"
    },
    {
      "inputs": [
        {
          "internalType": "address",
          "name": "spender",
          "type": "address"
        },
        {
          "internalType": "uint256",
          "name": "requestedDecrease",
          "type": "uint256"
        }
      ],
      "name": "decreaseAllowance",
      "outputs": [
        {
          "internalType": "bool",
          "name": "",
          "type": "bool"
        }
      ],
      "stateMutability": "nonpayable",
      "type": "function"
    },
    {
      "inputs": [
        {
          "internalType": "address",
          "name": "delegatee",
          "type": "address"
        }
      ],
      "name": "delegate",
      "outputs": [],
      "stateMutability": "nonpayable",
      "type": "function"
    },
    {
      "inputs": [
        {
          "internalType": "address",
          "name": "delegatee",
          "type": "address"
        },
        {
          "internalType": "uint256",
          "name": "nonce",
          "type": "uint256"
        },
        {
          "internalType": "uint256",
          "name": "expiry",
          "type": "uint256"
        },
        {
          "internalType": "uint8",
          "name": "v",
          "type": "uint8"
        },
        {
          "internalType": "bytes32",
          "name": "r",
          "type": "bytes32"
        },
        {
          "internalType": "bytes32",
          "name": "s",
          "type": "bytes32"
        }
      ],
      "name": "delegateBySig",
      "outputs": [],
      "stateMutability": "nonpayable",
      "type": "function"
    },
    {
      "inputs": [
        {
          "internalType": "address",
          "name": "account",
          "type": "address"
        }
      ],
      "name": "delegates",
      "outputs": [
        {
          "internalType": "address",
          "name": "",
          "type": "address"
        }
      ],
      "stateMutability": "view",
      "type": "function"
    },
    {
      "inputs": [],
      "name": "eip712Domain",
      "outputs": [
        {
          "internalType": "bytes1",
          "name": "fields",
          "type": "bytes1"
        },
        {
          "internalType": "string",
          "name": "name",
          "type": "string"
        },
        {
          "internalType": "string",
          "name": "version",
          "type": "string"
        },
        {
          "internalType": "uint256",
          "name": "chainId",
          "type": "uint256"
        },
        {
          "internalType": "address",
          "name": "verifyingContract",
          "type": "address"
        },
        {
          "internalType": "bytes32",
          "name": "salt",
          "type": "bytes32"
        },
        {
          "internalType": "uint256[]",
          "name": "extensions",
          "type": "uint256[]"
        }
      ],
      "stateMutability": "view",
      "type": "function"
    },
    {
      "inputs": [
        {
          "internalType": "uint256",
          "name": "timepoint",
          "type": "uint256"
        }
      ],
      "name": "getPastTotalSupply",
      "outputs": [
        {
          "internalType": "uint256",
          "name": "",
          "type": "uint256"
        }
      ],
      "stateMutability": "view",
      "type": "function"
    },
    {
      "inputs": [
        {
          "internalType": "address",
          "name": "account",
          "type": "address"
        },
        {
          "internalType": "uint256",
          "name": "timepoint",
          "type": "uint256"
        }
      ],
      "name": "getPastVotes",
      "outputs": [
        {
          "internalType": "uint256",
          "name": "",
          "type": "uint256"
        }
      ],
      "stateMutability": "view",
      "type": "function"
    },
    {
      "inputs": [
        {
          "internalType": "address",
          "name": "account",
          "type": "address"
        }
      ],
      "name": "getVotes",
      "outputs": [
        {
          "internalType": "uint256",
          "name": "",
          "type": "uint256"
        }
      ],
      "stateMutability": "view",
      "type": "function"
    },
    {
      "inputs": [
        {
          "internalType": "address",
          "name": "spender",
          "type": "address"
        },
        {
          "internalType": "uint256",
          "name": "addedValue",
          "type": "uint256"
        }
      ],
      "name": "increaseAllowance",
      "outputs": [
        {
          "internalType": "bool",
          "name": "",
          "type": "bool"
        }
      ],
      "stateMutability": "nonpayable",
      "type": "function"
    },
    {
      "inputs": [],
      "name": "name",
      "outputs": [
        {
          "internalType": "string",
          "name": "",
          "type": "string"
        }
      ],
      "stateMutability": "view",
      "type": "function"
    },
    {
      "inputs": [
        {
          "internalType": "address",
          "name": "owner",
          "type": "address"
        }
      ],
      "name": "nonces",
      "outputs": [
        {
          "internalType": "uint256",
          "name": "",
          "type": "uint256"
        }
      ],
      "stateMutability": "view",
      "type": "function"
    },
    {
      "inputs": [
        {
          "internalType": "address",
          "name": "account",
          "type": "address"
        }
      ],
      "name": "numCheckpoints",
      "outputs": [
        {
          "internalType": "uint32",
          "name": "",
          "type": "uint32"
        }
      ],
      "stateMutability": "view",
      "type": "function"
    },
    {
      "inputs": [
        {
          "internalType": "address",
          "name": "owner",
          "type": "address"
        },
        {
          "internalType": "address",
          "name": "spender",
          "type": "address"
        },
        {
          "internalType": "uint256",
          "name": "value",
          "type": "uint256"
        },
        {
          "internalType": "uint256",
          "name": "deadline",
          "type": "uint256"
        },
        {
          "internalType": "uint8",
          "name": "v",
          "type": "uint8"
        },
        {
          "internalType": "bytes32",
          "name": "r",
          "type": "bytes32"
        },
        {
          "internalType": "bytes32",
          "name": "s",
          "type": "bytes32"
        }
      ],
      "name": "permit",
      "outputs": [],
      "stateMutability": "nonpayable",
      "type": "function"
    },
    {
      "inputs": [],
      "name": "symbol",
      "outputs": [
        {
          "internalType": "string",
          "name": "",
          "type": "string"
        }
      ],
      "stateMutability": "view",
      "type": "function"
    },
    {
      "inputs": [],
      "name": "totalSupply",
      "outputs": [
        {
          "internalType": "uint256",
          "name": "",
          "type": "uint256"
        }
      ],
      "stateMutability": "view",
      "type": "function"
    },
    {
      "inputs": [
        {
          "internalType": "address",
          "name": "to",
          "type": "address"
        },
        {
          "internalType": "uint256",
          "name": "value",
          "type": "uint256"
        }
      ],
      "name": "transfer",
      "outputs": [
        {
          "internalType": "bool",
          "name": "",
          "type": "bool"
        }
      ],
      "stateMutability": "nonpayable",
      "type": "function"
    },
    {
      "inputs": [
        {
          "internalType": "address",
          "name": "from",
          "type": "address"
        },
        {
          "internalType": "address",
          "name": "to",
          "type": "address"
        },
        {
          "internalType": "uint256",
          "name": "value",
          "type": "uint256"
        }
      ],
      "name": "transferFrom",
      "outputs": [
        {
          "internalType": "bool",
          "name": "",
          "type": "bool"
        }
      ],
      "stateMutability": "nonpayable",
      "type": "function"
    }
  ],
  "bytecode": "0x61016060405234801562000011575f80fd5b506040518060400160405280600781526020016626bcaa37b5b2b760c91b81525080604051806040016040528060018152602001603160f81b8152506040518060400160405280600781526020016626bcaa37b5b2b760c91b815250604051806040016040528060038152602001624d544b60e81b81525081600390816200009a91906200028c565b506004620000a982826200028c565b50620000bb9150839050600562000169565b61012052620000cc81600662000169565b61014052815160208084019190912060e052815190820120610100524660a0526200015960e05161010051604080517f8b73c3c69bb8fe3d512ecc4cf759cc79239f7b179b0ffacaa9a75d522b39400f60208201529081019290925260608201524660808201523060a08201525f9060c00160405160208183030381529060405280519060200120905090565b60805250503060c05250620003c5565b5f60208351101562000188576200018083620001a1565b90506200019b565b816200019584826200028c565b5060ff90505b92915050565b5f80829050601f81511115620001d7578260405163305a27a960e01b8152600401620001ce919062000354565b60405180910390fd5b8051620001e482620003a1565b179392505050565b634e487b7160e01b5f52604160045260245ffd5b600181811c908216806200021557607f821691505b6020821081036200023457634e487b7160e01b5f52602260045260245ffd5b50919050565b601f82111562000287575f81815260208120601f850160051c81016020861015620002625750805b601f850160051c820191505b8181101562000283578281556001016200026e565b5050505b505050565b81516001600160401b03811115620002a857620002a8620001ec565b620002c081620002b9845462000200565b846200023a565b602080601f831160018114620002f6575f8415620002de5750858301515b5f19600386901b1c1916600185901b17855562000283565b5f85815260208120601f198616915b82811015620003265788860151825594840194600190910190840162000305565b50858210156200034457878501515f19600388901b60f8161c191681555b5050505050600190811b01905550565b5f6020808352835180828501525f5b81811015620003815785810183015185820160400152820162000363565b505f604082860101526040601f19601f8301168501019250505092915050565b8051602080830151919081101562000234575f1960209190910360031b1b16919050565b60805160a05160c05160e051610100516101205161014051611e27620004175f395f610d3d01525f610d1001525f610b2801525f610b0001525f610a5b01525f610a8501525f610aaf0152611e275ff3fe608060405234801561000f575f80fd5b506004361061016d575f3560e01c806370a08231116100d95780639ab24eb011610093578063c3cda5201161006e578063c3cda52014610365578063d505accf14610378578063dd62ed3e1461038b578063f1127ed81461039e575f80fd5b80639ab24eb01461032c578063a457c2d71461033f578063a9059cbb14610352575f80fd5b806370a082311461029c5780637ecebe00146102c457806384b0196e146102d75780638e539e8c146102f257806391ddadf41461030557806395d89b4114610324575f80fd5b8063395093511161012a57806339509351146101ee5780633a46b1a8146102015780634bf5d7e914610214578063587cde1e1461021c5780635c19a95c1461025f5780636fcfff4514610274575f80fd5b806306fdde0314610171578063095ea7b31461018f57806318160ddd146101b257806323b872dd146101c4578063313ce567146101d75780633644e515146101e6575b5f80fd5b6101796103db565b6040516101869190611a54565b60405180910390f35b6101a261019d366004611a81565b61046b565b6040519015158152602001610186565b6002545b604051908152602001610186565b6101a26101d2366004611aa9565b610484565b60405160128152602001610186565b6101b66104a7565b6101a26101fc366004611a81565b6104b5565b6101b661020f366004611a81565b6104d6565b61017961055a565b61024761022a366004611ae2565b6001600160a01b039081165f908152600860205260409020541690565b6040516001600160a01b039091168152602001610186565b61027261026d366004611ae2565b6105c3565b005b610287610282366004611ae2565b6105d2565b60405163ffffffff9091168152602001610186565b6101b66102aa366004611ae2565b6001600160a01b03165f9081526020819052604090205490565b6101b66102d2366004611ae2565b6105dc565b6102df6105e6565b6040516101869796959493929190611afb565b6101b6610300366004611b8f565b610628565b61030d610691565b60405165ffffffffffff9091168152602001610186565b61017961069b565b6101b661033a366004611ae2565b6106aa565b6101a261034d366004611a81565b6106d9565b6101a2610360366004611a81565b61072f565b610272610373366004611bb6565b61073c565b610272610386366004611c0a565b6107f9565b6101b6610399366004611c6f565b61092f565b6103b16103ac366004611ca0565b610959565b60408051825163ffffffff1681526020928301516001600160e01b03169281019290925201610186565b6060600380546103ea90611cdd565b80601f016020809104026020016040519081016040528092919081815260200182805461041690611cdd565b80156104615780601f1061043857610100808354040283529160200191610461565b820191905f5260205f20905b81548152906001019060200180831161044457829003601f168201915b5050505050905090565b5f3361047881858561097d565b60019150505b92915050565b5f3361049185828561098f565b61049c8585856109f2565b506001949350505050565b5f6104b0610a4f565b905090565b5f336104788185856104c7838361092f565b6104d19190611d29565b61097d565b5f806104e0610691565b90508065ffffffffffff16831061052057604051637669fc0f60e11b81526004810184905265ffffffffffff821660248201526044015b60405180910390fd5b61054961052c84610b78565b6001600160a01b0386165f90815260096020526040902090610bac565b6001600160e01b0316949350505050565b606043610565610691565b65ffffffffffff161461058b576040516301bfc1c560e61b815260040160405180910390fd5b5060408051808201909152601d81527f6d6f64653d626c6f636b6e756d6265722666726f6d3d64656661756c74000000602082015290565b336105ce8183610c5a565b5050565b5f61047e82610ccb565b5f61047e82610cec565b5f6060805f805f60606105f7610d09565b6105ff610d36565b604080515f80825260208201909252600f60f81b9b939a50919850469750309650945092509050565b5f80610632610691565b90508065ffffffffffff16831061066d57604051637669fc0f60e11b81526004810184905265ffffffffffff82166024820152604401610517565b61068161067984610b78565b600a90610bac565b6001600160e01b03169392505050565b5f6104b043610d63565b6060600480546103ea90611cdd565b6001600160a01b0381165f9081526009602052604081206106ca90610d95565b6001600160e01b031692915050565b5f33816106e6828661092f565b90508381101561072257604051632983c0c360e21b81526001600160a01b03861660048201526024810182905260448101859052606401610517565b61049c828686840361097d565b5f336104788185856109f2565b8342111561076057604051632341d78760e11b815260048101859052602401610517565b604080517fe48329057bfd03d55e49b547132e39cffd9c1820ad7b9d4c5307691425d15adf60208201526001600160a01b0388169181019190915260608101869052608081018590525f906107d9906107d19060a00160405160208183030381529060405280519060200120610dcc565b858585610df8565b90506107e58187610e24565b506107f08188610c5a565b50505050505050565b8342111561081d5760405163313c898160e11b815260048101859052602401610517565b5f7f6e71edae12b1b97f4d1f60370fef10105fa2faae0126114a169c64845d6126c98888886108688c6001600160a01b03165f90815260076020526040902080546001810190915590565b6040805160208101969096526001600160a01b0394851690860152929091166060840152608083015260a082015260c0810186905260e0016040516020818303038152906040528051906020012090505f6108c282610dcc565b90505f6108d182878787610df8565b9050896001600160a01b0316816001600160a01b031614610918576040516325c0072360e11b81526001600160a01b0380831660048301528b166024820152604401610517565b6109238a8a8a61097d565b50505050505050505050565b6001600160a01b039182165f90815260016020908152604080832093909416825291909152205490565b604080518082019091525f80825260208201526109768383610e76565b9392505050565b61098a8383836001610eaa565b505050565b5f61099a848461092f565b90505f1981146109ec57818110156109de57604051637dc7a0d960e11b81526001600160a01b03841660048201526024810182905260448101839052606401610517565b6109ec84848484035f610eaa565b50505050565b6001600160a01b038316610a1b57604051634b637e8f60e11b81525f6004820152602401610517565b6001600160a01b038216610a445760405163ec442f0560e01b81525f6004820152602401610517565b61098a838383610f7c565b5f306001600160a01b037f000000000000000000000000000000000000000000000000000000000000000016148015610aa757507f000000000000000000000000000000000000000000000000000000000000000046145b15610ad157507f000000000000000000000000000000000000000000000000000000000000000090565b6104b0604080517f8b73c3c69bb8fe3d512ecc4cf759cc79239f7b179b0ffacaa9a75d522b39400f60208201527f0000000000000000000000000000000000000000000000000000000000000000918101919091527f000000000000000000000000000000000000000000000000000000000000000060608201524660808201523060a08201525f9060c00160405160208183030381529060405280519060200120905090565b5f63ffffffff821115610ba8576040516306dfcc6560e41b81526020600482015260248101839052604401610517565b5090565b81545f9081816005811115610c06575f610bc584610f87565b610bcf9085611d3c565b5f8881526020902090915081015463ffffffff9081169087161015610bf657809150610c04565b610c01816001611d29565b92505b505b5f610c138787858561106b565b90508015610c4d57610c3787610c2a600184611d3c565b5f91825260209091200190565b54600160201b90046001600160e01b0316610c4f565b5f5b979650505050505050565b6001600160a01b038281165f8181526008602052604080822080548686166001600160a01b0319821681179092559151919094169392849290917f3134e8a2e6d97e929a7e54011ea5485d7d196dd5f0ba4d4ef95803e8e3fc257f9190a461098a8183610cc6866110c6565b6110e3565b6001600160a01b0381165f9081526009602052604081205461047e90610b78565b6001600160a01b0381165f9081526007602052604081205461047e565b60606104b07f0000000000000000000000000000000000000000000000000000000000000000600561124c565b60606104b07f0000000000000000000000000000000000000000000000000000000000000000600661124c565b5f65ffffffffffff821115610ba8576040516306dfcc6560e41b81526030600482015260248101839052604401610517565b80545f908015610dc457610dae83610c2a600184611d3c565b54600160201b90046001600160e01b0316610976565b5f9392505050565b5f61047e610dd8610a4f565b8360405161190160f01b8152600281019290925260228201526042902090565b5f805f80610e08888888886112f5565b925092509250610e1882826113bd565b50909695505050505050565b6001600160a01b0382165f908152600760205260408120805460018101909155808314610976576040516301d4b62360e61b81526001600160a01b038516600482015260248101829052604401610517565b604080518082019091525f80825260208201526001600160a01b0383165f9081526009602052604090206109769083611475565b6001600160a01b038416610ed35760405163e602df0560e01b81525f6004820152602401610517565b6001600160a01b038316610efc57604051634a1406b160e11b81525f6004820152602401610517565b6001600160a01b038085165f90815260016020908152604080832093871683529290522082905580156109ec57826001600160a01b0316846001600160a01b03167f8c5be1e5ebec7d5bd14f71427d1e84f3dd0314c0f7b2291e5b200ac8c7c3b92584604051610f6e91815260200190565b60405180910390a350505050565b61098a8383836114e0565b5f815f03610f9657505f919050565b5f6001610fa284611546565b901c6001901b90506001818481610fbb57610fbb611d4f565b048201901c90506001818481610fd357610fd3611d4f565b048201901c90506001818481610feb57610feb611d4f565b048201901c9050600181848161100357611003611d4f565b048201901c9050600181848161101b5761101b611d4f565b048201901c9050600181848161103357611033611d4f565b048201901c9050600181848161104b5761104b611d4f565b048201901c90506109768182858161106557611065611d4f565b046115d9565b5f5b818310156110be575f61108084846115ee565b5f8781526020902090915063ffffffff86169082015463ffffffff1611156110aa578092506110b8565b6110b5816001611d29565b93505b5061106d565b509392505050565b6001600160a01b0381165f9081526020819052604081205461047e565b816001600160a01b0316836001600160a01b03161415801561110457505f81115b1561098a576001600160a01b038316156111ab576001600160a01b0383165f90815260096020526040812081906111469061160861114186611613565b611646565b6001600160e01b031691506001600160e01b03169150846001600160a01b03167fdec2bacdd2f05b59de34da9b523dff8be42e5e38e818c82fdb0bae774387a72483836040516111a0929190918252602082015260400190565b60405180910390a250505b6001600160a01b0382161561098a576001600160a01b0382165f90815260096020526040812081906111e39061168e61114186611613565b6001600160e01b031691506001600160e01b03169150836001600160a01b03167fdec2bacdd2f05b59de34da9b523dff8be42e5e38e818c82fdb0bae774387a724838360405161123d929190918252602082015260400190565b60405180910390a25050505050565b606060ff83146112665761125f83611699565b905061047e565b81805461127290611cdd565b80601f016020809104026020016040519081016040528092919081815260200182805461129e90611cdd565b80156112e95780601f106112c0576101008083540402835291602001916112e9565b820191905f5260205f20905b8154815290600101906020018083116112cc57829003601f168201915b5050505050905061047e565b5f80807f7fffffffffffffffffffffffffffffff5d576e7357a4501ddfe92f46681b20a084111561132e57505f915060039050826113b3565b604080515f808252602082018084528a905260ff891692820192909252606081018790526080810186905260019060a0016020604051602081039080840390855afa15801561137f573d5f803e3d5ffd5b5050604051601f1901519150506001600160a01b0381166113aa57505f9250600191508290506113b3565b92505f91508190505b9450945094915050565b5f8260038111156113d0576113d0611d63565b036113d9575050565b60018260038111156113ed576113ed611d63565b0361140b5760405163f645eedf60e01b815260040160405180910390fd5b600282600381111561141f5761141f611d63565b036114405760405163fce698f760e01b815260048101829052602401610517565b600382600381111561145457611454611d63565b036105ce576040516335e2f38360e21b815260048101829052602401610517565b604080518082019091525f8082526020820152825f018263ffffffff16815481106114a2576114a2611d77565b5f9182526020918290206040805180820190915291015463ffffffff81168252600160201b90046001600160e01b0316918101919091529392505050565b6114eb8383836116d6565b6001600160a01b03831661153b575f61150360025490565b90506001600160e01b038082111561153857604051630e58ae9360e11b81526004810183905260248101829052604401610517565b50505b61098a8383836117fc565b5f80608083901c1561155a57608092831c92015b604083901c1561156c57604092831c92015b602083901c1561157e57602092831c92015b601083901c1561159057601092831c92015b600883901c156115a257600892831c92015b600483901c156115b457600492831c92015b600283901c156115c657600292831c92015b600183901c1561047e5760010192915050565b5f8183106115e75781610976565b5090919050565b5f6115fc6002848418611d8b565b61097690848416611d29565b5f6109768284611daa565b5f6001600160e01b03821115610ba8576040516306dfcc6560e41b815260e0600482015260248101839052604401610517565b5f80611681611663611656610691565b65ffffffffffff16610b78565b61167961166f88610d95565b868863ffffffff16565b879190611871565b915091505b935093915050565b5f6109768284611dd1565b60605f6116a58361187e565b6040805160208082528183019092529192505f91906020820181803683375050509182525060208101929092525090565b6001600160a01b038316611700578060025f8282546116f59190611d29565b909155506117709050565b6001600160a01b0383165f90815260208190526040902054818110156117525760405163391434e360e21b81526001600160a01b03851660048201526024810182905260448101839052606401610517565b6001600160a01b0384165f9081526020819052604090209082900390555b6001600160a01b03821661178c576002805482900390556117aa565b6001600160a01b0382165f9081526020819052604090208054820190555b816001600160a01b0316836001600160a01b03167fddf252ad1be2c89b69c2b068fc378daa952ba7f163c4a11628f55a4df523b3ef836040516117ef91815260200190565b60405180910390a3505050565b6001600160a01b03831661181e5761181b600a61168e61114184611613565b50505b6001600160a01b0382166118405761183d600a61160861114184611613565b50505b6001600160a01b038381165f9081526008602052604080822054858416835291205461098a929182169116836110e3565b5f806116818585856118a5565b5f60ff8216601f81111561047e57604051632cd44ac360e21b815260040160405180910390fd5b82545f90819080156119b9575f6118c187610c2a600185611d3c565b60408051808201909152905463ffffffff808216808452600160201b9092046001600160e01b03166020840152919250908716101561191357604051632520601d60e01b815260040160405180910390fd5b805163ffffffff80881691160361195b578461193488610c2a600186611d3c565b80546001600160e01b0392909216600160201b0263ffffffff9092169190911790556119a9565b6040805180820190915263ffffffff80881682526001600160e01b0380881660208085019182528b54600181018d555f8d81529190912094519151909216600160201b029216919091179101555b6020015192508391506116869050565b50506040805180820190915263ffffffff80851682526001600160e01b0380851660208085019182528854600181018a555f8a815291822095519251909316600160201b029190931617920191909155905081611686565b5f81518084525f5b81811015611a3557602081850181015186830182015201611a19565b505f602082860101526020601f19601f83011685010191505092915050565b602081525f6109766020830184611a11565b80356001600160a01b0381168114611a7c575f80fd5b919050565b5f8060408385031215611a92575f80fd5b611a9b83611a66565b946020939093013593505050565b5f805f60608486031215611abb575f80fd5b611ac484611a66565b9250611ad260208501611a66565b9150604084013590509250925092565b5f60208284031215611af2575f80fd5b61097682611a66565b60ff60f81b881681525f602060e081840152611b1a60e084018a611a11565b8381036040850152611b2c818a611a11565b606085018990526001600160a01b038816608086015260a0850187905284810360c086015285518082528387019250908301905f5b81811015611b7d57835183529284019291840191600101611b61565b50909c9b505050505050505050505050565b5f60208284031215611b9f575f80fd5b5035919050565b803560ff81168114611a7c575f80fd5b5f805f805f8060c08789031215611bcb575f80fd5b611bd487611a66565b95506020870135945060408701359350611bf060608801611ba6565b92506080870135915060a087013590509295509295509295565b5f805f805f805f60e0888a031215611c20575f80fd5b611c2988611a66565b9650611c3760208901611a66565b95506040880135945060608801359350611c5360808901611ba6565b925060a0880135915060c0880135905092959891949750929550565b5f8060408385031215611c80575f80fd5b611c8983611a66565b9150611c9760208401611a66565b90509250929050565b5f8060408385031215611cb1575f80fd5b611cba83611a66565b9150602083013563ffffffff81168114611cd2575f80fd5b809150509250929050565b600181811c90821680611cf157607f821691505b602082108103611d0f57634e487b7160e01b5f52602260045260245ffd5b50919050565b634e487b7160e01b5f52601160045260245ffd5b8082018082111561047e5761047e611d15565b8181038181111561047e5761047e611d15565b634e487b7160e01b5f52601260045260245ffd5b634e487b7160e01b5f52602160045260245ffd5b634e487b7160e01b5f52603260045260245ffd5b5f82611da557634e487b7160e01b5f52601260045260245ffd5b500490565b6001600160e01b03828116828216039080821115611dca57611dca611d15565b5092915050565b6001600160e01b03818116838216019080821115611dca57611dca611d1556fea26469706673582212207715035834187a109b127bebac22d759056a5e84474a68f7b61f94c9776c50a564736f6c63430008140033",
  "linkReferences": {},
  "deployedLinkReferences": {}
}