{"abi":[{"type":"function","name":"decimals","inputs":[],"outputs":[{"name":"","type":"uint256","internalType":"uint256"}],"stateMutability":"pure"}],"bytecode":{"object":"0x6080604052348015600f57600080fd5b50607880601d6000396000f3fe6080604052348015600f57600080fd5b506004361060285760003560e01c8063313ce56714602d575b600080fd5b60001960405190815260200160405180910390f3fea2646970667358221220f890844bbbcabab97ce11d06f9cc1e71fb4ea9ae19242d72024c43e95ade76d364736f6c634300081b0033","linkReferences":{}},"methodIdentifiers":{"decimals()":"313ce567"},"id":106}