{"abi":[{"type":"function","name":"allowance","inputs":[{"name":"owner","type":"address","internalType":"address"},{"name":"spender","type":"address","internalType":"address"}],"outputs":[{"name":"","type":"uint256","internalType":"uint256"}],"stateMutability":"view"},{"type":"function","name":"approve","inputs":[{"name":"spender","type":"address","internalType":"address"},{"name":"value","type":"uint256","internalType":"uint256"}],"outputs":[{"name":"","type":"bool","internalType":"bool"}],"stateMutability":"nonpayable"},{"type":"function","name":"balanceOf","inputs":[{"name":"account","type":"address","internalType":"address"}],"outputs":[{"name":"","type":"uint256","internalType":"uint256"}],"stateMutability":"view"},{"type":"function","name":"decimals","inputs":[],"outputs":[{"name":"","type":"uint8","internalType":"uint8"}],"stateMutability":"view"},{"type":"function","name":"decreaseAllowance","inputs":[{"name":"spender","type":"address","internalType":"address"},{"name":"requestedDecrease","type":"uint256","internalType":"uint256"}],"outputs":[{"name":"","type":"bool","internalType":"bool"}],"stateMutability":"nonpayable"},{"type":"function","name":"functionCall","inputs":[{"name":"target","type":"address","internalType":"address"},{"name":"data","type":"bytes","internalType":"bytes"}],"outputs":[{"name":"","type":"bytes","internalType":"bytes"}],"stateMutability":"nonpayable"},{"type":"function","name":"increaseAllowance","inputs":[{"name":"spender","type":"address","internalType":"address"},{"name":"addedValue","type":"uint256","internalType":"uint256"}],"outputs":[{"name":"","type":"bool","internalType":"bool"}],"stateMutability":"nonpayable"},{"type":"function","name":"name","inputs":[],"outputs":[{"name":"","type":"string","internalType":"string"}],"stateMutability":"view"},{"type":"function","name":"scheduleReenter","inputs":[{"name":"when","type":"uint8","internalType":"enum ERC20Reentrant.Type"},{"name":"target","type":"address","internalType":"address"},{"name":"data","type":"bytes","internalType":"bytes"}],"outputs":[],"stateMutability":"nonpayable"},{"type":"function","name":"symbol","inputs":[],"outputs":[{"name":"","type":"string","internalType":"string"}],"stateMutability":"view"},{"type":"function","name":"totalSupply","inputs":[],"outputs":[{"name":"","type":"uint256","internalType":"uint256"}],"stateMutability":"view"},{"type":"function","name":"transfer","inputs":[{"name":"to","type":"address","internalType":"address"},{"name":"value","type":"uint256","internalType":"uint256"}],"outputs":[{"name":"","type":"bool","internalType":"bool"}],"stateMutability":"nonpayable"},{"type":"function","name":"transferFrom","inputs":[{"name":"from","type":"address","internalType":"address"},{"name":"to","type":"address","internalType":"address"},{"name":"value","type":"uint256","internalType":"uint256"}],"outputs":[{"name":"","type":"bool","internalType":"bool"}],"stateMutability":"nonpayable"},{"type":"event","name":"Approval","inputs":[{"name":"owner","type":"address","indexed":true,"internalType":"address"},{"name":"spender","type":"address","indexed":true,"internalType":"address"},{"name":"value","type":"uint256","indexed":false,"internalType":"uint256"}],"anonymous":false},{"type":"event","name":"Transfer","inputs":[{"name":"from","type":"address","indexed":true,"internalType":"address"},{"name":"to","type":"address","indexed":true,"internalType":"address"},{"name":"value","type":"uint256","indexed":false,"internalType":"uint256"}],"anonymous":false},{"type":"error","name":"AddressEmptyCode","inputs":[{"name":"target","type":"address","internalType":"address"}]},{"type":"error","name":"AddressInsufficientBalance","inputs":[{"name":"account","type":"address","internalType":"address"}]},{"type":"error","name":"ERC20FailedDecreaseAllowance","inputs":[{"name":"spender","type":"address","internalType":"address"},{"name":"currentAllowance","type":"uint256","internalType":"uint256"},{"name":"requestedDecrease","type":"uint256","internalType":"uint256"}]},{"type":"error","name":"ERC20InsufficientAllowance","inputs":[{"name":"spender","type":"address","internalType":"address"},{"name":"allowance","type":"uint256","internalType":"uint256"},{"name":"needed","type":"uint256","internalType":"uint256"}]},{"type":"error","name":"ERC20InsufficientBalance","inputs":[{"name":"sender","type":"address","internalType":"address"},{"name":"balance","type":"uint256","internalType":"uint256"},{"name":"needed","type":"uint256","internalType":"uint256"}]},{"type":"error","name":"ERC20InvalidApprover","inputs":[{"name":"approver","type":"address","internalType":"address"}]},{"type":"error","name":"ERC20InvalidReceiver","inputs":[{"name":"receiver","type":"address","internalType":"address"}]},{"type":"error","name":"ERC20InvalidSender","inputs":[{"name":"sender","type":"address","internalType":"address"}]},{"type":"error","name":"ERC20InvalidSpender","inputs":[{"name":"spender","type":"address","internalType":"address"}]},{"type":"error","name":"FailedInnerCall","inputs":[]}],"bytecode":{"object":"0x608060405234801561001057600080fd5b5060405180604001604052806004815260200163151154d560e21b815250604051806040016040528060038152602001621514d560ea1b8152508160039081610059919061010d565b506004610066828261010d565b5050506101cb565b634e487b7160e01b600052604160045260246000fd5b600181811c9082168061009857607f821691505b6020821081036100b857634e487b7160e01b600052602260045260246000fd5b50919050565b601f82111561010857806000526020600020601f840160051c810160208510156100e55750805b601f840160051c820191505b8181101561010557600081556001016100f1565b50505b505050565b81516001600160401b038111156101265761012661006e565b61013a816101348454610084565b846100be565b6020601f82116001811461016e57600083156101565750848201515b600019600385901b1c1916600184901b178455610105565b600084815260208120601f198516915b8281101561019e578785015182556020948501946001909201910161017e565b50848210156101bc5786840151600019600387901b60f8161c191681555b50505050600190811b01905550565b610d9a806101da6000396000f3fe608060405234801561001057600080fd5b50600436106100cf5760003560e01c806370a082311161008c578063a457c2d711610066578063a457c2d7146101a0578063a9059cbb146101b3578063cd594b63146101c6578063dd62ed3e146101db57600080fd5b806370a082311461015c57806395d89b4114610185578063a0b5ffb01461018d57600080fd5b806306fdde03146100d4578063095ea7b3146100f257806318160ddd1461011557806323b872dd14610127578063313ce5671461013a5780633950935114610149575b600080fd5b6100dc6101ee565b6040516100e99190610975565b60405180910390f35b6101056101003660046109a4565b610280565b60405190151581526020016100e9565b6002545b6040519081526020016100e9565b6101056101353660046109ce565b61029a565b604051601281526020016100e9565b6101056101573660046109a4565b6102be565b61011961016a366004610a0b565b6001600160a01b031660009081526020819052604090205490565b6100dc6102e0565b6100dc61019b366004610a3c565b6102ef565b6101056101ae3660046109a4565b610302565b6101056101c13660046109a4565b61035e565b6101d96101d4366004610b06565b61036c565b005b6101196101e9366004610b9d565b6103c4565b6060600380546101fd90610bd0565b80601f016020809104026020016040519081016040528092919081815260200182805461022990610bd0565b80156102765780601f1061024b57610100808354040283529160200191610276565b820191906000526020600020905b81548152906001019060200180831161025957829003601f168201915b5050505050905090565b60003361028e8185856103ef565b60019150505b92915050565b6000336102a8858285610401565b6102b3858585610467565b506001949350505050565b60003361028e8185856102d183836103c4565b6102db9190610c0a565b6103ef565b6060600480546101fd90610bd0565b60606102fb83836104c6565b9392505050565b6000338161031082866103c4565b90508381101561035157604051632983c0c360e21b81526001600160a01b038616600482015260248101829052604481018590526064015b60405180910390fd5b6102b382868684036103ef565b60003361028e818585610467565b6005805485919060ff1916600183600281111561038b5761038b610c2b565b021790555060058054610100600160a81b0319166101006001600160a01b0386160217905560066103bd828483610c88565b5050505050565b6001600160a01b03918216600090815260016020908152604080832093909416825291909152205490565b6103fc83838360016104d7565b505050565b600061040d84846103c4565b90506000198114610461578181101561045257604051637dc7a0d960e11b81526001600160a01b03841660048201526024810182905260448101839052606401610348565b610461848484840360006104d7565b50505050565b6001600160a01b03831661049157604051634b637e8f60e11b815260006004820152602401610348565b6001600160a01b0382166104bb5760405163ec442f0560e01b815260006004820152602401610348565b6103fc8383836105ac565b60606102fb838360006106d26106eb565b6001600160a01b0384166105015760405163e602df0560e01b815260006004820152602401610348565b6001600160a01b03831661052b57604051634a1406b160e11b815260006004820152602401610348565b6001600160a01b038085166000908152600160209081526040808320938716835292905220829055801561046157826001600160a01b0316846001600160a01b03167f8c5be1e5ebec7d5bd14f71427d1e84f3dd0314c0f7b2291e5b200ac8c7c3b9258460405161059e91815260200190565b60405180910390a350505050565b600160055460ff1660028111156105c5576105c5610c2b565b0361067c576005805460ff1916908190556006805461067a9261010090046001600160a01b031691906105f790610bd0565b80601f016020809104026020016040519081016040528092919081815260200182805461062390610bd0565b80156106705780601f1061064557610100808354040283529160200191610670565b820191906000526020600020905b81548152906001019060200180831161065357829003601f168201915b50505050506102ef565b505b61068783838361078c565b600260055460ff1660028111156106a0576106a0610c2b565b036103fc576005805460ff191690819055600680546104619261010090046001600160a01b031691906105f790610bd0565b604051630a12f52160e11b815260040160405180910390fd5b6060824710156107105760405163cd78605960e01b8152306004820152602401610348565b600080866001600160a01b0316858760405161072c9190610d48565b60006040518083038185875af1925050503d8060008114610769576040519150601f19603f3d011682016040523d82523d6000602084013e61076e565b606091505b509150915061077f878383876108b6565b925050505b949350505050565b6001600160a01b0383166107b75780600260008282546107ac9190610c0a565b909155506108299050565b6001600160a01b0383166000908152602081905260409020548181101561080a5760405163391434e360e21b81526001600160a01b03851660048201526024810182905260448101839052606401610348565b6001600160a01b03841660009081526020819052604090209082900390555b6001600160a01b03821661084557600280548290039055610864565b6001600160a01b03821660009081526020819052604090208054820190555b816001600160a01b0316836001600160a01b03167fddf252ad1be2c89b69c2b068fc378daa952ba7f163c4a11628f55a4df523b3ef836040516108a991815260200190565b60405180910390a3505050565b606083156109045782516000036108fd57846001600160a01b03163b6000036108fd57604051639996b31560e01b81526001600160a01b0386166004820152602401610348565b5081610784565b61078483838151156109195781518083602001fd5b6106d28163ffffffff16565b60005b83811015610940578181015183820152602001610928565b50506000910152565b60008151808452610961816020860160208601610925565b601f01601f19169290920160200192915050565b6020815260006102fb6020830184610949565b80356001600160a01b038116811461099f57600080fd5b919050565b600080604083850312156109b757600080fd5b6109c083610988565b946020939093013593505050565b6000806000606084860312156109e357600080fd5b6109ec84610988565b92506109fa60208501610988565b929592945050506040919091013590565b600060208284031215610a1d57600080fd5b6102fb82610988565b634e487b7160e01b600052604160045260246000fd5b60008060408385031215610a4f57600080fd5b610a5883610988565b9150602083013567ffffffffffffffff811115610a7457600080fd5b8301601f81018513610a8557600080fd5b803567ffffffffffffffff811115610a9f57610a9f610a26565b604051601f8201601f19908116603f0116810167ffffffffffffffff81118282101715610ace57610ace610a26565b604052818152828201602001871015610ae657600080fd5b816020840160208301376000602083830101528093505050509250929050565b60008060008060608587031215610b1c57600080fd5b843560038110610b2b57600080fd5b9350610b3960208601610988565b9250604085013567ffffffffffffffff811115610b5557600080fd5b8501601f81018713610b6657600080fd5b803567ffffffffffffffff811115610b7d57600080fd5b876020828401011115610b8f57600080fd5b949793965060200194505050565b60008060408385031215610bb057600080fd5b610bb983610988565b9150610bc760208401610988565b90509250929050565b600181811c90821680610be457607f821691505b602082108103610c0457634e487b7160e01b600052602260045260246000fd5b50919050565b8082018082111561029457634e487b7160e01b600052601160045260246000fd5b634e487b7160e01b600052602160045260246000fd5b601f8211156103fc57806000526020600020601f840160051c81016020851015610c685750805b601f840160051c820191505b818110156103bd5760008155600101610c74565b67ffffffffffffffff831115610ca057610ca0610a26565b610cb483610cae8354610bd0565b83610c41565b6000601f841160018114610ce85760008515610cd05750838201355b600019600387901b1c1916600186901b1783556103bd565b600083815260209020601f19861690835b82811015610d195786850135825560209485019460019092019101610cf9565b5086821015610d365760001960f88860031b161c19848701351681555b505060018560011b0183555050505050565b60008251610d5a818460208701610925565b919091019291505056fea26469706673582212206617d08a5e14fc9671d83e57f677df315a18c30fd5bbe67e43c7a02475b0aa9e64736f6c634300081b0033","linkReferences":{}},"methodIdentifiers":{"allowance(address,address)":"dd62ed3e","approve(address,uint256)":"095ea7b3","balanceOf(address)":"70a08231","decimals()":"313ce567","decreaseAllowance(address,uint256)":"a457c2d7","functionCall(address,bytes)":"a0b5ffb0","increaseAllowance(address,uint256)":"39509351","name()":"06fdde03","scheduleReenter(uint8,address,bytes)":"cd594b63","symbol()":"95d89b41","totalSupply()":"18160ddd","transfer(address,uint256)":"a9059cbb","transferFrom(address,address,uint256)":"23b872dd"},"id":113}