{
  "_format": "hh-sol-artifact-1",
  "contractName": "AddressArraysMock",
  "sourceName": "contracts/mocks/ArraysMock.sol",
  "abi": [
    {
      "inputs": [
        {
          "internalType": "address[]",
          "name": "array",
          "type": "address[]"
        }
      ],
      "stateMutability": "nonpayable",
      "type": "constructor"
    },
    {
      "inputs": [
        {
          "internalType": "uint256",
          "name": "pos",
          "type": "uint256"
        }
      ],
      "name": "unsafeAccess",
      "outputs": [
        {
          "internalType": "address",
          "name": "",
          "type": "address"
        }
      ],
      "stateMutability": "view",
      "type": "function"
    }
  ],
  "bytecode": "0x608060405234801561000f575f80fd5b5060405161028738038061028783398101604081905261002e916100ed565b8051610040905f906020840190610047565b50506101ac565b828054828255905f5260205f2090810192821561009a579160200282015b8281111561009a57825182546001600160a01b0319166001600160a01b03909116178255602090920191600190910190610065565b506100a69291506100aa565b5090565b5b808211156100a6575f81556001016100ab565b634e487b7160e01b5f52604160045260245ffd5b80516001600160a01b03811681146100e8575f80fd5b919050565b5f60208083850312156100fe575f80fd5b82516001600160401b0380821115610114575f80fd5b818501915085601f830112610127575f80fd5b815181811115610139576101396100be565b8060051b604051601f19603f8301168101818110858211171561015e5761015e6100be565b60405291825284820192508381018501918883111561017b575f80fd5b938501935b828510156101a057610191856100d2565b84529385019392850192610180565b98975050505050505050565b60cf806101b85f395ff3fe6080604052348015600e575f80fd5b50600436106026575f3560e01c806340aa934d14602a575b5f80fd5b606760353660046083565b5f80527f290decd9548b62a8d60345a988386fc84ba6bc95484008f6362f93160ef3e56301546001600160a01b031690565b6040516001600160a01b03909116815260200160405180910390f35b5f602082840312156092575f80fd5b503591905056fea26469706673582212206106c4698ddee92fcfcdde581f21e5acf2da90789d7ba6d100b15f735c1e253e64736f6c63430008140033",
  "linkReferences": {},
  "deployedLinkReferences": {}
}