{
  "_format": "hh-sol-artifact-1",
  "contractName": "Uint256ArraysMock",
  "sourceName": "contracts/mocks/ArraysMock.sol",
  "abi": [
    {
      "inputs": [
        {
          "internalType": "uint256[]",
          "name": "array",
          "type": "uint256[]"
        }
      ],
      "stateMutability": "nonpayable",
      "type": "constructor"
    },
    {
      "inputs": [
        {
          "internalType": "uint256",
          "name": "element",
          "type": "uint256"
        }
      ],
      "name": "findUpperBound",
      "outputs": [
        {
          "internalType": "uint256",
          "name": "",
          "type": "uint256"
        }
      ],
      "stateMutability": "view",
      "type": "function"
    },
    {
      "inputs": [
        {
          "internalType": "uint256",
          "name": "pos",
          "type": "uint256"
        }
      ],
      "name": "unsafeAccess",
      "outputs": [
        {
          "internalType": "uint256",
          "name": "",
          "type": "uint256"
        }
      ],
      "stateMutability": "view",
      "type": "function"
    }
  ],
  "bytecode": "0x608060405234801561000f575f80fd5b5060405161039038038061039083398101604081905261002e916100b8565b8051610040905f906020840190610047565b5050610170565b828054828255905f5260205f20908101928215610080579160200282015b82811115610080578251825591602001919060010190610065565b5061008c929150610090565b5090565b5b8082111561008c575f8155600101610091565b634e487b7160e01b5f52604160045260245ffd5b5f60208083850312156100c9575f80fd5b82516001600160401b03808211156100df575f80fd5b818501915085601f8301126100f2575f80fd5b815181811115610104576101046100a4565b8060051b604051601f19603f83011681018181108582111715610129576101296100a4565b604052918252848201925083810185019188831115610146575f80fd5b938501935b828510156101645784518452938501939285019261014b565b98975050505050505050565b6102138061017d5f395ff3fe608060405234801561000f575f80fd5b5060043610610034575f3560e01c806333e3a58a1461003857806340aa934d1461005d575b5f80fd5b61004b61004636600461016d565b610094565b60405190815260200160405180910390f35b61004b61006b36600461016d565b5f80527f290decd9548b62a8d60345a988386fc84ba6bc95484008f6362f93160ef3e563015490565b5f61009f81836100a5565b92915050565b81545f9081908082036100bc575f9250505061009f565b80821015610101575f6100cf838361014c565b5f87815260209020909150859082015411156100ed578091506100fb565b6100f8816001610198565b92505b506100bc565b5f8211801561012b5750836101288661011b6001866101ab565b5f91825260209091200190565b54145b156101445761013b6001836101ab565b9250505061009f565b509392505050565b5f61015a60028484186101be565b61016690848416610198565b9392505050565b5f6020828403121561017d575f80fd5b5035919050565b634e487b7160e01b5f52601160045260245ffd5b8082018082111561009f5761009f610184565b8181038181111561009f5761009f610184565b5f826101d857634e487b7160e01b5f52601260045260245ffd5b50049056fea2646970667358221220dfe1e1dd18447c9a80f2c8483e3ba352251c107282b99b833d97a027448e31e364736f6c63430008140033",
  "linkReferences": {},
  "deployedLinkReferences": {}
}