{
  "_format": "hh-sol-artifact-1",
  "contractName": "$ERC20ExcessDecimalsMock",
  "sourceName": "contracts-exposed/mocks/token/ERC20ExcessDecimalsMock.sol",
  "abi": [
    {
      "inputs": [],
      "stateMutability": "payable",
      "type": "constructor"
    },
    {
      "inputs": [],
      "name": "__hh_exposed_bytecode_marker",
      "outputs": [
        {
          "internalType": "bytes32",
          "name": "",
          "type": "bytes32"
        }
      ],
      "stateMutability": "view",
      "type": "function"
    },
    {
      "inputs": [],
      "name": "decimals",
      "outputs": [
        {
          "internalType": "uint256",
          "name": "",
          "type": "uint256"
        }
      ],
      "stateMutability": "pure",
      "type": "function"
    },
    {
      "stateMutability": "payable",
      "type": "receive"
    }
  ],
  "bytecode": "0x608060405260ab806100105f395ff3fe6080604052600436106028575f3560e01c8063313ce567146032578063342db739146052575f80fd5b36602e57005b5f80fd5b348015603c575f80fd5b505f195b60405190815260200160405180910390f35b348015605c575f80fd5b5060406e1a185c991a185d0b595e1c1bdcd959608a1b8156fea26469706673582212201418cb4cd939835c58d47e843742f0e253dce215e3642e0e5c5499957d8a669164736f6c63430008140033",
  "linkReferences": {},
  "deployedLinkReferences": {}
}