{"abi":[{"type":"constructor","inputs":[{"name":"originalOwner","type":"address","internalType":"address"}],"stateMutability":"nonpayable"},{"type":"function","name":"isValidSignature","inputs":[{"name":"hash","type":"bytes32","internalType":"bytes32"},{"name":"signature","type":"bytes","internalType":"bytes"}],"outputs":[{"name":"magicValue","type":"bytes4","internalType":"bytes4"}],"stateMutability":"view"},{"type":"function","name":"owner","inputs":[],"outputs":[{"name":"","type":"address","internalType":"address"}],"stateMutability":"view"},{"type":"function","name":"renounceOwnership","inputs":[],"outputs":[],"stateMutability":"nonpayable"},{"type":"function","name":"transferOwnership","inputs":[{"name":"newOwner","type":"address","internalType":"address"}],"outputs":[],"stateMutability":"nonpayable"},{"type":"event","name":"OwnershipTransferred","inputs":[{"name":"previousOwner","type":"address","indexed":true,"internalType":"address"},{"name":"newOwner","type":"address","indexed":true,"internalType":"address"}],"anonymous":false},{"type":"error","name":"ECDSAInvalidSignature","inputs":[]},{"type":"error","name":"ECDSAInvalidSignatureLength","inputs":[{"name":"length","type":"uint256","internalType":"uint256"}]},{"type":"error","name":"ECDSAInvalidSignatureS","inputs":[{"name":"s","type":"bytes32","internalType":"bytes32"}]},{"type":"error","name":"OwnableInvalidOwner","inputs":[{"name":"owner","type":"address","internalType":"address"}]},{"type":"error","name":"OwnableUnauthorizedAccount","inputs":[{"name":"account","type":"address","internalType":"address"}]}],"bytecode":{"object":"0x6080604052348015600f57600080fd5b506040516105e23803806105e2833981016040819052602c91608a565b80603481603a565b505060b8565b600080546001600160a01b038381166001600160a01b0319831681178455604051919092169283917f8be0079c531659141344cd1fd0a4f28419497f9722a3daafe3b4186f6b6457e09190a35050565b600060208284031215609b57600080fd5b81516001600160a01b038116811460b157600080fd5b9392505050565b61051b806100c76000396000f3fe608060405234801561001057600080fd5b506004361061004c5760003560e01c80631626ba7e14610051578063715018a6146100825780638da5cb5b1461008c578063f2fde38b146100a7575b600080fd5b61006461005f3660046103e3565b6100ba565b6040516001600160e01b031990911681526020015b60405180910390f35b61008a6100f6565b005b6000546040516001600160a01b039091168152602001610079565b61008a6100b53660046104a6565b61010a565b600080546001600160a01b03166100d1848461014d565b6001600160a01b0316146100e65760006100ef565b630b135d3f60e11b5b9392505050565b6100fe610177565b61010860006101a4565b565b610112610177565b6001600160a01b03811661014157604051631e4fbdf760e01b8152600060048201526024015b60405180910390fd5b61014a816101a4565b50565b60008060008061015d86866101f4565b92509250925061016d8282610241565b5090949350505050565b6000546001600160a01b031633146101085760405163118cdaa760e01b8152336004820152602401610138565b600080546001600160a01b038381166001600160a01b0319831681178455604051919092169283917f8be0079c531659141344cd1fd0a4f28419497f9722a3daafe3b4186f6b6457e09190a35050565b6000806000835160410361022e5760208401516040850151606086015160001a610220888285856102fe565b95509550955050505061023a565b50508151600091506002905b9250925092565b6000826003811115610255576102556104cf565b0361025e575050565b6001826003811115610272576102726104cf565b036102905760405163f645eedf60e01b815260040160405180910390fd5b60028260038111156102a4576102a46104cf565b036102c55760405163fce698f760e01b815260048101829052602401610138565b60038260038111156102d9576102d96104cf565b036102fa576040516335e2f38360e21b815260048101829052602401610138565b5050565b600080807f7fffffffffffffffffffffffffffffff5d576e7357a4501ddfe92f46681b20a084111561033957506000915060039050826103c3565b604080516000808252602082018084528a905260ff891692820192909252606081018790526080810186905260019060a0016020604051602081039080840390855afa15801561038d573d6000803e3d6000fd5b5050604051601f1901519150506001600160a01b0381166103b9575060009250600191508290506103c3565b9250600091508190505b9450945094915050565b634e487b7160e01b600052604160045260246000fd5b600080604083850312156103f657600080fd5b82359150602083013567ffffffffffffffff81111561041457600080fd5b8301601f8101851361042557600080fd5b803567ffffffffffffffff81111561043f5761043f6103cd565b604051601f8201601f19908116603f0116810167ffffffffffffffff8111828210171561046e5761046e6103cd565b60405281815282820160200187101561048657600080fd5b816020840160208301376000602083830101528093505050509250929050565b6000602082840312156104b857600080fd5b81356001600160a01b03811681146100ef57600080fd5b634e487b7160e01b600052602160045260246000fdfea2646970667358221220cb8a34aabc4506725af4db2dd178c8ee55938bb2d12d3cb22fb3dc5d00a48c3964736f6c634300081b0033","linkReferences":{}},"methodIdentifiers":{"isValidSignature(bytes32,bytes)":"1626ba7e","owner()":"8da5cb5b","renounceOwnership()":"715018a6","transferOwnership(address)":"f2fde38b"},"id":66}