{"abi":[{"type":"function","name":"isValidSignature","inputs":[{"name":"","type":"bytes32","internalType":"bytes32"},{"name":"","type":"bytes","internalType":"bytes"}],"outputs":[{"name":"","type":"bytes4","internalType":"bytes4"}],"stateMutability":"pure"}],"bytecode":{"object":"0x6080604052348015600f57600080fd5b5061017c8061001f6000396000f3fe608060405234801561001057600080fd5b506004361061002b5760003560e01c80631626ba7e14610030575b600080fd5b61004361003e366004610083565b610060565b6040516001600160e01b0319909116815260200160405180910390f35b6000801960005260206000f35b634e487b7160e01b600052604160045260246000fd5b6000806040838503121561009657600080fd5b82359150602083013567ffffffffffffffff8111156100b457600080fd5b8301601f810185136100c557600080fd5b803567ffffffffffffffff8111156100df576100df61006d565b604051601f8201601f19908116603f0116810167ffffffffffffffff8111828210171561010e5761010e61006d565b60405281815282820160200187101561012657600080fd5b81602084016020830137600060208383010152809350505050925092905056fea264697066735822122078cd60091697e1d9127d9fbdee406d19cee55cdfb4f7643ce3f714e27d535b6c64736f6c634300081b0033","linkReferences":{}},"methodIdentifiers":{"isValidSignature(bytes32,bytes)":"1626ba7e"},"id":66}