{
  "_format": "hh-sol-artifact-1",
  "contractName": "ERC2771Forwarder",
  "sourceName": "contracts/metatx/ERC2771Forwarder.sol",
  "abi": [
    {
      "inputs": [
        {
          "internalType": "string",
          "name": "name",
          "type": "string"
        }
      ],
      "stateMutability": "nonpayable",
      "type": "constructor"
    },
    {
      "inputs": [
        {
          "internalType": "address",
          "name": "account",
          "type": "address"
        }
      ],
      "name": "AddressInsufficientBalance",
      "type": "error"
    },
    {
      "inputs": [],
      "name": "ECDSAInvalidSignature",
      "type": "error"
    },
    {
      "inputs": [
        {
          "internalType": "uint256",
          "name": "length",
          "type": "uint256"
        }
      ],
      "name": "ECDSAInvalidSignatureLength",
      "type": "error"
    },
    {
      "inputs": [
        {
          "internalType": "bytes32",
          "name": "s",
          "type": "bytes32"
        }
      ],
      "name": "ECDSAInvalidSignatureS",
      "type": "error"
    },
    {
      "inputs": [
        {
          "internalType": "uint48",
          "name": "deadline",
          "type": "uint48"
        }
      ],
      "name": "ERC2771ForwarderExpiredRequest",
      "type": "error"
    },
    {
      "inputs": [
        {
          "internalType": "address",
          "name": "signer",
          "type": "address"
        },
        {
          "internalType": "address",
          "name": "from",
          "type": "address"
        }
      ],
      "name": "ERC2771ForwarderInvalidSigner",
      "type": "error"
    },
    {
      "inputs": [
        {
          "internalType": "uint256",
          "name": "requestedValue",
          "type": "uint256"
        },
        {
          "internalType": "uint256",
          "name": "msgValue",
          "type": "uint256"
        }
      ],
      "name": "ERC2771ForwarderMismatchedValue",
      "type": "error"
    },
    {
      "inputs": [],
      "name": "FailedInnerCall",
      "type": "error"
    },
    {
      "inputs": [
        {
          "internalType": "address",
          "name": "account",
          "type": "address"
        },
        {
          "internalType": "uint256",
          "name": "currentNonce",
          "type": "uint256"
        }
      ],
      "name": "InvalidAccountNonce",
      "type": "error"
    },
    {
      "inputs": [],
      "name": "InvalidShortString",
      "type": "error"
    },
    {
      "inputs": [
        {
          "internalType": "string",
          "name": "str",
          "type": "string"
        }
      ],
      "name": "StringTooLong",
      "type": "error"
    },
    {
      "anonymous": false,
      "inputs": [],
      "name": "EIP712DomainChanged",
      "type": "event"
    },
    {
      "anonymous": false,
      "inputs": [
        {
          "indexed": true,
          "internalType": "address",
          "name": "signer",
          "type": "address"
        },
        {
          "indexed": false,
          "internalType": "uint256",
          "name": "nonce",
          "type": "uint256"
        },
        {
          "indexed": false,
          "internalType": "bool",
          "name": "success",
          "type": "bool"
        }
      ],
      "name": "ExecutedForwardRequest",
      "type": "event"
    },
    {
      "inputs": [],
      "name": "eip712Domain",
      "outputs": [
        {
          "internalType": "bytes1",
          "name": "fields",
          "type": "bytes1"
        },
        {
          "internalType": "string",
          "name": "name",
          "type": "string"
        },
        {
          "internalType": "string",
          "name": "version",
          "type": "string"
        },
        {
          "internalType": "uint256",
          "name": "chainId",
          "type": "uint256"
        },
        {
          "internalType": "address",
          "name": "verifyingContract",
          "type": "address"
        },
        {
          "internalType": "bytes32",
          "name": "salt",
          "type": "bytes32"
        },
        {
          "internalType": "uint256[]",
          "name": "extensions",
          "type": "uint256[]"
        }
      ],
      "stateMutability": "view",
      "type": "function"
    },
    {
      "inputs": [
        {
          "components": [
            {
              "internalType": "address",
              "name": "from",
              "type": "address"
            },
            {
              "internalType": "address",
              "name": "to",
              "type": "address"
            },
            {
              "internalType": "uint256",
              "name": "value",
              "type": "uint256"
            },
            {
              "internalType": "uint256",
              "name": "gas",
              "type": "uint256"
            },
            {
              "internalType": "uint48",
              "name": "deadline",
              "type": "uint48"
            },
            {
              "internalType": "bytes",
              "name": "data",
              "type": "bytes"
            },
            {
              "internalType": "bytes",
              "name": "signature",
              "type": "bytes"
            }
          ],
          "internalType": "struct ERC2771Forwarder.ForwardRequestData",
          "name": "request",
          "type": "tuple"
        }
      ],
      "name": "execute",
      "outputs": [],
      "stateMutability": "payable",
      "type": "function"
    },
    {
      "inputs": [
        {
          "components": [
            {
              "internalType": "address",
              "name": "from",
              "type": "address"
            },
            {
              "internalType": "address",
              "name": "to",
              "type": "address"
            },
            {
              "internalType": "uint256",
              "name": "value",
              "type": "uint256"
            },
            {
              "internalType": "uint256",
              "name": "gas",
              "type": "uint256"
            },
            {
              "internalType": "uint48",
              "name": "deadline",
              "type": "uint48"
            },
            {
              "internalType": "bytes",
              "name": "data",
              "type": "bytes"
            },
            {
              "internalType": "bytes",
              "name": "signature",
              "type": "bytes"
            }
          ],
          "internalType": "struct ERC2771Forwarder.ForwardRequestData[]",
          "name": "requests",
          "type": "tuple[]"
        },
        {
          "internalType": "address payable",
          "name": "refundReceiver",
          "type": "address"
        }
      ],
      "name": "executeBatch",
      "outputs": [],
      "stateMutability": "payable",
      "type": "function"
    },
    {
      "inputs": [
        {
          "internalType": "address",
          "name": "owner",
          "type": "address"
        }
      ],
      "name": "nonces",
      "outputs": [
        {
          "internalType": "uint256",
          "name": "",
          "type": "uint256"
        }
      ],
      "stateMutability": "view",
      "type": "function"
    },
    {
      "inputs": [
        {
          "components": [
            {
              "internalType": "address",
              "name": "from",
              "type": "address"
            },
            {
              "internalType": "address",
              "name": "to",
              "type": "address"
            },
            {
              "internalType": "uint256",
              "name": "value",
              "type": "uint256"
            },
            {
              "internalType": "uint256",
              "name": "gas",
              "type": "uint256"
            },
            {
              "internalType": "uint48",
              "name": "deadline",
              "type": "uint48"
            },
            {
              "internalType": "bytes",
              "name": "data",
              "type": "bytes"
            },
            {
              "internalType": "bytes",
              "name": "signature",
              "type": "bytes"
            }
          ],
          "internalType": "struct ERC2771Forwarder.ForwardRequestData",
          "name": "request",
          "type": "tuple"
        }
      ],
      "name": "verify",
      "outputs": [
        {
          "internalType": "bool",
          "name": "",
          "type": "bool"
        }
      ],
      "stateMutability": "view",
      "type": "function"
    }
  ],
  "bytecode": "0x61016060405234801562000011575f80fd5b50604051620013b7380380620013b78339810160408190526200003491620001c3565b6040805180820190915260018152603160f81b602082015281906200005a825f62000108565b610120526200006b81600162000108565b61014052815160208084019190912060e052815190820120610100524660a052620000f860e05161010051604080517f8b73c3c69bb8fe3d512ecc4cf759cc79239f7b179b0ffacaa9a75d522b39400f60208201529081019290925260608201524660808201523060a08201525f9060c00160405160208183030381529060405280519060200120905090565b60805250503060c0525062000422565b5f60208351101562000127576200011f8362000140565b90506200013a565b8162000134848262000302565b5060ff90505b92915050565b5f80829050601f8151111562000176578260405163305a27a960e01b81526004016200016d9190620003ca565b60405180910390fd5b80516200018382620003fe565b179392505050565b634e487b7160e01b5f52604160045260245ffd5b5f5b83811015620001bb578181015183820152602001620001a1565b50505f910152565b5f60208284031215620001d4575f80fd5b81516001600160401b0380821115620001eb575f80fd5b818401915084601f830112620001ff575f80fd5b8151818111156200021457620002146200018b565b604051601f8201601f19908116603f011681019083821181831017156200023f576200023f6200018b565b8160405282815287602084870101111562000258575f80fd5b6200026b8360208301602088016200019f565b979650505050505050565b600181811c908216806200028b57607f821691505b602082108103620002aa57634e487b7160e01b5f52602260045260245ffd5b50919050565b601f821115620002fd575f81815260208120601f850160051c81016020861015620002d85750805b601f850160051c820191505b81811015620002f957828155600101620002e4565b5050505b505050565b81516001600160401b038111156200031e576200031e6200018b565b62000336816200032f845462000276565b84620002b0565b602080601f8311600181146200036c575f8415620003545750858301515b5f19600386901b1c1916600185901b178555620002f9565b5f85815260208120601f198616915b828110156200039c578886015182559484019460019091019084016200037b565b5085821015620003ba57878501515f19600388901b60f8161c191681555b5050505050600190811b01905550565b602081525f8251806020840152620003ea8160408501602087016200019f565b601f01601f19169190910160400192915050565b80516020808301519190811015620002aa575f1960209190910360031b1b16919050565b60805160a05160c05160e051610100516101205161014051610f43620004745f395f61036c01525f61033b01525f61096f01525f61094701525f6108a201525f6108cc01525f6108f60152610f435ff3fe608060405260043610610049575f3560e01c806319d8d38c1461004d5780637ecebe001461008157806384b0196e146100c3578063ccf96b4a146100ea578063df905caf146100ff575b5f80fd5b348015610058575f80fd5b5061006c610067366004610baf565b610112565b60405190151581526020015b60405180910390f35b34801561008c575f80fd5b506100b561009b366004610c01565b6001600160a01b03165f9081526002602052604090205490565b604051908152602001610078565b3480156100ce575f80fd5b506100d7610135565b6040516100789796959493929190610c69565b6100fd6100f8366004610cfd565b610177565b005b6100fd61010d366004610baf565b610284565b5f805f61011e846102df565b509150915081801561012d5750805b949350505050565b5f6060805f805f6060610146610334565b61014e610365565b604080515f80825260208201909252600f60f81b9b939a50919850469750309650945092509050565b6001600160a01b038116155f80805b8581101561023d578686828181106101a0576101a0610d7c565b90506020028101906101b29190610d90565b6101c0906040013584610dc2565b92505f6101f08888848181106101d8576101d8610d7c565b90506020028101906101ea9190610d90565b86610392565b90508061022c5787878381811061020957610209610d7c565b905060200281019061021b9190610d90565b610229906040013584610dc2565b92505b5061023681610dd5565b9050610186565b5034821461026c576040516370647f7960e01b8152600481018390523460248201526044015b60405180910390fd5b801561027c5761027c848261055d565b505050505050565b806040013534146102b457604080516370647f7960e01b8152908201356004820152346024820152604401610263565b6102bf816001610392565b6102dc57604051630a12f52160e11b815260040160405180910390fd5b50565b5f805f6102eb846105f5565b9050426102fe60a0860160808701610ded565b65ffffffffffff1610156103156020860186610c01565b6001600160a01b0316826001600160a01b031614925092509193909250565b60606103607f00000000000000000000000000000000000000000000000000000000000000005f61073f565b905090565b60606103607f0000000000000000000000000000000000000000000000000000000000000000600161073f565b5f805f8061039f866102df565b925092509250841561042357826103e4576103c060a0870160808801610ded565b604051634a777ac560e11b815265ffffffffffff9091166004820152602401610263565b8161042357806103f76020880188610c01565b604051636422d02b60e11b81526001600160a01b03928316600482015291166024820152604401610263565b81801561042d5750825b15610554576001600160a01b0381165f90815260026020526040812080546001810190915590506104646040880160208901610c01565b6001600160a01b03166060880135604089013561048460a08b018b610e12565b61049160208d018d610c01565b6040516020016104a393929190610e5c565b60408051601f19818403018152908290526104bd91610e82565b5f60405180830381858888f193505050503d805f81146104f8576040519150601f19603f3d011682016040523d82523d5f602084013e6104fd565b606091505b50508095505061050d5a886107e9565b6040805182815286151560208201526001600160a01b038416917f842fb24a83793558587a3dab2be7674da4a51d09c5542d6dd354e5d0ea70813c910160405180910390a2505b50505092915050565b804710156105805760405163cd78605960e01b8152306004820152602401610263565b5f826001600160a01b0316826040515f6040518083038185875af1925050503d805f81146105c9576040519150601f19603f3d011682016040523d82523d5f602084013e6105ce565b606091505b50509050806105f057604051630a12f52160e11b815260040160405180910390fd5b505050565b5f61073961060660c0840184610e12565b8080601f0160208091040260200160405190810160405280939291908181526020018383808284375f9201919091525061073392507f7f96328b83274ebc7c1cf4f7a3abda602b51a78b7fa1d86a2ce353d75e587cac915061066d90506020870187610c01565b61067d6040880160208901610c01565b6040880135606089013561069761009b60208c018c610c01565b6106a760a08c0160808d01610ded565b6106b460a08d018d610e12565b6040516106c2929190610e93565b6040805191829003822060208301999099526001600160a01b0397881690820152959094166060860152608085019290925260a084015260c083015265ffffffffffff1660e08201526101008101919091526101200160405160208183030381529060405280519060200120610805565b90610831565b92915050565b606060ff83146107595761075283610859565b9050610739565b81805461076590610ea2565b80601f016020809104026020016040519081016040528092919081815260200182805461079190610ea2565b80156107dc5780601f106107b3576101008083540402835291602001916107dc565b820191905f5260205f20905b8154815290600101906020018083116107bf57829003601f168201915b5050505050905092915050565b6107f8603f6060830135610eda565b82101561080157fe5b5050565b5f610739610811610896565b8360405161190160f01b8152600281019290925260228201526042902090565b5f805f8061083f86866109bf565b92509250925061084f8282610a08565b5090949350505050565b60605f61086583610ac0565b6040805160208082528183019092529192505f91906020820181803683375050509182525060208101929092525090565b5f306001600160a01b037f0000000000000000000000000000000000000000000000000000000000000000161480156108ee57507f000000000000000000000000000000000000000000000000000000000000000046145b1561091857507f000000000000000000000000000000000000000000000000000000000000000090565b610360604080517f8b73c3c69bb8fe3d512ecc4cf759cc79239f7b179b0ffacaa9a75d522b39400f60208201527f0000000000000000000000000000000000000000000000000000000000000000918101919091527f000000000000000000000000000000000000000000000000000000000000000060608201524660808201523060a08201525f9060c00160405160208183030381529060405280519060200120905090565b5f805f83516041036109f6576020840151604085015160608601515f1a6109e888828585610ae7565b955095509550505050610a01565b505081515f91506002905b9250925092565b5f826003811115610a1b57610a1b610ef9565b03610a24575050565b6001826003811115610a3857610a38610ef9565b03610a565760405163f645eedf60e01b815260040160405180910390fd5b6002826003811115610a6a57610a6a610ef9565b03610a8b5760405163fce698f760e01b815260048101829052602401610263565b6003826003811115610a9f57610a9f610ef9565b03610801576040516335e2f38360e21b815260048101829052602401610263565b5f60ff8216601f81111561073957604051632cd44ac360e21b815260040160405180910390fd5b5f80807f7fffffffffffffffffffffffffffffff5d576e7357a4501ddfe92f46681b20a0841115610b2057505f91506003905082610ba5565b604080515f808252602082018084528a905260ff891692820192909252606081018790526080810186905260019060a0016020604051602081039080840390855afa158015610b71573d5f803e3d5ffd5b5050604051601f1901519150506001600160a01b038116610b9c57505f925060019150829050610ba5565b92505f91508190505b9450945094915050565b5f60208284031215610bbf575f80fd5b813567ffffffffffffffff811115610bd5575f80fd5b820160e08185031215610be6575f80fd5b9392505050565b6001600160a01b03811681146102dc575f80fd5b5f60208284031215610c11575f80fd5b8135610be681610bed565b5f5b83811015610c36578181015183820152602001610c1e565b50505f910152565b5f8151808452610c55816020860160208601610c1c565b601f01601f19169290920160200192915050565b60ff60f81b881681525f602060e081840152610c8860e084018a610c3e565b8381036040850152610c9a818a610c3e565b606085018990526001600160a01b038816608086015260a0850187905284810360c086015285518082528387019250908301905f5b81811015610ceb57835183529284019291840191600101610ccf565b50909c9b505050505050505050505050565b5f805f60408486031215610d0f575f80fd5b833567ffffffffffffffff80821115610d26575f80fd5b818601915086601f830112610d39575f80fd5b813581811115610d47575f80fd5b8760208260051b8501011115610d5b575f80fd5b60209283019550935050840135610d7181610bed565b809150509250925092565b634e487b7160e01b5f52603260045260245ffd5b5f823560de19833603018112610da4575f80fd5b9190910192915050565b634e487b7160e01b5f52601160045260245ffd5b8082018082111561073957610739610dae565b5f60018201610de657610de6610dae565b5060010190565b5f60208284031215610dfd575f80fd5b813565ffffffffffff81168114610be6575f80fd5b5f808335601e19843603018112610e27575f80fd5b83018035915067ffffffffffffffff821115610e41575f80fd5b602001915036819003821315610e55575f80fd5b9250929050565b8284823760609190911b6bffffffffffffffffffffffff19169101908152601401919050565b5f8251610da4818460208701610c1c565b818382375f9101908152919050565b600181811c90821680610eb657607f821691505b602082108103610ed457634e487b7160e01b5f52602260045260245ffd5b50919050565b5f82610ef457634e487b7160e01b5f52601260045260245ffd5b500490565b634e487b7160e01b5f52602160045260245ffdfea264697066735822122087e0086aac15feab26cf927a32663e4f99d912d3a8ab75bf2053adf4f63eb51c64736f6c63430008140033",
  "linkReferences": {},
  "deployedLinkReferences": {}
}