{
  "_format": "hh-sol-artifact-1",
  "contractName": "$Pausable",
  "sourceName": "contracts-exposed/security/Pausable.sol",
  "abi": [
    {
      "inputs": [],
      "stateMutability": "payable",
      "type": "constructor"
    },
    {
      "inputs": [],
      "name": "EnforcedPause",
      "type": "error"
    },
    {
      "inputs": [],
      "name": "ExpectedPause",
      "type": "error"
    },
    {
      "anonymous": false,
      "inputs": [
        {
          "indexed": false,
          "internalType": "address",
          "name": "account",
          "type": "address"
        }
      ],
      "name": "Paused",
      "type": "event"
    },
    {
      "anonymous": false,
      "inputs": [
        {
          "indexed": false,
          "internalType": "address",
          "name": "account",
          "type": "address"
        }
      ],
      "name": "Unpaused",
      "type": "event"
    },
    {
      "inputs": [],
      "name": "$_msgData",
      "outputs": [
        {
          "internalType": "bytes",
          "name": "ret0",
          "type": "bytes"
        }
      ],
      "stateMutability": "view",
      "type": "function"
    },
    {
      "inputs": [],
      "name": "$_msgSender",
      "outputs": [
        {
          "internalType": "address",
          "name": "ret0",
          "type": "address"
        }
      ],
      "stateMutability": "view",
      "type": "function"
    },
    {
      "inputs": [],
      "name": "$_pause",
      "outputs": [],
      "stateMutability": "nonpayable",
      "type": "function"
    },
    {
      "inputs": [],
      "name": "$_requireNotPaused",
      "outputs": [],
      "stateMutability": "view",
      "type": "function"
    },
    {
      "inputs": [],
      "name": "$_requirePaused",
      "outputs": [],
      "stateMutability": "view",
      "type": "function"
    },
    {
      "inputs": [],
      "name": "$_unpause",
      "outputs": [],
      "stateMutability": "nonpayable",
      "type": "function"
    },
    {
      "inputs": [],
      "name": "__hh_exposed_bytecode_marker",
      "outputs": [
        {
          "internalType": "bytes32",
          "name": "",
          "type": "bytes32"
        }
      ],
      "stateMutability": "view",
      "type": "function"
    },
    {
      "inputs": [],
      "name": "paused",
      "outputs": [
        {
          "internalType": "bool",
          "name": "",
          "type": "bool"
        }
      ],
      "stateMutability": "view",
      "type": "function"
    },
    {
      "stateMutability": "payable",
      "type": "receive"
    }
  ],
  "bytecode": "0x60806040525f805460ff1916905561031f8061001a5f395ff3fe60806040526004361061007c575f3560e01c80635c975abb1161004c5780635c975abb146101105780638381224114610131578063b0a1fefa14610145578063f85810a714610159575f80fd5b80632904df29146100875780632c85c6e2146100a657806332cadf3c146100bc578063342db739146100dd575f80fd5b3661008357005b5f80fd5b348015610092575f80fd5b506040513381526020015b60405180910390f35b3480156100b1575f80fd5b506100ba61016d565b005b3480156100c7575f80fd5b506100d0610177565b60405161009d919061029e565b3480156100e8575f80fd5b506101026e1a185c991a185d0b595e1c1bdcd959608a1b81565b60405190815260200161009d565b34801561011b575f80fd5b505f5460ff16604051901515815260200161009d565b34801561013c575f80fd5b506100ba6101b4565b348015610150575f80fd5b506100ba6101bc565b348015610164575f80fd5b506100ba6101c4565b6101756101cc565b565b60605f368080601f0160208091040260200160405190810160405280939291908181526020018383808284375f9201919091525092949350505050565b6101756101ef565b610175610211565b610175610262565b5f5460ff16156101755760405163d93c066560e01b815260040160405180910390fd5b5f5460ff1661017557604051638dfc202b60e01b815260040160405180910390fd5b6102196101ef565b5f805460ff191690557f5db9ee0a495bf2e6ff9c91a7834c1ba4fdd244a5e8aa4e537bd38aeae4b073aa335b6040516001600160a01b03909116815260200160405180910390a1565b61026a6101cc565b5f805460ff191660011790557f62e78cea01bee320cd4e420270b5ea74000d11b0c9f74754ebdbfc544b05a2586102453390565b5f6020808352835180828501525f5b818110156102c9578581018301518582016040015282016102ad565b505f604082860101526040601f19601f830116850101925050509291505056fea26469706673582212207472d7c93b8ffd859e3d89c4c9bb83e9c8143c8f0ec2c2f48d82110358843be364736f6c63430008140033",
  "linkReferences": {},
  "deployedLinkReferences": {}
}