{
  "_format": "hh-sol-artifact-1",
  "contractName": "$MerkleProof",
  "sourceName": "contracts-exposed/utils/cryptography/MerkleProof.sol",
  "abi": [
    {
      "inputs": [],
      "stateMutability": "payable",
      "type": "constructor"
    },
    {
      "inputs": [],
      "name": "MerkleProofInvalidMultiproof",
      "type": "error"
    },
    {
      "inputs": [
        {
          "internalType": "bytes32[]",
          "name": "proof",
          "type": "bytes32[]"
        },
        {
          "internalType": "bool[]",
          "name": "proofFlags",
          "type": "bool[]"
        },
        {
          "internalType": "bytes32",
          "name": "root",
          "type": "bytes32"
        },
        {
          "internalType": "bytes32[]",
          "name": "leaves",
          "type": "bytes32[]"
        }
      ],
      "name": "$multiProofVerify",
      "outputs": [
        {
          "internalType": "bool",
          "name": "ret0",
          "type": "bool"
        }
      ],
      "stateMutability": "pure",
      "type": "function"
    },
    {
      "inputs": [
        {
          "internalType": "bytes32[]",
          "name": "proof",
          "type": "bytes32[]"
        },
        {
          "internalType": "bool[]",
          "name": "proofFlags",
          "type": "bool[]"
        },
        {
          "internalType": "bytes32",
          "name": "root",
          "type": "bytes32"
        },
        {
          "internalType": "bytes32[]",
          "name": "leaves",
          "type": "bytes32[]"
        }
      ],
      "name": "$multiProofVerifyCalldata",
      "outputs": [
        {
          "internalType": "bool",
          "name": "ret0",
          "type": "bool"
        }
      ],
      "stateMutability": "pure",
      "type": "function"
    },
    {
      "inputs": [
        {
          "internalType": "bytes32[]",
          "name": "proof",
          "type": "bytes32[]"
        },
        {
          "internalType": "bool[]",
          "name": "proofFlags",
          "type": "bool[]"
        },
        {
          "internalType": "bytes32[]",
          "name": "leaves",
          "type": "bytes32[]"
        }
      ],
      "name": "$processMultiProof",
      "outputs": [
        {
          "internalType": "bytes32",
          "name": "merkleRoot",
          "type": "bytes32"
        }
      ],
      "stateMutability": "pure",
      "type": "function"
    },
    {
      "inputs": [
        {
          "internalType": "bytes32[]",
          "name": "proof",
          "type": "bytes32[]"
        },
        {
          "internalType": "bool[]",
          "name": "proofFlags",
          "type": "bool[]"
        },
        {
          "internalType": "bytes32[]",
          "name": "leaves",
          "type": "bytes32[]"
        }
      ],
      "name": "$processMultiProofCalldata",
      "outputs": [
        {
          "internalType": "bytes32",
          "name": "merkleRoot",
          "type": "bytes32"
        }
      ],
      "stateMutability": "pure",
      "type": "function"
    },
    {
      "inputs": [
        {
          "internalType": "bytes32[]",
          "name": "proof",
          "type": "bytes32[]"
        },
        {
          "internalType": "bytes32",
          "name": "leaf",
          "type": "bytes32"
        }
      ],
      "name": "$processProof",
      "outputs": [
        {
          "internalType": "bytes32",
          "name": "ret0",
          "type": "bytes32"
        }
      ],
      "stateMutability": "pure",
      "type": "function"
    },
    {
      "inputs": [
        {
          "internalType": "bytes32[]",
          "name": "proof",
          "type": "bytes32[]"
        },
        {
          "internalType": "bytes32",
          "name": "leaf",
          "type": "bytes32"
        }
      ],
      "name": "$processProofCalldata",
      "outputs": [
        {
          "internalType": "bytes32",
          "name": "ret0",
          "type": "bytes32"
        }
      ],
      "stateMutability": "pure",
      "type": "function"
    },
    {
      "inputs": [
        {
          "internalType": "bytes32[]",
          "name": "proof",
          "type": "bytes32[]"
        },
        {
          "internalType": "bytes32",
          "name": "root",
          "type": "bytes32"
        },
        {
          "internalType": "bytes32",
          "name": "leaf",
          "type": "bytes32"
        }
      ],
      "name": "$verify",
      "outputs": [
        {
          "internalType": "bool",
          "name": "ret0",
          "type": "bool"
        }
      ],
      "stateMutability": "pure",
      "type": "function"
    },
    {
      "inputs": [
        {
          "internalType": "bytes32[]",
          "name": "proof",
          "type": "bytes32[]"
        },
        {
          "internalType": "bytes32",
          "name": "root",
          "type": "bytes32"
        },
        {
          "internalType": "bytes32",
          "name": "leaf",
          "type": "bytes32"
        }
      ],
      "name": "$verifyCalldata",
      "outputs": [
        {
          "internalType": "bool",
          "name": "ret0",
          "type": "bool"
        }
      ],
      "stateMutability": "pure",
      "type": "function"
    },
    {
      "inputs": [],
      "name": "__hh_exposed_bytecode_marker",
      "outputs": [
        {
          "internalType": "bytes32",
          "name": "",
          "type": "bytes32"
        }
      ],
      "stateMutability": "view",
      "type": "function"
    },
    {
      "stateMutability": "payable",
      "type": "receive"
    }
  ],
  "bytecode": "0x6080604052610ce7806100115f395ff3fe608060405260043610610087575f3560e01c80635dd795fe116100575780635dd795fe14610137578063891557e0146101565780638f2ab10214610175578063de21bc2d14610194578063e11ea3d2146101b3575f80fd5b8063342db739146100925780633a199f31146100ca57806347c656c4146100e95780635205863c14610118575f80fd5b3661008e57005b5f80fd5b34801561009d575f80fd5b506100b76e1a185c991a185d0b595e1c1bdcd959608a1b81565b6040519081526020015b60405180910390f35b3480156100d5575f80fd5b506100b76100e4366004610a54565b6101d2565b3480156100f4575f80fd5b50610108610103366004610ae7565b610279565b60405190151581526020016100c1565b348015610123575f80fd5b506100b7610132366004610a54565b6102c6565b348015610142575f80fd5b50610108610151366004610ae7565b610306565b348015610161575f80fd5b50610108610170366004610b83565b6103a5565b348015610180575f80fd5b506100b761018f366004610bd0565b6103ee565b34801561019f575f80fd5b506101086101ae366004610b83565b610402565b3480156101be575f80fd5b506100b76101cd366004610bd0565b61040f565b5f61026e8787808060200260200160405190810160405280939291908181526020018383602002808284375f9201919091525050604080516020808b0282810182019093528a82529093508a9250899182918501908490808284375f9201919091525050604080516020808a028281018201909352898252909350899250889182918501908490808284375f9201919091525061044d92505050565b979650505050505050565b5f6102ba88888888888888808060200260200160405190810160405280939291908181526020018383602002808284375f9201919091525061068e92505050565b98975050505050505050565b5f61026e878787878787808060200260200160405190810160405280939291908181526020018383602002808284375f920191909152506106a992505050565b5f6102ba8888808060200260200160405190810160405280939291908181526020018383602002808284375f9201919091525050604080516020808c0282810182019093528b82529093508b92508a9182918501908490808284375f9201919091525050604080516020808a0282810182019093528982528b9450909250899189918291908501908490808284375f9201919091525061091192505050565b5f6103e58585808060200260200160405190810160405280939291908181526020018383602002808284375f920191909152508792508691506109289050565b95945050505050565b5f6103fa84848461093d565b949350505050565b5f6103e585858585610988565b5f6103fa8484808060200260200160405190810160405280939291908181526020018383602002808284375f92019190915250869250610995915050565b8051835183515f9291908060016104648486610c2c565b61046e9190610c3f565b1461048c57604051631a8a024960e11b815260040160405180910390fd5b5f8167ffffffffffffffff8111156104a6576104a6610c52565b6040519080825280602002602001820160405280156104cf578160200160208202803683370190505b5090505f805f805b8581101561060b575f8885106105115785846104f281610c66565b95508151811061050457610504610c7e565b6020026020010151610537565b8a8561051c81610c66565b96508151811061052e5761052e610c7e565b60200260200101515b90505f8c838151811061054c5761054c610c7e565b6020026020010151610582578d8461056381610c66565b95508151811061057557610575610c7e565b60200260200101516105cc565b8986106105a657868561059481610c66565b96508151811061057557610575610c7e565b8b866105b181610c66565b9750815181106105c3576105c3610c7e565b60200260200101515b90506105d882826109e3565b8784815181106105ea576105ea610c7e565b6020026020010181815250505050808061060390610c66565b9150506104d7565b50841561065d5785811461063257604051631a8a024960e11b815260040160405180910390fd5b83600186038151811061064757610647610c7e565b6020026020010151975050505050505050610687565b861561067557885f8151811061064757610647610c7e565b8a5f8151811061064757610647610c7e565b9392505050565b5f8261069d88888888876106a9565b14979650505050505050565b80515f9085848060016106bc8486610c2c565b6106c69190610c3f565b146106e457604051631a8a024960e11b815260040160405180910390fd5b5f8167ffffffffffffffff8111156106fe576106fe610c52565b604051908082528060200260200182016040528015610727578160200160208202803683370190505b5090505f805f805b8581101561087c575f88851061076957858461074a81610c66565b95508151811061075c5761075c610c7e565b602002602001015161078f565b8a8561077481610c66565b96508151811061078657610786610c7e565b60200260200101515b90505f8d8d848181106107a4576107a4610c7e565b90506020020160208101906107b99190610c92565b6107e6578f8f856107c981610c66565b96508181106107da576107da610c7e565b9050602002013561083d565b8986106108175786856107f881610c66565b96508151811061080a5761080a610c7e565b602002602001015161083d565b8b8661082281610c66565b97508151811061083457610834610c7e565b60200260200101515b905061084982826109e3565b87848151811061085b5761085b610c7e565b6020026020010181815250505050808061087490610c66565b91505061072f565b5084156108ce578581146108a357604051631a8a024960e11b815260040160405180910390fd5b8360018603815181106108b8576108b8610c7e565b60200260200101519750505050505050506103e5565b86156108e657885f815181106108b8576108b8610c7e565b8c8c5f8181106108f8576108f8610c7e565b9050602002013597505050505050505095945050505050565b5f8261091e86868561044d565b1495945050505050565b5f826109348584610995565b14949350505050565b5f81815b8481101561097f5761096b8287878481811061095f5761095f610c7e565b905060200201356109e3565b91508061097781610c66565b915050610941565b50949350505050565b5f8261091e86868561093d565b5f81815b84518110156109d9576109c5828683815181106109b8576109b8610c7e565b60200260200101516109e3565b9150806109d181610c66565b915050610999565b5090505b92915050565b5f8183106109fd575f828152602084905260409020610687565b505f9182526020526040902090565b5f8083601f840112610a1c575f80fd5b50813567ffffffffffffffff811115610a33575f80fd5b6020830191508360208260051b8501011115610a4d575f80fd5b9250929050565b5f805f805f8060608789031215610a69575f80fd5b863567ffffffffffffffff80821115610a80575f80fd5b610a8c8a838b01610a0c565b90985096506020890135915080821115610aa4575f80fd5b610ab08a838b01610a0c565b90965094506040890135915080821115610ac8575f80fd5b50610ad589828a01610a0c565b979a9699509497509295939492505050565b5f805f805f805f6080888a031215610afd575f80fd5b873567ffffffffffffffff80821115610b14575f80fd5b610b208b838c01610a0c565b909950975060208a0135915080821115610b38575f80fd5b610b448b838c01610a0c565b909750955060408a0135945060608a0135915080821115610b63575f80fd5b50610b708a828b01610a0c565b989b979a50959850939692959293505050565b5f805f8060608587031215610b96575f80fd5b843567ffffffffffffffff811115610bac575f80fd5b610bb887828801610a0c565b90989097506020870135966040013595509350505050565b5f805f60408486031215610be2575f80fd5b833567ffffffffffffffff811115610bf8575f80fd5b610c0486828701610a0c565b909790965060209590950135949350505050565b634e487b7160e01b5f52601160045260245ffd5b808201808211156109dd576109dd610c18565b818103818111156109dd576109dd610c18565b634e487b7160e01b5f52604160045260245ffd5b5f60018201610c7757610c77610c18565b5060010190565b634e487b7160e01b5f52603260045260245ffd5b5f60208284031215610ca2575f80fd5b81358015158114610687575f80fdfea2646970667358221220e2dd3b34f45116c0d46d1faf7b74f542721d64b371a03ecdd9ed3ab9145590ed64736f6c63430008140033",
  "linkReferences": {},
  "deployedLinkReferences": {}
}