{"abi":[{"type":"function","name":"current","inputs":[],"outputs":[{"name":"","type":"uint256","internalType":"uint256"}],"stateMutability":"view"},{"type":"function","name":"increment","inputs":[],"outputs":[],"stateMutability":"nonpayable"}],"bytecode":{"object":"0x6080604052348015600f57600080fd5b5060c280601d6000396000f3fe6080604052348015600f57600080fd5b506004361060325760003560e01c80639fa6a6e3146037578063d09de08a14604c575b600080fd5b60005460405190815260200160405180910390f35b60526054565b005b60008081546060906066565b90915550565b600060018201608557634e487b7160e01b600052601160045260246000fd5b506001019056fea26469706673582212209d5eb100d198f7ca3e4788d53c826a695f299858db1755e347e90e76d179e8b264736f6c634300081b0033","linkReferences":{}},"methodIdentifiers":{"current()":"9fa6a6e3","increment()":"d09de08a"},"id":102}