{
  "_format": "hh-sol-artifact-1",
  "contractName": "$ERC20Permit",
  "sourceName": "contracts-exposed/token/ERC20/extensions/ERC20Permit.sol",
  "abi": [
    {
      "inputs": [
        {
          "internalType": "string",
          "name": "name_",
          "type": "string"
        },
        {
          "internalType": "string",
          "name": "symbol_",
          "type": "string"
        },
        {
          "internalType": "string",
          "name": "name",
          "type": "string"
        }
      ],
      "stateMutability": "payable",
      "type": "constructor"
    },
    {
      "inputs": [],
      "name": "ECDSAInvalidSignature",
      "type": "error"
    },
    {
      "inputs": [
        {
          "internalType": "uint256",
          "name": "length",
          "type": "uint256"
        }
      ],
      "name": "ECDSAInvalidSignatureLength",
      "type": "error"
    },
    {
      "inputs": [
        {
          "internalType": "bytes32",
          "name": "s",
          "type": "bytes32"
        }
      ],
      "name": "ECDSAInvalidSignatureS",
      "type": "error"
    },
    {
      "inputs": [
        {
          "internalType": "address",
          "name": "spender",
          "type": "address"
        },
        {
          "internalType": "uint256",
          "name": "currentAllowance",
          "type": "uint256"
        },
        {
          "internalType": "uint256",
          "name": "requestedDecrease",
          "type": "uint256"
        }
      ],
      "name": "ERC20FailedDecreaseAllowance",
      "type": "error"
    },
    {
      "inputs": [
        {
          "internalType": "address",
          "name": "spender",
          "type": "address"
        },
        {
          "internalType": "uint256",
          "name": "allowance",
          "type": "uint256"
        },
        {
          "internalType": "uint256",
          "name": "needed",
          "type": "uint256"
        }
      ],
      "name": "ERC20InsufficientAllowance",
      "type": "error"
    },
    {
      "inputs": [
        {
          "internalType": "address",
          "name": "sender",
          "type": "address"
        },
        {
          "internalType": "uint256",
          "name": "balance",
          "type": "uint256"
        },
        {
          "internalType": "uint256",
          "name": "needed",
          "type": "uint256"
        }
      ],
      "name": "ERC20InsufficientBalance",
      "type": "error"
    },
    {
      "inputs": [
        {
          "internalType": "address",
          "name": "approver",
          "type": "address"
        }
      ],
      "name": "ERC20InvalidApprover",
      "type": "error"
    },
    {
      "inputs": [
        {
          "internalType": "address",
          "name": "receiver",
          "type": "address"
        }
      ],
      "name": "ERC20InvalidReceiver",
      "type": "error"
    },
    {
      "inputs": [
        {
          "internalType": "address",
          "name": "sender",
          "type": "address"
        }
      ],
      "name": "ERC20InvalidSender",
      "type": "error"
    },
    {
      "inputs": [
        {
          "internalType": "address",
          "name": "spender",
          "type": "address"
        }
      ],
      "name": "ERC20InvalidSpender",
      "type": "error"
    },
    {
      "inputs": [
        {
          "internalType": "uint256",
          "name": "deadline",
          "type": "uint256"
        }
      ],
      "name": "ERC2612ExpiredSignature",
      "type": "error"
    },
    {
      "inputs": [
        {
          "internalType": "address",
          "name": "signer",
          "type": "address"
        },
        {
          "internalType": "address",
          "name": "owner",
          "type": "address"
        }
      ],
      "name": "ERC2612InvalidSigner",
      "type": "error"
    },
    {
      "inputs": [
        {
          "internalType": "address",
          "name": "account",
          "type": "address"
        },
        {
          "internalType": "uint256",
          "name": "currentNonce",
          "type": "uint256"
        }
      ],
      "name": "InvalidAccountNonce",
      "type": "error"
    },
    {
      "inputs": [],
      "name": "InvalidShortString",
      "type": "error"
    },
    {
      "inputs": [
        {
          "internalType": "string",
          "name": "str",
          "type": "string"
        }
      ],
      "name": "StringTooLong",
      "type": "error"
    },
    {
      "anonymous": false,
      "inputs": [
        {
          "indexed": true,
          "internalType": "address",
          "name": "owner",
          "type": "address"
        },
        {
          "indexed": true,
          "internalType": "address",
          "name": "spender",
          "type": "address"
        },
        {
          "indexed": false,
          "internalType": "uint256",
          "name": "value",
          "type": "uint256"
        }
      ],
      "name": "Approval",
      "type": "event"
    },
    {
      "anonymous": false,
      "inputs": [],
      "name": "EIP712DomainChanged",
      "type": "event"
    },
    {
      "anonymous": false,
      "inputs": [
        {
          "indexed": true,
          "internalType": "address",
          "name": "from",
          "type": "address"
        },
        {
          "indexed": true,
          "internalType": "address",
          "name": "to",
          "type": "address"
        },
        {
          "indexed": false,
          "internalType": "uint256",
          "name": "value",
          "type": "uint256"
        }
      ],
      "name": "Transfer",
      "type": "event"
    },
    {
      "anonymous": false,
      "inputs": [
        {
          "indexed": false,
          "internalType": "uint256",
          "name": "ret0",
          "type": "uint256"
        }
      ],
      "name": "return$_useCheckedNonce",
      "type": "event"
    },
    {
      "anonymous": false,
      "inputs": [
        {
          "indexed": false,
          "internalType": "uint256",
          "name": "ret0",
          "type": "uint256"
        }
      ],
      "name": "return$_useNonce",
      "type": "event"
    },
    {
      "inputs": [],
      "name": "$_EIP712Name",
      "outputs": [
        {
          "internalType": "string",
          "name": "ret0",
          "type": "string"
        }
      ],
      "stateMutability": "view",
      "type": "function"
    },
    {
      "inputs": [],
      "name": "$_EIP712Version",
      "outputs": [
        {
          "internalType": "string",
          "name": "ret0",
          "type": "string"
        }
      ],
      "stateMutability": "view",
      "type": "function"
    },
    {
      "inputs": [
        {
          "internalType": "address",
          "name": "owner",
          "type": "address"
        },
        {
          "internalType": "address",
          "name": "spender",
          "type": "address"
        },
        {
          "internalType": "uint256",
          "name": "value",
          "type": "uint256"
        },
        {
          "internalType": "bool",
          "name": "emitEvent",
          "type": "bool"
        }
      ],
      "name": "$_approve",
      "outputs": [],
      "stateMutability": "nonpayable",
      "type": "function"
    },
    {
      "inputs": [
        {
          "internalType": "address",
          "name": "owner",
          "type": "address"
        },
        {
          "internalType": "address",
          "name": "spender",
          "type": "address"
        },
        {
          "internalType": "uint256",
          "name": "value",
          "type": "uint256"
        }
      ],
      "name": "$_approve",
      "outputs": [],
      "stateMutability": "nonpayable",
      "type": "function"
    },
    {
      "inputs": [
        {
          "internalType": "address",
          "name": "account",
          "type": "address"
        },
        {
          "internalType": "uint256",
          "name": "value",
          "type": "uint256"
        }
      ],
      "name": "$_burn",
      "outputs": [],
      "stateMutability": "nonpayable",
      "type": "function"
    },
    {
      "inputs": [],
      "name": "$_domainSeparatorV4",
      "outputs": [
        {
          "internalType": "bytes32",
          "name": "ret0",
          "type": "bytes32"
        }
      ],
      "stateMutability": "view",
      "type": "function"
    },
    {
      "inputs": [
        {
          "internalType": "bytes32",
          "name": "structHash",
          "type": "bytes32"
        }
      ],
      "name": "$_hashTypedDataV4",
      "outputs": [
        {
          "internalType": "bytes32",
          "name": "ret0",
          "type": "bytes32"
        }
      ],
      "stateMutability": "view",
      "type": "function"
    },
    {
      "inputs": [
        {
          "internalType": "address",
          "name": "account",
          "type": "address"
        },
        {
          "internalType": "uint256",
          "name": "value",
          "type": "uint256"
        }
      ],
      "name": "$_mint",
      "outputs": [],
      "stateMutability": "nonpayable",
      "type": "function"
    },
    {
      "inputs": [],
      "name": "$_msgData",
      "outputs": [
        {
          "internalType": "bytes",
          "name": "ret0",
          "type": "bytes"
        }
      ],
      "stateMutability": "view",
      "type": "function"
    },
    {
      "inputs": [],
      "name": "$_msgSender",
      "outputs": [
        {
          "internalType": "address",
          "name": "ret0",
          "type": "address"
        }
      ],
      "stateMutability": "view",
      "type": "function"
    },
    {
      "inputs": [
        {
          "internalType": "address",
          "name": "owner",
          "type": "address"
        },
        {
          "internalType": "address",
          "name": "spender",
          "type": "address"
        },
        {
          "internalType": "uint256",
          "name": "value",
          "type": "uint256"
        }
      ],
      "name": "$_spendAllowance",
      "outputs": [],
      "stateMutability": "nonpayable",
      "type": "function"
    },
    {
      "inputs": [
        {
          "internalType": "address",
          "name": "from",
          "type": "address"
        },
        {
          "internalType": "address",
          "name": "to",
          "type": "address"
        },
        {
          "internalType": "uint256",
          "name": "value",
          "type": "uint256"
        }
      ],
      "name": "$_transfer",
      "outputs": [],
      "stateMutability": "nonpayable",
      "type": "function"
    },
    {
      "inputs": [
        {
          "internalType": "address",
          "name": "from",
          "type": "address"
        },
        {
          "internalType": "address",
          "name": "to",
          "type": "address"
        },
        {
          "internalType": "uint256",
          "name": "value",
          "type": "uint256"
        }
      ],
      "name": "$_update",
      "outputs": [],
      "stateMutability": "nonpayable",
      "type": "function"
    },
    {
      "inputs": [
        {
          "internalType": "address",
          "name": "owner",
          "type": "address"
        },
        {
          "internalType": "uint256",
          "name": "nonce",
          "type": "uint256"
        }
      ],
      "name": "$_useCheckedNonce",
      "outputs": [
        {
          "internalType": "uint256",
          "name": "ret0",
          "type": "uint256"
        }
      ],
      "stateMutability": "nonpayable",
      "type": "function"
    },
    {
      "inputs": [
        {
          "internalType": "address",
          "name": "owner",
          "type": "address"
        }
      ],
      "name": "$_useNonce",
      "outputs": [
        {
          "internalType": "uint256",
          "name": "ret0",
          "type": "uint256"
        }
      ],
      "stateMutability": "nonpayable",
      "type": "function"
    },
    {
      "inputs": [],
      "name": "DOMAIN_SEPARATOR",
      "outputs": [
        {
          "internalType": "bytes32",
          "name": "",
          "type": "bytes32"
        }
      ],
      "stateMutability": "view",
      "type": "function"
    },
    {
      "inputs": [],
      "name": "__hh_exposed_bytecode_marker",
      "outputs": [
        {
          "internalType": "bytes32",
          "name": "",
          "type": "bytes32"
        }
      ],
      "stateMutability": "view",
      "type": "function"
    },
    {
      "inputs": [
        {
          "internalType": "address",
          "name": "owner",
          "type": "address"
        },
        {
          "internalType": "address",
          "name": "spender",
          "type": "address"
        }
      ],
      "name": "allowance",
      "outputs": [
        {
          "internalType": "uint256",
          "name": "",
          "type": "uint256"
        }
      ],
      "stateMutability": "view",
      "type": "function"
    },
    {
      "inputs": [
        {
          "internalType": "address",
          "name": "spender",
          "type": "address"
        },
        {
          "internalType": "uint256",
          "name": "value",
          "type": "uint256"
        }
      ],
      "name": "approve",
      "outputs": [
        {
          "internalType": "bool",
          "name": "",
          "type": "bool"
        }
      ],
      "stateMutability": "nonpayable",
      "type": "function"
    },
    {
      "inputs": [
        {
          "internalType": "address",
          "name": "account",
          "type": "address"
        }
      ],
      "name": "balanceOf",
      "outputs": [
        {
          "internalType": "uint256",
          "name": "",
          "type": "uint256"
        }
      ],
      "stateMutability": "view",
      "type": "function"
    },
    {
      "inputs": [],
      "name": "decimals",
      "outputs": [
        {
          "internalType": "uint8",
          "name": "",
          "type": "uint8"
        }
      ],
      "stateMutability": "view",
      "type": "function"
    },
    {
      "inputs": [
        {
          "internalType": "address",
          "name": "spender",
          "type": "address"
        },
        {
          "internalType": "uint256",
          "name": "requestedDecrease",
          "type": "uint256"
        }
      ],
      "name": "decreaseAllowance",
      "outputs": [
        {
          "internalType": "bool",
          "name": "",
          "type": "bool"
        }
      ],
      "stateMutability": "nonpayable",
      "type": "function"
    },
    {
      "inputs": [],
      "name": "eip712Domain",
      "outputs": [
        {
          "internalType": "bytes1",
          "name": "fields",
          "type": "bytes1"
        },
        {
          "internalType": "string",
          "name": "name",
          "type": "string"
        },
        {
          "internalType": "string",
          "name": "version",
          "type": "string"
        },
        {
          "internalType": "uint256",
          "name": "chainId",
          "type": "uint256"
        },
        {
          "internalType": "address",
          "name": "verifyingContract",
          "type": "address"
        },
        {
          "internalType": "bytes32",
          "name": "salt",
          "type": "bytes32"
        },
        {
          "internalType": "uint256[]",
          "name": "extensions",
          "type": "uint256[]"
        }
      ],
      "stateMutability": "view",
      "type": "function"
    },
    {
      "inputs": [
        {
          "internalType": "address",
          "name": "spender",
          "type": "address"
        },
        {
          "internalType": "uint256",
          "name": "addedValue",
          "type": "uint256"
        }
      ],
      "name": "increaseAllowance",
      "outputs": [
        {
          "internalType": "bool",
          "name": "",
          "type": "bool"
        }
      ],
      "stateMutability": "nonpayable",
      "type": "function"
    },
    {
      "inputs": [],
      "name": "name",
      "outputs": [
        {
          "internalType": "string",
          "name": "",
          "type": "string"
        }
      ],
      "stateMutability": "view",
      "type": "function"
    },
    {
      "inputs": [
        {
          "internalType": "address",
          "name": "owner",
          "type": "address"
        }
      ],
      "name": "nonces",
      "outputs": [
        {
          "internalType": "uint256",
          "name": "",
          "type": "uint256"
        }
      ],
      "stateMutability": "view",
      "type": "function"
    },
    {
      "inputs": [
        {
          "internalType": "address",
          "name": "owner",
          "type": "address"
        },
        {
          "internalType": "address",
          "name": "spender",
          "type": "address"
        },
        {
          "internalType": "uint256",
          "name": "value",
          "type": "uint256"
        },
        {
          "internalType": "uint256",
          "name": "deadline",
          "type": "uint256"
        },
        {
          "internalType": "uint8",
          "name": "v",
          "type": "uint8"
        },
        {
          "internalType": "bytes32",
          "name": "r",
          "type": "bytes32"
        },
        {
          "internalType": "bytes32",
          "name": "s",
          "type": "bytes32"
        }
      ],
      "name": "permit",
      "outputs": [],
      "stateMutability": "nonpayable",
      "type": "function"
    },
    {
      "inputs": [],
      "name": "symbol",
      "outputs": [
        {
          "internalType": "string",
          "name": "",
          "type": "string"
        }
      ],
      "stateMutability": "view",
      "type": "function"
    },
    {
      "inputs": [],
      "name": "totalSupply",
      "outputs": [
        {
          "internalType": "uint256",
          "name": "",
          "type": "uint256"
        }
      ],
      "stateMutability": "view",
      "type": "function"
    },
    {
      "inputs": [
        {
          "internalType": "address",
          "name": "to",
          "type": "address"
        },
        {
          "internalType": "uint256",
          "name": "value",
          "type": "uint256"
        }
      ],
      "name": "transfer",
      "outputs": [
        {
          "internalType": "bool",
          "name": "",
          "type": "bool"
        }
      ],
      "stateMutability": "nonpayable",
      "type": "function"
    },
    {
      "inputs": [
        {
          "internalType": "address",
          "name": "from",
          "type": "address"
        },
        {
          "internalType": "address",
          "name": "to",
          "type": "address"
        },
        {
          "internalType": "uint256",
          "name": "value",
          "type": "uint256"
        }
      ],
      "name": "transferFrom",
      "outputs": [
        {
          "internalType": "bool",
          "name": "",
          "type": "bool"
        }
      ],
      "stateMutability": "nonpayable",
      "type": "function"
    },
    {
      "stateMutability": "payable",
      "type": "receive"
    }
  ],
  "bytecode": "0x61016060405260405162001a0b38038062001a0b83398101604081905262000027916200026f565b6040805180820190915260018152603160f81b6020820152819081908585600362000053838262000386565b50600462000062828262000386565b50620000749150839050600562000126565b610120526200008581600662000126565b61014052815160208084019190912060e052815190820120610100524660a0526200011260e05161010051604080517f8b73c3c69bb8fe3d512ecc4cf759cc79239f7b179b0ffacaa9a75d522b39400f60208201529081019290925260608201524660808201523060a08201525f9060c00160405160208183030381529060405280519060200120905090565b60805250503060c05250620004a692505050565b5f60208351101562000145576200013d836200015e565b905062000158565b8162000152848262000386565b5060ff90505b92915050565b5f80829050601f8151111562000194578260405163305a27a960e01b81526004016200018b91906200044e565b60405180910390fd5b8051620001a18262000482565b179392505050565b634e487b7160e01b5f52604160045260245ffd5b5f5b83811015620001d9578181015183820152602001620001bf565b50505f910152565b5f82601f830112620001f1575f80fd5b81516001600160401b03808211156200020e576200020e620001a9565b604051601f8301601f19908116603f01168101908282118183101715620002395762000239620001a9565b8160405283815286602085880101111562000252575f80fd5b62000265846020830160208901620001bd565b9695505050505050565b5f805f6060848603121562000282575f80fd5b83516001600160401b038082111562000299575f80fd5b620002a787838801620001e1565b94506020860151915080821115620002bd575f80fd5b620002cb87838801620001e1565b93506040860151915080821115620002e1575f80fd5b50620002f086828701620001e1565b9150509250925092565b600181811c908216806200030f57607f821691505b6020821081036200032e57634e487b7160e01b5f52602260045260245ffd5b50919050565b601f82111562000381575f81815260208120601f850160051c810160208610156200035c5750805b601f850160051c820191505b818110156200037d5782815560010162000368565b5050505b505050565b81516001600160401b03811115620003a257620003a2620001a9565b620003ba81620003b38454620002fa565b8462000334565b602080601f831160018114620003f0575f8415620003d85750858301515b5f19600386901b1c1916600185901b1785556200037d565b5f85815260208120601f198616915b828110156200042057888601518255948401946001909101908401620003ff565b50858210156200043e57878501515f19600388901b60f8161c191681555b5050505050600190811b01905550565b602081525f82518060208401526200046e816040850160208701620001bd565b601f01601f19169190910160400192915050565b805160208083015191908110156200032e575f1960209190910360031b1b16919050565b60805160a05160c05160e051610100516101205161014051611513620004f85f395f610a5301525f610a2601525f610cd301525f610cab01525f610c0601525f610c3001525f610c5a01526115135ff3fe6080604052600436106101d3575f3560e01c80635f8d5e74116100fd578063a457c2d711610092578063d505accf11610062578063d505accf14610503578063dd62ed3e14610522578063e047838d14610541578063efb43b0714610560575f80fd5b8063a457c2d714610487578063a9059cbb146104a6578063b2331d7d146104c5578063cc461d62146104e4575f80fd5b80637ecebe00116100cd5780637ecebe001461040e57806384b0196e1461042d578063861e3d3d1461045457806395d89b4114610473575f80fd5b80635f8d5e741461034a5780636855a1781461039c5780636b4ac502146103bb57806370a08231146103da575f80fd5b80632e8fbee511610173578063342db73911610143578063342db739146103255780633644e5151461034a578063395093511461035e578063506a6f0c1461037d575f80fd5b80632e8fbee5146102b6578063313ce567146102d557806332bc74aa146102f057806332cadf3c14610311575f80fd5b8063174ccd82116101ae578063174ccd821461024b57806318160ddd1461025f57806323b872dd1461027d5780632904df291461029c575f80fd5b806306fdde03146101de578063095ea7b3146102085780631164d13b14610237575f80fd5b366101da57005b5f80fd5b3480156101e9575f80fd5b506101f261057f565b6040516101ff9190611232565b60405180910390f35b348015610213575f80fd5b5061022761022236600461125f565b61060f565b60405190151581526020016101ff565b348015610242575f80fd5b506101f2610628565b348015610256575f80fd5b506101f2610637565b34801561026a575f80fd5b506002545b6040519081526020016101ff565b348015610288575f80fd5b50610227610297366004611287565b610641565b3480156102a7575f80fd5b506040513381526020016101ff565b3480156102c1575f80fd5b5061026f6102d03660046112c0565b610664565b3480156102e0575f80fd5b50604051601281526020016101ff565b3480156102fb575f80fd5b5061030f61030a3660046112d9565b6106c4565b005b34801561031c575f80fd5b506101f26106d6565b348015610330575f80fd5b5061026f6e1a185c991a185d0b595e1c1bdcd959608a1b81565b348015610355575f80fd5b5061026f610713565b348015610369575f80fd5b5061022761037836600461125f565b61071c565b348015610388575f80fd5b5061026f610397366004611329565b61073d565b3480156103a7575f80fd5b5061030f6103b6366004611287565b610747565b3480156103c6575f80fd5b5061026f6103d536600461125f565b610757565b3480156103e5575f80fd5b5061026f6103f43660046112c0565b6001600160a01b03165f9081526020819052604090205490565b348015610419575f80fd5b5061026f6104283660046112c0565b6107a3565b348015610438575f80fd5b506104416107c0565b6040516101ff9796959493929190611340565b34801561045f575f80fd5b5061030f61046e366004611287565b610802565b34801561047e575f80fd5b506101f261080d565b348015610492575f80fd5b506102276104a136600461125f565b61081c565b3480156104b1575f80fd5b506102276104c036600461125f565b610877565b3480156104d0575f80fd5b5061030f6104df366004611287565b610884565b3480156104ef575f80fd5b5061030f6104fe36600461125f565b61088f565b34801561050e575f80fd5b5061030f61051d3660046113d4565b61089d565b34801561052d575f80fd5b5061026f61053c366004611441565b6109d3565b34801561054c575f80fd5b5061030f61055b36600461125f565b6109fd565b34801561056b575f80fd5b5061030f61057a366004611287565b610a07565b60606003805461058e90611472565b80601f01602080910402602001604051908101604052809291908181526020018280546105ba90611472565b80156106055780601f106105dc57610100808354040283529160200191610605565b820191905f5260205f20905b8154815290600101906020018083116105e857829003601f168201915b5050505050905090565b5f3361061c818585610a12565b60019150505b92915050565b6060610632610a1f565b905090565b6060610632610a4c565b5f3361064e858285610a79565b610659858585610ad6565b506001949350505050565b6001600160a01b0381165f90815260076020526040812080546001810190915590507f8d5c13b1cd528a3e1895fdc833368c4e3af5391250c736a28e94c4fa59b3cee4816040516106b791815260200190565b60405180910390a1919050565b6106d084848484610b28565b50505050565b60605f368080601f0160208091040260200160405190810160405280939291908181526020018383808284375f9201919091525092949350505050565b5f610632610bfa565b5f3361061c81858561072e83836109d3565b61073891906114aa565b610a12565b5f61062282610d23565b610752838383610d4f565b505050565b5f6107628383610e75565b90507f173c6dfbda204d89ae7b46789365591384ef0c959833564582f96cd15f445b9b8160405161079591815260200190565b60405180910390a192915050565b6001600160a01b0381165f90815260076020526040812054610622565b5f6060805f805f60606107d1610a1f565b6107d9610a4c565b604080515f80825260208201909252600f60f81b9b939a50919850469750309650945092509050565b610752838383610a12565b60606004805461058e90611472565b5f338161082982866109d3565b90508381101561086a57604051632983c0c360e21b81526001600160a01b038616600482015260248101829052604481018590526064015b60405180910390fd5b6106598286868403610a12565b5f3361061c818585610ad6565b610752838383610a79565b6108998282610ece565b5050565b834211156108c15760405163313c898160e11b815260048101859052602401610861565b5f7f6e71edae12b1b97f4d1f60370fef10105fa2faae0126114a169c64845d6126c988888861090c8c6001600160a01b03165f90815260076020526040902080546001810190915590565b6040805160208101969096526001600160a01b0394851690860152929091166060840152608083015260a082015260c0810186905260e0016040516020818303038152906040528051906020012090505f61096682610d23565b90505f61097582878787610f02565b9050896001600160a01b0316816001600160a01b0316146109bc576040516325c0072360e11b81526001600160a01b0380831660048301528b166024820152604401610861565b6109c78a8a8a610a12565b50505050505050505050565b6001600160a01b039182165f90815260016020908152604080832093909416825291909152205490565b6108998282610f2e565b610752838383610ad6565b6107528383836001610b28565b60606106327f00000000000000000000000000000000000000000000000000000000000000006005610f62565b60606106327f00000000000000000000000000000000000000000000000000000000000000006006610f62565b5f610a8484846109d3565b90505f1981146106d05781811015610ac857604051637dc7a0d960e11b81526001600160a01b03841660048201526024810182905260448101839052606401610861565b6106d084848484035f610b28565b6001600160a01b038316610aff57604051634b637e8f60e11b81525f6004820152602401610861565b6001600160a01b0382166107475760405163ec442f0560e01b81525f6004820152602401610861565b6001600160a01b038416610b515760405163e602df0560e01b81525f6004820152602401610861565b6001600160a01b038316610b7a57604051634a1406b160e11b81525f6004820152602401610861565b6001600160a01b038085165f90815260016020908152604080832093871683529290522082905580156106d057826001600160a01b0316846001600160a01b03167f8c5be1e5ebec7d5bd14f71427d1e84f3dd0314c0f7b2291e5b200ac8c7c3b92584604051610bec91815260200190565b60405180910390a350505050565b5f306001600160a01b037f000000000000000000000000000000000000000000000000000000000000000016148015610c5257507f000000000000000000000000000000000000000000000000000000000000000046145b15610c7c57507f000000000000000000000000000000000000000000000000000000000000000090565b610632604080517f8b73c3c69bb8fe3d512ecc4cf759cc79239f7b179b0ffacaa9a75d522b39400f60208201527f0000000000000000000000000000000000000000000000000000000000000000918101919091527f000000000000000000000000000000000000000000000000000000000000000060608201524660808201523060a08201525f9060c00160405160208183030381529060405280519060200120905090565b5f610622610d2f610bfa565b8360405161190160f01b8152600281019290925260228201526042902090565b6001600160a01b038316610d79578060025f828254610d6e91906114aa565b90915550610de99050565b6001600160a01b0383165f9081526020819052604090205481811015610dcb5760405163391434e360e21b81526001600160a01b03851660048201526024810182905260448101839052606401610861565b6001600160a01b0384165f9081526020819052604090209082900390555b6001600160a01b038216610e0557600280548290039055610e23565b6001600160a01b0382165f9081526020819052604090208054820190555b816001600160a01b0316836001600160a01b03167fddf252ad1be2c89b69c2b068fc378daa952ba7f163c4a11628f55a4df523b3ef83604051610e6891815260200190565b60405180910390a3505050565b6001600160a01b0382165f908152600760205260408120805460018101909155808314610ec7576040516301d4b62360e61b81526001600160a01b038516600482015260248101829052604401610861565b9392505050565b6001600160a01b038216610ef75760405163ec442f0560e01b81525f6004820152602401610861565b6108995f8383610d4f565b5f805f80610f128888888861100b565b925092509250610f2282826110d3565b50909695505050505050565b6001600160a01b038216610f5757604051634b637e8f60e11b81525f6004820152602401610861565b610899825f83610d4f565b606060ff8314610f7c57610f758361118b565b9050610622565b818054610f8890611472565b80601f0160208091040260200160405190810160405280929190818152602001828054610fb490611472565b8015610fff5780601f10610fd657610100808354040283529160200191610fff565b820191905f5260205f20905b815481529060010190602001808311610fe257829003601f168201915b50505050509050610622565b5f80807f7fffffffffffffffffffffffffffffff5d576e7357a4501ddfe92f46681b20a084111561104457505f915060039050826110c9565b604080515f808252602082018084528a905260ff891692820192909252606081018790526080810186905260019060a0016020604051602081039080840390855afa158015611095573d5f803e3d5ffd5b5050604051601f1901519150506001600160a01b0381166110c057505f9250600191508290506110c9565b92505f91508190505b9450945094915050565b5f8260038111156110e6576110e66114c9565b036110ef575050565b6001826003811115611103576111036114c9565b036111215760405163f645eedf60e01b815260040160405180910390fd5b6002826003811115611135576111356114c9565b036111565760405163fce698f760e01b815260048101829052602401610861565b600382600381111561116a5761116a6114c9565b03610899576040516335e2f38360e21b815260048101829052602401610861565b60605f611197836111c8565b6040805160208082528183019092529192505f91906020820181803683375050509182525060208101929092525090565b5f60ff8216601f81111561062257604051632cd44ac360e21b815260040160405180910390fd5b5f81518084525f5b81811015611213576020818501810151868301820152016111f7565b505f602082860101526020601f19601f83011685010191505092915050565b602081525f610ec760208301846111ef565b80356001600160a01b038116811461125a575f80fd5b919050565b5f8060408385031215611270575f80fd5b61127983611244565b946020939093013593505050565b5f805f60608486031215611299575f80fd5b6112a284611244565b92506112b060208501611244565b9150604084013590509250925092565b5f602082840312156112d0575f80fd5b610ec782611244565b5f805f80608085870312156112ec575f80fd5b6112f585611244565b935061130360208601611244565b9250604085013591506060850135801515811461131e575f80fd5b939692955090935050565b5f60208284031215611339575f80fd5b5035919050565b60ff60f81b881681525f602060e08184015261135f60e084018a6111ef565b8381036040850152611371818a6111ef565b606085018990526001600160a01b038816608086015260a0850187905284810360c086015285518082528387019250908301905f5b818110156113c2578351835292840192918401916001016113a6565b50909c9b505050505050505050505050565b5f805f805f805f60e0888a0312156113ea575f80fd5b6113f388611244565b965061140160208901611244565b95506040880135945060608801359350608088013560ff81168114611424575f80fd5b9699959850939692959460a0840135945060c09093013592915050565b5f8060408385031215611452575f80fd5b61145b83611244565b915061146960208401611244565b90509250929050565b600181811c9082168061148657607f821691505b6020821081036114a457634e487b7160e01b5f52602260045260245ffd5b50919050565b8082018082111561062257634e487b7160e01b5f52601160045260245ffd5b634e487b7160e01b5f52602160045260245ffdfea2646970667358221220719bdc64d34b7bcd1cef41d90f8169b8aab62806f0e629f0c4a791e2c863ddeb64736f6c63430008140033",
  "linkReferences": {},
  "deployedLinkReferences": {}
}