{
  "_format": "hh-sol-artifact-1",
  "contractName": "$AccessControlDefaultAdminRules",
  "sourceName": "contracts-exposed/access/extensions/AccessControlDefaultAdminRules.sol",
  "abi": [
    {
      "inputs": [
        {
          "internalType": "uint48",
          "name": "initialDelay",
          "type": "uint48"
        },
        {
          "internalType": "address",
          "name": "initialDefaultAdmin",
          "type": "address"
        }
      ],
      "stateMutability": "payable",
      "type": "constructor"
    },
    {
      "inputs": [],
      "name": "AccessControlBadConfirmation",
      "type": "error"
    },
    {
      "inputs": [
        {
          "internalType": "uint48",
          "name": "schedule",
          "type": "uint48"
        }
      ],
      "name": "AccessControlEnforcedDefaultAdminDelay",
      "type": "error"
    },
    {
      "inputs": [],
      "name": "AccessControlEnforcedDefaultAdminRules",
      "type": "error"
    },
    {
      "inputs": [
        {
          "internalType": "address",
          "name": "defaultAdmin",
          "type": "address"
        }
      ],
      "name": "AccessControlInvalidDefaultAdmin",
      "type": "error"
    },
    {
      "inputs": [
        {
          "internalType": "address",
          "name": "account",
          "type": "address"
        },
        {
          "internalType": "bytes32",
          "name": "neededRole",
          "type": "bytes32"
        }
      ],
      "name": "AccessControlUnauthorizedAccount",
      "type": "error"
    },
    {
      "inputs": [
        {
          "internalType": "uint8",
          "name": "bits",
          "type": "uint8"
        },
        {
          "internalType": "uint256",
          "name": "value",
          "type": "uint256"
        }
      ],
      "name": "SafeCastOverflowedUintDowncast",
      "type": "error"
    },
    {
      "anonymous": false,
      "inputs": [],
      "name": "DefaultAdminDelayChangeCanceled",
      "type": "event"
    },
    {
      "anonymous": false,
      "inputs": [
        {
          "indexed": false,
          "internalType": "uint48",
          "name": "newDelay",
          "type": "uint48"
        },
        {
          "indexed": false,
          "internalType": "uint48",
          "name": "effectSchedule",
          "type": "uint48"
        }
      ],
      "name": "DefaultAdminDelayChangeScheduled",
      "type": "event"
    },
    {
      "anonymous": false,
      "inputs": [],
      "name": "DefaultAdminTransferCanceled",
      "type": "event"
    },
    {
      "anonymous": false,
      "inputs": [
        {
          "indexed": true,
          "internalType": "address",
          "name": "newAdmin",
          "type": "address"
        },
        {
          "indexed": false,
          "internalType": "uint48",
          "name": "acceptSchedule",
          "type": "uint48"
        }
      ],
      "name": "DefaultAdminTransferScheduled",
      "type": "event"
    },
    {
      "anonymous": false,
      "inputs": [
        {
          "indexed": true,
          "internalType": "bytes32",
          "name": "role",
          "type": "bytes32"
        },
        {
          "indexed": true,
          "internalType": "bytes32",
          "name": "previousAdminRole",
          "type": "bytes32"
        },
        {
          "indexed": true,
          "internalType": "bytes32",
          "name": "newAdminRole",
          "type": "bytes32"
        }
      ],
      "name": "RoleAdminChanged",
      "type": "event"
    },
    {
      "anonymous": false,
      "inputs": [
        {
          "indexed": true,
          "internalType": "bytes32",
          "name": "role",
          "type": "bytes32"
        },
        {
          "indexed": true,
          "internalType": "address",
          "name": "account",
          "type": "address"
        },
        {
          "indexed": true,
          "internalType": "address",
          "name": "sender",
          "type": "address"
        }
      ],
      "name": "RoleGranted",
      "type": "event"
    },
    {
      "anonymous": false,
      "inputs": [
        {
          "indexed": true,
          "internalType": "bytes32",
          "name": "role",
          "type": "bytes32"
        },
        {
          "indexed": true,
          "internalType": "address",
          "name": "account",
          "type": "address"
        },
        {
          "indexed": true,
          "internalType": "address",
          "name": "sender",
          "type": "address"
        }
      ],
      "name": "RoleRevoked",
      "type": "event"
    },
    {
      "inputs": [],
      "name": "$_acceptDefaultAdminTransfer",
      "outputs": [],
      "stateMutability": "nonpayable",
      "type": "function"
    },
    {
      "inputs": [
        {
          "internalType": "address",
          "name": "newAdmin",
          "type": "address"
        }
      ],
      "name": "$_beginDefaultAdminTransfer",
      "outputs": [],
      "stateMutability": "nonpayable",
      "type": "function"
    },
    {
      "inputs": [],
      "name": "$_cancelDefaultAdminTransfer",
      "outputs": [],
      "stateMutability": "nonpayable",
      "type": "function"
    },
    {
      "inputs": [
        {
          "internalType": "uint48",
          "name": "newDelay",
          "type": "uint48"
        }
      ],
      "name": "$_changeDefaultAdminDelay",
      "outputs": [],
      "stateMutability": "nonpayable",
      "type": "function"
    },
    {
      "inputs": [
        {
          "internalType": "bytes32",
          "name": "role",
          "type": "bytes32"
        },
        {
          "internalType": "address",
          "name": "account",
          "type": "address"
        }
      ],
      "name": "$_checkRole",
      "outputs": [],
      "stateMutability": "view",
      "type": "function"
    },
    {
      "inputs": [
        {
          "internalType": "bytes32",
          "name": "role",
          "type": "bytes32"
        }
      ],
      "name": "$_checkRole",
      "outputs": [],
      "stateMutability": "view",
      "type": "function"
    },
    {
      "inputs": [
        {
          "internalType": "uint48",
          "name": "newDelay",
          "type": "uint48"
        }
      ],
      "name": "$_delayChangeWait",
      "outputs": [
        {
          "internalType": "uint48",
          "name": "ret0",
          "type": "uint48"
        }
      ],
      "stateMutability": "view",
      "type": "function"
    },
    {
      "inputs": [
        {
          "internalType": "bytes32",
          "name": "role",
          "type": "bytes32"
        },
        {
          "internalType": "address",
          "name": "account",
          "type": "address"
        }
      ],
      "name": "$_grantRole",
      "outputs": [],
      "stateMutability": "nonpayable",
      "type": "function"
    },
    {
      "inputs": [],
      "name": "$_msgData",
      "outputs": [
        {
          "internalType": "bytes",
          "name": "ret0",
          "type": "bytes"
        }
      ],
      "stateMutability": "view",
      "type": "function"
    },
    {
      "inputs": [],
      "name": "$_msgSender",
      "outputs": [
        {
          "internalType": "address",
          "name": "ret0",
          "type": "address"
        }
      ],
      "stateMutability": "view",
      "type": "function"
    },
    {
      "inputs": [
        {
          "internalType": "bytes32",
          "name": "role",
          "type": "bytes32"
        },
        {
          "internalType": "address",
          "name": "account",
          "type": "address"
        }
      ],
      "name": "$_revokeRole",
      "outputs": [],
      "stateMutability": "nonpayable",
      "type": "function"
    },
    {
      "inputs": [],
      "name": "$_rollbackDefaultAdminDelay",
      "outputs": [],
      "stateMutability": "nonpayable",
      "type": "function"
    },
    {
      "inputs": [
        {
          "internalType": "bytes32",
          "name": "role",
          "type": "bytes32"
        },
        {
          "internalType": "bytes32",
          "name": "adminRole",
          "type": "bytes32"
        }
      ],
      "name": "$_setRoleAdmin",
      "outputs": [],
      "stateMutability": "nonpayable",
      "type": "function"
    },
    {
      "inputs": [],
      "name": "DEFAULT_ADMIN_ROLE",
      "outputs": [
        {
          "internalType": "bytes32",
          "name": "",
          "type": "bytes32"
        }
      ],
      "stateMutability": "view",
      "type": "function"
    },
    {
      "inputs": [],
      "name": "__hh_exposed_bytecode_marker",
      "outputs": [
        {
          "internalType": "bytes32",
          "name": "",
          "type": "bytes32"
        }
      ],
      "stateMutability": "view",
      "type": "function"
    },
    {
      "inputs": [],
      "name": "acceptDefaultAdminTransfer",
      "outputs": [],
      "stateMutability": "nonpayable",
      "type": "function"
    },
    {
      "inputs": [
        {
          "internalType": "address",
          "name": "newAdmin",
          "type": "address"
        }
      ],
      "name": "beginDefaultAdminTransfer",
      "outputs": [],
      "stateMutability": "nonpayable",
      "type": "function"
    },
    {
      "inputs": [],
      "name": "cancelDefaultAdminTransfer",
      "outputs": [],
      "stateMutability": "nonpayable",
      "type": "function"
    },
    {
      "inputs": [
        {
          "internalType": "uint48",
          "name": "newDelay",
          "type": "uint48"
        }
      ],
      "name": "changeDefaultAdminDelay",
      "outputs": [],
      "stateMutability": "nonpayable",
      "type": "function"
    },
    {
      "inputs": [],
      "name": "defaultAdmin",
      "outputs": [
        {
          "internalType": "address",
          "name": "",
          "type": "address"
        }
      ],
      "stateMutability": "view",
      "type": "function"
    },
    {
      "inputs": [],
      "name": "defaultAdminDelay",
      "outputs": [
        {
          "internalType": "uint48",
          "name": "",
          "type": "uint48"
        }
      ],
      "stateMutability": "view",
      "type": "function"
    },
    {
      "inputs": [],
      "name": "defaultAdminDelayIncreaseWait",
      "outputs": [
        {
          "internalType": "uint48",
          "name": "",
          "type": "uint48"
        }
      ],
      "stateMutability": "view",
      "type": "function"
    },
    {
      "inputs": [
        {
          "internalType": "bytes32",
          "name": "role",
          "type": "bytes32"
        }
      ],
      "name": "getRoleAdmin",
      "outputs": [
        {
          "internalType": "bytes32",
          "name": "",
          "type": "bytes32"
        }
      ],
      "stateMutability": "view",
      "type": "function"
    },
    {
      "inputs": [
        {
          "internalType": "bytes32",
          "name": "role",
          "type": "bytes32"
        },
        {
          "internalType": "address",
          "name": "account",
          "type": "address"
        }
      ],
      "name": "grantRole",
      "outputs": [],
      "stateMutability": "nonpayable",
      "type": "function"
    },
    {
      "inputs": [
        {
          "internalType": "bytes32",
          "name": "role",
          "type": "bytes32"
        },
        {
          "internalType": "address",
          "name": "account",
          "type": "address"
        }
      ],
      "name": "hasRole",
      "outputs": [
        {
          "internalType": "bool",
          "name": "",
          "type": "bool"
        }
      ],
      "stateMutability": "view",
      "type": "function"
    },
    {
      "inputs": [],
      "name": "owner",
      "outputs": [
        {
          "internalType": "address",
          "name": "",
          "type": "address"
        }
      ],
      "stateMutability": "view",
      "type": "function"
    },
    {
      "inputs": [],
      "name": "pendingDefaultAdmin",
      "outputs": [
        {
          "internalType": "address",
          "name": "newAdmin",
          "type": "address"
        },
        {
          "internalType": "uint48",
          "name": "schedule",
          "type": "uint48"
        }
      ],
      "stateMutability": "view",
      "type": "function"
    },
    {
      "inputs": [],
      "name": "pendingDefaultAdminDelay",
      "outputs": [
        {
          "internalType": "uint48",
          "name": "newDelay",
          "type": "uint48"
        },
        {
          "internalType": "uint48",
          "name": "schedule",
          "type": "uint48"
        }
      ],
      "stateMutability": "view",
      "type": "function"
    },
    {
      "inputs": [
        {
          "internalType": "bytes32",
          "name": "role",
          "type": "bytes32"
        },
        {
          "internalType": "address",
          "name": "account",
          "type": "address"
        }
      ],
      "name": "renounceRole",
      "outputs": [],
      "stateMutability": "nonpayable",
      "type": "function"
    },
    {
      "inputs": [
        {
          "internalType": "bytes32",
          "name": "role",
          "type": "bytes32"
        },
        {
          "internalType": "address",
          "name": "account",
          "type": "address"
        }
      ],
      "name": "revokeRole",
      "outputs": [],
      "stateMutability": "nonpayable",
      "type": "function"
    },
    {
      "inputs": [],
      "name": "rollbackDefaultAdminDelay",
      "outputs": [],
      "stateMutability": "nonpayable",
      "type": "function"
    },
    {
      "inputs": [
        {
          "internalType": "bytes4",
          "name": "interfaceId",
          "type": "bytes4"
        }
      ],
      "name": "supportsInterface",
      "outputs": [
        {
          "internalType": "bool",
          "name": "",
          "type": "bool"
        }
      ],
      "stateMutability": "view",
      "type": "function"
    },
    {
      "stateMutability": "payable",
      "type": "receive"
    }
  ],
  "bytecode": "0x60806040526040516200133c3803806200133c833981016040819052620000269162000197565b81816001600160a01b0381166200005657604051636116401160e11b81525f600482015260240160405180910390fd5b600180546001600160d01b0316600160d01b65ffffffffffff851602179055620000815f826200008b565b50505050620001e7565b81620000e9575f620000a56002546001600160a01b031690565b6001600160a01b031614620000cd57604051631fe1e13d60e11b815260040160405180910390fd5b600280546001600160a01b0319166001600160a01b0383161790555b620000f58282620000f9565b5050565b5f828152602081815260408083206001600160a01b038516845290915290205460ff16620000f5575f828152602081815260408083206001600160a01b03851684529091529020805460ff19166001179055620001533390565b6001600160a01b0316816001600160a01b0316837f2f8788117e7eff1d82e926ec794901d17c78024a50270940304540a733656f0d60405160405180910390a45050565b5f8060408385031215620001a9575f80fd5b825165ffffffffffff81168114620001bf575f80fd5b60208401519092506001600160a01b0381168114620001dc575f80fd5b809150509250929050565b61114780620001f55f395ff3fe6080604052600436106101de575f3560e01c806384ef8ffc116100fd578063ca17f12811610092578063cf6eefb711610062578063cf6eefb714610552578063d547741f1461058c578063d602b9fd146105ab578063d7bdcee9146105bf575f80fd5b8063ca17f128146104ec578063cac73f3e1461050b578063cc8463c81461052a578063cefc14291461053e575f80fd5b806398dd54c1116100cd57806398dd54c114610473578063a1eda53c14610492578063a217fddf146104c5578063bf6e39cb146104d8575f80fd5b806384ef8ffc1461040f5780638da5cb5b1461042c57806391d14854146104405780639525e11d1461045f575f80fd5b806332cadf3c116101735780634286d2f1116101435780634286d2f11461039e57806357fbf031146103bd578063634e93da146103d1578063649a5ec7146103f0575f80fd5b806332cadf3c1461031a578063342db7391461033b57806336568abe1461036057806341b45f711461037f575f80fd5b8063248a9ca3116101ae578063248a9ca31461027a578063270db874146102b65780632904df29146102d55780632f2ff15d146102fb575f80fd5b806301ffc9a7146101e9578063022d63fb1461021d5780630aa6220b1461024557806319ea6db31461025b575f80fd5b366101e557005b5f80fd5b3480156101f4575f80fd5b50610208610203366004610f8c565b6105de565b60405190151581526020015b60405180910390f35b348015610228575f80fd5b50620697805b60405165ffffffffffff9091168152602001610214565b348015610250575f80fd5b50610259610608565b005b348015610266575f80fd5b5061022e610275366004610fb3565b61061d565b348015610285575f80fd5b506102a8610294366004610fd8565b5f9081526020819052604090206001015490565b604051908152602001610214565b3480156102c1575f80fd5b506102596102d036600461100a565b610627565b3480156102e0575f80fd5b50335b6040516001600160a01b039091168152602001610214565b348015610306575f80fd5b5061025961031536600461100a565b61063a565b348015610325575f80fd5b5061032e610662565b6040516102149190611034565b348015610346575f80fd5b506102a86e1a185c991a185d0b595e1c1bdcd959608a1b81565b34801561036b575f80fd5b5061025961037a36600461100a565b61069f565b34801561038a575f80fd5b5061025961039936600461100a565b61074a565b3480156103a9575f80fd5b506102596103b836600461100a565b610754565b3480156103c8575f80fd5b5061025961075e565b3480156103dc575f80fd5b506102596103eb36600461107f565b610768565b3480156103fb575f80fd5b5061025961040a366004610fb3565b61077b565b34801561041a575f80fd5b506002546001600160a01b03166102e3565b348015610437575f80fd5b506102e361078e565b34801561044b575f80fd5b5061020861045a36600461100a565b6107a1565b34801561046a575f80fd5b506102596107c9565b34801561047e575f80fd5b5061025961048d366004610fd8565b6107d1565b34801561049d575f80fd5b506104a66107da565b6040805165ffffffffffff938416815292909116602083015201610214565b3480156104d0575f80fd5b506102a85f81565b3480156104e3575f80fd5b5061025961082c565b3480156104f7575f80fd5b50610259610506366004610fb3565b610834565b348015610516575f80fd5b5061025961052536600461107f565b61083d565b348015610535575f80fd5b5061022e610846565b348015610549575f80fd5b506102596108a4565b34801561055d575f80fd5b506105666108e3565b604080516001600160a01b03909316835265ffffffffffff909116602083015201610214565b348015610597575f80fd5b506102596105a636600461100a565b610904565b3480156105b6575f80fd5b5061025961092c565b3480156105ca575f80fd5b506102596105d9366004611098565b61093e565b5f6001600160e01b031982166318a4c3c360e11b1480610602575061060282610948565b92915050565b5f6106128161097c565b61061a610986565b50565b5f61060282610990565b61063182826109de565b5050565b905090565b8161065857604051631fe1e13d60e11b815260040160405180910390fd5b6106318282610a43565b60605f368080601f0160208091040260200160405190810160405280939291908181526020018383808284375f9201919091525092949350505050565b811580156106ba57506002546001600160a01b038281169116145b15610740575f806106c96108e3565b90925090506001600160a01b0382161515806106eb575065ffffffffffff8116155b806106fe57504265ffffffffffff821610155b1561072b576040516319ca5ebb60e01b815265ffffffffffff821660048201526024015b60405180910390fd5b50506001805465ffffffffffff60a01b191690555b6106318282610a6c565b6106318282610a95565b6106318282610ace565b610766610b09565b565b5f6107728161097c565b61063182610b13565b5f6107858161097c565b61063182610b85565b5f6106356002546001600160a01b031690565b5f918252602082815260408084206001600160a01b0393909316845291905290205460ff1690565b610766610bf4565b61061a8161097c565b6002545f90600160d01b900465ffffffffffff16801515801561080557504265ffffffffffff821610155b610810575f80610824565b600254600160a01b900465ffffffffffff16815b915091509091565b610766610986565b61061a81610b85565b61061a81610b13565b6002545f90600160d01b900465ffffffffffff16801515801561087057504265ffffffffffff8216105b61088b57600154600160d01b900465ffffffffffff1661089e565b600254600160a01b900465ffffffffffff165b91505090565b5f6108ad6108e3565b509050336001600160a01b038216146108db57604051636116401160e11b8152336004820152602401610722565b61061a610bf4565b6001546001600160a01b03811691600160a01b90910465ffffffffffff1690565b8161092257604051631fe1e13d60e11b815260040160405180910390fd5b6106318282610c88565b5f6109368161097c565b61061a610b09565b6106318282610cac565b5f6001600160e01b03198216637965db0b60e01b148061060257506301ffc9a760e01b6001600160e01b0319831614610602565b61061a8133610a95565b6107665f80610cd4565b5f8061099a610846565b90508065ffffffffffff168365ffffffffffff16116109c2576109bd83826110cc565b6109d7565b6109d765ffffffffffff841662069780610d93565b9392505050565b81610a39575f6109f66002546001600160a01b031690565b6001600160a01b031614610a1d57604051631fe1e13d60e11b815260040160405180910390fd5b600280546001600160a01b0319166001600160a01b0383161790555b6106318282610da8565b5f82815260208190526040902060010154610a5d8161097c565b610a6783836109de565b505050565b6001600160a01b03811633146107545760405163334bd91960e11b815260040160405180910390fd5b610a9f82826107a1565b6106315760405163e2517d3f60e01b81526001600160a01b038216600482015260248101839052604401610722565b81158015610ae957506002546001600160a01b038281169116145b15610aff57600280546001600160a01b03191690555b6106318282610e2b565b6107665f80610e8f565b5f610b1c610846565b610b2542610f0c565b610b2f91906110f2565b9050610b3b8282610e8f565b60405165ffffffffffff821681526001600160a01b038316907f3377dc44241e779dd06afab5b788a35ca5f3b778836e2990bdb26a2a4b2e5ed69060200160405180910390a25050565b5f610b8f82610990565b610b9842610f0c565b610ba291906110f2565b9050610bae8282610cd4565b6040805165ffffffffffff8085168252831660208201527ff1038c18cf84a56e432fdbfaf746924b7ea511dfe03a6506a0ceba4888788d9b910160405180910390a15050565b5f80610bfe6108e3565b91509150610c138165ffffffffffff16151590565b1580610c2757504265ffffffffffff821610155b15610c4f576040516319ca5ebb60e01b815265ffffffffffff82166004820152602401610722565b610c6a5f610c656002546001600160a01b031690565b610ace565b610c745f836109de565b5050600180546001600160d01b0319169055565b5f82815260208190526040902060010154610ca28161097c565b610a678383610ace565b81610cca57604051631fe1e13d60e11b815260040160405180910390fd5b6106318282610f42565b600254600160d01b900465ffffffffffff168015610d56574265ffffffffffff82161015610d2d57600254600180546001600160d01b0316600160a01b90920465ffffffffffff16600160d01b02919091179055610d56565b6040517f2b1fa2edafe6f7b9e97c1a9e0c3660e645beb2dcaa2d45bdbf9beaf5472e1ec5905f90a15b50600280546001600160a01b0316600160a01b65ffffffffffff948516026001600160d01b031617600160d01b9290931691909102919091179055565b5f818310610da157816109d7565b5090919050565b610db282826107a1565b610631575f828152602081815260408083206001600160a01b03851684529091529020805460ff19166001179055610de73390565b6001600160a01b0316816001600160a01b0316837f2f8788117e7eff1d82e926ec794901d17c78024a50270940304540a733656f0d60405160405180910390a45050565b610e3582826107a1565b15610631575f828152602081815260408083206001600160a01b0385168085529252808320805460ff1916905551339285917ff6391f5c32d9c69d2a47ea670b442974b53935d1edc7fd64eb21e047a839171b9190a45050565b5f610e986108e3565b6001805465ffffffffffff8616600160a01b026001600160d01b03199091166001600160a01b038816171790559150610eda90508165ffffffffffff16151590565b15610a67576040517f8886ebfc4259abdbc16601dd8fb5678e54878f47b3c34836cfc51154a9605109905f90a1505050565b5f65ffffffffffff821115610f3e576040516306dfcc6560e41b81526030600482015260248101839052604401610722565b5090565b5f82815260208190526040808220600101805490849055905190918391839186917fbd79b86ffe0ab8e8776151514217cd7cacd52c909f66475c3af44e129f0b00ff9190a4505050565b5f60208284031215610f9c575f80fd5b81356001600160e01b0319811681146109d7575f80fd5b5f60208284031215610fc3575f80fd5b813565ffffffffffff811681146109d7575f80fd5b5f60208284031215610fe8575f80fd5b5035919050565b80356001600160a01b0381168114611005575f80fd5b919050565b5f806040838503121561101b575f80fd5b8235915061102b60208401610fef565b90509250929050565b5f6020808352835180828501525f5b8181101561105f57858101830151858201604001528201611043565b505f604082860101526040601f19601f8301168501019250505092915050565b5f6020828403121561108f575f80fd5b6109d782610fef565b5f80604083850312156110a9575f80fd5b50508035926020909101359150565b634e487b7160e01b5f52601160045260245ffd5b65ffffffffffff8281168282160390808211156110eb576110eb6110b8565b5092915050565b65ffffffffffff8181168382160190808211156110eb576110eb6110b856fea264697066735822122061b13392917aeef6c060accb20364f7a9936f69ea1c51357932b163ec54c471a64736f6c63430008140033",
  "linkReferences": {},
  "deployedLinkReferences": {}
}