{
  "_format": "hh-sol-artifact-1",
  "contractName": "$ERC721Wrapper",
  "sourceName": "contracts-exposed/token/ERC721/extensions/ERC721Wrapper.sol",
  "abi": [
    {
      "inputs": [
        {
          "internalType": "string",
          "name": "name_",
          "type": "string"
        },
        {
          "internalType": "string",
          "name": "symbol_",
          "type": "string"
        },
        {
          "internalType": "contract IERC721",
          "name": "underlyingToken",
          "type": "address"
        }
      ],
      "stateMutability": "payable",
      "type": "constructor"
    },
    {
      "inputs": [
        {
          "internalType": "address",
          "name": "sender",
          "type": "address"
        },
        {
          "internalType": "uint256",
          "name": "tokenId",
          "type": "uint256"
        },
        {
          "internalType": "address",
          "name": "owner",
          "type": "address"
        }
      ],
      "name": "ERC721IncorrectOwner",
      "type": "error"
    },
    {
      "inputs": [
        {
          "internalType": "address",
          "name": "operator",
          "type": "address"
        },
        {
          "internalType": "uint256",
          "name": "tokenId",
          "type": "uint256"
        }
      ],
      "name": "ERC721InsufficientApproval",
      "type": "error"
    },
    {
      "inputs": [
        {
          "internalType": "address",
          "name": "approver",
          "type": "address"
        }
      ],
      "name": "ERC721InvalidApprover",
      "type": "error"
    },
    {
      "inputs": [
        {
          "internalType": "address",
          "name": "operator",
          "type": "address"
        }
      ],
      "name": "ERC721InvalidOperator",
      "type": "error"
    },
    {
      "inputs": [
        {
          "internalType": "address",
          "name": "owner",
          "type": "address"
        }
      ],
      "name": "ERC721InvalidOwner",
      "type": "error"
    },
    {
      "inputs": [
        {
          "internalType": "address",
          "name": "receiver",
          "type": "address"
        }
      ],
      "name": "ERC721InvalidReceiver",
      "type": "error"
    },
    {
      "inputs": [
        {
          "internalType": "address",
          "name": "sender",
          "type": "address"
        }
      ],
      "name": "ERC721InvalidSender",
      "type": "error"
    },
    {
      "inputs": [
        {
          "internalType": "uint256",
          "name": "tokenId",
          "type": "uint256"
        }
      ],
      "name": "ERC721NonexistentToken",
      "type": "error"
    },
    {
      "inputs": [
        {
          "internalType": "address",
          "name": "token",
          "type": "address"
        }
      ],
      "name": "ERC721UnsupportedToken",
      "type": "error"
    },
    {
      "anonymous": false,
      "inputs": [
        {
          "indexed": true,
          "internalType": "address",
          "name": "owner",
          "type": "address"
        },
        {
          "indexed": true,
          "internalType": "address",
          "name": "approved",
          "type": "address"
        },
        {
          "indexed": true,
          "internalType": "uint256",
          "name": "tokenId",
          "type": "uint256"
        }
      ],
      "name": "Approval",
      "type": "event"
    },
    {
      "anonymous": false,
      "inputs": [
        {
          "indexed": true,
          "internalType": "address",
          "name": "owner",
          "type": "address"
        },
        {
          "indexed": true,
          "internalType": "address",
          "name": "operator",
          "type": "address"
        },
        {
          "indexed": false,
          "internalType": "bool",
          "name": "approved",
          "type": "bool"
        }
      ],
      "name": "ApprovalForAll",
      "type": "event"
    },
    {
      "anonymous": false,
      "inputs": [
        {
          "indexed": true,
          "internalType": "address",
          "name": "from",
          "type": "address"
        },
        {
          "indexed": true,
          "internalType": "address",
          "name": "to",
          "type": "address"
        },
        {
          "indexed": true,
          "internalType": "uint256",
          "name": "tokenId",
          "type": "uint256"
        }
      ],
      "name": "Transfer",
      "type": "event"
    },
    {
      "anonymous": false,
      "inputs": [
        {
          "indexed": false,
          "internalType": "uint256",
          "name": "ret0",
          "type": "uint256"
        }
      ],
      "name": "return$_recover",
      "type": "event"
    },
    {
      "inputs": [
        {
          "internalType": "address",
          "name": "account",
          "type": "address"
        },
        {
          "internalType": "uint256",
          "name": "value",
          "type": "uint256"
        }
      ],
      "name": "$__unsafe_increaseBalance",
      "outputs": [],
      "stateMutability": "nonpayable",
      "type": "function"
    },
    {
      "inputs": [
        {
          "internalType": "address",
          "name": "from",
          "type": "address"
        },
        {
          "internalType": "address",
          "name": "to",
          "type": "address"
        },
        {
          "internalType": "uint256",
          "name": "firstTokenId",
          "type": "uint256"
        },
        {
          "internalType": "uint256",
          "name": "batchSize",
          "type": "uint256"
        }
      ],
      "name": "$_afterTokenTransfer",
      "outputs": [],
      "stateMutability": "nonpayable",
      "type": "function"
    },
    {
      "inputs": [
        {
          "internalType": "address",
          "name": "to",
          "type": "address"
        },
        {
          "internalType": "uint256",
          "name": "tokenId",
          "type": "uint256"
        }
      ],
      "name": "$_approve",
      "outputs": [],
      "stateMutability": "nonpayable",
      "type": "function"
    },
    {
      "inputs": [],
      "name": "$_baseURI",
      "outputs": [
        {
          "internalType": "string",
          "name": "ret0",
          "type": "string"
        }
      ],
      "stateMutability": "view",
      "type": "function"
    },
    {
      "inputs": [
        {
          "internalType": "address",
          "name": "from",
          "type": "address"
        },
        {
          "internalType": "address",
          "name": "to",
          "type": "address"
        },
        {
          "internalType": "uint256",
          "name": "firstTokenId",
          "type": "uint256"
        },
        {
          "internalType": "uint256",
          "name": "batchSize",
          "type": "uint256"
        }
      ],
      "name": "$_beforeTokenTransfer",
      "outputs": [],
      "stateMutability": "nonpayable",
      "type": "function"
    },
    {
      "inputs": [
        {
          "internalType": "uint256",
          "name": "tokenId",
          "type": "uint256"
        }
      ],
      "name": "$_burn",
      "outputs": [],
      "stateMutability": "nonpayable",
      "type": "function"
    },
    {
      "inputs": [
        {
          "internalType": "uint256",
          "name": "tokenId",
          "type": "uint256"
        }
      ],
      "name": "$_exists",
      "outputs": [
        {
          "internalType": "bool",
          "name": "ret0",
          "type": "bool"
        }
      ],
      "stateMutability": "view",
      "type": "function"
    },
    {
      "inputs": [
        {
          "internalType": "address",
          "name": "spender",
          "type": "address"
        },
        {
          "internalType": "uint256",
          "name": "tokenId",
          "type": "uint256"
        }
      ],
      "name": "$_isApprovedOrOwner",
      "outputs": [
        {
          "internalType": "bool",
          "name": "ret0",
          "type": "bool"
        }
      ],
      "stateMutability": "view",
      "type": "function"
    },
    {
      "inputs": [
        {
          "internalType": "address",
          "name": "to",
          "type": "address"
        },
        {
          "internalType": "uint256",
          "name": "tokenId",
          "type": "uint256"
        }
      ],
      "name": "$_mint",
      "outputs": [],
      "stateMutability": "nonpayable",
      "type": "function"
    },
    {
      "inputs": [],
      "name": "$_msgData",
      "outputs": [
        {
          "internalType": "bytes",
          "name": "ret0",
          "type": "bytes"
        }
      ],
      "stateMutability": "view",
      "type": "function"
    },
    {
      "inputs": [],
      "name": "$_msgSender",
      "outputs": [
        {
          "internalType": "address",
          "name": "ret0",
          "type": "address"
        }
      ],
      "stateMutability": "view",
      "type": "function"
    },
    {
      "inputs": [
        {
          "internalType": "uint256",
          "name": "tokenId",
          "type": "uint256"
        }
      ],
      "name": "$_ownerOf",
      "outputs": [
        {
          "internalType": "address",
          "name": "ret0",
          "type": "address"
        }
      ],
      "stateMutability": "view",
      "type": "function"
    },
    {
      "inputs": [
        {
          "internalType": "address",
          "name": "account",
          "type": "address"
        },
        {
          "internalType": "uint256",
          "name": "tokenId",
          "type": "uint256"
        }
      ],
      "name": "$_recover",
      "outputs": [
        {
          "internalType": "uint256",
          "name": "ret0",
          "type": "uint256"
        }
      ],
      "stateMutability": "nonpayable",
      "type": "function"
    },
    {
      "inputs": [
        {
          "internalType": "uint256",
          "name": "tokenId",
          "type": "uint256"
        }
      ],
      "name": "$_requireMinted",
      "outputs": [],
      "stateMutability": "view",
      "type": "function"
    },
    {
      "inputs": [
        {
          "internalType": "address",
          "name": "to",
          "type": "address"
        },
        {
          "internalType": "uint256",
          "name": "tokenId",
          "type": "uint256"
        },
        {
          "internalType": "bytes",
          "name": "data",
          "type": "bytes"
        }
      ],
      "name": "$_safeMint",
      "outputs": [],
      "stateMutability": "nonpayable",
      "type": "function"
    },
    {
      "inputs": [
        {
          "internalType": "address",
          "name": "to",
          "type": "address"
        },
        {
          "internalType": "uint256",
          "name": "tokenId",
          "type": "uint256"
        }
      ],
      "name": "$_safeMint",
      "outputs": [],
      "stateMutability": "nonpayable",
      "type": "function"
    },
    {
      "inputs": [
        {
          "internalType": "address",
          "name": "from",
          "type": "address"
        },
        {
          "internalType": "address",
          "name": "to",
          "type": "address"
        },
        {
          "internalType": "uint256",
          "name": "tokenId",
          "type": "uint256"
        },
        {
          "internalType": "bytes",
          "name": "data",
          "type": "bytes"
        }
      ],
      "name": "$_safeTransfer",
      "outputs": [],
      "stateMutability": "nonpayable",
      "type": "function"
    },
    {
      "inputs": [
        {
          "internalType": "address",
          "name": "owner",
          "type": "address"
        },
        {
          "internalType": "address",
          "name": "operator",
          "type": "address"
        },
        {
          "internalType": "bool",
          "name": "approved",
          "type": "bool"
        }
      ],
      "name": "$_setApprovalForAll",
      "outputs": [],
      "stateMutability": "nonpayable",
      "type": "function"
    },
    {
      "inputs": [
        {
          "internalType": "address",
          "name": "from",
          "type": "address"
        },
        {
          "internalType": "address",
          "name": "to",
          "type": "address"
        },
        {
          "internalType": "uint256",
          "name": "tokenId",
          "type": "uint256"
        }
      ],
      "name": "$_transfer",
      "outputs": [],
      "stateMutability": "nonpayable",
      "type": "function"
    },
    {
      "inputs": [],
      "name": "__hh_exposed_bytecode_marker",
      "outputs": [
        {
          "internalType": "bytes32",
          "name": "",
          "type": "bytes32"
        }
      ],
      "stateMutability": "view",
      "type": "function"
    },
    {
      "inputs": [
        {
          "internalType": "address",
          "name": "to",
          "type": "address"
        },
        {
          "internalType": "uint256",
          "name": "tokenId",
          "type": "uint256"
        }
      ],
      "name": "approve",
      "outputs": [],
      "stateMutability": "nonpayable",
      "type": "function"
    },
    {
      "inputs": [
        {
          "internalType": "address",
          "name": "owner",
          "type": "address"
        }
      ],
      "name": "balanceOf",
      "outputs": [
        {
          "internalType": "uint256",
          "name": "",
          "type": "uint256"
        }
      ],
      "stateMutability": "view",
      "type": "function"
    },
    {
      "inputs": [
        {
          "internalType": "address",
          "name": "account",
          "type": "address"
        },
        {
          "internalType": "uint256[]",
          "name": "tokenIds",
          "type": "uint256[]"
        }
      ],
      "name": "depositFor",
      "outputs": [
        {
          "internalType": "bool",
          "name": "",
          "type": "bool"
        }
      ],
      "stateMutability": "nonpayable",
      "type": "function"
    },
    {
      "inputs": [
        {
          "internalType": "uint256",
          "name": "tokenId",
          "type": "uint256"
        }
      ],
      "name": "getApproved",
      "outputs": [
        {
          "internalType": "address",
          "name": "",
          "type": "address"
        }
      ],
      "stateMutability": "view",
      "type": "function"
    },
    {
      "inputs": [
        {
          "internalType": "address",
          "name": "owner",
          "type": "address"
        },
        {
          "internalType": "address",
          "name": "operator",
          "type": "address"
        }
      ],
      "name": "isApprovedForAll",
      "outputs": [
        {
          "internalType": "bool",
          "name": "",
          "type": "bool"
        }
      ],
      "stateMutability": "view",
      "type": "function"
    },
    {
      "inputs": [],
      "name": "name",
      "outputs": [
        {
          "internalType": "string",
          "name": "",
          "type": "string"
        }
      ],
      "stateMutability": "view",
      "type": "function"
    },
    {
      "inputs": [
        {
          "internalType": "address",
          "name": "",
          "type": "address"
        },
        {
          "internalType": "address",
          "name": "from",
          "type": "address"
        },
        {
          "internalType": "uint256",
          "name": "tokenId",
          "type": "uint256"
        },
        {
          "internalType": "bytes",
          "name": "",
          "type": "bytes"
        }
      ],
      "name": "onERC721Received",
      "outputs": [
        {
          "internalType": "bytes4",
          "name": "",
          "type": "bytes4"
        }
      ],
      "stateMutability": "nonpayable",
      "type": "function"
    },
    {
      "inputs": [
        {
          "internalType": "uint256",
          "name": "tokenId",
          "type": "uint256"
        }
      ],
      "name": "ownerOf",
      "outputs": [
        {
          "internalType": "address",
          "name": "",
          "type": "address"
        }
      ],
      "stateMutability": "view",
      "type": "function"
    },
    {
      "inputs": [
        {
          "internalType": "address",
          "name": "from",
          "type": "address"
        },
        {
          "internalType": "address",
          "name": "to",
          "type": "address"
        },
        {
          "internalType": "uint256",
          "name": "tokenId",
          "type": "uint256"
        }
      ],
      "name": "safeTransferFrom",
      "outputs": [],
      "stateMutability": "nonpayable",
      "type": "function"
    },
    {
      "inputs": [
        {
          "internalType": "address",
          "name": "from",
          "type": "address"
        },
        {
          "internalType": "address",
          "name": "to",
          "type": "address"
        },
        {
          "internalType": "uint256",
          "name": "tokenId",
          "type": "uint256"
        },
        {
          "internalType": "bytes",
          "name": "data",
          "type": "bytes"
        }
      ],
      "name": "safeTransferFrom",
      "outputs": [],
      "stateMutability": "nonpayable",
      "type": "function"
    },
    {
      "inputs": [
        {
          "internalType": "address",
          "name": "operator",
          "type": "address"
        },
        {
          "internalType": "bool",
          "name": "approved",
          "type": "bool"
        }
      ],
      "name": "setApprovalForAll",
      "outputs": [],
      "stateMutability": "nonpayable",
      "type": "function"
    },
    {
      "inputs": [
        {
          "internalType": "bytes4",
          "name": "interfaceId",
          "type": "bytes4"
        }
      ],
      "name": "supportsInterface",
      "outputs": [
        {
          "internalType": "bool",
          "name": "",
          "type": "bool"
        }
      ],
      "stateMutability": "view",
      "type": "function"
    },
    {
      "inputs": [],
      "name": "symbol",
      "outputs": [
        {
          "internalType": "string",
          "name": "",
          "type": "string"
        }
      ],
      "stateMutability": "view",
      "type": "function"
    },
    {
      "inputs": [
        {
          "internalType": "uint256",
          "name": "tokenId",
          "type": "uint256"
        }
      ],
      "name": "tokenURI",
      "outputs": [
        {
          "internalType": "string",
          "name": "",
          "type": "string"
        }
      ],
      "stateMutability": "view",
      "type": "function"
    },
    {
      "inputs": [
        {
          "internalType": "address",
          "name": "from",
          "type": "address"
        },
        {
          "internalType": "address",
          "name": "to",
          "type": "address"
        },
        {
          "internalType": "uint256",
          "name": "tokenId",
          "type": "uint256"
        }
      ],
      "name": "transferFrom",
      "outputs": [],
      "stateMutability": "nonpayable",
      "type": "function"
    },
    {
      "inputs": [],
      "name": "underlying",
      "outputs": [
        {
          "internalType": "contract IERC721",
          "name": "",
          "type": "address"
        }
      ],
      "stateMutability": "view",
      "type": "function"
    },
    {
      "inputs": [
        {
          "internalType": "address",
          "name": "account",
          "type": "address"
        },
        {
          "internalType": "uint256[]",
          "name": "tokenIds",
          "type": "uint256[]"
        }
      ],
      "name": "withdrawTo",
      "outputs": [
        {
          "internalType": "bool",
          "name": "",
          "type": "bool"
        }
      ],
      "stateMutability": "nonpayable",
      "type": "function"
    },
    {
      "stateMutability": "payable",
      "type": "receive"
    }
  ],
  "bytecode": "0x60a0604052604051620020e3380380620020e383398101604081905262000026916200011c565b8083835f6200003683826200022f565b5060016200004582826200022f565b5050506001600160a01b031660805250620002f7915050565b634e487b7160e01b5f52604160045260245ffd5b5f82601f83011262000082575f80fd5b81516001600160401b03808211156200009f576200009f6200005e565b604051601f8301601f19908116603f01168101908282118183101715620000ca57620000ca6200005e565b81604052838152602092508683858801011115620000e6575f80fd5b5f91505b83821015620001095785820183015181830184015290820190620000ea565b5f93810190920192909252949350505050565b5f805f606084860312156200012f575f80fd5b83516001600160401b038082111562000146575f80fd5b620001548783880162000072565b945060208601519150808211156200016a575f80fd5b50620001798682870162000072565b604086015190935090506001600160a01b038116811462000198575f80fd5b809150509250925092565b600181811c90821680620001b857607f821691505b602082108103620001d757634e487b7160e01b5f52602260045260245ffd5b50919050565b601f8211156200022a575f81815260208120601f850160051c81016020861015620002055750805b601f850160051c820191505b81811015620002265782815560010162000211565b5050505b505050565b81516001600160401b038111156200024b576200024b6200005e565b62000263816200025c8454620001a3565b84620001dd565b602080601f83116001811462000299575f8415620002815750858301515b5f19600386901b1c1916600185901b17855562000226565b5f85815260208120601f198616915b82811015620002c957888601518255948401946001909101908401620002a8565b5085821015620002e757878501515f19600388901b60f8161c191681555b5050505050600190811b01905550565b608051611db76200032c5f395f818161043b0152818161089901528181610ae301528181610d0001526114a30152611db75ff3fe608060405260043610610215575f3560e01c80637c1b126c1161011e578063c87b56dd116100a8578063d261af541161006d578063d261af5414610644578063e07084c2146102ec578063e985e9c514610663578063efb43b07146106aa578063f3023835146106c9575f80fd5b8063c87b56dd146105a9578063cace6eb2146105c8578063cc461d62146105e7578063cd43f47d14610606578063cfeea0d414610625575f80fd5b8063a22cb465116100ee578063a22cb4651461050e578063a2373a821461052d578063b88d4fde1461054c578063c37add511461056b578063c4a96fa61461058a575f80fd5b80637c1b126c1461049d57806395d89b41146104bc57806398a1f7a0146104d05780639ff2f02d146104ef575f80fd5b80632904df291161019f578063458ee0021161016f578063458ee002146103ef5780636352211e1461040e5780636f307dc31461042d57806370a082311461045f578063733555ec1461047e575f80fd5b80632904df291461037757806332cadf3c14610389578063342db7391461039d57806342842e0e146103d0575f80fd5b806309854d72116101e557806309854d72146102cd578063147619da146102ec578063150b7a021461030c578063161e977d1461034457806323b872dd14610358575f80fd5b806301ffc9a71461022057806306fdde0314610254578063081812fc14610275578063095ea7b3146102ac575f80fd5b3661021c57005b5f80fd5b34801561022b575f80fd5b5061023f61023a366004611753565b6106e8565b60405190151581526020015b60405180910390f35b34801561025f575f80fd5b50610268610739565b60405161024b91906117bb565b348015610280575f80fd5b5061029461028f3660046117cd565b6107c8565b6040516001600160a01b03909116815260200161024b565b3480156102b7575f80fd5b506102cb6102c63660046117f8565b6107ed565b005b3480156102d8575f80fd5b506102cb6102e73660046117cd565b61088a565b3480156102f7575f80fd5b506102cb610306366004611822565b50505050565b348015610317575f80fd5b5061032b6103263660046118aa565b610896565b6040516001600160e01b0319909116815260200161024b565b34801561034f575f80fd5b506102686108fe565b348015610363575f80fd5b506102cb610372366004611967565b610919565b348015610382575f80fd5b5033610294565b348015610394575f80fd5b50610268610961565b3480156103a8575f80fd5b506103c26e1a185c991a185d0b595e1c1bdcd959608a1b81565b60405190815260200161024b565b3480156103db575f80fd5b506102cb6103ea366004611967565b61099e565b3480156103fa575f80fd5b506102946104093660046117cd565b6109b8565b348015610419575f80fd5b506102946104283660046117cd565b6109d4565b348015610438575f80fd5b507f0000000000000000000000000000000000000000000000000000000000000000610294565b34801561046a575f80fd5b506103c26104793660046119a5565b610a0c565b348015610489575f80fd5b506102cb610498366004611a05565b610a51565b3480156104a8575f80fd5b5061023f6104b7366004611a73565b610a99565b3480156104c7575f80fd5b50610268610b84565b3480156104db575f80fd5b506102cb6104ea3660046117f8565b610b93565b3480156104fa575f80fd5b506102cb610509366004611b29565b610ba1565b348015610519575f80fd5b506102cb610528366004611b95565b610be1565b348015610538575f80fd5b506102cb6105473660046117cd565b610bec565b348015610557575f80fd5b506102cb6105663660046118aa565b610bf5565b348015610576575f80fd5b5061023f6105853660046117cd565b610c31565b348015610595575f80fd5b5061023f6105a43660046117f8565b610c4f565b3480156105b4575f80fd5b506102686105c33660046117cd565b610c61565b3480156105d3575f80fd5b5061023f6105e2366004611a73565b610cd0565b3480156105f2575f80fd5b506102cb6106013660046117f8565b610dad565b348015610611575f80fd5b506102cb6106203660046117f8565b610db7565b348015610630575f80fd5b506102cb61063f366004611bc8565b610dc1565b34801561064f575f80fd5b506102cb61065e3660046117f8565b610dcc565b34801561066e575f80fd5b5061023f61067d366004611c0c565b6001600160a01b039182165f90815260056020908152604080832093909416825291909152205460ff1690565b3480156106b5575f80fd5b506102cb6106c4366004611967565b610956565b3480156106d4575f80fd5b506103c26106e33660046117f8565b610dd6565b5f6001600160e01b031982166380ac58cd60e01b148061071857506001600160e01b03198216635b5e139f60e01b145b8061073357506301ffc9a760e01b6001600160e01b03198316145b92915050565b60605f805461074790611c43565b80601f016020809104026020016040519081016040528092919081815260200182805461077390611c43565b80156107be5780601f10610795576101008083540402835291602001916107be565b820191905f5260205f20905b8154815290600101906020018083116107a157829003601f168201915b5050505050905090565b5f6107d282610e22565b505f908152600460205260409020546001600160a01b031690565b5f6107f7826109d4565b9050806001600160a01b0316836001600160a01b03160361083b57604051630b61174360e31b81526001600160a01b03821660048201526024015b60405180910390fd5b336001600160a01b0382161480159061085b5750610859813361067d565b155b1561087b5760405163a9fbf51f60e01b8152336004820152602401610832565b6108858383610e59565b505050565b61089381610e22565b50565b5f7f00000000000000000000000000000000000000000000000000000000000000006001600160a01b031633146108e2576040516363ec1be360e11b8152336004820152602401610832565b6108ec8484610ec6565b50630a85bd0160e11b5b949350505050565b606061091460408051602081019091525f815290565b905090565b610924335b82610edf565b61095657335b60405163177e802f60e01b81526001600160a01b03909116600482015260248101829052604401610832565b610885838383610f5b565b60605f368080601f0160208091040260200160405190810160405280939291908181526020018383808284375f9201919091525092949350505050565b61088583838360405180602001604052805f815250610bf5565b5f818152600260205260408120546001600160a01b0316610733565b5f818152600260205260408120546001600160a01b03168061073357604051637e27328960e01b815260048101849052602401610832565b5f6001600160a01b038216610a36576040516322718ad960e21b81525f6004820152602401610832565b506001600160a01b03165f9081526003602052604090205490565b610a9285858585858080601f0160208091040260200160405190810160405280939291908181526020018383808284375f920191909152506110e592505050565b5050505050565b80515f90815b81811015610b79575f848281518110610aba57610aba611c7b565b60200260200101519050610ace61091e3390565b610ad8573361092a565b610ae181611124565b7f0000000000000000000000000000000000000000000000000000000000000000604051632142170760e11b81523060048201526001600160a01b0388811660248301526044820184905291909116906342842e0e906064015f604051808303815f87803b158015610b51575f80fd5b505af1158015610b63573d5f803e3d5ffd5b505050505080610b7290611ca3565b9050610a9f565b506001949350505050565b60606001805461074790611c43565b610b9d82826111d9565b5050565b610306848484848080601f0160208091040260200160405190810160405280939291908181526020018383808284375f9201919091525061120992505050565b610b9d338383611247565b61089381611124565b610bff3383610edf565b610c255760405163177e802f60e01b815233600482015260248101839052604401610832565b610306848484846110e5565b5f818152600260205260408120546001600160a01b03161515610733565b5f610c5a8383610edf565b9392505050565b6060610c6c82610e22565b5f610c8160408051602081019091525f815290565b90505f815111610c9f5760405180602001604052805f815250610c5a565b80610ca9846112f0565b604051602001610cba929190611cbb565b6040516020818303038152906040529392505050565b80515f90815b81811015610b79575f848281518110610cf157610cf1611c7b565b60200260200101519050610d227f000000000000000000000000000000000000000000000000000000000000000090565b6001600160a01b03166323b872dd336040516001600160e01b031960e084901b1681526001600160a01b039091166004820152306024820152604481018490526064015f604051808303815f87803b158015610d7c575f80fd5b505af1158015610d8e573d5f803e3d5ffd5b50505050610d9c8682610ec6565b50610da681611ca3565b9050610cd6565b610b9d8282611380565b610b9d8282610e59565b610885838383611247565b610b9d8282610ec6565b5f610de18383611481565b90507f1abff978536966f470533a0a53cd23b392e2a9d1672b0e18941e1f57949e7cdc81604051610e1491815260200190565b60405180910390a192915050565b5f818152600260205260409020546001600160a01b031661089357604051637e27328960e01b815260048101829052602401610832565b5f81815260046020526040902080546001600160a01b0319166001600160a01b0384169081179091558190610e8d826109d4565b6001600160a01b03167f8c5be1e5ebec7d5bd14f71427d1e84f3dd0314c0f7b2291e5b200ac8c7c3b92560405160405180910390a45050565b610b9d828260405180602001604052805f815250611209565b5f80610eea836109d4565b9050806001600160a01b0316846001600160a01b03161480610f3057506001600160a01b038082165f9081526005602090815260408083209388168352929052205460ff165b806108f65750836001600160a01b0316610f49846107c8565b6001600160a01b031614949350505050565b5f610f65826109d4565b9050836001600160a01b0316816001600160a01b031614610fb3576040516364283d7b60e01b81526001600160a01b0380861660048301526024820184905282166044820152606401610832565b6001600160a01b038316610fdc57604051633250574960e11b81525f6004820152602401610832565b610fe5826109d4565b9050836001600160a01b0316816001600160a01b031614611033576040516364283d7b60e01b81526001600160a01b0380861660048301526024820184905282166044820152606401610832565b5f82815260046020908152604080832080546001600160a01b03191690556001600160a01b038716835260039091528120805460019290611075908490611ce9565b90915550506001600160a01b038084165f81815260036020908152604080832080546001019055868352600290915280822080546001600160a01b031916841790555185938816917fddf252ad1be2c89b69c2b068fc378daa952ba7f163c4a11628f55a4df523b3ef91a4610306565b6110f0848484610f5b565b6110fc84848484611561565b61030657604051633250574960e11b81526001600160a01b0384166004820152602401610832565b5f61112e826109d4565b9050611139826109d4565b5f83815260046020908152604080832080546001600160a01b03191690556001600160a01b0384168352600390915281208054929350600192909190611180908490611ce9565b90915550505f8281526002602052604080822080546001600160a01b0319169055518391906001600160a01b038416907fddf252ad1be2c89b69c2b068fc378daa952ba7f163c4a11628f55a4df523b3ef908390a45050565b6001600160a01b0382165f9081526003602052604081208054839290611200908490611cfc565b90915550505050565b6112138383611380565b61121f5f848484611561565b61088557604051633250574960e11b81526001600160a01b0384166004820152602401610832565b816001600160a01b0316836001600160a01b03160361128457604051630b61174360e31b81526001600160a01b0384166004820152602401610832565b6001600160a01b038381165f81815260056020908152604080832094871680845294825291829020805460ff191686151590811790915591519182527f17307eab39ab6107e8899845ad3d59bd9653f200f220920489ca2b5937696c31910160405180910390a3505050565b60605f6112fc83611667565b60010190505f8167ffffffffffffffff81111561131b5761131b611865565b6040519080825280601f01601f191660200182016040528015611345576020820181803683370190505b5090508181016020015b5f19016f181899199a1a9b1b9c1cb0b131b232b360811b600a86061a8153600a850494508461134f57509392505050565b6001600160a01b0382166113a957604051633250574960e11b81525f6004820152602401610832565b5f818152600260205260409020546001600160a01b0316156113e0576040516339e3563760e11b81525f6004820152602401610832565b5f818152600260205260409020546001600160a01b031615611417576040516339e3563760e11b81525f6004820152602401610832565b6001600160a01b0382165f81815260036020908152604080832080546001019055848352600290915280822080546001600160a01b0319168417905551839291907fddf252ad1be2c89b69c2b068fc378daa952ba7f163c4a11628f55a4df523b3ef908290a45050565b6040516331a9108f60e11b8152600481018290525f9081906001600160a01b037f00000000000000000000000000000000000000000000000000000000000000001690636352211e90602401602060405180830381865afa1580156114e8573d5f803e3d5ffd5b505050506040513d601f19601f8201168201806040525081019061150c9190611d0f565b90506001600160a01b038116301461154f576040516364283d7b60e01b8152306004820152602481018490526001600160a01b0382166044820152606401610832565b6115598484610ec6565b509092915050565b5f6001600160a01b0384163b1561165f57604051630a85bd0160e11b81526001600160a01b0385169063150b7a02906115a4903390899088908890600401611d2a565b6020604051808303815f875af19250505080156115de575060408051601f3d908101601f191682019092526115db91810190611d66565b60015b611645573d80801561160b576040519150601f19603f3d011682016040523d82523d5f602084013e611610565b606091505b5080515f0361163d57604051633250574960e11b81526001600160a01b0386166004820152602401610832565b805181602001fd5b6001600160e01b031916630a85bd0160e11b1490506108f6565b5060016108f6565b5f8072184f03e93ff9f4daa797ed6e38ed64bf6a1f0160401b83106116a55772184f03e93ff9f4daa797ed6e38ed64bf6a1f0160401b830492506040015b6d04ee2d6d415b85acef810000000083106116d1576d04ee2d6d415b85acef8100000000830492506020015b662386f26fc1000083106116ef57662386f26fc10000830492506010015b6305f5e1008310611707576305f5e100830492506008015b612710831061171b57612710830492506004015b6064831061172d576064830492506002015b600a83106107335760010192915050565b6001600160e01b031981168114610893575f80fd5b5f60208284031215611763575f80fd5b8135610c5a8161173e565b5f5b83811015611788578181015183820152602001611770565b50505f910152565b5f81518084526117a781602086016020860161176e565b601f01601f19169290920160200192915050565b602081525f610c5a6020830184611790565b5f602082840312156117dd575f80fd5b5035919050565b6001600160a01b0381168114610893575f80fd5b5f8060408385031215611809575f80fd5b8235611814816117e4565b946020939093013593505050565b5f805f8060808587031215611835575f80fd5b8435611840816117e4565b93506020850135611850816117e4565b93969395505050506040820135916060013590565b634e487b7160e01b5f52604160045260245ffd5b604051601f8201601f1916810167ffffffffffffffff811182821017156118a2576118a2611865565b604052919050565b5f805f80608085870312156118bd575f80fd5b84356118c8816117e4565b93506020858101356118d9816117e4565b935060408601359250606086013567ffffffffffffffff808211156118fc575f80fd5b818801915088601f83011261190f575f80fd5b81358181111561192157611921611865565b611933601f8201601f19168501611879565b91508082528984828501011115611948575f80fd5b80848401858401375f8482840101525080935050505092959194509250565b5f805f60608486031215611979575f80fd5b8335611984816117e4565b92506020840135611994816117e4565b929592945050506040919091013590565b5f602082840312156119b5575f80fd5b8135610c5a816117e4565b5f8083601f8401126119d0575f80fd5b50813567ffffffffffffffff8111156119e7575f80fd5b6020830191508360208285010111156119fe575f80fd5b9250929050565b5f805f805f60808688031215611a19575f80fd5b8535611a24816117e4565b94506020860135611a34816117e4565b935060408601359250606086013567ffffffffffffffff811115611a56575f80fd5b611a62888289016119c0565b969995985093965092949392505050565b5f8060408385031215611a84575f80fd5b8235611a8f816117e4565b915060208381013567ffffffffffffffff80821115611aac575f80fd5b818601915086601f830112611abf575f80fd5b813581811115611ad157611ad1611865565b8060051b9150611ae2848301611879565b8181529183018401918481019089841115611afb575f80fd5b938501935b83851015611b1957843582529385019390850190611b00565b8096505050505050509250929050565b5f805f8060608587031215611b3c575f80fd5b8435611b47816117e4565b935060208501359250604085013567ffffffffffffffff811115611b69575f80fd5b611b75878288016119c0565b95989497509550505050565b80358015158114611b90575f80fd5b919050565b5f8060408385031215611ba6575f80fd5b8235611bb1816117e4565b9150611bbf60208401611b81565b90509250929050565b5f805f60608486031215611bda575f80fd5b8335611be5816117e4565b92506020840135611bf5816117e4565b9150611c0360408501611b81565b90509250925092565b5f8060408385031215611c1d575f80fd5b8235611c28816117e4565b91506020830135611c38816117e4565b809150509250929050565b600181811c90821680611c5757607f821691505b602082108103611c7557634e487b7160e01b5f52602260045260245ffd5b50919050565b634e487b7160e01b5f52603260045260245ffd5b634e487b7160e01b5f52601160045260245ffd5b5f60018201611cb457611cb4611c8f565b5060010190565b5f8351611ccc81846020880161176e565b835190830190611ce081836020880161176e565b01949350505050565b8181038181111561073357610733611c8f565b8082018082111561073357610733611c8f565b5f60208284031215611d1f575f80fd5b8151610c5a816117e4565b6001600160a01b03858116825284166020820152604081018390526080606082018190525f90611d5c90830184611790565b9695505050505050565b5f60208284031215611d76575f80fd5b8151610c5a8161173e56fea264697066735822122093c9521f35f6c20fa7793af380d8fb98f217b1a782c432ca129018b0433d757364736f6c63430008140033",
  "linkReferences": {},
  "deployedLinkReferences": {}
}