{
  "_format": "hh-sol-artifact-1",
  "contractName": "$ContextMockCaller",
  "sourceName": "contracts-exposed/mocks/ContextMock.sol",
  "abi": [
    {
      "inputs": [],
      "stateMutability": "payable",
      "type": "constructor"
    },
    {
      "inputs": [],
      "name": "__hh_exposed_bytecode_marker",
      "outputs": [
        {
          "internalType": "bytes32",
          "name": "",
          "type": "bytes32"
        }
      ],
      "stateMutability": "view",
      "type": "function"
    },
    {
      "inputs": [
        {
          "internalType": "contract ContextMock",
          "name": "context",
          "type": "address"
        },
        {
          "internalType": "uint256",
          "name": "integerValue",
          "type": "uint256"
        },
        {
          "internalType": "string",
          "name": "stringValue",
          "type": "string"
        }
      ],
      "name": "callData",
      "outputs": [],
      "stateMutability": "nonpayable",
      "type": "function"
    },
    {
      "inputs": [
        {
          "internalType": "contract ContextMock",
          "name": "context",
          "type": "address"
        }
      ],
      "name": "callSender",
      "outputs": [],
      "stateMutability": "nonpayable",
      "type": "function"
    },
    {
      "stateMutability": "payable",
      "type": "receive"
    }
  ],
  "bytecode": "0x6080604052610304806100115f395ff3fe608060405260043610610035575f3560e01c8062860459146100405780633207ad9614610061578063342db73914610080575f80fd5b3661003c57005b5f80fd5b34801561004b575f80fd5b5061005f61005a366004610197565b6100b7565b005b34801561006c575f80fd5b5061005f61007b36600461025b565b610117565b34801561008b575f80fd5b506100a56e1a185c991a185d0b595e1c1bdcd959608a1b81565b60405190815260200160405180910390f35b604051631bb5f93160e11b81526001600160a01b0384169063376bf262906100e5908590859060040161027b565b5f604051808303815f87803b1580156100fc575f80fd5b505af115801561010e573d5f803e3d5ffd5b50505050505050565b806001600160a01b031663d737d0c76040518163ffffffff1660e01b81526004015f604051808303815f87803b15801561014f575f80fd5b505af1158015610161573d5f803e3d5ffd5b5050505050565b80356001600160a01b038116811461017e575f80fd5b919050565b634e487b7160e01b5f52604160045260245ffd5b5f805f606084860312156101a9575f80fd5b6101b284610168565b925060208401359150604084013567ffffffffffffffff808211156101d5575f80fd5b818601915086601f8301126101e8575f80fd5b8135818111156101fa576101fa610183565b604051601f8201601f19908116603f0116810190838211818310171561022257610222610183565b8160405282815289602084870101111561023a575f80fd5b826020860160208301375f6020848301015280955050505050509250925092565b5f6020828403121561026b575f80fd5b61027482610168565b9392505050565b8281525f602060408184015283518060408501525f5b818110156102ad57858101830151858201606001528201610291565b505f606082860101526060601f19601f83011685010192505050939250505056fea2646970667358221220ca11ce8139e238713ae8da6dbbef99d0cf73ad4a8040e5bda29584810f227f2b64736f6c63430008140033",
  "linkReferences": {},
  "deployedLinkReferences": {}
}