{
  "_format": "hh-sol-artifact-1",
  "contractName": "$ContextMock",
  "sourceName": "contracts-exposed/mocks/ContextMock.sol",
  "abi": [
    {
      "inputs": [],
      "stateMutability": "payable",
      "type": "constructor"
    },
    {
      "anonymous": false,
      "inputs": [
        {
          "indexed": false,
          "internalType": "bytes",
          "name": "data",
          "type": "bytes"
        },
        {
          "indexed": false,
          "internalType": "uint256",
          "name": "integerValue",
          "type": "uint256"
        },
        {
          "indexed": false,
          "internalType": "string",
          "name": "stringValue",
          "type": "string"
        }
      ],
      "name": "Data",
      "type": "event"
    },
    {
      "anonymous": false,
      "inputs": [
        {
          "indexed": false,
          "internalType": "address",
          "name": "sender",
          "type": "address"
        }
      ],
      "name": "Sender",
      "type": "event"
    },
    {
      "inputs": [],
      "name": "$_msgData",
      "outputs": [
        {
          "internalType": "bytes",
          "name": "ret0",
          "type": "bytes"
        }
      ],
      "stateMutability": "view",
      "type": "function"
    },
    {
      "inputs": [],
      "name": "$_msgSender",
      "outputs": [
        {
          "internalType": "address",
          "name": "ret0",
          "type": "address"
        }
      ],
      "stateMutability": "view",
      "type": "function"
    },
    {
      "inputs": [],
      "name": "__hh_exposed_bytecode_marker",
      "outputs": [
        {
          "internalType": "bytes32",
          "name": "",
          "type": "bytes32"
        }
      ],
      "stateMutability": "view",
      "type": "function"
    },
    {
      "inputs": [
        {
          "internalType": "uint256",
          "name": "integerValue",
          "type": "uint256"
        },
        {
          "internalType": "string",
          "name": "stringValue",
          "type": "string"
        }
      ],
      "name": "msgData",
      "outputs": [],
      "stateMutability": "nonpayable",
      "type": "function"
    },
    {
      "inputs": [],
      "name": "msgSender",
      "outputs": [],
      "stateMutability": "nonpayable",
      "type": "function"
    },
    {
      "stateMutability": "payable",
      "type": "receive"
    }
  ],
  "bytecode": "0x608060405261035a806100115f395ff3fe60806040526004361061004c575f3560e01c80632904df291461005757806332cadf3c14610076578063342db73914610097578063376bf262146100ca578063d737d0c7146100eb575f80fd5b3661005357005b5f80fd5b348015610062575f80fd5b506040513381526020015b60405180910390f35b348015610081575f80fd5b5061008a6100ff565b60405161006d91906101f5565b3480156100a2575f80fd5b506100bc6e1a185c991a185d0b595e1c1bdcd959608a1b81565b60405190815260200161006d565b3480156100d5575f80fd5b506100e96100e4366004610222565b61013c565b005b3480156100f6575f80fd5b506100e961017d565b60605f368080601f0160208091040260200160405190810160405280939291908181526020018383808284375f9201919091525092949350505050565b7faf235354a0a47c91ee171961326335cb2d1a8e55b8a89859b0e61eb049e50ea05f36848460405161017194939291906102d7565b60405180910390a15050565b6040805133815290517fd6558c3ed910d959271054471fd1c326679d9fece99c5091b00ed89627cf2bfc9181900360200190a1565b5f81518084525f5b818110156101d6576020818501810151868301820152016101ba565b505f602082860101526020601f19601f83011685010191505092915050565b602081525f61020760208301846101b2565b9392505050565b634e487b7160e01b5f52604160045260245ffd5b5f8060408385031215610233575f80fd5b82359150602083013567ffffffffffffffff80821115610251575f80fd5b818501915085601f830112610264575f80fd5b8135818111156102765761027661020e565b604051601f8201601f19908116603f0116810190838211818310171561029e5761029e61020e565b816040528281528860208487010111156102b6575f80fd5b826020860160208301375f6020848301015280955050505050509250929050565b60608152836060820152838560808301375f608085830101525f601f19601f8601168201846020840152608083820301604084015261031960808201856101b2565b97965050505050505056fea26469706673582212205167096286c5777839eab999b8e91722986a6a0cdc6d82e837a397691427364264736f6c63430008140033",
  "linkReferences": {},
  "deployedLinkReferences": {}
}