{
  "_format": "hh-sol-artifact-1",
  "contractName": "MyTokenTimestampBased",
  "sourceName": "contracts/mocks/docs/governance/MyTokenTimestampBased.sol",
  "abi": [
    {
      "inputs": [],
      "stateMutability": "nonpayable",
      "type": "constructor"
    },
    {
      "inputs": [],
      "name": "CheckpointUnorderedInsertion",
      "type": "error"
    },
    {
      "inputs": [],
      "name": "ECDSAInvalidSignature",
      "type": "error"
    },
    {
      "inputs": [
        {
          "internalType": "uint256",
          "name": "length",
          "type": "uint256"
        }
      ],
      "name": "ECDSAInvalidSignatureLength",
      "type": "error"
    },
    {
      "inputs": [
        {
          "internalType": "bytes32",
          "name": "s",
          "type": "bytes32"
        }
      ],
      "name": "ECDSAInvalidSignatureS",
      "type": "error"
    },
    {
      "inputs": [
        {
          "internalType": "uint256",
          "name": "increasedSupply",
          "type": "uint256"
        },
        {
          "internalType": "uint256",
          "name": "cap",
          "type": "uint256"
        }
      ],
      "name": "ERC20ExceededSafeSupply",
      "type": "error"
    },
    {
      "inputs": [
        {
          "internalType": "address",
          "name": "spender",
          "type": "address"
        },
        {
          "internalType": "uint256",
          "name": "currentAllowance",
          "type": "uint256"
        },
        {
          "internalType": "uint256",
          "name": "requestedDecrease",
          "type": "uint256"
        }
      ],
      "name": "ERC20FailedDecreaseAllowance",
      "type": "error"
    },
    {
      "inputs": [
        {
          "internalType": "address",
          "name": "spender",
          "type": "address"
        },
        {
          "internalType": "uint256",
          "name": "allowance",
          "type": "uint256"
        },
        {
          "internalType": "uint256",
          "name": "needed",
          "type": "uint256"
        }
      ],
      "name": "ERC20InsufficientAllowance",
      "type": "error"
    },
    {
      "inputs": [
        {
          "internalType": "address",
          "name": "sender",
          "type": "address"
        },
        {
          "internalType": "uint256",
          "name": "balance",
          "type": "uint256"
        },
        {
          "internalType": "uint256",
          "name": "needed",
          "type": "uint256"
        }
      ],
      "name": "ERC20InsufficientBalance",
      "type": "error"
    },
    {
      "inputs": [
        {
          "internalType": "address",
          "name": "approver",
          "type": "address"
        }
      ],
      "name": "ERC20InvalidApprover",
      "type": "error"
    },
    {
      "inputs": [
        {
          "internalType": "address",
          "name": "receiver",
          "type": "address"
        }
      ],
      "name": "ERC20InvalidReceiver",
      "type": "error"
    },
    {
      "inputs": [
        {
          "internalType": "address",
          "name": "sender",
          "type": "address"
        }
      ],
      "name": "ERC20InvalidSender",
      "type": "error"
    },
    {
      "inputs": [
        {
          "internalType": "address",
          "name": "spender",
          "type": "address"
        }
      ],
      "name": "ERC20InvalidSpender",
      "type": "error"
    },
    {
      "inputs": [
        {
          "internalType": "uint256",
          "name": "deadline",
          "type": "uint256"
        }
      ],
      "name": "ERC2612ExpiredSignature",
      "type": "error"
    },
    {
      "inputs": [
        {
          "internalType": "address",
          "name": "signer",
          "type": "address"
        },
        {
          "internalType": "address",
          "name": "owner",
          "type": "address"
        }
      ],
      "name": "ERC2612InvalidSigner",
      "type": "error"
    },
    {
      "inputs": [
        {
          "internalType": "uint256",
          "name": "timepoint",
          "type": "uint256"
        },
        {
          "internalType": "uint48",
          "name": "clock",
          "type": "uint48"
        }
      ],
      "name": "ERC5805FutureLookup",
      "type": "error"
    },
    {
      "inputs": [],
      "name": "ERC6372InconsistentClock",
      "type": "error"
    },
    {
      "inputs": [
        {
          "internalType": "address",
          "name": "account",
          "type": "address"
        },
        {
          "internalType": "uint256",
          "name": "currentNonce",
          "type": "uint256"
        }
      ],
      "name": "InvalidAccountNonce",
      "type": "error"
    },
    {
      "inputs": [],
      "name": "InvalidShortString",
      "type": "error"
    },
    {
      "inputs": [
        {
          "internalType": "uint8",
          "name": "bits",
          "type": "uint8"
        },
        {
          "internalType": "uint256",
          "name": "value",
          "type": "uint256"
        }
      ],
      "name": "SafeCastOverflowedUintDowncast",
      "type": "error"
    },
    {
      "inputs": [
        {
          "internalType": "string",
          "name": "str",
          "type": "string"
        }
      ],
      "name": "StringTooLong",
      "type": "error"
    },
    {
      "inputs": [
        {
          "internalType": "uint256",
          "name": "expiry",
          "type": "uint256"
        }
      ],
      "name": "VotesExpiredSignature",
      "type": "error"
    },
    {
      "anonymous": false,
      "inputs": [
        {
          "indexed": true,
          "internalType": "address",
          "name": "owner",
          "type": "address"
        },
        {
          "indexed": true,
          "internalType": "address",
          "name": "spender",
          "type": "address"
        },
        {
          "indexed": false,
          "internalType": "uint256",
          "name": "value",
          "type": "uint256"
        }
      ],
      "name": "Approval",
      "type": "event"
    },
    {
      "anonymous": false,
      "inputs": [
        {
          "indexed": true,
          "internalType": "address",
          "name": "delegator",
          "type": "address"
        },
        {
          "indexed": true,
          "internalType": "address",
          "name": "fromDelegate",
          "type": "address"
        },
        {
          "indexed": true,
          "internalType": "address",
          "name": "toDelegate",
          "type": "address"
        }
      ],
      "name": "DelegateChanged",
      "type": "event"
    },
    {
      "anonymous": false,
      "inputs": [
        {
          "indexed": true,
          "internalType": "address",
          "name": "delegate",
          "type": "address"
        },
        {
          "indexed": false,
          "internalType": "uint256",
          "name": "previousVotes",
          "type": "uint256"
        },
        {
          "indexed": false,
          "internalType": "uint256",
          "name": "newVotes",
          "type": "uint256"
        }
      ],
      "name": "DelegateVotesChanged",
      "type": "event"
    },
    {
      "anonymous": false,
      "inputs": [],
      "name": "EIP712DomainChanged",
      "type": "event"
    },
    {
      "anonymous": false,
      "inputs": [
        {
          "indexed": true,
          "internalType": "address",
          "name": "from",
          "type": "address"
        },
        {
          "indexed": true,
          "internalType": "address",
          "name": "to",
          "type": "address"
        },
        {
          "indexed": false,
          "internalType": "uint256",
          "name": "value",
          "type": "uint256"
        }
      ],
      "name": "Transfer",
      "type": "event"
    },
    {
      "inputs": [],
      "name": "CLOCK_MODE",
      "outputs": [
        {
          "internalType": "string",
          "name": "",
          "type": "string"
        }
      ],
      "stateMutability": "pure",
      "type": "function"
    },
    {
      "inputs": [],
      "name": "DOMAIN_SEPARATOR",
      "outputs": [
        {
          "internalType": "bytes32",
          "name": "",
          "type": "bytes32"
        }
      ],
      "stateMutability": "view",
      "type": "function"
    },
    {
      "inputs": [
        {
          "internalType": "address",
          "name": "owner",
          "type": "address"
        },
        {
          "internalType": "address",
          "name": "spender",
          "type": "address"
        }
      ],
      "name": "allowance",
      "outputs": [
        {
          "internalType": "uint256",
          "name": "",
          "type": "uint256"
        }
      ],
      "stateMutability": "view",
      "type": "function"
    },
    {
      "inputs": [
        {
          "internalType": "address",
          "name": "spender",
          "type": "address"
        },
        {
          "internalType": "uint256",
          "name": "value",
          "type": "uint256"
        }
      ],
      "name": "approve",
      "outputs": [
        {
          "internalType": "bool",
          "name": "",
          "type": "bool"
        }
      ],
      "stateMutability": "nonpayable",
      "type": "function"
    },
    {
      "inputs": [
        {
          "internalType": "address",
          "name": "account",
          "type": "address"
        }
      ],
      "name": "balanceOf",
      "outputs": [
        {
          "internalType": "uint256",
          "name": "",
          "type": "uint256"
        }
      ],
      "stateMutability": "view",
      "type": "function"
    },
    {
      "inputs": [
        {
          "internalType": "address",
          "name": "account",
          "type": "address"
        },
        {
          "internalType": "uint32",
          "name": "pos",
          "type": "uint32"
        }
      ],
      "name": "checkpoints",
      "outputs": [
        {
          "components": [
            {
              "internalType": "uint32",
              "name": "_key",
              "type": "uint32"
            },
            {
              "internalType": "uint224",
              "name": "_value",
              "type": "uint224"
            }
          ],
          "internalType": "struct Checkpoints.Checkpoint224",
          "name": "",
          "type": "tuple"
        }
      ],
      "stateMutability": "view",
      "type": "function"
    },
    {
      "inputs": [],
      "name": "clock",
      "outputs": [
        {
          "internalType": "uint48",
          "name": "",
          "type": "uint48"
        }
      ],
      "stateMutability": "view",
      "type": "function"
    },
    {
      "inputs": [],
      "name": "decimals",
      "outputs": [
        {
          "internalType": "uint8",
          "name": "",
          "type": "uint8"
        }
      ],
      "stateMutability": "view",
      "type": "function"
    },
    {
      "inputs": [
        {
          "internalType": "address",
          "name": "spender",
          "type": "address"
        },
        {
          "internalType": "uint256",
          "name": "requestedDecrease",
          "type": "uint256"
        }
      ],
      "name": "decreaseAllowance",
      "outputs": [
        {
          "internalType": "bool",
          "name": "",
          "type": "bool"
        }
      ],
      "stateMutability": "nonpayable",
      "type": "function"
    },
    {
      "inputs": [
        {
          "internalType": "address",
          "name": "delegatee",
          "type": "address"
        }
      ],
      "name": "delegate",
      "outputs": [],
      "stateMutability": "nonpayable",
      "type": "function"
    },
    {
      "inputs": [
        {
          "internalType": "address",
          "name": "delegatee",
          "type": "address"
        },
        {
          "internalType": "uint256",
          "name": "nonce",
          "type": "uint256"
        },
        {
          "internalType": "uint256",
          "name": "expiry",
          "type": "uint256"
        },
        {
          "internalType": "uint8",
          "name": "v",
          "type": "uint8"
        },
        {
          "internalType": "bytes32",
          "name": "r",
          "type": "bytes32"
        },
        {
          "internalType": "bytes32",
          "name": "s",
          "type": "bytes32"
        }
      ],
      "name": "delegateBySig",
      "outputs": [],
      "stateMutability": "nonpayable",
      "type": "function"
    },
    {
      "inputs": [
        {
          "internalType": "address",
          "name": "account",
          "type": "address"
        }
      ],
      "name": "delegates",
      "outputs": [
        {
          "internalType": "address",
          "name": "",
          "type": "address"
        }
      ],
      "stateMutability": "view",
      "type": "function"
    },
    {
      "inputs": [],
      "name": "eip712Domain",
      "outputs": [
        {
          "internalType": "bytes1",
          "name": "fields",
          "type": "bytes1"
        },
        {
          "internalType": "string",
          "name": "name",
          "type": "string"
        },
        {
          "internalType": "string",
          "name": "version",
          "type": "string"
        },
        {
          "internalType": "uint256",
          "name": "chainId",
          "type": "uint256"
        },
        {
          "internalType": "address",
          "name": "verifyingContract",
          "type": "address"
        },
        {
          "internalType": "bytes32",
          "name": "salt",
          "type": "bytes32"
        },
        {
          "internalType": "uint256[]",
          "name": "extensions",
          "type": "uint256[]"
        }
      ],
      "stateMutability": "view",
      "type": "function"
    },
    {
      "inputs": [
        {
          "internalType": "uint256",
          "name": "timepoint",
          "type": "uint256"
        }
      ],
      "name": "getPastTotalSupply",
      "outputs": [
        {
          "internalType": "uint256",
          "name": "",
          "type": "uint256"
        }
      ],
      "stateMutability": "view",
      "type": "function"
    },
    {
      "inputs": [
        {
          "internalType": "address",
          "name": "account",
          "type": "address"
        },
        {
          "internalType": "uint256",
          "name": "timepoint",
          "type": "uint256"
        }
      ],
      "name": "getPastVotes",
      "outputs": [
        {
          "internalType": "uint256",
          "name": "",
          "type": "uint256"
        }
      ],
      "stateMutability": "view",
      "type": "function"
    },
    {
      "inputs": [
        {
          "internalType": "address",
          "name": "account",
          "type": "address"
        }
      ],
      "name": "getVotes",
      "outputs": [
        {
          "internalType": "uint256",
          "name": "",
          "type": "uint256"
        }
      ],
      "stateMutability": "view",
      "type": "function"
    },
    {
      "inputs": [
        {
          "internalType": "address",
          "name": "spender",
          "type": "address"
        },
        {
          "internalType": "uint256",
          "name": "addedValue",
          "type": "uint256"
        }
      ],
      "name": "increaseAllowance",
      "outputs": [
        {
          "internalType": "bool",
          "name": "",
          "type": "bool"
        }
      ],
      "stateMutability": "nonpayable",
      "type": "function"
    },
    {
      "inputs": [],
      "name": "name",
      "outputs": [
        {
          "internalType": "string",
          "name": "",
          "type": "string"
        }
      ],
      "stateMutability": "view",
      "type": "function"
    },
    {
      "inputs": [
        {
          "internalType": "address",
          "name": "owner",
          "type": "address"
        }
      ],
      "name": "nonces",
      "outputs": [
        {
          "internalType": "uint256",
          "name": "",
          "type": "uint256"
        }
      ],
      "stateMutability": "view",
      "type": "function"
    },
    {
      "inputs": [
        {
          "internalType": "address",
          "name": "account",
          "type": "address"
        }
      ],
      "name": "numCheckpoints",
      "outputs": [
        {
          "internalType": "uint32",
          "name": "",
          "type": "uint32"
        }
      ],
      "stateMutability": "view",
      "type": "function"
    },
    {
      "inputs": [
        {
          "internalType": "address",
          "name": "owner",
          "type": "address"
        },
        {
          "internalType": "address",
          "name": "spender",
          "type": "address"
        },
        {
          "internalType": "uint256",
          "name": "value",
          "type": "uint256"
        },
        {
          "internalType": "uint256",
          "name": "deadline",
          "type": "uint256"
        },
        {
          "internalType": "uint8",
          "name": "v",
          "type": "uint8"
        },
        {
          "internalType": "bytes32",
          "name": "r",
          "type": "bytes32"
        },
        {
          "internalType": "bytes32",
          "name": "s",
          "type": "bytes32"
        }
      ],
      "name": "permit",
      "outputs": [],
      "stateMutability": "nonpayable",
      "type": "function"
    },
    {
      "inputs": [],
      "name": "symbol",
      "outputs": [
        {
          "internalType": "string",
          "name": "",
          "type": "string"
        }
      ],
      "stateMutability": "view",
      "type": "function"
    },
    {
      "inputs": [],
      "name": "totalSupply",
      "outputs": [
        {
          "internalType": "uint256",
          "name": "",
          "type": "uint256"
        }
      ],
      "stateMutability": "view",
      "type": "function"
    },
    {
      "inputs": [
        {
          "internalType": "address",
          "name": "to",
          "type": "address"
        },
        {
          "internalType": "uint256",
          "name": "value",
          "type": "uint256"
        }
      ],
      "name": "transfer",
      "outputs": [
        {
          "internalType": "bool",
          "name": "",
          "type": "bool"
        }
      ],
      "stateMutability": "nonpayable",
      "type": "function"
    },
    {
      "inputs": [
        {
          "internalType": "address",
          "name": "from",
          "type": "address"
        },
        {
          "internalType": "address",
          "name": "to",
          "type": "address"
        },
        {
          "internalType": "uint256",
          "name": "value",
          "type": "uint256"
        }
      ],
      "name": "transferFrom",
      "outputs": [
        {
          "internalType": "bool",
          "name": "",
          "type": "bool"
        }
      ],
      "stateMutability": "nonpayable",
      "type": "function"
    }
  ],
  "bytecode": "0x61016060405234801562000011575f80fd5b506040518060400160405280601581526020017f4d79546f6b656e54696d657374616d704261736564000000000000000000000081525080604051806040016040528060018152602001603160f81b8152506040518060400160405280601581526020017f4d79546f6b656e54696d657374616d7042617365640000000000000000000000815250604051806040016040528060038152602001624d544b60e81b8152508160039081620000c69190620002b8565b506004620000d58282620002b8565b50620000e79150839050600562000195565b61012052620000f881600662000195565b61014052815160208084019190912060e052815190820120610100524660a0526200018560e05161010051604080517f8b73c3c69bb8fe3d512ecc4cf759cc79239f7b179b0ffacaa9a75d522b39400f60208201529081019290925260608201524660808201523060a08201525f9060c00160405160208183030381529060405280519060200120905090565b60805250503060c05250620003f1565b5f602083511015620001b457620001ac83620001cd565b9050620001c7565b81620001c18482620002b8565b5060ff90505b92915050565b5f80829050601f8151111562000203578260405163305a27a960e01b8152600401620001fa919062000380565b60405180910390fd5b80516200021082620003cd565b179392505050565b634e487b7160e01b5f52604160045260245ffd5b600181811c908216806200024157607f821691505b6020821081036200026057634e487b7160e01b5f52602260045260245ffd5b50919050565b601f821115620002b3575f81815260208120601f850160051c810160208610156200028e5750805b601f850160051c820191505b81811015620002af578281556001016200029a565b5050505b505050565b81516001600160401b03811115620002d457620002d462000218565b620002ec81620002e584546200022c565b8462000266565b602080601f83116001811462000322575f84156200030a5750858301515b5f19600386901b1c1916600185901b178555620002af565b5f85815260208120601f198616915b82811015620003525788860151825594840194600190910190840162000331565b50858210156200037057878501515f19600388901b60f8161c191681555b5050505050600190811b01905550565b5f6020808352835180828501525f5b81811015620003ad578581018301518582016040015282016200038f565b505f604082860101526040601f19601f8301168501019250505092915050565b8051602080830151919081101562000260575f1960209190910360031b1b16919050565b60805160a05160c05160e051610100516101205161014051611d80620004435f395f610ccf01525f610ca201525f610aba01525f610a9201525f6109ed01525f610a1701525f610a410152611d805ff3fe608060405234801561000f575f80fd5b506004361061016d575f3560e01c806370a08231116100d95780639ab24eb011610093578063c3cda5201161006e578063c3cda5201461037e578063d505accf14610391578063dd62ed3e146103a4578063f1127ed8146103b7575f80fd5b80639ab24eb014610345578063a457c2d714610358578063a9059cbb1461036b575f80fd5b806370a08231146102be5780637ecebe00146102e657806384b0196e146102f95780638e539e8c1461031457806391ddadf41461032757806395d89b411461033d575f80fd5b8063395093511161012a57806339509351146101ee5780633a46b1a8146102015780634bf5d7e914610214578063587cde1e1461023e5780635c19a95c146102815780636fcfff4514610296575f80fd5b806306fdde0314610171578063095ea7b31461018f57806318160ddd146101b257806323b872dd146101c4578063313ce567146101d75780633644e515146101e6575b5f80fd5b6101796103f4565b60405161018691906119ad565b60405180910390f35b6101a261019d3660046119da565b610484565b6040519015158152602001610186565b6002545b604051908152602001610186565b6101a26101d2366004611a02565b61049d565b60405160128152602001610186565b6101b66104c0565b6101a26101fc3660046119da565b6104ce565b6101b661020f3660046119da565b6104ef565b60408051808201909152600e81526d06d6f64653d74696d657374616d760941b6020820152610179565b61026961024c366004611a3b565b6001600160a01b039081165f908152600860205260409020541690565b6040516001600160a01b039091168152602001610186565b61029461028f366004611a3b565b610569565b005b6102a96102a4366004611a3b565b610578565b60405163ffffffff9091168152602001610186565b6101b66102cc366004611a3b565b6001600160a01b03165f9081526020819052604090205490565b6101b66102f4366004611a3b565b610582565b61030161058c565b6040516101869796959493929190611a54565b6101b6610322366004611ae8565b6105ce565b60405165ffffffffffff42168152602001610186565b61017961062d565b6101b6610353366004611a3b565b61063c565b6101a26103663660046119da565b61066b565b6101a26103793660046119da565b6106c1565b61029461038c366004611b0f565b6106ce565b61029461039f366004611b63565b61078b565b6101b66103b2366004611bc8565b6108c1565b6103ca6103c5366004611bf9565b6108eb565b60408051825163ffffffff1681526020928301516001600160e01b03169281019290925201610186565b60606003805461040390611c36565b80601f016020809104026020016040519081016040528092919081815260200182805461042f90611c36565b801561047a5780601f106104515761010080835404028352916020019161047a565b820191905f5260205f20905b81548152906001019060200180831161045d57829003601f168201915b5050505050905090565b5f3361049181858561090f565b60019150505b92915050565b5f336104aa858285610921565b6104b5858585610984565b506001949350505050565b5f6104c96109e1565b905090565b5f336104918185856104e083836108c1565b6104ea9190611c82565b61090f565b5f4265ffffffffffff8116831061052f57604051637669fc0f60e11b81526004810184905265ffffffffffff821660248201526044015b60405180910390fd5b61055861053b84610b0a565b6001600160a01b0386165f90815260096020526040902090610b3e565b6001600160e01b0316949350505050565b336105748183610bec565b5050565b5f61049782610c5d565b5f61049782610c7e565b5f6060805f805f606061059d610c9b565b6105a5610cc8565b604080515f80825260208201909252600f60f81b9b939a50919850469750309650945092509050565b5f4265ffffffffffff8116831061060957604051637669fc0f60e11b81526004810184905265ffffffffffff82166024820152604401610526565b61061d61061584610b0a565b600a90610b3e565b6001600160e01b03169392505050565b60606004805461040390611c36565b6001600160a01b0381165f90815260096020526040812061065c90610cf5565b6001600160e01b031692915050565b5f338161067882866108c1565b9050838110156106b457604051632983c0c360e21b81526001600160a01b03861660048201526024810182905260448101859052606401610526565b6104b5828686840361090f565b5f33610491818585610984565b834211156106f257604051632341d78760e11b815260048101859052602401610526565b604080517fe48329057bfd03d55e49b547132e39cffd9c1820ad7b9d4c5307691425d15adf60208201526001600160a01b0388169181019190915260608101869052608081018590525f9061076b906107639060a00160405160208183030381529060405280519060200120610d2c565b858585610d58565b90506107778187610d84565b506107828188610bec565b50505050505050565b834211156107af5760405163313c898160e11b815260048101859052602401610526565b5f7f6e71edae12b1b97f4d1f60370fef10105fa2faae0126114a169c64845d6126c98888886107fa8c6001600160a01b03165f90815260076020526040902080546001810190915590565b6040805160208101969096526001600160a01b0394851690860152929091166060840152608083015260a082015260c0810186905260e0016040516020818303038152906040528051906020012090505f61085482610d2c565b90505f61086382878787610d58565b9050896001600160a01b0316816001600160a01b0316146108aa576040516325c0072360e11b81526001600160a01b0380831660048301528b166024820152604401610526565b6108b58a8a8a61090f565b50505050505050505050565b6001600160a01b039182165f90815260016020908152604080832093909416825291909152205490565b604080518082019091525f80825260208201526109088383610dd6565b9392505050565b61091c8383836001610e0a565b505050565b5f61092c84846108c1565b90505f19811461097e578181101561097057604051637dc7a0d960e11b81526001600160a01b03841660048201526024810182905260448101839052606401610526565b61097e84848484035f610e0a565b50505050565b6001600160a01b0383166109ad57604051634b637e8f60e11b81525f6004820152602401610526565b6001600160a01b0382166109d65760405163ec442f0560e01b81525f6004820152602401610526565b61091c838383610edc565b5f306001600160a01b037f000000000000000000000000000000000000000000000000000000000000000016148015610a3957507f000000000000000000000000000000000000000000000000000000000000000046145b15610a6357507f000000000000000000000000000000000000000000000000000000000000000090565b6104c9604080517f8b73c3c69bb8fe3d512ecc4cf759cc79239f7b179b0ffacaa9a75d522b39400f60208201527f0000000000000000000000000000000000000000000000000000000000000000918101919091527f000000000000000000000000000000000000000000000000000000000000000060608201524660808201523060a08201525f9060c00160405160208183030381529060405280519060200120905090565b5f63ffffffff821115610b3a576040516306dfcc6560e41b81526020600482015260248101839052604401610526565b5090565b81545f9081816005811115610b98575f610b5784610ee7565b610b619085611c95565b5f8881526020902090915081015463ffffffff9081169087161015610b8857809150610b96565b610b93816001611c82565b92505b505b5f610ba587878585610fcb565b90508015610bdf57610bc987610bbc600184611c95565b5f91825260209091200190565b54600160201b90046001600160e01b0316610be1565b5f5b979650505050505050565b6001600160a01b038281165f8181526008602052604080822080548686166001600160a01b0319821681179092559151919094169392849290917f3134e8a2e6d97e929a7e54011ea5485d7d196dd5f0ba4d4ef95803e8e3fc257f9190a461091c8183610c5886611026565b611043565b6001600160a01b0381165f9081526009602052604081205461049790610b0a565b6001600160a01b0381165f90815260076020526040812054610497565b60606104c97f000000000000000000000000000000000000000000000000000000000000000060056111ac565b60606104c97f000000000000000000000000000000000000000000000000000000000000000060066111ac565b80545f908015610d2457610d0e83610bbc600184611c95565b54600160201b90046001600160e01b0316610908565b5f9392505050565b5f610497610d386109e1565b8360405161190160f01b8152600281019290925260228201526042902090565b5f805f80610d6888888888611255565b925092509250610d78828261131d565b50909695505050505050565b6001600160a01b0382165f908152600760205260408120805460018101909155808314610908576040516301d4b62360e61b81526001600160a01b038516600482015260248101829052604401610526565b604080518082019091525f80825260208201526001600160a01b0383165f90815260096020526040902061090890836113d5565b6001600160a01b038416610e335760405163e602df0560e01b81525f6004820152602401610526565b6001600160a01b038316610e5c57604051634a1406b160e11b81525f6004820152602401610526565b6001600160a01b038085165f908152600160209081526040808320938716835292905220829055801561097e57826001600160a01b0316846001600160a01b03167f8c5be1e5ebec7d5bd14f71427d1e84f3dd0314c0f7b2291e5b200ac8c7c3b92584604051610ece91815260200190565b60405180910390a350505050565b61091c838383611440565b5f815f03610ef657505f919050565b5f6001610f02846114a6565b901c6001901b90506001818481610f1b57610f1b611ca8565b048201901c90506001818481610f3357610f33611ca8565b048201901c90506001818481610f4b57610f4b611ca8565b048201901c90506001818481610f6357610f63611ca8565b048201901c90506001818481610f7b57610f7b611ca8565b048201901c90506001818481610f9357610f93611ca8565b048201901c90506001818481610fab57610fab611ca8565b048201901c905061090881828581610fc557610fc5611ca8565b04611539565b5f5b8183101561101e575f610fe0848461154e565b5f8781526020902090915063ffffffff86169082015463ffffffff16111561100a57809250611018565b611015816001611c82565b93505b50610fcd565b509392505050565b6001600160a01b0381165f90815260208190526040812054610497565b816001600160a01b0316836001600160a01b03161415801561106457505f81115b1561091c576001600160a01b0383161561110b576001600160a01b0383165f90815260096020526040812081906110a6906115686110a186611573565b6115a6565b6001600160e01b031691506001600160e01b03169150846001600160a01b03167fdec2bacdd2f05b59de34da9b523dff8be42e5e38e818c82fdb0bae774387a7248383604051611100929190918252602082015260400190565b60405180910390a250505b6001600160a01b0382161561091c576001600160a01b0382165f9081526009602052604081208190611143906115e76110a186611573565b6001600160e01b031691506001600160e01b03169150836001600160a01b03167fdec2bacdd2f05b59de34da9b523dff8be42e5e38e818c82fdb0bae774387a724838360405161119d929190918252602082015260400190565b60405180910390a25050505050565b606060ff83146111c6576111bf836115f2565b9050610497565b8180546111d290611c36565b80601f01602080910402602001604051908101604052809291908181526020018280546111fe90611c36565b80156112495780601f1061122057610100808354040283529160200191611249565b820191905f5260205f20905b81548152906001019060200180831161122c57829003601f168201915b50505050509050610497565b5f80807f7fffffffffffffffffffffffffffffff5d576e7357a4501ddfe92f46681b20a084111561128e57505f91506003905082611313565b604080515f808252602082018084528a905260ff891692820192909252606081018790526080810186905260019060a0016020604051602081039080840390855afa1580156112df573d5f803e3d5ffd5b5050604051601f1901519150506001600160a01b03811661130a57505f925060019150829050611313565b92505f91508190505b9450945094915050565b5f82600381111561133057611330611cbc565b03611339575050565b600182600381111561134d5761134d611cbc565b0361136b5760405163f645eedf60e01b815260040160405180910390fd5b600282600381111561137f5761137f611cbc565b036113a05760405163fce698f760e01b815260048101829052602401610526565b60038260038111156113b4576113b4611cbc565b03610574576040516335e2f38360e21b815260048101829052602401610526565b604080518082019091525f8082526020820152825f018263ffffffff168154811061140257611402611cd0565b5f9182526020918290206040805180820190915291015463ffffffff81168252600160201b90046001600160e01b0316918101919091529392505050565b61144b83838361162f565b6001600160a01b03831661149b575f61146360025490565b90506001600160e01b038082111561149857604051630e58ae9360e11b81526004810183905260248101829052604401610526565b50505b61091c838383611755565b5f80608083901c156114ba57608092831c92015b604083901c156114cc57604092831c92015b602083901c156114de57602092831c92015b601083901c156114f057601092831c92015b600883901c1561150257600892831c92015b600483901c1561151457600492831c92015b600283901c1561152657600292831c92015b600183901c156104975760010192915050565b5f8183106115475781610908565b5090919050565b5f61155c6002848418611ce4565b61090890848416611c82565b5f6109088284611d03565b5f6001600160e01b03821115610b3a576040516306dfcc6560e41b815260e0600482015260248101839052604401610526565b5f806115da6115bc4265ffffffffffff16610b0a565b6115d26115c888610cf5565b868863ffffffff16565b8791906117ca565b915091505b935093915050565b5f6109088284611d2a565b60605f6115fe836117d7565b6040805160208082528183019092529192505f91906020820181803683375050509182525060208101929092525090565b6001600160a01b038316611659578060025f82825461164e9190611c82565b909155506116c99050565b6001600160a01b0383165f90815260208190526040902054818110156116ab5760405163391434e360e21b81526001600160a01b03851660048201526024810182905260448101839052606401610526565b6001600160a01b0384165f9081526020819052604090209082900390555b6001600160a01b0382166116e557600280548290039055611703565b6001600160a01b0382165f9081526020819052604090208054820190555b816001600160a01b0316836001600160a01b03167fddf252ad1be2c89b69c2b068fc378daa952ba7f163c4a11628f55a4df523b3ef8360405161174891815260200190565b60405180910390a3505050565b6001600160a01b03831661177757611774600a6115e76110a184611573565b50505b6001600160a01b03821661179957611796600a6115686110a184611573565b50505b6001600160a01b038381165f9081526008602052604080822054858416835291205461091c92918216911683611043565b5f806115da8585856117fe565b5f60ff8216601f81111561049757604051632cd44ac360e21b815260040160405180910390fd5b82545f9081908015611912575f61181a87610bbc600185611c95565b60408051808201909152905463ffffffff808216808452600160201b9092046001600160e01b03166020840152919250908716101561186c57604051632520601d60e01b815260040160405180910390fd5b805163ffffffff8088169116036118b4578461188d88610bbc600186611c95565b80546001600160e01b0392909216600160201b0263ffffffff909216919091179055611902565b6040805180820190915263ffffffff80881682526001600160e01b0380881660208085019182528b54600181018d555f8d81529190912094519151909216600160201b029216919091179101555b6020015192508391506115df9050565b50506040805180820190915263ffffffff80851682526001600160e01b0380851660208085019182528854600181018a555f8a815291822095519251909316600160201b0291909316179201919091559050816115df565b5f81518084525f5b8181101561198e57602081850181015186830182015201611972565b505f602082860101526020601f19601f83011685010191505092915050565b602081525f610908602083018461196a565b80356001600160a01b03811681146119d5575f80fd5b919050565b5f80604083850312156119eb575f80fd5b6119f4836119bf565b946020939093013593505050565b5f805f60608486031215611a14575f80fd5b611a1d846119bf565b9250611a2b602085016119bf565b9150604084013590509250925092565b5f60208284031215611a4b575f80fd5b610908826119bf565b60ff60f81b881681525f602060e081840152611a7360e084018a61196a565b8381036040850152611a85818a61196a565b606085018990526001600160a01b038816608086015260a0850187905284810360c086015285518082528387019250908301905f5b81811015611ad657835183529284019291840191600101611aba565b50909c9b505050505050505050505050565b5f60208284031215611af8575f80fd5b5035919050565b803560ff811681146119d5575f80fd5b5f805f805f8060c08789031215611b24575f80fd5b611b2d876119bf565b95506020870135945060408701359350611b4960608801611aff565b92506080870135915060a087013590509295509295509295565b5f805f805f805f60e0888a031215611b79575f80fd5b611b82886119bf565b9650611b90602089016119bf565b95506040880135945060608801359350611bac60808901611aff565b925060a0880135915060c0880135905092959891949750929550565b5f8060408385031215611bd9575f80fd5b611be2836119bf565b9150611bf0602084016119bf565b90509250929050565b5f8060408385031215611c0a575f80fd5b611c13836119bf565b9150602083013563ffffffff81168114611c2b575f80fd5b809150509250929050565b600181811c90821680611c4a57607f821691505b602082108103611c6857634e487b7160e01b5f52602260045260245ffd5b50919050565b634e487b7160e01b5f52601160045260245ffd5b8082018082111561049757610497611c6e565b8181038181111561049757610497611c6e565b634e487b7160e01b5f52601260045260245ffd5b634e487b7160e01b5f52602160045260245ffd5b634e487b7160e01b5f52603260045260245ffd5b5f82611cfe57634e487b7160e01b5f52601260045260245ffd5b500490565b6001600160e01b03828116828216039080821115611d2357611d23611c6e565b5092915050565b6001600160e01b03818116838216019080821115611d2357611d23611c6e56fea2646970667358221220598e7da19522e4f8237d687bd46b32d93a68bc853956c401b8774a86ee2eff0164736f6c63430008140033",
  "linkReferences": {},
  "deployedLinkReferences": {}
}