{
  "_format": "hh-sol-artifact-1",
  "contractName": "$AccessControlEnumerable",
  "sourceName": "contracts-exposed/access/extensions/AccessControlEnumerable.sol",
  "abi": [
    {
      "inputs": [],
      "stateMutability": "payable",
      "type": "constructor"
    },
    {
      "inputs": [],
      "name": "AccessControlBadConfirmation",
      "type": "error"
    },
    {
      "inputs": [
        {
          "internalType": "address",
          "name": "account",
          "type": "address"
        },
        {
          "internalType": "bytes32",
          "name": "neededRole",
          "type": "bytes32"
        }
      ],
      "name": "AccessControlUnauthorizedAccount",
      "type": "error"
    },
    {
      "anonymous": false,
      "inputs": [
        {
          "indexed": true,
          "internalType": "bytes32",
          "name": "role",
          "type": "bytes32"
        },
        {
          "indexed": true,
          "internalType": "bytes32",
          "name": "previousAdminRole",
          "type": "bytes32"
        },
        {
          "indexed": true,
          "internalType": "bytes32",
          "name": "newAdminRole",
          "type": "bytes32"
        }
      ],
      "name": "RoleAdminChanged",
      "type": "event"
    },
    {
      "anonymous": false,
      "inputs": [
        {
          "indexed": true,
          "internalType": "bytes32",
          "name": "role",
          "type": "bytes32"
        },
        {
          "indexed": true,
          "internalType": "address",
          "name": "account",
          "type": "address"
        },
        {
          "indexed": true,
          "internalType": "address",
          "name": "sender",
          "type": "address"
        }
      ],
      "name": "RoleGranted",
      "type": "event"
    },
    {
      "anonymous": false,
      "inputs": [
        {
          "indexed": true,
          "internalType": "bytes32",
          "name": "role",
          "type": "bytes32"
        },
        {
          "indexed": true,
          "internalType": "address",
          "name": "account",
          "type": "address"
        },
        {
          "indexed": true,
          "internalType": "address",
          "name": "sender",
          "type": "address"
        }
      ],
      "name": "RoleRevoked",
      "type": "event"
    },
    {
      "inputs": [
        {
          "internalType": "bytes32",
          "name": "role",
          "type": "bytes32"
        },
        {
          "internalType": "address",
          "name": "account",
          "type": "address"
        }
      ],
      "name": "$_checkRole",
      "outputs": [],
      "stateMutability": "view",
      "type": "function"
    },
    {
      "inputs": [
        {
          "internalType": "bytes32",
          "name": "role",
          "type": "bytes32"
        }
      ],
      "name": "$_checkRole",
      "outputs": [],
      "stateMutability": "view",
      "type": "function"
    },
    {
      "inputs": [
        {
          "internalType": "bytes32",
          "name": "role",
          "type": "bytes32"
        },
        {
          "internalType": "address",
          "name": "account",
          "type": "address"
        }
      ],
      "name": "$_grantRole",
      "outputs": [],
      "stateMutability": "nonpayable",
      "type": "function"
    },
    {
      "inputs": [],
      "name": "$_msgData",
      "outputs": [
        {
          "internalType": "bytes",
          "name": "ret0",
          "type": "bytes"
        }
      ],
      "stateMutability": "view",
      "type": "function"
    },
    {
      "inputs": [],
      "name": "$_msgSender",
      "outputs": [
        {
          "internalType": "address",
          "name": "ret0",
          "type": "address"
        }
      ],
      "stateMutability": "view",
      "type": "function"
    },
    {
      "inputs": [
        {
          "internalType": "bytes32",
          "name": "role",
          "type": "bytes32"
        },
        {
          "internalType": "address",
          "name": "account",
          "type": "address"
        }
      ],
      "name": "$_revokeRole",
      "outputs": [],
      "stateMutability": "nonpayable",
      "type": "function"
    },
    {
      "inputs": [
        {
          "internalType": "bytes32",
          "name": "role",
          "type": "bytes32"
        },
        {
          "internalType": "bytes32",
          "name": "adminRole",
          "type": "bytes32"
        }
      ],
      "name": "$_setRoleAdmin",
      "outputs": [],
      "stateMutability": "nonpayable",
      "type": "function"
    },
    {
      "inputs": [],
      "name": "DEFAULT_ADMIN_ROLE",
      "outputs": [
        {
          "internalType": "bytes32",
          "name": "",
          "type": "bytes32"
        }
      ],
      "stateMutability": "view",
      "type": "function"
    },
    {
      "inputs": [],
      "name": "__hh_exposed_bytecode_marker",
      "outputs": [
        {
          "internalType": "bytes32",
          "name": "",
          "type": "bytes32"
        }
      ],
      "stateMutability": "view",
      "type": "function"
    },
    {
      "inputs": [
        {
          "internalType": "bytes32",
          "name": "role",
          "type": "bytes32"
        }
      ],
      "name": "getRoleAdmin",
      "outputs": [
        {
          "internalType": "bytes32",
          "name": "",
          "type": "bytes32"
        }
      ],
      "stateMutability": "view",
      "type": "function"
    },
    {
      "inputs": [
        {
          "internalType": "bytes32",
          "name": "role",
          "type": "bytes32"
        },
        {
          "internalType": "uint256",
          "name": "index",
          "type": "uint256"
        }
      ],
      "name": "getRoleMember",
      "outputs": [
        {
          "internalType": "address",
          "name": "",
          "type": "address"
        }
      ],
      "stateMutability": "view",
      "type": "function"
    },
    {
      "inputs": [
        {
          "internalType": "bytes32",
          "name": "role",
          "type": "bytes32"
        }
      ],
      "name": "getRoleMemberCount",
      "outputs": [
        {
          "internalType": "uint256",
          "name": "",
          "type": "uint256"
        }
      ],
      "stateMutability": "view",
      "type": "function"
    },
    {
      "inputs": [
        {
          "internalType": "bytes32",
          "name": "role",
          "type": "bytes32"
        },
        {
          "internalType": "address",
          "name": "account",
          "type": "address"
        }
      ],
      "name": "grantRole",
      "outputs": [],
      "stateMutability": "nonpayable",
      "type": "function"
    },
    {
      "inputs": [
        {
          "internalType": "bytes32",
          "name": "role",
          "type": "bytes32"
        },
        {
          "internalType": "address",
          "name": "account",
          "type": "address"
        }
      ],
      "name": "hasRole",
      "outputs": [
        {
          "internalType": "bool",
          "name": "",
          "type": "bool"
        }
      ],
      "stateMutability": "view",
      "type": "function"
    },
    {
      "inputs": [
        {
          "internalType": "bytes32",
          "name": "role",
          "type": "bytes32"
        },
        {
          "internalType": "address",
          "name": "callerConfirmation",
          "type": "address"
        }
      ],
      "name": "renounceRole",
      "outputs": [],
      "stateMutability": "nonpayable",
      "type": "function"
    },
    {
      "inputs": [
        {
          "internalType": "bytes32",
          "name": "role",
          "type": "bytes32"
        },
        {
          "internalType": "address",
          "name": "account",
          "type": "address"
        }
      ],
      "name": "revokeRole",
      "outputs": [],
      "stateMutability": "nonpayable",
      "type": "function"
    },
    {
      "inputs": [
        {
          "internalType": "bytes4",
          "name": "interfaceId",
          "type": "bytes4"
        }
      ],
      "name": "supportsInterface",
      "outputs": [
        {
          "internalType": "bool",
          "name": "",
          "type": "bool"
        }
      ],
      "stateMutability": "view",
      "type": "function"
    },
    {
      "stateMutability": "payable",
      "type": "receive"
    }
  ],
  "bytecode": "0x608060405261099d806100115f395ff3fe6080604052600436106100fd575f3560e01c806341b45f711161009257806398dd54c11161006257806398dd54c1146102bf578063a217fddf146102de578063ca15c873146102f1578063d547741f14610310578063d7bdcee91461032f575f80fd5b806341b45f71146102435780634286d2f1146102625780639010d07c1461028157806391d14854146102a0575f80fd5b80632f2ff15d116100cd5780632f2ff15d146101bf57806332cadf3c146101de578063342db739146101ff57806336568abe14610224575f80fd5b806301ffc9a714610108578063248a9ca31461013c578063270db874146101785780632904df2914610199575f80fd5b3661010457005b5f80fd5b348015610113575f80fd5b5061012761012236600461083e565b61034e565b60405190151581526020015b60405180910390f35b348015610147575f80fd5b5061016a610156366004610865565b5f9081526020819052604090206001015490565b604051908152602001610133565b348015610183575f80fd5b5061019761019236600461087c565b610378565b005b3480156101a4575f80fd5b50335b6040516001600160a01b039091168152602001610133565b3480156101ca575f80fd5b506101976101d936600461087c565b610386565b3480156101e9575f80fd5b506101f26103af565b60405161013391906108b5565b34801561020a575f80fd5b5061016a6e1a185c991a185d0b595e1c1bdcd959608a1b81565b34801561022f575f80fd5b5061019761023e36600461087c565b6103ec565b34801561024e575f80fd5b5061019761025d36600461087c565b61041f565b34801561026d575f80fd5b5061019761027c36600461087c565b610415565b34801561028c575f80fd5b506101a761029b366004610900565b610429565b3480156102ab575f80fd5b506101276102ba36600461087c565b610447565b3480156102ca575f80fd5b506101976102d9366004610865565b61046f565b3480156102e9575f80fd5b5061016a5f81565b3480156102fc575f80fd5b5061016a61030b366004610865565b61047b565b34801561031b575f80fd5b5061019761032a36600461087c565b610491565b34801561033a575f80fd5b50610197610349366004610900565b6104b5565b5f6001600160e01b03198216635a05180f60e01b14806103725750610372826104bf565b92915050565b61038282826104f3565b5050565b5f828152602081905260409020600101546103a081610514565b6103aa83836104f3565b505050565b60605f368080601f0160208091040260200160405190810160405280939291908181526020018383808284375f9201919091525092949350505050565b6001600160a01b03811633146104155760405163334bd91960e11b815260040160405180910390fd5b610382828261051e565b610382828261053f565b5f828152600160205260408120610440908361057c565b9392505050565b5f918252602082815260408084206001600160a01b0393909316845291905290205460ff1690565b61047881610514565b50565b5f81815260016020526040812061037290610587565b5f828152602081905260409020600101546104ab81610514565b6103aa838361051e565b6103828282610590565b5f6001600160e01b03198216637965db0b60e01b148061037257506301ffc9a760e01b6001600160e01b0319831614610372565b6104fd82826105da565b5f8281526001602052604090206103aa908261065d565b610478813361053f565b6105288282610671565b5f8281526001602052604090206103aa90826106d5565b6105498282610447565b6103825760405163e2517d3f60e01b81526001600160a01b03821660048201526024810183905260440160405180910390fd5b5f61044083836106e9565b5f610372825490565b5f82815260208190526040808220600101805490849055905190918391839186917fbd79b86ffe0ab8e8776151514217cd7cacd52c909f66475c3af44e129f0b00ff9190a4505050565b6105e48282610447565b610382575f828152602081815260408083206001600160a01b03851684529091529020805460ff191660011790556106193390565b6001600160a01b0316816001600160a01b0316837f2f8788117e7eff1d82e926ec794901d17c78024a50270940304540a733656f0d60405160405180910390a45050565b5f610440836001600160a01b03841661070f565b61067b8282610447565b15610382575f828152602081815260408083206001600160a01b0385168085529252808320805460ff1916905551339285917ff6391f5c32d9c69d2a47ea670b442974b53935d1edc7fd64eb21e047a839171b9190a45050565b5f610440836001600160a01b03841661075b565b5f825f0182815481106106fe576106fe610920565b905f5260205f200154905092915050565b5f81815260018301602052604081205461075457508154600181810184555f848152602080822090930184905584548482528286019093526040902091909155610372565b505f610372565b5f8181526001830160205260408120548015610835575f61077d600183610934565b85549091505f9061079090600190610934565b90508181146107ef575f865f0182815481106107ae576107ae610920565b905f5260205f200154905080875f0184815481106107ce576107ce610920565b5f918252602080832090910192909255918252600188019052604090208390555b855486908061080057610800610953565b600190038181905f5260205f20015f90559055856001015f8681526020019081526020015f205f905560019350505050610372565b5f915050610372565b5f6020828403121561084e575f80fd5b81356001600160e01b031981168114610440575f80fd5b5f60208284031215610875575f80fd5b5035919050565b5f806040838503121561088d575f80fd5b8235915060208301356001600160a01b03811681146108aa575f80fd5b809150509250929050565b5f6020808352835180828501525f5b818110156108e0578581018301518582016040015282016108c4565b505f604082860101526040601f19601f8301168501019250505092915050565b5f8060408385031215610911575f80fd5b50508035926020909101359150565b634e487b7160e01b5f52603260045260245ffd5b8181038181111561037257634e487b7160e01b5f52601160045260245ffd5b634e487b7160e01b5f52603160045260245ffdfea2646970667358221220a8c2ec031f810f06012c15ed4172b53f3aeee255eed0eb31de696cf84b9d19a164736f6c63430008140033",
  "linkReferences": {},
  "deployedLinkReferences": {}
}