{
  "_format": "hh-sol-artifact-1",
  "contractName": "VestingWallet",
  "sourceName": "contracts/finance/VestingWallet.sol",
  "abi": [
    {
      "inputs": [
        {
          "internalType": "address",
          "name": "beneficiaryAddress",
          "type": "address"
        },
        {
          "internalType": "uint64",
          "name": "startTimestamp",
          "type": "uint64"
        },
        {
          "internalType": "uint64",
          "name": "durationSeconds",
          "type": "uint64"
        }
      ],
      "stateMutability": "payable",
      "type": "constructor"
    },
    {
      "inputs": [
        {
          "internalType": "address",
          "name": "target",
          "type": "address"
        }
      ],
      "name": "AddressEmptyCode",
      "type": "error"
    },
    {
      "inputs": [
        {
          "internalType": "address",
          "name": "account",
          "type": "address"
        }
      ],
      "name": "AddressInsufficientBalance",
      "type": "error"
    },
    {
      "inputs": [],
      "name": "FailedInnerCall",
      "type": "error"
    },
    {
      "inputs": [
        {
          "internalType": "address",
          "name": "token",
          "type": "address"
        }
      ],
      "name": "SafeERC20FailedOperation",
      "type": "error"
    },
    {
      "inputs": [
        {
          "internalType": "address",
          "name": "beneficiary",
          "type": "address"
        }
      ],
      "name": "VestingWalletInvalidBeneficiary",
      "type": "error"
    },
    {
      "anonymous": false,
      "inputs": [
        {
          "indexed": true,
          "internalType": "address",
          "name": "token",
          "type": "address"
        },
        {
          "indexed": false,
          "internalType": "uint256",
          "name": "amount",
          "type": "uint256"
        }
      ],
      "name": "ERC20Released",
      "type": "event"
    },
    {
      "anonymous": false,
      "inputs": [
        {
          "indexed": false,
          "internalType": "uint256",
          "name": "amount",
          "type": "uint256"
        }
      ],
      "name": "EtherReleased",
      "type": "event"
    },
    {
      "inputs": [],
      "name": "beneficiary",
      "outputs": [
        {
          "internalType": "address",
          "name": "",
          "type": "address"
        }
      ],
      "stateMutability": "view",
      "type": "function"
    },
    {
      "inputs": [],
      "name": "duration",
      "outputs": [
        {
          "internalType": "uint256",
          "name": "",
          "type": "uint256"
        }
      ],
      "stateMutability": "view",
      "type": "function"
    },
    {
      "inputs": [],
      "name": "end",
      "outputs": [
        {
          "internalType": "uint256",
          "name": "",
          "type": "uint256"
        }
      ],
      "stateMutability": "view",
      "type": "function"
    },
    {
      "inputs": [
        {
          "internalType": "address",
          "name": "token",
          "type": "address"
        }
      ],
      "name": "releasable",
      "outputs": [
        {
          "internalType": "uint256",
          "name": "",
          "type": "uint256"
        }
      ],
      "stateMutability": "view",
      "type": "function"
    },
    {
      "inputs": [],
      "name": "releasable",
      "outputs": [
        {
          "internalType": "uint256",
          "name": "",
          "type": "uint256"
        }
      ],
      "stateMutability": "view",
      "type": "function"
    },
    {
      "inputs": [
        {
          "internalType": "address",
          "name": "token",
          "type": "address"
        }
      ],
      "name": "release",
      "outputs": [],
      "stateMutability": "nonpayable",
      "type": "function"
    },
    {
      "inputs": [],
      "name": "release",
      "outputs": [],
      "stateMutability": "nonpayable",
      "type": "function"
    },
    {
      "inputs": [],
      "name": "released",
      "outputs": [
        {
          "internalType": "uint256",
          "name": "",
          "type": "uint256"
        }
      ],
      "stateMutability": "view",
      "type": "function"
    },
    {
      "inputs": [
        {
          "internalType": "address",
          "name": "token",
          "type": "address"
        }
      ],
      "name": "released",
      "outputs": [
        {
          "internalType": "uint256",
          "name": "",
          "type": "uint256"
        }
      ],
      "stateMutability": "view",
      "type": "function"
    },
    {
      "inputs": [],
      "name": "start",
      "outputs": [
        {
          "internalType": "uint256",
          "name": "",
          "type": "uint256"
        }
      ],
      "stateMutability": "view",
      "type": "function"
    },
    {
      "inputs": [
        {
          "internalType": "uint64",
          "name": "timestamp",
          "type": "uint64"
        }
      ],
      "name": "vestedAmount",
      "outputs": [
        {
          "internalType": "uint256",
          "name": "",
          "type": "uint256"
        }
      ],
      "stateMutability": "view",
      "type": "function"
    },
    {
      "inputs": [
        {
          "internalType": "address",
          "name": "token",
          "type": "address"
        },
        {
          "internalType": "uint64",
          "name": "timestamp",
          "type": "uint64"
        }
      ],
      "name": "vestedAmount",
      "outputs": [
        {
          "internalType": "uint256",
          "name": "",
          "type": "uint256"
        }
      ],
      "stateMutability": "view",
      "type": "function"
    },
    {
      "stateMutability": "payable",
      "type": "receive"
    }
  ],
  "bytecode": "0x60e0604052604051610ace380380610ace8339810160408190526100229161008f565b6001600160a01b03831661004f57604051631cad2e7360e01b81525f600482015260240160405180910390fd5b6001600160a01b039092166080526001600160401b0390811660a0521660c0526100dc565b80516001600160401b038116811461008a575f80fd5b919050565b5f805f606084860312156100a1575f80fd5b83516001600160a01b03811681146100b7575f80fd5b92506100c560208501610074565b91506100d360408501610074565b90509250925092565b60805160a05160c0516109ad6101215f395f818160f301528181610494015261052d01525f61046e01525f818161015b015281816102fb015261040f01526109ad5ff3fe6080604052600436106100a8575f3560e01c8063961325211161006257806396132521146101b85780639852595c146101cb578063a3f8eace146101ff578063be9a65551461021e578063efbe1c1c14610232578063fbccedae14610246575f80fd5b80630a17b06b146100b35780630fb5a6b4146100e5578063191655871461012157806338af3eed14610142578063810ec23b1461018557806386d1a69f146101a4575f80fd5b366100af57005b5f80fd5b3480156100be575f80fd5b506100d26100cd36600461082c565b61025a565b6040519081526020015b60405180910390f35b3480156100f0575f80fd5b507f000000000000000000000000000000000000000000000000000000000000000067ffffffffffffffff166100d2565b34801561012c575f80fd5b5061014061013b36600461085b565b61027c565b005b34801561014d575f80fd5b506040516001600160a01b037f00000000000000000000000000000000000000000000000000000000000000001681526020016100dc565b348015610190575f80fd5b506100d261019f366004610874565b610324565b3480156101af575f80fd5b506101406103b7565b3480156101c3575f80fd5b505f546100d2565b3480156101d6575f80fd5b506100d26101e536600461085b565b6001600160a01b03165f9081526001602052604090205490565b34801561020a575f80fd5b506100d261021936600461085b565b610437565b348015610229575f80fd5b506100d2610463565b34801561023d575f80fd5b506100d2610491565b348015610251575f80fd5b506100d26104d4565b5f6102766102665f5490565b61027090476108b9565b836104ea565b92915050565b5f61028682610437565b6001600160a01b0383165f908152600160205260408120805492935083929091906102b29084906108b9565b90915550506040518181526001600160a01b038316907fc0e523490dd523c33b1878c9eb14ff46991e3f5b2cd33710918618f2a39cba1b9060200160405180910390a2610320827f00000000000000000000000000000000000000000000000000000000000000008361058d565b5050565b6001600160a01b0382165f908152600160205260408120546103b0906040516370a0823160e01b81523060048201526001600160a01b038616906370a0823190602401602060405180830381865afa158015610382573d5f803e3d5ffd5b505050506040513d601f19601f820116820180604052508101906103a691906108cc565b61027091906108b9565b9392505050565b5f6103c06104d4565b9050805f808282546103d291906108b9565b90915550506040518181527fda9d4e5f101b8b9b1c5b76d0c5a9f7923571acfc02376aa076b75a8c080c956b9060200160405180910390a16104347f0000000000000000000000000000000000000000000000000000000000000000826105e4565b50565b6001600160a01b0381165f908152600160205260408120546104598342610324565b61027691906108e3565b67ffffffffffffffff7f00000000000000000000000000000000000000000000000000000000000000001690565b5f7f000000000000000000000000000000000000000000000000000000000000000067ffffffffffffffff166104c5610463565b6104cf91906108b9565b905090565b5f80546104e04261025a565b6104cf91906108e3565b5f6104f3610463565b8267ffffffffffffffff16101561050b57505f610276565b610513610491565b8267ffffffffffffffff16111561052b575081610276565b7f000000000000000000000000000000000000000000000000000000000000000067ffffffffffffffff1661055e610463565b6105729067ffffffffffffffff85166108e3565b61057c90856108f6565b610586919061090d565b9050610276565b604080516001600160a01b038416602482015260448082018490528251808303909101815260649091019091526020810180516001600160e01b031663a9059cbb60e01b1790526105df90849061067c565b505050565b8047101561060c5760405163cd78605960e01b81523060048201526024015b60405180910390fd5b5f826001600160a01b0316826040515f6040518083038185875af1925050503d805f8114610655576040519150601f19603f3d011682016040523d82523d5f602084013e61065a565b606091505b50509050806105df57604051630a12f52160e11b815260040160405180910390fd5b5f6106906001600160a01b038416836106dd565b905080515f141580156106b45750808060200190518101906106b2919061092c565b155b156105df57604051635274afe760e01b81526001600160a01b0384166004820152602401610603565b60606103b083835f6106ed610706565b604051630a12f52160e11b815260040160405180910390fd5b60608247101561072b5760405163cd78605960e01b8152306004820152602401610603565b5f80866001600160a01b03168587604051610746919061094b565b5f6040518083038185875af1925050503d805f8114610780576040519150601f19603f3d011682016040523d82523d5f602084013e610785565b606091505b5091509150610796878383876107a3565b925050505b949350505050565b606083156107ef5782515f036107e857846001600160a01b03163b5f036107e857604051639996b31560e01b81526001600160a01b0386166004820152602401610603565b508161079b565b61079b83838151156108045781518083602001fd5b6106ed8163ffffffff16565b803567ffffffffffffffff81168114610827575f80fd5b919050565b5f6020828403121561083c575f80fd5b6103b082610810565b80356001600160a01b0381168114610827575f80fd5b5f6020828403121561086b575f80fd5b6103b082610845565b5f8060408385031215610885575f80fd5b61088e83610845565b915061089c60208401610810565b90509250929050565b634e487b7160e01b5f52601160045260245ffd5b80820180821115610276576102766108a5565b5f602082840312156108dc575f80fd5b5051919050565b81810381811115610276576102766108a5565b8082028115828204841417610276576102766108a5565b5f8261092757634e487b7160e01b5f52601260045260245ffd5b500490565b5f6020828403121561093c575f80fd5b815180151581146103b0575f80fd5b5f82515f5b8181101561096a5760208186018101518583015201610950565b505f92019182525091905056fea2646970667358221220e08512710424e1763794cb2b9667ddaa7f61a1de07cb52c6168777fab039059664736f6c63430008140033",
  "linkReferences": {},
  "deployedLinkReferences": {}
}