{
  "_format": "hh-sol-artifact-1",
  "contractName": "$Checkpoints",
  "sourceName": "contracts-exposed/utils/structs/Checkpoints.sol",
  "abi": [
    {
      "inputs": [],
      "stateMutability": "payable",
      "type": "constructor"
    },
    {
      "inputs": [],
      "name": "CheckpointUnorderedInsertion",
      "type": "error"
    },
    {
      "anonymous": false,
      "inputs": [
        {
          "indexed": false,
          "internalType": "uint160",
          "name": "ret0",
          "type": "uint160"
        },
        {
          "indexed": false,
          "internalType": "uint160",
          "name": "ret1",
          "type": "uint160"
        }
      ],
      "name": "return$push_Checkpoints_Trace160_uint96_uint160",
      "type": "event"
    },
    {
      "anonymous": false,
      "inputs": [
        {
          "indexed": false,
          "internalType": "uint224",
          "name": "ret0",
          "type": "uint224"
        },
        {
          "indexed": false,
          "internalType": "uint224",
          "name": "ret1",
          "type": "uint224"
        }
      ],
      "name": "return$push_Checkpoints_Trace224_uint32_uint224",
      "type": "event"
    },
    {
      "inputs": [
        {
          "internalType": "uint256",
          "name": "self",
          "type": "uint256"
        },
        {
          "internalType": "uint32",
          "name": "pos",
          "type": "uint32"
        }
      ],
      "name": "$at_Checkpoints_Trace160",
      "outputs": [
        {
          "components": [
            {
              "internalType": "uint96",
              "name": "_key",
              "type": "uint96"
            },
            {
              "internalType": "uint160",
              "name": "_value",
              "type": "uint160"
            }
          ],
          "internalType": "struct Checkpoints.Checkpoint160",
          "name": "ret0",
          "type": "tuple"
        }
      ],
      "stateMutability": "view",
      "type": "function"
    },
    {
      "inputs": [
        {
          "internalType": "uint256",
          "name": "self",
          "type": "uint256"
        },
        {
          "internalType": "uint32",
          "name": "pos",
          "type": "uint32"
        }
      ],
      "name": "$at_Checkpoints_Trace224",
      "outputs": [
        {
          "components": [
            {
              "internalType": "uint32",
              "name": "_key",
              "type": "uint32"
            },
            {
              "internalType": "uint224",
              "name": "_value",
              "type": "uint224"
            }
          ],
          "internalType": "struct Checkpoints.Checkpoint224",
          "name": "ret0",
          "type": "tuple"
        }
      ],
      "stateMutability": "view",
      "type": "function"
    },
    {
      "inputs": [
        {
          "internalType": "uint256",
          "name": "self",
          "type": "uint256"
        }
      ],
      "name": "$latestCheckpoint_Checkpoints_Trace160",
      "outputs": [
        {
          "internalType": "bool",
          "name": "exists",
          "type": "bool"
        },
        {
          "internalType": "uint96",
          "name": "_key",
          "type": "uint96"
        },
        {
          "internalType": "uint160",
          "name": "_value",
          "type": "uint160"
        }
      ],
      "stateMutability": "view",
      "type": "function"
    },
    {
      "inputs": [
        {
          "internalType": "uint256",
          "name": "self",
          "type": "uint256"
        }
      ],
      "name": "$latestCheckpoint_Checkpoints_Trace224",
      "outputs": [
        {
          "internalType": "bool",
          "name": "exists",
          "type": "bool"
        },
        {
          "internalType": "uint32",
          "name": "_key",
          "type": "uint32"
        },
        {
          "internalType": "uint224",
          "name": "_value",
          "type": "uint224"
        }
      ],
      "stateMutability": "view",
      "type": "function"
    },
    {
      "inputs": [
        {
          "internalType": "uint256",
          "name": "self",
          "type": "uint256"
        }
      ],
      "name": "$latest_Checkpoints_Trace160",
      "outputs": [
        {
          "internalType": "uint160",
          "name": "ret0",
          "type": "uint160"
        }
      ],
      "stateMutability": "view",
      "type": "function"
    },
    {
      "inputs": [
        {
          "internalType": "uint256",
          "name": "self",
          "type": "uint256"
        }
      ],
      "name": "$latest_Checkpoints_Trace224",
      "outputs": [
        {
          "internalType": "uint224",
          "name": "ret0",
          "type": "uint224"
        }
      ],
      "stateMutability": "view",
      "type": "function"
    },
    {
      "inputs": [
        {
          "internalType": "uint256",
          "name": "self",
          "type": "uint256"
        }
      ],
      "name": "$length_Checkpoints_Trace160",
      "outputs": [
        {
          "internalType": "uint256",
          "name": "ret0",
          "type": "uint256"
        }
      ],
      "stateMutability": "view",
      "type": "function"
    },
    {
      "inputs": [
        {
          "internalType": "uint256",
          "name": "self",
          "type": "uint256"
        }
      ],
      "name": "$length_Checkpoints_Trace224",
      "outputs": [
        {
          "internalType": "uint256",
          "name": "ret0",
          "type": "uint256"
        }
      ],
      "stateMutability": "view",
      "type": "function"
    },
    {
      "inputs": [
        {
          "internalType": "uint256",
          "name": "self",
          "type": "uint256"
        },
        {
          "internalType": "uint32",
          "name": "key",
          "type": "uint32"
        }
      ],
      "name": "$lowerLookup",
      "outputs": [
        {
          "internalType": "uint224",
          "name": "ret0",
          "type": "uint224"
        }
      ],
      "stateMutability": "view",
      "type": "function"
    },
    {
      "inputs": [
        {
          "internalType": "uint256",
          "name": "self",
          "type": "uint256"
        },
        {
          "internalType": "uint96",
          "name": "key",
          "type": "uint96"
        }
      ],
      "name": "$lowerLookup",
      "outputs": [
        {
          "internalType": "uint160",
          "name": "ret0",
          "type": "uint160"
        }
      ],
      "stateMutability": "view",
      "type": "function"
    },
    {
      "inputs": [
        {
          "internalType": "uint256",
          "name": "self",
          "type": "uint256"
        },
        {
          "internalType": "uint96",
          "name": "key",
          "type": "uint96"
        },
        {
          "internalType": "uint160",
          "name": "value",
          "type": "uint160"
        }
      ],
      "name": "$push",
      "outputs": [
        {
          "internalType": "uint160",
          "name": "ret0",
          "type": "uint160"
        },
        {
          "internalType": "uint160",
          "name": "ret1",
          "type": "uint160"
        }
      ],
      "stateMutability": "payable",
      "type": "function"
    },
    {
      "inputs": [
        {
          "internalType": "uint256",
          "name": "self",
          "type": "uint256"
        },
        {
          "internalType": "uint32",
          "name": "key",
          "type": "uint32"
        },
        {
          "internalType": "uint224",
          "name": "value",
          "type": "uint224"
        }
      ],
      "name": "$push",
      "outputs": [
        {
          "internalType": "uint224",
          "name": "ret0",
          "type": "uint224"
        },
        {
          "internalType": "uint224",
          "name": "ret1",
          "type": "uint224"
        }
      ],
      "stateMutability": "payable",
      "type": "function"
    },
    {
      "inputs": [
        {
          "internalType": "uint256",
          "name": "self",
          "type": "uint256"
        },
        {
          "internalType": "uint96",
          "name": "key",
          "type": "uint96"
        }
      ],
      "name": "$upperLookup",
      "outputs": [
        {
          "internalType": "uint160",
          "name": "ret0",
          "type": "uint160"
        }
      ],
      "stateMutability": "view",
      "type": "function"
    },
    {
      "inputs": [
        {
          "internalType": "uint256",
          "name": "self",
          "type": "uint256"
        },
        {
          "internalType": "uint32",
          "name": "key",
          "type": "uint32"
        }
      ],
      "name": "$upperLookup",
      "outputs": [
        {
          "internalType": "uint224",
          "name": "ret0",
          "type": "uint224"
        }
      ],
      "stateMutability": "view",
      "type": "function"
    },
    {
      "inputs": [
        {
          "internalType": "uint256",
          "name": "self",
          "type": "uint256"
        },
        {
          "internalType": "uint32",
          "name": "key",
          "type": "uint32"
        }
      ],
      "name": "$upperLookupRecent",
      "outputs": [
        {
          "internalType": "uint224",
          "name": "ret0",
          "type": "uint224"
        }
      ],
      "stateMutability": "view",
      "type": "function"
    },
    {
      "inputs": [
        {
          "internalType": "uint256",
          "name": "self",
          "type": "uint256"
        },
        {
          "internalType": "uint96",
          "name": "key",
          "type": "uint96"
        }
      ],
      "name": "$upperLookupRecent",
      "outputs": [
        {
          "internalType": "uint160",
          "name": "ret0",
          "type": "uint160"
        }
      ],
      "stateMutability": "view",
      "type": "function"
    },
    {
      "inputs": [],
      "name": "__hh_exposed_bytecode_marker",
      "outputs": [
        {
          "internalType": "bytes32",
          "name": "",
          "type": "bytes32"
        }
      ],
      "stateMutability": "view",
      "type": "function"
    },
    {
      "stateMutability": "payable",
      "type": "receive"
    }
  ],
  "bytecode": "0x608060405261129b806100115f395ff3fe6080604052600436106100fd575f3560e01c806377e0cd1011610092578063c83e46f311610062578063c83e46f314610372578063de8e84f814610391578063e598de35146103b0578063eec78873146103cf578063f244a4bb14610419575f80fd5b806377e0cd101461028a5780639f2f3f9f146102bd578063b0dcb63b146102dc578063b669137514610325575f80fd5b80634cee0f34116100cd5780634cee0f34146101e2578063530fe2a61461020157806366bbe7af146102385780636e96b0f01461026b575f80fd5b806301c329011461010857806305c544d31461013a578063326816d614610186578063342db739146101bd575f80fd5b3661010457005b5f80fd5b348015610113575f80fd5b506101276101223660046110cf565b610438565b6040519081526020015b60405180910390f35b348015610145575f80fd5b506101596101543660046110fe565b61044d565b6040805182516001600160601b031681526020928301516001600160a01b03169281019290925201610131565b348015610191575f80fd5b506101a56101a03660046110fe565b61047e565b6040516001600160e01b039091168152602001610131565b3480156101c8575f80fd5b506101276e1a185c991a185d0b595e1c1bdcd959608a1b81565b3480156101ed575f80fd5b506101a56101fc3660046110cf565b610495565b34801561020c575f80fd5b5061022061021b3660046110cf565b6104ab565b6040516001600160a01b039091168152602001610131565b61024b61024636600461113e565b6104c1565b604080516001600160a01b03938416815292909116602083015201610131565b348015610276575f80fd5b50610220610285366004611186565b61052d565b61029d6102983660046111a7565b610544565b604080516001600160e01b03938416815292909116602083015201610131565b3480156102c8575f80fd5b506101a56102d73660046110fe565b6105a4565b3480156102e7575f80fd5b506102fb6102f63660046110fe565b6105bb565b60408051825163ffffffff1681526020928301516001600160e01b03169281019290925201610131565b348015610330575f80fd5b5061034461033f3660046110cf565b6105e5565b6040805193151584526001600160601b0390921660208401526001600160a01b031690820152606001610131565b34801561037d575f80fd5b5061012761038c3660046110cf565b61060c565b34801561039c575f80fd5b506101a56103ab3660046110fe565b61061f565b3480156103bb575f80fd5b506102206103ca366004611186565b610636565b3480156103da575f80fd5b506103ee6103e93660046110cf565b61064d565b60408051931515845263ffffffff90921660208401526001600160e01b031690820152606001610131565b348015610424575f80fd5b50610220610433366004611186565b610667565b5f818152600160205260408120545b92915050565b604080518082019091525f80825260208201525f838152600160205260409020610477908361067e565b9392505050565b5f82815260208190526040812061047790836106ed565b5f81815260208190526040812061044790610733565b5f81815260016020526040812061044790610777565b5f83815260016020526040812081906104db9085856107a6565b604080516001600160a01b038085168252831660208201529294509092507f626c8ce225f44cc5b03293fcee3cf98d036fd95521ae8edf6e7c1f775488e76c91015b60405180910390a1935093915050565b5f82815260016020526040812061047790836107c0565b5f838152602081905260408120819061055e9085856107fe565b604080516001600160e01b038085168252831660208201529294509092507fa39ed3a515efcf2218218d70084184e62fe951c8ea50030e6f4b84596b5af294910161051d565b5f828152602081905260408120610477908361080b565b604080518082019091525f80825260208201525f8381526020819052604090206104779083610833565b5f818152600160205260408120819081906105ff9061089e565b9196909550909350915050565b5f81815260208190526040812054610447565b5f8281526020819052604081206104779083610915565b5f82815260016020526040812061047790836109b6565b5f818152602081905260408120819081906105ff90610a4d565b5f8281526001602052604081206104779083610aba565b604080518082019091525f8082526020820152825f018263ffffffff16815481106106ab576106ab6111e4565b5f918252602091829020604080518082019091529101546001600160601b0381168252600160601b90046001600160a01b031691810191909152905092915050565b81545f90816106fe85858385610ae3565b9050818114610728575f8581526020902081015b54600160201b90046001600160e01b031661072a565b5f5b95945050505050565b80545f90801561076f576107598361074c60018461120c565b5f91825260209091200190565b54600160201b90046001600160e01b0316610477565b5f9392505050565b80545f90801561076f576107908361074c60018461120c565b54600160601b90046001600160a01b0316610477565b5f806107b3858585610b3e565b915091505b935093915050565b81545f90816107d185858385610cb9565b90508015610728576107e88561074c60018461120c565b54600160601b90046001600160a01b031661072a565b5f806107b3858585610d12565b81545f908161081c85858385610e7d565b90508015610728576107128561074c60018461120c565b604080518082019091525f8082526020820152825f018263ffffffff1681548110610860576108606111e4565b5f9182526020918290206040805180820190915291015463ffffffff81168252600160201b90046001600160e01b0316918101919091529392505050565b80545f90819081908082036108bc575f805f9350935093505061090e565b5f6108cc8661074c60018561120c565b6040805180820190915290546001600160601b038116808352600160601b9091046001600160a01b03166020909201829052600196509450925061090e915050565b9193909250565b81545f908181600581111561096f575f61092e84610ed0565b610938908561120c565b5f8881526020902090915081015463ffffffff908116908716101561095f5780915061096d565b61096a81600161121f565b92505b505b5f61097c87878585610e7d565b905080156109a9576109938761074c60018461120c565b54600160201b90046001600160e01b03166109ab565b5f5b979650505050505050565b81545f9081816005811115610a13575f6109cf84610ed0565b6109d9908561120c565b5f888152602090209091508101546001600160601b039081169087161015610a0357809150610a11565b610a0e81600161121f565b92505b505b5f610a2087878585610cb9565b905080156109a957610a378761074c60018461120c565b54600160601b90046001600160a01b03166109ab565b80545f9081908190808203610a6b575f805f9350935093505061090e565b5f610a7b8661074c60018561120c565b60408051808201909152905463ffffffff8116808352600160201b9091046001600160e01b03166020909201829052600196509450925061090e915050565b81545f9081610acb85858385610fb4565b9050818114610728575f8581526020902081016107e8565b5f5b81831015610b36575f610af8848461100d565b5f8781526020902090915063ffffffff86169082015463ffffffff161015610b2c57610b2581600161121f565b9350610b30565b8092505b50610ae5565b509392505050565b82545f9081908015610c5e575f610b5a8761074c60018561120c565b6040805180820190915290546001600160601b03808216808452600160601b9092046001600160a01b031660208401529192509087161015610baf57604051632520601d60e01b815260040160405180910390fd5b80516001600160601b03808816911603610bfd5784610bd38861074c60018661120c565b80546001600160a01b0392909216600160601b026001600160601b03909216919091179055610c4e565b604080518082019091526001600160601b0380881682526001600160a01b0380881660208085019182528b54600181018d555f8d81529190912094519151909216600160601b029216919091179101555b6020015192508391506107b89050565b5050604080518082019091526001600160601b0380851682526001600160a01b0380851660208085019182528854600181018a555f8a815291822095519251909316600160601b0291909316179201919091559050816107b8565b5f5b81831015610b36575f610cce848461100d565b5f878152602090209091506001600160601b038616908201546001600160601b03161115610cfe57809250610d0c565b610d0981600161121f565b93505b50610cbb565b82545f9081908015610e25575f610d2e8761074c60018561120c565b60408051808201909152905463ffffffff808216808452600160201b9092046001600160e01b031660208401529192509087161015610d8057604051632520601d60e01b815260040160405180910390fd5b805163ffffffff808816911603610dc85784610da18861074c60018661120c565b80546001600160e01b0392909216600160201b0263ffffffff909216919091179055610c4e565b6040805180820190915263ffffffff80881682526001600160e01b0380881660208085019182528b54600181018d555f8d81529190912094519151909216600160201b029216919091179101556020015192508391506107b89050565b50506040805180820190915263ffffffff80851682526001600160e01b0380851660208085019182528854600181018a555f8a815291822095519251909316600160201b0291909316179201919091559050816107b8565b5f5b81831015610b36575f610e92848461100d565b5f8781526020902090915063ffffffff86169082015463ffffffff161115610ebc57809250610eca565b610ec781600161121f565b93505b50610e7f565b5f815f03610edf57505f919050565b5f6001610eeb84611027565b901c6001901b90506001818481610f0457610f04611232565b048201901c90506001818481610f1c57610f1c611232565b048201901c90506001818481610f3457610f34611232565b048201901c90506001818481610f4c57610f4c611232565b048201901c90506001818481610f6457610f64611232565b048201901c90506001818481610f7c57610f7c611232565b048201901c90506001818481610f9457610f94611232565b048201901c905061047781828581610fae57610fae611232565b046110ba565b5f5b81831015610b36575f610fc9848461100d565b5f878152602090209091506001600160601b038616908201546001600160601b0316101561100357610ffc81600161121f565b9350611007565b8092505b50610fb6565b5f61101b6002848418611246565b6104779084841661121f565b5f80608083901c1561103b57608092831c92015b604083901c1561104d57604092831c92015b602083901c1561105f57602092831c92015b601083901c1561107157601092831c92015b600883901c1561108357600892831c92015b600483901c1561109557600492831c92015b600283901c156110a757600292831c92015b600183901c156104475760010192915050565b5f8183106110c85781610477565b5090919050565b5f602082840312156110df575f80fd5b5035919050565b803563ffffffff811681146110f9575f80fd5b919050565b5f806040838503121561110f575f80fd5b8235915061111f602084016110e6565b90509250929050565b80356001600160601b03811681146110f9575f80fd5b5f805f60608486031215611150575f80fd5b8335925061116060208501611128565b915060408401356001600160a01b038116811461117b575f80fd5b809150509250925092565b5f8060408385031215611197575f80fd5b8235915061111f60208401611128565b5f805f606084860312156111b9575f80fd5b833592506111c9602085016110e6565b915060408401356001600160e01b038116811461117b575f80fd5b634e487b7160e01b5f52603260045260245ffd5b634e487b7160e01b5f52601160045260245ffd5b81810381811115610447576104476111f8565b80820180821115610447576104476111f8565b634e487b7160e01b5f52601260045260245ffd5b5f8261126057634e487b7160e01b5f52601260045260245ffd5b50049056fea2646970667358221220f005edf347aa55eecb1aa25784c624dafe5ee431806c38238d3b594c0aeec0cd64736f6c63430008140033",
  "linkReferences": {},
  "deployedLinkReferences": {}
}