{
  "_format": "hh-sol-artifact-1",
  "contractName": "$ERC20Capped",
  "sourceName": "contracts-exposed/token/ERC20/extensions/ERC20Capped.sol",
  "abi": [
    {
      "inputs": [
        {
          "internalType": "string",
          "name": "name_",
          "type": "string"
        },
        {
          "internalType": "string",
          "name": "symbol_",
          "type": "string"
        },
        {
          "internalType": "uint256",
          "name": "cap_",
          "type": "uint256"
        }
      ],
      "stateMutability": "payable",
      "type": "constructor"
    },
    {
      "inputs": [
        {
          "internalType": "uint256",
          "name": "increasedSupply",
          "type": "uint256"
        },
        {
          "internalType": "uint256",
          "name": "cap",
          "type": "uint256"
        }
      ],
      "name": "ERC20ExceededCap",
      "type": "error"
    },
    {
      "inputs": [
        {
          "internalType": "address",
          "name": "spender",
          "type": "address"
        },
        {
          "internalType": "uint256",
          "name": "currentAllowance",
          "type": "uint256"
        },
        {
          "internalType": "uint256",
          "name": "requestedDecrease",
          "type": "uint256"
        }
      ],
      "name": "ERC20FailedDecreaseAllowance",
      "type": "error"
    },
    {
      "inputs": [
        {
          "internalType": "address",
          "name": "spender",
          "type": "address"
        },
        {
          "internalType": "uint256",
          "name": "allowance",
          "type": "uint256"
        },
        {
          "internalType": "uint256",
          "name": "needed",
          "type": "uint256"
        }
      ],
      "name": "ERC20InsufficientAllowance",
      "type": "error"
    },
    {
      "inputs": [
        {
          "internalType": "address",
          "name": "sender",
          "type": "address"
        },
        {
          "internalType": "uint256",
          "name": "balance",
          "type": "uint256"
        },
        {
          "internalType": "uint256",
          "name": "needed",
          "type": "uint256"
        }
      ],
      "name": "ERC20InsufficientBalance",
      "type": "error"
    },
    {
      "inputs": [
        {
          "internalType": "address",
          "name": "approver",
          "type": "address"
        }
      ],
      "name": "ERC20InvalidApprover",
      "type": "error"
    },
    {
      "inputs": [
        {
          "internalType": "uint256",
          "name": "cap",
          "type": "uint256"
        }
      ],
      "name": "ERC20InvalidCap",
      "type": "error"
    },
    {
      "inputs": [
        {
          "internalType": "address",
          "name": "receiver",
          "type": "address"
        }
      ],
      "name": "ERC20InvalidReceiver",
      "type": "error"
    },
    {
      "inputs": [
        {
          "internalType": "address",
          "name": "sender",
          "type": "address"
        }
      ],
      "name": "ERC20InvalidSender",
      "type": "error"
    },
    {
      "inputs": [
        {
          "internalType": "address",
          "name": "spender",
          "type": "address"
        }
      ],
      "name": "ERC20InvalidSpender",
      "type": "error"
    },
    {
      "anonymous": false,
      "inputs": [
        {
          "indexed": true,
          "internalType": "address",
          "name": "owner",
          "type": "address"
        },
        {
          "indexed": true,
          "internalType": "address",
          "name": "spender",
          "type": "address"
        },
        {
          "indexed": false,
          "internalType": "uint256",
          "name": "value",
          "type": "uint256"
        }
      ],
      "name": "Approval",
      "type": "event"
    },
    {
      "anonymous": false,
      "inputs": [
        {
          "indexed": true,
          "internalType": "address",
          "name": "from",
          "type": "address"
        },
        {
          "indexed": true,
          "internalType": "address",
          "name": "to",
          "type": "address"
        },
        {
          "indexed": false,
          "internalType": "uint256",
          "name": "value",
          "type": "uint256"
        }
      ],
      "name": "Transfer",
      "type": "event"
    },
    {
      "inputs": [
        {
          "internalType": "address",
          "name": "owner",
          "type": "address"
        },
        {
          "internalType": "address",
          "name": "spender",
          "type": "address"
        },
        {
          "internalType": "uint256",
          "name": "value",
          "type": "uint256"
        },
        {
          "internalType": "bool",
          "name": "emitEvent",
          "type": "bool"
        }
      ],
      "name": "$_approve",
      "outputs": [],
      "stateMutability": "nonpayable",
      "type": "function"
    },
    {
      "inputs": [
        {
          "internalType": "address",
          "name": "owner",
          "type": "address"
        },
        {
          "internalType": "address",
          "name": "spender",
          "type": "address"
        },
        {
          "internalType": "uint256",
          "name": "value",
          "type": "uint256"
        }
      ],
      "name": "$_approve",
      "outputs": [],
      "stateMutability": "nonpayable",
      "type": "function"
    },
    {
      "inputs": [
        {
          "internalType": "address",
          "name": "account",
          "type": "address"
        },
        {
          "internalType": "uint256",
          "name": "value",
          "type": "uint256"
        }
      ],
      "name": "$_burn",
      "outputs": [],
      "stateMutability": "nonpayable",
      "type": "function"
    },
    {
      "inputs": [
        {
          "internalType": "address",
          "name": "account",
          "type": "address"
        },
        {
          "internalType": "uint256",
          "name": "value",
          "type": "uint256"
        }
      ],
      "name": "$_mint",
      "outputs": [],
      "stateMutability": "nonpayable",
      "type": "function"
    },
    {
      "inputs": [],
      "name": "$_msgData",
      "outputs": [
        {
          "internalType": "bytes",
          "name": "ret0",
          "type": "bytes"
        }
      ],
      "stateMutability": "view",
      "type": "function"
    },
    {
      "inputs": [],
      "name": "$_msgSender",
      "outputs": [
        {
          "internalType": "address",
          "name": "ret0",
          "type": "address"
        }
      ],
      "stateMutability": "view",
      "type": "function"
    },
    {
      "inputs": [
        {
          "internalType": "address",
          "name": "owner",
          "type": "address"
        },
        {
          "internalType": "address",
          "name": "spender",
          "type": "address"
        },
        {
          "internalType": "uint256",
          "name": "value",
          "type": "uint256"
        }
      ],
      "name": "$_spendAllowance",
      "outputs": [],
      "stateMutability": "nonpayable",
      "type": "function"
    },
    {
      "inputs": [
        {
          "internalType": "address",
          "name": "from",
          "type": "address"
        },
        {
          "internalType": "address",
          "name": "to",
          "type": "address"
        },
        {
          "internalType": "uint256",
          "name": "value",
          "type": "uint256"
        }
      ],
      "name": "$_transfer",
      "outputs": [],
      "stateMutability": "nonpayable",
      "type": "function"
    },
    {
      "inputs": [
        {
          "internalType": "address",
          "name": "from",
          "type": "address"
        },
        {
          "internalType": "address",
          "name": "to",
          "type": "address"
        },
        {
          "internalType": "uint256",
          "name": "value",
          "type": "uint256"
        }
      ],
      "name": "$_update",
      "outputs": [],
      "stateMutability": "nonpayable",
      "type": "function"
    },
    {
      "inputs": [],
      "name": "__hh_exposed_bytecode_marker",
      "outputs": [
        {
          "internalType": "bytes32",
          "name": "",
          "type": "bytes32"
        }
      ],
      "stateMutability": "view",
      "type": "function"
    },
    {
      "inputs": [
        {
          "internalType": "address",
          "name": "owner",
          "type": "address"
        },
        {
          "internalType": "address",
          "name": "spender",
          "type": "address"
        }
      ],
      "name": "allowance",
      "outputs": [
        {
          "internalType": "uint256",
          "name": "",
          "type": "uint256"
        }
      ],
      "stateMutability": "view",
      "type": "function"
    },
    {
      "inputs": [
        {
          "internalType": "address",
          "name": "spender",
          "type": "address"
        },
        {
          "internalType": "uint256",
          "name": "value",
          "type": "uint256"
        }
      ],
      "name": "approve",
      "outputs": [
        {
          "internalType": "bool",
          "name": "",
          "type": "bool"
        }
      ],
      "stateMutability": "nonpayable",
      "type": "function"
    },
    {
      "inputs": [
        {
          "internalType": "address",
          "name": "account",
          "type": "address"
        }
      ],
      "name": "balanceOf",
      "outputs": [
        {
          "internalType": "uint256",
          "name": "",
          "type": "uint256"
        }
      ],
      "stateMutability": "view",
      "type": "function"
    },
    {
      "inputs": [],
      "name": "cap",
      "outputs": [
        {
          "internalType": "uint256",
          "name": "",
          "type": "uint256"
        }
      ],
      "stateMutability": "view",
      "type": "function"
    },
    {
      "inputs": [],
      "name": "decimals",
      "outputs": [
        {
          "internalType": "uint8",
          "name": "",
          "type": "uint8"
        }
      ],
      "stateMutability": "view",
      "type": "function"
    },
    {
      "inputs": [
        {
          "internalType": "address",
          "name": "spender",
          "type": "address"
        },
        {
          "internalType": "uint256",
          "name": "requestedDecrease",
          "type": "uint256"
        }
      ],
      "name": "decreaseAllowance",
      "outputs": [
        {
          "internalType": "bool",
          "name": "",
          "type": "bool"
        }
      ],
      "stateMutability": "nonpayable",
      "type": "function"
    },
    {
      "inputs": [
        {
          "internalType": "address",
          "name": "spender",
          "type": "address"
        },
        {
          "internalType": "uint256",
          "name": "addedValue",
          "type": "uint256"
        }
      ],
      "name": "increaseAllowance",
      "outputs": [
        {
          "internalType": "bool",
          "name": "",
          "type": "bool"
        }
      ],
      "stateMutability": "nonpayable",
      "type": "function"
    },
    {
      "inputs": [],
      "name": "name",
      "outputs": [
        {
          "internalType": "string",
          "name": "",
          "type": "string"
        }
      ],
      "stateMutability": "view",
      "type": "function"
    },
    {
      "inputs": [],
      "name": "symbol",
      "outputs": [
        {
          "internalType": "string",
          "name": "",
          "type": "string"
        }
      ],
      "stateMutability": "view",
      "type": "function"
    },
    {
      "inputs": [],
      "name": "totalSupply",
      "outputs": [
        {
          "internalType": "uint256",
          "name": "",
          "type": "uint256"
        }
      ],
      "stateMutability": "view",
      "type": "function"
    },
    {
      "inputs": [
        {
          "internalType": "address",
          "name": "to",
          "type": "address"
        },
        {
          "internalType": "uint256",
          "name": "value",
          "type": "uint256"
        }
      ],
      "name": "transfer",
      "outputs": [
        {
          "internalType": "bool",
          "name": "",
          "type": "bool"
        }
      ],
      "stateMutability": "nonpayable",
      "type": "function"
    },
    {
      "inputs": [
        {
          "internalType": "address",
          "name": "from",
          "type": "address"
        },
        {
          "internalType": "address",
          "name": "to",
          "type": "address"
        },
        {
          "internalType": "uint256",
          "name": "value",
          "type": "uint256"
        }
      ],
      "name": "transferFrom",
      "outputs": [
        {
          "internalType": "bool",
          "name": "",
          "type": "bool"
        }
      ],
      "stateMutability": "nonpayable",
      "type": "function"
    },
    {
      "stateMutability": "payable",
      "type": "receive"
    }
  ],
  "bytecode": "0x60a060405260405162000ee238038062000ee283398101604081905262000026916200013b565b808383600362000037838262000235565b50600462000046828262000235565b505050805f03620000705760405163392e1e2760e01b81525f600482015260240160405180910390fd5b60805250620002fd915050565b634e487b7160e01b5f52604160045260245ffd5b5f82601f830112620000a1575f80fd5b81516001600160401b0380821115620000be57620000be6200007d565b604051601f8301601f19908116603f01168101908282118183101715620000e957620000e96200007d565b8160405283815260209250868385880101111562000105575f80fd5b5f91505b8382101562000128578582018301518183018401529082019062000109565b5f93810190920192909252949350505050565b5f805f606084860312156200014e575f80fd5b83516001600160401b038082111562000165575f80fd5b620001738783880162000091565b9450602086015191508082111562000189575f80fd5b50620001988682870162000091565b925050604084015190509250925092565b600181811c90821680620001be57607f821691505b602082108103620001dd57634e487b7160e01b5f52602260045260245ffd5b50919050565b601f82111562000230575f81815260208120601f850160051c810160208610156200020b5750805b601f850160051c820191505b818110156200022c5782815560010162000217565b5050505b505050565b81516001600160401b038111156200025157620002516200007d565b6200026981620002628454620001a9565b84620001e3565b602080601f8311600181146200029f575f8415620002875750858301515b5f19600386901b1c1916600185901b1785556200022c565b5f85815260208120601f198616915b82811015620002cf57888601518255948401946001909101908401620002ae565b5085821015620002ed57878501515f19600388901b60f8161c191681555b5050505050600190811b01905550565b608051610bc56200031d5f395f818161027201526107e60152610bc55ff3fe608060405260043610610134575f3560e01c80636855a178116100a8578063a9059cbb1161006d578063a9059cbb1461035a578063b2331d7d14610379578063cc461d6214610398578063dd62ed3e146103b7578063e047838d146103d6578063efb43b07146103f5575f80fd5b80636855a178146102b557806370a08231146102d4578063861e3d3d1461030857806395d89b4114610327578063a457c2d71461033b575f80fd5b8063313ce567116100f9578063313ce567146101ef57806332bc74aa1461020a57806332cadf3c1461022b578063342db7391461023f578063355274ea146102645780633950935114610296575f80fd5b806306fdde031461013f578063095ea7b31461016957806318160ddd1461019857806323b872dd146101b65780632904df29146101d5575f80fd5b3661013b57005b5f80fd5b34801561014a575f80fd5b50610153610414565b6040516101609190610a09565b60405180910390f35b348015610174575f80fd5b50610188610183366004610a3d565b6104a4565b6040519015158152602001610160565b3480156101a3575f80fd5b506002545b604051908152602001610160565b3480156101c1575f80fd5b506101886101d0366004610a65565b6104bd565b3480156101e0575f80fd5b50604051338152602001610160565b3480156101fa575f80fd5b5060405160128152602001610160565b348015610215575f80fd5b50610229610224366004610a9e565b6104e0565b005b348015610236575f80fd5b506101536104f2565b34801561024a575f80fd5b506101a86e1a185c991a185d0b595e1c1bdcd959608a1b81565b34801561026f575f80fd5b507f00000000000000000000000000000000000000000000000000000000000000006101a8565b3480156102a1575f80fd5b506101886102b0366004610a3d565b61052f565b3480156102c0575f80fd5b506102296102cf366004610a65565b610550565b3480156102df575f80fd5b506101a86102ee366004610aee565b6001600160a01b03165f9081526020819052604090205490565b348015610313575f80fd5b50610229610322366004610a65565b610560565b348015610332575f80fd5b5061015361056b565b348015610346575f80fd5b50610188610355366004610a3d565b61057a565b348015610365575f80fd5b50610188610374366004610a3d565b6105d5565b348015610384575f80fd5b50610229610393366004610a65565b6105e2565b3480156103a3575f80fd5b506102296103b2366004610a3d565b6105ed565b3480156103c2575f80fd5b506101a86103d1366004610b07565b6105fb565b3480156103e1575f80fd5b506102296103f0366004610a3d565b610625565b348015610400575f80fd5b5061022961040f366004610a65565b61062f565b60606003805461042390610b38565b80601f016020809104026020016040519081016040528092919081815260200182805461044f90610b38565b801561049a5780601f106104715761010080835404028352916020019161049a565b820191905f5260205f20905b81548152906001019060200180831161047d57829003601f168201915b5050505050905090565b5f336104b181858561063a565b60019150505b92915050565b5f336104ca858285610647565b6104d58585856106a4565b506001949350505050565b6104ec848484846106f6565b50505050565b60605f368080601f0160208091040260200160405190810160405280939291908181526020018383808284375f9201919091525092949350505050565b5f336104b181858561054183836105fb565b61054b9190610b70565b61063a565b61055b8383836107c8565b505050565b61055b83838361063a565b60606004805461042390610b38565b5f338161058782866105fb565b9050838110156105c857604051632983c0c360e21b81526001600160a01b038616600482015260248101829052604481018590526064015b60405180910390fd5b6104d5828686840361063a565b5f336104b18185856106a4565b61055b838383610647565b6105f78282610838565b5050565b6001600160a01b039182165f90815260016020908152604080832093909416825291909152205490565b6105f7828261086c565b61055b8383836106a4565b61055b83838360016106f6565b5f61065284846105fb565b90505f1981146104ec578181101561069657604051637dc7a0d960e11b81526001600160a01b038416600482015260248101829052604481018390526064016105bf565b6104ec84848484035f6106f6565b6001600160a01b0383166106cd57604051634b637e8f60e11b81525f60048201526024016105bf565b6001600160a01b0382166105505760405163ec442f0560e01b81525f60048201526024016105bf565b6001600160a01b03841661071f5760405163e602df0560e01b81525f60048201526024016105bf565b6001600160a01b03831661074857604051634a1406b160e11b81525f60048201526024016105bf565b6001600160a01b038085165f90815260016020908152604080832093871683529290522082905580156104ec57826001600160a01b0316846001600160a01b03167f8c5be1e5ebec7d5bd14f71427d1e84f3dd0314c0f7b2291e5b200ac8c7c3b925846040516107ba91815260200190565b60405180910390a350505050565b6107d38383836108a0565b6001600160a01b03831661055b576002547f000000000000000000000000000000000000000000000000000000000000000090818111156108315760405163279e7e1560e21b815260048101829052602481018390526044016105bf565b5050505050565b6001600160a01b0382166108615760405163ec442f0560e01b81525f60048201526024016105bf565b6105f75f83836107c8565b6001600160a01b03821661089557604051634b637e8f60e11b81525f60048201526024016105bf565b6105f7825f836107c8565b6001600160a01b0383166108ca578060025f8282546108bf9190610b70565b9091555061093a9050565b6001600160a01b0383165f908152602081905260409020548181101561091c5760405163391434e360e21b81526001600160a01b038516600482015260248101829052604481018390526064016105bf565b6001600160a01b0384165f9081526020819052604090209082900390555b6001600160a01b03821661095657600280548290039055610974565b6001600160a01b0382165f9081526020819052604090208054820190555b816001600160a01b0316836001600160a01b03167fddf252ad1be2c89b69c2b068fc378daa952ba7f163c4a11628f55a4df523b3ef836040516109b991815260200190565b60405180910390a3505050565b5f81518084525f5b818110156109ea576020818501810151868301820152016109ce565b505f602082860101526020601f19601f83011685010191505092915050565b602081525f610a1b60208301846109c6565b9392505050565b80356001600160a01b0381168114610a38575f80fd5b919050565b5f8060408385031215610a4e575f80fd5b610a5783610a22565b946020939093013593505050565b5f805f60608486031215610a77575f80fd5b610a8084610a22565b9250610a8e60208501610a22565b9150604084013590509250925092565b5f805f8060808587031215610ab1575f80fd5b610aba85610a22565b9350610ac860208601610a22565b92506040850135915060608501358015158114610ae3575f80fd5b939692955090935050565b5f60208284031215610afe575f80fd5b610a1b82610a22565b5f8060408385031215610b18575f80fd5b610b2183610a22565b9150610b2f60208401610a22565b90509250929050565b600181811c90821680610b4c57607f821691505b602082108103610b6a57634e487b7160e01b5f52602260045260245ffd5b50919050565b808201808211156104b757634e487b7160e01b5f52601160045260245ffdfea26469706673582212205fd9363ef50135380e491dae7dfafe6e6b3655e998618c30f94efed7bcd6a4b964736f6c63430008140033",
  "linkReferences": {},
  "deployedLinkReferences": {}
}