{
  "_format": "hh-sol-artifact-1",
  "contractName": "$ERC2771Forwarder",
  "sourceName": "contracts-exposed/metatx/ERC2771Forwarder.sol",
  "abi": [
    {
      "inputs": [
        {
          "internalType": "string",
          "name": "name",
          "type": "string"
        }
      ],
      "stateMutability": "payable",
      "type": "constructor"
    },
    {
      "inputs": [
        {
          "internalType": "address",
          "name": "account",
          "type": "address"
        }
      ],
      "name": "AddressInsufficientBalance",
      "type": "error"
    },
    {
      "inputs": [],
      "name": "ECDSAInvalidSignature",
      "type": "error"
    },
    {
      "inputs": [
        {
          "internalType": "uint256",
          "name": "length",
          "type": "uint256"
        }
      ],
      "name": "ECDSAInvalidSignatureLength",
      "type": "error"
    },
    {
      "inputs": [
        {
          "internalType": "bytes32",
          "name": "s",
          "type": "bytes32"
        }
      ],
      "name": "ECDSAInvalidSignatureS",
      "type": "error"
    },
    {
      "inputs": [
        {
          "internalType": "uint48",
          "name": "deadline",
          "type": "uint48"
        }
      ],
      "name": "ERC2771ForwarderExpiredRequest",
      "type": "error"
    },
    {
      "inputs": [
        {
          "internalType": "address",
          "name": "signer",
          "type": "address"
        },
        {
          "internalType": "address",
          "name": "from",
          "type": "address"
        }
      ],
      "name": "ERC2771ForwarderInvalidSigner",
      "type": "error"
    },
    {
      "inputs": [
        {
          "internalType": "uint256",
          "name": "requestedValue",
          "type": "uint256"
        },
        {
          "internalType": "uint256",
          "name": "msgValue",
          "type": "uint256"
        }
      ],
      "name": "ERC2771ForwarderMismatchedValue",
      "type": "error"
    },
    {
      "inputs": [],
      "name": "FailedInnerCall",
      "type": "error"
    },
    {
      "inputs": [
        {
          "internalType": "address",
          "name": "account",
          "type": "address"
        },
        {
          "internalType": "uint256",
          "name": "currentNonce",
          "type": "uint256"
        }
      ],
      "name": "InvalidAccountNonce",
      "type": "error"
    },
    {
      "inputs": [],
      "name": "InvalidShortString",
      "type": "error"
    },
    {
      "inputs": [
        {
          "internalType": "string",
          "name": "str",
          "type": "string"
        }
      ],
      "name": "StringTooLong",
      "type": "error"
    },
    {
      "anonymous": false,
      "inputs": [],
      "name": "EIP712DomainChanged",
      "type": "event"
    },
    {
      "anonymous": false,
      "inputs": [
        {
          "indexed": true,
          "internalType": "address",
          "name": "signer",
          "type": "address"
        },
        {
          "indexed": false,
          "internalType": "uint256",
          "name": "nonce",
          "type": "uint256"
        },
        {
          "indexed": false,
          "internalType": "bool",
          "name": "success",
          "type": "bool"
        }
      ],
      "name": "ExecutedForwardRequest",
      "type": "event"
    },
    {
      "anonymous": false,
      "inputs": [
        {
          "indexed": false,
          "internalType": "bool",
          "name": "success",
          "type": "bool"
        }
      ],
      "name": "return$_execute",
      "type": "event"
    },
    {
      "anonymous": false,
      "inputs": [
        {
          "indexed": false,
          "internalType": "uint256",
          "name": "ret0",
          "type": "uint256"
        }
      ],
      "name": "return$_useCheckedNonce",
      "type": "event"
    },
    {
      "anonymous": false,
      "inputs": [
        {
          "indexed": false,
          "internalType": "uint256",
          "name": "ret0",
          "type": "uint256"
        }
      ],
      "name": "return$_useNonce",
      "type": "event"
    },
    {
      "inputs": [],
      "name": "$_EIP712Name",
      "outputs": [
        {
          "internalType": "string",
          "name": "ret0",
          "type": "string"
        }
      ],
      "stateMutability": "view",
      "type": "function"
    },
    {
      "inputs": [],
      "name": "$_EIP712Version",
      "outputs": [
        {
          "internalType": "string",
          "name": "ret0",
          "type": "string"
        }
      ],
      "stateMutability": "view",
      "type": "function"
    },
    {
      "inputs": [],
      "name": "$_FORWARD_REQUEST_TYPEHASH",
      "outputs": [
        {
          "internalType": "bytes32",
          "name": "",
          "type": "bytes32"
        }
      ],
      "stateMutability": "pure",
      "type": "function"
    },
    {
      "inputs": [],
      "name": "$_domainSeparatorV4",
      "outputs": [
        {
          "internalType": "bytes32",
          "name": "ret0",
          "type": "bytes32"
        }
      ],
      "stateMutability": "view",
      "type": "function"
    },
    {
      "inputs": [
        {
          "components": [
            {
              "internalType": "address",
              "name": "from",
              "type": "address"
            },
            {
              "internalType": "address",
              "name": "to",
              "type": "address"
            },
            {
              "internalType": "uint256",
              "name": "value",
              "type": "uint256"
            },
            {
              "internalType": "uint256",
              "name": "gas",
              "type": "uint256"
            },
            {
              "internalType": "uint48",
              "name": "deadline",
              "type": "uint48"
            },
            {
              "internalType": "bytes",
              "name": "data",
              "type": "bytes"
            },
            {
              "internalType": "bytes",
              "name": "signature",
              "type": "bytes"
            }
          ],
          "internalType": "struct ERC2771Forwarder.ForwardRequestData",
          "name": "request",
          "type": "tuple"
        },
        {
          "internalType": "bool",
          "name": "requireValidRequest",
          "type": "bool"
        }
      ],
      "name": "$_execute",
      "outputs": [
        {
          "internalType": "bool",
          "name": "success",
          "type": "bool"
        }
      ],
      "stateMutability": "nonpayable",
      "type": "function"
    },
    {
      "inputs": [
        {
          "internalType": "bytes32",
          "name": "structHash",
          "type": "bytes32"
        }
      ],
      "name": "$_hashTypedDataV4",
      "outputs": [
        {
          "internalType": "bytes32",
          "name": "ret0",
          "type": "bytes32"
        }
      ],
      "stateMutability": "view",
      "type": "function"
    },
    {
      "inputs": [
        {
          "components": [
            {
              "internalType": "address",
              "name": "from",
              "type": "address"
            },
            {
              "internalType": "address",
              "name": "to",
              "type": "address"
            },
            {
              "internalType": "uint256",
              "name": "value",
              "type": "uint256"
            },
            {
              "internalType": "uint256",
              "name": "gas",
              "type": "uint256"
            },
            {
              "internalType": "uint48",
              "name": "deadline",
              "type": "uint48"
            },
            {
              "internalType": "bytes",
              "name": "data",
              "type": "bytes"
            },
            {
              "internalType": "bytes",
              "name": "signature",
              "type": "bytes"
            }
          ],
          "internalType": "struct ERC2771Forwarder.ForwardRequestData",
          "name": "request",
          "type": "tuple"
        }
      ],
      "name": "$_recoverForwardRequestSigner",
      "outputs": [
        {
          "internalType": "address",
          "name": "ret0",
          "type": "address"
        }
      ],
      "stateMutability": "view",
      "type": "function"
    },
    {
      "inputs": [
        {
          "internalType": "address",
          "name": "owner",
          "type": "address"
        },
        {
          "internalType": "uint256",
          "name": "nonce",
          "type": "uint256"
        }
      ],
      "name": "$_useCheckedNonce",
      "outputs": [
        {
          "internalType": "uint256",
          "name": "ret0",
          "type": "uint256"
        }
      ],
      "stateMutability": "nonpayable",
      "type": "function"
    },
    {
      "inputs": [
        {
          "internalType": "address",
          "name": "owner",
          "type": "address"
        }
      ],
      "name": "$_useNonce",
      "outputs": [
        {
          "internalType": "uint256",
          "name": "ret0",
          "type": "uint256"
        }
      ],
      "stateMutability": "nonpayable",
      "type": "function"
    },
    {
      "inputs": [
        {
          "components": [
            {
              "internalType": "address",
              "name": "from",
              "type": "address"
            },
            {
              "internalType": "address",
              "name": "to",
              "type": "address"
            },
            {
              "internalType": "uint256",
              "name": "value",
              "type": "uint256"
            },
            {
              "internalType": "uint256",
              "name": "gas",
              "type": "uint256"
            },
            {
              "internalType": "uint48",
              "name": "deadline",
              "type": "uint48"
            },
            {
              "internalType": "bytes",
              "name": "data",
              "type": "bytes"
            },
            {
              "internalType": "bytes",
              "name": "signature",
              "type": "bytes"
            }
          ],
          "internalType": "struct ERC2771Forwarder.ForwardRequestData",
          "name": "request",
          "type": "tuple"
        }
      ],
      "name": "$_validate",
      "outputs": [
        {
          "internalType": "bool",
          "name": "alive",
          "type": "bool"
        },
        {
          "internalType": "bool",
          "name": "signerMatch",
          "type": "bool"
        },
        {
          "internalType": "address",
          "name": "signer",
          "type": "address"
        }
      ],
      "stateMutability": "view",
      "type": "function"
    },
    {
      "inputs": [],
      "name": "__hh_exposed_bytecode_marker",
      "outputs": [
        {
          "internalType": "bytes32",
          "name": "",
          "type": "bytes32"
        }
      ],
      "stateMutability": "view",
      "type": "function"
    },
    {
      "inputs": [],
      "name": "eip712Domain",
      "outputs": [
        {
          "internalType": "bytes1",
          "name": "fields",
          "type": "bytes1"
        },
        {
          "internalType": "string",
          "name": "name",
          "type": "string"
        },
        {
          "internalType": "string",
          "name": "version",
          "type": "string"
        },
        {
          "internalType": "uint256",
          "name": "chainId",
          "type": "uint256"
        },
        {
          "internalType": "address",
          "name": "verifyingContract",
          "type": "address"
        },
        {
          "internalType": "bytes32",
          "name": "salt",
          "type": "bytes32"
        },
        {
          "internalType": "uint256[]",
          "name": "extensions",
          "type": "uint256[]"
        }
      ],
      "stateMutability": "view",
      "type": "function"
    },
    {
      "inputs": [
        {
          "components": [
            {
              "internalType": "address",
              "name": "from",
              "type": "address"
            },
            {
              "internalType": "address",
              "name": "to",
              "type": "address"
            },
            {
              "internalType": "uint256",
              "name": "value",
              "type": "uint256"
            },
            {
              "internalType": "uint256",
              "name": "gas",
              "type": "uint256"
            },
            {
              "internalType": "uint48",
              "name": "deadline",
              "type": "uint48"
            },
            {
              "internalType": "bytes",
              "name": "data",
              "type": "bytes"
            },
            {
              "internalType": "bytes",
              "name": "signature",
              "type": "bytes"
            }
          ],
          "internalType": "struct ERC2771Forwarder.ForwardRequestData",
          "name": "request",
          "type": "tuple"
        }
      ],
      "name": "execute",
      "outputs": [],
      "stateMutability": "payable",
      "type": "function"
    },
    {
      "inputs": [
        {
          "components": [
            {
              "internalType": "address",
              "name": "from",
              "type": "address"
            },
            {
              "internalType": "address",
              "name": "to",
              "type": "address"
            },
            {
              "internalType": "uint256",
              "name": "value",
              "type": "uint256"
            },
            {
              "internalType": "uint256",
              "name": "gas",
              "type": "uint256"
            },
            {
              "internalType": "uint48",
              "name": "deadline",
              "type": "uint48"
            },
            {
              "internalType": "bytes",
              "name": "data",
              "type": "bytes"
            },
            {
              "internalType": "bytes",
              "name": "signature",
              "type": "bytes"
            }
          ],
          "internalType": "struct ERC2771Forwarder.ForwardRequestData[]",
          "name": "requests",
          "type": "tuple[]"
        },
        {
          "internalType": "address payable",
          "name": "refundReceiver",
          "type": "address"
        }
      ],
      "name": "executeBatch",
      "outputs": [],
      "stateMutability": "payable",
      "type": "function"
    },
    {
      "inputs": [
        {
          "internalType": "address",
          "name": "owner",
          "type": "address"
        }
      ],
      "name": "nonces",
      "outputs": [
        {
          "internalType": "uint256",
          "name": "",
          "type": "uint256"
        }
      ],
      "stateMutability": "view",
      "type": "function"
    },
    {
      "inputs": [
        {
          "components": [
            {
              "internalType": "address",
              "name": "from",
              "type": "address"
            },
            {
              "internalType": "address",
              "name": "to",
              "type": "address"
            },
            {
              "internalType": "uint256",
              "name": "value",
              "type": "uint256"
            },
            {
              "internalType": "uint256",
              "name": "gas",
              "type": "uint256"
            },
            {
              "internalType": "uint48",
              "name": "deadline",
              "type": "uint48"
            },
            {
              "internalType": "bytes",
              "name": "data",
              "type": "bytes"
            },
            {
              "internalType": "bytes",
              "name": "signature",
              "type": "bytes"
            }
          ],
          "internalType": "struct ERC2771Forwarder.ForwardRequestData",
          "name": "request",
          "type": "tuple"
        }
      ],
      "name": "verify",
      "outputs": [
        {
          "internalType": "bool",
          "name": "",
          "type": "bool"
        }
      ],
      "stateMutability": "view",
      "type": "function"
    },
    {
      "stateMutability": "payable",
      "type": "receive"
    }
  ],
  "bytecode": "0x61016060405260405162001832380380620018328339810160408190526200002791620001ba565b6040805180820190915260018152603160f81b6020820152819081906200004f825f620000ff565b6101205262000060816001620000ff565b61014052815160208084019190912060e052815190820120610100524660a052620000ed60e05161010051604080517f8b73c3c69bb8fe3d512ecc4cf759cc79239f7b179b0ffacaa9a75d522b39400f60208201529081019290925260608201524660808201523060a08201525f9060c00160405160208183030381529060405280519060200120905090565b60805250503060c05250620004199050565b5f6020835110156200011e57620001168362000137565b905062000131565b816200012b8482620002f9565b5060ff90505b92915050565b5f80829050601f815111156200016d578260405163305a27a960e01b8152600401620001649190620003c1565b60405180910390fd5b80516200017a82620003f5565b179392505050565b634e487b7160e01b5f52604160045260245ffd5b5f5b83811015620001b257818101518382015260200162000198565b50505f910152565b5f60208284031215620001cb575f80fd5b81516001600160401b0380821115620001e2575f80fd5b818401915084601f830112620001f6575f80fd5b8151818111156200020b576200020b62000182565b604051601f8201601f19908116603f0116810190838211818310171562000236576200023662000182565b816040528281528760208487010111156200024f575f80fd5b6200026283602083016020880162000196565b979650505050505050565b600181811c908216806200028257607f821691505b602082108103620002a157634e487b7160e01b5f52602260045260245ffd5b50919050565b601f821115620002f4575f81815260208120601f850160051c81016020861015620002cf5750805b601f850160051c820191505b81811015620002f057828155600101620002db565b5050505b505050565b81516001600160401b0381111562000315576200031562000182565b6200032d816200032684546200026d565b84620002a7565b602080601f83116001811462000363575f84156200034b5750858301515b5f19600386901b1c1916600185901b178555620002f0565b5f85815260208120601f198616915b82811015620003935788860151825594840194600190910190840162000372565b5085821015620003b157878501515f19600388901b60f8161c191681555b5050505050600190811b01905550565b602081525f8251806020840152620003e181604085016020870162000196565b601f01601f19169190910160400192915050565b80516020808301519190811015620002a1575f1960209190910360031b1b16919050565b60805160a05160c05160e0516101005161012051610140516113c76200046b5f395f61069f01525f61067301525f61081f01525f6107f701525f61075201525f61077c01525f6107a601526113c75ff3fe6080604052600436106100f2575f3560e01c80636b4ac50211610087578063a5de6cf811610057578063a5de6cf8146102e0578063ccf96b4a146102ff578063dac6493a14610314578063df905caf1461034b575f80fd5b80636b4ac50214610234578063788b32ed146102535780637ecebe001461028557806384b0196e146102b9575f80fd5b8063342db739116100c2578063342db739146101975780634c2b6e2e146101bc578063506a6f0c146102015780635f8d5e7414610220575f80fd5b80631164d13b146100fd578063174ccd821461012757806319d8d38c1461013b5780632e8fbee51461016a575f80fd5b366100f957005b5f80fd5b348015610108575f80fd5b5061011161035e565b60405161011e9190610fd6565b60405180910390f35b348015610132575f80fd5b5061011161036d565b348015610146575f80fd5b5061015a610155366004610ffe565b610377565b604051901515815260200161011e565b348015610175575f80fd5b50610189610184366004611044565b61039a565b60405190815260200161011e565b3480156101a2575f80fd5b506101896e1a185c991a185d0b595e1c1bdcd959608a1b81565b3480156101c7575f80fd5b506101db6101d6366004610ffe565b6103fa565b60408051931515845291151560208401526001600160a01b03169082015260600161011e565b34801561020c575f80fd5b5061018961021b36600461105f565b610413565b34801561022b575f80fd5b50610189610423565b34801561023f575f80fd5b5061018961024e366004611076565b61042c565b34801561025e575f80fd5b507f7f96328b83274ebc7c1cf4f7a3abda602b51a78b7fa1d86a2ce353d75e587cac610189565b348015610290575f80fd5b5061018961029f366004611044565b6001600160a01b03165f9081526002602052604090205490565b3480156102c4575f80fd5b506102cd610478565b60405161011e97969594939291906110a0565b3480156102eb575f80fd5b5061015a6102fa366004611134565b6104ba565b61031261030d366004611187565b6104fa565b005b34801561031f575f80fd5b5061033361032e366004610ffe565b610607565b6040516001600160a01b03909116815260200161011e565b610312610359366004610ffe565b610611565b606061036861066c565b905090565b6060610368610698565b5f805f610383846106c5565b50915091508180156103925750805b949350505050565b6001600160a01b0381165f90815260026020526040812080546001810190915590507f8d5c13b1cd528a3e1895fdc833368c4e3af5391250c736a28e94c4fa59b3cee4816040516103ed91815260200190565b60405180910390a1919050565b5f805f610406846106c5565b9196909550909350915050565b5f61041d8261071a565b92915050565b5f610368610746565b5f610437838361086f565b90507f173c6dfbda204d89ae7b46789365591384ef0c959833564582f96cd15f445b9b8160405161046a91815260200190565b60405180910390a192915050565b5f6060805f805f606061048961066c565b610491610698565b604080515f80825260208201909252600f60f81b9b939a50919850469750309650945092509050565b5f6104c583836108c8565b90507f395bc7cb967401bbbc8a16dbd20cf4d4106849ba0afbe42b4b9eec1c662b757a8160405161046a911515815260200190565b6001600160a01b038116155f80805b858110156105c05786868281811061052357610523611206565b9050602002810190610535919061121a565b61054390604001358461124c565b92505f61057388888481811061055b5761055b611206565b905060200281019061056d919061121a565b866108c8565b9050806105af5787878381811061058c5761058c611206565b905060200281019061059e919061121a565b6105ac90604001358461124c565b92505b506105b98161125f565b9050610509565b503482146105ef576040516370647f7960e01b8152600481018390523460248201526044015b60405180910390fd5b80156105ff576105ff8482610a93565b505050505050565b5f61041d82610b2b565b8060400135341461064157604080516370647f7960e01b81529082013560048201523460248201526044016105e6565b61064c8160016108c8565b61066957604051630a12f52160e11b815260040160405180910390fd5b50565b60606103687f00000000000000000000000000000000000000000000000000000000000000005f610c6f565b60606103687f00000000000000000000000000000000000000000000000000000000000000006001610c6f565b5f805f6106d184610b2b565b9050426106e460a0860160808701611277565b65ffffffffffff1610156106fb6020860186611044565b6001600160a01b0316826001600160a01b031614925092509193909250565b5f61041d610726610746565b8360405161190160f01b8152600281019290925260228201526042902090565b5f306001600160a01b037f00000000000000000000000000000000000000000000000000000000000000001614801561079e57507f000000000000000000000000000000000000000000000000000000000000000046145b156107c857507f000000000000000000000000000000000000000000000000000000000000000090565b610368604080517f8b73c3c69bb8fe3d512ecc4cf759cc79239f7b179b0ffacaa9a75d522b39400f60208201527f0000000000000000000000000000000000000000000000000000000000000000918101919091527f000000000000000000000000000000000000000000000000000000000000000060608201524660808201523060a08201525f9060c00160405160208183030381529060405280519060200120905090565b6001600160a01b0382165f9081526002602052604081208054600181019091558083146108c1576040516301d4b62360e61b81526001600160a01b0385166004820152602481018290526044016105e6565b9392505050565b5f805f806108d5866106c5565b9250925092508415610959578261091a576108f660a0870160808801611277565b604051634a777ac560e11b815265ffffffffffff90911660048201526024016105e6565b81610959578061092d6020880188611044565b604051636422d02b60e11b81526001600160a01b039283166004820152911660248201526044016105e6565b8180156109635750825b15610a8a576001600160a01b0381165f908152600260205260408120805460018101909155905061099a6040880160208901611044565b6001600160a01b0316606088013560408901356109ba60a08b018b61129c565b6109c760208d018d611044565b6040516020016109d9939291906112e6565b60408051601f19818403018152908290526109f39161130c565b5f60405180830381858888f193505050503d805f8114610a2e576040519150601f19603f3d011682016040523d82523d5f602084013e610a33565b606091505b505080955050610a435a88610d18565b6040805182815286151560208201526001600160a01b038416917f842fb24a83793558587a3dab2be7674da4a51d09c5542d6dd354e5d0ea70813c910160405180910390a2505b50505092915050565b80471015610ab65760405163cd78605960e01b81523060048201526024016105e6565b5f826001600160a01b0316826040515f6040518083038185875af1925050503d805f8114610aff576040519150601f19603f3d011682016040523d82523d5f602084013e610b04565b606091505b5050905080610b2657604051630a12f52160e11b815260040160405180910390fd5b505050565b5f61041d610b3c60c084018461129c565b8080601f0160208091040260200160405190810160405280939291908181526020018383808284375f92019190915250610c6992507f7f96328b83274ebc7c1cf4f7a3abda602b51a78b7fa1d86a2ce353d75e587cac9150610ba390506020870187611044565b610bb36040880160208901611044565b60408801356060890135610bcd61029f60208c018c611044565b610bdd60a08c0160808d01611277565b610bea60a08d018d61129c565b604051610bf892919061131d565b6040805191829003822060208301999099526001600160a01b0397881690820152959094166060860152608085019290925260a084015260c083015265ffffffffffff1660e0820152610100810191909152610120016040516020818303038152906040528051906020012061071a565b90610d34565b606060ff8314610c8957610c8283610d5c565b905061041d565b818054610c959061132c565b80601f0160208091040260200160405190810160405280929190818152602001828054610cc19061132c565b8015610d0c5780601f10610ce357610100808354040283529160200191610d0c565b820191905f5260205f20905b815481529060010190602001808311610cef57829003601f168201915b5050505050905061041d565b610d27603f606083013561135e565b821015610d3057fe5b5050565b5f805f80610d428686610d99565b925092509250610d528282610de2565b5090949350505050565b60605f610d6883610e9a565b6040805160208082528183019092529192505f91906020820181803683375050509182525060208101929092525090565b5f805f8351604103610dd0576020840151604085015160608601515f1a610dc288828585610ec1565b955095509550505050610ddb565b505081515f91506002905b9250925092565b5f826003811115610df557610df561137d565b03610dfe575050565b6001826003811115610e1257610e1261137d565b03610e305760405163f645eedf60e01b815260040160405180910390fd5b6002826003811115610e4457610e4461137d565b03610e655760405163fce698f760e01b8152600481018290526024016105e6565b6003826003811115610e7957610e7961137d565b03610d30576040516335e2f38360e21b8152600481018290526024016105e6565b5f60ff8216601f81111561041d57604051632cd44ac360e21b815260040160405180910390fd5b5f80807f7fffffffffffffffffffffffffffffff5d576e7357a4501ddfe92f46681b20a0841115610efa57505f91506003905082610f7f565b604080515f808252602082018084528a905260ff891692820192909252606081018790526080810186905260019060a0016020604051602081039080840390855afa158015610f4b573d5f803e3d5ffd5b5050604051601f1901519150506001600160a01b038116610f7657505f925060019150829050610f7f565b92505f91508190505b9450945094915050565b5f5b83811015610fa3578181015183820152602001610f8b565b50505f910152565b5f8151808452610fc2816020860160208601610f89565b601f01601f19169290920160200192915050565b602081525f6108c16020830184610fab565b5f60e08284031215610ff8575f80fd5b50919050565b5f6020828403121561100e575f80fd5b813567ffffffffffffffff811115611024575f80fd5b61039284828501610fe8565b6001600160a01b0381168114610669575f80fd5b5f60208284031215611054575f80fd5b81356108c181611030565b5f6020828403121561106f575f80fd5b5035919050565b5f8060408385031215611087575f80fd5b823561109281611030565b946020939093013593505050565b60ff60f81b881681525f602060e0818401526110bf60e084018a610fab565b83810360408501526110d1818a610fab565b606085018990526001600160a01b038816608086015260a0850187905284810360c086015285518082528387019250908301905f5b8181101561112257835183529284019291840191600101611106565b50909c9b505050505050505050505050565b5f8060408385031215611145575f80fd5b823567ffffffffffffffff81111561115b575f80fd5b61116785828601610fe8565b9250506020830135801515811461117c575f80fd5b809150509250929050565b5f805f60408486031215611199575f80fd5b833567ffffffffffffffff808211156111b0575f80fd5b818601915086601f8301126111c3575f80fd5b8135818111156111d1575f80fd5b8760208260051b85010111156111e5575f80fd5b602092830195509350508401356111fb81611030565b809150509250925092565b634e487b7160e01b5f52603260045260245ffd5b5f823560de1983360301811261122e575f80fd5b9190910192915050565b634e487b7160e01b5f52601160045260245ffd5b8082018082111561041d5761041d611238565b5f6001820161127057611270611238565b5060010190565b5f60208284031215611287575f80fd5b813565ffffffffffff811681146108c1575f80fd5b5f808335601e198436030181126112b1575f80fd5b83018035915067ffffffffffffffff8211156112cb575f80fd5b6020019150368190038213156112df575f80fd5b9250929050565b8284823760609190911b6bffffffffffffffffffffffff19169101908152601401919050565b5f825161122e818460208701610f89565b818382375f9101908152919050565b600181811c9082168061134057607f821691505b602082108103610ff857634e487b7160e01b5f52602260045260245ffd5b5f8261137857634e487b7160e01b5f52601260045260245ffd5b500490565b634e487b7160e01b5f52602160045260245ffdfea264697066735822122094c734488e08e22bde50bb4725c1f2fc3179953125dcd9ca1cc61b20120bdaf564736f6c63430008140033",
  "linkReferences": {},
  "deployedLinkReferences": {}
}