{
  "_format": "hh-sol-artifact-1",
  "contractName": "ERC1271MaliciousMock",
  "sourceName": "contracts/mocks/ERC1271WalletMock.sol",
  "abi": [
    {
      "inputs": [
        {
          "internalType": "bytes32",
          "name": "",
          "type": "bytes32"
        },
        {
          "internalType": "bytes",
          "name": "",
          "type": "bytes"
        }
      ],
      "name": "isValidSignature",
      "outputs": [
        {
          "internalType": "bytes4",
          "name": "",
          "type": "bytes4"
        }
      ],
      "stateMutability": "pure",
      "type": "function"
    }
  ],
  "bytecode": "0x608060405234801561000f575f80fd5b506101668061001d5f395ff3fe608060405234801561000f575f80fd5b5060043610610029575f3560e01c80631626ba7e1461002d575b5f80fd5b61004061003b36600461007b565b61005d565b6040516001600160e01b0319909116815260200160405180910390f35b5f80195f5260205ff35b634e487b7160e01b5f52604160045260245ffd5b5f806040838503121561008c575f80fd5b82359150602083013567ffffffffffffffff808211156100aa575f80fd5b818501915085601f8301126100bd575f80fd5b8135818111156100cf576100cf610067565b604051601f8201601f19908116603f011681019083821181831017156100f7576100f7610067565b8160405282815288602084870101111561010f575f80fd5b826020860160208301375f602084830101528095505050505050925092905056fea264697066735822122064dad00ee5a661ed90220f4b0139f37d9415457d35600b5d9014fd510f9aa08764736f6c63430008140033",
  "linkReferences": {},
  "deployedLinkReferences": {}
}