{
  "_format": "hh-sol-artifact-1",
  "contractName": "$ERC20FlashMint",
  "sourceName": "contracts-exposed/token/ERC20/extensions/ERC20FlashMint.sol",
  "abi": [
    {
      "inputs": [
        {
          "internalType": "string",
          "name": "name_",
          "type": "string"
        },
        {
          "internalType": "string",
          "name": "symbol_",
          "type": "string"
        }
      ],
      "stateMutability": "payable",
      "type": "constructor"
    },
    {
      "inputs": [
        {
          "internalType": "address",
          "name": "spender",
          "type": "address"
        },
        {
          "internalType": "uint256",
          "name": "currentAllowance",
          "type": "uint256"
        },
        {
          "internalType": "uint256",
          "name": "requestedDecrease",
          "type": "uint256"
        }
      ],
      "name": "ERC20FailedDecreaseAllowance",
      "type": "error"
    },
    {
      "inputs": [
        {
          "internalType": "address",
          "name": "spender",
          "type": "address"
        },
        {
          "internalType": "uint256",
          "name": "allowance",
          "type": "uint256"
        },
        {
          "internalType": "uint256",
          "name": "needed",
          "type": "uint256"
        }
      ],
      "name": "ERC20InsufficientAllowance",
      "type": "error"
    },
    {
      "inputs": [
        {
          "internalType": "address",
          "name": "sender",
          "type": "address"
        },
        {
          "internalType": "uint256",
          "name": "balance",
          "type": "uint256"
        },
        {
          "internalType": "uint256",
          "name": "needed",
          "type": "uint256"
        }
      ],
      "name": "ERC20InsufficientBalance",
      "type": "error"
    },
    {
      "inputs": [
        {
          "internalType": "address",
          "name": "approver",
          "type": "address"
        }
      ],
      "name": "ERC20InvalidApprover",
      "type": "error"
    },
    {
      "inputs": [
        {
          "internalType": "address",
          "name": "receiver",
          "type": "address"
        }
      ],
      "name": "ERC20InvalidReceiver",
      "type": "error"
    },
    {
      "inputs": [
        {
          "internalType": "address",
          "name": "sender",
          "type": "address"
        }
      ],
      "name": "ERC20InvalidSender",
      "type": "error"
    },
    {
      "inputs": [
        {
          "internalType": "address",
          "name": "spender",
          "type": "address"
        }
      ],
      "name": "ERC20InvalidSpender",
      "type": "error"
    },
    {
      "inputs": [
        {
          "internalType": "uint256",
          "name": "maxLoan",
          "type": "uint256"
        }
      ],
      "name": "ERC3156ExceededMaxLoan",
      "type": "error"
    },
    {
      "inputs": [
        {
          "internalType": "address",
          "name": "receiver",
          "type": "address"
        }
      ],
      "name": "ERC3156InvalidReceiver",
      "type": "error"
    },
    {
      "inputs": [
        {
          "internalType": "address",
          "name": "token",
          "type": "address"
        }
      ],
      "name": "ERC3156UnsupportedToken",
      "type": "error"
    },
    {
      "anonymous": false,
      "inputs": [
        {
          "indexed": true,
          "internalType": "address",
          "name": "owner",
          "type": "address"
        },
        {
          "indexed": true,
          "internalType": "address",
          "name": "spender",
          "type": "address"
        },
        {
          "indexed": false,
          "internalType": "uint256",
          "name": "value",
          "type": "uint256"
        }
      ],
      "name": "Approval",
      "type": "event"
    },
    {
      "anonymous": false,
      "inputs": [
        {
          "indexed": true,
          "internalType": "address",
          "name": "from",
          "type": "address"
        },
        {
          "indexed": true,
          "internalType": "address",
          "name": "to",
          "type": "address"
        },
        {
          "indexed": false,
          "internalType": "uint256",
          "name": "value",
          "type": "uint256"
        }
      ],
      "name": "Transfer",
      "type": "event"
    },
    {
      "inputs": [
        {
          "internalType": "address",
          "name": "owner",
          "type": "address"
        },
        {
          "internalType": "address",
          "name": "spender",
          "type": "address"
        },
        {
          "internalType": "uint256",
          "name": "value",
          "type": "uint256"
        },
        {
          "internalType": "bool",
          "name": "emitEvent",
          "type": "bool"
        }
      ],
      "name": "$_approve",
      "outputs": [],
      "stateMutability": "nonpayable",
      "type": "function"
    },
    {
      "inputs": [
        {
          "internalType": "address",
          "name": "owner",
          "type": "address"
        },
        {
          "internalType": "address",
          "name": "spender",
          "type": "address"
        },
        {
          "internalType": "uint256",
          "name": "value",
          "type": "uint256"
        }
      ],
      "name": "$_approve",
      "outputs": [],
      "stateMutability": "nonpayable",
      "type": "function"
    },
    {
      "inputs": [
        {
          "internalType": "address",
          "name": "account",
          "type": "address"
        },
        {
          "internalType": "uint256",
          "name": "value",
          "type": "uint256"
        }
      ],
      "name": "$_burn",
      "outputs": [],
      "stateMutability": "nonpayable",
      "type": "function"
    },
    {
      "inputs": [
        {
          "internalType": "address",
          "name": "token",
          "type": "address"
        },
        {
          "internalType": "uint256",
          "name": "value",
          "type": "uint256"
        }
      ],
      "name": "$_flashFee",
      "outputs": [
        {
          "internalType": "uint256",
          "name": "ret0",
          "type": "uint256"
        }
      ],
      "stateMutability": "view",
      "type": "function"
    },
    {
      "inputs": [],
      "name": "$_flashFeeReceiver",
      "outputs": [
        {
          "internalType": "address",
          "name": "ret0",
          "type": "address"
        }
      ],
      "stateMutability": "view",
      "type": "function"
    },
    {
      "inputs": [
        {
          "internalType": "address",
          "name": "account",
          "type": "address"
        },
        {
          "internalType": "uint256",
          "name": "value",
          "type": "uint256"
        }
      ],
      "name": "$_mint",
      "outputs": [],
      "stateMutability": "nonpayable",
      "type": "function"
    },
    {
      "inputs": [],
      "name": "$_msgData",
      "outputs": [
        {
          "internalType": "bytes",
          "name": "ret0",
          "type": "bytes"
        }
      ],
      "stateMutability": "view",
      "type": "function"
    },
    {
      "inputs": [],
      "name": "$_msgSender",
      "outputs": [
        {
          "internalType": "address",
          "name": "ret0",
          "type": "address"
        }
      ],
      "stateMutability": "view",
      "type": "function"
    },
    {
      "inputs": [
        {
          "internalType": "address",
          "name": "owner",
          "type": "address"
        },
        {
          "internalType": "address",
          "name": "spender",
          "type": "address"
        },
        {
          "internalType": "uint256",
          "name": "value",
          "type": "uint256"
        }
      ],
      "name": "$_spendAllowance",
      "outputs": [],
      "stateMutability": "nonpayable",
      "type": "function"
    },
    {
      "inputs": [
        {
          "internalType": "address",
          "name": "from",
          "type": "address"
        },
        {
          "internalType": "address",
          "name": "to",
          "type": "address"
        },
        {
          "internalType": "uint256",
          "name": "value",
          "type": "uint256"
        }
      ],
      "name": "$_transfer",
      "outputs": [],
      "stateMutability": "nonpayable",
      "type": "function"
    },
    {
      "inputs": [
        {
          "internalType": "address",
          "name": "from",
          "type": "address"
        },
        {
          "internalType": "address",
          "name": "to",
          "type": "address"
        },
        {
          "internalType": "uint256",
          "name": "value",
          "type": "uint256"
        }
      ],
      "name": "$_update",
      "outputs": [],
      "stateMutability": "nonpayable",
      "type": "function"
    },
    {
      "inputs": [],
      "name": "__hh_exposed_bytecode_marker",
      "outputs": [
        {
          "internalType": "bytes32",
          "name": "",
          "type": "bytes32"
        }
      ],
      "stateMutability": "view",
      "type": "function"
    },
    {
      "inputs": [
        {
          "internalType": "address",
          "name": "owner",
          "type": "address"
        },
        {
          "internalType": "address",
          "name": "spender",
          "type": "address"
        }
      ],
      "name": "allowance",
      "outputs": [
        {
          "internalType": "uint256",
          "name": "",
          "type": "uint256"
        }
      ],
      "stateMutability": "view",
      "type": "function"
    },
    {
      "inputs": [
        {
          "internalType": "address",
          "name": "spender",
          "type": "address"
        },
        {
          "internalType": "uint256",
          "name": "value",
          "type": "uint256"
        }
      ],
      "name": "approve",
      "outputs": [
        {
          "internalType": "bool",
          "name": "",
          "type": "bool"
        }
      ],
      "stateMutability": "nonpayable",
      "type": "function"
    },
    {
      "inputs": [
        {
          "internalType": "address",
          "name": "account",
          "type": "address"
        }
      ],
      "name": "balanceOf",
      "outputs": [
        {
          "internalType": "uint256",
          "name": "",
          "type": "uint256"
        }
      ],
      "stateMutability": "view",
      "type": "function"
    },
    {
      "inputs": [],
      "name": "decimals",
      "outputs": [
        {
          "internalType": "uint8",
          "name": "",
          "type": "uint8"
        }
      ],
      "stateMutability": "view",
      "type": "function"
    },
    {
      "inputs": [
        {
          "internalType": "address",
          "name": "spender",
          "type": "address"
        },
        {
          "internalType": "uint256",
          "name": "requestedDecrease",
          "type": "uint256"
        }
      ],
      "name": "decreaseAllowance",
      "outputs": [
        {
          "internalType": "bool",
          "name": "",
          "type": "bool"
        }
      ],
      "stateMutability": "nonpayable",
      "type": "function"
    },
    {
      "inputs": [
        {
          "internalType": "address",
          "name": "token",
          "type": "address"
        },
        {
          "internalType": "uint256",
          "name": "value",
          "type": "uint256"
        }
      ],
      "name": "flashFee",
      "outputs": [
        {
          "internalType": "uint256",
          "name": "",
          "type": "uint256"
        }
      ],
      "stateMutability": "view",
      "type": "function"
    },
    {
      "inputs": [
        {
          "internalType": "contract IERC3156FlashBorrower",
          "name": "receiver",
          "type": "address"
        },
        {
          "internalType": "address",
          "name": "token",
          "type": "address"
        },
        {
          "internalType": "uint256",
          "name": "value",
          "type": "uint256"
        },
        {
          "internalType": "bytes",
          "name": "data",
          "type": "bytes"
        }
      ],
      "name": "flashLoan",
      "outputs": [
        {
          "internalType": "bool",
          "name": "",
          "type": "bool"
        }
      ],
      "stateMutability": "nonpayable",
      "type": "function"
    },
    {
      "inputs": [
        {
          "internalType": "address",
          "name": "spender",
          "type": "address"
        },
        {
          "internalType": "uint256",
          "name": "addedValue",
          "type": "uint256"
        }
      ],
      "name": "increaseAllowance",
      "outputs": [
        {
          "internalType": "bool",
          "name": "",
          "type": "bool"
        }
      ],
      "stateMutability": "nonpayable",
      "type": "function"
    },
    {
      "inputs": [
        {
          "internalType": "address",
          "name": "token",
          "type": "address"
        }
      ],
      "name": "maxFlashLoan",
      "outputs": [
        {
          "internalType": "uint256",
          "name": "",
          "type": "uint256"
        }
      ],
      "stateMutability": "view",
      "type": "function"
    },
    {
      "inputs": [],
      "name": "name",
      "outputs": [
        {
          "internalType": "string",
          "name": "",
          "type": "string"
        }
      ],
      "stateMutability": "view",
      "type": "function"
    },
    {
      "inputs": [],
      "name": "symbol",
      "outputs": [
        {
          "internalType": "string",
          "name": "",
          "type": "string"
        }
      ],
      "stateMutability": "view",
      "type": "function"
    },
    {
      "inputs": [],
      "name": "totalSupply",
      "outputs": [
        {
          "internalType": "uint256",
          "name": "",
          "type": "uint256"
        }
      ],
      "stateMutability": "view",
      "type": "function"
    },
    {
      "inputs": [
        {
          "internalType": "address",
          "name": "to",
          "type": "address"
        },
        {
          "internalType": "uint256",
          "name": "value",
          "type": "uint256"
        }
      ],
      "name": "transfer",
      "outputs": [
        {
          "internalType": "bool",
          "name": "",
          "type": "bool"
        }
      ],
      "stateMutability": "nonpayable",
      "type": "function"
    },
    {
      "inputs": [
        {
          "internalType": "address",
          "name": "from",
          "type": "address"
        },
        {
          "internalType": "address",
          "name": "to",
          "type": "address"
        },
        {
          "internalType": "uint256",
          "name": "value",
          "type": "uint256"
        }
      ],
      "name": "transferFrom",
      "outputs": [
        {
          "internalType": "bool",
          "name": "",
          "type": "bool"
        }
      ],
      "stateMutability": "nonpayable",
      "type": "function"
    },
    {
      "stateMutability": "payable",
      "type": "receive"
    }
  ],
  "bytecode": "0x6080604052604051620011e0380380620011e083398101604081905262000026916200010e565b8181600362000036838262000200565b50600462000045828262000200565b5050505050620002c8565b634e487b7160e01b5f52604160045260245ffd5b5f82601f83011262000074575f80fd5b81516001600160401b038082111562000091576200009162000050565b604051601f8301601f19908116603f01168101908282118183101715620000bc57620000bc62000050565b81604052838152602092508683858801011115620000d8575f80fd5b5f91505b83821015620000fb5785820183015181830184015290820190620000dc565b5f93810190920192909252949350505050565b5f806040838503121562000120575f80fd5b82516001600160401b038082111562000137575f80fd5b620001458683870162000064565b935060208501519150808211156200015b575f80fd5b506200016a8582860162000064565b9150509250929050565b600181811c908216806200018957607f821691505b602082108103620001a857634e487b7160e01b5f52602260045260245ffd5b50919050565b601f821115620001fb575f81815260208120601f850160051c81016020861015620001d65750805b601f850160051c820191505b81811015620001f757828155600101620001e2565b5050505b505050565b81516001600160401b038111156200021c576200021c62000050565b62000234816200022d845462000174565b84620001ae565b602080601f8311600181146200026a575f8415620002525750858301515b5f19600386901b1c1916600185901b178555620001f7565b5f85815260208120601f198616915b828110156200029a5788860151825594840194600190910190840162000279565b5085821015620002b857878501515f19600388901b60f8161c191681555b5050505050600190811b01905550565b610f0a80620002d65f395ff3fe60806040526004361061017e575f3560e01c8063613255ab116100cd578063a9059cbb11610087578063d9d98ce411610062578063d9d98ce41461044a578063dd62ed3e14610469578063e047838d14610488578063efb43b07146104a7575f80fd5b8063a9059cbb146103ed578063b2331d7d1461040c578063cc461d621461042b575f80fd5b8063613255ab146103295780636855a1781461034857806370a0823114610367578063861e3d3d1461039b57806395d89b41146103ba578063a457c2d7146103ce575f80fd5b8063313ce56711610138578063342db73911610113578063342db739146102b457806339509351146102d957806339532b37146102f85780635cffe9de1461030a575f80fd5b8063313ce5671461026457806332bc74aa1461027f57806332cadf3c146102a0575f80fd5b806306fdde0314610189578063095ea7b3146101b357806318160ddd146101e25780631b0382581461020057806323b872dd1461021f5780632904df291461023e575f80fd5b3661018557005b5f80fd5b348015610194575f80fd5b5061019d6104c6565b6040516101aa9190610c23565b60405180910390f35b3480156101be575f80fd5b506101d26101cd366004610c4c565b610556565b60405190151581526020016101aa565b3480156101ed575f80fd5b506002545b6040519081526020016101aa565b34801561020b575f80fd5b506101f261021a366004610c4c565b61056f565b34801561022a575f80fd5b506101d2610239366004610c76565b610579565b348015610249575f80fd5b50335b6040516001600160a01b0390911681526020016101aa565b34801561026f575f80fd5b50604051601281526020016101aa565b34801561028a575f80fd5b5061029e610299366004610cb4565b61059c565b005b3480156102ab575f80fd5b5061019d6105ae565b3480156102bf575f80fd5b506101f26e1a185c991a185d0b595e1c1bdcd959608a1b81565b3480156102e4575f80fd5b506101d26102f3366004610c4c565b6105eb565b348015610303575f80fd5b505f61024c565b348015610315575f80fd5b506101d2610324366004610d08565b61060c565b348015610334575f80fd5b506101f2610343366004610d9f565b610783565b348015610353575f80fd5b5061029e610362366004610c76565b6107a8565b348015610372575f80fd5b506101f2610381366004610d9f565b6001600160a01b03165f9081526020819052604090205490565b3480156103a6575f80fd5b5061029e6103b5366004610c76565b6107b8565b3480156103c5575f80fd5b5061019d6107c3565b3480156103d9575f80fd5b506101d26103e8366004610c4c565b6107d2565b3480156103f8575f80fd5b506101d2610407366004610c4c565b610828565b348015610417575f80fd5b5061029e610426366004610c76565b610835565b348015610436575f80fd5b5061029e610445366004610c4c565b610840565b348015610455575f80fd5b506101f2610464366004610c4c565b61084e565b348015610474575f80fd5b506101f2610483366004610dba565b610889565b348015610493575f80fd5b5061029e6104a2366004610c4c565b6108b3565b3480156104b2575f80fd5b5061029e6104c1366004610c76565b6108bd565b6060600380546104d590610df1565b80601f016020809104026020016040519081016040528092919081815260200182805461050190610df1565b801561054c5780601f106105235761010080835404028352916020019161054c565b820191905f5260205f20905b81548152906001019060200180831161052f57829003601f168201915b5050505050905090565b5f336105638185856108c8565b60019150505b92915050565b5f805b9392505050565b5f336105868582856108d5565b610591858585610932565b506001949350505050565b6105a884848484610984565b50505050565b60605f368080601f0160208091040260200160405190810160405280939291908181526020018383808284375f9201919091525092949350505050565b5f336105638185856105fd8383610889565b6106079190610e3d565b6108c8565b5f8061061786610783565b9050808511156106425760405163fd9a760960e01b8152600481018290526024015b60405180910390fd5b5f61064d878761084e565b90506106598887610a56565b6040516323e30c8b60e01b81527f439148f0bbc682ca079e46d6e2c2f0c1e3b820f1a291b069d8882abf8cf18dd9906001600160a01b038a16906323e30c8b906106b19033908c908c9088908d908d90600401610e50565b6020604051808303815f875af11580156106cd573d5f803e3d5ffd5b505050506040513d601f19601f820116820180604052508101906106f19190610eaa565b146107195760405162678c5b60e81b81526001600160a01b0389166004820152602401610639565b5f61072e8930610729858b610e3d565b6108d5565b81158061074257506001600160a01b038116155b1561075f5761075a89610755848a610e3d565b610a8a565b610774565b6107698988610a8a565b610774898284610932565b50600198975050505050505050565b5f6001600160a01b038216301461079a575f610569565b600254610569905f19610ec1565b6107b3838383610aba565b505050565b6107b38383836108c8565b6060600480546104d590610df1565b5f33816107df8286610889565b90508381101561081b57604051632983c0c360e21b81526001600160a01b03861660048201526024810182905260448101859052606401610639565b61059182868684036108c8565b5f33610563818585610932565b6107b38383836108d5565b61084a8282610a56565b5050565b5f6001600160a01b038316301461088357604051635ad3edc960e11b81526001600160a01b0384166004820152602401610639565b5f610572565b6001600160a01b039182165f90815260016020908152604080832093909416825291909152205490565b61084a8282610a8a565b6107b3838383610932565b6107b38383836001610984565b5f6108e08484610889565b90505f1981146105a8578181101561092457604051637dc7a0d960e11b81526001600160a01b03841660048201526024810182905260448101839052606401610639565b6105a884848484035f610984565b6001600160a01b03831661095b57604051634b637e8f60e11b81525f6004820152602401610639565b6001600160a01b0382166107a85760405163ec442f0560e01b81525f6004820152602401610639565b6001600160a01b0384166109ad5760405163e602df0560e01b81525f6004820152602401610639565b6001600160a01b0383166109d657604051634a1406b160e11b81525f6004820152602401610639565b6001600160a01b038085165f90815260016020908152604080832093871683529290522082905580156105a857826001600160a01b0316846001600160a01b03167f8c5be1e5ebec7d5bd14f71427d1e84f3dd0314c0f7b2291e5b200ac8c7c3b92584604051610a4891815260200190565b60405180910390a350505050565b6001600160a01b038216610a7f5760405163ec442f0560e01b81525f6004820152602401610639565b61084a5f8383610aba565b6001600160a01b038216610ab357604051634b637e8f60e11b81525f6004820152602401610639565b61084a825f835b6001600160a01b038316610ae4578060025f828254610ad99190610e3d565b90915550610b549050565b6001600160a01b0383165f9081526020819052604090205481811015610b365760405163391434e360e21b81526001600160a01b03851660048201526024810182905260448101839052606401610639565b6001600160a01b0384165f9081526020819052604090209082900390555b6001600160a01b038216610b7057600280548290039055610b8e565b6001600160a01b0382165f9081526020819052604090208054820190555b816001600160a01b0316836001600160a01b03167fddf252ad1be2c89b69c2b068fc378daa952ba7f163c4a11628f55a4df523b3ef83604051610bd391815260200190565b60405180910390a3505050565b5f81518084525f5b81811015610c0457602081850181015186830182015201610be8565b505f602082860101526020601f19601f83011685010191505092915050565b602081525f6105726020830184610be0565b6001600160a01b0381168114610c49575f80fd5b50565b5f8060408385031215610c5d575f80fd5b8235610c6881610c35565b946020939093013593505050565b5f805f60608486031215610c88575f80fd5b8335610c9381610c35565b92506020840135610ca381610c35565b929592945050506040919091013590565b5f805f8060808587031215610cc7575f80fd5b8435610cd281610c35565b93506020850135610ce281610c35565b92506040850135915060608501358015158114610cfd575f80fd5b939692955090935050565b5f805f805f60808688031215610d1c575f80fd5b8535610d2781610c35565b94506020860135610d3781610c35565b935060408601359250606086013567ffffffffffffffff80821115610d5a575f80fd5b818801915088601f830112610d6d575f80fd5b813581811115610d7b575f80fd5b896020828501011115610d8c575f80fd5b9699959850939650602001949392505050565b5f60208284031215610daf575f80fd5b813561057281610c35565b5f8060408385031215610dcb575f80fd5b8235610dd681610c35565b91506020830135610de681610c35565b809150509250929050565b600181811c90821680610e0557607f821691505b602082108103610e2357634e487b7160e01b5f52602260045260245ffd5b50919050565b634e487b7160e01b5f52601160045260245ffd5b8082018082111561056957610569610e29565b6001600160a01b03878116825286166020820152604081018590526060810184905260a06080820181905281018290525f828460c08401375f60c0848401015260c0601f19601f8501168301019050979650505050505050565b5f60208284031215610eba575f80fd5b5051919050565b8181038181111561056957610569610e2956fea2646970667358221220ce759edefabe43e398519b72da665feda236abf10ed9a680e590b65180043e3564736f6c63430008140033",
  "linkReferences": {},
  "deployedLinkReferences": {}
}