{
  "_format": "hh-sol-artifact-1",
  "contractName": "$Strings",
  "sourceName": "contracts-exposed/utils/Strings.sol",
  "abi": [
    {
      "inputs": [],
      "stateMutability": "payable",
      "type": "constructor"
    },
    {
      "inputs": [
        {
          "internalType": "uint256",
          "name": "value",
          "type": "uint256"
        },
        {
          "internalType": "uint256",
          "name": "length",
          "type": "uint256"
        }
      ],
      "name": "StringsInsufficientHexLength",
      "type": "error"
    },
    {
      "inputs": [
        {
          "internalType": "string",
          "name": "a",
          "type": "string"
        },
        {
          "internalType": "string",
          "name": "b",
          "type": "string"
        }
      ],
      "name": "$equal",
      "outputs": [
        {
          "internalType": "bool",
          "name": "ret0",
          "type": "bool"
        }
      ],
      "stateMutability": "pure",
      "type": "function"
    },
    {
      "inputs": [
        {
          "internalType": "uint256",
          "name": "value",
          "type": "uint256"
        }
      ],
      "name": "$toHexString",
      "outputs": [
        {
          "internalType": "string",
          "name": "ret0",
          "type": "string"
        }
      ],
      "stateMutability": "pure",
      "type": "function"
    },
    {
      "inputs": [
        {
          "internalType": "address",
          "name": "addr",
          "type": "address"
        }
      ],
      "name": "$toHexString",
      "outputs": [
        {
          "internalType": "string",
          "name": "ret0",
          "type": "string"
        }
      ],
      "stateMutability": "pure",
      "type": "function"
    },
    {
      "inputs": [
        {
          "internalType": "uint256",
          "name": "value",
          "type": "uint256"
        },
        {
          "internalType": "uint256",
          "name": "length",
          "type": "uint256"
        }
      ],
      "name": "$toHexString",
      "outputs": [
        {
          "internalType": "string",
          "name": "ret0",
          "type": "string"
        }
      ],
      "stateMutability": "pure",
      "type": "function"
    },
    {
      "inputs": [
        {
          "internalType": "uint256",
          "name": "value",
          "type": "uint256"
        }
      ],
      "name": "$toString",
      "outputs": [
        {
          "internalType": "string",
          "name": "ret0",
          "type": "string"
        }
      ],
      "stateMutability": "pure",
      "type": "function"
    },
    {
      "inputs": [
        {
          "internalType": "int256",
          "name": "value",
          "type": "int256"
        }
      ],
      "name": "$toStringSigned",
      "outputs": [
        {
          "internalType": "string",
          "name": "ret0",
          "type": "string"
        }
      ],
      "stateMutability": "pure",
      "type": "function"
    },
    {
      "inputs": [],
      "name": "__hh_exposed_bytecode_marker",
      "outputs": [
        {
          "internalType": "bytes32",
          "name": "",
          "type": "bytes32"
        }
      ],
      "stateMutability": "view",
      "type": "function"
    },
    {
      "stateMutability": "payable",
      "type": "receive"
    }
  ],
  "bytecode": "0x60806040526108a7806100115f395ff3fe608060405260043610610071575f3560e01c806357016c551161004c57806357016c551461010f5780635d4797df1461012e578063adcd07231461014d578063bc17ee7e1461016c575f80fd5b806328e568821461007c578063342db739146100b05780634393ac84146100e3575f80fd5b3661007857005b5f80fd5b348015610087575f80fd5b5061009b6100963660046106b0565b61018b565b60405190151581526020015b60405180910390f35b3480156100bb575f80fd5b506100d56e1a185c991a185d0b595e1c1bdcd959608a1b81565b6040519081526020016100a7565b3480156100ee575f80fd5b506101026100fd366004610717565b610206565b6040516100a79190610750565b34801561011a575f80fd5b50610102610129366004610717565b610217565b348015610139575f80fd5b50610102610148366004610717565b610222565b348015610158575f80fd5b50610102610167366004610782565b61022d565b348015610177575f80fd5b506101026101863660046107a8565b610238565b5f6101fd85858080601f0160208091040260200160405190810160405280939291908181526020018383808284375f9201919091525050604080516020601f890181900481028201810190925287815292508791508690819084018382808284375f9201919091525061024b92505050565b95945050505050565b60606102118261026f565b92915050565b606061021182610286565b6060610211826102f6565b606061021182610386565b60606102448383610398565b9392505050565b5f815183511480156102445750508051602091820120825192909101919091201490565b60606102118261027e84610516565b600101610398565b60605f82126102a35760405180602001604052805f8152506102be565b604051806040016040528060018152602001602d60f81b8152505b6102cf6102ca8461057f565b6102f6565b6040516020016102e09291906107c8565b6040516020818303038152906040529050919050565b60605f61030283610594565b60010190505f8167ffffffffffffffff811115610321576103216107f6565b6040519080825280601f01601f19166020018201604052801561034b576020820181803683370190505b5090508181016020015b5f19016f181899199a1a9b1b9c1cb0b131b232b360811b600a86061a8153600a850494508461035557509392505050565b60606102116001600160a01b03831660145b6060825f6103a784600261081e565b6103b2906002610835565b67ffffffffffffffff8111156103ca576103ca6107f6565b6040519080825280601f01601f1916602001820160405280156103f4576020820181803683370190505b509050600360fc1b815f8151811061040e5761040e610848565b60200101906001600160f81b03191690815f1a905350600f60fb1b8160018151811061043c5761043c610848565b60200101906001600160f81b03191690815f1a9053505f61045e85600261081e565b610469906001610835565b90505b60018111156104e0576f181899199a1a9b1b9c1cb0b131b232b360811b83600f166010811061049d5761049d610848565b1a60f81b8282815181106104b3576104b3610848565b60200101906001600160f81b03191690815f1a90535060049290921c916104d98161085c565b905061046c565b50811561050e5760405163e22e27eb60e01b8152600481018690526024810185905260440160405180910390fd5b949350505050565b5f80608083901c1561052d5760809290921c916010015b604083901c156105425760409290921c916008015b602083901c156105575760209290921c916004015b601083901c1561056c5760109290921c916002015b600883901c156102115760010192915050565b5f8082121561059057815f03610211565b5090565b5f8072184f03e93ff9f4daa797ed6e38ed64bf6a1f0160401b83106105d25772184f03e93ff9f4daa797ed6e38ed64bf6a1f0160401b830492506040015b6d04ee2d6d415b85acef810000000083106105fe576d04ee2d6d415b85acef8100000000830492506020015b662386f26fc10000831061061c57662386f26fc10000830492506010015b6305f5e1008310610634576305f5e100830492506008015b612710831061064857612710830492506004015b6064831061065a576064830492506002015b600a83106102115760010192915050565b5f8083601f84011261067b575f80fd5b50813567ffffffffffffffff811115610692575f80fd5b6020830191508360208285010111156106a9575f80fd5b9250929050565b5f805f80604085870312156106c3575f80fd5b843567ffffffffffffffff808211156106da575f80fd5b6106e68883890161066b565b909650945060208701359150808211156106fe575f80fd5b5061070b8782880161066b565b95989497509550505050565b5f60208284031215610727575f80fd5b5035919050565b5f5b83811015610748578181015183820152602001610730565b50505f910152565b602081525f825180602084015261076e81604085016020870161072e565b601f01601f19169190910160400192915050565b5f60208284031215610792575f80fd5b81356001600160a01b0381168114610244575f80fd5b5f80604083850312156107b9575f80fd5b50508035926020909101359150565b5f83516107d981846020880161072e565b8351908301906107ed81836020880161072e565b01949350505050565b634e487b7160e01b5f52604160045260245ffd5b634e487b7160e01b5f52601160045260245ffd5b80820281158282048414176102115761021161080a565b808201808211156102115761021161080a565b634e487b7160e01b5f52603260045260245ffd5b5f8161086a5761086a61080a565b505f19019056fea2646970667358221220e9c2153adb027ffa3e4fe2e7e9a4471d95b750796d05b5d480c2bc523ae645b764736f6c63430008140033",
  "linkReferences": {},
  "deployedLinkReferences": {}
}