{
  "_format": "hh-sol-artifact-1",
  "contractName": "ERC721ConsecutiveMock",
  "sourceName": "contracts/mocks/token/ERC721ConsecutiveMock.sol",
  "abi": [
    {
      "inputs": [
        {
          "internalType": "string",
          "name": "name",
          "type": "string"
        },
        {
          "internalType": "string",
          "name": "symbol",
          "type": "string"
        },
        {
          "internalType": "uint96",
          "name": "offset",
          "type": "uint96"
        },
        {
          "internalType": "address[]",
          "name": "delegates",
          "type": "address[]"
        },
        {
          "internalType": "address[]",
          "name": "receivers",
          "type": "address[]"
        },
        {
          "internalType": "uint96[]",
          "name": "amounts",
          "type": "uint96[]"
        }
      ],
      "stateMutability": "nonpayable",
      "type": "constructor"
    },
    {
      "inputs": [],
      "name": "CheckpointUnorderedInsertion",
      "type": "error"
    },
    {
      "inputs": [],
      "name": "ECDSAInvalidSignature",
      "type": "error"
    },
    {
      "inputs": [
        {
          "internalType": "uint256",
          "name": "length",
          "type": "uint256"
        }
      ],
      "name": "ECDSAInvalidSignatureLength",
      "type": "error"
    },
    {
      "inputs": [
        {
          "internalType": "bytes32",
          "name": "s",
          "type": "bytes32"
        }
      ],
      "name": "ECDSAInvalidSignatureS",
      "type": "error"
    },
    {
      "inputs": [
        {
          "internalType": "uint256",
          "name": "timepoint",
          "type": "uint256"
        },
        {
          "internalType": "uint48",
          "name": "clock",
          "type": "uint48"
        }
      ],
      "name": "ERC5805FutureLookup",
      "type": "error"
    },
    {
      "inputs": [],
      "name": "ERC6372InconsistentClock",
      "type": "error"
    },
    {
      "inputs": [
        {
          "internalType": "uint256",
          "name": "batchSize",
          "type": "uint256"
        },
        {
          "internalType": "uint256",
          "name": "maxBatch",
          "type": "uint256"
        }
      ],
      "name": "ERC721ExceededMaxBatchMint",
      "type": "error"
    },
    {
      "inputs": [],
      "name": "ERC721ForbiddenBatchBurn",
      "type": "error"
    },
    {
      "inputs": [],
      "name": "ERC721ForbiddenBatchMint",
      "type": "error"
    },
    {
      "inputs": [],
      "name": "ERC721ForbiddenMint",
      "type": "error"
    },
    {
      "inputs": [
        {
          "internalType": "address",
          "name": "sender",
          "type": "address"
        },
        {
          "internalType": "uint256",
          "name": "tokenId",
          "type": "uint256"
        },
        {
          "internalType": "address",
          "name": "owner",
          "type": "address"
        }
      ],
      "name": "ERC721IncorrectOwner",
      "type": "error"
    },
    {
      "inputs": [
        {
          "internalType": "address",
          "name": "operator",
          "type": "address"
        },
        {
          "internalType": "uint256",
          "name": "tokenId",
          "type": "uint256"
        }
      ],
      "name": "ERC721InsufficientApproval",
      "type": "error"
    },
    {
      "inputs": [
        {
          "internalType": "address",
          "name": "approver",
          "type": "address"
        }
      ],
      "name": "ERC721InvalidApprover",
      "type": "error"
    },
    {
      "inputs": [
        {
          "internalType": "address",
          "name": "operator",
          "type": "address"
        }
      ],
      "name": "ERC721InvalidOperator",
      "type": "error"
    },
    {
      "inputs": [
        {
          "internalType": "address",
          "name": "owner",
          "type": "address"
        }
      ],
      "name": "ERC721InvalidOwner",
      "type": "error"
    },
    {
      "inputs": [
        {
          "internalType": "address",
          "name": "receiver",
          "type": "address"
        }
      ],
      "name": "ERC721InvalidReceiver",
      "type": "error"
    },
    {
      "inputs": [
        {
          "internalType": "address",
          "name": "sender",
          "type": "address"
        }
      ],
      "name": "ERC721InvalidSender",
      "type": "error"
    },
    {
      "inputs": [
        {
          "internalType": "uint256",
          "name": "tokenId",
          "type": "uint256"
        }
      ],
      "name": "ERC721NonexistentToken",
      "type": "error"
    },
    {
      "inputs": [],
      "name": "EnforcedPause",
      "type": "error"
    },
    {
      "inputs": [],
      "name": "ExpectedPause",
      "type": "error"
    },
    {
      "inputs": [
        {
          "internalType": "address",
          "name": "account",
          "type": "address"
        },
        {
          "internalType": "uint256",
          "name": "currentNonce",
          "type": "uint256"
        }
      ],
      "name": "InvalidAccountNonce",
      "type": "error"
    },
    {
      "inputs": [],
      "name": "InvalidShortString",
      "type": "error"
    },
    {
      "inputs": [
        {
          "internalType": "uint8",
          "name": "bits",
          "type": "uint8"
        },
        {
          "internalType": "uint256",
          "name": "value",
          "type": "uint256"
        }
      ],
      "name": "SafeCastOverflowedUintDowncast",
      "type": "error"
    },
    {
      "inputs": [
        {
          "internalType": "string",
          "name": "str",
          "type": "string"
        }
      ],
      "name": "StringTooLong",
      "type": "error"
    },
    {
      "inputs": [
        {
          "internalType": "uint256",
          "name": "expiry",
          "type": "uint256"
        }
      ],
      "name": "VotesExpiredSignature",
      "type": "error"
    },
    {
      "anonymous": false,
      "inputs": [
        {
          "indexed": true,
          "internalType": "address",
          "name": "owner",
          "type": "address"
        },
        {
          "indexed": true,
          "internalType": "address",
          "name": "approved",
          "type": "address"
        },
        {
          "indexed": true,
          "internalType": "uint256",
          "name": "tokenId",
          "type": "uint256"
        }
      ],
      "name": "Approval",
      "type": "event"
    },
    {
      "anonymous": false,
      "inputs": [
        {
          "indexed": true,
          "internalType": "address",
          "name": "owner",
          "type": "address"
        },
        {
          "indexed": true,
          "internalType": "address",
          "name": "operator",
          "type": "address"
        },
        {
          "indexed": false,
          "internalType": "bool",
          "name": "approved",
          "type": "bool"
        }
      ],
      "name": "ApprovalForAll",
      "type": "event"
    },
    {
      "anonymous": false,
      "inputs": [
        {
          "indexed": true,
          "internalType": "uint256",
          "name": "fromTokenId",
          "type": "uint256"
        },
        {
          "indexed": false,
          "internalType": "uint256",
          "name": "toTokenId",
          "type": "uint256"
        },
        {
          "indexed": true,
          "internalType": "address",
          "name": "fromAddress",
          "type": "address"
        },
        {
          "indexed": true,
          "internalType": "address",
          "name": "toAddress",
          "type": "address"
        }
      ],
      "name": "ConsecutiveTransfer",
      "type": "event"
    },
    {
      "anonymous": false,
      "inputs": [
        {
          "indexed": true,
          "internalType": "address",
          "name": "delegator",
          "type": "address"
        },
        {
          "indexed": true,
          "internalType": "address",
          "name": "fromDelegate",
          "type": "address"
        },
        {
          "indexed": true,
          "internalType": "address",
          "name": "toDelegate",
          "type": "address"
        }
      ],
      "name": "DelegateChanged",
      "type": "event"
    },
    {
      "anonymous": false,
      "inputs": [
        {
          "indexed": true,
          "internalType": "address",
          "name": "delegate",
          "type": "address"
        },
        {
          "indexed": false,
          "internalType": "uint256",
          "name": "previousVotes",
          "type": "uint256"
        },
        {
          "indexed": false,
          "internalType": "uint256",
          "name": "newVotes",
          "type": "uint256"
        }
      ],
      "name": "DelegateVotesChanged",
      "type": "event"
    },
    {
      "anonymous": false,
      "inputs": [],
      "name": "EIP712DomainChanged",
      "type": "event"
    },
    {
      "anonymous": false,
      "inputs": [
        {
          "indexed": false,
          "internalType": "address",
          "name": "account",
          "type": "address"
        }
      ],
      "name": "Paused",
      "type": "event"
    },
    {
      "anonymous": false,
      "inputs": [
        {
          "indexed": true,
          "internalType": "address",
          "name": "from",
          "type": "address"
        },
        {
          "indexed": true,
          "internalType": "address",
          "name": "to",
          "type": "address"
        },
        {
          "indexed": true,
          "internalType": "uint256",
          "name": "tokenId",
          "type": "uint256"
        }
      ],
      "name": "Transfer",
      "type": "event"
    },
    {
      "anonymous": false,
      "inputs": [
        {
          "indexed": false,
          "internalType": "address",
          "name": "account",
          "type": "address"
        }
      ],
      "name": "Unpaused",
      "type": "event"
    },
    {
      "inputs": [],
      "name": "CLOCK_MODE",
      "outputs": [
        {
          "internalType": "string",
          "name": "",
          "type": "string"
        }
      ],
      "stateMutability": "view",
      "type": "function"
    },
    {
      "inputs": [
        {
          "internalType": "address",
          "name": "to",
          "type": "address"
        },
        {
          "internalType": "uint256",
          "name": "tokenId",
          "type": "uint256"
        }
      ],
      "name": "approve",
      "outputs": [],
      "stateMutability": "nonpayable",
      "type": "function"
    },
    {
      "inputs": [
        {
          "internalType": "address",
          "name": "owner",
          "type": "address"
        }
      ],
      "name": "balanceOf",
      "outputs": [
        {
          "internalType": "uint256",
          "name": "",
          "type": "uint256"
        }
      ],
      "stateMutability": "view",
      "type": "function"
    },
    {
      "inputs": [],
      "name": "clock",
      "outputs": [
        {
          "internalType": "uint48",
          "name": "",
          "type": "uint48"
        }
      ],
      "stateMutability": "view",
      "type": "function"
    },
    {
      "inputs": [
        {
          "internalType": "address",
          "name": "delegatee",
          "type": "address"
        }
      ],
      "name": "delegate",
      "outputs": [],
      "stateMutability": "nonpayable",
      "type": "function"
    },
    {
      "inputs": [
        {
          "internalType": "address",
          "name": "delegatee",
          "type": "address"
        },
        {
          "internalType": "uint256",
          "name": "nonce",
          "type": "uint256"
        },
        {
          "internalType": "uint256",
          "name": "expiry",
          "type": "uint256"
        },
        {
          "internalType": "uint8",
          "name": "v",
          "type": "uint8"
        },
        {
          "internalType": "bytes32",
          "name": "r",
          "type": "bytes32"
        },
        {
          "internalType": "bytes32",
          "name": "s",
          "type": "bytes32"
        }
      ],
      "name": "delegateBySig",
      "outputs": [],
      "stateMutability": "nonpayable",
      "type": "function"
    },
    {
      "inputs": [
        {
          "internalType": "address",
          "name": "account",
          "type": "address"
        }
      ],
      "name": "delegates",
      "outputs": [
        {
          "internalType": "address",
          "name": "",
          "type": "address"
        }
      ],
      "stateMutability": "view",
      "type": "function"
    },
    {
      "inputs": [],
      "name": "eip712Domain",
      "outputs": [
        {
          "internalType": "bytes1",
          "name": "fields",
          "type": "bytes1"
        },
        {
          "internalType": "string",
          "name": "name",
          "type": "string"
        },
        {
          "internalType": "string",
          "name": "version",
          "type": "string"
        },
        {
          "internalType": "uint256",
          "name": "chainId",
          "type": "uint256"
        },
        {
          "internalType": "address",
          "name": "verifyingContract",
          "type": "address"
        },
        {
          "internalType": "bytes32",
          "name": "salt",
          "type": "bytes32"
        },
        {
          "internalType": "uint256[]",
          "name": "extensions",
          "type": "uint256[]"
        }
      ],
      "stateMutability": "view",
      "type": "function"
    },
    {
      "inputs": [
        {
          "internalType": "uint256",
          "name": "tokenId",
          "type": "uint256"
        }
      ],
      "name": "getApproved",
      "outputs": [
        {
          "internalType": "address",
          "name": "",
          "type": "address"
        }
      ],
      "stateMutability": "view",
      "type": "function"
    },
    {
      "inputs": [
        {
          "internalType": "uint256",
          "name": "timepoint",
          "type": "uint256"
        }
      ],
      "name": "getPastTotalSupply",
      "outputs": [
        {
          "internalType": "uint256",
          "name": "",
          "type": "uint256"
        }
      ],
      "stateMutability": "view",
      "type": "function"
    },
    {
      "inputs": [
        {
          "internalType": "address",
          "name": "account",
          "type": "address"
        },
        {
          "internalType": "uint256",
          "name": "timepoint",
          "type": "uint256"
        }
      ],
      "name": "getPastVotes",
      "outputs": [
        {
          "internalType": "uint256",
          "name": "",
          "type": "uint256"
        }
      ],
      "stateMutability": "view",
      "type": "function"
    },
    {
      "inputs": [
        {
          "internalType": "address",
          "name": "account",
          "type": "address"
        }
      ],
      "name": "getVotes",
      "outputs": [
        {
          "internalType": "uint256",
          "name": "",
          "type": "uint256"
        }
      ],
      "stateMutability": "view",
      "type": "function"
    },
    {
      "inputs": [
        {
          "internalType": "address",
          "name": "owner",
          "type": "address"
        },
        {
          "internalType": "address",
          "name": "operator",
          "type": "address"
        }
      ],
      "name": "isApprovedForAll",
      "outputs": [
        {
          "internalType": "bool",
          "name": "",
          "type": "bool"
        }
      ],
      "stateMutability": "view",
      "type": "function"
    },
    {
      "inputs": [],
      "name": "name",
      "outputs": [
        {
          "internalType": "string",
          "name": "",
          "type": "string"
        }
      ],
      "stateMutability": "view",
      "type": "function"
    },
    {
      "inputs": [
        {
          "internalType": "address",
          "name": "owner",
          "type": "address"
        }
      ],
      "name": "nonces",
      "outputs": [
        {
          "internalType": "uint256",
          "name": "",
          "type": "uint256"
        }
      ],
      "stateMutability": "view",
      "type": "function"
    },
    {
      "inputs": [
        {
          "internalType": "uint256",
          "name": "tokenId",
          "type": "uint256"
        }
      ],
      "name": "ownerOf",
      "outputs": [
        {
          "internalType": "address",
          "name": "",
          "type": "address"
        }
      ],
      "stateMutability": "view",
      "type": "function"
    },
    {
      "inputs": [],
      "name": "paused",
      "outputs": [
        {
          "internalType": "bool",
          "name": "",
          "type": "bool"
        }
      ],
      "stateMutability": "view",
      "type": "function"
    },
    {
      "inputs": [
        {
          "internalType": "address",
          "name": "from",
          "type": "address"
        },
        {
          "internalType": "address",
          "name": "to",
          "type": "address"
        },
        {
          "internalType": "uint256",
          "name": "tokenId",
          "type": "uint256"
        }
      ],
      "name": "safeTransferFrom",
      "outputs": [],
      "stateMutability": "nonpayable",
      "type": "function"
    },
    {
      "inputs": [
        {
          "internalType": "address",
          "name": "from",
          "type": "address"
        },
        {
          "internalType": "address",
          "name": "to",
          "type": "address"
        },
        {
          "internalType": "uint256",
          "name": "tokenId",
          "type": "uint256"
        },
        {
          "internalType": "bytes",
          "name": "data",
          "type": "bytes"
        }
      ],
      "name": "safeTransferFrom",
      "outputs": [],
      "stateMutability": "nonpayable",
      "type": "function"
    },
    {
      "inputs": [
        {
          "internalType": "address",
          "name": "operator",
          "type": "address"
        },
        {
          "internalType": "bool",
          "name": "approved",
          "type": "bool"
        }
      ],
      "name": "setApprovalForAll",
      "outputs": [],
      "stateMutability": "nonpayable",
      "type": "function"
    },
    {
      "inputs": [
        {
          "internalType": "bytes4",
          "name": "interfaceId",
          "type": "bytes4"
        }
      ],
      "name": "supportsInterface",
      "outputs": [
        {
          "internalType": "bool",
          "name": "",
          "type": "bool"
        }
      ],
      "stateMutability": "view",
      "type": "function"
    },
    {
      "inputs": [],
      "name": "symbol",
      "outputs": [
        {
          "internalType": "string",
          "name": "",
          "type": "string"
        }
      ],
      "stateMutability": "view",
      "type": "function"
    },
    {
      "inputs": [
        {
          "internalType": "uint256",
          "name": "tokenId",
          "type": "uint256"
        }
      ],
      "name": "tokenURI",
      "outputs": [
        {
          "internalType": "string",
          "name": "",
          "type": "string"
        }
      ],
      "stateMutability": "view",
      "type": "function"
    },
    {
      "inputs": [
        {
          "internalType": "address",
          "name": "from",
          "type": "address"
        },
        {
          "internalType": "address",
          "name": "to",
          "type": "address"
        },
        {
          "internalType": "uint256",
          "name": "tokenId",
          "type": "uint256"
        }
      ],
      "name": "transferFrom",
      "outputs": [],
      "stateMutability": "nonpayable",
      "type": "function"
    }
  ],
  "bytecode": "0x61018060405234801562000011575f80fd5b506040516200386c3803806200386c833981016040819052620000349162000faa565b6040805180820190915260018152603160f81b6020820152869081875f6200005d83826200111e565b5060016200006c82826200111e565b50506008805460ff1916905550620000868260096200021c565b610120526200009781600a6200021c565b61014052815160208084019190912060e052815190820120610100524660a0526200012460e05161010051604080517f8b73c3c69bb8fe3d512ecc4cf759cc79239f7b179b0ffacaa9a75d522b39400f60208201529081019290925260608201524660808201523060a08201525f9060c00160405160208183030381529060405280519060200120905090565b60805250503060c0526001600160601b038416610160525f5b8351811015620001a45762000191848281518110620001605762000160620011e6565b60200260200101518583815181106200017d576200017d620011e6565b60200260200101516200025460201b60201c565b6200019c816200120e565b90506200013d565b505f5b82518110156200020f57620001fb838281518110620001ca57620001ca620011e6565b6020026020010151838381518110620001e757620001e7620011e6565b6020026020010151620002ce60201b60201c565b5062000207816200120e565b9050620001a7565b5050505050505062001340565b5f6020835110156200023b5762000233836200044b565b90506200024e565b816200024884826200111e565b5060ff90505b92915050565b6001600160a01b038281165f818152600c602052604080822080548686166001600160a01b0319821681179092559151919094169392849290917f3134e8a2e6d97e929a7e54011ea5485d7d196dd5f0ba4d4ef95803e8e3fc257f9190a4620002c98183620002c3866200048d565b62000499565b505050565b5f80620002da62000601565b90506001600160601b038316156200044457303b156200030d576040516329cfc83160e11b815260040160405180910390fd5b6001600160a01b0384166200033c57604051633250574960e11b81525f60048201526024015b60405180910390fd5b6113886001600160601b0384168110156200037d576040516308f58e5760e41b81526001600160601b03851660048201526024810182905260440162000333565b620003975f866001600160601b0380861690881662000639565b5f6001620003a6868562001229565b620003b2919062001253565b9050620003c2600682886200064d565b50620003da9050866001600160601b03871662000669565b6040516001600160601b0382811682526001600160a01b038816915f918616907fdeaa91b6123d068f5821d0fb0678463d1a8a6079fe8af5de3ce5e896dcf9133d9060200160405180910390a4620004415f876001600160601b038087169089166200069b565b50505b9392505050565b5f80829050601f8151111562000478578260405163305a27a960e01b815260040162000333919062001276565b80516200048582620012aa565b179392505050565b5f6200024e82620006a9565b816001600160a01b0316836001600160a01b031614158015620004bb57505f81115b15620002c9576001600160a01b0383161562000562576001600160a01b0383165f908152600d60209081526040822082916200050e9190620006f0901b62000985176200050886620006fd565b62000736565b6001600160e01b031691506001600160e01b03169150846001600160a01b03165f805160206200384c833981519152838360405162000557929190918252602082015260400190565b60405180910390a250505b6001600160a01b03821615620002c9576001600160a01b0382165f908152600d6020908152604082208291620005a9919062000777901b62000990176200050886620006fd565b6001600160e01b031691506001600160e01b03169150836001600160a01b03165f805160206200384c8339815191528383604051620005f2929190918252602082015260400190565b60405180910390a25050505050565b5f808062000610600662000784565b50915091508162000625576101605162000632565b6200063281600162001229565b9250505090565b620006478484848462000817565b50505050565b5f806200065c85858562000821565b915091505b935093915050565b6001600160a01b0382165f908152600360205260408120805483929062000692908490620012ce565b90915550505050565b6200064784848484620009cc565b5f6001600160a01b038216620006d5576040516322718ad960e21b81525f600482015260240162000333565b506001600160a01b03165f9081526003602052604090205490565b5f620004448284620012e4565b5f6001600160e01b0382111562000732576040516306dfcc6560e41b815260e060048201526024810183905260440162000333565b5090565b5f806200065c620007586200074a620009e7565b65ffffffffffff16620009f8565b6200076e620007678862000a2a565b868860201c565b87919062000a67565b5f62000444828462001307565b80545f9081908190808203620007a4575f805f9350935093505062000810565b5f620007c486620007b76001856200132a565b5f91825260209091200190565b6040805180820190915290546001600160601b0381168083526c010000000000000000000000009091046001600160a01b03166020909201829052600196509450925062000810915050565b9193909250565b6200064762000a76565b82545f908190801562000967575f6200084187620007b76001856200132a565b6040805180820190915290546001600160601b038082168084526c010000000000000000000000009092046001600160a01b031660208401529192509087161015620008a057604051632520601d60e01b815260040160405180910390fd5b80516001600160601b03808816911603620008fc5784620008c888620007b76001866200132a565b80546001600160a01b03929092166c01000000000000000000000000026001600160601b0390921691909117905562000956565b604080518082019091526001600160601b0380881682526001600160a01b0380881660208085019182528b54600181018d555f8d815291909120945191519092166c01000000000000000000000000029216919091179101555b602001519250839150620006619050565b5050604080518082019091526001600160601b0380851682526001600160a01b0380851660208085019182528854600181018a555f8a8152918220955192519093166c0100000000000000000000000002919093161792019190915590508162000661565b620009d984848362000a9d565b620006478484848462000b2e565b5f620009f34362000bf0565b905090565b5f63ffffffff82111562000732576040516306dfcc6560e41b8152602060048201526024810183905260440162000333565b80545f90801562000a5f5762000a4783620007b76001846200132a565b5464010000000090046001600160e01b031662000444565b5f9392505050565b5f806200065c85858562000c24565b60085460ff161562000a9b5760405163d93c066560e01b815260040160405180910390fd5b565b6001600160a01b03831662000acc5762000ac9600e620009906200077760201b176200050884620006fd565b50505b6001600160a01b03821662000afb5762000af8600e62000985620006f060201b176200050884620006fd565b50505b6001600160a01b038381165f908152600c6020526040808220548584168352912054620002c99291821691168362000499565b6001600160a01b03831615801562000b525750610160516001600160601b03168210155b801562000b70575062000b6462000601565b6001600160601b031682105b801562000b955750600882901c5f90815260076020526040902054600160ff84161b16155b1562000bdc578060011462000bbd57604051631d08916560e01b815260040160405180910390fd5b600882901c5f9081526007602052604090208054600160ff85161b1790555b62000647848484846001600160e01b038516565b5f65ffffffffffff82111562000732576040516306dfcc6560e41b8152603060048201526024810183905260440162000333565b82545f908190801562000d45575f62000c4487620007b76001856200132a565b60408051808201909152905463ffffffff8082168084526401000000009092046001600160e01b03166020840152919250908716101562000c9857604051632520601d60e01b815260040160405180910390fd5b805163ffffffff80881691160362000ce6578462000cbd88620007b76001866200132a565b80546001600160e01b03929092166401000000000263ffffffff90921691909117905562000956565b6040805180820190915263ffffffff80881682526001600160e01b0380881660208085019182528b54600181018d555f8d8152919091209451915190921664010000000002921691909117910155602001519250839150620006619050565b50506040805180820190915263ffffffff80851682526001600160e01b0380851660208085019182528854600181018a555f8a81529182209551925190931664010000000002919093161792019190915590508162000661565b634e487b7160e01b5f52604160045260245ffd5b604051601f8201601f191681016001600160401b038111828210171562000dde5762000dde62000d9f565b604052919050565b5f5b8381101562000e0257818101518382015260200162000de8565b50505f910152565b5f82601f83011262000e1a575f80fd5b81516001600160401b0381111562000e365762000e3662000d9f565b62000e4b601f8201601f191660200162000db3565b81815284602083860101111562000e60575f80fd5b62000e7382602083016020870162000de6565b949350505050565b80516001600160601b038116811462000e92575f80fd5b919050565b5f6001600160401b0382111562000eb25762000eb262000d9f565b5060051b60200190565b5f82601f83011262000ecc575f80fd5b8151602062000ee562000edf8362000e97565b62000db3565b82815260059290921b8401810191818101908684111562000f04575f80fd5b8286015b8481101562000f375780516001600160a01b038116811462000f29575f8081fd5b835291830191830162000f08565b509695505050505050565b5f82601f83011262000f52575f80fd5b8151602062000f6562000edf8362000e97565b82815260059290921b8401810191818101908684111562000f84575f80fd5b8286015b8481101562000f375762000f9c8162000e7b565b835291830191830162000f88565b5f805f805f8060c0878903121562000fc0575f80fd5b86516001600160401b038082111562000fd7575f80fd5b62000fe58a838b0162000e0a565b9750602089015191508082111562000ffb575f80fd5b620010098a838b0162000e0a565b96506200101960408a0162000e7b565b955060608901519150808211156200102f575f80fd5b6200103d8a838b0162000ebc565b9450608089015191508082111562001053575f80fd5b620010618a838b0162000ebc565b935060a089015191508082111562001077575f80fd5b506200108689828a0162000f42565b9150509295509295509295565b600181811c90821680620010a857607f821691505b602082108103620010c757634e487b7160e01b5f52602260045260245ffd5b50919050565b601f821115620002c9575f81815260208120601f850160051c81016020861015620010f55750805b601f850160051c820191505b81811015620011165782815560010162001101565b505050505050565b81516001600160401b038111156200113a576200113a62000d9f565b62001152816200114b845462001093565b84620010cd565b602080601f83116001811462001188575f8415620011705750858301515b5f19600386901b1c1916600185901b17855562001116565b5f85815260208120601f198616915b82811015620011b85788860151825594840194600190910190840162001197565b5085821015620011d657878501515f19600388901b60f8161c191681555b5050505050600190811b01905550565b634e487b7160e01b5f52603260045260245ffd5b634e487b7160e01b5f52601160045260245ffd5b5f60018201620012225762001222620011fa565b5060010190565b6001600160601b038181168382160190808211156200124c576200124c620011fa565b5092915050565b6001600160601b038281168282160390808211156200124c576200124c620011fa565b602081525f82518060208401526200129681604085016020870162000de6565b601f01601f19169190910160400192915050565b80516020808301519190811015620010c7575f1960209190910360031b1b16919050565b808201808211156200024e576200024e620011fa565b6001600160e01b038281168282160390808211156200124c576200124c620011fa565b6001600160e01b038181168382160190808211156200124c576200124c620011fa565b818103818111156200024e576200024e620011fa565b60805160a05160c05160e051610100516101205161014051610160516124a2620013aa5f395f81816113ad01528181611bce0152611d2d01525f610de201525f610db501525f61169a01525f61167201525f6115cd01525f6115f701525f61162101526124a25ff3fe608060405234801561000f575f80fd5b5060043610610153575f3560e01c806370a08231116100bf5780639ab24eb0116100795780639ab24eb01461030f578063a22cb46514610322578063b88d4fde14610335578063c3cda52014610348578063c87b56dd1461035b578063e985e9c51461036e575f80fd5b806370a082311461027f5780637ecebe001461029257806384b0196e146102ba5780638e539e8c146102d557806391ddadf4146102e857806395d89b4114610307575f80fd5b806342842e0e1161011057806342842e0e146102085780634bf5d7e91461021b578063587cde1e146102235780635c19a95c1461024e5780635c975abb146102615780636352211e1461026c575f80fd5b806301ffc9a71461015757806306fdde031461017f578063081812fc14610194578063095ea7b3146101bf57806323b872dd146101d45780633a46b1a8146101e7575b5f80fd5b61016a610165366004611f5f565b6103a9565b60405190151581526020015b60405180910390f35b6101876103fa565b6040516101769190611fc7565b6101a76101a2366004611fd9565b610489565b6040516001600160a01b039091168152602001610176565b6101d26101cd36600461200b565b6104ae565b005b6101d26101e2366004612033565b61054b565b6101fa6101f536600461200b565b610586565b604051908152602001610176565b6101d2610216366004612033565b610605565b61018761061f565b6101a761023136600461206c565b6001600160a01b039081165f908152600c60205260409020541690565b6101d261025c36600461206c565b610688565b60085460ff1661016a565b6101a761027a366004611fd9565b610697565b6101fa61028d36600461206c565b6106ce565b6101fa6102a036600461206c565b6001600160a01b03165f908152600b602052604090205490565b6102c2610713565b6040516101769796959493929190612085565b6101fa6102e3366004611fd9565b610755565b6102f06107be565b60405165ffffffffffff9091168152602001610176565b6101876107cd565b6101fa61031d36600461206c565b6107dc565b6101d2610330366004612119565b61080b565b6101d2610343366004612166565b610816565b6101d261035636600461223b565b610858565b610187610369366004611fd9565b610915565b61016a61037c366004612296565b6001600160a01b039182165f90815260056020908152604080832093909416825291909152205460ff1690565b5f6001600160e01b031982166380ac58cd60e01b14806103d957506001600160e01b03198216635b5e139f60e01b145b806103f457506301ffc9a760e01b6001600160e01b03198316145b92915050565b60605f8054610408906122c7565b80601f0160208091040260200160405190810160405280929190818152602001828054610434906122c7565b801561047f5780601f106104565761010080835404028352916020019161047f565b820191905f5260205f20905b81548152906001019060200180831161046257829003601f168201915b5050505050905090565b5f6104938261099b565b505f908152600460205260409020546001600160a01b031690565b5f6104b882610697565b9050806001600160a01b0316836001600160a01b0316036104fc57604051630b61174360e31b81526001600160a01b03821660048201526024015b60405180910390fd5b336001600160a01b0382161480159061051c575061051a813361037c565b155b1561053c5760405163a9fbf51f60e01b81523360048201526024016104f3565b61054683836109c7565b505050565b6105553382610a34565b61057b5760405163177e802f60e01b8152336004820152602481018290526044016104f3565b610546838383610ab1565b5f806105906107be565b90508065ffffffffffff1683106105cb57604051637669fc0f60e11b81526004810184905265ffffffffffff821660248201526044016104f3565b6105f46105d784610c50565b6001600160a01b0386165f908152600d6020526040902090610c84565b6001600160e01b0316949350505050565b61054683838360405180602001604052805f815250610816565b60604361062a6107be565b65ffffffffffff1614610650576040516301bfc1c560e61b815260040160405180910390fd5b5060408051808201909152601d81527f6d6f64653d626c6f636b6e756d6265722666726f6d3d64656661756c74000000602082015290565b336106938183610d33565b5050565b5f806106a283610da4565b90506001600160a01b0381166103f457604051637e27328960e01b8152600481018490526024016104f3565b5f6001600160a01b0382166106f8576040516322718ad960e21b81525f60048201526024016104f3565b506001600160a01b03165f9081526003602052604090205490565b5f6060805f805f6060610724610dae565b61072c610ddb565b604080515f80825260208201909252600f60f81b9b939a50919850469750309650945092509050565b5f8061075f6107be565b90508065ffffffffffff16831061079a57604051637669fc0f60e11b81526004810184905265ffffffffffff821660248201526044016104f3565b6107ae6107a684610c50565b600e90610c84565b6001600160e01b03169392505050565b5f6107c843610e08565b905090565b606060018054610408906122c7565b6001600160a01b0381165f908152600d602052604081206107fc90610e3a565b6001600160e01b031692915050565b610693338383610e72565b6108203383610a34565b6108465760405163177e802f60e01b8152336004820152602481018390526044016104f3565b61085284848484610f1b565b50505050565b8342111561087c57604051632341d78760e11b8152600481018590526024016104f3565b604080517fe48329057bfd03d55e49b547132e39cffd9c1820ad7b9d4c5307691425d15adf60208201526001600160a01b0388169181019190915260608101869052608081018590525f906108f5906108ed9060a00160405160208183030381529060405280519060200120610f5a565b858585610f86565b90506109018187610fb2565b5061090c8188610d33565b50505050505050565b60606109208261099b565b5f61093560408051602081019091525f815290565b90505f8151116109535760405180602001604052805f81525061097e565b8061095d84611004565b60405160200161096e9291906122ff565b6040516020818303038152906040525b9392505050565b5f61097e8284612341565b5f61097e8284612368565b6109a481611094565b6109c457604051637e27328960e01b8152600481018290526024016104f3565b50565b5f81815260046020526040902080546001600160a01b0319166001600160a01b03841690811790915581906109fb82610697565b6001600160a01b03167f8c5be1e5ebec7d5bd14f71427d1e84f3dd0314c0f7b2291e5b200ac8c7c3b92560405160405180910390a45050565b5f80610a3f83610697565b9050806001600160a01b0316846001600160a01b03161480610a8557506001600160a01b038082165f9081526005602090815260408083209388168352929052205460ff165b80610aa95750836001600160a01b0316610a9e84610489565b6001600160a01b0316145b949350505050565b5f610abb82610697565b9050836001600160a01b0316816001600160a01b031614610b09576040516364283d7b60e01b81526001600160a01b03808616600483015260248201849052821660448201526064016104f3565b6001600160a01b038316610b3257604051633250574960e11b81525f60048201526024016104f3565b610b3f84848460016110b0565b610b4882610697565b9050836001600160a01b0316816001600160a01b031614610b96576040516364283d7b60e01b81526001600160a01b03808616600483015260248201849052821660448201526064016104f3565b5f82815260046020908152604080832080546001600160a01b03191690556001600160a01b038716835260039091528120805460019290610bd8908490612388565b90915550506001600160a01b038084165f81815260036020908152604080832080546001019055868352600290915280822080546001600160a01b031916841790555185938816917fddf252ad1be2c89b69c2b068fc378daa952ba7f163c4a11628f55a4df523b3ef91a461085284848460016110bc565b5f63ffffffff821115610c80576040516306dfcc6560e41b815260206004820152602481018390526044016104f3565b5090565b81545f9081816005811115610cde575f610c9d846110c8565b610ca79085612388565b5f8881526020902090915081015463ffffffff9081169087161015610cce57809150610cdc565b610cd981600161239b565b92505b505b5f610ceb878785856111ac565b90508015610d2657610d0f87610d02600184612388565b5f91825260209091200190565b5464010000000090046001600160e01b0316610d28565b5f5b979650505050505050565b6001600160a01b038281165f818152600c602052604080822080548686166001600160a01b0319821681179092559151919094169392849290917f3134e8a2e6d97e929a7e54011ea5485d7d196dd5f0ba4d4ef95803e8e3fc257f9190a46105468183610d9f86611207565b611211565b5f6103f48261137a565b60606107c87f00000000000000000000000000000000000000000000000000000000000000006009611412565b60606107c87f0000000000000000000000000000000000000000000000000000000000000000600a611412565b5f65ffffffffffff821115610c80576040516306dfcc6560e41b815260306004820152602481018390526044016104f3565b80545f908015610e6a57610e5383610d02600184612388565b5464010000000090046001600160e01b031661097e565b5f9392505050565b816001600160a01b0316836001600160a01b031603610eaf57604051630b61174360e31b81526001600160a01b03841660048201526024016104f3565b6001600160a01b038381165f81815260056020908152604080832094871680845294825291829020805460ff191686151590811790915591519182527f17307eab39ab6107e8899845ad3d59bd9653f200f220920489ca2b5937696c31910160405180910390a3505050565b610f26848484610ab1565b610f32848484846114bb565b61085257604051633250574960e11b81526001600160a01b03841660048201526024016104f3565b5f6103f4610f666115c1565b8360405161190160f01b8152600281019290925260228201526042902090565b5f805f80610f96888888886116ea565b925092509250610fa682826117b2565b50909695505050505050565b6001600160a01b0382165f908152600b6020526040812080546001810190915580831461097e576040516301d4b62360e61b81526001600160a01b0385166004820152602481018290526044016104f3565b60605f6110108361186a565b60010190505f8167ffffffffffffffff81111561102f5761102f612152565b6040519080825280601f01601f191660200182016040528015611059576020820181803683370190505b5090508181016020015b5f19016f181899199a1a9b1b9c1cb0b131b232b360811b600a86061a8153600a850494508461106357509392505050565b5f8061109f83610da4565b6001600160a01b0316141592915050565b61085284848484611941565b61085284848484611949565b5f815f036110d757505f919050565b5f60016110e384611960565b901c6001901b905060018184816110fc576110fc6123ae565b048201901c90506001818481611114576111146123ae565b048201901c9050600181848161112c5761112c6123ae565b048201901c90506001818481611144576111446123ae565b048201901c9050600181848161115c5761115c6123ae565b048201901c90506001818481611174576111746123ae565b048201901c9050600181848161118c5761118c6123ae565b048201901c905061097e818285816111a6576111a66123ae565b046119f3565b5f5b818310156111ff575f6111c18484611a08565b5f8781526020902090915063ffffffff86169082015463ffffffff1611156111eb578092506111f9565b6111f681600161239b565b93505b506111ae565b509392505050565b5f6103f4826106ce565b816001600160a01b0316836001600160a01b03161415801561123257505f81115b15610546576001600160a01b038316156112d9576001600160a01b0383165f908152600d6020526040812081906112749061098561126f86611a22565b611a55565b6001600160e01b031691506001600160e01b03169150846001600160a01b03167fdec2bacdd2f05b59de34da9b523dff8be42e5e38e818c82fdb0bae774387a72483836040516112ce929190918252602082015260400190565b60405180910390a250505b6001600160a01b03821615610546576001600160a01b0382165f908152600d6020526040812081906113119061099061126f86611a22565b6001600160e01b031691506001600160e01b03169150836001600160a01b03167fdec2bacdd2f05b59de34da9b523dff8be42e5e38e818c82fdb0bae774387a724838360405161136b929190918252602082015260400190565b60405180910390a25050505050565b5f818152600260205260408120546001600160a01b0316801515806113a557506001600160601b0383115b806113d857507f00000000000000000000000000000000000000000000000000000000000000006001600160601b031683105b156113e35792915050565b600883901c5f90815260076020526040902054600160ff85161b16610e6a5761140d600684611a9d565b61097e565b606060ff831461142c5761142583611ae2565b90506103f4565b818054611438906122c7565b80601f0160208091040260200160405190810160405280929190818152602001828054611464906122c7565b80156114af5780601f10611486576101008083540402835291602001916114af565b820191905f5260205f20905b81548152906001019060200180831161149257829003601f168201915b505050505090506103f4565b5f6001600160a01b0384163b156115b957604051630a85bd0160e11b81526001600160a01b0385169063150b7a02906114fe9033908990889088906004016123c2565b6020604051808303815f875af1925050508015611538575060408051601f3d908101601f19168201909252611535918101906123fe565b60015b61159f573d808015611565576040519150601f19603f3d011682016040523d82523d5f602084013e61156a565b606091505b5080515f0361159757604051633250574960e11b81526001600160a01b03861660048201526024016104f3565b805181602001fd5b6001600160e01b031916630a85bd0160e11b149050610aa9565b506001610aa9565b5f306001600160a01b037f00000000000000000000000000000000000000000000000000000000000000001614801561161957507f000000000000000000000000000000000000000000000000000000000000000046145b1561164357507f000000000000000000000000000000000000000000000000000000000000000090565b6107c8604080517f8b73c3c69bb8fe3d512ecc4cf759cc79239f7b179b0ffacaa9a75d522b39400f60208201527f0000000000000000000000000000000000000000000000000000000000000000918101919091527f000000000000000000000000000000000000000000000000000000000000000060608201524660808201523060a08201525f9060c00160405160208183030381529060405280519060200120905090565b5f80807f7fffffffffffffffffffffffffffffff5d576e7357a4501ddfe92f46681b20a084111561172357505f915060039050826117a8565b604080515f808252602082018084528a905260ff891692820192909252606081018790526080810186905260019060a0016020604051602081039080840390855afa158015611774573d5f803e3d5ffd5b5050604051601f1901519150506001600160a01b03811661179f57505f9250600191508290506117a8565b92505f91508190505b9450945094915050565b5f8260038111156117c5576117c5612419565b036117ce575050565b60018260038111156117e2576117e2612419565b036118005760405163f645eedf60e01b815260040160405180910390fd5b600282600381111561181457611814612419565b036118355760405163fce698f760e01b8152600481018290526024016104f3565b600382600381111561184957611849612419565b03610693576040516335e2f38360e21b8152600481018290526024016104f3565b5f8072184f03e93ff9f4daa797ed6e38ed64bf6a1f0160401b83106118a85772184f03e93ff9f4daa797ed6e38ed64bf6a1f0160401b830492506040015b6d04ee2d6d415b85acef810000000083106118d4576d04ee2d6d415b85acef8100000000830492506020015b662386f26fc1000083106118f257662386f26fc10000830492506010015b6305f5e100831061190a576305f5e100830492506008015b612710831061191e57612710830492506004015b60648310611930576064830492506002015b600a83106103f45760010192915050565b610852611b1f565b611954848483611b45565b61085284848484611bba565b5f80608083901c1561197457608092831c92015b604083901c1561198657604092831c92015b602083901c1561199857602092831c92015b601083901c156119aa57601092831c92015b600883901c156119bc57600892831c92015b600483901c156119ce57600492831c92015b600283901c156119e057600292831c92015b600183901c156103f45760010192915050565b5f818310611a01578161097e565b5090919050565b5f611a16600284841861242d565b61097e9084841661239b565b5f6001600160e01b03821115610c80576040516306dfcc6560e41b815260e06004820152602481018390526044016104f3565b5f80611a90611a72611a656107be565b65ffffffffffff16610c50565b611a88611a7e88610e3a565b868863ffffffff16565b879190611c87565b915091505b935093915050565b81545f9081611aae85858385611c94565b9050818114611ad7575f85815260209020810154600160601b90046001600160a01b0316611ad9565b5f5b95945050505050565b60605f611aee83611ced565b6040805160208082528183019092529192505f91906020820181803683375050509182525060208101929092525090565b60085460ff1615611b435760405163d93c066560e01b815260040160405180910390fd5b565b6001600160a01b038316611b6757611b64600e61099061126f84611a22565b50505b6001600160a01b038216611b8957611b86600e61098561126f84611a22565b50505b6001600160a01b038381165f908152600c602052604080822054858416835291205461054692918216911683611211565b6001600160a01b038316158015611bfa57507f00000000000000000000000000000000000000000000000000000000000000006001600160601b03168210155b8015611c155750611c09611d14565b6001600160601b031682105b8015611c395750600882901c5f90815260076020526040902054600160ff84161b16155b15611c825780600114611c5f57604051631d08916560e01b815260040160405180910390fd5b600882901c5f9081526007602052604090208054600160ff85161b179055610852565b610852565b5f80611a90858585611d63565b5f5b818310156111ff575f611ca98484611a08565b5f878152602090209091506001600160601b038616908201546001600160601b03161015611ce357611cdc81600161239b565b9350611ce7565b8092505b50611c96565b5f60ff8216601f8111156103f457604051632cd44ac360e21b815260040160405180910390fd5b5f805f611d216006611ed3565b509150915081611d51577f0000000000000000000000000000000000000000000000000000000000000000611d5c565b611d5c81600161244c565b9250505090565b82545f9081908015611e7a575f611d7f87610d02600185612388565b60408051808201909152905463ffffffff8082168084526401000000009092046001600160e01b031660208401529192509087161015611dd257604051632520601d60e01b815260040160405180910390fd5b805163ffffffff808816911603611e1b5784611df388610d02600186612388565b80546001600160e01b03929092166401000000000263ffffffff909216919091179055611e6a565b6040805180820190915263ffffffff80881682526001600160e01b0380881660208085019182528b54600181018d555f8d81529190912094519151909216640100000000029216919091179101555b602001519250839150611a959050565b50506040805180820190915263ffffffff80851682526001600160e01b0380851660208085019182528854600181018a555f8a815291822095519251909316640100000000029190931617920191909155905081611a95565b80545f9081908190808203611ef1575f805f93509350935050611f43565b5f611f0186610d02600185612388565b6040805180820190915290546001600160601b038116808352600160601b9091046001600160a01b031660209092018290526001965094509250611f43915050565b9193909250565b6001600160e01b0319811681146109c4575f80fd5b5f60208284031215611f6f575f80fd5b813561097e81611f4a565b5f5b83811015611f94578181015183820152602001611f7c565b50505f910152565b5f8151808452611fb3816020860160208601611f7a565b601f01601f19169290920160200192915050565b602081525f61097e6020830184611f9c565b5f60208284031215611fe9575f80fd5b5035919050565b80356001600160a01b0381168114612006575f80fd5b919050565b5f806040838503121561201c575f80fd5b61202583611ff0565b946020939093013593505050565b5f805f60608486031215612045575f80fd5b61204e84611ff0565b925061205c60208501611ff0565b9150604084013590509250925092565b5f6020828403121561207c575f80fd5b61097e82611ff0565b60ff60f81b881681525f602060e0818401526120a460e084018a611f9c565b83810360408501526120b6818a611f9c565b606085018990526001600160a01b038816608086015260a0850187905284810360c086015285518082528387019250908301905f5b81811015612107578351835292840192918401916001016120eb565b50909c9b505050505050505050505050565b5f806040838503121561212a575f80fd5b61213383611ff0565b915060208301358015158114612147575f80fd5b809150509250929050565b634e487b7160e01b5f52604160045260245ffd5b5f805f8060808587031215612179575f80fd5b61218285611ff0565b935061219060208601611ff0565b925060408501359150606085013567ffffffffffffffff808211156121b3575f80fd5b818701915087601f8301126121c6575f80fd5b8135818111156121d8576121d8612152565b604051601f8201601f19908116603f0116810190838211818310171561220057612200612152565b816040528281528a6020848701011115612218575f80fd5b826020860160208301375f60208483010152809550505050505092959194509250565b5f805f805f8060c08789031215612250575f80fd5b61225987611ff0565b95506020870135945060408701359350606087013560ff8116811461227c575f80fd5b9598949750929560808101359460a0909101359350915050565b5f80604083850312156122a7575f80fd5b6122b083611ff0565b91506122be60208401611ff0565b90509250929050565b600181811c908216806122db57607f821691505b6020821081036122f957634e487b7160e01b5f52602260045260245ffd5b50919050565b5f8351612310818460208801611f7a565b835190830190612324818360208801611f7a565b01949350505050565b634e487b7160e01b5f52601160045260245ffd5b6001600160e01b038281168282160390808211156123615761236161232d565b5092915050565b6001600160e01b038181168382160190808211156123615761236161232d565b818103818111156103f4576103f461232d565b808201808211156103f4576103f461232d565b634e487b7160e01b5f52601260045260245ffd5b6001600160a01b03858116825284166020820152604081018390526080606082018190525f906123f490830184611f9c565b9695505050505050565b5f6020828403121561240e575f80fd5b815161097e81611f4a565b634e487b7160e01b5f52602160045260245ffd5b5f8261244757634e487b7160e01b5f52601260045260245ffd5b500490565b6001600160601b038181168382160190808211156123615761236161232d56fea2646970667358221220698b7a0e76ab88a7d8ff8a36dc6c829863cf5813ffbbed6b186f9870af98d90e64736f6c63430008140033dec2bacdd2f05b59de34da9b523dff8be42e5e38e818c82fdb0bae774387a724",
  "linkReferences": {},
  "deployedLinkReferences": {}
}