{"abi":[{"type":"constructor","inputs":[{"name":"trustedForwarder","type":"address","internalType":"address"}],"stateMutability":"nonpayable"},{"type":"function","name":"isTrustedForwarder","inputs":[{"name":"forwarder","type":"address","internalType":"address"}],"outputs":[{"name":"","type":"bool","internalType":"bool"}],"stateMutability":"view"},{"type":"function","name":"msgData","inputs":[{"name":"integerValue","type":"uint256","internalType":"uint256"},{"name":"stringValue","type":"string","internalType":"string"}],"outputs":[],"stateMutability":"nonpayable"},{"type":"function","name":"msgSender","inputs":[],"outputs":[],"stateMutability":"nonpayable"},{"type":"event","name":"Data","inputs":[{"name":"data","type":"bytes","indexed":false,"internalType":"bytes"},{"name":"integerValue","type":"uint256","indexed":false,"internalType":"uint256"},{"name":"stringValue","type":"string","indexed":false,"internalType":"string"}],"anonymous":false},{"type":"event","name":"Sender","inputs":[{"name":"sender","type":"address","indexed":false,"internalType":"address"}],"anonymous":false}],"bytecode":{"object":"0x60a060405234801561001057600080fd5b506040516104dc3803806104dc83398101604081905261002f916100bc565b6001600160a01b0381166080527fd6558c3ed910d959271054471fd1c326679d9fece99c5091b00ed89627cf2bfc610065610086565b6040516001600160a01b03909116815260200160405180910390a1506100ec565b6000610090610095565b905090565b6080516000906001600160a01b031633036100b7575060131936013560601c90565b503390565b6000602082840312156100ce57600080fd5b81516001600160a01b03811681146100e557600080fd5b9392505050565b6080516103d6610106600039600060d301526103d66000f3fe608060405234801561001057600080fd5b50600436106100415760003560e01c8063376bf26214610046578063572b6c051461005b578063d737d0c714610082575b600080fd5b6100596100543660046101d8565b61008a565b005b61006e61006936600461029b565b6100d1565b604051901515815260200160405180910390f35b610059610103565b7faf235354a0a47c91ee171961326335cb2d1a8e55b8a89859b0e61eb049e50ea06100b3610149565b84846040516100c594939291906102cb565b60405180910390a15050565b7f00000000000000000000000000000000000000000000000000000000000000006001600160a01b0390811691161490565b7fd6558c3ed910d959271054471fd1c326679d9fece99c5091b00ed89627cf2bfc61012c61015c565b6040516001600160a01b03909116815260200160405180910390a1565b36600061015461016b565b915091509091565b60006101666101a0565b905090565b366000610177336100d1565b15610198576000803661018b60148261034f565b9261015493929190610376565b600036610154565b60006101ab336100d1565b156101bd575060131936013560601c90565b503390565b634e487b7160e01b600052604160045260246000fd5b600080604083850312156101eb57600080fd5b82359150602083013567ffffffffffffffff81111561020957600080fd5b8301601f8101851361021a57600080fd5b803567ffffffffffffffff811115610234576102346101c2565b604051601f8201601f19908116603f0116810167ffffffffffffffff81118282101715610263576102636101c2565b60405281815282820160200187101561027b57600080fd5b816020840160208301376000602083830101528093505050509250929050565b6000602082840312156102ad57600080fd5b81356001600160a01b03811681146102c457600080fd5b9392505050565b60608152836060820152838560808301376000608085830101526000601f19601f86011682018460208401526080838203016040840152835180608083015260005b8181101561032a57602081870181015184830160a001520161030d565b50600060a0838301810191909152601f909101601f1916909101019695505050505050565b8181038181111561037057634e487b7160e01b600052601160045260246000fd5b92915050565b6000808585111561038657600080fd5b8386111561039357600080fd5b505082019391909203915056fea26469706673582212209aebd5389d3fb239017aa3c05a7d20b5812112dc247862f6a9c54b2ed6196abc64736f6c634300081b0033","linkReferences":{}},"methodIdentifiers":{"isTrustedForwarder(address)":"572b6c05","msgData(uint256,string)":"376bf262","msgSender()":"d737d0c7"},"id":72}