{
  "_format": "hh-sol-artifact-1",
  "contractName": "MulticallTest",
  "sourceName": "contracts/mocks/MulticallTest.sol",
  "abi": [
    {
      "inputs": [
        {
          "internalType": "contract ERC20MulticallMock",
          "name": "multicallToken",
          "type": "address"
        },
        {
          "internalType": "address[]",
          "name": "recipients",
          "type": "address[]"
        },
        {
          "internalType": "uint256[]",
          "name": "amounts",
          "type": "uint256[]"
        }
      ],
      "name": "checkReturnValues",
      "outputs": [],
      "stateMutability": "nonpayable",
      "type": "function"
    }
  ],
  "bytecode": "0x608060405234801561000f575f80fd5b506105ac8061001d5f395ff3fe608060405234801561000f575f80fd5b5060043610610029575f3560e01c8063b568d0161461002d575b5f80fd5b61004061003b366004610293565b610042565b005b5f8367ffffffffffffffff81111561005c5761005c610310565b60405190808252806020026020018201604052801561008f57816020015b606081526020019060019003908161007a5790505b5090505f5b8481101561016557866001600160a01b031663a9059cbb8787848181106100bd576100bd610324565b90506020020160208101906100d29190610338565b8686858181106100e4576100e4610324565b6040516001600160a01b0390941660248501526020029190910135604483015250606401604051602081830303815290604052915060e01b6020820180516001600160e01b03838183161783525050505082828151811061014757610147610324565b6020026020010181905250808061015d9061035a565b915050610094565b50604051631592ca1b60e31b81525f906001600160a01b0388169063ac9650d8906101949085906004016103a0565b5f604051808303815f875af11580156101af573d5f803e3d5ffd5b505050506040513d5f823e601f3d908101601f191682016040526101d69190810190610449565b90505f5b815181101561022a578181815181106101f5576101f5610324565b60200260200101518060200190518101906102109190610557565b610218575f80fd5b806102228161035a565b9150506101da565b5050505050505050565b6001600160a01b0381168114610248575f80fd5b50565b5f8083601f84011261025b575f80fd5b50813567ffffffffffffffff811115610272575f80fd5b6020830191508360208260051b850101111561028c575f80fd5b9250929050565b5f805f805f606086880312156102a7575f80fd5b85356102b281610234565b9450602086013567ffffffffffffffff808211156102ce575f80fd5b6102da89838a0161024b565b909650945060408801359150808211156102f2575f80fd5b506102ff8882890161024b565b969995985093965092949392505050565b634e487b7160e01b5f52604160045260245ffd5b634e487b7160e01b5f52603260045260245ffd5b5f60208284031215610348575f80fd5b813561035381610234565b9392505050565b5f6001820161037757634e487b7160e01b5f52601160045260245ffd5b5060010190565b5f5b83811015610398578181015183820152602001610380565b50505f910152565b5f602080830181845280855180835260408601915060408160051b87010192508387015f5b8281101561040b57878503603f19018452815180518087526103ec818989018a850161037e565b601f01601f1916959095018601945092850192908501906001016103c5565b5092979650505050505050565b604051601f8201601f1916810167ffffffffffffffff8111828210171561044157610441610310565b604052919050565b5f602080838503121561045a575f80fd5b825167ffffffffffffffff80821115610471575f80fd5b8185019150601f8681840112610485575f80fd5b82518281111561049757610497610310565b8060051b6104a6868201610418565b918252848101860191868101908a8411156104bf575f80fd5b87870192505b83831015610549578251868111156104dc575f8081fd5b8701603f81018c136104ed575f8081fd5b8881015160408882111561050357610503610310565b610514828901601f19168c01610418565b8281528e82848601011115610528575f8081fd5b610537838d830184870161037e565b855250505091870191908701906104c5565b9a9950505050505050505050565b5f60208284031215610567575f80fd5b81518015158114610353575f80fdfea2646970667358221220174f238a9882cd013f4753a3666a46fb621f415bef7c5507581a12678f6b79f964736f6c63430008140033",
  "linkReferences": {},
  "deployedLinkReferences": {}
}