{
  "_format": "hh-sol-artifact-1",
  "contractName": "$ERC20FlashMintMock",
  "sourceName": "contracts-exposed/mocks/token/ERC20FlashMintMock.sol",
  "abi": [
    {
      "inputs": [
        {
          "internalType": "string",
          "name": "name_",
          "type": "string"
        },
        {
          "internalType": "string",
          "name": "symbol_",
          "type": "string"
        }
      ],
      "stateMutability": "payable",
      "type": "constructor"
    },
    {
      "inputs": [
        {
          "internalType": "address",
          "name": "spender",
          "type": "address"
        },
        {
          "internalType": "uint256",
          "name": "currentAllowance",
          "type": "uint256"
        },
        {
          "internalType": "uint256",
          "name": "requestedDecrease",
          "type": "uint256"
        }
      ],
      "name": "ERC20FailedDecreaseAllowance",
      "type": "error"
    },
    {
      "inputs": [
        {
          "internalType": "address",
          "name": "spender",
          "type": "address"
        },
        {
          "internalType": "uint256",
          "name": "allowance",
          "type": "uint256"
        },
        {
          "internalType": "uint256",
          "name": "needed",
          "type": "uint256"
        }
      ],
      "name": "ERC20InsufficientAllowance",
      "type": "error"
    },
    {
      "inputs": [
        {
          "internalType": "address",
          "name": "sender",
          "type": "address"
        },
        {
          "internalType": "uint256",
          "name": "balance",
          "type": "uint256"
        },
        {
          "internalType": "uint256",
          "name": "needed",
          "type": "uint256"
        }
      ],
      "name": "ERC20InsufficientBalance",
      "type": "error"
    },
    {
      "inputs": [
        {
          "internalType": "address",
          "name": "approver",
          "type": "address"
        }
      ],
      "name": "ERC20InvalidApprover",
      "type": "error"
    },
    {
      "inputs": [
        {
          "internalType": "address",
          "name": "receiver",
          "type": "address"
        }
      ],
      "name": "ERC20InvalidReceiver",
      "type": "error"
    },
    {
      "inputs": [
        {
          "internalType": "address",
          "name": "sender",
          "type": "address"
        }
      ],
      "name": "ERC20InvalidSender",
      "type": "error"
    },
    {
      "inputs": [
        {
          "internalType": "address",
          "name": "spender",
          "type": "address"
        }
      ],
      "name": "ERC20InvalidSpender",
      "type": "error"
    },
    {
      "inputs": [
        {
          "internalType": "uint256",
          "name": "maxLoan",
          "type": "uint256"
        }
      ],
      "name": "ERC3156ExceededMaxLoan",
      "type": "error"
    },
    {
      "inputs": [
        {
          "internalType": "address",
          "name": "receiver",
          "type": "address"
        }
      ],
      "name": "ERC3156InvalidReceiver",
      "type": "error"
    },
    {
      "inputs": [
        {
          "internalType": "address",
          "name": "token",
          "type": "address"
        }
      ],
      "name": "ERC3156UnsupportedToken",
      "type": "error"
    },
    {
      "anonymous": false,
      "inputs": [
        {
          "indexed": true,
          "internalType": "address",
          "name": "owner",
          "type": "address"
        },
        {
          "indexed": true,
          "internalType": "address",
          "name": "spender",
          "type": "address"
        },
        {
          "indexed": false,
          "internalType": "uint256",
          "name": "value",
          "type": "uint256"
        }
      ],
      "name": "Approval",
      "type": "event"
    },
    {
      "anonymous": false,
      "inputs": [
        {
          "indexed": true,
          "internalType": "address",
          "name": "from",
          "type": "address"
        },
        {
          "indexed": true,
          "internalType": "address",
          "name": "to",
          "type": "address"
        },
        {
          "indexed": false,
          "internalType": "uint256",
          "name": "value",
          "type": "uint256"
        }
      ],
      "name": "Transfer",
      "type": "event"
    },
    {
      "inputs": [
        {
          "internalType": "address",
          "name": "owner",
          "type": "address"
        },
        {
          "internalType": "address",
          "name": "spender",
          "type": "address"
        },
        {
          "internalType": "uint256",
          "name": "value",
          "type": "uint256"
        },
        {
          "internalType": "bool",
          "name": "emitEvent",
          "type": "bool"
        }
      ],
      "name": "$_approve",
      "outputs": [],
      "stateMutability": "nonpayable",
      "type": "function"
    },
    {
      "inputs": [
        {
          "internalType": "address",
          "name": "owner",
          "type": "address"
        },
        {
          "internalType": "address",
          "name": "spender",
          "type": "address"
        },
        {
          "internalType": "uint256",
          "name": "value",
          "type": "uint256"
        }
      ],
      "name": "$_approve",
      "outputs": [],
      "stateMutability": "nonpayable",
      "type": "function"
    },
    {
      "inputs": [
        {
          "internalType": "address",
          "name": "account",
          "type": "address"
        },
        {
          "internalType": "uint256",
          "name": "value",
          "type": "uint256"
        }
      ],
      "name": "$_burn",
      "outputs": [],
      "stateMutability": "nonpayable",
      "type": "function"
    },
    {
      "inputs": [
        {
          "internalType": "address",
          "name": "arg0",
          "type": "address"
        },
        {
          "internalType": "uint256",
          "name": "arg1",
          "type": "uint256"
        }
      ],
      "name": "$_flashFee",
      "outputs": [
        {
          "internalType": "uint256",
          "name": "ret0",
          "type": "uint256"
        }
      ],
      "stateMutability": "view",
      "type": "function"
    },
    {
      "inputs": [],
      "name": "$_flashFeeAmount",
      "outputs": [
        {
          "internalType": "uint256",
          "name": "",
          "type": "uint256"
        }
      ],
      "stateMutability": "view",
      "type": "function"
    },
    {
      "inputs": [],
      "name": "$_flashFeeReceiver",
      "outputs": [
        {
          "internalType": "address",
          "name": "ret0",
          "type": "address"
        }
      ],
      "stateMutability": "view",
      "type": "function"
    },
    {
      "inputs": [],
      "name": "$_flashFeeReceiverAddress",
      "outputs": [
        {
          "internalType": "address",
          "name": "",
          "type": "address"
        }
      ],
      "stateMutability": "view",
      "type": "function"
    },
    {
      "inputs": [
        {
          "internalType": "address",
          "name": "account",
          "type": "address"
        },
        {
          "internalType": "uint256",
          "name": "value",
          "type": "uint256"
        }
      ],
      "name": "$_mint",
      "outputs": [],
      "stateMutability": "nonpayable",
      "type": "function"
    },
    {
      "inputs": [],
      "name": "$_msgData",
      "outputs": [
        {
          "internalType": "bytes",
          "name": "ret0",
          "type": "bytes"
        }
      ],
      "stateMutability": "view",
      "type": "function"
    },
    {
      "inputs": [],
      "name": "$_msgSender",
      "outputs": [
        {
          "internalType": "address",
          "name": "ret0",
          "type": "address"
        }
      ],
      "stateMutability": "view",
      "type": "function"
    },
    {
      "inputs": [
        {
          "internalType": "address",
          "name": "owner",
          "type": "address"
        },
        {
          "internalType": "address",
          "name": "spender",
          "type": "address"
        },
        {
          "internalType": "uint256",
          "name": "value",
          "type": "uint256"
        }
      ],
      "name": "$_spendAllowance",
      "outputs": [],
      "stateMutability": "nonpayable",
      "type": "function"
    },
    {
      "inputs": [
        {
          "internalType": "address",
          "name": "from",
          "type": "address"
        },
        {
          "internalType": "address",
          "name": "to",
          "type": "address"
        },
        {
          "internalType": "uint256",
          "name": "value",
          "type": "uint256"
        }
      ],
      "name": "$_transfer",
      "outputs": [],
      "stateMutability": "nonpayable",
      "type": "function"
    },
    {
      "inputs": [
        {
          "internalType": "address",
          "name": "from",
          "type": "address"
        },
        {
          "internalType": "address",
          "name": "to",
          "type": "address"
        },
        {
          "internalType": "uint256",
          "name": "value",
          "type": "uint256"
        }
      ],
      "name": "$_update",
      "outputs": [],
      "stateMutability": "nonpayable",
      "type": "function"
    },
    {
      "inputs": [],
      "name": "__hh_exposed_bytecode_marker",
      "outputs": [
        {
          "internalType": "bytes32",
          "name": "",
          "type": "bytes32"
        }
      ],
      "stateMutability": "view",
      "type": "function"
    },
    {
      "inputs": [
        {
          "internalType": "address",
          "name": "owner",
          "type": "address"
        },
        {
          "internalType": "address",
          "name": "spender",
          "type": "address"
        }
      ],
      "name": "allowance",
      "outputs": [
        {
          "internalType": "uint256",
          "name": "",
          "type": "uint256"
        }
      ],
      "stateMutability": "view",
      "type": "function"
    },
    {
      "inputs": [
        {
          "internalType": "address",
          "name": "spender",
          "type": "address"
        },
        {
          "internalType": "uint256",
          "name": "value",
          "type": "uint256"
        }
      ],
      "name": "approve",
      "outputs": [
        {
          "internalType": "bool",
          "name": "",
          "type": "bool"
        }
      ],
      "stateMutability": "nonpayable",
      "type": "function"
    },
    {
      "inputs": [
        {
          "internalType": "address",
          "name": "account",
          "type": "address"
        }
      ],
      "name": "balanceOf",
      "outputs": [
        {
          "internalType": "uint256",
          "name": "",
          "type": "uint256"
        }
      ],
      "stateMutability": "view",
      "type": "function"
    },
    {
      "inputs": [],
      "name": "decimals",
      "outputs": [
        {
          "internalType": "uint8",
          "name": "",
          "type": "uint8"
        }
      ],
      "stateMutability": "view",
      "type": "function"
    },
    {
      "inputs": [
        {
          "internalType": "address",
          "name": "spender",
          "type": "address"
        },
        {
          "internalType": "uint256",
          "name": "requestedDecrease",
          "type": "uint256"
        }
      ],
      "name": "decreaseAllowance",
      "outputs": [
        {
          "internalType": "bool",
          "name": "",
          "type": "bool"
        }
      ],
      "stateMutability": "nonpayable",
      "type": "function"
    },
    {
      "inputs": [
        {
          "internalType": "address",
          "name": "token",
          "type": "address"
        },
        {
          "internalType": "uint256",
          "name": "value",
          "type": "uint256"
        }
      ],
      "name": "flashFee",
      "outputs": [
        {
          "internalType": "uint256",
          "name": "",
          "type": "uint256"
        }
      ],
      "stateMutability": "view",
      "type": "function"
    },
    {
      "inputs": [
        {
          "internalType": "contract IERC3156FlashBorrower",
          "name": "receiver",
          "type": "address"
        },
        {
          "internalType": "address",
          "name": "token",
          "type": "address"
        },
        {
          "internalType": "uint256",
          "name": "value",
          "type": "uint256"
        },
        {
          "internalType": "bytes",
          "name": "data",
          "type": "bytes"
        }
      ],
      "name": "flashLoan",
      "outputs": [
        {
          "internalType": "bool",
          "name": "",
          "type": "bool"
        }
      ],
      "stateMutability": "nonpayable",
      "type": "function"
    },
    {
      "inputs": [
        {
          "internalType": "address",
          "name": "spender",
          "type": "address"
        },
        {
          "internalType": "uint256",
          "name": "addedValue",
          "type": "uint256"
        }
      ],
      "name": "increaseAllowance",
      "outputs": [
        {
          "internalType": "bool",
          "name": "",
          "type": "bool"
        }
      ],
      "stateMutability": "nonpayable",
      "type": "function"
    },
    {
      "inputs": [
        {
          "internalType": "address",
          "name": "token",
          "type": "address"
        }
      ],
      "name": "maxFlashLoan",
      "outputs": [
        {
          "internalType": "uint256",
          "name": "",
          "type": "uint256"
        }
      ],
      "stateMutability": "view",
      "type": "function"
    },
    {
      "inputs": [],
      "name": "name",
      "outputs": [
        {
          "internalType": "string",
          "name": "",
          "type": "string"
        }
      ],
      "stateMutability": "view",
      "type": "function"
    },
    {
      "inputs": [
        {
          "internalType": "uint256",
          "name": "amount",
          "type": "uint256"
        }
      ],
      "name": "setFlashFee",
      "outputs": [],
      "stateMutability": "nonpayable",
      "type": "function"
    },
    {
      "inputs": [
        {
          "internalType": "address",
          "name": "receiver",
          "type": "address"
        }
      ],
      "name": "setFlashFeeReceiver",
      "outputs": [],
      "stateMutability": "nonpayable",
      "type": "function"
    },
    {
      "inputs": [],
      "name": "symbol",
      "outputs": [
        {
          "internalType": "string",
          "name": "",
          "type": "string"
        }
      ],
      "stateMutability": "view",
      "type": "function"
    },
    {
      "inputs": [],
      "name": "totalSupply",
      "outputs": [
        {
          "internalType": "uint256",
          "name": "",
          "type": "uint256"
        }
      ],
      "stateMutability": "view",
      "type": "function"
    },
    {
      "inputs": [
        {
          "internalType": "address",
          "name": "to",
          "type": "address"
        },
        {
          "internalType": "uint256",
          "name": "value",
          "type": "uint256"
        }
      ],
      "name": "transfer",
      "outputs": [
        {
          "internalType": "bool",
          "name": "",
          "type": "bool"
        }
      ],
      "stateMutability": "nonpayable",
      "type": "function"
    },
    {
      "inputs": [
        {
          "internalType": "address",
          "name": "from",
          "type": "address"
        },
        {
          "internalType": "address",
          "name": "to",
          "type": "address"
        },
        {
          "internalType": "uint256",
          "name": "value",
          "type": "uint256"
        }
      ],
      "name": "transferFrom",
      "outputs": [
        {
          "internalType": "bool",
          "name": "",
          "type": "bool"
        }
      ],
      "stateMutability": "nonpayable",
      "type": "function"
    },
    {
      "stateMutability": "payable",
      "type": "receive"
    }
  ],
  "bytecode": "0x6080604052604051620013043803806200130483398101604081905262000026916200010e565b8181600362000036838262000200565b50600462000045828262000200565b5050505050620002c8565b634e487b7160e01b5f52604160045260245ffd5b5f82601f83011262000074575f80fd5b81516001600160401b038082111562000091576200009162000050565b604051601f8301601f19908116603f01168101908282118183101715620000bc57620000bc62000050565b81604052838152602092508683858801011115620000d8575f80fd5b5f91505b83821015620000fb5785820183015181830184015290820190620000dc565b5f93810190920192909252949350505050565b5f806040838503121562000120575f80fd5b82516001600160401b038082111562000137575f80fd5b620001458683870162000064565b935060208501519150808211156200015b575f80fd5b506200016a8582860162000064565b9150509250929050565b600181811c908216806200018957607f821691505b602082108103620001a857634e487b7160e01b5f52602260045260245ffd5b50919050565b601f821115620001fb575f81815260208120601f850160051c81016020861015620001d65750805b601f850160051c820191505b81811015620001f757828155600101620001e2565b5050505b505050565b81516001600160401b038111156200021c576200021c62000050565b62000234816200022d845462000174565b84620001ae565b602080601f8311600181146200026a575f8415620002525750858301515b5f19600386901b1c1916600185901b178555620001f7565b5f85815260208120601f198616915b828110156200029a5788860151825594840194600190910190840162000279565b5085821015620002b857878501515f19600388901b60f8161c191681555b5050505050600190811b01905550565b61102e80620002d65f395ff3fe6080604052600436106101c8575f3560e01c80636855a178116100f2578063a9059cbb11610092578063da3f6ff411610062578063da3f6ff41461052d578063dd62ed3e14610541578063e047838d14610560578063efb43b071461057f575f80fd5b8063a9059cbb146104b1578063b2331d7d146104d0578063cc461d62146104ef578063d9d98ce41461050e575f80fd5b80638b14348e116100cd5780638b14348e14610442578063907a267b1461045f57806395d89b411461047e578063a457c2d714610492575f80fd5b80636855a178146103d057806370a08231146103ef578063861e3d3d14610423575f80fd5b806332bc74aa1161016857806339532b371161013857806339532b371461034257806352741a40146103565780635cffe9de14610392578063613255ab146103b1575f80fd5b806332bc74aa146102c957806332cadf3c146102ea578063342db739146102fe5780633950935114610323575f80fd5b80631b038258116101a35780631b0382581461024a57806323b872dd146102695780632904df2914610288578063313ce567146102ae575f80fd5b806306fdde03146101d3578063095ea7b3146101fd57806318160ddd1461022c575f80fd5b366101cf57005b5f80fd5b3480156101de575f80fd5b506101e761059e565b6040516101f49190610d30565b60405180910390f35b348015610208575f80fd5b5061021c610217366004610d59565b61062e565b60405190151581526020016101f4565b348015610237575f80fd5b506002545b6040519081526020016101f4565b348015610255575f80fd5b5061023c610264366004610d59565b610647565b348015610274575f80fd5b5061021c610283366004610d83565b610658565b348015610293575f80fd5b50335b6040516001600160a01b0390911681526020016101f4565b3480156102b9575f80fd5b50604051601281526020016101f4565b3480156102d4575f80fd5b506102e86102e3366004610dc1565b610680565b005b3480156102f5575f80fd5b506101e7610692565b348015610309575f80fd5b5061023c6e1a185c991a185d0b595e1c1bdcd959608a1b81565b34801561032e575f80fd5b5061021c61033d366004610d59565b6106cf565b34801561034d575f80fd5b506102966106f0565b348015610361575f80fd5b506102e8610370366004610e15565b600680546001600160a01b0319166001600160a01b0392909216919091179055565b34801561039d575f80fd5b5061021c6103ac366004610e30565b610703565b3480156103bc575f80fd5b5061023c6103cb366004610e15565b61088e565b3480156103db575f80fd5b506102e86103ea366004610d83565b6108b3565b3480156103fa575f80fd5b5061023c610409366004610e15565b6001600160a01b03165f9081526020819052604090205490565b34801561042e575f80fd5b506102e861043d366004610d83565b6108c3565b34801561044d575f80fd5b506006546001600160a01b0316610296565b34801561046a575f80fd5b506102e8610479366004610ec7565b600555565b348015610489575f80fd5b506101e76108ce565b34801561049d575f80fd5b5061021c6104ac366004610d59565b6108dd565b3480156104bc575f80fd5b5061021c6104cb366004610d59565b610933565b3480156104db575f80fd5b506102e86104ea366004610d83565b610940565b3480156104fa575f80fd5b506102e8610509366004610d59565b61094b565b348015610519575f80fd5b5061023c610528366004610d59565b610959565b348015610538575f80fd5b5060055461023c565b34801561054c575f80fd5b5061023c61055b366004610ede565b610996565b34801561056b575f80fd5b506102e861057a366004610d59565b6109c0565b34801561058a575f80fd5b506102e8610599366004610d83565b6109ca565b6060600380546105ad90610f15565b80601f01602080910402602001604051908101604052809291908181526020018280546105d990610f15565b80156106245780601f106105fb57610100808354040283529160200191610624565b820191905f5260205f20905b81548152906001019060200180831161060757829003601f168201915b5050505050905090565b5f3361063b8185856109d5565b60019150505b92915050565b5f61065160055490565b9392505050565b5f336106658582856109e2565b610670858585610a3f565b506001949350505050565b905090565b61068c84848484610a91565b50505050565b60605f368080601f0160208091040260200160405190810160405280939291908181526020018383808284375f9201919091525092949350505050565b5f3361063b8185856106e18383610996565b6106eb9190610f61565b6109d5565b5f61067b6006546001600160a01b031690565b5f8061070e8661088e565b9050808511156107395760405163fd9a760960e01b8152600481018290526024015b60405180910390fd5b5f6107448787610959565b90506107508887610b63565b6040516323e30c8b60e01b81527f439148f0bbc682ca079e46d6e2c2f0c1e3b820f1a291b069d8882abf8cf18dd9906001600160a01b038a16906323e30c8b906107a89033908c908c9088908d908d90600401610f74565b6020604051808303815f875af11580156107c4573d5f803e3d5ffd5b505050506040513d601f19601f820116820180604052508101906107e89190610fce565b146108105760405162678c5b60e81b81526001600160a01b0389166004820152602401610730565b5f6108236006546001600160a01b031690565b90506108398930610834858b610f61565b6109e2565b81158061084d57506001600160a01b038116155b1561086a5761086589610860848a610f61565b610b97565b61087f565b6108748988610b97565b61087f898284610a3f565b50600198975050505050505050565b5f6001600160a01b03821630146108a5575f610641565b600254610641905f19610fe5565b6108be838383610bc7565b505050565b6108be8383836109d5565b6060600480546105ad90610f15565b5f33816108ea8286610996565b90508381101561092657604051632983c0c360e21b81526001600160a01b03861660048201526024810182905260448101859052606401610730565b61067082868684036109d5565b5f3361063b818585610a3f565b6108be8383836109e2565b6109558282610b63565b5050565b5f6001600160a01b038316301461098e57604051635ad3edc960e11b81526001600160a01b0384166004820152602401610730565b600554610651565b6001600160a01b039182165f90815260016020908152604080832093909416825291909152205490565b6109558282610b97565b6108be838383610a3f565b6108be8383836001610a91565b5f6109ed8484610996565b90505f19811461068c5781811015610a3157604051637dc7a0d960e11b81526001600160a01b03841660048201526024810182905260448101839052606401610730565b61068c84848484035f610a91565b6001600160a01b038316610a6857604051634b637e8f60e11b81525f6004820152602401610730565b6001600160a01b0382166108b35760405163ec442f0560e01b81525f6004820152602401610730565b6001600160a01b038416610aba5760405163e602df0560e01b81525f6004820152602401610730565b6001600160a01b038316610ae357604051634a1406b160e11b81525f6004820152602401610730565b6001600160a01b038085165f908152600160209081526040808320938716835292905220829055801561068c57826001600160a01b0316846001600160a01b03167f8c5be1e5ebec7d5bd14f71427d1e84f3dd0314c0f7b2291e5b200ac8c7c3b92584604051610b5591815260200190565b60405180910390a350505050565b6001600160a01b038216610b8c5760405163ec442f0560e01b81525f6004820152602401610730565b6109555f8383610bc7565b6001600160a01b038216610bc057604051634b637e8f60e11b81525f6004820152602401610730565b610955825f835b6001600160a01b038316610bf1578060025f828254610be69190610f61565b90915550610c619050565b6001600160a01b0383165f9081526020819052604090205481811015610c435760405163391434e360e21b81526001600160a01b03851660048201526024810182905260448101839052606401610730565b6001600160a01b0384165f9081526020819052604090209082900390555b6001600160a01b038216610c7d57600280548290039055610c9b565b6001600160a01b0382165f9081526020819052604090208054820190555b816001600160a01b0316836001600160a01b03167fddf252ad1be2c89b69c2b068fc378daa952ba7f163c4a11628f55a4df523b3ef83604051610ce091815260200190565b60405180910390a3505050565b5f81518084525f5b81811015610d1157602081850181015186830182015201610cf5565b505f602082860101526020601f19601f83011685010191505092915050565b602081525f6106516020830184610ced565b6001600160a01b0381168114610d56575f80fd5b50565b5f8060408385031215610d6a575f80fd5b8235610d7581610d42565b946020939093013593505050565b5f805f60608486031215610d95575f80fd5b8335610da081610d42565b92506020840135610db081610d42565b929592945050506040919091013590565b5f805f8060808587031215610dd4575f80fd5b8435610ddf81610d42565b93506020850135610def81610d42565b92506040850135915060608501358015158114610e0a575f80fd5b939692955090935050565b5f60208284031215610e25575f80fd5b813561065181610d42565b5f805f805f60808688031215610e44575f80fd5b8535610e4f81610d42565b94506020860135610e5f81610d42565b935060408601359250606086013567ffffffffffffffff80821115610e82575f80fd5b818801915088601f830112610e95575f80fd5b813581811115610ea3575f80fd5b896020828501011115610eb4575f80fd5b9699959850939650602001949392505050565b5f60208284031215610ed7575f80fd5b5035919050565b5f8060408385031215610eef575f80fd5b8235610efa81610d42565b91506020830135610f0a81610d42565b809150509250929050565b600181811c90821680610f2957607f821691505b602082108103610f4757634e487b7160e01b5f52602260045260245ffd5b50919050565b634e487b7160e01b5f52601160045260245ffd5b8082018082111561064157610641610f4d565b6001600160a01b03878116825286166020820152604081018590526060810184905260a06080820181905281018290525f828460c08401375f60c0848401015260c0601f19601f8501168301019050979650505050505050565b5f60208284031215610fde575f80fd5b5051919050565b8181038181111561064157610641610f4d56fea2646970667358221220e5541af18aa629ffedf32e1c58f0002ba98aaf23046da9164a408b3b2336dd0464736f6c63430008140033",
  "linkReferences": {},
  "deployedLinkReferences": {}
}