{"abi":[{"type":"function","name":"disableReentrancy","inputs":[],"outputs":[],"stateMutability":"nonpayable"},{"type":"function","name":"enableRentrancy","inputs":[{"name":"target","type":"address","internalType":"address"},{"name":"data","type":"bytes","internalType":"bytes"}],"outputs":[],"stateMutability":"nonpayable"},{"type":"function","name":"reenter","inputs":[],"outputs":[],"stateMutability":"nonpayable"},{"type":"error","name":"AddressEmptyCode","inputs":[{"name":"target","type":"address","internalType":"address"}]},{"type":"error","name":"AddressInsufficientBalance","inputs":[{"name":"account","type":"address","internalType":"address"}]},{"type":"error","name":"FailedInnerCall","inputs":[]}],"bytecode":{"object":"0x6080604052348015600f57600080fd5b506105008061001f6000396000f3fe608060405234801561001057600080fd5b50600436106100415760003560e01c80633654421b14610046578063a0fe97e31461005b578063cc23fb1c14610063575b600080fd5b6100596100543660046102a9565b610075565b005b6100596100a3565b6100596002805460ff19166001179055565b600080546001600160a01b0319166001600160a01b038516179055600161009d8284836103db565b50505050565b60025460ff16610161576002805460ff19166001908117909155600054815461015f926001600160a01b0390921691906100dc90610352565b80601f016020809104026020016040519081016040528092919081815260200182805461010890610352565b80156101555780601f1061012a57610100808354040283529160200191610155565b820191906000526020600020905b81548152906001019060200180831161013857829003601f168201915b5050505050610163565b505b565b60606101748383600061017b610194565b9392505050565b604051630a12f52160e11b815260040160405180910390fd5b6060824710156101be5760405163cd78605960e01b81523060048201526024015b60405180910390fd5b600080866001600160a01b031685876040516101da919061049b565b60006040518083038185875af1925050503d8060008114610217576040519150601f19603f3d011682016040523d82523d6000602084013e61021c565b606091505b509150915061022d8783838761023a565b925050505b949350505050565b6060831561028857825160000361028157846001600160a01b03163b60000361028157604051639996b31560e01b81526001600160a01b03861660048201526024016101b5565b5081610232565b610232838381511561029d5781518083602001fd5b61017b8163ffffffff16565b6000806000604084860312156102be57600080fd5b83356001600160a01b03811681146102d557600080fd5b9250602084013567ffffffffffffffff8111156102f157600080fd5b8401601f8101861361030257600080fd5b803567ffffffffffffffff81111561031957600080fd5b86602082840101111561032b57600080fd5b939660209190910195509293505050565b634e487b7160e01b600052604160045260246000fd5b600181811c9082168061036657607f821691505b60208210810361038657634e487b7160e01b600052602260045260246000fd5b50919050565b601f8211156103d657806000526020600020601f840160051c810160208510156103b35750805b601f840160051c820191505b818110156103d357600081556001016103bf565b50505b505050565b67ffffffffffffffff8311156103f3576103f361033c565b610407836104018354610352565b8361038c565b6000601f84116001811461043b57600085156104235750838201355b600019600387901b1c1916600186901b1783556103d3565b600083815260209020601f19861690835b8281101561046c578685013582556020948501946001909201910161044c565b50868210156104895760001960f88860031b161c19848701351681555b505060018560011b0183555050505050565b6000825160005b818110156104bc57602081860181015185830152016104a2565b50600092019182525091905056fea2646970667358221220f620b448821c50214422e139c828fd51f38f51a2b1729687c8a4c445dcb23c0d64736f6c634300081b0033","linkReferences":{}},"methodIdentifiers":{"disableReentrancy()":"cc23fb1c","enableRentrancy(address,bytes)":"3654421b","reenter()":"a0fe97e3"},"id":84}