{
  "_format": "hh-sol-artifact-1",
  "contractName": "$ERC2771Context",
  "sourceName": "contracts-exposed/metatx/ERC2771Context.sol",
  "abi": [
    {
      "inputs": [
        {
          "internalType": "address",
          "name": "trustedForwarder",
          "type": "address"
        }
      ],
      "stateMutability": "payable",
      "type": "constructor"
    },
    {
      "inputs": [],
      "name": "$_msgData",
      "outputs": [
        {
          "internalType": "bytes",
          "name": "ret0",
          "type": "bytes"
        }
      ],
      "stateMutability": "view",
      "type": "function"
    },
    {
      "inputs": [],
      "name": "$_msgSender",
      "outputs": [
        {
          "internalType": "address",
          "name": "sender",
          "type": "address"
        }
      ],
      "stateMutability": "view",
      "type": "function"
    },
    {
      "inputs": [],
      "name": "__hh_exposed_bytecode_marker",
      "outputs": [
        {
          "internalType": "bytes32",
          "name": "",
          "type": "bytes32"
        }
      ],
      "stateMutability": "view",
      "type": "function"
    },
    {
      "inputs": [
        {
          "internalType": "address",
          "name": "forwarder",
          "type": "address"
        }
      ],
      "name": "isTrustedForwarder",
      "outputs": [
        {
          "internalType": "bool",
          "name": "",
          "type": "bool"
        }
      ],
      "stateMutability": "view",
      "type": "function"
    },
    {
      "stateMutability": "payable",
      "type": "receive"
    }
  ],
  "bytecode": "0x60a060405260405161035038038061035083398101604081905261002291610033565b6001600160a01b0316608052610060565b5f60208284031215610043575f80fd5b81516001600160a01b0381168114610059575f80fd5b9392505050565b6080516102d86100785f395f61015301526102d85ff3fe608060405260043610610041575f3560e01c80632904df291461004c57806332cadf3c1461007d578063342db7391461009e578063572b6c05146100d1575f80fd5b3661004857005b5f80fd5b348015610057575f80fd5b50610060610100565b6040516001600160a01b0390911681526020015b60405180910390f35b348015610088575f80fd5b5061009161010e565b60405161007491906101de565b3480156100a9575f80fd5b506100c36e1a185c991a185d0b595e1c1bdcd959608a1b81565b604051908152602001610074565b3480156100dc575f80fd5b506100f06100eb366004610229565b610151565b6040519015158152602001610074565b5f610109610183565b905090565b60606101186101a4565b8080601f0160208091040260200160405190810160405280939291908181526020018383808284375f9201919091525092949350505050565b7f00000000000000000000000000000000000000000000000000000000000000006001600160a01b0390811691161490565b5f61018d33610151565b1561019f575060131936013560601c90565b503390565b365f6101af33610151565b156101d7575f80366101c2601482610256565b926101cf9392919061027b565b915091509091565b5f366101cf565b5f6020808352835180828501525f5b81811015610209578581018301518582016040015282016101ed565b505f604082860101526040601f19601f8301168501019250505092915050565b5f60208284031215610239575f80fd5b81356001600160a01b038116811461024f575f80fd5b9392505050565b8181038181111561027557634e487b7160e01b5f52601160045260245ffd5b92915050565b5f8085851115610289575f80fd5b83861115610295575f80fd5b505082019391909203915056fea2646970667358221220baf327f8e83ebf7f03cc5e97ae127675f3eeeffcc629c398ac3f2000e8ab0b2464736f6c63430008140033",
  "linkReferences": {},
  "deployedLinkReferences": {}
}