{
  "_format": "hh-sol-artifact-1",
  "contractName": "$ERC2981",
  "sourceName": "contracts-exposed/token/common/ERC2981.sol",
  "abi": [
    {
      "inputs": [],
      "stateMutability": "payable",
      "type": "constructor"
    },
    {
      "inputs": [
        {
          "internalType": "uint256",
          "name": "numerator",
          "type": "uint256"
        },
        {
          "internalType": "uint256",
          "name": "denominator",
          "type": "uint256"
        }
      ],
      "name": "ERC2981InvalidDefaultRoyalty",
      "type": "error"
    },
    {
      "inputs": [
        {
          "internalType": "address",
          "name": "receiver",
          "type": "address"
        }
      ],
      "name": "ERC2981InvalidDefaultRoyaltyReceiver",
      "type": "error"
    },
    {
      "inputs": [
        {
          "internalType": "uint256",
          "name": "tokenId",
          "type": "uint256"
        },
        {
          "internalType": "uint256",
          "name": "numerator",
          "type": "uint256"
        },
        {
          "internalType": "uint256",
          "name": "denominator",
          "type": "uint256"
        }
      ],
      "name": "ERC2981InvalidTokenRoyalty",
      "type": "error"
    },
    {
      "inputs": [
        {
          "internalType": "uint256",
          "name": "tokenId",
          "type": "uint256"
        },
        {
          "internalType": "address",
          "name": "receiver",
          "type": "address"
        }
      ],
      "name": "ERC2981InvalidTokenRoyaltyReceiver",
      "type": "error"
    },
    {
      "inputs": [],
      "name": "$_deleteDefaultRoyalty",
      "outputs": [],
      "stateMutability": "nonpayable",
      "type": "function"
    },
    {
      "inputs": [],
      "name": "$_feeDenominator",
      "outputs": [
        {
          "internalType": "uint96",
          "name": "ret0",
          "type": "uint96"
        }
      ],
      "stateMutability": "pure",
      "type": "function"
    },
    {
      "inputs": [
        {
          "internalType": "uint256",
          "name": "tokenId",
          "type": "uint256"
        }
      ],
      "name": "$_resetTokenRoyalty",
      "outputs": [],
      "stateMutability": "nonpayable",
      "type": "function"
    },
    {
      "inputs": [
        {
          "internalType": "address",
          "name": "receiver",
          "type": "address"
        },
        {
          "internalType": "uint96",
          "name": "feeNumerator",
          "type": "uint96"
        }
      ],
      "name": "$_setDefaultRoyalty",
      "outputs": [],
      "stateMutability": "nonpayable",
      "type": "function"
    },
    {
      "inputs": [
        {
          "internalType": "uint256",
          "name": "tokenId",
          "type": "uint256"
        },
        {
          "internalType": "address",
          "name": "receiver",
          "type": "address"
        },
        {
          "internalType": "uint96",
          "name": "feeNumerator",
          "type": "uint96"
        }
      ],
      "name": "$_setTokenRoyalty",
      "outputs": [],
      "stateMutability": "nonpayable",
      "type": "function"
    },
    {
      "inputs": [],
      "name": "__hh_exposed_bytecode_marker",
      "outputs": [
        {
          "internalType": "bytes32",
          "name": "",
          "type": "bytes32"
        }
      ],
      "stateMutability": "view",
      "type": "function"
    },
    {
      "inputs": [
        {
          "internalType": "uint256",
          "name": "tokenId",
          "type": "uint256"
        },
        {
          "internalType": "uint256",
          "name": "salePrice",
          "type": "uint256"
        }
      ],
      "name": "royaltyInfo",
      "outputs": [
        {
          "internalType": "address",
          "name": "",
          "type": "address"
        },
        {
          "internalType": "uint256",
          "name": "",
          "type": "uint256"
        }
      ],
      "stateMutability": "view",
      "type": "function"
    },
    {
      "inputs": [
        {
          "internalType": "bytes4",
          "name": "interfaceId",
          "type": "bytes4"
        }
      ],
      "name": "supportsInterface",
      "outputs": [
        {
          "internalType": "bool",
          "name": "",
          "type": "bool"
        }
      ],
      "stateMutability": "view",
      "type": "function"
    },
    {
      "stateMutability": "payable",
      "type": "receive"
    }
  ],
  "bytecode": "0x60806040526105ab806100115f395ff3fe60806040526004361061007c575f3560e01c806387ce502f1161004c57806387ce502f146101585780638bf12a7614610177578063b3b673c814610193578063da696ff1146101a7575f80fd5b806301ffc9a7146100875780632a55205a146100bb578063342db739146100f95780637ac8fa3a1461012c575f80fd5b3661008357005b5f80fd5b348015610092575f80fd5b506100a66100a1366004610433565b6101c6565b60405190151581526020015b60405180910390f35b3480156100c6575f80fd5b506100da6100d5366004610461565b6101fc565b604080516001600160a01b0390931683526020830191909152016100b2565b348015610104575f80fd5b5061011e6e1a185c991a185d0b595e1c1bdcd959608a1b81565b6040519081526020016100b2565b348015610137575f80fd5b50610156610146366004610481565b5f90815260016020526040812055565b005b348015610163575f80fd5b506101566101723660046104c9565b6102a5565b348015610182575f80fd5b5060405161271081526020016100b2565b34801561019e575f80fd5b506101566102b5565b3480156101b2575f80fd5b506101566101c1366004610502565b6102bf565b5f6001600160e01b0319821663152a902d60e11b14806101f657506301ffc9a760e01b6001600160e01b03198316145b92915050565b5f8281526001602090815260408083208151808301909252546001600160a01b038116808352600160a01b9091046001600160601b031692820192909252829161026f5750604080518082019091525f546001600160a01b0381168252600160a01b90046001600160601b031660208201525b60208101515f906127109061028d906001600160601b031687610533565b6102979190610556565b915196919550909350505050565b6102b08383836102cd565b505050565b6102bd5f8055565b565b6102c98282610392565b5050565b6127106001600160601b0382168110156103185760405163dfd1fc1b60e01b8152600481018590526001600160601b0383166024820152604481018290526064015b60405180910390fd5b6001600160a01b03831661034857604051634b4f842960e11b8152600481018590525f602482015260440161030f565b506040805180820182526001600160a01b0393841681526001600160601b0392831660208083019182525f968752600190529190942093519051909116600160a01b029116179055565b6127106001600160601b0382168110156103d157604051636f483d0960e01b81526001600160601b03831660048201526024810182905260440161030f565b6001600160a01b0383166103fa57604051635b6cc80560e11b81525f600482015260240161030f565b50604080518082019091526001600160a01b039092168083526001600160601b039091166020909201829052600160a01b909102175f55565b5f60208284031215610443575f80fd5b81356001600160e01b03198116811461045a575f80fd5b9392505050565b5f8060408385031215610472575f80fd5b50508035926020909101359150565b5f60208284031215610491575f80fd5b5035919050565b80356001600160a01b03811681146104ae575f80fd5b919050565b80356001600160601b03811681146104ae575f80fd5b5f805f606084860312156104db575f80fd5b833592506104eb60208501610498565b91506104f9604085016104b3565b90509250925092565b5f8060408385031215610513575f80fd5b61051c83610498565b915061052a602084016104b3565b90509250929050565b80820281158282048414176101f657634e487b7160e01b5f52601160045260245ffd5b5f8261057057634e487b7160e01b5f52601260045260245ffd5b50049056fea26469706673582212208587e076146e62b49abe33e8f06c8255289bf9b87c0f9d25e9439096bc85c19f64736f6c63430008140033",
  "linkReferences": {},
  "deployedLinkReferences": {}
}