{
  "_format": "hh-sol-artifact-1",
  "contractName": "$ERC721ConsecutiveEnumerableMock",
  "sourceName": "contracts-exposed/mocks/token/ERC721ConsecutiveEnumerableMock.sol",
  "abi": [
    {
      "inputs": [
        {
          "internalType": "string",
          "name": "name",
          "type": "string"
        },
        {
          "internalType": "string",
          "name": "symbol",
          "type": "string"
        },
        {
          "internalType": "address[]",
          "name": "receivers",
          "type": "address[]"
        },
        {
          "internalType": "uint96[]",
          "name": "amounts",
          "type": "uint96[]"
        }
      ],
      "stateMutability": "payable",
      "type": "constructor"
    },
    {
      "inputs": [],
      "name": "CheckpointUnorderedInsertion",
      "type": "error"
    },
    {
      "inputs": [],
      "name": "ERC721EnumerableForbiddenBatchMint",
      "type": "error"
    },
    {
      "inputs": [
        {
          "internalType": "uint256",
          "name": "batchSize",
          "type": "uint256"
        },
        {
          "internalType": "uint256",
          "name": "maxBatch",
          "type": "uint256"
        }
      ],
      "name": "ERC721ExceededMaxBatchMint",
      "type": "error"
    },
    {
      "inputs": [],
      "name": "ERC721ForbiddenBatchBurn",
      "type": "error"
    },
    {
      "inputs": [],
      "name": "ERC721ForbiddenBatchMint",
      "type": "error"
    },
    {
      "inputs": [],
      "name": "ERC721ForbiddenMint",
      "type": "error"
    },
    {
      "inputs": [
        {
          "internalType": "address",
          "name": "sender",
          "type": "address"
        },
        {
          "internalType": "uint256",
          "name": "tokenId",
          "type": "uint256"
        },
        {
          "internalType": "address",
          "name": "owner",
          "type": "address"
        }
      ],
      "name": "ERC721IncorrectOwner",
      "type": "error"
    },
    {
      "inputs": [
        {
          "internalType": "address",
          "name": "operator",
          "type": "address"
        },
        {
          "internalType": "uint256",
          "name": "tokenId",
          "type": "uint256"
        }
      ],
      "name": "ERC721InsufficientApproval",
      "type": "error"
    },
    {
      "inputs": [
        {
          "internalType": "address",
          "name": "approver",
          "type": "address"
        }
      ],
      "name": "ERC721InvalidApprover",
      "type": "error"
    },
    {
      "inputs": [
        {
          "internalType": "address",
          "name": "operator",
          "type": "address"
        }
      ],
      "name": "ERC721InvalidOperator",
      "type": "error"
    },
    {
      "inputs": [
        {
          "internalType": "address",
          "name": "owner",
          "type": "address"
        }
      ],
      "name": "ERC721InvalidOwner",
      "type": "error"
    },
    {
      "inputs": [
        {
          "internalType": "address",
          "name": "receiver",
          "type": "address"
        }
      ],
      "name": "ERC721InvalidReceiver",
      "type": "error"
    },
    {
      "inputs": [
        {
          "internalType": "address",
          "name": "sender",
          "type": "address"
        }
      ],
      "name": "ERC721InvalidSender",
      "type": "error"
    },
    {
      "inputs": [
        {
          "internalType": "uint256",
          "name": "tokenId",
          "type": "uint256"
        }
      ],
      "name": "ERC721NonexistentToken",
      "type": "error"
    },
    {
      "inputs": [
        {
          "internalType": "address",
          "name": "owner",
          "type": "address"
        },
        {
          "internalType": "uint256",
          "name": "index",
          "type": "uint256"
        }
      ],
      "name": "ERC721OutOfBoundsIndex",
      "type": "error"
    },
    {
      "anonymous": false,
      "inputs": [
        {
          "indexed": true,
          "internalType": "address",
          "name": "owner",
          "type": "address"
        },
        {
          "indexed": true,
          "internalType": "address",
          "name": "approved",
          "type": "address"
        },
        {
          "indexed": true,
          "internalType": "uint256",
          "name": "tokenId",
          "type": "uint256"
        }
      ],
      "name": "Approval",
      "type": "event"
    },
    {
      "anonymous": false,
      "inputs": [
        {
          "indexed": true,
          "internalType": "address",
          "name": "owner",
          "type": "address"
        },
        {
          "indexed": true,
          "internalType": "address",
          "name": "operator",
          "type": "address"
        },
        {
          "indexed": false,
          "internalType": "bool",
          "name": "approved",
          "type": "bool"
        }
      ],
      "name": "ApprovalForAll",
      "type": "event"
    },
    {
      "anonymous": false,
      "inputs": [
        {
          "indexed": true,
          "internalType": "uint256",
          "name": "fromTokenId",
          "type": "uint256"
        },
        {
          "indexed": false,
          "internalType": "uint256",
          "name": "toTokenId",
          "type": "uint256"
        },
        {
          "indexed": true,
          "internalType": "address",
          "name": "fromAddress",
          "type": "address"
        },
        {
          "indexed": true,
          "internalType": "address",
          "name": "toAddress",
          "type": "address"
        }
      ],
      "name": "ConsecutiveTransfer",
      "type": "event"
    },
    {
      "anonymous": false,
      "inputs": [
        {
          "indexed": true,
          "internalType": "address",
          "name": "from",
          "type": "address"
        },
        {
          "indexed": true,
          "internalType": "address",
          "name": "to",
          "type": "address"
        },
        {
          "indexed": true,
          "internalType": "uint256",
          "name": "tokenId",
          "type": "uint256"
        }
      ],
      "name": "Transfer",
      "type": "event"
    },
    {
      "anonymous": false,
      "inputs": [
        {
          "indexed": false,
          "internalType": "uint96",
          "name": "ret0",
          "type": "uint96"
        }
      ],
      "name": "return$_mintConsecutive",
      "type": "event"
    },
    {
      "inputs": [
        {
          "internalType": "address",
          "name": "account",
          "type": "address"
        },
        {
          "internalType": "uint256",
          "name": "value",
          "type": "uint256"
        }
      ],
      "name": "$__unsafe_increaseBalance",
      "outputs": [],
      "stateMutability": "nonpayable",
      "type": "function"
    },
    {
      "inputs": [
        {
          "internalType": "address",
          "name": "from",
          "type": "address"
        },
        {
          "internalType": "address",
          "name": "to",
          "type": "address"
        },
        {
          "internalType": "uint256",
          "name": "firstTokenId",
          "type": "uint256"
        },
        {
          "internalType": "uint256",
          "name": "batchSize",
          "type": "uint256"
        }
      ],
      "name": "$_afterTokenTransfer",
      "outputs": [],
      "stateMutability": "nonpayable",
      "type": "function"
    },
    {
      "inputs": [
        {
          "internalType": "address",
          "name": "to",
          "type": "address"
        },
        {
          "internalType": "uint256",
          "name": "tokenId",
          "type": "uint256"
        }
      ],
      "name": "$_approve",
      "outputs": [],
      "stateMutability": "nonpayable",
      "type": "function"
    },
    {
      "inputs": [],
      "name": "$_baseURI",
      "outputs": [
        {
          "internalType": "string",
          "name": "ret0",
          "type": "string"
        }
      ],
      "stateMutability": "view",
      "type": "function"
    },
    {
      "inputs": [
        {
          "internalType": "address",
          "name": "from",
          "type": "address"
        },
        {
          "internalType": "address",
          "name": "to",
          "type": "address"
        },
        {
          "internalType": "uint256",
          "name": "firstTokenId",
          "type": "uint256"
        },
        {
          "internalType": "uint256",
          "name": "batchSize",
          "type": "uint256"
        }
      ],
      "name": "$_beforeTokenTransfer",
      "outputs": [],
      "stateMutability": "nonpayable",
      "type": "function"
    },
    {
      "inputs": [
        {
          "internalType": "uint256",
          "name": "tokenId",
          "type": "uint256"
        }
      ],
      "name": "$_burn",
      "outputs": [],
      "stateMutability": "nonpayable",
      "type": "function"
    },
    {
      "inputs": [
        {
          "internalType": "uint256",
          "name": "tokenId",
          "type": "uint256"
        }
      ],
      "name": "$_exists",
      "outputs": [
        {
          "internalType": "bool",
          "name": "ret0",
          "type": "bool"
        }
      ],
      "stateMutability": "view",
      "type": "function"
    },
    {
      "inputs": [],
      "name": "$_firstConsecutiveId",
      "outputs": [
        {
          "internalType": "uint96",
          "name": "ret0",
          "type": "uint96"
        }
      ],
      "stateMutability": "view",
      "type": "function"
    },
    {
      "inputs": [
        {
          "internalType": "address",
          "name": "spender",
          "type": "address"
        },
        {
          "internalType": "uint256",
          "name": "tokenId",
          "type": "uint256"
        }
      ],
      "name": "$_isApprovedOrOwner",
      "outputs": [
        {
          "internalType": "bool",
          "name": "ret0",
          "type": "bool"
        }
      ],
      "stateMutability": "view",
      "type": "function"
    },
    {
      "inputs": [],
      "name": "$_maxBatchSize",
      "outputs": [
        {
          "internalType": "uint96",
          "name": "ret0",
          "type": "uint96"
        }
      ],
      "stateMutability": "view",
      "type": "function"
    },
    {
      "inputs": [
        {
          "internalType": "address",
          "name": "to",
          "type": "address"
        },
        {
          "internalType": "uint256",
          "name": "tokenId",
          "type": "uint256"
        }
      ],
      "name": "$_mint",
      "outputs": [],
      "stateMutability": "nonpayable",
      "type": "function"
    },
    {
      "inputs": [
        {
          "internalType": "address",
          "name": "to",
          "type": "address"
        },
        {
          "internalType": "uint96",
          "name": "batchSize",
          "type": "uint96"
        }
      ],
      "name": "$_mintConsecutive",
      "outputs": [
        {
          "internalType": "uint96",
          "name": "ret0",
          "type": "uint96"
        }
      ],
      "stateMutability": "nonpayable",
      "type": "function"
    },
    {
      "inputs": [],
      "name": "$_msgData",
      "outputs": [
        {
          "internalType": "bytes",
          "name": "ret0",
          "type": "bytes"
        }
      ],
      "stateMutability": "view",
      "type": "function"
    },
    {
      "inputs": [],
      "name": "$_msgSender",
      "outputs": [
        {
          "internalType": "address",
          "name": "ret0",
          "type": "address"
        }
      ],
      "stateMutability": "view",
      "type": "function"
    },
    {
      "inputs": [
        {
          "internalType": "uint256",
          "name": "tokenId",
          "type": "uint256"
        }
      ],
      "name": "$_ownerOf",
      "outputs": [
        {
          "internalType": "address",
          "name": "ret0",
          "type": "address"
        }
      ],
      "stateMutability": "view",
      "type": "function"
    },
    {
      "inputs": [
        {
          "internalType": "uint256",
          "name": "tokenId",
          "type": "uint256"
        }
      ],
      "name": "$_requireMinted",
      "outputs": [],
      "stateMutability": "view",
      "type": "function"
    },
    {
      "inputs": [
        {
          "internalType": "address",
          "name": "to",
          "type": "address"
        },
        {
          "internalType": "uint256",
          "name": "tokenId",
          "type": "uint256"
        },
        {
          "internalType": "bytes",
          "name": "data",
          "type": "bytes"
        }
      ],
      "name": "$_safeMint",
      "outputs": [],
      "stateMutability": "nonpayable",
      "type": "function"
    },
    {
      "inputs": [
        {
          "internalType": "address",
          "name": "to",
          "type": "address"
        },
        {
          "internalType": "uint256",
          "name": "tokenId",
          "type": "uint256"
        }
      ],
      "name": "$_safeMint",
      "outputs": [],
      "stateMutability": "nonpayable",
      "type": "function"
    },
    {
      "inputs": [
        {
          "internalType": "address",
          "name": "from",
          "type": "address"
        },
        {
          "internalType": "address",
          "name": "to",
          "type": "address"
        },
        {
          "internalType": "uint256",
          "name": "tokenId",
          "type": "uint256"
        },
        {
          "internalType": "bytes",
          "name": "data",
          "type": "bytes"
        }
      ],
      "name": "$_safeTransfer",
      "outputs": [],
      "stateMutability": "nonpayable",
      "type": "function"
    },
    {
      "inputs": [
        {
          "internalType": "address",
          "name": "owner",
          "type": "address"
        },
        {
          "internalType": "address",
          "name": "operator",
          "type": "address"
        },
        {
          "internalType": "bool",
          "name": "approved",
          "type": "bool"
        }
      ],
      "name": "$_setApprovalForAll",
      "outputs": [],
      "stateMutability": "nonpayable",
      "type": "function"
    },
    {
      "inputs": [
        {
          "internalType": "address",
          "name": "from",
          "type": "address"
        },
        {
          "internalType": "address",
          "name": "to",
          "type": "address"
        },
        {
          "internalType": "uint256",
          "name": "tokenId",
          "type": "uint256"
        }
      ],
      "name": "$_transfer",
      "outputs": [],
      "stateMutability": "nonpayable",
      "type": "function"
    },
    {
      "inputs": [],
      "name": "__hh_exposed_bytecode_marker",
      "outputs": [
        {
          "internalType": "bytes32",
          "name": "",
          "type": "bytes32"
        }
      ],
      "stateMutability": "view",
      "type": "function"
    },
    {
      "inputs": [
        {
          "internalType": "address",
          "name": "to",
          "type": "address"
        },
        {
          "internalType": "uint256",
          "name": "tokenId",
          "type": "uint256"
        }
      ],
      "name": "approve",
      "outputs": [],
      "stateMutability": "nonpayable",
      "type": "function"
    },
    {
      "inputs": [
        {
          "internalType": "address",
          "name": "owner",
          "type": "address"
        }
      ],
      "name": "balanceOf",
      "outputs": [
        {
          "internalType": "uint256",
          "name": "",
          "type": "uint256"
        }
      ],
      "stateMutability": "view",
      "type": "function"
    },
    {
      "inputs": [
        {
          "internalType": "uint256",
          "name": "tokenId",
          "type": "uint256"
        }
      ],
      "name": "getApproved",
      "outputs": [
        {
          "internalType": "address",
          "name": "",
          "type": "address"
        }
      ],
      "stateMutability": "view",
      "type": "function"
    },
    {
      "inputs": [
        {
          "internalType": "address",
          "name": "owner",
          "type": "address"
        },
        {
          "internalType": "address",
          "name": "operator",
          "type": "address"
        }
      ],
      "name": "isApprovedForAll",
      "outputs": [
        {
          "internalType": "bool",
          "name": "",
          "type": "bool"
        }
      ],
      "stateMutability": "view",
      "type": "function"
    },
    {
      "inputs": [],
      "name": "name",
      "outputs": [
        {
          "internalType": "string",
          "name": "",
          "type": "string"
        }
      ],
      "stateMutability": "view",
      "type": "function"
    },
    {
      "inputs": [
        {
          "internalType": "uint256",
          "name": "tokenId",
          "type": "uint256"
        }
      ],
      "name": "ownerOf",
      "outputs": [
        {
          "internalType": "address",
          "name": "",
          "type": "address"
        }
      ],
      "stateMutability": "view",
      "type": "function"
    },
    {
      "inputs": [
        {
          "internalType": "address",
          "name": "from",
          "type": "address"
        },
        {
          "internalType": "address",
          "name": "to",
          "type": "address"
        },
        {
          "internalType": "uint256",
          "name": "tokenId",
          "type": "uint256"
        }
      ],
      "name": "safeTransferFrom",
      "outputs": [],
      "stateMutability": "nonpayable",
      "type": "function"
    },
    {
      "inputs": [
        {
          "internalType": "address",
          "name": "from",
          "type": "address"
        },
        {
          "internalType": "address",
          "name": "to",
          "type": "address"
        },
        {
          "internalType": "uint256",
          "name": "tokenId",
          "type": "uint256"
        },
        {
          "internalType": "bytes",
          "name": "data",
          "type": "bytes"
        }
      ],
      "name": "safeTransferFrom",
      "outputs": [],
      "stateMutability": "nonpayable",
      "type": "function"
    },
    {
      "inputs": [
        {
          "internalType": "address",
          "name": "operator",
          "type": "address"
        },
        {
          "internalType": "bool",
          "name": "approved",
          "type": "bool"
        }
      ],
      "name": "setApprovalForAll",
      "outputs": [],
      "stateMutability": "nonpayable",
      "type": "function"
    },
    {
      "inputs": [
        {
          "internalType": "bytes4",
          "name": "interfaceId",
          "type": "bytes4"
        }
      ],
      "name": "supportsInterface",
      "outputs": [
        {
          "internalType": "bool",
          "name": "",
          "type": "bool"
        }
      ],
      "stateMutability": "view",
      "type": "function"
    },
    {
      "inputs": [],
      "name": "symbol",
      "outputs": [
        {
          "internalType": "string",
          "name": "",
          "type": "string"
        }
      ],
      "stateMutability": "view",
      "type": "function"
    },
    {
      "inputs": [
        {
          "internalType": "uint256",
          "name": "index",
          "type": "uint256"
        }
      ],
      "name": "tokenByIndex",
      "outputs": [
        {
          "internalType": "uint256",
          "name": "",
          "type": "uint256"
        }
      ],
      "stateMutability": "view",
      "type": "function"
    },
    {
      "inputs": [
        {
          "internalType": "address",
          "name": "owner",
          "type": "address"
        },
        {
          "internalType": "uint256",
          "name": "index",
          "type": "uint256"
        }
      ],
      "name": "tokenOfOwnerByIndex",
      "outputs": [
        {
          "internalType": "uint256",
          "name": "",
          "type": "uint256"
        }
      ],
      "stateMutability": "view",
      "type": "function"
    },
    {
      "inputs": [
        {
          "internalType": "uint256",
          "name": "tokenId",
          "type": "uint256"
        }
      ],
      "name": "tokenURI",
      "outputs": [
        {
          "internalType": "string",
          "name": "",
          "type": "string"
        }
      ],
      "stateMutability": "view",
      "type": "function"
    },
    {
      "inputs": [],
      "name": "totalSupply",
      "outputs": [
        {
          "internalType": "uint256",
          "name": "",
          "type": "uint256"
        }
      ],
      "stateMutability": "view",
      "type": "function"
    },
    {
      "inputs": [
        {
          "internalType": "address",
          "name": "from",
          "type": "address"
        },
        {
          "internalType": "address",
          "name": "to",
          "type": "address"
        },
        {
          "internalType": "uint256",
          "name": "tokenId",
          "type": "uint256"
        }
      ],
      "name": "transferFrom",
      "outputs": [],
      "stateMutability": "nonpayable",
      "type": "function"
    },
    {
      "stateMutability": "payable",
      "type": "receive"
    }
  ],
  "bytecode": "0x60806040526040516200310b3803806200310b833981016040819052620000269162000a23565b8383838383835f62000039838262000bce565b50600162000048828262000bce565b5050505f5b8251811015620000b557620000a183828151811062000070576200007062000c96565b60200260200101518383815181106200008d576200008d62000c96565b6020026020010151620000c460201b60201c565b50620000ad8162000cbe565b90506200004d565b50505050505050505062000d66565b5f80620000d062000243565b90506001600160601b038316156200023a57303b1562000103576040516329cfc83160e11b815260040160405180910390fd5b6001600160a01b0384166200013257604051633250574960e11b81525f60048201526024015b60405180910390fd5b6113886001600160601b03841681101562000173576040516308f58e5760e41b81526001600160601b03851660048201526024810182905260440162000129565b6200018d5f866001600160601b0380861690881662000278565b5f60016200019c868562000cd9565b620001a8919062000d03565b9050620001b8600682886200028c565b50620001d09050866001600160601b038716620002a8565b6040516001600160601b0382811682526001600160a01b038816915f918616907fdeaa91b6123d068f5821d0fb0678463d1a8a6079fe8af5de3ce5e896dcf9133d9060200160405180910390a4620002375f876001600160601b03808716908916620002da565b50505b90505b92915050565b5f8080620002526006620002e8565b50915091508162000264575f62000271565b6200027181600162000cd9565b9250505090565b62000286848484846200037b565b50505050565b5f806200029b8585856200046f565b915091505b935093915050565b6001600160a01b0382165f9081526003602052604081208054839290620002d190849062000d26565b90915550505050565b62000286848484846200061a565b80545f908190819080820362000308575f805f9350935093505062000374565b5f62000328866200031b60018562000d3c565b5f91825260209091200190565b6040805180820190915290546001600160601b0381168083526c010000000000000000000000009091046001600160a01b03166020909201829052600196509450925062000374915050565b9193909250565b60018111156200039e576040516359171fc160e01b815260040160405180910390fd5b816001600160a01b038516620003fc57620003f681600a80545f838152600b60205260408120829055600182018355919091527fc65a7bb8d6351c1cf70c95a316cc6a92839c986682d98bc35f958f4883f9d2a80155565b62000422565b836001600160a01b0316856001600160a01b0316146200042257620004228582620006ce565b6001600160a01b03841662000442576200043c816200076c565b62000468565b846001600160a01b0316846001600160a01b03161462000468576200046884826200081e565b5050505050565b82545f9081908015620005b5575f6200048f876200031b60018562000d3c565b6040805180820190915290546001600160601b038082168084526c010000000000000000000000009092046001600160a01b031660208401529192509087161015620004ee57604051632520601d60e01b815260040160405180910390fd5b80516001600160601b038088169116036200054a578462000516886200031b60018662000d3c565b80546001600160a01b03929092166c01000000000000000000000000026001600160601b03909216919091179055620005a4565b604080518082019091526001600160601b0380881682526001600160a01b0380881660208085019182528b54600181018d555f8d815291909120945191519092166c01000000000000000000000000029216919091179101555b602001519250839150620002a09050565b5050604080518082019091526001600160601b0380851682526001600160a01b0380851660208085019182528854600181018a555f8a8152918220955192519093166c01000000000000000000000000029190931617920191909155905081620002a0565b6001600160a01b03831615801562000630575060015b80156200064e57506200064262000243565b6001600160601b031682105b8015620006735750600882901c5f90815260076020526040902054600160ff84161b16155b15620006ba57806001146200069b57604051631d08916560e01b815260040160405180910390fd5b600882901c5f9081526007602052604090208054600160ff85161b1790555b62000286848484846001600160e01b038516565b5f6001620006dc8462000862565b620006e8919062000d3c565b5f838152600960205260409020549091508082146200073a576001600160a01b0384165f9081526008602090815260408083208584528252808320548484528184208190558352600990915290208190555b505f9182526009602090815260408084208490556001600160a01b039094168352600881528383209183525290812055565b600a545f906200077f9060019062000d3c565b5f838152600b6020526040812054600a8054939450909284908110620007a957620007a962000c96565b905f5260205f200154905080600a8381548110620007cb57620007cb62000c96565b5f918252602080832090910192909255828152600b9091526040808220849055858252812055600a80548062000805576200080562000d52565b600190038181905f5260205f20015f9055905550505050565b5f6200082a8362000862565b6001600160a01b039093165f908152600860209081526040808320868452825280832085905593825260099052919091209190915550565b5f6001600160a01b0382166200088e576040516322718ad960e21b81525f600482015260240162000129565b506001600160a01b03165f9081526003602052604090205490565b634e487b7160e01b5f52604160045260245ffd5b604051601f8201601f191681016001600160401b0381118282101715620008e857620008e8620008a9565b604052919050565b5f82601f83011262000900575f80fd5b81516001600160401b038111156200091c576200091c620008a9565b602062000932601f8301601f19168201620008bd565b828152858284870101111562000946575f80fd5b5f5b838110156200096557858101830151828201840152820162000948565b505f928101909101919091529392505050565b5f6001600160401b03821115620009935762000993620008a9565b5060051b60200190565b5f82601f830112620009ad575f80fd5b81516020620009c6620009c08362000978565b620008bd565b82815260059290921b84018101918181019086841115620009e5575f80fd5b8286015b8481101562000a185780516001600160601b038116811462000a0a575f8081fd5b8352918301918301620009e9565b509695505050505050565b5f805f806080858703121562000a37575f80fd5b84516001600160401b038082111562000a4e575f80fd5b62000a5c88838901620008f0565b955060209150818701518181111562000a73575f80fd5b62000a8189828a01620008f0565b95505060408701518181111562000a96575f80fd5b8701601f8101891362000aa7575f80fd5b805162000ab8620009c08262000978565b81815260059190911b8201840190848101908b83111562000ad7575f80fd5b928501925b8284101562000b0d5783516001600160a01b038116811462000afd575f8081fd5b8252928501929085019062000adc565b60608b015190975094505050508082111562000b27575f80fd5b5062000b36878288016200099d565b91505092959194509250565b600181811c9082168062000b5757607f821691505b60208210810362000b7657634e487b7160e01b5f52602260045260245ffd5b50919050565b601f82111562000bc9575f81815260208120601f850160051c8101602086101562000ba45750805b601f850160051c820191505b8181101562000bc55782815560010162000bb0565b5050505b505050565b81516001600160401b0381111562000bea5762000bea620008a9565b62000c028162000bfb845462000b42565b8462000b7c565b602080601f83116001811462000c38575f841562000c205750858301515b5f19600386901b1c1916600185901b17855562000bc5565b5f85815260208120601f198616915b8281101562000c685788860151825594840194600190910190840162000c47565b508582101562000c8657878501515f19600388901b60f8161c191681555b5050505050600190811b01905550565b634e487b7160e01b5f52603260045260245ffd5b634e487b7160e01b5f52601160045260245ffd5b5f6001820162000cd25762000cd262000caa565b5060010190565b6001600160601b0381811683821601908082111562000cfc5762000cfc62000caa565b5092915050565b6001600160601b0382811682821603908082111562000cfc5762000cfc62000caa565b808201808211156200023d576200023d62000caa565b818103818111156200023d576200023d62000caa565b634e487b7160e01b5f52603160045260245ffd5b6123978062000d745f395ff3fe608060405260043610610220575f3560e01c806395d89b411161011e578063c4a96fa6116100a8578063d261af541161006d578063d261af541461063b578063e07084c21461065a578063e203000d14610679578063e985e9c51461068b578063efb43b07146106d2575f80fd5b8063c4a96fa6146105a0578063c87b56dd146105bf578063cc461d62146105de578063cd43f47d146105fd578063cfeea0d41461061c575f80fd5b8063a2373a82116100ee578063a2373a82146104fc578063b88d4fde1461051b578063b895757b1461053a578063c26838c514610562578063c37add5114610581575f80fd5b806395d89b411461048b57806398a1f7a01461049f5780639ff2f02d146104be578063a22cb465146104dd575f80fd5b80632904df29116101aa578063458ee0021161016f578063458ee002146103f05780634f6ccce71461040f5780636352211e1461042e57806370a082311461044d578063733555ec1461046c575f80fd5b80632904df29146103675780632f745c591461037957806332cadf3c14610398578063342db739146103ac57806342842e0e146103d1575f80fd5b806309854d72116101f057806309854d72146102d8578063147619da146102f7578063161e977d1461031657806318160ddd1461032a57806323b872dd14610348575f80fd5b806301ffc9a71461022b57806306fdde031461025f578063081812fc14610280578063095ea7b3146102b7575f80fd5b3661022757005b5f80fd5b348015610236575f80fd5b5061024a610245366004611da1565b6106f1565b60405190151581526020015b60405180910390f35b34801561026a575f80fd5b50610273610701565b6040516102569190611e09565b34801561028b575f80fd5b5061029f61029a366004611e1b565b610790565b6040516001600160a01b039091168152602001610256565b3480156102c2575f80fd5b506102d66102d1366004611e4d565b6107b5565b005b3480156102e3575f80fd5b506102d66102f2366004611e1b565b610852565b348015610302575f80fd5b506102d6610311366004611e75565b61085e565b348015610321575f80fd5b50610273610870565b348015610335575f80fd5b50600a545b604051908152602001610256565b348015610353575f80fd5b506102d6610362366004611eb4565b61088b565b348015610372575f80fd5b503361029f565b348015610384575f80fd5b5061033a610393366004611e4d565b6108c6565b3480156103a3575f80fd5b50610273610929565b3480156103b7575f80fd5b5061033a6e1a185c991a185d0b595e1c1bdcd959608a1b81565b3480156103dc575f80fd5b506102d66103eb366004611eb4565b610966565b3480156103fb575f80fd5b5061029f61040a366004611e1b565b610980565b34801561041a575f80fd5b5061033a610429366004611e1b565b61098a565b348015610439575f80fd5b5061029f610448366004611e1b565b6109df565b348015610458575f80fd5b5061033a610467366004611eed565b610a16565b348015610477575f80fd5b506102d6610486366004611f4b565b610a5b565b348015610496575f80fd5b50610273610aa3565b3480156104aa575f80fd5b506102d66104b9366004611e4d565b610ab2565b3480156104c9575f80fd5b506102d66104d8366004611fb5565b610ac0565b3480156104e8575f80fd5b506102d66104f736600461201a565b610b00565b348015610507575f80fd5b506102d6610516366004611e1b565b610b0b565b348015610526575f80fd5b506102d661053536600461205f565b610b14565b348015610545575f80fd5b506113885b6040516001600160601b039091168152602001610256565b34801561056d575f80fd5b5061054a61057c366004612134565b610b50565b34801561058c575f80fd5b5061024a61059b366004611e1b565b610ba0565b3480156105ab575f80fd5b5061024a6105ba366004611e4d565b610baa565b3480156105ca575f80fd5b506102736105d9366004611e1b565b610bbc565b3480156105e9575f80fd5b506102d66105f8366004611e4d565b610c2b565b348015610608575f80fd5b506102d6610617366004611e4d565b610c35565b348015610627575f80fd5b506102d6610636366004612174565b610c3f565b348015610646575f80fd5b506102d6610655366004611e4d565b610c4a565b348015610665575f80fd5b506102d6610674366004611e75565b610c54565b348015610684575f80fd5b505f61054a565b348015610696575f80fd5b5061024a6106a53660046121b4565b6001600160a01b039182165f90815260056020908152604080832093909416825291909152205460ff1690565b3480156106dd575f80fd5b506102d66106ec366004611eb4565b6108bb565b5f6106fb82610c60565b92915050565b60605f805461070f906121dc565b80601f016020809104026020016040519081016040528092919081815260200182805461073b906121dc565b80156107865780601f1061075d57610100808354040283529160200191610786565b820191905f5260205f20905b81548152906001019060200180831161076957829003601f168201915b5050505050905090565b5f61079a82610c84565b505f908152600460205260409020546001600160a01b031690565b5f6107bf826109df565b9050806001600160a01b0316836001600160a01b03160361080357604051630b61174360e31b81526001600160a01b03821660048201526024015b60405180910390fd5b336001600160a01b03821614801590610823575061082181336106a5565b155b156108435760405163a9fbf51f60e01b81523360048201526024016107fa565b61084d8383610cad565b505050565b61085b81610c84565b50565b61086a84848484610d1a565b50505050565b606061088660408051602081019091525f815290565b905090565b6108953382610d26565b6108bb5760405163177e802f60e01b8152336004820152602481018290526044016107fa565b61084d838383610da3565b5f6108d083610a16565b82106109015760405163295f44f760e21b81526001600160a01b0384166004820152602481018390526044016107fa565b506001600160a01b03919091165f908152600860209081526040808320938352929052205490565b60605f368080601f0160208091040260200160405190810160405280939291908181526020018383808284375f9201919091525092949350505050565b61084d83838360405180602001604052805f815250610b14565b5f6106fb82610f42565b5f610994600a5490565b82106109bc5760405163295f44f760e21b81525f6004820152602481018390526044016107fa565b600a82815481106109cf576109cf612214565b905f5260205f2001549050919050565b5f806109ea83610f42565b90506001600160a01b0381166106fb57604051637e27328960e01b8152600481018490526024016107fa565b5f6001600160a01b038216610a40576040516322718ad960e21b81525f60048201526024016107fa565b506001600160a01b03165f9081526003602052604090205490565b610a9c85858585858080601f0160208091040260200160405190810160405280939291908181526020018383808284375f92019190915250610f4c92505050565b5050505050565b60606001805461070f906121dc565b610abc8282610f8b565b5050565b61086a848484848080601f0160208091040260200160405190810160405280939291908181526020018383808284375f92019190915250610fbb92505050565b610abc338383610ff9565b61085b816110a2565b610b1e3383610d26565b610b445760405163177e802f60e01b8152336004820152602481018390526044016107fa565b61086a84848484610f4c565b5f610b5b838361116d565b6040516001600160601b03821681529091507f7a8bfd5fd00523f8302cd69cdf99d84752006f3fe7b006851ec4cdd02fab58ad9060200160405180910390a192915050565b5f6106fb826112dc565b5f610bb58383610d26565b9392505050565b6060610bc782610c84565b5f610bdc60408051602081019091525f815290565b90505f815111610bfa5760405180602001604052805f815250610bb5565b80610c04846112f8565b604051602001610c15929190612228565b6040516020818303038152906040529392505050565b610abc8282611388565b610abc8282610cad565b61084d838383610ff9565b610abc8282611392565b61086a848484846113ab565b5f6001600160e01b0319821663780e9d6360e01b14806106fb57506106fb826113b7565b610c8d816112dc565b61085b57604051637e27328960e01b8152600481018290526024016107fa565b5f81815260046020526040902080546001600160a01b0319166001600160a01b0384169081179091558190610ce1826109df565b6001600160a01b03167f8c5be1e5ebec7d5bd14f71427d1e84f3dd0314c0f7b2291e5b200ac8c7c3b92560405160405180910390a45050565b61086a84848484611406565b5f80610d31836109df565b9050806001600160a01b0316846001600160a01b03161480610d7757506001600160a01b038082165f9081526005602090815260408083209388168352929052205460ff165b80610d9b5750836001600160a01b0316610d9084610790565b6001600160a01b0316145b949350505050565b5f610dad826109df565b9050836001600160a01b0316816001600160a01b031614610dfb576040516364283d7b60e01b81526001600160a01b03808616600483015260248201849052821660448201526064016107fa565b6001600160a01b038316610e2457604051633250574960e11b81525f60048201526024016107fa565b610e318484846001610d1a565b610e3a826109df565b9050836001600160a01b0316816001600160a01b031614610e88576040516364283d7b60e01b81526001600160a01b03808616600483015260248201849052821660448201526064016107fa565b5f82815260046020908152604080832080546001600160a01b03191690556001600160a01b038716835260039091528120805460019290610eca90849061226a565b90915550506001600160a01b038084165f81815260036020908152604080832080546001019055868352600290915280822080546001600160a01b031916841790555185938816917fddf252ad1be2c89b69c2b068fc378daa952ba7f163c4a11628f55a4df523b3ef91a461086a84848460016113ab565b5f6106fb826114e5565b610f57848484610da3565b610f638484848461155a565b61086a57604051633250574960e11b81526001600160a01b03841660048201526024016107fa565b6001600160a01b0382165f9081526003602052604081208054839290610fb290849061227d565b90915550505050565b610fc58383611388565b610fd15f84848461155a565b61084d57604051633250574960e11b81526001600160a01b03841660048201526024016107fa565b816001600160a01b0316836001600160a01b03160361103657604051630b61174360e31b81526001600160a01b03841660048201526024016107fa565b6001600160a01b038381165f81815260056020908152604080832094871680845294825291829020805460ff191686151590811790915591519182527f17307eab39ab6107e8899845ad3d59bd9653f200f220920489ca2b5937696c31910160405180910390a3505050565b5f6110ac826109df565b90506110bb815f846001610d1a565b6110c4826109df565b5f83815260046020908152604080832080546001600160a01b03191690556001600160a01b038416835260039091528120805492935060019290919061110b90849061226a565b90915550505f8281526002602052604080822080546001600160a01b0319169055518391906001600160a01b038416907fddf252ad1be2c89b69c2b068fc378daa952ba7f163c4a11628f55a4df523b3ef908390a4610abc815f8460016113ab565b5f80611177611663565b90506001600160601b03831615610bb557303b156111a8576040516329cfc83160e11b815260040160405180910390fd5b6001600160a01b0384166111d157604051633250574960e11b81525f60048201526024016107fa565b6113886001600160601b038416811015611210576040516308f58e5760e41b81526001600160601b0385166004820152602481018290526044016107fa565b61122e5f86846001600160601b0316876001600160601b0316610d1a565b5f600161123b8685612290565b61124591906122b7565b905061125360068288611692565b505061126886866001600160601b0316610f8b565b6040516001600160601b0382811682526001600160a01b038816915f918616907fdeaa91b6123d068f5821d0fb0678463d1a8a6079fe8af5de3ce5e896dcf9133d9060200160405180910390a46112d35f87856001600160601b0316886001600160601b03166113ab565b50509392505050565b5f806112e783610f42565b6001600160a01b0316141592915050565b60605f611304836116ac565b60010190505f8167ffffffffffffffff8111156113235761132361204b565b6040519080825280601f01601f19166020018201604052801561134d576020820181803683370190505b5090508181016020015b5f19016f181899199a1a9b1b9c1cb0b131b232b360811b600a86061a8153600a850494508461135757509392505050565b610abc8282611783565b610abc828260405180602001604052805f815250610fbb565b61086a848484846117ae565b5f6001600160e01b031982166380ac58cd60e01b14806113e757506001600160e01b03198216635b5e139f60e01b145b806106fb57506301ffc9a760e01b6001600160e01b03198316146106fb565b6001811115611428576040516359171fc160e01b815260040160405180910390fd5b816001600160a01b0385166114835761147e81600a80545f838152600b60205260408120829055600182018355919091527fc65a7bb8d6351c1cf70c95a316cc6a92839c986682d98bc35f958f4883f9d2a80155565b6114a6565b836001600160a01b0316856001600160a01b0316146114a6576114a68582611850565b6001600160a01b0384166114c2576114bd816118e9565b610a9c565b846001600160a01b0316846001600160a01b031614610a9c57610a9c8482611990565b5f818152600260205260408120546001600160a01b03168015158061151057506001600160601b0383115b8061151857505f5b156115235792915050565b600883901c5f90815260076020526040902054600160ff85161b166115525761154d6006846119d2565b610bb5565b5f9392505050565b5f6001600160a01b0384163b1561165857604051630a85bd0160e11b81526001600160a01b0385169063150b7a029061159d9033908990889088906004016122d7565b6020604051808303815f875af19250505080156115d7575060408051601f3d908101601f191682019092526115d491810190612313565b60015b61163e573d808015611604576040519150601f19603f3d011682016040523d82523d5f602084013e611609565b606091505b5080515f0361163657604051633250574960e11b81526001600160a01b03861660048201526024016107fa565b805181602001fd5b6001600160e01b031916630a85bd0160e11b149050610d9b565b506001949350505050565b5f805f6116706006611a17565b509150915081611680575f61168b565b61168b816001612290565b9250505090565b5f8061169f858585611a9b565b915091505b935093915050565b5f8072184f03e93ff9f4daa797ed6e38ed64bf6a1f0160401b83106116ea5772184f03e93ff9f4daa797ed6e38ed64bf6a1f0160401b830492506040015b6d04ee2d6d415b85acef81000000008310611716576d04ee2d6d415b85acef8100000000830492506020015b662386f26fc10000831061173457662386f26fc10000830492506010015b6305f5e100831061174c576305f5e100830492506008015b612710831061176057612710830492506004015b60648310611772576064830492506002015b600a83106106fb5760010192915050565b303b5f036117a4576040516356c4a82960e11b815260040160405180910390fd5b610abc8282611c16565b6001600160a01b0383161580156117c3575060015b80156117de57506117d2611663565b6001600160601b031682105b80156118025750600882901c5f90815260076020526040902054600160ff84161b16155b1561184b578060011461182857604051631d08916560e01b815260040160405180910390fd5b600882901c5f9081526007602052604090208054600160ff85161b17905561086a565b61086a565b5f600161185c84610a16565b611866919061226a565b5f838152600960205260409020549091508082146118b7576001600160a01b0384165f9081526008602090815260408083208584528252808320548484528184208190558352600990915290208190555b505f9182526009602090815260408084208490556001600160a01b039094168352600881528383209183525290812055565b600a545f906118fa9060019061226a565b5f838152600b6020526040812054600a805493945090928490811061192157611921612214565b905f5260205f200154905080600a838154811061194057611940612214565b5f918252602080832090910192909255828152600b9091526040808220849055858252812055600a8054806119775761197761232e565b600190038181905f5260205f20015f9055905550505050565b5f61199a83610a16565b6001600160a01b039093165f908152600860209081526040808320868452825280832085905593825260099052919091209190915550565b81545f90816119e385858385611d11565b9050818114611a0c575f85815260209020810154600160601b90046001600160a01b0316611a0e565b5f5b95945050505050565b80545f9081908190808203611a35575f805f93509350935050611a94565b5f611a5286611a4560018561226a565b5f91825260209091200190565b6040805180820190915290546001600160601b038116808352600160601b9091046001600160a01b031660209092018290526001965094509250611a94915050565b9193909250565b82545f9081908015611bbb575f611ab787611a4560018561226a565b6040805180820190915290546001600160601b03808216808452600160601b9092046001600160a01b031660208401529192509087161015611b0c57604051632520601d60e01b815260040160405180910390fd5b80516001600160601b03808816911603611b5a5784611b3088611a4560018661226a565b80546001600160a01b0392909216600160601b026001600160601b03909216919091179055611bab565b604080518082019091526001600160601b0380881682526001600160a01b0380881660208085019182528b54600181018d555f8d81529190912094519151909216600160601b029216919091179101555b6020015192508391506116a49050565b5050604080518082019091526001600160601b0380851682526001600160a01b0380851660208085019182528854600181018a555f8a815291822095519251909316600160601b0291909316179201919091559050816116a4565b6001600160a01b038216611c3f57604051633250574960e11b81525f60048201526024016107fa565b611c48816112dc565b15611c68576040516339e3563760e11b81525f60048201526024016107fa565b611c755f83836001610d1a565b611c7e816112dc565b15611c9e576040516339e3563760e11b81525f60048201526024016107fa565b6001600160a01b0382165f81815260036020908152604080832080546001019055848352600290915280822080546001600160a01b0319168417905551839291907fddf252ad1be2c89b69c2b068fc378daa952ba7f163c4a11628f55a4df523b3ef908290a4610abc5f838360016113ab565b5f5b81831015611d6a575f611d268484611d72565b5f878152602090209091506001600160601b038616908201546001600160601b03161015611d6057611d5981600161227d565b9350611d64565b8092505b50611d13565b509392505050565b5f611d806002848418612342565b610bb59084841661227d565b6001600160e01b03198116811461085b575f80fd5b5f60208284031215611db1575f80fd5b8135610bb581611d8c565b5f5b83811015611dd6578181015183820152602001611dbe565b50505f910152565b5f8151808452611df5816020860160208601611dbc565b601f01601f19169290920160200192915050565b602081525f610bb56020830184611dde565b5f60208284031215611e2b575f80fd5b5035919050565b80356001600160a01b0381168114611e48575f80fd5b919050565b5f8060408385031215611e5e575f80fd5b611e6783611e32565b946020939093013593505050565b5f805f8060808587031215611e88575f80fd5b611e9185611e32565b9350611e9f60208601611e32565b93969395505050506040820135916060013590565b5f805f60608486031215611ec6575f80fd5b611ecf84611e32565b9250611edd60208501611e32565b9150604084013590509250925092565b5f60208284031215611efd575f80fd5b610bb582611e32565b5f8083601f840112611f16575f80fd5b50813567ffffffffffffffff811115611f2d575f80fd5b602083019150836020828501011115611f44575f80fd5b9250929050565b5f805f805f60808688031215611f5f575f80fd5b611f6886611e32565b9450611f7660208701611e32565b935060408601359250606086013567ffffffffffffffff811115611f98575f80fd5b611fa488828901611f06565b969995985093965092949392505050565b5f805f8060608587031215611fc8575f80fd5b611fd185611e32565b935060208501359250604085013567ffffffffffffffff811115611ff3575f80fd5b611fff87828801611f06565b95989497509550505050565b80358015158114611e48575f80fd5b5f806040838503121561202b575f80fd5b61203483611e32565b91506120426020840161200b565b90509250929050565b634e487b7160e01b5f52604160045260245ffd5b5f805f8060808587031215612072575f80fd5b61207b85611e32565b935061208960208601611e32565b925060408501359150606085013567ffffffffffffffff808211156120ac575f80fd5b818701915087601f8301126120bf575f80fd5b8135818111156120d1576120d161204b565b604051601f8201601f19908116603f011681019083821181831017156120f9576120f961204b565b816040528281528a6020848701011115612111575f80fd5b826020860160208301375f60208483010152809550505050505092959194509250565b5f8060408385031215612145575f80fd5b61214e83611e32565b915060208301356001600160601b0381168114612169575f80fd5b809150509250929050565b5f805f60608486031215612186575f80fd5b61218f84611e32565b925061219d60208501611e32565b91506121ab6040850161200b565b90509250925092565b5f80604083850312156121c5575f80fd5b6121ce83611e32565b915061204260208401611e32565b600181811c908216806121f057607f821691505b60208210810361220e57634e487b7160e01b5f52602260045260245ffd5b50919050565b634e487b7160e01b5f52603260045260245ffd5b5f8351612239818460208801611dbc565b83519083019061224d818360208801611dbc565b01949350505050565b634e487b7160e01b5f52601160045260245ffd5b818103818111156106fb576106fb612256565b808201808211156106fb576106fb612256565b6001600160601b038181168382160190808211156122b0576122b0612256565b5092915050565b6001600160601b038281168282160390808211156122b0576122b0612256565b6001600160a01b03858116825284166020820152604081018390526080606082018190525f9061230990830184611dde565b9695505050505050565b5f60208284031215612323575f80fd5b8151610bb581611d8c565b634e487b7160e01b5f52603160045260245ffd5b5f8261235c57634e487b7160e01b5f52601260045260245ffd5b50049056fea26469706673582212203e9763473fa212ad340bab42c77f4663cf57647371ee113226740d0eea8bdcc164736f6c63430008140033",
  "linkReferences": {},
  "deployedLinkReferences": {}
}