{
  "_format": "hh-sol-artifact-1",
  "contractName": "$ERC721Pausable",
  "sourceName": "contracts-exposed/token/ERC721/extensions/ERC721Pausable.sol",
  "abi": [
    {
      "inputs": [
        {
          "internalType": "string",
          "name": "name_",
          "type": "string"
        },
        {
          "internalType": "string",
          "name": "symbol_",
          "type": "string"
        }
      ],
      "stateMutability": "payable",
      "type": "constructor"
    },
    {
      "inputs": [
        {
          "internalType": "address",
          "name": "sender",
          "type": "address"
        },
        {
          "internalType": "uint256",
          "name": "tokenId",
          "type": "uint256"
        },
        {
          "internalType": "address",
          "name": "owner",
          "type": "address"
        }
      ],
      "name": "ERC721IncorrectOwner",
      "type": "error"
    },
    {
      "inputs": [
        {
          "internalType": "address",
          "name": "operator",
          "type": "address"
        },
        {
          "internalType": "uint256",
          "name": "tokenId",
          "type": "uint256"
        }
      ],
      "name": "ERC721InsufficientApproval",
      "type": "error"
    },
    {
      "inputs": [
        {
          "internalType": "address",
          "name": "approver",
          "type": "address"
        }
      ],
      "name": "ERC721InvalidApprover",
      "type": "error"
    },
    {
      "inputs": [
        {
          "internalType": "address",
          "name": "operator",
          "type": "address"
        }
      ],
      "name": "ERC721InvalidOperator",
      "type": "error"
    },
    {
      "inputs": [
        {
          "internalType": "address",
          "name": "owner",
          "type": "address"
        }
      ],
      "name": "ERC721InvalidOwner",
      "type": "error"
    },
    {
      "inputs": [
        {
          "internalType": "address",
          "name": "receiver",
          "type": "address"
        }
      ],
      "name": "ERC721InvalidReceiver",
      "type": "error"
    },
    {
      "inputs": [
        {
          "internalType": "address",
          "name": "sender",
          "type": "address"
        }
      ],
      "name": "ERC721InvalidSender",
      "type": "error"
    },
    {
      "inputs": [
        {
          "internalType": "uint256",
          "name": "tokenId",
          "type": "uint256"
        }
      ],
      "name": "ERC721NonexistentToken",
      "type": "error"
    },
    {
      "inputs": [],
      "name": "EnforcedPause",
      "type": "error"
    },
    {
      "inputs": [],
      "name": "ExpectedPause",
      "type": "error"
    },
    {
      "anonymous": false,
      "inputs": [
        {
          "indexed": true,
          "internalType": "address",
          "name": "owner",
          "type": "address"
        },
        {
          "indexed": true,
          "internalType": "address",
          "name": "approved",
          "type": "address"
        },
        {
          "indexed": true,
          "internalType": "uint256",
          "name": "tokenId",
          "type": "uint256"
        }
      ],
      "name": "Approval",
      "type": "event"
    },
    {
      "anonymous": false,
      "inputs": [
        {
          "indexed": true,
          "internalType": "address",
          "name": "owner",
          "type": "address"
        },
        {
          "indexed": true,
          "internalType": "address",
          "name": "operator",
          "type": "address"
        },
        {
          "indexed": false,
          "internalType": "bool",
          "name": "approved",
          "type": "bool"
        }
      ],
      "name": "ApprovalForAll",
      "type": "event"
    },
    {
      "anonymous": false,
      "inputs": [
        {
          "indexed": false,
          "internalType": "address",
          "name": "account",
          "type": "address"
        }
      ],
      "name": "Paused",
      "type": "event"
    },
    {
      "anonymous": false,
      "inputs": [
        {
          "indexed": true,
          "internalType": "address",
          "name": "from",
          "type": "address"
        },
        {
          "indexed": true,
          "internalType": "address",
          "name": "to",
          "type": "address"
        },
        {
          "indexed": true,
          "internalType": "uint256",
          "name": "tokenId",
          "type": "uint256"
        }
      ],
      "name": "Transfer",
      "type": "event"
    },
    {
      "anonymous": false,
      "inputs": [
        {
          "indexed": false,
          "internalType": "address",
          "name": "account",
          "type": "address"
        }
      ],
      "name": "Unpaused",
      "type": "event"
    },
    {
      "inputs": [
        {
          "internalType": "address",
          "name": "account",
          "type": "address"
        },
        {
          "internalType": "uint256",
          "name": "value",
          "type": "uint256"
        }
      ],
      "name": "$__unsafe_increaseBalance",
      "outputs": [],
      "stateMutability": "nonpayable",
      "type": "function"
    },
    {
      "inputs": [
        {
          "internalType": "address",
          "name": "from",
          "type": "address"
        },
        {
          "internalType": "address",
          "name": "to",
          "type": "address"
        },
        {
          "internalType": "uint256",
          "name": "firstTokenId",
          "type": "uint256"
        },
        {
          "internalType": "uint256",
          "name": "batchSize",
          "type": "uint256"
        }
      ],
      "name": "$_afterTokenTransfer",
      "outputs": [],
      "stateMutability": "nonpayable",
      "type": "function"
    },
    {
      "inputs": [
        {
          "internalType": "address",
          "name": "to",
          "type": "address"
        },
        {
          "internalType": "uint256",
          "name": "tokenId",
          "type": "uint256"
        }
      ],
      "name": "$_approve",
      "outputs": [],
      "stateMutability": "nonpayable",
      "type": "function"
    },
    {
      "inputs": [],
      "name": "$_baseURI",
      "outputs": [
        {
          "internalType": "string",
          "name": "ret0",
          "type": "string"
        }
      ],
      "stateMutability": "view",
      "type": "function"
    },
    {
      "inputs": [
        {
          "internalType": "address",
          "name": "from",
          "type": "address"
        },
        {
          "internalType": "address",
          "name": "to",
          "type": "address"
        },
        {
          "internalType": "uint256",
          "name": "firstTokenId",
          "type": "uint256"
        },
        {
          "internalType": "uint256",
          "name": "batchSize",
          "type": "uint256"
        }
      ],
      "name": "$_beforeTokenTransfer",
      "outputs": [],
      "stateMutability": "nonpayable",
      "type": "function"
    },
    {
      "inputs": [
        {
          "internalType": "uint256",
          "name": "tokenId",
          "type": "uint256"
        }
      ],
      "name": "$_burn",
      "outputs": [],
      "stateMutability": "nonpayable",
      "type": "function"
    },
    {
      "inputs": [
        {
          "internalType": "uint256",
          "name": "tokenId",
          "type": "uint256"
        }
      ],
      "name": "$_exists",
      "outputs": [
        {
          "internalType": "bool",
          "name": "ret0",
          "type": "bool"
        }
      ],
      "stateMutability": "view",
      "type": "function"
    },
    {
      "inputs": [
        {
          "internalType": "address",
          "name": "spender",
          "type": "address"
        },
        {
          "internalType": "uint256",
          "name": "tokenId",
          "type": "uint256"
        }
      ],
      "name": "$_isApprovedOrOwner",
      "outputs": [
        {
          "internalType": "bool",
          "name": "ret0",
          "type": "bool"
        }
      ],
      "stateMutability": "view",
      "type": "function"
    },
    {
      "inputs": [
        {
          "internalType": "address",
          "name": "to",
          "type": "address"
        },
        {
          "internalType": "uint256",
          "name": "tokenId",
          "type": "uint256"
        }
      ],
      "name": "$_mint",
      "outputs": [],
      "stateMutability": "nonpayable",
      "type": "function"
    },
    {
      "inputs": [],
      "name": "$_msgData",
      "outputs": [
        {
          "internalType": "bytes",
          "name": "ret0",
          "type": "bytes"
        }
      ],
      "stateMutability": "view",
      "type": "function"
    },
    {
      "inputs": [],
      "name": "$_msgSender",
      "outputs": [
        {
          "internalType": "address",
          "name": "ret0",
          "type": "address"
        }
      ],
      "stateMutability": "view",
      "type": "function"
    },
    {
      "inputs": [
        {
          "internalType": "uint256",
          "name": "tokenId",
          "type": "uint256"
        }
      ],
      "name": "$_ownerOf",
      "outputs": [
        {
          "internalType": "address",
          "name": "ret0",
          "type": "address"
        }
      ],
      "stateMutability": "view",
      "type": "function"
    },
    {
      "inputs": [],
      "name": "$_pause",
      "outputs": [],
      "stateMutability": "nonpayable",
      "type": "function"
    },
    {
      "inputs": [
        {
          "internalType": "uint256",
          "name": "tokenId",
          "type": "uint256"
        }
      ],
      "name": "$_requireMinted",
      "outputs": [],
      "stateMutability": "view",
      "type": "function"
    },
    {
      "inputs": [],
      "name": "$_requireNotPaused",
      "outputs": [],
      "stateMutability": "view",
      "type": "function"
    },
    {
      "inputs": [],
      "name": "$_requirePaused",
      "outputs": [],
      "stateMutability": "view",
      "type": "function"
    },
    {
      "inputs": [
        {
          "internalType": "address",
          "name": "to",
          "type": "address"
        },
        {
          "internalType": "uint256",
          "name": "tokenId",
          "type": "uint256"
        },
        {
          "internalType": "bytes",
          "name": "data",
          "type": "bytes"
        }
      ],
      "name": "$_safeMint",
      "outputs": [],
      "stateMutability": "nonpayable",
      "type": "function"
    },
    {
      "inputs": [
        {
          "internalType": "address",
          "name": "to",
          "type": "address"
        },
        {
          "internalType": "uint256",
          "name": "tokenId",
          "type": "uint256"
        }
      ],
      "name": "$_safeMint",
      "outputs": [],
      "stateMutability": "nonpayable",
      "type": "function"
    },
    {
      "inputs": [
        {
          "internalType": "address",
          "name": "from",
          "type": "address"
        },
        {
          "internalType": "address",
          "name": "to",
          "type": "address"
        },
        {
          "internalType": "uint256",
          "name": "tokenId",
          "type": "uint256"
        },
        {
          "internalType": "bytes",
          "name": "data",
          "type": "bytes"
        }
      ],
      "name": "$_safeTransfer",
      "outputs": [],
      "stateMutability": "nonpayable",
      "type": "function"
    },
    {
      "inputs": [
        {
          "internalType": "address",
          "name": "owner",
          "type": "address"
        },
        {
          "internalType": "address",
          "name": "operator",
          "type": "address"
        },
        {
          "internalType": "bool",
          "name": "approved",
          "type": "bool"
        }
      ],
      "name": "$_setApprovalForAll",
      "outputs": [],
      "stateMutability": "nonpayable",
      "type": "function"
    },
    {
      "inputs": [
        {
          "internalType": "address",
          "name": "from",
          "type": "address"
        },
        {
          "internalType": "address",
          "name": "to",
          "type": "address"
        },
        {
          "internalType": "uint256",
          "name": "tokenId",
          "type": "uint256"
        }
      ],
      "name": "$_transfer",
      "outputs": [],
      "stateMutability": "nonpayable",
      "type": "function"
    },
    {
      "inputs": [],
      "name": "$_unpause",
      "outputs": [],
      "stateMutability": "nonpayable",
      "type": "function"
    },
    {
      "inputs": [],
      "name": "__hh_exposed_bytecode_marker",
      "outputs": [
        {
          "internalType": "bytes32",
          "name": "",
          "type": "bytes32"
        }
      ],
      "stateMutability": "view",
      "type": "function"
    },
    {
      "inputs": [
        {
          "internalType": "address",
          "name": "to",
          "type": "address"
        },
        {
          "internalType": "uint256",
          "name": "tokenId",
          "type": "uint256"
        }
      ],
      "name": "approve",
      "outputs": [],
      "stateMutability": "nonpayable",
      "type": "function"
    },
    {
      "inputs": [
        {
          "internalType": "address",
          "name": "owner",
          "type": "address"
        }
      ],
      "name": "balanceOf",
      "outputs": [
        {
          "internalType": "uint256",
          "name": "",
          "type": "uint256"
        }
      ],
      "stateMutability": "view",
      "type": "function"
    },
    {
      "inputs": [
        {
          "internalType": "uint256",
          "name": "tokenId",
          "type": "uint256"
        }
      ],
      "name": "getApproved",
      "outputs": [
        {
          "internalType": "address",
          "name": "",
          "type": "address"
        }
      ],
      "stateMutability": "view",
      "type": "function"
    },
    {
      "inputs": [
        {
          "internalType": "address",
          "name": "owner",
          "type": "address"
        },
        {
          "internalType": "address",
          "name": "operator",
          "type": "address"
        }
      ],
      "name": "isApprovedForAll",
      "outputs": [
        {
          "internalType": "bool",
          "name": "",
          "type": "bool"
        }
      ],
      "stateMutability": "view",
      "type": "function"
    },
    {
      "inputs": [],
      "name": "name",
      "outputs": [
        {
          "internalType": "string",
          "name": "",
          "type": "string"
        }
      ],
      "stateMutability": "view",
      "type": "function"
    },
    {
      "inputs": [
        {
          "internalType": "uint256",
          "name": "tokenId",
          "type": "uint256"
        }
      ],
      "name": "ownerOf",
      "outputs": [
        {
          "internalType": "address",
          "name": "",
          "type": "address"
        }
      ],
      "stateMutability": "view",
      "type": "function"
    },
    {
      "inputs": [],
      "name": "paused",
      "outputs": [
        {
          "internalType": "bool",
          "name": "",
          "type": "bool"
        }
      ],
      "stateMutability": "view",
      "type": "function"
    },
    {
      "inputs": [
        {
          "internalType": "address",
          "name": "from",
          "type": "address"
        },
        {
          "internalType": "address",
          "name": "to",
          "type": "address"
        },
        {
          "internalType": "uint256",
          "name": "tokenId",
          "type": "uint256"
        }
      ],
      "name": "safeTransferFrom",
      "outputs": [],
      "stateMutability": "nonpayable",
      "type": "function"
    },
    {
      "inputs": [
        {
          "internalType": "address",
          "name": "from",
          "type": "address"
        },
        {
          "internalType": "address",
          "name": "to",
          "type": "address"
        },
        {
          "internalType": "uint256",
          "name": "tokenId",
          "type": "uint256"
        },
        {
          "internalType": "bytes",
          "name": "data",
          "type": "bytes"
        }
      ],
      "name": "safeTransferFrom",
      "outputs": [],
      "stateMutability": "nonpayable",
      "type": "function"
    },
    {
      "inputs": [
        {
          "internalType": "address",
          "name": "operator",
          "type": "address"
        },
        {
          "internalType": "bool",
          "name": "approved",
          "type": "bool"
        }
      ],
      "name": "setApprovalForAll",
      "outputs": [],
      "stateMutability": "nonpayable",
      "type": "function"
    },
    {
      "inputs": [
        {
          "internalType": "bytes4",
          "name": "interfaceId",
          "type": "bytes4"
        }
      ],
      "name": "supportsInterface",
      "outputs": [
        {
          "internalType": "bool",
          "name": "",
          "type": "bool"
        }
      ],
      "stateMutability": "view",
      "type": "function"
    },
    {
      "inputs": [],
      "name": "symbol",
      "outputs": [
        {
          "internalType": "string",
          "name": "",
          "type": "string"
        }
      ],
      "stateMutability": "view",
      "type": "function"
    },
    {
      "inputs": [
        {
          "internalType": "uint256",
          "name": "tokenId",
          "type": "uint256"
        }
      ],
      "name": "tokenURI",
      "outputs": [
        {
          "internalType": "string",
          "name": "",
          "type": "string"
        }
      ],
      "stateMutability": "view",
      "type": "function"
    },
    {
      "inputs": [
        {
          "internalType": "address",
          "name": "from",
          "type": "address"
        },
        {
          "internalType": "address",
          "name": "to",
          "type": "address"
        },
        {
          "internalType": "uint256",
          "name": "tokenId",
          "type": "uint256"
        }
      ],
      "name": "transferFrom",
      "outputs": [],
      "stateMutability": "nonpayable",
      "type": "function"
    },
    {
      "stateMutability": "payable",
      "type": "receive"
    }
  ],
  "bytecode": "0x608060405260405162001cd838038062001cd8833981016040819052620000269162000118565b81815f6200003583826200020a565b5060016200004482826200020a565b50506006805460ff1916905550620002d2915050565b634e487b7160e01b5f52604160045260245ffd5b5f82601f8301126200007e575f80fd5b81516001600160401b03808211156200009b576200009b6200005a565b604051601f8301601f19908116603f01168101908282118183101715620000c657620000c66200005a565b81604052838152602092508683858801011115620000e2575f80fd5b5f91505b83821015620001055785820183015181830184015290820190620000e6565b5f93810190920192909252949350505050565b5f80604083850312156200012a575f80fd5b82516001600160401b038082111562000141575f80fd5b6200014f868387016200006e565b9350602085015191508082111562000165575f80fd5b5062000174858286016200006e565b9150509250929050565b600181811c908216806200019357607f821691505b602082108103620001b257634e487b7160e01b5f52602260045260245ffd5b50919050565b601f82111562000205575f81815260208120601f850160051c81016020861015620001e05750805b601f850160051c820191505b818110156200020157828155600101620001ec565b5050505b505050565b81516001600160401b038111156200022657620002266200005a565b6200023e816200023784546200017e565b84620001b8565b602080601f83116001811462000274575f84156200025c5750858301515b5f19600386901b1c1916600185901b17855562000201565b5f85815260208120601f198616915b82811015620002a45788860151825594840194600190910190840162000283565b5085821015620002c257878501515f19600388901b60f8161c191681555b5050505050600190811b01905550565b6119f880620002e05f395ff3fe608060405260043610610215575f3560e01c8063838122411161011e578063c4a96fa6116100a8578063d261af541161006d578063d261af54146105ee578063e07084c21461060d578063e985e9c51461062c578063efb43b071461064b578063f85810a71461066a575f80fd5b8063c4a96fa614610553578063c87b56dd14610572578063cc461d6214610591578063cd43f47d146105b0578063cfeea0d4146105cf575f80fd5b8063a22cb465116100ee578063a22cb465146104c3578063a2373a82146104e2578063b0a1fefa14610501578063b88d4fde14610515578063c37add5114610534575f80fd5b8063838122411461045d57806395d89b411461047157806398a1f7a0146104855780639ff2f02d146104a4575f80fd5b80632c85c6e21161019f578063458ee0021161016f578063458ee002146103ca5780635c975abb146103e95780636352211e1461040057806370a082311461041f578063733555ec1461043e575f80fd5b80632c85c6e21461035057806332cadf3c14610364578063342db7391461037857806342842e0e146103ab575f80fd5b806309854d72116101e557806309854d72146102cd578063147619da146102ec578063161e977d1461030b57806323b872dd1461031f5780632904df291461033e575f80fd5b806301ffc9a71461022057806306fdde0314610254578063081812fc14610275578063095ea7b3146102ac575f80fd5b3661021c57005b5f80fd5b34801561022b575f80fd5b5061023f61023a3660046114d0565b61067e565b60405190151581526020015b60405180910390f35b34801561025f575f80fd5b506102686106cf565b60405161024b9190611538565b348015610280575f80fd5b5061029461028f36600461154a565b61075e565b6040516001600160a01b03909116815260200161024b565b3480156102b7575f80fd5b506102cb6102c636600461157c565b610783565b005b3480156102d8575f80fd5b506102cb6102e736600461154a565b610820565b3480156102f7575f80fd5b506102cb6103063660046115a4565b61082c565b348015610316575f80fd5b5061026861083e565b34801561032a575f80fd5b506102cb6103393660046115e3565b610859565b348015610349575f80fd5b5033610294565b34801561035b575f80fd5b506102cb610894565b34801561036f575f80fd5b5061026861089e565b348015610383575f80fd5b5061039d6e1a185c991a185d0b595e1c1bdcd959608a1b81565b60405190815260200161024b565b3480156103b6575f80fd5b506102cb6103c53660046115e3565b6108db565b3480156103d5575f80fd5b506102946103e436600461154a565b6108f5565b3480156103f4575f80fd5b5060065460ff1661023f565b34801561040b575f80fd5b5061029461041a36600461154a565b610911565b34801561042a575f80fd5b5061039d61043936600461161c565b610949565b348015610449575f80fd5b506102cb61045836600461167a565b61098e565b348015610468575f80fd5b506102cb6109d6565b34801561047c575f80fd5b506102686109de565b348015610490575f80fd5b506102cb61049f36600461157c565b6109ed565b3480156104af575f80fd5b506102cb6104be3660046116e4565b6109fb565b3480156104ce575f80fd5b506102cb6104dd366004611749565b610a3b565b3480156104ed575f80fd5b506102cb6104fc36600461154a565b610a46565b34801561050c575f80fd5b506102cb610a4f565b348015610520575f80fd5b506102cb61052f36600461178e565b610a57565b34801561053f575f80fd5b5061023f61054e36600461154a565b610a93565b34801561055e575f80fd5b5061023f61056d36600461157c565b610ab1565b34801561057d575f80fd5b5061026861058c36600461154a565b610ac3565b34801561059c575f80fd5b506102cb6105ab36600461157c565b610b32565b3480156105bb575f80fd5b506102cb6105ca36600461157c565b610b3c565b3480156105da575f80fd5b506102cb6105e9366004611863565b610b46565b3480156105f9575f80fd5b506102cb61060836600461157c565b610b51565b348015610618575f80fd5b506102cb6106273660046115a4565b610b5b565b348015610637575f80fd5b5061023f6106463660046118a3565b610b60565b348015610656575f80fd5b506102cb6106653660046115e3565b610889565b348015610675575f80fd5b506102cb610b8d565b5f6001600160e01b031982166380ac58cd60e01b14806106ae57506001600160e01b03198216635b5e139f60e01b145b806106c957506301ffc9a760e01b6001600160e01b03198316145b92915050565b60605f80546106dd906118cb565b80601f0160208091040260200160405190810160405280929190818152602001828054610709906118cb565b80156107545780601f1061072b57610100808354040283529160200191610754565b820191905f5260205f20905b81548152906001019060200180831161073757829003601f168201915b5050505050905090565b5f61076882610b95565b505f908152600460205260409020546001600160a01b031690565b5f61078d82610911565b9050806001600160a01b0316836001600160a01b0316036107d157604051630b61174360e31b81526001600160a01b03821660048201526024015b60405180910390fd5b336001600160a01b038216148015906107f157506107ef8133610b60565b155b156108115760405163a9fbf51f60e01b81523360048201526024016107c8565b61081b8383610bcc565b505050565b61082981610b95565b50565b61083884848484610c39565b50505050565b606061085460408051602081019091525f815290565b905090565b6108633382610c41565b6108895760405163177e802f60e01b8152336004820152602481018290526044016107c8565b61081b838383610c9f565b61089c610e36565b565b60605f368080601f0160208091040260200160405190810160405280939291908181526020018383808284375f9201919091525092949350505050565b61081b83838360405180602001604052805f815250610a57565b5f818152600260205260408120546001600160a01b03166106c9565b5f818152600260205260408120546001600160a01b0316806106c957604051637e27328960e01b8152600481018490526024016107c8565b5f6001600160a01b038216610973576040516322718ad960e21b81525f60048201526024016107c8565b506001600160a01b03165f9081526003602052604090205490565b6109cf85858585858080601f0160208091040260200160405190810160405280939291908181526020018383808284375f92019190915250610e5a92505050565b5050505050565b61089c610e99565b6060600180546106dd906118cb565b6109f78282610ebc565b5050565b610838848484848080601f0160208091040260200160405190810160405280939291908181526020018383808284375f92019190915250610eec92505050565b6109f7338383610f2a565b61082981610fd3565b61089c611095565b610a613383610c41565b610a875760405163177e802f60e01b8152336004820152602481018390526044016107c8565b61083884848484610e5a565b5f818152600260205260408120546001600160a01b031615156106c9565b5f610abc8383610c41565b9392505050565b6060610ace82610b95565b5f610ae360408051602081019091525f815290565b90505f815111610b015760405180602001604052805f815250610abc565b80610b0b846110e7565b604051602001610b1c929190611903565b6040516020818303038152906040529392505050565b6109f78282611177565b6109f78282610bcc565b61081b838383610f2a565b6109f78282611285565b610838565b6001600160a01b039182165f90815260056020908152604080832093909416825291909152205460ff1690565b61089c61129e565b5f818152600260205260409020546001600160a01b031661082957604051637e27328960e01b8152600481018290526024016107c8565b5f81815260046020526040902080546001600160a01b0319166001600160a01b0384169081179091558190610c0082610911565b6001600160a01b03167f8c5be1e5ebec7d5bd14f71427d1e84f3dd0314c0f7b2291e5b200ac8c7c3b92560405160405180910390a45050565b610838610e36565b5f80610c4c83610911565b9050806001600160a01b0316846001600160a01b03161480610c735750610c738185610b60565b80610c975750836001600160a01b0316610c8c8461075e565b6001600160a01b0316145b949350505050565b5f610ca982610911565b9050836001600160a01b0316816001600160a01b031614610cf7576040516364283d7b60e01b81526001600160a01b03808616600483015260248201849052821660448201526064016107c8565b6001600160a01b038316610d2057604051633250574960e11b81525f60048201526024016107c8565b610d2d8484846001610c39565b610d3682610911565b9050836001600160a01b0316816001600160a01b031614610d84576040516364283d7b60e01b81526001600160a01b03808616600483015260248201849052821660448201526064016107c8565b5f82815260046020908152604080832080546001600160a01b03191690556001600160a01b038716835260039091528120805460019290610dc6908490611945565b90915550506001600160a01b038084165f81815260036020908152604080832080546001019055868352600290915280822080546001600160a01b031916841790555185938816917fddf252ad1be2c89b69c2b068fc378daa952ba7f163c4a11628f55a4df523b3ef91a4610838565b60065460ff161561089c5760405163d93c066560e01b815260040160405180910390fd5b610e65848484610c9f565b610e71848484846112db565b61083857604051633250574960e11b81526001600160a01b03841660048201526024016107c8565b60065460ff1661089c57604051638dfc202b60e01b815260040160405180910390fd5b6001600160a01b0382165f9081526003602052604081208054839290610ee3908490611958565b90915550505050565b610ef68383611177565b610f025f8484846112db565b61081b57604051633250574960e11b81526001600160a01b03841660048201526024016107c8565b816001600160a01b0316836001600160a01b031603610f6757604051630b61174360e31b81526001600160a01b03841660048201526024016107c8565b6001600160a01b038381165f81815260056020908152604080832094871680845294825291829020805460ff191686151590811790915591519182527f17307eab39ab6107e8899845ad3d59bd9653f200f220920489ca2b5937696c31910160405180910390a3505050565b5f610fdd82610911565b9050610fec815f846001610c39565b610ff582610911565b5f83815260046020908152604080832080546001600160a01b03191690556001600160a01b038416835260039091528120805492935060019290919061103c908490611945565b90915550505f8281526002602052604080822080546001600160a01b0319169055518391906001600160a01b038416907fddf252ad1be2c89b69c2b068fc378daa952ba7f163c4a11628f55a4df523b3ef908390a45050565b61109d610e99565b6006805460ff191690557f5db9ee0a495bf2e6ff9c91a7834c1ba4fdd244a5e8aa4e537bd38aeae4b073aa335b6040516001600160a01b03909116815260200160405180910390a1565b60605f6110f3836113e4565b60010190505f8167ffffffffffffffff8111156111125761111261177a565b6040519080825280601f01601f19166020018201604052801561113c576020820181803683370190505b5090508181016020015b5f19016f181899199a1a9b1b9c1cb0b131b232b360811b600a86061a8153600a850494508461114657509392505050565b6001600160a01b0382166111a057604051633250574960e11b81525f60048201526024016107c8565b5f818152600260205260409020546001600160a01b0316156111d7576040516339e3563760e11b81525f60048201526024016107c8565b6111e45f83836001610c39565b5f818152600260205260409020546001600160a01b03161561121b576040516339e3563760e11b81525f60048201526024016107c8565b6001600160a01b0382165f81815260036020908152604080832080546001019055848352600290915280822080546001600160a01b0319168417905551839291907fddf252ad1be2c89b69c2b068fc378daa952ba7f163c4a11628f55a4df523b3ef908290a45050565b6109f7828260405180602001604052805f815250610eec565b6112a6610e36565b6006805460ff191660011790557f62e78cea01bee320cd4e420270b5ea74000d11b0c9f74754ebdbfc544b05a2586110ca3390565b5f6001600160a01b0384163b156113d957604051630a85bd0160e11b81526001600160a01b0385169063150b7a029061131e90339089908890889060040161196b565b6020604051808303815f875af1925050508015611358575060408051601f3d908101601f19168201909252611355918101906119a7565b60015b6113bf573d808015611385576040519150601f19603f3d011682016040523d82523d5f602084013e61138a565b606091505b5080515f036113b757604051633250574960e11b81526001600160a01b03861660048201526024016107c8565b805181602001fd5b6001600160e01b031916630a85bd0160e11b149050610c97565b506001949350505050565b5f8072184f03e93ff9f4daa797ed6e38ed64bf6a1f0160401b83106114225772184f03e93ff9f4daa797ed6e38ed64bf6a1f0160401b830492506040015b6d04ee2d6d415b85acef8100000000831061144e576d04ee2d6d415b85acef8100000000830492506020015b662386f26fc10000831061146c57662386f26fc10000830492506010015b6305f5e1008310611484576305f5e100830492506008015b612710831061149857612710830492506004015b606483106114aa576064830492506002015b600a83106106c95760010192915050565b6001600160e01b031981168114610829575f80fd5b5f602082840312156114e0575f80fd5b8135610abc816114bb565b5f5b838110156115055781810151838201526020016114ed565b50505f910152565b5f81518084526115248160208601602086016114eb565b601f01601f19169290920160200192915050565b602081525f610abc602083018461150d565b5f6020828403121561155a575f80fd5b5035919050565b80356001600160a01b0381168114611577575f80fd5b919050565b5f806040838503121561158d575f80fd5b61159683611561565b946020939093013593505050565b5f805f80608085870312156115b7575f80fd5b6115c085611561565b93506115ce60208601611561565b93969395505050506040820135916060013590565b5f805f606084860312156115f5575f80fd5b6115fe84611561565b925061160c60208501611561565b9150604084013590509250925092565b5f6020828403121561162c575f80fd5b610abc82611561565b5f8083601f840112611645575f80fd5b50813567ffffffffffffffff81111561165c575f80fd5b602083019150836020828501011115611673575f80fd5b9250929050565b5f805f805f6080868803121561168e575f80fd5b61169786611561565b94506116a560208701611561565b935060408601359250606086013567ffffffffffffffff8111156116c7575f80fd5b6116d388828901611635565b969995985093965092949392505050565b5f805f80606085870312156116f7575f80fd5b61170085611561565b935060208501359250604085013567ffffffffffffffff811115611722575f80fd5b61172e87828801611635565b95989497509550505050565b80358015158114611577575f80fd5b5f806040838503121561175a575f80fd5b61176383611561565b91506117716020840161173a565b90509250929050565b634e487b7160e01b5f52604160045260245ffd5b5f805f80608085870312156117a1575f80fd5b6117aa85611561565b93506117b860208601611561565b925060408501359150606085013567ffffffffffffffff808211156117db575f80fd5b818701915087601f8301126117ee575f80fd5b8135818111156118005761180061177a565b604051601f8201601f19908116603f011681019083821181831017156118285761182861177a565b816040528281528a6020848701011115611840575f80fd5b826020860160208301375f60208483010152809550505050505092959194509250565b5f805f60608486031215611875575f80fd5b61187e84611561565b925061188c60208501611561565b915061189a6040850161173a565b90509250925092565b5f80604083850312156118b4575f80fd5b6118bd83611561565b915061177160208401611561565b600181811c908216806118df57607f821691505b6020821081036118fd57634e487b7160e01b5f52602260045260245ffd5b50919050565b5f83516119148184602088016114eb565b8351908301906119288183602088016114eb565b01949350505050565b634e487b7160e01b5f52601160045260245ffd5b818103818111156106c9576106c9611931565b808201808211156106c9576106c9611931565b6001600160a01b03858116825284166020820152604081018390526080606082018190525f9061199d9083018461150d565b9695505050505050565b5f602082840312156119b7575f80fd5b8151610abc816114bb56fea26469706673582212203b9e7d47310c51ebb0e922f5703a3ce85f8020e1b48956fde87c7f9fd6d459a564736f6c63430008140033",
  "linkReferences": {},
  "deployedLinkReferences": {}
}