{
  "_format": "hh-sol-artifact-1",
  "contractName": "ClashingImplementation",
  "sourceName": "contracts/mocks/proxy/ClashingImplementation.sol",
  "abi": [
    {
      "anonymous": false,
      "inputs": [],
      "name": "ClashingImplementationCall",
      "type": "event"
    },
    {
      "inputs": [],
      "name": "delegatedFunction",
      "outputs": [
        {
          "internalType": "bool",
          "name": "",
          "type": "bool"
        }
      ],
      "stateMutability": "pure",
      "type": "function"
    },
    {
      "inputs": [
        {
          "internalType": "address",
          "name": "",
          "type": "address"
        },
        {
          "internalType": "bytes",
          "name": "",
          "type": "bytes"
        }
      ],
      "name": "upgradeToAndCall",
      "outputs": [],
      "stateMutability": "payable",
      "type": "function"
    }
  ],
  "bytecode": "0x608060405234801561000f575f80fd5b5061014d8061001d5f395ff3fe608060405260043610610028575f3560e01c80634f1ef2861461002c578063abf8e0e714610041575b5f80fd5b61003f61003a36600461008e565b610061565b005b34801561004c575f80fd5b50604080516001815290519081900360200190f35b6040517f87f295955c288a63c1ec9524b11bb3e2b47480139ca4755c7d6e1dacaa8c4b1b905f90a1505050565b5f805f604084860312156100a0575f80fd5b83356001600160a01b03811681146100b6575f80fd5b9250602084013567ffffffffffffffff808211156100d2575f80fd5b818601915086601f8301126100e5575f80fd5b8135818111156100f3575f80fd5b876020828501011115610104575f80fd5b602083019450809350505050925092509256fea26469706673582212205edf96fe1ecebdcb4de8646f58f39a9b2bacb493e1da5e0920d366f3ebcc4d4664736f6c63430008140033",
  "linkReferences": {},
  "deployedLinkReferences": {}
}