{
  "_format": "hh-sol-artifact-1",
  "contractName": "$ERC20Votes",
  "sourceName": "contracts-exposed/token/ERC20/extensions/ERC20Votes.sol",
  "abi": [
    {
      "inputs": [
        {
          "internalType": "string",
          "name": "name_",
          "type": "string"
        },
        {
          "internalType": "string",
          "name": "symbol_",
          "type": "string"
        },
        {
          "internalType": "string",
          "name": "name",
          "type": "string"
        },
        {
          "internalType": "string",
          "name": "version",
          "type": "string"
        }
      ],
      "stateMutability": "payable",
      "type": "constructor"
    },
    {
      "inputs": [],
      "name": "CheckpointUnorderedInsertion",
      "type": "error"
    },
    {
      "inputs": [],
      "name": "ECDSAInvalidSignature",
      "type": "error"
    },
    {
      "inputs": [
        {
          "internalType": "uint256",
          "name": "length",
          "type": "uint256"
        }
      ],
      "name": "ECDSAInvalidSignatureLength",
      "type": "error"
    },
    {
      "inputs": [
        {
          "internalType": "bytes32",
          "name": "s",
          "type": "bytes32"
        }
      ],
      "name": "ECDSAInvalidSignatureS",
      "type": "error"
    },
    {
      "inputs": [
        {
          "internalType": "uint256",
          "name": "increasedSupply",
          "type": "uint256"
        },
        {
          "internalType": "uint256",
          "name": "cap",
          "type": "uint256"
        }
      ],
      "name": "ERC20ExceededSafeSupply",
      "type": "error"
    },
    {
      "inputs": [
        {
          "internalType": "address",
          "name": "spender",
          "type": "address"
        },
        {
          "internalType": "uint256",
          "name": "currentAllowance",
          "type": "uint256"
        },
        {
          "internalType": "uint256",
          "name": "requestedDecrease",
          "type": "uint256"
        }
      ],
      "name": "ERC20FailedDecreaseAllowance",
      "type": "error"
    },
    {
      "inputs": [
        {
          "internalType": "address",
          "name": "spender",
          "type": "address"
        },
        {
          "internalType": "uint256",
          "name": "allowance",
          "type": "uint256"
        },
        {
          "internalType": "uint256",
          "name": "needed",
          "type": "uint256"
        }
      ],
      "name": "ERC20InsufficientAllowance",
      "type": "error"
    },
    {
      "inputs": [
        {
          "internalType": "address",
          "name": "sender",
          "type": "address"
        },
        {
          "internalType": "uint256",
          "name": "balance",
          "type": "uint256"
        },
        {
          "internalType": "uint256",
          "name": "needed",
          "type": "uint256"
        }
      ],
      "name": "ERC20InsufficientBalance",
      "type": "error"
    },
    {
      "inputs": [
        {
          "internalType": "address",
          "name": "approver",
          "type": "address"
        }
      ],
      "name": "ERC20InvalidApprover",
      "type": "error"
    },
    {
      "inputs": [
        {
          "internalType": "address",
          "name": "receiver",
          "type": "address"
        }
      ],
      "name": "ERC20InvalidReceiver",
      "type": "error"
    },
    {
      "inputs": [
        {
          "internalType": "address",
          "name": "sender",
          "type": "address"
        }
      ],
      "name": "ERC20InvalidSender",
      "type": "error"
    },
    {
      "inputs": [
        {
          "internalType": "address",
          "name": "spender",
          "type": "address"
        }
      ],
      "name": "ERC20InvalidSpender",
      "type": "error"
    },
    {
      "inputs": [
        {
          "internalType": "uint256",
          "name": "timepoint",
          "type": "uint256"
        },
        {
          "internalType": "uint48",
          "name": "clock",
          "type": "uint48"
        }
      ],
      "name": "ERC5805FutureLookup",
      "type": "error"
    },
    {
      "inputs": [],
      "name": "ERC6372InconsistentClock",
      "type": "error"
    },
    {
      "inputs": [
        {
          "internalType": "address",
          "name": "account",
          "type": "address"
        },
        {
          "internalType": "uint256",
          "name": "currentNonce",
          "type": "uint256"
        }
      ],
      "name": "InvalidAccountNonce",
      "type": "error"
    },
    {
      "inputs": [],
      "name": "InvalidShortString",
      "type": "error"
    },
    {
      "inputs": [
        {
          "internalType": "uint8",
          "name": "bits",
          "type": "uint8"
        },
        {
          "internalType": "uint256",
          "name": "value",
          "type": "uint256"
        }
      ],
      "name": "SafeCastOverflowedUintDowncast",
      "type": "error"
    },
    {
      "inputs": [
        {
          "internalType": "string",
          "name": "str",
          "type": "string"
        }
      ],
      "name": "StringTooLong",
      "type": "error"
    },
    {
      "inputs": [
        {
          "internalType": "uint256",
          "name": "expiry",
          "type": "uint256"
        }
      ],
      "name": "VotesExpiredSignature",
      "type": "error"
    },
    {
      "anonymous": false,
      "inputs": [
        {
          "indexed": true,
          "internalType": "address",
          "name": "owner",
          "type": "address"
        },
        {
          "indexed": true,
          "internalType": "address",
          "name": "spender",
          "type": "address"
        },
        {
          "indexed": false,
          "internalType": "uint256",
          "name": "value",
          "type": "uint256"
        }
      ],
      "name": "Approval",
      "type": "event"
    },
    {
      "anonymous": false,
      "inputs": [
        {
          "indexed": true,
          "internalType": "address",
          "name": "delegator",
          "type": "address"
        },
        {
          "indexed": true,
          "internalType": "address",
          "name": "fromDelegate",
          "type": "address"
        },
        {
          "indexed": true,
          "internalType": "address",
          "name": "toDelegate",
          "type": "address"
        }
      ],
      "name": "DelegateChanged",
      "type": "event"
    },
    {
      "anonymous": false,
      "inputs": [
        {
          "indexed": true,
          "internalType": "address",
          "name": "delegate",
          "type": "address"
        },
        {
          "indexed": false,
          "internalType": "uint256",
          "name": "previousVotes",
          "type": "uint256"
        },
        {
          "indexed": false,
          "internalType": "uint256",
          "name": "newVotes",
          "type": "uint256"
        }
      ],
      "name": "DelegateVotesChanged",
      "type": "event"
    },
    {
      "anonymous": false,
      "inputs": [],
      "name": "EIP712DomainChanged",
      "type": "event"
    },
    {
      "anonymous": false,
      "inputs": [
        {
          "indexed": true,
          "internalType": "address",
          "name": "from",
          "type": "address"
        },
        {
          "indexed": true,
          "internalType": "address",
          "name": "to",
          "type": "address"
        },
        {
          "indexed": false,
          "internalType": "uint256",
          "name": "value",
          "type": "uint256"
        }
      ],
      "name": "Transfer",
      "type": "event"
    },
    {
      "anonymous": false,
      "inputs": [
        {
          "indexed": false,
          "internalType": "uint256",
          "name": "ret0",
          "type": "uint256"
        }
      ],
      "name": "return$_useCheckedNonce",
      "type": "event"
    },
    {
      "anonymous": false,
      "inputs": [
        {
          "indexed": false,
          "internalType": "uint256",
          "name": "ret0",
          "type": "uint256"
        }
      ],
      "name": "return$_useNonce",
      "type": "event"
    },
    {
      "inputs": [],
      "name": "$_EIP712Name",
      "outputs": [
        {
          "internalType": "string",
          "name": "ret0",
          "type": "string"
        }
      ],
      "stateMutability": "view",
      "type": "function"
    },
    {
      "inputs": [],
      "name": "$_EIP712Version",
      "outputs": [
        {
          "internalType": "string",
          "name": "ret0",
          "type": "string"
        }
      ],
      "stateMutability": "view",
      "type": "function"
    },
    {
      "inputs": [
        {
          "internalType": "address",
          "name": "owner",
          "type": "address"
        },
        {
          "internalType": "address",
          "name": "spender",
          "type": "address"
        },
        {
          "internalType": "uint256",
          "name": "value",
          "type": "uint256"
        },
        {
          "internalType": "bool",
          "name": "emitEvent",
          "type": "bool"
        }
      ],
      "name": "$_approve",
      "outputs": [],
      "stateMutability": "nonpayable",
      "type": "function"
    },
    {
      "inputs": [
        {
          "internalType": "address",
          "name": "owner",
          "type": "address"
        },
        {
          "internalType": "address",
          "name": "spender",
          "type": "address"
        },
        {
          "internalType": "uint256",
          "name": "value",
          "type": "uint256"
        }
      ],
      "name": "$_approve",
      "outputs": [],
      "stateMutability": "nonpayable",
      "type": "function"
    },
    {
      "inputs": [
        {
          "internalType": "address",
          "name": "account",
          "type": "address"
        },
        {
          "internalType": "uint256",
          "name": "value",
          "type": "uint256"
        }
      ],
      "name": "$_burn",
      "outputs": [],
      "stateMutability": "nonpayable",
      "type": "function"
    },
    {
      "inputs": [
        {
          "internalType": "address",
          "name": "account",
          "type": "address"
        },
        {
          "internalType": "uint32",
          "name": "pos",
          "type": "uint32"
        }
      ],
      "name": "$_checkpoints",
      "outputs": [
        {
          "components": [
            {
              "internalType": "uint32",
              "name": "_key",
              "type": "uint32"
            },
            {
              "internalType": "uint224",
              "name": "_value",
              "type": "uint224"
            }
          ],
          "internalType": "struct Checkpoints.Checkpoint224",
          "name": "ret0",
          "type": "tuple"
        }
      ],
      "stateMutability": "view",
      "type": "function"
    },
    {
      "inputs": [
        {
          "internalType": "address",
          "name": "account",
          "type": "address"
        },
        {
          "internalType": "address",
          "name": "delegatee",
          "type": "address"
        }
      ],
      "name": "$_delegate",
      "outputs": [],
      "stateMutability": "nonpayable",
      "type": "function"
    },
    {
      "inputs": [],
      "name": "$_domainSeparatorV4",
      "outputs": [
        {
          "internalType": "bytes32",
          "name": "ret0",
          "type": "bytes32"
        }
      ],
      "stateMutability": "view",
      "type": "function"
    },
    {
      "inputs": [],
      "name": "$_getTotalSupply",
      "outputs": [
        {
          "internalType": "uint256",
          "name": "ret0",
          "type": "uint256"
        }
      ],
      "stateMutability": "view",
      "type": "function"
    },
    {
      "inputs": [
        {
          "internalType": "address",
          "name": "account",
          "type": "address"
        }
      ],
      "name": "$_getVotingUnits",
      "outputs": [
        {
          "internalType": "uint256",
          "name": "ret0",
          "type": "uint256"
        }
      ],
      "stateMutability": "view",
      "type": "function"
    },
    {
      "inputs": [
        {
          "internalType": "bytes32",
          "name": "structHash",
          "type": "bytes32"
        }
      ],
      "name": "$_hashTypedDataV4",
      "outputs": [
        {
          "internalType": "bytes32",
          "name": "ret0",
          "type": "bytes32"
        }
      ],
      "stateMutability": "view",
      "type": "function"
    },
    {
      "inputs": [],
      "name": "$_maxSupply",
      "outputs": [
        {
          "internalType": "uint224",
          "name": "ret0",
          "type": "uint224"
        }
      ],
      "stateMutability": "view",
      "type": "function"
    },
    {
      "inputs": [
        {
          "internalType": "address",
          "name": "account",
          "type": "address"
        },
        {
          "internalType": "uint256",
          "name": "value",
          "type": "uint256"
        }
      ],
      "name": "$_mint",
      "outputs": [],
      "stateMutability": "nonpayable",
      "type": "function"
    },
    {
      "inputs": [],
      "name": "$_msgData",
      "outputs": [
        {
          "internalType": "bytes",
          "name": "ret0",
          "type": "bytes"
        }
      ],
      "stateMutability": "view",
      "type": "function"
    },
    {
      "inputs": [],
      "name": "$_msgSender",
      "outputs": [
        {
          "internalType": "address",
          "name": "ret0",
          "type": "address"
        }
      ],
      "stateMutability": "view",
      "type": "function"
    },
    {
      "inputs": [
        {
          "internalType": "address",
          "name": "account",
          "type": "address"
        }
      ],
      "name": "$_numCheckpoints",
      "outputs": [
        {
          "internalType": "uint32",
          "name": "ret0",
          "type": "uint32"
        }
      ],
      "stateMutability": "view",
      "type": "function"
    },
    {
      "inputs": [
        {
          "internalType": "address",
          "name": "owner",
          "type": "address"
        },
        {
          "internalType": "address",
          "name": "spender",
          "type": "address"
        },
        {
          "internalType": "uint256",
          "name": "value",
          "type": "uint256"
        }
      ],
      "name": "$_spendAllowance",
      "outputs": [],
      "stateMutability": "nonpayable",
      "type": "function"
    },
    {
      "inputs": [
        {
          "internalType": "address",
          "name": "from",
          "type": "address"
        },
        {
          "internalType": "address",
          "name": "to",
          "type": "address"
        },
        {
          "internalType": "uint256",
          "name": "value",
          "type": "uint256"
        }
      ],
      "name": "$_transfer",
      "outputs": [],
      "stateMutability": "nonpayable",
      "type": "function"
    },
    {
      "inputs": [
        {
          "internalType": "address",
          "name": "from",
          "type": "address"
        },
        {
          "internalType": "address",
          "name": "to",
          "type": "address"
        },
        {
          "internalType": "uint256",
          "name": "amount",
          "type": "uint256"
        }
      ],
      "name": "$_transferVotingUnits",
      "outputs": [],
      "stateMutability": "nonpayable",
      "type": "function"
    },
    {
      "inputs": [
        {
          "internalType": "address",
          "name": "from",
          "type": "address"
        },
        {
          "internalType": "address",
          "name": "to",
          "type": "address"
        },
        {
          "internalType": "uint256",
          "name": "value",
          "type": "uint256"
        }
      ],
      "name": "$_update",
      "outputs": [],
      "stateMutability": "nonpayable",
      "type": "function"
    },
    {
      "inputs": [
        {
          "internalType": "address",
          "name": "owner",
          "type": "address"
        },
        {
          "internalType": "uint256",
          "name": "nonce",
          "type": "uint256"
        }
      ],
      "name": "$_useCheckedNonce",
      "outputs": [
        {
          "internalType": "uint256",
          "name": "ret0",
          "type": "uint256"
        }
      ],
      "stateMutability": "nonpayable",
      "type": "function"
    },
    {
      "inputs": [
        {
          "internalType": "address",
          "name": "owner",
          "type": "address"
        }
      ],
      "name": "$_useNonce",
      "outputs": [
        {
          "internalType": "uint256",
          "name": "ret0",
          "type": "uint256"
        }
      ],
      "stateMutability": "nonpayable",
      "type": "function"
    },
    {
      "inputs": [],
      "name": "CLOCK_MODE",
      "outputs": [
        {
          "internalType": "string",
          "name": "",
          "type": "string"
        }
      ],
      "stateMutability": "view",
      "type": "function"
    },
    {
      "inputs": [],
      "name": "__hh_exposed_bytecode_marker",
      "outputs": [
        {
          "internalType": "bytes32",
          "name": "",
          "type": "bytes32"
        }
      ],
      "stateMutability": "view",
      "type": "function"
    },
    {
      "inputs": [
        {
          "internalType": "address",
          "name": "owner",
          "type": "address"
        },
        {
          "internalType": "address",
          "name": "spender",
          "type": "address"
        }
      ],
      "name": "allowance",
      "outputs": [
        {
          "internalType": "uint256",
          "name": "",
          "type": "uint256"
        }
      ],
      "stateMutability": "view",
      "type": "function"
    },
    {
      "inputs": [
        {
          "internalType": "address",
          "name": "spender",
          "type": "address"
        },
        {
          "internalType": "uint256",
          "name": "value",
          "type": "uint256"
        }
      ],
      "name": "approve",
      "outputs": [
        {
          "internalType": "bool",
          "name": "",
          "type": "bool"
        }
      ],
      "stateMutability": "nonpayable",
      "type": "function"
    },
    {
      "inputs": [
        {
          "internalType": "address",
          "name": "account",
          "type": "address"
        }
      ],
      "name": "balanceOf",
      "outputs": [
        {
          "internalType": "uint256",
          "name": "",
          "type": "uint256"
        }
      ],
      "stateMutability": "view",
      "type": "function"
    },
    {
      "inputs": [
        {
          "internalType": "address",
          "name": "account",
          "type": "address"
        },
        {
          "internalType": "uint32",
          "name": "pos",
          "type": "uint32"
        }
      ],
      "name": "checkpoints",
      "outputs": [
        {
          "components": [
            {
              "internalType": "uint32",
              "name": "_key",
              "type": "uint32"
            },
            {
              "internalType": "uint224",
              "name": "_value",
              "type": "uint224"
            }
          ],
          "internalType": "struct Checkpoints.Checkpoint224",
          "name": "",
          "type": "tuple"
        }
      ],
      "stateMutability": "view",
      "type": "function"
    },
    {
      "inputs": [],
      "name": "clock",
      "outputs": [
        {
          "internalType": "uint48",
          "name": "",
          "type": "uint48"
        }
      ],
      "stateMutability": "view",
      "type": "function"
    },
    {
      "inputs": [],
      "name": "decimals",
      "outputs": [
        {
          "internalType": "uint8",
          "name": "",
          "type": "uint8"
        }
      ],
      "stateMutability": "view",
      "type": "function"
    },
    {
      "inputs": [
        {
          "internalType": "address",
          "name": "spender",
          "type": "address"
        },
        {
          "internalType": "uint256",
          "name": "requestedDecrease",
          "type": "uint256"
        }
      ],
      "name": "decreaseAllowance",
      "outputs": [
        {
          "internalType": "bool",
          "name": "",
          "type": "bool"
        }
      ],
      "stateMutability": "nonpayable",
      "type": "function"
    },
    {
      "inputs": [
        {
          "internalType": "address",
          "name": "delegatee",
          "type": "address"
        }
      ],
      "name": "delegate",
      "outputs": [],
      "stateMutability": "nonpayable",
      "type": "function"
    },
    {
      "inputs": [
        {
          "internalType": "address",
          "name": "delegatee",
          "type": "address"
        },
        {
          "internalType": "uint256",
          "name": "nonce",
          "type": "uint256"
        },
        {
          "internalType": "uint256",
          "name": "expiry",
          "type": "uint256"
        },
        {
          "internalType": "uint8",
          "name": "v",
          "type": "uint8"
        },
        {
          "internalType": "bytes32",
          "name": "r",
          "type": "bytes32"
        },
        {
          "internalType": "bytes32",
          "name": "s",
          "type": "bytes32"
        }
      ],
      "name": "delegateBySig",
      "outputs": [],
      "stateMutability": "nonpayable",
      "type": "function"
    },
    {
      "inputs": [
        {
          "internalType": "address",
          "name": "account",
          "type": "address"
        }
      ],
      "name": "delegates",
      "outputs": [
        {
          "internalType": "address",
          "name": "",
          "type": "address"
        }
      ],
      "stateMutability": "view",
      "type": "function"
    },
    {
      "inputs": [],
      "name": "eip712Domain",
      "outputs": [
        {
          "internalType": "bytes1",
          "name": "fields",
          "type": "bytes1"
        },
        {
          "internalType": "string",
          "name": "name",
          "type": "string"
        },
        {
          "internalType": "string",
          "name": "version",
          "type": "string"
        },
        {
          "internalType": "uint256",
          "name": "chainId",
          "type": "uint256"
        },
        {
          "internalType": "address",
          "name": "verifyingContract",
          "type": "address"
        },
        {
          "internalType": "bytes32",
          "name": "salt",
          "type": "bytes32"
        },
        {
          "internalType": "uint256[]",
          "name": "extensions",
          "type": "uint256[]"
        }
      ],
      "stateMutability": "view",
      "type": "function"
    },
    {
      "inputs": [
        {
          "internalType": "uint256",
          "name": "timepoint",
          "type": "uint256"
        }
      ],
      "name": "getPastTotalSupply",
      "outputs": [
        {
          "internalType": "uint256",
          "name": "",
          "type": "uint256"
        }
      ],
      "stateMutability": "view",
      "type": "function"
    },
    {
      "inputs": [
        {
          "internalType": "address",
          "name": "account",
          "type": "address"
        },
        {
          "internalType": "uint256",
          "name": "timepoint",
          "type": "uint256"
        }
      ],
      "name": "getPastVotes",
      "outputs": [
        {
          "internalType": "uint256",
          "name": "",
          "type": "uint256"
        }
      ],
      "stateMutability": "view",
      "type": "function"
    },
    {
      "inputs": [
        {
          "internalType": "address",
          "name": "account",
          "type": "address"
        }
      ],
      "name": "getVotes",
      "outputs": [
        {
          "internalType": "uint256",
          "name": "",
          "type": "uint256"
        }
      ],
      "stateMutability": "view",
      "type": "function"
    },
    {
      "inputs": [
        {
          "internalType": "address",
          "name": "spender",
          "type": "address"
        },
        {
          "internalType": "uint256",
          "name": "addedValue",
          "type": "uint256"
        }
      ],
      "name": "increaseAllowance",
      "outputs": [
        {
          "internalType": "bool",
          "name": "",
          "type": "bool"
        }
      ],
      "stateMutability": "nonpayable",
      "type": "function"
    },
    {
      "inputs": [],
      "name": "name",
      "outputs": [
        {
          "internalType": "string",
          "name": "",
          "type": "string"
        }
      ],
      "stateMutability": "view",
      "type": "function"
    },
    {
      "inputs": [
        {
          "internalType": "address",
          "name": "owner",
          "type": "address"
        }
      ],
      "name": "nonces",
      "outputs": [
        {
          "internalType": "uint256",
          "name": "",
          "type": "uint256"
        }
      ],
      "stateMutability": "view",
      "type": "function"
    },
    {
      "inputs": [
        {
          "internalType": "address",
          "name": "account",
          "type": "address"
        }
      ],
      "name": "numCheckpoints",
      "outputs": [
        {
          "internalType": "uint32",
          "name": "",
          "type": "uint32"
        }
      ],
      "stateMutability": "view",
      "type": "function"
    },
    {
      "inputs": [],
      "name": "symbol",
      "outputs": [
        {
          "internalType": "string",
          "name": "",
          "type": "string"
        }
      ],
      "stateMutability": "view",
      "type": "function"
    },
    {
      "inputs": [],
      "name": "totalSupply",
      "outputs": [
        {
          "internalType": "uint256",
          "name": "",
          "type": "uint256"
        }
      ],
      "stateMutability": "view",
      "type": "function"
    },
    {
      "inputs": [
        {
          "internalType": "address",
          "name": "to",
          "type": "address"
        },
        {
          "internalType": "uint256",
          "name": "value",
          "type": "uint256"
        }
      ],
      "name": "transfer",
      "outputs": [
        {
          "internalType": "bool",
          "name": "",
          "type": "bool"
        }
      ],
      "stateMutability": "nonpayable",
      "type": "function"
    },
    {
      "inputs": [
        {
          "internalType": "address",
          "name": "from",
          "type": "address"
        },
        {
          "internalType": "address",
          "name": "to",
          "type": "address"
        },
        {
          "internalType": "uint256",
          "name": "value",
          "type": "uint256"
        }
      ],
      "name": "transferFrom",
      "outputs": [
        {
          "internalType": "bool",
          "name": "",
          "type": "bool"
        }
      ],
      "stateMutability": "nonpayable",
      "type": "function"
    },
    {
      "stateMutability": "payable",
      "type": "receive"
    }
  ],
  "bytecode": "0x6101606040526040516200280038038062002800833981016040819052620000279162000255565b81818585600362000039838262000393565b50600462000048828262000393565b506200005a915083905060056200010c565b610120526200006b8160066200010c565b61014052815160208084019190912060e052815190820120610100524660a052620000f860e05161010051604080517f8b73c3c69bb8fe3d512ecc4cf759cc79239f7b179b0ffacaa9a75d522b39400f60208201529081019290925260608201524660808201523060a08201525f9060c00160405160208183030381529060405280519060200120905090565b60805250503060c05250620004b392505050565b5f6020835110156200012b57620001238362000144565b90506200013e565b8162000138848262000393565b5060ff90505b92915050565b5f80829050601f815111156200017a578260405163305a27a960e01b81526004016200017191906200045b565b60405180910390fd5b805162000187826200048f565b179392505050565b634e487b7160e01b5f52604160045260245ffd5b5f5b83811015620001bf578181015183820152602001620001a5565b50505f910152565b5f82601f830112620001d7575f80fd5b81516001600160401b0380821115620001f457620001f46200018f565b604051601f8301601f19908116603f011681019082821181831017156200021f576200021f6200018f565b8160405283815286602085880101111562000238575f80fd5b6200024b846020830160208901620001a3565b9695505050505050565b5f805f806080858703121562000269575f80fd5b84516001600160401b038082111562000280575f80fd5b6200028e88838901620001c7565b95506020870151915080821115620002a4575f80fd5b620002b288838901620001c7565b94506040870151915080821115620002c8575f80fd5b620002d688838901620001c7565b93506060870151915080821115620002ec575f80fd5b50620002fb87828801620001c7565b91505092959194509250565b600181811c908216806200031c57607f821691505b6020821081036200033b57634e487b7160e01b5f52602260045260245ffd5b50919050565b601f8211156200038e575f81815260208120601f850160051c81016020861015620003695750805b601f850160051c820191505b818110156200038a5782815560010162000375565b5050505b505050565b81516001600160401b03811115620003af57620003af6200018f565b620003c781620003c0845462000307565b8462000341565b602080601f831160018114620003fd575f8415620003e55750858301515b5f19600386901b1c1916600185901b1785556200038a565b5f85815260208120601f198616915b828110156200042d578886015182559484019460019091019084016200040c565b50858210156200044b57878501515f19600388901b60f8161c191681555b5050505050600190811b01905550565b602081525f82518060208401526200047b816040850160208701620001a3565b601f01601f19169190910160400192915050565b805160208083015191908110156200033b575f1960209190910360031b1b16919050565b60805160a05160c05160e0516101005161012051610140516122fb620005055f395f610edf01525f610eb201525f61130001525f6112d801525f61123301525f61125d01525f61128701526122fb5ff3fe608060405260043610610277575f3560e01c806361f5b5301161014a5780639ab24eb0116100be578063cc461d6211610078578063cc461d62146107c9578063d41ecac3146105cf578063dd62ed3e146107e8578063e047838d14610807578063efb43b0714610826578063f1127ed814610548575f80fd5b80639ab24eb01461070f578063a457c2d71461072e578063a9059cbb1461074d578063b2331d7d1461076c578063b3068e411461078b578063c3cda520146107aa575f80fd5b80637ecebe001161010f5780637ecebe001461063757806384b0196e1461066b578063861e3d3d146106925780638e539e8c146106b157806391ddadf4146106d057806395d89b41146106fb575f80fd5b806361f5b530146105485780636855a178146105915780636b4ac502146105b05780636fcfff45146105cf57806370a0823114610603575f80fd5b806332bc74aa116101ec578063506a6f0c116101a6578063506a6f0c1461048c578063535de334146104ab578063587cde1e146104bf5780635b28e1e8146104f65780635c19a95c146105155780635f8d5e7414610534575f80fd5b806332bc74aa146103e257806332cadf3c14610401578063342db73914610415578063395093511461043a5780633a46b1a8146104595780634bf5d7e914610478575f80fd5b8063174ccd821161023d578063174ccd821461033157806318160ddd1461034557806323b872dd146103635780632904df29146103825780632e8fbee5146103a8578063313ce567146103c7575f80fd5b8062cae2201461028257806306fdde03146102a3578063095ea7b3146102cd57806310d2aa7e146102fc5780631164d13b1461031d575f80fd5b3661027e57005b5f80fd5b34801561028d575f80fd5b506102a161029c366004611f1e565b610845565b005b3480156102ae575f80fd5b506102b7610853565b6040516102c49190611f92565b60405180910390f35b3480156102d8575f80fd5b506102ec6102e7366004611fa4565b6108e3565b60405190151581526020016102c4565b348015610307575f80fd5b506040516001600160e01b0381526020016102c4565b348015610328575f80fd5b506102b7610901565b34801561033c575f80fd5b506102b761090b565b348015610350575f80fd5b506002545b6040519081526020016102c4565b34801561036e575f80fd5b506102ec61037d366004611fcc565b610915565b34801561038d575f80fd5b50335b6040516001600160a01b0390911681526020016102c4565b3480156103b3575f80fd5b506103556103c2366004612005565b610938565b3480156103d2575f80fd5b50604051601281526020016102c4565b3480156103ed575f80fd5b506102a16103fc36600461201e565b610998565b34801561040c575f80fd5b506102b76109aa565b348015610420575f80fd5b506103556e1a185c991a185d0b595e1c1bdcd959608a1b81565b348015610445575f80fd5b506102ec610454366004611fa4565b6109e7565b348015610464575f80fd5b50610355610473366004611fa4565b610a08565b348015610483575f80fd5b506102b7610a8c565b348015610497575f80fd5b506103556104a636600461206e565b610af5565b3480156104b6575f80fd5b50610355610aff565b3480156104ca575f80fd5b506103906104d9366004612005565b6001600160a01b039081165f908152600860205260409020541690565b348015610501575f80fd5b506102a1610510366004611fcc565b610b08565b348015610520575f80fd5b506102a161052f366004612005565b610b18565b34801561053f575f80fd5b50610355610b23565b348015610553575f80fd5b50610567610562366004612085565b610b2c565b60408051825163ffffffff1681526020928301516001600160e01b031692810192909252016102c4565b34801561059c575f80fd5b506102a16105ab366004611fcc565b610b50565b3480156105bb575f80fd5b506103556105ca366004611fa4565b610b5b565b3480156105da575f80fd5b506105ee6105e9366004612005565b610ba7565b60405163ffffffff90911681526020016102c4565b34801561060e575f80fd5b5061035561061d366004612005565b6001600160a01b03165f9081526020819052604090205490565b348015610642575f80fd5b50610355610651366004612005565b6001600160a01b03165f9081526007602052604090205490565b348015610676575f80fd5b5061067f610bb1565b6040516102c497969594939291906120c2565b34801561069d575f80fd5b506102a16106ac366004611fcc565b610bf3565b3480156106bc575f80fd5b506103556106cb36600461206e565b610bfe565b3480156106db575f80fd5b506106e4610c67565b60405165ffffffffffff90911681526020016102c4565b348015610706575f80fd5b506102b7610c71565b34801561071a575f80fd5b50610355610729366004612005565b610c80565b348015610739575f80fd5b506102ec610748366004611fa4565b610caf565b348015610758575f80fd5b506102ec610767366004611fa4565b610d05565b348015610777575f80fd5b506102a1610786366004611fcc565b610d12565b348015610796575f80fd5b506103556107a5366004612005565b610d1d565b3480156107b5575f80fd5b506102a16107c4366004612156565b610d27565b3480156107d4575f80fd5b506102a16107e3366004611fa4565b610de4565b3480156107f3575f80fd5b50610355610802366004611f1e565b610dee565b348015610812575f80fd5b506102a1610821366004611fa4565b610e18565b348015610831575f80fd5b506102a1610840366004611fcc565b610e22565b61084f8282610e2d565b5050565b606060038054610862906121b1565b80601f016020809104026020016040519081016040528092919081815260200182805461088e906121b1565b80156108d95780601f106108b0576101008083540402835291602001916108d9565b820191905f5260205f20905b8154815290600101906020018083116108bc57829003601f168201915b5050505050905090565b5f336108f0818585610e9e565b60019150505b92915050565b905090565b60606108fc610eab565b60606108fc610ed8565b5f33610922858285610f05565b61092d858585610f62565b506001949350505050565b6001600160a01b0381165f90815260076020526040812080546001810190915590507f8d5c13b1cd528a3e1895fdc833368c4e3af5391250c736a28e94c4fa59b3cee48160405161098b91815260200190565b60405180910390a1919050565b6109a484848484610fb4565b50505050565b60605f368080601f0160208091040260200160405190810160405280939291908181526020018383808284375f9201919091525092949350505050565b5f336108f08185856109f98383610dee565b610a0391906121fd565b610e9e565b5f80610a12610c67565b90508065ffffffffffff168310610a5257604051637669fc0f60e11b81526004810184905265ffffffffffff821660248201526044015b60405180910390fd5b610a7b610a5e84611086565b6001600160a01b0386165f908152600960205260409020906110ba565b6001600160e01b0316949350505050565b606043610a97610c67565b65ffffffffffff1614610abd576040516301bfc1c560e61b815260040160405180910390fd5b5060408051808201909152601d81527f6d6f64653d626c6f636b6e756d6265722666726f6d3d64656661756c74000000602082015290565b5f6108f682611168565b5f6108fc611194565b610b138383836111ad565b505050565b3361084f8183610e2d565b5f6108fc611227565b604080518082019091525f8082526020820152610b498383611350565b9392505050565b610b13838383611384565b5f610b6683836113e9565b90507f173c6dfbda204d89ae7b46789365591384ef0c959833564582f96cd15f445b9b81604051610b9991815260200190565b60405180910390a192915050565b5f6108f68261143b565b5f6060805f805f6060610bc2610eab565b610bca610ed8565b604080515f80825260208201909252600f60f81b9b939a50919850469750309650945092509050565b610b13838383610e9e565b5f80610c08610c67565b90508065ffffffffffff168310610c4357604051637669fc0f60e11b81526004810184905265ffffffffffff82166024820152604401610a49565b610c57610c4f84611086565b600a906110ba565b6001600160e01b03169392505050565b5f6108fc4361145c565b606060048054610862906121b1565b6001600160a01b0381165f908152600960205260408120610ca09061148e565b6001600160e01b031692915050565b5f3381610cbc8286610dee565b905083811015610cf857604051632983c0c360e21b81526001600160a01b03861660048201526024810182905260448101859052606401610a49565b61092d8286868403610e9e565b5f336108f0818585610f62565b610b13838383610f05565b5f6108f6826114c5565b83421115610d4b57604051632341d78760e11b815260048101859052602401610a49565b604080517fe48329057bfd03d55e49b547132e39cffd9c1820ad7b9d4c5307691425d15adf60208201526001600160a01b0388169181019190915260608101869052608081018590525f90610dc490610dbc9060a00160405160208183030381529060405280519060200120611168565b8585856114e2565b9050610dd081876113e9565b50610ddb8188610e2d565b50505050505050565b61084f828261150e565b6001600160a01b039182165f90815260016020908152604080832093909416825291909152205490565b61084f8282611542565b610b13838383610f62565b6001600160a01b038281165f8181526008602052604080822080548686166001600160a01b0319821681179092559151919094169392849290917f3134e8a2e6d97e929a7e54011ea5485d7d196dd5f0ba4d4ef95803e8e3fc257f9190a4610b138183610e99866114c5565b611576565b610b138383836001610fb4565b60606108fc7f000000000000000000000000000000000000000000000000000000000000000060056116da565b60606108fc7f000000000000000000000000000000000000000000000000000000000000000060066116da565b5f610f108484610dee565b90505f1981146109a45781811015610f5457604051637dc7a0d960e11b81526001600160a01b03841660048201526024810182905260448101839052606401610a49565b6109a484848484035f610fb4565b6001600160a01b038316610f8b57604051634b637e8f60e11b81525f6004820152602401610a49565b6001600160a01b038216610b505760405163ec442f0560e01b81525f6004820152602401610a49565b6001600160a01b038416610fdd5760405163e602df0560e01b81525f6004820152602401610a49565b6001600160a01b03831661100657604051634a1406b160e11b81525f6004820152602401610a49565b6001600160a01b038085165f90815260016020908152604080832093871683529290522082905580156109a457826001600160a01b0316846001600160a01b03167f8c5be1e5ebec7d5bd14f71427d1e84f3dd0314c0f7b2291e5b200ac8c7c3b9258460405161107891815260200190565b60405180910390a350505050565b5f63ffffffff8211156110b6576040516306dfcc6560e41b81526020600482015260248101839052604401610a49565b5090565b81545f9081816005811115611114575f6110d384611783565b6110dd9085612210565b5f8881526020902090915081015463ffffffff908116908716101561110457809150611112565b61110f8160016121fd565b92505b505b5f61112187878585611867565b9050801561115b5761114587611138600184612210565b5f91825260209091200190565b54600160201b90046001600160e01b031661115d565b5f5b979650505050505050565b5f6108f6611174611227565b8360405161190160f01b8152600281019290925260228201526042902090565b5f61119f600a61148e565b6001600160e01b0316905090565b6001600160a01b0383166111d4576111d1600a6118c26111cc846118cd565b611900565b50505b6001600160a01b0382166111f6576111f3600a6119486111cc846118cd565b50505b6001600160a01b038381165f90815260086020526040808220548584168352912054610b1392918216911683611576565b5f306001600160a01b037f00000000000000000000000000000000000000000000000000000000000000001614801561127f57507f000000000000000000000000000000000000000000000000000000000000000046145b156112a957507f000000000000000000000000000000000000000000000000000000000000000090565b6108fc604080517f8b73c3c69bb8fe3d512ecc4cf759cc79239f7b179b0ffacaa9a75d522b39400f60208201527f0000000000000000000000000000000000000000000000000000000000000000918101919091527f000000000000000000000000000000000000000000000000000000000000000060608201524660808201523060a08201525f9060c00160405160208183030381529060405280519060200120905090565b604080518082019091525f80825260208201526001600160a01b0383165f908152600960205260409020610b499083611953565b61138f8383836119be565b6001600160a01b038316610b08575f6113a760025490565b90506001600160e01b03808211156113dc57604051630e58ae9360e11b81526004810183905260248101829052604401610a49565b5050610b138383836111ad565b6001600160a01b0382165f908152600760205260408120805460018101909155808314610b49576040516301d4b62360e61b81526001600160a01b038516600482015260248101829052604401610a49565b6001600160a01b0381165f908152600960205260408120546108f690611086565b5f65ffffffffffff8211156110b6576040516306dfcc6560e41b81526030600482015260248101839052604401610a49565b80545f9080156114bd576114a783611138600184612210565b54600160201b90046001600160e01b0316610b49565b5f9392505050565b6001600160a01b0381165f908152602081905260408120546108f6565b5f805f806114f288888888611ae4565b9250925092506115028282611bac565b50909695505050505050565b6001600160a01b0382166115375760405163ec442f0560e01b81525f6004820152602401610a49565b61084f5f8383611384565b6001600160a01b03821661156b57604051634b637e8f60e11b81525f6004820152602401610a49565b61084f825f83611384565b816001600160a01b0316836001600160a01b03161415801561159757505f81115b15610b13576001600160a01b03831615611639576001600160a01b0383165f90815260096020526040812081906115d4906119486111cc866118cd565b6001600160e01b031691506001600160e01b03169150846001600160a01b03167fdec2bacdd2f05b59de34da9b523dff8be42e5e38e818c82fdb0bae774387a724838360405161162e929190918252602082015260400190565b60405180910390a250505b6001600160a01b03821615610b13576001600160a01b0382165f9081526009602052604081208190611671906118c26111cc866118cd565b6001600160e01b031691506001600160e01b03169150836001600160a01b03167fdec2bacdd2f05b59de34da9b523dff8be42e5e38e818c82fdb0bae774387a72483836040516116cb929190918252602082015260400190565b60405180910390a25050505050565b606060ff83146116f4576116ed83611c64565b90506108f6565b818054611700906121b1565b80601f016020809104026020016040519081016040528092919081815260200182805461172c906121b1565b80156117775780601f1061174e57610100808354040283529160200191611777565b820191905f5260205f20905b81548152906001019060200180831161175a57829003601f168201915b505050505090506108f6565b5f815f0361179257505f919050565b5f600161179e84611ca1565b901c6001901b905060018184816117b7576117b7612223565b048201901c905060018184816117cf576117cf612223565b048201901c905060018184816117e7576117e7612223565b048201901c905060018184816117ff576117ff612223565b048201901c9050600181848161181757611817612223565b048201901c9050600181848161182f5761182f612223565b048201901c9050600181848161184757611847612223565b048201901c9050610b498182858161186157611861612223565b04611d34565b5f5b818310156118ba575f61187c8484611d49565b5f8781526020902090915063ffffffff86169082015463ffffffff1611156118a6578092506118b4565b6118b18160016121fd565b93505b50611869565b509392505050565b5f610b498284612237565b5f6001600160e01b038211156110b6576040516306dfcc6560e41b815260e0600482015260248101839052604401610a49565b5f8061193b61191d611910610c67565b65ffffffffffff16611086565b6119336119298861148e565b868863ffffffff16565b879190611d63565b915091505b935093915050565b5f610b49828461225e565b604080518082019091525f8082526020820152825f018263ffffffff16815481106119805761198061227e565b5f9182526020918290206040805180820190915291015463ffffffff81168252600160201b90046001600160e01b0316918101919091529392505050565b6001600160a01b0383166119e8578060025f8282546119dd91906121fd565b90915550611a589050565b6001600160a01b0383165f9081526020819052604090205481811015611a3a5760405163391434e360e21b81526001600160a01b03851660048201526024810182905260448101839052606401610a49565b6001600160a01b0384165f9081526020819052604090209082900390555b6001600160a01b038216611a7457600280548290039055611a92565b6001600160a01b0382165f9081526020819052604090208054820190555b816001600160a01b0316836001600160a01b03167fddf252ad1be2c89b69c2b068fc378daa952ba7f163c4a11628f55a4df523b3ef83604051611ad791815260200190565b60405180910390a3505050565b5f80807f7fffffffffffffffffffffffffffffff5d576e7357a4501ddfe92f46681b20a0841115611b1d57505f91506003905082611ba2565b604080515f808252602082018084528a905260ff891692820192909252606081018790526080810186905260019060a0016020604051602081039080840390855afa158015611b6e573d5f803e3d5ffd5b5050604051601f1901519150506001600160a01b038116611b9957505f925060019150829050611ba2565b92505f91508190505b9450945094915050565b5f826003811115611bbf57611bbf612292565b03611bc8575050565b6001826003811115611bdc57611bdc612292565b03611bfa5760405163f645eedf60e01b815260040160405180910390fd5b6002826003811115611c0e57611c0e612292565b03611c2f5760405163fce698f760e01b815260048101829052602401610a49565b6003826003811115611c4357611c43612292565b0361084f576040516335e2f38360e21b815260048101829052602401610a49565b60605f611c7083611d70565b6040805160208082528183019092529192505f91906020820181803683375050509182525060208101929092525090565b5f80608083901c15611cb557608092831c92015b604083901c15611cc757604092831c92015b602083901c15611cd957602092831c92015b601083901c15611ceb57601092831c92015b600883901c15611cfd57600892831c92015b600483901c15611d0f57600492831c92015b600283901c15611d2157600292831c92015b600183901c156108f65760010192915050565b5f818310611d425781610b49565b5090919050565b5f611d5760028484186122a6565b610b49908484166121fd565b5f8061193b858585611d97565b5f60ff8216601f8111156108f657604051632cd44ac360e21b815260040160405180910390fd5b82545f9081908015611eab575f611db387611138600185612210565b60408051808201909152905463ffffffff808216808452600160201b9092046001600160e01b031660208401529192509087161015611e0557604051632520601d60e01b815260040160405180910390fd5b805163ffffffff808816911603611e4d5784611e2688611138600186612210565b80546001600160e01b0392909216600160201b0263ffffffff909216919091179055611e9b565b6040805180820190915263ffffffff80881682526001600160e01b0380881660208085019182528b54600181018d555f8d81529190912094519151909216600160201b029216919091179101555b6020015192508391506119409050565b50506040805180820190915263ffffffff80851682526001600160e01b0380851660208085019182528854600181018a555f8a815291822095519251909316600160201b029190931617920191909155905081611940565b80356001600160a01b0381168114611f19575f80fd5b919050565b5f8060408385031215611f2f575f80fd5b611f3883611f03565b9150611f4660208401611f03565b90509250929050565b5f81518084525f5b81811015611f7357602081850181015186830182015201611f57565b505f602082860101526020601f19601f83011685010191505092915050565b602081525f610b496020830184611f4f565b5f8060408385031215611fb5575f80fd5b611fbe83611f03565b946020939093013593505050565b5f805f60608486031215611fde575f80fd5b611fe784611f03565b9250611ff560208501611f03565b9150604084013590509250925092565b5f60208284031215612015575f80fd5b610b4982611f03565b5f805f8060808587031215612031575f80fd5b61203a85611f03565b935061204860208601611f03565b92506040850135915060608501358015158114612063575f80fd5b939692955090935050565b5f6020828403121561207e575f80fd5b5035919050565b5f8060408385031215612096575f80fd5b61209f83611f03565b9150602083013563ffffffff811681146120b7575f80fd5b809150509250929050565b60ff60f81b881681525f602060e0818401526120e160e084018a611f4f565b83810360408501526120f3818a611f4f565b606085018990526001600160a01b038816608086015260a0850187905284810360c086015285518082528387019250908301905f5b8181101561214457835183529284019291840191600101612128565b50909c9b505050505050505050505050565b5f805f805f8060c0878903121561216b575f80fd5b61217487611f03565b95506020870135945060408701359350606087013560ff81168114612197575f80fd5b9598949750929560808101359460a0909101359350915050565b600181811c908216806121c557607f821691505b6020821081036121e357634e487b7160e01b5f52602260045260245ffd5b50919050565b634e487b7160e01b5f52601160045260245ffd5b808201808211156108f6576108f66121e9565b818103818111156108f6576108f66121e9565b634e487b7160e01b5f52601260045260245ffd5b6001600160e01b03818116838216019080821115612257576122576121e9565b5092915050565b6001600160e01b03828116828216039080821115612257576122576121e9565b634e487b7160e01b5f52603260045260245ffd5b634e487b7160e01b5f52602160045260245ffd5b5f826122c057634e487b7160e01b5f52601260045260245ffd5b50049056fea2646970667358221220e9bc224277cd2099c27286ea6f1e118464aa6408fe7173fc0955d47617005abe64736f6c63430008140033",
  "linkReferences": {},
  "deployedLinkReferences": {}
}