{
  "_format": "hh-sol-artifact-1",
  "contractName": "$StorageSlotMock",
  "sourceName": "contracts-exposed/mocks/StorageSlotMock.sol",
  "abi": [
    {
      "inputs": [],
      "stateMutability": "payable",
      "type": "constructor"
    },
    {
      "inputs": [],
      "name": "__hh_exposed_bytecode_marker",
      "outputs": [
        {
          "internalType": "bytes32",
          "name": "",
          "type": "bytes32"
        }
      ],
      "stateMutability": "view",
      "type": "function"
    },
    {
      "inputs": [
        {
          "internalType": "uint256",
          "name": "",
          "type": "uint256"
        }
      ],
      "name": "bytesMap",
      "outputs": [
        {
          "internalType": "bytes",
          "name": "",
          "type": "bytes"
        }
      ],
      "stateMutability": "view",
      "type": "function"
    },
    {
      "inputs": [
        {
          "internalType": "bytes32",
          "name": "slot",
          "type": "bytes32"
        }
      ],
      "name": "getAddress",
      "outputs": [
        {
          "internalType": "address",
          "name": "",
          "type": "address"
        }
      ],
      "stateMutability": "view",
      "type": "function"
    },
    {
      "inputs": [
        {
          "internalType": "bytes32",
          "name": "slot",
          "type": "bytes32"
        }
      ],
      "name": "getBoolean",
      "outputs": [
        {
          "internalType": "bool",
          "name": "",
          "type": "bool"
        }
      ],
      "stateMutability": "view",
      "type": "function"
    },
    {
      "inputs": [
        {
          "internalType": "bytes32",
          "name": "slot",
          "type": "bytes32"
        }
      ],
      "name": "getBytes",
      "outputs": [
        {
          "internalType": "bytes",
          "name": "",
          "type": "bytes"
        }
      ],
      "stateMutability": "view",
      "type": "function"
    },
    {
      "inputs": [
        {
          "internalType": "bytes32",
          "name": "slot",
          "type": "bytes32"
        }
      ],
      "name": "getBytes32",
      "outputs": [
        {
          "internalType": "bytes32",
          "name": "",
          "type": "bytes32"
        }
      ],
      "stateMutability": "view",
      "type": "function"
    },
    {
      "inputs": [
        {
          "internalType": "uint256",
          "name": "key",
          "type": "uint256"
        }
      ],
      "name": "getBytesStorage",
      "outputs": [
        {
          "internalType": "bytes",
          "name": "",
          "type": "bytes"
        }
      ],
      "stateMutability": "view",
      "type": "function"
    },
    {
      "inputs": [
        {
          "internalType": "bytes32",
          "name": "slot",
          "type": "bytes32"
        }
      ],
      "name": "getString",
      "outputs": [
        {
          "internalType": "string",
          "name": "",
          "type": "string"
        }
      ],
      "stateMutability": "view",
      "type": "function"
    },
    {
      "inputs": [
        {
          "internalType": "uint256",
          "name": "key",
          "type": "uint256"
        }
      ],
      "name": "getStringStorage",
      "outputs": [
        {
          "internalType": "string",
          "name": "",
          "type": "string"
        }
      ],
      "stateMutability": "view",
      "type": "function"
    },
    {
      "inputs": [
        {
          "internalType": "bytes32",
          "name": "slot",
          "type": "bytes32"
        }
      ],
      "name": "getUint256",
      "outputs": [
        {
          "internalType": "uint256",
          "name": "",
          "type": "uint256"
        }
      ],
      "stateMutability": "view",
      "type": "function"
    },
    {
      "inputs": [
        {
          "internalType": "bytes32",
          "name": "slot",
          "type": "bytes32"
        },
        {
          "internalType": "address",
          "name": "value",
          "type": "address"
        }
      ],
      "name": "setAddress",
      "outputs": [],
      "stateMutability": "nonpayable",
      "type": "function"
    },
    {
      "inputs": [
        {
          "internalType": "bytes32",
          "name": "slot",
          "type": "bytes32"
        },
        {
          "internalType": "bool",
          "name": "value",
          "type": "bool"
        }
      ],
      "name": "setBoolean",
      "outputs": [],
      "stateMutability": "nonpayable",
      "type": "function"
    },
    {
      "inputs": [
        {
          "internalType": "bytes32",
          "name": "slot",
          "type": "bytes32"
        },
        {
          "internalType": "bytes",
          "name": "value",
          "type": "bytes"
        }
      ],
      "name": "setBytes",
      "outputs": [],
      "stateMutability": "nonpayable",
      "type": "function"
    },
    {
      "inputs": [
        {
          "internalType": "bytes32",
          "name": "slot",
          "type": "bytes32"
        },
        {
          "internalType": "bytes32",
          "name": "value",
          "type": "bytes32"
        }
      ],
      "name": "setBytes32",
      "outputs": [],
      "stateMutability": "nonpayable",
      "type": "function"
    },
    {
      "inputs": [
        {
          "internalType": "uint256",
          "name": "key",
          "type": "uint256"
        },
        {
          "internalType": "bytes",
          "name": "value",
          "type": "bytes"
        }
      ],
      "name": "setBytesStorage",
      "outputs": [],
      "stateMutability": "nonpayable",
      "type": "function"
    },
    {
      "inputs": [
        {
          "internalType": "bytes32",
          "name": "slot",
          "type": "bytes32"
        },
        {
          "internalType": "string",
          "name": "value",
          "type": "string"
        }
      ],
      "name": "setString",
      "outputs": [],
      "stateMutability": "nonpayable",
      "type": "function"
    },
    {
      "inputs": [
        {
          "internalType": "uint256",
          "name": "key",
          "type": "uint256"
        },
        {
          "internalType": "string",
          "name": "value",
          "type": "string"
        }
      ],
      "name": "setStringStorage",
      "outputs": [],
      "stateMutability": "nonpayable",
      "type": "function"
    },
    {
      "inputs": [
        {
          "internalType": "bytes32",
          "name": "slot",
          "type": "bytes32"
        },
        {
          "internalType": "uint256",
          "name": "value",
          "type": "uint256"
        }
      ],
      "name": "setUint256",
      "outputs": [],
      "stateMutability": "nonpayable",
      "type": "function"
    },
    {
      "inputs": [
        {
          "internalType": "uint256",
          "name": "",
          "type": "uint256"
        }
      ],
      "name": "stringMap",
      "outputs": [
        {
          "internalType": "string",
          "name": "",
          "type": "string"
        }
      ],
      "stateMutability": "view",
      "type": "function"
    },
    {
      "stateMutability": "payable",
      "type": "receive"
    }
  ],
  "bytecode": "0x6080604052610825806100115f395ff3fe608060405260043610610113575f3560e01c80634f3029c21161009d578063a6ed563e11610062578063a6ed563e146101d2578063c031a180146102b0578063ca446dd9146102ee578063df6e58d614610325578063f8715b3e14610344575f80fd5b80634f3029c2146102735780635a46e25d146102915780636e899550146101b3578063986e791a146102b05780639b22f343146102cf575f80fd5b806333598b00116100e357806333598b00146101d2578063342db739146101fe5780633848207a146102235780633e60bd78146102545780634e91db0814610273575f80fd5b80630afb30ba1461011e5780631e133d0f1461013f57806321f8a721146101745780632e28d084146101b3575f80fd5b3661011a57005b5f80fd5b348015610129575f80fd5b5061013d61013836600461055e565b61036c565b005b34801561014a575f80fd5b5061015e6101593660046105a6565b610390565b60405161016b9190610600565b60405180910390f35b34801561017f575f80fd5b5061019b61018e3660046105a6565b546001600160a01b031690565b6040516001600160a01b03909116815260200161016b565b3480156101be575f80fd5b5061013d6101cd36600461055e565b610427565b3480156101dd575f80fd5b506101f06101ec3660046105a6565b5490565b60405190815260200161016b565b348015610209575f80fd5b506101f06e1a185c991a185d0b595e1c1bdcd959608a1b81565b34801561022e575f80fd5b5061024461023d3660046105a6565b5460ff1690565b604051901515815260200161016b565b34801561025f575f80fd5b5061013d61026e36600461055e565b61042f565b34801561027e575f80fd5b5061013d61028d366004610619565b9055565b34801561029c575f80fd5b5061015e6102ab3660046105a6565b610445565b3480156102bb575f80fd5b5061015e6102ca3660046105a6565b61045d565b3480156102da575f80fd5b5061015e6102e93660046105a6565b6104ef565b3480156102f9575f80fd5b5061013d610308366004610639565b81546001600160a01b0319166001600160a01b0391909116179055565b348015610330575f80fd5b5061015e61033f3660046105a6565b610504565b34801561034f575f80fd5b5061013d61035e366004610672565b815460ff1916901515179055565b5f838152600160205260409020829082905b9161038a919083610733565b50505050565b5f60208190529081526040902080546103a8906106ad565b80601f01602080910402602001604051908101604052809291908181526020018280546103d4906106ad565b801561041f5780601f106103f65761010080835404028352916020019161041f565b820191905f5260205f20905b81548152906001019060200180831161040257829003601f168201915b505050505081565b81818461037e565b5f8381526020819052604090208290829061037e565b60016020525f9081526040902080546103a8906106ad565b6060815b805461046c906106ad565b80601f0160208091040260200160405190810160405280929190818152602001828054610498906106ad565b80156104e35780601f106104ba576101008083540402835291602001916104e3565b820191905f5260205f20905b8154815290600101906020018083116104c657829003601f168201915b50505050509050919050565b5f818152600160205260409020606090610461565b5f818152602081905260409020606090610461565b5f8083601f840112610529575f80fd5b50813567ffffffffffffffff811115610540575f80fd5b602083019150836020828501011115610557575f80fd5b9250929050565b5f805f60408486031215610570575f80fd5b83359250602084013567ffffffffffffffff81111561058d575f80fd5b61059986828701610519565b9497909650939450505050565b5f602082840312156105b6575f80fd5b5035919050565b5f81518084525f5b818110156105e1576020818501810151868301820152016105c5565b505f602082860101526020601f19601f83011685010191505092915050565b602081525f61061260208301846105bd565b9392505050565b5f806040838503121561062a575f80fd5b50508035926020909101359150565b5f806040838503121561064a575f80fd5b8235915060208301356001600160a01b0381168114610667575f80fd5b809150509250929050565b5f8060408385031215610683575f80fd5b8235915060208301358015158114610667575f80fd5b634e487b7160e01b5f52604160045260245ffd5b600181811c908216806106c157607f821691505b6020821081036106df57634e487b7160e01b5f52602260045260245ffd5b50919050565b601f82111561072e575f81815260208120601f850160051c8101602086101561070b5750805b601f850160051c820191505b8181101561072a57828155600101610717565b5050505b505050565b67ffffffffffffffff83111561074b5761074b610699565b61075f8361075983546106ad565b836106e5565b5f601f841160018114610790575f85156107795750838201355b5f19600387901b1c1916600186901b1783556107e8565b5f83815260209020601f19861690835b828110156107c057868501358255602094850194600190920191016107a0565b50868210156107dc575f1960f88860031b161c19848701351681555b505060018560011b0183555b505050505056fea264697066735822122058825b9d40d85013705197f1068af113d09fe4aece9da6a947858567da76a06864736f6c63430008140033",
  "linkReferences": {},
  "deployedLinkReferences": {}
}