{
  "_format": "hh-sol-artifact-1",
  "contractName": "$ECDSA",
  "sourceName": "contracts-exposed/utils/cryptography/ECDSA.sol",
  "abi": [
    {
      "inputs": [],
      "stateMutability": "payable",
      "type": "constructor"
    },
    {
      "inputs": [],
      "name": "ECDSAInvalidSignature",
      "type": "error"
    },
    {
      "inputs": [
        {
          "internalType": "uint256",
          "name": "length",
          "type": "uint256"
        }
      ],
      "name": "ECDSAInvalidSignatureLength",
      "type": "error"
    },
    {
      "inputs": [
        {
          "internalType": "bytes32",
          "name": "s",
          "type": "bytes32"
        }
      ],
      "name": "ECDSAInvalidSignatureS",
      "type": "error"
    },
    {
      "inputs": [
        {
          "internalType": "bytes32",
          "name": "hash",
          "type": "bytes32"
        },
        {
          "internalType": "bytes32",
          "name": "r",
          "type": "bytes32"
        },
        {
          "internalType": "bytes32",
          "name": "vs",
          "type": "bytes32"
        }
      ],
      "name": "$recover",
      "outputs": [
        {
          "internalType": "address",
          "name": "ret0",
          "type": "address"
        }
      ],
      "stateMutability": "pure",
      "type": "function"
    },
    {
      "inputs": [
        {
          "internalType": "bytes32",
          "name": "hash",
          "type": "bytes32"
        },
        {
          "internalType": "bytes",
          "name": "signature",
          "type": "bytes"
        }
      ],
      "name": "$recover",
      "outputs": [
        {
          "internalType": "address",
          "name": "ret0",
          "type": "address"
        }
      ],
      "stateMutability": "pure",
      "type": "function"
    },
    {
      "inputs": [
        {
          "internalType": "bytes32",
          "name": "hash",
          "type": "bytes32"
        },
        {
          "internalType": "uint8",
          "name": "v",
          "type": "uint8"
        },
        {
          "internalType": "bytes32",
          "name": "r",
          "type": "bytes32"
        },
        {
          "internalType": "bytes32",
          "name": "s",
          "type": "bytes32"
        }
      ],
      "name": "$recover",
      "outputs": [
        {
          "internalType": "address",
          "name": "ret0",
          "type": "address"
        }
      ],
      "stateMutability": "pure",
      "type": "function"
    },
    {
      "inputs": [
        {
          "internalType": "bytes32",
          "name": "hash",
          "type": "bytes32"
        },
        {
          "internalType": "uint8",
          "name": "v",
          "type": "uint8"
        },
        {
          "internalType": "bytes32",
          "name": "r",
          "type": "bytes32"
        },
        {
          "internalType": "bytes32",
          "name": "s",
          "type": "bytes32"
        }
      ],
      "name": "$tryRecover",
      "outputs": [
        {
          "internalType": "address",
          "name": "ret0",
          "type": "address"
        },
        {
          "internalType": "enum ECDSA.RecoverError",
          "name": "ret1",
          "type": "uint8"
        },
        {
          "internalType": "bytes32",
          "name": "ret2",
          "type": "bytes32"
        }
      ],
      "stateMutability": "pure",
      "type": "function"
    },
    {
      "inputs": [
        {
          "internalType": "bytes32",
          "name": "hash",
          "type": "bytes32"
        },
        {
          "internalType": "bytes",
          "name": "signature",
          "type": "bytes"
        }
      ],
      "name": "$tryRecover",
      "outputs": [
        {
          "internalType": "address",
          "name": "ret0",
          "type": "address"
        },
        {
          "internalType": "enum ECDSA.RecoverError",
          "name": "ret1",
          "type": "uint8"
        },
        {
          "internalType": "bytes32",
          "name": "ret2",
          "type": "bytes32"
        }
      ],
      "stateMutability": "pure",
      "type": "function"
    },
    {
      "inputs": [
        {
          "internalType": "bytes32",
          "name": "hash",
          "type": "bytes32"
        },
        {
          "internalType": "bytes32",
          "name": "r",
          "type": "bytes32"
        },
        {
          "internalType": "bytes32",
          "name": "vs",
          "type": "bytes32"
        }
      ],
      "name": "$tryRecover",
      "outputs": [
        {
          "internalType": "address",
          "name": "ret0",
          "type": "address"
        },
        {
          "internalType": "enum ECDSA.RecoverError",
          "name": "ret1",
          "type": "uint8"
        },
        {
          "internalType": "bytes32",
          "name": "ret2",
          "type": "bytes32"
        }
      ],
      "stateMutability": "pure",
      "type": "function"
    },
    {
      "inputs": [],
      "name": "__hh_exposed_bytecode_marker",
      "outputs": [
        {
          "internalType": "bytes32",
          "name": "",
          "type": "bytes32"
        }
      ],
      "stateMutability": "view",
      "type": "function"
    },
    {
      "stateMutability": "payable",
      "type": "receive"
    }
  ],
  "bytecode": "0x6080604052610663806100115f395ff3fe608060405260043610610071575f3560e01c806348fdf8e01161004c57806348fdf8e0146101195780638bbed7a81461013857806399b4d4a014610157578063e17d79fa14610176575f80fd5b80632f2340991461007c578063342db739146100b85780633e4c4e97146100eb575f80fd5b3661007857005b5f80fd5b348015610087575f80fd5b5061009b6100963660046104ff565b610195565b6040516001600160a01b0390911681526020015b60405180910390f35b3480156100c3575f80fd5b506100dd6e1a185c991a185d0b595e1c1bdcd959608a1b81565b6040519081526020016100af565b3480156100f6575f80fd5b5061010a610105366004610528565b6101a9565b6040516100af9392919061057b565b348015610124575f80fd5b5061010a6101333660046105b8565b6101c8565b348015610143575f80fd5b5061009b6101523660046105b8565b610219565b348015610162575f80fd5b5061009b610171366004610528565b610259565b348015610181575f80fd5b5061010a6101903660046104ff565b61026f565b5f6101a184848461027d565b949350505050565b5f805f6101b8878787876102a7565b9199909850909650945050505050565b5f805f61020a8686868080601f0160208091040260200160405190810160405280939291908181526020018383808284375f9201919091525061036f92505050565b91989097509095509350505050565b5f6101a18484848080601f0160208091040260200160405190810160405280939291908181526020018383808284375f920191909152506103b892505050565b5f610266858585856103e0565b95945050505050565b5f805f61020a86868661040c565b5f805f8061028c87878761040c565b92509250925061029c828261043e565b509095945050505050565b5f80807f7fffffffffffffffffffffffffffffff5d576e7357a4501ddfe92f46681b20a08411156102e057505f91506003905082610365565b604080515f808252602082018084528a905260ff891692820192909252606081018790526080810186905260019060a0016020604051602081039080840390855afa158015610331573d5f803e3d5ffd5b5050604051601f1901519150506001600160a01b03811661035c57505f925060019150829050610365565b92505f91508190505b9450945094915050565b5f805f83516041036103a6576020840151604085015160608601515f1a610398888285856102a7565b9550955095505050506103b1565b505081515f91506002905b9250925092565b5f805f806103c6868661036f565b9250925092506103d6828261043e565b5090949350505050565b5f805f806103f0888888886102a7565b925092509250610400828261043e565b50909695505050505050565b5f80806001600160ff1b038416601b60ff86901c0161042d888289856102a7565b945094509450505093509350939050565b5f82600381111561045157610451610567565b0361045a575050565b600182600381111561046e5761046e610567565b0361048c5760405163f645eedf60e01b815260040160405180910390fd5b60028260038111156104a0576104a0610567565b036104c65760405163fce698f760e01b8152600481018290526024015b60405180910390fd5b60038260038111156104da576104da610567565b036104fb576040516335e2f38360e21b8152600481018290526024016104bd565b5050565b5f805f60608486031215610511575f80fd5b505081359360208301359350604090920135919050565b5f805f806080858703121561053b575f80fd5b84359350602085013560ff81168114610552575f80fd5b93969395505050506040820135916060013590565b634e487b7160e01b5f52602160045260245ffd5b6001600160a01b038416815260608101600484106105a757634e487b7160e01b5f52602160045260245ffd5b602082019390935260400152919050565b5f805f604084860312156105ca575f80fd5b83359250602084013567ffffffffffffffff808211156105e8575f80fd5b818601915086601f8301126105fb575f80fd5b813581811115610609575f80fd5b87602082850101111561061a575f80fd5b602083019450809350505050925092509256fea26469706673582212207e768d42c81735754634aff72bd465d3d25d9afdddc25842c06a17798237a25f64736f6c63430008140033",
  "linkReferences": {},
  "deployedLinkReferences": {}
}