{
  "_format": "hh-sol-artifact-1",
  "contractName": "$ERC1155Holder",
  "sourceName": "contracts-exposed/token/ERC1155/utils/ERC1155Holder.sol",
  "abi": [
    {
      "inputs": [],
      "stateMutability": "payable",
      "type": "constructor"
    },
    {
      "inputs": [],
      "name": "__hh_exposed_bytecode_marker",
      "outputs": [
        {
          "internalType": "bytes32",
          "name": "",
          "type": "bytes32"
        }
      ],
      "stateMutability": "view",
      "type": "function"
    },
    {
      "inputs": [
        {
          "internalType": "address",
          "name": "",
          "type": "address"
        },
        {
          "internalType": "address",
          "name": "",
          "type": "address"
        },
        {
          "internalType": "uint256[]",
          "name": "",
          "type": "uint256[]"
        },
        {
          "internalType": "uint256[]",
          "name": "",
          "type": "uint256[]"
        },
        {
          "internalType": "bytes",
          "name": "",
          "type": "bytes"
        }
      ],
      "name": "onERC1155BatchReceived",
      "outputs": [
        {
          "internalType": "bytes4",
          "name": "",
          "type": "bytes4"
        }
      ],
      "stateMutability": "nonpayable",
      "type": "function"
    },
    {
      "inputs": [
        {
          "internalType": "address",
          "name": "",
          "type": "address"
        },
        {
          "internalType": "address",
          "name": "",
          "type": "address"
        },
        {
          "internalType": "uint256",
          "name": "",
          "type": "uint256"
        },
        {
          "internalType": "uint256",
          "name": "",
          "type": "uint256"
        },
        {
          "internalType": "bytes",
          "name": "",
          "type": "bytes"
        }
      ],
      "name": "onERC1155Received",
      "outputs": [
        {
          "internalType": "bytes4",
          "name": "",
          "type": "bytes4"
        }
      ],
      "stateMutability": "nonpayable",
      "type": "function"
    },
    {
      "inputs": [
        {
          "internalType": "bytes4",
          "name": "interfaceId",
          "type": "bytes4"
        }
      ],
      "name": "supportsInterface",
      "outputs": [
        {
          "internalType": "bool",
          "name": "",
          "type": "bool"
        }
      ],
      "stateMutability": "view",
      "type": "function"
    },
    {
      "stateMutability": "payable",
      "type": "receive"
    }
  ],
  "bytecode": "0x6080604052610408806100115f395ff3fe608060405260043610610041575f3560e01c806301ffc9a71461004c578063342db73914610080578063bc197c81146100b3578063f23a6e61146100f7575f80fd5b3661004857005b5f80fd5b348015610057575f80fd5b5061006b610066366004610158565b610122565b60405190151581526020015b60405180910390f35b34801561008b575f80fd5b506100a56e1a185c991a185d0b595e1c1bdcd959608a1b81565b604051908152602001610077565b3480156100be575f80fd5b506100de6100cd3660046102cf565b63bc197c8160e01b95945050505050565b6040516001600160e01b03199091168152602001610077565b348015610102575f80fd5b506100de610111366004610372565b63f23a6e6160e01b95945050505050565b5f6001600160e01b03198216630271189760e51b148061015257506301ffc9a760e01b6001600160e01b03198316145b92915050565b5f60208284031215610168575f80fd5b81356001600160e01b03198116811461017f575f80fd5b9392505050565b80356001600160a01b038116811461019c575f80fd5b919050565b634e487b7160e01b5f52604160045260245ffd5b604051601f8201601f1916810167ffffffffffffffff811182821017156101de576101de6101a1565b604052919050565b5f82601f8301126101f5575f80fd5b8135602067ffffffffffffffff821115610211576102116101a1565b8160051b6102208282016101b5565b9283528481018201928281019087851115610239575f80fd5b83870192505b848310156102585782358252918301919083019061023f565b979650505050505050565b5f82601f830112610272575f80fd5b813567ffffffffffffffff81111561028c5761028c6101a1565b61029f601f8201601f19166020016101b5565b8181528460208386010111156102b3575f80fd5b816020850160208301375f918101602001919091529392505050565b5f805f805f60a086880312156102e3575f80fd5b6102ec86610186565b94506102fa60208701610186565b9350604086013567ffffffffffffffff80821115610316575f80fd5b61032289838a016101e6565b94506060880135915080821115610337575f80fd5b61034389838a016101e6565b93506080880135915080821115610358575f80fd5b5061036588828901610263565b9150509295509295909350565b5f805f805f60a08688031215610386575f80fd5b61038f86610186565b945061039d60208701610186565b93506040860135925060608601359150608086013567ffffffffffffffff8111156103c6575f80fd5b6103658882890161026356fea264697066735822122032e433268310774dfe1fc768878f22ffa5edf9c220af6c9b51d5498325c88b2c64736f6c63430008140033",
  "linkReferences": {},
  "deployedLinkReferences": {}
}