{"abi":[{"type":"function","name":"checkReturnValues","inputs":[{"name":"multicallToken","type":"address","internalType":"contract ERC20MulticallMock"},{"name":"recipients","type":"address[]","internalType":"address[]"},{"name":"amounts","type":"uint256[]","internalType":"uint256[]"}],"outputs":[],"stateMutability":"nonpayable"}],"bytecode":{"object":"0x6080604052348015600f57600080fd5b506105c08061001f6000396000f3fe608060405234801561001057600080fd5b506004361061002b5760003560e01c8063b568d01614610030575b600080fd5b61004361003e366004610290565b610045565b005b60008367ffffffffffffffff81111561006057610060610318565b60405190808252806020026020018201604052801561009357816020015b606081526020019060019003908161007e5790505b50905060005b8481101561015f57866001600160a01b031663a9059cbb8787848181106100c2576100c261032e565b90506020020160208101906100d79190610344565b8686858181106100e9576100e961032e565b6040516001600160a01b0390941660248501526020029190910135604483015250606401604051602081830303815290604052915060e01b6020820180516001600160e01b03838183161783525050505082828151811061014c5761014c61032e565b6020908102919091010152600101610099565b50604051631592ca1b60e31b81526000906001600160a01b0388169063ac9650d89061018f90859060040161038c565b6000604051808303816000875af11580156101ae573d6000803e3d6000fd5b505050506040513d6000823e601f3d908101601f191682016040526101d6919081019061043d565b905060005b8151811015610222578181815181106101f6576101f661032e565b60200260200101518060200190518101906102119190610568565b61021a57600080fd5b6001016101db565b5050505050505050565b6001600160a01b038116811461024157600080fd5b50565b60008083601f84011261025657600080fd5b50813567ffffffffffffffff81111561026e57600080fd5b6020830191508360208260051b850101111561028957600080fd5b9250929050565b6000806000806000606086880312156102a857600080fd5b85356102b38161022c565b9450602086013567ffffffffffffffff8111156102cf57600080fd5b6102db88828901610244565b909550935050604086013567ffffffffffffffff8111156102fb57600080fd5b61030788828901610244565b969995985093965092949392505050565b634e487b7160e01b600052604160045260246000fd5b634e487b7160e01b600052603260045260246000fd5b60006020828403121561035657600080fd5b81356103618161022c565b9392505050565b60005b8381101561038357818101518382015260200161036b565b50506000910152565b6000602082016020835280845180835260408501915060408160051b86010192506020860160005b8281101561040057603f19878603018452815180518087526103dd816020890160208501610368565b601f01601f191695909501602090810195509384019391909101906001016103b4565b50929695505050505050565b604051601f8201601f1916810167ffffffffffffffff8111828210171561043557610435610318565b604052919050565b60006020828403121561044f57600080fd5b815167ffffffffffffffff81111561046657600080fd5b8201601f8101841361047757600080fd5b805167ffffffffffffffff81111561049157610491610318565b8060051b6104a16020820161040c565b918252602081840181019290810190878411156104bd57600080fd5b6020850192505b8383101561055d57825167ffffffffffffffff8111156104e357600080fd5b8501603f810189136104f457600080fd5b602081015167ffffffffffffffff81111561051157610511610318565b610524601f8201601f191660200161040c565b8181526040838301018b101561053957600080fd5b61054a826020830160408601610368565b84525050602092830192909101906104c4565b979650505050505050565b60006020828403121561057a57600080fd5b8151801515811461036157600080fdfea26469706673582212208cd629c19f065f9b8812e9cdff90568260bc00e1409e7096fcde0f9469d74e3b64736f6c634300081b0033","linkReferences":{}},"methodIdentifiers":{"checkReturnValues(address,address[],uint256[])":"b568d016"},"id":76}