{
  "_format": "hh-sol-artifact-1",
  "contractName": "AddressFnPointerMock",
  "sourceName": "contracts/mocks/AddressFnPointersMock.sol",
  "abi": [
    {
      "inputs": [
        {
          "internalType": "address",
          "name": "target",
          "type": "address"
        }
      ],
      "name": "AddressEmptyCode",
      "type": "error"
    },
    {
      "inputs": [
        {
          "internalType": "address",
          "name": "account",
          "type": "address"
        }
      ],
      "name": "AddressInsufficientBalance",
      "type": "error"
    },
    {
      "inputs": [],
      "name": "CustomRevert",
      "type": "error"
    },
    {
      "inputs": [],
      "name": "FailedInnerCall",
      "type": "error"
    },
    {
      "inputs": [
        {
          "internalType": "address",
          "name": "target",
          "type": "address"
        },
        {
          "internalType": "bytes",
          "name": "data",
          "type": "bytes"
        }
      ],
      "name": "functionCall",
      "outputs": [
        {
          "internalType": "bytes",
          "name": "",
          "type": "bytes"
        }
      ],
      "stateMutability": "nonpayable",
      "type": "function"
    },
    {
      "inputs": [
        {
          "internalType": "address",
          "name": "target",
          "type": "address"
        },
        {
          "internalType": "bytes",
          "name": "data",
          "type": "bytes"
        },
        {
          "internalType": "uint256",
          "name": "value",
          "type": "uint256"
        }
      ],
      "name": "functionCallWithValue",
      "outputs": [
        {
          "internalType": "bytes",
          "name": "",
          "type": "bytes"
        }
      ],
      "stateMutability": "nonpayable",
      "type": "function"
    },
    {
      "inputs": [
        {
          "internalType": "address",
          "name": "target",
          "type": "address"
        },
        {
          "internalType": "bytes",
          "name": "data",
          "type": "bytes"
        }
      ],
      "name": "functionDelegateCall",
      "outputs": [
        {
          "internalType": "bytes",
          "name": "",
          "type": "bytes"
        }
      ],
      "stateMutability": "nonpayable",
      "type": "function"
    },
    {
      "inputs": [
        {
          "internalType": "address",
          "name": "target",
          "type": "address"
        },
        {
          "internalType": "bytes",
          "name": "data",
          "type": "bytes"
        }
      ],
      "name": "functionStaticCall",
      "outputs": [
        {
          "internalType": "bytes",
          "name": "",
          "type": "bytes"
        }
      ],
      "stateMutability": "view",
      "type": "function"
    },
    {
      "inputs": [
        {
          "internalType": "bool",
          "name": "success",
          "type": "bool"
        },
        {
          "internalType": "bytes",
          "name": "returndata",
          "type": "bytes"
        }
      ],
      "name": "verifyCallResult",
      "outputs": [
        {
          "internalType": "bytes",
          "name": "",
          "type": "bytes"
        }
      ],
      "stateMutability": "view",
      "type": "function"
    },
    {
      "inputs": [
        {
          "internalType": "address",
          "name": "target",
          "type": "address"
        },
        {
          "internalType": "bool",
          "name": "success",
          "type": "bool"
        },
        {
          "internalType": "bytes",
          "name": "returndata",
          "type": "bytes"
        }
      ],
      "name": "verifyCallResultFromTarget",
      "outputs": [
        {
          "internalType": "bytes",
          "name": "",
          "type": "bytes"
        }
      ],
      "stateMutability": "view",
      "type": "function"
    },
    {
      "inputs": [
        {
          "internalType": "bool",
          "name": "success",
          "type": "bool"
        },
        {
          "internalType": "bytes",
          "name": "returndata",
          "type": "bytes"
        }
      ],
      "name": "verifyCallResultVoid",
      "outputs": [
        {
          "internalType": "bytes",
          "name": "",
          "type": "bytes"
        }
      ],
      "stateMutability": "view",
      "type": "function"
    }
  ],
  "bytecode": "0x608060405234801561000f575f80fd5b506106438061001d5f395ff3fe608060405234801561000f575f80fd5b506004361061007a575f3560e01c8063a0b5ffb011610058578063a0b5ffb0146100cd578063c21d36f3146100e0578063e2fa2e78146100f3578063ee33b7e214610106575f80fd5b80632a0115941461007e57806360df1e4e146100a75780636a76e9b4146100ba575b5f80fd5b61009161008c36600461047d565b610119565b60405161009e91906104f2565b60405180910390f35b6100916100b5366004610533565b610133565b6100916100c836600461058d565b610143565b6100916100db3660046105d8565b610152565b6100916100ee3660046105d8565b610161565b61009161010136600461058d565b610170565b6100916101143660046105d8565b61017f565b606061012984848461018e6101a7565b90505b9392505050565b606061012984848461018e610249565b606061012c838361018e61029f565b606061012c838361018e6102b8565b606061012c838361018e6102c6565b606061012c838361033a61029f565b606061012c838361018e61033c565b6040516322c5b66160e21b815260040160405180910390fd5b6060824710156101d15760405163cd78605960e01b81523060048201526024015b60405180910390fd5b5f80866001600160a01b031685876040516101ec91906105f2565b5f6040518083038185875af1925050503d805f8114610226576040519150601f19603f3d011682016040523d82523d5f602084013e61022b565b606091505b509150915061023c87838387610249565b925050505b949350505050565b606083156102955782515f0361028e57846001600160a01b03163b5f0361028e57604051639996b31560e01b81526001600160a01b03861660048201526024016101c8565b5081610241565b6102418383610390565b606083156102ae57508161012c565b61012c8383610390565b606061012984845f856101a7565b60605f80856001600160a01b0316856040516102e291906105f2565b5f60405180830381855afa9150503d805f811461031a576040519150601f19603f3d011682016040523d82523d5f602084013e61031f565b606091505b509150915061033086838387610249565b9695505050505050565b565b60605f80856001600160a01b03168560405161035891906105f2565b5f60405180830381855af49150503d805f811461031a576040519150601f19603f3d011682016040523d82523d5f602084013e61031f565b8151156103a05781518083602001fd5b6103ac8163ffffffff16565b604051630a12f52160e11b815260040160405180910390fd5b80356001600160a01b03811681146103db575f80fd5b919050565b634e487b7160e01b5f52604160045260245ffd5b5f82601f830112610403575f80fd5b813567ffffffffffffffff8082111561041e5761041e6103e0565b604051601f8301601f19908116603f01168101908282118183101715610446576104466103e0565b8160405283815286602085880101111561045e575f80fd5b836020870160208301375f602085830101528094505050505092915050565b5f805f6060848603121561048f575f80fd5b610498846103c5565b9250602084013567ffffffffffffffff8111156104b3575f80fd5b6104bf868287016103f4565b925050604084013590509250925092565b5f5b838110156104ea5781810151838201526020016104d2565b50505f910152565b602081525f82518060208401526105108160408501602087016104d0565b601f01601f19169190910160400192915050565b803580151581146103db575f80fd5b5f805f60608486031215610545575f80fd5b61054e846103c5565b925061055c60208501610524565b9150604084013567ffffffffffffffff811115610577575f80fd5b610583868287016103f4565b9150509250925092565b5f806040838503121561059e575f80fd5b6105a783610524565b9150602083013567ffffffffffffffff8111156105c2575f80fd5b6105ce858286016103f4565b9150509250929050565b5f80604083850312156105e9575f80fd5b6105a7836103c5565b5f82516106038184602087016104d0565b919091019291505056fea2646970667358221220f85435901a6ae82a0e463257145150c49f0d8e79dd17127164c46bc84a945cfb64736f6c63430008140033",
  "linkReferences": {},
  "deployedLinkReferences": {}
}