{
  "_format": "hh-sol-artifact-1",
  "contractName": "$ERC4626OffsetMock",
  "sourceName": "contracts-exposed/mocks/token/ERC4626OffsetMock.sol",
  "abi": [
    {
      "inputs": [
        {
          "internalType": "string",
          "name": "name_",
          "type": "string"
        },
        {
          "internalType": "string",
          "name": "symbol_",
          "type": "string"
        },
        {
          "internalType": "contract IERC20",
          "name": "asset_",
          "type": "address"
        },
        {
          "internalType": "uint8",
          "name": "offset_",
          "type": "uint8"
        }
      ],
      "stateMutability": "payable",
      "type": "constructor"
    },
    {
      "inputs": [
        {
          "internalType": "address",
          "name": "target",
          "type": "address"
        }
      ],
      "name": "AddressEmptyCode",
      "type": "error"
    },
    {
      "inputs": [
        {
          "internalType": "address",
          "name": "account",
          "type": "address"
        }
      ],
      "name": "AddressInsufficientBalance",
      "type": "error"
    },
    {
      "inputs": [
        {
          "internalType": "address",
          "name": "spender",
          "type": "address"
        },
        {
          "internalType": "uint256",
          "name": "currentAllowance",
          "type": "uint256"
        },
        {
          "internalType": "uint256",
          "name": "requestedDecrease",
          "type": "uint256"
        }
      ],
      "name": "ERC20FailedDecreaseAllowance",
      "type": "error"
    },
    {
      "inputs": [
        {
          "internalType": "address",
          "name": "spender",
          "type": "address"
        },
        {
          "internalType": "uint256",
          "name": "allowance",
          "type": "uint256"
        },
        {
          "internalType": "uint256",
          "name": "needed",
          "type": "uint256"
        }
      ],
      "name": "ERC20InsufficientAllowance",
      "type": "error"
    },
    {
      "inputs": [
        {
          "internalType": "address",
          "name": "sender",
          "type": "address"
        },
        {
          "internalType": "uint256",
          "name": "balance",
          "type": "uint256"
        },
        {
          "internalType": "uint256",
          "name": "needed",
          "type": "uint256"
        }
      ],
      "name": "ERC20InsufficientBalance",
      "type": "error"
    },
    {
      "inputs": [
        {
          "internalType": "address",
          "name": "approver",
          "type": "address"
        }
      ],
      "name": "ERC20InvalidApprover",
      "type": "error"
    },
    {
      "inputs": [
        {
          "internalType": "address",
          "name": "receiver",
          "type": "address"
        }
      ],
      "name": "ERC20InvalidReceiver",
      "type": "error"
    },
    {
      "inputs": [
        {
          "internalType": "address",
          "name": "sender",
          "type": "address"
        }
      ],
      "name": "ERC20InvalidSender",
      "type": "error"
    },
    {
      "inputs": [
        {
          "internalType": "address",
          "name": "spender",
          "type": "address"
        }
      ],
      "name": "ERC20InvalidSpender",
      "type": "error"
    },
    {
      "inputs": [
        {
          "internalType": "address",
          "name": "receiver",
          "type": "address"
        },
        {
          "internalType": "uint256",
          "name": "assets",
          "type": "uint256"
        },
        {
          "internalType": "uint256",
          "name": "max",
          "type": "uint256"
        }
      ],
      "name": "ERC4626ExceededMaxDeposit",
      "type": "error"
    },
    {
      "inputs": [
        {
          "internalType": "address",
          "name": "receiver",
          "type": "address"
        },
        {
          "internalType": "uint256",
          "name": "shares",
          "type": "uint256"
        },
        {
          "internalType": "uint256",
          "name": "max",
          "type": "uint256"
        }
      ],
      "name": "ERC4626ExceededMaxMint",
      "type": "error"
    },
    {
      "inputs": [
        {
          "internalType": "address",
          "name": "owner",
          "type": "address"
        },
        {
          "internalType": "uint256",
          "name": "shares",
          "type": "uint256"
        },
        {
          "internalType": "uint256",
          "name": "max",
          "type": "uint256"
        }
      ],
      "name": "ERC4626ExceededMaxRedeem",
      "type": "error"
    },
    {
      "inputs": [
        {
          "internalType": "address",
          "name": "owner",
          "type": "address"
        },
        {
          "internalType": "uint256",
          "name": "assets",
          "type": "uint256"
        },
        {
          "internalType": "uint256",
          "name": "max",
          "type": "uint256"
        }
      ],
      "name": "ERC4626ExceededMaxWithdraw",
      "type": "error"
    },
    {
      "inputs": [],
      "name": "FailedInnerCall",
      "type": "error"
    },
    {
      "inputs": [],
      "name": "MathOverflowedMulDiv",
      "type": "error"
    },
    {
      "inputs": [
        {
          "internalType": "address",
          "name": "token",
          "type": "address"
        }
      ],
      "name": "SafeERC20FailedOperation",
      "type": "error"
    },
    {
      "anonymous": false,
      "inputs": [
        {
          "indexed": true,
          "internalType": "address",
          "name": "owner",
          "type": "address"
        },
        {
          "indexed": true,
          "internalType": "address",
          "name": "spender",
          "type": "address"
        },
        {
          "indexed": false,
          "internalType": "uint256",
          "name": "value",
          "type": "uint256"
        }
      ],
      "name": "Approval",
      "type": "event"
    },
    {
      "anonymous": false,
      "inputs": [
        {
          "indexed": true,
          "internalType": "address",
          "name": "sender",
          "type": "address"
        },
        {
          "indexed": true,
          "internalType": "address",
          "name": "owner",
          "type": "address"
        },
        {
          "indexed": false,
          "internalType": "uint256",
          "name": "assets",
          "type": "uint256"
        },
        {
          "indexed": false,
          "internalType": "uint256",
          "name": "shares",
          "type": "uint256"
        }
      ],
      "name": "Deposit",
      "type": "event"
    },
    {
      "anonymous": false,
      "inputs": [
        {
          "indexed": true,
          "internalType": "address",
          "name": "from",
          "type": "address"
        },
        {
          "indexed": true,
          "internalType": "address",
          "name": "to",
          "type": "address"
        },
        {
          "indexed": false,
          "internalType": "uint256",
          "name": "value",
          "type": "uint256"
        }
      ],
      "name": "Transfer",
      "type": "event"
    },
    {
      "anonymous": false,
      "inputs": [
        {
          "indexed": true,
          "internalType": "address",
          "name": "sender",
          "type": "address"
        },
        {
          "indexed": true,
          "internalType": "address",
          "name": "receiver",
          "type": "address"
        },
        {
          "indexed": true,
          "internalType": "address",
          "name": "owner",
          "type": "address"
        },
        {
          "indexed": false,
          "internalType": "uint256",
          "name": "assets",
          "type": "uint256"
        },
        {
          "indexed": false,
          "internalType": "uint256",
          "name": "shares",
          "type": "uint256"
        }
      ],
      "name": "Withdraw",
      "type": "event"
    },
    {
      "inputs": [
        {
          "internalType": "address",
          "name": "owner",
          "type": "address"
        },
        {
          "internalType": "address",
          "name": "spender",
          "type": "address"
        },
        {
          "internalType": "uint256",
          "name": "value",
          "type": "uint256"
        },
        {
          "internalType": "bool",
          "name": "emitEvent",
          "type": "bool"
        }
      ],
      "name": "$_approve",
      "outputs": [],
      "stateMutability": "nonpayable",
      "type": "function"
    },
    {
      "inputs": [
        {
          "internalType": "address",
          "name": "owner",
          "type": "address"
        },
        {
          "internalType": "address",
          "name": "spender",
          "type": "address"
        },
        {
          "internalType": "uint256",
          "name": "value",
          "type": "uint256"
        }
      ],
      "name": "$_approve",
      "outputs": [],
      "stateMutability": "nonpayable",
      "type": "function"
    },
    {
      "inputs": [
        {
          "internalType": "address",
          "name": "account",
          "type": "address"
        },
        {
          "internalType": "uint256",
          "name": "value",
          "type": "uint256"
        }
      ],
      "name": "$_burn",
      "outputs": [],
      "stateMutability": "nonpayable",
      "type": "function"
    },
    {
      "inputs": [
        {
          "internalType": "uint256",
          "name": "shares",
          "type": "uint256"
        },
        {
          "internalType": "enum Math.Rounding",
          "name": "rounding",
          "type": "uint8"
        }
      ],
      "name": "$_convertToAssets",
      "outputs": [
        {
          "internalType": "uint256",
          "name": "ret0",
          "type": "uint256"
        }
      ],
      "stateMutability": "view",
      "type": "function"
    },
    {
      "inputs": [
        {
          "internalType": "uint256",
          "name": "assets",
          "type": "uint256"
        },
        {
          "internalType": "enum Math.Rounding",
          "name": "rounding",
          "type": "uint8"
        }
      ],
      "name": "$_convertToShares",
      "outputs": [
        {
          "internalType": "uint256",
          "name": "ret0",
          "type": "uint256"
        }
      ],
      "stateMutability": "view",
      "type": "function"
    },
    {
      "inputs": [],
      "name": "$_decimalsOffset",
      "outputs": [
        {
          "internalType": "uint8",
          "name": "ret0",
          "type": "uint8"
        }
      ],
      "stateMutability": "view",
      "type": "function"
    },
    {
      "inputs": [
        {
          "internalType": "address",
          "name": "caller",
          "type": "address"
        },
        {
          "internalType": "address",
          "name": "receiver",
          "type": "address"
        },
        {
          "internalType": "uint256",
          "name": "assets",
          "type": "uint256"
        },
        {
          "internalType": "uint256",
          "name": "shares",
          "type": "uint256"
        }
      ],
      "name": "$_deposit",
      "outputs": [],
      "stateMutability": "nonpayable",
      "type": "function"
    },
    {
      "inputs": [
        {
          "internalType": "address",
          "name": "account",
          "type": "address"
        },
        {
          "internalType": "uint256",
          "name": "value",
          "type": "uint256"
        }
      ],
      "name": "$_mint",
      "outputs": [],
      "stateMutability": "nonpayable",
      "type": "function"
    },
    {
      "inputs": [],
      "name": "$_msgData",
      "outputs": [
        {
          "internalType": "bytes",
          "name": "ret0",
          "type": "bytes"
        }
      ],
      "stateMutability": "view",
      "type": "function"
    },
    {
      "inputs": [],
      "name": "$_msgSender",
      "outputs": [
        {
          "internalType": "address",
          "name": "ret0",
          "type": "address"
        }
      ],
      "stateMutability": "view",
      "type": "function"
    },
    {
      "inputs": [
        {
          "internalType": "address",
          "name": "owner",
          "type": "address"
        },
        {
          "internalType": "address",
          "name": "spender",
          "type": "address"
        },
        {
          "internalType": "uint256",
          "name": "value",
          "type": "uint256"
        }
      ],
      "name": "$_spendAllowance",
      "outputs": [],
      "stateMutability": "nonpayable",
      "type": "function"
    },
    {
      "inputs": [
        {
          "internalType": "address",
          "name": "from",
          "type": "address"
        },
        {
          "internalType": "address",
          "name": "to",
          "type": "address"
        },
        {
          "internalType": "uint256",
          "name": "value",
          "type": "uint256"
        }
      ],
      "name": "$_transfer",
      "outputs": [],
      "stateMutability": "nonpayable",
      "type": "function"
    },
    {
      "inputs": [
        {
          "internalType": "address",
          "name": "from",
          "type": "address"
        },
        {
          "internalType": "address",
          "name": "to",
          "type": "address"
        },
        {
          "internalType": "uint256",
          "name": "value",
          "type": "uint256"
        }
      ],
      "name": "$_update",
      "outputs": [],
      "stateMutability": "nonpayable",
      "type": "function"
    },
    {
      "inputs": [
        {
          "internalType": "address",
          "name": "caller",
          "type": "address"
        },
        {
          "internalType": "address",
          "name": "receiver",
          "type": "address"
        },
        {
          "internalType": "address",
          "name": "owner",
          "type": "address"
        },
        {
          "internalType": "uint256",
          "name": "assets",
          "type": "uint256"
        },
        {
          "internalType": "uint256",
          "name": "shares",
          "type": "uint256"
        }
      ],
      "name": "$_withdraw",
      "outputs": [],
      "stateMutability": "nonpayable",
      "type": "function"
    },
    {
      "inputs": [],
      "name": "__hh_exposed_bytecode_marker",
      "outputs": [
        {
          "internalType": "bytes32",
          "name": "",
          "type": "bytes32"
        }
      ],
      "stateMutability": "view",
      "type": "function"
    },
    {
      "inputs": [
        {
          "internalType": "address",
          "name": "owner",
          "type": "address"
        },
        {
          "internalType": "address",
          "name": "spender",
          "type": "address"
        }
      ],
      "name": "allowance",
      "outputs": [
        {
          "internalType": "uint256",
          "name": "",
          "type": "uint256"
        }
      ],
      "stateMutability": "view",
      "type": "function"
    },
    {
      "inputs": [
        {
          "internalType": "address",
          "name": "spender",
          "type": "address"
        },
        {
          "internalType": "uint256",
          "name": "value",
          "type": "uint256"
        }
      ],
      "name": "approve",
      "outputs": [
        {
          "internalType": "bool",
          "name": "",
          "type": "bool"
        }
      ],
      "stateMutability": "nonpayable",
      "type": "function"
    },
    {
      "inputs": [],
      "name": "asset",
      "outputs": [
        {
          "internalType": "address",
          "name": "",
          "type": "address"
        }
      ],
      "stateMutability": "view",
      "type": "function"
    },
    {
      "inputs": [
        {
          "internalType": "address",
          "name": "account",
          "type": "address"
        }
      ],
      "name": "balanceOf",
      "outputs": [
        {
          "internalType": "uint256",
          "name": "",
          "type": "uint256"
        }
      ],
      "stateMutability": "view",
      "type": "function"
    },
    {
      "inputs": [
        {
          "internalType": "uint256",
          "name": "shares",
          "type": "uint256"
        }
      ],
      "name": "convertToAssets",
      "outputs": [
        {
          "internalType": "uint256",
          "name": "",
          "type": "uint256"
        }
      ],
      "stateMutability": "view",
      "type": "function"
    },
    {
      "inputs": [
        {
          "internalType": "uint256",
          "name": "assets",
          "type": "uint256"
        }
      ],
      "name": "convertToShares",
      "outputs": [
        {
          "internalType": "uint256",
          "name": "",
          "type": "uint256"
        }
      ],
      "stateMutability": "view",
      "type": "function"
    },
    {
      "inputs": [],
      "name": "decimals",
      "outputs": [
        {
          "internalType": "uint8",
          "name": "",
          "type": "uint8"
        }
      ],
      "stateMutability": "view",
      "type": "function"
    },
    {
      "inputs": [
        {
          "internalType": "address",
          "name": "spender",
          "type": "address"
        },
        {
          "internalType": "uint256",
          "name": "requestedDecrease",
          "type": "uint256"
        }
      ],
      "name": "decreaseAllowance",
      "outputs": [
        {
          "internalType": "bool",
          "name": "",
          "type": "bool"
        }
      ],
      "stateMutability": "nonpayable",
      "type": "function"
    },
    {
      "inputs": [
        {
          "internalType": "uint256",
          "name": "assets",
          "type": "uint256"
        },
        {
          "internalType": "address",
          "name": "receiver",
          "type": "address"
        }
      ],
      "name": "deposit",
      "outputs": [
        {
          "internalType": "uint256",
          "name": "",
          "type": "uint256"
        }
      ],
      "stateMutability": "nonpayable",
      "type": "function"
    },
    {
      "inputs": [
        {
          "internalType": "address",
          "name": "spender",
          "type": "address"
        },
        {
          "internalType": "uint256",
          "name": "addedValue",
          "type": "uint256"
        }
      ],
      "name": "increaseAllowance",
      "outputs": [
        {
          "internalType": "bool",
          "name": "",
          "type": "bool"
        }
      ],
      "stateMutability": "nonpayable",
      "type": "function"
    },
    {
      "inputs": [
        {
          "internalType": "address",
          "name": "",
          "type": "address"
        }
      ],
      "name": "maxDeposit",
      "outputs": [
        {
          "internalType": "uint256",
          "name": "",
          "type": "uint256"
        }
      ],
      "stateMutability": "view",
      "type": "function"
    },
    {
      "inputs": [
        {
          "internalType": "address",
          "name": "",
          "type": "address"
        }
      ],
      "name": "maxMint",
      "outputs": [
        {
          "internalType": "uint256",
          "name": "",
          "type": "uint256"
        }
      ],
      "stateMutability": "view",
      "type": "function"
    },
    {
      "inputs": [
        {
          "internalType": "address",
          "name": "owner",
          "type": "address"
        }
      ],
      "name": "maxRedeem",
      "outputs": [
        {
          "internalType": "uint256",
          "name": "",
          "type": "uint256"
        }
      ],
      "stateMutability": "view",
      "type": "function"
    },
    {
      "inputs": [
        {
          "internalType": "address",
          "name": "owner",
          "type": "address"
        }
      ],
      "name": "maxWithdraw",
      "outputs": [
        {
          "internalType": "uint256",
          "name": "",
          "type": "uint256"
        }
      ],
      "stateMutability": "view",
      "type": "function"
    },
    {
      "inputs": [
        {
          "internalType": "uint256",
          "name": "shares",
          "type": "uint256"
        },
        {
          "internalType": "address",
          "name": "receiver",
          "type": "address"
        }
      ],
      "name": "mint",
      "outputs": [
        {
          "internalType": "uint256",
          "name": "",
          "type": "uint256"
        }
      ],
      "stateMutability": "nonpayable",
      "type": "function"
    },
    {
      "inputs": [],
      "name": "name",
      "outputs": [
        {
          "internalType": "string",
          "name": "",
          "type": "string"
        }
      ],
      "stateMutability": "view",
      "type": "function"
    },
    {
      "inputs": [
        {
          "internalType": "uint256",
          "name": "assets",
          "type": "uint256"
        }
      ],
      "name": "previewDeposit",
      "outputs": [
        {
          "internalType": "uint256",
          "name": "",
          "type": "uint256"
        }
      ],
      "stateMutability": "view",
      "type": "function"
    },
    {
      "inputs": [
        {
          "internalType": "uint256",
          "name": "shares",
          "type": "uint256"
        }
      ],
      "name": "previewMint",
      "outputs": [
        {
          "internalType": "uint256",
          "name": "",
          "type": "uint256"
        }
      ],
      "stateMutability": "view",
      "type": "function"
    },
    {
      "inputs": [
        {
          "internalType": "uint256",
          "name": "shares",
          "type": "uint256"
        }
      ],
      "name": "previewRedeem",
      "outputs": [
        {
          "internalType": "uint256",
          "name": "",
          "type": "uint256"
        }
      ],
      "stateMutability": "view",
      "type": "function"
    },
    {
      "inputs": [
        {
          "internalType": "uint256",
          "name": "assets",
          "type": "uint256"
        }
      ],
      "name": "previewWithdraw",
      "outputs": [
        {
          "internalType": "uint256",
          "name": "",
          "type": "uint256"
        }
      ],
      "stateMutability": "view",
      "type": "function"
    },
    {
      "inputs": [
        {
          "internalType": "uint256",
          "name": "shares",
          "type": "uint256"
        },
        {
          "internalType": "address",
          "name": "receiver",
          "type": "address"
        },
        {
          "internalType": "address",
          "name": "owner",
          "type": "address"
        }
      ],
      "name": "redeem",
      "outputs": [
        {
          "internalType": "uint256",
          "name": "",
          "type": "uint256"
        }
      ],
      "stateMutability": "nonpayable",
      "type": "function"
    },
    {
      "inputs": [],
      "name": "symbol",
      "outputs": [
        {
          "internalType": "string",
          "name": "",
          "type": "string"
        }
      ],
      "stateMutability": "view",
      "type": "function"
    },
    {
      "inputs": [],
      "name": "totalAssets",
      "outputs": [
        {
          "internalType": "uint256",
          "name": "",
          "type": "uint256"
        }
      ],
      "stateMutability": "view",
      "type": "function"
    },
    {
      "inputs": [],
      "name": "totalSupply",
      "outputs": [
        {
          "internalType": "uint256",
          "name": "",
          "type": "uint256"
        }
      ],
      "stateMutability": "view",
      "type": "function"
    },
    {
      "inputs": [
        {
          "internalType": "address",
          "name": "to",
          "type": "address"
        },
        {
          "internalType": "uint256",
          "name": "value",
          "type": "uint256"
        }
      ],
      "name": "transfer",
      "outputs": [
        {
          "internalType": "bool",
          "name": "",
          "type": "bool"
        }
      ],
      "stateMutability": "nonpayable",
      "type": "function"
    },
    {
      "inputs": [
        {
          "internalType": "address",
          "name": "from",
          "type": "address"
        },
        {
          "internalType": "address",
          "name": "to",
          "type": "address"
        },
        {
          "internalType": "uint256",
          "name": "value",
          "type": "uint256"
        }
      ],
      "name": "transferFrom",
      "outputs": [
        {
          "internalType": "bool",
          "name": "",
          "type": "bool"
        }
      ],
      "stateMutability": "nonpayable",
      "type": "function"
    },
    {
      "inputs": [
        {
          "internalType": "uint256",
          "name": "assets",
          "type": "uint256"
        },
        {
          "internalType": "address",
          "name": "receiver",
          "type": "address"
        },
        {
          "internalType": "address",
          "name": "owner",
          "type": "address"
        }
      ],
      "name": "withdraw",
      "outputs": [
        {
          "internalType": "uint256",
          "name": "",
          "type": "uint256"
        }
      ],
      "stateMutability": "nonpayable",
      "type": "function"
    },
    {
      "stateMutability": "payable",
      "type": "receive"
    }
  ],
  "bytecode": "0x60e060405260405162001df238038062001df283398101604081905262000026916200023d565b80828585600362000038838262000368565b50600462000047828262000368565b5050505f806200005d836200009860201b60201c565b91509150816200006f57601262000071565b805b60ff90811660a0526001600160a01b0390931660805250501660c052506200046592505050565b60408051600481526024810182526020810180516001600160e01b031663313ce56760e01b17905290515f918291829182916001600160a01b03871691620000e09162000430565b5f60405180830381855afa9150503d805f81146200011a576040519150601f19603f3d011682016040523d82523d5f602084013e6200011f565b606091505b50915091508180156200013457506020815110155b156200016b575f818060200190518101906200015191906200044d565b905060ff811162000169576001969095509350505050565b505b505f9485945092505050565b634e487b7160e01b5f52604160045260245ffd5b5f5b83811015620001a75781810151838201526020016200018d565b50505f910152565b5f82601f830112620001bf575f80fd5b81516001600160401b0380821115620001dc57620001dc62000177565b604051601f8301601f19908116603f0116810190828211818310171562000207576200020762000177565b8160405283815286602085880101111562000220575f80fd5b620002338460208301602089016200018b565b9695505050505050565b5f805f806080858703121562000251575f80fd5b84516001600160401b038082111562000268575f80fd5b6200027688838901620001af565b955060208701519150808211156200028c575f80fd5b506200029b87828801620001af565b604087015190945090506001600160a01b0381168114620002ba575f80fd5b606086015190925060ff81168114620002d1575f80fd5b939692955090935050565b600181811c90821680620002f157607f821691505b6020821081036200031057634e487b7160e01b5f52602260045260245ffd5b50919050565b601f82111562000363575f81815260208120601f850160051c810160208610156200033e5750805b601f850160051c820191505b818110156200035f578281556001016200034a565b5050505b505050565b81516001600160401b0381111562000384576200038462000177565b6200039c81620003958454620002dc565b8462000316565b602080601f831160018114620003d2575f8415620003ba5750858301515b5f19600386901b1c1916600185901b1785556200035f565b5f85815260208120601f198616915b828110156200040257888601518255948401946001909101908401620003e1565b50858210156200042057878501515f19600388901b60f8161c191681555b5050505050600190811b01905550565b5f8251620004438184602087016200018b565b9190910192915050565b5f602082840312156200045e575f80fd5b5051919050565b60805160a05160c051611938620004ba5f395f8181610718015281816108d701528181610c000152610c5201525f6108f801525f81816103f30152818161077201528181610f1e0152610fd001526119385ff3fe60806040526004361061024c575f3560e01c80638b4e914a11610134578063c63d75b6116100b3578063d905777e11610078578063d905777e146106ad578063dd62ed3e146106cc578063e047838d146106eb578063ef4f78d11461070a578063ef8b30f714610631578063efb43b071461073c575f80fd5b8063c63d75b614610436578063c6e6f59214610631578063ca10eca014610650578063cc461d621461066f578063ce96cb771461068e575f80fd5b8063a9059cbb116100f9578063a9059cbb14610596578063b2331d7d146105b5578063b3d7f6b9146105d4578063b460af94146105f3578063ba08765214610612575f80fd5b80638b4e914a1461050657806394bf804d1461052557806395d89b41146105445780639c0b90c714610558578063a457c2d714610577575f80fd5b806332cadf3c116101cb5780634cdad506116101905780634cdad5061461029f5780636855a178146104565780636e553f651461047557806370a082311461049457806383b95579146104c8578063861e3d3d146104e7575f80fd5b806332cadf3c146103ac578063342db739146103c057806338d52e0f146103e55780633950935114610417578063402d267d14610436575f80fd5b806318160ddd1161021157806318160ddd1461030c57806323b872dd146103205780632904df291461033f578063313ce5671461036557806332bc74aa1461038b575f80fd5b806301e1d1141461025757806306fdde031461027e57806307a2d13a1461029f578063095ea7b3146102be5780630a28a477146102ed575f80fd5b3661025357005b5f80fd5b348015610262575f80fd5b5061026b61075b565b6040519081526020015b60405180910390f35b348015610289575f80fd5b506102926107e8565b6040516102759190611473565b3480156102aa575f80fd5b5061026b6102b9366004611485565b610878565b3480156102c9575f80fd5b506102dd6102d83660046114b7565b610889565b6040519015158152602001610275565b3480156102f8575f80fd5b5061026b610307366004611485565b6108a0565b348015610317575f80fd5b5060025461026b565b34801561032b575f80fd5b506102dd61033a3660046114df565b6108ac565b34801561034a575f80fd5b50335b6040516001600160a01b039091168152602001610275565b348015610370575f80fd5b506103796108d1565b60405160ff9091168152602001610275565b348015610396575f80fd5b506103aa6103a5366004611528565b61091c565b005b3480156103b7575f80fd5b5061029261092e565b3480156103cb575f80fd5b5061026b6e1a185c991a185d0b595e1c1bdcd959608a1b81565b3480156103f0575f80fd5b507f000000000000000000000000000000000000000000000000000000000000000061034d565b348015610422575f80fd5b506102dd6104313660046114b7565b61096b565b348015610441575f80fd5b5061026b610450366004611574565b505f1990565b348015610461575f80fd5b506103aa6104703660046114df565b61098c565b348015610480575f80fd5b5061026b61048f36600461158d565b61099c565b34801561049f575f80fd5b5061026b6104ae366004611574565b6001600160a01b03165f9081526020819052604090205490565b3480156104d3575f80fd5b506103aa6104e23660046115b7565b6109cd565b3480156104f2575f80fd5b506103aa6105013660046114df565b6109e1565b348015610511575f80fd5b5061026b610520366004611608565b6109ec565b348015610530575f80fd5b5061026b61053f36600461158d565b6109f7565b34801561054f575f80fd5b50610292610a12565b348015610563575f80fd5b506103aa610572366004611639565b610a21565b348015610582575f80fd5b506102dd6105913660046114b7565b610a2d565b3480156105a1575f80fd5b506102dd6105b03660046114b7565b610a7b565b3480156105c0575f80fd5b506103aa6105cf3660046114df565b610a88565b3480156105df575f80fd5b5061026b6105ee366004611485565b610a93565b3480156105fe575f80fd5b5061026b61060d366004611678565b610a9f565b34801561061d575f80fd5b5061026b61062c366004611678565b610af5565b34801561063c575f80fd5b5061026b61064b366004611485565b610b42565b34801561065b575f80fd5b5061026b61066a366004611608565b610b4d565b34801561067a575f80fd5b506103aa6106893660046114b7565b610b58565b348015610699575f80fd5b5061026b6106a8366004611574565b610b66565b3480156106b8575f80fd5b5061026b6106c7366004611574565b610b88565b3480156106d7575f80fd5b5061026b6106e63660046116b1565b610ba5565b3480156106f6575f80fd5b506103aa6107053660046114b7565b610bcf565b348015610715575f80fd5b507f0000000000000000000000000000000000000000000000000000000000000000610379565b348015610747575f80fd5b506103aa6107563660046114df565b610bd9565b6040516370a0823160e01b81523060048201525f907f00000000000000000000000000000000000000000000000000000000000000006001600160a01b0316906370a0823190602401602060405180830381865afa1580156107bf573d5f803e3d5ffd5b505050506040513d601f19601f820116820180604052508101906107e391906116d9565b905090565b6060600380546107f7906116f0565b80601f0160208091040260200160405190810160405280929190818152602001828054610823906116f0565b801561086e5780601f106108455761010080835404028352916020019161086e565b820191905f5260205f20905b81548152906001019060200180831161085157829003601f168201915b5050505050905090565b5f610883825f610be4565b92915050565b5f33610896818585610c3c565b5060019392505050565b5f610883826001610c49565b5f336108b9858285610c98565b6108c4858585610ce2565b60019150505b9392505050565b5f6107e37f00000000000000000000000000000000000000000000000000000000000000007f000000000000000000000000000000000000000000000000000000000000000061173c565b61092884848484610d34565b50505050565b60605f368080601f0160208091040260200160405190810160405280939291908181526020018383808284375f9201919091525092949350505050565b5f3361089681858561097d8383610ba5565b6109879190611755565b610c3c565b610997838383610e06565b505050565b5f5f196109ad565b60405180910390fd5b5f6109b785610b42565b90506109c533858784610f19565b949350505050565b6109da8585858585610f9d565b5050505050565b610997838383610c3c565b5f6108ca8383610c49565b5f5f195f610a0485610a93565b90506109c533858388610f19565b6060600480546107f7906116f0565b61092884848484610f19565b5f3381610a3a8286610ba5565b905083811015610a6357848185604051632983c0c360e21b81526004016109a493929190611768565b610a708286868403610c3c565b506001949350505050565b5f33610896818585610ce2565b610997838383610c98565b5f610883826001610be4565b5f80610aaa83610b66565b905080851115610ad357828582604051633fa733bb60e21b81526004016109a493929190611768565b5f610add866108a0565b9050610aec3386868985610f9d565b95945050505050565b5f80610b0083610b88565b905080851115610b2957828582604051632e52afbb60e21b81526004016109a493929190611768565b5f610b3386610878565b9050610aec338686848a610f9d565b5f610883825f610c49565b5f6108ca8383610be4565b610b62828261105d565b5050565b6001600160a01b0381165f90815260208190526040812054610883905f610be4565b6001600160a01b0381165f90815260208190526040812054610883565b6001600160a01b039182165f90815260016020908152604080832093909416825291909152205490565b610b628282611091565b610997838383610ce2565b5f6108ca610bf061075b565b610bfb906001611755565b610c267f0000000000000000000000000000000000000000000000000000000000000000600a611869565b600254610c339190611755565b859190856110c5565b6109978383836001610d34565b5f6108ca610c787f0000000000000000000000000000000000000000000000000000000000000000600a611869565b600254610c859190611755565b610c8d61075b565b610c33906001611755565b5f610ca38484610ba5565b90505f1981146109285781811015610cd457828183604051637dc7a0d960e11b81526004016109a493929190611768565b61092884848484035f610d34565b6001600160a01b038316610d0b57604051634b637e8f60e11b81525f60048201526024016109a4565b6001600160a01b03821661098c5760405163ec442f0560e01b81525f60048201526024016109a4565b6001600160a01b038416610d5d5760405163e602df0560e01b81525f60048201526024016109a4565b6001600160a01b038316610d8657604051634a1406b160e11b81525f60048201526024016109a4565b6001600160a01b038085165f908152600160209081526040808320938716835292905220829055801561092857826001600160a01b0316846001600160a01b03167f8c5be1e5ebec7d5bd14f71427d1e84f3dd0314c0f7b2291e5b200ac8c7c3b92584604051610df891815260200190565b60405180910390a350505050565b6001600160a01b038316610e30578060025f828254610e259190611755565b90915550610e8d9050565b6001600160a01b0383165f9081526020819052604090205481811015610e6f5783818360405163391434e360e21b81526004016109a493929190611768565b6001600160a01b0384165f9081526020819052604090209082900390555b6001600160a01b038216610ea957600280548290039055610ec7565b6001600160a01b0382165f9081526020819052604090208054820190555b816001600160a01b0316836001600160a01b03167fddf252ad1be2c89b69c2b068fc378daa952ba7f163c4a11628f55a4df523b3ef83604051610f0c91815260200190565b60405180910390a3505050565b610f457f0000000000000000000000000000000000000000000000000000000000000000853085611112565b610f4f838261105d565b826001600160a01b0316846001600160a01b03167fdcbc1c05240f31ff3ad067ef1ee35ce4997762752e3a095284754544f4c709d78484604051610df8929190918252602082015260400190565b826001600160a01b0316856001600160a01b031614610fc157610fc1838683610c98565b610fcb8382611091565b610ff67f00000000000000000000000000000000000000000000000000000000000000008584611179565b826001600160a01b0316846001600160a01b0316866001600160a01b03167ffbde797d201c681b91056529119e0b02407c7bb96a4a2c75c01fc9667232c8db858560405161104e929190918252602082015260400190565b60405180910390a45050505050565b6001600160a01b0382166110865760405163ec442f0560e01b81525f60048201526024016109a4565b610b625f8383610e06565b6001600160a01b0382166110ba57604051634b637e8f60e11b81525f60048201526024016109a4565b610b62825f83610e06565b5f806110d28686866111aa565b90506110dd83611268565b80156110f857505f84806110f3576110f3611877565b868809115b15610aec57611108600182611755565b9695505050505050565b6040516001600160a01b0384811660248301528381166044830152606482018390526109289186918216906323b872dd906084015b604051602081830303815290604052915060e01b6020820180516001600160e01b038381831617835250505050611294565b6040516001600160a01b0383811660248301526044820183905261099791859182169063a9059cbb90606401611147565b5f80805f19858709858702925082811083820303915050805f036111e1578382816111d7576111d7611877565b04925050506108ca565b8084116112015760405163227bc15360e01b815260040160405180910390fd5b5f8486880960026001871981018816978890046003810283188082028403028082028403028082028403028082028403028082028403029081029092039091025f889003889004909101858311909403939093029303949094049190911702949350505050565b5f600282600381111561127d5761127d61188b565b611287919061189f565b60ff166001149050919050565b5f6112a86001600160a01b038416836112f5565b905080515f141580156112cc5750808060200190518101906112ca91906118cc565b155b1561099757604051635274afe760e01b81526001600160a01b03841660048201526024016109a4565b60606108ca83835f61130561131e565b604051630a12f52160e11b815260040160405180910390fd5b6060824710156113435760405163cd78605960e01b81523060048201526024016109a4565b5f80866001600160a01b0316858760405161135e91906118e7565b5f6040518083038185875af1925050503d805f8114611398576040519150601f19603f3d011682016040523d82523d5f602084013e61139d565b606091505b50915091506113ae878383876113b9565b979650505050505050565b606083156114055782515f036113fe57846001600160a01b03163b5f036113fe57604051639996b31560e01b81526001600160a01b03861660048201526024016109a4565b50816109c5565b6109c5838381511561141a5781518083602001fd5b6113058163ffffffff16565b5f5b83811015611440578181015183820152602001611428565b50505f910152565b5f815180845261145f816020860160208601611426565b601f01601f19169290920160200192915050565b602081525f6108ca6020830184611448565b5f60208284031215611495575f80fd5b5035919050565b80356001600160a01b03811681146114b2575f80fd5b919050565b5f80604083850312156114c8575f80fd5b6114d18361149c565b946020939093013593505050565b5f805f606084860312156114f1575f80fd5b6114fa8461149c565b92506115086020850161149c565b9150604084013590509250925092565b8015158114611525575f80fd5b50565b5f805f806080858703121561153b575f80fd5b6115448561149c565b93506115526020860161149c565b925060408501359150606085013561156981611518565b939692955090935050565b5f60208284031215611584575f80fd5b6108ca8261149c565b5f806040838503121561159e575f80fd5b823591506115ae6020840161149c565b90509250929050565b5f805f805f60a086880312156115cb575f80fd5b6115d48661149c565b94506115e26020870161149c565b93506115f06040870161149c565b94979396509394606081013594506080013592915050565b5f8060408385031215611619575f80fd5b8235915060208301356004811061162e575f80fd5b809150509250929050565b5f805f806080858703121561164c575f80fd5b6116558561149c565b93506116636020860161149c565b93969395505050506040820135916060013590565b5f805f6060848603121561168a575f80fd5b8335925061169a6020850161149c565b91506116a86040850161149c565b90509250925092565b5f80604083850312156116c2575f80fd5b6116cb8361149c565b91506115ae6020840161149c565b5f602082840312156116e9575f80fd5b5051919050565b600181811c9082168061170457607f821691505b60208210810361172257634e487b7160e01b5f52602260045260245ffd5b50919050565b634e487b7160e01b5f52601160045260245ffd5b60ff818116838216019081111561088357610883611728565b8082018082111561088357610883611728565b6001600160a01b039390931683526020830191909152604082015260600190565b600181815b808511156117c357815f19048211156117a9576117a9611728565b808516156117b657918102915b93841c939080029061178e565b509250929050565b5f826117d957506001610883565b816117e557505f610883565b81600181146117fb576002811461180557611821565b6001915050610883565b60ff84111561181657611816611728565b50506001821b610883565b5060208310610133831016604e8410600b8410161715611844575081810a610883565b61184e8383611789565b805f190482111561186157611861611728565b029392505050565b5f6108ca60ff8416836117cb565b634e487b7160e01b5f52601260045260245ffd5b634e487b7160e01b5f52602160045260245ffd5b5f60ff8316806118bd57634e487b7160e01b5f52601260045260245ffd5b8060ff84160691505092915050565b5f602082840312156118dc575f80fd5b81516108ca81611518565b5f82516118f8818460208701611426565b919091019291505056fea26469706673582212200117aa86527ddd6698087a054f505f0fd77fa239fbf73722fef2d785b6042fe064736f6c63430008140033",
  "linkReferences": {},
  "deployedLinkReferences": {}
}