{"abi":[{"type":"function","name":"initialize","inputs":[{"name":"value","type":"uint256","internalType":"uint256"}],"outputs":[],"stateMutability":"payable"},{"type":"function","name":"migrate","inputs":[{"name":"value","type":"uint256","internalType":"uint256"},{"name":"anotherValue","type":"uint256","internalType":"uint256"}],"outputs":[],"stateMutability":"payable"},{"type":"function","name":"migrate","inputs":[],"outputs":[],"stateMutability":"payable"},{"type":"function","name":"x","inputs":[],"outputs":[{"name":"","type":"uint256","internalType":"uint256"}],"stateMutability":"view"},{"type":"function","name":"y","inputs":[],"outputs":[{"name":"","type":"uint256","internalType":"uint256"}],"stateMutability":"view"},{"type":"event","name":"Initialized","inputs":[{"name":"version","type":"uint8","indexed":false,"internalType":"uint8"}],"anonymous":false},{"type":"error","name":"AlreadyInitialized","inputs":[]},{"type":"error","name":"NotInitializing","inputs":[]}],"bytecode":{"object":"0x6080604052348015600f57600080fd5b5061024c8061001f6000396000f3fe60806040526004361061004a5760003560e01c80630c55699c1461004f5780633e54bacb146100775780638fd3ab801461008c578063a56dfe4a14610094578063fe4b84df146100aa575b600080fd5b34801561005b57600080fd5b5061006560015481565b60405190815260200160405180910390f35b61008a6100853660046101db565b6100bd565b005b61008a6100e4565b3480156100a057600080fd5b5061006560035481565b61008a6100b83660046101fd565b61010e565b60025460ff16156100cd57600080fd5b60019182556003556002805460ff19169091179055565b60045460ff16156100f457600080fd5b60018054600380548355556004805460ff19169091179055565b600054610100900460ff161580801561012e5750600054600160ff909116105b15801561014c5750303b15801561014a575060005460ff166001145b155b156101695760405162dc149f60e41b815260040160405180910390fd5b6000805460ff19166001179055801561018c576000805461ff0019166101001790555b600182905580156101d7576000805461ff0019169055604051600181527f7f26b83ff96e1f2b6a682f133852f6798a09c465da95921460cefb38474024989060200160405180910390a15b5050565b600080604083850312156101ee57600080fd5b50508035926020909101359150565b60006020828403121561020f57600080fd5b503591905056fea2646970667358221220ec608d29c45a36736bf639797ca4d0c473b8d52bc7eeba33848c540f04ea1f6c64736f6c634300081b0033","linkReferences":{}},"methodIdentifiers":{"initialize(uint256)":"fe4b84df","migrate()":"8fd3ab80","migrate(uint256,uint256)":"3e54bacb","x()":"0c55699c","y()":"a56dfe4a"},"id":82}