{
  "_format": "hh-sol-artifact-1",
  "contractName": "ERC2771ContextMock",
  "sourceName": "contracts/mocks/ERC2771ContextMock.sol",
  "abi": [
    {
      "inputs": [
        {
          "internalType": "address",
          "name": "trustedForwarder",
          "type": "address"
        }
      ],
      "stateMutability": "nonpayable",
      "type": "constructor"
    },
    {
      "anonymous": false,
      "inputs": [
        {
          "indexed": false,
          "internalType": "bytes",
          "name": "data",
          "type": "bytes"
        },
        {
          "indexed": false,
          "internalType": "uint256",
          "name": "integerValue",
          "type": "uint256"
        },
        {
          "indexed": false,
          "internalType": "string",
          "name": "stringValue",
          "type": "string"
        }
      ],
      "name": "Data",
      "type": "event"
    },
    {
      "anonymous": false,
      "inputs": [
        {
          "indexed": false,
          "internalType": "address",
          "name": "sender",
          "type": "address"
        }
      ],
      "name": "Sender",
      "type": "event"
    },
    {
      "inputs": [
        {
          "internalType": "address",
          "name": "forwarder",
          "type": "address"
        }
      ],
      "name": "isTrustedForwarder",
      "outputs": [
        {
          "internalType": "bool",
          "name": "",
          "type": "bool"
        }
      ],
      "stateMutability": "view",
      "type": "function"
    },
    {
      "inputs": [
        {
          "internalType": "uint256",
          "name": "integerValue",
          "type": "uint256"
        },
        {
          "internalType": "string",
          "name": "stringValue",
          "type": "string"
        }
      ],
      "name": "msgData",
      "outputs": [],
      "stateMutability": "nonpayable",
      "type": "function"
    },
    {
      "inputs": [],
      "name": "msgSender",
      "outputs": [],
      "stateMutability": "nonpayable",
      "type": "function"
    }
  ],
  "bytecode": "0x60a060405234801561000f575f80fd5b506040516104ae3803806104ae83398101604081905261002e916100b9565b6001600160a01b0381166080527fd6558c3ed910d959271054471fd1c326679d9fece99c5091b00ed89627cf2bfc610064610085565b6040516001600160a01b03909116815260200160405180910390a1506100e6565b5f61008e610093565b905090565b6080515f906001600160a01b031633036100b4575060131936013560601c90565b503390565b5f602082840312156100c9575f80fd5b81516001600160a01b03811681146100df575f80fd5b9392505050565b6080516103b16100fd5f395f60d001526103b15ff3fe608060405234801561000f575f80fd5b506004361061003f575f3560e01c8063376bf26214610043578063572b6c0514610058578063d737d0c71461007f575b5f80fd5b6100566100513660046101cd565b610087565b005b61006b610066366004610282565b6100ce565b604051901515815260200160405180910390f35b610056610100565b7faf235354a0a47c91ee171961326335cb2d1a8e55b8a89859b0e61eb049e50ea06100b0610146565b84846040516100c294939291906102af565b60405180910390a15050565b7f00000000000000000000000000000000000000000000000000000000000000006001600160a01b0390811691161490565b7fd6558c3ed910d959271054471fd1c326679d9fece99c5091b00ed89627cf2bfc610129610158565b6040516001600160a01b03909116815260200160405180910390a1565b365f610150610166565b915091509091565b5f610161610198565b905090565b365f610171336100ce565b15610191575f803661018460148261032f565b9261015093929190610354565b5f36610150565b5f6101a2336100ce565b156101b4575060131936013560601c90565b503390565b634e487b7160e01b5f52604160045260245ffd5b5f80604083850312156101de575f80fd5b82359150602083013567ffffffffffffffff808211156101fc575f80fd5b818501915085601f83011261020f575f80fd5b813581811115610221576102216101b9565b604051601f8201601f19908116603f01168101908382118183101715610249576102496101b9565b81604052828152886020848701011115610261575f80fd5b826020860160208301375f6020848301015280955050505050509250929050565b5f60208284031215610292575f80fd5b81356001600160a01b03811681146102a8575f80fd5b9392505050565b60608152836060820152838560808301375f608085830101525f601f1980601f870116830160208681860152608085830301604086015285518060808401525f5b8181101561030c5787810183015184820160a0015282016102f0565b505f60a0828501015260a084601f83011684010194505050505095945050505050565b8181038181111561034e57634e487b7160e01b5f52601160045260245ffd5b92915050565b5f8085851115610362575f80fd5b8386111561036e575f80fd5b505082019391909203915056fea2646970667358221220ac74a07373ea1b425bfa4e2b5185cf13cff83aa850ecf91f99afa08522095cec64736f6c63430008140033",
  "linkReferences": {},
  "deployedLinkReferences": {}
}