{
  "_format": "hh-sol-artifact-1",
  "contractName": "$GovernorCompatibilityBravoMock",
  "sourceName": "contracts-exposed/mocks/governance/GovernorCompatibilityBravoMock.sol",
  "abi": [
    {
      "inputs": [
        {
          "internalType": "string",
          "name": "name_",
          "type": "string"
        },
        {
          "internalType": "uint48",
          "name": "initialVotingDelay",
          "type": "uint48"
        },
        {
          "internalType": "uint32",
          "name": "initialVotingPeriod",
          "type": "uint32"
        },
        {
          "internalType": "uint256",
          "name": "initialProposalThreshold",
          "type": "uint256"
        },
        {
          "internalType": "contract ICompoundTimelock",
          "name": "timelockAddress",
          "type": "address"
        },
        {
          "internalType": "contract IVotes",
          "name": "tokenAddress",
          "type": "address"
        }
      ],
      "stateMutability": "payable",
      "type": "constructor"
    },
    {
      "inputs": [
        {
          "internalType": "address",
          "name": "account",
          "type": "address"
        }
      ],
      "name": "AddressInsufficientBalance",
      "type": "error"
    },
    {
      "inputs": [],
      "name": "FailedInnerCall",
      "type": "error"
    },
    {
      "inputs": [
        {
          "internalType": "address",
          "name": "voter",
          "type": "address"
        }
      ],
      "name": "GovernorAlreadyCastVote",
      "type": "error"
    },
    {
      "inputs": [
        {
          "internalType": "uint256",
          "name": "proposalId",
          "type": "uint256"
        }
      ],
      "name": "GovernorAlreadyQueuedProposal",
      "type": "error"
    },
    {
      "inputs": [],
      "name": "GovernorDisabledDeposit",
      "type": "error"
    },
    {
      "inputs": [
        {
          "internalType": "address",
          "name": "proposer",
          "type": "address"
        },
        {
          "internalType": "uint256",
          "name": "votes",
          "type": "uint256"
        },
        {
          "internalType": "uint256",
          "name": "threshold",
          "type": "uint256"
        }
      ],
      "name": "GovernorInsufficientProposerVotes",
      "type": "error"
    },
    {
      "inputs": [
        {
          "internalType": "uint256",
          "name": "targets",
          "type": "uint256"
        },
        {
          "internalType": "uint256",
          "name": "calldatas",
          "type": "uint256"
        },
        {
          "internalType": "uint256",
          "name": "values",
          "type": "uint256"
        }
      ],
      "name": "GovernorInvalidProposalLength",
      "type": "error"
    },
    {
      "inputs": [
        {
          "internalType": "address",
          "name": "voter",
          "type": "address"
        }
      ],
      "name": "GovernorInvalidSignature",
      "type": "error"
    },
    {
      "inputs": [
        {
          "internalType": "uint256",
          "name": "signatures",
          "type": "uint256"
        },
        {
          "internalType": "uint256",
          "name": "calldatas",
          "type": "uint256"
        }
      ],
      "name": "GovernorInvalidSignaturesLength",
      "type": "error"
    },
    {
      "inputs": [],
      "name": "GovernorInvalidVoteType",
      "type": "error"
    },
    {
      "inputs": [
        {
          "internalType": "uint256",
          "name": "votingPeriod",
          "type": "uint256"
        }
      ],
      "name": "GovernorInvalidVotingPeriod",
      "type": "error"
    },
    {
      "inputs": [
        {
          "internalType": "uint256",
          "name": "proposalId",
          "type": "uint256"
        }
      ],
      "name": "GovernorNonexistentProposal",
      "type": "error"
    },
    {
      "inputs": [
        {
          "internalType": "uint256",
          "name": "proposalId",
          "type": "uint256"
        }
      ],
      "name": "GovernorNotQueuedProposal",
      "type": "error"
    },
    {
      "inputs": [
        {
          "internalType": "address",
          "name": "account",
          "type": "address"
        }
      ],
      "name": "GovernorOnlyExecutor",
      "type": "error"
    },
    {
      "inputs": [
        {
          "internalType": "address",
          "name": "account",
          "type": "address"
        }
      ],
      "name": "GovernorOnlyProposer",
      "type": "error"
    },
    {
      "inputs": [
        {
          "internalType": "uint256",
          "name": "proposalId",
          "type": "uint256"
        },
        {
          "internalType": "enum IGovernor.ProposalState",
          "name": "current",
          "type": "uint8"
        },
        {
          "internalType": "bytes32",
          "name": "expectedStates",
          "type": "bytes32"
        }
      ],
      "name": "GovernorUnexpectedProposalState",
      "type": "error"
    },
    {
      "inputs": [
        {
          "internalType": "address",
          "name": "account",
          "type": "address"
        },
        {
          "internalType": "uint256",
          "name": "currentNonce",
          "type": "uint256"
        }
      ],
      "name": "InvalidAccountNonce",
      "type": "error"
    },
    {
      "inputs": [],
      "name": "InvalidShortString",
      "type": "error"
    },
    {
      "inputs": [],
      "name": "QueueEmpty",
      "type": "error"
    },
    {
      "inputs": [
        {
          "internalType": "uint8",
          "name": "bits",
          "type": "uint8"
        },
        {
          "internalType": "uint256",
          "name": "value",
          "type": "uint256"
        }
      ],
      "name": "SafeCastOverflowedUintDowncast",
      "type": "error"
    },
    {
      "inputs": [
        {
          "internalType": "string",
          "name": "str",
          "type": "string"
        }
      ],
      "name": "StringTooLong",
      "type": "error"
    },
    {
      "anonymous": false,
      "inputs": [],
      "name": "EIP712DomainChanged",
      "type": "event"
    },
    {
      "anonymous": false,
      "inputs": [
        {
          "indexed": false,
          "internalType": "uint256",
          "name": "proposalId",
          "type": "uint256"
        }
      ],
      "name": "ProposalCanceled",
      "type": "event"
    },
    {
      "anonymous": false,
      "inputs": [
        {
          "indexed": false,
          "internalType": "uint256",
          "name": "proposalId",
          "type": "uint256"
        },
        {
          "indexed": false,
          "internalType": "address",
          "name": "proposer",
          "type": "address"
        },
        {
          "indexed": false,
          "internalType": "address[]",
          "name": "targets",
          "type": "address[]"
        },
        {
          "indexed": false,
          "internalType": "uint256[]",
          "name": "values",
          "type": "uint256[]"
        },
        {
          "indexed": false,
          "internalType": "string[]",
          "name": "signatures",
          "type": "string[]"
        },
        {
          "indexed": false,
          "internalType": "bytes[]",
          "name": "calldatas",
          "type": "bytes[]"
        },
        {
          "indexed": false,
          "internalType": "uint256",
          "name": "voteStart",
          "type": "uint256"
        },
        {
          "indexed": false,
          "internalType": "uint256",
          "name": "voteEnd",
          "type": "uint256"
        },
        {
          "indexed": false,
          "internalType": "string",
          "name": "description",
          "type": "string"
        }
      ],
      "name": "ProposalCreated",
      "type": "event"
    },
    {
      "anonymous": false,
      "inputs": [
        {
          "indexed": false,
          "internalType": "uint256",
          "name": "proposalId",
          "type": "uint256"
        }
      ],
      "name": "ProposalExecuted",
      "type": "event"
    },
    {
      "anonymous": false,
      "inputs": [
        {
          "indexed": false,
          "internalType": "uint256",
          "name": "proposalId",
          "type": "uint256"
        },
        {
          "indexed": false,
          "internalType": "uint256",
          "name": "eta",
          "type": "uint256"
        }
      ],
      "name": "ProposalQueued",
      "type": "event"
    },
    {
      "anonymous": false,
      "inputs": [
        {
          "indexed": false,
          "internalType": "uint256",
          "name": "oldProposalThreshold",
          "type": "uint256"
        },
        {
          "indexed": false,
          "internalType": "uint256",
          "name": "newProposalThreshold",
          "type": "uint256"
        }
      ],
      "name": "ProposalThresholdSet",
      "type": "event"
    },
    {
      "anonymous": false,
      "inputs": [
        {
          "indexed": false,
          "internalType": "address",
          "name": "oldTimelock",
          "type": "address"
        },
        {
          "indexed": false,
          "internalType": "address",
          "name": "newTimelock",
          "type": "address"
        }
      ],
      "name": "TimelockChange",
      "type": "event"
    },
    {
      "anonymous": false,
      "inputs": [
        {
          "indexed": true,
          "internalType": "address",
          "name": "voter",
          "type": "address"
        },
        {
          "indexed": false,
          "internalType": "uint256",
          "name": "proposalId",
          "type": "uint256"
        },
        {
          "indexed": false,
          "internalType": "uint8",
          "name": "support",
          "type": "uint8"
        },
        {
          "indexed": false,
          "internalType": "uint256",
          "name": "weight",
          "type": "uint256"
        },
        {
          "indexed": false,
          "internalType": "string",
          "name": "reason",
          "type": "string"
        }
      ],
      "name": "VoteCast",
      "type": "event"
    },
    {
      "anonymous": false,
      "inputs": [
        {
          "indexed": true,
          "internalType": "address",
          "name": "voter",
          "type": "address"
        },
        {
          "indexed": false,
          "internalType": "uint256",
          "name": "proposalId",
          "type": "uint256"
        },
        {
          "indexed": false,
          "internalType": "uint8",
          "name": "support",
          "type": "uint8"
        },
        {
          "indexed": false,
          "internalType": "uint256",
          "name": "weight",
          "type": "uint256"
        },
        {
          "indexed": false,
          "internalType": "string",
          "name": "reason",
          "type": "string"
        },
        {
          "indexed": false,
          "internalType": "bytes",
          "name": "params",
          "type": "bytes"
        }
      ],
      "name": "VoteCastWithParams",
      "type": "event"
    },
    {
      "anonymous": false,
      "inputs": [
        {
          "indexed": false,
          "internalType": "uint256",
          "name": "oldVotingDelay",
          "type": "uint256"
        },
        {
          "indexed": false,
          "internalType": "uint256",
          "name": "newVotingDelay",
          "type": "uint256"
        }
      ],
      "name": "VotingDelaySet",
      "type": "event"
    },
    {
      "anonymous": false,
      "inputs": [
        {
          "indexed": false,
          "internalType": "uint256",
          "name": "oldVotingPeriod",
          "type": "uint256"
        },
        {
          "indexed": false,
          "internalType": "uint256",
          "name": "newVotingPeriod",
          "type": "uint256"
        }
      ],
      "name": "VotingPeriodSet",
      "type": "event"
    },
    {
      "anonymous": false,
      "inputs": [
        {
          "indexed": false,
          "internalType": "uint256",
          "name": "proposalId",
          "type": "uint256"
        }
      ],
      "name": "return$_cancel",
      "type": "event"
    },
    {
      "anonymous": false,
      "inputs": [
        {
          "indexed": false,
          "internalType": "uint256",
          "name": "ret0",
          "type": "uint256"
        }
      ],
      "name": "return$_castVote_uint256_address_uint8_string",
      "type": "event"
    },
    {
      "anonymous": false,
      "inputs": [
        {
          "indexed": false,
          "internalType": "uint256",
          "name": "ret0",
          "type": "uint256"
        }
      ],
      "name": "return$_castVote_uint256_address_uint8_string_bytes",
      "type": "event"
    },
    {
      "anonymous": false,
      "inputs": [
        {
          "indexed": false,
          "internalType": "uint256",
          "name": "ret0",
          "type": "uint256"
        }
      ],
      "name": "return$_useCheckedNonce",
      "type": "event"
    },
    {
      "anonymous": false,
      "inputs": [
        {
          "indexed": false,
          "internalType": "uint256",
          "name": "ret0",
          "type": "uint256"
        }
      ],
      "name": "return$_useNonce",
      "type": "event"
    },
    {
      "inputs": [],
      "name": "$_EIP712Name",
      "outputs": [
        {
          "internalType": "string",
          "name": "ret0",
          "type": "string"
        }
      ],
      "stateMutability": "view",
      "type": "function"
    },
    {
      "inputs": [],
      "name": "$_EIP712Version",
      "outputs": [
        {
          "internalType": "string",
          "name": "ret0",
          "type": "string"
        }
      ],
      "stateMutability": "view",
      "type": "function"
    },
    {
      "inputs": [
        {
          "internalType": "uint256",
          "name": "arg0",
          "type": "uint256"
        },
        {
          "internalType": "address[]",
          "name": "arg1",
          "type": "address[]"
        },
        {
          "internalType": "uint256[]",
          "name": "arg2",
          "type": "uint256[]"
        },
        {
          "internalType": "bytes[]",
          "name": "arg3",
          "type": "bytes[]"
        },
        {
          "internalType": "bytes32",
          "name": "arg4",
          "type": "bytes32"
        }
      ],
      "name": "$_afterExecute",
      "outputs": [],
      "stateMutability": "nonpayable",
      "type": "function"
    },
    {
      "inputs": [
        {
          "internalType": "uint256",
          "name": "arg0",
          "type": "uint256"
        },
        {
          "internalType": "address[]",
          "name": "targets",
          "type": "address[]"
        },
        {
          "internalType": "uint256[]",
          "name": "arg2",
          "type": "uint256[]"
        },
        {
          "internalType": "bytes[]",
          "name": "calldatas",
          "type": "bytes[]"
        },
        {
          "internalType": "bytes32",
          "name": "arg4",
          "type": "bytes32"
        }
      ],
      "name": "$_beforeExecute",
      "outputs": [],
      "stateMutability": "nonpayable",
      "type": "function"
    },
    {
      "inputs": [
        {
          "internalType": "address[]",
          "name": "targets",
          "type": "address[]"
        },
        {
          "internalType": "uint256[]",
          "name": "values",
          "type": "uint256[]"
        },
        {
          "internalType": "bytes[]",
          "name": "calldatas",
          "type": "bytes[]"
        },
        {
          "internalType": "bytes32",
          "name": "salt",
          "type": "bytes32"
        }
      ],
      "name": "$_cancel",
      "outputs": [
        {
          "internalType": "uint256",
          "name": "proposalId",
          "type": "uint256"
        }
      ],
      "stateMutability": "nonpayable",
      "type": "function"
    },
    {
      "inputs": [
        {
          "internalType": "uint256",
          "name": "proposalId",
          "type": "uint256"
        },
        {
          "internalType": "address",
          "name": "account",
          "type": "address"
        },
        {
          "internalType": "uint8",
          "name": "support",
          "type": "uint8"
        },
        {
          "internalType": "string",
          "name": "reason",
          "type": "string"
        },
        {
          "internalType": "bytes",
          "name": "params",
          "type": "bytes"
        }
      ],
      "name": "$_castVote",
      "outputs": [
        {
          "internalType": "uint256",
          "name": "ret0",
          "type": "uint256"
        }
      ],
      "stateMutability": "nonpayable",
      "type": "function"
    },
    {
      "inputs": [
        {
          "internalType": "uint256",
          "name": "proposalId",
          "type": "uint256"
        },
        {
          "internalType": "address",
          "name": "account",
          "type": "address"
        },
        {
          "internalType": "uint8",
          "name": "support",
          "type": "uint8"
        },
        {
          "internalType": "string",
          "name": "reason",
          "type": "string"
        }
      ],
      "name": "$_castVote",
      "outputs": [
        {
          "internalType": "uint256",
          "name": "ret0",
          "type": "uint256"
        }
      ],
      "stateMutability": "nonpayable",
      "type": "function"
    },
    {
      "inputs": [
        {
          "internalType": "uint256",
          "name": "proposalId",
          "type": "uint256"
        },
        {
          "internalType": "address",
          "name": "account",
          "type": "address"
        },
        {
          "internalType": "uint8",
          "name": "support",
          "type": "uint8"
        },
        {
          "internalType": "uint256",
          "name": "weight",
          "type": "uint256"
        },
        {
          "internalType": "bytes",
          "name": "arg4",
          "type": "bytes"
        }
      ],
      "name": "$_countVote",
      "outputs": [],
      "stateMutability": "nonpayable",
      "type": "function"
    },
    {
      "inputs": [],
      "name": "$_defaultParams",
      "outputs": [
        {
          "internalType": "bytes",
          "name": "ret0",
          "type": "bytes"
        }
      ],
      "stateMutability": "view",
      "type": "function"
    },
    {
      "inputs": [],
      "name": "$_domainSeparatorV4",
      "outputs": [
        {
          "internalType": "bytes32",
          "name": "ret0",
          "type": "bytes32"
        }
      ],
      "stateMutability": "view",
      "type": "function"
    },
    {
      "inputs": [
        {
          "internalType": "enum IGovernor.ProposalState",
          "name": "proposalState",
          "type": "uint8"
        }
      ],
      "name": "$_encodeStateBitmap",
      "outputs": [
        {
          "internalType": "bytes32",
          "name": "ret0",
          "type": "bytes32"
        }
      ],
      "stateMutability": "pure",
      "type": "function"
    },
    {
      "inputs": [
        {
          "internalType": "uint256",
          "name": "proposalId",
          "type": "uint256"
        },
        {
          "internalType": "address[]",
          "name": "targets",
          "type": "address[]"
        },
        {
          "internalType": "uint256[]",
          "name": "values",
          "type": "uint256[]"
        },
        {
          "internalType": "bytes[]",
          "name": "calldatas",
          "type": "bytes[]"
        },
        {
          "internalType": "bytes32",
          "name": "descriptionHash",
          "type": "bytes32"
        }
      ],
      "name": "$_execute",
      "outputs": [],
      "stateMutability": "nonpayable",
      "type": "function"
    },
    {
      "inputs": [],
      "name": "$_executor",
      "outputs": [
        {
          "internalType": "address",
          "name": "ret0",
          "type": "address"
        }
      ],
      "stateMutability": "view",
      "type": "function"
    },
    {
      "inputs": [
        {
          "internalType": "address",
          "name": "account",
          "type": "address"
        },
        {
          "internalType": "uint256",
          "name": "timepoint",
          "type": "uint256"
        },
        {
          "internalType": "bytes",
          "name": "arg2",
          "type": "bytes"
        }
      ],
      "name": "$_getVotes",
      "outputs": [
        {
          "internalType": "uint256",
          "name": "ret0",
          "type": "uint256"
        }
      ],
      "stateMutability": "view",
      "type": "function"
    },
    {
      "inputs": [
        {
          "internalType": "bytes32",
          "name": "structHash",
          "type": "bytes32"
        }
      ],
      "name": "$_hashTypedDataV4",
      "outputs": [
        {
          "internalType": "bytes32",
          "name": "ret0",
          "type": "bytes32"
        }
      ],
      "stateMutability": "view",
      "type": "function"
    },
    {
      "inputs": [
        {
          "internalType": "address",
          "name": "proposer",
          "type": "address"
        },
        {
          "internalType": "string",
          "name": "description",
          "type": "string"
        }
      ],
      "name": "$_isValidDescriptionForProposer",
      "outputs": [
        {
          "internalType": "bool",
          "name": "ret0",
          "type": "bool"
        }
      ],
      "stateMutability": "view",
      "type": "function"
    },
    {
      "inputs": [],
      "name": "$_msgData",
      "outputs": [
        {
          "internalType": "bytes",
          "name": "ret0",
          "type": "bytes"
        }
      ],
      "stateMutability": "view",
      "type": "function"
    },
    {
      "inputs": [],
      "name": "$_msgSender",
      "outputs": [
        {
          "internalType": "address",
          "name": "ret0",
          "type": "address"
        }
      ],
      "stateMutability": "view",
      "type": "function"
    },
    {
      "inputs": [
        {
          "internalType": "uint256",
          "name": "proposalId",
          "type": "uint256"
        }
      ],
      "name": "$_quorumReached",
      "outputs": [
        {
          "internalType": "bool",
          "name": "ret0",
          "type": "bool"
        }
      ],
      "stateMutability": "view",
      "type": "function"
    },
    {
      "inputs": [
        {
          "internalType": "uint256",
          "name": "newProposalThreshold",
          "type": "uint256"
        }
      ],
      "name": "$_setProposalThreshold",
      "outputs": [],
      "stateMutability": "nonpayable",
      "type": "function"
    },
    {
      "inputs": [
        {
          "internalType": "uint48",
          "name": "newVotingDelay",
          "type": "uint48"
        }
      ],
      "name": "$_setVotingDelay",
      "outputs": [],
      "stateMutability": "nonpayable",
      "type": "function"
    },
    {
      "inputs": [
        {
          "internalType": "uint32",
          "name": "newVotingPeriod",
          "type": "uint32"
        }
      ],
      "name": "$_setVotingPeriod",
      "outputs": [],
      "stateMutability": "nonpayable",
      "type": "function"
    },
    {
      "inputs": [
        {
          "internalType": "address",
          "name": "owner",
          "type": "address"
        },
        {
          "internalType": "uint256",
          "name": "nonce",
          "type": "uint256"
        }
      ],
      "name": "$_useCheckedNonce",
      "outputs": [
        {
          "internalType": "uint256",
          "name": "ret0",
          "type": "uint256"
        }
      ],
      "stateMutability": "nonpayable",
      "type": "function"
    },
    {
      "inputs": [
        {
          "internalType": "address",
          "name": "owner",
          "type": "address"
        }
      ],
      "name": "$_useNonce",
      "outputs": [
        {
          "internalType": "uint256",
          "name": "ret0",
          "type": "uint256"
        }
      ],
      "stateMutability": "nonpayable",
      "type": "function"
    },
    {
      "inputs": [
        {
          "internalType": "uint256",
          "name": "proposalId",
          "type": "uint256"
        }
      ],
      "name": "$_voteSucceeded",
      "outputs": [
        {
          "internalType": "bool",
          "name": "ret0",
          "type": "bool"
        }
      ],
      "stateMutability": "view",
      "type": "function"
    },
    {
      "inputs": [],
      "name": "BALLOT_TYPEHASH",
      "outputs": [
        {
          "internalType": "bytes32",
          "name": "",
          "type": "bytes32"
        }
      ],
      "stateMutability": "view",
      "type": "function"
    },
    {
      "inputs": [],
      "name": "CLOCK_MODE",
      "outputs": [
        {
          "internalType": "string",
          "name": "",
          "type": "string"
        }
      ],
      "stateMutability": "view",
      "type": "function"
    },
    {
      "inputs": [],
      "name": "COUNTING_MODE",
      "outputs": [
        {
          "internalType": "string",
          "name": "",
          "type": "string"
        }
      ],
      "stateMutability": "pure",
      "type": "function"
    },
    {
      "inputs": [],
      "name": "EXTENDED_BALLOT_TYPEHASH",
      "outputs": [
        {
          "internalType": "bytes32",
          "name": "",
          "type": "bytes32"
        }
      ],
      "stateMutability": "view",
      "type": "function"
    },
    {
      "inputs": [],
      "name": "__acceptAdmin",
      "outputs": [],
      "stateMutability": "nonpayable",
      "type": "function"
    },
    {
      "inputs": [],
      "name": "__hh_exposed_bytecode_marker",
      "outputs": [
        {
          "internalType": "bytes32",
          "name": "",
          "type": "bytes32"
        }
      ],
      "stateMutability": "view",
      "type": "function"
    },
    {
      "inputs": [
        {
          "internalType": "uint256",
          "name": "proposalId",
          "type": "uint256"
        }
      ],
      "name": "cancel",
      "outputs": [],
      "stateMutability": "nonpayable",
      "type": "function"
    },
    {
      "inputs": [
        {
          "internalType": "address[]",
          "name": "targets",
          "type": "address[]"
        },
        {
          "internalType": "uint256[]",
          "name": "values",
          "type": "uint256[]"
        },
        {
          "internalType": "bytes[]",
          "name": "calldatas",
          "type": "bytes[]"
        },
        {
          "internalType": "bytes32",
          "name": "descriptionHash",
          "type": "bytes32"
        }
      ],
      "name": "cancel",
      "outputs": [
        {
          "internalType": "uint256",
          "name": "",
          "type": "uint256"
        }
      ],
      "stateMutability": "nonpayable",
      "type": "function"
    },
    {
      "inputs": [
        {
          "internalType": "uint256",
          "name": "proposalId",
          "type": "uint256"
        },
        {
          "internalType": "uint8",
          "name": "support",
          "type": "uint8"
        }
      ],
      "name": "castVote",
      "outputs": [
        {
          "internalType": "uint256",
          "name": "",
          "type": "uint256"
        }
      ],
      "stateMutability": "nonpayable",
      "type": "function"
    },
    {
      "inputs": [
        {
          "internalType": "uint256",
          "name": "proposalId",
          "type": "uint256"
        },
        {
          "internalType": "uint8",
          "name": "support",
          "type": "uint8"
        },
        {
          "internalType": "address",
          "name": "voter",
          "type": "address"
        },
        {
          "internalType": "bytes",
          "name": "signature",
          "type": "bytes"
        }
      ],
      "name": "castVoteBySig",
      "outputs": [
        {
          "internalType": "uint256",
          "name": "",
          "type": "uint256"
        }
      ],
      "stateMutability": "nonpayable",
      "type": "function"
    },
    {
      "inputs": [
        {
          "internalType": "uint256",
          "name": "proposalId",
          "type": "uint256"
        },
        {
          "internalType": "uint8",
          "name": "support",
          "type": "uint8"
        },
        {
          "internalType": "string",
          "name": "reason",
          "type": "string"
        }
      ],
      "name": "castVoteWithReason",
      "outputs": [
        {
          "internalType": "uint256",
          "name": "",
          "type": "uint256"
        }
      ],
      "stateMutability": "nonpayable",
      "type": "function"
    },
    {
      "inputs": [
        {
          "internalType": "uint256",
          "name": "proposalId",
          "type": "uint256"
        },
        {
          "internalType": "uint8",
          "name": "support",
          "type": "uint8"
        },
        {
          "internalType": "string",
          "name": "reason",
          "type": "string"
        },
        {
          "internalType": "bytes",
          "name": "params",
          "type": "bytes"
        }
      ],
      "name": "castVoteWithReasonAndParams",
      "outputs": [
        {
          "internalType": "uint256",
          "name": "",
          "type": "uint256"
        }
      ],
      "stateMutability": "nonpayable",
      "type": "function"
    },
    {
      "inputs": [
        {
          "internalType": "uint256",
          "name": "proposalId",
          "type": "uint256"
        },
        {
          "internalType": "uint8",
          "name": "support",
          "type": "uint8"
        },
        {
          "internalType": "address",
          "name": "voter",
          "type": "address"
        },
        {
          "internalType": "string",
          "name": "reason",
          "type": "string"
        },
        {
          "internalType": "bytes",
          "name": "params",
          "type": "bytes"
        },
        {
          "internalType": "bytes",
          "name": "signature",
          "type": "bytes"
        }
      ],
      "name": "castVoteWithReasonAndParamsBySig",
      "outputs": [
        {
          "internalType": "uint256",
          "name": "",
          "type": "uint256"
        }
      ],
      "stateMutability": "nonpayable",
      "type": "function"
    },
    {
      "inputs": [],
      "name": "clock",
      "outputs": [
        {
          "internalType": "uint48",
          "name": "",
          "type": "uint48"
        }
      ],
      "stateMutability": "view",
      "type": "function"
    },
    {
      "inputs": [],
      "name": "eip712Domain",
      "outputs": [
        {
          "internalType": "bytes1",
          "name": "fields",
          "type": "bytes1"
        },
        {
          "internalType": "string",
          "name": "name",
          "type": "string"
        },
        {
          "internalType": "string",
          "name": "version",
          "type": "string"
        },
        {
          "internalType": "uint256",
          "name": "chainId",
          "type": "uint256"
        },
        {
          "internalType": "address",
          "name": "verifyingContract",
          "type": "address"
        },
        {
          "internalType": "bytes32",
          "name": "salt",
          "type": "bytes32"
        },
        {
          "internalType": "uint256[]",
          "name": "extensions",
          "type": "uint256[]"
        }
      ],
      "stateMutability": "view",
      "type": "function"
    },
    {
      "inputs": [
        {
          "internalType": "address[]",
          "name": "targets",
          "type": "address[]"
        },
        {
          "internalType": "uint256[]",
          "name": "values",
          "type": "uint256[]"
        },
        {
          "internalType": "bytes[]",
          "name": "calldatas",
          "type": "bytes[]"
        },
        {
          "internalType": "bytes32",
          "name": "salt",
          "type": "bytes32"
        }
      ],
      "name": "execute",
      "outputs": [
        {
          "internalType": "uint256",
          "name": "",
          "type": "uint256"
        }
      ],
      "stateMutability": "payable",
      "type": "function"
    },
    {
      "inputs": [
        {
          "internalType": "uint256",
          "name": "proposalId",
          "type": "uint256"
        }
      ],
      "name": "execute",
      "outputs": [],
      "stateMutability": "payable",
      "type": "function"
    },
    {
      "inputs": [
        {
          "internalType": "uint256",
          "name": "proposalId",
          "type": "uint256"
        }
      ],
      "name": "getActions",
      "outputs": [
        {
          "internalType": "address[]",
          "name": "targets",
          "type": "address[]"
        },
        {
          "internalType": "uint256[]",
          "name": "values",
          "type": "uint256[]"
        },
        {
          "internalType": "string[]",
          "name": "signatures",
          "type": "string[]"
        },
        {
          "internalType": "bytes[]",
          "name": "calldatas",
          "type": "bytes[]"
        }
      ],
      "stateMutability": "view",
      "type": "function"
    },
    {
      "inputs": [
        {
          "internalType": "uint256",
          "name": "proposalId",
          "type": "uint256"
        },
        {
          "internalType": "address",
          "name": "voter",
          "type": "address"
        }
      ],
      "name": "getReceipt",
      "outputs": [
        {
          "components": [
            {
              "internalType": "bool",
              "name": "hasVoted",
              "type": "bool"
            },
            {
              "internalType": "uint8",
              "name": "support",
              "type": "uint8"
            },
            {
              "internalType": "uint96",
              "name": "votes",
              "type": "uint96"
            }
          ],
          "internalType": "struct IGovernorCompatibilityBravo.Receipt",
          "name": "",
          "type": "tuple"
        }
      ],
      "stateMutability": "view",
      "type": "function"
    },
    {
      "inputs": [
        {
          "internalType": "address",
          "name": "account",
          "type": "address"
        },
        {
          "internalType": "uint256",
          "name": "timepoint",
          "type": "uint256"
        }
      ],
      "name": "getVotes",
      "outputs": [
        {
          "internalType": "uint256",
          "name": "",
          "type": "uint256"
        }
      ],
      "stateMutability": "view",
      "type": "function"
    },
    {
      "inputs": [
        {
          "internalType": "address",
          "name": "account",
          "type": "address"
        },
        {
          "internalType": "uint256",
          "name": "timepoint",
          "type": "uint256"
        },
        {
          "internalType": "bytes",
          "name": "params",
          "type": "bytes"
        }
      ],
      "name": "getVotesWithParams",
      "outputs": [
        {
          "internalType": "uint256",
          "name": "",
          "type": "uint256"
        }
      ],
      "stateMutability": "view",
      "type": "function"
    },
    {
      "inputs": [
        {
          "internalType": "uint256",
          "name": "proposalId",
          "type": "uint256"
        },
        {
          "internalType": "address",
          "name": "account",
          "type": "address"
        }
      ],
      "name": "hasVoted",
      "outputs": [
        {
          "internalType": "bool",
          "name": "",
          "type": "bool"
        }
      ],
      "stateMutability": "view",
      "type": "function"
    },
    {
      "inputs": [
        {
          "internalType": "address[]",
          "name": "targets",
          "type": "address[]"
        },
        {
          "internalType": "uint256[]",
          "name": "values",
          "type": "uint256[]"
        },
        {
          "internalType": "bytes[]",
          "name": "calldatas",
          "type": "bytes[]"
        },
        {
          "internalType": "bytes32",
          "name": "descriptionHash",
          "type": "bytes32"
        }
      ],
      "name": "hashProposal",
      "outputs": [
        {
          "internalType": "uint256",
          "name": "",
          "type": "uint256"
        }
      ],
      "stateMutability": "pure",
      "type": "function"
    },
    {
      "inputs": [],
      "name": "name",
      "outputs": [
        {
          "internalType": "string",
          "name": "",
          "type": "string"
        }
      ],
      "stateMutability": "view",
      "type": "function"
    },
    {
      "inputs": [
        {
          "internalType": "address",
          "name": "owner",
          "type": "address"
        }
      ],
      "name": "nonces",
      "outputs": [
        {
          "internalType": "uint256",
          "name": "",
          "type": "uint256"
        }
      ],
      "stateMutability": "view",
      "type": "function"
    },
    {
      "inputs": [
        {
          "internalType": "address",
          "name": "",
          "type": "address"
        },
        {
          "internalType": "address",
          "name": "",
          "type": "address"
        },
        {
          "internalType": "uint256[]",
          "name": "",
          "type": "uint256[]"
        },
        {
          "internalType": "uint256[]",
          "name": "",
          "type": "uint256[]"
        },
        {
          "internalType": "bytes",
          "name": "",
          "type": "bytes"
        }
      ],
      "name": "onERC1155BatchReceived",
      "outputs": [
        {
          "internalType": "bytes4",
          "name": "",
          "type": "bytes4"
        }
      ],
      "stateMutability": "nonpayable",
      "type": "function"
    },
    {
      "inputs": [
        {
          "internalType": "address",
          "name": "",
          "type": "address"
        },
        {
          "internalType": "address",
          "name": "",
          "type": "address"
        },
        {
          "internalType": "uint256",
          "name": "",
          "type": "uint256"
        },
        {
          "internalType": "uint256",
          "name": "",
          "type": "uint256"
        },
        {
          "internalType": "bytes",
          "name": "",
          "type": "bytes"
        }
      ],
      "name": "onERC1155Received",
      "outputs": [
        {
          "internalType": "bytes4",
          "name": "",
          "type": "bytes4"
        }
      ],
      "stateMutability": "nonpayable",
      "type": "function"
    },
    {
      "inputs": [
        {
          "internalType": "address",
          "name": "",
          "type": "address"
        },
        {
          "internalType": "address",
          "name": "",
          "type": "address"
        },
        {
          "internalType": "uint256",
          "name": "",
          "type": "uint256"
        },
        {
          "internalType": "bytes",
          "name": "",
          "type": "bytes"
        }
      ],
      "name": "onERC721Received",
      "outputs": [
        {
          "internalType": "bytes4",
          "name": "",
          "type": "bytes4"
        }
      ],
      "stateMutability": "nonpayable",
      "type": "function"
    },
    {
      "inputs": [
        {
          "internalType": "uint256",
          "name": "proposalId",
          "type": "uint256"
        }
      ],
      "name": "proposalDeadline",
      "outputs": [
        {
          "internalType": "uint256",
          "name": "",
          "type": "uint256"
        }
      ],
      "stateMutability": "view",
      "type": "function"
    },
    {
      "inputs": [
        {
          "internalType": "uint256",
          "name": "proposalId",
          "type": "uint256"
        }
      ],
      "name": "proposalEta",
      "outputs": [
        {
          "internalType": "uint256",
          "name": "",
          "type": "uint256"
        }
      ],
      "stateMutability": "view",
      "type": "function"
    },
    {
      "inputs": [
        {
          "internalType": "uint256",
          "name": "proposalId",
          "type": "uint256"
        }
      ],
      "name": "proposalProposer",
      "outputs": [
        {
          "internalType": "address",
          "name": "",
          "type": "address"
        }
      ],
      "stateMutability": "view",
      "type": "function"
    },
    {
      "inputs": [
        {
          "internalType": "uint256",
          "name": "proposalId",
          "type": "uint256"
        }
      ],
      "name": "proposalSnapshot",
      "outputs": [
        {
          "internalType": "uint256",
          "name": "",
          "type": "uint256"
        }
      ],
      "stateMutability": "view",
      "type": "function"
    },
    {
      "inputs": [],
      "name": "proposalThreshold",
      "outputs": [
        {
          "internalType": "uint256",
          "name": "",
          "type": "uint256"
        }
      ],
      "stateMutability": "view",
      "type": "function"
    },
    {
      "inputs": [
        {
          "internalType": "uint256",
          "name": "proposalId",
          "type": "uint256"
        }
      ],
      "name": "proposals",
      "outputs": [
        {
          "internalType": "uint256",
          "name": "id",
          "type": "uint256"
        },
        {
          "internalType": "address",
          "name": "proposer",
          "type": "address"
        },
        {
          "internalType": "uint256",
          "name": "eta",
          "type": "uint256"
        },
        {
          "internalType": "uint256",
          "name": "startBlock",
          "type": "uint256"
        },
        {
          "internalType": "uint256",
          "name": "endBlock",
          "type": "uint256"
        },
        {
          "internalType": "uint256",
          "name": "forVotes",
          "type": "uint256"
        },
        {
          "internalType": "uint256",
          "name": "againstVotes",
          "type": "uint256"
        },
        {
          "internalType": "uint256",
          "name": "abstainVotes",
          "type": "uint256"
        },
        {
          "internalType": "bool",
          "name": "canceled",
          "type": "bool"
        },
        {
          "internalType": "bool",
          "name": "executed",
          "type": "bool"
        }
      ],
      "stateMutability": "view",
      "type": "function"
    },
    {
      "inputs": [
        {
          "internalType": "address[]",
          "name": "targets",
          "type": "address[]"
        },
        {
          "internalType": "uint256[]",
          "name": "values",
          "type": "uint256[]"
        },
        {
          "internalType": "bytes[]",
          "name": "calldatas",
          "type": "bytes[]"
        },
        {
          "internalType": "string",
          "name": "description",
          "type": "string"
        }
      ],
      "name": "propose",
      "outputs": [
        {
          "internalType": "uint256",
          "name": "",
          "type": "uint256"
        }
      ],
      "stateMutability": "nonpayable",
      "type": "function"
    },
    {
      "inputs": [
        {
          "internalType": "address[]",
          "name": "targets",
          "type": "address[]"
        },
        {
          "internalType": "uint256[]",
          "name": "values",
          "type": "uint256[]"
        },
        {
          "internalType": "string[]",
          "name": "signatures",
          "type": "string[]"
        },
        {
          "internalType": "bytes[]",
          "name": "calldatas",
          "type": "bytes[]"
        },
        {
          "internalType": "string",
          "name": "description",
          "type": "string"
        }
      ],
      "name": "propose",
      "outputs": [
        {
          "internalType": "uint256",
          "name": "",
          "type": "uint256"
        }
      ],
      "stateMutability": "nonpayable",
      "type": "function"
    },
    {
      "inputs": [
        {
          "internalType": "address[]",
          "name": "targets",
          "type": "address[]"
        },
        {
          "internalType": "uint256[]",
          "name": "values",
          "type": "uint256[]"
        },
        {
          "internalType": "bytes[]",
          "name": "calldatas",
          "type": "bytes[]"
        },
        {
          "internalType": "bytes32",
          "name": "salt",
          "type": "bytes32"
        }
      ],
      "name": "queue",
      "outputs": [
        {
          "internalType": "uint256",
          "name": "",
          "type": "uint256"
        }
      ],
      "stateMutability": "nonpayable",
      "type": "function"
    },
    {
      "inputs": [
        {
          "internalType": "uint256",
          "name": "proposalId",
          "type": "uint256"
        }
      ],
      "name": "queue",
      "outputs": [],
      "stateMutability": "nonpayable",
      "type": "function"
    },
    {
      "inputs": [
        {
          "internalType": "uint256",
          "name": "",
          "type": "uint256"
        }
      ],
      "name": "quorum",
      "outputs": [
        {
          "internalType": "uint256",
          "name": "",
          "type": "uint256"
        }
      ],
      "stateMutability": "pure",
      "type": "function"
    },
    {
      "inputs": [],
      "name": "quorumVotes",
      "outputs": [
        {
          "internalType": "uint256",
          "name": "",
          "type": "uint256"
        }
      ],
      "stateMutability": "view",
      "type": "function"
    },
    {
      "inputs": [
        {
          "internalType": "address",
          "name": "target",
          "type": "address"
        },
        {
          "internalType": "uint256",
          "name": "value",
          "type": "uint256"
        },
        {
          "internalType": "bytes",
          "name": "data",
          "type": "bytes"
        }
      ],
      "name": "relay",
      "outputs": [],
      "stateMutability": "payable",
      "type": "function"
    },
    {
      "inputs": [
        {
          "internalType": "uint256",
          "name": "newProposalThreshold",
          "type": "uint256"
        }
      ],
      "name": "setProposalThreshold",
      "outputs": [],
      "stateMutability": "nonpayable",
      "type": "function"
    },
    {
      "inputs": [
        {
          "internalType": "uint48",
          "name": "newVotingDelay",
          "type": "uint48"
        }
      ],
      "name": "setVotingDelay",
      "outputs": [],
      "stateMutability": "nonpayable",
      "type": "function"
    },
    {
      "inputs": [
        {
          "internalType": "uint32",
          "name": "newVotingPeriod",
          "type": "uint32"
        }
      ],
      "name": "setVotingPeriod",
      "outputs": [],
      "stateMutability": "nonpayable",
      "type": "function"
    },
    {
      "inputs": [
        {
          "internalType": "uint256",
          "name": "proposalId",
          "type": "uint256"
        }
      ],
      "name": "state",
      "outputs": [
        {
          "internalType": "enum IGovernor.ProposalState",
          "name": "",
          "type": "uint8"
        }
      ],
      "stateMutability": "view",
      "type": "function"
    },
    {
      "inputs": [
        {
          "internalType": "bytes4",
          "name": "interfaceId",
          "type": "bytes4"
        }
      ],
      "name": "supportsInterface",
      "outputs": [
        {
          "internalType": "bool",
          "name": "",
          "type": "bool"
        }
      ],
      "stateMutability": "view",
      "type": "function"
    },
    {
      "inputs": [],
      "name": "timelock",
      "outputs": [
        {
          "internalType": "address",
          "name": "",
          "type": "address"
        }
      ],
      "stateMutability": "view",
      "type": "function"
    },
    {
      "inputs": [],
      "name": "token",
      "outputs": [
        {
          "internalType": "contract IERC5805",
          "name": "",
          "type": "address"
        }
      ],
      "stateMutability": "view",
      "type": "function"
    },
    {
      "inputs": [
        {
          "internalType": "contract ICompoundTimelock",
          "name": "newTimelock",
          "type": "address"
        }
      ],
      "name": "updateTimelock",
      "outputs": [],
      "stateMutability": "nonpayable",
      "type": "function"
    },
    {
      "inputs": [],
      "name": "version",
      "outputs": [
        {
          "internalType": "string",
          "name": "",
          "type": "string"
        }
      ],
      "stateMutability": "view",
      "type": "function"
    },
    {
      "inputs": [],
      "name": "votingDelay",
      "outputs": [
        {
          "internalType": "uint256",
          "name": "",
          "type": "uint256"
        }
      ],
      "stateMutability": "view",
      "type": "function"
    },
    {
      "inputs": [],
      "name": "votingPeriod",
      "outputs": [
        {
          "internalType": "uint256",
          "name": "",
          "type": "uint256"
        }
      ],
      "stateMutability": "view",
      "type": "function"
    },
    {
      "stateMutability": "payable",
      "type": "receive"
    }
  ],
  "bytecode": "0x610180604052604051620063ad380380620063ad83398101604081905262000027916200042d565b80828686868a806200004d6040805180820190915260018152603160f81b602082015290565b62000059825f62000161565b610120526200006a81600162000161565b61014052815160208084019190912060e052815190820120610100524660a052620000f760e05161010051604080517f8b73c3c69bb8fe3d512ecc4cf759cc79239f7b179b0ffacaa9a75d522b39400f60208201529081019290925260608201524660808201523060a08201525f9060c00160405160208183030381529060405280519060200120905090565b60805250503060c05260036200010e8282620005bf565b506200011c90508362000199565b6200012782620001ff565b6200013281620002a4565b5050506200014681620002e560201b60201c565b506001600160a01b03166101605250620006df945050505050565b5f602083511015620001805762000178836200036d565b905062000193565b816200018d8482620005bf565b5060ff90505b92915050565b6009546040805165ffffffffffff928316815291831660208301527fc565b045403dc03c2eea82b81a0465edad9e2e7fc4d97e11421c209da93d7a93910160405180910390a16009805465ffffffffffff191665ffffffffffff92909216919091179055565b8063ffffffff165f036200022d5760405163f1cfbf0560e01b81525f60048201526024015b60405180910390fd5b6009546040805163ffffffff66010000000000009093048316815291831660208301527f7e3f7f0708a84de9203036abaa450dccc85ad5ff52f78c170f3edb55cf5e8828910160405180910390a16009805463ffffffff90921666010000000000000263ffffffff60301b19909216919091179055565b60085460408051918252602082018390527fccb45da8d5717e6c4544694297c4ba5cf151d455c9bb0ed4fc7a38411bc05461910160405180910390a1600855565b600954604080516001600160a01b036a01000000000000000000009093048316815291831660208301527f08f74ea46ef7894f65eabfb5e6e695de773a000b47c529ab559178069b226401910160405180910390a1600980546001600160a01b039092166a010000000000000000000002600160501b600160f01b0319909216919091179055565b5f80829050601f815111156200039a578260405163305a27a960e01b815260040162000224919062000687565b8051620003a782620006bb565b179392505050565b634e487b7160e01b5f52604160045260245ffd5b5f5b83811015620003df578181015183820152602001620003c5565b50505f910152565b805165ffffffffffff81168114620003fd575f80fd5b919050565b805163ffffffff81168114620003fd575f80fd5b80516001600160a01b0381168114620003fd575f80fd5b5f805f805f8060c0878903121562000443575f80fd5b86516001600160401b03808211156200045a575f80fd5b818901915089601f8301126200046e575f80fd5b815181811115620004835762000483620003af565b604051601f8201601f19908116603f01168101908382118183101715620004ae57620004ae620003af565b816040528281528c6020848701011115620004c7575f80fd5b620004da836020830160208801620003c3565b809a505050505050620004f060208801620003e7565b9450620005006040880162000402565b935060608701519250620005176080880162000416565b91506200052760a0880162000416565b90509295509295509295565b600181811c908216806200054857607f821691505b6020821081036200056757634e487b7160e01b5f52602260045260245ffd5b50919050565b601f821115620005ba575f81815260208120601f850160051c81016020861015620005955750805b601f850160051c820191505b81811015620005b657828155600101620005a1565b5050505b505050565b81516001600160401b03811115620005db57620005db620003af565b620005f381620005ec845462000533565b846200056d565b602080601f83116001811462000629575f8415620006115750858301515b5f19600386901b1c1916600185901b178555620005b6565b5f85815260208120601f198616915b82811015620006595788860151825594840194600190910190840162000638565b50858210156200067757878501515f19600388901b60f8161c191681555b5050505050600190811b01905550565b602081525f8251806020840152620006a7816040850160208701620003c3565b601f01601f19169190910160400192915050565b8051602080830151919081101562000567575f1960209190910360031b1b16919050565b60805160a05160c05160e05161010051610120516101405161016051615c5d620007505f395f8181610f28015281816115d801528181611c19015261325201525f61273a01525f6123d001525f61300f01525f612fe701525f612f4201525f612f6c01525f612f960152615c5d5ff3fe608060405260043610610445575f3560e01c80637235294511610236578063c59057e411610134578063e23a9a52116100b3578063f23a6e6111610078578063f23a6e6114610ed9578063f8ce560a14610ef8578063fc0c546a14610f17578063fc2e6e3c14610f4a578063fe0d94c114610f69575f80fd5b8063e23a9a5214610d97578063e540d01d14610e5d578063e7fadc1614610e7c578063eb9019d414610e9b578063ece40cc114610eba575f80fd5b8063daf80f5f116100f9578063daf80f5f14610cc2578063dc0e43d214610ce1578063dd4e2ba514610d00578063ddf0b00914610d45578063deaaa7cc14610d64575f80fd5b8063c59057e414610c22578063cbc1c5f314610c41578063d33219b414610c60578063da1c08ff14610c84578063da95691a14610ca3575f80fd5b8063a15697c4116101c0578063b9a6196111610185578063b9a6196114610b9e578063bc197c8114610bb2578063c01f9e3714610bd1578063c242bfc714610bf0578063c28bc2fa14610c0f575f80fd5b8063a15697c414610b0e578063a4da590b14610b2d578063a890c91014610b4c578063ab58fb8e14610b6b578063b58131b014610b8a575f80fd5b80637ecebe00116102065780637ecebe0014610a4a57806384b0196e14610a7e5780638ff262e314610aa557806391ddadf414610ac45780639a802a6d14610aef575f80fd5b806372352945146109ce57806379051887146109ed5780637b3c71d314610a0c5780637d5e81e214610a2b575f80fd5b8063342db73911610343578063506a6f0c116102cd5780635c501ba8116102925780635c501ba8146109495780635f398a141461095d5780635f8d5e741461097c5780636b2f5df0146109905780636b4ac502146109af575f80fd5b8063506a6f0c146108a457806354dc7b41146108c357806354fd4d50146108e2578063567813881461090b5780635b8d0e0d1461092a575f80fd5b8063438596321161031357806343859632146107f7578063452115d61461083e5780634724aa991461085d5780634abf4684146108715780634bf5d7e914610890575f80fd5b8063342db7391461076b5780633932abb1146107905780633e4f49e6146107ac57806340e58ee5146107d8575f80fd5b8063174ccd82116103cf5780632e8fbee5116103945780632e8fbee5146106b75780632fe3e261146106d6578063328dd9821461070957806332cadf3c1461073857806332f4dd991461074c575f80fd5b8063174ccd821461064b57806324bc1a641461065f5780632656227d146106735780632904df29146106865780632d63f69314610698575f80fd5b80630ede0bea116104155780630ede0bea146105755780631164d13b14610594578063143489d0146105a8578063150b7a02146105f4578063160cbed71461062c575f80fd5b8063013cf08b1461048057806301ffc9a7146104fa57806302a251a31461052957806306fdde0314610554575f80fd5b3661047c5730610453610f7c565b6001600160a01b03161461047a57604051637485328f60e11b815260040160405180910390fd5b005b5f80fd5b34801561048b575f80fd5b5061049f61049a36600461471a565b610f97565b604080519a8b526001600160a01b0390991660208b0152978901969096526060880194909452608087019290925260a086015260c085015260e084015215156101008301521515610120820152610140015b60405180910390f35b348015610505575f80fd5b50610519610514366004614731565b61104f565b60405190151581526020016104f1565b348015610534575f80fd5b50600954600160301b900463ffffffff165b6040519081526020016104f1565b34801561055f575f80fd5b5061056861105f565b6040516104f191906147a5565b348015610580575f80fd5b5061047a61058f3660046147b7565b6110ef565b34801561059f575f80fd5b506105686110fb565b3480156105b3575f80fd5b506105dc6105c236600461471a565b5f908152600460205260409020546001600160a01b031690565b6040516001600160a01b0390911681526020016104f1565b3480156105ff575f80fd5b5061061361060e3660046148aa565b611105565b6040516001600160e01b031990911681526020016104f1565b348015610637575f80fd5b50610546610646366004614a85565b611147565b348015610656575f80fd5b5061056861115d565b34801561066a575f80fd5b50610546611167565b610546610681366004614a85565b61117f565b348015610691575f80fd5b50336105dc565b3480156106a3575f80fd5b506105466106b236600461471a565b61118c565b3480156106c2575f80fd5b506105466106d1366004614b0e565b6111ac565b3480156106e1575f80fd5b506105467f3e83946653575f9a39005e1545185629e92736b7528ab20ca3816f315424a81181565b348015610714575f80fd5b5061072861072336600461471a565b6111f6565b6040516104f19493929190614bec565b348015610743575f80fd5b50610568611475565b348015610757575f80fd5b50610546610766366004614c8c565b6114b2565b348015610776575f80fd5b506105466e1a185c991a185d0b595e1c1bdcd959608a1b81565b34801561079b575f80fd5b5060095465ffffffffffff16610546565b3480156107b7575f80fd5b506107cb6107c636600461471a565b61156d565b6040516104f19190614d55565b3480156107e3575f80fd5b5061047a6107f236600461471a565b611577565b348015610802575f80fd5b50610519610811366004614d63565b5f8281526007602081815260408084206001600160a01b0386168552909201905290205460ff1692915050565b348015610849575f80fd5b50610546610858366004614a85565b6115a0565b348015610868575f80fd5b506105dc6115ad565b34801561087c575f80fd5b5061051961088b36600461471a565b6115b6565b34801561089b575f80fd5b506105686115d4565b3480156108af575f80fd5b506105466108be36600461471a565b611694565b3480156108ce575f80fd5b506105196108dd366004614d91565b61169e565b3480156108ed575f80fd5b506040805180820190915260018152603160f81b6020820152610568565b348015610916575f80fd5b50610546610925366004614de1565b6116e6565b348015610935575f80fd5b50610546610944366004614e0b565b611705565b348015610954575f80fd5b50610568611849565b348015610968575f80fd5b50610546610977366004614ebd565b61185f565b348015610987575f80fd5b506105466118b2565b34801561099b575f80fd5b506105466109aa366004614f7a565b6118bb565b3480156109ba575f80fd5b506105466109c9366004615014565b611967565b3480156109d9575f80fd5b506105466109e836600461503e565b6119b3565b3480156109f8575f80fd5b5061047a610a073660046150bc565b611a39565b348015610a17575f80fd5b50610546610a263660046150d7565b611ac5565b348015610a36575f80fd5b50610546610a4536600461512c565b611b15565b348015610a55575f80fd5b50610546610a64366004614b0e565b6001600160a01b03165f9081526002602052604090205490565b348015610a89575f80fd5b50610a92611b22565b6040516104f197969594939291906151c5565b348015610ab0575f80fd5b50610546610abf366004615234565b611b64565b348015610acf575f80fd5b50610ad8611c16565b60405165ffffffffffff90911681526020016104f1565b348015610afa575f80fd5b50610546610b09366004615281565b611c9e565b348015610b19575f80fd5b50610546610b283660046152d5565b611cb1565b348015610b38575f80fd5b5061047a610b473660046152f3565b611cbb565b348015610b57575f80fd5b5061047a610b66366004614b0e565b611d3e565b348015610b76575f80fd5b50610546610b8536600461471a565b611da9565b348015610b95575f80fd5b50610546611dbc565b348015610ba9575f80fd5b5061047a611dc6565b348015610bbd575f80fd5b50610613610bcc366004615395565b611e2b565b348015610bdc575f80fd5b50610546610beb36600461471a565b611e6e565b348015610bfb575f80fd5b5061047a610c0a366004615421565b611eb0565b61047a610c1d366004615495565b611ef2565b348015610c2d575f80fd5b50610546610c3c366004614a85565b611fc8565b348015610c4c575f80fd5b50610546610c5b366004615495565b612001565b348015610c6b575f80fd5b50600954600160501b90046001600160a01b03166105dc565b348015610c8f575f80fd5b5061047a610c9e3660046152f3565b612042565b348015610cae575f80fd5b50610546610cbd36600461554f565b6120bb565b348015610ccd575f80fd5b50610519610cdc36600461471a565b61210d565b348015610cec575f80fd5b5061047a610cfb3660046152f3565b612117565b348015610d0b575f80fd5b5060408051808201909152601a81527f737570706f72743d627261766f2671756f72756d3d627261766f0000000000006020820152610568565b348015610d50575f80fd5b5061047a610d5f36600461471a565b612190565b348015610d6f575f80fd5b506105467ff2aad550cf55f045cb27e9c559f9889fdfb6e6cdaa032301d6ea397784ae51d781565b348015610da2575f80fd5b50610e2d610db1366004614d63565b604080516060810182525f8082526020820181905291810191909152505f9182526007602081815260408085206001600160a01b03949094168552929091018152918190208151606081018352905460ff8082161515835261010082041693820193909352620100009092046001600160601b03169082015290565b6040805182511515815260208084015160ff1690820152918101516001600160601b0316908201526060016104f1565b348015610e68575f80fd5b5061047a610e773660046147b7565b6121b1565b348015610e87575f80fd5b5061047a610e963660046150bc565b611abc565b348015610ea6575f80fd5b50610546610eb5366004615014565b61221b565b348015610ec5575f80fd5b5061047a610ed436600461471a565b61223a565b348015610ee4575f80fd5b50610613610ef33660046155e8565b6122a5565b348015610f03575f80fd5b50610546610f1236600461471a565b505f90565b348015610f22575f80fd5b506105dc7f000000000000000000000000000000000000000000000000000000000000000081565b348015610f55575f80fd5b5061047a610f6436600461471a565b61229c565b61047a610f7736600461471a565b6122e8565b600954600160501b90046001600160a01b031690565b905090565b805f8080808080808080610fbf8a5f908152600460205260409020546001600160a01b031690565b9850610fca8b611da9565b9750610fd58b61118c565b9650610fe08b611e6e565b5f8c8152600760205260408120600481015460058201546006830154949a5090985096509194506110108d61156d565b9050600281600781111561102657611026614d21565b149350600781600781111561103d5761103d614d21565b14925050509193959799509193959799565b5f61105982612309565b92915050565b60606003805461106e9061564b565b80601f016020809104026020016040519081016040528092919081815260200182805461109a9061564b565b80156110e55780601f106110bc576101008083540402835291602001916110e5565b820191905f5260205f20905b8154815290600101906020018083116110c857829003601f168201915b5050505050905090565b6110f88161232d565b50565b6060610f926123c9565b5f3061110f610f7c565b6001600160a01b03161461113657604051637485328f60e11b815260040160405180910390fd5b50630a85bd0160e11b949350505050565b5f611154858585856123f5565b95945050505050565b6060610f92612733565b5f610f926001611175611c16565b610f129190615697565b5f61115485858585612760565b5f90815260046020526040902054600160a01b900465ffffffffffff1690565b5f6111b682612871565b90507f8d5c13b1cd528a3e1895fdc833368c4e3af5391250c736a28e94c4fa59b3cee4816040516111e991815260200190565b60405180910390a1919050565b6060806060805f60075f8781526020019081526020015f209050805f018160010182600201836003018380548060200260200160405190810160405280929190818152602001828054801561127257602002820191905f5260205f20905b81546001600160a01b03168152600190910190602001808311611254575b50505050509350828054806020026020016040519081016040528092919081815260200182805480156112c257602002820191905f5260205f20905b8154815260200190600101908083116112ae575b5050505050925081805480602002602001604051908101604052809291908181526020015f905b82821015611391578382905f5260205f200180546113069061564b565b80601f01602080910402602001604051908101604052809291908181526020018280546113329061564b565b801561137d5780601f106113545761010080835404028352916020019161137d565b820191905f5260205f20905b81548152906001019060200180831161136057829003601f168201915b5050505050815260200190600101906112e9565b50505050915080805480602002602001604051908101604052809291908181526020015f905b8282101561145f578382905f5260205f200180546113d49061564b565b80601f01602080910402602001604051908101604052809291908181526020018280546114009061564b565b801561144b5780601f106114225761010080835404028352916020019161144b565b820191905f5260205f20905b81548152906001019060200180831161142e57829003601f168201915b5050505050815260200190600101906113b7565b5050505090509450945094509450509193509193565b60605f368080601f0160208091040260200160405190810160405280939291908181526020018383808284375f9201919091525092949350505050565b5f61152788888888888080601f0160208091040260200160405190810160405280939291908181526020018383808284375f9201919091525050604080516020601f8c018190048102820181019092528a815292508a91508990819084018382808284375f9201919091525061289392505050565b90507fbbc294ee3436818a3742886cdeae66253f76b5be8870371c691fc6998bd341d58160405161155a91815260200190565b60405180910390a1979650505050505050565b5f61105982612990565b5f805f8061158485612a6f565b9350935093509350611598848484846115a0565b505050505050565b5f61115485858585612ced565b5f610f92610f7c565b5f818152600760205260408120600581015460049091015411611059565b60607f00000000000000000000000000000000000000000000000000000000000000006001600160a01b0316634bf5d7e96040518163ffffffff1660e01b81526004015f60405180830381865afa92505050801561165357506040513d5f823e601f3d908101601f1916820160405261165091908101906156eb565b60015b61168f575060408051808201909152601d81527f6d6f64653d626c6f636b6e756d6265722666726f6d3d64656661756c74000000602082015290565b919050565b5f61105982612da6565b5f6116de8484848080601f0160208091040260200160405190810160405280939291908181526020018383808284375f92019190915250612dd292505050565b949350505050565b5f803390506116de84828560405180602001604052805f815250612ec0565b5f806117c9876117c37f3e83946653575f9a39005e1545185629e92736b7528ab20ca3816f315424a8118c8c8c61173b8e612871565b8d8d60405161174b92919061572f565b60405180910390208c805190602001206040516020016117a89796959493929190968752602087019590955260ff9390931660408601526001600160a01b03919091166060850152608084015260a083015260c082015260e00190565b60405160208183030381529060405280519060200120612da6565b85612ee1565b9050806117f9576040516394ab6c0760e01b81526001600160a01b03881660048201526024015b60405180910390fd5b61183c89888a89898080601f0160208091040260200160405190810160405280939291908181526020018383808284375f920191909152508b9250612893915050565b9998505050505050505050565b6060610f9260408051602081019091525f815290565b5f803390506118a787828888888080601f0160208091040260200160405190810160405280939291908181526020018383808284375f920191909152508a9250612893915050565b979650505050505050565b5f610f92612f36565b5f6119348888808060200260200160405190810160405280939291908181526020018383602002808284375f9201919091525050604080516020808c0282810182019093528b82529093508b92508a9182918501908490808284375f9201919091525061192e925088915089905061573e565b8561305f565b90507f1e0d283ef767dcb5f9efcfe0fbcac2701275d0c54fc3493502558dc018cc3ba28160405161155a91815260200190565b5f611972838361306c565b90507f173c6dfbda204d89ae7b46789365591384ef0c959833564582f96cd15f445b9b816040516119a591815260200190565b60405180910390a192915050565b5f6119f586868686868080601f0160208091040260200160405190810160405280939291908181526020018383808284375f92019190915250612ec092505050565b90507fdbf058c917126a478393ed3aa13dcdc461cc19db88c176507846e6f69ca627f981604051611a2891815260200190565b60405180910390a195945050505050565b33611a42610f7c565b6001600160a01b031614611a7757335b6040516347096e4760e01b81526001600160a01b0390911660048201526024016117f0565b30611a80610f7c565b6001600160a01b031614611abc575f8036604051611a9f92919061572f565b604051809103902090505b80611ab560056130ab565b03611aaa57505b6110f881613128565b5f80339050611b0b86828787878080601f0160208091040260200160405190810160405280939291908181526020018383808284375f92019190915250612ec092505050565b9695505050505050565b5f6111548585858561318e565b5f6060805f805f6060611b336123c9565b611b3b612733565b604080515f80825260208201909252600f60f81b9b939a50919850469750309650945092509050565b5f80611bd1846117c37ff2aad550cf55f045cb27e9c559f9889fdfb6e6cdaa032301d6ea397784ae51d7898989611b9a8b612871565b60408051602081019690965285019390935260ff90911660608401526001600160a01b0316608083015260a082015260c0016117a8565b905080611bfc576040516394ab6c0760e01b81526001600160a01b03851660048201526024016117f0565b611b0b86858760405180602001604052805f815250612ec0565b5f7f00000000000000000000000000000000000000000000000000000000000000006001600160a01b03166391ddadf46040518163ffffffff1660e01b8152600401602060405180830381865afa925050508015611c91575060408051601f3d908101601f19168201909252611c8e9181019061574a565b60015b61168f57610f92436131f4565b5f6116de84848461322a565b9392505050565b5f611059826132bd565b611d34888888808060200260200160405190810160405280939291908181526020018383602002808284375f9201919091525050604080516020808c0282810182019093528b82529093508b92508a9182918501908490808284375f92019190915250611d2e925088915089905061573e565b856132df565b5050505050505050565b33611d47610f7c565b6001600160a01b031614611d5b5733611a52565b30611d64610f7c565b6001600160a01b031614611da0575f8036604051611d8392919061572f565b604051809103902090505b80611d9960056130ab565b03611d8e57505b6110f88161331a565b5f818152600a6020526040812054611059565b5f610f9260085490565b6009600a9054906101000a90046001600160a01b03166001600160a01b0316630e18b6816040518163ffffffff1660e01b81526004015f604051808303815f87803b158015611e13575f80fd5b505af1158015611e25573d5f803e3d5ffd5b50505050565b5f30611e35610f7c565b6001600160a01b031614611e5c57604051637485328f60e11b815260040160405180910390fd5b5063bc197c8160e01b95945050505050565b5f81815260046020526040812054611ea290600160d01b810463ffffffff1690600160a01b900465ffffffffffff16615765565b65ffffffffffff1692915050565b6115988686868686868080601f0160208091040260200160405190810160405280939291908181526020018383808284375f920191909152506133a992505050565b33611efb610f7c565b6001600160a01b031614611f0f5733611a52565b30611f18610f7c565b6001600160a01b031614611f54575f8036604051611f3792919061572f565b604051809103902090505b80611f4d60056130ab565b03611f4257505b5f80856001600160a01b0316858585604051611f7192919061572f565b5f6040518083038185875af1925050503d805f8114611fab576040519150601f19603f3d011682016040523d82523d5f602084013e611fb0565b606091505b5091509150611fbf82826134c1565b50505050505050565b5f84848484604051602001611fe09493929190615784565b60408051601f19818403018152919052805160209091012095945050505050565b5f611154858585858080601f0160208091040260200160405190810160405280939291908181526020018383808284375f9201919091525061322a92505050565b611d34888888808060200260200160405190810160405280939291908181526020018383602002808284375f9201919091525050604080516020808c0282810182019093528b82529093508b92508a9182918501908490808284375f920191909152506120b5925088915089905061573e565b856134d0565b5f82518451146120eb5783518351604051632c8458e160e01b8152600481019290925260248201526044016117f0565b6120f88686868686613568565b611b0b86866121078787613603565b85611b15565b5f61105982613773565b611d34888888808060200260200160405190810160405280939291908181526020018383602002808284375f9201919091525050604080516020808c0282810182019093528b82529093508b92508a9182918501908490808284375f9201919091525061218a925088915089905061573e565b8561379a565b5f805f8061219d85612a6f565b935093509350935061159884848484611147565b336121ba610f7c565b6001600160a01b0316146121ce5733611a52565b306121d7610f7c565b6001600160a01b0316146110ef575f80366040516121f692919061572f565b604051809103902090505b8061220c60056130ab565b0361220157506110f88161232d565b5f611caa838361223560408051602081019091525f815290565b61322a565b33612243610f7c565b6001600160a01b0316146122575733611a52565b30612260610f7c565b6001600160a01b03161461229c575f803660405161227f92919061572f565b604051809103902090505b8061229560056130ab565b0361228a57505b6110f8816137a7565b5f306122af610f7c565b6001600160a01b0316146122d657604051637485328f60e11b815260040160405180910390fd5b5063f23a6e6160e01b95945050505050565b5f805f806122f585612a6f565b93509350935093506115988484848461117f565b5f6001600160e01b03198216636e665ced60e01b14806110595750611059826137e8565b8063ffffffff165f036123555760405163f1cfbf0560e01b81525f60048201526024016117f0565b6009546040805163ffffffff600160301b9093048316815291831660208301527f7e3f7f0708a84de9203036abaa450dccc85ad5ff52f78c170f3edb55cf5e8828910160405180910390a16009805463ffffffff909216600160301b0269ffffffff00000000000019909216919091179055565b6060610f927f00000000000000000000000000000000000000000000000000000000000000005f613883565b5f8061240386868686611fc8565b90505f61240f8261156d565b9050600481600781111561242557612425614d21565b1461245257818161243660046132bd565b6040516331b75e4d60e01b81526004016117f0939291906157ce565b5f6009600a9054906101000a90046001600160a01b03166001600160a01b0316636a42b8f86040518163ffffffff1660e01b8152600401602060405180830381865afa1580156124a4573d5f803e3d5ffd5b505050506040513d601f19601f820116820180604052508101906124c891906157f0565b6124d29042615807565b5f848152600a602052604081208290559091505b88518110156126ec576009600a9054906101000a90046001600160a01b03166001600160a01b031663f2b065378a83815181106125255761252561581a565b60200260200101518a848151811061253f5761253f61581a565b60200260200101518a85815181106125595761255961581a565b602002602001015186604051602001612575949392919061582e565b604051602081830303815290604052805190602001206040518263ffffffff1660e01b81526004016125a991815260200190565b602060405180830381865afa1580156125c4573d5f803e3d5ffd5b505050506040513d601f19601f820116820180604052508101906125e89190615872565b156126095760405163f20e7d3760e01b8152600481018590526024016117f0565b6009600a9054906101000a90046001600160a01b03166001600160a01b0316633a66f9018a838151811061263f5761263f61581a565b60200260200101518a84815181106126595761265961581a565b60200260200101518a85815181106126735761267361581a565b6020026020010151866040518563ffffffff1660e01b815260040161269b949392919061582e565b6020604051808303815f875af11580156126b7573d5f803e3d5ffd5b505050506040513d601f19601f820116820180604052508101906126db91906157f0565b506126e581615891565b90506124e6565b5060408051848152602081018390527f9a2e42fd6722813d69113e7d0079d3d940171428df7373df9c7f7617cfda289291015b60405180910390a150909695505050505050565b6060610f927f00000000000000000000000000000000000000000000000000000000000000006001613883565b5f8061276e86868686611fc8565b90505f61277a8261156d565b9050600481600781111561279057612790614d21565b141580156127b0575060058160078111156127ad576127ad614d21565b14155b156127e85781816127c160056132bd565b6127cb60046132bd565b176040516331b75e4d60e01b81526004016117f0939291906157ce565b5f8281526004602052604090819020805460ff60f01b1916600160f01b179055517f712ae1383f79ac853f8d882153778e0260ef8f03b504e2866e0593e04d2b291f906128389084815260200190565b60405180910390a161284d82888888886134d0565b61285a828888888861379a565b61286782888888886132df565b5095945050505050565b6001600160a01b03165f90815260026020526040902080546001810190915590565b5f8061289e8761156d565b905060018160078111156128b4576128b4614d21565b146128c557868161243660016132bd565b5f6128d9876128d38a61118c565b8661322a565b90506128e888888884886133a9565b83515f0361293c57866001600160a01b03167fb8e138887d0aa13bab447e82de9d5c1777041ecd21ca36ba824ff1e6c07ddda48988848960405161292f94939291906158a9565b60405180910390a26118a7565b866001600160a01b03167fe2babfbac5889a709b63bb7f598b324e08bc5a4fb9ec647fb3cbc9ec07eb8712898884898960405161297d9594939291906158d0565b60405180910390a2979650505050505050565b5f8061299b8361392c565b905060048160078111156129b1576129b1614d21565b146129bc5792915050565b5f6129c684611da9565b9050805f036129d6575092915050565b6009600a9054906101000a90046001600160a01b03166001600160a01b031663c1a287e26040518163ffffffff1660e01b8152600401602060405180830381865afa158015612a27573d5f803e3d5ffd5b505050506040513d601f19601f82011682018060405250810190612a4b91906157f0565b612a559082615807565b4210612a65575060069392505050565b5060059392505050565b60608060605f8060075f8781526020019081526020015f209050805f0181600101612c3283600201805480602002602001604051908101604052809291908181526020015f905b82821015612b5e578382905f5260205f20018054612ad39061564b565b80601f0160208091040260200160405190810160405280929190818152602001828054612aff9061564b565b8015612b4a5780601f10612b2157610100808354040283529160200191612b4a565b820191905f5260205f20905b815481529060010190602001808311612b2d57829003601f168201915b505050505081526020019060010190612ab6565b5050506003860180546040805160208084028201810190925282815293505f9084015b82821015612c29578382905f5260205f20018054612b9e9061564b565b80601f0160208091040260200160405190810160405280929190818152602001828054612bca9061564b565b8015612c155780601f10612bec57610100808354040283529160200191612c15565b820191905f5260205f20905b815481529060010190602001808311612bf857829003601f168201915b505050505081526020019060010190612b81565b50505050613603565b6008840154835460408051602080840282018101909252828152918691830182828015612c8657602002820191905f5260205f20905b81546001600160a01b03168152600190910190602001808311612c68575b5050505050935082805480602002602001604051908101604052809291908181526020018280548015612cd657602002820191905f5260205f20905b815481526020019060010190808311612cc2575b505050505092509450945094509450509193509193565b5f80612cfb86868686611fc8565b5f818152600460205260408120549192506001600160a01b0390911690612d3d826001612d26611c16565b612d309190615697565b65ffffffffffff1661221b565b90505f612d48611dbc565b9050336001600160a01b03841614801590612d635750808210155b15612d9a57604051636121770b60e11b81526001600160a01b038416600482015260248101839052604481018290526064016117f0565b61183c8989898961305f565b5f611059612db2612f36565b8360405161190160f01b8152600281019290925260228201526042902090565b80515f906034811015612de9576001915050611059565b82810160131901516001600160a01b031981166b046e0e4dee0dee6cae47a60f60a31b14612e1c57600192505050611059565b5f80612e29602885615915565b90505b83811015612e9f575f80612e5f888481518110612e4b57612e4b61581a565b01602001516001600160f81b031916613a79565b9150915081612e775760019650505050505050611059565b8060ff166004856001600160a01b0316901b179350505080612e9890615891565b9050612e2c565b50856001600160a01b0316816001600160a01b031614935050505092915050565b5f61115485858585612edc60408051602081019091525f815290565b612893565b5f805f612eee8585613b09565b5090925090505f816003811115612f0757612f07614d21565b148015612f255750856001600160a01b0316826001600160a01b0316145b80611b0b5750611b0b868686613b52565b5f306001600160a01b037f000000000000000000000000000000000000000000000000000000000000000016148015612f8e57507f000000000000000000000000000000000000000000000000000000000000000046145b15612fb857507f000000000000000000000000000000000000000000000000000000000000000090565b610f92604080517f8b73c3c69bb8fe3d512ecc4cf759cc79239f7b179b0ffacaa9a75d522b39400f60208201527f0000000000000000000000000000000000000000000000000000000000000000918101919091527f000000000000000000000000000000000000000000000000000000000000000060608201524660808201523060a08201525f9060c00160405160208183030381529060405280519060200120905090565b5f61115485858585613c28565b5f8061307784612871565b9050808314611caa576040516301d4b62360e61b81526001600160a01b0385166004820152602481018290526044016117f0565b5f6130c58254600f81810b600160801b909204900b131590565b156130e3576040516375e52f4f60e01b815260040160405180910390fd5b508054600f0b5f818152600180840160205260408220805492905583546fffffffffffffffffffffffffffffffff191692016001600160801b03169190911790915590565b6009546040805165ffffffffffff928316815291831660208301527fc565b045403dc03c2eea82b81a0465edad9e2e7fc4d97e11421c209da93d7a93910160405180910390a16009805465ffffffffffff191665ffffffffffff92909216919091179055565b5f6131e8858585516001600160401b038111156131ad576131ad6147ee565b6040519080825280602002602001820160405280156131e057816020015b60608152602001906001900390816131cb5790505b508686613568565b61115485858585613d40565b5f65ffffffffffff821115613226576040516306dfcc6560e41b815260306004820152602481018390526044016117f0565b5090565b604051630748d63560e31b81526001600160a01b038481166004830152602482018490525f917f000000000000000000000000000000000000000000000000000000000000000090911690633a46b1a890604401602060405180830381865afa158015613299573d5f803e3d5ffd5b505050506040513d601f19601f820116820180604052508101906116de91906157f0565b5f8160078111156132d0576132d0614d21565b600160ff919091161b92915050565b306132e8610f7c565b6001600160a01b03161461331357600554600f81810b600160801b909204900b1315613313575f6005555b5050505050565b600954604080516001600160a01b03600160501b9093048316815291831660208301527f08f74ea46ef7894f65eabfb5e6e695de773a000b47c529ab559178069b226401910160405180910390a1600980546001600160a01b03909216600160501b027fffff0000000000000000000000000000000000000000ffffffffffffffffffff909216919091179055565b5f8581526007602081815260408084206001600160a01b0389168552928301909152909120805460ff16156133fc576040516371c6af4960e01b81526001600160a01b03871660048201526024016117f0565b805460ff86166101000261ffff1990911617600117815561341c8461408e565b81546001600160601b039190911662010000026dffffffffffffffffffffffff00001990911617815560ff851661346b5783826005015f8282546134609190615807565b90915550611fbf9050565b5f1960ff8616016134895783826004015f8282546134609190615807565b60011960ff8616016134a85783826006015f8282546134609190615807565b6040516303599be160e11b815260040160405180910390fd5b6060611caa83836140c16140da565b306134d9610f7c565b6001600160a01b031614613313575f5b845181101561159857306001600160a01b031685828151811061350e5761350e61581a565b60200260200101516001600160a01b031603613558576135588382815181106135395761353961581a565b60200260200101518051906020012060056140f390919063ffffffff16565b61356181615891565b90506134e9565b805160208201205f613585878761357f8888613603565b85611fc8565b5f818152600760205260409020600881015491925090611d345787516135b190829060208b019061455f565b5086516135c790600183019060208a01906145be565b5085516135dd90600283019060208901906145f7565b5084516135f39060038301906020880190614647565b5060080191909155505050505050565b60605f82516001600160401b0381111561361f5761361f6147ee565b60405190808252806020026020018201604052801561365257816020015b606081526020019060019003908161363d5790505b5090505f5b815181101561376b578481815181106136725761367261581a565b6020026020010151515f14613722578481815181106136935761369361581a565b602090810291909101015160408051600481526024810191829052916136b891615928565b60405180910390206001600160e01b0319166020820180516001600160e01b0383818316178352505050508482815181106136f5576136f561581a565b602002602001015160405160200161370e929190615943565b60405160208183030381529060405261373d565b8381815181106137345761373461581a565b60200260200101515b82828151811061374f5761374f61581a565b60200260200101819052508061376490615891565b9050613657565b509392505050565b5f8181526007602052604081206004810154613791610f128561118c565b11159392505050565b613313858585858561412e565b60085460408051918252602082018390527fccb45da8d5717e6c4544694297c4ba5cf151d455c9bb0ed4fc7a38411bc05461910160405180910390a1600855565b5f63288ace0360e11b63278d2b9d60e21b630b184e8960e01b63952ce0fd60e01b6001600160e01b0319861682148061382d57506001600160e01b0319868116908216145b8061384457506001600160e01b0319868116908516145b8061385f57506001600160e01b03198616630271189760e51b145b80611b0b57506301ffc9a760e01b6001600160e01b03198716149695505050505050565b606060ff831461389d576138968361426a565b9050611059565b8180546138a99061564b565b80601f01602080910402602001604051908101604052809291908181526020018280546138d59061564b565b80156139205780601f106138f757610100808354040283529160200191613920565b820191905f5260205f20905b81548152906001019060200180831161390357829003601f168201915b50505050509050611059565b5f818152600460209081526040808320815160a08101835290546001600160a01b038116825265ffffffffffff600160a01b8204169382019390935263ffffffff600160d01b8404169181019190915260ff600160f01b830481161580156060840152600160f81b9093041615156080820152906139ad5750600792915050565b8060800151156139c05750600292915050565b5f6139ca8461118c565b9050805f036139ef57604051636ad0607560e01b8152600481018590526024016117f0565b5f6139f8611c16565b65ffffffffffff169050808210613a1357505f949350505050565b5f613a1d86611e6e565b9050818110613a325750600195945050505050565b613a3b86613773565b8015613a5c57505f8681526007602052604090206005810154600490910154115b15613a6d5750600495945050505050565b50600395945050505050565b5f8060f883901c602f81118015613a935750603a8160ff16105b15613aa857600194602f199091019350915050565b8060ff166040108015613abe575060478160ff16105b15613ad3576001946036199091019350915050565b8060ff166060108015613ae9575060678160ff16105b15613afe576001946056199091019350915050565b505f93849350915050565b5f805f8351604103613b40576020840151604085015160608601515f1a613b32888285856142a7565b955095509550505050613b4b565b505081515f91506002905b9250925092565b5f805f856001600160a01b03168585604051602401613b72929190615971565b60408051601f198184030181529181526020820180516001600160e01b0316630b135d3f60e11b17905251613ba79190615928565b5f60405180830381855afa9150503d805f8114613bdf576040519150601f19603f3d011682016040523d82523d5f602084013e613be4565b606091505b5091509150818015613bf857506020815110155b8015611b0b57508051630b135d3f60e11b90613c1d90830160209081019084016157f0565b149695505050505050565b5f80613c368686868661436f565b90505f613c4282611da9565b90508015612867575f828152600a602052604081208190555b8751811015613d34576009600a9054906101000a90046001600160a01b03166001600160a01b031663591fcdfe898381518110613c9a57613c9a61581a565b6020026020010151898481518110613cb457613cb461581a565b6020026020010151898581518110613cce57613cce61581a565b6020026020010151866040518563ffffffff1660e01b8152600401613cf6949392919061582e565b5f604051808303815f87803b158015613d0d575f80fd5b505af1158015613d1f573d5f803e3d5ffd5b5050505080613d2d90615891565b9050613c5b565b50509050949350505050565b5f33613d4c8184612dd2565b613d985760405162461bcd60e51b815260206004820152601d60248201527f476f7665726e6f723a2070726f706f736572207265737472696374656400000060448201526064016117f0565b5f613da1611c16565b65ffffffffffff1690505f613dbb83610eb5600185615915565b90505f613dc6611dbc565b905080821015613e0257604051636121770b60e11b81526001600160a01b038516600482015260248101839052604481018290526064016117f0565b50505f613e188888888880519060200120611fc8565b905086518851141580613e2d57508551885114155b80613e3757508751155b15613e6c57875186518851604051630447b05d60e41b81526004810193909352602483019190915260448201526064016117f0565b5f81815260046020526040902054600160a01b900465ffffffffffff1615613eb55780613e988261156d565b6040516331b75e4d60e01b81526117f09291905f906004016157ce565b5f613ec760095465ffffffffffff1690565b613ed19084615807565b90505f613eeb60095463ffffffff600160301b9091041690565b90506040518060a00160405280866001600160a01b03168152602001613f10846131f4565b65ffffffffffff168152602001613f2683614454565b63ffffffff90811682525f60208084018290526040938401829052878252600481529083902084518154928601519486015160608701516080909701511515600160f81b026001600160f81b03971515600160f01b0260ff60f01b1992909616600160d01b029190911664ffffffffff60d01b1965ffffffffffff909716600160a01b026001600160d01b03199095166001600160a01b0390931692909217939093179490941693909317919091179290921691909117905589517f7d84a6263ae0d98d3329bd7b46bb4e8d6f98cd35a7adb45c274c8b7fd5ebd5e090849087908d908d906001600160401b03811115614022576140226147ee565b60405190808252806020026020018201604052801561405557816020015b60608152602001906001900390816140405790505b508d886140628982615807565b8f60405161407899989796959493929190615989565b60405180910390a1509098975050505050505050565b5f6001600160601b03821115613226576040516306dfcc6560e41b815260606004820152602481018390526044016117f0565b604051630a12f52160e11b815260040160405180910390fd5b606083156140e9575081611caa565b611caa8383614484565b8154600160801b90819004600f0b5f818152600180860160205260409091209390935583546001600160801b03908116939091011602179055565b5f61413886611da9565b9050805f0361415d5760405163d5ddb82560e01b8152600481018790526024016117f0565b60095461417a90600160501b90046001600160a01b0316346144a0565b5f5b8551811015611fbf576009600a9054906101000a90046001600160a01b03166001600160a01b0316630825f38f8783815181106141bb576141bb61581a565b60200260200101518784815181106141d5576141d561581a565b60200260200101518785815181106141ef576141ef61581a565b6020026020010151866040518563ffffffff1660e01b8152600401614217949392919061582e565b5f604051808303815f875af1158015614232573d5f803e3d5ffd5b505050506040513d5f823e601f3d908101601f1916820160405261425991908101906156eb565b5061426381615891565b905061417c565b60605f61427683614538565b6040805160208082528183019092529192505f91906020820181803683375050509182525060208101929092525090565b5f80807f7fffffffffffffffffffffffffffffff5d576e7357a4501ddfe92f46681b20a08411156142e057505f91506003905082614365565b604080515f808252602082018084528a905260ff891692820192909252606081018790526080810186905260019060a0016020604051602081039080840390855afa158015614331573d5f803e3d5ffd5b5050604051601f1901519150506001600160a01b03811661435c57505f925060019150829050614365565b92505f91508190505b9450945094915050565b5f8061437d86868686611fc8565b90505f6143898261156d565b90505f61439660076132bd565b6143a060066132bd565b6143aa60026132bd565b171790506143b7826132bd565b8116156144025782828260016143ce600782615a20565b6143d9906002615b19565b6143e39190615915565b5f1b186040516331b75e4d60e01b81526004016117f0939291906157ce565b5f838152600460205260409081902080546001600160f81b0316600160f81b179055517f789cf55be980739dad1d0699b93b58e806b51c9d96619bfa8fe0a28abaa7b30c9061271f9085815260200190565b5f63ffffffff821115613226576040516306dfcc6560e41b815260206004820152602481018390526044016117f0565b8151156144945781518083602001fd5b6140c18163ffffffff16565b804710156144c35760405163cd78605960e01b81523060048201526024016117f0565b5f826001600160a01b0316826040515f6040518083038185875af1925050503d805f811461450c576040519150601f19603f3d011682016040523d82523d5f602084013e614511565b606091505b505090508061453357604051630a12f52160e11b815260040160405180910390fd5b505050565b5f60ff8216601f81111561105957604051632cd44ac360e21b815260040160405180910390fd5b828054828255905f5260205f209081019282156145b2579160200282015b828111156145b257825182546001600160a01b0319166001600160a01b0390911617825560209092019160019091019061457d565b50613226929150614697565b828054828255905f5260205f209081019282156145b2579160200282015b828111156145b25782518255916020019190600101906145dc565b828054828255905f5260205f2090810192821561463b579160200282015b8281111561463b578251829061462b9082615b6c565b5091602001919060010190614615565b506132269291506146ab565b828054828255905f5260205f2090810192821561468b579160200282015b8281111561468b578251829061467b9082615b6c565b5091602001919060010190614665565b506132269291506146c7565b5b80821115613226575f8155600101614698565b80821115613226575f6146be82826146e3565b506001016146ab565b80821115613226575f6146da82826146e3565b506001016146c7565b5080546146ef9061564b565b5f825580601f106146fe575050565b601f0160209004905f5260205f20908101906110f89190614697565b5f6020828403121561472a575f80fd5b5035919050565b5f60208284031215614741575f80fd5b81356001600160e01b031981168114611caa575f80fd5b5f5b8381101561477257818101518382015260200161475a565b50505f910152565b5f8151808452614791816020860160208601614758565b601f01601f19169290920160200192915050565b602081525f611caa602083018461477a565b5f602082840312156147c7575f80fd5b813563ffffffff81168114611caa575f80fd5b6001600160a01b03811681146110f8575f80fd5b634e487b7160e01b5f52604160045260245ffd5b604051601f8201601f191681016001600160401b038111828210171561482a5761482a6147ee565b604052919050565b5f6001600160401b0382111561484a5761484a6147ee565b50601f01601f191660200190565b5f82601f830112614867575f80fd5b813561487a61487582614832565b614802565b81815284602083860101111561488e575f80fd5b816020850160208301375f918101602001919091529392505050565b5f805f80608085870312156148bd575f80fd5b84356148c8816147da565b935060208501356148d8816147da565b92506040850135915060608501356001600160401b038111156148f9575f80fd5b61490587828801614858565b91505092959194509250565b5f6001600160401b03821115614929576149296147ee565b5060051b60200190565b5f82601f830112614942575f80fd5b8135602061495261487583614911565b82815260059290921b84018101918181019086841115614970575f80fd5b8286015b84811015614994578035614987816147da565b8352918301918301614974565b509695505050505050565b5f82601f8301126149ae575f80fd5b813560206149be61487583614911565b82815260059290921b840181019181810190868411156149dc575f80fd5b8286015b8481101561499457803583529183019183016149e0565b5f614a0461487584614911565b8381529050602080820190600585901b840186811115614a22575f80fd5b845b81811015614a5c5780356001600160401b03811115614a42575f8081fd5b614a4e89828901614858565b855250928201928201614a24565b505050509392505050565b5f82601f830112614a76575f80fd5b611caa838335602085016149f7565b5f805f8060808587031215614a98575f80fd5b84356001600160401b0380821115614aae575f80fd5b614aba88838901614933565b95506020870135915080821115614acf575f80fd5b614adb8883890161499f565b94506040870135915080821115614af0575f80fd5b50614afd87828801614a67565b949793965093946060013593505050565b5f60208284031215614b1e575f80fd5b8135611caa816147da565b5f8151808452602080850194508084015f5b83811015614b605781516001600160a01b031687529582019590820190600101614b3b565b509495945050505050565b5f8151808452602080850194508084015f5b83811015614b6057815187529582019590820190600101614b7d565b5f81518084526020808501808196508360051b810191508286015f5b85811015614bdf578284038952614bcd84835161477a565b98850198935090840190600101614bb5565b5091979650505050505050565b608081525f614bfe6080830187614b29565b8281036020840152614c108187614b6b565b90508281036040840152614c248186614b99565b905082810360608401526118a78185614b99565b803560ff8116811461168f575f80fd5b5f8083601f840112614c58575f80fd5b5081356001600160401b03811115614c6e575f80fd5b602083019150836020828501011115614c85575f80fd5b9250929050565b5f805f805f805f60a0888a031215614ca2575f80fd5b873596506020880135614cb4816147da565b9550614cc260408901614c38565b945060608801356001600160401b0380821115614cdd575f80fd5b614ce98b838c01614c48565b909650945060808a0135915080821115614d01575f80fd5b50614d0e8a828b01614c48565b989b979a50959850939692959293505050565b634e487b7160e01b5f52602160045260245ffd5b60088110614d5157634e487b7160e01b5f52602160045260245ffd5b9052565b602081016110598284614d35565b5f8060408385031215614d74575f80fd5b823591506020830135614d86816147da565b809150509250929050565b5f805f60408486031215614da3575f80fd5b8335614dae816147da565b925060208401356001600160401b03811115614dc8575f80fd5b614dd486828701614c48565b9497909650939450505050565b5f8060408385031215614df2575f80fd5b82359150614e0260208401614c38565b90509250929050565b5f805f805f805f60c0888a031215614e21575f80fd5b87359650614e3160208901614c38565b95506040880135614e41816147da565b945060608801356001600160401b0380821115614e5c575f80fd5b614e688b838c01614c48565b909650945060808a0135915080821115614e80575f80fd5b614e8c8b838c01614858565b935060a08a0135915080821115614ea1575f80fd5b50614eae8a828b01614858565b91505092959891949750929550565b5f805f805f60808688031215614ed1575f80fd5b85359450614ee160208701614c38565b935060408601356001600160401b0380821115614efc575f80fd5b614f0889838a01614c48565b90955093506060880135915080821115614f20575f80fd5b50614f2d88828901614858565b9150509295509295909350565b5f8083601f840112614f4a575f80fd5b5081356001600160401b03811115614f60575f80fd5b6020830191508360208260051b8501011115614c85575f80fd5b5f805f805f805f6080888a031215614f90575f80fd5b87356001600160401b0380821115614fa6575f80fd5b614fb28b838c01614f3a565b909950975060208a0135915080821115614fca575f80fd5b614fd68b838c01614f3a565b909750955060408a0135915080821115614fee575f80fd5b50614ffb8a828b01614f3a565b989b979a50959894979596606090950135949350505050565b5f8060408385031215615025575f80fd5b8235615030816147da565b946020939093013593505050565b5f805f805f60808688031215615052575f80fd5b853594506020860135615064816147da565b935061507260408701614c38565b925060608601356001600160401b0381111561508c575f80fd5b61509888828901614c48565b969995985093965092949392505050565b65ffffffffffff811681146110f8575f80fd5b5f602082840312156150cc575f80fd5b8135611caa816150a9565b5f805f80606085870312156150ea575f80fd5b843593506150fa60208601614c38565b925060408501356001600160401b03811115615114575f80fd5b61512087828801614c48565b95989497509550505050565b5f805f806080858703121561513f575f80fd5b84356001600160401b0380821115615155575f80fd5b61516188838901614933565b95506020870135915080821115615176575f80fd5b6151828883890161499f565b94506040870135915080821115615197575f80fd5b6151a388838901614a67565b935060608701359150808211156151b8575f80fd5b5061490587828801614858565b60ff60f81b8816815260e060208201525f6151e360e083018961477a565b82810360408401526151f5818961477a565b606084018890526001600160a01b038716608085015260a0840186905283810360c085015290506152268185614b6b565b9a9950505050505050505050565b5f805f8060808587031215615247575f80fd5b8435935061525760208601614c38565b92506040850135615267816147da565b915060608501356001600160401b038111156148f9575f80fd5b5f805f60608486031215615293575f80fd5b833561529e816147da565b92506020840135915060408401356001600160401b038111156152bf575f80fd5b6152cb86828701614858565b9150509250925092565b5f602082840312156152e5575f80fd5b813560088110611caa575f80fd5b5f805f805f805f8060a0898b03121561530a575f80fd5b8835975060208901356001600160401b0380821115615327575f80fd5b6153338c838d01614f3a565b909950975060408b013591508082111561534b575f80fd5b6153578c838d01614f3a565b909750955060608b013591508082111561536f575f80fd5b5061537c8b828c01614f3a565b999c989b50969995989497949560800135949350505050565b5f805f805f60a086880312156153a9575f80fd5b85356153b4816147da565b945060208601356153c4816147da565b935060408601356001600160401b03808211156153df575f80fd5b6153eb89838a0161499f565b94506060880135915080821115615400575f80fd5b61540c89838a0161499f565b93506080880135915080821115614f20575f80fd5b5f805f805f8060a08789031215615436575f80fd5b863595506020870135615448816147da565b945061545660408801614c38565b93506060870135925060808701356001600160401b03811115615477575f80fd5b61548389828a01614c48565b979a9699509497509295939492505050565b5f805f80606085870312156154a8575f80fd5b84356154b3816147da565b93506020850135925060408501356001600160401b03811115615114575f80fd5b5f82601f8301126154e3575f80fd5b813560206154f361487583614911565b82815260059290921b84018101918181019086841115615511575f80fd5b8286015b848110156149945780356001600160401b03811115615533575f8081fd5b6155418986838b0101614858565b845250918301918301615515565b5f805f805f60a08688031215615563575f80fd5b85356001600160401b0380821115615579575f80fd5b61558589838a01614933565b9650602088013591508082111561559a575f80fd5b6155a689838a0161499f565b955060408801359150808211156155bb575f80fd5b6155c789838a016154d4565b945060608801359150808211156155dc575f80fd5b61540c89838a01614a67565b5f805f805f60a086880312156155fc575f80fd5b8535615607816147da565b94506020860135615617816147da565b9350604086013592506060860135915060808601356001600160401b0381111561563f575f80fd5b614f2d88828901614858565b600181811c9082168061565f57607f821691505b60208210810361567d57634e487b7160e01b5f52602260045260245ffd5b50919050565b634e487b7160e01b5f52601160045260245ffd5b65ffffffffffff8281168282160390808211156156b6576156b6615683565b5092915050565b5f6156ca61487584614832565b90508281528383830111156156dd575f80fd5b611caa836020830184614758565b5f602082840312156156fb575f80fd5b81516001600160401b03811115615710575f80fd5b8201601f81018413615720575f80fd5b6116de848251602084016156bd565b818382375f9101908152919050565b5f611caa3684846149f7565b5f6020828403121561575a575f80fd5b8151611caa816150a9565b65ffffffffffff8181168382160190808211156156b6576156b6615683565b608081525f6157966080830187614b29565b82810360208401526157a88187614b6b565b905082810360408401526157bc8186614b99565b91505082606083015295945050505050565b838152606081016157e26020830185614d35565b826040830152949350505050565b5f60208284031215615800575f80fd5b5051919050565b8082018082111561105957611059615683565b634e487b7160e01b5f52603260045260245ffd5b60018060a01b038516815283602082015260a060408201525f60a082015260c060608201525f61586160c083018561477a565b905082608083015295945050505050565b5f60208284031215615882575f80fd5b81518015158114611caa575f80fd5b5f600182016158a2576158a2615683565b5060010190565b84815260ff84166020820152826040820152608060608201525f611b0b608083018461477a565b85815260ff8516602082015283604082015260a060608201525f6158f760a083018561477a565b8281036080840152615909818561477a565b98975050505050505050565b8181038181111561105957611059615683565b5f8251615939818460208701614758565b9190910192915050565b5f8351615954818460208801614758565b835190830190615968818360208801614758565b01949350505050565b828152604060208201525f6116de604083018461477a565b8981526001600160a01b0389166020820152610120604082018190525f906159b38382018b614b29565b905082810360608401526159c7818a614b6b565b905082810360808401526159db8189614b99565b905082810360a08401526159ef8188614b99565b90508560c08401528460e0840152828103610100840152615a10818561477a565b9c9b505050505050505050505050565b60ff818116838216019081111561105957611059615683565b600181815b80851115615a7357815f1904821115615a5957615a59615683565b80851615615a6657918102915b93841c9390800290615a3e565b509250929050565b5f82615a8957506001611059565b81615a9557505f611059565b8160018114615aab5760028114615ab557615ad1565b6001915050611059565b60ff841115615ac657615ac6615683565b50506001821b611059565b5060208310610133831016604e8410600b8410161715615af4575081810a611059565b615afe8383615a39565b805f1904821115615b1157615b11615683565b029392505050565b5f611caa60ff841683615a7b565b601f821115614533575f81815260208120601f850160051c81016020861015615b4d5750805b601f850160051c820191505b8181101561159857828155600101615b59565b81516001600160401b03811115615b8557615b856147ee565b615b9981615b93845461564b565b84615b27565b602080601f831160018114615bcc575f8415615bb55750858301515b5f19600386901b1c1916600185901b178555611598565b5f85815260208120601f198616915b82811015615bfa57888601518255948401946001909101908401615bdb565b5085821015615c1757878501515f19600388901b60f8161c191681555b5050505050600190811b0190555056fea2646970667358221220b7f684c72fc861fb6f4a0a3e1e69c6988c83c6baffbde8cc1d35e2a0a230a1d964736f6c63430008140033",
  "linkReferences": {},
  "deployedLinkReferences": {}
}