{"abi":[{"type":"function","name":"callSender","inputs":[{"name":"data","type":"bytes","internalType":"bytes"}],"outputs":[],"stateMutability":"nonpayable"}],"bytecode":{"object":"0x6080604052348015600f57600080fd5b506101b78061001f6000396000f3fe608060405234801561001057600080fd5b506004361061002b5760003560e01c8063f8123dd514610030575b600080fd5b61004361003e3660046100fd565b610045565b005b6000336001600160a01b03168383604051610061929190610171565b6000604051808303816000865af19150503d806000811461009e576040519150601f19603f3d011682016040523d82523d6000602084013e6100a3565b606091505b50509050806100f85760405162461bcd60e51b815260206004820152601d60248201527f5265656e7472616e637941747461636b3a206661696c65642063616c6c000000604482015260640160405180910390fd5b505050565b6000806020838503121561011057600080fd5b823567ffffffffffffffff81111561012757600080fd5b8301601f8101851361013857600080fd5b803567ffffffffffffffff81111561014f57600080fd5b85602082840101111561016157600080fd5b6020919091019590945092505050565b818382376000910190815291905056fea264697066735822122096328c776f4f5062a9e0fe7244384b353c7dd810d697fea01dc6450ba641685764736f6c634300081b0033","linkReferences":{}},"methodIdentifiers":{"callSender(bytes)":"f8123dd5"},"id":79}