{"abi":[{"type":"constructor","inputs":[],"stateMutability":"nonpayable"},{"type":"function","name":"childInitialize","inputs":[],"outputs":[],"stateMutability":"nonpayable"},{"type":"function","name":"childInitializerRan","inputs":[],"outputs":[{"name":"","type":"bool","internalType":"bool"}],"stateMutability":"view"},{"type":"function","name":"initialize","inputs":[],"outputs":[],"stateMutability":"nonpayable"},{"type":"function","name":"initializeOnlyInitializing","inputs":[],"outputs":[],"stateMutability":"nonpayable"},{"type":"function","name":"initializerRan","inputs":[],"outputs":[{"name":"","type":"bool","internalType":"bool"}],"stateMutability":"view"},{"type":"function","name":"onlyInitializingRan","inputs":[],"outputs":[{"name":"","type":"bool","internalType":"bool"}],"stateMutability":"view"},{"type":"event","name":"Initialized","inputs":[{"name":"version","type":"uint8","indexed":false,"internalType":"uint8"}],"anonymous":false},{"type":"error","name":"AlreadyInitialized","inputs":[]},{"type":"error","name":"NotInitializing","inputs":[]}],"bytecode":{"object":"0x608060405234801561001057600080fd5b50600054610100900460ff16158080156100315750600054600160ff909116105b15801561004f5750303b15801561004d575060005460ff166001145b155b1561006c5760405162dc149f60e41b815260040160405180910390fd5b6000805460ff19166001179055801561008f576000805461ff0019166101001790555b610097610194565b61009f61025b565b80156100d3576000805461ff00191690556040516001815260008051602061065b8339815191529060200160405180910390a15b50600054610100900460ff16158080156100f45750600054600160ff909116105b1580156101125750303b158015610110575060005460ff166001145b155b1561012f5760405162dc149f60e41b815260040160405180910390fd5b6000805460ff191660011790558015610152576000805461ff0019166101001790555b61015a610298565b801561018e576000805461ff00191690556040516001815260008051602061065b8339815191529060200160405180910390a15b5061035a565b600054610100900460ff16158080156101b45750600054600160ff909116105b1580156101d25750303b1580156101d0575060005460ff166001145b155b156101ef5760405162dc149f60e41b815260040160405180910390fd5b6000805460ff191660011790558015610212576000805461ff0019166101001790555b6000805462ff00001916620100001790558015610258576000805461ff00191690556040516001815260008051602061065b833981519152906020015b60405180910390a15b50565b600054610100900460ff1661028357604051631afcd79f60e31b815260040160405180910390fd5b6000805463ff00000019166301000000179055565b600054610100900460ff16158080156102b85750600054600160ff909116105b1580156102d65750303b1580156102d4575060005460ff166001145b155b156102f35760405162dc149f60e41b815260040160405180910390fd5b6000805460ff191660011790558015610316576000805461ff0019166101001790555b6000805460ff60201b19166401000000001790558015610258576000805461ff00191690556040516001815260008051602061065b8339815191529060200161024f565b6102f2806103696000396000f3fe608060405234801561001057600080fd5b50600436106100625760003560e01c806310065ed2146100675780637cffe97a146100715780638129fc1c14610099578063b23d810b146100a1578063c3b8ef2a146100b6578063de74c703146100c9575b600080fd5b61006f6100d1565b005b600054610085906301000000900460ff1681565b604051901515815260200160405180910390f35b61006f61010e565b60005461008590640100000000900460ff1681565b6000546100859062010000900460ff1681565b61006f6101e7565b600054610100900460ff166100f957604051631afcd79f60e31b815260040160405180910390fd5b6000805463ff00000019166301000000179055565b600054610100900460ff161580801561012e5750600054600160ff909116105b15801561014c5750303b15801561014a575060005460ff166001145b155b156101695760405162dc149f60e41b815260040160405180910390fd5b6000805460ff19166001179055801561018c576000805461ff0019166101001790555b6000805462ff000019166201000017905580156101e4576000805461ff0019169055604051600181527f7f26b83ff96e1f2b6a682f133852f6798a09c465da95921460cefb3847402498906020015b60405180910390a15b50565b600054610100900460ff16158080156102075750600054600160ff909116105b1580156102255750303b158015610223575060005460ff166001145b155b156102425760405162dc149f60e41b815260040160405180910390fd5b6000805460ff191660011790558015610265576000805461ff0019166101001790555b6000805464ff00000000191664010000000017905580156101e4576000805461ff0019169055604051600181527f7f26b83ff96e1f2b6a682f133852f6798a09c465da95921460cefb3847402498906020016101db56fea2646970667358221220febf58f58225d2b4118dd6caa956d4881f5a6fee59ce21ff3b68c5c76d2796fa64736f6c634300081b00337f26b83ff96e1f2b6a682f133852f6798a09c465da95921460cefb3847402498","linkReferences":{}},"methodIdentifiers":{"childInitialize()":"de74c703","childInitializerRan()":"b23d810b","initialize()":"8129fc1c","initializeOnlyInitializing()":"10065ed2","initializerRan()":"c3b8ef2a","onlyInitializingRan()":"7cffe97a"},"id":75}