{"abi":[{"type":"constructor","inputs":[],"stateMutability":"nonpayable"},{"type":"function","name":"initialize","inputs":[],"outputs":[],"stateMutability":"nonpayable"},{"type":"function","name":"initializeOnlyInitializing","inputs":[],"outputs":[],"stateMutability":"nonpayable"},{"type":"function","name":"initializerRan","inputs":[],"outputs":[{"name":"","type":"bool","internalType":"bool"}],"stateMutability":"view"},{"type":"function","name":"onlyInitializingRan","inputs":[],"outputs":[{"name":"","type":"bool","internalType":"bool"}],"stateMutability":"view"},{"type":"event","name":"Initialized","inputs":[{"name":"version","type":"uint8","indexed":false,"internalType":"uint8"}],"anonymous":false},{"type":"error","name":"AlreadyInitialized","inputs":[]},{"type":"error","name":"NotInitializing","inputs":[]}],"bytecode":{"object":"0x608060405234801561001057600080fd5b50600054610100900460ff16158080156100315750600054600160ff909116105b15801561004f5750303b15801561004d575060005460ff166001145b155b1561006c5760405162dc149f60e41b815260040160405180910390fd5b6000805460ff19166001179055801561008f576000805461ff0019166101001790555b6100976100d9565b61009f61019f565b80156100d3576000805461ff0019169055604051600181526000805160206103d48339815191529060200160405180910390a15b506101dc565b600054610100900460ff16158080156100f95750600054600160ff909116105b1580156101175750303b158015610115575060005460ff166001145b155b156101345760405162dc149f60e41b815260040160405180910390fd5b6000805460ff191660011790558015610157576000805461ff0019166101001790555b6000805462ff0000191662010000179055801561019c576000805461ff0019169055604051600181526000805160206103d48339815191529060200160405180910390a15b50565b600054610100900460ff166101c757604051631afcd79f60e31b815260040160405180910390fd5b6000805463ff00000019166301000000179055565b6101e9806101eb6000396000f3fe608060405234801561001057600080fd5b506004361061004c5760003560e01c806310065ed2146100515780637cffe97a1461005b5780638129fc1c14610083578063c3b8ef2a1461008b575b600080fd5b61005961009e565b005b60005461006f906301000000900460ff1681565b604051901515815260200160405180910390f35b6100596100db565b60005461006f9062010000900460ff1681565b600054610100900460ff166100c657604051631afcd79f60e31b815260040160405180910390fd5b6000805463ff00000019166301000000179055565b600054610100900460ff16158080156100fb5750600054600160ff909116105b1580156101195750303b158015610117575060005460ff166001145b155b156101365760405162dc149f60e41b815260040160405180910390fd5b6000805460ff191660011790558015610159576000805461ff0019166101001790555b6000805462ff000019166201000017905580156101b0576000805461ff0019169055604051600181527f7f26b83ff96e1f2b6a682f133852f6798a09c465da95921460cefb38474024989060200160405180910390a15b5056fea2646970667358221220ba33dac341512db58dc02f9fd1ccb44887e5fdad4cf56947c28c11b26a6810a164736f6c634300081b00337f26b83ff96e1f2b6a682f133852f6798a09c465da95921460cefb3847402498","linkReferences":{}},"methodIdentifiers":{"initialize()":"8129fc1c","initializeOnlyInitializing()":"10065ed2","initializerRan()":"c3b8ef2a","onlyInitializingRan()":"7cffe97a"},"id":75}