{"abi":[{"type":"function","name":"fail","inputs":[],"outputs":[],"stateMutability":"pure"},{"type":"function","name":"initialize","inputs":[],"outputs":[],"stateMutability":"nonpayable"},{"type":"function","name":"initializeOnlyInitializing","inputs":[],"outputs":[],"stateMutability":"nonpayable"},{"type":"function","name":"initializeWithX","inputs":[{"name":"_x","type":"uint256","internalType":"uint256"}],"outputs":[],"stateMutability":"payable"},{"type":"function","name":"initializerNested","inputs":[],"outputs":[],"stateMutability":"nonpayable"},{"type":"function","name":"initializerRan","inputs":[],"outputs":[{"name":"","type":"bool","internalType":"bool"}],"stateMutability":"view"},{"type":"function","name":"isInitializing","inputs":[],"outputs":[{"name":"","type":"bool","internalType":"bool"}],"stateMutability":"view"},{"type":"function","name":"nonInitializable","inputs":[{"name":"_x","type":"uint256","internalType":"uint256"}],"outputs":[],"stateMutability":"payable"},{"type":"function","name":"onlyInitializingNested","inputs":[],"outputs":[],"stateMutability":"nonpayable"},{"type":"function","name":"onlyInitializingRan","inputs":[],"outputs":[{"name":"","type":"bool","internalType":"bool"}],"stateMutability":"view"},{"type":"function","name":"x","inputs":[],"outputs":[{"name":"","type":"uint256","internalType":"uint256"}],"stateMutability":"view"},{"type":"event","name":"Initialized","inputs":[{"name":"version","type":"uint8","indexed":false,"internalType":"uint8"}],"anonymous":false},{"type":"error","name":"AlreadyInitialized","inputs":[]},{"type":"error","name":"NotInitializing","inputs":[]}],"bytecode":{"object":"0x6080604052348015600f57600080fd5b5061058c8061001f6000396000f3fe60806040526004361061009b5760003560e01c806376268ae81161006457806376268ae8146101315780637cffe97a146101465780638129fc1c14610167578063a9cc47181461017c578063c3b8ef2a14610191578063e955c9ec146101b157600080fd5b806218eaa8146100a05780630c55699c146100b557806310065ed2146100de5780633ec91f05146100f357806368449d1b1461011c575b600080fd5b6100b36100ae36600461053d565b6101c4565b005b3480156100c157600080fd5b506100cb60015481565b6040519081526020015b60405180910390f35b3480156100ea57600080fd5b506100b3610291565b3480156100ff57600080fd5b50600054610100900460ff165b60405190151581526020016100d5565b34801561012857600080fd5b506100b36102ce565b34801561013d57600080fd5b506100b361039e565b34801561015257600080fd5b5060005461010c906301000000900460ff1681565b34801561017357600080fd5b506100b3610420565b34801561018857600080fd5b506100b36104f1565b34801561019d57600080fd5b5060005461010c9062010000900460ff1681565b6100b36101bf36600461053d565b600155565b600054610100900460ff16158080156101e45750600054600160ff909116105b1580156102025750303b158015610200575060005460ff166001145b155b1561021f5760405162dc149f60e41b815260040160405180910390fd5b6000805460ff191660011790558015610242576000805461ff0019166101001790555b6001829055801561028d576000805461ff0019169055604051600181527f7f26b83ff96e1f2b6a682f133852f6798a09c465da95921460cefb38474024989060200160405180910390a15b5050565b600054610100900460ff166102b957604051631afcd79f60e31b815260040160405180910390fd5b6000805463ff00000019166301000000179055565b600054610100900460ff16158080156102ee5750600054600160ff909116105b15801561030c5750303b15801561030a575060005460ff166001145b155b156103295760405162dc149f60e41b815260040160405180910390fd5b6000805460ff19166001179055801561034c576000805461ff0019166101001790555b610354610291565b801561039b576000805461ff0019169055604051600181527f7f26b83ff96e1f2b6a682f133852f6798a09c465da95921460cefb3847402498906020015b60405180910390a15b50565b600054610100900460ff16158080156103be5750600054600160ff909116105b1580156103dc5750303b1580156103da575060005460ff166001145b155b156103f95760405162dc149f60e41b815260040160405180910390fd5b6000805460ff19166001179055801561041c576000805461ff0019166101001790555b6103545b600054610100900460ff16158080156104405750600054600160ff909116105b15801561045e5750303b15801561045c575060005460ff166001145b155b1561047b5760405162dc149f60e41b815260040160405180910390fd5b6000805460ff19166001179055801561049e576000805461ff0019166101001790555b6000805462ff0000191662010000179055801561039b576000805461ff0019169055604051600181527f7f26b83ff96e1f2b6a682f133852f6798a09c465da95921460cefb384740249890602001610392565b60405162461bcd60e51b815260206004820181905260248201527f496e697469616c697a61626c654d6f636b20666f72636564206661696c757265604482015260640160405180910390fd5b60006020828403121561054f57600080fd5b503591905056fea26469706673582212206eb219b943b06c3b61e5dd9cf10a117ff4a9563ffa6d673690883cf0890ae91664736f6c634300081b0033","linkReferences":{}},"methodIdentifiers":{"fail()":"a9cc4718","initialize()":"8129fc1c","initializeOnlyInitializing()":"10065ed2","initializeWithX(uint256)":"0018eaa8","initializerNested()":"76268ae8","initializerRan()":"c3b8ef2a","isInitializing()":"3ec91f05","nonInitializable(uint256)":"e955c9ec","onlyInitializingNested()":"68449d1b","onlyInitializingRan()":"7cffe97a","x()":"0c55699c"},"id":75}