{"abi":[{"type":"function","name":"chainReinitialize","inputs":[{"name":"i","type":"uint8","internalType":"uint8"},{"name":"j","type":"uint8","internalType":"uint8"}],"outputs":[],"stateMutability":"nonpayable"},{"type":"function","name":"counter","inputs":[],"outputs":[{"name":"","type":"uint256","internalType":"uint256"}],"stateMutability":"view"},{"type":"function","name":"disableInitializers","inputs":[],"outputs":[],"stateMutability":"nonpayable"},{"type":"function","name":"doStuff","inputs":[],"outputs":[],"stateMutability":"nonpayable"},{"type":"function","name":"getInitializedVersion","inputs":[],"outputs":[{"name":"","type":"uint8","internalType":"uint8"}],"stateMutability":"view"},{"type":"function","name":"initialize","inputs":[],"outputs":[],"stateMutability":"nonpayable"},{"type":"function","name":"nestedReinitialize","inputs":[{"name":"i","type":"uint8","internalType":"uint8"},{"name":"j","type":"uint8","internalType":"uint8"}],"outputs":[],"stateMutability":"nonpayable"},{"type":"function","name":"reinitialize","inputs":[{"name":"i","type":"uint8","internalType":"uint8"}],"outputs":[],"stateMutability":"nonpayable"},{"type":"event","name":"Initialized","inputs":[{"name":"version","type":"uint8","indexed":false,"internalType":"uint8"}],"anonymous":false},{"type":"error","name":"AlreadyInitialized","inputs":[]},{"type":"error","name":"NotInitializing","inputs":[]}],"bytecode":{"object":"0x6080604052348015600f57600080fd5b506104978061001f6000396000f3fe608060405234801561001057600080fd5b50600436106100885760003560e01c80638129fc1c1161005b5780638129fc1c146100d9578063874f33a1146100e1578063b3c65015146100e9578063f8d6cdba146100fe57600080fd5b8063073de42e1461008d57806331f44900146100a257806361bc221a146100aa5780636b2d8f8f146100c6575b600080fd5b6100a061009b3660046103c5565b610111565b005b6100a061019d565b6100b360015481565b6040519081526020015b60405180910390f35b6100a06100d43660046103e7565b6101a7565b6100a06101bd565b6100a061027a565b60005460405160ff90911681526020016100bd565b6100a061010c3660046103e7565b6102b9565b6000548190610100900460ff1680610131575060005460ff808316911610155b1561014e5760405162dc149f60e41b815260040160405180910390fd5b6000805461ffff191660ff83161761010017905561016a61027a565b6000805461ff001916905560405160ff821681526000805160206104428339815191529060200160405180910390a15050565b6101a5610347565b565b6101b082610111565b6101b981610111565b5050565b600054610100900460ff16158080156101dd5750600054600160ff909116105b1580156101fb5750303b1580156101f9575060005460ff166001145b155b156102185760405162dc149f60e41b815260040160405180910390fd5b6000805460ff19166001179055801561023b576000805461ff0019166101001790555b61024361027a565b8015610277576000805461ff0019169055604051600181526000805160206104428339815191529060200160405180910390a15b50565b600054610100900460ff166102a257604051631afcd79f60e31b815260040160405180910390fd5b600180549060006102b28361041a565b9190505550565b6000548290610100900460ff16806102d9575060005460ff808316911610155b156102f65760405162dc149f60e41b815260040160405180910390fd5b6000805461ffff191660ff83161761010017905561031382610111565b6000805461ff001916905560405160ff821681526000805160206104428339815191529060200160405180910390a1505050565b600054610100900460ff161561036f5760405162dc149f60e41b815260040160405180910390fd5b60005460ff908116146101a5576000805460ff191660ff9081179091556040519081526000805160206104428339815191529060200160405180910390a1565b803560ff811681146103c057600080fd5b919050565b6000602082840312156103d757600080fd5b6103e0826103af565b9392505050565b600080604083850312156103fa57600080fd5b610403836103af565b9150610411602084016103af565b90509250929050565b60006001820161043a57634e487b7160e01b600052601160045260246000fd5b506001019056fe7f26b83ff96e1f2b6a682f133852f6798a09c465da95921460cefb3847402498a2646970667358221220fe0f6972b69b6262d3ca5fcc393ef6d6720f07c1e0d82b0752df3135ec9eae1e64736f6c634300081b0033","linkReferences":{}},"methodIdentifiers":{"chainReinitialize(uint8,uint8)":"6b2d8f8f","counter()":"61bc221a","disableInitializers()":"31f44900","doStuff()":"874f33a1","getInitializedVersion()":"b3c65015","initialize()":"8129fc1c","nestedReinitialize(uint8,uint8)":"f8d6cdba","reinitialize(uint8)":"073de42e"},"id":75}