{
  "_format": "hh-sol-artifact-1",
  "contractName": "$ERC4626Fees",
  "sourceName": "contracts-exposed/mocks/docs/ERC4626Fees.sol",
  "abi": [
    {
      "inputs": [
        {
          "internalType": "string",
          "name": "name_",
          "type": "string"
        },
        {
          "internalType": "string",
          "name": "symbol_",
          "type": "string"
        },
        {
          "internalType": "contract IERC20",
          "name": "asset_",
          "type": "address"
        }
      ],
      "stateMutability": "payable",
      "type": "constructor"
    },
    {
      "inputs": [
        {
          "internalType": "address",
          "name": "target",
          "type": "address"
        }
      ],
      "name": "AddressEmptyCode",
      "type": "error"
    },
    {
      "inputs": [
        {
          "internalType": "address",
          "name": "account",
          "type": "address"
        }
      ],
      "name": "AddressInsufficientBalance",
      "type": "error"
    },
    {
      "inputs": [
        {
          "internalType": "address",
          "name": "spender",
          "type": "address"
        },
        {
          "internalType": "uint256",
          "name": "currentAllowance",
          "type": "uint256"
        },
        {
          "internalType": "uint256",
          "name": "requestedDecrease",
          "type": "uint256"
        }
      ],
      "name": "ERC20FailedDecreaseAllowance",
      "type": "error"
    },
    {
      "inputs": [
        {
          "internalType": "address",
          "name": "spender",
          "type": "address"
        },
        {
          "internalType": "uint256",
          "name": "allowance",
          "type": "uint256"
        },
        {
          "internalType": "uint256",
          "name": "needed",
          "type": "uint256"
        }
      ],
      "name": "ERC20InsufficientAllowance",
      "type": "error"
    },
    {
      "inputs": [
        {
          "internalType": "address",
          "name": "sender",
          "type": "address"
        },
        {
          "internalType": "uint256",
          "name": "balance",
          "type": "uint256"
        },
        {
          "internalType": "uint256",
          "name": "needed",
          "type": "uint256"
        }
      ],
      "name": "ERC20InsufficientBalance",
      "type": "error"
    },
    {
      "inputs": [
        {
          "internalType": "address",
          "name": "approver",
          "type": "address"
        }
      ],
      "name": "ERC20InvalidApprover",
      "type": "error"
    },
    {
      "inputs": [
        {
          "internalType": "address",
          "name": "receiver",
          "type": "address"
        }
      ],
      "name": "ERC20InvalidReceiver",
      "type": "error"
    },
    {
      "inputs": [
        {
          "internalType": "address",
          "name": "sender",
          "type": "address"
        }
      ],
      "name": "ERC20InvalidSender",
      "type": "error"
    },
    {
      "inputs": [
        {
          "internalType": "address",
          "name": "spender",
          "type": "address"
        }
      ],
      "name": "ERC20InvalidSpender",
      "type": "error"
    },
    {
      "inputs": [
        {
          "internalType": "address",
          "name": "receiver",
          "type": "address"
        },
        {
          "internalType": "uint256",
          "name": "assets",
          "type": "uint256"
        },
        {
          "internalType": "uint256",
          "name": "max",
          "type": "uint256"
        }
      ],
      "name": "ERC4626ExceededMaxDeposit",
      "type": "error"
    },
    {
      "inputs": [
        {
          "internalType": "address",
          "name": "receiver",
          "type": "address"
        },
        {
          "internalType": "uint256",
          "name": "shares",
          "type": "uint256"
        },
        {
          "internalType": "uint256",
          "name": "max",
          "type": "uint256"
        }
      ],
      "name": "ERC4626ExceededMaxMint",
      "type": "error"
    },
    {
      "inputs": [
        {
          "internalType": "address",
          "name": "owner",
          "type": "address"
        },
        {
          "internalType": "uint256",
          "name": "shares",
          "type": "uint256"
        },
        {
          "internalType": "uint256",
          "name": "max",
          "type": "uint256"
        }
      ],
      "name": "ERC4626ExceededMaxRedeem",
      "type": "error"
    },
    {
      "inputs": [
        {
          "internalType": "address",
          "name": "owner",
          "type": "address"
        },
        {
          "internalType": "uint256",
          "name": "assets",
          "type": "uint256"
        },
        {
          "internalType": "uint256",
          "name": "max",
          "type": "uint256"
        }
      ],
      "name": "ERC4626ExceededMaxWithdraw",
      "type": "error"
    },
    {
      "inputs": [],
      "name": "FailedInnerCall",
      "type": "error"
    },
    {
      "inputs": [],
      "name": "MathOverflowedMulDiv",
      "type": "error"
    },
    {
      "inputs": [
        {
          "internalType": "address",
          "name": "token",
          "type": "address"
        }
      ],
      "name": "SafeERC20FailedOperation",
      "type": "error"
    },
    {
      "anonymous": false,
      "inputs": [
        {
          "indexed": true,
          "internalType": "address",
          "name": "owner",
          "type": "address"
        },
        {
          "indexed": true,
          "internalType": "address",
          "name": "spender",
          "type": "address"
        },
        {
          "indexed": false,
          "internalType": "uint256",
          "name": "value",
          "type": "uint256"
        }
      ],
      "name": "Approval",
      "type": "event"
    },
    {
      "anonymous": false,
      "inputs": [
        {
          "indexed": true,
          "internalType": "address",
          "name": "sender",
          "type": "address"
        },
        {
          "indexed": true,
          "internalType": "address",
          "name": "owner",
          "type": "address"
        },
        {
          "indexed": false,
          "internalType": "uint256",
          "name": "assets",
          "type": "uint256"
        },
        {
          "indexed": false,
          "internalType": "uint256",
          "name": "shares",
          "type": "uint256"
        }
      ],
      "name": "Deposit",
      "type": "event"
    },
    {
      "anonymous": false,
      "inputs": [
        {
          "indexed": true,
          "internalType": "address",
          "name": "from",
          "type": "address"
        },
        {
          "indexed": true,
          "internalType": "address",
          "name": "to",
          "type": "address"
        },
        {
          "indexed": false,
          "internalType": "uint256",
          "name": "value",
          "type": "uint256"
        }
      ],
      "name": "Transfer",
      "type": "event"
    },
    {
      "anonymous": false,
      "inputs": [
        {
          "indexed": true,
          "internalType": "address",
          "name": "sender",
          "type": "address"
        },
        {
          "indexed": true,
          "internalType": "address",
          "name": "receiver",
          "type": "address"
        },
        {
          "indexed": true,
          "internalType": "address",
          "name": "owner",
          "type": "address"
        },
        {
          "indexed": false,
          "internalType": "uint256",
          "name": "assets",
          "type": "uint256"
        },
        {
          "indexed": false,
          "internalType": "uint256",
          "name": "shares",
          "type": "uint256"
        }
      ],
      "name": "Withdraw",
      "type": "event"
    },
    {
      "inputs": [
        {
          "internalType": "address",
          "name": "owner",
          "type": "address"
        },
        {
          "internalType": "address",
          "name": "spender",
          "type": "address"
        },
        {
          "internalType": "uint256",
          "name": "value",
          "type": "uint256"
        },
        {
          "internalType": "bool",
          "name": "emitEvent",
          "type": "bool"
        }
      ],
      "name": "$_approve",
      "outputs": [],
      "stateMutability": "nonpayable",
      "type": "function"
    },
    {
      "inputs": [
        {
          "internalType": "address",
          "name": "owner",
          "type": "address"
        },
        {
          "internalType": "address",
          "name": "spender",
          "type": "address"
        },
        {
          "internalType": "uint256",
          "name": "value",
          "type": "uint256"
        }
      ],
      "name": "$_approve",
      "outputs": [],
      "stateMutability": "nonpayable",
      "type": "function"
    },
    {
      "inputs": [
        {
          "internalType": "address",
          "name": "account",
          "type": "address"
        },
        {
          "internalType": "uint256",
          "name": "value",
          "type": "uint256"
        }
      ],
      "name": "$_burn",
      "outputs": [],
      "stateMutability": "nonpayable",
      "type": "function"
    },
    {
      "inputs": [
        {
          "internalType": "uint256",
          "name": "shares",
          "type": "uint256"
        },
        {
          "internalType": "enum Math.Rounding",
          "name": "rounding",
          "type": "uint8"
        }
      ],
      "name": "$_convertToAssets",
      "outputs": [
        {
          "internalType": "uint256",
          "name": "ret0",
          "type": "uint256"
        }
      ],
      "stateMutability": "view",
      "type": "function"
    },
    {
      "inputs": [
        {
          "internalType": "uint256",
          "name": "assets",
          "type": "uint256"
        },
        {
          "internalType": "enum Math.Rounding",
          "name": "rounding",
          "type": "uint8"
        }
      ],
      "name": "$_convertToShares",
      "outputs": [
        {
          "internalType": "uint256",
          "name": "ret0",
          "type": "uint256"
        }
      ],
      "stateMutability": "view",
      "type": "function"
    },
    {
      "inputs": [],
      "name": "$_decimalsOffset",
      "outputs": [
        {
          "internalType": "uint8",
          "name": "ret0",
          "type": "uint8"
        }
      ],
      "stateMutability": "view",
      "type": "function"
    },
    {
      "inputs": [
        {
          "internalType": "address",
          "name": "caller",
          "type": "address"
        },
        {
          "internalType": "address",
          "name": "receiver",
          "type": "address"
        },
        {
          "internalType": "uint256",
          "name": "assets",
          "type": "uint256"
        },
        {
          "internalType": "uint256",
          "name": "shares",
          "type": "uint256"
        }
      ],
      "name": "$_deposit",
      "outputs": [],
      "stateMutability": "nonpayable",
      "type": "function"
    },
    {
      "inputs": [],
      "name": "$_entryFeeBasePoint",
      "outputs": [
        {
          "internalType": "uint256",
          "name": "ret0",
          "type": "uint256"
        }
      ],
      "stateMutability": "view",
      "type": "function"
    },
    {
      "inputs": [],
      "name": "$_entryFeeRecipient",
      "outputs": [
        {
          "internalType": "address",
          "name": "ret0",
          "type": "address"
        }
      ],
      "stateMutability": "view",
      "type": "function"
    },
    {
      "inputs": [],
      "name": "$_exitFeeBasePoint",
      "outputs": [
        {
          "internalType": "uint256",
          "name": "ret0",
          "type": "uint256"
        }
      ],
      "stateMutability": "view",
      "type": "function"
    },
    {
      "inputs": [],
      "name": "$_exitFeeRecipient",
      "outputs": [
        {
          "internalType": "address",
          "name": "ret0",
          "type": "address"
        }
      ],
      "stateMutability": "view",
      "type": "function"
    },
    {
      "inputs": [
        {
          "internalType": "address",
          "name": "account",
          "type": "address"
        },
        {
          "internalType": "uint256",
          "name": "value",
          "type": "uint256"
        }
      ],
      "name": "$_mint",
      "outputs": [],
      "stateMutability": "nonpayable",
      "type": "function"
    },
    {
      "inputs": [],
      "name": "$_msgData",
      "outputs": [
        {
          "internalType": "bytes",
          "name": "ret0",
          "type": "bytes"
        }
      ],
      "stateMutability": "view",
      "type": "function"
    },
    {
      "inputs": [],
      "name": "$_msgSender",
      "outputs": [
        {
          "internalType": "address",
          "name": "ret0",
          "type": "address"
        }
      ],
      "stateMutability": "view",
      "type": "function"
    },
    {
      "inputs": [
        {
          "internalType": "address",
          "name": "owner",
          "type": "address"
        },
        {
          "internalType": "address",
          "name": "spender",
          "type": "address"
        },
        {
          "internalType": "uint256",
          "name": "value",
          "type": "uint256"
        }
      ],
      "name": "$_spendAllowance",
      "outputs": [],
      "stateMutability": "nonpayable",
      "type": "function"
    },
    {
      "inputs": [
        {
          "internalType": "address",
          "name": "from",
          "type": "address"
        },
        {
          "internalType": "address",
          "name": "to",
          "type": "address"
        },
        {
          "internalType": "uint256",
          "name": "value",
          "type": "uint256"
        }
      ],
      "name": "$_transfer",
      "outputs": [],
      "stateMutability": "nonpayable",
      "type": "function"
    },
    {
      "inputs": [
        {
          "internalType": "address",
          "name": "from",
          "type": "address"
        },
        {
          "internalType": "address",
          "name": "to",
          "type": "address"
        },
        {
          "internalType": "uint256",
          "name": "value",
          "type": "uint256"
        }
      ],
      "name": "$_update",
      "outputs": [],
      "stateMutability": "nonpayable",
      "type": "function"
    },
    {
      "inputs": [
        {
          "internalType": "address",
          "name": "caller",
          "type": "address"
        },
        {
          "internalType": "address",
          "name": "receiver",
          "type": "address"
        },
        {
          "internalType": "address",
          "name": "owner",
          "type": "address"
        },
        {
          "internalType": "uint256",
          "name": "assets",
          "type": "uint256"
        },
        {
          "internalType": "uint256",
          "name": "shares",
          "type": "uint256"
        }
      ],
      "name": "$_withdraw",
      "outputs": [],
      "stateMutability": "nonpayable",
      "type": "function"
    },
    {
      "inputs": [],
      "name": "__hh_exposed_bytecode_marker",
      "outputs": [
        {
          "internalType": "bytes32",
          "name": "",
          "type": "bytes32"
        }
      ],
      "stateMutability": "view",
      "type": "function"
    },
    {
      "inputs": [
        {
          "internalType": "address",
          "name": "owner",
          "type": "address"
        },
        {
          "internalType": "address",
          "name": "spender",
          "type": "address"
        }
      ],
      "name": "allowance",
      "outputs": [
        {
          "internalType": "uint256",
          "name": "",
          "type": "uint256"
        }
      ],
      "stateMutability": "view",
      "type": "function"
    },
    {
      "inputs": [
        {
          "internalType": "address",
          "name": "spender",
          "type": "address"
        },
        {
          "internalType": "uint256",
          "name": "value",
          "type": "uint256"
        }
      ],
      "name": "approve",
      "outputs": [
        {
          "internalType": "bool",
          "name": "",
          "type": "bool"
        }
      ],
      "stateMutability": "nonpayable",
      "type": "function"
    },
    {
      "inputs": [],
      "name": "asset",
      "outputs": [
        {
          "internalType": "address",
          "name": "",
          "type": "address"
        }
      ],
      "stateMutability": "view",
      "type": "function"
    },
    {
      "inputs": [
        {
          "internalType": "address",
          "name": "account",
          "type": "address"
        }
      ],
      "name": "balanceOf",
      "outputs": [
        {
          "internalType": "uint256",
          "name": "",
          "type": "uint256"
        }
      ],
      "stateMutability": "view",
      "type": "function"
    },
    {
      "inputs": [
        {
          "internalType": "uint256",
          "name": "shares",
          "type": "uint256"
        }
      ],
      "name": "convertToAssets",
      "outputs": [
        {
          "internalType": "uint256",
          "name": "",
          "type": "uint256"
        }
      ],
      "stateMutability": "view",
      "type": "function"
    },
    {
      "inputs": [
        {
          "internalType": "uint256",
          "name": "assets",
          "type": "uint256"
        }
      ],
      "name": "convertToShares",
      "outputs": [
        {
          "internalType": "uint256",
          "name": "",
          "type": "uint256"
        }
      ],
      "stateMutability": "view",
      "type": "function"
    },
    {
      "inputs": [],
      "name": "decimals",
      "outputs": [
        {
          "internalType": "uint8",
          "name": "",
          "type": "uint8"
        }
      ],
      "stateMutability": "view",
      "type": "function"
    },
    {
      "inputs": [
        {
          "internalType": "address",
          "name": "spender",
          "type": "address"
        },
        {
          "internalType": "uint256",
          "name": "requestedDecrease",
          "type": "uint256"
        }
      ],
      "name": "decreaseAllowance",
      "outputs": [
        {
          "internalType": "bool",
          "name": "",
          "type": "bool"
        }
      ],
      "stateMutability": "nonpayable",
      "type": "function"
    },
    {
      "inputs": [
        {
          "internalType": "uint256",
          "name": "assets",
          "type": "uint256"
        },
        {
          "internalType": "address",
          "name": "receiver",
          "type": "address"
        }
      ],
      "name": "deposit",
      "outputs": [
        {
          "internalType": "uint256",
          "name": "",
          "type": "uint256"
        }
      ],
      "stateMutability": "nonpayable",
      "type": "function"
    },
    {
      "inputs": [
        {
          "internalType": "address",
          "name": "spender",
          "type": "address"
        },
        {
          "internalType": "uint256",
          "name": "addedValue",
          "type": "uint256"
        }
      ],
      "name": "increaseAllowance",
      "outputs": [
        {
          "internalType": "bool",
          "name": "",
          "type": "bool"
        }
      ],
      "stateMutability": "nonpayable",
      "type": "function"
    },
    {
      "inputs": [
        {
          "internalType": "address",
          "name": "",
          "type": "address"
        }
      ],
      "name": "maxDeposit",
      "outputs": [
        {
          "internalType": "uint256",
          "name": "",
          "type": "uint256"
        }
      ],
      "stateMutability": "view",
      "type": "function"
    },
    {
      "inputs": [
        {
          "internalType": "address",
          "name": "",
          "type": "address"
        }
      ],
      "name": "maxMint",
      "outputs": [
        {
          "internalType": "uint256",
          "name": "",
          "type": "uint256"
        }
      ],
      "stateMutability": "view",
      "type": "function"
    },
    {
      "inputs": [
        {
          "internalType": "address",
          "name": "owner",
          "type": "address"
        }
      ],
      "name": "maxRedeem",
      "outputs": [
        {
          "internalType": "uint256",
          "name": "",
          "type": "uint256"
        }
      ],
      "stateMutability": "view",
      "type": "function"
    },
    {
      "inputs": [
        {
          "internalType": "address",
          "name": "owner",
          "type": "address"
        }
      ],
      "name": "maxWithdraw",
      "outputs": [
        {
          "internalType": "uint256",
          "name": "",
          "type": "uint256"
        }
      ],
      "stateMutability": "view",
      "type": "function"
    },
    {
      "inputs": [
        {
          "internalType": "uint256",
          "name": "shares",
          "type": "uint256"
        },
        {
          "internalType": "address",
          "name": "receiver",
          "type": "address"
        }
      ],
      "name": "mint",
      "outputs": [
        {
          "internalType": "uint256",
          "name": "",
          "type": "uint256"
        }
      ],
      "stateMutability": "nonpayable",
      "type": "function"
    },
    {
      "inputs": [],
      "name": "name",
      "outputs": [
        {
          "internalType": "string",
          "name": "",
          "type": "string"
        }
      ],
      "stateMutability": "view",
      "type": "function"
    },
    {
      "inputs": [
        {
          "internalType": "uint256",
          "name": "assets",
          "type": "uint256"
        }
      ],
      "name": "previewDeposit",
      "outputs": [
        {
          "internalType": "uint256",
          "name": "",
          "type": "uint256"
        }
      ],
      "stateMutability": "view",
      "type": "function"
    },
    {
      "inputs": [
        {
          "internalType": "uint256",
          "name": "shares",
          "type": "uint256"
        }
      ],
      "name": "previewMint",
      "outputs": [
        {
          "internalType": "uint256",
          "name": "",
          "type": "uint256"
        }
      ],
      "stateMutability": "view",
      "type": "function"
    },
    {
      "inputs": [
        {
          "internalType": "uint256",
          "name": "shares",
          "type": "uint256"
        }
      ],
      "name": "previewRedeem",
      "outputs": [
        {
          "internalType": "uint256",
          "name": "",
          "type": "uint256"
        }
      ],
      "stateMutability": "view",
      "type": "function"
    },
    {
      "inputs": [
        {
          "internalType": "uint256",
          "name": "assets",
          "type": "uint256"
        }
      ],
      "name": "previewWithdraw",
      "outputs": [
        {
          "internalType": "uint256",
          "name": "",
          "type": "uint256"
        }
      ],
      "stateMutability": "view",
      "type": "function"
    },
    {
      "inputs": [
        {
          "internalType": "uint256",
          "name": "shares",
          "type": "uint256"
        },
        {
          "internalType": "address",
          "name": "receiver",
          "type": "address"
        },
        {
          "internalType": "address",
          "name": "owner",
          "type": "address"
        }
      ],
      "name": "redeem",
      "outputs": [
        {
          "internalType": "uint256",
          "name": "",
          "type": "uint256"
        }
      ],
      "stateMutability": "nonpayable",
      "type": "function"
    },
    {
      "inputs": [],
      "name": "symbol",
      "outputs": [
        {
          "internalType": "string",
          "name": "",
          "type": "string"
        }
      ],
      "stateMutability": "view",
      "type": "function"
    },
    {
      "inputs": [],
      "name": "totalAssets",
      "outputs": [
        {
          "internalType": "uint256",
          "name": "",
          "type": "uint256"
        }
      ],
      "stateMutability": "view",
      "type": "function"
    },
    {
      "inputs": [],
      "name": "totalSupply",
      "outputs": [
        {
          "internalType": "uint256",
          "name": "",
          "type": "uint256"
        }
      ],
      "stateMutability": "view",
      "type": "function"
    },
    {
      "inputs": [
        {
          "internalType": "address",
          "name": "to",
          "type": "address"
        },
        {
          "internalType": "uint256",
          "name": "value",
          "type": "uint256"
        }
      ],
      "name": "transfer",
      "outputs": [
        {
          "internalType": "bool",
          "name": "",
          "type": "bool"
        }
      ],
      "stateMutability": "nonpayable",
      "type": "function"
    },
    {
      "inputs": [
        {
          "internalType": "address",
          "name": "from",
          "type": "address"
        },
        {
          "internalType": "address",
          "name": "to",
          "type": "address"
        },
        {
          "internalType": "uint256",
          "name": "value",
          "type": "uint256"
        }
      ],
      "name": "transferFrom",
      "outputs": [
        {
          "internalType": "bool",
          "name": "",
          "type": "bool"
        }
      ],
      "stateMutability": "nonpayable",
      "type": "function"
    },
    {
      "inputs": [
        {
          "internalType": "uint256",
          "name": "assets",
          "type": "uint256"
        },
        {
          "internalType": "address",
          "name": "receiver",
          "type": "address"
        },
        {
          "internalType": "address",
          "name": "owner",
          "type": "address"
        }
      ],
      "name": "withdraw",
      "outputs": [
        {
          "internalType": "uint256",
          "name": "",
          "type": "uint256"
        }
      ],
      "stateMutability": "nonpayable",
      "type": "function"
    },
    {
      "stateMutability": "payable",
      "type": "receive"
    }
  ],
  "bytecode": "0x60c060405260405162001f5a38038062001f5a833981016040819052620000269162000233565b808383600362000037838262000346565b50600462000046828262000346565b5050505f806200005c836200008e60201b60201c565b91509150816200006e57601262000070565b805b60ff1660a05250506001600160a01b03166080525062000443915050565b60408051600481526024810182526020810180516001600160e01b031663313ce56760e01b17905290515f918291829182916001600160a01b03871691620000d6916200040e565b5f60405180830381855afa9150503d805f811462000110576040519150601f19603f3d011682016040523d82523d5f602084013e62000115565b606091505b50915091508180156200012a57506020815110155b1562000161575f818060200190518101906200014791906200042b565b905060ff81116200015f576001969095509350505050565b505b505f9485945092505050565b634e487b7160e01b5f52604160045260245ffd5b5f5b838110156200019d57818101518382015260200162000183565b50505f910152565b5f82601f830112620001b5575f80fd5b81516001600160401b0380821115620001d257620001d26200016d565b604051601f8301601f19908116603f01168101908282118183101715620001fd57620001fd6200016d565b8160405283815286602085880101111562000216575f80fd5b6200022984602083016020890162000181565b9695505050505050565b5f805f6060848603121562000246575f80fd5b83516001600160401b03808211156200025d575f80fd5b6200026b87838801620001a5565b9450602086015191508082111562000281575f80fd5b506200029086828701620001a5565b604086015190935090506001600160a01b0381168114620002af575f80fd5b809150509250925092565b600181811c90821680620002cf57607f821691505b602082108103620002ee57634e487b7160e01b5f52602260045260245ffd5b50919050565b601f82111562000341575f81815260208120601f850160051c810160208610156200031c5750805b601f850160051c820191505b818110156200033d5782815560010162000328565b5050505b505050565b81516001600160401b038111156200036257620003626200016d565b6200037a81620003738454620002ba565b84620002f4565b602080601f831160018114620003b0575f8415620003985750858301515b5f19600386901b1c1916600185901b1785556200033d565b5f85815260208120601f198616915b82811015620003e057888601518255948401946001909101908401620003bf565b5085821015620003fe57878501515f19600388901b60f8161c191681555b5050505050600190811b01905550565b5f82516200042181846020870162000181565b9190910192915050565b5f602082840312156200043c575f80fd5b5051919050565b60805160a051611ad2620004885f395f61095f01525f8181610431015281816107e001528181610fcc015281816110380152818161115a015261126b0152611ad25ff3fe608060405260043610610278575f3560e01c806394bf804d1161014a578063c6e6f592116100be578063dd62ed3e11610078578063dd62ed3e1461073b578063e047838d1461075a578063e0b28e87146106ad578063ef4f78d114610779578063ef8b30f71461078b578063efb43b07146107aa575f80fd5b8063c6e6f5921461068e578063c9f9c3f9146106ad578063ca10eca0146106bf578063cc461d62146106de578063ce96cb77146106fd578063d905777e1461071c575f80fd5b8063b2331d7d1161010f578063b2331d7d14610612578063b3d7f6b914610631578063b460af9414610650578063ba0876521461066f578063c12bf6381461034c578063c63d75b614610474575f80fd5b806394bf804d1461058257806395d89b41146105a15780639c0b90c7146105b5578063a457c2d7146105d4578063a9059cbb146105f3575f80fd5b806332cadf3c116101ec5780636855a178116101a65780636855a178146104b35780636e553f65146104d257806370a08231146104f157806383b9557914610525578063861e3d3d146105445780638b4e914a14610563575f80fd5b806332cadf3c146103ea578063342db739146103fe57806338d52e0f146104235780633950935114610455578063402d267d146104745780634cdad50614610494575f80fd5b806318160ddd1161023d57806318160ddd146103385780631d21494d1461034c57806323b872dd146103725780632904df2914610391578063313ce567146103a357806332bc74aa146103c9575f80fd5b806301e1d1141461028357806306fdde03146102aa57806307a2d13a146102cb578063095ea7b3146102ea5780630a28a47714610319575f80fd5b3661027f57005b5f80fd5b34801561028e575f80fd5b506102976107c9565b6040519081526020015b60405180910390f35b3480156102b5575f80fd5b506102be610856565b6040516102a191906115fa565b3480156102d6575f80fd5b506102976102e536600461160c565b6108e6565b3480156102f5575f80fd5b5061030961030436600461163e565b6108f7565b60405190151581526020016102a1565b348015610324575f80fd5b5061029761033336600461160c565b61090e565b348015610343575f80fd5b50600254610297565b348015610357575f80fd5b505f5b6040516001600160a01b0390911681526020016102a1565b34801561037d575f80fd5b5061030961038c366004611666565b610935565b34801561039c575f80fd5b503361035a565b3480156103ae575f80fd5b506103b7610958565b60405160ff90911681526020016102a1565b3480156103d4575f80fd5b506103e86103e33660046116af565b610983565b005b3480156103f5575f80fd5b506102be610995565b348015610409575f80fd5b506102976e1a185c991a185d0b595e1c1bdcd959608a1b81565b34801561042e575f80fd5b507f000000000000000000000000000000000000000000000000000000000000000061035a565b348015610460575f80fd5b5061030961046f36600461163e565b6109d2565b34801561047f575f80fd5b5061029761048e3660046116fb565b505f1990565b34801561049f575f80fd5b506102976104ae36600461160c565b6109f3565b3480156104be575f80fd5b506103e86104cd366004611666565b610a14565b3480156104dd575f80fd5b506102976104ec366004611714565b610a24565b3480156104fc575f80fd5b5061029761050b3660046116fb565b6001600160a01b03165f9081526020819052604090205490565b348015610530575f80fd5b506103e861053f36600461173e565b610a55565b34801561054f575f80fd5b506103e861055e366004611666565b610a69565b34801561056e575f80fd5b5061029761057d36600461178f565b610a74565b34801561058d575f80fd5b5061029761059c366004611714565b610a7f565b3480156105ac575f80fd5b506102be610a9a565b3480156105c0575f80fd5b506103e86105cf3660046117c0565b610aa9565b3480156105df575f80fd5b506103096105ee36600461163e565b610ab5565b3480156105fe575f80fd5b5061030961060d36600461163e565b610af8565b34801561061d575f80fd5b506103e861062c366004611666565b610b05565b34801561063c575f80fd5b5061029761064b36600461160c565b610b10565b34801561065b575f80fd5b5061029761066a3660046117ff565b610b31565b34801561067a575f80fd5b506102976106893660046117ff565b610b87565b348015610699575f80fd5b506102976106a836600461160c565b610bd4565b3480156106b8575f80fd5b505f610297565b3480156106ca575f80fd5b506102976106d936600461178f565b610bdf565b3480156106e9575f80fd5b506103e86106f836600461163e565b610bea565b348015610708575f80fd5b506102976107173660046116fb565b610bf8565b348015610727575f80fd5b506102976107363660046116fb565b610c1a565b348015610746575f80fd5b50610297610755366004611838565b610c37565b348015610765575f80fd5b506103e861077436600461163e565b610c61565b348015610784575f80fd5b505f6103b7565b348015610796575f80fd5b506102976107a536600461160c565b610c6b565b3480156107b5575f80fd5b506103e86107c4366004611666565b610c86565b6040516370a0823160e01b81523060048201525f907f00000000000000000000000000000000000000000000000000000000000000006001600160a01b0316906370a0823190602401602060405180830381865afa15801561082d573d5f803e3d5ffd5b505050506040513d601f19601f820116820180604052508101906108519190611860565b905090565b60606003805461086590611877565b80601f016020809104026020016040519081016040528092919081815260200182805461089190611877565b80156108dc5780601f106108b3576101008083540402835291602001916108dc565b820191905f5260205f20905b8154815290600101906020018083116108bf57829003601f168201915b5050505050905090565b5f6108f1825f610c91565b92915050565b5f33610904818585610cc9565b5060019392505050565b5f8061091a8382610cd6565b905061092e61092982856118c3565b610ce7565b9392505050565b5f33610942858285610cf3565b61094d858585610d3d565b506001949350505050565b5f610851817f00000000000000000000000000000000000000000000000000000000000000006118d6565b61098f84848484610d8f565b50505050565b60605f368080601f0160208091040260200160405190810160405280939291908181526020018383808284375f9201919091525092949350505050565b5f336109048185856109e48383610c37565b6109ee91906118c3565b610cc9565b5f806109fe836108e6565b9050610a0a815f610e61565b61092e90826118ef565b610a1f838383610e7d565b505050565b5f5f19610a35565b60405180910390fd5b5f610a3f85610c6b565b9050610a4d33858784610f90565b949350505050565b610a628585858585610ffb565b5050505050565b610a1f838383610cc9565b5f61092e8383611065565b5f5f195f610a8c85610b10565b9050610a4d33858388610f90565b60606004805461086590611877565b61098f84848484610f90565b5f3381610ac28286610c37565b905083811015610aeb57848185604051632983c0c360e21b8152600401610a2c93929190611902565b61094d8286868403610cc9565b5f33610904818585610d3d565b610a1f838383610cf3565b5f80610b1b83611094565b9050610b27815f610cd6565b61092e90826118c3565b5f80610b3c83610bf8565b905080851115610b6557828582604051633fa733bb60e21b8152600401610a2c93929190611902565b5f610b6f8661090e565b9050610b7e3386868985610ffb565b95945050505050565b5f80610b9283610c1a565b905080851115610bbb57828582604051632e52afbb60e21b8152600401610a2c93929190611902565b5f610bc5866109f3565b9050610b7e338686848a610ffb565b5f6108f1825f611065565b5f61092e8383610c91565b610bf482826110a0565b5050565b6001600160a01b0381165f908152602081905260408120546108f1905f610c91565b6001600160a01b0381165f908152602081905260408120546108f1565b6001600160a01b039182165f90815260016020908152604080832093909416825291909152205490565b610bf482826110d4565b5f80610c778382610e61565b905061092e6106a882856118ef565b610a1f838383610d3d565b5f61092e610c9d6107c9565b610ca89060016118c3565b610cb35f600a611a03565b600254610cc091906118c3565b85919085611108565b610a1f8383836001610d8f565b5f61092e8383620186a06001611108565b5f6108f1826001611065565b5f610cfe8484610c37565b90505f19811461098f5781811015610d2f57828183604051637dc7a0d960e11b8152600401610a2c93929190611902565b61098f84848484035f610d8f565b6001600160a01b038316610d6657604051634b637e8f60e11b81525f6004820152602401610a2c565b6001600160a01b038216610a145760405163ec442f0560e01b81525f6004820152602401610a2c565b6001600160a01b038416610db85760405163e602df0560e01b81525f6004820152602401610a2c565b6001600160a01b038316610de157604051634a1406b160e11b81525f6004820152602401610a2c565b6001600160a01b038085165f908152600160209081526040808320938716835292905220829055801561098f57826001600160a01b0316846001600160a01b03167f8c5be1e5ebec7d5bd14f71427d1e84f3dd0314c0f7b2291e5b200ac8c7c3b92584604051610e5391815260200190565b60405180910390a350505050565b5f61092e82610e7381620186a06118c3565b8591906001611108565b6001600160a01b038316610ea7578060025f828254610e9c91906118c3565b90915550610f049050565b6001600160a01b0383165f9081526020819052604090205481811015610ee65783818360405163391434e360e21b8152600401610a2c93929190611902565b6001600160a01b0384165f9081526020819052604090209082900390555b6001600160a01b038216610f2057600280548290039055610f3e565b6001600160a01b0382165f9081526020819052604090208054820190555b816001600160a01b0316836001600160a01b03167fddf252ad1be2c89b69c2b068fc378daa952ba7f163c4a11628f55a4df523b3ef83604051610f8391815260200190565b60405180910390a3505050565b5f610f9b8382610e61565b90505f610faa86868686611155565b5f82118015610fc257506001600160a01b0381163014155b15610ff357610ff37f00000000000000000000000000000000000000000000000000000000000000005b82846111d9565b505050505050565b5f6110068382610cd6565b90505f6110168787878787611238565b5f8211801561102e57506001600160a01b0381163014155b1561105c5761105c7f0000000000000000000000000000000000000000000000000000000000000000610fec565b50505050505050565b5f61092e61107482600a611a03565b60025461108191906118c3565b6110896107c9565b610cc09060016118c3565b5f6108f1826001610c91565b6001600160a01b0382166110c95760405163ec442f0560e01b81525f6004820152602401610a2c565b610bf45f8383610e7d565b6001600160a01b0382166110fd57604051634b637e8f60e11b81525f6004820152602401610a2c565b610bf4825f83610e7d565b5f806111158686866112f8565b9050611120836113b6565b801561113b57505f848061113657611136611a11565b868809115b15610b7e5761114b6001826118c3565b9695505050505050565b6111817f00000000000000000000000000000000000000000000000000000000000000008530856113e2565b61118b83826110a0565b826001600160a01b0316846001600160a01b03167fdcbc1c05240f31ff3ad067ef1ee35ce4997762752e3a095284754544f4c709d78484604051610e53929190918252602082015260400190565b6040516001600160a01b03838116602483015260448201839052610a1f91859182169063a9059cbb906064015b604051602081830303815290604052915060e01b6020820180516001600160e01b03838183161783525050505061141b565b826001600160a01b0316856001600160a01b03161461125c5761125c838683610cf3565b61126683826110d4565b6112917f000000000000000000000000000000000000000000000000000000000000000085846111d9565b826001600160a01b0316846001600160a01b0316866001600160a01b03167ffbde797d201c681b91056529119e0b02407c7bb96a4a2c75c01fc9667232c8db85856040516112e9929190918252602082015260400190565b60405180910390a45050505050565b5f80805f19858709858702925082811083820303915050805f0361132f5783828161132557611325611a11565b049250505061092e565b80841161134f5760405163227bc15360e01b815260040160405180910390fd5b5f8486880960026001871981018816978890046003810283188082028403028082028403028082028403028082028403028082028403029081029092039091025f889003889004909101858311909403939093029303949094049190911702949350505050565b5f60028260038111156113cb576113cb611a25565b6113d59190611a39565b60ff166001149050919050565b6040516001600160a01b03848116602483015283811660448301526064820183905261098f9186918216906323b872dd90608401611206565b5f61142f6001600160a01b0384168361147c565b905080515f141580156114535750808060200190518101906114519190611a66565b155b15610a1f57604051635274afe760e01b81526001600160a01b0384166004820152602401610a2c565b606061092e83835f61148c6114a5565b604051630a12f52160e11b815260040160405180910390fd5b6060824710156114ca5760405163cd78605960e01b8152306004820152602401610a2c565b5f80866001600160a01b031685876040516114e59190611a81565b5f6040518083038185875af1925050503d805f811461151f576040519150601f19603f3d011682016040523d82523d5f602084013e611524565b606091505b509150915061153587838387611540565b979650505050505050565b6060831561158c5782515f0361158557846001600160a01b03163b5f0361158557604051639996b31560e01b81526001600160a01b0386166004820152602401610a2c565b5081610a4d565b610a4d83838151156115a15781518083602001fd5b61148c8163ffffffff16565b5f5b838110156115c75781810151838201526020016115af565b50505f910152565b5f81518084526115e68160208601602086016115ad565b601f01601f19169290920160200192915050565b602081525f61092e60208301846115cf565b5f6020828403121561161c575f80fd5b5035919050565b80356001600160a01b0381168114611639575f80fd5b919050565b5f806040838503121561164f575f80fd5b61165883611623565b946020939093013593505050565b5f805f60608486031215611678575f80fd5b61168184611623565b925061168f60208501611623565b9150604084013590509250925092565b80151581146116ac575f80fd5b50565b5f805f80608085870312156116c2575f80fd5b6116cb85611623565b93506116d960208601611623565b92506040850135915060608501356116f08161169f565b939692955090935050565b5f6020828403121561170b575f80fd5b61092e82611623565b5f8060408385031215611725575f80fd5b8235915061173560208401611623565b90509250929050565b5f805f805f60a08688031215611752575f80fd5b61175b86611623565b945061176960208701611623565b935061177760408701611623565b94979396509394606081013594506080013592915050565b5f80604083850312156117a0575f80fd5b823591506020830135600481106117b5575f80fd5b809150509250929050565b5f805f80608085870312156117d3575f80fd5b6117dc85611623565b93506117ea60208601611623565b93969395505050506040820135916060013590565b5f805f60608486031215611811575f80fd5b8335925061182160208501611623565b915061182f60408501611623565b90509250925092565b5f8060408385031215611849575f80fd5b61185283611623565b915061173560208401611623565b5f60208284031215611870575f80fd5b5051919050565b600181811c9082168061188b57607f821691505b6020821081036118a957634e487b7160e01b5f52602260045260245ffd5b50919050565b634e487b7160e01b5f52601160045260245ffd5b808201808211156108f1576108f16118af565b60ff81811683821601908111156108f1576108f16118af565b818103818111156108f1576108f16118af565b6001600160a01b039390931683526020830191909152604082015260600190565b600181815b8085111561195d57815f1904821115611943576119436118af565b8085161561195057918102915b93841c9390800290611928565b509250929050565b5f82611973575060016108f1565b8161197f57505f6108f1565b8160018114611995576002811461199f576119bb565b60019150506108f1565b60ff8411156119b0576119b06118af565b50506001821b6108f1565b5060208310610133831016604e8410600b84101617156119de575081810a6108f1565b6119e88383611923565b805f19048211156119fb576119fb6118af565b029392505050565b5f61092e60ff841683611965565b634e487b7160e01b5f52601260045260245ffd5b634e487b7160e01b5f52602160045260245ffd5b5f60ff831680611a5757634e487b7160e01b5f52601260045260245ffd5b8060ff84160691505092915050565b5f60208284031215611a76575f80fd5b815161092e8161169f565b5f8251611a928184602087016115ad565b919091019291505056fea2646970667358221220d20e74a58a756301cc53742be53a1f7064fa033aa517365c1d419773b767032a64736f6c63430008140033",
  "linkReferences": {},
  "deployedLinkReferences": {}
}