{
  "_format": "hh-sol-artifact-1",
  "contractName": "$ERC1155",
  "sourceName": "contracts-exposed/token/ERC1155/ERC1155.sol",
  "abi": [
    {
      "inputs": [
        {
          "internalType": "string",
          "name": "uri_",
          "type": "string"
        }
      ],
      "stateMutability": "payable",
      "type": "constructor"
    },
    {
      "inputs": [
        {
          "internalType": "address",
          "name": "sender",
          "type": "address"
        },
        {
          "internalType": "uint256",
          "name": "balance",
          "type": "uint256"
        },
        {
          "internalType": "uint256",
          "name": "needed",
          "type": "uint256"
        },
        {
          "internalType": "uint256",
          "name": "tokenId",
          "type": "uint256"
        }
      ],
      "name": "ERC1155InsufficientBalance",
      "type": "error"
    },
    {
      "inputs": [
        {
          "internalType": "address",
          "name": "approver",
          "type": "address"
        }
      ],
      "name": "ERC1155InvalidApprover",
      "type": "error"
    },
    {
      "inputs": [
        {
          "internalType": "uint256",
          "name": "idsLength",
          "type": "uint256"
        },
        {
          "internalType": "uint256",
          "name": "valuesLength",
          "type": "uint256"
        }
      ],
      "name": "ERC1155InvalidArrayLength",
      "type": "error"
    },
    {
      "inputs": [
        {
          "internalType": "address",
          "name": "operator",
          "type": "address"
        }
      ],
      "name": "ERC1155InvalidOperator",
      "type": "error"
    },
    {
      "inputs": [
        {
          "internalType": "address",
          "name": "receiver",
          "type": "address"
        }
      ],
      "name": "ERC1155InvalidReceiver",
      "type": "error"
    },
    {
      "inputs": [
        {
          "internalType": "address",
          "name": "sender",
          "type": "address"
        }
      ],
      "name": "ERC1155InvalidSender",
      "type": "error"
    },
    {
      "inputs": [
        {
          "internalType": "address",
          "name": "operator",
          "type": "address"
        },
        {
          "internalType": "address",
          "name": "owner",
          "type": "address"
        }
      ],
      "name": "ERC1155MissingApprovalForAll",
      "type": "error"
    },
    {
      "anonymous": false,
      "inputs": [
        {
          "indexed": true,
          "internalType": "address",
          "name": "account",
          "type": "address"
        },
        {
          "indexed": true,
          "internalType": "address",
          "name": "operator",
          "type": "address"
        },
        {
          "indexed": false,
          "internalType": "bool",
          "name": "approved",
          "type": "bool"
        }
      ],
      "name": "ApprovalForAll",
      "type": "event"
    },
    {
      "anonymous": false,
      "inputs": [
        {
          "indexed": true,
          "internalType": "address",
          "name": "operator",
          "type": "address"
        },
        {
          "indexed": true,
          "internalType": "address",
          "name": "from",
          "type": "address"
        },
        {
          "indexed": true,
          "internalType": "address",
          "name": "to",
          "type": "address"
        },
        {
          "indexed": false,
          "internalType": "uint256[]",
          "name": "ids",
          "type": "uint256[]"
        },
        {
          "indexed": false,
          "internalType": "uint256[]",
          "name": "values",
          "type": "uint256[]"
        }
      ],
      "name": "TransferBatch",
      "type": "event"
    },
    {
      "anonymous": false,
      "inputs": [
        {
          "indexed": true,
          "internalType": "address",
          "name": "operator",
          "type": "address"
        },
        {
          "indexed": true,
          "internalType": "address",
          "name": "from",
          "type": "address"
        },
        {
          "indexed": true,
          "internalType": "address",
          "name": "to",
          "type": "address"
        },
        {
          "indexed": false,
          "internalType": "uint256",
          "name": "id",
          "type": "uint256"
        },
        {
          "indexed": false,
          "internalType": "uint256",
          "name": "value",
          "type": "uint256"
        }
      ],
      "name": "TransferSingle",
      "type": "event"
    },
    {
      "anonymous": false,
      "inputs": [
        {
          "indexed": false,
          "internalType": "string",
          "name": "value",
          "type": "string"
        },
        {
          "indexed": true,
          "internalType": "uint256",
          "name": "id",
          "type": "uint256"
        }
      ],
      "name": "URI",
      "type": "event"
    },
    {
      "inputs": [
        {
          "internalType": "address",
          "name": "from",
          "type": "address"
        },
        {
          "internalType": "uint256",
          "name": "id",
          "type": "uint256"
        },
        {
          "internalType": "uint256",
          "name": "value",
          "type": "uint256"
        }
      ],
      "name": "$_burn",
      "outputs": [],
      "stateMutability": "nonpayable",
      "type": "function"
    },
    {
      "inputs": [
        {
          "internalType": "address",
          "name": "from",
          "type": "address"
        },
        {
          "internalType": "uint256[]",
          "name": "ids",
          "type": "uint256[]"
        },
        {
          "internalType": "uint256[]",
          "name": "values",
          "type": "uint256[]"
        }
      ],
      "name": "$_burnBatch",
      "outputs": [],
      "stateMutability": "nonpayable",
      "type": "function"
    },
    {
      "inputs": [
        {
          "internalType": "address",
          "name": "to",
          "type": "address"
        },
        {
          "internalType": "uint256",
          "name": "id",
          "type": "uint256"
        },
        {
          "internalType": "uint256",
          "name": "value",
          "type": "uint256"
        },
        {
          "internalType": "bytes",
          "name": "data",
          "type": "bytes"
        }
      ],
      "name": "$_mint",
      "outputs": [],
      "stateMutability": "nonpayable",
      "type": "function"
    },
    {
      "inputs": [
        {
          "internalType": "address",
          "name": "to",
          "type": "address"
        },
        {
          "internalType": "uint256[]",
          "name": "ids",
          "type": "uint256[]"
        },
        {
          "internalType": "uint256[]",
          "name": "values",
          "type": "uint256[]"
        },
        {
          "internalType": "bytes",
          "name": "data",
          "type": "bytes"
        }
      ],
      "name": "$_mintBatch",
      "outputs": [],
      "stateMutability": "nonpayable",
      "type": "function"
    },
    {
      "inputs": [],
      "name": "$_msgData",
      "outputs": [
        {
          "internalType": "bytes",
          "name": "ret0",
          "type": "bytes"
        }
      ],
      "stateMutability": "view",
      "type": "function"
    },
    {
      "inputs": [],
      "name": "$_msgSender",
      "outputs": [
        {
          "internalType": "address",
          "name": "ret0",
          "type": "address"
        }
      ],
      "stateMutability": "view",
      "type": "function"
    },
    {
      "inputs": [
        {
          "internalType": "address",
          "name": "from",
          "type": "address"
        },
        {
          "internalType": "address",
          "name": "to",
          "type": "address"
        },
        {
          "internalType": "uint256[]",
          "name": "ids",
          "type": "uint256[]"
        },
        {
          "internalType": "uint256[]",
          "name": "values",
          "type": "uint256[]"
        },
        {
          "internalType": "bytes",
          "name": "data",
          "type": "bytes"
        }
      ],
      "name": "$_safeBatchTransferFrom",
      "outputs": [],
      "stateMutability": "nonpayable",
      "type": "function"
    },
    {
      "inputs": [
        {
          "internalType": "address",
          "name": "from",
          "type": "address"
        },
        {
          "internalType": "address",
          "name": "to",
          "type": "address"
        },
        {
          "internalType": "uint256",
          "name": "id",
          "type": "uint256"
        },
        {
          "internalType": "uint256",
          "name": "value",
          "type": "uint256"
        },
        {
          "internalType": "bytes",
          "name": "data",
          "type": "bytes"
        }
      ],
      "name": "$_safeTransferFrom",
      "outputs": [],
      "stateMutability": "nonpayable",
      "type": "function"
    },
    {
      "inputs": [
        {
          "internalType": "address",
          "name": "owner",
          "type": "address"
        },
        {
          "internalType": "address",
          "name": "operator",
          "type": "address"
        },
        {
          "internalType": "bool",
          "name": "approved",
          "type": "bool"
        }
      ],
      "name": "$_setApprovalForAll",
      "outputs": [],
      "stateMutability": "nonpayable",
      "type": "function"
    },
    {
      "inputs": [
        {
          "internalType": "string",
          "name": "newuri",
          "type": "string"
        }
      ],
      "name": "$_setURI",
      "outputs": [],
      "stateMutability": "nonpayable",
      "type": "function"
    },
    {
      "inputs": [
        {
          "internalType": "address",
          "name": "from",
          "type": "address"
        },
        {
          "internalType": "address",
          "name": "to",
          "type": "address"
        },
        {
          "internalType": "uint256[]",
          "name": "ids",
          "type": "uint256[]"
        },
        {
          "internalType": "uint256[]",
          "name": "values",
          "type": "uint256[]"
        }
      ],
      "name": "$_update",
      "outputs": [],
      "stateMutability": "nonpayable",
      "type": "function"
    },
    {
      "inputs": [
        {
          "internalType": "address",
          "name": "from",
          "type": "address"
        },
        {
          "internalType": "address",
          "name": "to",
          "type": "address"
        },
        {
          "internalType": "uint256[]",
          "name": "ids",
          "type": "uint256[]"
        },
        {
          "internalType": "uint256[]",
          "name": "values",
          "type": "uint256[]"
        },
        {
          "internalType": "bytes",
          "name": "data",
          "type": "bytes"
        }
      ],
      "name": "$_updateWithAcceptanceCheck",
      "outputs": [],
      "stateMutability": "nonpayable",
      "type": "function"
    },
    {
      "inputs": [],
      "name": "__hh_exposed_bytecode_marker",
      "outputs": [
        {
          "internalType": "bytes32",
          "name": "",
          "type": "bytes32"
        }
      ],
      "stateMutability": "view",
      "type": "function"
    },
    {
      "inputs": [
        {
          "internalType": "address",
          "name": "account",
          "type": "address"
        },
        {
          "internalType": "uint256",
          "name": "id",
          "type": "uint256"
        }
      ],
      "name": "balanceOf",
      "outputs": [
        {
          "internalType": "uint256",
          "name": "",
          "type": "uint256"
        }
      ],
      "stateMutability": "view",
      "type": "function"
    },
    {
      "inputs": [
        {
          "internalType": "address[]",
          "name": "accounts",
          "type": "address[]"
        },
        {
          "internalType": "uint256[]",
          "name": "ids",
          "type": "uint256[]"
        }
      ],
      "name": "balanceOfBatch",
      "outputs": [
        {
          "internalType": "uint256[]",
          "name": "",
          "type": "uint256[]"
        }
      ],
      "stateMutability": "view",
      "type": "function"
    },
    {
      "inputs": [
        {
          "internalType": "address",
          "name": "account",
          "type": "address"
        },
        {
          "internalType": "address",
          "name": "operator",
          "type": "address"
        }
      ],
      "name": "isApprovedForAll",
      "outputs": [
        {
          "internalType": "bool",
          "name": "",
          "type": "bool"
        }
      ],
      "stateMutability": "view",
      "type": "function"
    },
    {
      "inputs": [
        {
          "internalType": "address",
          "name": "from",
          "type": "address"
        },
        {
          "internalType": "address",
          "name": "to",
          "type": "address"
        },
        {
          "internalType": "uint256[]",
          "name": "ids",
          "type": "uint256[]"
        },
        {
          "internalType": "uint256[]",
          "name": "values",
          "type": "uint256[]"
        },
        {
          "internalType": "bytes",
          "name": "data",
          "type": "bytes"
        }
      ],
      "name": "safeBatchTransferFrom",
      "outputs": [],
      "stateMutability": "nonpayable",
      "type": "function"
    },
    {
      "inputs": [
        {
          "internalType": "address",
          "name": "from",
          "type": "address"
        },
        {
          "internalType": "address",
          "name": "to",
          "type": "address"
        },
        {
          "internalType": "uint256",
          "name": "id",
          "type": "uint256"
        },
        {
          "internalType": "uint256",
          "name": "value",
          "type": "uint256"
        },
        {
          "internalType": "bytes",
          "name": "data",
          "type": "bytes"
        }
      ],
      "name": "safeTransferFrom",
      "outputs": [],
      "stateMutability": "nonpayable",
      "type": "function"
    },
    {
      "inputs": [
        {
          "internalType": "address",
          "name": "operator",
          "type": "address"
        },
        {
          "internalType": "bool",
          "name": "approved",
          "type": "bool"
        }
      ],
      "name": "setApprovalForAll",
      "outputs": [],
      "stateMutability": "nonpayable",
      "type": "function"
    },
    {
      "inputs": [
        {
          "internalType": "bytes4",
          "name": "interfaceId",
          "type": "bytes4"
        }
      ],
      "name": "supportsInterface",
      "outputs": [
        {
          "internalType": "bool",
          "name": "",
          "type": "bool"
        }
      ],
      "stateMutability": "view",
      "type": "function"
    },
    {
      "inputs": [
        {
          "internalType": "uint256",
          "name": "",
          "type": "uint256"
        }
      ],
      "name": "uri",
      "outputs": [
        {
          "internalType": "string",
          "name": "",
          "type": "string"
        }
      ],
      "stateMutability": "view",
      "type": "function"
    },
    {
      "stateMutability": "payable",
      "type": "receive"
    }
  ],
  "bytecode": "0x608060405260405162001fef38038062001fef833981016040819052620000269162000060565b8062000032816200003a565b505062000282565b6002620000488282620001ba565b5050565b634e487b7160e01b5f52604160045260245ffd5b5f602080838503121562000072575f80fd5b82516001600160401b038082111562000089575f80fd5b818501915085601f8301126200009d575f80fd5b815181811115620000b257620000b26200004c565b604051601f8201601f19908116603f01168101908382118183101715620000dd57620000dd6200004c565b816040528281528886848701011115620000f5575f80fd5b5f93505b82841015620001185784840186015181850187015292850192620000f9565b5f86848301015280965050505050505092915050565b600181811c908216806200014357607f821691505b6020821081036200016257634e487b7160e01b5f52602260045260245ffd5b50919050565b601f821115620001b5575f81815260208120601f850160051c81016020861015620001905750805b601f850160051c820191505b81811015620001b1578281556001016200019c565b5050505b505050565b81516001600160401b03811115620001d657620001d66200004c565b620001ee81620001e784546200012e565b8462000168565b602080601f83116001811462000224575f84156200020c5750858301515b5f19600386901b1c1916600185901b178555620001b1565b5f85815260208120601f198616915b82811015620002545788860151825594840194600190910190840162000233565b50858210156200027257878501515f19600388901b60f8161c191681555b5050505050600190811b01905550565b611d5f80620002905f395ff3fe608060405260043610610128575f3560e01c80634e1273f4116100a8578063bf445cb81161006d578063bf445cb814610339578063cfeea0d414610358578063e985e9c514610377578063ec3016f714610396578063eebe6ab4146103b5578063f242432a146103d4575f80fd5b80634e1273f4146102915780637dfd6d69146102bd578063a22cb465146102dc578063af32f2f2146102fb578063b556c3281461031a575f80fd5b80632d64f479116100ee5780632d64f479146101fb5780632eb2c2d61461021a57806332cadf3c14610239578063342db7391461024d57806338106e2514610272575f80fd5b8062fdd58e1461013357806301ffc9a7146101655780630c3c37ae146101945780630e89341c146101b55780632904df29146101e1575f80fd5b3661012f57005b5f80fd5b34801561013e575f80fd5b5061015261014d366004611206565b6103f3565b6040519081526020015b60405180910390f35b348015610170575f80fd5b5061018461017f366004611246565b61041a565b604051901515815260200161015c565b34801561019f575f80fd5b506101b36101ae3660046112ac565b610469565b005b3480156101c0575f80fd5b506101d46101cf36600461131e565b6104b3565b60405161015c9190611378565b3480156101ec575f80fd5b5060405133815260200161015c565b348015610206575f80fd5b506101b36102153660046113ca565b610545565b348015610225575f80fd5b506101b36102343660046115b5565b6105ef565b348015610244575f80fd5b506101d4610653565b348015610258575f80fd5b506101526e1a185c991a185d0b595e1c1bdcd959608a1b81565b34801561027d575f80fd5b506101b361028c366004611657565b610690565b34801561029c575f80fd5b506102b06102ab3660046116d1565b610703565b60405161015c91906117c3565b3480156102c8575f80fd5b506101b36102d73660046117d5565b6107d5565b3480156102e7575f80fd5b506101b36102f6366004611835565b610816565b348015610306575f80fd5b506101b3610315366004611866565b610825565b348015610325575f80fd5b506101b36103343660046118de565b610892565b348015610344575f80fd5b506101b361035336600461190e565b6108a2565b348015610363575f80fd5b506101b36103723660046119b0565b61094a565b348015610382575f80fd5b506101846103913660046119f0565b610955565b3480156103a1575f80fd5b506101b36103b0366004611a18565b610982565b3480156103c0575f80fd5b506101b36103cf3660046113ca565b6109c0565b3480156103df575f80fd5b506101b36103ee366004611a56565b610a60565b5f818152602081815260408083206001600160a01b03861684529091529020545b92915050565b5f6001600160e01b03198216636cdb3d1360e11b148061044a57506001600160e01b031982166303a24d0760e21b145b8061041457506301ffc9a760e01b6001600160e01b0319831614610414565b6104ab8686868686868080601f0160208091040260200160405190810160405280939291908181526020018383808284375f92019190915250610abb92505050565b505050505050565b6060600280546104c290611ab5565b80601f01602080910402602001604051908101604052809291908181526020018280546104ee90611ab5565b80156105395780601f1061051057610100808354040283529160200191610539565b820191905f5260205f20905b81548152906001019060200180831161051c57829003601f168201915b50505050509050919050565b6105e588888888808060200260200160405190810160405280939291908181526020018383602002808284375f9201919091525050604080516020808c0282810182019093528b82529093508b92508a9182918501908490808284375f9201919091525050604080516020601f8b0181900481028201810190925289815292508991508890819084018382808284375f92019190915250610b3a92505050565b5050505050505050565b336001600160a01b0386168114801590610610575061060e8682610955565b155b156106465760405163711bec9160e11b81526001600160a01b038083166004830152871660248201526044015b60405180910390fd5b6104ab8686868686610b8d565b60605f368080601f0160208091040260200160405190810160405280939291908181526020018383808284375f9201919091525092949350505050565b6106fc858585808060200260200160405190810160405280939291908181526020018383602002808284375f92019190915250506040805160208089028281018201909352888252909350889250879182918501908490808284375f92019190915250610beb92505050565b5050505050565b606081518351146107345781518351604051635b05999160e01b81526004810192909252602482015260440161063d565b5f83516001600160401b0381111561074e5761074e61147c565b604051908082528060200260200182016040528015610777578160200160208202803683370190505b5090505f5b84518110156107cd576020808202860101516107a0906020808402870101516103f3565b8282815181106107b2576107b2611aed565b60209081029190910101526107c681611b15565b905061077c565b509392505050565b6106fc85858585858080601f0160208091040260200160405190810160405280939291908181526020018383808284375f92019190915250610c2e92505050565b610821338383610c89565b5050565b6104ab86868686808060200260200160405190810160405280939291908181526020018383602002808284375f9201919091525050604080516020808a028281018201909352898252909350899250889182918501908490808284375f92019190915250610d1d92505050565b61089d838383610f35565b505050565b610941878787808060200260200160405190810160405280939291908181526020018383602002808284375f9201919091525050604080516020808b0282810182019093528a82529093508a9250899182918501908490808284375f9201919091525050604080516020601f8a0181900481028201810190925288815292508891508790819084018382808284375f92019190915250610f9b92505050565b50505050505050565b61089d838383610c89565b6001600160a01b039182165f90815260016020908152604080832093909416825291909152205460ff1690565b61082182828080601f0160208091040260200160405190810160405280939291908181526020018383808284375f92019190915250610fd792505050565b6105e588888888808060200260200160405190810160405280939291908181526020018383602002808284375f9201919091525050604080516020808c0282810182019093528b82529093508b92508a9182918501908490808284375f9201919091525050604080516020601f8b0181900481028201810190925289815292508991508890819084018382808284375f92019190915250610b8d92505050565b336001600160a01b0386168114801590610a815750610a7f8682610955565b155b15610ab25760405163711bec9160e11b81526001600160a01b0380831660048301528716602482015260440161063d565b6104ab86868686865b6001600160a01b038416610ae457604051632bfa23e760e11b81525f600482015260240161063d565b6001600160a01b038516610b0c57604051626a0d4560e21b81525f600482015260240161063d565b6040805160018082526020820186905281830190815260608201859052608082019092529061094187878484875b610b4685858585610d1d565b6001600160a01b038416156106fc5782513390600103610b7f5760208481015190840151610b78838989858589610fe3565b50506104ab565b6104ab818787878787611104565b6001600160a01b038416610bb657604051632bfa23e760e11b81525f600482015260240161063d565b6001600160a01b038516610bde57604051626a0d4560e21b81525f600482015260240161063d565b6106fc8585858585610b3a565b6001600160a01b038316610c1357604051626a0d4560e21b81525f600482015260240161063d565b61089d835f848460405180602001604052805f815250610b3a565b6001600160a01b038416610c5757604051632bfa23e760e11b81525f600482015260240161063d565b604080516001808252602082018690528183019081526060820185905260808201909252906104ab5f87848487610b3a565b6001600160a01b038216610cb15760405162ced3e160e81b81525f600482015260240161063d565b6001600160a01b038381165f81815260016020908152604080832094871680845294825291829020805460ff191686151590811790915591519182527f17307eab39ab6107e8899845ad3d59bd9653f200f220920489ca2b5937696c31910160405180910390a3505050565b8051825114610d4c5781518151604051635b05999160e01b81526004810192909252602482015260440161063d565b335f5b8351811015610e57576020818102858101820151908501909101516001600160a01b03881615610e00575f828152602081815260408083206001600160a01b038c16845290915290205481811015610dda576040516303dee4c560e01b81526001600160a01b038a16600482015260248101829052604481018390526064810184905260840161063d565b5f838152602081815260408083206001600160a01b038d16845290915290209082900390555b6001600160a01b03871615610e44575f828152602081815260408083206001600160a01b038b16845290915281208054839290610e3e908490611b2d565b90915550505b505080610e5090611b15565b9050610d4f565b508251600103610ed75760208301515f906020840151909150856001600160a01b0316876001600160a01b0316846001600160a01b03167fc3d58168c5ae7397731d063d5bbf3d657854427343f4c083240f7aacaa2d0f628585604051610ec8929190918252602082015260400190565b60405180910390a450506106fc565b836001600160a01b0316856001600160a01b0316826001600160a01b03167f4a39dc06d4c0dbc64b70af90fd698a233a518aa5d07e595d983b8c0526c8f7fb8686604051610f26929190611b40565b60405180910390a45050505050565b6001600160a01b038316610f5d57604051626a0d4560e21b81525f600482015260240161063d565b604080516001808252602082018590528183019081526060820184905260a082019092525f608082018181529192916106fc91879185908590610b3a565b6001600160a01b038416610fc457604051632bfa23e760e11b81525f600482015260240161063d565b610fd15f85858585610b3a565b50505050565b60026108218282611bb2565b6001600160a01b0384163b156104ab5760405163f23a6e6160e01b81526001600160a01b0385169063f23a6e61906110279089908990889088908890600401611c6d565b6020604051808303815f875af1925050508015611061575060408051601f3d908101601f1916820190925261105e91810190611cb1565b60015b6110c8573d80801561108e576040519150601f19603f3d011682016040523d82523d5f602084013e611093565b606091505b5080515f036110c057604051632bfa23e760e11b81526001600160a01b038616600482015260240161063d565b805181602001fd5b6001600160e01b0319811663f23a6e6160e01b1461094157604051632bfa23e760e11b81526001600160a01b038616600482015260240161063d565b6001600160a01b0384163b156104ab5760405163bc197c8160e01b81526001600160a01b0385169063bc197c81906111489089908990889088908890600401611ccc565b6020604051808303815f875af1925050508015611182575060408051601f3d908101601f1916820190925261117f91810190611cb1565b60015b6111af573d80801561108e576040519150601f19603f3d011682016040523d82523d5f602084013e611093565b6001600160e01b0319811663bc197c8160e01b1461094157604051632bfa23e760e11b81526001600160a01b038616600482015260240161063d565b80356001600160a01b0381168114611201575f80fd5b919050565b5f8060408385031215611217575f80fd5b611220836111eb565b946020939093013593505050565b6001600160e01b031981168114611243575f80fd5b50565b5f60208284031215611256575f80fd5b81356112618161122e565b9392505050565b5f8083601f840112611278575f80fd5b5081356001600160401b0381111561128e575f80fd5b6020830191508360208285010111156112a5575f80fd5b9250929050565b5f805f805f8060a087890312156112c1575f80fd5b6112ca876111eb565b95506112d8602088016111eb565b9450604087013593506060870135925060808701356001600160401b03811115611300575f80fd5b61130c89828a01611268565b979a9699509497509295939492505050565b5f6020828403121561132e575f80fd5b5035919050565b5f81518084525f5b818110156113595760208185018101518683018201520161133d565b505f602082860101526020601f19601f83011685010191505092915050565b602081525f6112616020830184611335565b5f8083601f84011261139a575f80fd5b5081356001600160401b038111156113b0575f80fd5b6020830191508360208260051b85010111156112a5575f80fd5b5f805f805f805f8060a0898b0312156113e1575f80fd5b6113ea896111eb565b97506113f860208a016111eb565b965060408901356001600160401b0380821115611413575f80fd5b61141f8c838d0161138a565b909850965060608b0135915080821115611437575f80fd5b6114438c838d0161138a565b909650945060808b013591508082111561145b575f80fd5b506114688b828c01611268565b999c989b5096995094979396929594505050565b634e487b7160e01b5f52604160045260245ffd5b604051601f8201601f191681016001600160401b03811182821017156114b8576114b861147c565b604052919050565b5f6001600160401b038211156114d8576114d861147c565b5060051b60200190565b5f82601f8301126114f1575f80fd5b81356020611506611501836114c0565b611490565b82815260059290921b84018101918181019086841115611524575f80fd5b8286015b8481101561153f5780358352918301918301611528565b509695505050505050565b5f82601f830112611559575f80fd5b81356001600160401b038111156115725761157261147c565b611585601f8201601f1916602001611490565b818152846020838601011115611599575f80fd5b816020850160208301375f918101602001919091529392505050565b5f805f805f60a086880312156115c9575f80fd5b6115d2866111eb565b94506115e0602087016111eb565b935060408601356001600160401b03808211156115fb575f80fd5b61160789838a016114e2565b9450606088013591508082111561161c575f80fd5b61162889838a016114e2565b9350608088013591508082111561163d575f80fd5b5061164a8882890161154a565b9150509295509295909350565b5f805f805f6060868803121561166b575f80fd5b611674866111eb565b945060208601356001600160401b038082111561168f575f80fd5b61169b89838a0161138a565b909650945060408801359150808211156116b3575f80fd5b506116c08882890161138a565b969995985093965092949392505050565b5f80604083850312156116e2575f80fd5b82356001600160401b03808211156116f8575f80fd5b818501915085601f83011261170b575f80fd5b8135602061171b611501836114c0565b82815260059290921b84018101918181019089841115611739575f80fd5b948201945b8386101561175e5761174f866111eb565b8252948201949082019061173e565b96505086013592505080821115611773575f80fd5b50611780858286016114e2565b9150509250929050565b5f8151808452602080850194508084015f5b838110156117b85781518752958201959082019060010161179c565b509495945050505050565b602081525f611261602083018461178a565b5f805f805f608086880312156117e9575f80fd5b6117f2866111eb565b9450602086013593506040860135925060608601356001600160401b0381111561181a575f80fd5b6116c088828901611268565b80358015158114611201575f80fd5b5f8060408385031215611846575f80fd5b61184f836111eb565b915061185d60208401611826565b90509250929050565b5f805f805f806080878903121561187b575f80fd5b611884876111eb565b9550611892602088016111eb565b945060408701356001600160401b03808211156118ad575f80fd5b6118b98a838b0161138a565b909650945060608901359150808211156118d1575f80fd5b5061130c89828a0161138a565b5f805f606084860312156118f0575f80fd5b6118f9846111eb565b95602085013595506040909401359392505050565b5f805f805f805f6080888a031215611924575f80fd5b61192d886111eb565b965060208801356001600160401b0380821115611948575f80fd5b6119548b838c0161138a565b909850965060408a013591508082111561196c575f80fd5b6119788b838c0161138a565b909650945060608a0135915080821115611990575f80fd5b5061199d8a828b01611268565b989b979a50959850939692959293505050565b5f805f606084860312156119c2575f80fd5b6119cb846111eb565b92506119d9602085016111eb565b91506119e760408501611826565b90509250925092565b5f8060408385031215611a01575f80fd5b611a0a836111eb565b915061185d602084016111eb565b5f8060208385031215611a29575f80fd5b82356001600160401b03811115611a3e575f80fd5b611a4a85828601611268565b90969095509350505050565b5f805f805f60a08688031215611a6a575f80fd5b611a73866111eb565b9450611a81602087016111eb565b9350604086013592506060860135915060808601356001600160401b03811115611aa9575f80fd5b61164a8882890161154a565b600181811c90821680611ac957607f821691505b602082108103611ae757634e487b7160e01b5f52602260045260245ffd5b50919050565b634e487b7160e01b5f52603260045260245ffd5b634e487b7160e01b5f52601160045260245ffd5b5f60018201611b2657611b26611b01565b5060010190565b8082018082111561041457610414611b01565b604081525f611b52604083018561178a565b8281036020840152611b64818561178a565b95945050505050565b601f82111561089d575f81815260208120601f850160051c81016020861015611b935750805b601f850160051c820191505b818110156104ab57828155600101611b9f565b81516001600160401b03811115611bcb57611bcb61147c565b611bdf81611bd98454611ab5565b84611b6d565b602080601f831160018114611c12575f8415611bfb5750858301515b5f19600386901b1c1916600185901b1785556104ab565b5f85815260208120601f198616915b82811015611c4057888601518255948401946001909101908401611c21565b5085821015611c5d57878501515f19600388901b60f8161c191681555b5050505050600190811b01905550565b6001600160a01b03868116825285166020820152604081018490526060810183905260a0608082018190525f90611ca690830184611335565b979650505050505050565b5f60208284031215611cc1575f80fd5b81516112618161122e565b6001600160a01b0386811682528516602082015260a0604082018190525f90611cf79083018661178a565b8281036060840152611d09818661178a565b90508281036080840152611d1d8185611335565b9897505050505050505056fea26469706673582212206e638807d26c2354af864477044e2e9782252de4cc6b0d9c6d40ae0c25a4ee6164736f6c63430008140033",
  "linkReferences": {},
  "deployedLinkReferences": {}
}