{
  "_format": "hh-sol-artifact-1",
  "contractName": "ChildConstructorInitializableMock",
  "sourceName": "contracts/mocks/InitializableMock.sol",
  "abi": [
    {
      "inputs": [],
      "stateMutability": "nonpayable",
      "type": "constructor"
    },
    {
      "inputs": [],
      "name": "AlreadyInitialized",
      "type": "error"
    },
    {
      "inputs": [],
      "name": "NotInitializing",
      "type": "error"
    },
    {
      "anonymous": false,
      "inputs": [
        {
          "indexed": false,
          "internalType": "uint8",
          "name": "version",
          "type": "uint8"
        }
      ],
      "name": "Initialized",
      "type": "event"
    },
    {
      "inputs": [],
      "name": "childInitialize",
      "outputs": [],
      "stateMutability": "nonpayable",
      "type": "function"
    },
    {
      "inputs": [],
      "name": "childInitializerRan",
      "outputs": [
        {
          "internalType": "bool",
          "name": "",
          "type": "bool"
        }
      ],
      "stateMutability": "view",
      "type": "function"
    },
    {
      "inputs": [],
      "name": "initialize",
      "outputs": [],
      "stateMutability": "nonpayable",
      "type": "function"
    },
    {
      "inputs": [],
      "name": "initializeOnlyInitializing",
      "outputs": [],
      "stateMutability": "nonpayable",
      "type": "function"
    },
    {
      "inputs": [],
      "name": "initializerRan",
      "outputs": [
        {
          "internalType": "bool",
          "name": "",
          "type": "bool"
        }
      ],
      "stateMutability": "view",
      "type": "function"
    },
    {
      "inputs": [],
      "name": "onlyInitializingRan",
      "outputs": [
        {
          "internalType": "bool",
          "name": "",
          "type": "bool"
        }
      ],
      "stateMutability": "view",
      "type": "function"
    }
  ],
  "bytecode": "0x608060405234801561000f575f80fd5b505f54610100900460ff161580801561002e57505f54600160ff909116105b15801561004b5750303b15801561004957505f5460ff166001145b155b156100685760405162dc149f60e41b815260040160405180910390fd5b5f805460ff191660011790558015610089575f805461ff0019166101001790555b610091610185565b610099610244565b80156100cb575f805461ff0019169055604051600181525f805160206106228339815191529060200160405180910390a15b505f54610100900460ff16158080156100ea57505f54600160ff909116105b1580156101075750303b15801561010557505f5460ff166001145b155b156101245760405162dc149f60e41b815260040160405180910390fd5b5f805460ff191660011790558015610145575f805461ff0019166101001790555b61014d61027f565b801561017f575f805461ff0019169055604051600181525f805160206106228339815191529060200160405180910390a15b50610339565b5f54610100900460ff16158080156101a357505f54600160ff909116105b1580156101c05750303b1580156101be57505f5460ff166001145b155b156101dd5760405162dc149f60e41b815260040160405180910390fd5b5f805460ff1916600117905580156101fe575f805461ff0019166101001790555b5f805462ff00001916620100001790558015610241575f805461ff0019169055604051600181525f80516020610622833981519152906020015b60405180910390a15b50565b5f54610100900460ff1661026b57604051631afcd79f60e31b815260040160405180910390fd5b5f805463ff00000019166301000000179055565b5f54610100900460ff161580801561029d57505f54600160ff909116105b1580156102ba5750303b1580156102b857505f5460ff166001145b155b156102d75760405162dc149f60e41b815260040160405180910390fd5b5f805460ff1916600117905580156102f8575f805461ff0019166101001790555b5f805460ff60201b19166401000000001790558015610241575f805461ff0019169055604051600181525f8051602061062283398151915290602001610238565b6102dc806103465f395ff3fe608060405234801561000f575f80fd5b5060043610610060575f3560e01c806310065ed2146100645780637cffe97a1461006e5780638129fc1c14610095578063b23d810b1461009d578063c3b8ef2a146100b1578063de74c703146100c3575b5f80fd5b61006c6100cb565b005b5f54610081906301000000900460ff1681565b604051901515815260200160405180910390f35b61006c610106565b5f5461008190640100000000900460ff1681565b5f546100819062010000900460ff1681565b61006c6101d8565b5f54610100900460ff166100f257604051631afcd79f60e31b815260040160405180910390fd5b5f805463ff00000019166301000000179055565b5f54610100900460ff161580801561012457505f54600160ff909116105b1580156101415750303b15801561013f57505f5460ff166001145b155b1561015e5760405162dc149f60e41b815260040160405180910390fd5b5f805460ff19166001179055801561017f575f805461ff0019166101001790555b5f805462ff000019166201000017905580156101d5575f805461ff0019169055604051600181527f7f26b83ff96e1f2b6a682f133852f6798a09c465da95921460cefb3847402498906020015b60405180910390a15b50565b5f54610100900460ff16158080156101f657505f54600160ff909116105b1580156102135750303b15801561021157505f5460ff166001145b155b156102305760405162dc149f60e41b815260040160405180910390fd5b5f805460ff191660011790558015610251575f805461ff0019166101001790555b5f805464ff00000000191664010000000017905580156101d5575f805461ff0019169055604051600181527f7f26b83ff96e1f2b6a682f133852f6798a09c465da95921460cefb3847402498906020016101cc56fea2646970667358221220032c778cf4ad6b889c4504b015d692a93a8ab400ed4881267df9d78c1445527664736f6c634300081400337f26b83ff96e1f2b6a682f133852f6798a09c465da95921460cefb3847402498",
  "linkReferences": {},
  "deployedLinkReferences": {}
}