{
  "_format": "hh-sol-artifact-1",
  "contractName": "ConstructorInitializableMock",
  "sourceName": "contracts/mocks/InitializableMock.sol",
  "abi": [
    {
      "inputs": [],
      "stateMutability": "nonpayable",
      "type": "constructor"
    },
    {
      "inputs": [],
      "name": "AlreadyInitialized",
      "type": "error"
    },
    {
      "inputs": [],
      "name": "NotInitializing",
      "type": "error"
    },
    {
      "anonymous": false,
      "inputs": [
        {
          "indexed": false,
          "internalType": "uint8",
          "name": "version",
          "type": "uint8"
        }
      ],
      "name": "Initialized",
      "type": "event"
    },
    {
      "inputs": [],
      "name": "initialize",
      "outputs": [],
      "stateMutability": "nonpayable",
      "type": "function"
    },
    {
      "inputs": [],
      "name": "initializeOnlyInitializing",
      "outputs": [],
      "stateMutability": "nonpayable",
      "type": "function"
    },
    {
      "inputs": [],
      "name": "initializerRan",
      "outputs": [
        {
          "internalType": "bool",
          "name": "",
          "type": "bool"
        }
      ],
      "stateMutability": "view",
      "type": "function"
    },
    {
      "inputs": [],
      "name": "onlyInitializingRan",
      "outputs": [
        {
          "internalType": "bool",
          "name": "",
          "type": "bool"
        }
      ],
      "stateMutability": "view",
      "type": "function"
    }
  ],
  "bytecode": "0x608060405234801561000f575f80fd5b505f54610100900460ff161580801561002e57505f54600160ff909116105b15801561004b5750303b15801561004957505f5460ff166001145b155b156100685760405162dc149f60e41b815260040160405180910390fd5b5f805460ff191660011790558015610089575f805461ff0019166101001790555b6100916100d1565b61009961018f565b80156100cb575f805461ff0019169055604051600181525f805160206103b28339815191529060200160405180910390a15b506101ca565b5f54610100900460ff16158080156100ef57505f54600160ff909116105b15801561010c5750303b15801561010a57505f5460ff166001145b155b156101295760405162dc149f60e41b815260040160405180910390fd5b5f805460ff19166001179055801561014a575f805461ff0019166101001790555b5f805462ff0000191662010000179055801561018c575f805461ff0019169055604051600181525f805160206103b28339815191529060200160405180910390a15b50565b5f54610100900460ff166101b657604051631afcd79f60e31b815260040160405180910390fd5b5f805463ff00000019166301000000179055565b6101db806101d75f395ff3fe608060405234801561000f575f80fd5b506004361061004a575f3560e01c806310065ed21461004e5780637cffe97a146100585780638129fc1c1461007f578063c3b8ef2a14610087575b5f80fd5b610056610099565b005b5f5461006b906301000000900460ff1681565b604051901515815260200160405180910390f35b6100566100d4565b5f5461006b9062010000900460ff1681565b5f54610100900460ff166100c057604051631afcd79f60e31b815260040160405180910390fd5b5f805463ff00000019166301000000179055565b5f54610100900460ff16158080156100f257505f54600160ff909116105b15801561010f5750303b15801561010d57505f5460ff166001145b155b1561012c5760405162dc149f60e41b815260040160405180910390fd5b5f805460ff19166001179055801561014d575f805461ff0019166101001790555b5f805462ff000019166201000017905580156101a2575f805461ff0019169055604051600181527f7f26b83ff96e1f2b6a682f133852f6798a09c465da95921460cefb38474024989060200160405180910390a15b5056fea26469706673582212206e92117639c1ba5ad24a98a43b13307d356522653afaba15b0b5b398ae0f030264736f6c634300081400337f26b83ff96e1f2b6a682f133852f6798a09c465da95921460cefb3847402498",
  "linkReferences": {},
  "deployedLinkReferences": {}
}