{
  "_format": "hh-sol-artifact-1",
  "contractName": "InitializableMock",
  "sourceName": "contracts/mocks/InitializableMock.sol",
  "abi": [
    {
      "inputs": [],
      "name": "AlreadyInitialized",
      "type": "error"
    },
    {
      "inputs": [],
      "name": "NotInitializing",
      "type": "error"
    },
    {
      "anonymous": false,
      "inputs": [
        {
          "indexed": false,
          "internalType": "uint8",
          "name": "version",
          "type": "uint8"
        }
      ],
      "name": "Initialized",
      "type": "event"
    },
    {
      "inputs": [],
      "name": "fail",
      "outputs": [],
      "stateMutability": "pure",
      "type": "function"
    },
    {
      "inputs": [],
      "name": "initialize",
      "outputs": [],
      "stateMutability": "nonpayable",
      "type": "function"
    },
    {
      "inputs": [],
      "name": "initializeOnlyInitializing",
      "outputs": [],
      "stateMutability": "nonpayable",
      "type": "function"
    },
    {
      "inputs": [
        {
          "internalType": "uint256",
          "name": "_x",
          "type": "uint256"
        }
      ],
      "name": "initializeWithX",
      "outputs": [],
      "stateMutability": "payable",
      "type": "function"
    },
    {
      "inputs": [],
      "name": "initializerNested",
      "outputs": [],
      "stateMutability": "nonpayable",
      "type": "function"
    },
    {
      "inputs": [],
      "name": "initializerRan",
      "outputs": [
        {
          "internalType": "bool",
          "name": "",
          "type": "bool"
        }
      ],
      "stateMutability": "view",
      "type": "function"
    },
    {
      "inputs": [],
      "name": "isInitializing",
      "outputs": [
        {
          "internalType": "bool",
          "name": "",
          "type": "bool"
        }
      ],
      "stateMutability": "view",
      "type": "function"
    },
    {
      "inputs": [
        {
          "internalType": "uint256",
          "name": "_x",
          "type": "uint256"
        }
      ],
      "name": "nonInitializable",
      "outputs": [],
      "stateMutability": "payable",
      "type": "function"
    },
    {
      "inputs": [],
      "name": "onlyInitializingNested",
      "outputs": [],
      "stateMutability": "nonpayable",
      "type": "function"
    },
    {
      "inputs": [],
      "name": "onlyInitializingRan",
      "outputs": [
        {
          "internalType": "bool",
          "name": "",
          "type": "bool"
        }
      ],
      "stateMutability": "view",
      "type": "function"
    },
    {
      "inputs": [],
      "name": "x",
      "outputs": [
        {
          "internalType": "uint256",
          "name": "",
          "type": "uint256"
        }
      ],
      "stateMutability": "view",
      "type": "function"
    }
  ],
  "bytecode": "0x608060405234801561000f575f80fd5b506105618061001d5f395ff3fe608060405260043610610099575f3560e01c806376268ae81161006257806376268ae8146101295780637cffe97a1461013d5780638129fc1c1461015c578063a9cc471814610170578063c3b8ef2a14610184578063e955c9ec146101a2575f80fd5b806218eaa81461009d5780630c55699c146100b257806310065ed2146100da5780633ec91f05146100ee57806368449d1b14610115575b5f80fd5b6100b06100ab366004610514565b6101b5565b005b3480156100bd575f80fd5b506100c760015481565b6040519081526020015b60405180910390f35b3480156100e5575f80fd5b506100b061027c565b3480156100f9575f80fd5b505f54610100900460ff165b60405190151581526020016100d1565b348015610120575f80fd5b506100b06102b7565b348015610134575f80fd5b506100b0610381565b348015610148575f80fd5b505f54610105906301000000900460ff1681565b348015610167575f80fd5b506100b06103fe565b34801561017b575f80fd5b506100b06104c8565b34801561018f575f80fd5b505f546101059062010000900460ff1681565b6100b06101b0366004610514565b600155565b5f54610100900460ff16158080156101d357505f54600160ff909116105b1580156101f05750303b1580156101ee57505f5460ff166001145b155b1561020d5760405162dc149f60e41b815260040160405180910390fd5b5f805460ff19166001179055801561022e575f805461ff0019166101001790555b60018290558015610278575f805461ff0019169055604051600181527f7f26b83ff96e1f2b6a682f133852f6798a09c465da95921460cefb38474024989060200160405180910390a15b5050565b5f54610100900460ff166102a357604051631afcd79f60e31b815260040160405180910390fd5b5f805463ff00000019166301000000179055565b5f54610100900460ff16158080156102d557505f54600160ff909116105b1580156102f25750303b1580156102f057505f5460ff166001145b155b1561030f5760405162dc149f60e41b815260040160405180910390fd5b5f805460ff191660011790558015610330575f805461ff0019166101001790555b61033861027c565b801561037e575f805461ff0019169055604051600181527f7f26b83ff96e1f2b6a682f133852f6798a09c465da95921460cefb3847402498906020015b60405180910390a15b50565b5f54610100900460ff161580801561039f57505f54600160ff909116105b1580156103bc5750303b1580156103ba57505f5460ff166001145b155b156103d95760405162dc149f60e41b815260040160405180910390fd5b5f805460ff1916600117905580156103fa575f805461ff0019166101001790555b6103385b5f54610100900460ff161580801561041c57505f54600160ff909116105b1580156104395750303b15801561043757505f5460ff166001145b155b156104565760405162dc149f60e41b815260040160405180910390fd5b5f805460ff191660011790558015610477575f805461ff0019166101001790555b5f805462ff0000191662010000179055801561037e575f805461ff0019169055604051600181527f7f26b83ff96e1f2b6a682f133852f6798a09c465da95921460cefb384740249890602001610375565b60405162461bcd60e51b815260206004820181905260248201527f496e697469616c697a61626c654d6f636b20666f72636564206661696c757265604482015260640160405180910390fd5b5f60208284031215610524575f80fd5b503591905056fea26469706673582212209decb3966ea741c425316fff267f1e53a71caa5c27e8718d2c376795392ac5fb64736f6c63430008140033",
  "linkReferences": {},
  "deployedLinkReferences": {}
}