{
  "_format": "hh-sol-artifact-1",
  "contractName": "ReinitializerMock",
  "sourceName": "contracts/mocks/InitializableMock.sol",
  "abi": [
    {
      "inputs": [],
      "name": "AlreadyInitialized",
      "type": "error"
    },
    {
      "inputs": [],
      "name": "NotInitializing",
      "type": "error"
    },
    {
      "anonymous": false,
      "inputs": [
        {
          "indexed": false,
          "internalType": "uint8",
          "name": "version",
          "type": "uint8"
        }
      ],
      "name": "Initialized",
      "type": "event"
    },
    {
      "inputs": [
        {
          "internalType": "uint8",
          "name": "i",
          "type": "uint8"
        },
        {
          "internalType": "uint8",
          "name": "j",
          "type": "uint8"
        }
      ],
      "name": "chainReinitialize",
      "outputs": [],
      "stateMutability": "nonpayable",
      "type": "function"
    },
    {
      "inputs": [],
      "name": "counter",
      "outputs": [
        {
          "internalType": "uint256",
          "name": "",
          "type": "uint256"
        }
      ],
      "stateMutability": "view",
      "type": "function"
    },
    {
      "inputs": [],
      "name": "disableInitializers",
      "outputs": [],
      "stateMutability": "nonpayable",
      "type": "function"
    },
    {
      "inputs": [],
      "name": "doStuff",
      "outputs": [],
      "stateMutability": "nonpayable",
      "type": "function"
    },
    {
      "inputs": [],
      "name": "getInitializedVersion",
      "outputs": [
        {
          "internalType": "uint8",
          "name": "",
          "type": "uint8"
        }
      ],
      "stateMutability": "view",
      "type": "function"
    },
    {
      "inputs": [],
      "name": "initialize",
      "outputs": [],
      "stateMutability": "nonpayable",
      "type": "function"
    },
    {
      "inputs": [
        {
          "internalType": "uint8",
          "name": "i",
          "type": "uint8"
        },
        {
          "internalType": "uint8",
          "name": "j",
          "type": "uint8"
        }
      ],
      "name": "nestedReinitialize",
      "outputs": [],
      "stateMutability": "nonpayable",
      "type": "function"
    },
    {
      "inputs": [
        {
          "internalType": "uint8",
          "name": "i",
          "type": "uint8"
        }
      ],
      "name": "reinitialize",
      "outputs": [],
      "stateMutability": "nonpayable",
      "type": "function"
    }
  ],
  "bytecode": "0x608060405234801561000f575f80fd5b506104738061001d5f395ff3fe608060405234801561000f575f80fd5b5060043610610085575f3560e01c80638129fc1c116100585780638129fc1c146100d5578063874f33a1146100dd578063b3c65015146100e5578063f8d6cdba146100f9575f80fd5b8063073de42e1461008957806331f449001461009e57806361bc221a146100a65780636b2d8f8f146100c2575b5f80fd5b61009c6100973660046103a8565b61010c565b005b61009c610193565b6100af60015481565b6040519081526020015b60405180910390f35b61009c6100d03660046103c8565b61019d565b61009c6101b3565b61009c610269565b5f5460405160ff90911681526020016100b9565b61009c6101073660046103c8565b6102a6565b5f548190610100900460ff168061012a57505f5460ff808316911610155b156101475760405162dc149f60e41b815260040160405180910390fd5b5f805461ffff191660ff831617610100179055610162610269565b5f805461ff001916905560405160ff821681525f8051602061041e8339815191529060200160405180910390a15050565b61019b61032f565b565b6101a68261010c565b6101af8161010c565b5050565b5f54610100900460ff16158080156101d157505f54600160ff909116105b1580156101ee5750303b1580156101ec57505f5460ff166001145b155b1561020b5760405162dc149f60e41b815260040160405180910390fd5b5f805460ff19166001179055801561022c575f805461ff0019166101001790555b610234610269565b8015610266575f805461ff0019169055604051600181525f8051602061041e8339815191529060200160405180910390a15b50565b5f54610100900460ff1661029057604051631afcd79f60e31b815260040160405180910390fd5b60018054905f61029f836103f9565b9190505550565b5f548290610100900460ff16806102c457505f5460ff808316911610155b156102e15760405162dc149f60e41b815260040160405180910390fd5b5f805461ffff191660ff8316176101001790556102fd8261010c565b5f805461ff001916905560405160ff821681525f8051602061041e8339815191529060200160405180910390a1505050565b5f54610100900460ff16156103565760405162dc149f60e41b815260040160405180910390fd5b5f5460ff9081161461019b575f805460ff191660ff9081179091556040519081525f8051602061041e8339815191529060200160405180910390a1565b803560ff811681146103a3575f80fd5b919050565b5f602082840312156103b8575f80fd5b6103c182610393565b9392505050565b5f80604083850312156103d9575f80fd5b6103e283610393565b91506103f060208401610393565b90509250929050565b5f6001820161041657634e487b7160e01b5f52601160045260245ffd5b506001019056fe7f26b83ff96e1f2b6a682f133852f6798a09c465da95921460cefb3847402498a2646970667358221220e04ac1ceb8e713c6209fcc8aa63c53ebe963fbf044d90449f65d2b8717536dc064736f6c63430008140033",
  "linkReferences": {},
  "deployedLinkReferences": {}
}