{
  "_format": "hh-sol-artifact-1",
  "contractName": "$AccessControl",
  "sourceName": "contracts-exposed/access/AccessControl.sol",
  "abi": [
    {
      "inputs": [],
      "stateMutability": "payable",
      "type": "constructor"
    },
    {
      "inputs": [],
      "name": "AccessControlBadConfirmation",
      "type": "error"
    },
    {
      "inputs": [
        {
          "internalType": "address",
          "name": "account",
          "type": "address"
        },
        {
          "internalType": "bytes32",
          "name": "neededRole",
          "type": "bytes32"
        }
      ],
      "name": "AccessControlUnauthorizedAccount",
      "type": "error"
    },
    {
      "anonymous": false,
      "inputs": [
        {
          "indexed": true,
          "internalType": "bytes32",
          "name": "role",
          "type": "bytes32"
        },
        {
          "indexed": true,
          "internalType": "bytes32",
          "name": "previousAdminRole",
          "type": "bytes32"
        },
        {
          "indexed": true,
          "internalType": "bytes32",
          "name": "newAdminRole",
          "type": "bytes32"
        }
      ],
      "name": "RoleAdminChanged",
      "type": "event"
    },
    {
      "anonymous": false,
      "inputs": [
        {
          "indexed": true,
          "internalType": "bytes32",
          "name": "role",
          "type": "bytes32"
        },
        {
          "indexed": true,
          "internalType": "address",
          "name": "account",
          "type": "address"
        },
        {
          "indexed": true,
          "internalType": "address",
          "name": "sender",
          "type": "address"
        }
      ],
      "name": "RoleGranted",
      "type": "event"
    },
    {
      "anonymous": false,
      "inputs": [
        {
          "indexed": true,
          "internalType": "bytes32",
          "name": "role",
          "type": "bytes32"
        },
        {
          "indexed": true,
          "internalType": "address",
          "name": "account",
          "type": "address"
        },
        {
          "indexed": true,
          "internalType": "address",
          "name": "sender",
          "type": "address"
        }
      ],
      "name": "RoleRevoked",
      "type": "event"
    },
    {
      "inputs": [
        {
          "internalType": "bytes32",
          "name": "role",
          "type": "bytes32"
        },
        {
          "internalType": "address",
          "name": "account",
          "type": "address"
        }
      ],
      "name": "$_checkRole",
      "outputs": [],
      "stateMutability": "view",
      "type": "function"
    },
    {
      "inputs": [
        {
          "internalType": "bytes32",
          "name": "role",
          "type": "bytes32"
        }
      ],
      "name": "$_checkRole",
      "outputs": [],
      "stateMutability": "view",
      "type": "function"
    },
    {
      "inputs": [
        {
          "internalType": "bytes32",
          "name": "role",
          "type": "bytes32"
        },
        {
          "internalType": "address",
          "name": "account",
          "type": "address"
        }
      ],
      "name": "$_grantRole",
      "outputs": [],
      "stateMutability": "nonpayable",
      "type": "function"
    },
    {
      "inputs": [],
      "name": "$_msgData",
      "outputs": [
        {
          "internalType": "bytes",
          "name": "ret0",
          "type": "bytes"
        }
      ],
      "stateMutability": "view",
      "type": "function"
    },
    {
      "inputs": [],
      "name": "$_msgSender",
      "outputs": [
        {
          "internalType": "address",
          "name": "ret0",
          "type": "address"
        }
      ],
      "stateMutability": "view",
      "type": "function"
    },
    {
      "inputs": [
        {
          "internalType": "bytes32",
          "name": "role",
          "type": "bytes32"
        },
        {
          "internalType": "address",
          "name": "account",
          "type": "address"
        }
      ],
      "name": "$_revokeRole",
      "outputs": [],
      "stateMutability": "nonpayable",
      "type": "function"
    },
    {
      "inputs": [
        {
          "internalType": "bytes32",
          "name": "role",
          "type": "bytes32"
        },
        {
          "internalType": "bytes32",
          "name": "adminRole",
          "type": "bytes32"
        }
      ],
      "name": "$_setRoleAdmin",
      "outputs": [],
      "stateMutability": "nonpayable",
      "type": "function"
    },
    {
      "inputs": [],
      "name": "DEFAULT_ADMIN_ROLE",
      "outputs": [
        {
          "internalType": "bytes32",
          "name": "",
          "type": "bytes32"
        }
      ],
      "stateMutability": "view",
      "type": "function"
    },
    {
      "inputs": [],
      "name": "__hh_exposed_bytecode_marker",
      "outputs": [
        {
          "internalType": "bytes32",
          "name": "",
          "type": "bytes32"
        }
      ],
      "stateMutability": "view",
      "type": "function"
    },
    {
      "inputs": [
        {
          "internalType": "bytes32",
          "name": "role",
          "type": "bytes32"
        }
      ],
      "name": "getRoleAdmin",
      "outputs": [
        {
          "internalType": "bytes32",
          "name": "",
          "type": "bytes32"
        }
      ],
      "stateMutability": "view",
      "type": "function"
    },
    {
      "inputs": [
        {
          "internalType": "bytes32",
          "name": "role",
          "type": "bytes32"
        },
        {
          "internalType": "address",
          "name": "account",
          "type": "address"
        }
      ],
      "name": "grantRole",
      "outputs": [],
      "stateMutability": "nonpayable",
      "type": "function"
    },
    {
      "inputs": [
        {
          "internalType": "bytes32",
          "name": "role",
          "type": "bytes32"
        },
        {
          "internalType": "address",
          "name": "account",
          "type": "address"
        }
      ],
      "name": "hasRole",
      "outputs": [
        {
          "internalType": "bool",
          "name": "",
          "type": "bool"
        }
      ],
      "stateMutability": "view",
      "type": "function"
    },
    {
      "inputs": [
        {
          "internalType": "bytes32",
          "name": "role",
          "type": "bytes32"
        },
        {
          "internalType": "address",
          "name": "callerConfirmation",
          "type": "address"
        }
      ],
      "name": "renounceRole",
      "outputs": [],
      "stateMutability": "nonpayable",
      "type": "function"
    },
    {
      "inputs": [
        {
          "internalType": "bytes32",
          "name": "role",
          "type": "bytes32"
        },
        {
          "internalType": "address",
          "name": "account",
          "type": "address"
        }
      ],
      "name": "revokeRole",
      "outputs": [],
      "stateMutability": "nonpayable",
      "type": "function"
    },
    {
      "inputs": [
        {
          "internalType": "bytes4",
          "name": "interfaceId",
          "type": "bytes4"
        }
      ],
      "name": "supportsInterface",
      "outputs": [
        {
          "internalType": "bool",
          "name": "",
          "type": "bool"
        }
      ],
      "stateMutability": "view",
      "type": "function"
    },
    {
      "stateMutability": "payable",
      "type": "receive"
    }
  ],
  "bytecode": "0x60806040526106ce806100115f395ff3fe6080604052600436106100e7575f3560e01c806336568abe1161008757806398dd54c11161005757806398dd54c11461027e578063a217fddf1461029d578063d547741f146102b0578063d7bdcee9146102cf575f80fd5b806336568abe1461020257806341b45f71146102215780634286d2f11461024057806391d148541461025f575f80fd5b80632904df29116100c25780632904df29146101835780632f2ff15d1461019d57806332cadf3c146101bc578063342db739146101dd575f80fd5b806301ffc9a7146100f2578063248a9ca314610126578063270db87414610162575f80fd5b366100ee57005b5f80fd5b3480156100fd575f80fd5b5061011161010c3660046105af565b6102ee565b60405190151581526020015b60405180910390f35b348015610131575f80fd5b506101546101403660046105dd565b5f9081526020819052604090206001015490565b60405190815260200161011d565b34801561016d575f80fd5b5061018161017c3660046105f4565b610324565b005b34801561018e575f80fd5b5060405133815260200161011d565b3480156101a8575f80fd5b506101816101b73660046105f4565b610332565b3480156101c7575f80fd5b506101d061035b565b60405161011d919061062d565b3480156101e8575f80fd5b506101546e1a185c991a185d0b595e1c1bdcd959608a1b81565b34801561020d575f80fd5b5061018161021c3660046105f4565b610398565b34801561022c575f80fd5b5061018161023b3660046105f4565b6103cb565b34801561024b575f80fd5b5061018161025a3660046105f4565b6103c1565b34801561026a575f80fd5b506101116102793660046105f4565b6103d5565b348015610289575f80fd5b506101816102983660046105dd565b6103fd565b3480156102a8575f80fd5b506101545f81565b3480156102bb575f80fd5b506101816102ca3660046105f4565b610409565b3480156102da575f80fd5b506101816102e9366004610678565b61042d565b5f6001600160e01b03198216637965db0b60e01b148061031e57506301ffc9a760e01b6001600160e01b03198316145b92915050565b61032e8282610437565b5050565b5f8281526020819052604090206001015461034c816104ba565b6103568383610437565b505050565b60605f368080601f0160208091040260200160405190810160405280939291908181526020018383808284375f9201919091525092949350505050565b6001600160a01b03811633146103c15760405163334bd91960e11b815260040160405180910390fd5b61032e82826104c4565b61032e8282610528565b5f918252602082815260408084206001600160a01b0393909316845291905290205460ff1690565b610406816104ba565b50565b5f82815260208190526040902060010154610423816104ba565b61035683836104c4565b61032e8282610565565b61044182826103d5565b61032e575f828152602081815260408083206001600160a01b03851684529091529020805460ff191660011790556104763390565b6001600160a01b0316816001600160a01b0316837f2f8788117e7eff1d82e926ec794901d17c78024a50270940304540a733656f0d60405160405180910390a45050565b6104068133610528565b6104ce82826103d5565b1561032e575f828152602081815260408083206001600160a01b0385168085529252808320805460ff1916905551339285917ff6391f5c32d9c69d2a47ea670b442974b53935d1edc7fd64eb21e047a839171b9190a45050565b61053282826103d5565b61032e5760405163e2517d3f60e01b81526001600160a01b03821660048201526024810183905260440160405180910390fd5b5f82815260208190526040808220600101805490849055905190918391839186917fbd79b86ffe0ab8e8776151514217cd7cacd52c909f66475c3af44e129f0b00ff9190a4505050565b5f602082840312156105bf575f80fd5b81356001600160e01b0319811681146105d6575f80fd5b9392505050565b5f602082840312156105ed575f80fd5b5035919050565b5f8060408385031215610605575f80fd5b8235915060208301356001600160a01b0381168114610622575f80fd5b809150509250929050565b5f6020808352835180828501525f5b818110156106585785810183015185820160400152820161063c565b505f604082860101526040601f19601f8301168501019250505092915050565b5f8060408385031215610689575f80fd5b5050803592602090910135915056fea26469706673582212207e487cdc5f27e26ed747c1bf89ea4dc805a170e2e3579b43db744d070c19683864736f6c63430008140033",
  "linkReferences": {},
  "deployedLinkReferences": {}
}