{
  "_format": "hh-sol-artifact-1",
  "contractName": "NonUpgradeableMock",
  "sourceName": "contracts/mocks/proxy/UUPSUpgradeableMock.sol",
  "abi": [
    {
      "inputs": [],
      "name": "current",
      "outputs": [
        {
          "internalType": "uint256",
          "name": "",
          "type": "uint256"
        }
      ],
      "stateMutability": "view",
      "type": "function"
    },
    {
      "inputs": [],
      "name": "increment",
      "outputs": [],
      "stateMutability": "nonpayable",
      "type": "function"
    }
  ],
  "bytecode": "0x608060405234801561000f575f80fd5b5060ba8061001c5f395ff3fe6080604052348015600e575f80fd5b50600436106030575f3560e01c80639fa6a6e3146034578063d09de08a146048575b5f80fd5b5f5460405190815260200160405180910390f35b604e6050565b005b5f808154605b906061565b90915550565b5f60018201607d57634e487b7160e01b5f52601160045260245ffd5b506001019056fea2646970667358221220a815abe490c0a2e5bdb14e1f05efa85997d99720bf103c4c741f1af61271ab1564736f6c63430008140033",
  "linkReferences": {},
  "deployedLinkReferences": {}
}