{
  "_format": "hh-sol-artifact-1",
  "contractName": "UUPSUpgradeableMock",
  "sourceName": "contracts/mocks/proxy/UUPSUpgradeableMock.sol",
  "abi": [
    {
      "inputs": [
        {
          "internalType": "address",
          "name": "target",
          "type": "address"
        }
      ],
      "name": "AddressEmptyCode",
      "type": "error"
    },
    {
      "inputs": [
        {
          "internalType": "address",
          "name": "implementation",
          "type": "address"
        }
      ],
      "name": "ERC1967InvalidImplementation",
      "type": "error"
    },
    {
      "inputs": [],
      "name": "ERC1967NonPayable",
      "type": "error"
    },
    {
      "inputs": [],
      "name": "FailedInnerCall",
      "type": "error"
    },
    {
      "inputs": [],
      "name": "UUPSUnauthorizedCallContext",
      "type": "error"
    },
    {
      "inputs": [
        {
          "internalType": "bytes32",
          "name": "slot",
          "type": "bytes32"
        }
      ],
      "name": "UUPSUnsupportedProxiableUUID",
      "type": "error"
    },
    {
      "anonymous": false,
      "inputs": [
        {
          "indexed": true,
          "internalType": "address",
          "name": "implementation",
          "type": "address"
        }
      ],
      "name": "Upgraded",
      "type": "event"
    },
    {
      "inputs": [],
      "name": "UPGRADE_INTERFACE_VERSION",
      "outputs": [
        {
          "internalType": "string",
          "name": "",
          "type": "string"
        }
      ],
      "stateMutability": "view",
      "type": "function"
    },
    {
      "inputs": [],
      "name": "current",
      "outputs": [
        {
          "internalType": "uint256",
          "name": "",
          "type": "uint256"
        }
      ],
      "stateMutability": "view",
      "type": "function"
    },
    {
      "inputs": [],
      "name": "increment",
      "outputs": [],
      "stateMutability": "nonpayable",
      "type": "function"
    },
    {
      "inputs": [],
      "name": "proxiableUUID",
      "outputs": [
        {
          "internalType": "bytes32",
          "name": "",
          "type": "bytes32"
        }
      ],
      "stateMutability": "view",
      "type": "function"
    },
    {
      "inputs": [
        {
          "internalType": "address",
          "name": "newImplementation",
          "type": "address"
        },
        {
          "internalType": "bytes",
          "name": "data",
          "type": "bytes"
        }
      ],
      "name": "upgradeToAndCall",
      "outputs": [],
      "stateMutability": "payable",
      "type": "function"
    }
  ],
  "bytecode": "0x60a060405230608052348015610013575f80fd5b506080516106a76100395f395f818160f80152818161012101526101ab01526106a75ff3fe608060405260043610610049575f3560e01c80634f1ef2861461004d57806352d1902d146100625780639fa6a6e314610089578063ad3cb1cc1461009c578063d09de08a146100d9575b5f80fd5b61006061005b3660046104de565b6100ed565b005b34801561006d575f80fd5b5061007661019f565b6040519081526020015b60405180910390f35b348015610094575f80fd5b505f54610076565b3480156100a7575f80fd5b506100cc604051806040016040528060058152602001640352e302e360dc1b81525081565b60405161008091906105c9565b3480156100e4575f80fd5b506100606101fb565b306001600160a01b037f000000000000000000000000000000000000000000000000000000000000000016148061017357507f00000000000000000000000000000000000000000000000000000000000000006001600160a01b03166101675f80516020610652833981519152546001600160a01b031690565b6001600160a01b031614155b156101915760405163703e46dd60e11b815260040160405180910390fd5b61019b828261020e565b5050565b5f306001600160a01b037f000000000000000000000000000000000000000000000000000000000000000016146101e95760405163703e46dd60e11b815260040160405180910390fd5b505f8051602061065283398151915290565b5f808154610208906105fb565b90915550565b816001600160a01b03166352d1902d6040518163ffffffff1660e01b8152600401602060405180830381865afa925050508015610268575060408051601f3d908101601f191682019092526102659181019061061f565b60015b61029557604051634c9c8ce360e01b81526001600160a01b03831660048201526024015b60405180910390fd5b5f8051602061065283398151915281146102c557604051632a87526960e21b81526004810182905260240161028c565b6102cf83836102d4565b505050565b6102dd82610329565b6040516001600160a01b038316907fbc7cd75a20ee27fd9adebab32041f755214dbc6bffa90cc0225b39da2e5c2d3b905f90a2805115610321576102cf828261038c565b61019b6103a2565b806001600160a01b03163b5f0361035e57604051634c9c8ce360e01b81526001600160a01b038216600482015260240161028c565b5f8051602061065283398151915280546001600160a01b0319166001600160a01b0392909216919091179055565b606061039b83836103c36103dc565b9392505050565b34156103c15760405163b398979f60e01b815260040160405180910390fd5b565b604051630a12f52160e11b815260040160405180910390fd5b60605f80856001600160a01b0316856040516103f89190610636565b5f60405180830381855af49150503d805f8114610430576040519150601f19603f3d011682016040523d82523d5f602084013e610435565b606091505b509150915061044686838387610450565b9695505050505050565b6060831561049c5782515f0361049557846001600160a01b03163b5f0361049557604051639996b31560e01b81526001600160a01b038616600482015260240161028c565b50816104a6565b6104a683836104ae565b949350505050565b8151156104be5781518083602001fd5b6103c38163ffffffff16565b634e487b7160e01b5f52604160045260245ffd5b5f80604083850312156104ef575f80fd5b82356001600160a01b0381168114610505575f80fd5b9150602083013567ffffffffffffffff80821115610521575f80fd5b818501915085601f830112610534575f80fd5b813581811115610546576105466104ca565b604051601f8201601f19908116603f0116810190838211818310171561056e5761056e6104ca565b81604052828152886020848701011115610586575f80fd5b826020860160208301375f6020848301015280955050505050509250929050565b5f5b838110156105c15781810151838201526020016105a9565b50505f910152565b602081525f82518060208401526105e78160408501602087016105a7565b601f01601f19169190910160400192915050565b5f6001820161061857634e487b7160e01b5f52601160045260245ffd5b5060010190565b5f6020828403121561062f575f80fd5b5051919050565b5f82516106478184602087016105a7565b919091019291505056fe360894a13ba1a3210667c828492db98dca3e2076cc3735a920a3ca505d382bbca2646970667358221220341f6f534cee1058cfb77fb5006c711fe008c2e55625dfc9d9a09413274a8ff964736f6c63430008140033",
  "linkReferences": {},
  "deployedLinkReferences": {}
}