{
  "_format": "hh-sol-artifact-1",
  "contractName": "UUPSUpgradeableUnsafeMock",
  "sourceName": "contracts/mocks/proxy/UUPSUpgradeableMock.sol",
  "abi": [
    {
      "inputs": [
        {
          "internalType": "address",
          "name": "target",
          "type": "address"
        }
      ],
      "name": "AddressEmptyCode",
      "type": "error"
    },
    {
      "inputs": [
        {
          "internalType": "address",
          "name": "implementation",
          "type": "address"
        }
      ],
      "name": "ERC1967InvalidImplementation",
      "type": "error"
    },
    {
      "inputs": [],
      "name": "ERC1967NonPayable",
      "type": "error"
    },
    {
      "inputs": [],
      "name": "FailedInnerCall",
      "type": "error"
    },
    {
      "inputs": [],
      "name": "UUPSUnauthorizedCallContext",
      "type": "error"
    },
    {
      "inputs": [
        {
          "internalType": "bytes32",
          "name": "slot",
          "type": "bytes32"
        }
      ],
      "name": "UUPSUnsupportedProxiableUUID",
      "type": "error"
    },
    {
      "anonymous": false,
      "inputs": [
        {
          "indexed": true,
          "internalType": "address",
          "name": "implementation",
          "type": "address"
        }
      ],
      "name": "Upgraded",
      "type": "event"
    },
    {
      "inputs": [],
      "name": "UPGRADE_INTERFACE_VERSION",
      "outputs": [
        {
          "internalType": "string",
          "name": "",
          "type": "string"
        }
      ],
      "stateMutability": "view",
      "type": "function"
    },
    {
      "inputs": [],
      "name": "current",
      "outputs": [
        {
          "internalType": "uint256",
          "name": "",
          "type": "uint256"
        }
      ],
      "stateMutability": "view",
      "type": "function"
    },
    {
      "inputs": [],
      "name": "increment",
      "outputs": [],
      "stateMutability": "nonpayable",
      "type": "function"
    },
    {
      "inputs": [],
      "name": "proxiableUUID",
      "outputs": [
        {
          "internalType": "bytes32",
          "name": "",
          "type": "bytes32"
        }
      ],
      "stateMutability": "view",
      "type": "function"
    },
    {
      "inputs": [
        {
          "internalType": "address",
          "name": "newImplementation",
          "type": "address"
        },
        {
          "internalType": "bytes",
          "name": "data",
          "type": "bytes"
        }
      ],
      "name": "upgradeToAndCall",
      "outputs": [],
      "stateMutability": "payable",
      "type": "function"
    }
  ],
  "bytecode": "0x60a060405230608052348015610013575f80fd5b5060805161053661002c5f395f61010701526105365ff3fe608060405260043610610049575f3560e01c80634f1ef2861461004d57806352d1902d146100625780639fa6a6e314610089578063ad3cb1cc1461009c578063d09de08a146100d9575b5f80fd5b61006061005b3660046103a4565b6100ed565b005b34801561006d575f80fd5b506100766100fb565b6040519081526020015b60405180910390f35b348015610094575f80fd5b505f54610076565b3480156100a7575f80fd5b506100cc604051806040016040528060058152602001640352e302e360dc1b81525081565b604051610080919061048f565b3480156100e4575f80fd5b5061006061016a565b6100f7828261017d565b5050565b5f306001600160a01b037f000000000000000000000000000000000000000000000000000000000000000016146101455760405163703e46dd60e11b815260040160405180910390fd5b507f360894a13ba1a3210667c828492db98dca3e2076cc3735a920a3ca505d382bbc90565b5f808154610177906104c1565b90915550565b610186826101d7565b6040516001600160a01b038316907fbc7cd75a20ee27fd9adebab32041f755214dbc6bffa90cc0225b39da2e5c2d3b905f90a28051156101cf576101ca8282610252565b505050565b6100f7610268565b806001600160a01b03163b5f0361021157604051634c9c8ce360e01b81526001600160a01b03821660048201526024015b60405180910390fd5b7f360894a13ba1a3210667c828492db98dca3e2076cc3735a920a3ca505d382bbc80546001600160a01b0319166001600160a01b0392909216919091179055565b606061026183836102896102a2565b9392505050565b34156102875760405163b398979f60e01b815260040160405180910390fd5b565b604051630a12f52160e11b815260040160405180910390fd5b60605f80856001600160a01b0316856040516102be91906104e5565b5f60405180830381855af49150503d805f81146102f6576040519150601f19603f3d011682016040523d82523d5f602084013e6102fb565b606091505b509150915061030c86838387610316565b9695505050505050565b606083156103625782515f0361035b57846001600160a01b03163b5f0361035b57604051639996b31560e01b81526001600160a01b0386166004820152602401610208565b508161036c565b61036c8383610374565b949350505050565b8151156103845781518083602001fd5b6102898163ffffffff16565b634e487b7160e01b5f52604160045260245ffd5b5f80604083850312156103b5575f80fd5b82356001600160a01b03811681146103cb575f80fd5b9150602083013567ffffffffffffffff808211156103e7575f80fd5b818501915085601f8301126103fa575f80fd5b81358181111561040c5761040c610390565b604051601f8201601f19908116603f0116810190838211818310171561043457610434610390565b8160405282815288602084870101111561044c575f80fd5b826020860160208301375f6020848301015280955050505050509250929050565b5f5b8381101561048757818101518382015260200161046f565b50505f910152565b602081525f82518060208401526104ad81604085016020870161046d565b601f01601f19169190910160400192915050565b5f600182016104de57634e487b7160e01b5f52601160045260245ffd5b5060010190565b5f82516104f681846020870161046d565b919091019291505056fea264697066735822122013319eacc4c750e8d6e1b3283aea78660cc1cfa77a717a6133819f8ba3d597fe64736f6c63430008140033",
  "linkReferences": {},
  "deployedLinkReferences": {}
}