{
  "_format": "hh-sol-artifact-1",
  "contractName": "$DoubleEndedQueue",
  "sourceName": "contracts-exposed/utils/structs/DoubleEndedQueue.sol",
  "abi": [
    {
      "inputs": [],
      "stateMutability": "payable",
      "type": "constructor"
    },
    {
      "inputs": [],
      "name": "QueueEmpty",
      "type": "error"
    },
    {
      "inputs": [],
      "name": "QueueOutOfBounds",
      "type": "error"
    },
    {
      "inputs": [
        {
          "internalType": "uint8",
          "name": "bits",
          "type": "uint8"
        },
        {
          "internalType": "int256",
          "name": "value",
          "type": "int256"
        }
      ],
      "name": "SafeCastOverflowedIntDowncast",
      "type": "error"
    },
    {
      "inputs": [
        {
          "internalType": "uint256",
          "name": "value",
          "type": "uint256"
        }
      ],
      "name": "SafeCastOverflowedUintToInt",
      "type": "error"
    },
    {
      "anonymous": false,
      "inputs": [
        {
          "indexed": false,
          "internalType": "bytes32",
          "name": "value",
          "type": "bytes32"
        }
      ],
      "name": "return$popBack",
      "type": "event"
    },
    {
      "anonymous": false,
      "inputs": [
        {
          "indexed": false,
          "internalType": "bytes32",
          "name": "value",
          "type": "bytes32"
        }
      ],
      "name": "return$popFront",
      "type": "event"
    },
    {
      "inputs": [
        {
          "internalType": "uint256",
          "name": "deque",
          "type": "uint256"
        },
        {
          "internalType": "uint256",
          "name": "index",
          "type": "uint256"
        }
      ],
      "name": "$at",
      "outputs": [
        {
          "internalType": "bytes32",
          "name": "value",
          "type": "bytes32"
        }
      ],
      "stateMutability": "view",
      "type": "function"
    },
    {
      "inputs": [
        {
          "internalType": "uint256",
          "name": "deque",
          "type": "uint256"
        }
      ],
      "name": "$back",
      "outputs": [
        {
          "internalType": "bytes32",
          "name": "value",
          "type": "bytes32"
        }
      ],
      "stateMutability": "view",
      "type": "function"
    },
    {
      "inputs": [
        {
          "internalType": "uint256",
          "name": "deque",
          "type": "uint256"
        }
      ],
      "name": "$clear",
      "outputs": [],
      "stateMutability": "payable",
      "type": "function"
    },
    {
      "inputs": [
        {
          "internalType": "uint256",
          "name": "deque",
          "type": "uint256"
        }
      ],
      "name": "$empty",
      "outputs": [
        {
          "internalType": "bool",
          "name": "ret0",
          "type": "bool"
        }
      ],
      "stateMutability": "view",
      "type": "function"
    },
    {
      "inputs": [
        {
          "internalType": "uint256",
          "name": "deque",
          "type": "uint256"
        }
      ],
      "name": "$front",
      "outputs": [
        {
          "internalType": "bytes32",
          "name": "value",
          "type": "bytes32"
        }
      ],
      "stateMutability": "view",
      "type": "function"
    },
    {
      "inputs": [
        {
          "internalType": "uint256",
          "name": "deque",
          "type": "uint256"
        }
      ],
      "name": "$length",
      "outputs": [
        {
          "internalType": "uint256",
          "name": "ret0",
          "type": "uint256"
        }
      ],
      "stateMutability": "view",
      "type": "function"
    },
    {
      "inputs": [
        {
          "internalType": "uint256",
          "name": "deque",
          "type": "uint256"
        }
      ],
      "name": "$popBack",
      "outputs": [
        {
          "internalType": "bytes32",
          "name": "value",
          "type": "bytes32"
        }
      ],
      "stateMutability": "payable",
      "type": "function"
    },
    {
      "inputs": [
        {
          "internalType": "uint256",
          "name": "deque",
          "type": "uint256"
        }
      ],
      "name": "$popFront",
      "outputs": [
        {
          "internalType": "bytes32",
          "name": "value",
          "type": "bytes32"
        }
      ],
      "stateMutability": "payable",
      "type": "function"
    },
    {
      "inputs": [
        {
          "internalType": "uint256",
          "name": "deque",
          "type": "uint256"
        },
        {
          "internalType": "bytes32",
          "name": "value",
          "type": "bytes32"
        }
      ],
      "name": "$pushBack",
      "outputs": [],
      "stateMutability": "payable",
      "type": "function"
    },
    {
      "inputs": [
        {
          "internalType": "uint256",
          "name": "deque",
          "type": "uint256"
        },
        {
          "internalType": "bytes32",
          "name": "value",
          "type": "bytes32"
        }
      ],
      "name": "$pushFront",
      "outputs": [],
      "stateMutability": "payable",
      "type": "function"
    },
    {
      "inputs": [],
      "name": "__hh_exposed_bytecode_marker",
      "outputs": [
        {
          "internalType": "bytes32",
          "name": "",
          "type": "bytes32"
        }
      ],
      "stateMutability": "view",
      "type": "function"
    },
    {
      "stateMutability": "payable",
      "type": "receive"
    }
  ],
  "bytecode": "0x60806040526106de806100115f395ff3fe60806040526004361061009d575f3560e01c8063342db73911610062578063342db739146101345780633a120fb01461015957806369b64fb41461017857806372a3147b146101ce578063e508b548146101ec578063eb71a3311461020b575f80fd5b806301b7a0d2146100a8578063100deb5b146100bd5780631119ed0d146100e357806319fc17811461010257806330fc7d4214610121575f80fd5b366100a457005b5f80fd5b6100bb6100b636600461063e565b61023a565b005b6100d06100cb36600461065e565b61028d565b6040519081526020015b60405180910390f35b3480156100ee575f80fd5b506100d06100fd36600461065e565b6102e3565b34801561010d575f80fd5b506100d061011c36600461065e565b6102ff565b6100d061012f36600461065e565b610322565b34801561013f575f80fd5b506100d06e1a185c991a185d0b595e1c1bdcd959608a1b81565b348015610164575f80fd5b506100d061017336600461065e565b61036b565b6100bb61018636600461063e565b5f828152602081815260408083208054600f90810b5f19019081900b855260018201909352922083905581546001600160801b0319166001600160801b039091161790555050565b6100bb6101dc36600461065e565b5f90815260208190526040812055565b3480156101f7575f80fd5b506100d061020636600461063e565b610381565b348015610216575f80fd5b5061022a61022536600461065e565b61039f565b60405190151581526020016100da565b5f82815260208190526040902061028990828154600160801b90819004600f0b5f818152600180860160205260409091209390935583546001600160801b039390910183169091029116179055565b5050565b5f8181526020819052604081206102a3906103c3565b90507f9c2e1a59fa6ca05f455668c8abba7fb32b6c0575457a7a6d6e5365d87ca92188816040516102d691815260200190565b60405180910390a1919050565b5f8181526020819052604081206102f990610440565b92915050565b5f81815260208190526040812054600f81810b600160801b909204900b036102f9565b5f81815260208190526040812061033890610492565b90507f58b1a1273a9b4031e423823987774815c8ca9dd9ac3a58d1ba9692d6f094798f816040516102d691815260200190565b5f8181526020819052604081206102f990610506565b5f8281526020819052604081206103989083610566565b9392505050565b5f81815260208190526040812054600f81810b600160801b909204900b13156102f9565b5f6103dd8254600f81810b600160801b909204900b131590565b156103fb576040516375e52f4f60e01b815260040160405180910390fd5b508054600160801b90819004600f90810b5f19019081900b5f9081526001840160205260408120805491905583546001600160801b0390811692169092021790915590565b5f61045a8254600f81810b600160801b909204900b131590565b15610478576040516375e52f4f60e01b815260040160405180910390fd5b508054600f0b5f9081526001909101602052604090205490565b5f6104ac8254600f81810b600160801b909204900b131590565b156104ca576040516375e52f4f60e01b815260040160405180910390fd5b508054600f0b5f818152600180840160205260408220805492905583546001600160801b03191692016001600160801b03169190911790915590565b5f6105208254600f81810b600160801b909204900b131590565b1561053e576040516375e52f4f60e01b815260040160405180910390fd5b508054600160801b9004600f90810b5f1901900b5f9081526001909101602052604090205490565b5f80610588610574846105d5565b85546105839190600f0b610675565b61060a565b8454909150600160801b9004600f90810b9082900b126105bb5760405163580821e760e01b815260040160405180910390fd5b600f0b5f9081526001939093016020525050604090205490565b5f6001600160ff1b038211156106065760405163123baf0360e11b8152600481018390526024015b60405180910390fd5b5090565b80600f81900b81146106395760405163327269a760e01b815260806004820152602481018390526044016105fd565b919050565b5f806040838503121561064f575f80fd5b50508035926020909101359150565b5f6020828403121561066e575f80fd5b5035919050565b8082018281125f8312801582168215821617156106a057634e487b7160e01b5f52601160045260245ffd5b50509291505056fea26469706673582212209b15223f1e8c6866f503b884e4ac8d71014730696a0d643f851c8735492a9e7564736f6c63430008140033",
  "linkReferences": {},
  "deployedLinkReferences": {}
}