{
  "_format": "hh-sol-artifact-1",
  "contractName": "ERC20Reentrant",
  "sourceName": "contracts/mocks/token/ERC20Reentrant.sol",
  "abi": [
    {
      "inputs": [
        {
          "internalType": "address",
          "name": "target",
          "type": "address"
        }
      ],
      "name": "AddressEmptyCode",
      "type": "error"
    },
    {
      "inputs": [
        {
          "internalType": "address",
          "name": "account",
          "type": "address"
        }
      ],
      "name": "AddressInsufficientBalance",
      "type": "error"
    },
    {
      "inputs": [
        {
          "internalType": "address",
          "name": "spender",
          "type": "address"
        },
        {
          "internalType": "uint256",
          "name": "currentAllowance",
          "type": "uint256"
        },
        {
          "internalType": "uint256",
          "name": "requestedDecrease",
          "type": "uint256"
        }
      ],
      "name": "ERC20FailedDecreaseAllowance",
      "type": "error"
    },
    {
      "inputs": [
        {
          "internalType": "address",
          "name": "spender",
          "type": "address"
        },
        {
          "internalType": "uint256",
          "name": "allowance",
          "type": "uint256"
        },
        {
          "internalType": "uint256",
          "name": "needed",
          "type": "uint256"
        }
      ],
      "name": "ERC20InsufficientAllowance",
      "type": "error"
    },
    {
      "inputs": [
        {
          "internalType": "address",
          "name": "sender",
          "type": "address"
        },
        {
          "internalType": "uint256",
          "name": "balance",
          "type": "uint256"
        },
        {
          "internalType": "uint256",
          "name": "needed",
          "type": "uint256"
        }
      ],
      "name": "ERC20InsufficientBalance",
      "type": "error"
    },
    {
      "inputs": [
        {
          "internalType": "address",
          "name": "approver",
          "type": "address"
        }
      ],
      "name": "ERC20InvalidApprover",
      "type": "error"
    },
    {
      "inputs": [
        {
          "internalType": "address",
          "name": "receiver",
          "type": "address"
        }
      ],
      "name": "ERC20InvalidReceiver",
      "type": "error"
    },
    {
      "inputs": [
        {
          "internalType": "address",
          "name": "sender",
          "type": "address"
        }
      ],
      "name": "ERC20InvalidSender",
      "type": "error"
    },
    {
      "inputs": [
        {
          "internalType": "address",
          "name": "spender",
          "type": "address"
        }
      ],
      "name": "ERC20InvalidSpender",
      "type": "error"
    },
    {
      "inputs": [],
      "name": "FailedInnerCall",
      "type": "error"
    },
    {
      "anonymous": false,
      "inputs": [
        {
          "indexed": true,
          "internalType": "address",
          "name": "owner",
          "type": "address"
        },
        {
          "indexed": true,
          "internalType": "address",
          "name": "spender",
          "type": "address"
        },
        {
          "indexed": false,
          "internalType": "uint256",
          "name": "value",
          "type": "uint256"
        }
      ],
      "name": "Approval",
      "type": "event"
    },
    {
      "anonymous": false,
      "inputs": [
        {
          "indexed": true,
          "internalType": "address",
          "name": "from",
          "type": "address"
        },
        {
          "indexed": true,
          "internalType": "address",
          "name": "to",
          "type": "address"
        },
        {
          "indexed": false,
          "internalType": "uint256",
          "name": "value",
          "type": "uint256"
        }
      ],
      "name": "Transfer",
      "type": "event"
    },
    {
      "inputs": [
        {
          "internalType": "address",
          "name": "owner",
          "type": "address"
        },
        {
          "internalType": "address",
          "name": "spender",
          "type": "address"
        }
      ],
      "name": "allowance",
      "outputs": [
        {
          "internalType": "uint256",
          "name": "",
          "type": "uint256"
        }
      ],
      "stateMutability": "view",
      "type": "function"
    },
    {
      "inputs": [
        {
          "internalType": "address",
          "name": "spender",
          "type": "address"
        },
        {
          "internalType": "uint256",
          "name": "value",
          "type": "uint256"
        }
      ],
      "name": "approve",
      "outputs": [
        {
          "internalType": "bool",
          "name": "",
          "type": "bool"
        }
      ],
      "stateMutability": "nonpayable",
      "type": "function"
    },
    {
      "inputs": [
        {
          "internalType": "address",
          "name": "account",
          "type": "address"
        }
      ],
      "name": "balanceOf",
      "outputs": [
        {
          "internalType": "uint256",
          "name": "",
          "type": "uint256"
        }
      ],
      "stateMutability": "view",
      "type": "function"
    },
    {
      "inputs": [],
      "name": "decimals",
      "outputs": [
        {
          "internalType": "uint8",
          "name": "",
          "type": "uint8"
        }
      ],
      "stateMutability": "view",
      "type": "function"
    },
    {
      "inputs": [
        {
          "internalType": "address",
          "name": "spender",
          "type": "address"
        },
        {
          "internalType": "uint256",
          "name": "requestedDecrease",
          "type": "uint256"
        }
      ],
      "name": "decreaseAllowance",
      "outputs": [
        {
          "internalType": "bool",
          "name": "",
          "type": "bool"
        }
      ],
      "stateMutability": "nonpayable",
      "type": "function"
    },
    {
      "inputs": [
        {
          "internalType": "address",
          "name": "target",
          "type": "address"
        },
        {
          "internalType": "bytes",
          "name": "data",
          "type": "bytes"
        }
      ],
      "name": "functionCall",
      "outputs": [
        {
          "internalType": "bytes",
          "name": "",
          "type": "bytes"
        }
      ],
      "stateMutability": "nonpayable",
      "type": "function"
    },
    {
      "inputs": [
        {
          "internalType": "address",
          "name": "spender",
          "type": "address"
        },
        {
          "internalType": "uint256",
          "name": "addedValue",
          "type": "uint256"
        }
      ],
      "name": "increaseAllowance",
      "outputs": [
        {
          "internalType": "bool",
          "name": "",
          "type": "bool"
        }
      ],
      "stateMutability": "nonpayable",
      "type": "function"
    },
    {
      "inputs": [],
      "name": "name",
      "outputs": [
        {
          "internalType": "string",
          "name": "",
          "type": "string"
        }
      ],
      "stateMutability": "view",
      "type": "function"
    },
    {
      "inputs": [
        {
          "internalType": "enum ERC20Reentrant.Type",
          "name": "when",
          "type": "uint8"
        },
        {
          "internalType": "address",
          "name": "target",
          "type": "address"
        },
        {
          "internalType": "bytes",
          "name": "data",
          "type": "bytes"
        }
      ],
      "name": "scheduleReenter",
      "outputs": [],
      "stateMutability": "nonpayable",
      "type": "function"
    },
    {
      "inputs": [],
      "name": "symbol",
      "outputs": [
        {
          "internalType": "string",
          "name": "",
          "type": "string"
        }
      ],
      "stateMutability": "view",
      "type": "function"
    },
    {
      "inputs": [],
      "name": "totalSupply",
      "outputs": [
        {
          "internalType": "uint256",
          "name": "",
          "type": "uint256"
        }
      ],
      "stateMutability": "view",
      "type": "function"
    },
    {
      "inputs": [
        {
          "internalType": "address",
          "name": "to",
          "type": "address"
        },
        {
          "internalType": "uint256",
          "name": "value",
          "type": "uint256"
        }
      ],
      "name": "transfer",
      "outputs": [
        {
          "internalType": "bool",
          "name": "",
          "type": "bool"
        }
      ],
      "stateMutability": "nonpayable",
      "type": "function"
    },
    {
      "inputs": [
        {
          "internalType": "address",
          "name": "from",
          "type": "address"
        },
        {
          "internalType": "address",
          "name": "to",
          "type": "address"
        },
        {
          "internalType": "uint256",
          "name": "value",
          "type": "uint256"
        }
      ],
      "name": "transferFrom",
      "outputs": [
        {
          "internalType": "bool",
          "name": "",
          "type": "bool"
        }
      ],
      "stateMutability": "nonpayable",
      "type": "function"
    }
  ],
  "bytecode": "0x608060405234801562000010575f80fd5b5060405180604001604052806004815260200163151154d560e21b815250604051806040016040528060038152602001621514d560ea1b81525081600390816200005b919062000113565b5060046200006a828262000113565b505050620001db565b634e487b7160e01b5f52604160045260245ffd5b600181811c908216806200009c57607f821691505b602082108103620000bb57634e487b7160e01b5f52602260045260245ffd5b50919050565b601f8211156200010e575f81815260208120601f850160051c81016020861015620000e95750805b601f850160051c820191505b818110156200010a57828155600101620000f5565b5050505b505050565b81516001600160401b038111156200012f576200012f62000073565b620001478162000140845462000087565b84620000c1565b602080601f8311600181146200017d575f8415620001655750858301515b5f19600386901b1c1916600185901b1785556200010a565b5f85815260208120601f198616915b82811015620001ad578886015182559484019460019091019084016200018c565b5085821015620001cb57878501515f19600388901b60f8161c191681555b5050505050600190811b01905550565b610d4780620001e95f395ff3fe608060405234801561000f575f80fd5b50600436106100cb575f3560e01c806370a0823111610088578063a457c2d711610063578063a457c2d71461019a578063a9059cbb146101ad578063cd594b63146101c0578063dd62ed3e146101d5575f80fd5b806370a082311461015757806395d89b411461017f578063a0b5ffb014610187575f80fd5b806306fdde03146100cf578063095ea7b3146100ed57806318160ddd1461011057806323b872dd14610122578063313ce567146101355780633950935114610144575b5f80fd5b6100d76101e8565b6040516100e4919061094f565b60405180910390f35b6101006100fb36600461097c565b610278565b60405190151581526020016100e4565b6002545b6040519081526020016100e4565b6101006101303660046109a4565b610291565b604051601281526020016100e4565b61010061015236600461097c565b6102b4565b6101146101653660046109dd565b6001600160a01b03165f9081526020819052604090205490565b6100d76102d5565b6100d7610195366004610a0a565b6102e4565b6101006101a836600461097c565b6102f7565b6101006101bb36600461097c565b610352565b6101d36101ce366004610ac6565b61035f565b005b6101146101e3366004610b52565b6103b7565b6060600380546101f790610b83565b80601f016020809104026020016040519081016040528092919081815260200182805461022390610b83565b801561026e5780601f106102455761010080835404028352916020019161026e565b820191905f5260205f20905b81548152906001019060200180831161025157829003601f168201915b5050505050905090565b5f336102858185856103e1565b60019150505b92915050565b5f3361029e8582856103f3565b6102a9858585610456565b506001949350505050565b5f336102858185856102c683836103b7565b6102d09190610bbb565b6103e1565b6060600480546101f790610b83565b60606102f083836104b3565b9392505050565b5f338161030482866103b7565b90508381101561034557604051632983c0c360e21b81526001600160a01b038616600482015260248101829052604481018590526064015b60405180910390fd5b6102a982868684036103e1565b5f33610285818585610456565b6005805485919060ff1916600183600281111561037e5761037e610bda565b021790555060058054610100600160a81b0319166101006001600160a01b0386160217905560066103b0828483610c3b565b5050505050565b6001600160a01b039182165f90815260016020908152604080832093909416825291909152205490565b6103ee83838360016104c3565b505050565b5f6103fe84846103b7565b90505f198114610450578181101561044257604051637dc7a0d960e11b81526001600160a01b0384166004820152602481018290526044810183905260640161033c565b61045084848484035f6104c3565b50505050565b6001600160a01b03831661047f57604051634b637e8f60e11b81525f600482015260240161033c565b6001600160a01b0382166104a85760405163ec442f0560e01b81525f600482015260240161033c565b6103ee838383610595565b60606102f083835f6106b96106d2565b6001600160a01b0384166104ec5760405163e602df0560e01b81525f600482015260240161033c565b6001600160a01b03831661051557604051634a1406b160e11b81525f600482015260240161033c565b6001600160a01b038085165f908152600160209081526040808320938716835292905220829055801561045057826001600160a01b0316846001600160a01b03167f8c5be1e5ebec7d5bd14f71427d1e84f3dd0314c0f7b2291e5b200ac8c7c3b9258460405161058791815260200190565b60405180910390a350505050565b600160055460ff1660028111156105ae576105ae610bda565b03610663576005805460ff191690819055600680546106619261010090046001600160a01b031691906105e090610b83565b80601f016020809104026020016040519081016040528092919081815260200182805461060c90610b83565b80156106575780601f1061062e57610100808354040283529160200191610657565b820191905f5260205f20905b81548152906001019060200180831161063a57829003601f168201915b50505050506102e4565b505b61066e83838361076f565b600260055460ff16600281111561068757610687610bda565b036103ee576005805460ff191690819055600680546104509261010090046001600160a01b031691906105e090610b83565b604051630a12f52160e11b815260040160405180910390fd5b6060824710156106f75760405163cd78605960e01b815230600482015260240161033c565b5f80866001600160a01b031685876040516107129190610cf6565b5f6040518083038185875af1925050503d805f811461074c576040519150601f19603f3d011682016040523d82523d5f602084013e610751565b606091505b509150915061076287838387610895565b925050505b949350505050565b6001600160a01b038316610799578060025f82825461078e9190610bbb565b909155506108099050565b6001600160a01b0383165f90815260208190526040902054818110156107eb5760405163391434e360e21b81526001600160a01b0385166004820152602481018290526044810183905260640161033c565b6001600160a01b0384165f9081526020819052604090209082900390555b6001600160a01b03821661082557600280548290039055610843565b6001600160a01b0382165f9081526020819052604090208054820190555b816001600160a01b0316836001600160a01b03167fddf252ad1be2c89b69c2b068fc378daa952ba7f163c4a11628f55a4df523b3ef8360405161088891815260200190565b60405180910390a3505050565b606083156108e15782515f036108da57846001600160a01b03163b5f036108da57604051639996b31560e01b81526001600160a01b038616600482015260240161033c565b5081610767565b61076783838151156108f65781518083602001fd5b6106b98163ffffffff16565b5f5b8381101561091c578181015183820152602001610904565b50505f910152565b5f815180845261093b816020860160208601610902565b601f01601f19169290920160200192915050565b602081525f6102f06020830184610924565b80356001600160a01b0381168114610977575f80fd5b919050565b5f806040838503121561098d575f80fd5b61099683610961565b946020939093013593505050565b5f805f606084860312156109b6575f80fd5b6109bf84610961565b92506109cd60208501610961565b9150604084013590509250925092565b5f602082840312156109ed575f80fd5b6102f082610961565b634e487b7160e01b5f52604160045260245ffd5b5f8060408385031215610a1b575f80fd5b610a2483610961565b9150602083013567ffffffffffffffff80821115610a40575f80fd5b818501915085601f830112610a53575f80fd5b813581811115610a6557610a656109f6565b604051601f8201601f19908116603f01168101908382118183101715610a8d57610a8d6109f6565b81604052828152886020848701011115610aa5575f80fd5b826020860160208301375f6020848301015280955050505050509250929050565b5f805f8060608587031215610ad9575f80fd5b843560038110610ae7575f80fd5b9350610af560208601610961565b9250604085013567ffffffffffffffff80821115610b11575f80fd5b818701915087601f830112610b24575f80fd5b813581811115610b32575f80fd5b886020828501011115610b43575f80fd5b95989497505060200194505050565b5f8060408385031215610b63575f80fd5b610b6c83610961565b9150610b7a60208401610961565b90509250929050565b600181811c90821680610b9757607f821691505b602082108103610bb557634e487b7160e01b5f52602260045260245ffd5b50919050565b8082018082111561028b57634e487b7160e01b5f52601160045260245ffd5b634e487b7160e01b5f52602160045260245ffd5b601f8211156103ee575f81815260208120601f850160051c81016020861015610c145750805b601f850160051c820191505b81811015610c3357828155600101610c20565b505050505050565b67ffffffffffffffff831115610c5357610c536109f6565b610c6783610c618354610b83565b83610bee565b5f601f841160018114610c98575f8515610c815750838201355b5f19600387901b1c1916600186901b1783556103b0565b5f83815260209020601f19861690835b82811015610cc85786850135825560209485019460019092019101610ca8565b5086821015610ce4575f1960f88860031b161c19848701351681555b505060018560011b0183555050505050565b5f8251610d07818460208701610902565b919091019291505056fea2646970667358221220f9eed450d21b98e21d337e14bfb1cac5cdfe45d637e6ffaaf6f36ab3c693617464736f6c63430008140033",
  "linkReferences": {},
  "deployedLinkReferences": {}
}