{
  "_format": "hh-sol-artifact-1",
  "contractName": "$ERC721URIStorage",
  "sourceName": "contracts-exposed/token/ERC721/extensions/ERC721URIStorage.sol",
  "abi": [
    {
      "inputs": [
        {
          "internalType": "string",
          "name": "name_",
          "type": "string"
        },
        {
          "internalType": "string",
          "name": "symbol_",
          "type": "string"
        }
      ],
      "stateMutability": "payable",
      "type": "constructor"
    },
    {
      "inputs": [
        {
          "internalType": "address",
          "name": "sender",
          "type": "address"
        },
        {
          "internalType": "uint256",
          "name": "tokenId",
          "type": "uint256"
        },
        {
          "internalType": "address",
          "name": "owner",
          "type": "address"
        }
      ],
      "name": "ERC721IncorrectOwner",
      "type": "error"
    },
    {
      "inputs": [
        {
          "internalType": "address",
          "name": "operator",
          "type": "address"
        },
        {
          "internalType": "uint256",
          "name": "tokenId",
          "type": "uint256"
        }
      ],
      "name": "ERC721InsufficientApproval",
      "type": "error"
    },
    {
      "inputs": [
        {
          "internalType": "address",
          "name": "approver",
          "type": "address"
        }
      ],
      "name": "ERC721InvalidApprover",
      "type": "error"
    },
    {
      "inputs": [
        {
          "internalType": "address",
          "name": "operator",
          "type": "address"
        }
      ],
      "name": "ERC721InvalidOperator",
      "type": "error"
    },
    {
      "inputs": [
        {
          "internalType": "address",
          "name": "owner",
          "type": "address"
        }
      ],
      "name": "ERC721InvalidOwner",
      "type": "error"
    },
    {
      "inputs": [
        {
          "internalType": "address",
          "name": "receiver",
          "type": "address"
        }
      ],
      "name": "ERC721InvalidReceiver",
      "type": "error"
    },
    {
      "inputs": [
        {
          "internalType": "address",
          "name": "sender",
          "type": "address"
        }
      ],
      "name": "ERC721InvalidSender",
      "type": "error"
    },
    {
      "inputs": [
        {
          "internalType": "uint256",
          "name": "tokenId",
          "type": "uint256"
        }
      ],
      "name": "ERC721NonexistentToken",
      "type": "error"
    },
    {
      "anonymous": false,
      "inputs": [
        {
          "indexed": true,
          "internalType": "address",
          "name": "owner",
          "type": "address"
        },
        {
          "indexed": true,
          "internalType": "address",
          "name": "approved",
          "type": "address"
        },
        {
          "indexed": true,
          "internalType": "uint256",
          "name": "tokenId",
          "type": "uint256"
        }
      ],
      "name": "Approval",
      "type": "event"
    },
    {
      "anonymous": false,
      "inputs": [
        {
          "indexed": true,
          "internalType": "address",
          "name": "owner",
          "type": "address"
        },
        {
          "indexed": true,
          "internalType": "address",
          "name": "operator",
          "type": "address"
        },
        {
          "indexed": false,
          "internalType": "bool",
          "name": "approved",
          "type": "bool"
        }
      ],
      "name": "ApprovalForAll",
      "type": "event"
    },
    {
      "anonymous": false,
      "inputs": [
        {
          "indexed": false,
          "internalType": "uint256",
          "name": "_fromTokenId",
          "type": "uint256"
        },
        {
          "indexed": false,
          "internalType": "uint256",
          "name": "_toTokenId",
          "type": "uint256"
        }
      ],
      "name": "BatchMetadataUpdate",
      "type": "event"
    },
    {
      "anonymous": false,
      "inputs": [
        {
          "indexed": false,
          "internalType": "uint256",
          "name": "_tokenId",
          "type": "uint256"
        }
      ],
      "name": "MetadataUpdate",
      "type": "event"
    },
    {
      "anonymous": false,
      "inputs": [
        {
          "indexed": true,
          "internalType": "address",
          "name": "from",
          "type": "address"
        },
        {
          "indexed": true,
          "internalType": "address",
          "name": "to",
          "type": "address"
        },
        {
          "indexed": true,
          "internalType": "uint256",
          "name": "tokenId",
          "type": "uint256"
        }
      ],
      "name": "Transfer",
      "type": "event"
    },
    {
      "inputs": [
        {
          "internalType": "address",
          "name": "account",
          "type": "address"
        },
        {
          "internalType": "uint256",
          "name": "value",
          "type": "uint256"
        }
      ],
      "name": "$__unsafe_increaseBalance",
      "outputs": [],
      "stateMutability": "nonpayable",
      "type": "function"
    },
    {
      "inputs": [
        {
          "internalType": "address",
          "name": "from",
          "type": "address"
        },
        {
          "internalType": "address",
          "name": "to",
          "type": "address"
        },
        {
          "internalType": "uint256",
          "name": "firstTokenId",
          "type": "uint256"
        },
        {
          "internalType": "uint256",
          "name": "batchSize",
          "type": "uint256"
        }
      ],
      "name": "$_afterTokenTransfer",
      "outputs": [],
      "stateMutability": "nonpayable",
      "type": "function"
    },
    {
      "inputs": [
        {
          "internalType": "address",
          "name": "to",
          "type": "address"
        },
        {
          "internalType": "uint256",
          "name": "tokenId",
          "type": "uint256"
        }
      ],
      "name": "$_approve",
      "outputs": [],
      "stateMutability": "nonpayable",
      "type": "function"
    },
    {
      "inputs": [],
      "name": "$_baseURI",
      "outputs": [
        {
          "internalType": "string",
          "name": "ret0",
          "type": "string"
        }
      ],
      "stateMutability": "view",
      "type": "function"
    },
    {
      "inputs": [
        {
          "internalType": "address",
          "name": "from",
          "type": "address"
        },
        {
          "internalType": "address",
          "name": "to",
          "type": "address"
        },
        {
          "internalType": "uint256",
          "name": "firstTokenId",
          "type": "uint256"
        },
        {
          "internalType": "uint256",
          "name": "batchSize",
          "type": "uint256"
        }
      ],
      "name": "$_beforeTokenTransfer",
      "outputs": [],
      "stateMutability": "nonpayable",
      "type": "function"
    },
    {
      "inputs": [
        {
          "internalType": "uint256",
          "name": "tokenId",
          "type": "uint256"
        }
      ],
      "name": "$_burn",
      "outputs": [],
      "stateMutability": "nonpayable",
      "type": "function"
    },
    {
      "inputs": [
        {
          "internalType": "uint256",
          "name": "tokenId",
          "type": "uint256"
        }
      ],
      "name": "$_exists",
      "outputs": [
        {
          "internalType": "bool",
          "name": "ret0",
          "type": "bool"
        }
      ],
      "stateMutability": "view",
      "type": "function"
    },
    {
      "inputs": [
        {
          "internalType": "address",
          "name": "spender",
          "type": "address"
        },
        {
          "internalType": "uint256",
          "name": "tokenId",
          "type": "uint256"
        }
      ],
      "name": "$_isApprovedOrOwner",
      "outputs": [
        {
          "internalType": "bool",
          "name": "ret0",
          "type": "bool"
        }
      ],
      "stateMutability": "view",
      "type": "function"
    },
    {
      "inputs": [
        {
          "internalType": "address",
          "name": "to",
          "type": "address"
        },
        {
          "internalType": "uint256",
          "name": "tokenId",
          "type": "uint256"
        }
      ],
      "name": "$_mint",
      "outputs": [],
      "stateMutability": "nonpayable",
      "type": "function"
    },
    {
      "inputs": [],
      "name": "$_msgData",
      "outputs": [
        {
          "internalType": "bytes",
          "name": "ret0",
          "type": "bytes"
        }
      ],
      "stateMutability": "view",
      "type": "function"
    },
    {
      "inputs": [],
      "name": "$_msgSender",
      "outputs": [
        {
          "internalType": "address",
          "name": "ret0",
          "type": "address"
        }
      ],
      "stateMutability": "view",
      "type": "function"
    },
    {
      "inputs": [
        {
          "internalType": "uint256",
          "name": "tokenId",
          "type": "uint256"
        }
      ],
      "name": "$_ownerOf",
      "outputs": [
        {
          "internalType": "address",
          "name": "ret0",
          "type": "address"
        }
      ],
      "stateMutability": "view",
      "type": "function"
    },
    {
      "inputs": [
        {
          "internalType": "uint256",
          "name": "tokenId",
          "type": "uint256"
        }
      ],
      "name": "$_requireMinted",
      "outputs": [],
      "stateMutability": "view",
      "type": "function"
    },
    {
      "inputs": [
        {
          "internalType": "address",
          "name": "to",
          "type": "address"
        },
        {
          "internalType": "uint256",
          "name": "tokenId",
          "type": "uint256"
        },
        {
          "internalType": "bytes",
          "name": "data",
          "type": "bytes"
        }
      ],
      "name": "$_safeMint",
      "outputs": [],
      "stateMutability": "nonpayable",
      "type": "function"
    },
    {
      "inputs": [
        {
          "internalType": "address",
          "name": "to",
          "type": "address"
        },
        {
          "internalType": "uint256",
          "name": "tokenId",
          "type": "uint256"
        }
      ],
      "name": "$_safeMint",
      "outputs": [],
      "stateMutability": "nonpayable",
      "type": "function"
    },
    {
      "inputs": [
        {
          "internalType": "address",
          "name": "from",
          "type": "address"
        },
        {
          "internalType": "address",
          "name": "to",
          "type": "address"
        },
        {
          "internalType": "uint256",
          "name": "tokenId",
          "type": "uint256"
        },
        {
          "internalType": "bytes",
          "name": "data",
          "type": "bytes"
        }
      ],
      "name": "$_safeTransfer",
      "outputs": [],
      "stateMutability": "nonpayable",
      "type": "function"
    },
    {
      "inputs": [
        {
          "internalType": "address",
          "name": "owner",
          "type": "address"
        },
        {
          "internalType": "address",
          "name": "operator",
          "type": "address"
        },
        {
          "internalType": "bool",
          "name": "approved",
          "type": "bool"
        }
      ],
      "name": "$_setApprovalForAll",
      "outputs": [],
      "stateMutability": "nonpayable",
      "type": "function"
    },
    {
      "inputs": [
        {
          "internalType": "uint256",
          "name": "tokenId",
          "type": "uint256"
        },
        {
          "internalType": "string",
          "name": "_tokenURI",
          "type": "string"
        }
      ],
      "name": "$_setTokenURI",
      "outputs": [],
      "stateMutability": "nonpayable",
      "type": "function"
    },
    {
      "inputs": [
        {
          "internalType": "address",
          "name": "from",
          "type": "address"
        },
        {
          "internalType": "address",
          "name": "to",
          "type": "address"
        },
        {
          "internalType": "uint256",
          "name": "tokenId",
          "type": "uint256"
        }
      ],
      "name": "$_transfer",
      "outputs": [],
      "stateMutability": "nonpayable",
      "type": "function"
    },
    {
      "inputs": [],
      "name": "__hh_exposed_bytecode_marker",
      "outputs": [
        {
          "internalType": "bytes32",
          "name": "",
          "type": "bytes32"
        }
      ],
      "stateMutability": "view",
      "type": "function"
    },
    {
      "inputs": [
        {
          "internalType": "address",
          "name": "to",
          "type": "address"
        },
        {
          "internalType": "uint256",
          "name": "tokenId",
          "type": "uint256"
        }
      ],
      "name": "approve",
      "outputs": [],
      "stateMutability": "nonpayable",
      "type": "function"
    },
    {
      "inputs": [
        {
          "internalType": "address",
          "name": "owner",
          "type": "address"
        }
      ],
      "name": "balanceOf",
      "outputs": [
        {
          "internalType": "uint256",
          "name": "",
          "type": "uint256"
        }
      ],
      "stateMutability": "view",
      "type": "function"
    },
    {
      "inputs": [
        {
          "internalType": "uint256",
          "name": "tokenId",
          "type": "uint256"
        }
      ],
      "name": "getApproved",
      "outputs": [
        {
          "internalType": "address",
          "name": "",
          "type": "address"
        }
      ],
      "stateMutability": "view",
      "type": "function"
    },
    {
      "inputs": [
        {
          "internalType": "address",
          "name": "owner",
          "type": "address"
        },
        {
          "internalType": "address",
          "name": "operator",
          "type": "address"
        }
      ],
      "name": "isApprovedForAll",
      "outputs": [
        {
          "internalType": "bool",
          "name": "",
          "type": "bool"
        }
      ],
      "stateMutability": "view",
      "type": "function"
    },
    {
      "inputs": [],
      "name": "name",
      "outputs": [
        {
          "internalType": "string",
          "name": "",
          "type": "string"
        }
      ],
      "stateMutability": "view",
      "type": "function"
    },
    {
      "inputs": [
        {
          "internalType": "uint256",
          "name": "tokenId",
          "type": "uint256"
        }
      ],
      "name": "ownerOf",
      "outputs": [
        {
          "internalType": "address",
          "name": "",
          "type": "address"
        }
      ],
      "stateMutability": "view",
      "type": "function"
    },
    {
      "inputs": [
        {
          "internalType": "address",
          "name": "from",
          "type": "address"
        },
        {
          "internalType": "address",
          "name": "to",
          "type": "address"
        },
        {
          "internalType": "uint256",
          "name": "tokenId",
          "type": "uint256"
        }
      ],
      "name": "safeTransferFrom",
      "outputs": [],
      "stateMutability": "nonpayable",
      "type": "function"
    },
    {
      "inputs": [
        {
          "internalType": "address",
          "name": "from",
          "type": "address"
        },
        {
          "internalType": "address",
          "name": "to",
          "type": "address"
        },
        {
          "internalType": "uint256",
          "name": "tokenId",
          "type": "uint256"
        },
        {
          "internalType": "bytes",
          "name": "data",
          "type": "bytes"
        }
      ],
      "name": "safeTransferFrom",
      "outputs": [],
      "stateMutability": "nonpayable",
      "type": "function"
    },
    {
      "inputs": [
        {
          "internalType": "address",
          "name": "operator",
          "type": "address"
        },
        {
          "internalType": "bool",
          "name": "approved",
          "type": "bool"
        }
      ],
      "name": "setApprovalForAll",
      "outputs": [],
      "stateMutability": "nonpayable",
      "type": "function"
    },
    {
      "inputs": [
        {
          "internalType": "bytes4",
          "name": "interfaceId",
          "type": "bytes4"
        }
      ],
      "name": "supportsInterface",
      "outputs": [
        {
          "internalType": "bool",
          "name": "",
          "type": "bool"
        }
      ],
      "stateMutability": "view",
      "type": "function"
    },
    {
      "inputs": [],
      "name": "symbol",
      "outputs": [
        {
          "internalType": "string",
          "name": "",
          "type": "string"
        }
      ],
      "stateMutability": "view",
      "type": "function"
    },
    {
      "inputs": [
        {
          "internalType": "uint256",
          "name": "tokenId",
          "type": "uint256"
        }
      ],
      "name": "tokenURI",
      "outputs": [
        {
          "internalType": "string",
          "name": "",
          "type": "string"
        }
      ],
      "stateMutability": "view",
      "type": "function"
    },
    {
      "inputs": [
        {
          "internalType": "address",
          "name": "from",
          "type": "address"
        },
        {
          "internalType": "address",
          "name": "to",
          "type": "address"
        },
        {
          "internalType": "uint256",
          "name": "tokenId",
          "type": "uint256"
        }
      ],
      "name": "transferFrom",
      "outputs": [],
      "stateMutability": "nonpayable",
      "type": "function"
    },
    {
      "stateMutability": "payable",
      "type": "receive"
    }
  ],
  "bytecode": "0x608060405260405162001ecc38038062001ecc83398101604081905262000026916200010d565b81815f620000358382620001ff565b506001620000448282620001ff565b5050505050620002c7565b634e487b7160e01b5f52604160045260245ffd5b5f82601f83011262000073575f80fd5b81516001600160401b03808211156200009057620000906200004f565b604051601f8301601f19908116603f01168101908282118183101715620000bb57620000bb6200004f565b81604052838152602092508683858801011115620000d7575f80fd5b5f91505b83821015620000fa5785820183015181830184015290820190620000db565b5f93810190920192909252949350505050565b5f80604083850312156200011f575f80fd5b82516001600160401b038082111562000136575f80fd5b620001448683870162000063565b935060208501519150808211156200015a575f80fd5b50620001698582860162000063565b9150509250929050565b600181811c908216806200018857607f821691505b602082108103620001a757634e487b7160e01b5f52602260045260245ffd5b50919050565b601f821115620001fa575f81815260208120601f850160051c81016020861015620001d55750805b601f850160051c820191505b81811015620001f657828155600101620001e1565b5050505b505050565b81516001600160401b038111156200021b576200021b6200004f565b62000233816200022c845462000173565b84620001ad565b602080601f83116001811462000269575f8415620002515750858301515b5f19600386901b1c1916600185901b178555620001f6565b5f85815260208120601f198616915b82811015620002995788860151825594840194600190910190840162000278565b5085821015620002b757878501515f19600388901b60f8161c191681555b5050505050600190811b01905550565b611bf780620002d55f395ff3fe6080604052600436106101e9575f3560e01c806395d89b4111610108578063c87b56dd1161009d578063d261af541161006d578063d261af5414610570578063e07084c2146102c0578063e985e9c51461058f578063efb43b07146105ae578063f604b102146105cd575f80fd5b8063c87b56dd146104f4578063cc461d6214610513578063cd43f47d14610532578063cfeea0d414610551575f80fd5b8063a2373a82116100d8578063a2373a8214610478578063b88d4fde14610497578063c37add51146104b6578063c4a96fa6146104d5575f80fd5b806395d89b411461040757806398a1f7a01461041b5780639ff2f02d1461043a578063a22cb46514610459575f80fd5b80632904df291161017e578063458ee0021161014e578063458ee0021461038b5780636352211e146103aa57806370a08231146103c9578063733555ec146103e8575f80fd5b80632904df291461031357806332cadf3c14610325578063342db7391461033957806342842e0e1461036c575f80fd5b806309854d72116101b957806309854d72146102a1578063147619da146102c0578063161e977d146102e057806323b872dd146102f4575f80fd5b806301ffc9a7146101f457806306fdde0314610228578063081812fc14610249578063095ea7b314610280575f80fd5b366101f057005b5f80fd5b3480156101ff575f80fd5b5061021361020e36600461157e565b6105ec565b60405190151581526020015b60405180910390f35b348015610233575f80fd5b5061023c610616565b60405161021f91906115e6565b348015610254575f80fd5b506102686102633660046115f8565b6106a5565b6040516001600160a01b03909116815260200161021f565b34801561028b575f80fd5b5061029f61029a36600461162a565b6106ca565b005b3480156102ac575f80fd5b5061029f6102bb3660046115f8565b610767565b3480156102cb575f80fd5b5061029f6102da366004611652565b50505050565b3480156102eb575f80fd5b5061023c610773565b3480156102ff575f80fd5b5061029f61030e366004611691565b61078e565b34801561031e575f80fd5b5033610268565b348015610330575f80fd5b5061023c6107c9565b348015610344575f80fd5b5061035e6e1a185c991a185d0b595e1c1bdcd959608a1b81565b60405190815260200161021f565b348015610377575f80fd5b5061029f610386366004611691565b610806565b348015610396575f80fd5b506102686103a53660046115f8565b610820565b3480156103b5575f80fd5b506102686103c43660046115f8565b61083c565b3480156103d4575f80fd5b5061035e6103e33660046116ca565b610874565b3480156103f3575f80fd5b5061029f610402366004611728565b6108b9565b348015610412575f80fd5b5061023c610901565b348015610426575f80fd5b5061029f61043536600461162a565b610910565b348015610445575f80fd5b5061029f610454366004611792565b61091e565b348015610464575f80fd5b5061029f6104733660046117f7565b61095e565b348015610483575f80fd5b5061029f6104923660046115f8565b610969565b3480156104a2575f80fd5b5061029f6104b136600461183c565b610972565b3480156104c1575f80fd5b506102136104d03660046115f8565b6109ae565b3480156104e0575f80fd5b506102136104ef36600461162a565b6109cc565b3480156104ff575f80fd5b5061023c61050e3660046115f8565b6109de565b34801561051e575f80fd5b5061029f61052d36600461162a565b610ae8565b34801561053d575f80fd5b5061029f61054c36600461162a565b610af2565b34801561055c575f80fd5b5061029f61056b366004611911565b610afc565b34801561057b575f80fd5b5061029f61058a36600461162a565b610b07565b34801561059a575f80fd5b506102136105a9366004611951565b610b11565b3480156105b9575f80fd5b5061029f6105c8366004611691565b6107be565b3480156105d8575f80fd5b5061029f6105e7366004611979565b610b3e565b5f6001600160e01b03198216632483248360e11b1480610610575061061082610b7d565b92915050565b60605f8054610624906119c1565b80601f0160208091040260200160405190810160405280929190818152602001828054610650906119c1565b801561069b5780601f106106725761010080835404028352916020019161069b565b820191905f5260205f20905b81548152906001019060200180831161067e57829003601f168201915b5050505050905090565b5f6106af82610bcc565b505f908152600460205260409020546001600160a01b031690565b5f6106d48261083c565b9050806001600160a01b0316836001600160a01b03160361071857604051630b61174360e31b81526001600160a01b03821660048201526024015b60405180910390fd5b336001600160a01b0382161480159061073857506107368133610b11565b155b156107585760405163a9fbf51f60e01b815233600482015260240161070f565b6107628383610c03565b505050565b61077081610bcc565b50565b606061078960408051602081019091525f815290565b905090565b6107983382610c70565b6107be5760405163177e802f60e01b81523360048201526024810182905260440161070f565b610762838383610ccd565b60605f368080601f0160208091040260200160405190810160405280939291908181526020018383808284375f9201919091525092949350505050565b61076283838360405180602001604052805f815250610972565b5f818152600260205260408120546001600160a01b0316610610565b5f818152600260205260408120546001600160a01b03168061061057604051637e27328960e01b81526004810184905260240161070f565b5f6001600160a01b03821661089e576040516322718ad960e21b81525f600482015260240161070f565b506001600160a01b03165f9081526003602052604090205490565b6108fa85858585858080601f0160208091040260200160405190810160405280939291908181526020018383808284375f92019190915250610e5792505050565b5050505050565b606060018054610624906119c1565b61091a8282610e96565b5050565b6102da848484848080601f0160208091040260200160405190810160405280939291908181526020018383808284375f92019190915250610ec692505050565b61091a338383610f04565b61077081610fad565b61097c3383610c70565b6109a25760405163177e802f60e01b81523360048201526024810183905260440161070f565b6102da84848484610e57565b5f818152600260205260408120546001600160a01b03161515610610565b5f6109d78383610c70565b9392505050565b60606109e982610bcc565b5f8281526006602052604081208054610a01906119c1565b80601f0160208091040260200160405190810160405280929190818152602001828054610a2d906119c1565b8015610a785780601f10610a4f57610100808354040283529160200191610a78565b820191905f5260205f20905b815481529060010190602001808311610a5b57829003601f168201915b505050505090505f610a9460408051602081019091525f815290565b905080515f03610aa5575092915050565b815115610ad7578082604051602001610abf9291906119f9565b60405160208183030381529060405292505050919050565b610ae084610feb565b949350505050565b61091a828261105a565b61091a8282610c03565b610762838383610f04565b61091a828261115b565b6001600160a01b039182165f90815260056020908152604080832093909416825291909152205460ff1690565b6107628383838080601f0160208091040260200160405190810160405280939291908181526020018383808284375f9201919091525061117492505050565b5f6001600160e01b031982166380ac58cd60e01b1480610bad57506001600160e01b03198216635b5e139f60e01b145b8061061057506301ffc9a760e01b6001600160e01b0319831614610610565b5f818152600260205260409020546001600160a01b031661077057604051637e27328960e01b81526004810182905260240161070f565b5f81815260046020526040902080546001600160a01b0319166001600160a01b0384169081179091558190610c378261083c565b6001600160a01b03167f8c5be1e5ebec7d5bd14f71427d1e84f3dd0314c0f7b2291e5b200ac8c7c3b92560405160405180910390a45050565b5f80610c7b8361083c565b9050806001600160a01b0316846001600160a01b03161480610ca25750610ca28185610b11565b80610ae05750836001600160a01b0316610cbb846106a5565b6001600160a01b031614949350505050565b5f610cd78261083c565b9050836001600160a01b0316816001600160a01b031614610d25576040516364283d7b60e01b81526001600160a01b038086166004830152602482018490528216604482015260640161070f565b6001600160a01b038316610d4e57604051633250574960e11b81525f600482015260240161070f565b610d578261083c565b9050836001600160a01b0316816001600160a01b031614610da5576040516364283d7b60e01b81526001600160a01b038086166004830152602482018490528216604482015260640161070f565b5f82815260046020908152604080832080546001600160a01b03191690556001600160a01b038716835260039091528120805460019290610de7908490611a3b565b90915550506001600160a01b038084165f81815260036020908152604080832080546001019055868352600290915280822080546001600160a01b031916841790555185938816917fddf252ad1be2c89b69c2b068fc378daa952ba7f163c4a11628f55a4df523b3ef91a46102da565b610e62848484610ccd565b610e6e848484846111fa565b6102da57604051633250574960e11b81526001600160a01b038416600482015260240161070f565b6001600160a01b0382165f9081526003602052604081208054839290610ebd908490611a4e565b90915550505050565b610ed0838361105a565b610edc5f8484846111fa565b61076257604051633250574960e11b81526001600160a01b038416600482015260240161070f565b816001600160a01b0316836001600160a01b031603610f4157604051630b61174360e31b81526001600160a01b038416600482015260240161070f565b6001600160a01b038381165f81815260056020908152604080832094871680845294825291829020805460ff191686151590811790915591519182527f17307eab39ab6107e8899845ad3d59bd9653f200f220920489ca2b5937696c31910160405180910390a3505050565b610fb681611303565b5f8181526006602052604090208054610fce906119c1565b159050610770575f8181526006602052604081206107709161151f565b6060610ff682610bcc565b5f61100b60408051602081019091525f815290565b90505f8151116110295760405180602001604052805f8152506109d7565b80611033846113b8565b6040516020016110449291906119f9565b6040516020818303038152906040529392505050565b6001600160a01b03821661108357604051633250574960e11b81525f600482015260240161070f565b5f818152600260205260409020546001600160a01b0316156110ba576040516339e3563760e11b81525f600482015260240161070f565b5f818152600260205260409020546001600160a01b0316156110f1576040516339e3563760e11b81525f600482015260240161070f565b6001600160a01b0382165f81815260036020908152604080832080546001019055848352600290915280822080546001600160a01b0319168417905551839291907fddf252ad1be2c89b69c2b068fc378daa952ba7f163c4a11628f55a4df523b3ef908290a45050565b61091a828260405180602001604052805f815250610ec6565b5f828152600260205260409020546001600160a01b03166111ab57604051637e27328960e01b81526004810183905260240161070f565b5f8281526006602052604090206111c28282611aae565b506040518281527ff8e1a15aba9398e019f0b49df1a4fde98ee17ae345cb5f6b5e2c27f5033e8ce79060200160405180910390a15050565b5f6001600160a01b0384163b156112f857604051630a85bd0160e11b81526001600160a01b0385169063150b7a029061123d903390899088908890600401611b6a565b6020604051808303815f875af1925050508015611277575060408051601f3d908101601f1916820190925261127491810190611ba6565b60015b6112de573d8080156112a4576040519150601f19603f3d011682016040523d82523d5f602084013e6112a9565b606091505b5080515f036112d657604051633250574960e11b81526001600160a01b038616600482015260240161070f565b805181602001fd5b6001600160e01b031916630a85bd0160e11b149050610ae0565b506001949350505050565b5f61130d8261083c565b90506113188261083c565b5f83815260046020908152604080832080546001600160a01b03191690556001600160a01b038416835260039091528120805492935060019290919061135f908490611a3b565b90915550505f8281526002602052604080822080546001600160a01b0319169055518391906001600160a01b038416907fddf252ad1be2c89b69c2b068fc378daa952ba7f163c4a11628f55a4df523b3ef908390a45050565b60605f6113c483611448565b60010190505f8167ffffffffffffffff8111156113e3576113e3611828565b6040519080825280601f01601f19166020018201604052801561140d576020820181803683370190505b5090508181016020015b5f19016f181899199a1a9b1b9c1cb0b131b232b360811b600a86061a8153600a850494508461141757509392505050565b5f8072184f03e93ff9f4daa797ed6e38ed64bf6a1f0160401b83106114865772184f03e93ff9f4daa797ed6e38ed64bf6a1f0160401b830492506040015b6d04ee2d6d415b85acef810000000083106114b2576d04ee2d6d415b85acef8100000000830492506020015b662386f26fc1000083106114d057662386f26fc10000830492506010015b6305f5e10083106114e8576305f5e100830492506008015b61271083106114fc57612710830492506004015b6064831061150e576064830492506002015b600a83106106105760010192915050565b50805461152b906119c1565b5f825580601f1061153a575050565b601f0160209004905f5260205f209081019061077091905b80821115611565575f8155600101611552565b5090565b6001600160e01b031981168114610770575f80fd5b5f6020828403121561158e575f80fd5b81356109d781611569565b5f5b838110156115b357818101518382015260200161159b565b50505f910152565b5f81518084526115d2816020860160208601611599565b601f01601f19169290920160200192915050565b602081525f6109d760208301846115bb565b5f60208284031215611608575f80fd5b5035919050565b80356001600160a01b0381168114611625575f80fd5b919050565b5f806040838503121561163b575f80fd5b6116448361160f565b946020939093013593505050565b5f805f8060808587031215611665575f80fd5b61166e8561160f565b935061167c6020860161160f565b93969395505050506040820135916060013590565b5f805f606084860312156116a3575f80fd5b6116ac8461160f565b92506116ba6020850161160f565b9150604084013590509250925092565b5f602082840312156116da575f80fd5b6109d78261160f565b5f8083601f8401126116f3575f80fd5b50813567ffffffffffffffff81111561170a575f80fd5b602083019150836020828501011115611721575f80fd5b9250929050565b5f805f805f6080868803121561173c575f80fd5b6117458661160f565b94506117536020870161160f565b935060408601359250606086013567ffffffffffffffff811115611775575f80fd5b611781888289016116e3565b969995985093965092949392505050565b5f805f80606085870312156117a5575f80fd5b6117ae8561160f565b935060208501359250604085013567ffffffffffffffff8111156117d0575f80fd5b6117dc878288016116e3565b95989497509550505050565b80358015158114611625575f80fd5b5f8060408385031215611808575f80fd5b6118118361160f565b915061181f602084016117e8565b90509250929050565b634e487b7160e01b5f52604160045260245ffd5b5f805f806080858703121561184f575f80fd5b6118588561160f565b93506118666020860161160f565b925060408501359150606085013567ffffffffffffffff80821115611889575f80fd5b818701915087601f83011261189c575f80fd5b8135818111156118ae576118ae611828565b604051601f8201601f19908116603f011681019083821181831017156118d6576118d6611828565b816040528281528a60208487010111156118ee575f80fd5b826020860160208301375f60208483010152809550505050505092959194509250565b5f805f60608486031215611923575f80fd5b61192c8461160f565b925061193a6020850161160f565b9150611948604085016117e8565b90509250925092565b5f8060408385031215611962575f80fd5b61196b8361160f565b915061181f6020840161160f565b5f805f6040848603121561198b575f80fd5b83359250602084013567ffffffffffffffff8111156119a8575f80fd5b6119b4868287016116e3565b9497909650939450505050565b600181811c908216806119d557607f821691505b6020821081036119f357634e487b7160e01b5f52602260045260245ffd5b50919050565b5f8351611a0a818460208801611599565b835190830190611a1e818360208801611599565b01949350505050565b634e487b7160e01b5f52601160045260245ffd5b8181038181111561061057610610611a27565b8082018082111561061057610610611a27565b601f821115610762575f81815260208120601f850160051c81016020861015611a875750805b601f850160051c820191505b81811015611aa657828155600101611a93565b505050505050565b815167ffffffffffffffff811115611ac857611ac8611828565b611adc81611ad684546119c1565b84611a61565b602080601f831160018114611b0f575f8415611af85750858301515b5f19600386901b1c1916600185901b178555611aa6565b5f85815260208120601f198616915b82811015611b3d57888601518255948401946001909101908401611b1e565b5085821015611b5a57878501515f19600388901b60f8161c191681555b5050505050600190811b01905550565b6001600160a01b03858116825284166020820152604081018390526080606082018190525f90611b9c908301846115bb565b9695505050505050565b5f60208284031215611bb6575f80fd5b81516109d78161156956fea2646970667358221220a3cf2f21dfdc75b75d73a67dfd96b4f9a46329a7189d4f6faa5ecb4dbc8b8a5264736f6c63430008140033",
  "linkReferences": {},
  "deployedLinkReferences": {}
}