{
  "_format": "hh-sol-artifact-1",
  "contractName": "$PausableMock",
  "sourceName": "contracts-exposed/mocks/PausableMock.sol",
  "abi": [
    {
      "inputs": [],
      "stateMutability": "payable",
      "type": "constructor"
    },
    {
      "inputs": [],
      "name": "EnforcedPause",
      "type": "error"
    },
    {
      "inputs": [],
      "name": "ExpectedPause",
      "type": "error"
    },
    {
      "anonymous": false,
      "inputs": [
        {
          "indexed": false,
          "internalType": "address",
          "name": "account",
          "type": "address"
        }
      ],
      "name": "Paused",
      "type": "event"
    },
    {
      "anonymous": false,
      "inputs": [
        {
          "indexed": false,
          "internalType": "address",
          "name": "account",
          "type": "address"
        }
      ],
      "name": "Unpaused",
      "type": "event"
    },
    {
      "inputs": [],
      "name": "$_msgData",
      "outputs": [
        {
          "internalType": "bytes",
          "name": "ret0",
          "type": "bytes"
        }
      ],
      "stateMutability": "view",
      "type": "function"
    },
    {
      "inputs": [],
      "name": "$_msgSender",
      "outputs": [
        {
          "internalType": "address",
          "name": "ret0",
          "type": "address"
        }
      ],
      "stateMutability": "view",
      "type": "function"
    },
    {
      "inputs": [],
      "name": "$_pause",
      "outputs": [],
      "stateMutability": "nonpayable",
      "type": "function"
    },
    {
      "inputs": [],
      "name": "$_requireNotPaused",
      "outputs": [],
      "stateMutability": "view",
      "type": "function"
    },
    {
      "inputs": [],
      "name": "$_requirePaused",
      "outputs": [],
      "stateMutability": "view",
      "type": "function"
    },
    {
      "inputs": [],
      "name": "$_unpause",
      "outputs": [],
      "stateMutability": "nonpayable",
      "type": "function"
    },
    {
      "inputs": [],
      "name": "__hh_exposed_bytecode_marker",
      "outputs": [
        {
          "internalType": "bytes32",
          "name": "",
          "type": "bytes32"
        }
      ],
      "stateMutability": "view",
      "type": "function"
    },
    {
      "inputs": [],
      "name": "count",
      "outputs": [
        {
          "internalType": "uint256",
          "name": "",
          "type": "uint256"
        }
      ],
      "stateMutability": "view",
      "type": "function"
    },
    {
      "inputs": [],
      "name": "drasticMeasure",
      "outputs": [],
      "stateMutability": "nonpayable",
      "type": "function"
    },
    {
      "inputs": [],
      "name": "drasticMeasureTaken",
      "outputs": [
        {
          "internalType": "bool",
          "name": "",
          "type": "bool"
        }
      ],
      "stateMutability": "view",
      "type": "function"
    },
    {
      "inputs": [],
      "name": "normalProcess",
      "outputs": [],
      "stateMutability": "nonpayable",
      "type": "function"
    },
    {
      "inputs": [],
      "name": "pause",
      "outputs": [],
      "stateMutability": "nonpayable",
      "type": "function"
    },
    {
      "inputs": [],
      "name": "paused",
      "outputs": [
        {
          "internalType": "bool",
          "name": "",
          "type": "bool"
        }
      ],
      "stateMutability": "view",
      "type": "function"
    },
    {
      "inputs": [],
      "name": "unpause",
      "outputs": [],
      "stateMutability": "nonpayable",
      "type": "function"
    },
    {
      "stateMutability": "payable",
      "type": "receive"
    }
  ],
  "bytecode": "0x60806040525f805461ffff191681556001556104348061001e5f395ff3fe6080604052600436106100dc575f3560e01c806376657b8e1161007c5780639958f045116100575780639958f04514610200578063b0a1fefa14610185578063e7651d7a14610214578063f85810a7146101ec575f80fd5b806376657b8e146101bb57806383812241146101d85780638456cb59146101ec575f80fd5b806332cadf3c116100b757806332cadf3c1461013f578063342db739146101605780633f4ba83a146101855780635c975abb14610199575f80fd5b806306661abd146100e75780632904df291461010f5780632c85c6e214610129575f80fd5b366100e357005b5f80fd5b3480156100f2575f80fd5b506100fc60015481565b6040519081526020015b60405180910390f35b34801561011a575f80fd5b50604051338152602001610106565b348015610134575f80fd5b5061013d610228565b005b34801561014a575f80fd5b50610153610232565b604051610106919061038f565b34801561016b575f80fd5b506100fc6e1a185c991a185d0b595e1c1bdcd959608a1b81565b348015610190575f80fd5b5061013d61026f565b3480156101a4575f80fd5b505f5460ff165b6040519015158152602001610106565b3480156101c6575f80fd5b505f546101ab90610100900460ff1681565b3480156101e3575f80fd5b5061013d610277565b3480156101f7575f80fd5b5061013d61027f565b34801561020b575f80fd5b5061013d610287565b34801561021f575f80fd5b5061013d61029f565b6102306102bd565b565b60605f368080601f0160208091040260200160405190810160405280939291908181526020018383808284375f9201919091525092949350505050565b6102306102e0565b610230610331565b610230610353565b61028f610331565b5f805461ff001916610100179055565b6102a76102bd565b60018054905f6102b6836103da565b9190505550565b5f5460ff16156102305760405163d93c066560e01b815260040160405180910390fd5b6102e8610331565b5f805460ff191690557f5db9ee0a495bf2e6ff9c91a7834c1ba4fdd244a5e8aa4e537bd38aeae4b073aa335b6040516001600160a01b03909116815260200160405180910390a1565b5f5460ff1661023057604051638dfc202b60e01b815260040160405180910390fd5b61035b6102bd565b5f805460ff191660011790557f62e78cea01bee320cd4e420270b5ea74000d11b0c9f74754ebdbfc544b05a2586103143390565b5f6020808352835180828501525f5b818110156103ba5785810183015185820160400152820161039e565b505f604082860101526040601f19601f8301168501019250505092915050565b5f600182016103f757634e487b7160e01b5f52601160045260245ffd5b506001019056fea26469706673582212209f4fe94247d41b592c675e72b2b2abee649eed392fdca8634bb144d4832ab81264736f6c63430008140033",
  "linkReferences": {},
  "deployedLinkReferences": {}
}