{
  "_format": "hh-sol-artifact-1",
  "contractName": "$ERC1155URIStorage",
  "sourceName": "contracts-exposed/token/ERC1155/extensions/ERC1155URIStorage.sol",
  "abi": [
    {
      "inputs": [
        {
          "internalType": "string",
          "name": "uri_",
          "type": "string"
        }
      ],
      "stateMutability": "payable",
      "type": "constructor"
    },
    {
      "inputs": [
        {
          "internalType": "address",
          "name": "sender",
          "type": "address"
        },
        {
          "internalType": "uint256",
          "name": "balance",
          "type": "uint256"
        },
        {
          "internalType": "uint256",
          "name": "needed",
          "type": "uint256"
        },
        {
          "internalType": "uint256",
          "name": "tokenId",
          "type": "uint256"
        }
      ],
      "name": "ERC1155InsufficientBalance",
      "type": "error"
    },
    {
      "inputs": [
        {
          "internalType": "address",
          "name": "approver",
          "type": "address"
        }
      ],
      "name": "ERC1155InvalidApprover",
      "type": "error"
    },
    {
      "inputs": [
        {
          "internalType": "uint256",
          "name": "idsLength",
          "type": "uint256"
        },
        {
          "internalType": "uint256",
          "name": "valuesLength",
          "type": "uint256"
        }
      ],
      "name": "ERC1155InvalidArrayLength",
      "type": "error"
    },
    {
      "inputs": [
        {
          "internalType": "address",
          "name": "operator",
          "type": "address"
        }
      ],
      "name": "ERC1155InvalidOperator",
      "type": "error"
    },
    {
      "inputs": [
        {
          "internalType": "address",
          "name": "receiver",
          "type": "address"
        }
      ],
      "name": "ERC1155InvalidReceiver",
      "type": "error"
    },
    {
      "inputs": [
        {
          "internalType": "address",
          "name": "sender",
          "type": "address"
        }
      ],
      "name": "ERC1155InvalidSender",
      "type": "error"
    },
    {
      "inputs": [
        {
          "internalType": "address",
          "name": "operator",
          "type": "address"
        },
        {
          "internalType": "address",
          "name": "owner",
          "type": "address"
        }
      ],
      "name": "ERC1155MissingApprovalForAll",
      "type": "error"
    },
    {
      "anonymous": false,
      "inputs": [
        {
          "indexed": true,
          "internalType": "address",
          "name": "account",
          "type": "address"
        },
        {
          "indexed": true,
          "internalType": "address",
          "name": "operator",
          "type": "address"
        },
        {
          "indexed": false,
          "internalType": "bool",
          "name": "approved",
          "type": "bool"
        }
      ],
      "name": "ApprovalForAll",
      "type": "event"
    },
    {
      "anonymous": false,
      "inputs": [
        {
          "indexed": true,
          "internalType": "address",
          "name": "operator",
          "type": "address"
        },
        {
          "indexed": true,
          "internalType": "address",
          "name": "from",
          "type": "address"
        },
        {
          "indexed": true,
          "internalType": "address",
          "name": "to",
          "type": "address"
        },
        {
          "indexed": false,
          "internalType": "uint256[]",
          "name": "ids",
          "type": "uint256[]"
        },
        {
          "indexed": false,
          "internalType": "uint256[]",
          "name": "values",
          "type": "uint256[]"
        }
      ],
      "name": "TransferBatch",
      "type": "event"
    },
    {
      "anonymous": false,
      "inputs": [
        {
          "indexed": true,
          "internalType": "address",
          "name": "operator",
          "type": "address"
        },
        {
          "indexed": true,
          "internalType": "address",
          "name": "from",
          "type": "address"
        },
        {
          "indexed": true,
          "internalType": "address",
          "name": "to",
          "type": "address"
        },
        {
          "indexed": false,
          "internalType": "uint256",
          "name": "id",
          "type": "uint256"
        },
        {
          "indexed": false,
          "internalType": "uint256",
          "name": "value",
          "type": "uint256"
        }
      ],
      "name": "TransferSingle",
      "type": "event"
    },
    {
      "anonymous": false,
      "inputs": [
        {
          "indexed": false,
          "internalType": "string",
          "name": "value",
          "type": "string"
        },
        {
          "indexed": true,
          "internalType": "uint256",
          "name": "id",
          "type": "uint256"
        }
      ],
      "name": "URI",
      "type": "event"
    },
    {
      "inputs": [
        {
          "internalType": "address",
          "name": "from",
          "type": "address"
        },
        {
          "internalType": "uint256",
          "name": "id",
          "type": "uint256"
        },
        {
          "internalType": "uint256",
          "name": "value",
          "type": "uint256"
        }
      ],
      "name": "$_burn",
      "outputs": [],
      "stateMutability": "nonpayable",
      "type": "function"
    },
    {
      "inputs": [
        {
          "internalType": "address",
          "name": "from",
          "type": "address"
        },
        {
          "internalType": "uint256[]",
          "name": "ids",
          "type": "uint256[]"
        },
        {
          "internalType": "uint256[]",
          "name": "values",
          "type": "uint256[]"
        }
      ],
      "name": "$_burnBatch",
      "outputs": [],
      "stateMutability": "nonpayable",
      "type": "function"
    },
    {
      "inputs": [
        {
          "internalType": "address",
          "name": "to",
          "type": "address"
        },
        {
          "internalType": "uint256",
          "name": "id",
          "type": "uint256"
        },
        {
          "internalType": "uint256",
          "name": "value",
          "type": "uint256"
        },
        {
          "internalType": "bytes",
          "name": "data",
          "type": "bytes"
        }
      ],
      "name": "$_mint",
      "outputs": [],
      "stateMutability": "nonpayable",
      "type": "function"
    },
    {
      "inputs": [
        {
          "internalType": "address",
          "name": "to",
          "type": "address"
        },
        {
          "internalType": "uint256[]",
          "name": "ids",
          "type": "uint256[]"
        },
        {
          "internalType": "uint256[]",
          "name": "values",
          "type": "uint256[]"
        },
        {
          "internalType": "bytes",
          "name": "data",
          "type": "bytes"
        }
      ],
      "name": "$_mintBatch",
      "outputs": [],
      "stateMutability": "nonpayable",
      "type": "function"
    },
    {
      "inputs": [],
      "name": "$_msgData",
      "outputs": [
        {
          "internalType": "bytes",
          "name": "ret0",
          "type": "bytes"
        }
      ],
      "stateMutability": "view",
      "type": "function"
    },
    {
      "inputs": [],
      "name": "$_msgSender",
      "outputs": [
        {
          "internalType": "address",
          "name": "ret0",
          "type": "address"
        }
      ],
      "stateMutability": "view",
      "type": "function"
    },
    {
      "inputs": [
        {
          "internalType": "address",
          "name": "from",
          "type": "address"
        },
        {
          "internalType": "address",
          "name": "to",
          "type": "address"
        },
        {
          "internalType": "uint256[]",
          "name": "ids",
          "type": "uint256[]"
        },
        {
          "internalType": "uint256[]",
          "name": "values",
          "type": "uint256[]"
        },
        {
          "internalType": "bytes",
          "name": "data",
          "type": "bytes"
        }
      ],
      "name": "$_safeBatchTransferFrom",
      "outputs": [],
      "stateMutability": "nonpayable",
      "type": "function"
    },
    {
      "inputs": [
        {
          "internalType": "address",
          "name": "from",
          "type": "address"
        },
        {
          "internalType": "address",
          "name": "to",
          "type": "address"
        },
        {
          "internalType": "uint256",
          "name": "id",
          "type": "uint256"
        },
        {
          "internalType": "uint256",
          "name": "value",
          "type": "uint256"
        },
        {
          "internalType": "bytes",
          "name": "data",
          "type": "bytes"
        }
      ],
      "name": "$_safeTransferFrom",
      "outputs": [],
      "stateMutability": "nonpayable",
      "type": "function"
    },
    {
      "inputs": [
        {
          "internalType": "address",
          "name": "owner",
          "type": "address"
        },
        {
          "internalType": "address",
          "name": "operator",
          "type": "address"
        },
        {
          "internalType": "bool",
          "name": "approved",
          "type": "bool"
        }
      ],
      "name": "$_setApprovalForAll",
      "outputs": [],
      "stateMutability": "nonpayable",
      "type": "function"
    },
    {
      "inputs": [
        {
          "internalType": "string",
          "name": "baseURI",
          "type": "string"
        }
      ],
      "name": "$_setBaseURI",
      "outputs": [],
      "stateMutability": "nonpayable",
      "type": "function"
    },
    {
      "inputs": [
        {
          "internalType": "uint256",
          "name": "tokenId",
          "type": "uint256"
        },
        {
          "internalType": "string",
          "name": "tokenURI",
          "type": "string"
        }
      ],
      "name": "$_setURI",
      "outputs": [],
      "stateMutability": "nonpayable",
      "type": "function"
    },
    {
      "inputs": [
        {
          "internalType": "string",
          "name": "newuri",
          "type": "string"
        }
      ],
      "name": "$_setURI",
      "outputs": [],
      "stateMutability": "nonpayable",
      "type": "function"
    },
    {
      "inputs": [
        {
          "internalType": "address",
          "name": "from",
          "type": "address"
        },
        {
          "internalType": "address",
          "name": "to",
          "type": "address"
        },
        {
          "internalType": "uint256[]",
          "name": "ids",
          "type": "uint256[]"
        },
        {
          "internalType": "uint256[]",
          "name": "values",
          "type": "uint256[]"
        }
      ],
      "name": "$_update",
      "outputs": [],
      "stateMutability": "nonpayable",
      "type": "function"
    },
    {
      "inputs": [
        {
          "internalType": "address",
          "name": "from",
          "type": "address"
        },
        {
          "internalType": "address",
          "name": "to",
          "type": "address"
        },
        {
          "internalType": "uint256[]",
          "name": "ids",
          "type": "uint256[]"
        },
        {
          "internalType": "uint256[]",
          "name": "values",
          "type": "uint256[]"
        },
        {
          "internalType": "bytes",
          "name": "data",
          "type": "bytes"
        }
      ],
      "name": "$_updateWithAcceptanceCheck",
      "outputs": [],
      "stateMutability": "nonpayable",
      "type": "function"
    },
    {
      "inputs": [],
      "name": "__hh_exposed_bytecode_marker",
      "outputs": [
        {
          "internalType": "bytes32",
          "name": "",
          "type": "bytes32"
        }
      ],
      "stateMutability": "view",
      "type": "function"
    },
    {
      "inputs": [
        {
          "internalType": "address",
          "name": "account",
          "type": "address"
        },
        {
          "internalType": "uint256",
          "name": "id",
          "type": "uint256"
        }
      ],
      "name": "balanceOf",
      "outputs": [
        {
          "internalType": "uint256",
          "name": "",
          "type": "uint256"
        }
      ],
      "stateMutability": "view",
      "type": "function"
    },
    {
      "inputs": [
        {
          "internalType": "address[]",
          "name": "accounts",
          "type": "address[]"
        },
        {
          "internalType": "uint256[]",
          "name": "ids",
          "type": "uint256[]"
        }
      ],
      "name": "balanceOfBatch",
      "outputs": [
        {
          "internalType": "uint256[]",
          "name": "",
          "type": "uint256[]"
        }
      ],
      "stateMutability": "view",
      "type": "function"
    },
    {
      "inputs": [
        {
          "internalType": "address",
          "name": "account",
          "type": "address"
        },
        {
          "internalType": "address",
          "name": "operator",
          "type": "address"
        }
      ],
      "name": "isApprovedForAll",
      "outputs": [
        {
          "internalType": "bool",
          "name": "",
          "type": "bool"
        }
      ],
      "stateMutability": "view",
      "type": "function"
    },
    {
      "inputs": [
        {
          "internalType": "address",
          "name": "from",
          "type": "address"
        },
        {
          "internalType": "address",
          "name": "to",
          "type": "address"
        },
        {
          "internalType": "uint256[]",
          "name": "ids",
          "type": "uint256[]"
        },
        {
          "internalType": "uint256[]",
          "name": "values",
          "type": "uint256[]"
        },
        {
          "internalType": "bytes",
          "name": "data",
          "type": "bytes"
        }
      ],
      "name": "safeBatchTransferFrom",
      "outputs": [],
      "stateMutability": "nonpayable",
      "type": "function"
    },
    {
      "inputs": [
        {
          "internalType": "address",
          "name": "from",
          "type": "address"
        },
        {
          "internalType": "address",
          "name": "to",
          "type": "address"
        },
        {
          "internalType": "uint256",
          "name": "id",
          "type": "uint256"
        },
        {
          "internalType": "uint256",
          "name": "value",
          "type": "uint256"
        },
        {
          "internalType": "bytes",
          "name": "data",
          "type": "bytes"
        }
      ],
      "name": "safeTransferFrom",
      "outputs": [],
      "stateMutability": "nonpayable",
      "type": "function"
    },
    {
      "inputs": [
        {
          "internalType": "address",
          "name": "operator",
          "type": "address"
        },
        {
          "internalType": "bool",
          "name": "approved",
          "type": "bool"
        }
      ],
      "name": "setApprovalForAll",
      "outputs": [],
      "stateMutability": "nonpayable",
      "type": "function"
    },
    {
      "inputs": [
        {
          "internalType": "bytes4",
          "name": "interfaceId",
          "type": "bytes4"
        }
      ],
      "name": "supportsInterface",
      "outputs": [
        {
          "internalType": "bool",
          "name": "",
          "type": "bool"
        }
      ],
      "stateMutability": "view",
      "type": "function"
    },
    {
      "inputs": [
        {
          "internalType": "uint256",
          "name": "tokenId",
          "type": "uint256"
        }
      ],
      "name": "uri",
      "outputs": [
        {
          "internalType": "string",
          "name": "",
          "type": "string"
        }
      ],
      "stateMutability": "view",
      "type": "function"
    },
    {
      "stateMutability": "payable",
      "type": "receive"
    }
  ],
  "bytecode": "0x60a06040525f608090815260039062000019908262000102565b50604051620022eb380380620022eb8339810160408190526200003c91620001ca565b80620000488162000050565b505062000298565b60026200005e828262000102565b5050565b634e487b7160e01b5f52604160045260245ffd5b600181811c908216806200008b57607f821691505b602082108103620000aa57634e487b7160e01b5f52602260045260245ffd5b50919050565b601f821115620000fd575f81815260208120601f850160051c81016020861015620000d85750805b601f850160051c820191505b81811015620000f957828155600101620000e4565b5050505b505050565b81516001600160401b038111156200011e576200011e62000062565b62000136816200012f845462000076565b84620000b0565b602080601f8311600181146200016c575f8415620001545750858301515b5f19600386901b1c1916600185901b178555620000f9565b5f85815260208120601f198616915b828110156200019c578886015182559484019460019091019084016200017b565b5085821015620001ba57878501515f19600388901b60f8161c191681555b5050505050600190811b01905550565b5f6020808385031215620001dc575f80fd5b82516001600160401b0380821115620001f3575f80fd5b818501915085601f83011262000207575f80fd5b8151818111156200021c576200021c62000062565b604051601f8201601f19908116603f0116810190838211818310171562000247576200024762000062565b8160405282815288868487010111156200025f575f80fd5b5f93505b8284101562000282578484018601518185018701529285019262000263565b5f86848301015280965050505050505092915050565b61204580620002a65f395ff3fe60806040526004361061013e575f3560e01c80634e1273f4116100b3578063cfeea0d41161006d578063cfeea0d41461038d578063e985e9c5146103ac578063e9f8c252146103cb578063ec3016f7146103ea578063eebe6ab414610409578063f242432a14610428575f80fd5b80634e1273f4146102c65780637dfd6d69146102f2578063a22cb46514610311578063af32f2f214610330578063b556c3281461034f578063bf445cb81461036e575f80fd5b80632904df29116101045780632904df29146102165780632d64f479146102305780632eb2c2d61461024f57806332cadf3c1461026e578063342db7391461028257806338106e25146102a7575f80fd5b8062fdd58e1461014957806301ffc9a71461017b5780630c3c37ae146101aa5780630e89341c146101cb5780631cb3e125146101f7575f80fd5b3661014557005b5f80fd5b348015610154575f80fd5b5061016861016336600461141f565b610447565b6040519081526020015b60405180910390f35b348015610186575f80fd5b5061019a61019536600461145f565b61046e565b6040519015158152602001610172565b3480156101b5575f80fd5b506101c96101c43660046114be565b6104bd565b005b3480156101d6575f80fd5b506101ea6101e5366004611530565b610507565b6040516101729190611594565b348015610202575f80fd5b506101c96102113660046115a6565b6105e3565b348015610221575f80fd5b50604051338152602001610172565b34801561023b575f80fd5b506101c961024a366004611624565b610625565b34801561025a575f80fd5b506101c961026936600461180f565b6106cf565b348015610279575f80fd5b506101ea610733565b34801561028d575f80fd5b506101686e1a185c991a185d0b595e1c1bdcd959608a1b81565b3480156102b2575f80fd5b506101c96102c13660046118b1565b610770565b3480156102d1575f80fd5b506102e56102e036600461192b565b6107e3565b6040516101729190611a1d565b3480156102fd575f80fd5b506101c961030c366004611a2f565b6108b5565b34801561031c575f80fd5b506101c961032b366004611a8f565b6108f6565b34801561033b575f80fd5b506101c961034a366004611ac0565b610901565b34801561035a575f80fd5b506101c9610369366004611b38565b61096e565b348015610379575f80fd5b506101c9610388366004611b68565b61097e565b348015610398575f80fd5b506101c96103a7366004611c0a565b610a26565b3480156103b7575f80fd5b5061019a6103c6366004611c4a565b610a31565b3480156103d6575f80fd5b506101c96103e5366004611c72565b610a5e565b3480156103f5575f80fd5b506101c96104043660046115a6565b610a9d565b348015610414575f80fd5b506101c9610423366004611624565b610adb565b348015610433575f80fd5b506101c9610442366004611cb9565b610b7b565b5f818152602081815260408083206001600160a01b03861684529091529020545b92915050565b5f6001600160e01b03198216636cdb3d1360e11b148061049e57506001600160e01b031982166303a24d0760e21b145b8061046857506301ffc9a760e01b6001600160e01b0319831614610468565b6104ff8686868686868080601f0160208091040260200160405190810160405280939291908181526020018383808284375f92019190915250610bd692505050565b505050505050565b5f8181526004602052604081208054606092919061052490611d18565b80601f016020809104026020016040519081016040528092919081815260200182805461055090611d18565b801561059b5780601f106105725761010080835404028352916020019161059b565b820191905f5260205f20905b81548152906001019060200180831161057e57829003601f168201915b505050505090505f8151116105b8576105b383610c59565b6105dc565b6003816040516020016105cc929190611d50565b6040516020818303038152906040525b9392505050565b61062182828080601f0160208091040260200160405190810160405280939291908181526020018383808284375f92019190915250610ceb92505050565b5050565b6106c588888888808060200260200160405190810160405280939291908181526020018383602002808284375f9201919091525050604080516020808c0282810182019093528b82529093508b92508a9182918501908490808284375f9201919091525050604080516020601f8b0181900481028201810190925289815292508991508890819084018382808284375f92019190915250610cf792505050565b5050505050505050565b336001600160a01b03861681148015906106f057506106ee8682610a31565b155b156107265760405163711bec9160e11b81526001600160a01b038083166004830152871660248201526044015b60405180910390fd5b6104ff8686868686610d4a565b60605f368080601f0160208091040260200160405190810160405280939291908181526020018383808284375f9201919091525092949350505050565b6107dc858585808060200260200160405190810160405280939291908181526020018383602002808284375f92019190915250506040805160208089028281018201909352888252909350889250879182918501908490808284375f92019190915250610da892505050565b5050505050565b606081518351146108145781518351604051635b05999160e01b81526004810192909252602482015260440161071d565b5f83516001600160401b0381111561082e5761082e6116d6565b604051908082528060200260200182016040528015610857578160200160208202803683370190505b5090505f5b84518110156108ad5760208082028601015161088090602080840287010151610447565b82828151811061089257610892611dd3565b60209081029190910101526108a681611dfb565b905061085c565b509392505050565b6107dc85858585858080601f0160208091040260200160405190810160405280939291908181526020018383808284375f92019190915250610deb92505050565b610621338383610e46565b6104ff86868686808060200260200160405190810160405280939291908181526020018383602002808284375f9201919091525050604080516020808a028281018201909352898252909350899250889182918501908490808284375f92019190915250610eda92505050565b6109798383836110f2565b505050565b610a1d878787808060200260200160405190810160405280939291908181526020018383602002808284375f9201919091525050604080516020808b0282810182019093528a82529093508a9250899182918501908490808284375f9201919091525050604080516020601f8a0181900481028201810190925288815292508891508790819084018382808284375f9201919091525061115892505050565b50505050505050565b610979838383610e46565b6001600160a01b039182165f90815260016020908152604080832093909416825291909152205460ff1690565b6109798383838080601f0160208091040260200160405190810160405280939291908181526020018383808284375f9201919091525061119492505050565b61062182828080601f0160208091040260200160405190810160405280939291908181526020018383808284375f920191909152506111f092505050565b6106c588888888808060200260200160405190810160405280939291908181526020018383602002808284375f9201919091525050604080516020808c0282810182019093528b82529093508b92508a9182918501908490808284375f9201919091525050604080516020601f8b0181900481028201810190925289815292508991508890819084018382808284375f92019190915250610d4a92505050565b336001600160a01b0386168114801590610b9c5750610b9a8682610a31565b155b15610bcd5760405163711bec9160e11b81526001600160a01b0380831660048301528716602482015260440161071d565b6104ff86868686865b6001600160a01b038416610bff57604051632bfa23e760e11b81525f600482015260240161071d565b6001600160a01b038516610c2757604051626a0d4560e21b81525f600482015260240161071d565b60408051600180825260208201869052818301908152606082018590526080820190925290610a1d8787848487610cf7565b606060028054610c6890611d18565b80601f0160208091040260200160405190810160405280929190818152602001828054610c9490611d18565b8015610cdf5780601f10610cb657610100808354040283529160200191610cdf565b820191905f5260205f20905b815481529060010190602001808311610cc257829003601f168201915b50505050509050919050565b60036106218282611e58565b610d0385858585610eda565b6001600160a01b038416156107dc5782513390600103610d3c5760208481015190840151610d358389898585896111fc565b50506104ff565b6104ff81878787878761131d565b6001600160a01b038416610d7357604051632bfa23e760e11b81525f600482015260240161071d565b6001600160a01b038516610d9b57604051626a0d4560e21b81525f600482015260240161071d565b6107dc8585858585610cf7565b6001600160a01b038316610dd057604051626a0d4560e21b81525f600482015260240161071d565b610979835f848460405180602001604052805f815250610cf7565b6001600160a01b038416610e1457604051632bfa23e760e11b81525f600482015260240161071d565b604080516001808252602082018690528183019081526060820185905260808201909252906104ff5f87848487610cf7565b6001600160a01b038216610e6e5760405162ced3e160e81b81525f600482015260240161071d565b6001600160a01b038381165f81815260016020908152604080832094871680845294825291829020805460ff191686151590811790915591519182527f17307eab39ab6107e8899845ad3d59bd9653f200f220920489ca2b5937696c31910160405180910390a3505050565b8051825114610f095781518151604051635b05999160e01b81526004810192909252602482015260440161071d565b335f5b8351811015611014576020818102858101820151908501909101516001600160a01b03881615610fbd575f828152602081815260408083206001600160a01b038c16845290915290205481811015610f97576040516303dee4c560e01b81526001600160a01b038a16600482015260248101829052604481018390526064810184905260840161071d565b5f838152602081815260408083206001600160a01b038d16845290915290209082900390555b6001600160a01b03871615611001575f828152602081815260408083206001600160a01b038b16845290915281208054839290610ffb908490611f13565b90915550505b50508061100d90611dfb565b9050610f0c565b5082516001036110945760208301515f906020840151909150856001600160a01b0316876001600160a01b0316846001600160a01b03167fc3d58168c5ae7397731d063d5bbf3d657854427343f4c083240f7aacaa2d0f628585604051611085929190918252602082015260400190565b60405180910390a450506107dc565b836001600160a01b0316856001600160a01b0316826001600160a01b03167f4a39dc06d4c0dbc64b70af90fd698a233a518aa5d07e595d983b8c0526c8f7fb86866040516110e3929190611f26565b60405180910390a45050505050565b6001600160a01b03831661111a57604051626a0d4560e21b81525f600482015260240161071d565b604080516001808252602082018590528183019081526060820184905260a082019092525f608082018181529192916107dc91879185908590610cf7565b6001600160a01b03841661118157604051632bfa23e760e11b81525f600482015260240161071d565b61118e5f85858585610cf7565b50505050565b5f8281526004602052604090206111ab8282611e58565b50817f6bb7ff708619ba0610cba295a58592e0451dee2622938c8755667688daf3529b6111d784610507565b6040516111e49190611594565b60405180910390a25050565b60026106218282611e58565b6001600160a01b0384163b156104ff5760405163f23a6e6160e01b81526001600160a01b0385169063f23a6e61906112409089908990889088908890600401611f53565b6020604051808303815f875af192505050801561127a575060408051601f3d908101601f1916820190925261127791810190611f97565b60015b6112e1573d8080156112a7576040519150601f19603f3d011682016040523d82523d5f602084013e6112ac565b606091505b5080515f036112d957604051632bfa23e760e11b81526001600160a01b038616600482015260240161071d565b805181602001fd5b6001600160e01b0319811663f23a6e6160e01b14610a1d57604051632bfa23e760e11b81526001600160a01b038616600482015260240161071d565b6001600160a01b0384163b156104ff5760405163bc197c8160e01b81526001600160a01b0385169063bc197c81906113619089908990889088908890600401611fb2565b6020604051808303815f875af192505050801561139b575060408051601f3d908101601f1916820190925261139891810190611f97565b60015b6113c8573d8080156112a7576040519150601f19603f3d011682016040523d82523d5f602084013e6112ac565b6001600160e01b0319811663bc197c8160e01b14610a1d57604051632bfa23e760e11b81526001600160a01b038616600482015260240161071d565b80356001600160a01b038116811461141a575f80fd5b919050565b5f8060408385031215611430575f80fd5b61143983611404565b946020939093013593505050565b6001600160e01b03198116811461145c575f80fd5b50565b5f6020828403121561146f575f80fd5b81356105dc81611447565b5f8083601f84011261148a575f80fd5b5081356001600160401b038111156114a0575f80fd5b6020830191508360208285010111156114b7575f80fd5b9250929050565b5f805f805f8060a087890312156114d3575f80fd5b6114dc87611404565b95506114ea60208801611404565b9450604087013593506060870135925060808701356001600160401b03811115611512575f80fd5b61151e89828a0161147a565b979a9699509497509295939492505050565b5f60208284031215611540575f80fd5b5035919050565b5f5b83811015611561578181015183820152602001611549565b50505f910152565b5f8151808452611580816020860160208601611547565b601f01601f19169290920160200192915050565b602081525f6105dc6020830184611569565b5f80602083850312156115b7575f80fd5b82356001600160401b038111156115cc575f80fd5b6115d88582860161147a565b90969095509350505050565b5f8083601f8401126115f4575f80fd5b5081356001600160401b0381111561160a575f80fd5b6020830191508360208260051b85010111156114b7575f80fd5b5f805f805f805f8060a0898b03121561163b575f80fd5b61164489611404565b975061165260208a01611404565b965060408901356001600160401b038082111561166d575f80fd5b6116798c838d016115e4565b909850965060608b0135915080821115611691575f80fd5b61169d8c838d016115e4565b909650945060808b01359150808211156116b5575f80fd5b506116c28b828c0161147a565b999c989b5096995094979396929594505050565b634e487b7160e01b5f52604160045260245ffd5b604051601f8201601f191681016001600160401b0381118282101715611712576117126116d6565b604052919050565b5f6001600160401b03821115611732576117326116d6565b5060051b60200190565b5f82601f83011261174b575f80fd5b8135602061176061175b8361171a565b6116ea565b82815260059290921b8401810191818101908684111561177e575f80fd5b8286015b848110156117995780358352918301918301611782565b509695505050505050565b5f82601f8301126117b3575f80fd5b81356001600160401b038111156117cc576117cc6116d6565b6117df601f8201601f19166020016116ea565b8181528460208386010111156117f3575f80fd5b816020850160208301375f918101602001919091529392505050565b5f805f805f60a08688031215611823575f80fd5b61182c86611404565b945061183a60208701611404565b935060408601356001600160401b0380821115611855575f80fd5b61186189838a0161173c565b94506060880135915080821115611876575f80fd5b61188289838a0161173c565b93506080880135915080821115611897575f80fd5b506118a4888289016117a4565b9150509295509295909350565b5f805f805f606086880312156118c5575f80fd5b6118ce86611404565b945060208601356001600160401b03808211156118e9575f80fd5b6118f589838a016115e4565b9096509450604088013591508082111561190d575f80fd5b5061191a888289016115e4565b969995985093965092949392505050565b5f806040838503121561193c575f80fd5b82356001600160401b0380821115611952575f80fd5b818501915085601f830112611965575f80fd5b8135602061197561175b8361171a565b82815260059290921b84018101918181019089841115611993575f80fd5b948201945b838610156119b8576119a986611404565b82529482019490820190611998565b965050860135925050808211156119cd575f80fd5b506119da8582860161173c565b9150509250929050565b5f8151808452602080850194508084015f5b83811015611a12578151875295820195908201906001016119f6565b509495945050505050565b602081525f6105dc60208301846119e4565b5f805f805f60808688031215611a43575f80fd5b611a4c86611404565b9450602086013593506040860135925060608601356001600160401b03811115611a74575f80fd5b61191a8882890161147a565b8035801515811461141a575f80fd5b5f8060408385031215611aa0575f80fd5b611aa983611404565b9150611ab760208401611a80565b90509250929050565b5f805f805f8060808789031215611ad5575f80fd5b611ade87611404565b9550611aec60208801611404565b945060408701356001600160401b0380821115611b07575f80fd5b611b138a838b016115e4565b90965094506060890135915080821115611b2b575f80fd5b5061151e89828a016115e4565b5f805f60608486031215611b4a575f80fd5b611b5384611404565b95602085013595506040909401359392505050565b5f805f805f805f6080888a031215611b7e575f80fd5b611b8788611404565b965060208801356001600160401b0380821115611ba2575f80fd5b611bae8b838c016115e4565b909850965060408a0135915080821115611bc6575f80fd5b611bd28b838c016115e4565b909650945060608a0135915080821115611bea575f80fd5b50611bf78a828b0161147a565b989b979a50959850939692959293505050565b5f805f60608486031215611c1c575f80fd5b611c2584611404565b9250611c3360208501611404565b9150611c4160408501611a80565b90509250925092565b5f8060408385031215611c5b575f80fd5b611c6483611404565b9150611ab760208401611404565b5f805f60408486031215611c84575f80fd5b8335925060208401356001600160401b03811115611ca0575f80fd5b611cac8682870161147a565b9497909650939450505050565b5f805f805f60a08688031215611ccd575f80fd5b611cd686611404565b9450611ce460208701611404565b9350604086013592506060860135915060808601356001600160401b03811115611d0c575f80fd5b6118a4888289016117a4565b600181811c90821680611d2c57607f821691505b602082108103611d4a57634e487b7160e01b5f52602260045260245ffd5b50919050565b5f808454611d5d81611d18565b60018281168015611d755760018114611d8a57611db6565b60ff1984168752821515830287019450611db6565b885f526020805f205f5b85811015611dad5781548a820152908401908201611d94565b50505082870194505b505050508351611dca818360208801611547565b01949350505050565b634e487b7160e01b5f52603260045260245ffd5b634e487b7160e01b5f52601160045260245ffd5b5f60018201611e0c57611e0c611de7565b5060010190565b601f821115610979575f81815260208120601f850160051c81016020861015611e395750805b601f850160051c820191505b818110156104ff57828155600101611e45565b81516001600160401b03811115611e7157611e716116d6565b611e8581611e7f8454611d18565b84611e13565b602080601f831160018114611eb8575f8415611ea15750858301515b5f19600386901b1c1916600185901b1785556104ff565b5f85815260208120601f198616915b82811015611ee657888601518255948401946001909101908401611ec7565b5085821015611f0357878501515f19600388901b60f8161c191681555b5050505050600190811b01905550565b8082018082111561046857610468611de7565b604081525f611f3860408301856119e4565b8281036020840152611f4a81856119e4565b95945050505050565b6001600160a01b03868116825285166020820152604081018490526060810183905260a0608082018190525f90611f8c90830184611569565b979650505050505050565b5f60208284031215611fa7575f80fd5b81516105dc81611447565b6001600160a01b0386811682528516602082015260a0604082018190525f90611fdd908301866119e4565b8281036060840152611fef81866119e4565b905082810360808401526120038185611569565b9897505050505050505056fea2646970667358221220fd4d14141e03ee6a041f7be011dfd1b1164f34f5e1485b4b86ac5ce95fc3528b64736f6c63430008140033",
  "linkReferences": {},
  "deployedLinkReferences": {}
}