{
  "_format": "hh-sol-artifact-1",
  "contractName": "$ProxyAdmin",
  "sourceName": "contracts-exposed/proxy/transparent/ProxyAdmin.sol",
  "abi": [
    {
      "inputs": [
        {
          "internalType": "address",
          "name": "initialOwner",
          "type": "address"
        }
      ],
      "stateMutability": "payable",
      "type": "constructor"
    },
    {
      "inputs": [
        {
          "internalType": "address",
          "name": "owner",
          "type": "address"
        }
      ],
      "name": "OwnableInvalidOwner",
      "type": "error"
    },
    {
      "inputs": [
        {
          "internalType": "address",
          "name": "account",
          "type": "address"
        }
      ],
      "name": "OwnableUnauthorizedAccount",
      "type": "error"
    },
    {
      "anonymous": false,
      "inputs": [
        {
          "indexed": true,
          "internalType": "address",
          "name": "previousOwner",
          "type": "address"
        },
        {
          "indexed": true,
          "internalType": "address",
          "name": "newOwner",
          "type": "address"
        }
      ],
      "name": "OwnershipTransferred",
      "type": "event"
    },
    {
      "inputs": [],
      "name": "$_checkOwner",
      "outputs": [],
      "stateMutability": "view",
      "type": "function"
    },
    {
      "inputs": [],
      "name": "$_msgData",
      "outputs": [
        {
          "internalType": "bytes",
          "name": "ret0",
          "type": "bytes"
        }
      ],
      "stateMutability": "view",
      "type": "function"
    },
    {
      "inputs": [],
      "name": "$_msgSender",
      "outputs": [
        {
          "internalType": "address",
          "name": "ret0",
          "type": "address"
        }
      ],
      "stateMutability": "view",
      "type": "function"
    },
    {
      "inputs": [
        {
          "internalType": "address",
          "name": "newOwner",
          "type": "address"
        }
      ],
      "name": "$_transferOwnership",
      "outputs": [],
      "stateMutability": "nonpayable",
      "type": "function"
    },
    {
      "inputs": [],
      "name": "UPGRADE_INTERFACE_VERSION",
      "outputs": [
        {
          "internalType": "string",
          "name": "",
          "type": "string"
        }
      ],
      "stateMutability": "view",
      "type": "function"
    },
    {
      "inputs": [],
      "name": "__hh_exposed_bytecode_marker",
      "outputs": [
        {
          "internalType": "bytes32",
          "name": "",
          "type": "bytes32"
        }
      ],
      "stateMutability": "view",
      "type": "function"
    },
    {
      "inputs": [],
      "name": "owner",
      "outputs": [
        {
          "internalType": "address",
          "name": "",
          "type": "address"
        }
      ],
      "stateMutability": "view",
      "type": "function"
    },
    {
      "inputs": [],
      "name": "renounceOwnership",
      "outputs": [],
      "stateMutability": "nonpayable",
      "type": "function"
    },
    {
      "inputs": [
        {
          "internalType": "address",
          "name": "newOwner",
          "type": "address"
        }
      ],
      "name": "transferOwnership",
      "outputs": [],
      "stateMutability": "nonpayable",
      "type": "function"
    },
    {
      "inputs": [
        {
          "internalType": "contract ITransparentUpgradeableProxy",
          "name": "proxy",
          "type": "address"
        },
        {
          "internalType": "address",
          "name": "implementation",
          "type": "address"
        },
        {
          "internalType": "bytes",
          "name": "data",
          "type": "bytes"
        }
      ],
      "name": "upgradeAndCall",
      "outputs": [],
      "stateMutability": "payable",
      "type": "function"
    },
    {
      "stateMutability": "payable",
      "type": "receive"
    }
  ],
  "bytecode": "0x60806040526040516105f03803806105f083398101604081905261002291610084565b808061002d81610035565b5050506100b1565b5f80546001600160a01b038381166001600160a01b0319831681178455604051919092169283917f8be0079c531659141344cd1fd0a4f28419497f9722a3daafe3b4186f6b6457e09190a35050565b5f60208284031215610094575f80fd5b81516001600160a01b03811681146100aa575f80fd5b9392505050565b610532806100be5f395ff3fe608060405260043610610092575f3560e01c80639623609d116100575780639623609d1461014e578063ad3cb1cc14610161578063ebcca70714610191578063f2fde38b146101a5578063fe1c9a24146101c4575f80fd5b80632904df291461009d57806332cadf3c146100c8578063342db739146100e9578063715018a61461011c5780638da5cb5b14610132575f80fd5b3661009957005b5f80fd5b3480156100a8575f80fd5b50335b6040516001600160a01b0390911681526020015b60405180910390f35b3480156100d3575f80fd5b506100dc6101e3565b6040516100bf91906103a6565b3480156100f4575f80fd5b5061010e6e1a185c991a185d0b595e1c1bdcd959608a1b81565b6040519081526020016100bf565b348015610127575f80fd5b50610130610220565b005b34801561013d575f80fd5b505f546001600160a01b03166100ab565b61013061015c3660046103e7565b610233565b34801561016c575f80fd5b506100dc604051806040016040528060058152602001640352e302e360dc1b81525081565b34801561019c575f80fd5b5061013061029e565b3480156101b0575f80fd5b506101306101bf3660046104b6565b6102a6565b3480156101cf575f80fd5b506101306101de3660046104b6565b6102dc565b60605f368080601f0160208091040260200160405190810160405280939291908181526020018383808284375f9201919091525092949350505050565b6102286102e8565b6102315f610314565b565b61023b6102e8565b60405163278f794360e11b81526001600160a01b03841690634f1ef28690349061026b90869086906004016104d1565b5f604051808303818588803b158015610282575f80fd5b505af1158015610294573d5f803e3d5ffd5b5050505050505050565b6102316102e8565b6102ae6102e8565b6001600160a01b0381166102dc57604051631e4fbdf760e01b81525f60048201526024015b60405180910390fd5b6102e581610314565b50565b5f546001600160a01b031633146102315760405163118cdaa760e01b81523360048201526024016102d3565b5f80546001600160a01b038381166001600160a01b0319831681178455604051919092169283917f8be0079c531659141344cd1fd0a4f28419497f9722a3daafe3b4186f6b6457e09190a35050565b5f81518084525f5b818110156103875760208185018101518683018201520161036b565b505f602082860101526020601f19601f83011685010191505092915050565b602081525f6103b86020830184610363565b9392505050565b6001600160a01b03811681146102e5575f80fd5b634e487b7160e01b5f52604160045260245ffd5b5f805f606084860312156103f9575f80fd5b8335610404816103bf565b92506020840135610414816103bf565b9150604084013567ffffffffffffffff80821115610430575f80fd5b818601915086601f830112610443575f80fd5b813581811115610455576104556103d3565b604051601f8201601f19908116603f0116810190838211818310171561047d5761047d6103d3565b81604052828152896020848701011115610495575f80fd5b826020860160208301375f6020848301015280955050505050509250925092565b5f602082840312156104c6575f80fd5b81356103b8816103bf565b6001600160a01b03831681526040602082018190525f906104f490830184610363565b94935050505056fea264697066735822122033405d00a108c3632e6b5b0bf5f7f502b4d720c97a01c040b92fd28fbaddd14364736f6c63430008140033",
  "linkReferences": {},
  "deployedLinkReferences": {}
}