{"abi":[{"type":"constructor","inputs":[{"name":"underlying","type":"address","internalType":"address"}],"stateMutability":"nonpayable"},{"type":"function","name":"allowance","inputs":[{"name":"owner","type":"address","internalType":"address"},{"name":"spender","type":"address","internalType":"address"}],"outputs":[{"name":"","type":"uint256","internalType":"uint256"}],"stateMutability":"view"},{"type":"function","name":"approve","inputs":[{"name":"spender","type":"address","internalType":"address"},{"name":"value","type":"uint256","internalType":"uint256"}],"outputs":[{"name":"","type":"bool","internalType":"bool"}],"stateMutability":"nonpayable"},{"type":"function","name":"asset","inputs":[],"outputs":[{"name":"","type":"address","internalType":"address"}],"stateMutability":"view"},{"type":"function","name":"balanceOf","inputs":[{"name":"account","type":"address","internalType":"address"}],"outputs":[{"name":"","type":"uint256","internalType":"uint256"}],"stateMutability":"view"},{"type":"function","name":"burn","inputs":[{"name":"account","type":"address","internalType":"address"},{"name":"amount","type":"uint256","internalType":"uint256"}],"outputs":[],"stateMutability":"nonpayable"},{"type":"function","name":"convertToAssets","inputs":[{"name":"shares","type":"uint256","internalType":"uint256"}],"outputs":[{"name":"","type":"uint256","internalType":"uint256"}],"stateMutability":"view"},{"type":"function","name":"convertToShares","inputs":[{"name":"assets","type":"uint256","internalType":"uint256"}],"outputs":[{"name":"","type":"uint256","internalType":"uint256"}],"stateMutability":"view"},{"type":"function","name":"decimals","inputs":[],"outputs":[{"name":"","type":"uint8","internalType":"uint8"}],"stateMutability":"view"},{"type":"function","name":"decreaseAllowance","inputs":[{"name":"spender","type":"address","internalType":"address"},{"name":"requestedDecrease","type":"uint256","internalType":"uint256"}],"outputs":[{"name":"","type":"bool","internalType":"bool"}],"stateMutability":"nonpayable"},{"type":"function","name":"deposit","inputs":[{"name":"assets","type":"uint256","internalType":"uint256"},{"name":"receiver","type":"address","internalType":"address"}],"outputs":[{"name":"","type":"uint256","internalType":"uint256"}],"stateMutability":"nonpayable"},{"type":"function","name":"increaseAllowance","inputs":[{"name":"spender","type":"address","internalType":"address"},{"name":"addedValue","type":"uint256","internalType":"uint256"}],"outputs":[{"name":"","type":"bool","internalType":"bool"}],"stateMutability":"nonpayable"},{"type":"function","name":"maxDeposit","inputs":[{"name":"","type":"address","internalType":"address"}],"outputs":[{"name":"","type":"uint256","internalType":"uint256"}],"stateMutability":"view"},{"type":"function","name":"maxMint","inputs":[{"name":"","type":"address","internalType":"address"}],"outputs":[{"name":"","type":"uint256","internalType":"uint256"}],"stateMutability":"view"},{"type":"function","name":"maxRedeem","inputs":[{"name":"owner","type":"address","internalType":"address"}],"outputs":[{"name":"","type":"uint256","internalType":"uint256"}],"stateMutability":"view"},{"type":"function","name":"maxWithdraw","inputs":[{"name":"owner","type":"address","internalType":"address"}],"outputs":[{"name":"","type":"uint256","internalType":"uint256"}],"stateMutability":"view"},{"type":"function","name":"mint","inputs":[{"name":"account","type":"address","internalType":"address"},{"name":"amount","type":"uint256","internalType":"uint256"}],"outputs":[],"stateMutability":"nonpayable"},{"type":"function","name":"mint","inputs":[{"name":"shares","type":"uint256","internalType":"uint256"},{"name":"receiver","type":"address","internalType":"address"}],"outputs":[{"name":"","type":"uint256","internalType":"uint256"}],"stateMutability":"nonpayable"},{"type":"function","name":"name","inputs":[],"outputs":[{"name":"","type":"string","internalType":"string"}],"stateMutability":"view"},{"type":"function","name":"previewDeposit","inputs":[{"name":"assets","type":"uint256","internalType":"uint256"}],"outputs":[{"name":"","type":"uint256","internalType":"uint256"}],"stateMutability":"view"},{"type":"function","name":"previewMint","inputs":[{"name":"shares","type":"uint256","internalType":"uint256"}],"outputs":[{"name":"","type":"uint256","internalType":"uint256"}],"stateMutability":"view"},{"type":"function","name":"previewRedeem","inputs":[{"name":"shares","type":"uint256","internalType":"uint256"}],"outputs":[{"name":"","type":"uint256","internalType":"uint256"}],"stateMutability":"view"},{"type":"function","name":"previewWithdraw","inputs":[{"name":"assets","type":"uint256","internalType":"uint256"}],"outputs":[{"name":"","type":"uint256","internalType":"uint256"}],"stateMutability":"view"},{"type":"function","name":"redeem","inputs":[{"name":"shares","type":"uint256","internalType":"uint256"},{"name":"receiver","type":"address","internalType":"address"},{"name":"owner","type":"address","internalType":"address"}],"outputs":[{"name":"","type":"uint256","internalType":"uint256"}],"stateMutability":"nonpayable"},{"type":"function","name":"symbol","inputs":[],"outputs":[{"name":"","type":"string","internalType":"string"}],"stateMutability":"view"},{"type":"function","name":"totalAssets","inputs":[],"outputs":[{"name":"","type":"uint256","internalType":"uint256"}],"stateMutability":"view"},{"type":"function","name":"totalSupply","inputs":[],"outputs":[{"name":"","type":"uint256","internalType":"uint256"}],"stateMutability":"view"},{"type":"function","name":"transfer","inputs":[{"name":"to","type":"address","internalType":"address"},{"name":"value","type":"uint256","internalType":"uint256"}],"outputs":[{"name":"","type":"bool","internalType":"bool"}],"stateMutability":"nonpayable"},{"type":"function","name":"transferFrom","inputs":[{"name":"from","type":"address","internalType":"address"},{"name":"to","type":"address","internalType":"address"},{"name":"value","type":"uint256","internalType":"uint256"}],"outputs":[{"name":"","type":"bool","internalType":"bool"}],"stateMutability":"nonpayable"},{"type":"function","name":"withdraw","inputs":[{"name":"assets","type":"uint256","internalType":"uint256"},{"name":"receiver","type":"address","internalType":"address"},{"name":"owner","type":"address","internalType":"address"}],"outputs":[{"name":"","type":"uint256","internalType":"uint256"}],"stateMutability":"nonpayable"},{"type":"event","name":"Approval","inputs":[{"name":"owner","type":"address","indexed":true,"internalType":"address"},{"name":"spender","type":"address","indexed":true,"internalType":"address"},{"name":"value","type":"uint256","indexed":false,"internalType":"uint256"}],"anonymous":false},{"type":"event","name":"Deposit","inputs":[{"name":"sender","type":"address","indexed":true,"internalType":"address"},{"name":"owner","type":"address","indexed":true,"internalType":"address"},{"name":"assets","type":"uint256","indexed":false,"internalType":"uint256"},{"name":"shares","type":"uint256","indexed":false,"internalType":"uint256"}],"anonymous":false},{"type":"event","name":"Transfer","inputs":[{"name":"from","type":"address","indexed":true,"internalType":"address"},{"name":"to","type":"address","indexed":true,"internalType":"address"},{"name":"value","type":"uint256","indexed":false,"internalType":"uint256"}],"anonymous":false},{"type":"event","name":"Withdraw","inputs":[{"name":"sender","type":"address","indexed":true,"internalType":"address"},{"name":"receiver","type":"address","indexed":true,"internalType":"address"},{"name":"owner","type":"address","indexed":true,"internalType":"address"},{"name":"assets","type":"uint256","indexed":false,"internalType":"uint256"},{"name":"shares","type":"uint256","indexed":false,"internalType":"uint256"}],"anonymous":false},{"type":"error","name":"AddressEmptyCode","inputs":[{"name":"target","type":"address","internalType":"address"}]},{"type":"error","name":"AddressInsufficientBalance","inputs":[{"name":"account","type":"address","internalType":"address"}]},{"type":"error","name":"ERC20FailedDecreaseAllowance","inputs":[{"name":"spender","type":"address","internalType":"address"},{"name":"currentAllowance","type":"uint256","internalType":"uint256"},{"name":"requestedDecrease","type":"uint256","internalType":"uint256"}]},{"type":"error","name":"ERC20InsufficientAllowance","inputs":[{"name":"spender","type":"address","internalType":"address"},{"name":"allowance","type":"uint256","internalType":"uint256"},{"name":"needed","type":"uint256","internalType":"uint256"}]},{"type":"error","name":"ERC20InsufficientBalance","inputs":[{"name":"sender","type":"address","internalType":"address"},{"name":"balance","type":"uint256","internalType":"uint256"},{"name":"needed","type":"uint256","internalType":"uint256"}]},{"type":"error","name":"ERC20InvalidApprover","inputs":[{"name":"approver","type":"address","internalType":"address"}]},{"type":"error","name":"ERC20InvalidReceiver","inputs":[{"name":"receiver","type":"address","internalType":"address"}]},{"type":"error","name":"ERC20InvalidSender","inputs":[{"name":"sender","type":"address","internalType":"address"}]},{"type":"error","name":"ERC20InvalidSpender","inputs":[{"name":"spender","type":"address","internalType":"address"}]},{"type":"error","name":"ERC4626ExceededMaxDeposit","inputs":[{"name":"receiver","type":"address","internalType":"address"},{"name":"assets","type":"uint256","internalType":"uint256"},{"name":"max","type":"uint256","internalType":"uint256"}]},{"type":"error","name":"ERC4626ExceededMaxMint","inputs":[{"name":"receiver","type":"address","internalType":"address"},{"name":"shares","type":"uint256","internalType":"uint256"},{"name":"max","type":"uint256","internalType":"uint256"}]},{"type":"error","name":"ERC4626ExceededMaxRedeem","inputs":[{"name":"owner","type":"address","internalType":"address"},{"name":"shares","type":"uint256","internalType":"uint256"},{"name":"max","type":"uint256","internalType":"uint256"}]},{"type":"error","name":"ERC4626ExceededMaxWithdraw","inputs":[{"name":"owner","type":"address","internalType":"address"},{"name":"assets","type":"uint256","internalType":"uint256"},{"name":"max","type":"uint256","internalType":"uint256"}]},{"type":"error","name":"FailedInnerCall","inputs":[]},{"type":"error","name":"MathOverflowedMulDiv","inputs":[]},{"type":"error","name":"SafeERC20FailedOperation","inputs":[{"name":"token","type":"address","internalType":"address"}]}],"bytecode":{"object":"0x60c060405234801561001057600080fd5b506040516117f03803806117f083398101604081905261002f916101ac565b806040518060400160405280600b81526020016a455243343632364d6f636b60a81b8152506040518060400160405280600681526020016545343632364d60d01b8152508160039081610082919061027b565b50600461008f828261027b565b5050506000806100a4836100d060201b60201c565b91509150816100b45760126100b6565b805b60ff1660a05250506001600160a01b031660805250610381565b60408051600481526024810182526020810180516001600160e01b031663313ce56760e01b17905290516000918291829182916001600160a01b0387169161011791610339565b600060405180830381855afa9150503d8060008114610152576040519150601f19603f3d011682016040523d82523d6000602084013e610157565b606091505b509150915081801561016b57506020815110155b1561019f576000818060200190518101906101869190610368565b905060ff811161019d576001969095509350505050565b505b5060009485945092505050565b6000602082840312156101be57600080fd5b81516001600160a01b03811681146101d557600080fd5b9392505050565b634e487b7160e01b600052604160045260246000fd5b600181811c9082168061020657607f821691505b60208210810361022657634e487b7160e01b600052602260045260246000fd5b50919050565b601f82111561027657806000526020600020601f840160051c810160208510156102535750805b601f840160051c820191505b81811015610273576000815560010161025f565b50505b505050565b81516001600160401b03811115610294576102946101dc565b6102a8816102a284546101f2565b8461022c565b6020601f8211600181146102dc57600083156102c45750848201515b600019600385901b1c1916600184901b178455610273565b600084815260208120601f198516915b8281101561030c57878501518255602094850194600190920191016102ec565b508482101561032a5786840151600019600387901b60f8161c191681555b50505050600190811b01905550565b6000825160005b8181101561035a5760208186018101518583015201610340565b506000920191825250919050565b60006020828403121561037a57600080fd5b5051919050565b60805160a0516114356103bb600039600061059301526000818161028f01528181610423015281816109460152610a3c01526114356000f3fe608060405234801561001057600080fd5b50600436106101cf5760003560e01c806370a0823111610104578063b460af94116100a2578063ce96cb7711610071578063ce96cb77146103d2578063d905777e146103e5578063dd62ed3e146103f8578063ef8b30f7146103bf57600080fd5b8063b460af9414610399578063ba087652146103ac578063c63d75b6146102cc578063c6e6f592146103bf57600080fd5b80639dc29fac116100de5780639dc29fac1461034d578063a457c2d714610360578063a9059cbb14610373578063b3d7f6b91461038657600080fd5b806370a082311461030957806394bf804d1461033257806395d89b411461034557600080fd5b8063313ce56711610171578063402d267d1161014b578063402d267d146102cc57806340c10f19146102e15780634cdad506146102045780636e553f65146102f657600080fd5b8063313ce5671461026857806338d52e0f1461028257806339509351146102b957600080fd5b8063095ea7b3116101ad578063095ea7b3146102175780630a28a4771461023a57806318160ddd1461024d57806323b872dd1461025557600080fd5b806301e1d114146101d457806306fdde03146101ef57806307a2d13a14610204575b600080fd5b6101dc61040b565b6040519081526020015b60405180910390f35b6101f761049b565b6040516101e6919061103d565b6101dc610212366004611070565b61052d565b61022a6102253660046110a5565b610540565b60405190151581526020016101e6565b6101dc610248366004611070565b610558565b6002546101dc565b61022a6102633660046110cf565b610565565b61027061058b565b60405160ff90911681526020016101e6565b6040516001600160a01b037f00000000000000000000000000000000000000000000000000000000000000001681526020016101e6565b61022a6102c73660046110a5565b6105b7565b6101dc6102da36600461110c565b5060001990565b6102f46102ef3660046110a5565b6105d9565b005b6101dc610304366004611127565b6105e7565b6101dc61031736600461110c565b6001600160a01b031660009081526020819052604090205490565b6101dc610340366004611127565b61061b565b6101f7610639565b6102f461035b3660046110a5565b610648565b61022a61036e3660046110a5565b610652565b61022a6103813660046110a5565b6106a1565b6101dc610394366004611070565b6106af565b6101dc6103a7366004611153565b6106bc565b6101dc6103ba366004611153565b610714565b6101dc6103cd366004611070565b610763565b6101dc6103e036600461110c565b610770565b6101dc6103f336600461110c565b610794565b6101dc61040636600461118f565b6107b2565b6040516370a0823160e01b81523060048201526000907f00000000000000000000000000000000000000000000000000000000000000006001600160a01b0316906370a0823190602401602060405180830381865afa158015610472573d6000803e3d6000fd5b505050506040513d601f19601f8201168201806040525081019061049691906111b9565b905090565b6060600380546104aa906111d2565b80601f01602080910402602001604051908101604052809291908181526020018280546104d6906111d2565b80156105235780601f106104f857610100808354040283529160200191610523565b820191906000526020600020905b81548152906001019060200180831161050657829003601f168201915b5050505050905090565b600061053a8260006107dd565b92915050565b60003361054e818585610817565b5060019392505050565b600061053a826001610829565b600033610573858285610859565b61057e8585856108ac565b60019150505b9392505050565b6000610496817f0000000000000000000000000000000000000000000000000000000000000000611222565b60003361054e8185856105ca83836107b2565b6105d4919061123b565b610817565b6105e3828261090b565b5050565b60006000196105fa565b60405180910390fd5b600061060585610763565b905061061333858784610941565b949350505050565b6000600019600061062b856106af565b905061061333858388610941565b6060600480546104aa906111d2565b6105e382826109d3565b6000338161066082866107b2565b90508381101561068957848185604051632983c0c360e21b81526004016105f19392919061124e565b6106968286868403610817565b506001949350505050565b60003361054e8185856108ac565b600061053a8260016107dd565b6000806106c883610770565b9050808511156106f157828582604051633fa733bb60e21b81526004016105f19392919061124e565b60006106fc86610558565b905061070b3386868985610a09565b95945050505050565b60008061072083610794565b90508085111561074957828582604051632e52afbb60e21b81526004016105f19392919061124e565b60006107548661052d565b905061070b338686848a610a09565b600061053a826000610829565b6001600160a01b03811660009081526020819052604081205461053a9060006107dd565b6001600160a01b03811660009081526020819052604081205461053a565b6001600160a01b03918216600090815260016020908152604080832093909416825291909152205490565b60006105846107ea61040b565b6107f590600161123b565b6108016000600a611356565b60025461080e919061123b565b85919085610ac9565b6108248383836001610b18565b505050565b600061058461083982600a611356565b600254610846919061123b565b61084e61040b565b61080e90600161123b565b600061086584846107b2565b905060001981146108a6578181101561089757828183604051637dc7a0d960e11b81526004016105f19392919061124e565b6108a684848484036000610b18565b50505050565b6001600160a01b0383166108d657604051634b637e8f60e11b8152600060048201526024016105f1565b6001600160a01b0382166109005760405163ec442f0560e01b8152600060048201526024016105f1565b610824838383610bdf565b6001600160a01b0382166109355760405163ec442f0560e01b8152600060048201526024016105f1565b6105e360008383610bdf565b61096d7f0000000000000000000000000000000000000000000000000000000000000000853085610cf6565b610977838261090b565b826001600160a01b0316846001600160a01b03167fdcbc1c05240f31ff3ad067ef1ee35ce4997762752e3a095284754544f4c709d784846040516109c5929190918252602082015260400190565b60405180910390a350505050565b6001600160a01b0382166109fd57604051634b637e8f60e11b8152600060048201526024016105f1565b6105e382600083610bdf565b826001600160a01b0316856001600160a01b031614610a2d57610a2d838683610859565b610a3783826109d3565b610a627f00000000000000000000000000000000000000000000000000000000000000008584610d5d565b826001600160a01b0316846001600160a01b0316866001600160a01b03167ffbde797d201c681b91056529119e0b02407c7bb96a4a2c75c01fc9667232c8db8585604051610aba929190918252602082015260400190565b60405180910390a45050505050565b600080610ad7868686610d8e565b9050610ae283610e51565b8015610afe575060008480610af957610af9611365565b868809115b1561070b57610b0e60018261123b565b9695505050505050565b6001600160a01b038416610b425760405163e602df0560e01b8152600060048201526024016105f1565b6001600160a01b038316610b6c57604051634a1406b160e11b8152600060048201526024016105f1565b6001600160a01b03808516600090815260016020908152604080832093871683529290522082905580156108a657826001600160a01b0316846001600160a01b03167f8c5be1e5ebec7d5bd14f71427d1e84f3dd0314c0f7b2291e5b200ac8c7c3b925846040516109c591815260200190565b6001600160a01b038316610c0a578060026000828254610bff919061123b565b90915550610c699050565b6001600160a01b03831660009081526020819052604090205481811015610c4a5783818360405163391434e360e21b81526004016105f19392919061124e565b6001600160a01b03841660009081526020819052604090209082900390555b6001600160a01b038216610c8557600280548290039055610ca4565b6001600160a01b03821660009081526020819052604090208054820190555b816001600160a01b0316836001600160a01b03167fddf252ad1be2c89b69c2b068fc378daa952ba7f163c4a11628f55a4df523b3ef83604051610ce991815260200190565b60405180910390a3505050565b6040516001600160a01b0384811660248301528381166044830152606482018390526108a69186918216906323b872dd906084015b604051602081830303815290604052915060e01b6020820180516001600160e01b038381831617835250505050610e7e565b6040516001600160a01b0383811660248301526044820183905261082491859182169063a9059cbb90606401610d2b565b6000808060001985870985870292508281108382030391505080600003610dc857838281610dbe57610dbe611365565b0492505050610584565b808411610de85760405163227bc15360e01b815260040160405180910390fd5b60008486880960026001871981018816978890046003810283188082028403028082028403028082028403028082028403028082028403029081029092039091026000889003889004909101858311909403939093029303949094049190911702949350505050565b60006002826003811115610e6757610e6761137b565b610e719190611391565b60ff166001149050919050565b6000610e936001600160a01b03841683610ee1565b90508051600014158015610eb8575080806020019051810190610eb691906113c1565b155b1561082457604051635274afe760e01b81526001600160a01b03841660048201526024016105f1565b606061058483836000610ef2610f0b565b604051630a12f52160e11b815260040160405180910390fd5b606082471015610f305760405163cd78605960e01b81523060048201526024016105f1565b600080866001600160a01b03168587604051610f4c91906113e3565b60006040518083038185875af1925050503d8060008114610f89576040519150601f19603f3d011682016040523d82523d6000602084013e610f8e565b606091505b5091509150610f9f87838387610faa565b979650505050505050565b60608315610ff8578251600003610ff157846001600160a01b03163b600003610ff157604051639996b31560e01b81526001600160a01b03861660048201526024016105f1565b5081610613565b610613838381511561100d5781518083602001fd5b610ef28163ffffffff16565b60005b8381101561103457818101518382015260200161101c565b50506000910152565b602081526000825180602084015261105c816040850160208701611019565b601f01601f19169190910160400192915050565b60006020828403121561108257600080fd5b5035919050565b80356001600160a01b03811681146110a057600080fd5b919050565b600080604083850312156110b857600080fd5b6110c183611089565b946020939093013593505050565b6000806000606084860312156110e457600080fd5b6110ed84611089565b92506110fb60208501611089565b929592945050506040919091013590565b60006020828403121561111e57600080fd5b61058482611089565b6000806040838503121561113a57600080fd5b8235915061114a60208401611089565b90509250929050565b60008060006060848603121561116857600080fd5b8335925061117860208501611089565b915061118660408501611089565b90509250925092565b600080604083850312156111a257600080fd5b6111ab83611089565b915061114a60208401611089565b6000602082840312156111cb57600080fd5b5051919050565b600181811c908216806111e657607f821691505b60208210810361120657634e487b7160e01b600052602260045260246000fd5b50919050565b634e487b7160e01b600052601160045260246000fd5b60ff818116838216019081111561053a5761053a61120c565b8082018082111561053a5761053a61120c565b6001600160a01b039390931683526020830191909152604082015260600190565b6001815b60018411156112aa5780850481111561128e5761128e61120c565b600184161561129c57908102905b60019390931c928002611273565b935093915050565b6000826112c15750600161053a565b816112ce5750600061053a565b81600181146112e457600281146112ee5761130a565b600191505061053a565b60ff8411156112ff576112ff61120c565b50506001821b61053a565b5060208310610133831016604e8410600b841016171561132d575081810a61053a565b61133a600019848461126f565b806000190482111561134e5761134e61120c565b029392505050565b600061058460ff8416836112b2565b634e487b7160e01b600052601260045260246000fd5b634e487b7160e01b600052602160045260246000fd5b600060ff8316806113b257634e487b7160e01b600052601260045260246000fd5b8060ff84160691505092915050565b6000602082840312156113d357600080fd5b8151801515811461058457600080fd5b600082516113f5818460208701611019565b919091019291505056fea26469706673582212206123b242a47adf66e0bd3807d9d7823fb2379b0dd824d0d1da52a260e6ad9cc564736f6c634300081b0033","linkReferences":{}},"methodIdentifiers":{"allowance(address,address)":"dd62ed3e","approve(address,uint256)":"095ea7b3","asset()":"38d52e0f","balanceOf(address)":"70a08231","burn(address,uint256)":"9dc29fac","convertToAssets(uint256)":"07a2d13a","convertToShares(uint256)":"c6e6f592","decimals()":"313ce567","decreaseAllowance(address,uint256)":"a457c2d7","deposit(uint256,address)":"6e553f65","increaseAllowance(address,uint256)":"39509351","maxDeposit(address)":"402d267d","maxMint(address)":"c63d75b6","maxRedeem(address)":"d905777e","maxWithdraw(address)":"ce96cb77","mint(address,uint256)":"40c10f19","mint(uint256,address)":"94bf804d","name()":"06fdde03","previewDeposit(uint256)":"ef8b30f7","previewMint(uint256)":"b3d7f6b9","previewRedeem(uint256)":"4cdad506","previewWithdraw(uint256)":"0a28a477","redeem(uint256,address,address)":"ba087652","symbol()":"95d89b41","totalAssets()":"01e1d114","totalSupply()":"18160ddd","transfer(address,uint256)":"a9059cbb","transferFrom(address,address,uint256)":"23b872dd","withdraw(uint256,address,address)":"b460af94"},"id":117}