{
  "_format": "hh-sol-artifact-1",
  "contractName": "$ERC20MulticallMock",
  "sourceName": "contracts-exposed/mocks/token/ERC20MulticallMock.sol",
  "abi": [
    {
      "inputs": [
        {
          "internalType": "string",
          "name": "name_",
          "type": "string"
        },
        {
          "internalType": "string",
          "name": "symbol_",
          "type": "string"
        }
      ],
      "stateMutability": "payable",
      "type": "constructor"
    },
    {
      "inputs": [
        {
          "internalType": "address",
          "name": "target",
          "type": "address"
        }
      ],
      "name": "AddressEmptyCode",
      "type": "error"
    },
    {
      "inputs": [
        {
          "internalType": "address",
          "name": "spender",
          "type": "address"
        },
        {
          "internalType": "uint256",
          "name": "currentAllowance",
          "type": "uint256"
        },
        {
          "internalType": "uint256",
          "name": "requestedDecrease",
          "type": "uint256"
        }
      ],
      "name": "ERC20FailedDecreaseAllowance",
      "type": "error"
    },
    {
      "inputs": [
        {
          "internalType": "address",
          "name": "spender",
          "type": "address"
        },
        {
          "internalType": "uint256",
          "name": "allowance",
          "type": "uint256"
        },
        {
          "internalType": "uint256",
          "name": "needed",
          "type": "uint256"
        }
      ],
      "name": "ERC20InsufficientAllowance",
      "type": "error"
    },
    {
      "inputs": [
        {
          "internalType": "address",
          "name": "sender",
          "type": "address"
        },
        {
          "internalType": "uint256",
          "name": "balance",
          "type": "uint256"
        },
        {
          "internalType": "uint256",
          "name": "needed",
          "type": "uint256"
        }
      ],
      "name": "ERC20InsufficientBalance",
      "type": "error"
    },
    {
      "inputs": [
        {
          "internalType": "address",
          "name": "approver",
          "type": "address"
        }
      ],
      "name": "ERC20InvalidApprover",
      "type": "error"
    },
    {
      "inputs": [
        {
          "internalType": "address",
          "name": "receiver",
          "type": "address"
        }
      ],
      "name": "ERC20InvalidReceiver",
      "type": "error"
    },
    {
      "inputs": [
        {
          "internalType": "address",
          "name": "sender",
          "type": "address"
        }
      ],
      "name": "ERC20InvalidSender",
      "type": "error"
    },
    {
      "inputs": [
        {
          "internalType": "address",
          "name": "spender",
          "type": "address"
        }
      ],
      "name": "ERC20InvalidSpender",
      "type": "error"
    },
    {
      "inputs": [],
      "name": "FailedInnerCall",
      "type": "error"
    },
    {
      "anonymous": false,
      "inputs": [
        {
          "indexed": true,
          "internalType": "address",
          "name": "owner",
          "type": "address"
        },
        {
          "indexed": true,
          "internalType": "address",
          "name": "spender",
          "type": "address"
        },
        {
          "indexed": false,
          "internalType": "uint256",
          "name": "value",
          "type": "uint256"
        }
      ],
      "name": "Approval",
      "type": "event"
    },
    {
      "anonymous": false,
      "inputs": [
        {
          "indexed": true,
          "internalType": "address",
          "name": "from",
          "type": "address"
        },
        {
          "indexed": true,
          "internalType": "address",
          "name": "to",
          "type": "address"
        },
        {
          "indexed": false,
          "internalType": "uint256",
          "name": "value",
          "type": "uint256"
        }
      ],
      "name": "Transfer",
      "type": "event"
    },
    {
      "inputs": [
        {
          "internalType": "address",
          "name": "owner",
          "type": "address"
        },
        {
          "internalType": "address",
          "name": "spender",
          "type": "address"
        },
        {
          "internalType": "uint256",
          "name": "value",
          "type": "uint256"
        },
        {
          "internalType": "bool",
          "name": "emitEvent",
          "type": "bool"
        }
      ],
      "name": "$_approve",
      "outputs": [],
      "stateMutability": "nonpayable",
      "type": "function"
    },
    {
      "inputs": [
        {
          "internalType": "address",
          "name": "owner",
          "type": "address"
        },
        {
          "internalType": "address",
          "name": "spender",
          "type": "address"
        },
        {
          "internalType": "uint256",
          "name": "value",
          "type": "uint256"
        }
      ],
      "name": "$_approve",
      "outputs": [],
      "stateMutability": "nonpayable",
      "type": "function"
    },
    {
      "inputs": [
        {
          "internalType": "address",
          "name": "account",
          "type": "address"
        },
        {
          "internalType": "uint256",
          "name": "value",
          "type": "uint256"
        }
      ],
      "name": "$_burn",
      "outputs": [],
      "stateMutability": "nonpayable",
      "type": "function"
    },
    {
      "inputs": [
        {
          "internalType": "address",
          "name": "account",
          "type": "address"
        },
        {
          "internalType": "uint256",
          "name": "value",
          "type": "uint256"
        }
      ],
      "name": "$_mint",
      "outputs": [],
      "stateMutability": "nonpayable",
      "type": "function"
    },
    {
      "inputs": [],
      "name": "$_msgData",
      "outputs": [
        {
          "internalType": "bytes",
          "name": "ret0",
          "type": "bytes"
        }
      ],
      "stateMutability": "view",
      "type": "function"
    },
    {
      "inputs": [],
      "name": "$_msgSender",
      "outputs": [
        {
          "internalType": "address",
          "name": "ret0",
          "type": "address"
        }
      ],
      "stateMutability": "view",
      "type": "function"
    },
    {
      "inputs": [
        {
          "internalType": "address",
          "name": "owner",
          "type": "address"
        },
        {
          "internalType": "address",
          "name": "spender",
          "type": "address"
        },
        {
          "internalType": "uint256",
          "name": "value",
          "type": "uint256"
        }
      ],
      "name": "$_spendAllowance",
      "outputs": [],
      "stateMutability": "nonpayable",
      "type": "function"
    },
    {
      "inputs": [
        {
          "internalType": "address",
          "name": "from",
          "type": "address"
        },
        {
          "internalType": "address",
          "name": "to",
          "type": "address"
        },
        {
          "internalType": "uint256",
          "name": "value",
          "type": "uint256"
        }
      ],
      "name": "$_transfer",
      "outputs": [],
      "stateMutability": "nonpayable",
      "type": "function"
    },
    {
      "inputs": [
        {
          "internalType": "address",
          "name": "from",
          "type": "address"
        },
        {
          "internalType": "address",
          "name": "to",
          "type": "address"
        },
        {
          "internalType": "uint256",
          "name": "value",
          "type": "uint256"
        }
      ],
      "name": "$_update",
      "outputs": [],
      "stateMutability": "nonpayable",
      "type": "function"
    },
    {
      "inputs": [],
      "name": "__hh_exposed_bytecode_marker",
      "outputs": [
        {
          "internalType": "bytes32",
          "name": "",
          "type": "bytes32"
        }
      ],
      "stateMutability": "view",
      "type": "function"
    },
    {
      "inputs": [
        {
          "internalType": "address",
          "name": "owner",
          "type": "address"
        },
        {
          "internalType": "address",
          "name": "spender",
          "type": "address"
        }
      ],
      "name": "allowance",
      "outputs": [
        {
          "internalType": "uint256",
          "name": "",
          "type": "uint256"
        }
      ],
      "stateMutability": "view",
      "type": "function"
    },
    {
      "inputs": [
        {
          "internalType": "address",
          "name": "spender",
          "type": "address"
        },
        {
          "internalType": "uint256",
          "name": "value",
          "type": "uint256"
        }
      ],
      "name": "approve",
      "outputs": [
        {
          "internalType": "bool",
          "name": "",
          "type": "bool"
        }
      ],
      "stateMutability": "nonpayable",
      "type": "function"
    },
    {
      "inputs": [
        {
          "internalType": "address",
          "name": "account",
          "type": "address"
        }
      ],
      "name": "balanceOf",
      "outputs": [
        {
          "internalType": "uint256",
          "name": "",
          "type": "uint256"
        }
      ],
      "stateMutability": "view",
      "type": "function"
    },
    {
      "inputs": [],
      "name": "decimals",
      "outputs": [
        {
          "internalType": "uint8",
          "name": "",
          "type": "uint8"
        }
      ],
      "stateMutability": "view",
      "type": "function"
    },
    {
      "inputs": [
        {
          "internalType": "address",
          "name": "spender",
          "type": "address"
        },
        {
          "internalType": "uint256",
          "name": "requestedDecrease",
          "type": "uint256"
        }
      ],
      "name": "decreaseAllowance",
      "outputs": [
        {
          "internalType": "bool",
          "name": "",
          "type": "bool"
        }
      ],
      "stateMutability": "nonpayable",
      "type": "function"
    },
    {
      "inputs": [
        {
          "internalType": "address",
          "name": "spender",
          "type": "address"
        },
        {
          "internalType": "uint256",
          "name": "addedValue",
          "type": "uint256"
        }
      ],
      "name": "increaseAllowance",
      "outputs": [
        {
          "internalType": "bool",
          "name": "",
          "type": "bool"
        }
      ],
      "stateMutability": "nonpayable",
      "type": "function"
    },
    {
      "inputs": [
        {
          "internalType": "bytes[]",
          "name": "data",
          "type": "bytes[]"
        }
      ],
      "name": "multicall",
      "outputs": [
        {
          "internalType": "bytes[]",
          "name": "results",
          "type": "bytes[]"
        }
      ],
      "stateMutability": "nonpayable",
      "type": "function"
    },
    {
      "inputs": [],
      "name": "name",
      "outputs": [
        {
          "internalType": "string",
          "name": "",
          "type": "string"
        }
      ],
      "stateMutability": "view",
      "type": "function"
    },
    {
      "inputs": [],
      "name": "symbol",
      "outputs": [
        {
          "internalType": "string",
          "name": "",
          "type": "string"
        }
      ],
      "stateMutability": "view",
      "type": "function"
    },
    {
      "inputs": [],
      "name": "totalSupply",
      "outputs": [
        {
          "internalType": "uint256",
          "name": "",
          "type": "uint256"
        }
      ],
      "stateMutability": "view",
      "type": "function"
    },
    {
      "inputs": [
        {
          "internalType": "address",
          "name": "to",
          "type": "address"
        },
        {
          "internalType": "uint256",
          "name": "value",
          "type": "uint256"
        }
      ],
      "name": "transfer",
      "outputs": [
        {
          "internalType": "bool",
          "name": "",
          "type": "bool"
        }
      ],
      "stateMutability": "nonpayable",
      "type": "function"
    },
    {
      "inputs": [
        {
          "internalType": "address",
          "name": "from",
          "type": "address"
        },
        {
          "internalType": "address",
          "name": "to",
          "type": "address"
        },
        {
          "internalType": "uint256",
          "name": "value",
          "type": "uint256"
        }
      ],
      "name": "transferFrom",
      "outputs": [
        {
          "internalType": "bool",
          "name": "",
          "type": "bool"
        }
      ],
      "stateMutability": "nonpayable",
      "type": "function"
    },
    {
      "stateMutability": "payable",
      "type": "receive"
    }
  ],
  "bytecode": "0x6080604052604051620011b4380380620011b483398101604081905262000026916200010e565b8181600362000036838262000200565b50600462000045828262000200565b5050505050620002c8565b634e487b7160e01b5f52604160045260245ffd5b5f82601f83011262000074575f80fd5b81516001600160401b038082111562000091576200009162000050565b604051601f8301601f19908116603f01168101908282118183101715620000bc57620000bc62000050565b81604052838152602092508683858801011115620000d8575f80fd5b5f91505b83821015620000fb5785820183015181830184015290820190620000dc565b5f93810190920192909252949350505050565b5f806040838503121562000120575f80fd5b82516001600160401b038082111562000137575f80fd5b620001458683870162000064565b935060208501519150808211156200015b575f80fd5b506200016a8582860162000064565b9150509250929050565b600181811c908216806200018957607f821691505b602082108103620001a857634e487b7160e01b5f52602260045260245ffd5b50919050565b601f821115620001fb575f81815260208120601f850160051c81016020861015620001d65750805b601f850160051c820191505b81811015620001f757828155600101620001e2565b5050505b505050565b81516001600160401b038111156200021c576200021c62000050565b62000234816200022d845462000174565b84620001ae565b602080601f8311600181146200026a575f8415620002525750858301515b5f19600386901b1c1916600185901b178555620001f7565b5f85815260208120601f198616915b828110156200029a5788860151825594840194600190910190840162000279565b5085821015620002b857878501515f19600388901b60f8161c191681555b5050505050600190811b01905550565b610ede80620002d65f395ff3fe608060405260043610610134575f3560e01c806370a08231116100a8578063ac9650d81161006d578063ac9650d814610347578063b2331d7d14610373578063cc461d6214610392578063dd62ed3e146103b1578063e047838d146103d0578063efb43b07146103ef575f80fd5b806370a08231146102a2578063861e3d3d146102d657806395d89b41146102f5578063a457c2d714610309578063a9059cbb14610328575f80fd5b8063313ce567116100f9578063313ce567146101ef57806332bc74aa1461020a57806332cadf3c1461022b578063342db7391461023f57806339509351146102645780636855a17814610283575f80fd5b806306fdde031461013f578063095ea7b31461016957806318160ddd1461019857806323b872dd146101b65780632904df29146101d5575f80fd5b3661013b57005b5f80fd5b34801561014a575f80fd5b5061015361040e565b6040516101609190610bad565b60405180910390f35b348015610174575f80fd5b50610188610183366004610bda565b61049e565b6040519015158152602001610160565b3480156101a3575f80fd5b506002545b604051908152602001610160565b3480156101c1575f80fd5b506101886101d0366004610c02565b6104b7565b3480156101e0575f80fd5b50604051338152602001610160565b3480156101fa575f80fd5b5060405160128152602001610160565b348015610215575f80fd5b50610229610224366004610c3b565b6104da565b005b348015610236575f80fd5b506101536104ec565b34801561024a575f80fd5b506101a86e1a185c991a185d0b595e1c1bdcd959608a1b81565b34801561026f575f80fd5b5061018861027e366004610bda565b610529565b34801561028e575f80fd5b5061022961029d366004610c02565b61054a565b3480156102ad575f80fd5b506101a86102bc366004610c8b565b6001600160a01b03165f9081526020819052604090205490565b3480156102e1575f80fd5b506102296102f0366004610c02565b61055a565b348015610300575f80fd5b50610153610565565b348015610314575f80fd5b50610188610323366004610bda565b610574565b348015610333575f80fd5b50610188610342366004610bda565b6105cf565b348015610352575f80fd5b50610366610361366004610ca4565b6105dc565b6040516101609190610d13565b34801561037e575f80fd5b5061022961038d366004610c02565b6106cf565b34801561039d575f80fd5b506102296103ac366004610bda565b6106da565b3480156103bc575f80fd5b506101a86103cb366004610d73565b6106e8565b3480156103db575f80fd5b506102296103ea366004610bda565b610712565b3480156103fa575f80fd5b50610229610409366004610c02565b61071c565b60606003805461041d90610da4565b80601f016020809104026020016040519081016040528092919081815260200182805461044990610da4565b80156104945780601f1061046b57610100808354040283529160200191610494565b820191905f5260205f20905b81548152906001019060200180831161047757829003601f168201915b5050505050905090565b5f336104ab818585610727565b60019150505b92915050565b5f336104c4858285610734565b6104cf858585610791565b506001949350505050565b6104e6848484846107e3565b50505050565b60605f368080601f0160208091040260200160405190810160405280939291908181526020018383808284375f9201919091525092949350505050565b5f336104ab81858561053b83836106e8565b6105459190610df0565b610727565b6105558383836108b5565b505050565b610555838383610727565b60606004805461041d90610da4565b5f338161058182866106e8565b9050838110156105c257604051632983c0c360e21b81526001600160a01b038616600482015260248101829052604481018590526064015b60405180910390fd5b6104cf8286868403610727565b5f336104ab818585610791565b60608167ffffffffffffffff8111156105f7576105f7610e03565b60405190808252806020026020018201604052801561062a57816020015b60608152602001906001900390816106155790505b5090505f5b828110156106c8576106983085858481811061064d5761064d610e17565b905060200281019061065f9190610e2b565b8080601f0160208091040260200160405190810160405280939291908181526020018383808284375f920191909152506109db92505050565b8282815181106106aa576106aa610e17565b602002602001018190525080806106c090610e75565b91505061062f565b5092915050565b610555838383610734565b6106e482826109f1565b5050565b6001600160a01b039182165f90815260016020908152604080832093909416825291909152205490565b6106e48282610a25565b610555838383610791565b61055583838360016107e3565b5f61073f84846106e8565b90505f1981146104e6578181101561078357604051637dc7a0d960e11b81526001600160a01b038416600482015260248101829052604481018390526064016105b9565b6104e684848484035f6107e3565b6001600160a01b0383166107ba57604051634b637e8f60e11b81525f60048201526024016105b9565b6001600160a01b03821661054a5760405163ec442f0560e01b81525f60048201526024016105b9565b6001600160a01b03841661080c5760405163e602df0560e01b81525f60048201526024016105b9565b6001600160a01b03831661083557604051634a1406b160e11b81525f60048201526024016105b9565b6001600160a01b038085165f90815260016020908152604080832093871683529290522082905580156104e657826001600160a01b0316846001600160a01b03167f8c5be1e5ebec7d5bd14f71427d1e84f3dd0314c0f7b2291e5b200ac8c7c3b925846040516108a791815260200190565b60405180910390a350505050565b6001600160a01b0383166108df578060025f8282546108d49190610df0565b9091555061094f9050565b6001600160a01b0383165f90815260208190526040902054818110156109315760405163391434e360e21b81526001600160a01b038516600482015260248101829052604481018390526064016105b9565b6001600160a01b0384165f9081526020819052604090209082900390555b6001600160a01b03821661096b57600280548290039055610989565b6001600160a01b0382165f9081526020819052604090208054820190555b816001600160a01b0316836001600160a01b03167fddf252ad1be2c89b69c2b068fc378daa952ba7f163c4a11628f55a4df523b3ef836040516109ce91815260200190565b60405180910390a3505050565b60606109ea8383610a59610a72565b9392505050565b6001600160a01b038216610a1a5760405163ec442f0560e01b81525f60048201526024016105b9565b6106e45f83836108b5565b6001600160a01b038216610a4e57604051634b637e8f60e11b81525f60048201526024016105b9565b6106e4825f836108b5565b604051630a12f52160e11b815260040160405180910390fd5b60605f80856001600160a01b031685604051610a8e9190610e8d565b5f60405180830381855af49150503d805f8114610ac6576040519150601f19603f3d011682016040523d82523d5f602084013e610acb565b606091505b5091509150610adc86838387610ae6565b9695505050505050565b60608315610b325782515f03610b2b57846001600160a01b03163b5f03610b2b57604051639996b31560e01b81526001600160a01b03861660048201526024016105b9565b5081610b3c565b610b3c8383610b44565b949350505050565b815115610b545781518083602001fd5b610a598163ffffffff16565b5f5b83811015610b7a578181015183820152602001610b62565b50505f910152565b5f8151808452610b99816020860160208601610b60565b601f01601f19169290920160200192915050565b602081525f6109ea6020830184610b82565b80356001600160a01b0381168114610bd5575f80fd5b919050565b5f8060408385031215610beb575f80fd5b610bf483610bbf565b946020939093013593505050565b5f805f60608486031215610c14575f80fd5b610c1d84610bbf565b9250610c2b60208501610bbf565b9150604084013590509250925092565b5f805f8060808587031215610c4e575f80fd5b610c5785610bbf565b9350610c6560208601610bbf565b92506040850135915060608501358015158114610c80575f80fd5b939692955090935050565b5f60208284031215610c9b575f80fd5b6109ea82610bbf565b5f8060208385031215610cb5575f80fd5b823567ffffffffffffffff80821115610ccc575f80fd5b818501915085601f830112610cdf575f80fd5b813581811115610ced575f80fd5b8660208260051b8501011115610d01575f80fd5b60209290920196919550909350505050565b5f602080830181845280855180835260408601915060408160051b87010192508387015f5b82811015610d6657603f19888603018452610d54858351610b82565b94509285019290850190600101610d38565b5092979650505050505050565b5f8060408385031215610d84575f80fd5b610d8d83610bbf565b9150610d9b60208401610bbf565b90509250929050565b600181811c90821680610db857607f821691505b602082108103610dd657634e487b7160e01b5f52602260045260245ffd5b50919050565b634e487b7160e01b5f52601160045260245ffd5b808201808211156104b1576104b1610ddc565b634e487b7160e01b5f52604160045260245ffd5b634e487b7160e01b5f52603260045260245ffd5b5f808335601e19843603018112610e40575f80fd5b83018035915067ffffffffffffffff821115610e5a575f80fd5b602001915036819003821315610e6e575f80fd5b9250929050565b5f60018201610e8657610e86610ddc565b5060010190565b5f8251610e9e818460208701610b60565b919091019291505056fea26469706673582212206340d181afa24096f435781181089fbe6735b6d4fb912597b52fc3a4880384de64736f6c63430008140033",
  "linkReferences": {},
  "deployedLinkReferences": {}
}