{"abi":[{"type":"constructor","inputs":[{"name":"name","type":"string","internalType":"string"},{"name":"symbol","type":"string","internalType":"string"},{"name":"offset","type":"uint96","internalType":"uint96"},{"name":"delegates","type":"address[]","internalType":"address[]"},{"name":"receivers","type":"address[]","internalType":"address[]"},{"name":"amounts","type":"uint96[]","internalType":"uint96[]"}],"stateMutability":"nonpayable"},{"type":"function","name":"CLOCK_MODE","inputs":[],"outputs":[{"name":"","type":"string","internalType":"string"}],"stateMutability":"view"},{"type":"function","name":"approve","inputs":[{"name":"to","type":"address","internalType":"address"},{"name":"tokenId","type":"uint256","internalType":"uint256"}],"outputs":[],"stateMutability":"nonpayable"},{"type":"function","name":"balanceOf","inputs":[{"name":"owner","type":"address","internalType":"address"}],"outputs":[{"name":"","type":"uint256","internalType":"uint256"}],"stateMutability":"view"},{"type":"function","name":"clock","inputs":[],"outputs":[{"name":"","type":"uint48","internalType":"uint48"}],"stateMutability":"view"},{"type":"function","name":"delegate","inputs":[{"name":"delegatee","type":"address","internalType":"address"}],"outputs":[],"stateMutability":"nonpayable"},{"type":"function","name":"delegateBySig","inputs":[{"name":"delegatee","type":"address","internalType":"address"},{"name":"nonce","type":"uint256","internalType":"uint256"},{"name":"expiry","type":"uint256","internalType":"uint256"},{"name":"v","type":"uint8","internalType":"uint8"},{"name":"r","type":"bytes32","internalType":"bytes32"},{"name":"s","type":"bytes32","internalType":"bytes32"}],"outputs":[],"stateMutability":"nonpayable"},{"type":"function","name":"delegates","inputs":[{"name":"account","type":"address","internalType":"address"}],"outputs":[{"name":"","type":"address","internalType":"address"}],"stateMutability":"view"},{"type":"function","name":"eip712Domain","inputs":[],"outputs":[{"name":"fields","type":"bytes1","internalType":"bytes1"},{"name":"name","type":"string","internalType":"string"},{"name":"version","type":"string","internalType":"string"},{"name":"chainId","type":"uint256","internalType":"uint256"},{"name":"verifyingContract","type":"address","internalType":"address"},{"name":"salt","type":"bytes32","internalType":"bytes32"},{"name":"extensions","type":"uint256[]","internalType":"uint256[]"}],"stateMutability":"view"},{"type":"function","name":"getApproved","inputs":[{"name":"tokenId","type":"uint256","internalType":"uint256"}],"outputs":[{"name":"","type":"address","internalType":"address"}],"stateMutability":"view"},{"type":"function","name":"getPastTotalSupply","inputs":[{"name":"timepoint","type":"uint256","internalType":"uint256"}],"outputs":[{"name":"","type":"uint256","internalType":"uint256"}],"stateMutability":"view"},{"type":"function","name":"getPastVotes","inputs":[{"name":"account","type":"address","internalType":"address"},{"name":"timepoint","type":"uint256","internalType":"uint256"}],"outputs":[{"name":"","type":"uint256","internalType":"uint256"}],"stateMutability":"view"},{"type":"function","name":"getVotes","inputs":[{"name":"account","type":"address","internalType":"address"}],"outputs":[{"name":"","type":"uint256","internalType":"uint256"}],"stateMutability":"view"},{"type":"function","name":"isApprovedForAll","inputs":[{"name":"owner","type":"address","internalType":"address"},{"name":"operator","type":"address","internalType":"address"}],"outputs":[{"name":"","type":"bool","internalType":"bool"}],"stateMutability":"view"},{"type":"function","name":"name","inputs":[],"outputs":[{"name":"","type":"string","internalType":"string"}],"stateMutability":"view"},{"type":"function","name":"nonces","inputs":[{"name":"owner","type":"address","internalType":"address"}],"outputs":[{"name":"","type":"uint256","internalType":"uint256"}],"stateMutability":"view"},{"type":"function","name":"ownerOf","inputs":[{"name":"tokenId","type":"uint256","internalType":"uint256"}],"outputs":[{"name":"","type":"address","internalType":"address"}],"stateMutability":"view"},{"type":"function","name":"paused","inputs":[],"outputs":[{"name":"","type":"bool","internalType":"bool"}],"stateMutability":"view"},{"type":"function","name":"safeTransferFrom","inputs":[{"name":"from","type":"address","internalType":"address"},{"name":"to","type":"address","internalType":"address"},{"name":"tokenId","type":"uint256","internalType":"uint256"}],"outputs":[],"stateMutability":"nonpayable"},{"type":"function","name":"safeTransferFrom","inputs":[{"name":"from","type":"address","internalType":"address"},{"name":"to","type":"address","internalType":"address"},{"name":"tokenId","type":"uint256","internalType":"uint256"},{"name":"data","type":"bytes","internalType":"bytes"}],"outputs":[],"stateMutability":"nonpayable"},{"type":"function","name":"setApprovalForAll","inputs":[{"name":"operator","type":"address","internalType":"address"},{"name":"approved","type":"bool","internalType":"bool"}],"outputs":[],"stateMutability":"nonpayable"},{"type":"function","name":"supportsInterface","inputs":[{"name":"interfaceId","type":"bytes4","internalType":"bytes4"}],"outputs":[{"name":"","type":"bool","internalType":"bool"}],"stateMutability":"view"},{"type":"function","name":"symbol","inputs":[],"outputs":[{"name":"","type":"string","internalType":"string"}],"stateMutability":"view"},{"type":"function","name":"tokenURI","inputs":[{"name":"tokenId","type":"uint256","internalType":"uint256"}],"outputs":[{"name":"","type":"string","internalType":"string"}],"stateMutability":"view"},{"type":"function","name":"transferFrom","inputs":[{"name":"from","type":"address","internalType":"address"},{"name":"to","type":"address","internalType":"address"},{"name":"tokenId","type":"uint256","internalType":"uint256"}],"outputs":[],"stateMutability":"nonpayable"},{"type":"event","name":"Approval","inputs":[{"name":"owner","type":"address","indexed":true,"internalType":"address"},{"name":"approved","type":"address","indexed":true,"internalType":"address"},{"name":"tokenId","type":"uint256","indexed":true,"internalType":"uint256"}],"anonymous":false},{"type":"event","name":"ApprovalForAll","inputs":[{"name":"owner","type":"address","indexed":true,"internalType":"address"},{"name":"operator","type":"address","indexed":true,"internalType":"address"},{"name":"approved","type":"bool","indexed":false,"internalType":"bool"}],"anonymous":false},{"type":"event","name":"ConsecutiveTransfer","inputs":[{"name":"fromTokenId","type":"uint256","indexed":true,"internalType":"uint256"},{"name":"toTokenId","type":"uint256","indexed":false,"internalType":"uint256"},{"name":"fromAddress","type":"address","indexed":true,"internalType":"address"},{"name":"toAddress","type":"address","indexed":true,"internalType":"address"}],"anonymous":false},{"type":"event","name":"DelegateChanged","inputs":[{"name":"delegator","type":"address","indexed":true,"internalType":"address"},{"name":"fromDelegate","type":"address","indexed":true,"internalType":"address"},{"name":"toDelegate","type":"address","indexed":true,"internalType":"address"}],"anonymous":false},{"type":"event","name":"DelegateVotesChanged","inputs":[{"name":"delegate","type":"address","indexed":true,"internalType":"address"},{"name":"previousVotes","type":"uint256","indexed":false,"internalType":"uint256"},{"name":"newVotes","type":"uint256","indexed":false,"internalType":"uint256"}],"anonymous":false},{"type":"event","name":"EIP712DomainChanged","inputs":[],"anonymous":false},{"type":"event","name":"Paused","inputs":[{"name":"account","type":"address","indexed":false,"internalType":"address"}],"anonymous":false},{"type":"event","name":"Transfer","inputs":[{"name":"from","type":"address","indexed":true,"internalType":"address"},{"name":"to","type":"address","indexed":true,"internalType":"address"},{"name":"tokenId","type":"uint256","indexed":true,"internalType":"uint256"}],"anonymous":false},{"type":"event","name":"Unpaused","inputs":[{"name":"account","type":"address","indexed":false,"internalType":"address"}],"anonymous":false},{"type":"error","name":"CheckpointUnorderedInsertion","inputs":[]},{"type":"error","name":"ECDSAInvalidSignature","inputs":[]},{"type":"error","name":"ECDSAInvalidSignatureLength","inputs":[{"name":"length","type":"uint256","internalType":"uint256"}]},{"type":"error","name":"ECDSAInvalidSignatureS","inputs":[{"name":"s","type":"bytes32","internalType":"bytes32"}]},{"type":"error","name":"ERC5805FutureLookup","inputs":[{"name":"timepoint","type":"uint256","internalType":"uint256"},{"name":"clock","type":"uint48","internalType":"uint48"}]},{"type":"error","name":"ERC6372InconsistentClock","inputs":[]},{"type":"error","name":"ERC721ExceededMaxBatchMint","inputs":[{"name":"batchSize","type":"uint256","internalType":"uint256"},{"name":"maxBatch","type":"uint256","internalType":"uint256"}]},{"type":"error","name":"ERC721ForbiddenBatchBurn","inputs":[]},{"type":"error","name":"ERC721ForbiddenBatchMint","inputs":[]},{"type":"error","name":"ERC721ForbiddenMint","inputs":[]},{"type":"error","name":"ERC721IncorrectOwner","inputs":[{"name":"sender","type":"address","internalType":"address"},{"name":"tokenId","type":"uint256","internalType":"uint256"},{"name":"owner","type":"address","internalType":"address"}]},{"type":"error","name":"ERC721InsufficientApproval","inputs":[{"name":"operator","type":"address","internalType":"address"},{"name":"tokenId","type":"uint256","internalType":"uint256"}]},{"type":"error","name":"ERC721InvalidApprover","inputs":[{"name":"approver","type":"address","internalType":"address"}]},{"type":"error","name":"ERC721InvalidOperator","inputs":[{"name":"operator","type":"address","internalType":"address"}]},{"type":"error","name":"ERC721InvalidOwner","inputs":[{"name":"owner","type":"address","internalType":"address"}]},{"type":"error","name":"ERC721InvalidReceiver","inputs":[{"name":"receiver","type":"address","internalType":"address"}]},{"type":"error","name":"ERC721InvalidSender","inputs":[{"name":"sender","type":"address","internalType":"address"}]},{"type":"error","name":"ERC721NonexistentToken","inputs":[{"name":"tokenId","type":"uint256","internalType":"uint256"}]},{"type":"error","name":"EnforcedPause","inputs":[]},{"type":"error","name":"ExpectedPause","inputs":[]},{"type":"error","name":"InvalidAccountNonce","inputs":[{"name":"account","type":"address","internalType":"address"},{"name":"currentNonce","type":"uint256","internalType":"uint256"}]},{"type":"error","name":"InvalidShortString","inputs":[]},{"type":"error","name":"SafeCastOverflowedUintDowncast","inputs":[{"name":"bits","type":"uint8","internalType":"uint8"},{"name":"value","type":"uint256","internalType":"uint256"}]},{"type":"error","name":"StringTooLong","inputs":[{"name":"str","type":"string","internalType":"string"}]},{"type":"error","name":"VotesExpiredSignature","inputs":[{"name":"expiry","type":"uint256","internalType":"uint256"}]}],"bytecode":{"object":"0x61018060405234801561001157600080fd5b5060405161384738038061384783398101604081905261003091610ef9565b6040805180820190915260018152603160f81b6020820152869081876000610058838261107e565b506001610065828261107e565b50506008805460ff191690555061007d8260096101ea565b6101205261008c81600a6101ea565b61014052815160208084019190912060e052815190820120610100524660a05261011960e05161010051604080517f8b73c3c69bb8fe3d512ecc4cf759cc79239f7b179b0ffacaa9a75d522b39400f60208201529081019290925260608201524660808201523060a082015260009060c00160405160208183030381529060405280519060200120905090565b60805250503060c0526001600160601b0384166101605260005b83518110156101865761017e8482815181106101515761015161113c565b602002602001015185838151811061016b5761016b61113c565b602002602001015161021d60201b60201c565b600101610133565b5060005b82518110156101de576101d58382815181106101a8576101a861113c565b60200260200101518383815181106101c2576101c261113c565b602002602001015161029460201b60201c565b5060010161018a565b50505050505050611261565b6000602083511015610206576101ff83610404565b9050610217565b81610211848261107e565b5060ff90505b92915050565b6001600160a01b038281166000818152600c602052604080822080548686166001600160a01b0319821681179092559151919094169392849290917f3134e8a2e6d97e929a7e54011ea5485d7d196dd5f0ba4d4ef95803e8e3fc257f9190a461028f818361028a86610442565b61044d565b505050565b60008061029f6105a7565b90506001600160601b038316156103fd57303b156102d0576040516329cfc83160e11b815260040160405180910390fd5b6001600160a01b0384166102ff57604051633250574960e11b8152600060048201526024015b60405180910390fd5b6113886001600160601b03841681101561033e576040516308f58e5760e41b81526001600160601b0385166004820152602481018290526044016102f6565b6103576000866001600160601b038086169088166105da565b600060016103658685611168565b61036f9190611187565b905061037d600682886105ec565b506103939050866001600160601b038716610607565b6040516001600160601b0382811682526001600160a01b038816916000918616907fdeaa91b6123d068f5821d0fb0678463d1a8a6079fe8af5de3ce5e896dcf9133d9060200160405180910390a46103fa6000876001600160601b03808716908916610638565b50505b9392505050565b600080829050601f8151111561042f578260405163305a27a960e01b81526004016102f691906111a6565b805161043a826111d9565b179392505050565b600061021782610644565b816001600160a01b0316836001600160a01b03161415801561046f5750600081115b1561028f576001600160a01b0383161561050e576001600160a01b0383166000908152600d60209081526040822082916104bb919061068c901b6109a8176104b686610698565b6106d0565b6001600160e01b031691506001600160e01b03169150846001600160a01b03166000805160206138278339815191528383604051610503929190918252602082015260400190565b60405180910390a250505b6001600160a01b0382161561028f576001600160a01b0382166000908152600d60209081526040822082916105509190610709901b6109b4176104b686610698565b6001600160e01b031691506001600160e01b03169150836001600160a01b03166000805160206138278339815191528383604051610598929190918252602082015260400190565b60405180910390a25050505050565b600080806105b56006610715565b5091509150816105c857610160516105d3565b6105d3816001611168565b9250505090565b6105e6848484846107a7565b50505050565b6000806105fa8585856107af565b915091505b935093915050565b6001600160a01b0382166000908152600360205260408120805483929061062f9084906111fd565b90915550505050565b6105e684848484610952565b60006001600160a01b038216610670576040516322718ad960e21b8152600060048201526024016102f6565b506001600160a01b031660009081526003602052604090205490565b60006103fd8284611210565b60006001600160e01b038211156106cc576040516306dfcc6560e41b815260e06004820152602481018390526044016102f6565b5090565b6000806105fa6106ee6106e1610969565b65ffffffffffff16610979565b6107016106fa886109aa565b868860201c565b8791906109e4565b60006103fd828461122f565b805460009081908190808203610736576000806000935093509350506107a0565b60006107558661074760018561124e565b600091825260209091200190565b6040805180820190915290546001600160601b0381168083526c010000000000000000000000009091046001600160a01b0316602090920182905260019650945092506107a0915050565b9193909250565b6105e66109f2565b8254600090819080156108ed5760006107cd8761074760018561124e565b6040805180820190915290546001600160601b038082168084526c010000000000000000000000009092046001600160a01b03166020840152919250908716101561082b57604051632520601d60e01b815260040160405180910390fd5b80516001600160601b03808816911603610882578461084f8861074760018661124e565b80546001600160a01b03929092166c01000000000000000000000000026001600160601b039092169190911790556108dd565b604080518082019091526001600160601b0380881682526001600160a01b0380881660208085019182528b54600181018d5560008d815291909120945191519092166c01000000000000000000000000029216919091179101555b6020015192508391506105ff9050565b5050604080518082019091526001600160601b0380851682526001600160a01b0380851660208085019182528854600181018a5560008a8152918220955192519093166c010000000000000000000000000291909316179201919091559050816105ff565b61095d848483610a18565b6105e684848484610a9c565b600061097443610b58565b905090565b600063ffffffff8211156106cc576040516306dfcc6560e41b815260206004820152602481018390526044016102f6565b805460009080156109db576109c48361074760018461124e565b5464010000000090046001600160e01b03166103fd565b60009392505050565b6000806105fa858585610b8b565b60085460ff1615610a165760405163d93c066560e01b815260040160405180910390fd5b565b6001600160a01b038316610a4157610a3e600e6109b461070960201b176104b684610698565b50505b6001600160a01b038216610a6a57610a67600e6109a861068c60201b176104b684610698565b50505b6001600160a01b038381166000908152600c602052604080822054858416835291205461028f9291821691168361044d565b6001600160a01b038316158015610abf5750610160516001600160601b03168210155b8015610ada5750610ace6105a7565b6001600160601b031682105b8015610aff5750600882901c600090815260076020526040902054600160ff84161b16155b15610b455780600114610b2557604051631d08916560e01b815260040160405180910390fd5b600882901c60009081526007602052604090208054600160ff85161b1790555b6105e6848484846001600160e01b038516565b600065ffffffffffff8211156106cc576040516306dfcc6560e41b815260306004820152602481018390526044016102f6565b825460009081908015610ca4576000610ba98761074760018561124e565b60408051808201909152905463ffffffff8082168084526401000000009092046001600160e01b031660208401529192509087161015610bfc57604051632520601d60e01b815260040160405180910390fd5b805163ffffffff808816911603610c455784610c1d8861074760018661124e565b80546001600160e01b03929092166401000000000263ffffffff9092169190911790556108dd565b6040805180820190915263ffffffff80881682526001600160e01b0380881660208085019182528b54600181018d5560008d81529190912094519151909216640100000000029216919091179101556020015192508391506105ff9050565b50506040805180820190915263ffffffff80851682526001600160e01b0380851660208085019182528854600181018a5560008a8152918220955192519093166401000000000291909316179201919091559050816105ff565b634e487b7160e01b600052604160045260246000fd5b604051601f8201601f191681016001600160401b0381118282101715610d3c57610d3c610cfe565b604052919050565b60005b83811015610d5f578181015183820152602001610d47565b50506000910152565b600082601f830112610d7957600080fd5b81516001600160401b03811115610d9257610d92610cfe565b610da5601f8201601f1916602001610d14565b818152846020838601011115610dba57600080fd5b610dcb826020830160208701610d44565b949350505050565b80516001600160601b0381168114610dea57600080fd5b919050565b60006001600160401b03821115610e0857610e08610cfe565b5060051b60200190565b600082601f830112610e2357600080fd5b8151610e36610e3182610def565b610d14565b8082825260208201915060208360051b860101925085831115610e5857600080fd5b602085015b83811015610e8a5780516001600160a01b0381168114610e7c57600080fd5b835260209283019201610e5d565b5095945050505050565b600082601f830112610ea557600080fd5b8151610eb3610e3182610def565b8082825260208201915060208360051b860101925085831115610ed557600080fd5b602085015b83811015610e8a57610eeb81610dd3565b835260209283019201610eda565b60008060008060008060c08789031215610f1257600080fd5b86516001600160401b03811115610f2857600080fd5b610f3489828a01610d68565b602089015190975090506001600160401b03811115610f5257600080fd5b610f5e89828a01610d68565b955050610f6d60408801610dd3565b60608801519094506001600160401b03811115610f8957600080fd5b610f9589828a01610e12565b608089015190945090506001600160401b03811115610fb357600080fd5b610fbf89828a01610e12565b60a089015190935090506001600160401b03811115610fdd57600080fd5b610fe989828a01610e94565b9150509295509295509295565b600181811c9082168061100a57607f821691505b60208210810361102a57634e487b7160e01b600052602260045260246000fd5b50919050565b601f82111561028f57806000526020600020601f840160051c810160208510156110575750805b601f840160051c820191505b818110156110775760008155600101611063565b5050505050565b81516001600160401b0381111561109757611097610cfe565b6110ab816110a58454610ff6565b84611030565b6020601f8211600181146110df57600083156110c75750848201515b600019600385901b1c1916600184901b178455611077565b600084815260208120601f198516915b8281101561110f57878501518255602094850194600190920191016110ef565b508482101561112d5786840151600019600387901b60f8161c191681555b50505050600190811b01905550565b634e487b7160e01b600052603260045260246000fd5b634e487b7160e01b600052601160045260246000fd5b6001600160601b03818116838216019081111561021757610217611152565b6001600160601b03828116828216039081111561021757610217611152565b60208152600082518060208401526111c5816040850160208701610d44565b601f01601f19169190910160400192915050565b8051602080830151919081101561102a5760001960209190910360031b1b16919050565b8082018082111561021757610217611152565b6001600160e01b03828116828216039081111561021757610217611152565b6001600160e01b03818116838216019081111561021757610217611152565b8181038181111561021757610217611152565b60805160a05160c05160e051610100516101205161014051610160516125536112d4600039600081816113fa01528181611c380152611da001526000610e1701526000610dea015260006116ef015260006116c7015260006116220152600061164c0152600061167601526125536000f3fe608060405234801561001057600080fd5b50600436106101585760003560e01c806370a08231116100c35780639ab24eb01161007c5780639ab24eb014610317578063a22cb4651461032a578063b88d4fde1461033d578063c3cda52014610350578063c87b56dd14610363578063e985e9c51461037657600080fd5b806370a08231146102865780637ecebe001461029957806384b0196e146102c25780638e539e8c146102dd57806391ddadf4146102f057806395d89b411461030f57600080fd5b806342842e0e1161011557806342842e0e1461020e5780634bf5d7e914610221578063587cde1e146102295780635c19a95c146102555780635c975abb146102685780636352211e1461027357600080fd5b806301ffc9a71461015d57806306fdde0314610185578063081812fc1461019a578063095ea7b3146101c557806323b872dd146101da5780633a46b1a8146101ed575b600080fd5b61017061016b366004611fdb565b6103b2565b60405190151581526020015b60405180910390f35b61018d610404565b60405161017c9190612048565b6101ad6101a836600461205b565b610496565b6040516001600160a01b03909116815260200161017c565b6101d86101d3366004612090565b6104bd565b005b6101d86101e83660046120ba565b61055b565b6102006101fb366004612090565b610596565b60405190815260200161017c565b6101d861021c3660046120ba565b610617565b61018d610632565b6101ad6102373660046120f7565b6001600160a01b039081166000908152600c60205260409020541690565b6101d86102633660046120f7565b61069b565b60085460ff16610170565b6101ad61028136600461205b565b6106aa565b6102006102943660046120f7565b6106e2565b6102006102a73660046120f7565b6001600160a01b03166000908152600b602052604090205490565b6102ca61072a565b60405161017c9796959493929190612112565b6102006102eb36600461205b565b610770565b6102f86107da565b60405165ffffffffffff909116815260200161017c565b61018d6107ea565b6102006103253660046120f7565b6107f9565b6101d86103383660046121aa565b610829565b6101d861034b3660046121fc565b610834565b6101d861035e3660046122e0565b610876565b61018d61037136600461205b565b610934565b610170610384366004612340565b6001600160a01b03918216600090815260056020908152604080832093909416825291909152205460ff1690565b60006001600160e01b031982166380ac58cd60e01b14806103e357506001600160e01b03198216635b5e139f60e01b145b806103fe57506301ffc9a760e01b6001600160e01b03198316145b92915050565b60606000805461041390612373565b80601f016020809104026020016040519081016040528092919081815260200182805461043f90612373565b801561048c5780601f106104615761010080835404028352916020019161048c565b820191906000526020600020905b81548152906001019060200180831161046f57829003601f168201915b5050505050905090565b60006104a1826109c0565b506000908152600460205260409020546001600160a01b031690565b60006104c8826106aa565b9050806001600160a01b0316836001600160a01b03160361050c57604051630b61174360e31b81526001600160a01b03821660048201526024015b60405180910390fd5b336001600160a01b0382161480159061052c575061052a8133610384565b155b1561054c5760405163a9fbf51f60e01b8152336004820152602401610503565b61055683836109ec565b505050565b6105653382610a5a565b61058b5760405163177e802f60e01b815233600482015260248101829052604401610503565b610556838383610ad9565b6000806105a16107da565b90508065ffffffffffff1683106105dc57604051637669fc0f60e11b81526004810184905265ffffffffffff82166024820152604401610503565b6106066105e884610c7c565b6001600160a01b0386166000908152600d6020526040902090610cb1565b6001600160e01b0316949350505050565b61055683838360405180602001604052806000815250610834565b60604361063d6107da565b65ffffffffffff1614610663576040516301bfc1c560e61b815260040160405180910390fd5b5060408051808201909152601d81527f6d6f64653d626c6f636b6e756d6265722666726f6d3d64656661756c74000000602082015290565b336106a68183610d66565b5050565b6000806106b683610dd8565b90506001600160a01b0381166103fe57604051637e27328960e01b815260048101849052602401610503565b60006001600160a01b03821661070e576040516322718ad960e21b815260006004820152602401610503565b506001600160a01b031660009081526003602052604090205490565b60006060806000806000606061073e610de3565b610746610e10565b60408051600080825260208201909252600f60f81b9b939a50919850469750309650945092509050565b60008061077b6107da565b90508065ffffffffffff1683106107b657604051637669fc0f60e11b81526004810184905265ffffffffffff82166024820152604401610503565b6107ca6107c284610c7c565b600e90610cb1565b6001600160e01b03169392505050565b60006107e543610e3d565b905090565b60606001805461041390612373565b6001600160a01b0381166000908152600d6020526040812061081a90610e70565b6001600160e01b031692915050565b6106a6338383610eaa565b61083e3383610a5a565b6108645760405163177e802f60e01b815233600482015260248101839052604401610503565b61087084848484610f54565b50505050565b8342111561089a57604051632341d78760e11b815260048101859052602401610503565b604080517fe48329057bfd03d55e49b547132e39cffd9c1820ad7b9d4c5307691425d15adf60208201526001600160a01b0388169181019190915260608101869052608081018590526000906109149061090c9060a00160405160208183030381529060405280519060200120610f93565b858585610fc0565b90506109208187610fee565b5061092b8188610d66565b50505050505050565b606061093f826109c0565b600061095660408051602081019091526000815290565b9050600081511161097657604051806020016040528060008152506109a1565b8061098084611041565b6040516020016109919291906123ad565b6040516020818303038152906040525b9392505050565b60006109a182846123f2565b60006109a18284612411565b6109c9816110d4565b6109e957604051637e27328960e01b815260048101829052602401610503565b50565b600081815260046020526040902080546001600160a01b0319166001600160a01b0384169081179091558190610a21826106aa565b6001600160a01b03167f8c5be1e5ebec7d5bd14f71427d1e84f3dd0314c0f7b2291e5b200ac8c7c3b92560405160405180910390a45050565b600080610a66836106aa565b9050806001600160a01b0316846001600160a01b03161480610aad57506001600160a01b0380821660009081526005602090815260408083209388168352929052205460ff165b80610ad15750836001600160a01b0316610ac684610496565b6001600160a01b0316145b949350505050565b6000610ae4826106aa565b9050836001600160a01b0316816001600160a01b031614610b32576040516364283d7b60e01b81526001600160a01b0380861660048301526024820184905282166044820152606401610503565b6001600160a01b038316610b5c57604051633250574960e11b815260006004820152602401610503565b610b6984848460016110f1565b610b72826106aa565b9050836001600160a01b0316816001600160a01b031614610bc0576040516364283d7b60e01b81526001600160a01b0380861660048301526024820184905282166044820152606401610503565b600082815260046020908152604080832080546001600160a01b03191690556001600160a01b038716835260039091528120805460019290610c03908490612430565b90915550506001600160a01b03808416600081815260036020908152604080832080546001019055868352600290915280822080546001600160a01b031916841790555185938816917fddf252ad1be2c89b69c2b068fc378daa952ba7f163c4a11628f55a4df523b3ef91a461087084848460016110fd565b600063ffffffff821115610cad576040516306dfcc6560e41b81526020600482015260248101839052604401610503565b5090565b815460009081816005811115610d0e576000610ccc84611109565b610cd69085612430565b60008881526020902090915081015463ffffffff9081169087161015610cfe57809150610d0c565b610d09816001612443565b92505b505b6000610d1c878785856111f1565b90508015610d5857610d4187610d33600184612430565b600091825260209091200190565b5464010000000090046001600160e01b0316610d5b565b60005b979650505050505050565b6001600160a01b038281166000818152600c602052604080822080548686166001600160a01b0319821681179092559151919094169392849290917f3134e8a2e6d97e929a7e54011ea5485d7d196dd5f0ba4d4ef95803e8e3fc257f9190a46105568183610dd38661124f565b61125a565b60006103fe826113c6565b60606107e57f00000000000000000000000000000000000000000000000000000000000000006009611460565b60606107e57f0000000000000000000000000000000000000000000000000000000000000000600a611460565b600065ffffffffffff821115610cad576040516306dfcc6560e41b81526030600482015260248101839052604401610503565b80546000908015610ea157610e8a83610d33600184612430565b5464010000000090046001600160e01b03166109a1565b60009392505050565b816001600160a01b0316836001600160a01b031603610ee757604051630b61174360e31b81526001600160a01b0384166004820152602401610503565b6001600160a01b03838116600081815260056020908152604080832094871680845294825291829020805460ff191686151590811790915591519182527f17307eab39ab6107e8899845ad3d59bd9653f200f220920489ca2b5937696c31910160405180910390a3505050565b610f5f848484610ad9565b610f6b8484848461150b565b61087057604051633250574960e11b81526001600160a01b0384166004820152602401610503565b60006103fe610fa0611615565b8360405161190160f01b8152600281019290925260228201526042902090565b600080600080610fd288888888611740565b925092509250610fe2828261180f565b50909695505050505050565b6001600160a01b0382166000908152600b602052604081208054600181019091558083146109a1576040516301d4b62360e61b81526001600160a01b038516600482015260248101829052604401610503565b6060600061104e836118c8565b600101905060008167ffffffffffffffff81111561106e5761106e6121e6565b6040519080825280601f01601f191660200182016040528015611098576020820181803683370190505b5090508181016020015b600019016f181899199a1a9b1b9c1cb0b131b232b360811b600a86061a8153600a85049450846110a257509392505050565b6000806110e083610dd8565b6001600160a01b0316141592915050565b610870848484846119a0565b610870848484846119a8565b60008160000361111b57506000919050565b60006001611128846119bf565b901c6001901b9050600181848161114157611141612456565b048201901c9050600181848161115957611159612456565b048201901c9050600181848161117157611171612456565b048201901c9050600181848161118957611189612456565b048201901c905060018184816111a1576111a1612456565b048201901c905060018184816111b9576111b9612456565b048201901c905060018184816111d1576111d1612456565b048201901c90506109a1818285816111eb576111eb612456565b04611a53565b60005b818310156112475760006112088484611a69565b60008781526020902090915063ffffffff86169082015463ffffffff16111561123357809250611241565b61123e816001612443565b93505b506111f4565b509392505050565b60006103fe826106e2565b816001600160a01b0316836001600160a01b03161415801561127c5750600081115b15610556576001600160a01b03831615611324576001600160a01b0383166000908152600d6020526040812081906112bf906109a86112ba86611a84565b611ab8565b6001600160e01b031691506001600160e01b03169150846001600160a01b03167fdec2bacdd2f05b59de34da9b523dff8be42e5e38e818c82fdb0bae774387a7248383604051611319929190918252602082015260400190565b60405180910390a250505b6001600160a01b03821615610556576001600160a01b0382166000908152600d60205260408120819061135d906109b46112ba86611a84565b6001600160e01b031691506001600160e01b03169150836001600160a01b03167fdec2bacdd2f05b59de34da9b523dff8be42e5e38e818c82fdb0bae774387a72483836040516113b7929190918252602082015260400190565b60405180910390a25050505050565b6000818152600260205260408120546001600160a01b0316801515806113f257506001600160601b0383115b8061142557507f00000000000000000000000000000000000000000000000000000000000000006001600160601b031683105b156114305792915050565b600883901c600090815260076020526040902054600160ff85161b16610ea15761145b600684611b01565b6109a1565b606060ff831461147a5761147383611b49565b90506103fe565b81805461148690612373565b80601f01602080910402602001604051908101604052809291908181526020018280546114b290612373565b80156114ff5780601f106114d4576101008083540402835291602001916114ff565b820191906000526020600020905b8154815290600101906020018083116114e257829003601f168201915b505050505090506103fe565b60006001600160a01b0384163b1561160d57604051630a85bd0160e11b81526001600160a01b0385169063150b7a029061154f90339089908890889060040161246c565b6020604051808303816000875af192505050801561158a575060408051601f3d908101601f19168201909252611587918101906124a9565b60015b6115f3573d8080156115b8576040519150601f19603f3d011682016040523d82523d6000602084013e6115bd565b606091505b5080516000036115eb57604051633250574960e11b81526001600160a01b0386166004820152602401610503565b805181602001fd5b6001600160e01b031916630a85bd0160e11b149050610ad1565b506001610ad1565b6000306001600160a01b037f00000000000000000000000000000000000000000000000000000000000000001614801561166e57507f000000000000000000000000000000000000000000000000000000000000000046145b1561169857507f000000000000000000000000000000000000000000000000000000000000000090565b6107e5604080517f8b73c3c69bb8fe3d512ecc4cf759cc79239f7b179b0ffacaa9a75d522b39400f60208201527f0000000000000000000000000000000000000000000000000000000000000000918101919091527f000000000000000000000000000000000000000000000000000000000000000060608201524660808201523060a082015260009060c00160405160208183030381529060405280519060200120905090565b600080807f7fffffffffffffffffffffffffffffff5d576e7357a4501ddfe92f46681b20a084111561177b5750600091506003905082611805565b604080516000808252602082018084528a905260ff891692820192909252606081018790526080810186905260019060a0016020604051602081039080840390855afa1580156117cf573d6000803e3d6000fd5b5050604051601f1901519150506001600160a01b0381166117fb57506000925060019150829050611805565b9250600091508190505b9450945094915050565b6000826003811115611823576118236124c6565b0361182c575050565b6001826003811115611840576118406124c6565b0361185e5760405163f645eedf60e01b815260040160405180910390fd5b6002826003811115611872576118726124c6565b036118935760405163fce698f760e01b815260048101829052602401610503565b60038260038111156118a7576118a76124c6565b036106a6576040516335e2f38360e21b815260048101829052602401610503565b60008072184f03e93ff9f4daa797ed6e38ed64bf6a1f0160401b83106119075772184f03e93ff9f4daa797ed6e38ed64bf6a1f0160401b830492506040015b6d04ee2d6d415b85acef81000000008310611933576d04ee2d6d415b85acef8100000000830492506020015b662386f26fc10000831061195157662386f26fc10000830492506010015b6305f5e1008310611969576305f5e100830492506008015b612710831061197d57612710830492506004015b6064831061198f576064830492506002015b600a83106103fe5760010192915050565b610870611b88565b6119b3848483611bae565b61087084848484611c24565b600080608083901c156119d457608092831c92015b604083901c156119e657604092831c92015b602083901c156119f857602092831c92015b601083901c15611a0a57601092831c92015b600883901c15611a1c57600892831c92015b600483901c15611a2e57600492831c92015b600283901c15611a4057600292831c92015b600183901c156103fe5760010192915050565b6000818310611a6257816109a1565b5090919050565b6000611a7860028484186124dc565b6109a190848416612443565b60006001600160e01b03821115610cad576040516306dfcc6560e41b815260e0600482015260248101839052604401610503565b600080611af4611ad6611ac96107da565b65ffffffffffff16610c7c565b611aec611ae288610e70565b868863ffffffff16565b879190611cf3565b915091505b935093915050565b815460009081611b1385858385611d01565b9050818114611b3d57600085815260209020810154600160601b90046001600160a01b0316611b40565b60005b95945050505050565b60606000611b5683611d5d565b604080516020808252818301909252919250600091906020820181803683375050509182525060208101929092525090565b60085460ff1615611bac5760405163d93c066560e01b815260040160405180910390fd5b565b6001600160a01b038316611bd057611bcd600e6109b46112ba84611a84565b50505b6001600160a01b038216611bf257611bef600e6109a86112ba84611a84565b50505b6001600160a01b038381166000908152600c60205260408082205485841683529120546105569291821691168361125a565b6001600160a01b038316158015611c6457507f00000000000000000000000000000000000000000000000000000000000000006001600160601b03168210155b8015611c7f5750611c73611d85565b6001600160601b031682105b8015611ca45750600882901c600090815260076020526040902054600160ff84161b16155b15611cee5780600114611cca57604051631d08916560e01b815260040160405180910390fd5b600882901c60009081526007602052604090208054600160ff85161b179055610870565b610870565b600080611af4858585611dd6565b60005b81831015611247576000611d188484611a69565b6000878152602090209091506001600160601b038616908201546001600160601b03161015611d5357611d4c816001612443565b9350611d57565b8092505b50611d04565b600060ff8216601f8111156103fe57604051632cd44ac360e21b815260040160405180910390fd5b6000806000611d946006611f4a565b509150915081611dc4577f0000000000000000000000000000000000000000000000000000000000000000611dcf565b611dcf8160016124fe565b9250505090565b825460009081908015611ef0576000611df487610d33600185612430565b60408051808201909152905463ffffffff8082168084526401000000009092046001600160e01b031660208401529192509087161015611e4757604051632520601d60e01b815260040160405180910390fd5b805163ffffffff808816911603611e905784611e6888610d33600186612430565b80546001600160e01b03929092166401000000000263ffffffff909216919091179055611ee0565b6040805180820190915263ffffffff80881682526001600160e01b0380881660208085019182528b54600181018d5560008d81529190912094519151909216640100000000029216919091179101555b602001519250839150611af99050565b50506040805180820190915263ffffffff80851682526001600160e01b0380851660208085019182528854600181018a5560008a815291822095519251909316640100000000029190931617920191909155905081611af9565b805460009081908190808203611f6b57600080600093509350935050611fbe565b6000611f7c86610d33600185612430565b6040805180820190915290546001600160601b038116808352600160601b9091046001600160a01b031660209092018290526001965094509250611fbe915050565b9193909250565b6001600160e01b0319811681146109e957600080fd5b600060208284031215611fed57600080fd5b81356109a181611fc5565b60005b83811015612013578181015183820152602001611ffb565b50506000910152565b60008151808452612034816020860160208601611ff8565b601f01601f19169290920160200192915050565b6020815260006109a1602083018461201c565b60006020828403121561206d57600080fd5b5035919050565b80356001600160a01b038116811461208b57600080fd5b919050565b600080604083850312156120a357600080fd5b6120ac83612074565b946020939093013593505050565b6000806000606084860312156120cf57600080fd5b6120d884612074565b92506120e660208501612074565b929592945050506040919091013590565b60006020828403121561210957600080fd5b6109a182612074565b60ff60f81b8816815260e06020820152600061213160e083018961201c565b8281036040840152612143818961201c565b606084018890526001600160a01b038716608085015260a0840186905283810360c08501528451808252602080870193509091019060005b8181101561219957835183526020938401939092019160010161217b565b50909b9a5050505050505050505050565b600080604083850312156121bd57600080fd5b6121c683612074565b9150602083013580151581146121db57600080fd5b809150509250929050565b634e487b7160e01b600052604160045260246000fd5b6000806000806080858703121561221257600080fd5b61221b85612074565b935061222960208601612074565b925060408501359150606085013567ffffffffffffffff81111561224c57600080fd5b8501601f8101871361225d57600080fd5b803567ffffffffffffffff811115612277576122776121e6565b604051601f8201601f19908116603f0116810167ffffffffffffffff811182821017156122a6576122a66121e6565b6040528181528282016020018910156122be57600080fd5b8160208401602083013760006020838301015280935050505092959194509250565b60008060008060008060c087890312156122f957600080fd5b61230287612074565b95506020870135945060408701359350606087013560ff8116811461232657600080fd5b9598949750929560808101359460a0909101359350915050565b6000806040838503121561235357600080fd5b61235c83612074565b915061236a60208401612074565b90509250929050565b600181811c9082168061238757607f821691505b6020821081036123a757634e487b7160e01b600052602260045260246000fd5b50919050565b600083516123bf818460208801611ff8565b8351908301906123d3818360208801611ff8565b01949350505050565b634e487b7160e01b600052601160045260246000fd5b6001600160e01b0382811682821603908111156103fe576103fe6123dc565b6001600160e01b0381811683821601908111156103fe576103fe6123dc565b818103818111156103fe576103fe6123dc565b808201808211156103fe576103fe6123dc565b634e487b7160e01b600052601260045260246000fd5b6001600160a01b038581168252841660208201526040810183905260806060820181905260009061249f9083018461201c565b9695505050505050565b6000602082840312156124bb57600080fd5b81516109a181611fc5565b634e487b7160e01b600052602160045260246000fd5b6000826124f957634e487b7160e01b600052601260045260246000fd5b500490565b6001600160601b0381811683821601908111156103fe576103fe6123dc56fea2646970667358221220062884aa2918b0cb6a3c67dbd9c8c3c210461692fb697f5d3d7153356a1338cc64736f6c634300081b0033dec2bacdd2f05b59de34da9b523dff8be42e5e38e818c82fdb0bae774387a724","linkReferences":{}},"methodIdentifiers":{"CLOCK_MODE()":"4bf5d7e9","approve(address,uint256)":"095ea7b3","balanceOf(address)":"70a08231","clock()":"91ddadf4","delegate(address)":"5c19a95c","delegateBySig(address,uint256,uint256,uint8,bytes32,bytes32)":"c3cda520","delegates(address)":"587cde1e","eip712Domain()":"84b0196e","getApproved(uint256)":"081812fc","getPastTotalSupply(uint256)":"8e539e8c","getPastVotes(address,uint256)":"3a46b1a8","getVotes(address)":"9ab24eb0","isApprovedForAll(address,address)":"e985e9c5","name()":"06fdde03","nonces(address)":"7ecebe00","ownerOf(uint256)":"6352211e","paused()":"5c975abb","safeTransferFrom(address,address,uint256)":"42842e0e","safeTransferFrom(address,address,uint256,bytes)":"b88d4fde","setApprovalForAll(address,bool)":"a22cb465","supportsInterface(bytes4)":"01ffc9a7","symbol()":"95d89b41","tokenURI(uint256)":"c87b56dd","transferFrom(address,address,uint256)":"23b872dd"},"id":121}