{
  "_format": "hh-sol-artifact-1",
  "contractName": "$ERC721Votes",
  "sourceName": "contracts-exposed/token/ERC721/extensions/ERC721Votes.sol",
  "abi": [
    {
      "inputs": [
        {
          "internalType": "string",
          "name": "name_",
          "type": "string"
        },
        {
          "internalType": "string",
          "name": "symbol_",
          "type": "string"
        },
        {
          "internalType": "string",
          "name": "name",
          "type": "string"
        },
        {
          "internalType": "string",
          "name": "version",
          "type": "string"
        }
      ],
      "stateMutability": "payable",
      "type": "constructor"
    },
    {
      "inputs": [],
      "name": "CheckpointUnorderedInsertion",
      "type": "error"
    },
    {
      "inputs": [],
      "name": "ECDSAInvalidSignature",
      "type": "error"
    },
    {
      "inputs": [
        {
          "internalType": "uint256",
          "name": "length",
          "type": "uint256"
        }
      ],
      "name": "ECDSAInvalidSignatureLength",
      "type": "error"
    },
    {
      "inputs": [
        {
          "internalType": "bytes32",
          "name": "s",
          "type": "bytes32"
        }
      ],
      "name": "ECDSAInvalidSignatureS",
      "type": "error"
    },
    {
      "inputs": [
        {
          "internalType": "uint256",
          "name": "timepoint",
          "type": "uint256"
        },
        {
          "internalType": "uint48",
          "name": "clock",
          "type": "uint48"
        }
      ],
      "name": "ERC5805FutureLookup",
      "type": "error"
    },
    {
      "inputs": [],
      "name": "ERC6372InconsistentClock",
      "type": "error"
    },
    {
      "inputs": [
        {
          "internalType": "address",
          "name": "sender",
          "type": "address"
        },
        {
          "internalType": "uint256",
          "name": "tokenId",
          "type": "uint256"
        },
        {
          "internalType": "address",
          "name": "owner",
          "type": "address"
        }
      ],
      "name": "ERC721IncorrectOwner",
      "type": "error"
    },
    {
      "inputs": [
        {
          "internalType": "address",
          "name": "operator",
          "type": "address"
        },
        {
          "internalType": "uint256",
          "name": "tokenId",
          "type": "uint256"
        }
      ],
      "name": "ERC721InsufficientApproval",
      "type": "error"
    },
    {
      "inputs": [
        {
          "internalType": "address",
          "name": "approver",
          "type": "address"
        }
      ],
      "name": "ERC721InvalidApprover",
      "type": "error"
    },
    {
      "inputs": [
        {
          "internalType": "address",
          "name": "operator",
          "type": "address"
        }
      ],
      "name": "ERC721InvalidOperator",
      "type": "error"
    },
    {
      "inputs": [
        {
          "internalType": "address",
          "name": "owner",
          "type": "address"
        }
      ],
      "name": "ERC721InvalidOwner",
      "type": "error"
    },
    {
      "inputs": [
        {
          "internalType": "address",
          "name": "receiver",
          "type": "address"
        }
      ],
      "name": "ERC721InvalidReceiver",
      "type": "error"
    },
    {
      "inputs": [
        {
          "internalType": "address",
          "name": "sender",
          "type": "address"
        }
      ],
      "name": "ERC721InvalidSender",
      "type": "error"
    },
    {
      "inputs": [
        {
          "internalType": "uint256",
          "name": "tokenId",
          "type": "uint256"
        }
      ],
      "name": "ERC721NonexistentToken",
      "type": "error"
    },
    {
      "inputs": [
        {
          "internalType": "address",
          "name": "account",
          "type": "address"
        },
        {
          "internalType": "uint256",
          "name": "currentNonce",
          "type": "uint256"
        }
      ],
      "name": "InvalidAccountNonce",
      "type": "error"
    },
    {
      "inputs": [],
      "name": "InvalidShortString",
      "type": "error"
    },
    {
      "inputs": [
        {
          "internalType": "uint8",
          "name": "bits",
          "type": "uint8"
        },
        {
          "internalType": "uint256",
          "name": "value",
          "type": "uint256"
        }
      ],
      "name": "SafeCastOverflowedUintDowncast",
      "type": "error"
    },
    {
      "inputs": [
        {
          "internalType": "string",
          "name": "str",
          "type": "string"
        }
      ],
      "name": "StringTooLong",
      "type": "error"
    },
    {
      "inputs": [
        {
          "internalType": "uint256",
          "name": "expiry",
          "type": "uint256"
        }
      ],
      "name": "VotesExpiredSignature",
      "type": "error"
    },
    {
      "anonymous": false,
      "inputs": [
        {
          "indexed": true,
          "internalType": "address",
          "name": "owner",
          "type": "address"
        },
        {
          "indexed": true,
          "internalType": "address",
          "name": "approved",
          "type": "address"
        },
        {
          "indexed": true,
          "internalType": "uint256",
          "name": "tokenId",
          "type": "uint256"
        }
      ],
      "name": "Approval",
      "type": "event"
    },
    {
      "anonymous": false,
      "inputs": [
        {
          "indexed": true,
          "internalType": "address",
          "name": "owner",
          "type": "address"
        },
        {
          "indexed": true,
          "internalType": "address",
          "name": "operator",
          "type": "address"
        },
        {
          "indexed": false,
          "internalType": "bool",
          "name": "approved",
          "type": "bool"
        }
      ],
      "name": "ApprovalForAll",
      "type": "event"
    },
    {
      "anonymous": false,
      "inputs": [
        {
          "indexed": true,
          "internalType": "address",
          "name": "delegator",
          "type": "address"
        },
        {
          "indexed": true,
          "internalType": "address",
          "name": "fromDelegate",
          "type": "address"
        },
        {
          "indexed": true,
          "internalType": "address",
          "name": "toDelegate",
          "type": "address"
        }
      ],
      "name": "DelegateChanged",
      "type": "event"
    },
    {
      "anonymous": false,
      "inputs": [
        {
          "indexed": true,
          "internalType": "address",
          "name": "delegate",
          "type": "address"
        },
        {
          "indexed": false,
          "internalType": "uint256",
          "name": "previousVotes",
          "type": "uint256"
        },
        {
          "indexed": false,
          "internalType": "uint256",
          "name": "newVotes",
          "type": "uint256"
        }
      ],
      "name": "DelegateVotesChanged",
      "type": "event"
    },
    {
      "anonymous": false,
      "inputs": [],
      "name": "EIP712DomainChanged",
      "type": "event"
    },
    {
      "anonymous": false,
      "inputs": [
        {
          "indexed": true,
          "internalType": "address",
          "name": "from",
          "type": "address"
        },
        {
          "indexed": true,
          "internalType": "address",
          "name": "to",
          "type": "address"
        },
        {
          "indexed": true,
          "internalType": "uint256",
          "name": "tokenId",
          "type": "uint256"
        }
      ],
      "name": "Transfer",
      "type": "event"
    },
    {
      "anonymous": false,
      "inputs": [
        {
          "indexed": false,
          "internalType": "uint256",
          "name": "ret0",
          "type": "uint256"
        }
      ],
      "name": "return$_useCheckedNonce",
      "type": "event"
    },
    {
      "anonymous": false,
      "inputs": [
        {
          "indexed": false,
          "internalType": "uint256",
          "name": "ret0",
          "type": "uint256"
        }
      ],
      "name": "return$_useNonce",
      "type": "event"
    },
    {
      "inputs": [],
      "name": "$_EIP712Name",
      "outputs": [
        {
          "internalType": "string",
          "name": "ret0",
          "type": "string"
        }
      ],
      "stateMutability": "view",
      "type": "function"
    },
    {
      "inputs": [],
      "name": "$_EIP712Version",
      "outputs": [
        {
          "internalType": "string",
          "name": "ret0",
          "type": "string"
        }
      ],
      "stateMutability": "view",
      "type": "function"
    },
    {
      "inputs": [
        {
          "internalType": "address",
          "name": "account",
          "type": "address"
        },
        {
          "internalType": "uint256",
          "name": "value",
          "type": "uint256"
        }
      ],
      "name": "$__unsafe_increaseBalance",
      "outputs": [],
      "stateMutability": "nonpayable",
      "type": "function"
    },
    {
      "inputs": [
        {
          "internalType": "address",
          "name": "from",
          "type": "address"
        },
        {
          "internalType": "address",
          "name": "to",
          "type": "address"
        },
        {
          "internalType": "uint256",
          "name": "firstTokenId",
          "type": "uint256"
        },
        {
          "internalType": "uint256",
          "name": "batchSize",
          "type": "uint256"
        }
      ],
      "name": "$_afterTokenTransfer",
      "outputs": [],
      "stateMutability": "nonpayable",
      "type": "function"
    },
    {
      "inputs": [
        {
          "internalType": "address",
          "name": "to",
          "type": "address"
        },
        {
          "internalType": "uint256",
          "name": "tokenId",
          "type": "uint256"
        }
      ],
      "name": "$_approve",
      "outputs": [],
      "stateMutability": "nonpayable",
      "type": "function"
    },
    {
      "inputs": [],
      "name": "$_baseURI",
      "outputs": [
        {
          "internalType": "string",
          "name": "ret0",
          "type": "string"
        }
      ],
      "stateMutability": "view",
      "type": "function"
    },
    {
      "inputs": [
        {
          "internalType": "address",
          "name": "from",
          "type": "address"
        },
        {
          "internalType": "address",
          "name": "to",
          "type": "address"
        },
        {
          "internalType": "uint256",
          "name": "firstTokenId",
          "type": "uint256"
        },
        {
          "internalType": "uint256",
          "name": "batchSize",
          "type": "uint256"
        }
      ],
      "name": "$_beforeTokenTransfer",
      "outputs": [],
      "stateMutability": "nonpayable",
      "type": "function"
    },
    {
      "inputs": [
        {
          "internalType": "uint256",
          "name": "tokenId",
          "type": "uint256"
        }
      ],
      "name": "$_burn",
      "outputs": [],
      "stateMutability": "nonpayable",
      "type": "function"
    },
    {
      "inputs": [
        {
          "internalType": "address",
          "name": "account",
          "type": "address"
        },
        {
          "internalType": "uint32",
          "name": "pos",
          "type": "uint32"
        }
      ],
      "name": "$_checkpoints",
      "outputs": [
        {
          "components": [
            {
              "internalType": "uint32",
              "name": "_key",
              "type": "uint32"
            },
            {
              "internalType": "uint224",
              "name": "_value",
              "type": "uint224"
            }
          ],
          "internalType": "struct Checkpoints.Checkpoint224",
          "name": "ret0",
          "type": "tuple"
        }
      ],
      "stateMutability": "view",
      "type": "function"
    },
    {
      "inputs": [
        {
          "internalType": "address",
          "name": "account",
          "type": "address"
        },
        {
          "internalType": "address",
          "name": "delegatee",
          "type": "address"
        }
      ],
      "name": "$_delegate",
      "outputs": [],
      "stateMutability": "nonpayable",
      "type": "function"
    },
    {
      "inputs": [],
      "name": "$_domainSeparatorV4",
      "outputs": [
        {
          "internalType": "bytes32",
          "name": "ret0",
          "type": "bytes32"
        }
      ],
      "stateMutability": "view",
      "type": "function"
    },
    {
      "inputs": [
        {
          "internalType": "uint256",
          "name": "tokenId",
          "type": "uint256"
        }
      ],
      "name": "$_exists",
      "outputs": [
        {
          "internalType": "bool",
          "name": "ret0",
          "type": "bool"
        }
      ],
      "stateMutability": "view",
      "type": "function"
    },
    {
      "inputs": [],
      "name": "$_getTotalSupply",
      "outputs": [
        {
          "internalType": "uint256",
          "name": "ret0",
          "type": "uint256"
        }
      ],
      "stateMutability": "view",
      "type": "function"
    },
    {
      "inputs": [
        {
          "internalType": "address",
          "name": "account",
          "type": "address"
        }
      ],
      "name": "$_getVotingUnits",
      "outputs": [
        {
          "internalType": "uint256",
          "name": "ret0",
          "type": "uint256"
        }
      ],
      "stateMutability": "view",
      "type": "function"
    },
    {
      "inputs": [
        {
          "internalType": "bytes32",
          "name": "structHash",
          "type": "bytes32"
        }
      ],
      "name": "$_hashTypedDataV4",
      "outputs": [
        {
          "internalType": "bytes32",
          "name": "ret0",
          "type": "bytes32"
        }
      ],
      "stateMutability": "view",
      "type": "function"
    },
    {
      "inputs": [
        {
          "internalType": "address",
          "name": "spender",
          "type": "address"
        },
        {
          "internalType": "uint256",
          "name": "tokenId",
          "type": "uint256"
        }
      ],
      "name": "$_isApprovedOrOwner",
      "outputs": [
        {
          "internalType": "bool",
          "name": "ret0",
          "type": "bool"
        }
      ],
      "stateMutability": "view",
      "type": "function"
    },
    {
      "inputs": [
        {
          "internalType": "address",
          "name": "to",
          "type": "address"
        },
        {
          "internalType": "uint256",
          "name": "tokenId",
          "type": "uint256"
        }
      ],
      "name": "$_mint",
      "outputs": [],
      "stateMutability": "nonpayable",
      "type": "function"
    },
    {
      "inputs": [],
      "name": "$_msgData",
      "outputs": [
        {
          "internalType": "bytes",
          "name": "ret0",
          "type": "bytes"
        }
      ],
      "stateMutability": "view",
      "type": "function"
    },
    {
      "inputs": [],
      "name": "$_msgSender",
      "outputs": [
        {
          "internalType": "address",
          "name": "ret0",
          "type": "address"
        }
      ],
      "stateMutability": "view",
      "type": "function"
    },
    {
      "inputs": [
        {
          "internalType": "address",
          "name": "account",
          "type": "address"
        }
      ],
      "name": "$_numCheckpoints",
      "outputs": [
        {
          "internalType": "uint32",
          "name": "ret0",
          "type": "uint32"
        }
      ],
      "stateMutability": "view",
      "type": "function"
    },
    {
      "inputs": [
        {
          "internalType": "uint256",
          "name": "tokenId",
          "type": "uint256"
        }
      ],
      "name": "$_ownerOf",
      "outputs": [
        {
          "internalType": "address",
          "name": "ret0",
          "type": "address"
        }
      ],
      "stateMutability": "view",
      "type": "function"
    },
    {
      "inputs": [
        {
          "internalType": "uint256",
          "name": "tokenId",
          "type": "uint256"
        }
      ],
      "name": "$_requireMinted",
      "outputs": [],
      "stateMutability": "view",
      "type": "function"
    },
    {
      "inputs": [
        {
          "internalType": "address",
          "name": "to",
          "type": "address"
        },
        {
          "internalType": "uint256",
          "name": "tokenId",
          "type": "uint256"
        },
        {
          "internalType": "bytes",
          "name": "data",
          "type": "bytes"
        }
      ],
      "name": "$_safeMint",
      "outputs": [],
      "stateMutability": "nonpayable",
      "type": "function"
    },
    {
      "inputs": [
        {
          "internalType": "address",
          "name": "to",
          "type": "address"
        },
        {
          "internalType": "uint256",
          "name": "tokenId",
          "type": "uint256"
        }
      ],
      "name": "$_safeMint",
      "outputs": [],
      "stateMutability": "nonpayable",
      "type": "function"
    },
    {
      "inputs": [
        {
          "internalType": "address",
          "name": "from",
          "type": "address"
        },
        {
          "internalType": "address",
          "name": "to",
          "type": "address"
        },
        {
          "internalType": "uint256",
          "name": "tokenId",
          "type": "uint256"
        },
        {
          "internalType": "bytes",
          "name": "data",
          "type": "bytes"
        }
      ],
      "name": "$_safeTransfer",
      "outputs": [],
      "stateMutability": "nonpayable",
      "type": "function"
    },
    {
      "inputs": [
        {
          "internalType": "address",
          "name": "owner",
          "type": "address"
        },
        {
          "internalType": "address",
          "name": "operator",
          "type": "address"
        },
        {
          "internalType": "bool",
          "name": "approved",
          "type": "bool"
        }
      ],
      "name": "$_setApprovalForAll",
      "outputs": [],
      "stateMutability": "nonpayable",
      "type": "function"
    },
    {
      "inputs": [
        {
          "internalType": "address",
          "name": "from",
          "type": "address"
        },
        {
          "internalType": "address",
          "name": "to",
          "type": "address"
        },
        {
          "internalType": "uint256",
          "name": "tokenId",
          "type": "uint256"
        }
      ],
      "name": "$_transfer",
      "outputs": [],
      "stateMutability": "nonpayable",
      "type": "function"
    },
    {
      "inputs": [
        {
          "internalType": "address",
          "name": "from",
          "type": "address"
        },
        {
          "internalType": "address",
          "name": "to",
          "type": "address"
        },
        {
          "internalType": "uint256",
          "name": "amount",
          "type": "uint256"
        }
      ],
      "name": "$_transferVotingUnits",
      "outputs": [],
      "stateMutability": "nonpayable",
      "type": "function"
    },
    {
      "inputs": [
        {
          "internalType": "address",
          "name": "owner",
          "type": "address"
        },
        {
          "internalType": "uint256",
          "name": "nonce",
          "type": "uint256"
        }
      ],
      "name": "$_useCheckedNonce",
      "outputs": [
        {
          "internalType": "uint256",
          "name": "ret0",
          "type": "uint256"
        }
      ],
      "stateMutability": "nonpayable",
      "type": "function"
    },
    {
      "inputs": [
        {
          "internalType": "address",
          "name": "owner",
          "type": "address"
        }
      ],
      "name": "$_useNonce",
      "outputs": [
        {
          "internalType": "uint256",
          "name": "ret0",
          "type": "uint256"
        }
      ],
      "stateMutability": "nonpayable",
      "type": "function"
    },
    {
      "inputs": [],
      "name": "CLOCK_MODE",
      "outputs": [
        {
          "internalType": "string",
          "name": "",
          "type": "string"
        }
      ],
      "stateMutability": "view",
      "type": "function"
    },
    {
      "inputs": [],
      "name": "__hh_exposed_bytecode_marker",
      "outputs": [
        {
          "internalType": "bytes32",
          "name": "",
          "type": "bytes32"
        }
      ],
      "stateMutability": "view",
      "type": "function"
    },
    {
      "inputs": [
        {
          "internalType": "address",
          "name": "to",
          "type": "address"
        },
        {
          "internalType": "uint256",
          "name": "tokenId",
          "type": "uint256"
        }
      ],
      "name": "approve",
      "outputs": [],
      "stateMutability": "nonpayable",
      "type": "function"
    },
    {
      "inputs": [
        {
          "internalType": "address",
          "name": "owner",
          "type": "address"
        }
      ],
      "name": "balanceOf",
      "outputs": [
        {
          "internalType": "uint256",
          "name": "",
          "type": "uint256"
        }
      ],
      "stateMutability": "view",
      "type": "function"
    },
    {
      "inputs": [],
      "name": "clock",
      "outputs": [
        {
          "internalType": "uint48",
          "name": "",
          "type": "uint48"
        }
      ],
      "stateMutability": "view",
      "type": "function"
    },
    {
      "inputs": [
        {
          "internalType": "address",
          "name": "delegatee",
          "type": "address"
        }
      ],
      "name": "delegate",
      "outputs": [],
      "stateMutability": "nonpayable",
      "type": "function"
    },
    {
      "inputs": [
        {
          "internalType": "address",
          "name": "delegatee",
          "type": "address"
        },
        {
          "internalType": "uint256",
          "name": "nonce",
          "type": "uint256"
        },
        {
          "internalType": "uint256",
          "name": "expiry",
          "type": "uint256"
        },
        {
          "internalType": "uint8",
          "name": "v",
          "type": "uint8"
        },
        {
          "internalType": "bytes32",
          "name": "r",
          "type": "bytes32"
        },
        {
          "internalType": "bytes32",
          "name": "s",
          "type": "bytes32"
        }
      ],
      "name": "delegateBySig",
      "outputs": [],
      "stateMutability": "nonpayable",
      "type": "function"
    },
    {
      "inputs": [
        {
          "internalType": "address",
          "name": "account",
          "type": "address"
        }
      ],
      "name": "delegates",
      "outputs": [
        {
          "internalType": "address",
          "name": "",
          "type": "address"
        }
      ],
      "stateMutability": "view",
      "type": "function"
    },
    {
      "inputs": [],
      "name": "eip712Domain",
      "outputs": [
        {
          "internalType": "bytes1",
          "name": "fields",
          "type": "bytes1"
        },
        {
          "internalType": "string",
          "name": "name",
          "type": "string"
        },
        {
          "internalType": "string",
          "name": "version",
          "type": "string"
        },
        {
          "internalType": "uint256",
          "name": "chainId",
          "type": "uint256"
        },
        {
          "internalType": "address",
          "name": "verifyingContract",
          "type": "address"
        },
        {
          "internalType": "bytes32",
          "name": "salt",
          "type": "bytes32"
        },
        {
          "internalType": "uint256[]",
          "name": "extensions",
          "type": "uint256[]"
        }
      ],
      "stateMutability": "view",
      "type": "function"
    },
    {
      "inputs": [
        {
          "internalType": "uint256",
          "name": "tokenId",
          "type": "uint256"
        }
      ],
      "name": "getApproved",
      "outputs": [
        {
          "internalType": "address",
          "name": "",
          "type": "address"
        }
      ],
      "stateMutability": "view",
      "type": "function"
    },
    {
      "inputs": [
        {
          "internalType": "uint256",
          "name": "timepoint",
          "type": "uint256"
        }
      ],
      "name": "getPastTotalSupply",
      "outputs": [
        {
          "internalType": "uint256",
          "name": "",
          "type": "uint256"
        }
      ],
      "stateMutability": "view",
      "type": "function"
    },
    {
      "inputs": [
        {
          "internalType": "address",
          "name": "account",
          "type": "address"
        },
        {
          "internalType": "uint256",
          "name": "timepoint",
          "type": "uint256"
        }
      ],
      "name": "getPastVotes",
      "outputs": [
        {
          "internalType": "uint256",
          "name": "",
          "type": "uint256"
        }
      ],
      "stateMutability": "view",
      "type": "function"
    },
    {
      "inputs": [
        {
          "internalType": "address",
          "name": "account",
          "type": "address"
        }
      ],
      "name": "getVotes",
      "outputs": [
        {
          "internalType": "uint256",
          "name": "",
          "type": "uint256"
        }
      ],
      "stateMutability": "view",
      "type": "function"
    },
    {
      "inputs": [
        {
          "internalType": "address",
          "name": "owner",
          "type": "address"
        },
        {
          "internalType": "address",
          "name": "operator",
          "type": "address"
        }
      ],
      "name": "isApprovedForAll",
      "outputs": [
        {
          "internalType": "bool",
          "name": "",
          "type": "bool"
        }
      ],
      "stateMutability": "view",
      "type": "function"
    },
    {
      "inputs": [],
      "name": "name",
      "outputs": [
        {
          "internalType": "string",
          "name": "",
          "type": "string"
        }
      ],
      "stateMutability": "view",
      "type": "function"
    },
    {
      "inputs": [
        {
          "internalType": "address",
          "name": "owner",
          "type": "address"
        }
      ],
      "name": "nonces",
      "outputs": [
        {
          "internalType": "uint256",
          "name": "",
          "type": "uint256"
        }
      ],
      "stateMutability": "view",
      "type": "function"
    },
    {
      "inputs": [
        {
          "internalType": "uint256",
          "name": "tokenId",
          "type": "uint256"
        }
      ],
      "name": "ownerOf",
      "outputs": [
        {
          "internalType": "address",
          "name": "",
          "type": "address"
        }
      ],
      "stateMutability": "view",
      "type": "function"
    },
    {
      "inputs": [
        {
          "internalType": "address",
          "name": "from",
          "type": "address"
        },
        {
          "internalType": "address",
          "name": "to",
          "type": "address"
        },
        {
          "internalType": "uint256",
          "name": "tokenId",
          "type": "uint256"
        }
      ],
      "name": "safeTransferFrom",
      "outputs": [],
      "stateMutability": "nonpayable",
      "type": "function"
    },
    {
      "inputs": [
        {
          "internalType": "address",
          "name": "from",
          "type": "address"
        },
        {
          "internalType": "address",
          "name": "to",
          "type": "address"
        },
        {
          "internalType": "uint256",
          "name": "tokenId",
          "type": "uint256"
        },
        {
          "internalType": "bytes",
          "name": "data",
          "type": "bytes"
        }
      ],
      "name": "safeTransferFrom",
      "outputs": [],
      "stateMutability": "nonpayable",
      "type": "function"
    },
    {
      "inputs": [
        {
          "internalType": "address",
          "name": "operator",
          "type": "address"
        },
        {
          "internalType": "bool",
          "name": "approved",
          "type": "bool"
        }
      ],
      "name": "setApprovalForAll",
      "outputs": [],
      "stateMutability": "nonpayable",
      "type": "function"
    },
    {
      "inputs": [
        {
          "internalType": "bytes4",
          "name": "interfaceId",
          "type": "bytes4"
        }
      ],
      "name": "supportsInterface",
      "outputs": [
        {
          "internalType": "bool",
          "name": "",
          "type": "bool"
        }
      ],
      "stateMutability": "view",
      "type": "function"
    },
    {
      "inputs": [],
      "name": "symbol",
      "outputs": [
        {
          "internalType": "string",
          "name": "",
          "type": "string"
        }
      ],
      "stateMutability": "view",
      "type": "function"
    },
    {
      "inputs": [
        {
          "internalType": "uint256",
          "name": "tokenId",
          "type": "uint256"
        }
      ],
      "name": "tokenURI",
      "outputs": [
        {
          "internalType": "string",
          "name": "",
          "type": "string"
        }
      ],
      "stateMutability": "view",
      "type": "function"
    },
    {
      "inputs": [
        {
          "internalType": "address",
          "name": "from",
          "type": "address"
        },
        {
          "internalType": "address",
          "name": "to",
          "type": "address"
        },
        {
          "internalType": "uint256",
          "name": "tokenId",
          "type": "uint256"
        }
      ],
      "name": "transferFrom",
      "outputs": [],
      "stateMutability": "nonpayable",
      "type": "function"
    },
    {
      "stateMutability": "payable",
      "type": "receive"
    }
  ],
  "bytecode": "0x6101606040526040516200346d3803806200346d833981016040819052620000279162000254565b818185855f62000038838262000392565b50600162000047828262000392565b5062000059915083905060066200010b565b610120526200006a8160076200010b565b61014052815160208084019190912060e052815190820120610100524660a052620000f760e05161010051604080517f8b73c3c69bb8fe3d512ecc4cf759cc79239f7b179b0ffacaa9a75d522b39400f60208201529081019290925260608201524660808201523060a08201525f9060c00160405160208183030381529060405280519060200120905090565b60805250503060c05250620004b292505050565b5f6020835110156200012a57620001228362000143565b90506200013d565b8162000137848262000392565b5060ff90505b92915050565b5f80829050601f8151111562000179578260405163305a27a960e01b81526004016200017091906200045a565b60405180910390fd5b805162000186826200048e565b179392505050565b634e487b7160e01b5f52604160045260245ffd5b5f5b83811015620001be578181015183820152602001620001a4565b50505f910152565b5f82601f830112620001d6575f80fd5b81516001600160401b0380821115620001f357620001f36200018e565b604051601f8301601f19908116603f011681019082821181831017156200021e576200021e6200018e565b8160405283815286602085880101111562000237575f80fd5b6200024a846020830160208901620001a2565b9695505050505050565b5f805f806080858703121562000268575f80fd5b84516001600160401b03808211156200027f575f80fd5b6200028d88838901620001c6565b95506020870151915080821115620002a3575f80fd5b620002b188838901620001c6565b94506040870151915080821115620002c7575f80fd5b620002d588838901620001c6565b93506060870151915080821115620002eb575f80fd5b50620002fa87828801620001c6565b91505092959194509250565b600181811c908216806200031b57607f821691505b6020821081036200033a57634e487b7160e01b5f52602260045260245ffd5b50919050565b601f8211156200038d575f81815260208120601f850160051c81016020861015620003685750805b601f850160051c820191505b81811015620003895782815560010162000374565b5050505b505050565b81516001600160401b03811115620003ae57620003ae6200018e565b620003c681620003bf845462000306565b8462000340565b602080601f831160018114620003fc575f8415620003e45750858301515b5f19600386901b1c1916600185901b17855562000389565b5f85815260208120601f198616915b828110156200042c578886015182559484019460019091019084016200040b565b50858210156200044a57878501515f19600388901b60f8161c191681555b5050505050600190811b01905550565b602081525f82518060208401526200047a816040850160208701620001a2565b601f01601f19169190910160400192915050565b805160208083015191908110156200033a575f1960209190910360031b1b16919050565b60805160a05160c05160e051610100516101205161014051612f69620005045f395f61140301525f6113d601525f6118b201525f61188a01525f6117e501525f61180f01525f6118390152612f695ff3fe608060405260043610610329575f3560e01c80636b4ac502116101a3578063b3068e41116100f2578063cd43f47d11610092578063d41ecac31161006d578063d41ecac31461098e578063e07084c2146109c2578063e985e9c5146109e1578063efb43b0714610a28575f80fd5b8063cd43f47d14610931578063cfeea0d414610950578063d261af541461096f575f80fd5b8063c3cda520116100cd578063c3cda520146108b5578063c4a96fa6146108d4578063c87b56dd146108f3578063cc461d6214610912575f80fd5b8063b3068e4114610858578063b88d4fde14610877578063c37add5114610896575f80fd5b806391ddadf41161015d5780639ab24eb0116101385780639ab24eb0146107dc5780639ff2f02d146107fb578063a22cb4651461081a578063a2373a8214610839575f80fd5b806391ddadf41461077e57806395d89b41146107a957806398a1f7a0146107bd575f80fd5b80636b4ac502146106a757806370a08231146106c6578063733555ec146106e55780637ecebe001461070457806384b0196e146107385780638e539e8c1461075f575f80fd5b806332cadf3c11610279578063535de334116102195780635c19a95c116101f45780635c19a95c1461060c5780635f8d5e741461062b57806361f5b5301461063f5780636352211e14610688575f80fd5b8063535de334146105a2578063587cde1e146105b65780635b28e1e8146105ed575f80fd5b806342842e0e1161025457806342842e0e14610531578063458ee002146105505780634bf5d7e91461056f578063506a6f0c14610583575f80fd5b806332cadf3c146104d9578063342db739146104ed5780633a46b1a814610512575f80fd5b80631164d13b116102e4578063174ccd82116102bf578063174ccd821461046757806323b872dd1461047b5780632904df291461049a5780632e8fbee5146104ac575f80fd5b80631164d13b1461041f578063147619da14610433578063161e977d14610453575f80fd5b8062cae2201461033457806301ffc9a71461035557806306fdde0314610389578063081812fc146103aa578063095ea7b3146103e157806309854d7214610400575f80fd5b3661033057005b5f80fd5b34801561033f575f80fd5b5061035361034e366004612879565b610a47565b005b348015610360575f80fd5b5061037461036f3660046128bf565b610a55565b60405190151581526020015b60405180910390f35b348015610394575f80fd5b5061039d610aa6565b6040516103809190612927565b3480156103b5575f80fd5b506103c96103c4366004612939565b610b35565b6040516001600160a01b039091168152602001610380565b3480156103ec575f80fd5b506103536103fb366004612950565b610b5a565b34801561040b575f80fd5b5061035361041a366004612939565b610bf7565b34801561042a575f80fd5b5061039d610c03565b34801561043e575f80fd5b5061035361044d366004612978565b50505050565b34801561045e575f80fd5b5061039d610c12565b348015610472575f80fd5b5061039d610c28565b348015610486575f80fd5b506103536104953660046129b7565b610c32565b3480156104a5575f80fd5b50336103c9565b3480156104b7575f80fd5b506104cb6104c63660046129f0565b610c6d565b604051908152602001610380565b3480156104e4575f80fd5b5061039d610ccd565b3480156104f8575f80fd5b506104cb6e1a185c991a185d0b595e1c1bdcd959608a1b81565b34801561051d575f80fd5b506104cb61052c366004612950565b610d0a565b34801561053c575f80fd5b5061035361054b3660046129b7565b610d89565b34801561055b575f80fd5b506103c961056a366004612939565b610da3565b34801561057a575f80fd5b5061039d610dbf565b34801561058e575f80fd5b506104cb61059d366004612939565b610e28565b3480156105ad575f80fd5b506104cb610e32565b3480156105c1575f80fd5b506103c96105d03660046129f0565b6001600160a01b039081165f908152600960205260409020541690565b3480156105f8575f80fd5b506103536106073660046129b7565b610e3b565b348015610617575f80fd5b506103536106263660046129f0565b610e46565b348015610636575f80fd5b506104cb610e51565b34801561064a575f80fd5b5061065e610659366004612a09565b610e5a565b60408051825163ffffffff1681526020928301516001600160e01b03169281019290925201610380565b348015610693575f80fd5b506103c96106a2366004612939565b610e7e565b3480156106b2575f80fd5b506104cb6106c1366004612950565b610eb6565b3480156106d1575f80fd5b506104cb6106e03660046129f0565b610f02565b3480156106f0575f80fd5b506103536106ff366004612a8b565b610f47565b34801561070f575f80fd5b506104cb61071e3660046129f0565b6001600160a01b03165f9081526008602052604090205490565b348015610743575f80fd5b5061074c610f8f565b6040516103809796959493929190612af5565b34801561076a575f80fd5b506104cb610779366004612939565b610fd1565b348015610789575f80fd5b5061079261103a565b60405165ffffffffffff9091168152602001610380565b3480156107b4575f80fd5b5061039d611044565b3480156107c8575f80fd5b506103536107d7366004612950565b611053565b3480156107e7575f80fd5b506104cb6107f63660046129f0565b61105d565b348015610806575f80fd5b50610353610815366004612b89565b61108c565b348015610825575f80fd5b50610353610834366004612bee565b6110cc565b348015610844575f80fd5b50610353610853366004612939565b6110d7565b348015610863575f80fd5b506104cb6108723660046129f0565b6110e0565b348015610882575f80fd5b50610353610891366004612c2a565b6110ea565b3480156108a1575f80fd5b506103746108b0366004612939565b611126565b3480156108c0575f80fd5b506103536108cf366004612cff565b611144565b3480156108df575f80fd5b506103746108ee366004612950565b611201565b3480156108fe575f80fd5b5061039d61090d366004612939565b61120c565b34801561091d575f80fd5b5061035361092c366004612950565b61127b565b34801561093c575f80fd5b5061035361094b366004612950565b611285565b34801561095b575f80fd5b5061035361096a366004612d5a565b61128f565b34801561097a575f80fd5b50610353610989366004612950565b61129a565b348015610999575f80fd5b506109ad6109a83660046129f0565b6112a4565b60405163ffffffff9091168152602001610380565b3480156109cd575f80fd5b506103536109dc366004612978565b6112ae565b3480156109ec575f80fd5b506103746109fb366004612879565b6001600160a01b039182165f90815260056020908152604080832093909416825291909152205460ff1690565b348015610a33575f80fd5b50610353610a423660046129b7565b610c62565b610a5182826112ba565b5050565b5f6001600160e01b031982166380ac58cd60e01b1480610a8557506001600160e01b03198216635b5e139f60e01b145b80610aa057506301ffc9a760e01b6001600160e01b03198316145b92915050565b60605f8054610ab490612d9a565b80601f0160208091040260200160405190810160405280929190818152602001828054610ae090612d9a565b8015610b2b5780601f10610b0257610100808354040283529160200191610b2b565b820191905f5260205f20905b815481529060010190602001808311610b0e57829003601f168201915b5050505050905090565b5f610b3f8261132b565b505f908152600460205260409020546001600160a01b031690565b5f610b6482610e7e565b9050806001600160a01b0316836001600160a01b031603610ba857604051630b61174360e31b81526001600160a01b03821660048201526024015b60405180910390fd5b336001600160a01b03821614801590610bc85750610bc681336109fb565b155b15610be85760405163a9fbf51f60e01b8152336004820152602401610b9f565b610bf28383611362565b505050565b610c008161132b565b50565b6060610c0d6113cf565b905090565b6060610c0d60408051602081019091525f815290565b6060610c0d6113fc565b610c3c3382611429565b610c625760405163177e802f60e01b815233600482015260248101829052604401610b9f565b610bf28383836114a6565b6001600160a01b0381165f90815260086020526040812080546001810190915590507f8d5c13b1cd528a3e1895fdc833368c4e3af5391250c736a28e94c4fa59b3cee481604051610cc091815260200190565b60405180910390a1919050565b60605f368080601f0160208091040260200160405190810160405280939291908181526020018383808284375f9201919091525092949350505050565b5f80610d1461103a565b90508065ffffffffffff168310610d4f57604051637669fc0f60e11b81526004810184905265ffffffffffff82166024820152604401610b9f565b610d78610d5b84611638565b6001600160a01b0386165f908152600a602052604090209061166c565b6001600160e01b0316949350505050565b610bf283838360405180602001604052805f8152506110ea565b5f818152600260205260408120546001600160a01b0316610aa0565b606043610dca61103a565b65ffffffffffff1614610df0576040516301bfc1c560e61b815260040160405180910390fd5b5060408051808201909152601d81527f6d6f64653d626c6f636b6e756d6265722666726f6d3d64656661756c74000000602082015290565b5f610aa08261171a565b5f610c0d611746565b610bf283838361175f565b33610a5181836112ba565b5f610c0d6117d9565b604080518082019091525f8082526020820152610e778383611902565b9392505050565b5f818152600260205260408120546001600160a01b031680610aa057604051637e27328960e01b815260048101849052602401610b9f565b5f610ec18383611936565b90507f173c6dfbda204d89ae7b46789365591384ef0c959833564582f96cd15f445b9b81604051610ef491815260200190565b60405180910390a192915050565b5f6001600160a01b038216610f2c576040516322718ad960e21b81525f6004820152602401610b9f565b506001600160a01b03165f9081526003602052604090205490565b610f8885858585858080601f0160208091040260200160405190810160405280939291908181526020018383808284375f9201919091525061198892505050565b5050505050565b5f6060805f805f6060610fa06113cf565b610fa86113fc565b604080515f80825260208201909252600f60f81b9b939a50919850469750309650945092509050565b5f80610fdb61103a565b90508065ffffffffffff16831061101657604051637669fc0f60e11b81526004810184905265ffffffffffff82166024820152604401610b9f565b61102a61102284611638565b600b9061166c565b6001600160e01b03169392505050565b5f610c0d436119c7565b606060018054610ab490612d9a565b610a5182826119f9565b6001600160a01b0381165f908152600a6020526040812061107d90611a29565b6001600160e01b031692915050565b61044d848484848080601f0160208091040260200160405190810160405280939291908181526020018383808284375f92019190915250611a6092505050565b610a51338383611a9e565b610c0081611b47565b5f610aa082611c05565b6110f43383611429565b61111a5760405163177e802f60e01b815233600482015260248101839052604401610b9f565b61044d84848484611988565b5f818152600260205260408120546001600160a01b03161515610aa0565b8342111561116857604051632341d78760e11b815260048101859052602401610b9f565b604080517fe48329057bfd03d55e49b547132e39cffd9c1820ad7b9d4c5307691425d15adf60208201526001600160a01b0388169181019190915260608101869052608081018590525f906111e1906111d99060a0016040516020818303038152906040528051906020012061171a565b858585611c0f565b90506111ed8187611936565b506111f881886112ba565b50505050505050565b5f610e778383611429565b60606112178261132b565b5f61122c60408051602081019091525f815290565b90505f81511161124a5760405180602001604052805f815250610e77565b8061125484611c3b565b604051602001611265929190612dd2565b6040516020818303038152906040529392505050565b610a518282611ccb565b610a518282611362565b610bf2838383611a9e565b610a518282611dd5565b5f610aa082611dee565b61044d84848484611e0f565b6001600160a01b038281165f8181526009602052604080822080548686166001600160a01b0319821681179092559151919094169392849290917f3134e8a2e6d97e929a7e54011ea5485d7d196dd5f0ba4d4ef95803e8e3fc257f9190a4610bf2818361132686611c05565b611e1a565b5f818152600260205260409020546001600160a01b0316610c0057604051637e27328960e01b815260048101829052602401610b9f565b5f81815260046020526040902080546001600160a01b0319166001600160a01b038416908117909155819061139682610e7e565b6001600160a01b03167f8c5be1e5ebec7d5bd14f71427d1e84f3dd0314c0f7b2291e5b200ac8c7c3b92560405160405180910390a45050565b6060610c0d7f00000000000000000000000000000000000000000000000000000000000000006006611f7e565b6060610c0d7f00000000000000000000000000000000000000000000000000000000000000006007611f7e565b5f8061143483610e7e565b9050806001600160a01b0316846001600160a01b0316148061147a57506001600160a01b038082165f9081526005602090815260408083209388168352929052205460ff165b8061149e5750836001600160a01b031661149384610b35565b6001600160a01b0316145b949350505050565b5f6114b082610e7e565b9050836001600160a01b0316816001600160a01b0316146114fe576040516364283d7b60e01b81526001600160a01b0380861660048301526024820184905282166044820152606401610b9f565b6001600160a01b03831661152757604051633250574960e11b81525f6004820152602401610b9f565b61153082610e7e565b9050836001600160a01b0316816001600160a01b03161461157e576040516364283d7b60e01b81526001600160a01b0380861660048301526024820184905282166044820152606401610b9f565b5f82815260046020908152604080832080546001600160a01b03191690556001600160a01b0387168352600390915281208054600192906115c0908490612e14565b90915550506001600160a01b038084165f81815260036020908152604080832080546001019055868352600290915280822080546001600160a01b031916841790555185938816917fddf252ad1be2c89b69c2b068fc378daa952ba7f163c4a11628f55a4df523b3ef91a461044d8484846001611e0f565b5f63ffffffff821115611668576040516306dfcc6560e41b81526020600482015260248101839052604401610b9f565b5090565b81545f90818160058111156116c6575f61168584612027565b61168f9085612e14565b5f8881526020902090915081015463ffffffff90811690871610156116b6578091506116c4565b6116c1816001612e27565b92505b505b5f6116d38787858561210b565b9050801561170d576116f7876116ea600184612e14565b5f91825260209091200190565b54600160201b90046001600160e01b031661170f565b5f5b979650505050505050565b5f610aa06117266117d9565b8360405161190160f01b8152600281019290925260228201526042902090565b5f611751600b611a29565b6001600160e01b0316905090565b6001600160a01b03831661178657611783600b61216661177e84612171565b6121a4565b50505b6001600160a01b0382166117a8576117a5600b6121ec61177e84612171565b50505b6001600160a01b038381165f90815260096020526040808220548584168352912054610bf292918216911683611e1a565b5f306001600160a01b037f00000000000000000000000000000000000000000000000000000000000000001614801561183157507f000000000000000000000000000000000000000000000000000000000000000046145b1561185b57507f000000000000000000000000000000000000000000000000000000000000000090565b610c0d604080517f8b73c3c69bb8fe3d512ecc4cf759cc79239f7b179b0ffacaa9a75d522b39400f60208201527f0000000000000000000000000000000000000000000000000000000000000000918101919091527f000000000000000000000000000000000000000000000000000000000000000060608201524660808201523060a08201525f9060c00160405160208183030381529060405280519060200120905090565b604080518082019091525f80825260208201526001600160a01b0383165f908152600a60205260409020610e7790836121f7565b6001600160a01b0382165f908152600860205260408120805460018101909155808314610e77576040516301d4b62360e61b81526001600160a01b038516600482015260248101829052604401610b9f565b6119938484846114a6565b61199f84848484612262565b61044d57604051633250574960e11b81526001600160a01b0384166004820152602401610b9f565b5f65ffffffffffff821115611668576040516306dfcc6560e41b81526030600482015260248101839052604401610b9f565b6001600160a01b0382165f9081526003602052604081208054839290611a20908490612e27565b90915550505050565b80545f908015611a5857611a42836116ea600184612e14565b54600160201b90046001600160e01b0316610e77565b5f9392505050565b611a6a8383611ccb565b611a765f848484612262565b610bf257604051633250574960e11b81526001600160a01b0384166004820152602401610b9f565b816001600160a01b0316836001600160a01b031603611adb57604051630b61174360e31b81526001600160a01b0384166004820152602401610b9f565b6001600160a01b038381165f81815260056020908152604080832094871680845294825291829020805460ff191686151590811790915591519182527f17307eab39ab6107e8899845ad3d59bd9653f200f220920489ca2b5937696c31910160405180910390a3505050565b5f611b5182610e7e565b9050611b5c82610e7e565b5f83815260046020908152604080832080546001600160a01b03191690556001600160a01b0384168352600390915281208054929350600192909190611ba3908490612e14565b90915550505f8281526002602052604080822080546001600160a01b0319169055518391906001600160a01b038416907fddf252ad1be2c89b69c2b068fc378daa952ba7f163c4a11628f55a4df523b3ef908390a4610a51815f846001611e0f565b5f610aa082610f02565b5f805f80611c1f88888888612368565b925092509250611c2f8282612430565b50909695505050505050565b60605f611c47836124e8565b60010190505f8167ffffffffffffffff811115611c6657611c66612c16565b6040519080825280601f01601f191660200182016040528015611c90576020820181803683370190505b5090508181016020015b5f19016f181899199a1a9b1b9c1cb0b131b232b360811b600a86061a8153600a8504945084611c9a57509392505050565b6001600160a01b038216611cf457604051633250574960e11b81525f6004820152602401610b9f565b5f818152600260205260409020546001600160a01b031615611d2b576040516339e3563760e11b81525f6004820152602401610b9f565b5f818152600260205260409020546001600160a01b031615611d62576040516339e3563760e11b81525f6004820152602401610b9f565b6001600160a01b0382165f81815260036020908152604080832080546001019055848352600290915280822080546001600160a01b0319168417905551839291907fddf252ad1be2c89b69c2b068fc378daa952ba7f163c4a11628f55a4df523b3ef908290a4610a515f83836001611e0f565b610a51828260405180602001604052805f815250611a60565b6001600160a01b0381165f908152600a6020526040812054610aa090611638565b61044d84848361175f565b816001600160a01b0316836001600160a01b031614158015611e3b57505f81115b15610bf2576001600160a01b03831615611edd576001600160a01b0383165f908152600a602052604081208190611e78906121ec61177e86612171565b6001600160e01b031691506001600160e01b03169150846001600160a01b03167fdec2bacdd2f05b59de34da9b523dff8be42e5e38e818c82fdb0bae774387a7248383604051611ed2929190918252602082015260400190565b60405180910390a250505b6001600160a01b03821615610bf2576001600160a01b0382165f908152600a602052604081208190611f159061216661177e86612171565b6001600160e01b031691506001600160e01b03169150836001600160a01b03167fdec2bacdd2f05b59de34da9b523dff8be42e5e38e818c82fdb0bae774387a7248383604051611f6f929190918252602082015260400190565b60405180910390a25050505050565b606060ff8314611f9857611f91836125bf565b9050610aa0565b818054611fa490612d9a565b80601f0160208091040260200160405190810160405280929190818152602001828054611fd090612d9a565b801561201b5780601f10611ff25761010080835404028352916020019161201b565b820191905f5260205f20905b815481529060010190602001808311611ffe57829003601f168201915b50505050509050610aa0565b5f815f0361203657505f919050565b5f6001612042846125fc565b901c6001901b9050600181848161205b5761205b612e3a565b048201901c9050600181848161207357612073612e3a565b048201901c9050600181848161208b5761208b612e3a565b048201901c905060018184816120a3576120a3612e3a565b048201901c905060018184816120bb576120bb612e3a565b048201901c905060018184816120d3576120d3612e3a565b048201901c905060018184816120eb576120eb612e3a565b048201901c9050610e778182858161210557612105612e3a565b0461268f565b5f5b8183101561215e575f61212084846126a4565b5f8781526020902090915063ffffffff86169082015463ffffffff16111561214a57809250612158565b612155816001612e27565b93505b5061210d565b509392505050565b5f610e778284612e4e565b5f6001600160e01b03821115611668576040516306dfcc6560e41b815260e0600482015260248101839052604401610b9f565b5f806121df6121c16121b461103a565b65ffffffffffff16611638565b6121d76121cd88611a29565b868863ffffffff16565b8791906126be565b915091505b935093915050565b5f610e778284612e75565b604080518082019091525f8082526020820152825f018263ffffffff168154811061222457612224612e95565b5f9182526020918290206040805180820190915291015463ffffffff81168252600160201b90046001600160e01b0316918101919091529392505050565b5f6001600160a01b0384163b1561236057604051630a85bd0160e11b81526001600160a01b0385169063150b7a02906122a5903390899088908890600401612ea9565b6020604051808303815f875af19250505080156122df575060408051601f3d908101601f191682019092526122dc91810190612ee5565b60015b612346573d80801561230c576040519150601f19603f3d011682016040523d82523d5f602084013e612311565b606091505b5080515f0361233e57604051633250574960e11b81526001600160a01b0386166004820152602401610b9f565b805181602001fd5b6001600160e01b031916630a85bd0160e11b14905061149e565b50600161149e565b5f80807f7fffffffffffffffffffffffffffffff5d576e7357a4501ddfe92f46681b20a08411156123a157505f91506003905082612426565b604080515f808252602082018084528a905260ff891692820192909252606081018790526080810186905260019060a0016020604051602081039080840390855afa1580156123f2573d5f803e3d5ffd5b5050604051601f1901519150506001600160a01b03811661241d57505f925060019150829050612426565b92505f91508190505b9450945094915050565b5f82600381111561244357612443612f00565b0361244c575050565b600182600381111561246057612460612f00565b0361247e5760405163f645eedf60e01b815260040160405180910390fd5b600282600381111561249257612492612f00565b036124b35760405163fce698f760e01b815260048101829052602401610b9f565b60038260038111156124c7576124c7612f00565b03610a51576040516335e2f38360e21b815260048101829052602401610b9f565b5f8072184f03e93ff9f4daa797ed6e38ed64bf6a1f0160401b83106125265772184f03e93ff9f4daa797ed6e38ed64bf6a1f0160401b830492506040015b6d04ee2d6d415b85acef81000000008310612552576d04ee2d6d415b85acef8100000000830492506020015b662386f26fc10000831061257057662386f26fc10000830492506010015b6305f5e1008310612588576305f5e100830492506008015b612710831061259c57612710830492506004015b606483106125ae576064830492506002015b600a8310610aa05760010192915050565b60605f6125cb836126cb565b6040805160208082528183019092529192505f91906020820181803683375050509182525060208101929092525090565b5f80608083901c1561261057608092831c92015b604083901c1561262257604092831c92015b602083901c1561263457602092831c92015b601083901c1561264657601092831c92015b600883901c1561265857600892831c92015b600483901c1561266a57600492831c92015b600283901c1561267c57600292831c92015b600183901c15610aa05760010192915050565b5f81831061269d5781610e77565b5090919050565b5f6126b26002848418612f14565b610e7790848416612e27565b5f806121df8585856126f2565b5f60ff8216601f811115610aa057604051632cd44ac360e21b815260040160405180910390fd5b82545f9081908015612806575f61270e876116ea600185612e14565b60408051808201909152905463ffffffff808216808452600160201b9092046001600160e01b03166020840152919250908716101561276057604051632520601d60e01b815260040160405180910390fd5b805163ffffffff8088169116036127a85784612781886116ea600186612e14565b80546001600160e01b0392909216600160201b0263ffffffff9092169190911790556127f6565b6040805180820190915263ffffffff80881682526001600160e01b0380881660208085019182528b54600181018d555f8d81529190912094519151909216600160201b029216919091179101555b6020015192508391506121e49050565b50506040805180820190915263ffffffff80851682526001600160e01b0380851660208085019182528854600181018a555f8a815291822095519251909316600160201b0291909316179201919091559050816121e4565b80356001600160a01b0381168114612874575f80fd5b919050565b5f806040838503121561288a575f80fd5b6128938361285e565b91506128a16020840161285e565b90509250929050565b6001600160e01b031981168114610c00575f80fd5b5f602082840312156128cf575f80fd5b8135610e77816128aa565b5f5b838110156128f45781810151838201526020016128dc565b50505f910152565b5f81518084526129138160208601602086016128da565b601f01601f19169290920160200192915050565b602081525f610e7760208301846128fc565b5f60208284031215612949575f80fd5b5035919050565b5f8060408385031215612961575f80fd5b61296a8361285e565b946020939093013593505050565b5f805f806080858703121561298b575f80fd5b6129948561285e565b93506129a26020860161285e565b93969395505050506040820135916060013590565b5f805f606084860312156129c9575f80fd5b6129d28461285e565b92506129e06020850161285e565b9150604084013590509250925092565b5f60208284031215612a00575f80fd5b610e778261285e565b5f8060408385031215612a1a575f80fd5b612a238361285e565b9150602083013563ffffffff81168114612a3b575f80fd5b809150509250929050565b5f8083601f840112612a56575f80fd5b50813567ffffffffffffffff811115612a6d575f80fd5b602083019150836020828501011115612a84575f80fd5b9250929050565b5f805f805f60808688031215612a9f575f80fd5b612aa88661285e565b9450612ab66020870161285e565b935060408601359250606086013567ffffffffffffffff811115612ad8575f80fd5b612ae488828901612a46565b969995985093965092949392505050565b60ff60f81b881681525f602060e081840152612b1460e084018a6128fc565b8381036040850152612b26818a6128fc565b606085018990526001600160a01b038816608086015260a0850187905284810360c086015285518082528387019250908301905f5b81811015612b7757835183529284019291840191600101612b5b565b50909c9b505050505050505050505050565b5f805f8060608587031215612b9c575f80fd5b612ba58561285e565b935060208501359250604085013567ffffffffffffffff811115612bc7575f80fd5b612bd387828801612a46565b95989497509550505050565b80358015158114612874575f80fd5b5f8060408385031215612bff575f80fd5b612c088361285e565b91506128a160208401612bdf565b634e487b7160e01b5f52604160045260245ffd5b5f805f8060808587031215612c3d575f80fd5b612c468561285e565b9350612c546020860161285e565b925060408501359150606085013567ffffffffffffffff80821115612c77575f80fd5b818701915087601f830112612c8a575f80fd5b813581811115612c9c57612c9c612c16565b604051601f8201601f19908116603f01168101908382118183101715612cc457612cc4612c16565b816040528281528a6020848701011115612cdc575f80fd5b826020860160208301375f60208483010152809550505050505092959194509250565b5f805f805f8060c08789031215612d14575f80fd5b612d1d8761285e565b95506020870135945060408701359350606087013560ff81168114612d40575f80fd5b9598949750929560808101359460a0909101359350915050565b5f805f60608486031215612d6c575f80fd5b612d758461285e565b9250612d836020850161285e565b9150612d9160408501612bdf565b90509250925092565b600181811c90821680612dae57607f821691505b602082108103612dcc57634e487b7160e01b5f52602260045260245ffd5b50919050565b5f8351612de38184602088016128da565b835190830190612df78183602088016128da565b01949350505050565b634e487b7160e01b5f52601160045260245ffd5b81810381811115610aa057610aa0612e00565b80820180821115610aa057610aa0612e00565b634e487b7160e01b5f52601260045260245ffd5b6001600160e01b03818116838216019080821115612e6e57612e6e612e00565b5092915050565b6001600160e01b03828116828216039080821115612e6e57612e6e612e00565b634e487b7160e01b5f52603260045260245ffd5b6001600160a01b03858116825284166020820152604081018390526080606082018190525f90612edb908301846128fc565b9695505050505050565b5f60208284031215612ef5575f80fd5b8151610e77816128aa565b634e487b7160e01b5f52602160045260245ffd5b5f82612f2e57634e487b7160e01b5f52601260045260245ffd5b50049056fea2646970667358221220490f728009d2ba213fec2fcc352604858528411b0c81a4df3167683070b7f3e764736f6c63430008140033",
  "linkReferences": {},
  "deployedLinkReferences": {}
}