{
  "_format": "hh-sol-artifact-1",
  "contractName": "$MigratableMockV3",
  "sourceName": "contracts-exposed/mocks/SingleInheritanceInitializableMocks.sol",
  "abi": [
    {
      "inputs": [],
      "stateMutability": "payable",
      "type": "constructor"
    },
    {
      "inputs": [],
      "name": "AlreadyInitialized",
      "type": "error"
    },
    {
      "inputs": [],
      "name": "NotInitializing",
      "type": "error"
    },
    {
      "anonymous": false,
      "inputs": [
        {
          "indexed": false,
          "internalType": "uint8",
          "name": "version",
          "type": "uint8"
        }
      ],
      "name": "Initialized",
      "type": "event"
    },
    {
      "inputs": [],
      "name": "$_disableInitializers",
      "outputs": [],
      "stateMutability": "nonpayable",
      "type": "function"
    },
    {
      "inputs": [],
      "name": "$_getInitializedVersion",
      "outputs": [
        {
          "internalType": "uint8",
          "name": "ret0",
          "type": "uint8"
        }
      ],
      "stateMutability": "view",
      "type": "function"
    },
    {
      "inputs": [],
      "name": "$_isInitializing",
      "outputs": [
        {
          "internalType": "bool",
          "name": "ret0",
          "type": "bool"
        }
      ],
      "stateMutability": "view",
      "type": "function"
    },
    {
      "inputs": [],
      "name": "$_migratedV2",
      "outputs": [
        {
          "internalType": "bool",
          "name": "",
          "type": "bool"
        }
      ],
      "stateMutability": "view",
      "type": "function"
    },
    {
      "inputs": [],
      "name": "$_migratedV3",
      "outputs": [
        {
          "internalType": "bool",
          "name": "",
          "type": "bool"
        }
      ],
      "stateMutability": "view",
      "type": "function"
    },
    {
      "inputs": [],
      "name": "__hh_exposed_bytecode_marker",
      "outputs": [
        {
          "internalType": "bytes32",
          "name": "",
          "type": "bytes32"
        }
      ],
      "stateMutability": "view",
      "type": "function"
    },
    {
      "inputs": [
        {
          "internalType": "uint256",
          "name": "value",
          "type": "uint256"
        }
      ],
      "name": "initialize",
      "outputs": [],
      "stateMutability": "payable",
      "type": "function"
    },
    {
      "inputs": [
        {
          "internalType": "uint256",
          "name": "value",
          "type": "uint256"
        },
        {
          "internalType": "uint256",
          "name": "anotherValue",
          "type": "uint256"
        }
      ],
      "name": "migrate",
      "outputs": [],
      "stateMutability": "payable",
      "type": "function"
    },
    {
      "inputs": [],
      "name": "migrate",
      "outputs": [],
      "stateMutability": "payable",
      "type": "function"
    },
    {
      "inputs": [],
      "name": "x",
      "outputs": [
        {
          "internalType": "uint256",
          "name": "",
          "type": "uint256"
        }
      ],
      "stateMutability": "view",
      "type": "function"
    },
    {
      "inputs": [],
      "name": "y",
      "outputs": [
        {
          "internalType": "uint256",
          "name": "",
          "type": "uint256"
        }
      ],
      "stateMutability": "view",
      "type": "function"
    },
    {
      "stateMutability": "payable",
      "type": "receive"
    }
  ],
  "bytecode": "0x60806040526103c7806100115f395ff3fe60806040526004361061009d575f3560e01c8063946a204411610062578063946a204414610132578063a56dfe4a14610155578063b6f342b71461016a578063c9eb057114610181578063f5f1bec01461019c578063fe4b84df146101b0575f80fd5b80630c55699c146100a8578063342db739146100d05780633e54bacb146100f55780634fd5303d1461010a5780638fd3ab801461012a575f80fd5b366100a457005b5f80fd5b3480156100b3575f80fd5b506100bd60015481565b6040519081526020015b60405180910390f35b3480156100db575f80fd5b506100bd6e1a185c991a185d0b595e1c1bdcd959608a1b81565b61010861010336600461035a565b6101c3565b005b348015610115575f80fd5b505f5460405160ff90911681526020016100c7565b6101086101e9565b34801561013d575f80fd5b5060025460ff165b60405190151581526020016100c7565b348015610160575f80fd5b506100bd60035481565b348015610175575f80fd5b5060045460ff16610145565b34801561018c575f80fd5b505f54610100900460ff16610145565b3480156101a7575f80fd5b50610108610212565b6101086101be36600461037a565b61021c565b60025460ff16156101d2575f80fd5b60019182556003556002805460ff19169091179055565b60045460ff16156101f8575f80fd5b60018054600380548355556004805460ff19169091179055565b61021a6102e3565b565b5f54610100900460ff161580801561023a57505f54600160ff909116105b1580156102575750303b15801561025557505f5460ff166001145b155b156102745760405162dc149f60e41b815260040160405180910390fd5b5f805460ff191660011790558015610295575f805461ff0019166101001790555b600182905580156102df575f805461ff0019169055604051600181527f7f26b83ff96e1f2b6a682f133852f6798a09c465da95921460cefb38474024989060200160405180910390a15b5050565b5f54610100900460ff161561030a5760405162dc149f60e41b815260040160405180910390fd5b5f5460ff9081161461021a575f805460ff191660ff9081179091556040519081527f7f26b83ff96e1f2b6a682f133852f6798a09c465da95921460cefb38474024989060200160405180910390a1565b5f806040838503121561036b575f80fd5b50508035926020909101359150565b5f6020828403121561038a575f80fd5b503591905056fea26469706673582212204c44e8c8fe533140b61ca5c638414e42ee618eef2be8bf54fb6c45d75881ed9764736f6c63430008140033",
  "linkReferences": {},
  "deployedLinkReferences": {}
}