{"abi":[{"type":"constructor","inputs":[{"name":"beneficiaryAddress","type":"address","internalType":"address"},{"name":"startTimestamp","type":"uint64","internalType":"uint64"},{"name":"durationSeconds","type":"uint64","internalType":"uint64"}],"stateMutability":"payable"},{"type":"receive","stateMutability":"payable"},{"type":"function","name":"beneficiary","inputs":[],"outputs":[{"name":"","type":"address","internalType":"address"}],"stateMutability":"view"},{"type":"function","name":"duration","inputs":[],"outputs":[{"name":"","type":"uint256","internalType":"uint256"}],"stateMutability":"view"},{"type":"function","name":"end","inputs":[],"outputs":[{"name":"","type":"uint256","internalType":"uint256"}],"stateMutability":"view"},{"type":"function","name":"releasable","inputs":[{"name":"token","type":"address","internalType":"address"}],"outputs":[{"name":"","type":"uint256","internalType":"uint256"}],"stateMutability":"view"},{"type":"function","name":"releasable","inputs":[],"outputs":[{"name":"","type":"uint256","internalType":"uint256"}],"stateMutability":"view"},{"type":"function","name":"release","inputs":[{"name":"token","type":"address","internalType":"address"}],"outputs":[],"stateMutability":"nonpayable"},{"type":"function","name":"release","inputs":[],"outputs":[],"stateMutability":"nonpayable"},{"type":"function","name":"released","inputs":[],"outputs":[{"name":"","type":"uint256","internalType":"uint256"}],"stateMutability":"view"},{"type":"function","name":"released","inputs":[{"name":"token","type":"address","internalType":"address"}],"outputs":[{"name":"","type":"uint256","internalType":"uint256"}],"stateMutability":"view"},{"type":"function","name":"start","inputs":[],"outputs":[{"name":"","type":"uint256","internalType":"uint256"}],"stateMutability":"view"},{"type":"function","name":"vestedAmount","inputs":[{"name":"timestamp","type":"uint64","internalType":"uint64"}],"outputs":[{"name":"","type":"uint256","internalType":"uint256"}],"stateMutability":"view"},{"type":"function","name":"vestedAmount","inputs":[{"name":"token","type":"address","internalType":"address"},{"name":"timestamp","type":"uint64","internalType":"uint64"}],"outputs":[{"name":"","type":"uint256","internalType":"uint256"}],"stateMutability":"view"},{"type":"event","name":"ERC20Released","inputs":[{"name":"token","type":"address","indexed":true,"internalType":"address"},{"name":"amount","type":"uint256","indexed":false,"internalType":"uint256"}],"anonymous":false},{"type":"event","name":"EtherReleased","inputs":[{"name":"amount","type":"uint256","indexed":false,"internalType":"uint256"}],"anonymous":false},{"type":"error","name":"AddressEmptyCode","inputs":[{"name":"target","type":"address","internalType":"address"}]},{"type":"error","name":"AddressInsufficientBalance","inputs":[{"name":"account","type":"address","internalType":"address"}]},{"type":"error","name":"FailedInnerCall","inputs":[]},{"type":"error","name":"SafeERC20FailedOperation","inputs":[{"name":"token","type":"address","internalType":"address"}]},{"type":"error","name":"VestingWalletInvalidBeneficiary","inputs":[{"name":"beneficiary","type":"address","internalType":"address"}]}],"bytecode":{"object":"0x60e0604052604051610b1b380380610b1b83398101604081905261002291610091565b6001600160a01b03831661005057604051631cad2e7360e01b81526000600482015260240160405180910390fd5b6001600160a01b039092166080526001600160401b0390811660a0521660c0526100e2565b80516001600160401b038116811461008c57600080fd5b919050565b6000806000606084860312156100a657600080fd5b83516001600160a01b03811681146100bd57600080fd5b92506100cb60208501610075565b91506100d960408501610075565b90509250925092565b60805160a05160c0516109ef61012c6000396000818160f9015281816104b1015261054d0152600061048a01526000818161016301528181610311015261042a01526109ef6000f3fe6080604052600436106100ab5760003560e01c8063961325211161006457806396132521146101c25780639852595c146101d7578063a3f8eace1461020d578063be9a65551461022d578063efbe1c1c14610242578063fbccedae1461025757600080fd5b80630a17b06b146100b75780630fb5a6b4146100ea578063191655871461012757806338af3eed14610149578063810ec23b1461018d57806386d1a69f146101ad57600080fd5b366100b257005b600080fd5b3480156100c357600080fd5b506100d76100d236600461085a565b61026c565b6040519081526020015b60405180910390f35b3480156100f657600080fd5b507f000000000000000000000000000000000000000000000000000000000000000067ffffffffffffffff166100d7565b34801561013357600080fd5b5061014761014236600461088c565b610290565b005b34801561015557600080fd5b506040516001600160a01b037f00000000000000000000000000000000000000000000000000000000000000001681526020016100e1565b34801561019957600080fd5b506100d76101a83660046108a7565b61033a565b3480156101b957600080fd5b506101476103d0565b3480156101ce57600080fd5b506000546100d7565b3480156101e357600080fd5b506100d76101f236600461088c565b6001600160a01b031660009081526001602052604090205490565b34801561021957600080fd5b506100d761022836600461088c565b610452565b34801561023957600080fd5b506100d761047f565b34801561024e57600080fd5b506100d76104ad565b34801561026357600080fd5b506100d76104f1565b600061028a61027a60005490565b61028490476108f0565b83610508565b92915050565b600061029b82610452565b6001600160a01b0383166000908152600160205260408120805492935083929091906102c89084906108f0565b90915550506040518181526001600160a01b038316907fc0e523490dd523c33b1878c9eb14ff46991e3f5b2cd33710918618f2a39cba1b9060200160405180910390a2610336827f0000000000000000000000000000000000000000000000000000000000000000836105ad565b5050565b6001600160a01b0382166000908152600160205260408120546103c9906040516370a0823160e01b81523060048201526001600160a01b038616906370a0823190602401602060405180830381865afa15801561039b573d6000803e3d6000fd5b505050506040513d601f19601f820116820180604052508101906103bf9190610903565b61028491906108f0565b9392505050565b60006103da6104f1565b9050806000808282546103ed91906108f0565b90915550506040518181527fda9d4e5f101b8b9b1c5b76d0c5a9f7923571acfc02376aa076b75a8c080c956b9060200160405180910390a161044f7f000000000000000000000000000000000000000000000000000000000000000082610604565b50565b6001600160a01b038116600090815260016020526040812054610475834261033a565b61028a919061091c565b67ffffffffffffffff7f00000000000000000000000000000000000000000000000000000000000000001690565b60007f000000000000000000000000000000000000000000000000000000000000000067ffffffffffffffff166104e261047f565b6104ec91906108f0565b905090565b600080546104fe4261026c565b6104ec919061091c565b600061051261047f565b8267ffffffffffffffff16101561052b5750600061028a565b6105336104ad565b8267ffffffffffffffff16111561054b57508161028a565b7f000000000000000000000000000000000000000000000000000000000000000067ffffffffffffffff1661057e61047f565b6105929067ffffffffffffffff851661091c565b61059c908561092f565b6105a69190610946565b905061028a565b604080516001600160a01b038416602482015260448082018490528251808303909101815260649091019091526020810180516001600160e01b031663a9059cbb60e01b1790526105ff9084906106a0565b505050565b8047101561062c5760405163cd78605960e01b81523060048201526024015b60405180910390fd5b6000826001600160a01b03168260405160006040518083038185875af1925050503d8060008114610679576040519150601f19603f3d011682016040523d82523d6000602084013e61067e565b606091505b50509050806105ff57604051630a12f52160e11b815260040160405180910390fd5b60006106b56001600160a01b03841683610703565b905080516000141580156106da5750808060200190518101906106d89190610968565b155b156105ff57604051635274afe760e01b81526001600160a01b0384166004820152602401610623565b60606103c98383600061071461072d565b604051630a12f52160e11b815260040160405180910390fd5b6060824710156107525760405163cd78605960e01b8152306004820152602401610623565b600080866001600160a01b0316858760405161076e919061098a565b60006040518083038185875af1925050503d80600081146107ab576040519150601f19603f3d011682016040523d82523d6000602084013e6107b0565b606091505b50915091506107c1878383876107ce565b925050505b949350505050565b6060831561081c57825160000361081557846001600160a01b03163b60000361081557604051639996b31560e01b81526001600160a01b0386166004820152602401610623565b50816107c6565b6107c683838151156108315781518083602001fd5b6107148163ffffffff16565b803567ffffffffffffffff8116811461085557600080fd5b919050565b60006020828403121561086c57600080fd5b6103c98261083d565b80356001600160a01b038116811461085557600080fd5b60006020828403121561089e57600080fd5b6103c982610875565b600080604083850312156108ba57600080fd5b6108c383610875565b91506108d16020840161083d565b90509250929050565b634e487b7160e01b600052601160045260246000fd5b8082018082111561028a5761028a6108da565b60006020828403121561091557600080fd5b5051919050565b8181038181111561028a5761028a6108da565b808202811582820484141761028a5761028a6108da565b60008261096357634e487b7160e01b600052601260045260246000fd5b500490565b60006020828403121561097a57600080fd5b815180151581146103c957600080fd5b6000825160005b818110156109ab5760208186018101518583015201610991565b50600092019182525091905056fea2646970667358221220672c855fc0b05552f667ffe7eb6a99de74ce82294622d7f37f8f4f557837429564736f6c634300081b0033","linkReferences":{}},"methodIdentifiers":{"beneficiary()":"38af3eed","duration()":"0fb5a6b4","end()":"efbe1c1c","releasable()":"fbccedae","releasable(address)":"a3f8eace","release()":"86d1a69f","release(address)":"19165587","released()":"96132521","released(address)":"9852595c","start()":"be9a6555","vestedAmount(address,uint64)":"810ec23b","vestedAmount(uint64)":"0a17b06b"},"id":8}