{
  "_format": "hh-sol-artifact-1",
  "contractName": "Implementation3",
  "sourceName": "contracts/mocks/RegressionImplementation.sol",
  "abi": [
    {
      "inputs": [],
      "name": "AlreadyInitialized",
      "type": "error"
    },
    {
      "inputs": [],
      "name": "NotInitializing",
      "type": "error"
    },
    {
      "anonymous": false,
      "inputs": [
        {
          "indexed": false,
          "internalType": "uint8",
          "name": "version",
          "type": "uint8"
        }
      ],
      "name": "Initialized",
      "type": "event"
    },
    {
      "inputs": [
        {
          "internalType": "uint256",
          "name": "_number",
          "type": "uint256"
        }
      ],
      "name": "getValue",
      "outputs": [
        {
          "internalType": "uint256",
          "name": "",
          "type": "uint256"
        }
      ],
      "stateMutability": "view",
      "type": "function"
    },
    {
      "inputs": [],
      "name": "initialize",
      "outputs": [],
      "stateMutability": "nonpayable",
      "type": "function"
    },
    {
      "inputs": [
        {
          "internalType": "uint256",
          "name": "_number",
          "type": "uint256"
        }
      ],
      "name": "setValue",
      "outputs": [],
      "stateMutability": "nonpayable",
      "type": "function"
    }
  ],
  "bytecode": "0x608060405234801561000f575f80fd5b506101c78061001d5f395ff3fe608060405234801561000f575f80fd5b506004361061003f575f3560e01c80630ff4c9161461004357806355241077146100685780638129fc1c1461007d575b5f80fd5b61005661005136600461015b565b610085565b60405190815260200160405180910390f35b61007b61007636600461015b565b600155565b005b61007b61009a565b5f816001546100949190610172565b92915050565b5f54610100900460ff16158080156100b857505f54600160ff909116105b1580156100d55750303b1580156100d357505f5460ff166001145b155b156100f25760405162dc149f60e41b815260040160405180910390fd5b5f805460ff191660011790558015610113575f805461ff0019166101001790555b8015610158575f805461ff0019169055604051600181527f7f26b83ff96e1f2b6a682f133852f6798a09c465da95921460cefb38474024989060200160405180910390a15b50565b5f6020828403121561016b575f80fd5b5035919050565b8082018082111561009457634e487b7160e01b5f52601160045260245ffdfea2646970667358221220db9d86ed10d434912844a58221e42f239b8e45886ee80d3225f854141690f44a64736f6c63430008140033",
  "linkReferences": {},
  "deployedLinkReferences": {}
}