{
  "_format": "hh-sol-artifact-1",
  "contractName": "$TimelockReentrant",
  "sourceName": "contracts-exposed/mocks/TimelockReentrant.sol",
  "abi": [
    {
      "inputs": [],
      "stateMutability": "payable",
      "type": "constructor"
    },
    {
      "inputs": [
        {
          "internalType": "address",
          "name": "target",
          "type": "address"
        }
      ],
      "name": "AddressEmptyCode",
      "type": "error"
    },
    {
      "inputs": [
        {
          "internalType": "address",
          "name": "account",
          "type": "address"
        }
      ],
      "name": "AddressInsufficientBalance",
      "type": "error"
    },
    {
      "inputs": [],
      "name": "FailedInnerCall",
      "type": "error"
    },
    {
      "inputs": [],
      "name": "$_reentered",
      "outputs": [
        {
          "internalType": "bool",
          "name": "",
          "type": "bool"
        }
      ],
      "stateMutability": "view",
      "type": "function"
    },
    {
      "inputs": [],
      "name": "__hh_exposed_bytecode_marker",
      "outputs": [
        {
          "internalType": "bytes32",
          "name": "",
          "type": "bytes32"
        }
      ],
      "stateMutability": "view",
      "type": "function"
    },
    {
      "inputs": [],
      "name": "disableReentrancy",
      "outputs": [],
      "stateMutability": "nonpayable",
      "type": "function"
    },
    {
      "inputs": [
        {
          "internalType": "address",
          "name": "target",
          "type": "address"
        },
        {
          "internalType": "bytes",
          "name": "data",
          "type": "bytes"
        }
      ],
      "name": "enableRentrancy",
      "outputs": [],
      "stateMutability": "nonpayable",
      "type": "function"
    },
    {
      "inputs": [],
      "name": "reenter",
      "outputs": [],
      "stateMutability": "nonpayable",
      "type": "function"
    },
    {
      "stateMutability": "payable",
      "type": "receive"
    }
  ],
  "bytecode": "0x608060405261056e806100115f395ff3fe60806040526004361061004c575f3560e01c8063342db739146100575780633654421b1461008f57806360a7a272146100b0578063a0fe97e3146100d2578063cc23fb1c146100e6575f80fd5b3661005357005b5f80fd5b348015610062575f80fd5b5061007c6e1a185c991a185d0b595e1c1bdcd959608a1b81565b6040519081526020015b60405180910390f35b34801561009a575f80fd5b506100ae6100a936600461032d565b610104565b005b3480156100bb575f80fd5b5060025460ff166040519015158152602001610086565b3480156100dd575f80fd5b506100ae610131565b3480156100f1575f80fd5b506100ae6002805460ff19166001179055565b5f80546001600160a01b0319166001600160a01b038516179055600161012b828483610450565b50505050565b60025460ff166101ec576002805460ff191660019081179091555f5481546101ea926001600160a01b039092169190610169906103ca565b80601f0160208091040260200160405190810160405280929190818152602001828054610195906103ca565b80156101e05780601f106101b7576101008083540402835291602001916101e0565b820191905f5260205f20905b8154815290600101906020018083116101c357829003601f168201915b50505050506101ee565b505b565b60606101fe83835f61020561021e565b9392505050565b604051630a12f52160e11b815260040160405180910390fd5b6060824710156102485760405163cd78605960e01b81523060048201526024015b60405180910390fd5b5f80866001600160a01b03168587604051610263919061050c565b5f6040518083038185875af1925050503d805f811461029d576040519150601f19603f3d011682016040523d82523d5f602084013e6102a2565b606091505b50915091506102b3878383876102c0565b925050505b949350505050565b6060831561030c5782515f0361030557846001600160a01b03163b5f0361030557604051639996b31560e01b81526001600160a01b038616600482015260240161023f565b50816102b8565b6102b883838151156103215781518083602001fd5b6102058163ffffffff16565b5f805f6040848603121561033f575f80fd5b83356001600160a01b0381168114610355575f80fd5b9250602084013567ffffffffffffffff80821115610371575f80fd5b818601915086601f830112610384575f80fd5b813581811115610392575f80fd5b8760208285010111156103a3575f80fd5b6020830194508093505050509250925092565b634e487b7160e01b5f52604160045260245ffd5b600181811c908216806103de57607f821691505b6020821081036103fc57634e487b7160e01b5f52602260045260245ffd5b50919050565b601f82111561044b575f81815260208120601f850160051c810160208610156104285750805b601f850160051c820191505b8181101561044757828155600101610434565b5050505b505050565b67ffffffffffffffff831115610468576104686103b6565b61047c8361047683546103ca565b83610402565b5f601f8411600181146104ad575f85156104965750838201355b5f19600387901b1c1916600186901b178355610505565b5f83815260209020601f19861690835b828110156104dd57868501358255602094850194600190920191016104bd565b50868210156104f9575f1960f88860031b161c19848701351681555b505060018560011b0183555b5050505050565b5f82515f5b8181101561052b5760208186018101518583015201610511565b505f92019182525091905056fea26469706673582212208428fc2ba9c2eb10aee49b2a0bb77f3d50ac675590507bedfecc5c6bc09a45be64736f6c63430008140033",
  "linkReferences": {},
  "deployedLinkReferences": {}
}