{"abi":[{"type":"constructor","inputs":[{"name":"wrappedToken","type":"address","internalType":"contract IERC20"}],"stateMutability":"nonpayable"},{"type":"function","name":"CLOCK_MODE","inputs":[],"outputs":[{"name":"","type":"string","internalType":"string"}],"stateMutability":"view"},{"type":"function","name":"DOMAIN_SEPARATOR","inputs":[],"outputs":[{"name":"","type":"bytes32","internalType":"bytes32"}],"stateMutability":"view"},{"type":"function","name":"allowance","inputs":[{"name":"owner","type":"address","internalType":"address"},{"name":"spender","type":"address","internalType":"address"}],"outputs":[{"name":"","type":"uint256","internalType":"uint256"}],"stateMutability":"view"},{"type":"function","name":"approve","inputs":[{"name":"spender","type":"address","internalType":"address"},{"name":"value","type":"uint256","internalType":"uint256"}],"outputs":[{"name":"","type":"bool","internalType":"bool"}],"stateMutability":"nonpayable"},{"type":"function","name":"balanceOf","inputs":[{"name":"account","type":"address","internalType":"address"}],"outputs":[{"name":"","type":"uint256","internalType":"uint256"}],"stateMutability":"view"},{"type":"function","name":"checkpoints","inputs":[{"name":"account","type":"address","internalType":"address"},{"name":"pos","type":"uint32","internalType":"uint32"}],"outputs":[{"name":"","type":"tuple","internalType":"struct Checkpoints.Checkpoint224","components":[{"name":"_key","type":"uint32","internalType":"uint32"},{"name":"_value","type":"uint224","internalType":"uint224"}]}],"stateMutability":"view"},{"type":"function","name":"clock","inputs":[],"outputs":[{"name":"","type":"uint48","internalType":"uint48"}],"stateMutability":"view"},{"type":"function","name":"decimals","inputs":[],"outputs":[{"name":"","type":"uint8","internalType":"uint8"}],"stateMutability":"view"},{"type":"function","name":"decreaseAllowance","inputs":[{"name":"spender","type":"address","internalType":"address"},{"name":"requestedDecrease","type":"uint256","internalType":"uint256"}],"outputs":[{"name":"","type":"bool","internalType":"bool"}],"stateMutability":"nonpayable"},{"type":"function","name":"delegate","inputs":[{"name":"delegatee","type":"address","internalType":"address"}],"outputs":[],"stateMutability":"nonpayable"},{"type":"function","name":"delegateBySig","inputs":[{"name":"delegatee","type":"address","internalType":"address"},{"name":"nonce","type":"uint256","internalType":"uint256"},{"name":"expiry","type":"uint256","internalType":"uint256"},{"name":"v","type":"uint8","internalType":"uint8"},{"name":"r","type":"bytes32","internalType":"bytes32"},{"name":"s","type":"bytes32","internalType":"bytes32"}],"outputs":[],"stateMutability":"nonpayable"},{"type":"function","name":"delegates","inputs":[{"name":"account","type":"address","internalType":"address"}],"outputs":[{"name":"","type":"address","internalType":"address"}],"stateMutability":"view"},{"type":"function","name":"depositFor","inputs":[{"name":"account","type":"address","internalType":"address"},{"name":"value","type":"uint256","internalType":"uint256"}],"outputs":[{"name":"","type":"bool","internalType":"bool"}],"stateMutability":"nonpayable"},{"type":"function","name":"eip712Domain","inputs":[],"outputs":[{"name":"fields","type":"bytes1","internalType":"bytes1"},{"name":"name","type":"string","internalType":"string"},{"name":"version","type":"string","internalType":"string"},{"name":"chainId","type":"uint256","internalType":"uint256"},{"name":"verifyingContract","type":"address","internalType":"address"},{"name":"salt","type":"bytes32","internalType":"bytes32"},{"name":"extensions","type":"uint256[]","internalType":"uint256[]"}],"stateMutability":"view"},{"type":"function","name":"getPastTotalSupply","inputs":[{"name":"timepoint","type":"uint256","internalType":"uint256"}],"outputs":[{"name":"","type":"uint256","internalType":"uint256"}],"stateMutability":"view"},{"type":"function","name":"getPastVotes","inputs":[{"name":"account","type":"address","internalType":"address"},{"name":"timepoint","type":"uint256","internalType":"uint256"}],"outputs":[{"name":"","type":"uint256","internalType":"uint256"}],"stateMutability":"view"},{"type":"function","name":"getVotes","inputs":[{"name":"account","type":"address","internalType":"address"}],"outputs":[{"name":"","type":"uint256","internalType":"uint256"}],"stateMutability":"view"},{"type":"function","name":"increaseAllowance","inputs":[{"name":"spender","type":"address","internalType":"address"},{"name":"addedValue","type":"uint256","internalType":"uint256"}],"outputs":[{"name":"","type":"bool","internalType":"bool"}],"stateMutability":"nonpayable"},{"type":"function","name":"name","inputs":[],"outputs":[{"name":"","type":"string","internalType":"string"}],"stateMutability":"view"},{"type":"function","name":"nonces","inputs":[{"name":"owner","type":"address","internalType":"address"}],"outputs":[{"name":"","type":"uint256","internalType":"uint256"}],"stateMutability":"view"},{"type":"function","name":"numCheckpoints","inputs":[{"name":"account","type":"address","internalType":"address"}],"outputs":[{"name":"","type":"uint32","internalType":"uint32"}],"stateMutability":"view"},{"type":"function","name":"permit","inputs":[{"name":"owner","type":"address","internalType":"address"},{"name":"spender","type":"address","internalType":"address"},{"name":"value","type":"uint256","internalType":"uint256"},{"name":"deadline","type":"uint256","internalType":"uint256"},{"name":"v","type":"uint8","internalType":"uint8"},{"name":"r","type":"bytes32","internalType":"bytes32"},{"name":"s","type":"bytes32","internalType":"bytes32"}],"outputs":[],"stateMutability":"nonpayable"},{"type":"function","name":"symbol","inputs":[],"outputs":[{"name":"","type":"string","internalType":"string"}],"stateMutability":"view"},{"type":"function","name":"totalSupply","inputs":[],"outputs":[{"name":"","type":"uint256","internalType":"uint256"}],"stateMutability":"view"},{"type":"function","name":"transfer","inputs":[{"name":"to","type":"address","internalType":"address"},{"name":"value","type":"uint256","internalType":"uint256"}],"outputs":[{"name":"","type":"bool","internalType":"bool"}],"stateMutability":"nonpayable"},{"type":"function","name":"transferFrom","inputs":[{"name":"from","type":"address","internalType":"address"},{"name":"to","type":"address","internalType":"address"},{"name":"value","type":"uint256","internalType":"uint256"}],"outputs":[{"name":"","type":"bool","internalType":"bool"}],"stateMutability":"nonpayable"},{"type":"function","name":"underlying","inputs":[],"outputs":[{"name":"","type":"address","internalType":"contract IERC20"}],"stateMutability":"view"},{"type":"function","name":"withdrawTo","inputs":[{"name":"account","type":"address","internalType":"address"},{"name":"value","type":"uint256","internalType":"uint256"}],"outputs":[{"name":"","type":"bool","internalType":"bool"}],"stateMutability":"nonpayable"},{"type":"event","name":"Approval","inputs":[{"name":"owner","type":"address","indexed":true,"internalType":"address"},{"name":"spender","type":"address","indexed":true,"internalType":"address"},{"name":"value","type":"uint256","indexed":false,"internalType":"uint256"}],"anonymous":false},{"type":"event","name":"DelegateChanged","inputs":[{"name":"delegator","type":"address","indexed":true,"internalType":"address"},{"name":"fromDelegate","type":"address","indexed":true,"internalType":"address"},{"name":"toDelegate","type":"address","indexed":true,"internalType":"address"}],"anonymous":false},{"type":"event","name":"DelegateVotesChanged","inputs":[{"name":"delegate","type":"address","indexed":true,"internalType":"address"},{"name":"previousVotes","type":"uint256","indexed":false,"internalType":"uint256"},{"name":"newVotes","type":"uint256","indexed":false,"internalType":"uint256"}],"anonymous":false},{"type":"event","name":"EIP712DomainChanged","inputs":[],"anonymous":false},{"type":"event","name":"Transfer","inputs":[{"name":"from","type":"address","indexed":true,"internalType":"address"},{"name":"to","type":"address","indexed":true,"internalType":"address"},{"name":"value","type":"uint256","indexed":false,"internalType":"uint256"}],"anonymous":false},{"type":"error","name":"AddressEmptyCode","inputs":[{"name":"target","type":"address","internalType":"address"}]},{"type":"error","name":"AddressInsufficientBalance","inputs":[{"name":"account","type":"address","internalType":"address"}]},{"type":"error","name":"CheckpointUnorderedInsertion","inputs":[]},{"type":"error","name":"ECDSAInvalidSignature","inputs":[]},{"type":"error","name":"ECDSAInvalidSignatureLength","inputs":[{"name":"length","type":"uint256","internalType":"uint256"}]},{"type":"error","name":"ECDSAInvalidSignatureS","inputs":[{"name":"s","type":"bytes32","internalType":"bytes32"}]},{"type":"error","name":"ERC20ExceededSafeSupply","inputs":[{"name":"increasedSupply","type":"uint256","internalType":"uint256"},{"name":"cap","type":"uint256","internalType":"uint256"}]},{"type":"error","name":"ERC20FailedDecreaseAllowance","inputs":[{"name":"spender","type":"address","internalType":"address"},{"name":"currentAllowance","type":"uint256","internalType":"uint256"},{"name":"requestedDecrease","type":"uint256","internalType":"uint256"}]},{"type":"error","name":"ERC20InsufficientAllowance","inputs":[{"name":"spender","type":"address","internalType":"address"},{"name":"allowance","type":"uint256","internalType":"uint256"},{"name":"needed","type":"uint256","internalType":"uint256"}]},{"type":"error","name":"ERC20InsufficientBalance","inputs":[{"name":"sender","type":"address","internalType":"address"},{"name":"balance","type":"uint256","internalType":"uint256"},{"name":"needed","type":"uint256","internalType":"uint256"}]},{"type":"error","name":"ERC20InvalidApprover","inputs":[{"name":"approver","type":"address","internalType":"address"}]},{"type":"error","name":"ERC20InvalidReceiver","inputs":[{"name":"receiver","type":"address","internalType":"address"}]},{"type":"error","name":"ERC20InvalidSender","inputs":[{"name":"sender","type":"address","internalType":"address"}]},{"type":"error","name":"ERC20InvalidSpender","inputs":[{"name":"spender","type":"address","internalType":"address"}]},{"type":"error","name":"ERC20InvalidUnderlying","inputs":[{"name":"token","type":"address","internalType":"address"}]},{"type":"error","name":"ERC2612ExpiredSignature","inputs":[{"name":"deadline","type":"uint256","internalType":"uint256"}]},{"type":"error","name":"ERC2612InvalidSigner","inputs":[{"name":"signer","type":"address","internalType":"address"},{"name":"owner","type":"address","internalType":"address"}]},{"type":"error","name":"ERC5805FutureLookup","inputs":[{"name":"timepoint","type":"uint256","internalType":"uint256"},{"name":"clock","type":"uint48","internalType":"uint48"}]},{"type":"error","name":"ERC6372InconsistentClock","inputs":[]},{"type":"error","name":"FailedInnerCall","inputs":[]},{"type":"error","name":"InvalidAccountNonce","inputs":[{"name":"account","type":"address","internalType":"address"},{"name":"currentNonce","type":"uint256","internalType":"uint256"}]},{"type":"error","name":"InvalidShortString","inputs":[]},{"type":"error","name":"SafeCastOverflowedUintDowncast","inputs":[{"name":"bits","type":"uint8","internalType":"uint8"},{"name":"value","type":"uint256","internalType":"uint256"}]},{"type":"error","name":"SafeERC20FailedOperation","inputs":[{"name":"token","type":"address","internalType":"address"}]},{"type":"error","name":"StringTooLong","inputs":[{"name":"str","type":"string","internalType":"string"}]},{"type":"error","name":"VotesExpiredSignature","inputs":[{"name":"expiry","type":"uint256","internalType":"uint256"}]}],"bytecode":{"object":"0x61018060405234801561001157600080fd5b506040516128b23803806128b28339810160408190526100309161023e565b806040518060400160405280600e81526020016d135e551bdad95b95dc985c1c195960921b81525080604051806040016040528060018152602001603160f81b8152506040518060400160405280600e81526020016d135e551bdad95b95dc985c1c195960921b815250604051806040016040528060038152602001624d544b60e81b81525081600390816100c5919061030d565b5060046100d2828261030d565b506100e2915083905060056101cd565b610120526100f18160066101cd565b61014052815160208084019190912060e052815190820120610100524660a05261017e60e05161010051604080517f8b73c3c69bb8fe3d512ecc4cf759cc79239f7b179b0ffacaa9a75d522b39400f60208201529081019290925260608201524660808201523060a082015260009060c00160405160208183030381529060405280519060200120905090565b60805250503060c08190526001600160a01b0383160390506101ba5760405163438d6fe360e01b81523060048201526024015b60405180910390fd5b6001600160a01b0316610160525061043d565b60006020835110156101e9576101e283610200565b90506101fa565b816101f4848261030d565b5060ff90505b92915050565b600080829050601f8151111561022b578260405163305a27a960e01b81526004016101b191906103cb565b805161023682610419565b179392505050565b60006020828403121561025057600080fd5b81516001600160a01b038116811461026757600080fd5b9392505050565b634e487b7160e01b600052604160045260246000fd5b600181811c9082168061029857607f821691505b6020821081036102b857634e487b7160e01b600052602260045260246000fd5b50919050565b601f82111561030857806000526020600020601f840160051c810160208510156102e55750805b601f840160051c820191505b8181101561030557600081556001016102f1565b50505b505050565b81516001600160401b038111156103265761032661026e565b61033a816103348454610284565b846102be565b6020601f82116001811461036e57600083156103565750848201515b600019600385901b1c1916600184901b178455610305565b600084815260208120601f198516915b8281101561039e578785015182556020948501946001909201910161037e565b50848210156103bc5786840151600019600387901b60f8161c191681555b50505050600190811b01905550565b602081526000825180602084015260005b818110156103f957602081860181015160408684010152016103dc565b506000604082850101526040601f19601f83011684010191505092915050565b805160208083015191908110156102b85760001960209190910360031b1b16919050565b60805160a05160c05160e051610100516101205161014051610160516123fb6104b76000396000818161030001528181610582015281816106330152610d34015260006110b50152600061108801526000610e9501526000610e6d01526000610dc801526000610df201526000610e1c01526123fb6000f3fe608060405234801561001057600080fd5b50600436106101c45760003560e01c80636fcfff45116100f95780639ab24eb011610097578063c3cda52011610071578063c3cda52014610416578063d505accf14610429578063dd62ed3e1461043c578063f1127ed81461044f57600080fd5b80639ab24eb0146103dd578063a457c2d7146103f0578063a9059cbb1461040357600080fd5b806384b0196e116100d357806384b0196e146103885780638e539e8c146103a357806391ddadf4146103b657806395d89b41146103d557600080fd5b80636fcfff451461032457806370a082311461034c5780637ecebe001461037557600080fd5b80633644e515116101665780634bf5d7e9116101405780634bf5d7e91461029d578063587cde1e146102a55780635c19a95c146102e95780636f307dc3146102fe57600080fd5b80633644e5151461026f57806339509351146102775780633a46b1a81461028a57600080fd5b8063205c2878116101a2578063205c28781461021c57806323b872dd1461022f5780632f4f21e214610242578063313ce5671461025557600080fd5b806306fdde03146101c9578063095ea7b3146101e757806318160ddd1461020a575b600080fd5b6101d161048c565b6040516101de9190611fa9565b60405180910390f35b6101fa6101f5366004611fd3565b61051e565b60405190151581526020016101de565b6002545b6040519081526020016101de565b6101fa61022a366004611fd3565b610538565b6101fa61023d366004611ffd565b6105b1565b6101fa610250366004611fd3565b6105d5565b61025d610664565b60405160ff90911681526020016101de565b61020e610673565b6101fa610285366004611fd3565b61067d565b61020e610298366004611fd3565b61069f565b6101d1610720565b6102d16102b336600461203a565b6001600160a01b039081166000908152600860205260409020541690565b6040516001600160a01b0390911681526020016101de565b6102fc6102f736600461203a565b610789565b005b7f00000000000000000000000000000000000000000000000000000000000000006102d1565b61033761033236600461203a565b610798565b60405163ffffffff90911681526020016101de565b61020e61035a36600461203a565b6001600160a01b031660009081526020819052604090205490565b61020e61038336600461203a565b6107a3565b6103906107ae565b6040516101de9796959493929190612055565b61020e6103b13660046120ed565b6107f4565b6103be61085e565b60405165ffffffffffff90911681526020016101de565b6101d1610869565b61020e6103eb36600461203a565b610878565b6101fa6103fe366004611fd3565b6108a8565b6101fa610411366004611fd3565b6108ff565b6102fc610424366004612118565b61090d565b6102fc610437366004612172565b6109cb565b61020e61044a3660046121df565b610b05565b61046261045d366004612212565b610b30565b60408051825163ffffffff1681526020928301516001600160e01b031692810192909252016101de565b60606003805461049b90612252565b80601f01602080910402602001604051908101604052809291908181526020018280546104c790612252565b80156105145780601f106104e957610100808354040283529160200191610514565b820191906000526020600020905b8154815290600101906020018083116104f757829003601f168201915b5050505050905090565b60003361052c818585610b55565b60019150505b92915050565b6000306001600160a01b038416036105735760405163ec442f0560e01b81526001600160a01b03841660048201526024015b60405180910390fd5b61057d3383610b67565b6105a87f00000000000000000000000000000000000000000000000000000000000000008484610b9d565b50600192915050565b6000336105bf858285610bfc565b6105ca858585610c62565b506001949350505050565b6000333081036105fa57604051634b637e8f60e11b815230600482015260240161056a565b306001600160a01b0385160361062e5760405163ec442f0560e01b81526001600160a01b038516600482015260240161056a565b61065a7f0000000000000000000000000000000000000000000000000000000000000000823086610cc1565b61052c8484610cfa565b600061066e610d30565b905090565b600061066e610dbb565b60003361052c8185856106908383610b05565b61069a91906122a2565b610b55565b6000806106aa61085e565b90508065ffffffffffff1683106106e557604051637669fc0f60e11b81526004810184905265ffffffffffff8216602482015260440161056a565b61070f6106f184610ee6565b6001600160a01b038616600090815260096020526040902090610f1b565b6001600160e01b0316949350505050565b60604361072b61085e565b65ffffffffffff1614610751576040516301bfc1c560e61b815260040160405180910390fd5b5060408051808201909152601d81527f6d6f64653d626c6f636b6e756d6265722666726f6d3d64656661756c74000000602082015290565b336107948183610fcf565b5050565b600061053282611041565b600061053282611063565b6000606080600080600060606107c2611081565b6107ca6110ae565b60408051600080825260208201909252600f60f81b9b939a50919850469750309650945092509050565b6000806107ff61085e565b90508065ffffffffffff16831061083a57604051637669fc0f60e11b81526004810184905265ffffffffffff8216602482015260440161056a565b61084e61084684610ee6565b600a90610f1b565b6001600160e01b03169392505050565b600061066e436110db565b60606004805461049b90612252565b6001600160a01b03811660009081526009602052604081206108999061110e565b6001600160e01b031692915050565b600033816108b68286610b05565b9050838110156108f257604051632983c0c360e21b81526001600160a01b0386166004820152602481018290526044810185905260640161056a565b6105ca8286868403610b55565b60003361052c818585610c62565b8342111561093157604051632341d78760e11b81526004810185905260240161056a565b604080517fe48329057bfd03d55e49b547132e39cffd9c1820ad7b9d4c5307691425d15adf60208201526001600160a01b0388169181019190915260608101869052608081018590526000906109ab906109a39060a00160405160208183030381529060405280519060200120611147565b858585611174565b90506109b781876111a4565b506109c28188610fcf565b50505050505050565b834211156109ef5760405163313c898160e11b81526004810185905260240161056a565b60007f6e71edae12b1b97f4d1f60370fef10105fa2faae0126114a169c64845d6126c9888888610a3c8c6001600160a01b0316600090815260076020526040902080546001810190915590565b6040805160208101969096526001600160a01b0394851690860152929091166060840152608083015260a082015260c0810186905260e0016040516020818303038152906040528051906020012090506000610a9782611147565b90506000610aa782878787611174565b9050896001600160a01b0316816001600160a01b031614610aee576040516325c0072360e11b81526001600160a01b0380831660048301528b16602482015260440161056a565b610af98a8a8a610b55565b50505050505050505050565b6001600160a01b03918216600090815260016020908152604080832093909416825291909152205490565b6040805180820190915260008082526020820152610b4e83836111f7565b9392505050565b610b62838383600161122d565b505050565b6001600160a01b038216610b9157604051634b637e8f60e11b81526000600482015260240161056a565b61079482600083611302565b6040516001600160a01b03838116602483015260448201839052610b6291859182169063a9059cbb906064015b604051602081830303815290604052915060e01b6020820180516001600160e01b03838183161783525050505061130d565b6000610c088484610b05565b90506000198114610c5c5781811015610c4d57604051637dc7a0d960e11b81526001600160a01b0384166004820152602481018290526044810183905260640161056a565b610c5c8484848403600061122d565b50505050565b6001600160a01b038316610c8c57604051634b637e8f60e11b81526000600482015260240161056a565b6001600160a01b038216610cb65760405163ec442f0560e01b81526000600482015260240161056a565b610b62838383611302565b6040516001600160a01b038481166024830152838116604483015260648201839052610c5c9186918216906323b872dd90608401610bca565b6001600160a01b038216610d245760405163ec442f0560e01b81526000600482015260240161056a565b61079460008383611302565b60007f00000000000000000000000000000000000000000000000000000000000000006001600160a01b031663313ce5676040518163ffffffff1660e01b8152600401602060405180830381865afa925050508015610dac575060408051601f3d908101601f19168201909252610da9918101906122b5565b60015b610db65750601290565b919050565b6000306001600160a01b037f000000000000000000000000000000000000000000000000000000000000000016148015610e1457507f000000000000000000000000000000000000000000000000000000000000000046145b15610e3e57507f000000000000000000000000000000000000000000000000000000000000000090565b61066e604080517f8b73c3c69bb8fe3d512ecc4cf759cc79239f7b179b0ffacaa9a75d522b39400f60208201527f0000000000000000000000000000000000000000000000000000000000000000918101919091527f000000000000000000000000000000000000000000000000000000000000000060608201524660808201523060a082015260009060c00160405160208183030381529060405280519060200120905090565b600063ffffffff821115610f17576040516306dfcc6560e41b8152602060048201526024810183905260440161056a565b5090565b815460009081816005811115610f78576000610f3684611370565b610f4090856122d2565b60008881526020902090915081015463ffffffff9081169087161015610f6857809150610f76565b610f738160016122a2565b92505b505b6000610f8687878585611458565b90508015610fc157610fab87610f9d6001846122d2565b600091825260209091200190565b54600160201b90046001600160e01b0316610fc4565b60005b979650505050505050565b6001600160a01b0382811660008181526008602052604080822080548686166001600160a01b0319821681179092559151919094169392849290917f3134e8a2e6d97e929a7e54011ea5485d7d196dd5f0ba4d4ef95803e8e3fc257f9190a4610b62818361103c866114b6565b6114d4565b6001600160a01b03811660009081526009602052604081205461053290610ee6565b6001600160a01b038116600090815260076020526040812054610532565b606061066e7f00000000000000000000000000000000000000000000000000000000000000006005611640565b606061066e7f00000000000000000000000000000000000000000000000000000000000000006006611640565b600065ffffffffffff821115610f17576040516306dfcc6560e41b8152603060048201526024810183905260440161056a565b8054600090801561113e5761112883610f9d6001846122d2565b54600160201b90046001600160e01b0316610b4e565b60009392505050565b6000610532611154610dbb565b8360405161190160f01b8152600281019290925260228201526042902090565b600080600080611186888888886116eb565b92509250925061119682826117ba565b50909150505b949350505050565b6001600160a01b0382166000908152600760205260408120805460018101909155808314610b4e576040516301d4b62360e61b81526001600160a01b03851660048201526024810182905260440161056a565b60408051808201909152600080825260208201526001600160a01b0383166000908152600960205260409020610b4e9083611873565b6001600160a01b0384166112575760405163e602df0560e01b81526000600482015260240161056a565b6001600160a01b03831661128157604051634a1406b160e11b81526000600482015260240161056a565b6001600160a01b0380851660009081526001602090815260408083209387168352929052208290558015610c5c57826001600160a01b0316846001600160a01b03167f8c5be1e5ebec7d5bd14f71427d1e84f3dd0314c0f7b2291e5b200ac8c7c3b925846040516112f491815260200190565b60405180910390a350505050565b610b628383836118e1565b60006113226001600160a01b03841683611948565b9050805160001415801561134757508080602001905181019061134591906122e5565b155b15610b6257604051635274afe760e01b81526001600160a01b038416600482015260240161056a565b60008160000361138257506000919050565b6000600161138f84611959565b901c6001901b905060018184816113a8576113a8612307565b048201901c905060018184816113c0576113c0612307565b048201901c905060018184816113d8576113d8612307565b048201901c905060018184816113f0576113f0612307565b048201901c9050600181848161140857611408612307565b048201901c9050600181848161142057611420612307565b048201901c9050600181848161143857611438612307565b048201901c9050610b4e8182858161145257611452612307565b046119ed565b60005b818310156114ae57600061146f8484611a03565b60008781526020902090915063ffffffff86169082015463ffffffff16111561149a578092506114a8565b6114a58160016122a2565b93505b5061145b565b509392505050565b6001600160a01b038116600090815260208190526040812054610532565b816001600160a01b0316836001600160a01b0316141580156114f65750600081115b15610b62576001600160a01b0383161561159e576001600160a01b0383166000908152600960205260408120819061153990611a1e61153486611a2a565b611a5e565b6001600160e01b031691506001600160e01b03169150846001600160a01b03167fdec2bacdd2f05b59de34da9b523dff8be42e5e38e818c82fdb0bae774387a7248383604051611593929190918252602082015260400190565b60405180910390a250505b6001600160a01b03821615610b62576001600160a01b038216600090815260096020526040812081906115d790611aa761153486611a2a565b6001600160e01b031691506001600160e01b03169150836001600160a01b03167fdec2bacdd2f05b59de34da9b523dff8be42e5e38e818c82fdb0bae774387a7248383604051611631929190918252602082015260400190565b60405180910390a25050505050565b606060ff831461165a5761165383611ab3565b9050610532565b81805461166690612252565b80601f016020809104026020016040519081016040528092919081815260200182805461169290612252565b80156116df5780601f106116b4576101008083540402835291602001916116df565b820191906000526020600020905b8154815290600101906020018083116116c257829003601f168201915b50505050509050610532565b600080807f7fffffffffffffffffffffffffffffff5d576e7357a4501ddfe92f46681b20a084111561172657506000915060039050826117b0565b604080516000808252602082018084528a905260ff891692820192909252606081018790526080810186905260019060a0016020604051602081039080840390855afa15801561177a573d6000803e3d6000fd5b5050604051601f1901519150506001600160a01b0381166117a6575060009250600191508290506117b0565b9250600091508190505b9450945094915050565b60008260038111156117ce576117ce61231d565b036117d7575050565b60018260038111156117eb576117eb61231d565b036118095760405163f645eedf60e01b815260040160405180910390fd5b600282600381111561181d5761181d61231d565b0361183e5760405163fce698f760e01b81526004810182905260240161056a565b60038260038111156118525761185261231d565b03610794576040516335e2f38360e21b81526004810182905260240161056a565b6040805180820190915260008082526020820152826000018263ffffffff16815481106118a2576118a2612333565b60009182526020918290206040805180820190915291015463ffffffff81168252600160201b90046001600160e01b0316918101919091529392505050565b6118ec838383611af2565b6001600160a01b03831661193d57600061190560025490565b90506001600160e01b038082111561193a57604051630e58ae9360e11b8152600481018390526024810182905260440161056a565b50505b610b62838383611c1c565b6060610b4e83836000611c92611cab565b600080608083901c1561196e57608092831c92015b604083901c1561198057604092831c92015b602083901c1561199257602092831c92015b601083901c156119a457601092831c92015b600883901c156119b657600892831c92015b600483901c156119c857600492831c92015b600283901c156119da57600292831c92015b600183901c156105325760010192915050565b60008183106119fc5781610b4e565b5090919050565b6000611a126002848418612349565b610b4e908484166122a2565b6000610b4e828461236b565b60006001600160e01b03821115610f17576040516306dfcc6560e41b815260e060048201526024810183905260440161056a565b600080611a9a611a7c611a6f61085e565b65ffffffffffff16610ee6565b611a92611a888861110e565b868863ffffffff16565b879190611d3f565b915091505b935093915050565b6000610b4e828461238a565b60606000611ac083611d4d565b604080516020808252818301909252919250600091906020820181803683375050509182525060208101929092525090565b6001600160a01b038316611b1d578060026000828254611b1291906122a2565b90915550611b8f9050565b6001600160a01b03831660009081526020819052604090205481811015611b705760405163391434e360e21b81526001600160a01b0385166004820152602481018290526044810183905260640161056a565b6001600160a01b03841660009081526020819052604090209082900390555b6001600160a01b038216611bab57600280548290039055611bca565b6001600160a01b03821660009081526020819052604090208054820190555b816001600160a01b0316836001600160a01b03167fddf252ad1be2c89b69c2b068fc378daa952ba7f163c4a11628f55a4df523b3ef83604051611c0f91815260200190565b60405180910390a3505050565b6001600160a01b038316611c3e57611c3b600a611aa761153484611a2a565b50505b6001600160a01b038216611c6057611c5d600a611a1e61153484611a2a565b50505b6001600160a01b03838116600090815260086020526040808220548584168352912054610b62929182169116836114d4565b604051630a12f52160e11b815260040160405180910390fd5b606082471015611cd05760405163cd78605960e01b815230600482015260240161056a565b600080866001600160a01b03168587604051611cec91906123a9565b60006040518083038185875af1925050503d8060008114611d29576040519150601f19603f3d011682016040523d82523d6000602084013e611d2e565b606091505b5091509150610fc487838387611d75565b600080611a9a858585611dcd565b600060ff8216601f81111561053257604051632cd44ac360e21b815260040160405180910390fd5b60608315611dc3578251600003611dbc57846001600160a01b03163b600003611dbc57604051639996b31560e01b81526001600160a01b038616600482015260240161056a565b508161119c565b61119c8383611f3d565b825460009081908015611ee4576000611deb87610f9d6001856122d2565b60408051808201909152905463ffffffff808216808452600160201b9092046001600160e01b031660208401529192509087161015611e3d57604051632520601d60e01b815260040160405180910390fd5b805163ffffffff808816911603611e855784611e5e88610f9d6001866122d2565b80546001600160e01b0392909216600160201b0263ffffffff909216919091179055611ed4565b6040805180820190915263ffffffff80881682526001600160e01b0380881660208085019182528b54600181018d5560008d81529190912094519151909216600160201b029216919091179101555b602001519250839150611a9f9050565b50506040805180820190915263ffffffff80851682526001600160e01b0380851660208085019182528854600181018a5560008a815291822095519251909316600160201b029190931617920191909155905081611a9f565b815115611f4d5781518083602001fd5b611c928163ffffffff16565b60005b83811015611f74578181015183820152602001611f5c565b50506000910152565b60008151808452611f95816020860160208601611f59565b601f01601f19169290920160200192915050565b602081526000610b4e6020830184611f7d565b80356001600160a01b0381168114610db657600080fd5b60008060408385031215611fe657600080fd5b611fef83611fbc565b946020939093013593505050565b60008060006060848603121561201257600080fd5b61201b84611fbc565b925061202960208501611fbc565b929592945050506040919091013590565b60006020828403121561204c57600080fd5b610b4e82611fbc565b60ff60f81b8816815260e06020820152600061207460e0830189611f7d565b82810360408401526120868189611f7d565b606084018890526001600160a01b038716608085015260a0840186905283810360c08501528451808252602080870193509091019060005b818110156120dc5783518352602093840193909201916001016120be565b50909b9a5050505050505050505050565b6000602082840312156120ff57600080fd5b5035919050565b60ff8116811461211557600080fd5b50565b60008060008060008060c0878903121561213157600080fd5b61213a87611fbc565b95506020870135945060408701359350606087013561215881612106565b9598949750929560808101359460a0909101359350915050565b600080600080600080600060e0888a03121561218d57600080fd5b61219688611fbc565b96506121a460208901611fbc565b9550604088013594506060880135935060808801356121c281612106565b9699959850939692959460a0840135945060c09093013592915050565b600080604083850312156121f257600080fd5b6121fb83611fbc565b915061220960208401611fbc565b90509250929050565b6000806040838503121561222557600080fd5b61222e83611fbc565b9150602083013563ffffffff8116811461224757600080fd5b809150509250929050565b600181811c9082168061226657607f821691505b60208210810361228657634e487b7160e01b600052602260045260246000fd5b50919050565b634e487b7160e01b600052601160045260246000fd5b808201808211156105325761053261228c565b6000602082840312156122c757600080fd5b8151610b4e81612106565b818103818111156105325761053261228c565b6000602082840312156122f757600080fd5b81518015158114610b4e57600080fd5b634e487b7160e01b600052601260045260246000fd5b634e487b7160e01b600052602160045260246000fd5b634e487b7160e01b600052603260045260246000fd5b60008261236657634e487b7160e01b600052601260045260246000fd5b500490565b6001600160e01b0382811682821603908111156105325761053261228c565b6001600160e01b0381811683821601908111156105325761053261228c565b600082516123bb818460208701611f59565b919091019291505056fea264697066735822122036839fb962430a77e575f9d93b8db9fcbc063383e62eb0944096fc14e296c9b664736f6c634300081b0033","linkReferences":{}},"methodIdentifiers":{"CLOCK_MODE()":"4bf5d7e9","DOMAIN_SEPARATOR()":"3644e515","allowance(address,address)":"dd62ed3e","approve(address,uint256)":"095ea7b3","balanceOf(address)":"70a08231","checkpoints(address,uint32)":"f1127ed8","clock()":"91ddadf4","decimals()":"313ce567","decreaseAllowance(address,uint256)":"a457c2d7","delegate(address)":"5c19a95c","delegateBySig(address,uint256,uint256,uint8,bytes32,bytes32)":"c3cda520","delegates(address)":"587cde1e","depositFor(address,uint256)":"2f4f21e2","eip712Domain()":"84b0196e","getPastTotalSupply(uint256)":"8e539e8c","getPastVotes(address,uint256)":"3a46b1a8","getVotes(address)":"9ab24eb0","increaseAllowance(address,uint256)":"39509351","name()":"06fdde03","nonces(address)":"7ecebe00","numCheckpoints(address)":"6fcfff45","permit(address,address,uint256,uint256,uint8,bytes32,bytes32)":"d505accf","symbol()":"95d89b41","totalSupply()":"18160ddd","transfer(address,uint256)":"a9059cbb","transferFrom(address,address,uint256)":"23b872dd","underlying()":"6f307dc3","withdrawTo(address,uint256)":"205c2878"},"id":92}