{
  "_format": "hh-sol-artifact-1",
  "contractName": "$MyTokenWrapped",
  "sourceName": "contracts-exposed/mocks/docs/governance/MyTokenWrapped.sol",
  "abi": [
    {
      "inputs": [
        {
          "internalType": "contract IERC20",
          "name": "wrappedToken",
          "type": "address"
        }
      ],
      "stateMutability": "payable",
      "type": "constructor"
    },
    {
      "inputs": [
        {
          "internalType": "address",
          "name": "target",
          "type": "address"
        }
      ],
      "name": "AddressEmptyCode",
      "type": "error"
    },
    {
      "inputs": [
        {
          "internalType": "address",
          "name": "account",
          "type": "address"
        }
      ],
      "name": "AddressInsufficientBalance",
      "type": "error"
    },
    {
      "inputs": [],
      "name": "CheckpointUnorderedInsertion",
      "type": "error"
    },
    {
      "inputs": [],
      "name": "ECDSAInvalidSignature",
      "type": "error"
    },
    {
      "inputs": [
        {
          "internalType": "uint256",
          "name": "length",
          "type": "uint256"
        }
      ],
      "name": "ECDSAInvalidSignatureLength",
      "type": "error"
    },
    {
      "inputs": [
        {
          "internalType": "bytes32",
          "name": "s",
          "type": "bytes32"
        }
      ],
      "name": "ECDSAInvalidSignatureS",
      "type": "error"
    },
    {
      "inputs": [
        {
          "internalType": "uint256",
          "name": "increasedSupply",
          "type": "uint256"
        },
        {
          "internalType": "uint256",
          "name": "cap",
          "type": "uint256"
        }
      ],
      "name": "ERC20ExceededSafeSupply",
      "type": "error"
    },
    {
      "inputs": [
        {
          "internalType": "address",
          "name": "spender",
          "type": "address"
        },
        {
          "internalType": "uint256",
          "name": "currentAllowance",
          "type": "uint256"
        },
        {
          "internalType": "uint256",
          "name": "requestedDecrease",
          "type": "uint256"
        }
      ],
      "name": "ERC20FailedDecreaseAllowance",
      "type": "error"
    },
    {
      "inputs": [
        {
          "internalType": "address",
          "name": "spender",
          "type": "address"
        },
        {
          "internalType": "uint256",
          "name": "allowance",
          "type": "uint256"
        },
        {
          "internalType": "uint256",
          "name": "needed",
          "type": "uint256"
        }
      ],
      "name": "ERC20InsufficientAllowance",
      "type": "error"
    },
    {
      "inputs": [
        {
          "internalType": "address",
          "name": "sender",
          "type": "address"
        },
        {
          "internalType": "uint256",
          "name": "balance",
          "type": "uint256"
        },
        {
          "internalType": "uint256",
          "name": "needed",
          "type": "uint256"
        }
      ],
      "name": "ERC20InsufficientBalance",
      "type": "error"
    },
    {
      "inputs": [
        {
          "internalType": "address",
          "name": "approver",
          "type": "address"
        }
      ],
      "name": "ERC20InvalidApprover",
      "type": "error"
    },
    {
      "inputs": [
        {
          "internalType": "address",
          "name": "receiver",
          "type": "address"
        }
      ],
      "name": "ERC20InvalidReceiver",
      "type": "error"
    },
    {
      "inputs": [
        {
          "internalType": "address",
          "name": "sender",
          "type": "address"
        }
      ],
      "name": "ERC20InvalidSender",
      "type": "error"
    },
    {
      "inputs": [
        {
          "internalType": "address",
          "name": "spender",
          "type": "address"
        }
      ],
      "name": "ERC20InvalidSpender",
      "type": "error"
    },
    {
      "inputs": [
        {
          "internalType": "address",
          "name": "token",
          "type": "address"
        }
      ],
      "name": "ERC20InvalidUnderlying",
      "type": "error"
    },
    {
      "inputs": [
        {
          "internalType": "uint256",
          "name": "deadline",
          "type": "uint256"
        }
      ],
      "name": "ERC2612ExpiredSignature",
      "type": "error"
    },
    {
      "inputs": [
        {
          "internalType": "address",
          "name": "signer",
          "type": "address"
        },
        {
          "internalType": "address",
          "name": "owner",
          "type": "address"
        }
      ],
      "name": "ERC2612InvalidSigner",
      "type": "error"
    },
    {
      "inputs": [
        {
          "internalType": "uint256",
          "name": "timepoint",
          "type": "uint256"
        },
        {
          "internalType": "uint48",
          "name": "clock",
          "type": "uint48"
        }
      ],
      "name": "ERC5805FutureLookup",
      "type": "error"
    },
    {
      "inputs": [],
      "name": "ERC6372InconsistentClock",
      "type": "error"
    },
    {
      "inputs": [],
      "name": "FailedInnerCall",
      "type": "error"
    },
    {
      "inputs": [
        {
          "internalType": "address",
          "name": "account",
          "type": "address"
        },
        {
          "internalType": "uint256",
          "name": "currentNonce",
          "type": "uint256"
        }
      ],
      "name": "InvalidAccountNonce",
      "type": "error"
    },
    {
      "inputs": [],
      "name": "InvalidShortString",
      "type": "error"
    },
    {
      "inputs": [
        {
          "internalType": "uint8",
          "name": "bits",
          "type": "uint8"
        },
        {
          "internalType": "uint256",
          "name": "value",
          "type": "uint256"
        }
      ],
      "name": "SafeCastOverflowedUintDowncast",
      "type": "error"
    },
    {
      "inputs": [
        {
          "internalType": "address",
          "name": "token",
          "type": "address"
        }
      ],
      "name": "SafeERC20FailedOperation",
      "type": "error"
    },
    {
      "inputs": [
        {
          "internalType": "string",
          "name": "str",
          "type": "string"
        }
      ],
      "name": "StringTooLong",
      "type": "error"
    },
    {
      "inputs": [
        {
          "internalType": "uint256",
          "name": "expiry",
          "type": "uint256"
        }
      ],
      "name": "VotesExpiredSignature",
      "type": "error"
    },
    {
      "anonymous": false,
      "inputs": [
        {
          "indexed": true,
          "internalType": "address",
          "name": "owner",
          "type": "address"
        },
        {
          "indexed": true,
          "internalType": "address",
          "name": "spender",
          "type": "address"
        },
        {
          "indexed": false,
          "internalType": "uint256",
          "name": "value",
          "type": "uint256"
        }
      ],
      "name": "Approval",
      "type": "event"
    },
    {
      "anonymous": false,
      "inputs": [
        {
          "indexed": true,
          "internalType": "address",
          "name": "delegator",
          "type": "address"
        },
        {
          "indexed": true,
          "internalType": "address",
          "name": "fromDelegate",
          "type": "address"
        },
        {
          "indexed": true,
          "internalType": "address",
          "name": "toDelegate",
          "type": "address"
        }
      ],
      "name": "DelegateChanged",
      "type": "event"
    },
    {
      "anonymous": false,
      "inputs": [
        {
          "indexed": true,
          "internalType": "address",
          "name": "delegate",
          "type": "address"
        },
        {
          "indexed": false,
          "internalType": "uint256",
          "name": "previousVotes",
          "type": "uint256"
        },
        {
          "indexed": false,
          "internalType": "uint256",
          "name": "newVotes",
          "type": "uint256"
        }
      ],
      "name": "DelegateVotesChanged",
      "type": "event"
    },
    {
      "anonymous": false,
      "inputs": [],
      "name": "EIP712DomainChanged",
      "type": "event"
    },
    {
      "anonymous": false,
      "inputs": [
        {
          "indexed": true,
          "internalType": "address",
          "name": "from",
          "type": "address"
        },
        {
          "indexed": true,
          "internalType": "address",
          "name": "to",
          "type": "address"
        },
        {
          "indexed": false,
          "internalType": "uint256",
          "name": "value",
          "type": "uint256"
        }
      ],
      "name": "Transfer",
      "type": "event"
    },
    {
      "anonymous": false,
      "inputs": [
        {
          "indexed": false,
          "internalType": "uint256",
          "name": "ret0",
          "type": "uint256"
        }
      ],
      "name": "return$_recover",
      "type": "event"
    },
    {
      "anonymous": false,
      "inputs": [
        {
          "indexed": false,
          "internalType": "uint256",
          "name": "ret0",
          "type": "uint256"
        }
      ],
      "name": "return$_useCheckedNonce",
      "type": "event"
    },
    {
      "anonymous": false,
      "inputs": [
        {
          "indexed": false,
          "internalType": "uint256",
          "name": "ret0",
          "type": "uint256"
        }
      ],
      "name": "return$_useNonce",
      "type": "event"
    },
    {
      "inputs": [],
      "name": "$_EIP712Name",
      "outputs": [
        {
          "internalType": "string",
          "name": "ret0",
          "type": "string"
        }
      ],
      "stateMutability": "view",
      "type": "function"
    },
    {
      "inputs": [],
      "name": "$_EIP712Version",
      "outputs": [
        {
          "internalType": "string",
          "name": "ret0",
          "type": "string"
        }
      ],
      "stateMutability": "view",
      "type": "function"
    },
    {
      "inputs": [
        {
          "internalType": "address",
          "name": "owner",
          "type": "address"
        },
        {
          "internalType": "address",
          "name": "spender",
          "type": "address"
        },
        {
          "internalType": "uint256",
          "name": "value",
          "type": "uint256"
        },
        {
          "internalType": "bool",
          "name": "emitEvent",
          "type": "bool"
        }
      ],
      "name": "$_approve",
      "outputs": [],
      "stateMutability": "nonpayable",
      "type": "function"
    },
    {
      "inputs": [
        {
          "internalType": "address",
          "name": "owner",
          "type": "address"
        },
        {
          "internalType": "address",
          "name": "spender",
          "type": "address"
        },
        {
          "internalType": "uint256",
          "name": "value",
          "type": "uint256"
        }
      ],
      "name": "$_approve",
      "outputs": [],
      "stateMutability": "nonpayable",
      "type": "function"
    },
    {
      "inputs": [
        {
          "internalType": "address",
          "name": "account",
          "type": "address"
        },
        {
          "internalType": "uint256",
          "name": "value",
          "type": "uint256"
        }
      ],
      "name": "$_burn",
      "outputs": [],
      "stateMutability": "nonpayable",
      "type": "function"
    },
    {
      "inputs": [
        {
          "internalType": "address",
          "name": "account",
          "type": "address"
        },
        {
          "internalType": "uint32",
          "name": "pos",
          "type": "uint32"
        }
      ],
      "name": "$_checkpoints",
      "outputs": [
        {
          "components": [
            {
              "internalType": "uint32",
              "name": "_key",
              "type": "uint32"
            },
            {
              "internalType": "uint224",
              "name": "_value",
              "type": "uint224"
            }
          ],
          "internalType": "struct Checkpoints.Checkpoint224",
          "name": "ret0",
          "type": "tuple"
        }
      ],
      "stateMutability": "view",
      "type": "function"
    },
    {
      "inputs": [
        {
          "internalType": "address",
          "name": "account",
          "type": "address"
        },
        {
          "internalType": "address",
          "name": "delegatee",
          "type": "address"
        }
      ],
      "name": "$_delegate",
      "outputs": [],
      "stateMutability": "nonpayable",
      "type": "function"
    },
    {
      "inputs": [],
      "name": "$_domainSeparatorV4",
      "outputs": [
        {
          "internalType": "bytes32",
          "name": "ret0",
          "type": "bytes32"
        }
      ],
      "stateMutability": "view",
      "type": "function"
    },
    {
      "inputs": [],
      "name": "$_getTotalSupply",
      "outputs": [
        {
          "internalType": "uint256",
          "name": "ret0",
          "type": "uint256"
        }
      ],
      "stateMutability": "view",
      "type": "function"
    },
    {
      "inputs": [
        {
          "internalType": "address",
          "name": "account",
          "type": "address"
        }
      ],
      "name": "$_getVotingUnits",
      "outputs": [
        {
          "internalType": "uint256",
          "name": "ret0",
          "type": "uint256"
        }
      ],
      "stateMutability": "view",
      "type": "function"
    },
    {
      "inputs": [
        {
          "internalType": "bytes32",
          "name": "structHash",
          "type": "bytes32"
        }
      ],
      "name": "$_hashTypedDataV4",
      "outputs": [
        {
          "internalType": "bytes32",
          "name": "ret0",
          "type": "bytes32"
        }
      ],
      "stateMutability": "view",
      "type": "function"
    },
    {
      "inputs": [],
      "name": "$_maxSupply",
      "outputs": [
        {
          "internalType": "uint224",
          "name": "ret0",
          "type": "uint224"
        }
      ],
      "stateMutability": "view",
      "type": "function"
    },
    {
      "inputs": [
        {
          "internalType": "address",
          "name": "account",
          "type": "address"
        },
        {
          "internalType": "uint256",
          "name": "value",
          "type": "uint256"
        }
      ],
      "name": "$_mint",
      "outputs": [],
      "stateMutability": "nonpayable",
      "type": "function"
    },
    {
      "inputs": [],
      "name": "$_msgData",
      "outputs": [
        {
          "internalType": "bytes",
          "name": "ret0",
          "type": "bytes"
        }
      ],
      "stateMutability": "view",
      "type": "function"
    },
    {
      "inputs": [],
      "name": "$_msgSender",
      "outputs": [
        {
          "internalType": "address",
          "name": "ret0",
          "type": "address"
        }
      ],
      "stateMutability": "view",
      "type": "function"
    },
    {
      "inputs": [
        {
          "internalType": "address",
          "name": "account",
          "type": "address"
        }
      ],
      "name": "$_numCheckpoints",
      "outputs": [
        {
          "internalType": "uint32",
          "name": "ret0",
          "type": "uint32"
        }
      ],
      "stateMutability": "view",
      "type": "function"
    },
    {
      "inputs": [
        {
          "internalType": "address",
          "name": "account",
          "type": "address"
        }
      ],
      "name": "$_recover",
      "outputs": [
        {
          "internalType": "uint256",
          "name": "ret0",
          "type": "uint256"
        }
      ],
      "stateMutability": "nonpayable",
      "type": "function"
    },
    {
      "inputs": [
        {
          "internalType": "address",
          "name": "owner",
          "type": "address"
        },
        {
          "internalType": "address",
          "name": "spender",
          "type": "address"
        },
        {
          "internalType": "uint256",
          "name": "value",
          "type": "uint256"
        }
      ],
      "name": "$_spendAllowance",
      "outputs": [],
      "stateMutability": "nonpayable",
      "type": "function"
    },
    {
      "inputs": [
        {
          "internalType": "address",
          "name": "from",
          "type": "address"
        },
        {
          "internalType": "address",
          "name": "to",
          "type": "address"
        },
        {
          "internalType": "uint256",
          "name": "value",
          "type": "uint256"
        }
      ],
      "name": "$_transfer",
      "outputs": [],
      "stateMutability": "nonpayable",
      "type": "function"
    },
    {
      "inputs": [
        {
          "internalType": "address",
          "name": "from",
          "type": "address"
        },
        {
          "internalType": "address",
          "name": "to",
          "type": "address"
        },
        {
          "internalType": "uint256",
          "name": "amount",
          "type": "uint256"
        }
      ],
      "name": "$_transferVotingUnits",
      "outputs": [],
      "stateMutability": "nonpayable",
      "type": "function"
    },
    {
      "inputs": [
        {
          "internalType": "address",
          "name": "from",
          "type": "address"
        },
        {
          "internalType": "address",
          "name": "to",
          "type": "address"
        },
        {
          "internalType": "uint256",
          "name": "amount",
          "type": "uint256"
        }
      ],
      "name": "$_update",
      "outputs": [],
      "stateMutability": "nonpayable",
      "type": "function"
    },
    {
      "inputs": [
        {
          "internalType": "address",
          "name": "owner",
          "type": "address"
        },
        {
          "internalType": "uint256",
          "name": "nonce",
          "type": "uint256"
        }
      ],
      "name": "$_useCheckedNonce",
      "outputs": [
        {
          "internalType": "uint256",
          "name": "ret0",
          "type": "uint256"
        }
      ],
      "stateMutability": "nonpayable",
      "type": "function"
    },
    {
      "inputs": [
        {
          "internalType": "address",
          "name": "owner",
          "type": "address"
        }
      ],
      "name": "$_useNonce",
      "outputs": [
        {
          "internalType": "uint256",
          "name": "ret0",
          "type": "uint256"
        }
      ],
      "stateMutability": "nonpayable",
      "type": "function"
    },
    {
      "inputs": [],
      "name": "CLOCK_MODE",
      "outputs": [
        {
          "internalType": "string",
          "name": "",
          "type": "string"
        }
      ],
      "stateMutability": "view",
      "type": "function"
    },
    {
      "inputs": [],
      "name": "DOMAIN_SEPARATOR",
      "outputs": [
        {
          "internalType": "bytes32",
          "name": "",
          "type": "bytes32"
        }
      ],
      "stateMutability": "view",
      "type": "function"
    },
    {
      "inputs": [],
      "name": "__hh_exposed_bytecode_marker",
      "outputs": [
        {
          "internalType": "bytes32",
          "name": "",
          "type": "bytes32"
        }
      ],
      "stateMutability": "view",
      "type": "function"
    },
    {
      "inputs": [
        {
          "internalType": "address",
          "name": "owner",
          "type": "address"
        },
        {
          "internalType": "address",
          "name": "spender",
          "type": "address"
        }
      ],
      "name": "allowance",
      "outputs": [
        {
          "internalType": "uint256",
          "name": "",
          "type": "uint256"
        }
      ],
      "stateMutability": "view",
      "type": "function"
    },
    {
      "inputs": [
        {
          "internalType": "address",
          "name": "spender",
          "type": "address"
        },
        {
          "internalType": "uint256",
          "name": "value",
          "type": "uint256"
        }
      ],
      "name": "approve",
      "outputs": [
        {
          "internalType": "bool",
          "name": "",
          "type": "bool"
        }
      ],
      "stateMutability": "nonpayable",
      "type": "function"
    },
    {
      "inputs": [
        {
          "internalType": "address",
          "name": "account",
          "type": "address"
        }
      ],
      "name": "balanceOf",
      "outputs": [
        {
          "internalType": "uint256",
          "name": "",
          "type": "uint256"
        }
      ],
      "stateMutability": "view",
      "type": "function"
    },
    {
      "inputs": [
        {
          "internalType": "address",
          "name": "account",
          "type": "address"
        },
        {
          "internalType": "uint32",
          "name": "pos",
          "type": "uint32"
        }
      ],
      "name": "checkpoints",
      "outputs": [
        {
          "components": [
            {
              "internalType": "uint32",
              "name": "_key",
              "type": "uint32"
            },
            {
              "internalType": "uint224",
              "name": "_value",
              "type": "uint224"
            }
          ],
          "internalType": "struct Checkpoints.Checkpoint224",
          "name": "",
          "type": "tuple"
        }
      ],
      "stateMutability": "view",
      "type": "function"
    },
    {
      "inputs": [],
      "name": "clock",
      "outputs": [
        {
          "internalType": "uint48",
          "name": "",
          "type": "uint48"
        }
      ],
      "stateMutability": "view",
      "type": "function"
    },
    {
      "inputs": [],
      "name": "decimals",
      "outputs": [
        {
          "internalType": "uint8",
          "name": "",
          "type": "uint8"
        }
      ],
      "stateMutability": "view",
      "type": "function"
    },
    {
      "inputs": [
        {
          "internalType": "address",
          "name": "spender",
          "type": "address"
        },
        {
          "internalType": "uint256",
          "name": "requestedDecrease",
          "type": "uint256"
        }
      ],
      "name": "decreaseAllowance",
      "outputs": [
        {
          "internalType": "bool",
          "name": "",
          "type": "bool"
        }
      ],
      "stateMutability": "nonpayable",
      "type": "function"
    },
    {
      "inputs": [
        {
          "internalType": "address",
          "name": "delegatee",
          "type": "address"
        }
      ],
      "name": "delegate",
      "outputs": [],
      "stateMutability": "nonpayable",
      "type": "function"
    },
    {
      "inputs": [
        {
          "internalType": "address",
          "name": "delegatee",
          "type": "address"
        },
        {
          "internalType": "uint256",
          "name": "nonce",
          "type": "uint256"
        },
        {
          "internalType": "uint256",
          "name": "expiry",
          "type": "uint256"
        },
        {
          "internalType": "uint8",
          "name": "v",
          "type": "uint8"
        },
        {
          "internalType": "bytes32",
          "name": "r",
          "type": "bytes32"
        },
        {
          "internalType": "bytes32",
          "name": "s",
          "type": "bytes32"
        }
      ],
      "name": "delegateBySig",
      "outputs": [],
      "stateMutability": "nonpayable",
      "type": "function"
    },
    {
      "inputs": [
        {
          "internalType": "address",
          "name": "account",
          "type": "address"
        }
      ],
      "name": "delegates",
      "outputs": [
        {
          "internalType": "address",
          "name": "",
          "type": "address"
        }
      ],
      "stateMutability": "view",
      "type": "function"
    },
    {
      "inputs": [
        {
          "internalType": "address",
          "name": "account",
          "type": "address"
        },
        {
          "internalType": "uint256",
          "name": "value",
          "type": "uint256"
        }
      ],
      "name": "depositFor",
      "outputs": [
        {
          "internalType": "bool",
          "name": "",
          "type": "bool"
        }
      ],
      "stateMutability": "nonpayable",
      "type": "function"
    },
    {
      "inputs": [],
      "name": "eip712Domain",
      "outputs": [
        {
          "internalType": "bytes1",
          "name": "fields",
          "type": "bytes1"
        },
        {
          "internalType": "string",
          "name": "name",
          "type": "string"
        },
        {
          "internalType": "string",
          "name": "version",
          "type": "string"
        },
        {
          "internalType": "uint256",
          "name": "chainId",
          "type": "uint256"
        },
        {
          "internalType": "address",
          "name": "verifyingContract",
          "type": "address"
        },
        {
          "internalType": "bytes32",
          "name": "salt",
          "type": "bytes32"
        },
        {
          "internalType": "uint256[]",
          "name": "extensions",
          "type": "uint256[]"
        }
      ],
      "stateMutability": "view",
      "type": "function"
    },
    {
      "inputs": [
        {
          "internalType": "uint256",
          "name": "timepoint",
          "type": "uint256"
        }
      ],
      "name": "getPastTotalSupply",
      "outputs": [
        {
          "internalType": "uint256",
          "name": "",
          "type": "uint256"
        }
      ],
      "stateMutability": "view",
      "type": "function"
    },
    {
      "inputs": [
        {
          "internalType": "address",
          "name": "account",
          "type": "address"
        },
        {
          "internalType": "uint256",
          "name": "timepoint",
          "type": "uint256"
        }
      ],
      "name": "getPastVotes",
      "outputs": [
        {
          "internalType": "uint256",
          "name": "",
          "type": "uint256"
        }
      ],
      "stateMutability": "view",
      "type": "function"
    },
    {
      "inputs": [
        {
          "internalType": "address",
          "name": "account",
          "type": "address"
        }
      ],
      "name": "getVotes",
      "outputs": [
        {
          "internalType": "uint256",
          "name": "",
          "type": "uint256"
        }
      ],
      "stateMutability": "view",
      "type": "function"
    },
    {
      "inputs": [
        {
          "internalType": "address",
          "name": "spender",
          "type": "address"
        },
        {
          "internalType": "uint256",
          "name": "addedValue",
          "type": "uint256"
        }
      ],
      "name": "increaseAllowance",
      "outputs": [
        {
          "internalType": "bool",
          "name": "",
          "type": "bool"
        }
      ],
      "stateMutability": "nonpayable",
      "type": "function"
    },
    {
      "inputs": [],
      "name": "name",
      "outputs": [
        {
          "internalType": "string",
          "name": "",
          "type": "string"
        }
      ],
      "stateMutability": "view",
      "type": "function"
    },
    {
      "inputs": [
        {
          "internalType": "address",
          "name": "owner",
          "type": "address"
        }
      ],
      "name": "nonces",
      "outputs": [
        {
          "internalType": "uint256",
          "name": "",
          "type": "uint256"
        }
      ],
      "stateMutability": "view",
      "type": "function"
    },
    {
      "inputs": [
        {
          "internalType": "address",
          "name": "account",
          "type": "address"
        }
      ],
      "name": "numCheckpoints",
      "outputs": [
        {
          "internalType": "uint32",
          "name": "",
          "type": "uint32"
        }
      ],
      "stateMutability": "view",
      "type": "function"
    },
    {
      "inputs": [
        {
          "internalType": "address",
          "name": "owner",
          "type": "address"
        },
        {
          "internalType": "address",
          "name": "spender",
          "type": "address"
        },
        {
          "internalType": "uint256",
          "name": "value",
          "type": "uint256"
        },
        {
          "internalType": "uint256",
          "name": "deadline",
          "type": "uint256"
        },
        {
          "internalType": "uint8",
          "name": "v",
          "type": "uint8"
        },
        {
          "internalType": "bytes32",
          "name": "r",
          "type": "bytes32"
        },
        {
          "internalType": "bytes32",
          "name": "s",
          "type": "bytes32"
        }
      ],
      "name": "permit",
      "outputs": [],
      "stateMutability": "nonpayable",
      "type": "function"
    },
    {
      "inputs": [],
      "name": "symbol",
      "outputs": [
        {
          "internalType": "string",
          "name": "",
          "type": "string"
        }
      ],
      "stateMutability": "view",
      "type": "function"
    },
    {
      "inputs": [],
      "name": "totalSupply",
      "outputs": [
        {
          "internalType": "uint256",
          "name": "",
          "type": "uint256"
        }
      ],
      "stateMutability": "view",
      "type": "function"
    },
    {
      "inputs": [
        {
          "internalType": "address",
          "name": "to",
          "type": "address"
        },
        {
          "internalType": "uint256",
          "name": "value",
          "type": "uint256"
        }
      ],
      "name": "transfer",
      "outputs": [
        {
          "internalType": "bool",
          "name": "",
          "type": "bool"
        }
      ],
      "stateMutability": "nonpayable",
      "type": "function"
    },
    {
      "inputs": [
        {
          "internalType": "address",
          "name": "from",
          "type": "address"
        },
        {
          "internalType": "address",
          "name": "to",
          "type": "address"
        },
        {
          "internalType": "uint256",
          "name": "value",
          "type": "uint256"
        }
      ],
      "name": "transferFrom",
      "outputs": [
        {
          "internalType": "bool",
          "name": "",
          "type": "bool"
        }
      ],
      "stateMutability": "nonpayable",
      "type": "function"
    },
    {
      "inputs": [],
      "name": "underlying",
      "outputs": [
        {
          "internalType": "contract IERC20",
          "name": "",
          "type": "address"
        }
      ],
      "stateMutability": "view",
      "type": "function"
    },
    {
      "inputs": [
        {
          "internalType": "address",
          "name": "account",
          "type": "address"
        },
        {
          "internalType": "uint256",
          "name": "value",
          "type": "uint256"
        }
      ],
      "name": "withdrawTo",
      "outputs": [
        {
          "internalType": "bool",
          "name": "",
          "type": "bool"
        }
      ],
      "stateMutability": "nonpayable",
      "type": "function"
    },
    {
      "stateMutability": "payable",
      "type": "receive"
    }
  ],
  "bytecode": "0x61018060405260405162002fd338038062002fd383398101604081905262000027916200024b565b80806040518060400160405280600e81526020016d135e551bdad95b95dc985c1c195960921b81525080604051806040016040528060018152602001603160f81b8152506040518060400160405280600e81526020016d135e551bdad95b95dc985c1c195960921b815250604051806040016040528060038152602001624d544b60e81b8152508160039081620000bf91906200031a565b506004620000ce82826200031a565b50620000e091508390506005620001d1565b61012052620000f1816006620001d1565b61014052815160208084019190912060e052815190820120610100524660a0526200017e60e05161010051604080517f8b73c3c69bb8fe3d512ecc4cf759cc79239f7b179b0ffacaa9a75d522b39400f60208201529081019290925260608201524660808201523060a08201525f9060c00160405160208183030381529060405280519060200120905090565b60805250503060c08190526001600160a01b038316039050620001bb5760405163438d6fe360e01b81523060048201526024015b60405180910390fd5b6001600160a01b03166101605250620004539050565b5f602083511015620001f057620001e88362000209565b905062000203565b81620001fd84826200031a565b5060ff90505b92915050565b5f80829050601f8151111562000236578260405163305a27a960e01b8152600401620001b29190620003e2565b805162000243826200042f565b179392505050565b5f602082840312156200025c575f80fd5b81516001600160a01b038116811462000273575f80fd5b9392505050565b634e487b7160e01b5f52604160045260245ffd5b600181811c90821680620002a357607f821691505b602082108103620002c257634e487b7160e01b5f52602260045260245ffd5b50919050565b601f82111562000315575f81815260208120601f850160051c81016020861015620002f05750805b601f850160051c820191505b818110156200031157828155600101620002fc565b5050505b505050565b81516001600160401b038111156200033657620003366200027a565b6200034e816200034784546200028e565b84620002c8565b602080601f83116001811462000384575f84156200036c5750858301515b5f19600386901b1c1916600185901b17855562000311565b5f85815260208120601f198616915b82811015620003b45788860151825594840194600190910190840162000393565b5085821015620003d257878501515f19600388901b60f8161c191681555b5050505050600190811b01905550565b5f6020808352835180828501525f5b818110156200040f57858101830151858201604001528201620003f1565b505f604082860101526040601f19601f8301168501019250505092915050565b80516020808301519190811015620002c2575f1960209190910360031b1b16919050565b60805160a05160c05160e05161010051610120516101405161016051612b08620004cb5f395f81816106c301528181610a8001528181610b8f0152818161146001526118d701525f61128801525f61125b01525f61169201525f61166a01525f6115c501525f6115ef01525f6116190152612b085ff3fe6080604052600436106102f5575f3560e01c806361f5b530116101895780639ab24eb0116100d8578063cc461d6211610092578063dd62ed3e1161006d578063dd62ed3e1461090a578063e047838d14610929578063efb43b0714610948578063f1127ed81461060f575f80fd5b8063cc461d62146108cc578063d41ecac3146106e7578063d505accf146108eb575f80fd5b80639ab24eb014610812578063a457c2d714610831578063a9059cbb14610850578063b2331d7d1461086f578063b3068e411461088e578063c3cda520146108ad575f80fd5b806370a0823111610143578063861e3d3d1161011e578063861e3d3d146107955780638e539e8c146107b457806391ddadf4146107d357806395d89b41146107fe575f80fd5b806370a082311461071b5780637ecebe001461074f57806384b0196e1461076e575f80fd5b806361f5b5301461060f5780636242b9d0146106585780636855a178146106775780636b4ac502146106965780636f307dc3146106b55780636fcfff45146106e7575f80fd5b806332bc74aa116102455780634bf5d7e9116101ff578063587cde1e116101da578063587cde1e1461059a5780635b28e1e8146105d15780635c19a95c146105f05780635f8d5e7414610501575f80fd5b80634bf5d7e914610553578063506a6f0c14610567578063535de33414610586575f80fd5b806332bc74aa146104a957806332cadf3c146104c8578063342db739146104dc5780633644e5151461050157806339509351146105155780633a46b1a814610534575f80fd5b806318160ddd116102b05780632904df291161028b5780632904df291461041f5780632e8fbee5146104455780632f4f21e214610464578063313ce56714610483575f80fd5b806318160ddd146103c3578063205c2878146103e157806323b872dd14610400575f80fd5b8062cae2201461030057806306fdde0314610321578063095ea7b31461034b57806310d2aa7e1461037a5780631164d13b1461039b578063174ccd82146103af575f80fd5b366102fc57005b5f80fd5b34801561030b575f80fd5b5061031f61031a36600461263c565b610967565b005b34801561032c575f80fd5b50610335610975565b60405161034291906126ba565b60405180910390f35b348015610356575f80fd5b5061036a6103653660046126cc565b610a05565b6040519015158152602001610342565b348015610385575f80fd5b506040516001600160e01b038152602001610342565b3480156103a6575f80fd5b50610335610a23565b3480156103ba575f80fd5b50610335610a2d565b3480156103ce575f80fd5b506002545b604051908152602001610342565b3480156103ec575f80fd5b5061036a6103fb3660046126cc565b610a37565b34801561040b575f80fd5b5061036a61041a3660046126f4565b610aaf565b34801561042a575f80fd5b50335b6040516001600160a01b039091168152602001610342565b348015610450575f80fd5b506103d361045f36600461272d565b610ad2565b34801561046f575f80fd5b5061036a61047e3660046126cc565b610b32565b34801561048e575f80fd5b50610497610bc0565b60405160ff9091168152602001610342565b3480156104b4575f80fd5b5061031f6104c3366004612756565b610bc9565b3480156104d3575f80fd5b50610335610bdb565b3480156104e7575f80fd5b506103d36e1a185c991a185d0b595e1c1bdcd959608a1b81565b34801561050c575f80fd5b506103d3610c18565b348015610520575f80fd5b5061036a61052f3660046126cc565b610c21565b34801561053f575f80fd5b506103d361054e3660046126cc565b610c42565b34801561055e575f80fd5b50610335610cc1565b348015610572575f80fd5b506103d36105813660046127a2565b610d2a565b348015610591575f80fd5b506103d3610d34565b3480156105a5575f80fd5b5061042d6105b436600461272d565b6001600160a01b039081165f908152600860205260409020541690565b3480156105dc575f80fd5b5061031f6105eb3660046126f4565b610d3d565b3480156105fb575f80fd5b5061031f61060a36600461272d565b610d4d565b34801561061a575f80fd5b5061062e6106293660046127b9565b610d58565b60408051825163ffffffff1681526020928301516001600160e01b03169281019290925201610342565b348015610663575f80fd5b506103d361067236600461272d565b610d7c565b348015610682575f80fd5b5061031f6106913660046126f4565b610db9565b3480156106a1575f80fd5b506103d36106b03660046126cc565b610dc4565b3480156106c0575f80fd5b507f000000000000000000000000000000000000000000000000000000000000000061042d565b3480156106f2575f80fd5b5061070661070136600461272d565b610e10565b60405163ffffffff9091168152602001610342565b348015610726575f80fd5b506103d361073536600461272d565b6001600160a01b03165f9081526020819052604090205490565b34801561075a575f80fd5b506103d361076936600461272d565b610e1a565b348015610779575f80fd5b50610782610e24565b60405161034297969594939291906127f6565b3480156107a0575f80fd5b5061031f6107af3660046126f4565b610e66565b3480156107bf575f80fd5b506103d36107ce3660046127a2565b610e71565b3480156107de575f80fd5b506107e7610eda565b60405165ffffffffffff9091168152602001610342565b348015610809575f80fd5b50610335610ee4565b34801561081d575f80fd5b506103d361082c36600461272d565b610ef3565b34801561083c575f80fd5b5061036a61084b3660046126cc565b610f22565b34801561085b575f80fd5b5061036a61086a3660046126cc565b610f78565b34801561087a575f80fd5b5061031f6108893660046126f4565b610f85565b348015610899575f80fd5b506103d36108a836600461272d565b610f90565b3480156108b8575f80fd5b5061031f6108c7366004612898565b610f9a565b3480156108d7575f80fd5b5061031f6108e63660046126cc565b611057565b3480156108f6575f80fd5b5061031f6109053660046128ee565b611061565b348015610915575f80fd5b506103d361092436600461263c565b611197565b348015610934575f80fd5b5061031f6109433660046126cc565b6111c1565b348015610953575f80fd5b5061031f6109623660046126f4565b6111cb565b61097182826111d6565b5050565b60606003805461098490612956565b80601f01602080910402602001604051908101604052809291908181526020018280546109b090612956565b80156109fb5780601f106109d2576101008083540402835291602001916109fb565b820191905f5260205f20905b8154815290600101906020018083116109de57829003601f168201915b5050505050905090565b5f33610a12818585611247565b60019150505b92915050565b905090565b6060610a1e611254565b6060610a1e611281565b5f306001600160a01b03841603610a715760405163ec442f0560e01b81526001600160a01b03841660048201526024015b60405180910390fd5b610a7b33836112ae565b610aa67f000000000000000000000000000000000000000000000000000000000000000084846112e2565b50600192915050565b5f33610abc858285611341565b610ac785858561139e565b506001949350505050565b6001600160a01b0381165f90815260076020526040812080546001810190915590507f8d5c13b1cd528a3e1895fdc833368c4e3af5391250c736a28e94c4fa59b3cee481604051610b2591815260200190565b60405180910390a1919050565b5f33308103610b5657604051634b637e8f60e11b8152306004820152602401610a68565b306001600160a01b03851603610b8a5760405163ec442f0560e01b81526001600160a01b0385166004820152602401610a68565b610bb67f00000000000000000000000000000000000000000000000000000000000000008230866113f0565b610a128484611429565b5f610a1e61145d565b610bd5848484846114e7565b50505050565b60605f368080601f0160208091040260200160405190810160405280939291908181526020018383808284375f9201919091525092949350505050565b5f610a1e6115b9565b5f33610a12818585610c338383611197565b610c3d91906129a2565b611247565b5f80610c4c610eda565b90508065ffffffffffff168310610c8757604051637669fc0f60e11b81526004810184905265ffffffffffff82166024820152604401610a68565b610cb0610c93846116e2565b6001600160a01b0386165f90815260096020526040902090611716565b6001600160e01b0316949350505050565b606043610ccc610eda565b65ffffffffffff1614610cf2576040516301bfc1c560e61b815260040160405180910390fd5b5060408051808201909152601d81527f6d6f64653d626c6f636b6e756d6265722666726f6d3d64656661756c74000000602082015290565b5f610a18826117c4565b5f610a1e6117f0565b610d48838383611809565b505050565b3361097181836111d6565b604080518082019091525f8082526020820152610d758383611883565b9392505050565b5f610d86826118b7565b90507f1abff978536966f470533a0a53cd23b392e2a9d1672b0e18941e1f57949e7cdc81604051610b2591815260200190565b610d4883838361195e565b5f610dcf8383611969565b90507f173c6dfbda204d89ae7b46789365591384ef0c959833564582f96cd15f445b9b81604051610e0291815260200190565b60405180910390a192915050565b5f610a18826119bb565b5f610a18826119dc565b5f6060805f805f6060610e35611254565b610e3d611281565b604080515f80825260208201909252600f60f81b9b939a50919850469750309650945092509050565b610d48838383611247565b5f80610e7b610eda565b90508065ffffffffffff168310610eb657604051637669fc0f60e11b81526004810184905265ffffffffffff82166024820152604401610a68565b610eca610ec2846116e2565b600a90611716565b6001600160e01b03169392505050565b5f610a1e436119f9565b60606004805461098490612956565b6001600160a01b0381165f908152600960205260408120610f1390611a2b565b6001600160e01b031692915050565b5f3381610f2f8286611197565b905083811015610f6b57604051632983c0c360e21b81526001600160a01b03861660048201526024810182905260448101859052606401610a68565b610ac78286868403611247565b5f33610a1281858561139e565b610d48838383611341565b5f610a1882611a62565b83421115610fbe57604051632341d78760e11b815260048101859052602401610a68565b604080517fe48329057bfd03d55e49b547132e39cffd9c1820ad7b9d4c5307691425d15adf60208201526001600160a01b0388169181019190915260608101869052608081018590525f906110379061102f9060a001604051602081830303815290604052805190602001206117c4565b858585611a7f565b90506110438187611969565b5061104e81886111d6565b50505050505050565b6109718282611429565b834211156110855760405163313c898160e11b815260048101859052602401610a68565b5f7f6e71edae12b1b97f4d1f60370fef10105fa2faae0126114a169c64845d6126c98888886110d08c6001600160a01b03165f90815260076020526040902080546001810190915590565b6040805160208101969096526001600160a01b0394851690860152929091166060840152608083015260a082015260c0810186905260e0016040516020818303038152906040528051906020012090505f61112a826117c4565b90505f61113982878787611a7f565b9050896001600160a01b0316816001600160a01b031614611180576040516325c0072360e11b81526001600160a01b0380831660048301528b166024820152604401610a68565b61118b8a8a8a611247565b50505050505050505050565b6001600160a01b039182165f90815260016020908152604080832093909416825291909152205490565b61097182826112ae565b610d4883838361139e565b6001600160a01b038281165f8181526008602052604080822080548686166001600160a01b0319821681179092559151919094169392849290917f3134e8a2e6d97e929a7e54011ea5485d7d196dd5f0ba4d4ef95803e8e3fc257f9190a4610d48818361124286611a62565b611aad565b610d4883838360016114e7565b6060610a1e7f00000000000000000000000000000000000000000000000000000000000000006005611c11565b6060610a1e7f00000000000000000000000000000000000000000000000000000000000000006006611c11565b6001600160a01b0382166112d757604051634b637e8f60e11b81525f6004820152602401610a68565b610971825f8361195e565b6040516001600160a01b03838116602483015260448201839052610d4891859182169063a9059cbb906064015b604051602081830303815290604052915060e01b6020820180516001600160e01b038381831617835250505050611cba565b5f61134c8484611197565b90505f198114610bd5578181101561139057604051637dc7a0d960e11b81526001600160a01b03841660048201526024810182905260448101839052606401610a68565b610bd584848484035f6114e7565b6001600160a01b0383166113c757604051634b637e8f60e11b81525f6004820152602401610a68565b6001600160a01b038216610db95760405163ec442f0560e01b81525f6004820152602401610a68565b6040516001600160a01b038481166024830152838116604483015260648201839052610bd59186918216906323b872dd9060840161130f565b6001600160a01b0382166114525760405163ec442f0560e01b81525f6004820152602401610a68565b6109715f838361195e565b5f7f00000000000000000000000000000000000000000000000000000000000000006001600160a01b031663313ce5676040518163ffffffff1660e01b8152600401602060405180830381865afa9250505080156114d8575060408051601f3d908101601f191682019092526114d5918101906129b5565b60015b6114e25750601290565b919050565b6001600160a01b0384166115105760405163e602df0560e01b81525f6004820152602401610a68565b6001600160a01b03831661153957604051634a1406b160e11b81525f6004820152602401610a68565b6001600160a01b038085165f9081526001602090815260408083209387168352929052208290558015610bd557826001600160a01b0316846001600160a01b03167f8c5be1e5ebec7d5bd14f71427d1e84f3dd0314c0f7b2291e5b200ac8c7c3b925846040516115ab91815260200190565b60405180910390a350505050565b5f306001600160a01b037f00000000000000000000000000000000000000000000000000000000000000001614801561161157507f000000000000000000000000000000000000000000000000000000000000000046145b1561163b57507f000000000000000000000000000000000000000000000000000000000000000090565b610a1e604080517f8b73c3c69bb8fe3d512ecc4cf759cc79239f7b179b0ffacaa9a75d522b39400f60208201527f0000000000000000000000000000000000000000000000000000000000000000918101919091527f000000000000000000000000000000000000000000000000000000000000000060608201524660808201523060a08201525f9060c00160405160208183030381529060405280519060200120905090565b5f63ffffffff821115611712576040516306dfcc6560e41b81526020600482015260248101839052604401610a68565b5090565b81545f9081816005811115611770575f61172f84611d1b565b61173990856129d0565b5f8881526020902090915081015463ffffffff90811690871610156117605780915061176e565b61176b8160016129a2565b92505b505b5f61177d87878585611dff565b905080156117b7576117a1876117946001846129d0565b5f91825260209091200190565b54600160201b90046001600160e01b03166117b9565b5f5b979650505050505050565b5f610a186117d06115b9565b8360405161190160f01b8152600281019290925260228201526042902090565b5f6117fb600a611a2b565b6001600160e01b0316905090565b6001600160a01b0383166118305761182d600a611e5a61182884611e65565b611e98565b50505b6001600160a01b0382166118525761184f600a611ee061182884611e65565b50505b6001600160a01b038381165f90815260086020526040808220548584168352912054610d4892918216911683611aad565b604080518082019091525f80825260208201526001600160a01b0383165f908152600960205260409020610d759083611eeb565b5f806118c260025490565b6040516370a0823160e01b81523060048201527f00000000000000000000000000000000000000000000000000000000000000006001600160a01b0316906370a0823190602401602060405180830381865afa158015611924573d5f803e3d5ffd5b505050506040513d601f19601f8201168201806040525081019061194891906129e3565b61195291906129d0565b9050610a188382611429565b610d48838383611f56565b6001600160a01b0382165f908152600760205260408120805460018101909155808314610d75576040516301d4b62360e61b81526001600160a01b038516600482015260248101829052604401610a68565b6001600160a01b0381165f90815260096020526040812054610a18906116e2565b6001600160a01b0381165f90815260076020526040812054610a18565b5f65ffffffffffff821115611712576040516306dfcc6560e41b81526030600482015260248101839052604401610a68565b80545f908015611a5a57611a44836117946001846129d0565b54600160201b90046001600160e01b0316610d75565b5f9392505050565b6001600160a01b0381165f90815260208190526040812054610a18565b5f805f80611a8f88888888611fbb565b925092509250611a9f8282612083565b50909150505b949350505050565b816001600160a01b0316836001600160a01b031614158015611ace57505f81115b15610d48576001600160a01b03831615611b70576001600160a01b0383165f9081526009602052604081208190611b0b90611ee061182886611e65565b6001600160e01b031691506001600160e01b03169150846001600160a01b03167fdec2bacdd2f05b59de34da9b523dff8be42e5e38e818c82fdb0bae774387a7248383604051611b65929190918252602082015260400190565b60405180910390a250505b6001600160a01b03821615610d48576001600160a01b0382165f9081526009602052604081208190611ba890611e5a61182886611e65565b6001600160e01b031691506001600160e01b03169150836001600160a01b03167fdec2bacdd2f05b59de34da9b523dff8be42e5e38e818c82fdb0bae774387a7248383604051611c02929190918252602082015260400190565b60405180910390a25050505050565b606060ff8314611c2b57611c248361213b565b9050610a18565b818054611c3790612956565b80601f0160208091040260200160405190810160405280929190818152602001828054611c6390612956565b8015611cae5780601f10611c8557610100808354040283529160200191611cae565b820191905f5260205f20905b815481529060010190602001808311611c9157829003601f168201915b50505050509050610a18565b5f611cce6001600160a01b03841683612178565b905080515f14158015611cf2575080806020019051810190611cf091906129fa565b155b15610d4857604051635274afe760e01b81526001600160a01b0384166004820152602401610a68565b5f815f03611d2a57505f919050565b5f6001611d3684612188565b901c6001901b90506001818481611d4f57611d4f612a15565b048201901c90506001818481611d6757611d67612a15565b048201901c90506001818481611d7f57611d7f612a15565b048201901c90506001818481611d9757611d97612a15565b048201901c90506001818481611daf57611daf612a15565b048201901c90506001818481611dc757611dc7612a15565b048201901c90506001818481611ddf57611ddf612a15565b048201901c9050610d7581828581611df957611df9612a15565b0461221b565b5f5b81831015611e52575f611e148484612230565b5f8781526020902090915063ffffffff86169082015463ffffffff161115611e3e57809250611e4c565b611e498160016129a2565b93505b50611e01565b509392505050565b5f610d758284612a29565b5f6001600160e01b03821115611712576040516306dfcc6560e41b815260e0600482015260248101839052604401610a68565b5f80611ed3611eb5611ea8610eda565b65ffffffffffff166116e2565b611ecb611ec188611a2b565b868863ffffffff16565b87919061224a565b915091505b935093915050565b5f610d758284612a50565b604080518082019091525f8082526020820152825f018263ffffffff1681548110611f1857611f18612a70565b5f9182526020918290206040805180820190915291015463ffffffff81168252600160201b90046001600160e01b0316918101919091529392505050565b611f61838383612257565b6001600160a01b038316610d3d575f611f7960025490565b90506001600160e01b0380821115611fae57604051630e58ae9360e11b81526004810183905260248101829052604401610a68565b5050610d48838383611809565b5f80807f7fffffffffffffffffffffffffffffff5d576e7357a4501ddfe92f46681b20a0841115611ff457505f91506003905082612079565b604080515f808252602082018084528a905260ff891692820192909252606081018790526080810186905260019060a0016020604051602081039080840390855afa158015612045573d5f803e3d5ffd5b5050604051601f1901519150506001600160a01b03811661207057505f925060019150829050612079565b92505f91508190505b9450945094915050565b5f82600381111561209657612096612a84565b0361209f575050565b60018260038111156120b3576120b3612a84565b036120d15760405163f645eedf60e01b815260040160405180910390fd5b60028260038111156120e5576120e5612a84565b036121065760405163fce698f760e01b815260048101829052602401610a68565b600382600381111561211a5761211a612a84565b03610971576040516335e2f38360e21b815260048101829052602401610a68565b60605f6121478361237d565b6040805160208082528183019092529192505f91906020820181803683375050509182525060208101929092525090565b6060610d7583835f6123a46123bd565b5f80608083901c1561219c57608092831c92015b604083901c156121ae57604092831c92015b602083901c156121c057602092831c92015b601083901c156121d257601092831c92015b600883901c156121e457600892831c92015b600483901c156121f657600492831c92015b600283901c1561220857600292831c92015b600183901c15610a185760010192915050565b5f8183106122295781610d75565b5090919050565b5f61223e6002848418612a98565b610d75908484166129a2565b5f80611ed385858561244d565b6001600160a01b038316612281578060025f82825461227691906129a2565b909155506122f19050565b6001600160a01b0383165f90815260208190526040902054818110156122d35760405163391434e360e21b81526001600160a01b03851660048201526024810182905260448101839052606401610a68565b6001600160a01b0384165f9081526020819052604090209082900390555b6001600160a01b03821661230d5760028054829003905561232b565b6001600160a01b0382165f9081526020819052604090208054820190555b816001600160a01b0316836001600160a01b03167fddf252ad1be2c89b69c2b068fc378daa952ba7f163c4a11628f55a4df523b3ef8360405161237091815260200190565b60405180910390a3505050565b5f60ff8216601f811115610a1857604051632cd44ac360e21b815260040160405180910390fd5b604051630a12f52160e11b815260040160405180910390fd5b6060824710156123e25760405163cd78605960e01b8152306004820152602401610a68565b5f80866001600160a01b031685876040516123fd9190612ab7565b5f6040518083038185875af1925050503d805f8114612437576040519150601f19603f3d011682016040523d82523d5f602084013e61243c565b606091505b50915091506117b9878383876125b9565b82545f9081908015612561575f612469876117946001856129d0565b60408051808201909152905463ffffffff808216808452600160201b9092046001600160e01b0316602084015291925090871610156124bb57604051632520601d60e01b815260040160405180910390fd5b805163ffffffff80881691160361250357846124dc886117946001866129d0565b80546001600160e01b0392909216600160201b0263ffffffff909216919091179055612551565b6040805180820190915263ffffffff80881682526001600160e01b0380881660208085019182528b54600181018d555f8d81529190912094519151909216600160201b029216919091179101555b602001519250839150611ed89050565b50506040805180820190915263ffffffff80851682526001600160e01b0380851660208085019182528854600181018a555f8a815291822095519251909316600160201b029190931617920191909155905081611ed8565b606083156126055782515f036125fe57846001600160a01b03163b5f036125fe57604051639996b31560e01b81526001600160a01b0386166004820152602401610a68565b5081611aa5565b611aa5838381511561261a5781518083602001fd5b6123a48163ffffffff16565b80356001600160a01b03811681146114e2575f80fd5b5f806040838503121561264d575f80fd5b61265683612626565b915061266460208401612626565b90509250929050565b5f5b8381101561268757818101518382015260200161266f565b50505f910152565b5f81518084526126a681602086016020860161266d565b601f01601f19169290920160200192915050565b602081525f610d75602083018461268f565b5f80604083850312156126dd575f80fd5b6126e683612626565b946020939093013593505050565b5f805f60608486031215612706575f80fd5b61270f84612626565b925061271d60208501612626565b9150604084013590509250925092565b5f6020828403121561273d575f80fd5b610d7582612626565b8015158114612753575f80fd5b50565b5f805f8060808587031215612769575f80fd5b61277285612626565b935061278060208601612626565b925060408501359150606085013561279781612746565b939692955090935050565b5f602082840312156127b2575f80fd5b5035919050565b5f80604083850312156127ca575f80fd5b6127d383612626565b9150602083013563ffffffff811681146127eb575f80fd5b809150509250929050565b60ff60f81b881681525f602060e08184015261281560e084018a61268f565b8381036040850152612827818a61268f565b606085018990526001600160a01b038816608086015260a0850187905284810360c086015285518082528387019250908301905f5b818110156128785783518352928401929184019160010161285c565b50909c9b505050505050505050505050565b60ff81168114612753575f80fd5b5f805f805f8060c087890312156128ad575f80fd5b6128b687612626565b9550602087013594506040870135935060608701356128d48161288a565b9598949750929560808101359460a0909101359350915050565b5f805f805f805f60e0888a031215612904575f80fd5b61290d88612626565b965061291b60208901612626565b9550604088013594506060880135935060808801356129398161288a565b9699959850939692959460a0840135945060c09093013592915050565b600181811c9082168061296a57607f821691505b60208210810361298857634e487b7160e01b5f52602260045260245ffd5b50919050565b634e487b7160e01b5f52601160045260245ffd5b80820180821115610a1857610a1861298e565b5f602082840312156129c5575f80fd5b8151610d758161288a565b81810381811115610a1857610a1861298e565b5f602082840312156129f3575f80fd5b5051919050565b5f60208284031215612a0a575f80fd5b8151610d7581612746565b634e487b7160e01b5f52601260045260245ffd5b6001600160e01b03818116838216019080821115612a4957612a4961298e565b5092915050565b6001600160e01b03828116828216039080821115612a4957612a4961298e565b634e487b7160e01b5f52603260045260245ffd5b634e487b7160e01b5f52602160045260245ffd5b5f82612ab257634e487b7160e01b5f52601260045260245ffd5b500490565b5f8251612ac881846020870161266d565b919091019291505056fea2646970667358221220588f90085ad680091b2b4765622d1a05d097a3def42dd47183abedf3c5b9257664736f6c63430008140033",
  "linkReferences": {},
  "deployedLinkReferences": {}
}