{"abi":[{"type":"function","name":"msgData","inputs":[{"name":"integerValue","type":"uint256","internalType":"uint256"},{"name":"stringValue","type":"string","internalType":"string"}],"outputs":[],"stateMutability":"nonpayable"},{"type":"function","name":"msgSender","inputs":[],"outputs":[],"stateMutability":"nonpayable"},{"type":"event","name":"Data","inputs":[{"name":"data","type":"bytes","indexed":false,"internalType":"bytes"},{"name":"integerValue","type":"uint256","indexed":false,"internalType":"uint256"},{"name":"stringValue","type":"string","indexed":false,"internalType":"string"}],"anonymous":false},{"type":"event","name":"Sender","inputs":[{"name":"sender","type":"address","indexed":false,"internalType":"address"}],"anonymous":false}],"bytecode":{"object":"0x6080604052348015600f57600080fd5b506102628061001f6000396000f3fe608060405234801561001057600080fd5b50600436106100365760003560e01c8063376bf2621461003b578063d737d0c714610050575b600080fd5b61004e6100493660046100e5565b610058565b005b61004e61009a565b7faf235354a0a47c91ee171961326335cb2d1a8e55b8a89859b0e61eb049e50ea0600036848460405161008e94939291906101a8565b60405180910390a15050565b6040805133815290517fd6558c3ed910d959271054471fd1c326679d9fece99c5091b00ed89627cf2bfc9181900360200190a1565b634e487b7160e01b600052604160045260246000fd5b600080604083850312156100f857600080fd5b82359150602083013567ffffffffffffffff81111561011657600080fd5b8301601f8101851361012757600080fd5b803567ffffffffffffffff811115610141576101416100cf565b604051601f8201601f19908116603f0116810167ffffffffffffffff81118282101715610170576101706100cf565b60405281815282820160200187101561018857600080fd5b816020840160208301376000602083830101528093505050509250929050565b60608152836060820152838560808301376000608085830101526000601f19601f86011682018460208401526080838203016040840152835180608083015260005b8181101561020757602081870181015184830160a00152016101ea565b50600060a0838301810191909152601f909101601f191690910101969550505050505056fea2646970667358221220e888de50c9303a771999186b80ce78a48c592d8e2092ee69bb7777a06cc274cc64736f6c634300081b0033","linkReferences":{}},"methodIdentifiers":{"msgData(uint256,string)":"376bf262","msgSender()":"d737d0c7"},"id":63}