{"abi":[{"type":"function","name":"callData","inputs":[{"name":"context","type":"address","internalType":"contract ContextMock"},{"name":"integerValue","type":"uint256","internalType":"uint256"},{"name":"stringValue","type":"string","internalType":"string"}],"outputs":[],"stateMutability":"nonpayable"},{"type":"function","name":"callSender","inputs":[{"name":"context","type":"address","internalType":"contract ContextMock"}],"outputs":[],"stateMutability":"nonpayable"}],"bytecode":{"object":"0x6080604052348015600f57600080fd5b506102cf8061001f6000396000f3fe608060405234801561001057600080fd5b50600436106100355760003560e01c80628604591461003a5780633207ad961461004f575b600080fd5b61004d61004836600461014f565b610062565b005b61004d61005d366004610222565b6100c7565b604051631bb5f93160e11b81526001600160a01b0384169063376bf262906100909085908590600401610244565b600060405180830381600087803b1580156100aa57600080fd5b505af11580156100be573d6000803e3d6000fd5b50505050505050565b806001600160a01b031663d737d0c76040518163ffffffff1660e01b8152600401600060405180830381600087803b15801561010257600080fd5b505af1158015610116573d6000803e3d6000fd5b5050505050565b80356001600160a01b038116811461013457600080fd5b919050565b634e487b7160e01b600052604160045260246000fd5b60008060006060848603121561016457600080fd5b61016d8461011d565b925060208401359150604084013567ffffffffffffffff81111561019057600080fd5b8401601f810186136101a157600080fd5b803567ffffffffffffffff8111156101bb576101bb610139565b604051601f8201601f19908116603f0116810167ffffffffffffffff811182821017156101ea576101ea610139565b60405281815282820160200188101561020257600080fd5b816020840160208301376000602083830101528093505050509250925092565b60006020828403121561023457600080fd5b61023d8261011d565b9392505050565b828152604060208201526000825180604084015260005b81811015610278576020818601810151606086840101520161025b565b506000606082850101526060601f19601f830116840101915050939250505056fea2646970667358221220964ada1a69a8121a4a1bd6dfe1ead28764dbc7365266a2353fa7c4ef5285a9e164736f6c634300081b0033","linkReferences":{}},"methodIdentifiers":{"callData(address,uint256,string)":"00860459","callSender(address)":"3207ad96"},"id":63}