{
  "_format": "hh-sol-artifact-1",
  "contractName": "$TimelockController",
  "sourceName": "contracts-exposed/governance/TimelockController.sol",
  "abi": [
    {
      "inputs": [
        {
          "internalType": "uint256",
          "name": "minDelay",
          "type": "uint256"
        },
        {
          "internalType": "address[]",
          "name": "proposers",
          "type": "address[]"
        },
        {
          "internalType": "address[]",
          "name": "executors",
          "type": "address[]"
        },
        {
          "internalType": "address",
          "name": "admin",
          "type": "address"
        }
      ],
      "stateMutability": "payable",
      "type": "constructor"
    },
    {
      "inputs": [],
      "name": "AccessControlBadConfirmation",
      "type": "error"
    },
    {
      "inputs": [
        {
          "internalType": "address",
          "name": "account",
          "type": "address"
        },
        {
          "internalType": "bytes32",
          "name": "neededRole",
          "type": "bytes32"
        }
      ],
      "name": "AccessControlUnauthorizedAccount",
      "type": "error"
    },
    {
      "inputs": [],
      "name": "FailedInnerCall",
      "type": "error"
    },
    {
      "inputs": [
        {
          "internalType": "uint256",
          "name": "delay",
          "type": "uint256"
        },
        {
          "internalType": "uint256",
          "name": "minDelay",
          "type": "uint256"
        }
      ],
      "name": "TimelockInsufficientDelay",
      "type": "error"
    },
    {
      "inputs": [
        {
          "internalType": "uint256",
          "name": "targets",
          "type": "uint256"
        },
        {
          "internalType": "uint256",
          "name": "payloads",
          "type": "uint256"
        },
        {
          "internalType": "uint256",
          "name": "values",
          "type": "uint256"
        }
      ],
      "name": "TimelockInvalidOperationLength",
      "type": "error"
    },
    {
      "inputs": [
        {
          "internalType": "address",
          "name": "caller",
          "type": "address"
        }
      ],
      "name": "TimelockUnauthorizedCaller",
      "type": "error"
    },
    {
      "inputs": [
        {
          "internalType": "bytes32",
          "name": "predecessorId",
          "type": "bytes32"
        }
      ],
      "name": "TimelockUnexecutedPredecessor",
      "type": "error"
    },
    {
      "inputs": [
        {
          "internalType": "bytes32",
          "name": "operationId",
          "type": "bytes32"
        },
        {
          "internalType": "bytes32",
          "name": "expectedStates",
          "type": "bytes32"
        }
      ],
      "name": "TimelockUnexpectedOperationState",
      "type": "error"
    },
    {
      "anonymous": false,
      "inputs": [
        {
          "indexed": true,
          "internalType": "bytes32",
          "name": "id",
          "type": "bytes32"
        },
        {
          "indexed": true,
          "internalType": "uint256",
          "name": "index",
          "type": "uint256"
        },
        {
          "indexed": false,
          "internalType": "address",
          "name": "target",
          "type": "address"
        },
        {
          "indexed": false,
          "internalType": "uint256",
          "name": "value",
          "type": "uint256"
        },
        {
          "indexed": false,
          "internalType": "bytes",
          "name": "data",
          "type": "bytes"
        }
      ],
      "name": "CallExecuted",
      "type": "event"
    },
    {
      "anonymous": false,
      "inputs": [
        {
          "indexed": true,
          "internalType": "bytes32",
          "name": "id",
          "type": "bytes32"
        },
        {
          "indexed": false,
          "internalType": "bytes32",
          "name": "salt",
          "type": "bytes32"
        }
      ],
      "name": "CallSalt",
      "type": "event"
    },
    {
      "anonymous": false,
      "inputs": [
        {
          "indexed": true,
          "internalType": "bytes32",
          "name": "id",
          "type": "bytes32"
        },
        {
          "indexed": true,
          "internalType": "uint256",
          "name": "index",
          "type": "uint256"
        },
        {
          "indexed": false,
          "internalType": "address",
          "name": "target",
          "type": "address"
        },
        {
          "indexed": false,
          "internalType": "uint256",
          "name": "value",
          "type": "uint256"
        },
        {
          "indexed": false,
          "internalType": "bytes",
          "name": "data",
          "type": "bytes"
        },
        {
          "indexed": false,
          "internalType": "bytes32",
          "name": "predecessor",
          "type": "bytes32"
        },
        {
          "indexed": false,
          "internalType": "uint256",
          "name": "delay",
          "type": "uint256"
        }
      ],
      "name": "CallScheduled",
      "type": "event"
    },
    {
      "anonymous": false,
      "inputs": [
        {
          "indexed": true,
          "internalType": "bytes32",
          "name": "id",
          "type": "bytes32"
        }
      ],
      "name": "Cancelled",
      "type": "event"
    },
    {
      "anonymous": false,
      "inputs": [
        {
          "indexed": false,
          "internalType": "uint256",
          "name": "oldDuration",
          "type": "uint256"
        },
        {
          "indexed": false,
          "internalType": "uint256",
          "name": "newDuration",
          "type": "uint256"
        }
      ],
      "name": "MinDelayChange",
      "type": "event"
    },
    {
      "anonymous": false,
      "inputs": [
        {
          "indexed": true,
          "internalType": "bytes32",
          "name": "role",
          "type": "bytes32"
        },
        {
          "indexed": true,
          "internalType": "bytes32",
          "name": "previousAdminRole",
          "type": "bytes32"
        },
        {
          "indexed": true,
          "internalType": "bytes32",
          "name": "newAdminRole",
          "type": "bytes32"
        }
      ],
      "name": "RoleAdminChanged",
      "type": "event"
    },
    {
      "anonymous": false,
      "inputs": [
        {
          "indexed": true,
          "internalType": "bytes32",
          "name": "role",
          "type": "bytes32"
        },
        {
          "indexed": true,
          "internalType": "address",
          "name": "account",
          "type": "address"
        },
        {
          "indexed": true,
          "internalType": "address",
          "name": "sender",
          "type": "address"
        }
      ],
      "name": "RoleGranted",
      "type": "event"
    },
    {
      "anonymous": false,
      "inputs": [
        {
          "indexed": true,
          "internalType": "bytes32",
          "name": "role",
          "type": "bytes32"
        },
        {
          "indexed": true,
          "internalType": "address",
          "name": "account",
          "type": "address"
        },
        {
          "indexed": true,
          "internalType": "address",
          "name": "sender",
          "type": "address"
        }
      ],
      "name": "RoleRevoked",
      "type": "event"
    },
    {
      "inputs": [],
      "name": "$_DONE_TIMESTAMP",
      "outputs": [
        {
          "internalType": "uint256",
          "name": "",
          "type": "uint256"
        }
      ],
      "stateMutability": "pure",
      "type": "function"
    },
    {
      "inputs": [
        {
          "internalType": "bytes32",
          "name": "role",
          "type": "bytes32"
        },
        {
          "internalType": "address",
          "name": "account",
          "type": "address"
        }
      ],
      "name": "$_checkRole",
      "outputs": [],
      "stateMutability": "view",
      "type": "function"
    },
    {
      "inputs": [
        {
          "internalType": "bytes32",
          "name": "role",
          "type": "bytes32"
        }
      ],
      "name": "$_checkRole",
      "outputs": [],
      "stateMutability": "view",
      "type": "function"
    },
    {
      "inputs": [
        {
          "internalType": "enum TimelockController.OperationState",
          "name": "operationState",
          "type": "uint8"
        }
      ],
      "name": "$_encodeStateBitmap",
      "outputs": [
        {
          "internalType": "bytes32",
          "name": "ret0",
          "type": "bytes32"
        }
      ],
      "stateMutability": "pure",
      "type": "function"
    },
    {
      "inputs": [
        {
          "internalType": "address",
          "name": "target",
          "type": "address"
        },
        {
          "internalType": "uint256",
          "name": "value",
          "type": "uint256"
        },
        {
          "internalType": "bytes",
          "name": "data",
          "type": "bytes"
        }
      ],
      "name": "$_execute",
      "outputs": [],
      "stateMutability": "nonpayable",
      "type": "function"
    },
    {
      "inputs": [
        {
          "internalType": "bytes32",
          "name": "role",
          "type": "bytes32"
        },
        {
          "internalType": "address",
          "name": "account",
          "type": "address"
        }
      ],
      "name": "$_grantRole",
      "outputs": [],
      "stateMutability": "nonpayable",
      "type": "function"
    },
    {
      "inputs": [],
      "name": "$_msgData",
      "outputs": [
        {
          "internalType": "bytes",
          "name": "ret0",
          "type": "bytes"
        }
      ],
      "stateMutability": "view",
      "type": "function"
    },
    {
      "inputs": [],
      "name": "$_msgSender",
      "outputs": [
        {
          "internalType": "address",
          "name": "ret0",
          "type": "address"
        }
      ],
      "stateMutability": "view",
      "type": "function"
    },
    {
      "inputs": [
        {
          "internalType": "bytes32",
          "name": "role",
          "type": "bytes32"
        },
        {
          "internalType": "address",
          "name": "account",
          "type": "address"
        }
      ],
      "name": "$_revokeRole",
      "outputs": [],
      "stateMutability": "nonpayable",
      "type": "function"
    },
    {
      "inputs": [
        {
          "internalType": "bytes32",
          "name": "role",
          "type": "bytes32"
        },
        {
          "internalType": "bytes32",
          "name": "adminRole",
          "type": "bytes32"
        }
      ],
      "name": "$_setRoleAdmin",
      "outputs": [],
      "stateMutability": "nonpayable",
      "type": "function"
    },
    {
      "inputs": [],
      "name": "CANCELLER_ROLE",
      "outputs": [
        {
          "internalType": "bytes32",
          "name": "",
          "type": "bytes32"
        }
      ],
      "stateMutability": "view",
      "type": "function"
    },
    {
      "inputs": [],
      "name": "DEFAULT_ADMIN_ROLE",
      "outputs": [
        {
          "internalType": "bytes32",
          "name": "",
          "type": "bytes32"
        }
      ],
      "stateMutability": "view",
      "type": "function"
    },
    {
      "inputs": [],
      "name": "EXECUTOR_ROLE",
      "outputs": [
        {
          "internalType": "bytes32",
          "name": "",
          "type": "bytes32"
        }
      ],
      "stateMutability": "view",
      "type": "function"
    },
    {
      "inputs": [],
      "name": "PROPOSER_ROLE",
      "outputs": [
        {
          "internalType": "bytes32",
          "name": "",
          "type": "bytes32"
        }
      ],
      "stateMutability": "view",
      "type": "function"
    },
    {
      "inputs": [],
      "name": "__hh_exposed_bytecode_marker",
      "outputs": [
        {
          "internalType": "bytes32",
          "name": "",
          "type": "bytes32"
        }
      ],
      "stateMutability": "view",
      "type": "function"
    },
    {
      "inputs": [
        {
          "internalType": "bytes32",
          "name": "id",
          "type": "bytes32"
        }
      ],
      "name": "cancel",
      "outputs": [],
      "stateMutability": "nonpayable",
      "type": "function"
    },
    {
      "inputs": [
        {
          "internalType": "address",
          "name": "target",
          "type": "address"
        },
        {
          "internalType": "uint256",
          "name": "value",
          "type": "uint256"
        },
        {
          "internalType": "bytes",
          "name": "payload",
          "type": "bytes"
        },
        {
          "internalType": "bytes32",
          "name": "predecessor",
          "type": "bytes32"
        },
        {
          "internalType": "bytes32",
          "name": "salt",
          "type": "bytes32"
        }
      ],
      "name": "execute",
      "outputs": [],
      "stateMutability": "payable",
      "type": "function"
    },
    {
      "inputs": [
        {
          "internalType": "address[]",
          "name": "targets",
          "type": "address[]"
        },
        {
          "internalType": "uint256[]",
          "name": "values",
          "type": "uint256[]"
        },
        {
          "internalType": "bytes[]",
          "name": "payloads",
          "type": "bytes[]"
        },
        {
          "internalType": "bytes32",
          "name": "predecessor",
          "type": "bytes32"
        },
        {
          "internalType": "bytes32",
          "name": "salt",
          "type": "bytes32"
        }
      ],
      "name": "executeBatch",
      "outputs": [],
      "stateMutability": "payable",
      "type": "function"
    },
    {
      "inputs": [],
      "name": "getMinDelay",
      "outputs": [
        {
          "internalType": "uint256",
          "name": "",
          "type": "uint256"
        }
      ],
      "stateMutability": "view",
      "type": "function"
    },
    {
      "inputs": [
        {
          "internalType": "bytes32",
          "name": "id",
          "type": "bytes32"
        }
      ],
      "name": "getOperationState",
      "outputs": [
        {
          "internalType": "enum TimelockController.OperationState",
          "name": "",
          "type": "uint8"
        }
      ],
      "stateMutability": "view",
      "type": "function"
    },
    {
      "inputs": [
        {
          "internalType": "bytes32",
          "name": "role",
          "type": "bytes32"
        }
      ],
      "name": "getRoleAdmin",
      "outputs": [
        {
          "internalType": "bytes32",
          "name": "",
          "type": "bytes32"
        }
      ],
      "stateMutability": "view",
      "type": "function"
    },
    {
      "inputs": [
        {
          "internalType": "bytes32",
          "name": "id",
          "type": "bytes32"
        }
      ],
      "name": "getTimestamp",
      "outputs": [
        {
          "internalType": "uint256",
          "name": "",
          "type": "uint256"
        }
      ],
      "stateMutability": "view",
      "type": "function"
    },
    {
      "inputs": [
        {
          "internalType": "bytes32",
          "name": "role",
          "type": "bytes32"
        },
        {
          "internalType": "address",
          "name": "account",
          "type": "address"
        }
      ],
      "name": "grantRole",
      "outputs": [],
      "stateMutability": "nonpayable",
      "type": "function"
    },
    {
      "inputs": [
        {
          "internalType": "bytes32",
          "name": "role",
          "type": "bytes32"
        },
        {
          "internalType": "address",
          "name": "account",
          "type": "address"
        }
      ],
      "name": "hasRole",
      "outputs": [
        {
          "internalType": "bool",
          "name": "",
          "type": "bool"
        }
      ],
      "stateMutability": "view",
      "type": "function"
    },
    {
      "inputs": [
        {
          "internalType": "address",
          "name": "target",
          "type": "address"
        },
        {
          "internalType": "uint256",
          "name": "value",
          "type": "uint256"
        },
        {
          "internalType": "bytes",
          "name": "data",
          "type": "bytes"
        },
        {
          "internalType": "bytes32",
          "name": "predecessor",
          "type": "bytes32"
        },
        {
          "internalType": "bytes32",
          "name": "salt",
          "type": "bytes32"
        }
      ],
      "name": "hashOperation",
      "outputs": [
        {
          "internalType": "bytes32",
          "name": "",
          "type": "bytes32"
        }
      ],
      "stateMutability": "pure",
      "type": "function"
    },
    {
      "inputs": [
        {
          "internalType": "address[]",
          "name": "targets",
          "type": "address[]"
        },
        {
          "internalType": "uint256[]",
          "name": "values",
          "type": "uint256[]"
        },
        {
          "internalType": "bytes[]",
          "name": "payloads",
          "type": "bytes[]"
        },
        {
          "internalType": "bytes32",
          "name": "predecessor",
          "type": "bytes32"
        },
        {
          "internalType": "bytes32",
          "name": "salt",
          "type": "bytes32"
        }
      ],
      "name": "hashOperationBatch",
      "outputs": [
        {
          "internalType": "bytes32",
          "name": "",
          "type": "bytes32"
        }
      ],
      "stateMutability": "pure",
      "type": "function"
    },
    {
      "inputs": [
        {
          "internalType": "bytes32",
          "name": "id",
          "type": "bytes32"
        }
      ],
      "name": "isOperation",
      "outputs": [
        {
          "internalType": "bool",
          "name": "",
          "type": "bool"
        }
      ],
      "stateMutability": "view",
      "type": "function"
    },
    {
      "inputs": [
        {
          "internalType": "bytes32",
          "name": "id",
          "type": "bytes32"
        }
      ],
      "name": "isOperationDone",
      "outputs": [
        {
          "internalType": "bool",
          "name": "",
          "type": "bool"
        }
      ],
      "stateMutability": "view",
      "type": "function"
    },
    {
      "inputs": [
        {
          "internalType": "bytes32",
          "name": "id",
          "type": "bytes32"
        }
      ],
      "name": "isOperationPending",
      "outputs": [
        {
          "internalType": "bool",
          "name": "",
          "type": "bool"
        }
      ],
      "stateMutability": "view",
      "type": "function"
    },
    {
      "inputs": [
        {
          "internalType": "bytes32",
          "name": "id",
          "type": "bytes32"
        }
      ],
      "name": "isOperationReady",
      "outputs": [
        {
          "internalType": "bool",
          "name": "",
          "type": "bool"
        }
      ],
      "stateMutability": "view",
      "type": "function"
    },
    {
      "inputs": [
        {
          "internalType": "address",
          "name": "",
          "type": "address"
        },
        {
          "internalType": "address",
          "name": "",
          "type": "address"
        },
        {
          "internalType": "uint256[]",
          "name": "",
          "type": "uint256[]"
        },
        {
          "internalType": "uint256[]",
          "name": "",
          "type": "uint256[]"
        },
        {
          "internalType": "bytes",
          "name": "",
          "type": "bytes"
        }
      ],
      "name": "onERC1155BatchReceived",
      "outputs": [
        {
          "internalType": "bytes4",
          "name": "",
          "type": "bytes4"
        }
      ],
      "stateMutability": "nonpayable",
      "type": "function"
    },
    {
      "inputs": [
        {
          "internalType": "address",
          "name": "",
          "type": "address"
        },
        {
          "internalType": "address",
          "name": "",
          "type": "address"
        },
        {
          "internalType": "uint256",
          "name": "",
          "type": "uint256"
        },
        {
          "internalType": "uint256",
          "name": "",
          "type": "uint256"
        },
        {
          "internalType": "bytes",
          "name": "",
          "type": "bytes"
        }
      ],
      "name": "onERC1155Received",
      "outputs": [
        {
          "internalType": "bytes4",
          "name": "",
          "type": "bytes4"
        }
      ],
      "stateMutability": "nonpayable",
      "type": "function"
    },
    {
      "inputs": [
        {
          "internalType": "address",
          "name": "",
          "type": "address"
        },
        {
          "internalType": "address",
          "name": "",
          "type": "address"
        },
        {
          "internalType": "uint256",
          "name": "",
          "type": "uint256"
        },
        {
          "internalType": "bytes",
          "name": "",
          "type": "bytes"
        }
      ],
      "name": "onERC721Received",
      "outputs": [
        {
          "internalType": "bytes4",
          "name": "",
          "type": "bytes4"
        }
      ],
      "stateMutability": "nonpayable",
      "type": "function"
    },
    {
      "inputs": [
        {
          "internalType": "bytes32",
          "name": "role",
          "type": "bytes32"
        },
        {
          "internalType": "address",
          "name": "callerConfirmation",
          "type": "address"
        }
      ],
      "name": "renounceRole",
      "outputs": [],
      "stateMutability": "nonpayable",
      "type": "function"
    },
    {
      "inputs": [
        {
          "internalType": "bytes32",
          "name": "role",
          "type": "bytes32"
        },
        {
          "internalType": "address",
          "name": "account",
          "type": "address"
        }
      ],
      "name": "revokeRole",
      "outputs": [],
      "stateMutability": "nonpayable",
      "type": "function"
    },
    {
      "inputs": [
        {
          "internalType": "address",
          "name": "target",
          "type": "address"
        },
        {
          "internalType": "uint256",
          "name": "value",
          "type": "uint256"
        },
        {
          "internalType": "bytes",
          "name": "data",
          "type": "bytes"
        },
        {
          "internalType": "bytes32",
          "name": "predecessor",
          "type": "bytes32"
        },
        {
          "internalType": "bytes32",
          "name": "salt",
          "type": "bytes32"
        },
        {
          "internalType": "uint256",
          "name": "delay",
          "type": "uint256"
        }
      ],
      "name": "schedule",
      "outputs": [],
      "stateMutability": "nonpayable",
      "type": "function"
    },
    {
      "inputs": [
        {
          "internalType": "address[]",
          "name": "targets",
          "type": "address[]"
        },
        {
          "internalType": "uint256[]",
          "name": "values",
          "type": "uint256[]"
        },
        {
          "internalType": "bytes[]",
          "name": "payloads",
          "type": "bytes[]"
        },
        {
          "internalType": "bytes32",
          "name": "predecessor",
          "type": "bytes32"
        },
        {
          "internalType": "bytes32",
          "name": "salt",
          "type": "bytes32"
        },
        {
          "internalType": "uint256",
          "name": "delay",
          "type": "uint256"
        }
      ],
      "name": "scheduleBatch",
      "outputs": [],
      "stateMutability": "nonpayable",
      "type": "function"
    },
    {
      "inputs": [
        {
          "internalType": "bytes4",
          "name": "interfaceId",
          "type": "bytes4"
        }
      ],
      "name": "supportsInterface",
      "outputs": [
        {
          "internalType": "bool",
          "name": "",
          "type": "bool"
        }
      ],
      "stateMutability": "view",
      "type": "function"
    },
    {
      "inputs": [
        {
          "internalType": "uint256",
          "name": "newDelay",
          "type": "uint256"
        }
      ],
      "name": "updateDelay",
      "outputs": [],
      "stateMutability": "nonpayable",
      "type": "function"
    },
    {
      "stateMutability": "payable",
      "type": "receive"
    }
  ],
  "bytecode": "0x6080604052604051620020fc380380620020fc833981016040819052620000269162000319565b83838383620000365f30620001a0565b6001600160a01b038116156200005257620000525f82620001a0565b5f5b8351811015620000f957620000ac7fb09aa5aeb3702cfd50b6b62bc4532604938f21248a27a1d5ca736082b6819cc18583815181106200009857620000986200039b565b6020026020010151620001a060201b60201c565b620000e67ffd643c72710c63c0180259aba6b2d05451e3591a24e58b62239378085726f7838583815181106200009857620000986200039b565b620000f181620003af565b905062000054565b505f5b82518110156200015357620001407fd8aa0f3194971a2a116679f7c2090f6939c8d4e01a2a8d7e41d55e5351469e638483815181106200009857620000986200039b565b6200014b81620003af565b9050620000fc565b506002849055604080515f8152602081018690527f11c24f4ead16507c69ac467fbd5e4eed5fb5c699626d2cc6d66421df253886d5910160405180910390a15050505050505050620003d4565b5f828152602081815260408083206001600160a01b038516845290915290205460ff166200023b575f828152602081815260408083206001600160a01b03851684529091529020805460ff19166001179055620001fa3390565b6001600160a01b0316816001600160a01b0316837f2f8788117e7eff1d82e926ec794901d17c78024a50270940304540a733656f0d60405160405180910390a45b5050565b634e487b7160e01b5f52604160045260245ffd5b80516001600160a01b03811681146200026a575f80fd5b919050565b5f82601f8301126200027f575f80fd5b815160206001600160401b03808311156200029e576200029e6200023f565b8260051b604051601f19603f83011681018181108482111715620002c657620002c66200023f565b604052938452858101830193838101925087851115620002e4575f80fd5b83870191505b848210156200030e57620002fe8262000253565b83529183019190830190620002ea565b979650505050505050565b5f805f80608085870312156200032d575f80fd5b845160208601519094506001600160401b03808211156200034c575f80fd5b6200035a888389016200026f565b9450604087015191508082111562000370575f80fd5b506200037f878288016200026f565b925050620003906060860162000253565b905092959194509250565b634e487b7160e01b5f52603260045260245ffd5b5f60018201620003cd57634e487b7160e01b5f52601160045260245ffd5b5060010190565b611d1a80620003e25f395ff3fe60806040526004361061022b575f3560e01c8063584b153e11610129578063b08e51c0116100a8578063d547741f1161006d578063d547741f146106ec578063d7bdcee91461070b578063e38335e51461072a578063f23a6e611461073d578063f27a0c9214610768575f80fd5b8063b08e51c014610625578063b1c5f42714610658578063bc197c8114610677578063c4d252f5146106a2578063d45c4435146106c1575f80fd5b80638f61f4f5116100ee5780638f61f4f51461058257806391d14854146105b557806398dd54c1146105d4578063a15697c4146105f3578063a217fddf14610612575f80fd5b8063584b153e146104da57806364d62353146104f95780637958004c146105185780638065657f146105445780638f2a0bb014610563575f80fd5b80632904df29116101b5578063342db7391161017a578063342db7391461044557806336568abe1461046a57806341b45f71146104895780634286d2f1146104a857806351597ae2146104c7575f80fd5b80632904df29146103ad5780632ab0f529146103c75780632f2ff15d146103e657806331d507501461040557806332cadf3c14610424575f80fd5b8063134008d3116101fb578063134008d3146102eb57806313bc9f20146102fe578063150b7a021461031d578063248a9ca314610360578063270db8741461038e575f80fd5b806301d5062a1461023657806301ffc9a714610257578063036fea181461028b57806307bd0265146102aa575f80fd5b3661023257005b5f80fd5b348015610241575f80fd5b506102556102503660046113fc565b61077c565b005b348015610262575f80fd5b5061027661027136600461146a565b610850565b60405190151581526020015b60405180910390f35b348015610296575f80fd5b506102556102a5366004611491565b610860565b3480156102b5575f80fd5b506102dd7fd8aa0f3194971a2a116679f7c2090f6939c8d4e01a2a8d7e41d55e5351469e6381565b604051908152602001610282565b6102556102f93660046114e6565b610872565b348015610309575f80fd5b5061027661031836600461154c565b610924565b348015610328575f80fd5b50610347610337366004611612565b630a85bd0160e11b949350505050565b6040516001600160e01b03199091168152602001610282565b34801561036b575f80fd5b506102dd61037a36600461154c565b5f9081526020819052604090206001015490565b348015610399575f80fd5b506102556103a8366004611675565b610949565b3480156103b8575f80fd5b50604051338152602001610282565b3480156103d2575f80fd5b506102766103e136600461154c565b610957565b3480156103f1575f80fd5b50610255610400366004611675565b61095f565b348015610410575f80fd5b5061027661041f36600461154c565b610988565b34801561042f575f80fd5b506104386109ac565b604051610282919061169f565b348015610450575f80fd5b506102dd6e1a185c991a185d0b595e1c1bdcd959608a1b81565b348015610475575f80fd5b50610255610484366004611675565b6109e9565b348015610494575f80fd5b506102556104a3366004611675565b610a1c565b3480156104b3575f80fd5b506102556104c2366004611675565b610a12565b3480156104d2575f80fd5b5060016102dd565b3480156104e5575f80fd5b506102766104f436600461154c565b610a26565b348015610504575f80fd5b5061025561051336600461154c565b610a6b565b348015610523575f80fd5b5061053761053236600461154c565b610ade565b60405161028291906116fe565b34801561054f575f80fd5b506102dd61055e3660046114e6565b610b26565b34801561056e575f80fd5b5061025561057d366004611764565b610b64565b34801561058d575f80fd5b506102dd7fb09aa5aeb3702cfd50b6b62bc4532604938f21248a27a1d5ca736082b6819cc181565b3480156105c0575f80fd5b506102766105cf366004611675565b610cf8565b3480156105df575f80fd5b506102556105ee36600461154c565b610d20565b3480156105fe575f80fd5b506102dd61060d36600461180c565b610d2c565b34801561061d575f80fd5b506102dd5f81565b348015610630575f80fd5b506102dd7ffd643c72710c63c0180259aba6b2d05451e3591a24e58b62239378085726f78381565b348015610663575f80fd5b506102dd61067236600461182a565b610d36565b348015610682575f80fd5b50610347610691366004611946565b63bc197c8160e01b95945050505050565b3480156106ad575f80fd5b506102556106bc36600461154c565b610d7a565b3480156106cc575f80fd5b506102dd6106db36600461154c565b5f9081526001602052604090205490565b3480156106f7575f80fd5b50610255610706366004611675565b610e24565b348015610716575f80fd5b506102556107253660046119e8565b610e48565b61025561073836600461182a565b610e52565b348015610748575f80fd5b50610347610757366004611a08565b63f23a6e6160e01b95945050505050565b348015610773575f80fd5b506002546102dd565b7fb09aa5aeb3702cfd50b6b62bc4532604938f21248a27a1d5ca736082b6819cc16107a681610fd9565b5f6107b5898989898989610b26565b90506107c18184610fe3565b5f817f4cf4410cc57040e44862ef0f45f3dd5a5e02db8eb8add648d4b0e236f1d07dca8b8b8b8b8b8a6040516107fc96959493929190611a8f565b60405180910390a3831561084557807f20fda5fd27a1ea7bf5b9567f143ac5470bb059374a27e8f67cb44f946f6d03878560405161083c91815260200190565b60405180910390a25b505050505050505050565b5f61085a82611074565b92915050565b61086c84848484611098565b50505050565b7fd8aa0f3194971a2a116679f7c2090f6939c8d4e01a2a8d7e41d55e5351469e6361089d815f610cf8565b6108ab576108ab813361110c565b5f6108ba888888888888610b26565b90506108c68185611145565b6108d288888888611098565b5f817fc2617efa69bab66782fa219543714338489c4e9e178271560a91b82c3f612b588a8a8a8a6040516109099493929190611acb565b60405180910390a361091a81611193565b5050505050505050565b5f60025b61093183610ade565b6003811115610942576109426116ea565b1492915050565b61095382826111be565b5050565b5f6003610928565b5f8281526020819052604090206001015461097981610fd9565b61098383836111be565b505050565b5f8061099383610ade565b60038111156109a4576109a46116ea565b141592915050565b60605f368080601f0160208091040260200160405190810160405280939291908181526020018383808284375f9201919091525092949350505050565b6001600160a01b0381163314610a125760405163334bd91960e11b815260040160405180910390fd5b6109538282611241565b610953828261110c565b5f80610a3183610ade565b90506001816003811115610a4757610a476116ea565b1480610a6457506002816003811115610a6257610a626116ea565b145b9392505050565b33308114610a9c5760405163e2850c5960e01b81526001600160a01b03821660048201526024015b60405180910390fd5b60025460408051918252602082018490527f11c24f4ead16507c69ac467fbd5e4eed5fb5c699626d2cc6d66421df253886d5910160405180910390a150600255565b5f81815260016020526040812054805f03610afb57505f92915050565b60018103610b0c5750600392915050565b42811115610b1d5750600192915050565b50600292915050565b5f868686868686604051602001610b4296959493929190611a8f565b6040516020818303038152906040528051906020012090509695505050505050565b7fb09aa5aeb3702cfd50b6b62bc4532604938f21248a27a1d5ca736082b6819cc1610b8e81610fd9565b8887141580610b9d5750888514155b15610bcf576040516001624fcdef60e01b03198152600481018a90526024810186905260448101889052606401610a93565b5f610be08b8b8b8b8b8b8b8b610d36565b9050610bec8184610fe3565b5f5b8a811015610ca95780827f4cf4410cc57040e44862ef0f45f3dd5a5e02db8eb8add648d4b0e236f1d07dca8e8e85818110610c2b57610c2b611afc565b9050602002016020810190610c409190611b10565b8d8d86818110610c5257610c52611afc565b905060200201358c8c87818110610c6b57610c6b611afc565b9050602002810190610c7d9190611b29565b8c8b604051610c9196959493929190611a8f565b60405180910390a3610ca281611b7f565b9050610bee565b508315610ceb57807f20fda5fd27a1ea7bf5b9567f143ac5470bb059374a27e8f67cb44f946f6d038785604051610ce291815260200190565b60405180910390a25b5050505050505050505050565b5f918252602082815260408084206001600160a01b0393909316845291905290205460ff1690565b610d2981610fd9565b50565b5f61085a826112a5565b5f8888888888888888604051602001610d56989796959493929190611c23565b60405160208183030381529060405280519060200120905098975050505050505050565b7ffd643c72710c63c0180259aba6b2d05451e3591a24e58b62239378085726f783610da481610fd9565b610dad82610a26565b610de95781610dbc60026112a5565b610dc660016112a5565b604051635ead8eb560e01b81526004810193909352176024820152604401610a93565b5f828152600160205260408082208290555183917fbaa1eb22f2a492ba1a5fea61b8df4d27c6c8b5f3971e63bb58fa14ff72eedb7091a25050565b5f82815260208190526040902060010154610e3e81610fd9565b6109838383611241565b61095382826112c7565b7fd8aa0f3194971a2a116679f7c2090f6939c8d4e01a2a8d7e41d55e5351469e63610e7d815f610cf8565b610e8b57610e8b813361110c565b8786141580610e9a5750878414155b15610ecc576040516001624fcdef60e01b03198152600481018990526024810185905260448101879052606401610a93565b5f610edd8a8a8a8a8a8a8a8a610d36565b9050610ee98185611145565b5f5b89811015610fc3575f8b8b83818110610f0657610f06611afc565b9050602002016020810190610f1b9190611b10565b90505f8a8a84818110610f3057610f30611afc565b905060200201359050365f8a8a86818110610f4d57610f4d611afc565b9050602002810190610f5f9190611b29565b91509150610f6f84848484611098565b84867fc2617efa69bab66782fa219543714338489c4e9e178271560a91b82c3f612b5886868686604051610fa69493929190611acb565b60405180910390a35050505080610fbc90611b7f565b9050610eeb565b50610fcd81611193565b50505050505050505050565b610d29813361110c565b610fec82610988565b1561101d5781610ffb5f6112a5565b604051635ead8eb560e01b815260048101929092526024820152604401610a93565b5f61102760025490565b90508082101561105457604051635433660960e01b81526004810183905260248101829052604401610a93565b61105e8242611cc2565b5f93845260016020526040909320929092555050565b5f6001600160e01b03198216630271189760e51b148061085a575061085a82611311565b5f80856001600160a01b03168585856040516110b5929190611cd5565b5f6040518083038185875af1925050503d805f81146110ef576040519150601f19603f3d011682016040523d82523d5f602084013e6110f4565b606091505b50915091506111038282611345565b50505050505050565b6111168282610cf8565b6109535760405163e2517d3f60e01b81526001600160a01b038216600482015260248101839052604401610a93565b61114e82610924565b61115d5781610ffb60026112a5565b8015801590611172575061117081610957565b155b156109535760405163121534c360e31b815260048101829052602401610a93565b61119c81610924565b6111ab5780610ffb60026112a5565b5f90815260016020819052604090912055565b6111c88282610cf8565b610953575f828152602081815260408083206001600160a01b03851684529091529020805460ff191660011790556111fd3390565b6001600160a01b0316816001600160a01b0316837f2f8788117e7eff1d82e926ec794901d17c78024a50270940304540a733656f0d60405160405180910390a45050565b61124b8282610cf8565b15610953575f828152602081815260408083206001600160a01b0385168085529252808320805460ff1916905551339285917ff6391f5c32d9c69d2a47ea670b442974b53935d1edc7fd64eb21e047a839171b9190a45050565b5f8160038111156112b8576112b86116ea565b600160ff919091161b92915050565b5f82815260208190526040808220600101805490849055905190918391839186917fbd79b86ffe0ab8e8776151514217cd7cacd52c909f66475c3af44e129f0b00ff9190a4505050565b5f6001600160e01b03198216637965db0b60e01b148061085a57506301ffc9a760e01b6001600160e01b031983161461085a565b6060610a64838361135461136d565b604051630a12f52160e11b815260040160405180910390fd5b6060831561137c575081610a64565b610a6483838151156113915781518083602001fd5b6113548163ffffffff16565b80356001600160a01b03811681146113b3575f80fd5b919050565b5f8083601f8401126113c8575f80fd5b5081356001600160401b038111156113de575f80fd5b6020830191508360208285010111156113f5575f80fd5b9250929050565b5f805f805f805f60c0888a031215611412575f80fd5b61141b8861139d565b96506020880135955060408801356001600160401b0381111561143c575f80fd5b6114488a828b016113b8565b989b979a50986060810135976080820135975060a09091013595509350505050565b5f6020828403121561147a575f80fd5b81356001600160e01b031981168114610a64575f80fd5b5f805f80606085870312156114a4575f80fd5b6114ad8561139d565b93506020850135925060408501356001600160401b038111156114ce575f80fd5b6114da878288016113b8565b95989497509550505050565b5f805f805f8060a087890312156114fb575f80fd5b6115048761139d565b95506020870135945060408701356001600160401b03811115611525575f80fd5b61153189828a016113b8565b979a9699509760608101359660809091013595509350505050565b5f6020828403121561155c575f80fd5b5035919050565b634e487b7160e01b5f52604160045260245ffd5b604051601f8201601f191681016001600160401b038111828210171561159f5761159f611563565b604052919050565b5f82601f8301126115b6575f80fd5b81356001600160401b038111156115cf576115cf611563565b6115e2601f8201601f1916602001611577565b8181528460208386010111156115f6575f80fd5b816020850160208301375f918101602001919091529392505050565b5f805f8060808587031215611625575f80fd5b61162e8561139d565b935061163c6020860161139d565b92506040850135915060608501356001600160401b0381111561165d575f80fd5b611669878288016115a7565b91505092959194509250565b5f8060408385031215611686575f80fd5b823591506116966020840161139d565b90509250929050565b5f6020808352835180828501525f5b818110156116ca578581018301518582016040015282016116ae565b505f604082860101526040601f19601f8301168501019250505092915050565b634e487b7160e01b5f52602160045260245ffd5b602081016004831061171e57634e487b7160e01b5f52602160045260245ffd5b91905290565b5f8083601f840112611734575f80fd5b5081356001600160401b0381111561174a575f80fd5b6020830191508360208260051b85010111156113f5575f80fd5b5f805f805f805f805f60c08a8c03121561177c575f80fd5b89356001600160401b0380821115611792575f80fd5b61179e8d838e01611724565b909b50995060208c01359150808211156117b6575f80fd5b6117c28d838e01611724565b909950975060408c01359150808211156117da575f80fd5b506117e78c828d01611724565b9a9d999c50979a969997986060880135976080810135975060a0013595509350505050565b5f6020828403121561181c575f80fd5b813560048110610a64575f80fd5b5f805f805f805f8060a0898b031215611841575f80fd5b88356001600160401b0380821115611857575f80fd5b6118638c838d01611724565b909a50985060208b013591508082111561187b575f80fd5b6118878c838d01611724565b909850965060408b013591508082111561189f575f80fd5b506118ac8b828c01611724565b999c989b509699959896976060870135966080013595509350505050565b5f82601f8301126118d9575f80fd5b813560206001600160401b038211156118f4576118f4611563565b8160051b611903828201611577565b928352848101820192828101908785111561191c575f80fd5b83870192505b8483101561193b57823582529183019190830190611922565b979650505050505050565b5f805f805f60a0868803121561195a575f80fd5b6119638661139d565b94506119716020870161139d565b935060408601356001600160401b038082111561198c575f80fd5b61199889838a016118ca565b945060608801359150808211156119ad575f80fd5b6119b989838a016118ca565b935060808801359150808211156119ce575f80fd5b506119db888289016115a7565b9150509295509295909350565b5f80604083850312156119f9575f80fd5b50508035926020909101359150565b5f805f805f60a08688031215611a1c575f80fd5b611a258661139d565b9450611a336020870161139d565b9350604086013592506060860135915060808601356001600160401b03811115611a5b575f80fd5b6119db888289016115a7565b81835281816020850137505f828201602090810191909152601f909101601f19169091010190565b60018060a01b038716815285602082015260a060408201525f611ab660a083018688611a67565b60608301949094525060800152949350505050565b60018060a01b0385168152836020820152606060408201525f611af2606083018486611a67565b9695505050505050565b634e487b7160e01b5f52603260045260245ffd5b5f60208284031215611b20575f80fd5b610a648261139d565b5f808335601e19843603018112611b3e575f80fd5b8301803591506001600160401b03821115611b57575f80fd5b6020019150368190038213156113f5575f80fd5b634e487b7160e01b5f52601160045260245ffd5b5f60018201611b9057611b90611b6b565b5060010190565b8183525f6020808501808196508560051b81019150845f5b87811015611c165782840389528135601e19883603018112611bcf575f80fd5b870185810190356001600160401b03811115611be9575f80fd5b803603821315611bf7575f80fd5b611c02868284611a67565b9a87019a9550505090840190600101611baf565b5091979650505050505050565b60a080825281018890525f8960c08301825b8b811015611c63576001600160a01b03611c4e8461139d565b16825260209283019290910190600101611c35565b5083810360208501528881526001600160fb1b03891115611c82575f80fd5b8860051b9150818a60208301370182810360209081016040850152611caa9082018789611b97565b60608401959095525050608001529695505050505050565b8082018082111561085a5761085a611b6b565b818382375f910190815291905056fea26469706673582212209426e578c4799ba19118b8897487433976bd1fb077a3a822e900461a77970dfe64736f6c63430008140033",
  "linkReferences": {},
  "deployedLinkReferences": {}
}