{
  "_format": "hh-sol-artifact-1",
  "contractName": "$AddressFnPointerMock",
  "sourceName": "contracts-exposed/mocks/AddressFnPointersMock.sol",
  "abi": [
    {
      "inputs": [],
      "stateMutability": "payable",
      "type": "constructor"
    },
    {
      "inputs": [
        {
          "internalType": "address",
          "name": "target",
          "type": "address"
        }
      ],
      "name": "AddressEmptyCode",
      "type": "error"
    },
    {
      "inputs": [
        {
          "internalType": "address",
          "name": "account",
          "type": "address"
        }
      ],
      "name": "AddressInsufficientBalance",
      "type": "error"
    },
    {
      "inputs": [],
      "name": "CustomRevert",
      "type": "error"
    },
    {
      "inputs": [],
      "name": "FailedInnerCall",
      "type": "error"
    },
    {
      "inputs": [],
      "name": "$_customRevert",
      "outputs": [],
      "stateMutability": "pure",
      "type": "function"
    },
    {
      "inputs": [],
      "name": "$_customRevertVoid",
      "outputs": [],
      "stateMutability": "pure",
      "type": "function"
    },
    {
      "inputs": [],
      "name": "__hh_exposed_bytecode_marker",
      "outputs": [
        {
          "internalType": "bytes32",
          "name": "",
          "type": "bytes32"
        }
      ],
      "stateMutability": "view",
      "type": "function"
    },
    {
      "inputs": [
        {
          "internalType": "address",
          "name": "target",
          "type": "address"
        },
        {
          "internalType": "bytes",
          "name": "data",
          "type": "bytes"
        }
      ],
      "name": "functionCall",
      "outputs": [
        {
          "internalType": "bytes",
          "name": "",
          "type": "bytes"
        }
      ],
      "stateMutability": "nonpayable",
      "type": "function"
    },
    {
      "inputs": [
        {
          "internalType": "address",
          "name": "target",
          "type": "address"
        },
        {
          "internalType": "bytes",
          "name": "data",
          "type": "bytes"
        },
        {
          "internalType": "uint256",
          "name": "value",
          "type": "uint256"
        }
      ],
      "name": "functionCallWithValue",
      "outputs": [
        {
          "internalType": "bytes",
          "name": "",
          "type": "bytes"
        }
      ],
      "stateMutability": "nonpayable",
      "type": "function"
    },
    {
      "inputs": [
        {
          "internalType": "address",
          "name": "target",
          "type": "address"
        },
        {
          "internalType": "bytes",
          "name": "data",
          "type": "bytes"
        }
      ],
      "name": "functionDelegateCall",
      "outputs": [
        {
          "internalType": "bytes",
          "name": "",
          "type": "bytes"
        }
      ],
      "stateMutability": "nonpayable",
      "type": "function"
    },
    {
      "inputs": [
        {
          "internalType": "address",
          "name": "target",
          "type": "address"
        },
        {
          "internalType": "bytes",
          "name": "data",
          "type": "bytes"
        }
      ],
      "name": "functionStaticCall",
      "outputs": [
        {
          "internalType": "bytes",
          "name": "",
          "type": "bytes"
        }
      ],
      "stateMutability": "view",
      "type": "function"
    },
    {
      "inputs": [
        {
          "internalType": "bool",
          "name": "success",
          "type": "bool"
        },
        {
          "internalType": "bytes",
          "name": "returndata",
          "type": "bytes"
        }
      ],
      "name": "verifyCallResult",
      "outputs": [
        {
          "internalType": "bytes",
          "name": "",
          "type": "bytes"
        }
      ],
      "stateMutability": "view",
      "type": "function"
    },
    {
      "inputs": [
        {
          "internalType": "address",
          "name": "target",
          "type": "address"
        },
        {
          "internalType": "bool",
          "name": "success",
          "type": "bool"
        },
        {
          "internalType": "bytes",
          "name": "returndata",
          "type": "bytes"
        }
      ],
      "name": "verifyCallResultFromTarget",
      "outputs": [
        {
          "internalType": "bytes",
          "name": "",
          "type": "bytes"
        }
      ],
      "stateMutability": "view",
      "type": "function"
    },
    {
      "inputs": [
        {
          "internalType": "bool",
          "name": "success",
          "type": "bool"
        },
        {
          "internalType": "bytes",
          "name": "returndata",
          "type": "bytes"
        }
      ],
      "name": "verifyCallResultVoid",
      "outputs": [
        {
          "internalType": "bytes",
          "name": "",
          "type": "bytes"
        }
      ],
      "stateMutability": "view",
      "type": "function"
    },
    {
      "stateMutability": "payable",
      "type": "receive"
    }
  ],
  "bytecode": "0x6080604052610714806100115f395ff3fe608060405260043610610092575f3560e01c8063a0b5ffb011610057578063a0b5ffb014610152578063b78eb39814610171578063c21d36f314610185578063e2fa2e78146101a4578063ee33b7e2146101c3575f80fd5b806321b86a9d1461009d5780632a011594146100ac578063342db739146100e157806360df1e4e146101145780636a76e9b414610133575f80fd5b3661009957005b5f80fd5b3480156100a8575f80fd5b505b005b3480156100b7575f80fd5b506100cb6100c636600461054e565b6101e4565b6040516100d891906105c3565b60405180910390f35b3480156100ec575f80fd5b506101066e1a185c991a185d0b595e1c1bdcd959608a1b81565b6040519081526020016100d8565b34801561011f575f80fd5b506100cb61012e366004610604565b6101fe565b34801561013e575f80fd5b506100cb61014d36600461065e565b61020e565b34801561015d575f80fd5b506100cb61016c3660046106a9565b61021d565b34801561017c575f80fd5b506100aa61022c565b348015610190575f80fd5b506100cb61019f3660046106a9565b610234565b3480156101af575f80fd5b506100cb6101be36600461065e565b610243565b3480156101ce575f80fd5b506100cb6101dd3660046106a9565b610252565b565b60606101f484848461026161027a565b90505b9392505050565b60606101f484848461026161031c565b60606101f78383610261610372565b60606101f7838361026161038b565b6101e2610261565b60606101f78383610261610399565b60606101f783836101e2610372565b60606101f7838361026161040d565b6040516322c5b66160e21b815260040160405180910390fd5b6060824710156102a45760405163cd78605960e01b81523060048201526024015b60405180910390fd5b5f80866001600160a01b031685876040516102bf91906106c3565b5f6040518083038185875af1925050503d805f81146102f9576040519150601f19603f3d011682016040523d82523d5f602084013e6102fe565b606091505b509150915061030f8783838761031c565b925050505b949350505050565b606083156103685782515f0361036157846001600160a01b03163b5f0361036157604051639996b31560e01b81526001600160a01b038616600482015260240161029b565b5081610314565b6103148383610461565b606083156103815750816101f7565b6101f78383610461565b60606101f484845f8561027a565b60605f80856001600160a01b0316856040516103b591906106c3565b5f60405180830381855afa9150503d805f81146103ed576040519150601f19603f3d011682016040523d82523d5f602084013e6103f2565b606091505b50915091506104038683838761031c565b9695505050505050565b60605f80856001600160a01b03168560405161042991906106c3565b5f60405180830381855af49150503d805f81146103ed576040519150601f19603f3d011682016040523d82523d5f602084013e6103f2565b8151156104715781518083602001fd5b61047d8163ffffffff16565b604051630a12f52160e11b815260040160405180910390fd5b80356001600160a01b03811681146104ac575f80fd5b919050565b634e487b7160e01b5f52604160045260245ffd5b5f82601f8301126104d4575f80fd5b813567ffffffffffffffff808211156104ef576104ef6104b1565b604051601f8301601f19908116603f01168101908282118183101715610517576105176104b1565b8160405283815286602085880101111561052f575f80fd5b836020870160208301375f602085830101528094505050505092915050565b5f805f60608486031215610560575f80fd5b61056984610496565b9250602084013567ffffffffffffffff811115610584575f80fd5b610590868287016104c5565b925050604084013590509250925092565b5f5b838110156105bb5781810151838201526020016105a3565b50505f910152565b602081525f82518060208401526105e18160408501602087016105a1565b601f01601f19169190910160400192915050565b803580151581146104ac575f80fd5b5f805f60608486031215610616575f80fd5b61061f84610496565b925061062d602085016105f5565b9150604084013567ffffffffffffffff811115610648575f80fd5b610654868287016104c5565b9150509250925092565b5f806040838503121561066f575f80fd5b610678836105f5565b9150602083013567ffffffffffffffff811115610693575f80fd5b61069f858286016104c5565b9150509250929050565b5f80604083850312156106ba575f80fd5b61067883610496565b5f82516106d48184602087016105a1565b919091019291505056fea2646970667358221220c13dbe50d46cb89e4ff51649cfad665a47cd8221b6b4c42c2220aea01727ad1364736f6c63430008140033",
  "linkReferences": {},
  "deployedLinkReferences": {}
}