{
  "_format": "hh-sol-artifact-1",
  "contractName": "$Multicall",
  "sourceName": "contracts-exposed/utils/Multicall.sol",
  "abi": [
    {
      "inputs": [],
      "stateMutability": "payable",
      "type": "constructor"
    },
    {
      "inputs": [
        {
          "internalType": "address",
          "name": "target",
          "type": "address"
        }
      ],
      "name": "AddressEmptyCode",
      "type": "error"
    },
    {
      "inputs": [],
      "name": "FailedInnerCall",
      "type": "error"
    },
    {
      "inputs": [],
      "name": "__hh_exposed_bytecode_marker",
      "outputs": [
        {
          "internalType": "bytes32",
          "name": "",
          "type": "bytes32"
        }
      ],
      "stateMutability": "view",
      "type": "function"
    },
    {
      "inputs": [
        {
          "internalType": "bytes[]",
          "name": "data",
          "type": "bytes[]"
        }
      ],
      "name": "multicall",
      "outputs": [
        {
          "internalType": "bytes[]",
          "name": "results",
          "type": "bytes[]"
        }
      ],
      "stateMutability": "nonpayable",
      "type": "function"
    },
    {
      "stateMutability": "payable",
      "type": "receive"
    }
  ],
  "bytecode": "0x608060405261049e806100115f395ff3fe60806040526004361061002b575f3560e01c8063342db73914610036578063ac9650d81461006e575f80fd5b3661003257005b5f80fd5b348015610041575f80fd5b5061005b6e1a185c991a185d0b595e1c1bdcd959608a1b81565b6040519081526020015b60405180910390f35b348015610079575f80fd5b5061008d6100883660046102ae565b61009a565b604051610065919061033f565b60608167ffffffffffffffff8111156100b5576100b56103b7565b6040519080825280602002602001820160405280156100e857816020015b60608152602001906001900390816100d35790505b5090505f5b82811015610186576101563085858481811061010b5761010b6103cb565b905060200281019061011d91906103df565b8080601f0160208091040260200160405190810160405280939291908181526020018383808284375f9201919091525061018d92505050565b828281518110610168576101686103cb565b6020026020010181905250808061017e90610429565b9150506100ed565b5092915050565b606061019c83836101a36101bc565b9392505050565b604051630a12f52160e11b815260040160405180910390fd5b60605f80856001600160a01b0316856040516101d8919061044d565b5f60405180830381855af49150503d805f8114610210576040519150601f19603f3d011682016040523d82523d5f602084013e610215565b606091505b509150915061022686838387610230565b9695505050505050565b606083156102805782515f0361027957846001600160a01b03163b5f0361027957604051639996b31560e01b81526001600160a01b038616600482015260240160405180910390fd5b508161028a565b61028a8383610292565b949350505050565b8151156102a25781518083602001fd5b6101a38163ffffffff16565b5f80602083850312156102bf575f80fd5b823567ffffffffffffffff808211156102d6575f80fd5b818501915085601f8301126102e9575f80fd5b8135818111156102f7575f80fd5b8660208260051b850101111561030b575f80fd5b60209290920196919550909350505050565b5f5b8381101561033757818101518382015260200161031f565b50505f910152565b5f602080830181845280855180835260408601915060408160051b87010192508387015f5b828110156103aa57878503603f190184528151805180875261038b818989018a850161031d565b601f01601f191695909501860194509285019290850190600101610364565b5092979650505050505050565b634e487b7160e01b5f52604160045260245ffd5b634e487b7160e01b5f52603260045260245ffd5b5f808335601e198436030181126103f4575f80fd5b83018035915067ffffffffffffffff82111561040e575f80fd5b602001915036819003821315610422575f80fd5b9250929050565b5f6001820161044657634e487b7160e01b5f52601160045260245ffd5b5060010190565b5f825161045e81846020870161031d565b919091019291505056fea2646970667358221220849d3a185436d655ee3791f2d0e9306adada1206f95d97476a7a8614d0987b1964736f6c63430008140033",
  "linkReferences": {},
  "deployedLinkReferences": {}
}