{
  "_format": "hh-sol-artifact-1",
  "contractName": "$ERC1967Proxy",
  "sourceName": "contracts-exposed/proxy/ERC1967/ERC1967Proxy.sol",
  "abi": [
    {
      "inputs": [
        {
          "internalType": "address",
          "name": "_logic",
          "type": "address"
        },
        {
          "internalType": "bytes",
          "name": "_data",
          "type": "bytes"
        }
      ],
      "stateMutability": "payable",
      "type": "constructor"
    },
    {
      "inputs": [
        {
          "internalType": "address",
          "name": "target",
          "type": "address"
        }
      ],
      "name": "AddressEmptyCode",
      "type": "error"
    },
    {
      "inputs": [
        {
          "internalType": "address",
          "name": "implementation",
          "type": "address"
        }
      ],
      "name": "ERC1967InvalidImplementation",
      "type": "error"
    },
    {
      "inputs": [],
      "name": "ERC1967NonPayable",
      "type": "error"
    },
    {
      "inputs": [],
      "name": "FailedInnerCall",
      "type": "error"
    },
    {
      "anonymous": false,
      "inputs": [
        {
          "indexed": true,
          "internalType": "address",
          "name": "implementation",
          "type": "address"
        }
      ],
      "name": "Upgraded",
      "type": "event"
    },
    {
      "stateMutability": "payable",
      "type": "fallback"
    },
    {
      "inputs": [],
      "name": "$_beforeFallback",
      "outputs": [],
      "stateMutability": "nonpayable",
      "type": "function"
    },
    {
      "inputs": [
        {
          "internalType": "address",
          "name": "implementation",
          "type": "address"
        }
      ],
      "name": "$_delegate",
      "outputs": [],
      "stateMutability": "nonpayable",
      "type": "function"
    },
    {
      "inputs": [],
      "name": "$_fallback",
      "outputs": [],
      "stateMutability": "nonpayable",
      "type": "function"
    },
    {
      "inputs": [],
      "name": "$_implementation",
      "outputs": [
        {
          "internalType": "address",
          "name": "impl",
          "type": "address"
        }
      ],
      "stateMutability": "view",
      "type": "function"
    },
    {
      "inputs": [],
      "name": "__hh_exposed_bytecode_marker",
      "outputs": [
        {
          "internalType": "bytes32",
          "name": "",
          "type": "bytes32"
        }
      ],
      "stateMutability": "view",
      "type": "function"
    },
    {
      "stateMutability": "payable",
      "type": "receive"
    }
  ],
  "bytecode": "0x608060405260405161057938038061057983398101604081905261002291610289565b818161002e8282610037565b5050505061036c565b61004082610095565b6040516001600160a01b038316907fbc7cd75a20ee27fd9adebab32041f755214dbc6bffa90cc0225b39da2e5c2d3b905f90a2805115610089576100848282610110565b505050565b61009161012d565b5050565b806001600160a01b03163b5f036100cf57604051634c9c8ce360e01b81526001600160a01b03821660048201526024015b60405180910390fd5b7f360894a13ba1a3210667c828492db98dca3e2076cc3735a920a3ca505d382bbc80546001600160a01b0319166001600160a01b0392909216919091179055565b6060610126838361013461014e60201b17610167565b9392505050565b341561014c5760405163b398979f60e01b815260040160405180910390fd5b565b604051630a12f52160e11b815260040160405180910390fd5b60605f80856001600160a01b0316856040516101839190610351565b5f60405180830381855af49150503d805f81146101bb576040519150601f19603f3d011682016040523d82523d5f602084013e6101c0565b606091505b5090925090506101d2868383876101dc565b9695505050505050565b606083156102285782515f0361022157846001600160a01b03163b5f0361022157604051639996b31560e01b81526001600160a01b03861660048201526024016100c6565b5081610232565b610232838361023a565b949350505050565b81511561024a5781518083602001fd5b61014e8160201c565b634e487b7160e01b5f52604160045260245ffd5b5f5b83811015610281578181015183820152602001610269565b50505f910152565b5f806040838503121561029a575f80fd5b82516001600160a01b03811681146102b0575f80fd5b60208401519092506001600160401b03808211156102cc575f80fd5b818501915085601f8301126102df575f80fd5b8151818111156102f1576102f1610253565b604051601f8201601f19908116603f0116810190838211818310171561031957610319610253565b81604052828152886020848701011115610331575f80fd5b610342836020830160208801610267565b80955050505050509250929050565b5f8251610362818460208701610267565b9190910192915050565b610200806103795f395ff3fe60806040526004361061004d575f3560e01c8063342db7391461005e578063515f8df01461009657806389194f73146100c2578063ee8d6399146100cd578063f49367aa146100e157610054565b3661005457005b61005c610100565b005b348015610069575f80fd5b506100836e1a185c991a185d0b595e1c1bdcd959608a1b81565b6040519081526020015b60405180910390f35b3480156100a1575f80fd5b506100aa610112565b6040516001600160a01b03909116815260200161008d565b34801561005c575f80fd5b3480156100d8575f80fd5b5061005c610120565b3480156100ec575f80fd5b5061005c6100fb36600461019d565b610128565b61011061010b61014d565b61017f565b565b5f61011b61014d565b905090565b610110610100565b6101318161017f565b50565b604051630a12f52160e11b815260040160405180910390fd5b5f61011b7f360894a13ba1a3210667c828492db98dca3e2076cc3735a920a3ca505d382bbc546001600160a01b031690565b365f80375f80365f845af43d5f803e808015610199573d5ff35b3d5ffd5b5f602082840312156101ad575f80fd5b81356001600160a01b03811681146101c3575f80fd5b939250505056fea2646970667358221220b7cf4da1a6686046d5c5a4a1f567cb5daf075fc0a904ec2e725351506556d17664736f6c63430008140033",
  "linkReferences": {},
  "deployedLinkReferences": {}
}