{
  "_format": "hh-sol-artifact-1",
  "contractName": "DummyImplementation",
  "sourceName": "contracts/mocks/DummyImplementation.sol",
  "abi": [
    {
      "inputs": [],
      "name": "get",
      "outputs": [
        {
          "internalType": "bool",
          "name": "",
          "type": "bool"
        }
      ],
      "stateMutability": "pure",
      "type": "function"
    },
    {
      "inputs": [
        {
          "internalType": "uint256",
          "name": "_value",
          "type": "uint256"
        },
        {
          "internalType": "string",
          "name": "_text",
          "type": "string"
        },
        {
          "internalType": "uint256[]",
          "name": "_values",
          "type": "uint256[]"
        }
      ],
      "name": "initialize",
      "outputs": [],
      "stateMutability": "nonpayable",
      "type": "function"
    },
    {
      "inputs": [],
      "name": "initializeNonPayable",
      "outputs": [],
      "stateMutability": "nonpayable",
      "type": "function"
    },
    {
      "inputs": [
        {
          "internalType": "uint256",
          "name": "_value",
          "type": "uint256"
        }
      ],
      "name": "initializeNonPayableWithValue",
      "outputs": [],
      "stateMutability": "nonpayable",
      "type": "function"
    },
    {
      "inputs": [],
      "name": "initializePayable",
      "outputs": [],
      "stateMutability": "payable",
      "type": "function"
    },
    {
      "inputs": [
        {
          "internalType": "uint256",
          "name": "_value",
          "type": "uint256"
        }
      ],
      "name": "initializePayableWithValue",
      "outputs": [],
      "stateMutability": "payable",
      "type": "function"
    },
    {
      "inputs": [],
      "name": "reverts",
      "outputs": [],
      "stateMutability": "pure",
      "type": "function"
    },
    {
      "inputs": [],
      "name": "text",
      "outputs": [
        {
          "internalType": "string",
          "name": "",
          "type": "string"
        }
      ],
      "stateMutability": "view",
      "type": "function"
    },
    {
      "inputs": [
        {
          "internalType": "address",
          "name": "newAdmin",
          "type": "address"
        }
      ],
      "name": "unsafeOverrideAdmin",
      "outputs": [],
      "stateMutability": "nonpayable",
      "type": "function"
    },
    {
      "inputs": [],
      "name": "value",
      "outputs": [
        {
          "internalType": "uint256",
          "name": "",
          "type": "uint256"
        }
      ],
      "stateMutability": "view",
      "type": "function"
    },
    {
      "inputs": [
        {
          "internalType": "uint256",
          "name": "",
          "type": "uint256"
        }
      ],
      "name": "values",
      "outputs": [
        {
          "internalType": "uint256",
          "name": "",
          "type": "uint256"
        }
      ],
      "stateMutability": "view",
      "type": "function"
    },
    {
      "inputs": [],
      "name": "version",
      "outputs": [
        {
          "internalType": "string",
          "name": "",
          "type": "string"
        }
      ],
      "stateMutability": "pure",
      "type": "function"
    }
  ],
  "bytecode": "0x608060405234801561000f575f80fd5b506107328061001d5f395ff3fe6080604052600436106100a5575f3560e01c80635e383d21116100625780635e383d21146101a55780636d4ce63c146101c4578063763e2831146101df5780639fba1f9a146101fd578063d31f8b6b14610206578063e79f5bee14610225575f80fd5b806319af86e7146100a95780631f1bd69214610106578063227367d5146101305780633bccbbc9146101455780633fa4f2451461015957806354fd4d501461017b575b5f80fd5b3480156100b4575f80fd5b506101046100c33660046103b1565b7fb53127684a568b3173ae13b9f8a6016e243e63b6e8ee1178d6a717850b5d610380546001600160a01b0319166001600160a01b0392909216919091179055565b005b348015610111575f80fd5b5061011a610233565b60405161012791906103de565b60405180910390f35b34801561013b575f80fd5b50610104600a5f55565b348015610150575f80fd5b506101046102bf565b348015610164575f80fd5b5061016d5f5481565b604051908152602001610127565b348015610186575f80fd5b50604080518082019091526002815261563160f01b602082015261011a565b3480156101b0575f80fd5b5061016d6101bf366004610429565b61030b565b3480156101cf575f80fd5b5060405160018152602001610127565b3480156101ea575f80fd5b506101046101f9366004610429565b5f55565b61010460645f55565b348015610211575f80fd5b50610104610220366004610502565b61032a565b6101046101f9366004610429565b60018054610240906105ba565b80601f016020809104026020016040519081016040528092919081815260200182805461026c906105ba565b80156102b75780601f1061028e576101008083540402835291602001916102b7565b820191905f5260205f20905b81548152906001019060200180831161029a57829003601f168201915b505050505081565b60405162461bcd60e51b815260206004820152601c60248201527f44756d6d79496d706c656d656e746174696f6e20726576657274656400000000604482015260640160405180910390fd5b6002818154811061031a575f80fd5b5f91825260209091200154905081565b5f839055600161033a8382610640565b50805161034e906002906020840190610354565b50505050565b828054828255905f5260205f2090810192821561038d579160200282015b8281111561038d578251825591602001919060010190610372565b5061039992915061039d565b5090565b5b80821115610399575f815560010161039e565b5f602082840312156103c1575f80fd5b81356001600160a01b03811681146103d7575f80fd5b9392505050565b5f6020808352835180828501525f5b81811015610409578581018301518582016040015282016103ed565b505f604082860101526040601f19601f8301168501019250505092915050565b5f60208284031215610439575f80fd5b5035919050565b634e487b7160e01b5f52604160045260245ffd5b604051601f8201601f1916810167ffffffffffffffff8111828210171561047d5761047d610440565b604052919050565b5f82601f830112610494575f80fd5b8135602067ffffffffffffffff8211156104b0576104b0610440565b8160051b6104bf828201610454565b92835284810182019282810190878511156104d8575f80fd5b83870192505b848310156104f7578235825291830191908301906104de565b979650505050505050565b5f805f60608486031215610514575f80fd5b8335925060208085013567ffffffffffffffff80821115610533575f80fd5b818701915087601f830112610546575f80fd5b81358181111561055857610558610440565b61056a601f8201601f19168501610454565b818152898583860101111561057d575f80fd5b81858501868301375f91810190940152919350604086013591808311156105a2575f80fd5b50506105b086828701610485565b9150509250925092565b600181811c908216806105ce57607f821691505b6020821081036105ec57634e487b7160e01b5f52602260045260245ffd5b50919050565b601f82111561063b575f81815260208120601f850160051c810160208610156106185750805b601f850160051c820191505b8181101561063757828155600101610624565b5050505b505050565b815167ffffffffffffffff81111561065a5761065a610440565b61066e8161066884546105ba565b846105f2565b602080601f8311600181146106a1575f841561068a5750858301515b5f19600386901b1c1916600185901b178555610637565b5f85815260208120601f198616915b828110156106cf578886015182559484019460019091019084016106b0565b50858210156106ec57878501515f19600388901b60f8161c191681555b5050505050600190811b0190555056fea264697066735822122075c2d209d1a73ceadd2934df9c80b6c81916daa965a5d88804f5b57daaf4810664736f6c63430008140033",
  "linkReferences": {},
  "deployedLinkReferences": {}
}