{
  "_format": "hh-sol-artifact-1",
  "contractName": "DummyImplementationV2",
  "sourceName": "contracts/mocks/DummyImplementation.sol",
  "abi": [
    {
      "inputs": [],
      "name": "get",
      "outputs": [
        {
          "internalType": "bool",
          "name": "",
          "type": "bool"
        }
      ],
      "stateMutability": "pure",
      "type": "function"
    },
    {
      "inputs": [
        {
          "internalType": "uint256",
          "name": "_value",
          "type": "uint256"
        },
        {
          "internalType": "string",
          "name": "_text",
          "type": "string"
        },
        {
          "internalType": "uint256[]",
          "name": "_values",
          "type": "uint256[]"
        }
      ],
      "name": "initialize",
      "outputs": [],
      "stateMutability": "nonpayable",
      "type": "function"
    },
    {
      "inputs": [],
      "name": "initializeNonPayable",
      "outputs": [],
      "stateMutability": "nonpayable",
      "type": "function"
    },
    {
      "inputs": [
        {
          "internalType": "uint256",
          "name": "_value",
          "type": "uint256"
        }
      ],
      "name": "initializeNonPayableWithValue",
      "outputs": [],
      "stateMutability": "nonpayable",
      "type": "function"
    },
    {
      "inputs": [],
      "name": "initializePayable",
      "outputs": [],
      "stateMutability": "payable",
      "type": "function"
    },
    {
      "inputs": [
        {
          "internalType": "uint256",
          "name": "_value",
          "type": "uint256"
        }
      ],
      "name": "initializePayableWithValue",
      "outputs": [],
      "stateMutability": "payable",
      "type": "function"
    },
    {
      "inputs": [
        {
          "internalType": "uint256",
          "name": "newVal",
          "type": "uint256"
        }
      ],
      "name": "migrate",
      "outputs": [],
      "stateMutability": "payable",
      "type": "function"
    },
    {
      "inputs": [],
      "name": "reverts",
      "outputs": [],
      "stateMutability": "pure",
      "type": "function"
    },
    {
      "inputs": [],
      "name": "text",
      "outputs": [
        {
          "internalType": "string",
          "name": "",
          "type": "string"
        }
      ],
      "stateMutability": "view",
      "type": "function"
    },
    {
      "inputs": [
        {
          "internalType": "address",
          "name": "newAdmin",
          "type": "address"
        }
      ],
      "name": "unsafeOverrideAdmin",
      "outputs": [],
      "stateMutability": "nonpayable",
      "type": "function"
    },
    {
      "inputs": [],
      "name": "value",
      "outputs": [
        {
          "internalType": "uint256",
          "name": "",
          "type": "uint256"
        }
      ],
      "stateMutability": "view",
      "type": "function"
    },
    {
      "inputs": [
        {
          "internalType": "uint256",
          "name": "",
          "type": "uint256"
        }
      ],
      "name": "values",
      "outputs": [
        {
          "internalType": "uint256",
          "name": "",
          "type": "uint256"
        }
      ],
      "stateMutability": "view",
      "type": "function"
    },
    {
      "inputs": [],
      "name": "version",
      "outputs": [
        {
          "internalType": "string",
          "name": "",
          "type": "string"
        }
      ],
      "stateMutability": "pure",
      "type": "function"
    }
  ],
  "bytecode": "0x608060405234801561000f575f80fd5b5061074c8061001d5f395ff3fe6080604052600436106100bf575f3560e01c806354fd4d501161007c578063763e283111610057578063763e28311461020b5780639fba1f9a14610225578063d31f8b6b1461022e578063e79f5bee14610195575f80fd5b806354fd4d50146101a75780635e383d21146101d15780636d4ce63c146101f0575f80fd5b806319af86e7146100c35780631f1bd69214610120578063227367d51461014a5780633bccbbc91461015f5780633fa4f24514610173578063454b060814610195575b5f80fd5b3480156100ce575f80fd5b5061011e6100dd3660046103cb565b7fb53127684a568b3173ae13b9f8a6016e243e63b6e8ee1178d6a717850b5d610380546001600160a01b0319166001600160a01b0392909216919091179055565b005b34801561012b575f80fd5b5061013461024d565b60405161014191906103f8565b60405180910390f35b348015610155575f80fd5b5061011e600a5f55565b34801561016a575f80fd5b5061011e6102d9565b34801561017e575f80fd5b506101875f5481565b604051908152602001610141565b61011e6101a3366004610443565b5f55565b3480156101b2575f80fd5b506040805180820190915260028152612b1960f11b6020820152610134565b3480156101dc575f80fd5b506101876101eb366004610443565b610325565b3480156101fb575f80fd5b5060405160018152602001610141565b348015610216575f80fd5b5061011e6101a3366004610443565b61011e60645f55565b348015610239575f80fd5b5061011e61024836600461051c565b610344565b6001805461025a906105d4565b80601f0160208091040260200160405190810160405280929190818152602001828054610286906105d4565b80156102d15780601f106102a8576101008083540402835291602001916102d1565b820191905f5260205f20905b8154815290600101906020018083116102b457829003601f168201915b505050505081565b60405162461bcd60e51b815260206004820152601c60248201527f44756d6d79496d706c656d656e746174696f6e20726576657274656400000000604482015260640160405180910390fd5b60028181548110610334575f80fd5b5f91825260209091200154905081565b5f8390556001610354838261065a565b50805161036890600290602084019061036e565b50505050565b828054828255905f5260205f209081019282156103a7579160200282015b828111156103a757825182559160200191906001019061038c565b506103b39291506103b7565b5090565b5b808211156103b3575f81556001016103b8565b5f602082840312156103db575f80fd5b81356001600160a01b03811681146103f1575f80fd5b9392505050565b5f6020808352835180828501525f5b8181101561042357858101830151858201604001528201610407565b505f604082860101526040601f19601f8301168501019250505092915050565b5f60208284031215610453575f80fd5b5035919050565b634e487b7160e01b5f52604160045260245ffd5b604051601f8201601f1916810167ffffffffffffffff811182821017156104975761049761045a565b604052919050565b5f82601f8301126104ae575f80fd5b8135602067ffffffffffffffff8211156104ca576104ca61045a565b8160051b6104d982820161046e565b92835284810182019282810190878511156104f2575f80fd5b83870192505b84831015610511578235825291830191908301906104f8565b979650505050505050565b5f805f6060848603121561052e575f80fd5b8335925060208085013567ffffffffffffffff8082111561054d575f80fd5b818701915087601f830112610560575f80fd5b8135818111156105725761057261045a565b610584601f8201601f1916850161046e565b8181528985838601011115610597575f80fd5b81858501868301375f91810190940152919350604086013591808311156105bc575f80fd5b50506105ca8682870161049f565b9150509250925092565b600181811c908216806105e857607f821691505b60208210810361060657634e487b7160e01b5f52602260045260245ffd5b50919050565b601f821115610655575f81815260208120601f850160051c810160208610156106325750805b601f850160051c820191505b818110156106515782815560010161063e565b5050505b505050565b815167ffffffffffffffff8111156106745761067461045a565b6106888161068284546105d4565b8461060c565b602080601f8311600181146106bb575f84156106a45750858301515b5f19600386901b1c1916600185901b178555610651565b5f85815260208120601f198616915b828110156106e9578886015182559484019460019091019084016106ca565b508582101561070657878501515f19600388901b60f8161c191681555b5050505050600190811b0190555056fea26469706673582212205ab66af8705bf157e3e2eee29dbbd0d5a57e29102b7f9f42a8ae3603c9dcaa6f64736f6c63430008140033",
  "linkReferences": {},
  "deployedLinkReferences": {}
}