{
  "_format": "hh-sol-artifact-1",
  "contractName": "$ERC721",
  "sourceName": "contracts-exposed/token/ERC721/ERC721.sol",
  "abi": [
    {
      "inputs": [
        {
          "internalType": "string",
          "name": "name_",
          "type": "string"
        },
        {
          "internalType": "string",
          "name": "symbol_",
          "type": "string"
        }
      ],
      "stateMutability": "payable",
      "type": "constructor"
    },
    {
      "inputs": [
        {
          "internalType": "address",
          "name": "sender",
          "type": "address"
        },
        {
          "internalType": "uint256",
          "name": "tokenId",
          "type": "uint256"
        },
        {
          "internalType": "address",
          "name": "owner",
          "type": "address"
        }
      ],
      "name": "ERC721IncorrectOwner",
      "type": "error"
    },
    {
      "inputs": [
        {
          "internalType": "address",
          "name": "operator",
          "type": "address"
        },
        {
          "internalType": "uint256",
          "name": "tokenId",
          "type": "uint256"
        }
      ],
      "name": "ERC721InsufficientApproval",
      "type": "error"
    },
    {
      "inputs": [
        {
          "internalType": "address",
          "name": "approver",
          "type": "address"
        }
      ],
      "name": "ERC721InvalidApprover",
      "type": "error"
    },
    {
      "inputs": [
        {
          "internalType": "address",
          "name": "operator",
          "type": "address"
        }
      ],
      "name": "ERC721InvalidOperator",
      "type": "error"
    },
    {
      "inputs": [
        {
          "internalType": "address",
          "name": "owner",
          "type": "address"
        }
      ],
      "name": "ERC721InvalidOwner",
      "type": "error"
    },
    {
      "inputs": [
        {
          "internalType": "address",
          "name": "receiver",
          "type": "address"
        }
      ],
      "name": "ERC721InvalidReceiver",
      "type": "error"
    },
    {
      "inputs": [
        {
          "internalType": "address",
          "name": "sender",
          "type": "address"
        }
      ],
      "name": "ERC721InvalidSender",
      "type": "error"
    },
    {
      "inputs": [
        {
          "internalType": "uint256",
          "name": "tokenId",
          "type": "uint256"
        }
      ],
      "name": "ERC721NonexistentToken",
      "type": "error"
    },
    {
      "anonymous": false,
      "inputs": [
        {
          "indexed": true,
          "internalType": "address",
          "name": "owner",
          "type": "address"
        },
        {
          "indexed": true,
          "internalType": "address",
          "name": "approved",
          "type": "address"
        },
        {
          "indexed": true,
          "internalType": "uint256",
          "name": "tokenId",
          "type": "uint256"
        }
      ],
      "name": "Approval",
      "type": "event"
    },
    {
      "anonymous": false,
      "inputs": [
        {
          "indexed": true,
          "internalType": "address",
          "name": "owner",
          "type": "address"
        },
        {
          "indexed": true,
          "internalType": "address",
          "name": "operator",
          "type": "address"
        },
        {
          "indexed": false,
          "internalType": "bool",
          "name": "approved",
          "type": "bool"
        }
      ],
      "name": "ApprovalForAll",
      "type": "event"
    },
    {
      "anonymous": false,
      "inputs": [
        {
          "indexed": true,
          "internalType": "address",
          "name": "from",
          "type": "address"
        },
        {
          "indexed": true,
          "internalType": "address",
          "name": "to",
          "type": "address"
        },
        {
          "indexed": true,
          "internalType": "uint256",
          "name": "tokenId",
          "type": "uint256"
        }
      ],
      "name": "Transfer",
      "type": "event"
    },
    {
      "inputs": [
        {
          "internalType": "address",
          "name": "account",
          "type": "address"
        },
        {
          "internalType": "uint256",
          "name": "value",
          "type": "uint256"
        }
      ],
      "name": "$__unsafe_increaseBalance",
      "outputs": [],
      "stateMutability": "nonpayable",
      "type": "function"
    },
    {
      "inputs": [
        {
          "internalType": "address",
          "name": "from",
          "type": "address"
        },
        {
          "internalType": "address",
          "name": "to",
          "type": "address"
        },
        {
          "internalType": "uint256",
          "name": "firstTokenId",
          "type": "uint256"
        },
        {
          "internalType": "uint256",
          "name": "batchSize",
          "type": "uint256"
        }
      ],
      "name": "$_afterTokenTransfer",
      "outputs": [],
      "stateMutability": "nonpayable",
      "type": "function"
    },
    {
      "inputs": [
        {
          "internalType": "address",
          "name": "to",
          "type": "address"
        },
        {
          "internalType": "uint256",
          "name": "tokenId",
          "type": "uint256"
        }
      ],
      "name": "$_approve",
      "outputs": [],
      "stateMutability": "nonpayable",
      "type": "function"
    },
    {
      "inputs": [],
      "name": "$_baseURI",
      "outputs": [
        {
          "internalType": "string",
          "name": "ret0",
          "type": "string"
        }
      ],
      "stateMutability": "view",
      "type": "function"
    },
    {
      "inputs": [
        {
          "internalType": "address",
          "name": "from",
          "type": "address"
        },
        {
          "internalType": "address",
          "name": "to",
          "type": "address"
        },
        {
          "internalType": "uint256",
          "name": "firstTokenId",
          "type": "uint256"
        },
        {
          "internalType": "uint256",
          "name": "batchSize",
          "type": "uint256"
        }
      ],
      "name": "$_beforeTokenTransfer",
      "outputs": [],
      "stateMutability": "nonpayable",
      "type": "function"
    },
    {
      "inputs": [
        {
          "internalType": "uint256",
          "name": "tokenId",
          "type": "uint256"
        }
      ],
      "name": "$_burn",
      "outputs": [],
      "stateMutability": "nonpayable",
      "type": "function"
    },
    {
      "inputs": [
        {
          "internalType": "uint256",
          "name": "tokenId",
          "type": "uint256"
        }
      ],
      "name": "$_exists",
      "outputs": [
        {
          "internalType": "bool",
          "name": "ret0",
          "type": "bool"
        }
      ],
      "stateMutability": "view",
      "type": "function"
    },
    {
      "inputs": [
        {
          "internalType": "address",
          "name": "spender",
          "type": "address"
        },
        {
          "internalType": "uint256",
          "name": "tokenId",
          "type": "uint256"
        }
      ],
      "name": "$_isApprovedOrOwner",
      "outputs": [
        {
          "internalType": "bool",
          "name": "ret0",
          "type": "bool"
        }
      ],
      "stateMutability": "view",
      "type": "function"
    },
    {
      "inputs": [
        {
          "internalType": "address",
          "name": "to",
          "type": "address"
        },
        {
          "internalType": "uint256",
          "name": "tokenId",
          "type": "uint256"
        }
      ],
      "name": "$_mint",
      "outputs": [],
      "stateMutability": "nonpayable",
      "type": "function"
    },
    {
      "inputs": [],
      "name": "$_msgData",
      "outputs": [
        {
          "internalType": "bytes",
          "name": "ret0",
          "type": "bytes"
        }
      ],
      "stateMutability": "view",
      "type": "function"
    },
    {
      "inputs": [],
      "name": "$_msgSender",
      "outputs": [
        {
          "internalType": "address",
          "name": "ret0",
          "type": "address"
        }
      ],
      "stateMutability": "view",
      "type": "function"
    },
    {
      "inputs": [
        {
          "internalType": "uint256",
          "name": "tokenId",
          "type": "uint256"
        }
      ],
      "name": "$_ownerOf",
      "outputs": [
        {
          "internalType": "address",
          "name": "ret0",
          "type": "address"
        }
      ],
      "stateMutability": "view",
      "type": "function"
    },
    {
      "inputs": [
        {
          "internalType": "uint256",
          "name": "tokenId",
          "type": "uint256"
        }
      ],
      "name": "$_requireMinted",
      "outputs": [],
      "stateMutability": "view",
      "type": "function"
    },
    {
      "inputs": [
        {
          "internalType": "address",
          "name": "to",
          "type": "address"
        },
        {
          "internalType": "uint256",
          "name": "tokenId",
          "type": "uint256"
        },
        {
          "internalType": "bytes",
          "name": "data",
          "type": "bytes"
        }
      ],
      "name": "$_safeMint",
      "outputs": [],
      "stateMutability": "nonpayable",
      "type": "function"
    },
    {
      "inputs": [
        {
          "internalType": "address",
          "name": "to",
          "type": "address"
        },
        {
          "internalType": "uint256",
          "name": "tokenId",
          "type": "uint256"
        }
      ],
      "name": "$_safeMint",
      "outputs": [],
      "stateMutability": "nonpayable",
      "type": "function"
    },
    {
      "inputs": [
        {
          "internalType": "address",
          "name": "from",
          "type": "address"
        },
        {
          "internalType": "address",
          "name": "to",
          "type": "address"
        },
        {
          "internalType": "uint256",
          "name": "tokenId",
          "type": "uint256"
        },
        {
          "internalType": "bytes",
          "name": "data",
          "type": "bytes"
        }
      ],
      "name": "$_safeTransfer",
      "outputs": [],
      "stateMutability": "nonpayable",
      "type": "function"
    },
    {
      "inputs": [
        {
          "internalType": "address",
          "name": "owner",
          "type": "address"
        },
        {
          "internalType": "address",
          "name": "operator",
          "type": "address"
        },
        {
          "internalType": "bool",
          "name": "approved",
          "type": "bool"
        }
      ],
      "name": "$_setApprovalForAll",
      "outputs": [],
      "stateMutability": "nonpayable",
      "type": "function"
    },
    {
      "inputs": [
        {
          "internalType": "address",
          "name": "from",
          "type": "address"
        },
        {
          "internalType": "address",
          "name": "to",
          "type": "address"
        },
        {
          "internalType": "uint256",
          "name": "tokenId",
          "type": "uint256"
        }
      ],
      "name": "$_transfer",
      "outputs": [],
      "stateMutability": "nonpayable",
      "type": "function"
    },
    {
      "inputs": [],
      "name": "__hh_exposed_bytecode_marker",
      "outputs": [
        {
          "internalType": "bytes32",
          "name": "",
          "type": "bytes32"
        }
      ],
      "stateMutability": "view",
      "type": "function"
    },
    {
      "inputs": [
        {
          "internalType": "address",
          "name": "to",
          "type": "address"
        },
        {
          "internalType": "uint256",
          "name": "tokenId",
          "type": "uint256"
        }
      ],
      "name": "approve",
      "outputs": [],
      "stateMutability": "nonpayable",
      "type": "function"
    },
    {
      "inputs": [
        {
          "internalType": "address",
          "name": "owner",
          "type": "address"
        }
      ],
      "name": "balanceOf",
      "outputs": [
        {
          "internalType": "uint256",
          "name": "",
          "type": "uint256"
        }
      ],
      "stateMutability": "view",
      "type": "function"
    },
    {
      "inputs": [
        {
          "internalType": "uint256",
          "name": "tokenId",
          "type": "uint256"
        }
      ],
      "name": "getApproved",
      "outputs": [
        {
          "internalType": "address",
          "name": "",
          "type": "address"
        }
      ],
      "stateMutability": "view",
      "type": "function"
    },
    {
      "inputs": [
        {
          "internalType": "address",
          "name": "owner",
          "type": "address"
        },
        {
          "internalType": "address",
          "name": "operator",
          "type": "address"
        }
      ],
      "name": "isApprovedForAll",
      "outputs": [
        {
          "internalType": "bool",
          "name": "",
          "type": "bool"
        }
      ],
      "stateMutability": "view",
      "type": "function"
    },
    {
      "inputs": [],
      "name": "name",
      "outputs": [
        {
          "internalType": "string",
          "name": "",
          "type": "string"
        }
      ],
      "stateMutability": "view",
      "type": "function"
    },
    {
      "inputs": [
        {
          "internalType": "uint256",
          "name": "tokenId",
          "type": "uint256"
        }
      ],
      "name": "ownerOf",
      "outputs": [
        {
          "internalType": "address",
          "name": "",
          "type": "address"
        }
      ],
      "stateMutability": "view",
      "type": "function"
    },
    {
      "inputs": [
        {
          "internalType": "address",
          "name": "from",
          "type": "address"
        },
        {
          "internalType": "address",
          "name": "to",
          "type": "address"
        },
        {
          "internalType": "uint256",
          "name": "tokenId",
          "type": "uint256"
        }
      ],
      "name": "safeTransferFrom",
      "outputs": [],
      "stateMutability": "nonpayable",
      "type": "function"
    },
    {
      "inputs": [
        {
          "internalType": "address",
          "name": "from",
          "type": "address"
        },
        {
          "internalType": "address",
          "name": "to",
          "type": "address"
        },
        {
          "internalType": "uint256",
          "name": "tokenId",
          "type": "uint256"
        },
        {
          "internalType": "bytes",
          "name": "data",
          "type": "bytes"
        }
      ],
      "name": "safeTransferFrom",
      "outputs": [],
      "stateMutability": "nonpayable",
      "type": "function"
    },
    {
      "inputs": [
        {
          "internalType": "address",
          "name": "operator",
          "type": "address"
        },
        {
          "internalType": "bool",
          "name": "approved",
          "type": "bool"
        }
      ],
      "name": "setApprovalForAll",
      "outputs": [],
      "stateMutability": "nonpayable",
      "type": "function"
    },
    {
      "inputs": [
        {
          "internalType": "bytes4",
          "name": "interfaceId",
          "type": "bytes4"
        }
      ],
      "name": "supportsInterface",
      "outputs": [
        {
          "internalType": "bool",
          "name": "",
          "type": "bool"
        }
      ],
      "stateMutability": "view",
      "type": "function"
    },
    {
      "inputs": [],
      "name": "symbol",
      "outputs": [
        {
          "internalType": "string",
          "name": "",
          "type": "string"
        }
      ],
      "stateMutability": "view",
      "type": "function"
    },
    {
      "inputs": [
        {
          "internalType": "uint256",
          "name": "tokenId",
          "type": "uint256"
        }
      ],
      "name": "tokenURI",
      "outputs": [
        {
          "internalType": "string",
          "name": "",
          "type": "string"
        }
      ],
      "stateMutability": "view",
      "type": "function"
    },
    {
      "inputs": [
        {
          "internalType": "address",
          "name": "from",
          "type": "address"
        },
        {
          "internalType": "address",
          "name": "to",
          "type": "address"
        },
        {
          "internalType": "uint256",
          "name": "tokenId",
          "type": "uint256"
        }
      ],
      "name": "transferFrom",
      "outputs": [],
      "stateMutability": "nonpayable",
      "type": "function"
    },
    {
      "stateMutability": "payable",
      "type": "receive"
    }
  ],
  "bytecode": "0x608060405260405162001ad338038062001ad383398101604081905262000026916200010d565b81815f620000358382620001ff565b506001620000448282620001ff565b5050505050620002c7565b634e487b7160e01b5f52604160045260245ffd5b5f82601f83011262000073575f80fd5b81516001600160401b03808211156200009057620000906200004f565b604051601f8301601f19908116603f01168101908282118183101715620000bb57620000bb6200004f565b81604052838152602092508683858801011115620000d7575f80fd5b5f91505b83821015620000fa5785820183015181830184015290820190620000db565b5f93810190920192909252949350505050565b5f80604083850312156200011f575f80fd5b82516001600160401b038082111562000136575f80fd5b620001448683870162000063565b935060208501519150808211156200015a575f80fd5b50620001698582860162000063565b9150509250929050565b600181811c908216806200018857607f821691505b602082108103620001a757634e487b7160e01b5f52602260045260245ffd5b50919050565b601f821115620001fa575f81815260208120601f850160051c81016020861015620001d55750805b601f850160051c820191505b81811015620001f657828155600101620001e1565b5050505b505050565b81516001600160401b038111156200021b576200021b6200004f565b62000233816200022c845462000173565b84620001ad565b602080601f83116001811462000269575f8415620002515750858301515b5f19600386901b1c1916600185901b178555620001f6565b5f85815260208120601f198616915b82811015620002995788860151825594840194600190910190840162000278565b5085821015620002b757878501515f19600388901b60f8161c191681555b5050505050600190811b01905550565b6117fe80620002d55f395ff3fe6080604052600436106101de575f3560e01c806395d89b41116100fd578063c87b56dd11610092578063d261af5411610062578063d261af5414610565578063e07084c2146102b5578063e985e9c514610584578063efb43b07146105a3575f80fd5b8063c87b56dd146104e9578063cc461d6214610508578063cd43f47d14610527578063cfeea0d414610546575f80fd5b8063a2373a82116100cd578063a2373a821461046d578063b88d4fde1461048c578063c37add51146104ab578063c4a96fa6146104ca575f80fd5b806395d89b41146103fc57806398a1f7a0146104105780639ff2f02d1461042f578063a22cb4651461044e575f80fd5b80632904df2911610173578063458ee00211610143578063458ee002146103805780636352211e1461039f57806370a08231146103be578063733555ec146103dd575f80fd5b80632904df291461030857806332cadf3c1461031a578063342db7391461032e57806342842e0e14610361575f80fd5b806309854d72116101ae57806309854d7214610296578063147619da146102b5578063161e977d146102d557806323b872dd146102e9575f80fd5b806301ffc9a7146101e957806306fdde031461021d578063081812fc1461023e578063095ea7b314610275575f80fd5b366101e557005b5f80fd5b3480156101f4575f80fd5b506102086102033660046112d6565b6105c2565b60405190151581526020015b60405180910390f35b348015610228575f80fd5b50610231610613565b604051610214919061133e565b348015610249575f80fd5b5061025d610258366004611350565b6106a2565b6040516001600160a01b039091168152602001610214565b348015610280575f80fd5b5061029461028f366004611382565b6106c7565b005b3480156102a1575f80fd5b506102946102b0366004611350565b610764565b3480156102c0575f80fd5b506102946102cf3660046113aa565b50505050565b3480156102e0575f80fd5b50610231610770565b3480156102f4575f80fd5b506102946103033660046113e9565b61078b565b348015610313575f80fd5b503361025d565b348015610325575f80fd5b506102316107c6565b348015610339575f80fd5b506103536e1a185c991a185d0b595e1c1bdcd959608a1b81565b604051908152602001610214565b34801561036c575f80fd5b5061029461037b3660046113e9565b610803565b34801561038b575f80fd5b5061025d61039a366004611350565b61081d565b3480156103aa575f80fd5b5061025d6103b9366004611350565b610839565b3480156103c9575f80fd5b506103536103d8366004611422565b610871565b3480156103e8575f80fd5b506102946103f7366004611480565b6108b6565b348015610407575f80fd5b506102316108fe565b34801561041b575f80fd5b5061029461042a366004611382565b61090d565b34801561043a575f80fd5b506102946104493660046114ea565b61091b565b348015610459575f80fd5b5061029461046836600461154f565b61095b565b348015610478575f80fd5b50610294610487366004611350565b610966565b348015610497575f80fd5b506102946104a6366004611594565b61096f565b3480156104b6575f80fd5b506102086104c5366004611350565b6109ab565b3480156104d5575f80fd5b506102086104e4366004611382565b6109c9565b3480156104f4575f80fd5b50610231610503366004611350565b6109db565b348015610513575f80fd5b50610294610522366004611382565b610a4a565b348015610532575f80fd5b50610294610541366004611382565b610a54565b348015610551575f80fd5b50610294610560366004611669565b610a5e565b348015610570575f80fd5b5061029461057f366004611382565b610a69565b34801561058f575f80fd5b5061020861059e3660046116a9565b610a73565b3480156105ae575f80fd5b506102946105bd3660046113e9565b6107bb565b5f6001600160e01b031982166380ac58cd60e01b14806105f257506001600160e01b03198216635b5e139f60e01b145b8061060d57506301ffc9a760e01b6001600160e01b03198316145b92915050565b60605f8054610621906116d1565b80601f016020809104026020016040519081016040528092919081815260200182805461064d906116d1565b80156106985780601f1061066f57610100808354040283529160200191610698565b820191905f5260205f20905b81548152906001019060200180831161067b57829003601f168201915b5050505050905090565b5f6106ac82610aa0565b505f908152600460205260409020546001600160a01b031690565b5f6106d182610839565b9050806001600160a01b0316836001600160a01b03160361071557604051630b61174360e31b81526001600160a01b03821660048201526024015b60405180910390fd5b336001600160a01b0382161480159061073557506107338133610a73565b155b156107555760405163a9fbf51f60e01b815233600482015260240161070c565b61075f8383610ad7565b505050565b61076d81610aa0565b50565b606061078660408051602081019091525f815290565b905090565b6107953382610b44565b6107bb5760405163177e802f60e01b81523360048201526024810182905260440161070c565b61075f838383610ba2565b60605f368080601f0160208091040260200160405190810160405280939291908181526020018383808284375f9201919091525092949350505050565b61075f83838360405180602001604052805f81525061096f565b5f818152600260205260408120546001600160a01b031661060d565b5f818152600260205260408120546001600160a01b03168061060d57604051637e27328960e01b81526004810184905260240161070c565b5f6001600160a01b03821661089b576040516322718ad960e21b81525f600482015260240161070c565b506001600160a01b03165f9081526003602052604090205490565b6108f785858585858080601f0160208091040260200160405190810160405280939291908181526020018383808284375f92019190915250610d2c92505050565b5050505050565b606060018054610621906116d1565b6109178282610d6b565b5050565b6102cf848484848080601f0160208091040260200160405190810160405280939291908181526020018383808284375f92019190915250610d9b92505050565b610917338383610dd9565b61076d81610e82565b6109793383610b44565b61099f5760405163177e802f60e01b81523360048201526024810183905260440161070c565b6102cf84848484610d2c565b5f818152600260205260408120546001600160a01b0316151561060d565b5f6109d48383610b44565b9392505050565b60606109e682610aa0565b5f6109fb60408051602081019091525f815290565b90505f815111610a195760405180602001604052805f8152506109d4565b80610a2384610f37565b604051602001610a34929190611709565b6040516020818303038152906040529392505050565b6109178282610fc7565b6109178282610ad7565b61075f838383610dd9565b61091782826110c8565b6001600160a01b039182165f90815260056020908152604080832093909416825291909152205460ff1690565b5f818152600260205260409020546001600160a01b031661076d57604051637e27328960e01b81526004810182905260240161070c565b5f81815260046020526040902080546001600160a01b0319166001600160a01b0384169081179091558190610b0b82610839565b6001600160a01b03167f8c5be1e5ebec7d5bd14f71427d1e84f3dd0314c0f7b2291e5b200ac8c7c3b92560405160405180910390a45050565b5f80610b4f83610839565b9050806001600160a01b0316846001600160a01b03161480610b765750610b768185610a73565b80610b9a5750836001600160a01b0316610b8f846106a2565b6001600160a01b0316145b949350505050565b5f610bac82610839565b9050836001600160a01b0316816001600160a01b031614610bfa576040516364283d7b60e01b81526001600160a01b038086166004830152602482018490528216604482015260640161070c565b6001600160a01b038316610c2357604051633250574960e11b81525f600482015260240161070c565b610c2c82610839565b9050836001600160a01b0316816001600160a01b031614610c7a576040516364283d7b60e01b81526001600160a01b038086166004830152602482018490528216604482015260640161070c565b5f82815260046020908152604080832080546001600160a01b03191690556001600160a01b038716835260039091528120805460019290610cbc90849061174b565b90915550506001600160a01b038084165f81815260036020908152604080832080546001019055868352600290915280822080546001600160a01b031916841790555185938816917fddf252ad1be2c89b69c2b068fc378daa952ba7f163c4a11628f55a4df523b3ef91a46102cf565b610d37848484610ba2565b610d43848484846110e1565b6102cf57604051633250574960e11b81526001600160a01b038416600482015260240161070c565b6001600160a01b0382165f9081526003602052604081208054839290610d9290849061175e565b90915550505050565b610da58383610fc7565b610db15f8484846110e1565b61075f57604051633250574960e11b81526001600160a01b038416600482015260240161070c565b816001600160a01b0316836001600160a01b031603610e1657604051630b61174360e31b81526001600160a01b038416600482015260240161070c565b6001600160a01b038381165f81815260056020908152604080832094871680845294825291829020805460ff191686151590811790915591519182527f17307eab39ab6107e8899845ad3d59bd9653f200f220920489ca2b5937696c31910160405180910390a3505050565b5f610e8c82610839565b9050610e9782610839565b5f83815260046020908152604080832080546001600160a01b03191690556001600160a01b0384168352600390915281208054929350600192909190610ede90849061174b565b90915550505f8281526002602052604080822080546001600160a01b0319169055518391906001600160a01b038416907fddf252ad1be2c89b69c2b068fc378daa952ba7f163c4a11628f55a4df523b3ef908390a45050565b60605f610f43836111ea565b60010190505f8167ffffffffffffffff811115610f6257610f62611580565b6040519080825280601f01601f191660200182016040528015610f8c576020820181803683370190505b5090508181016020015b5f19016f181899199a1a9b1b9c1cb0b131b232b360811b600a86061a8153600a8504945084610f9657509392505050565b6001600160a01b038216610ff057604051633250574960e11b81525f600482015260240161070c565b5f818152600260205260409020546001600160a01b031615611027576040516339e3563760e11b81525f600482015260240161070c565b5f818152600260205260409020546001600160a01b03161561105e576040516339e3563760e11b81525f600482015260240161070c565b6001600160a01b0382165f81815260036020908152604080832080546001019055848352600290915280822080546001600160a01b0319168417905551839291907fddf252ad1be2c89b69c2b068fc378daa952ba7f163c4a11628f55a4df523b3ef908290a45050565b610917828260405180602001604052805f815250610d9b565b5f6001600160a01b0384163b156111df57604051630a85bd0160e11b81526001600160a01b0385169063150b7a0290611124903390899088908890600401611771565b6020604051808303815f875af192505050801561115e575060408051601f3d908101601f1916820190925261115b918101906117ad565b60015b6111c5573d80801561118b576040519150601f19603f3d011682016040523d82523d5f602084013e611190565b606091505b5080515f036111bd57604051633250574960e11b81526001600160a01b038616600482015260240161070c565b805181602001fd5b6001600160e01b031916630a85bd0160e11b149050610b9a565b506001949350505050565b5f8072184f03e93ff9f4daa797ed6e38ed64bf6a1f0160401b83106112285772184f03e93ff9f4daa797ed6e38ed64bf6a1f0160401b830492506040015b6d04ee2d6d415b85acef81000000008310611254576d04ee2d6d415b85acef8100000000830492506020015b662386f26fc10000831061127257662386f26fc10000830492506010015b6305f5e100831061128a576305f5e100830492506008015b612710831061129e57612710830492506004015b606483106112b0576064830492506002015b600a831061060d5760010192915050565b6001600160e01b03198116811461076d575f80fd5b5f602082840312156112e6575f80fd5b81356109d4816112c1565b5f5b8381101561130b5781810151838201526020016112f3565b50505f910152565b5f815180845261132a8160208601602086016112f1565b601f01601f19169290920160200192915050565b602081525f6109d46020830184611313565b5f60208284031215611360575f80fd5b5035919050565b80356001600160a01b038116811461137d575f80fd5b919050565b5f8060408385031215611393575f80fd5b61139c83611367565b946020939093013593505050565b5f805f80608085870312156113bd575f80fd5b6113c685611367565b93506113d460208601611367565b93969395505050506040820135916060013590565b5f805f606084860312156113fb575f80fd5b61140484611367565b925061141260208501611367565b9150604084013590509250925092565b5f60208284031215611432575f80fd5b6109d482611367565b5f8083601f84011261144b575f80fd5b50813567ffffffffffffffff811115611462575f80fd5b602083019150836020828501011115611479575f80fd5b9250929050565b5f805f805f60808688031215611494575f80fd5b61149d86611367565b94506114ab60208701611367565b935060408601359250606086013567ffffffffffffffff8111156114cd575f80fd5b6114d98882890161143b565b969995985093965092949392505050565b5f805f80606085870312156114fd575f80fd5b61150685611367565b935060208501359250604085013567ffffffffffffffff811115611528575f80fd5b6115348782880161143b565b95989497509550505050565b8035801515811461137d575f80fd5b5f8060408385031215611560575f80fd5b61156983611367565b915061157760208401611540565b90509250929050565b634e487b7160e01b5f52604160045260245ffd5b5f805f80608085870312156115a7575f80fd5b6115b085611367565b93506115be60208601611367565b925060408501359150606085013567ffffffffffffffff808211156115e1575f80fd5b818701915087601f8301126115f4575f80fd5b81358181111561160657611606611580565b604051601f8201601f19908116603f0116810190838211818310171561162e5761162e611580565b816040528281528a6020848701011115611646575f80fd5b826020860160208301375f60208483010152809550505050505092959194509250565b5f805f6060848603121561167b575f80fd5b61168484611367565b925061169260208501611367565b91506116a060408501611540565b90509250925092565b5f80604083850312156116ba575f80fd5b6116c383611367565b915061157760208401611367565b600181811c908216806116e557607f821691505b60208210810361170357634e487b7160e01b5f52602260045260245ffd5b50919050565b5f835161171a8184602088016112f1565b83519083019061172e8183602088016112f1565b01949350505050565b634e487b7160e01b5f52601160045260245ffd5b8181038181111561060d5761060d611737565b8082018082111561060d5761060d611737565b6001600160a01b03858116825284166020820152604081018390526080606082018190525f906117a390830184611313565b9695505050505050565b5f602082840312156117bd575f80fd5b81516109d4816112c156fea2646970667358221220d9cc781daefd03233e62124ab62d0fa097aa496d5e194ab9c9c82b54362976fc64736f6c63430008140033",
  "linkReferences": {},
  "deployedLinkReferences": {}
}