{"abi":[{"type":"constructor","inputs":[{"name":"name","type":"string","internalType":"string"}],"stateMutability":"nonpayable"},{"type":"function","name":"eip712Domain","inputs":[],"outputs":[{"name":"fields","type":"bytes1","internalType":"bytes1"},{"name":"name","type":"string","internalType":"string"},{"name":"version","type":"string","internalType":"string"},{"name":"chainId","type":"uint256","internalType":"uint256"},{"name":"verifyingContract","type":"address","internalType":"address"},{"name":"salt","type":"bytes32","internalType":"bytes32"},{"name":"extensions","type":"uint256[]","internalType":"uint256[]"}],"stateMutability":"view"},{"type":"function","name":"execute","inputs":[{"name":"request","type":"tuple","internalType":"struct ERC2771Forwarder.ForwardRequestData","components":[{"name":"from","type":"address","internalType":"address"},{"name":"to","type":"address","internalType":"address"},{"name":"value","type":"uint256","internalType":"uint256"},{"name":"gas","type":"uint256","internalType":"uint256"},{"name":"deadline","type":"uint48","internalType":"uint48"},{"name":"data","type":"bytes","internalType":"bytes"},{"name":"signature","type":"bytes","internalType":"bytes"}]}],"outputs":[],"stateMutability":"payable"},{"type":"function","name":"executeBatch","inputs":[{"name":"requests","type":"tuple[]","internalType":"struct ERC2771Forwarder.ForwardRequestData[]","components":[{"name":"from","type":"address","internalType":"address"},{"name":"to","type":"address","internalType":"address"},{"name":"value","type":"uint256","internalType":"uint256"},{"name":"gas","type":"uint256","internalType":"uint256"},{"name":"deadline","type":"uint48","internalType":"uint48"},{"name":"data","type":"bytes","internalType":"bytes"},{"name":"signature","type":"bytes","internalType":"bytes"}]},{"name":"refundReceiver","type":"address","internalType":"address payable"}],"outputs":[],"stateMutability":"payable"},{"type":"function","name":"nonces","inputs":[{"name":"owner","type":"address","internalType":"address"}],"outputs":[{"name":"","type":"uint256","internalType":"uint256"}],"stateMutability":"view"},{"type":"function","name":"verify","inputs":[{"name":"request","type":"tuple","internalType":"struct ERC2771Forwarder.ForwardRequestData","components":[{"name":"from","type":"address","internalType":"address"},{"name":"to","type":"address","internalType":"address"},{"name":"value","type":"uint256","internalType":"uint256"},{"name":"gas","type":"uint256","internalType":"uint256"},{"name":"deadline","type":"uint48","internalType":"uint48"},{"name":"data","type":"bytes","internalType":"bytes"},{"name":"signature","type":"bytes","internalType":"bytes"}]}],"outputs":[{"name":"","type":"bool","internalType":"bool"}],"stateMutability":"view"},{"type":"event","name":"EIP712DomainChanged","inputs":[],"anonymous":false},{"type":"event","name":"ExecutedForwardRequest","inputs":[{"name":"signer","type":"address","indexed":true,"internalType":"address"},{"name":"nonce","type":"uint256","indexed":false,"internalType":"uint256"},{"name":"success","type":"bool","indexed":false,"internalType":"bool"}],"anonymous":false},{"type":"error","name":"AddressInsufficientBalance","inputs":[{"name":"account","type":"address","internalType":"address"}]},{"type":"error","name":"ECDSAInvalidSignature","inputs":[]},{"type":"error","name":"ECDSAInvalidSignatureLength","inputs":[{"name":"length","type":"uint256","internalType":"uint256"}]},{"type":"error","name":"ECDSAInvalidSignatureS","inputs":[{"name":"s","type":"bytes32","internalType":"bytes32"}]},{"type":"error","name":"ERC2771ForwarderExpiredRequest","inputs":[{"name":"deadline","type":"uint48","internalType":"uint48"}]},{"type":"error","name":"ERC2771ForwarderInvalidSigner","inputs":[{"name":"signer","type":"address","internalType":"address"},{"name":"from","type":"address","internalType":"address"}]},{"type":"error","name":"ERC2771ForwarderMismatchedValue","inputs":[{"name":"requestedValue","type":"uint256","internalType":"uint256"},{"name":"msgValue","type":"uint256","internalType":"uint256"}]},{"type":"error","name":"FailedInnerCall","inputs":[]},{"type":"error","name":"InvalidAccountNonce","inputs":[{"name":"account","type":"address","internalType":"address"},{"name":"currentNonce","type":"uint256","internalType":"uint256"}]},{"type":"error","name":"InvalidShortString","inputs":[]},{"type":"error","name":"StringTooLong","inputs":[{"name":"str","type":"string","internalType":"string"}]}],"bytecode":{"object":"0x61016060405234801561001157600080fd5b506040516113da3803806113da833981016040819052610030916101b4565b6040805180820190915260018152603160f81b60208201528190610055826000610100565b61012052610064816001610100565b61014052815160208084019190912060e052815190820120610100524660a0526100f160e05161010051604080517f8b73c3c69bb8fe3d512ecc4cf759cc79239f7b179b0ffacaa9a75d522b39400f60208201529081019290925260608201524660808201523060a082015260009060c00160405160208183030381529060405280519060200120905090565b60805250503060c05250610404565b600060208351101561011c5761011583610133565b905061012d565b8161012784826102ef565b5060ff90505b92915050565b600080829050601f81511115610167578260405163305a27a960e01b815260040161015e91906103ad565b60405180910390fd5b8051610172826103e0565b179392505050565b634e487b7160e01b600052604160045260246000fd5b60005b838110156101ab578181015183820152602001610193565b50506000910152565b6000602082840312156101c657600080fd5b81516001600160401b038111156101dc57600080fd5b8201601f810184136101ed57600080fd5b80516001600160401b038111156102065761020661017a565b604051601f8201601f19908116603f011681016001600160401b03811182821017156102345761023461017a565b60405281815282820160200186101561024c57600080fd5b61025d826020830160208601610190565b95945050505050565b600181811c9082168061027a57607f821691505b60208210810361029a57634e487b7160e01b600052602260045260246000fd5b50919050565b601f8211156102ea57806000526020600020601f840160051c810160208510156102c75750805b601f840160051c820191505b818110156102e757600081556001016102d3565b50505b505050565b81516001600160401b038111156103085761030861017a565b61031c816103168454610266565b846102a0565b6020601f82116001811461035057600083156103385750848201515b600019600385901b1c1916600184901b1784556102e7565b600084815260208120601f198516915b828110156103805787850151825560209485019460019092019101610360565b508482101561039e5786840151600019600387901b60f8161c191681555b50505050600190811b01905550565b60208152600082518060208401526103cc816040850160208701610190565b601f01601f19169190910160400192915050565b8051602080830151919081101561029a5760001960209190910360031b1b16919050565b60805160a05160c05160e051610100516101205161014051610f7c61045e6000396000610375015260006103430152600061098c01526000610964015260006108bf015260006108e9015260006109130152610f7c6000f3fe60806040526004361061004a5760003560e01c806319d8d38c1461004f5780637ecebe001461008457806384b0196e146100c8578063ccf96b4a146100f0578063df905caf14610105575b600080fd5b34801561005b57600080fd5b5061006f61006a366004610bda565b610118565b60405190151581526020015b60405180910390f35b34801561009057600080fd5b506100ba61009f366004610c31565b6001600160a01b031660009081526002602052604090205490565b60405190815260200161007b565b3480156100d457600080fd5b506100dd61013d565b60405161007b9796959493929190610c9e565b6101036100fe366004610d36565b610183565b005b610103610113366004610bda565b61028a565b6000806000610126846102e5565b50915091508180156101355750805b949350505050565b60006060806000806000606061015161033c565b61015961036e565b60408051600080825260208201909252600f60f81b9b939a50919850469750309650945092509050565b6001600160a01b03811615600080805b85811015610243578686828181106101ad576101ad610dbf565b90506020028101906101bf9190610dd5565b6101cd906040013584610df5565b925060006101fe8888848181106101e6576101e6610dbf565b90506020028101906101f89190610dd5565b8661039b565b90508061023a5787878381811061021757610217610dbf565b90506020028101906102299190610dd5565b610237906040013584610df5565b92505b50600101610193565b50348214610272576040516370647f7960e01b8152600481018390523460248201526044015b60405180910390fd5b801561028257610282848261056c565b505050505050565b806040013534146102ba57604080516370647f7960e01b8152908201356004820152346024820152604401610269565b6102c581600161039b565b6102e257604051630a12f52160e11b815260040160405180910390fd5b50565b60008060006102f384610608565b90504261030660a0860160808701610e16565b65ffffffffffff16101561031d6020860186610c31565b6001600160a01b0316826001600160a01b031614925092509193909250565b60606103697f00000000000000000000000000000000000000000000000000000000000000006000610754565b905090565b60606103697f00000000000000000000000000000000000000000000000000000000000000006001610754565b6000806000806103aa866102e5565b925092509250841561042e57826103ef576103cb60a0870160808801610e16565b604051634a777ac560e11b815265ffffffffffff9091166004820152602401610269565b8161042e57806104026020880188610c31565b604051636422d02b60e11b81526001600160a01b03928316600482015291166024820152604401610269565b8180156104385750825b15610563576001600160a01b038116600090815260026020526040812080546001810190915590506104706040880160208901610c31565b6001600160a01b03166060880135604089013561049060a08b018b610e3e565b61049d60208d018d610c31565b6040516020016104af93929190610e8c565b60408051601f19818403018152908290526104c991610eb2565b600060405180830381858888f193505050503d8060008114610507576040519150601f19603f3d011682016040523d82523d6000602084013e61050c565b606091505b50508095505061051c5a88610800565b6040805182815286151560208201526001600160a01b038416917f842fb24a83793558587a3dab2be7674da4a51d09c5542d6dd354e5d0ea70813c910160405180910390a2505b50505092915050565b8047101561058f5760405163cd78605960e01b8152306004820152602401610269565b6000826001600160a01b03168260405160006040518083038185875af1925050503d80600081146105dc576040519150601f19603f3d011682016040523d82523d6000602084013e6105e1565b606091505b505090508061060357604051630a12f52160e11b815260040160405180910390fd5b505050565b600061074e61061a60c0840184610e3e565b8080601f01602080910402602001604051908101604052809392919081815260200183838082843760009201919091525061074892507f7f96328b83274ebc7c1cf4f7a3abda602b51a78b7fa1d86a2ce353d75e587cac915061068290506020870187610c31565b6106926040880160208901610c31565b604088013560608901356106ac61009f60208c018c610c31565b6106bc60a08c0160808d01610e16565b6106c960a08d018d610e3e565b6040516106d7929190610ec4565b6040805191829003822060208301999099526001600160a01b0397881690820152959094166060860152608085019290925260a084015260c083015265ffffffffffff1660e0820152610100810191909152610120016040516020818303038152906040528051906020012061081c565b90610849565b92915050565b606060ff831461076e5761076783610873565b905061074e565b81805461077a90610ed4565b80601f01602080910402602001604051908101604052809291908181526020018280546107a690610ed4565b80156107f35780601f106107c8576101008083540402835291602001916107f3565b820191906000526020600020905b8154815290600101906020018083116107d657829003601f168201915b5050505050905092915050565b61080f603f6060830135610f0e565b82101561081857fe5b5050565b600061074e6108296108b2565b8360405161190160f01b8152600281019290925260228201526042902090565b60008060008061085986866109dd565b9250925092506108698282610a2a565b5090949350505050565b6060600061088083610ae3565b604080516020808252818301909252919250600091906020820181803683375050509182525060208101929092525090565b6000306001600160a01b037f00000000000000000000000000000000000000000000000000000000000000001614801561090b57507f000000000000000000000000000000000000000000000000000000000000000046145b1561093557507f000000000000000000000000000000000000000000000000000000000000000090565b610369604080517f8b73c3c69bb8fe3d512ecc4cf759cc79239f7b179b0ffacaa9a75d522b39400f60208201527f0000000000000000000000000000000000000000000000000000000000000000918101919091527f000000000000000000000000000000000000000000000000000000000000000060608201524660808201523060a082015260009060c00160405160208183030381529060405280519060200120905090565b60008060008351604103610a175760208401516040850151606086015160001a610a0988828585610b0b565b955095509550505050610a23565b50508151600091506002905b9250925092565b6000826003811115610a3e57610a3e610f30565b03610a47575050565b6001826003811115610a5b57610a5b610f30565b03610a795760405163f645eedf60e01b815260040160405180910390fd5b6002826003811115610a8d57610a8d610f30565b03610aae5760405163fce698f760e01b815260048101829052602401610269565b6003826003811115610ac257610ac2610f30565b03610818576040516335e2f38360e21b815260048101829052602401610269565b600060ff8216601f81111561074e57604051632cd44ac360e21b815260040160405180910390fd5b600080807f7fffffffffffffffffffffffffffffff5d576e7357a4501ddfe92f46681b20a0841115610b465750600091506003905082610bd0565b604080516000808252602082018084528a905260ff891692820192909252606081018790526080810186905260019060a0016020604051602081039080840390855afa158015610b9a573d6000803e3d6000fd5b5050604051601f1901519150506001600160a01b038116610bc657506000925060019150829050610bd0565b9250600091508190505b9450945094915050565b600060208284031215610bec57600080fd5b813567ffffffffffffffff811115610c0357600080fd5b820160e08185031215610c1557600080fd5b9392505050565b6001600160a01b03811681146102e257600080fd5b600060208284031215610c4357600080fd5b8135610c1581610c1c565b60005b83811015610c69578181015183820152602001610c51565b50506000910152565b60008151808452610c8a816020860160208601610c4e565b601f01601f19169290920160200192915050565b60ff60f81b8816815260e060208201526000610cbd60e0830189610c72565b8281036040840152610ccf8189610c72565b606084018890526001600160a01b038716608085015260a0840186905283810360c08501528451808252602080870193509091019060005b81811015610d25578351835260209384019390920191600101610d07565b50909b9a5050505050505050505050565b600080600060408486031215610d4b57600080fd5b833567ffffffffffffffff811115610d6257600080fd5b8401601f81018613610d7357600080fd5b803567ffffffffffffffff811115610d8a57600080fd5b8660208260051b8401011115610d9f57600080fd5b602091820194509250840135610db481610c1c565b809150509250925092565b634e487b7160e01b600052603260045260246000fd5b6000823560de19833603018112610deb57600080fd5b9190910192915050565b8082018082111561074e57634e487b7160e01b600052601160045260246000fd5b600060208284031215610e2857600080fd5b813565ffffffffffff81168114610c1557600080fd5b6000808335601e19843603018112610e5557600080fd5b83018035915067ffffffffffffffff821115610e7057600080fd5b602001915036819003821315610e8557600080fd5b9250929050565b8284823760609190911b6bffffffffffffffffffffffff19169101908152601401919050565b60008251610deb818460208701610c4e565b8183823760009101908152919050565b600181811c90821680610ee857607f821691505b602082108103610f0857634e487b7160e01b600052602260045260246000fd5b50919050565b600082610f2b57634e487b7160e01b600052601260045260246000fd5b500490565b634e487b7160e01b600052602160045260246000fdfea26469706673582212202f081d6dfcf9695d8ba2161ecad57408cf5584d2539e63836f37dd99e25cb11e64736f6c634300081b0033","linkReferences":{}},"methodIdentifiers":{"eip712Domain()":"84b0196e","execute((address,address,uint256,uint256,uint48,bytes,bytes))":"df905caf","executeBatch((address,address,uint256,uint256,uint48,bytes,bytes)[],address)":"ccf96b4a","nonces(address)":"7ecebe00","verify((address,address,uint256,uint256,uint48,bytes,bytes))":"19d8d38c"},"id":59}