{"abi":[{"type":"constructor","inputs":[{"name":"array","type":"address[]","internalType":"address[]"}],"stateMutability":"nonpayable"},{"type":"function","name":"unsafeAccess","inputs":[{"name":"pos","type":"uint256","internalType":"uint256"}],"outputs":[{"name":"","type":"address","internalType":"address"}],"stateMutability":"view"}],"bytecode":{"object":"0x608060405234801561001057600080fd5b506040516102a73803806102a783398101604081905261002f916100f5565b8051610042906000906020840190610049565b50506101c4565b82805482825590600052602060002090810192821561009e579160200282015b8281111561009e57825182546001600160a01b0319166001600160a01b03909116178255602090920191600190910190610069565b506100aa9291506100ae565b5090565b5b808211156100aa57600081556001016100af565b634e487b7160e01b600052604160045260246000fd5b80516001600160a01b03811681146100f057600080fd5b919050565b60006020828403121561010757600080fd5b81516001600160401b0381111561011d57600080fd5b8201601f8101841361012e57600080fd5b80516001600160401b03811115610147576101476100c3565b604051600582901b90603f8201601f191681016001600160401b0381118282101715610175576101756100c3565b60405291825260208184018101929081018784111561019357600080fd5b6020850194505b838510156101b9576101ab856100d9565b81526020948501940161019a565b509695505050505050565b60d5806101d26000396000f3fe6080604052348015600f57600080fd5b506004361060285760003560e01c806340aa934d14602d575b600080fd5b606b60383660046087565b600080527f290decd9548b62a8d60345a988386fc84ba6bc95484008f6362f93160ef3e56301546001600160a01b031690565b6040516001600160a01b03909116815260200160405180910390f35b600060208284031215609857600080fd5b503591905056fea264697066735822122089e7122cdba2cb50528c619ddc64c252384382d67ed031f89d7c0749f336239c64736f6c634300081b0033","linkReferences":{}},"methodIdentifiers":{"unsafeAccess(uint256)":"40aa934d"},"id":61}