{"abi":[{"type":"constructor","inputs":[{"name":"array","type":"uint256[]","internalType":"uint256[]"}],"stateMutability":"nonpayable"},{"type":"function","name":"findUpperBound","inputs":[{"name":"element","type":"uint256","internalType":"uint256"}],"outputs":[{"name":"","type":"uint256","internalType":"uint256"}],"stateMutability":"view"},{"type":"function","name":"unsafeAccess","inputs":[{"name":"pos","type":"uint256","internalType":"uint256"}],"outputs":[{"name":"","type":"uint256","internalType":"uint256"}],"stateMutability":"view"}],"bytecode":{"object":"0x608060405234801561001057600080fd5b506040516103c03803806103c083398101604081905261002f916100bf565b8051610042906000906020840190610049565b505061018b565b828054828255906000526020600020908101928215610084579160200282015b82811115610084578251825591602001919060010190610069565b50610090929150610094565b5090565b5b808211156100905760008155600101610095565b634e487b7160e01b600052604160045260246000fd5b6000602082840312156100d157600080fd5b81516001600160401b038111156100e757600080fd5b8201601f810184136100f857600080fd5b80516001600160401b03811115610111576101116100a9565b604051600582901b90603f8201601f191681016001600160401b038111828210171561013f5761013f6100a9565b60405291825260208184018101929081018784111561015d57600080fd5b6020850194505b8385101561018057845180825260209586019590935001610164565b509695505050505050565b6102268061019a6000396000f3fe608060405234801561001057600080fd5b50600436106100365760003560e01c806333e3a58a1461003b57806340aa934d14610060575b600080fd5b61004e610049366004610179565b610098565b60405190815260200160405180910390f35b61004e61006e366004610179565b600080527f290decd9548b62a8d60345a988386fc84ba6bc95484008f6362f93160ef3e563015490565b60006100a481836100aa565b92915050565b815460009081908082036100c3576000925050506100a4565b8082101561010a5760006100d78383610157565b600087815260209020909150859082015411156100f657809150610104565b6101018160016101a8565b92505b506100c3565b600082118015610136575083610133866101256001866101bb565b600091825260209091200190565b54145b1561014f576101466001836101bb565b925050506100a4565b509392505050565b600061016660028484186101ce565b610172908484166101a8565b9392505050565b60006020828403121561018b57600080fd5b5035919050565b634e487b7160e01b600052601160045260246000fd5b808201808211156100a4576100a4610192565b818103818111156100a4576100a4610192565b6000826101eb57634e487b7160e01b600052601260045260246000fd5b50049056fea2646970667358221220641ea259fee9bd1a25755f3bc8d19503335b009116da14a7e0c5561188d5f14964736f6c634300081b0033","linkReferences":{}},"methodIdentifiers":{"findUpperBound(uint256)":"33e3a58a","unsafeAccess(uint256)":"40aa934d"},"id":61}