{
  "_format": "hh-sol-artifact-1",
  "contractName": "$ERC721ReceiverMock",
  "sourceName": "contracts-exposed/mocks/token/ERC721ReceiverMock.sol",
  "abi": [
    {
      "inputs": [
        {
          "internalType": "bytes4",
          "name": "retval",
          "type": "bytes4"
        },
        {
          "internalType": "enum ERC721ReceiverMock.RevertType",
          "name": "error",
          "type": "uint8"
        }
      ],
      "stateMutability": "payable",
      "type": "constructor"
    },
    {
      "inputs": [
        {
          "internalType": "bytes4",
          "name": "",
          "type": "bytes4"
        }
      ],
      "name": "CustomError",
      "type": "error"
    },
    {
      "anonymous": false,
      "inputs": [
        {
          "indexed": false,
          "internalType": "address",
          "name": "operator",
          "type": "address"
        },
        {
          "indexed": false,
          "internalType": "address",
          "name": "from",
          "type": "address"
        },
        {
          "indexed": false,
          "internalType": "uint256",
          "name": "tokenId",
          "type": "uint256"
        },
        {
          "indexed": false,
          "internalType": "bytes",
          "name": "data",
          "type": "bytes"
        },
        {
          "indexed": false,
          "internalType": "uint256",
          "name": "gas",
          "type": "uint256"
        }
      ],
      "name": "Received",
      "type": "event"
    },
    {
      "inputs": [],
      "name": "__hh_exposed_bytecode_marker",
      "outputs": [
        {
          "internalType": "bytes32",
          "name": "",
          "type": "bytes32"
        }
      ],
      "stateMutability": "view",
      "type": "function"
    },
    {
      "inputs": [
        {
          "internalType": "address",
          "name": "operator",
          "type": "address"
        },
        {
          "internalType": "address",
          "name": "from",
          "type": "address"
        },
        {
          "internalType": "uint256",
          "name": "tokenId",
          "type": "uint256"
        },
        {
          "internalType": "bytes",
          "name": "data",
          "type": "bytes"
        }
      ],
      "name": "onERC721Received",
      "outputs": [
        {
          "internalType": "bytes4",
          "name": "",
          "type": "bytes4"
        }
      ],
      "stateMutability": "nonpayable",
      "type": "function"
    },
    {
      "stateMutability": "payable",
      "type": "receive"
    }
  ],
  "bytecode": "0x60c060405260405161057538038061057583398101604081905261002291610065565b6001600160e01b031982166080528181806004811115610044576100446100ac565b60a0816004811115610058576100586100ac565b81525050505050506100c0565b5f8060408385031215610076575f80fd5b82516001600160e01b03198116811461008d575f80fd5b6020840151909250600581106100a1575f80fd5b809150509250929050565b634e487b7160e01b5f52602160045260245ffd5b60805160a05161047a6100fb5f395f818160ab0152818160e80152818161016e01526101ec01525f81816101bb0152610271015261047a5ff3fe60806040526004361061002b575f3560e01c8063150b7a0214610036578063342db73914610073575f80fd5b3661003257005b5f80fd5b348015610041575f80fd5b506100556100503660046102c7565b6100a6565b6040516001600160e01b031990911681526020015b60405180910390f35b34801561007e575f80fd5b506100986e1a185c991a185d0b595e1c1bdcd959608a1b81565b60405190815260200161006a565b5f60017f000000000000000000000000000000000000000000000000000000000000000060048111156100db576100db61039c565b036100e4575f80fd5b60027f000000000000000000000000000000000000000000000000000000000000000060048111156101185761011861039c565b0361016a5760405162461bcd60e51b815260206004820152601d60248201527f45524337323152656365697665724d6f636b3a20726576657274696e6700000060448201526064015b60405180910390fd5b60037f0000000000000000000000000000000000000000000000000000000000000000600481111561019e5761019e61039c565b036101e8576040516301990d6f60e61b81526001600160e01b03197f0000000000000000000000000000000000000000000000000000000000000000166004820152602401610161565b60047f0000000000000000000000000000000000000000000000000000000000000000600481111561021c5761021c61039c565b0361022f575f61022c81806103b0565b50505b7f28fa6e16458f9c24aa59ddd4085264573006dbe30304837873c7deafc702b038858585855a6040516102669594939291906103cf565b60405180910390a1507f0000000000000000000000000000000000000000000000000000000000000000949350505050565b80356001600160a01b03811681146102ae575f80fd5b919050565b634e487b7160e01b5f52604160045260245ffd5b5f805f80608085870312156102da575f80fd5b6102e385610298565b93506102f160208601610298565b925060408501359150606085013567ffffffffffffffff80821115610314575f80fd5b818701915087601f830112610327575f80fd5b813581811115610339576103396102b3565b604051601f8201601f19908116603f01168101908382118183101715610361576103616102b3565b816040528281528a6020848701011115610379575f80fd5b826020860160208301375f60208483010152809550505050505092959194509250565b634e487b7160e01b5f52602160045260245ffd5b5f826103ca57634e487b7160e01b5f52601260045260245ffd5b500490565b5f60018060a01b03808816835260208188168185015286604085015260a06060850152855191508160a08501525f5b8281101561041a5786810182015185820160c0015281016103fe565b50505f60c0828501015260c0601f19601f830116840101915050826080830152969550505050505056fea2646970667358221220859c123f6b078488a094133bae682eeb96efc1348075341224396d008946592764736f6c63430008140033",
  "linkReferences": {},
  "deployedLinkReferences": {}
}