{
  "_format": "hh-sol-artifact-1",
  "contractName": "$ERC4626",
  "sourceName": "contracts-exposed/token/ERC20/extensions/ERC4626.sol",
  "abi": [
    {
      "inputs": [
        {
          "internalType": "string",
          "name": "name_",
          "type": "string"
        },
        {
          "internalType": "string",
          "name": "symbol_",
          "type": "string"
        },
        {
          "internalType": "contract IERC20",
          "name": "asset_",
          "type": "address"
        }
      ],
      "stateMutability": "payable",
      "type": "constructor"
    },
    {
      "inputs": [
        {
          "internalType": "address",
          "name": "target",
          "type": "address"
        }
      ],
      "name": "AddressEmptyCode",
      "type": "error"
    },
    {
      "inputs": [
        {
          "internalType": "address",
          "name": "account",
          "type": "address"
        }
      ],
      "name": "AddressInsufficientBalance",
      "type": "error"
    },
    {
      "inputs": [
        {
          "internalType": "address",
          "name": "spender",
          "type": "address"
        },
        {
          "internalType": "uint256",
          "name": "currentAllowance",
          "type": "uint256"
        },
        {
          "internalType": "uint256",
          "name": "requestedDecrease",
          "type": "uint256"
        }
      ],
      "name": "ERC20FailedDecreaseAllowance",
      "type": "error"
    },
    {
      "inputs": [
        {
          "internalType": "address",
          "name": "spender",
          "type": "address"
        },
        {
          "internalType": "uint256",
          "name": "allowance",
          "type": "uint256"
        },
        {
          "internalType": "uint256",
          "name": "needed",
          "type": "uint256"
        }
      ],
      "name": "ERC20InsufficientAllowance",
      "type": "error"
    },
    {
      "inputs": [
        {
          "internalType": "address",
          "name": "sender",
          "type": "address"
        },
        {
          "internalType": "uint256",
          "name": "balance",
          "type": "uint256"
        },
        {
          "internalType": "uint256",
          "name": "needed",
          "type": "uint256"
        }
      ],
      "name": "ERC20InsufficientBalance",
      "type": "error"
    },
    {
      "inputs": [
        {
          "internalType": "address",
          "name": "approver",
          "type": "address"
        }
      ],
      "name": "ERC20InvalidApprover",
      "type": "error"
    },
    {
      "inputs": [
        {
          "internalType": "address",
          "name": "receiver",
          "type": "address"
        }
      ],
      "name": "ERC20InvalidReceiver",
      "type": "error"
    },
    {
      "inputs": [
        {
          "internalType": "address",
          "name": "sender",
          "type": "address"
        }
      ],
      "name": "ERC20InvalidSender",
      "type": "error"
    },
    {
      "inputs": [
        {
          "internalType": "address",
          "name": "spender",
          "type": "address"
        }
      ],
      "name": "ERC20InvalidSpender",
      "type": "error"
    },
    {
      "inputs": [
        {
          "internalType": "address",
          "name": "receiver",
          "type": "address"
        },
        {
          "internalType": "uint256",
          "name": "assets",
          "type": "uint256"
        },
        {
          "internalType": "uint256",
          "name": "max",
          "type": "uint256"
        }
      ],
      "name": "ERC4626ExceededMaxDeposit",
      "type": "error"
    },
    {
      "inputs": [
        {
          "internalType": "address",
          "name": "receiver",
          "type": "address"
        },
        {
          "internalType": "uint256",
          "name": "shares",
          "type": "uint256"
        },
        {
          "internalType": "uint256",
          "name": "max",
          "type": "uint256"
        }
      ],
      "name": "ERC4626ExceededMaxMint",
      "type": "error"
    },
    {
      "inputs": [
        {
          "internalType": "address",
          "name": "owner",
          "type": "address"
        },
        {
          "internalType": "uint256",
          "name": "shares",
          "type": "uint256"
        },
        {
          "internalType": "uint256",
          "name": "max",
          "type": "uint256"
        }
      ],
      "name": "ERC4626ExceededMaxRedeem",
      "type": "error"
    },
    {
      "inputs": [
        {
          "internalType": "address",
          "name": "owner",
          "type": "address"
        },
        {
          "internalType": "uint256",
          "name": "assets",
          "type": "uint256"
        },
        {
          "internalType": "uint256",
          "name": "max",
          "type": "uint256"
        }
      ],
      "name": "ERC4626ExceededMaxWithdraw",
      "type": "error"
    },
    {
      "inputs": [],
      "name": "FailedInnerCall",
      "type": "error"
    },
    {
      "inputs": [],
      "name": "MathOverflowedMulDiv",
      "type": "error"
    },
    {
      "inputs": [
        {
          "internalType": "address",
          "name": "token",
          "type": "address"
        }
      ],
      "name": "SafeERC20FailedOperation",
      "type": "error"
    },
    {
      "anonymous": false,
      "inputs": [
        {
          "indexed": true,
          "internalType": "address",
          "name": "owner",
          "type": "address"
        },
        {
          "indexed": true,
          "internalType": "address",
          "name": "spender",
          "type": "address"
        },
        {
          "indexed": false,
          "internalType": "uint256",
          "name": "value",
          "type": "uint256"
        }
      ],
      "name": "Approval",
      "type": "event"
    },
    {
      "anonymous": false,
      "inputs": [
        {
          "indexed": true,
          "internalType": "address",
          "name": "sender",
          "type": "address"
        },
        {
          "indexed": true,
          "internalType": "address",
          "name": "owner",
          "type": "address"
        },
        {
          "indexed": false,
          "internalType": "uint256",
          "name": "assets",
          "type": "uint256"
        },
        {
          "indexed": false,
          "internalType": "uint256",
          "name": "shares",
          "type": "uint256"
        }
      ],
      "name": "Deposit",
      "type": "event"
    },
    {
      "anonymous": false,
      "inputs": [
        {
          "indexed": true,
          "internalType": "address",
          "name": "from",
          "type": "address"
        },
        {
          "indexed": true,
          "internalType": "address",
          "name": "to",
          "type": "address"
        },
        {
          "indexed": false,
          "internalType": "uint256",
          "name": "value",
          "type": "uint256"
        }
      ],
      "name": "Transfer",
      "type": "event"
    },
    {
      "anonymous": false,
      "inputs": [
        {
          "indexed": true,
          "internalType": "address",
          "name": "sender",
          "type": "address"
        },
        {
          "indexed": true,
          "internalType": "address",
          "name": "receiver",
          "type": "address"
        },
        {
          "indexed": true,
          "internalType": "address",
          "name": "owner",
          "type": "address"
        },
        {
          "indexed": false,
          "internalType": "uint256",
          "name": "assets",
          "type": "uint256"
        },
        {
          "indexed": false,
          "internalType": "uint256",
          "name": "shares",
          "type": "uint256"
        }
      ],
      "name": "Withdraw",
      "type": "event"
    },
    {
      "inputs": [
        {
          "internalType": "address",
          "name": "owner",
          "type": "address"
        },
        {
          "internalType": "address",
          "name": "spender",
          "type": "address"
        },
        {
          "internalType": "uint256",
          "name": "value",
          "type": "uint256"
        },
        {
          "internalType": "bool",
          "name": "emitEvent",
          "type": "bool"
        }
      ],
      "name": "$_approve",
      "outputs": [],
      "stateMutability": "nonpayable",
      "type": "function"
    },
    {
      "inputs": [
        {
          "internalType": "address",
          "name": "owner",
          "type": "address"
        },
        {
          "internalType": "address",
          "name": "spender",
          "type": "address"
        },
        {
          "internalType": "uint256",
          "name": "value",
          "type": "uint256"
        }
      ],
      "name": "$_approve",
      "outputs": [],
      "stateMutability": "nonpayable",
      "type": "function"
    },
    {
      "inputs": [
        {
          "internalType": "address",
          "name": "account",
          "type": "address"
        },
        {
          "internalType": "uint256",
          "name": "value",
          "type": "uint256"
        }
      ],
      "name": "$_burn",
      "outputs": [],
      "stateMutability": "nonpayable",
      "type": "function"
    },
    {
      "inputs": [
        {
          "internalType": "uint256",
          "name": "shares",
          "type": "uint256"
        },
        {
          "internalType": "enum Math.Rounding",
          "name": "rounding",
          "type": "uint8"
        }
      ],
      "name": "$_convertToAssets",
      "outputs": [
        {
          "internalType": "uint256",
          "name": "ret0",
          "type": "uint256"
        }
      ],
      "stateMutability": "view",
      "type": "function"
    },
    {
      "inputs": [
        {
          "internalType": "uint256",
          "name": "assets",
          "type": "uint256"
        },
        {
          "internalType": "enum Math.Rounding",
          "name": "rounding",
          "type": "uint8"
        }
      ],
      "name": "$_convertToShares",
      "outputs": [
        {
          "internalType": "uint256",
          "name": "ret0",
          "type": "uint256"
        }
      ],
      "stateMutability": "view",
      "type": "function"
    },
    {
      "inputs": [],
      "name": "$_decimalsOffset",
      "outputs": [
        {
          "internalType": "uint8",
          "name": "ret0",
          "type": "uint8"
        }
      ],
      "stateMutability": "view",
      "type": "function"
    },
    {
      "inputs": [
        {
          "internalType": "address",
          "name": "caller",
          "type": "address"
        },
        {
          "internalType": "address",
          "name": "receiver",
          "type": "address"
        },
        {
          "internalType": "uint256",
          "name": "assets",
          "type": "uint256"
        },
        {
          "internalType": "uint256",
          "name": "shares",
          "type": "uint256"
        }
      ],
      "name": "$_deposit",
      "outputs": [],
      "stateMutability": "nonpayable",
      "type": "function"
    },
    {
      "inputs": [
        {
          "internalType": "address",
          "name": "account",
          "type": "address"
        },
        {
          "internalType": "uint256",
          "name": "value",
          "type": "uint256"
        }
      ],
      "name": "$_mint",
      "outputs": [],
      "stateMutability": "nonpayable",
      "type": "function"
    },
    {
      "inputs": [],
      "name": "$_msgData",
      "outputs": [
        {
          "internalType": "bytes",
          "name": "ret0",
          "type": "bytes"
        }
      ],
      "stateMutability": "view",
      "type": "function"
    },
    {
      "inputs": [],
      "name": "$_msgSender",
      "outputs": [
        {
          "internalType": "address",
          "name": "ret0",
          "type": "address"
        }
      ],
      "stateMutability": "view",
      "type": "function"
    },
    {
      "inputs": [
        {
          "internalType": "address",
          "name": "owner",
          "type": "address"
        },
        {
          "internalType": "address",
          "name": "spender",
          "type": "address"
        },
        {
          "internalType": "uint256",
          "name": "value",
          "type": "uint256"
        }
      ],
      "name": "$_spendAllowance",
      "outputs": [],
      "stateMutability": "nonpayable",
      "type": "function"
    },
    {
      "inputs": [
        {
          "internalType": "address",
          "name": "from",
          "type": "address"
        },
        {
          "internalType": "address",
          "name": "to",
          "type": "address"
        },
        {
          "internalType": "uint256",
          "name": "value",
          "type": "uint256"
        }
      ],
      "name": "$_transfer",
      "outputs": [],
      "stateMutability": "nonpayable",
      "type": "function"
    },
    {
      "inputs": [
        {
          "internalType": "address",
          "name": "from",
          "type": "address"
        },
        {
          "internalType": "address",
          "name": "to",
          "type": "address"
        },
        {
          "internalType": "uint256",
          "name": "value",
          "type": "uint256"
        }
      ],
      "name": "$_update",
      "outputs": [],
      "stateMutability": "nonpayable",
      "type": "function"
    },
    {
      "inputs": [
        {
          "internalType": "address",
          "name": "caller",
          "type": "address"
        },
        {
          "internalType": "address",
          "name": "receiver",
          "type": "address"
        },
        {
          "internalType": "address",
          "name": "owner",
          "type": "address"
        },
        {
          "internalType": "uint256",
          "name": "assets",
          "type": "uint256"
        },
        {
          "internalType": "uint256",
          "name": "shares",
          "type": "uint256"
        }
      ],
      "name": "$_withdraw",
      "outputs": [],
      "stateMutability": "nonpayable",
      "type": "function"
    },
    {
      "inputs": [],
      "name": "__hh_exposed_bytecode_marker",
      "outputs": [
        {
          "internalType": "bytes32",
          "name": "",
          "type": "bytes32"
        }
      ],
      "stateMutability": "view",
      "type": "function"
    },
    {
      "inputs": [
        {
          "internalType": "address",
          "name": "owner",
          "type": "address"
        },
        {
          "internalType": "address",
          "name": "spender",
          "type": "address"
        }
      ],
      "name": "allowance",
      "outputs": [
        {
          "internalType": "uint256",
          "name": "",
          "type": "uint256"
        }
      ],
      "stateMutability": "view",
      "type": "function"
    },
    {
      "inputs": [
        {
          "internalType": "address",
          "name": "spender",
          "type": "address"
        },
        {
          "internalType": "uint256",
          "name": "value",
          "type": "uint256"
        }
      ],
      "name": "approve",
      "outputs": [
        {
          "internalType": "bool",
          "name": "",
          "type": "bool"
        }
      ],
      "stateMutability": "nonpayable",
      "type": "function"
    },
    {
      "inputs": [],
      "name": "asset",
      "outputs": [
        {
          "internalType": "address",
          "name": "",
          "type": "address"
        }
      ],
      "stateMutability": "view",
      "type": "function"
    },
    {
      "inputs": [
        {
          "internalType": "address",
          "name": "account",
          "type": "address"
        }
      ],
      "name": "balanceOf",
      "outputs": [
        {
          "internalType": "uint256",
          "name": "",
          "type": "uint256"
        }
      ],
      "stateMutability": "view",
      "type": "function"
    },
    {
      "inputs": [
        {
          "internalType": "uint256",
          "name": "shares",
          "type": "uint256"
        }
      ],
      "name": "convertToAssets",
      "outputs": [
        {
          "internalType": "uint256",
          "name": "",
          "type": "uint256"
        }
      ],
      "stateMutability": "view",
      "type": "function"
    },
    {
      "inputs": [
        {
          "internalType": "uint256",
          "name": "assets",
          "type": "uint256"
        }
      ],
      "name": "convertToShares",
      "outputs": [
        {
          "internalType": "uint256",
          "name": "",
          "type": "uint256"
        }
      ],
      "stateMutability": "view",
      "type": "function"
    },
    {
      "inputs": [],
      "name": "decimals",
      "outputs": [
        {
          "internalType": "uint8",
          "name": "",
          "type": "uint8"
        }
      ],
      "stateMutability": "view",
      "type": "function"
    },
    {
      "inputs": [
        {
          "internalType": "address",
          "name": "spender",
          "type": "address"
        },
        {
          "internalType": "uint256",
          "name": "requestedDecrease",
          "type": "uint256"
        }
      ],
      "name": "decreaseAllowance",
      "outputs": [
        {
          "internalType": "bool",
          "name": "",
          "type": "bool"
        }
      ],
      "stateMutability": "nonpayable",
      "type": "function"
    },
    {
      "inputs": [
        {
          "internalType": "uint256",
          "name": "assets",
          "type": "uint256"
        },
        {
          "internalType": "address",
          "name": "receiver",
          "type": "address"
        }
      ],
      "name": "deposit",
      "outputs": [
        {
          "internalType": "uint256",
          "name": "",
          "type": "uint256"
        }
      ],
      "stateMutability": "nonpayable",
      "type": "function"
    },
    {
      "inputs": [
        {
          "internalType": "address",
          "name": "spender",
          "type": "address"
        },
        {
          "internalType": "uint256",
          "name": "addedValue",
          "type": "uint256"
        }
      ],
      "name": "increaseAllowance",
      "outputs": [
        {
          "internalType": "bool",
          "name": "",
          "type": "bool"
        }
      ],
      "stateMutability": "nonpayable",
      "type": "function"
    },
    {
      "inputs": [
        {
          "internalType": "address",
          "name": "",
          "type": "address"
        }
      ],
      "name": "maxDeposit",
      "outputs": [
        {
          "internalType": "uint256",
          "name": "",
          "type": "uint256"
        }
      ],
      "stateMutability": "view",
      "type": "function"
    },
    {
      "inputs": [
        {
          "internalType": "address",
          "name": "",
          "type": "address"
        }
      ],
      "name": "maxMint",
      "outputs": [
        {
          "internalType": "uint256",
          "name": "",
          "type": "uint256"
        }
      ],
      "stateMutability": "view",
      "type": "function"
    },
    {
      "inputs": [
        {
          "internalType": "address",
          "name": "owner",
          "type": "address"
        }
      ],
      "name": "maxRedeem",
      "outputs": [
        {
          "internalType": "uint256",
          "name": "",
          "type": "uint256"
        }
      ],
      "stateMutability": "view",
      "type": "function"
    },
    {
      "inputs": [
        {
          "internalType": "address",
          "name": "owner",
          "type": "address"
        }
      ],
      "name": "maxWithdraw",
      "outputs": [
        {
          "internalType": "uint256",
          "name": "",
          "type": "uint256"
        }
      ],
      "stateMutability": "view",
      "type": "function"
    },
    {
      "inputs": [
        {
          "internalType": "uint256",
          "name": "shares",
          "type": "uint256"
        },
        {
          "internalType": "address",
          "name": "receiver",
          "type": "address"
        }
      ],
      "name": "mint",
      "outputs": [
        {
          "internalType": "uint256",
          "name": "",
          "type": "uint256"
        }
      ],
      "stateMutability": "nonpayable",
      "type": "function"
    },
    {
      "inputs": [],
      "name": "name",
      "outputs": [
        {
          "internalType": "string",
          "name": "",
          "type": "string"
        }
      ],
      "stateMutability": "view",
      "type": "function"
    },
    {
      "inputs": [
        {
          "internalType": "uint256",
          "name": "assets",
          "type": "uint256"
        }
      ],
      "name": "previewDeposit",
      "outputs": [
        {
          "internalType": "uint256",
          "name": "",
          "type": "uint256"
        }
      ],
      "stateMutability": "view",
      "type": "function"
    },
    {
      "inputs": [
        {
          "internalType": "uint256",
          "name": "shares",
          "type": "uint256"
        }
      ],
      "name": "previewMint",
      "outputs": [
        {
          "internalType": "uint256",
          "name": "",
          "type": "uint256"
        }
      ],
      "stateMutability": "view",
      "type": "function"
    },
    {
      "inputs": [
        {
          "internalType": "uint256",
          "name": "shares",
          "type": "uint256"
        }
      ],
      "name": "previewRedeem",
      "outputs": [
        {
          "internalType": "uint256",
          "name": "",
          "type": "uint256"
        }
      ],
      "stateMutability": "view",
      "type": "function"
    },
    {
      "inputs": [
        {
          "internalType": "uint256",
          "name": "assets",
          "type": "uint256"
        }
      ],
      "name": "previewWithdraw",
      "outputs": [
        {
          "internalType": "uint256",
          "name": "",
          "type": "uint256"
        }
      ],
      "stateMutability": "view",
      "type": "function"
    },
    {
      "inputs": [
        {
          "internalType": "uint256",
          "name": "shares",
          "type": "uint256"
        },
        {
          "internalType": "address",
          "name": "receiver",
          "type": "address"
        },
        {
          "internalType": "address",
          "name": "owner",
          "type": "address"
        }
      ],
      "name": "redeem",
      "outputs": [
        {
          "internalType": "uint256",
          "name": "",
          "type": "uint256"
        }
      ],
      "stateMutability": "nonpayable",
      "type": "function"
    },
    {
      "inputs": [],
      "name": "symbol",
      "outputs": [
        {
          "internalType": "string",
          "name": "",
          "type": "string"
        }
      ],
      "stateMutability": "view",
      "type": "function"
    },
    {
      "inputs": [],
      "name": "totalAssets",
      "outputs": [
        {
          "internalType": "uint256",
          "name": "",
          "type": "uint256"
        }
      ],
      "stateMutability": "view",
      "type": "function"
    },
    {
      "inputs": [],
      "name": "totalSupply",
      "outputs": [
        {
          "internalType": "uint256",
          "name": "",
          "type": "uint256"
        }
      ],
      "stateMutability": "view",
      "type": "function"
    },
    {
      "inputs": [
        {
          "internalType": "address",
          "name": "to",
          "type": "address"
        },
        {
          "internalType": "uint256",
          "name": "value",
          "type": "uint256"
        }
      ],
      "name": "transfer",
      "outputs": [
        {
          "internalType": "bool",
          "name": "",
          "type": "bool"
        }
      ],
      "stateMutability": "nonpayable",
      "type": "function"
    },
    {
      "inputs": [
        {
          "internalType": "address",
          "name": "from",
          "type": "address"
        },
        {
          "internalType": "address",
          "name": "to",
          "type": "address"
        },
        {
          "internalType": "uint256",
          "name": "value",
          "type": "uint256"
        }
      ],
      "name": "transferFrom",
      "outputs": [
        {
          "internalType": "bool",
          "name": "",
          "type": "bool"
        }
      ],
      "stateMutability": "nonpayable",
      "type": "function"
    },
    {
      "inputs": [
        {
          "internalType": "uint256",
          "name": "assets",
          "type": "uint256"
        },
        {
          "internalType": "address",
          "name": "receiver",
          "type": "address"
        },
        {
          "internalType": "address",
          "name": "owner",
          "type": "address"
        }
      ],
      "name": "withdraw",
      "outputs": [
        {
          "internalType": "uint256",
          "name": "",
          "type": "uint256"
        }
      ],
      "stateMutability": "nonpayable",
      "type": "function"
    },
    {
      "stateMutability": "payable",
      "type": "receive"
    }
  ],
  "bytecode": "0x60c060405260405162001d3238038062001d32833981016040819052620000269162000233565b808383600362000037838262000346565b50600462000046828262000346565b5050505f806200005c836200008e60201b60201c565b91509150816200006e57601262000070565b805b60ff1660a05250506001600160a01b03166080525062000443915050565b60408051600481526024810182526020810180516001600160e01b031663313ce56760e01b17905290515f918291829182916001600160a01b03871691620000d6916200040e565b5f60405180830381855afa9150503d805f811462000110576040519150601f19603f3d011682016040523d82523d5f602084013e62000115565b606091505b50915091508180156200012a57506020815110155b1562000161575f818060200190518101906200014791906200042b565b905060ff81116200015f576001969095509350505050565b505b505f9485945092505050565b634e487b7160e01b5f52604160045260245ffd5b5f5b838110156200019d57818101518382015260200162000183565b50505f910152565b5f82601f830112620001b5575f80fd5b81516001600160401b0380821115620001d257620001d26200016d565b604051601f8301601f19908116603f01168101908282118183101715620001fd57620001fd6200016d565b8160405283815286602085880101111562000216575f80fd5b6200022984602083016020890162000181565b9695505050505050565b5f805f6060848603121562000246575f80fd5b83516001600160401b03808211156200025d575f80fd5b6200026b87838801620001a5565b9450602086015191508082111562000281575f80fd5b506200029086828701620001a5565b604086015190935090506001600160a01b0381168114620002af575f80fd5b809150509250925092565b600181811c90821680620002cf57607f821691505b602082108103620002ee57634e487b7160e01b5f52602260045260245ffd5b50919050565b601f82111562000341575f81815260208120601f850160051c810160208610156200031c5750805b601f850160051c820191505b818110156200033d5782815560010162000328565b5050505b505050565b81516001600160401b038111156200036257620003626200016d565b6200037a81620003738454620002ba565b84620002f4565b602080601f831160018114620003b0575f8415620003985750858301515b5f19600386901b1c1916600185901b1785556200033d565b5f85815260208120601f198616915b82811015620003e057888601518255948401946001909101908401620003bf565b5085821015620003fe57878501515f19600388901b60f8161c191681555b5050505050600190811b01905550565b5f82516200042181846020870162000181565b9190910192915050565b5f602082840312156200043c575f80fd5b5051919050565b60805160a0516118b86200047a5f395f6108b801525f81816103f30152818161075201528181610e9e0152610f5001526118b85ff3fe60806040526004361061024c575f3560e01c80638b4e914a11610134578063c63d75b6116100b3578063d905777e11610078578063d905777e146106ad578063dd62ed3e146106cc578063e047838d146106eb578063ef4f78d11461070a578063ef8b30f714610631578063efb43b071461071c575f80fd5b8063c63d75b614610436578063c6e6f59214610631578063ca10eca014610650578063cc461d621461066f578063ce96cb771461068e575f80fd5b8063a9059cbb116100f9578063a9059cbb14610596578063b2331d7d146105b5578063b3d7f6b9146105d4578063b460af94146105f3578063ba08765214610612575f80fd5b80638b4e914a1461050657806394bf804d1461052557806395d89b41146105445780639c0b90c714610558578063a457c2d714610577575f80fd5b806332cadf3c116101cb5780634cdad506116101905780634cdad5061461029f5780636855a178146104565780636e553f651461047557806370a082311461049457806383b95579146104c8578063861e3d3d146104e7575f80fd5b806332cadf3c146103ac578063342db739146103c057806338d52e0f146103e55780633950935114610417578063402d267d14610436575f80fd5b806318160ddd1161021157806318160ddd1461030c57806323b872dd146103205780632904df291461033f578063313ce5671461036557806332bc74aa1461038b575f80fd5b806301e1d1141461025757806306fdde031461027e57806307a2d13a1461029f578063095ea7b3146102be5780630a28a477146102ed575f80fd5b3661025357005b5f80fd5b348015610262575f80fd5b5061026b61073b565b6040519081526020015b60405180910390f35b348015610289575f80fd5b506102926107c8565b60405161027591906113f3565b3480156102aa575f80fd5b5061026b6102b9366004611405565b610858565b3480156102c9575f80fd5b506102dd6102d8366004611437565b610869565b6040519015158152602001610275565b3480156102f8575f80fd5b5061026b610307366004611405565b610880565b348015610317575f80fd5b5060025461026b565b34801561032b575f80fd5b506102dd61033a36600461145f565b61088c565b34801561034a575f80fd5b50335b6040516001600160a01b039091168152602001610275565b348015610370575f80fd5b506103796108b1565b60405160ff9091168152602001610275565b348015610396575f80fd5b506103aa6103a53660046114a8565b6108dc565b005b3480156103b7575f80fd5b506102926108ee565b3480156103cb575f80fd5b5061026b6e1a185c991a185d0b595e1c1bdcd959608a1b81565b3480156103f0575f80fd5b507f000000000000000000000000000000000000000000000000000000000000000061034d565b348015610422575f80fd5b506102dd610431366004611437565b61092b565b348015610441575f80fd5b5061026b6104503660046114f4565b505f1990565b348015610461575f80fd5b506103aa61047036600461145f565b61094c565b348015610480575f80fd5b5061026b61048f36600461150d565b61095c565b34801561049f575f80fd5b5061026b6104ae3660046114f4565b6001600160a01b03165f9081526020819052604090205490565b3480156104d3575f80fd5b506103aa6104e2366004611537565b61098d565b3480156104f2575f80fd5b506103aa61050136600461145f565b6109a1565b348015610511575f80fd5b5061026b610520366004611588565b6109ac565b348015610530575f80fd5b5061026b61053f36600461150d565b6109b7565b34801561054f575f80fd5b506102926109d2565b348015610563575f80fd5b506103aa6105723660046115b9565b6109e1565b348015610582575f80fd5b506102dd610591366004611437565b6109ed565b3480156105a1575f80fd5b506102dd6105b0366004611437565b610a3b565b3480156105c0575f80fd5b506103aa6105cf36600461145f565b610a48565b3480156105df575f80fd5b5061026b6105ee366004611405565b610a53565b3480156105fe575f80fd5b5061026b61060d3660046115f8565b610a5f565b34801561061d575f80fd5b5061026b61062c3660046115f8565b610ab5565b34801561063c575f80fd5b5061026b61064b366004611405565b610b02565b34801561065b575f80fd5b5061026b61066a366004611588565b610b0d565b34801561067a575f80fd5b506103aa610689366004611437565b610b18565b348015610699575f80fd5b5061026b6106a83660046114f4565b610b26565b3480156106b8575f80fd5b5061026b6106c73660046114f4565b610b48565b3480156106d7575f80fd5b5061026b6106e6366004611631565b610b65565b3480156106f6575f80fd5b506103aa610705366004611437565b610b8f565b348015610715575f80fd5b505f610379565b348015610727575f80fd5b506103aa61073636600461145f565b610b99565b6040516370a0823160e01b81523060048201525f907f00000000000000000000000000000000000000000000000000000000000000006001600160a01b0316906370a0823190602401602060405180830381865afa15801561079f573d5f803e3d5ffd5b505050506040513d601f19601f820116820180604052508101906107c39190611659565b905090565b6060600380546107d790611670565b80601f016020809104026020016040519081016040528092919081815260200182805461080390611670565b801561084e5780601f106108255761010080835404028352916020019161084e565b820191905f5260205f20905b81548152906001019060200180831161083157829003601f168201915b5050505050905090565b5f610863825f610ba4565b92915050565b5f33610876818585610bdc565b5060019392505050565b5f610863826001610be9565b5f33610899858285610c18565b6108a4858585610c62565b60019150505b9392505050565b5f6107c3817f00000000000000000000000000000000000000000000000000000000000000006116bc565b6108e884848484610cb4565b50505050565b60605f368080601f0160208091040260200160405190810160405280939291908181526020018383808284375f9201919091525092949350505050565b5f3361087681858561093d8383610b65565b61094791906116d5565b610bdc565b610957838383610d86565b505050565b5f5f1961096d565b60405180910390fd5b5f61097785610b02565b905061098533858784610e99565b949350505050565b61099a8585858585610f1d565b5050505050565b610957838383610bdc565b5f6108aa8383610be9565b5f5f195f6109c485610a53565b905061098533858388610e99565b6060600480546107d790611670565b6108e884848484610e99565b5f33816109fa8286610b65565b905083811015610a2357848185604051632983c0c360e21b8152600401610964939291906116e8565b610a308286868403610bdc565b506001949350505050565b5f33610876818585610c62565b610957838383610c18565b5f610863826001610ba4565b5f80610a6a83610b26565b905080851115610a9357828582604051633fa733bb60e21b8152600401610964939291906116e8565b5f610a9d86610880565b9050610aac3386868985610f1d565b95945050505050565b5f80610ac083610b48565b905080851115610ae957828582604051632e52afbb60e21b8152600401610964939291906116e8565b5f610af386610858565b9050610aac338686848a610f1d565b5f610863825f610be9565b5f6108aa8383610ba4565b610b228282610fdd565b5050565b6001600160a01b0381165f90815260208190526040812054610863905f610ba4565b6001600160a01b0381165f90815260208190526040812054610863565b6001600160a01b039182165f90815260016020908152604080832093909416825291909152205490565b610b228282611011565b610957838383610c62565b5f6108aa610bb061073b565b610bbb9060016116d5565b610bc65f600a6117e9565b600254610bd391906116d5565b85919085611045565b6109578383836001610cb4565b5f6108aa610bf882600a6117e9565b600254610c0591906116d5565b610c0d61073b565b610bd39060016116d5565b5f610c238484610b65565b90505f1981146108e85781811015610c5457828183604051637dc7a0d960e11b8152600401610964939291906116e8565b6108e884848484035f610cb4565b6001600160a01b038316610c8b57604051634b637e8f60e11b81525f6004820152602401610964565b6001600160a01b03821661094c5760405163ec442f0560e01b81525f6004820152602401610964565b6001600160a01b038416610cdd5760405163e602df0560e01b81525f6004820152602401610964565b6001600160a01b038316610d0657604051634a1406b160e11b81525f6004820152602401610964565b6001600160a01b038085165f90815260016020908152604080832093871683529290522082905580156108e857826001600160a01b0316846001600160a01b03167f8c5be1e5ebec7d5bd14f71427d1e84f3dd0314c0f7b2291e5b200ac8c7c3b92584604051610d7891815260200190565b60405180910390a350505050565b6001600160a01b038316610db0578060025f828254610da591906116d5565b90915550610e0d9050565b6001600160a01b0383165f9081526020819052604090205481811015610def5783818360405163391434e360e21b8152600401610964939291906116e8565b6001600160a01b0384165f9081526020819052604090209082900390555b6001600160a01b038216610e2957600280548290039055610e47565b6001600160a01b0382165f9081526020819052604090208054820190555b816001600160a01b0316836001600160a01b03167fddf252ad1be2c89b69c2b068fc378daa952ba7f163c4a11628f55a4df523b3ef83604051610e8c91815260200190565b60405180910390a3505050565b610ec57f0000000000000000000000000000000000000000000000000000000000000000853085611092565b610ecf8382610fdd565b826001600160a01b0316846001600160a01b03167fdcbc1c05240f31ff3ad067ef1ee35ce4997762752e3a095284754544f4c709d78484604051610d78929190918252602082015260400190565b826001600160a01b0316856001600160a01b031614610f4157610f41838683610c18565b610f4b8382611011565b610f767f000000000000000000000000000000000000000000000000000000000000000085846110f9565b826001600160a01b0316846001600160a01b0316866001600160a01b03167ffbde797d201c681b91056529119e0b02407c7bb96a4a2c75c01fc9667232c8db8585604051610fce929190918252602082015260400190565b60405180910390a45050505050565b6001600160a01b0382166110065760405163ec442f0560e01b81525f6004820152602401610964565b610b225f8383610d86565b6001600160a01b03821661103a57604051634b637e8f60e11b81525f6004820152602401610964565b610b22825f83610d86565b5f8061105286868661112a565b905061105d836111e8565b801561107857505f8480611073576110736117f7565b868809115b15610aac576110886001826116d5565b9695505050505050565b6040516001600160a01b0384811660248301528381166044830152606482018390526108e89186918216906323b872dd906084015b604051602081830303815290604052915060e01b6020820180516001600160e01b038381831617835250505050611214565b6040516001600160a01b0383811660248301526044820183905261095791859182169063a9059cbb906064016110c7565b5f80805f19858709858702925082811083820303915050805f0361116157838281611157576111576117f7565b04925050506108aa565b8084116111815760405163227bc15360e01b815260040160405180910390fd5b5f8486880960026001871981018816978890046003810283188082028403028082028403028082028403028082028403028082028403029081029092039091025f889003889004909101858311909403939093029303949094049190911702949350505050565b5f60028260038111156111fd576111fd61180b565b611207919061181f565b60ff166001149050919050565b5f6112286001600160a01b03841683611275565b905080515f1415801561124c57508080602001905181019061124a919061184c565b155b1561095757604051635274afe760e01b81526001600160a01b0384166004820152602401610964565b60606108aa83835f61128561129e565b604051630a12f52160e11b815260040160405180910390fd5b6060824710156112c35760405163cd78605960e01b8152306004820152602401610964565b5f80866001600160a01b031685876040516112de9190611867565b5f6040518083038185875af1925050503d805f8114611318576040519150601f19603f3d011682016040523d82523d5f602084013e61131d565b606091505b509150915061132e87838387611339565b979650505050505050565b606083156113855782515f0361137e57846001600160a01b03163b5f0361137e57604051639996b31560e01b81526001600160a01b0386166004820152602401610964565b5081610985565b610985838381511561139a5781518083602001fd5b6112858163ffffffff16565b5f5b838110156113c05781810151838201526020016113a8565b50505f910152565b5f81518084526113df8160208601602086016113a6565b601f01601f19169290920160200192915050565b602081525f6108aa60208301846113c8565b5f60208284031215611415575f80fd5b5035919050565b80356001600160a01b0381168114611432575f80fd5b919050565b5f8060408385031215611448575f80fd5b6114518361141c565b946020939093013593505050565b5f805f60608486031215611471575f80fd5b61147a8461141c565b92506114886020850161141c565b9150604084013590509250925092565b80151581146114a5575f80fd5b50565b5f805f80608085870312156114bb575f80fd5b6114c48561141c565b93506114d26020860161141c565b92506040850135915060608501356114e981611498565b939692955090935050565b5f60208284031215611504575f80fd5b6108aa8261141c565b5f806040838503121561151e575f80fd5b8235915061152e6020840161141c565b90509250929050565b5f805f805f60a0868803121561154b575f80fd5b6115548661141c565b94506115626020870161141c565b93506115706040870161141c565b94979396509394606081013594506080013592915050565b5f8060408385031215611599575f80fd5b823591506020830135600481106115ae575f80fd5b809150509250929050565b5f805f80608085870312156115cc575f80fd5b6115d58561141c565b93506115e36020860161141c565b93969395505050506040820135916060013590565b5f805f6060848603121561160a575f80fd5b8335925061161a6020850161141c565b91506116286040850161141c565b90509250925092565b5f8060408385031215611642575f80fd5b61164b8361141c565b915061152e6020840161141c565b5f60208284031215611669575f80fd5b5051919050565b600181811c9082168061168457607f821691505b6020821081036116a257634e487b7160e01b5f52602260045260245ffd5b50919050565b634e487b7160e01b5f52601160045260245ffd5b60ff8181168382160190811115610863576108636116a8565b80820180821115610863576108636116a8565b6001600160a01b039390931683526020830191909152604082015260600190565b600181815b8085111561174357815f1904821115611729576117296116a8565b8085161561173657918102915b93841c939080029061170e565b509250929050565b5f8261175957506001610863565b8161176557505f610863565b816001811461177b5760028114611785576117a1565b6001915050610863565b60ff841115611796576117966116a8565b50506001821b610863565b5060208310610133831016604e8410600b84101617156117c4575081810a610863565b6117ce8383611709565b805f19048211156117e1576117e16116a8565b029392505050565b5f6108aa60ff84168361174b565b634e487b7160e01b5f52601260045260245ffd5b634e487b7160e01b5f52602160045260245ffd5b5f60ff83168061183d57634e487b7160e01b5f52601260045260245ffd5b8060ff84160691505092915050565b5f6020828403121561185c575f80fd5b81516108aa81611498565b5f82516118788184602087016113a6565b919091019291505056fea2646970667358221220c48fc082f30ce8c61ed3d0120bda87c3c8b904f24bc18bf0ada9c9ae20aad78c64736f6c63430008140033",
  "linkReferences": {},
  "deployedLinkReferences": {}
}