{
  "_format": "hh-sol-artifact-1",
  "contractName": "$ERC721VotesTimestampMock",
  "sourceName": "contracts-exposed/mocks/token/VotesTimestamp.sol",
  "abi": [
    {
      "inputs": [
        {
          "internalType": "string",
          "name": "name_",
          "type": "string"
        },
        {
          "internalType": "string",
          "name": "symbol_",
          "type": "string"
        },
        {
          "internalType": "string",
          "name": "name",
          "type": "string"
        },
        {
          "internalType": "string",
          "name": "version",
          "type": "string"
        }
      ],
      "stateMutability": "payable",
      "type": "constructor"
    },
    {
      "inputs": [],
      "name": "CheckpointUnorderedInsertion",
      "type": "error"
    },
    {
      "inputs": [],
      "name": "ECDSAInvalidSignature",
      "type": "error"
    },
    {
      "inputs": [
        {
          "internalType": "uint256",
          "name": "length",
          "type": "uint256"
        }
      ],
      "name": "ECDSAInvalidSignatureLength",
      "type": "error"
    },
    {
      "inputs": [
        {
          "internalType": "bytes32",
          "name": "s",
          "type": "bytes32"
        }
      ],
      "name": "ECDSAInvalidSignatureS",
      "type": "error"
    },
    {
      "inputs": [
        {
          "internalType": "uint256",
          "name": "timepoint",
          "type": "uint256"
        },
        {
          "internalType": "uint48",
          "name": "clock",
          "type": "uint48"
        }
      ],
      "name": "ERC5805FutureLookup",
      "type": "error"
    },
    {
      "inputs": [],
      "name": "ERC6372InconsistentClock",
      "type": "error"
    },
    {
      "inputs": [
        {
          "internalType": "address",
          "name": "sender",
          "type": "address"
        },
        {
          "internalType": "uint256",
          "name": "tokenId",
          "type": "uint256"
        },
        {
          "internalType": "address",
          "name": "owner",
          "type": "address"
        }
      ],
      "name": "ERC721IncorrectOwner",
      "type": "error"
    },
    {
      "inputs": [
        {
          "internalType": "address",
          "name": "operator",
          "type": "address"
        },
        {
          "internalType": "uint256",
          "name": "tokenId",
          "type": "uint256"
        }
      ],
      "name": "ERC721InsufficientApproval",
      "type": "error"
    },
    {
      "inputs": [
        {
          "internalType": "address",
          "name": "approver",
          "type": "address"
        }
      ],
      "name": "ERC721InvalidApprover",
      "type": "error"
    },
    {
      "inputs": [
        {
          "internalType": "address",
          "name": "operator",
          "type": "address"
        }
      ],
      "name": "ERC721InvalidOperator",
      "type": "error"
    },
    {
      "inputs": [
        {
          "internalType": "address",
          "name": "owner",
          "type": "address"
        }
      ],
      "name": "ERC721InvalidOwner",
      "type": "error"
    },
    {
      "inputs": [
        {
          "internalType": "address",
          "name": "receiver",
          "type": "address"
        }
      ],
      "name": "ERC721InvalidReceiver",
      "type": "error"
    },
    {
      "inputs": [
        {
          "internalType": "address",
          "name": "sender",
          "type": "address"
        }
      ],
      "name": "ERC721InvalidSender",
      "type": "error"
    },
    {
      "inputs": [
        {
          "internalType": "uint256",
          "name": "tokenId",
          "type": "uint256"
        }
      ],
      "name": "ERC721NonexistentToken",
      "type": "error"
    },
    {
      "inputs": [
        {
          "internalType": "address",
          "name": "account",
          "type": "address"
        },
        {
          "internalType": "uint256",
          "name": "currentNonce",
          "type": "uint256"
        }
      ],
      "name": "InvalidAccountNonce",
      "type": "error"
    },
    {
      "inputs": [],
      "name": "InvalidShortString",
      "type": "error"
    },
    {
      "inputs": [
        {
          "internalType": "uint8",
          "name": "bits",
          "type": "uint8"
        },
        {
          "internalType": "uint256",
          "name": "value",
          "type": "uint256"
        }
      ],
      "name": "SafeCastOverflowedUintDowncast",
      "type": "error"
    },
    {
      "inputs": [
        {
          "internalType": "string",
          "name": "str",
          "type": "string"
        }
      ],
      "name": "StringTooLong",
      "type": "error"
    },
    {
      "inputs": [
        {
          "internalType": "uint256",
          "name": "expiry",
          "type": "uint256"
        }
      ],
      "name": "VotesExpiredSignature",
      "type": "error"
    },
    {
      "anonymous": false,
      "inputs": [
        {
          "indexed": true,
          "internalType": "address",
          "name": "owner",
          "type": "address"
        },
        {
          "indexed": true,
          "internalType": "address",
          "name": "approved",
          "type": "address"
        },
        {
          "indexed": true,
          "internalType": "uint256",
          "name": "tokenId",
          "type": "uint256"
        }
      ],
      "name": "Approval",
      "type": "event"
    },
    {
      "anonymous": false,
      "inputs": [
        {
          "indexed": true,
          "internalType": "address",
          "name": "owner",
          "type": "address"
        },
        {
          "indexed": true,
          "internalType": "address",
          "name": "operator",
          "type": "address"
        },
        {
          "indexed": false,
          "internalType": "bool",
          "name": "approved",
          "type": "bool"
        }
      ],
      "name": "ApprovalForAll",
      "type": "event"
    },
    {
      "anonymous": false,
      "inputs": [
        {
          "indexed": true,
          "internalType": "address",
          "name": "delegator",
          "type": "address"
        },
        {
          "indexed": true,
          "internalType": "address",
          "name": "fromDelegate",
          "type": "address"
        },
        {
          "indexed": true,
          "internalType": "address",
          "name": "toDelegate",
          "type": "address"
        }
      ],
      "name": "DelegateChanged",
      "type": "event"
    },
    {
      "anonymous": false,
      "inputs": [
        {
          "indexed": true,
          "internalType": "address",
          "name": "delegate",
          "type": "address"
        },
        {
          "indexed": false,
          "internalType": "uint256",
          "name": "previousVotes",
          "type": "uint256"
        },
        {
          "indexed": false,
          "internalType": "uint256",
          "name": "newVotes",
          "type": "uint256"
        }
      ],
      "name": "DelegateVotesChanged",
      "type": "event"
    },
    {
      "anonymous": false,
      "inputs": [],
      "name": "EIP712DomainChanged",
      "type": "event"
    },
    {
      "anonymous": false,
      "inputs": [
        {
          "indexed": true,
          "internalType": "address",
          "name": "from",
          "type": "address"
        },
        {
          "indexed": true,
          "internalType": "address",
          "name": "to",
          "type": "address"
        },
        {
          "indexed": true,
          "internalType": "uint256",
          "name": "tokenId",
          "type": "uint256"
        }
      ],
      "name": "Transfer",
      "type": "event"
    },
    {
      "anonymous": false,
      "inputs": [
        {
          "indexed": false,
          "internalType": "uint256",
          "name": "ret0",
          "type": "uint256"
        }
      ],
      "name": "return$_useCheckedNonce",
      "type": "event"
    },
    {
      "anonymous": false,
      "inputs": [
        {
          "indexed": false,
          "internalType": "uint256",
          "name": "ret0",
          "type": "uint256"
        }
      ],
      "name": "return$_useNonce",
      "type": "event"
    },
    {
      "inputs": [],
      "name": "$_EIP712Name",
      "outputs": [
        {
          "internalType": "string",
          "name": "ret0",
          "type": "string"
        }
      ],
      "stateMutability": "view",
      "type": "function"
    },
    {
      "inputs": [],
      "name": "$_EIP712Version",
      "outputs": [
        {
          "internalType": "string",
          "name": "ret0",
          "type": "string"
        }
      ],
      "stateMutability": "view",
      "type": "function"
    },
    {
      "inputs": [
        {
          "internalType": "address",
          "name": "account",
          "type": "address"
        },
        {
          "internalType": "uint256",
          "name": "value",
          "type": "uint256"
        }
      ],
      "name": "$__unsafe_increaseBalance",
      "outputs": [],
      "stateMutability": "nonpayable",
      "type": "function"
    },
    {
      "inputs": [
        {
          "internalType": "address",
          "name": "from",
          "type": "address"
        },
        {
          "internalType": "address",
          "name": "to",
          "type": "address"
        },
        {
          "internalType": "uint256",
          "name": "firstTokenId",
          "type": "uint256"
        },
        {
          "internalType": "uint256",
          "name": "batchSize",
          "type": "uint256"
        }
      ],
      "name": "$_afterTokenTransfer",
      "outputs": [],
      "stateMutability": "nonpayable",
      "type": "function"
    },
    {
      "inputs": [
        {
          "internalType": "address",
          "name": "to",
          "type": "address"
        },
        {
          "internalType": "uint256",
          "name": "tokenId",
          "type": "uint256"
        }
      ],
      "name": "$_approve",
      "outputs": [],
      "stateMutability": "nonpayable",
      "type": "function"
    },
    {
      "inputs": [],
      "name": "$_baseURI",
      "outputs": [
        {
          "internalType": "string",
          "name": "ret0",
          "type": "string"
        }
      ],
      "stateMutability": "view",
      "type": "function"
    },
    {
      "inputs": [
        {
          "internalType": "address",
          "name": "from",
          "type": "address"
        },
        {
          "internalType": "address",
          "name": "to",
          "type": "address"
        },
        {
          "internalType": "uint256",
          "name": "firstTokenId",
          "type": "uint256"
        },
        {
          "internalType": "uint256",
          "name": "batchSize",
          "type": "uint256"
        }
      ],
      "name": "$_beforeTokenTransfer",
      "outputs": [],
      "stateMutability": "nonpayable",
      "type": "function"
    },
    {
      "inputs": [
        {
          "internalType": "uint256",
          "name": "tokenId",
          "type": "uint256"
        }
      ],
      "name": "$_burn",
      "outputs": [],
      "stateMutability": "nonpayable",
      "type": "function"
    },
    {
      "inputs": [
        {
          "internalType": "address",
          "name": "account",
          "type": "address"
        },
        {
          "internalType": "uint32",
          "name": "pos",
          "type": "uint32"
        }
      ],
      "name": "$_checkpoints",
      "outputs": [
        {
          "components": [
            {
              "internalType": "uint32",
              "name": "_key",
              "type": "uint32"
            },
            {
              "internalType": "uint224",
              "name": "_value",
              "type": "uint224"
            }
          ],
          "internalType": "struct Checkpoints.Checkpoint224",
          "name": "ret0",
          "type": "tuple"
        }
      ],
      "stateMutability": "view",
      "type": "function"
    },
    {
      "inputs": [
        {
          "internalType": "address",
          "name": "account",
          "type": "address"
        },
        {
          "internalType": "address",
          "name": "delegatee",
          "type": "address"
        }
      ],
      "name": "$_delegate",
      "outputs": [],
      "stateMutability": "nonpayable",
      "type": "function"
    },
    {
      "inputs": [],
      "name": "$_domainSeparatorV4",
      "outputs": [
        {
          "internalType": "bytes32",
          "name": "ret0",
          "type": "bytes32"
        }
      ],
      "stateMutability": "view",
      "type": "function"
    },
    {
      "inputs": [
        {
          "internalType": "uint256",
          "name": "tokenId",
          "type": "uint256"
        }
      ],
      "name": "$_exists",
      "outputs": [
        {
          "internalType": "bool",
          "name": "ret0",
          "type": "bool"
        }
      ],
      "stateMutability": "view",
      "type": "function"
    },
    {
      "inputs": [],
      "name": "$_getTotalSupply",
      "outputs": [
        {
          "internalType": "uint256",
          "name": "ret0",
          "type": "uint256"
        }
      ],
      "stateMutability": "view",
      "type": "function"
    },
    {
      "inputs": [
        {
          "internalType": "address",
          "name": "account",
          "type": "address"
        }
      ],
      "name": "$_getVotingUnits",
      "outputs": [
        {
          "internalType": "uint256",
          "name": "ret0",
          "type": "uint256"
        }
      ],
      "stateMutability": "view",
      "type": "function"
    },
    {
      "inputs": [
        {
          "internalType": "bytes32",
          "name": "structHash",
          "type": "bytes32"
        }
      ],
      "name": "$_hashTypedDataV4",
      "outputs": [
        {
          "internalType": "bytes32",
          "name": "ret0",
          "type": "bytes32"
        }
      ],
      "stateMutability": "view",
      "type": "function"
    },
    {
      "inputs": [
        {
          "internalType": "address",
          "name": "spender",
          "type": "address"
        },
        {
          "internalType": "uint256",
          "name": "tokenId",
          "type": "uint256"
        }
      ],
      "name": "$_isApprovedOrOwner",
      "outputs": [
        {
          "internalType": "bool",
          "name": "ret0",
          "type": "bool"
        }
      ],
      "stateMutability": "view",
      "type": "function"
    },
    {
      "inputs": [
        {
          "internalType": "address",
          "name": "to",
          "type": "address"
        },
        {
          "internalType": "uint256",
          "name": "tokenId",
          "type": "uint256"
        }
      ],
      "name": "$_mint",
      "outputs": [],
      "stateMutability": "nonpayable",
      "type": "function"
    },
    {
      "inputs": [],
      "name": "$_msgData",
      "outputs": [
        {
          "internalType": "bytes",
          "name": "ret0",
          "type": "bytes"
        }
      ],
      "stateMutability": "view",
      "type": "function"
    },
    {
      "inputs": [],
      "name": "$_msgSender",
      "outputs": [
        {
          "internalType": "address",
          "name": "ret0",
          "type": "address"
        }
      ],
      "stateMutability": "view",
      "type": "function"
    },
    {
      "inputs": [
        {
          "internalType": "address",
          "name": "account",
          "type": "address"
        }
      ],
      "name": "$_numCheckpoints",
      "outputs": [
        {
          "internalType": "uint32",
          "name": "ret0",
          "type": "uint32"
        }
      ],
      "stateMutability": "view",
      "type": "function"
    },
    {
      "inputs": [
        {
          "internalType": "uint256",
          "name": "tokenId",
          "type": "uint256"
        }
      ],
      "name": "$_ownerOf",
      "outputs": [
        {
          "internalType": "address",
          "name": "ret0",
          "type": "address"
        }
      ],
      "stateMutability": "view",
      "type": "function"
    },
    {
      "inputs": [
        {
          "internalType": "uint256",
          "name": "tokenId",
          "type": "uint256"
        }
      ],
      "name": "$_requireMinted",
      "outputs": [],
      "stateMutability": "view",
      "type": "function"
    },
    {
      "inputs": [
        {
          "internalType": "address",
          "name": "to",
          "type": "address"
        },
        {
          "internalType": "uint256",
          "name": "tokenId",
          "type": "uint256"
        },
        {
          "internalType": "bytes",
          "name": "data",
          "type": "bytes"
        }
      ],
      "name": "$_safeMint",
      "outputs": [],
      "stateMutability": "nonpayable",
      "type": "function"
    },
    {
      "inputs": [
        {
          "internalType": "address",
          "name": "to",
          "type": "address"
        },
        {
          "internalType": "uint256",
          "name": "tokenId",
          "type": "uint256"
        }
      ],
      "name": "$_safeMint",
      "outputs": [],
      "stateMutability": "nonpayable",
      "type": "function"
    },
    {
      "inputs": [
        {
          "internalType": "address",
          "name": "from",
          "type": "address"
        },
        {
          "internalType": "address",
          "name": "to",
          "type": "address"
        },
        {
          "internalType": "uint256",
          "name": "tokenId",
          "type": "uint256"
        },
        {
          "internalType": "bytes",
          "name": "data",
          "type": "bytes"
        }
      ],
      "name": "$_safeTransfer",
      "outputs": [],
      "stateMutability": "nonpayable",
      "type": "function"
    },
    {
      "inputs": [
        {
          "internalType": "address",
          "name": "owner",
          "type": "address"
        },
        {
          "internalType": "address",
          "name": "operator",
          "type": "address"
        },
        {
          "internalType": "bool",
          "name": "approved",
          "type": "bool"
        }
      ],
      "name": "$_setApprovalForAll",
      "outputs": [],
      "stateMutability": "nonpayable",
      "type": "function"
    },
    {
      "inputs": [
        {
          "internalType": "address",
          "name": "from",
          "type": "address"
        },
        {
          "internalType": "address",
          "name": "to",
          "type": "address"
        },
        {
          "internalType": "uint256",
          "name": "tokenId",
          "type": "uint256"
        }
      ],
      "name": "$_transfer",
      "outputs": [],
      "stateMutability": "nonpayable",
      "type": "function"
    },
    {
      "inputs": [
        {
          "internalType": "address",
          "name": "from",
          "type": "address"
        },
        {
          "internalType": "address",
          "name": "to",
          "type": "address"
        },
        {
          "internalType": "uint256",
          "name": "amount",
          "type": "uint256"
        }
      ],
      "name": "$_transferVotingUnits",
      "outputs": [],
      "stateMutability": "nonpayable",
      "type": "function"
    },
    {
      "inputs": [
        {
          "internalType": "address",
          "name": "owner",
          "type": "address"
        },
        {
          "internalType": "uint256",
          "name": "nonce",
          "type": "uint256"
        }
      ],
      "name": "$_useCheckedNonce",
      "outputs": [
        {
          "internalType": "uint256",
          "name": "ret0",
          "type": "uint256"
        }
      ],
      "stateMutability": "nonpayable",
      "type": "function"
    },
    {
      "inputs": [
        {
          "internalType": "address",
          "name": "owner",
          "type": "address"
        }
      ],
      "name": "$_useNonce",
      "outputs": [
        {
          "internalType": "uint256",
          "name": "ret0",
          "type": "uint256"
        }
      ],
      "stateMutability": "nonpayable",
      "type": "function"
    },
    {
      "inputs": [],
      "name": "CLOCK_MODE",
      "outputs": [
        {
          "internalType": "string",
          "name": "",
          "type": "string"
        }
      ],
      "stateMutability": "view",
      "type": "function"
    },
    {
      "inputs": [],
      "name": "__hh_exposed_bytecode_marker",
      "outputs": [
        {
          "internalType": "bytes32",
          "name": "",
          "type": "bytes32"
        }
      ],
      "stateMutability": "view",
      "type": "function"
    },
    {
      "inputs": [
        {
          "internalType": "address",
          "name": "to",
          "type": "address"
        },
        {
          "internalType": "uint256",
          "name": "tokenId",
          "type": "uint256"
        }
      ],
      "name": "approve",
      "outputs": [],
      "stateMutability": "nonpayable",
      "type": "function"
    },
    {
      "inputs": [
        {
          "internalType": "address",
          "name": "owner",
          "type": "address"
        }
      ],
      "name": "balanceOf",
      "outputs": [
        {
          "internalType": "uint256",
          "name": "",
          "type": "uint256"
        }
      ],
      "stateMutability": "view",
      "type": "function"
    },
    {
      "inputs": [],
      "name": "clock",
      "outputs": [
        {
          "internalType": "uint48",
          "name": "",
          "type": "uint48"
        }
      ],
      "stateMutability": "view",
      "type": "function"
    },
    {
      "inputs": [
        {
          "internalType": "address",
          "name": "delegatee",
          "type": "address"
        }
      ],
      "name": "delegate",
      "outputs": [],
      "stateMutability": "nonpayable",
      "type": "function"
    },
    {
      "inputs": [
        {
          "internalType": "address",
          "name": "delegatee",
          "type": "address"
        },
        {
          "internalType": "uint256",
          "name": "nonce",
          "type": "uint256"
        },
        {
          "internalType": "uint256",
          "name": "expiry",
          "type": "uint256"
        },
        {
          "internalType": "uint8",
          "name": "v",
          "type": "uint8"
        },
        {
          "internalType": "bytes32",
          "name": "r",
          "type": "bytes32"
        },
        {
          "internalType": "bytes32",
          "name": "s",
          "type": "bytes32"
        }
      ],
      "name": "delegateBySig",
      "outputs": [],
      "stateMutability": "nonpayable",
      "type": "function"
    },
    {
      "inputs": [
        {
          "internalType": "address",
          "name": "account",
          "type": "address"
        }
      ],
      "name": "delegates",
      "outputs": [
        {
          "internalType": "address",
          "name": "",
          "type": "address"
        }
      ],
      "stateMutability": "view",
      "type": "function"
    },
    {
      "inputs": [],
      "name": "eip712Domain",
      "outputs": [
        {
          "internalType": "bytes1",
          "name": "fields",
          "type": "bytes1"
        },
        {
          "internalType": "string",
          "name": "name",
          "type": "string"
        },
        {
          "internalType": "string",
          "name": "version",
          "type": "string"
        },
        {
          "internalType": "uint256",
          "name": "chainId",
          "type": "uint256"
        },
        {
          "internalType": "address",
          "name": "verifyingContract",
          "type": "address"
        },
        {
          "internalType": "bytes32",
          "name": "salt",
          "type": "bytes32"
        },
        {
          "internalType": "uint256[]",
          "name": "extensions",
          "type": "uint256[]"
        }
      ],
      "stateMutability": "view",
      "type": "function"
    },
    {
      "inputs": [
        {
          "internalType": "uint256",
          "name": "tokenId",
          "type": "uint256"
        }
      ],
      "name": "getApproved",
      "outputs": [
        {
          "internalType": "address",
          "name": "",
          "type": "address"
        }
      ],
      "stateMutability": "view",
      "type": "function"
    },
    {
      "inputs": [
        {
          "internalType": "uint256",
          "name": "timepoint",
          "type": "uint256"
        }
      ],
      "name": "getPastTotalSupply",
      "outputs": [
        {
          "internalType": "uint256",
          "name": "",
          "type": "uint256"
        }
      ],
      "stateMutability": "view",
      "type": "function"
    },
    {
      "inputs": [
        {
          "internalType": "address",
          "name": "account",
          "type": "address"
        },
        {
          "internalType": "uint256",
          "name": "timepoint",
          "type": "uint256"
        }
      ],
      "name": "getPastVotes",
      "outputs": [
        {
          "internalType": "uint256",
          "name": "",
          "type": "uint256"
        }
      ],
      "stateMutability": "view",
      "type": "function"
    },
    {
      "inputs": [
        {
          "internalType": "address",
          "name": "account",
          "type": "address"
        }
      ],
      "name": "getVotes",
      "outputs": [
        {
          "internalType": "uint256",
          "name": "",
          "type": "uint256"
        }
      ],
      "stateMutability": "view",
      "type": "function"
    },
    {
      "inputs": [
        {
          "internalType": "address",
          "name": "owner",
          "type": "address"
        },
        {
          "internalType": "address",
          "name": "operator",
          "type": "address"
        }
      ],
      "name": "isApprovedForAll",
      "outputs": [
        {
          "internalType": "bool",
          "name": "",
          "type": "bool"
        }
      ],
      "stateMutability": "view",
      "type": "function"
    },
    {
      "inputs": [],
      "name": "name",
      "outputs": [
        {
          "internalType": "string",
          "name": "",
          "type": "string"
        }
      ],
      "stateMutability": "view",
      "type": "function"
    },
    {
      "inputs": [
        {
          "internalType": "address",
          "name": "owner",
          "type": "address"
        }
      ],
      "name": "nonces",
      "outputs": [
        {
          "internalType": "uint256",
          "name": "",
          "type": "uint256"
        }
      ],
      "stateMutability": "view",
      "type": "function"
    },
    {
      "inputs": [
        {
          "internalType": "uint256",
          "name": "tokenId",
          "type": "uint256"
        }
      ],
      "name": "ownerOf",
      "outputs": [
        {
          "internalType": "address",
          "name": "",
          "type": "address"
        }
      ],
      "stateMutability": "view",
      "type": "function"
    },
    {
      "inputs": [
        {
          "internalType": "address",
          "name": "from",
          "type": "address"
        },
        {
          "internalType": "address",
          "name": "to",
          "type": "address"
        },
        {
          "internalType": "uint256",
          "name": "tokenId",
          "type": "uint256"
        }
      ],
      "name": "safeTransferFrom",
      "outputs": [],
      "stateMutability": "nonpayable",
      "type": "function"
    },
    {
      "inputs": [
        {
          "internalType": "address",
          "name": "from",
          "type": "address"
        },
        {
          "internalType": "address",
          "name": "to",
          "type": "address"
        },
        {
          "internalType": "uint256",
          "name": "tokenId",
          "type": "uint256"
        },
        {
          "internalType": "bytes",
          "name": "data",
          "type": "bytes"
        }
      ],
      "name": "safeTransferFrom",
      "outputs": [],
      "stateMutability": "nonpayable",
      "type": "function"
    },
    {
      "inputs": [
        {
          "internalType": "address",
          "name": "operator",
          "type": "address"
        },
        {
          "internalType": "bool",
          "name": "approved",
          "type": "bool"
        }
      ],
      "name": "setApprovalForAll",
      "outputs": [],
      "stateMutability": "nonpayable",
      "type": "function"
    },
    {
      "inputs": [
        {
          "internalType": "bytes4",
          "name": "interfaceId",
          "type": "bytes4"
        }
      ],
      "name": "supportsInterface",
      "outputs": [
        {
          "internalType": "bool",
          "name": "",
          "type": "bool"
        }
      ],
      "stateMutability": "view",
      "type": "function"
    },
    {
      "inputs": [],
      "name": "symbol",
      "outputs": [
        {
          "internalType": "string",
          "name": "",
          "type": "string"
        }
      ],
      "stateMutability": "view",
      "type": "function"
    },
    {
      "inputs": [
        {
          "internalType": "uint256",
          "name": "tokenId",
          "type": "uint256"
        }
      ],
      "name": "tokenURI",
      "outputs": [
        {
          "internalType": "string",
          "name": "",
          "type": "string"
        }
      ],
      "stateMutability": "view",
      "type": "function"
    },
    {
      "inputs": [
        {
          "internalType": "address",
          "name": "from",
          "type": "address"
        },
        {
          "internalType": "address",
          "name": "to",
          "type": "address"
        },
        {
          "internalType": "uint256",
          "name": "tokenId",
          "type": "uint256"
        }
      ],
      "name": "transferFrom",
      "outputs": [],
      "stateMutability": "nonpayable",
      "type": "function"
    },
    {
      "stateMutability": "payable",
      "type": "receive"
    }
  ],
  "bytecode": "0x6101606040526040516200342638038062003426833981016040819052620000279162000254565b818185855f62000038838262000392565b50600162000047828262000392565b5062000059915083905060066200010b565b610120526200006a8160076200010b565b61014052815160208084019190912060e052815190820120610100524660a052620000f760e05161010051604080517f8b73c3c69bb8fe3d512ecc4cf759cc79239f7b179b0ffacaa9a75d522b39400f60208201529081019290925260608201524660808201523060a08201525f9060c00160405160208183030381529060405280519060200120905090565b60805250503060c05250620004b292505050565b5f6020835110156200012a57620001228362000143565b90506200013d565b8162000137848262000392565b5060ff90505b92915050565b5f80829050601f8151111562000179578260405163305a27a960e01b81526004016200017091906200045a565b60405180910390fd5b805162000186826200048e565b179392505050565b634e487b7160e01b5f52604160045260245ffd5b5f5b83811015620001be578181015183820152602001620001a4565b50505f910152565b5f82601f830112620001d6575f80fd5b81516001600160401b0380821115620001f357620001f36200018e565b604051601f8301601f19908116603f011681019082821181831017156200021e576200021e6200018e565b8160405283815286602085880101111562000237575f80fd5b6200024a846020830160208901620001a2565b9695505050505050565b5f805f806080858703121562000268575f80fd5b84516001600160401b03808211156200027f575f80fd5b6200028d88838901620001c6565b95506020870151915080821115620002a3575f80fd5b620002b188838901620001c6565b94506040870151915080821115620002c7575f80fd5b620002d588838901620001c6565b93506060870151915080821115620002eb575f80fd5b50620002fa87828801620001c6565b91505092959194509250565b600181811c908216806200031b57607f821691505b6020821081036200033a57634e487b7160e01b5f52602260045260245ffd5b50919050565b601f8211156200038d575f81815260208120601f850160051c81016020861015620003685750805b601f850160051c820191505b81811015620003895782815560010162000374565b5050505b505050565b81516001600160401b03811115620003ae57620003ae6200018e565b620003c681620003bf845462000306565b8462000340565b602080601f831160018114620003fc575f8415620003e45750858301515b5f19600386901b1c1916600185901b17855562000389565b5f85815260208120601f198616915b828110156200042c578886015182559484019460019091019084016200040b565b50858210156200044a57878501515f19600388901b60f8161c191681555b5050505050600190811b01905550565b602081525f82518060208401526200047a816040850160208701620001a2565b601f01601f19169190910160400192915050565b805160208083015191908110156200033a575f1960209190910360031b1b16919050565b60805160a05160c05160e051610100516101205161014051612f22620005045f395f6113bc01525f61138f01525f61186b01525f61184301525f61179e01525f6117c801525f6117f20152612f225ff3fe608060405260043610610329575f3560e01c80636b4ac502116101a3578063b3068e41116100f2578063cd43f47d11610092578063d41ecac31161006d578063d41ecac3146109b0578063e07084c2146109e4578063e985e9c514610a03578063efb43b0714610a4a575f80fd5b8063cd43f47d14610953578063cfeea0d414610972578063d261af5414610991575f80fd5b8063c3cda520116100cd578063c3cda520146108d7578063c4a96fa6146108f6578063c87b56dd14610915578063cc461d6214610934575f80fd5b8063b3068e411461087a578063b88d4fde14610899578063c37add51146108b8575f80fd5b806391ddadf41161015d5780639ab24eb0116101385780639ab24eb0146107fe5780639ff2f02d1461081d578063a22cb4651461083c578063a2373a821461085b575f80fd5b806391ddadf4146107a057806395d89b41146107cb57806398a1f7a0146107df575f80fd5b80636b4ac502146106c957806370a08231146106e8578063733555ec146107075780637ecebe001461072657806384b0196e1461075a5780638e539e8c14610781575f80fd5b806332cadf3c11610279578063535de334116102195780635c19a95c116101f45780635c19a95c1461062e5780635f8d5e741461064d57806361f5b530146106615780636352211e146106aa575f80fd5b8063535de334146105c4578063587cde1e146105d85780635b28e1e81461060f575f80fd5b806342842e0e1161025457806342842e0e14610531578063458ee002146105505780634bf5d7e91461056f578063506a6f0c146105a5575f80fd5b806332cadf3c146104d9578063342db739146104ed5780633a46b1a814610512575f80fd5b80631164d13b116102e4578063174ccd82116102bf578063174ccd821461046757806323b872dd1461047b5780632904df291461049a5780632e8fbee5146104ac575f80fd5b80631164d13b1461041f578063147619da14610433578063161e977d14610453575f80fd5b8062cae2201461033457806301ffc9a71461035557806306fdde0314610389578063081812fc146103aa578063095ea7b3146103e157806309854d7214610400575f80fd5b3661033057005b5f80fd5b34801561033f575f80fd5b5061035361034e366004612832565b610a69565b005b348015610360575f80fd5b5061037461036f366004612878565b610a77565b60405190151581526020015b60405180910390f35b348015610394575f80fd5b5061039d610ac8565b60405161038091906128e0565b3480156103b5575f80fd5b506103c96103c43660046128f2565b610b57565b6040516001600160a01b039091168152602001610380565b3480156103ec575f80fd5b506103536103fb366004612909565b610b7c565b34801561040b575f80fd5b5061035361041a3660046128f2565b610c19565b34801561042a575f80fd5b5061039d610c25565b34801561043e575f80fd5b5061035361044d366004612931565b50505050565b34801561045e575f80fd5b5061039d610c34565b348015610472575f80fd5b5061039d610c4a565b348015610486575f80fd5b50610353610495366004612970565b610c54565b3480156104a5575f80fd5b50336103c9565b3480156104b7575f80fd5b506104cb6104c63660046129a9565b610c8f565b604051908152602001610380565b3480156104e4575f80fd5b5061039d610cef565b3480156104f8575f80fd5b506104cb6e1a185c991a185d0b595e1c1bdcd959608a1b81565b34801561051d575f80fd5b506104cb61052c366004612909565b610d2c565b34801561053c575f80fd5b5061035361054b366004612970565b610dab565b34801561055b575f80fd5b506103c961056a3660046128f2565b610dc5565b34801561057a575f80fd5b5060408051808201909152600e81526d06d6f64653d74696d657374616d760941b602082015261039d565b3480156105b0575f80fd5b506104cb6105bf3660046128f2565b610de1565b3480156105cf575f80fd5b506104cb610deb565b3480156105e3575f80fd5b506103c96105f23660046129a9565b6001600160a01b039081165f908152600960205260409020541690565b34801561061a575f80fd5b50610353610629366004612970565b610df4565b348015610639575f80fd5b506103536106483660046129a9565b610dff565b348015610658575f80fd5b506104cb610e0a565b34801561066c575f80fd5b5061068061067b3660046129c2565b610e13565b60408051825163ffffffff1681526020928301516001600160e01b03169281019290925201610380565b3480156106b5575f80fd5b506103c96106c43660046128f2565b610e37565b3480156106d4575f80fd5b506104cb6106e3366004612909565b610e6f565b3480156106f3575f80fd5b506104cb6107023660046129a9565b610ebb565b348015610712575f80fd5b50610353610721366004612a44565b610f00565b348015610731575f80fd5b506104cb6107403660046129a9565b6001600160a01b03165f9081526008602052604090205490565b348015610765575f80fd5b5061076e610f48565b6040516103809796959493929190612aae565b34801561078c575f80fd5b506104cb61079b3660046128f2565b610f8a565b3480156107ab575f80fd5b506107b4610ff3565b60405165ffffffffffff9091168152602001610380565b3480156107d6575f80fd5b5061039d610ffd565b3480156107ea575f80fd5b506103536107f9366004612909565b61100c565b348015610809575f80fd5b506104cb6108183660046129a9565b611016565b348015610828575f80fd5b50610353610837366004612b42565b611045565b348015610847575f80fd5b50610353610856366004612ba7565b611085565b348015610866575f80fd5b506103536108753660046128f2565b611090565b348015610885575f80fd5b506104cb6108943660046129a9565b611099565b3480156108a4575f80fd5b506103536108b3366004612be3565b6110a3565b3480156108c3575f80fd5b506103746108d23660046128f2565b6110df565b3480156108e2575f80fd5b506103536108f1366004612cb8565b6110fd565b348015610901575f80fd5b50610374610910366004612909565b6111ba565b348015610920575f80fd5b5061039d61092f3660046128f2565b6111c5565b34801561093f575f80fd5b5061035361094e366004612909565b611234565b34801561095e575f80fd5b5061035361096d366004612909565b61123e565b34801561097d575f80fd5b5061035361098c366004612d13565b611248565b34801561099c575f80fd5b506103536109ab366004612909565b611253565b3480156109bb575f80fd5b506109cf6109ca3660046129a9565b61125d565b60405163ffffffff9091168152602001610380565b3480156109ef575f80fd5b506103536109fe366004612931565b611267565b348015610a0e575f80fd5b50610374610a1d366004612832565b6001600160a01b039182165f90815260056020908152604080832093909416825291909152205460ff1690565b348015610a55575f80fd5b50610353610a64366004612970565b610c84565b610a738282611273565b5050565b5f6001600160e01b031982166380ac58cd60e01b1480610aa757506001600160e01b03198216635b5e139f60e01b145b80610ac257506301ffc9a760e01b6001600160e01b03198316145b92915050565b60605f8054610ad690612d53565b80601f0160208091040260200160405190810160405280929190818152602001828054610b0290612d53565b8015610b4d5780601f10610b2457610100808354040283529160200191610b4d565b820191905f5260205f20905b815481529060010190602001808311610b3057829003601f168201915b5050505050905090565b5f610b61826112e4565b505f908152600460205260409020546001600160a01b031690565b5f610b8682610e37565b9050806001600160a01b0316836001600160a01b031603610bca57604051630b61174360e31b81526001600160a01b03821660048201526024015b60405180910390fd5b336001600160a01b03821614801590610bea5750610be88133610a1d565b155b15610c0a5760405163a9fbf51f60e01b8152336004820152602401610bc1565b610c14838361131b565b505050565b610c22816112e4565b50565b6060610c2f611388565b905090565b6060610c2f60408051602081019091525f815290565b6060610c2f6113b5565b610c5e33826113e2565b610c845760405163177e802f60e01b815233600482015260248101829052604401610bc1565b610c1483838361145f565b6001600160a01b0381165f90815260086020526040812080546001810190915590507f8d5c13b1cd528a3e1895fdc833368c4e3af5391250c736a28e94c4fa59b3cee481604051610ce291815260200190565b60405180910390a1919050565b60605f368080601f0160208091040260200160405190810160405280939291908181526020018383808284375f9201919091525092949350505050565b5f80610d36610ff3565b90508065ffffffffffff168310610d7157604051637669fc0f60e11b81526004810184905265ffffffffffff82166024820152604401610bc1565b610d9a610d7d846115f1565b6001600160a01b0386165f908152600a6020526040902090611625565b6001600160e01b0316949350505050565b610c1483838360405180602001604052805f8152506110a3565b5f818152600260205260408120546001600160a01b0316610ac2565b5f610ac2826116d3565b5f610c2f6116ff565b610c14838383611718565b33610a738183611273565b5f610c2f611792565b604080518082019091525f8082526020820152610e3083836118bb565b9392505050565b5f818152600260205260408120546001600160a01b031680610ac257604051637e27328960e01b815260048101849052602401610bc1565b5f610e7a83836118ef565b90507f173c6dfbda204d89ae7b46789365591384ef0c959833564582f96cd15f445b9b81604051610ead91815260200190565b60405180910390a192915050565b5f6001600160a01b038216610ee5576040516322718ad960e21b81525f6004820152602401610bc1565b506001600160a01b03165f9081526003602052604090205490565b610f4185858585858080601f0160208091040260200160405190810160405280939291908181526020018383808284375f9201919091525061194192505050565b5050505050565b5f6060805f805f6060610f59611388565b610f616113b5565b604080515f80825260208201909252600f60f81b9b939a50919850469750309650945092509050565b5f80610f94610ff3565b90508065ffffffffffff168310610fcf57604051637669fc0f60e11b81526004810184905265ffffffffffff82166024820152604401610bc1565b610fe3610fdb846115f1565b600b90611625565b6001600160e01b03169392505050565b5f610c2f42611980565b606060018054610ad690612d53565b610a7382826119b2565b6001600160a01b0381165f908152600a60205260408120611036906119e2565b6001600160e01b031692915050565b61044d848484848080601f0160208091040260200160405190810160405280939291908181526020018383808284375f92019190915250611a1992505050565b610a73338383611a57565b610c2281611b00565b5f610ac282611bbe565b6110ad33836113e2565b6110d35760405163177e802f60e01b815233600482015260248101839052604401610bc1565b61044d84848484611941565b5f818152600260205260408120546001600160a01b03161515610ac2565b8342111561112157604051632341d78760e11b815260048101859052602401610bc1565b604080517fe48329057bfd03d55e49b547132e39cffd9c1820ad7b9d4c5307691425d15adf60208201526001600160a01b0388169181019190915260608101869052608081018590525f9061119a906111929060a001604051602081830303815290604052805190602001206116d3565b858585611bc8565b90506111a681876118ef565b506111b18188611273565b50505050505050565b5f610e3083836113e2565b60606111d0826112e4565b5f6111e560408051602081019091525f815290565b90505f8151116112035760405180602001604052805f815250610e30565b8061120d84611bf4565b60405160200161121e929190612d8b565b6040516020818303038152906040529392505050565b610a738282611c84565b610a73828261131b565b610c14838383611a57565b610a738282611d8e565b5f610ac282611da7565b61044d84848484611dc8565b6001600160a01b038281165f8181526009602052604080822080548686166001600160a01b0319821681179092559151919094169392849290917f3134e8a2e6d97e929a7e54011ea5485d7d196dd5f0ba4d4ef95803e8e3fc257f9190a4610c1481836112df86611bbe565b611dd3565b5f818152600260205260409020546001600160a01b0316610c2257604051637e27328960e01b815260048101829052602401610bc1565b5f81815260046020526040902080546001600160a01b0319166001600160a01b038416908117909155819061134f82610e37565b6001600160a01b03167f8c5be1e5ebec7d5bd14f71427d1e84f3dd0314c0f7b2291e5b200ac8c7c3b92560405160405180910390a45050565b6060610c2f7f00000000000000000000000000000000000000000000000000000000000000006006611f37565b6060610c2f7f00000000000000000000000000000000000000000000000000000000000000006007611f37565b5f806113ed83610e37565b9050806001600160a01b0316846001600160a01b0316148061143357506001600160a01b038082165f9081526005602090815260408083209388168352929052205460ff165b806114575750836001600160a01b031661144c84610b57565b6001600160a01b0316145b949350505050565b5f61146982610e37565b9050836001600160a01b0316816001600160a01b0316146114b7576040516364283d7b60e01b81526001600160a01b0380861660048301526024820184905282166044820152606401610bc1565b6001600160a01b0383166114e057604051633250574960e11b81525f6004820152602401610bc1565b6114e982610e37565b9050836001600160a01b0316816001600160a01b031614611537576040516364283d7b60e01b81526001600160a01b0380861660048301526024820184905282166044820152606401610bc1565b5f82815260046020908152604080832080546001600160a01b03191690556001600160a01b038716835260039091528120805460019290611579908490612dcd565b90915550506001600160a01b038084165f81815260036020908152604080832080546001019055868352600290915280822080546001600160a01b031916841790555185938816917fddf252ad1be2c89b69c2b068fc378daa952ba7f163c4a11628f55a4df523b3ef91a461044d8484846001611dc8565b5f63ffffffff821115611621576040516306dfcc6560e41b81526020600482015260248101839052604401610bc1565b5090565b81545f908181600581111561167f575f61163e84611fe0565b6116489085612dcd565b5f8881526020902090915081015463ffffffff908116908716101561166f5780915061167d565b61167a816001612de0565b92505b505b5f61168c878785856120c4565b905080156116c6576116b0876116a3600184612dcd565b5f91825260209091200190565b54600160201b90046001600160e01b03166116c8565b5f5b979650505050505050565b5f610ac26116df611792565b8360405161190160f01b8152600281019290925260228201526042902090565b5f61170a600b6119e2565b6001600160e01b0316905090565b6001600160a01b03831661173f5761173c600b61211f6117378461212a565b61215d565b50505b6001600160a01b0382166117615761175e600b6121a56117378461212a565b50505b6001600160a01b038381165f90815260096020526040808220548584168352912054610c1492918216911683611dd3565b5f306001600160a01b037f0000000000000000000000000000000000000000000000000000000000000000161480156117ea57507f000000000000000000000000000000000000000000000000000000000000000046145b1561181457507f000000000000000000000000000000000000000000000000000000000000000090565b610c2f604080517f8b73c3c69bb8fe3d512ecc4cf759cc79239f7b179b0ffacaa9a75d522b39400f60208201527f0000000000000000000000000000000000000000000000000000000000000000918101919091527f000000000000000000000000000000000000000000000000000000000000000060608201524660808201523060a08201525f9060c00160405160208183030381529060405280519060200120905090565b604080518082019091525f80825260208201526001600160a01b0383165f908152600a60205260409020610e3090836121b0565b6001600160a01b0382165f908152600860205260408120805460018101909155808314610e30576040516301d4b62360e61b81526001600160a01b038516600482015260248101829052604401610bc1565b61194c84848461145f565b6119588484848461221b565b61044d57604051633250574960e11b81526001600160a01b0384166004820152602401610bc1565b5f65ffffffffffff821115611621576040516306dfcc6560e41b81526030600482015260248101839052604401610bc1565b6001600160a01b0382165f90815260036020526040812080548392906119d9908490612de0565b90915550505050565b80545f908015611a11576119fb836116a3600184612dcd565b54600160201b90046001600160e01b0316610e30565b5f9392505050565b611a238383611c84565b611a2f5f84848461221b565b610c1457604051633250574960e11b81526001600160a01b0384166004820152602401610bc1565b816001600160a01b0316836001600160a01b031603611a9457604051630b61174360e31b81526001600160a01b0384166004820152602401610bc1565b6001600160a01b038381165f81815260056020908152604080832094871680845294825291829020805460ff191686151590811790915591519182527f17307eab39ab6107e8899845ad3d59bd9653f200f220920489ca2b5937696c31910160405180910390a3505050565b5f611b0a82610e37565b9050611b1582610e37565b5f83815260046020908152604080832080546001600160a01b03191690556001600160a01b0384168352600390915281208054929350600192909190611b5c908490612dcd565b90915550505f8281526002602052604080822080546001600160a01b0319169055518391906001600160a01b038416907fddf252ad1be2c89b69c2b068fc378daa952ba7f163c4a11628f55a4df523b3ef908390a4610a73815f846001611dc8565b5f610ac282610ebb565b5f805f80611bd888888888612321565b925092509250611be882826123e9565b50909695505050505050565b60605f611c00836124a1565b60010190505f8167ffffffffffffffff811115611c1f57611c1f612bcf565b6040519080825280601f01601f191660200182016040528015611c49576020820181803683370190505b5090508181016020015b5f19016f181899199a1a9b1b9c1cb0b131b232b360811b600a86061a8153600a8504945084611c5357509392505050565b6001600160a01b038216611cad57604051633250574960e11b81525f6004820152602401610bc1565b5f818152600260205260409020546001600160a01b031615611ce4576040516339e3563760e11b81525f6004820152602401610bc1565b5f818152600260205260409020546001600160a01b031615611d1b576040516339e3563760e11b81525f6004820152602401610bc1565b6001600160a01b0382165f81815260036020908152604080832080546001019055848352600290915280822080546001600160a01b0319168417905551839291907fddf252ad1be2c89b69c2b068fc378daa952ba7f163c4a11628f55a4df523b3ef908290a4610a735f83836001611dc8565b610a73828260405180602001604052805f815250611a19565b6001600160a01b0381165f908152600a6020526040812054610ac2906115f1565b61044d848483611718565b816001600160a01b0316836001600160a01b031614158015611df457505f81115b15610c14576001600160a01b03831615611e96576001600160a01b0383165f908152600a602052604081208190611e31906121a56117378661212a565b6001600160e01b031691506001600160e01b03169150846001600160a01b03167fdec2bacdd2f05b59de34da9b523dff8be42e5e38e818c82fdb0bae774387a7248383604051611e8b929190918252602082015260400190565b60405180910390a250505b6001600160a01b03821615610c14576001600160a01b0382165f908152600a602052604081208190611ece9061211f6117378661212a565b6001600160e01b031691506001600160e01b03169150836001600160a01b03167fdec2bacdd2f05b59de34da9b523dff8be42e5e38e818c82fdb0bae774387a7248383604051611f28929190918252602082015260400190565b60405180910390a25050505050565b606060ff8314611f5157611f4a83612578565b9050610ac2565b818054611f5d90612d53565b80601f0160208091040260200160405190810160405280929190818152602001828054611f8990612d53565b8015611fd45780601f10611fab57610100808354040283529160200191611fd4565b820191905f5260205f20905b815481529060010190602001808311611fb757829003601f168201915b50505050509050610ac2565b5f815f03611fef57505f919050565b5f6001611ffb846125b5565b901c6001901b9050600181848161201457612014612df3565b048201901c9050600181848161202c5761202c612df3565b048201901c9050600181848161204457612044612df3565b048201901c9050600181848161205c5761205c612df3565b048201901c9050600181848161207457612074612df3565b048201901c9050600181848161208c5761208c612df3565b048201901c905060018184816120a4576120a4612df3565b048201901c9050610e30818285816120be576120be612df3565b04612648565b5f5b81831015612117575f6120d9848461265d565b5f8781526020902090915063ffffffff86169082015463ffffffff16111561210357809250612111565b61210e816001612de0565b93505b506120c6565b509392505050565b5f610e308284612e07565b5f6001600160e01b03821115611621576040516306dfcc6560e41b815260e0600482015260248101839052604401610bc1565b5f8061219861217a61216d610ff3565b65ffffffffffff166115f1565b612190612186886119e2565b868863ffffffff16565b879190612677565b915091505b935093915050565b5f610e308284612e2e565b604080518082019091525f8082526020820152825f018263ffffffff16815481106121dd576121dd612e4e565b5f9182526020918290206040805180820190915291015463ffffffff81168252600160201b90046001600160e01b0316918101919091529392505050565b5f6001600160a01b0384163b1561231957604051630a85bd0160e11b81526001600160a01b0385169063150b7a029061225e903390899088908890600401612e62565b6020604051808303815f875af1925050508015612298575060408051601f3d908101601f1916820190925261229591810190612e9e565b60015b6122ff573d8080156122c5576040519150601f19603f3d011682016040523d82523d5f602084013e6122ca565b606091505b5080515f036122f757604051633250574960e11b81526001600160a01b0386166004820152602401610bc1565b805181602001fd5b6001600160e01b031916630a85bd0160e11b149050611457565b506001611457565b5f80807f7fffffffffffffffffffffffffffffff5d576e7357a4501ddfe92f46681b20a084111561235a57505f915060039050826123df565b604080515f808252602082018084528a905260ff891692820192909252606081018790526080810186905260019060a0016020604051602081039080840390855afa1580156123ab573d5f803e3d5ffd5b5050604051601f1901519150506001600160a01b0381166123d657505f9250600191508290506123df565b92505f91508190505b9450945094915050565b5f8260038111156123fc576123fc612eb9565b03612405575050565b600182600381111561241957612419612eb9565b036124375760405163f645eedf60e01b815260040160405180910390fd5b600282600381111561244b5761244b612eb9565b0361246c5760405163fce698f760e01b815260048101829052602401610bc1565b600382600381111561248057612480612eb9565b03610a73576040516335e2f38360e21b815260048101829052602401610bc1565b5f8072184f03e93ff9f4daa797ed6e38ed64bf6a1f0160401b83106124df5772184f03e93ff9f4daa797ed6e38ed64bf6a1f0160401b830492506040015b6d04ee2d6d415b85acef8100000000831061250b576d04ee2d6d415b85acef8100000000830492506020015b662386f26fc10000831061252957662386f26fc10000830492506010015b6305f5e1008310612541576305f5e100830492506008015b612710831061255557612710830492506004015b60648310612567576064830492506002015b600a8310610ac25760010192915050565b60605f61258483612684565b6040805160208082528183019092529192505f91906020820181803683375050509182525060208101929092525090565b5f80608083901c156125c957608092831c92015b604083901c156125db57604092831c92015b602083901c156125ed57602092831c92015b601083901c156125ff57601092831c92015b600883901c1561261157600892831c92015b600483901c1561262357600492831c92015b600283901c1561263557600292831c92015b600183901c15610ac25760010192915050565b5f8183106126565781610e30565b5090919050565b5f61266b6002848418612ecd565b610e3090848416612de0565b5f806121988585856126ab565b5f60ff8216601f811115610ac257604051632cd44ac360e21b815260040160405180910390fd5b82545f90819080156127bf575f6126c7876116a3600185612dcd565b60408051808201909152905463ffffffff808216808452600160201b9092046001600160e01b03166020840152919250908716101561271957604051632520601d60e01b815260040160405180910390fd5b805163ffffffff808816911603612761578461273a886116a3600186612dcd565b80546001600160e01b0392909216600160201b0263ffffffff9092169190911790556127af565b6040805180820190915263ffffffff80881682526001600160e01b0380881660208085019182528b54600181018d555f8d81529190912094519151909216600160201b029216919091179101555b60200151925083915061219d9050565b50506040805180820190915263ffffffff80851682526001600160e01b0380851660208085019182528854600181018a555f8a815291822095519251909316600160201b02919093161792019190915590508161219d565b80356001600160a01b038116811461282d575f80fd5b919050565b5f8060408385031215612843575f80fd5b61284c83612817565b915061285a60208401612817565b90509250929050565b6001600160e01b031981168114610c22575f80fd5b5f60208284031215612888575f80fd5b8135610e3081612863565b5f5b838110156128ad578181015183820152602001612895565b50505f910152565b5f81518084526128cc816020860160208601612893565b601f01601f19169290920160200192915050565b602081525f610e3060208301846128b5565b5f60208284031215612902575f80fd5b5035919050565b5f806040838503121561291a575f80fd5b61292383612817565b946020939093013593505050565b5f805f8060808587031215612944575f80fd5b61294d85612817565b935061295b60208601612817565b93969395505050506040820135916060013590565b5f805f60608486031215612982575f80fd5b61298b84612817565b925061299960208501612817565b9150604084013590509250925092565b5f602082840312156129b9575f80fd5b610e3082612817565b5f80604083850312156129d3575f80fd5b6129dc83612817565b9150602083013563ffffffff811681146129f4575f80fd5b809150509250929050565b5f8083601f840112612a0f575f80fd5b50813567ffffffffffffffff811115612a26575f80fd5b602083019150836020828501011115612a3d575f80fd5b9250929050565b5f805f805f60808688031215612a58575f80fd5b612a6186612817565b9450612a6f60208701612817565b935060408601359250606086013567ffffffffffffffff811115612a91575f80fd5b612a9d888289016129ff565b969995985093965092949392505050565b60ff60f81b881681525f602060e081840152612acd60e084018a6128b5565b8381036040850152612adf818a6128b5565b606085018990526001600160a01b038816608086015260a0850187905284810360c086015285518082528387019250908301905f5b81811015612b3057835183529284019291840191600101612b14565b50909c9b505050505050505050505050565b5f805f8060608587031215612b55575f80fd5b612b5e85612817565b935060208501359250604085013567ffffffffffffffff811115612b80575f80fd5b612b8c878288016129ff565b95989497509550505050565b8035801515811461282d575f80fd5b5f8060408385031215612bb8575f80fd5b612bc183612817565b915061285a60208401612b98565b634e487b7160e01b5f52604160045260245ffd5b5f805f8060808587031215612bf6575f80fd5b612bff85612817565b9350612c0d60208601612817565b925060408501359150606085013567ffffffffffffffff80821115612c30575f80fd5b818701915087601f830112612c43575f80fd5b813581811115612c5557612c55612bcf565b604051601f8201601f19908116603f01168101908382118183101715612c7d57612c7d612bcf565b816040528281528a6020848701011115612c95575f80fd5b826020860160208301375f60208483010152809550505050505092959194509250565b5f805f805f8060c08789031215612ccd575f80fd5b612cd687612817565b95506020870135945060408701359350606087013560ff81168114612cf9575f80fd5b9598949750929560808101359460a0909101359350915050565b5f805f60608486031215612d25575f80fd5b612d2e84612817565b9250612d3c60208501612817565b9150612d4a60408501612b98565b90509250925092565b600181811c90821680612d6757607f821691505b602082108103612d8557634e487b7160e01b5f52602260045260245ffd5b50919050565b5f8351612d9c818460208801612893565b835190830190612db0818360208801612893565b01949350505050565b634e487b7160e01b5f52601160045260245ffd5b81810381811115610ac257610ac2612db9565b80820180821115610ac257610ac2612db9565b634e487b7160e01b5f52601260045260245ffd5b6001600160e01b03818116838216019080821115612e2757612e27612db9565b5092915050565b6001600160e01b03828116828216039080821115612e2757612e27612db9565b634e487b7160e01b5f52603260045260245ffd5b6001600160a01b03858116825284166020820152604081018390526080606082018190525f90612e94908301846128b5565b9695505050505050565b5f60208284031215612eae575f80fd5b8151610e3081612863565b634e487b7160e01b5f52602160045260245ffd5b5f82612ee757634e487b7160e01b5f52601260045260245ffd5b50049056fea26469706673582212209699aa0efc0248e899f521d5f7c83870d315df28e873a24da2f943b3d7efdcbf64736f6c63430008140033",
  "linkReferences": {},
  "deployedLinkReferences": {}
}