{
  "_format": "hh-sol-artifact-1",
  "contractName": "$GovernorTimelockCompoundMock",
  "sourceName": "contracts-exposed/mocks/governance/GovernorTimelockCompoundMock.sol",
  "abi": [
    {
      "inputs": [
        {
          "internalType": "string",
          "name": "name_",
          "type": "string"
        },
        {
          "internalType": "uint48",
          "name": "initialVotingDelay",
          "type": "uint48"
        },
        {
          "internalType": "uint32",
          "name": "initialVotingPeriod",
          "type": "uint32"
        },
        {
          "internalType": "uint256",
          "name": "initialProposalThreshold",
          "type": "uint256"
        },
        {
          "internalType": "contract ICompoundTimelock",
          "name": "timelockAddress",
          "type": "address"
        },
        {
          "internalType": "contract IVotes",
          "name": "tokenAddress",
          "type": "address"
        },
        {
          "internalType": "uint256",
          "name": "quorumNumeratorValue",
          "type": "uint256"
        }
      ],
      "stateMutability": "payable",
      "type": "constructor"
    },
    {
      "inputs": [
        {
          "internalType": "address",
          "name": "account",
          "type": "address"
        }
      ],
      "name": "AddressInsufficientBalance",
      "type": "error"
    },
    {
      "inputs": [],
      "name": "CheckpointUnorderedInsertion",
      "type": "error"
    },
    {
      "inputs": [],
      "name": "FailedInnerCall",
      "type": "error"
    },
    {
      "inputs": [
        {
          "internalType": "address",
          "name": "voter",
          "type": "address"
        }
      ],
      "name": "GovernorAlreadyCastVote",
      "type": "error"
    },
    {
      "inputs": [
        {
          "internalType": "uint256",
          "name": "proposalId",
          "type": "uint256"
        }
      ],
      "name": "GovernorAlreadyQueuedProposal",
      "type": "error"
    },
    {
      "inputs": [],
      "name": "GovernorDisabledDeposit",
      "type": "error"
    },
    {
      "inputs": [
        {
          "internalType": "address",
          "name": "proposer",
          "type": "address"
        },
        {
          "internalType": "uint256",
          "name": "votes",
          "type": "uint256"
        },
        {
          "internalType": "uint256",
          "name": "threshold",
          "type": "uint256"
        }
      ],
      "name": "GovernorInsufficientProposerVotes",
      "type": "error"
    },
    {
      "inputs": [
        {
          "internalType": "uint256",
          "name": "targets",
          "type": "uint256"
        },
        {
          "internalType": "uint256",
          "name": "calldatas",
          "type": "uint256"
        },
        {
          "internalType": "uint256",
          "name": "values",
          "type": "uint256"
        }
      ],
      "name": "GovernorInvalidProposalLength",
      "type": "error"
    },
    {
      "inputs": [
        {
          "internalType": "uint256",
          "name": "quorumNumerator",
          "type": "uint256"
        },
        {
          "internalType": "uint256",
          "name": "quorumDenominator",
          "type": "uint256"
        }
      ],
      "name": "GovernorInvalidQuorumFraction",
      "type": "error"
    },
    {
      "inputs": [
        {
          "internalType": "address",
          "name": "voter",
          "type": "address"
        }
      ],
      "name": "GovernorInvalidSignature",
      "type": "error"
    },
    {
      "inputs": [],
      "name": "GovernorInvalidVoteType",
      "type": "error"
    },
    {
      "inputs": [
        {
          "internalType": "uint256",
          "name": "votingPeriod",
          "type": "uint256"
        }
      ],
      "name": "GovernorInvalidVotingPeriod",
      "type": "error"
    },
    {
      "inputs": [
        {
          "internalType": "uint256",
          "name": "proposalId",
          "type": "uint256"
        }
      ],
      "name": "GovernorNonexistentProposal",
      "type": "error"
    },
    {
      "inputs": [
        {
          "internalType": "uint256",
          "name": "proposalId",
          "type": "uint256"
        }
      ],
      "name": "GovernorNotQueuedProposal",
      "type": "error"
    },
    {
      "inputs": [
        {
          "internalType": "address",
          "name": "account",
          "type": "address"
        }
      ],
      "name": "GovernorOnlyExecutor",
      "type": "error"
    },
    {
      "inputs": [
        {
          "internalType": "address",
          "name": "account",
          "type": "address"
        }
      ],
      "name": "GovernorOnlyProposer",
      "type": "error"
    },
    {
      "inputs": [
        {
          "internalType": "uint256",
          "name": "proposalId",
          "type": "uint256"
        },
        {
          "internalType": "enum IGovernor.ProposalState",
          "name": "current",
          "type": "uint8"
        },
        {
          "internalType": "bytes32",
          "name": "expectedStates",
          "type": "bytes32"
        }
      ],
      "name": "GovernorUnexpectedProposalState",
      "type": "error"
    },
    {
      "inputs": [
        {
          "internalType": "address",
          "name": "account",
          "type": "address"
        },
        {
          "internalType": "uint256",
          "name": "currentNonce",
          "type": "uint256"
        }
      ],
      "name": "InvalidAccountNonce",
      "type": "error"
    },
    {
      "inputs": [],
      "name": "InvalidShortString",
      "type": "error"
    },
    {
      "inputs": [],
      "name": "QueueEmpty",
      "type": "error"
    },
    {
      "inputs": [
        {
          "internalType": "uint8",
          "name": "bits",
          "type": "uint8"
        },
        {
          "internalType": "uint256",
          "name": "value",
          "type": "uint256"
        }
      ],
      "name": "SafeCastOverflowedUintDowncast",
      "type": "error"
    },
    {
      "inputs": [
        {
          "internalType": "string",
          "name": "str",
          "type": "string"
        }
      ],
      "name": "StringTooLong",
      "type": "error"
    },
    {
      "anonymous": false,
      "inputs": [],
      "name": "EIP712DomainChanged",
      "type": "event"
    },
    {
      "anonymous": false,
      "inputs": [
        {
          "indexed": false,
          "internalType": "uint256",
          "name": "proposalId",
          "type": "uint256"
        }
      ],
      "name": "ProposalCanceled",
      "type": "event"
    },
    {
      "anonymous": false,
      "inputs": [
        {
          "indexed": false,
          "internalType": "uint256",
          "name": "proposalId",
          "type": "uint256"
        },
        {
          "indexed": false,
          "internalType": "address",
          "name": "proposer",
          "type": "address"
        },
        {
          "indexed": false,
          "internalType": "address[]",
          "name": "targets",
          "type": "address[]"
        },
        {
          "indexed": false,
          "internalType": "uint256[]",
          "name": "values",
          "type": "uint256[]"
        },
        {
          "indexed": false,
          "internalType": "string[]",
          "name": "signatures",
          "type": "string[]"
        },
        {
          "indexed": false,
          "internalType": "bytes[]",
          "name": "calldatas",
          "type": "bytes[]"
        },
        {
          "indexed": false,
          "internalType": "uint256",
          "name": "voteStart",
          "type": "uint256"
        },
        {
          "indexed": false,
          "internalType": "uint256",
          "name": "voteEnd",
          "type": "uint256"
        },
        {
          "indexed": false,
          "internalType": "string",
          "name": "description",
          "type": "string"
        }
      ],
      "name": "ProposalCreated",
      "type": "event"
    },
    {
      "anonymous": false,
      "inputs": [
        {
          "indexed": false,
          "internalType": "uint256",
          "name": "proposalId",
          "type": "uint256"
        }
      ],
      "name": "ProposalExecuted",
      "type": "event"
    },
    {
      "anonymous": false,
      "inputs": [
        {
          "indexed": false,
          "internalType": "uint256",
          "name": "proposalId",
          "type": "uint256"
        },
        {
          "indexed": false,
          "internalType": "uint256",
          "name": "eta",
          "type": "uint256"
        }
      ],
      "name": "ProposalQueued",
      "type": "event"
    },
    {
      "anonymous": false,
      "inputs": [
        {
          "indexed": false,
          "internalType": "uint256",
          "name": "oldProposalThreshold",
          "type": "uint256"
        },
        {
          "indexed": false,
          "internalType": "uint256",
          "name": "newProposalThreshold",
          "type": "uint256"
        }
      ],
      "name": "ProposalThresholdSet",
      "type": "event"
    },
    {
      "anonymous": false,
      "inputs": [
        {
          "indexed": false,
          "internalType": "uint256",
          "name": "oldQuorumNumerator",
          "type": "uint256"
        },
        {
          "indexed": false,
          "internalType": "uint256",
          "name": "newQuorumNumerator",
          "type": "uint256"
        }
      ],
      "name": "QuorumNumeratorUpdated",
      "type": "event"
    },
    {
      "anonymous": false,
      "inputs": [
        {
          "indexed": false,
          "internalType": "address",
          "name": "oldTimelock",
          "type": "address"
        },
        {
          "indexed": false,
          "internalType": "address",
          "name": "newTimelock",
          "type": "address"
        }
      ],
      "name": "TimelockChange",
      "type": "event"
    },
    {
      "anonymous": false,
      "inputs": [
        {
          "indexed": true,
          "internalType": "address",
          "name": "voter",
          "type": "address"
        },
        {
          "indexed": false,
          "internalType": "uint256",
          "name": "proposalId",
          "type": "uint256"
        },
        {
          "indexed": false,
          "internalType": "uint8",
          "name": "support",
          "type": "uint8"
        },
        {
          "indexed": false,
          "internalType": "uint256",
          "name": "weight",
          "type": "uint256"
        },
        {
          "indexed": false,
          "internalType": "string",
          "name": "reason",
          "type": "string"
        }
      ],
      "name": "VoteCast",
      "type": "event"
    },
    {
      "anonymous": false,
      "inputs": [
        {
          "indexed": true,
          "internalType": "address",
          "name": "voter",
          "type": "address"
        },
        {
          "indexed": false,
          "internalType": "uint256",
          "name": "proposalId",
          "type": "uint256"
        },
        {
          "indexed": false,
          "internalType": "uint8",
          "name": "support",
          "type": "uint8"
        },
        {
          "indexed": false,
          "internalType": "uint256",
          "name": "weight",
          "type": "uint256"
        },
        {
          "indexed": false,
          "internalType": "string",
          "name": "reason",
          "type": "string"
        },
        {
          "indexed": false,
          "internalType": "bytes",
          "name": "params",
          "type": "bytes"
        }
      ],
      "name": "VoteCastWithParams",
      "type": "event"
    },
    {
      "anonymous": false,
      "inputs": [
        {
          "indexed": false,
          "internalType": "uint256",
          "name": "oldVotingDelay",
          "type": "uint256"
        },
        {
          "indexed": false,
          "internalType": "uint256",
          "name": "newVotingDelay",
          "type": "uint256"
        }
      ],
      "name": "VotingDelaySet",
      "type": "event"
    },
    {
      "anonymous": false,
      "inputs": [
        {
          "indexed": false,
          "internalType": "uint256",
          "name": "oldVotingPeriod",
          "type": "uint256"
        },
        {
          "indexed": false,
          "internalType": "uint256",
          "name": "newVotingPeriod",
          "type": "uint256"
        }
      ],
      "name": "VotingPeriodSet",
      "type": "event"
    },
    {
      "anonymous": false,
      "inputs": [
        {
          "indexed": false,
          "internalType": "uint256",
          "name": "proposalId",
          "type": "uint256"
        }
      ],
      "name": "return$_cancel",
      "type": "event"
    },
    {
      "anonymous": false,
      "inputs": [
        {
          "indexed": false,
          "internalType": "uint256",
          "name": "ret0",
          "type": "uint256"
        }
      ],
      "name": "return$_castVote_uint256_address_uint8_string",
      "type": "event"
    },
    {
      "anonymous": false,
      "inputs": [
        {
          "indexed": false,
          "internalType": "uint256",
          "name": "ret0",
          "type": "uint256"
        }
      ],
      "name": "return$_castVote_uint256_address_uint8_string_bytes",
      "type": "event"
    },
    {
      "anonymous": false,
      "inputs": [
        {
          "indexed": false,
          "internalType": "uint256",
          "name": "ret0",
          "type": "uint256"
        }
      ],
      "name": "return$_useCheckedNonce",
      "type": "event"
    },
    {
      "anonymous": false,
      "inputs": [
        {
          "indexed": false,
          "internalType": "uint256",
          "name": "ret0",
          "type": "uint256"
        }
      ],
      "name": "return$_useNonce",
      "type": "event"
    },
    {
      "inputs": [],
      "name": "$_EIP712Name",
      "outputs": [
        {
          "internalType": "string",
          "name": "ret0",
          "type": "string"
        }
      ],
      "stateMutability": "view",
      "type": "function"
    },
    {
      "inputs": [],
      "name": "$_EIP712Version",
      "outputs": [
        {
          "internalType": "string",
          "name": "ret0",
          "type": "string"
        }
      ],
      "stateMutability": "view",
      "type": "function"
    },
    {
      "inputs": [
        {
          "internalType": "uint256",
          "name": "arg0",
          "type": "uint256"
        },
        {
          "internalType": "address[]",
          "name": "arg1",
          "type": "address[]"
        },
        {
          "internalType": "uint256[]",
          "name": "arg2",
          "type": "uint256[]"
        },
        {
          "internalType": "bytes[]",
          "name": "arg3",
          "type": "bytes[]"
        },
        {
          "internalType": "bytes32",
          "name": "arg4",
          "type": "bytes32"
        }
      ],
      "name": "$_afterExecute",
      "outputs": [],
      "stateMutability": "nonpayable",
      "type": "function"
    },
    {
      "inputs": [
        {
          "internalType": "uint256",
          "name": "arg0",
          "type": "uint256"
        },
        {
          "internalType": "address[]",
          "name": "targets",
          "type": "address[]"
        },
        {
          "internalType": "uint256[]",
          "name": "arg2",
          "type": "uint256[]"
        },
        {
          "internalType": "bytes[]",
          "name": "calldatas",
          "type": "bytes[]"
        },
        {
          "internalType": "bytes32",
          "name": "arg4",
          "type": "bytes32"
        }
      ],
      "name": "$_beforeExecute",
      "outputs": [],
      "stateMutability": "nonpayable",
      "type": "function"
    },
    {
      "inputs": [
        {
          "internalType": "address[]",
          "name": "targets",
          "type": "address[]"
        },
        {
          "internalType": "uint256[]",
          "name": "values",
          "type": "uint256[]"
        },
        {
          "internalType": "bytes[]",
          "name": "calldatas",
          "type": "bytes[]"
        },
        {
          "internalType": "bytes32",
          "name": "salt",
          "type": "bytes32"
        }
      ],
      "name": "$_cancel",
      "outputs": [
        {
          "internalType": "uint256",
          "name": "proposalId",
          "type": "uint256"
        }
      ],
      "stateMutability": "nonpayable",
      "type": "function"
    },
    {
      "inputs": [
        {
          "internalType": "uint256",
          "name": "proposalId",
          "type": "uint256"
        },
        {
          "internalType": "address",
          "name": "account",
          "type": "address"
        },
        {
          "internalType": "uint8",
          "name": "support",
          "type": "uint8"
        },
        {
          "internalType": "string",
          "name": "reason",
          "type": "string"
        },
        {
          "internalType": "bytes",
          "name": "params",
          "type": "bytes"
        }
      ],
      "name": "$_castVote",
      "outputs": [
        {
          "internalType": "uint256",
          "name": "ret0",
          "type": "uint256"
        }
      ],
      "stateMutability": "nonpayable",
      "type": "function"
    },
    {
      "inputs": [
        {
          "internalType": "uint256",
          "name": "proposalId",
          "type": "uint256"
        },
        {
          "internalType": "address",
          "name": "account",
          "type": "address"
        },
        {
          "internalType": "uint8",
          "name": "support",
          "type": "uint8"
        },
        {
          "internalType": "string",
          "name": "reason",
          "type": "string"
        }
      ],
      "name": "$_castVote",
      "outputs": [
        {
          "internalType": "uint256",
          "name": "ret0",
          "type": "uint256"
        }
      ],
      "stateMutability": "nonpayable",
      "type": "function"
    },
    {
      "inputs": [
        {
          "internalType": "uint256",
          "name": "proposalId",
          "type": "uint256"
        },
        {
          "internalType": "address",
          "name": "account",
          "type": "address"
        },
        {
          "internalType": "uint8",
          "name": "support",
          "type": "uint8"
        },
        {
          "internalType": "uint256",
          "name": "weight",
          "type": "uint256"
        },
        {
          "internalType": "bytes",
          "name": "arg4",
          "type": "bytes"
        }
      ],
      "name": "$_countVote",
      "outputs": [],
      "stateMutability": "nonpayable",
      "type": "function"
    },
    {
      "inputs": [],
      "name": "$_defaultParams",
      "outputs": [
        {
          "internalType": "bytes",
          "name": "ret0",
          "type": "bytes"
        }
      ],
      "stateMutability": "view",
      "type": "function"
    },
    {
      "inputs": [],
      "name": "$_domainSeparatorV4",
      "outputs": [
        {
          "internalType": "bytes32",
          "name": "ret0",
          "type": "bytes32"
        }
      ],
      "stateMutability": "view",
      "type": "function"
    },
    {
      "inputs": [
        {
          "internalType": "enum IGovernor.ProposalState",
          "name": "proposalState",
          "type": "uint8"
        }
      ],
      "name": "$_encodeStateBitmap",
      "outputs": [
        {
          "internalType": "bytes32",
          "name": "ret0",
          "type": "bytes32"
        }
      ],
      "stateMutability": "pure",
      "type": "function"
    },
    {
      "inputs": [
        {
          "internalType": "uint256",
          "name": "proposalId",
          "type": "uint256"
        },
        {
          "internalType": "address[]",
          "name": "targets",
          "type": "address[]"
        },
        {
          "internalType": "uint256[]",
          "name": "values",
          "type": "uint256[]"
        },
        {
          "internalType": "bytes[]",
          "name": "calldatas",
          "type": "bytes[]"
        },
        {
          "internalType": "bytes32",
          "name": "descriptionHash",
          "type": "bytes32"
        }
      ],
      "name": "$_execute",
      "outputs": [],
      "stateMutability": "nonpayable",
      "type": "function"
    },
    {
      "inputs": [],
      "name": "$_executor",
      "outputs": [
        {
          "internalType": "address",
          "name": "ret0",
          "type": "address"
        }
      ],
      "stateMutability": "view",
      "type": "function"
    },
    {
      "inputs": [
        {
          "internalType": "address",
          "name": "account",
          "type": "address"
        },
        {
          "internalType": "uint256",
          "name": "timepoint",
          "type": "uint256"
        },
        {
          "internalType": "bytes",
          "name": "arg2",
          "type": "bytes"
        }
      ],
      "name": "$_getVotes",
      "outputs": [
        {
          "internalType": "uint256",
          "name": "ret0",
          "type": "uint256"
        }
      ],
      "stateMutability": "view",
      "type": "function"
    },
    {
      "inputs": [
        {
          "internalType": "bytes32",
          "name": "structHash",
          "type": "bytes32"
        }
      ],
      "name": "$_hashTypedDataV4",
      "outputs": [
        {
          "internalType": "bytes32",
          "name": "ret0",
          "type": "bytes32"
        }
      ],
      "stateMutability": "view",
      "type": "function"
    },
    {
      "inputs": [
        {
          "internalType": "address",
          "name": "proposer",
          "type": "address"
        },
        {
          "internalType": "string",
          "name": "description",
          "type": "string"
        }
      ],
      "name": "$_isValidDescriptionForProposer",
      "outputs": [
        {
          "internalType": "bool",
          "name": "ret0",
          "type": "bool"
        }
      ],
      "stateMutability": "view",
      "type": "function"
    },
    {
      "inputs": [],
      "name": "$_msgData",
      "outputs": [
        {
          "internalType": "bytes",
          "name": "ret0",
          "type": "bytes"
        }
      ],
      "stateMutability": "view",
      "type": "function"
    },
    {
      "inputs": [],
      "name": "$_msgSender",
      "outputs": [
        {
          "internalType": "address",
          "name": "ret0",
          "type": "address"
        }
      ],
      "stateMutability": "view",
      "type": "function"
    },
    {
      "inputs": [
        {
          "internalType": "uint256",
          "name": "proposalId",
          "type": "uint256"
        }
      ],
      "name": "$_quorumReached",
      "outputs": [
        {
          "internalType": "bool",
          "name": "ret0",
          "type": "bool"
        }
      ],
      "stateMutability": "view",
      "type": "function"
    },
    {
      "inputs": [
        {
          "internalType": "uint256",
          "name": "newProposalThreshold",
          "type": "uint256"
        }
      ],
      "name": "$_setProposalThreshold",
      "outputs": [],
      "stateMutability": "nonpayable",
      "type": "function"
    },
    {
      "inputs": [
        {
          "internalType": "uint48",
          "name": "newVotingDelay",
          "type": "uint48"
        }
      ],
      "name": "$_setVotingDelay",
      "outputs": [],
      "stateMutability": "nonpayable",
      "type": "function"
    },
    {
      "inputs": [
        {
          "internalType": "uint32",
          "name": "newVotingPeriod",
          "type": "uint32"
        }
      ],
      "name": "$_setVotingPeriod",
      "outputs": [],
      "stateMutability": "nonpayable",
      "type": "function"
    },
    {
      "inputs": [
        {
          "internalType": "uint256",
          "name": "newQuorumNumerator",
          "type": "uint256"
        }
      ],
      "name": "$_updateQuorumNumerator",
      "outputs": [],
      "stateMutability": "nonpayable",
      "type": "function"
    },
    {
      "inputs": [
        {
          "internalType": "address",
          "name": "owner",
          "type": "address"
        },
        {
          "internalType": "uint256",
          "name": "nonce",
          "type": "uint256"
        }
      ],
      "name": "$_useCheckedNonce",
      "outputs": [
        {
          "internalType": "uint256",
          "name": "ret0",
          "type": "uint256"
        }
      ],
      "stateMutability": "nonpayable",
      "type": "function"
    },
    {
      "inputs": [
        {
          "internalType": "address",
          "name": "owner",
          "type": "address"
        }
      ],
      "name": "$_useNonce",
      "outputs": [
        {
          "internalType": "uint256",
          "name": "ret0",
          "type": "uint256"
        }
      ],
      "stateMutability": "nonpayable",
      "type": "function"
    },
    {
      "inputs": [
        {
          "internalType": "uint256",
          "name": "proposalId",
          "type": "uint256"
        }
      ],
      "name": "$_voteSucceeded",
      "outputs": [
        {
          "internalType": "bool",
          "name": "ret0",
          "type": "bool"
        }
      ],
      "stateMutability": "view",
      "type": "function"
    },
    {
      "inputs": [],
      "name": "BALLOT_TYPEHASH",
      "outputs": [
        {
          "internalType": "bytes32",
          "name": "",
          "type": "bytes32"
        }
      ],
      "stateMutability": "view",
      "type": "function"
    },
    {
      "inputs": [],
      "name": "CLOCK_MODE",
      "outputs": [
        {
          "internalType": "string",
          "name": "",
          "type": "string"
        }
      ],
      "stateMutability": "view",
      "type": "function"
    },
    {
      "inputs": [],
      "name": "COUNTING_MODE",
      "outputs": [
        {
          "internalType": "string",
          "name": "",
          "type": "string"
        }
      ],
      "stateMutability": "pure",
      "type": "function"
    },
    {
      "inputs": [],
      "name": "EXTENDED_BALLOT_TYPEHASH",
      "outputs": [
        {
          "internalType": "bytes32",
          "name": "",
          "type": "bytes32"
        }
      ],
      "stateMutability": "view",
      "type": "function"
    },
    {
      "inputs": [],
      "name": "__acceptAdmin",
      "outputs": [],
      "stateMutability": "nonpayable",
      "type": "function"
    },
    {
      "inputs": [],
      "name": "__hh_exposed_bytecode_marker",
      "outputs": [
        {
          "internalType": "bytes32",
          "name": "",
          "type": "bytes32"
        }
      ],
      "stateMutability": "view",
      "type": "function"
    },
    {
      "inputs": [
        {
          "internalType": "address[]",
          "name": "targets",
          "type": "address[]"
        },
        {
          "internalType": "uint256[]",
          "name": "values",
          "type": "uint256[]"
        },
        {
          "internalType": "bytes[]",
          "name": "calldatas",
          "type": "bytes[]"
        },
        {
          "internalType": "bytes32",
          "name": "descriptionHash",
          "type": "bytes32"
        }
      ],
      "name": "cancel",
      "outputs": [
        {
          "internalType": "uint256",
          "name": "",
          "type": "uint256"
        }
      ],
      "stateMutability": "nonpayable",
      "type": "function"
    },
    {
      "inputs": [
        {
          "internalType": "uint256",
          "name": "proposalId",
          "type": "uint256"
        },
        {
          "internalType": "uint8",
          "name": "support",
          "type": "uint8"
        }
      ],
      "name": "castVote",
      "outputs": [
        {
          "internalType": "uint256",
          "name": "",
          "type": "uint256"
        }
      ],
      "stateMutability": "nonpayable",
      "type": "function"
    },
    {
      "inputs": [
        {
          "internalType": "uint256",
          "name": "proposalId",
          "type": "uint256"
        },
        {
          "internalType": "uint8",
          "name": "support",
          "type": "uint8"
        },
        {
          "internalType": "address",
          "name": "voter",
          "type": "address"
        },
        {
          "internalType": "bytes",
          "name": "signature",
          "type": "bytes"
        }
      ],
      "name": "castVoteBySig",
      "outputs": [
        {
          "internalType": "uint256",
          "name": "",
          "type": "uint256"
        }
      ],
      "stateMutability": "nonpayable",
      "type": "function"
    },
    {
      "inputs": [
        {
          "internalType": "uint256",
          "name": "proposalId",
          "type": "uint256"
        },
        {
          "internalType": "uint8",
          "name": "support",
          "type": "uint8"
        },
        {
          "internalType": "string",
          "name": "reason",
          "type": "string"
        }
      ],
      "name": "castVoteWithReason",
      "outputs": [
        {
          "internalType": "uint256",
          "name": "",
          "type": "uint256"
        }
      ],
      "stateMutability": "nonpayable",
      "type": "function"
    },
    {
      "inputs": [
        {
          "internalType": "uint256",
          "name": "proposalId",
          "type": "uint256"
        },
        {
          "internalType": "uint8",
          "name": "support",
          "type": "uint8"
        },
        {
          "internalType": "string",
          "name": "reason",
          "type": "string"
        },
        {
          "internalType": "bytes",
          "name": "params",
          "type": "bytes"
        }
      ],
      "name": "castVoteWithReasonAndParams",
      "outputs": [
        {
          "internalType": "uint256",
          "name": "",
          "type": "uint256"
        }
      ],
      "stateMutability": "nonpayable",
      "type": "function"
    },
    {
      "inputs": [
        {
          "internalType": "uint256",
          "name": "proposalId",
          "type": "uint256"
        },
        {
          "internalType": "uint8",
          "name": "support",
          "type": "uint8"
        },
        {
          "internalType": "address",
          "name": "voter",
          "type": "address"
        },
        {
          "internalType": "string",
          "name": "reason",
          "type": "string"
        },
        {
          "internalType": "bytes",
          "name": "params",
          "type": "bytes"
        },
        {
          "internalType": "bytes",
          "name": "signature",
          "type": "bytes"
        }
      ],
      "name": "castVoteWithReasonAndParamsBySig",
      "outputs": [
        {
          "internalType": "uint256",
          "name": "",
          "type": "uint256"
        }
      ],
      "stateMutability": "nonpayable",
      "type": "function"
    },
    {
      "inputs": [],
      "name": "clock",
      "outputs": [
        {
          "internalType": "uint48",
          "name": "",
          "type": "uint48"
        }
      ],
      "stateMutability": "view",
      "type": "function"
    },
    {
      "inputs": [],
      "name": "eip712Domain",
      "outputs": [
        {
          "internalType": "bytes1",
          "name": "fields",
          "type": "bytes1"
        },
        {
          "internalType": "string",
          "name": "name",
          "type": "string"
        },
        {
          "internalType": "string",
          "name": "version",
          "type": "string"
        },
        {
          "internalType": "uint256",
          "name": "chainId",
          "type": "uint256"
        },
        {
          "internalType": "address",
          "name": "verifyingContract",
          "type": "address"
        },
        {
          "internalType": "bytes32",
          "name": "salt",
          "type": "bytes32"
        },
        {
          "internalType": "uint256[]",
          "name": "extensions",
          "type": "uint256[]"
        }
      ],
      "stateMutability": "view",
      "type": "function"
    },
    {
      "inputs": [
        {
          "internalType": "address[]",
          "name": "targets",
          "type": "address[]"
        },
        {
          "internalType": "uint256[]",
          "name": "values",
          "type": "uint256[]"
        },
        {
          "internalType": "bytes[]",
          "name": "calldatas",
          "type": "bytes[]"
        },
        {
          "internalType": "bytes32",
          "name": "descriptionHash",
          "type": "bytes32"
        }
      ],
      "name": "execute",
      "outputs": [
        {
          "internalType": "uint256",
          "name": "",
          "type": "uint256"
        }
      ],
      "stateMutability": "payable",
      "type": "function"
    },
    {
      "inputs": [
        {
          "internalType": "address",
          "name": "account",
          "type": "address"
        },
        {
          "internalType": "uint256",
          "name": "timepoint",
          "type": "uint256"
        }
      ],
      "name": "getVotes",
      "outputs": [
        {
          "internalType": "uint256",
          "name": "",
          "type": "uint256"
        }
      ],
      "stateMutability": "view",
      "type": "function"
    },
    {
      "inputs": [
        {
          "internalType": "address",
          "name": "account",
          "type": "address"
        },
        {
          "internalType": "uint256",
          "name": "timepoint",
          "type": "uint256"
        },
        {
          "internalType": "bytes",
          "name": "params",
          "type": "bytes"
        }
      ],
      "name": "getVotesWithParams",
      "outputs": [
        {
          "internalType": "uint256",
          "name": "",
          "type": "uint256"
        }
      ],
      "stateMutability": "view",
      "type": "function"
    },
    {
      "inputs": [
        {
          "internalType": "uint256",
          "name": "proposalId",
          "type": "uint256"
        },
        {
          "internalType": "address",
          "name": "account",
          "type": "address"
        }
      ],
      "name": "hasVoted",
      "outputs": [
        {
          "internalType": "bool",
          "name": "",
          "type": "bool"
        }
      ],
      "stateMutability": "view",
      "type": "function"
    },
    {
      "inputs": [
        {
          "internalType": "address[]",
          "name": "targets",
          "type": "address[]"
        },
        {
          "internalType": "uint256[]",
          "name": "values",
          "type": "uint256[]"
        },
        {
          "internalType": "bytes[]",
          "name": "calldatas",
          "type": "bytes[]"
        },
        {
          "internalType": "bytes32",
          "name": "descriptionHash",
          "type": "bytes32"
        }
      ],
      "name": "hashProposal",
      "outputs": [
        {
          "internalType": "uint256",
          "name": "",
          "type": "uint256"
        }
      ],
      "stateMutability": "pure",
      "type": "function"
    },
    {
      "inputs": [],
      "name": "name",
      "outputs": [
        {
          "internalType": "string",
          "name": "",
          "type": "string"
        }
      ],
      "stateMutability": "view",
      "type": "function"
    },
    {
      "inputs": [
        {
          "internalType": "address",
          "name": "owner",
          "type": "address"
        }
      ],
      "name": "nonces",
      "outputs": [
        {
          "internalType": "uint256",
          "name": "",
          "type": "uint256"
        }
      ],
      "stateMutability": "view",
      "type": "function"
    },
    {
      "inputs": [
        {
          "internalType": "address",
          "name": "",
          "type": "address"
        },
        {
          "internalType": "address",
          "name": "",
          "type": "address"
        },
        {
          "internalType": "uint256[]",
          "name": "",
          "type": "uint256[]"
        },
        {
          "internalType": "uint256[]",
          "name": "",
          "type": "uint256[]"
        },
        {
          "internalType": "bytes",
          "name": "",
          "type": "bytes"
        }
      ],
      "name": "onERC1155BatchReceived",
      "outputs": [
        {
          "internalType": "bytes4",
          "name": "",
          "type": "bytes4"
        }
      ],
      "stateMutability": "nonpayable",
      "type": "function"
    },
    {
      "inputs": [
        {
          "internalType": "address",
          "name": "",
          "type": "address"
        },
        {
          "internalType": "address",
          "name": "",
          "type": "address"
        },
        {
          "internalType": "uint256",
          "name": "",
          "type": "uint256"
        },
        {
          "internalType": "uint256",
          "name": "",
          "type": "uint256"
        },
        {
          "internalType": "bytes",
          "name": "",
          "type": "bytes"
        }
      ],
      "name": "onERC1155Received",
      "outputs": [
        {
          "internalType": "bytes4",
          "name": "",
          "type": "bytes4"
        }
      ],
      "stateMutability": "nonpayable",
      "type": "function"
    },
    {
      "inputs": [
        {
          "internalType": "address",
          "name": "",
          "type": "address"
        },
        {
          "internalType": "address",
          "name": "",
          "type": "address"
        },
        {
          "internalType": "uint256",
          "name": "",
          "type": "uint256"
        },
        {
          "internalType": "bytes",
          "name": "",
          "type": "bytes"
        }
      ],
      "name": "onERC721Received",
      "outputs": [
        {
          "internalType": "bytes4",
          "name": "",
          "type": "bytes4"
        }
      ],
      "stateMutability": "nonpayable",
      "type": "function"
    },
    {
      "inputs": [
        {
          "internalType": "uint256",
          "name": "proposalId",
          "type": "uint256"
        }
      ],
      "name": "proposalDeadline",
      "outputs": [
        {
          "internalType": "uint256",
          "name": "",
          "type": "uint256"
        }
      ],
      "stateMutability": "view",
      "type": "function"
    },
    {
      "inputs": [
        {
          "internalType": "uint256",
          "name": "proposalId",
          "type": "uint256"
        }
      ],
      "name": "proposalEta",
      "outputs": [
        {
          "internalType": "uint256",
          "name": "",
          "type": "uint256"
        }
      ],
      "stateMutability": "view",
      "type": "function"
    },
    {
      "inputs": [
        {
          "internalType": "uint256",
          "name": "proposalId",
          "type": "uint256"
        }
      ],
      "name": "proposalProposer",
      "outputs": [
        {
          "internalType": "address",
          "name": "",
          "type": "address"
        }
      ],
      "stateMutability": "view",
      "type": "function"
    },
    {
      "inputs": [
        {
          "internalType": "uint256",
          "name": "proposalId",
          "type": "uint256"
        }
      ],
      "name": "proposalSnapshot",
      "outputs": [
        {
          "internalType": "uint256",
          "name": "",
          "type": "uint256"
        }
      ],
      "stateMutability": "view",
      "type": "function"
    },
    {
      "inputs": [],
      "name": "proposalThreshold",
      "outputs": [
        {
          "internalType": "uint256",
          "name": "",
          "type": "uint256"
        }
      ],
      "stateMutability": "view",
      "type": "function"
    },
    {
      "inputs": [
        {
          "internalType": "uint256",
          "name": "proposalId",
          "type": "uint256"
        }
      ],
      "name": "proposalVotes",
      "outputs": [
        {
          "internalType": "uint256",
          "name": "againstVotes",
          "type": "uint256"
        },
        {
          "internalType": "uint256",
          "name": "forVotes",
          "type": "uint256"
        },
        {
          "internalType": "uint256",
          "name": "abstainVotes",
          "type": "uint256"
        }
      ],
      "stateMutability": "view",
      "type": "function"
    },
    {
      "inputs": [
        {
          "internalType": "address[]",
          "name": "targets",
          "type": "address[]"
        },
        {
          "internalType": "uint256[]",
          "name": "values",
          "type": "uint256[]"
        },
        {
          "internalType": "bytes[]",
          "name": "calldatas",
          "type": "bytes[]"
        },
        {
          "internalType": "string",
          "name": "description",
          "type": "string"
        }
      ],
      "name": "propose",
      "outputs": [
        {
          "internalType": "uint256",
          "name": "",
          "type": "uint256"
        }
      ],
      "stateMutability": "nonpayable",
      "type": "function"
    },
    {
      "inputs": [
        {
          "internalType": "address[]",
          "name": "targets",
          "type": "address[]"
        },
        {
          "internalType": "uint256[]",
          "name": "values",
          "type": "uint256[]"
        },
        {
          "internalType": "bytes[]",
          "name": "calldatas",
          "type": "bytes[]"
        },
        {
          "internalType": "bytes32",
          "name": "descriptionHash",
          "type": "bytes32"
        }
      ],
      "name": "queue",
      "outputs": [
        {
          "internalType": "uint256",
          "name": "",
          "type": "uint256"
        }
      ],
      "stateMutability": "nonpayable",
      "type": "function"
    },
    {
      "inputs": [
        {
          "internalType": "uint256",
          "name": "blockNumber",
          "type": "uint256"
        }
      ],
      "name": "quorum",
      "outputs": [
        {
          "internalType": "uint256",
          "name": "",
          "type": "uint256"
        }
      ],
      "stateMutability": "view",
      "type": "function"
    },
    {
      "inputs": [],
      "name": "quorumDenominator",
      "outputs": [
        {
          "internalType": "uint256",
          "name": "",
          "type": "uint256"
        }
      ],
      "stateMutability": "view",
      "type": "function"
    },
    {
      "inputs": [
        {
          "internalType": "uint256",
          "name": "timepoint",
          "type": "uint256"
        }
      ],
      "name": "quorumNumerator",
      "outputs": [
        {
          "internalType": "uint256",
          "name": "",
          "type": "uint256"
        }
      ],
      "stateMutability": "view",
      "type": "function"
    },
    {
      "inputs": [],
      "name": "quorumNumerator",
      "outputs": [
        {
          "internalType": "uint256",
          "name": "",
          "type": "uint256"
        }
      ],
      "stateMutability": "view",
      "type": "function"
    },
    {
      "inputs": [
        {
          "internalType": "address",
          "name": "target",
          "type": "address"
        },
        {
          "internalType": "uint256",
          "name": "value",
          "type": "uint256"
        },
        {
          "internalType": "bytes",
          "name": "data",
          "type": "bytes"
        }
      ],
      "name": "relay",
      "outputs": [],
      "stateMutability": "payable",
      "type": "function"
    },
    {
      "inputs": [
        {
          "internalType": "uint256",
          "name": "newProposalThreshold",
          "type": "uint256"
        }
      ],
      "name": "setProposalThreshold",
      "outputs": [],
      "stateMutability": "nonpayable",
      "type": "function"
    },
    {
      "inputs": [
        {
          "internalType": "uint48",
          "name": "newVotingDelay",
          "type": "uint48"
        }
      ],
      "name": "setVotingDelay",
      "outputs": [],
      "stateMutability": "nonpayable",
      "type": "function"
    },
    {
      "inputs": [
        {
          "internalType": "uint32",
          "name": "newVotingPeriod",
          "type": "uint32"
        }
      ],
      "name": "setVotingPeriod",
      "outputs": [],
      "stateMutability": "nonpayable",
      "type": "function"
    },
    {
      "inputs": [
        {
          "internalType": "uint256",
          "name": "proposalId",
          "type": "uint256"
        }
      ],
      "name": "state",
      "outputs": [
        {
          "internalType": "enum IGovernor.ProposalState",
          "name": "",
          "type": "uint8"
        }
      ],
      "stateMutability": "view",
      "type": "function"
    },
    {
      "inputs": [
        {
          "internalType": "bytes4",
          "name": "interfaceId",
          "type": "bytes4"
        }
      ],
      "name": "supportsInterface",
      "outputs": [
        {
          "internalType": "bool",
          "name": "",
          "type": "bool"
        }
      ],
      "stateMutability": "view",
      "type": "function"
    },
    {
      "inputs": [],
      "name": "timelock",
      "outputs": [
        {
          "internalType": "address",
          "name": "",
          "type": "address"
        }
      ],
      "stateMutability": "view",
      "type": "function"
    },
    {
      "inputs": [],
      "name": "token",
      "outputs": [
        {
          "internalType": "contract IERC5805",
          "name": "",
          "type": "address"
        }
      ],
      "stateMutability": "view",
      "type": "function"
    },
    {
      "inputs": [
        {
          "internalType": "uint256",
          "name": "newQuorumNumerator",
          "type": "uint256"
        }
      ],
      "name": "updateQuorumNumerator",
      "outputs": [],
      "stateMutability": "nonpayable",
      "type": "function"
    },
    {
      "inputs": [
        {
          "internalType": "contract ICompoundTimelock",
          "name": "newTimelock",
          "type": "address"
        }
      ],
      "name": "updateTimelock",
      "outputs": [],
      "stateMutability": "nonpayable",
      "type": "function"
    },
    {
      "inputs": [],
      "name": "version",
      "outputs": [
        {
          "internalType": "string",
          "name": "",
          "type": "string"
        }
      ],
      "stateMutability": "view",
      "type": "function"
    },
    {
      "inputs": [],
      "name": "votingDelay",
      "outputs": [
        {
          "internalType": "uint256",
          "name": "",
          "type": "uint256"
        }
      ],
      "stateMutability": "view",
      "type": "function"
    },
    {
      "inputs": [],
      "name": "votingPeriod",
      "outputs": [
        {
          "internalType": "uint256",
          "name": "",
          "type": "uint256"
        }
      ],
      "stateMutability": "view",
      "type": "function"
    },
    {
      "stateMutability": "payable",
      "type": "receive"
    }
  ],
  "bytecode": "0x61018060405260405162006047380380620060478339810160408190526200002791620007fe565b8082848888888c806200004e6040805180820190915260018152603160f81b602082015290565b6200005a825f6200016e565b610120526200006b8160016200016e565b61014052815160208084019190912060e052815190820120610100524660a052620000f860e05161010051604080517f8b73c3c69bb8fe3d512ecc4cf759cc79239f7b179b0ffacaa9a75d522b39400f60208201529081019290925260608201524660808201523060a08201525f9060c00160405160208183030381529060405280519060200120905090565b60805250503060c05260036200010f82826200099a565b506200011d905083620001a6565b62000128826200020c565b6200013381620002b1565b5050506200014781620002f260201b60201c565b506001600160a01b03166101605262000160816200037a565b505050505050505062000af6565b5f6020835110156200018d5762000185836200042b565b9050620001a0565b816200019a84826200099a565b5060ff90505b92915050565b6008546040805165ffffffffffff928316815291831660208301527fc565b045403dc03c2eea82b81a0465edad9e2e7fc4d97e11421c209da93d7a93910160405180910390a16008805465ffffffffffff191665ffffffffffff92909216919091179055565b8063ffffffff165f036200023a5760405163f1cfbf0560e01b81525f60048201526024015b60405180910390fd5b6008546040805163ffffffff66010000000000009093048316815291831660208301527f7e3f7f0708a84de9203036abaa450dccc85ad5ff52f78c170f3edb55cf5e8828910160405180910390a16008805463ffffffff90921666010000000000000263ffffffff60301b19909216919091179055565b60075460408051918252602082018390527fccb45da8d5717e6c4544694297c4ba5cf151d455c9bb0ed4fc7a38411bc05461910160405180910390a1600755565b600854604080516001600160a01b036a01000000000000000000009093048316815291831660208301527f08f74ea46ef7894f65eabfb5e6e695de773a000b47c529ab559178069b226401910160405180910390a1600880546001600160a01b039092166a010000000000000000000002600160501b600160f01b0319909216919091179055565b606480821115620003a95760405163243e544560e01b8152600481018390526024810182905260440162000231565b5f620003b46200046d565b9050620003eb620003d6620003c862000488565b65ffffffffffff1662000503565b620003e18562000539565b600a91906200056e565b505060408051828152602081018590527f0553476bf02ef2726e8ce5ced78d63e26e602e4a2257b1f559418e24b4633997910160405180910390a1505050565b5f80829050601f8151111562000458578260405163305a27a960e01b815260040162000231919062000a62565b8051620004658262000a96565b179392505050565b5f6200047a600a6200058a565b6001600160e01b0316905090565b5f610160516001600160a01b03166391ddadf46040518163ffffffff1660e01b8152600401602060405180830381865afa925050508015620004e9575060408051601f3d908101601f19168201909252620004e69181019062000aba565b60015b620004fe57620004f943620005d5565b905090565b919050565b5f63ffffffff82111562000535576040516306dfcc6560e41b8152602060048201526024810183905260440162000231565b5090565b5f6001600160e01b0382111562000535576040516306dfcc6560e41b815260e060048201526024810183905260440162000231565b5f806200057d85858562000609565b915091505b935093915050565b80545f908015620005cc57620005b483620005a760018462000ad6565b5f91825260209091200190565b5464010000000090046001600160e01b0316620005ce565b5f5b9392505050565b5f65ffffffffffff82111562000535576040516306dfcc6560e41b8152603060048201526024810183905260440162000231565b82545f90819080156200072b575f6200062987620005a760018562000ad6565b60408051808201909152905463ffffffff8082168084526401000000009092046001600160e01b0316602084015291925090871610156200067d57604051632520601d60e01b815260040160405180910390fd5b805163ffffffff808816911603620006cb5784620006a288620005a760018662000ad6565b80546001600160e01b03929092166401000000000263ffffffff9092169190911790556200071a565b6040805180820190915263ffffffff80881682526001600160e01b0380881660208085019182528b54600181018d555f8d81529190912094519151909216640100000000029216919091179101555b602001519250839150620005829050565b50506040805180820190915263ffffffff80851682526001600160e01b0380851660208085019182528854600181018a555f8a81529182209551925190931664010000000002919093161792019190915590508162000582565b634e487b7160e01b5f52604160045260245ffd5b5f5b83811015620007b55781810151838201526020016200079b565b50505f910152565b805165ffffffffffff81168114620004fe575f80fd5b805163ffffffff81168114620004fe575f80fd5b80516001600160a01b0381168114620004fe575f80fd5b5f805f805f805f60e0888a03121562000815575f80fd5b87516001600160401b03808211156200082c575f80fd5b818a0191508a601f83011262000840575f80fd5b81518181111562000855576200085562000785565b604051601f8201601f19908116603f0116810190838211818310171562000880576200088062000785565b816040528281528d602084870101111562000899575f80fd5b620008ac83602083016020880162000799565b809b505050505050620008c260208901620007bd565b9550620008d260408901620007d3565b945060608801519350620008e960808901620007e7565b9250620008f960a08901620007e7565b915060c0880151905092959891949750929550565b600181811c908216806200092357607f821691505b6020821081036200094257634e487b7160e01b5f52602260045260245ffd5b50919050565b601f82111562000995575f81815260208120601f850160051c81016020861015620009705750805b601f850160051c820191505b8181101562000991578281556001016200097c565b5050505b505050565b81516001600160401b03811115620009b657620009b662000785565b620009ce81620009c784546200090e565b8462000948565b602080601f83116001811462000a04575f8415620009ec5750858301515b5f19600386901b1c1916600185901b17855562000991565b5f85815260208120601f198616915b8281101562000a345788860151825594840194600190910190840162000a13565b508582101562000a5257878501515f19600388901b60f8161c191681555b5050505050600190811b01905550565b602081525f825180602084015262000a8281604085016020870162000799565b601f01601f19169190910160400192915050565b8051602080830151919081101562000942575f1960209190910360031b1b16919050565b5f6020828403121562000acb575f80fd5b620005ce82620007bd565b81810381811115620001a057634e487b7160e01b5f52601160045260245ffd5b60805160a05160c05160e051610100516101205161014051610160516154d962000b6e5f395f8181610e1b0152818161167b01528181612069015281816130ce015261339901525f61291d01525f6128cf01525f612e9e01525f612e7601525f612dd101525f612dfb01525f612e2501526154d95ff3fe60806040526004361061042f575f3560e01c8063723529451161022b578063c01f9e3711610129578063dd4e2ba5116100b3578063ece40cc111610078578063ece40cc114610dad578063f23a6e6114610dcc578063f8ce560a14610deb578063fc0c546a14610e0a578063fc2e6e3c14610e3d575f80fd5b8063dd4e2ba514610cd8578063deaaa7cc14610d1d578063e540d01d14610d50578063e7fadc1614610d6f578063eb9019d414610d8e575f80fd5b8063cbc1c5f3116100f9578063cbc1c5f314610c38578063d33219b414610c57578063da1c08ff14610c7b578063daf80f5f14610c9a578063dc0e43d214610cb9575f80fd5b8063c01f9e3714610bc8578063c242bfc714610be7578063c28bc2fa14610c06578063c59057e414610c19575f80fd5b80639a802a6d116101b5578063a890c9101161017a578063a890c91014610b37578063ab58fb8e14610b56578063b58131b014610b81578063b9a6196114610b95578063bc197c8114610ba9575f80fd5b80639a802a6d14610aa75780639e3db5e914610ac6578063a15697c414610ae5578063a4da590b14610b04578063a7713a7014610b23575f80fd5b80637ecebe00116101fb5780637ecebe00146109ef57806384b0196e14610a235780638ff262e314610a4a57806391ddadf414610a6957806397c3d33414610a94575f80fd5b8063723529451461097357806379051887146109925780637b3c71d3146109b15780637d5e81e2146109d0575f80fd5b80633932abb11161033857806354dc7b41116102c25780635f398a14116102875780635f398a14146108e35780635f8d5e741461090257806360c4247f146109165780636b2f5df0146109355780636b4ac50214610954575f80fd5b806354dc7b411461084957806354fd4d501461086857806356781388146108915780635b8d0e0d146108b05780635c501ba8146108cf575f80fd5b80634724aa99116103085780634724aa99146107905780634abf4684146107a45780634bf5d7e9146107c3578063506a6f0c146107d7578063544ffc9c146107f6575f80fd5b80633932abb1146106e15780633e4f49e6146106fd5780634385963214610729578063452115d614610771575f80fd5b8063174ccd82116103b95780632e8fbee5116103895780632e8fbee5146106375780632fe3e2611461065657806332cadf3c1461068957806332f4dd991461069d578063342db739146106bc575f80fd5b8063174ccd82146105df5780632656227d146105f35780632904df29146106065780632d63f69314610618575f80fd5b80630ede0bea116103ff5780630ede0bea146105095780631164d13b14610528578063143489d01461053c578063150b7a0214610588578063160cbed7146105c0575f80fd5b806301ffc9a71461046a57806302a251a31461049e57806306f3f9e6146104c957806306fdde03146104e8575f80fd5b36610466573061043d610e5c565b6001600160a01b03161461046457604051637485328f60e11b815260040160405180910390fd5b005b5f80fd5b348015610475575f80fd5b506104896104843660046141a1565b610e77565b60405190151581526020015b60405180910390f35b3480156104a9575f80fd5b50600854600160301b900463ffffffff165b604051908152602001610495565b3480156104d4575f80fd5b506104646104e33660046141c8565b610e87565b3480156104f3575f80fd5b506104fc610f1b565b604051610495919061422c565b348015610514575f80fd5b5061046461052336600461423e565b610fab565b348015610533575f80fd5b506104fc610fb4565b348015610547575f80fd5b506105706105563660046141c8565b5f908152600460205260409020546001600160a01b031690565b6040516001600160a01b039091168152602001610495565b348015610593575f80fd5b506105a76105a2366004614338565b610fbe565b6040516001600160e01b03199091168152602001610495565b3480156105cb575f80fd5b506104bb6105da366004614513565b611000565b3480156105ea575f80fd5b506104fc61133e565b6104bb610601366004614513565b611348565b348015610611575f80fd5b5033610570565b348015610623575f80fd5b506104bb6106323660046141c8565b611459565b348015610642575f80fd5b506104bb61065136600461459c565b611479565b348015610661575f80fd5b506104bb7f3e83946653575f9a39005e1545185629e92736b7528ab20ca3816f315424a81181565b348015610694575f80fd5b506104fc6114c3565b3480156106a8575f80fd5b506104bb6106b736600461460b565b611500565b3480156106c7575f80fd5b506104bb6e1a185c991a185d0b595e1c1bdcd959608a1b81565b3480156106ec575f80fd5b5060085465ffffffffffff166104bb565b348015610708575f80fd5b5061071c6107173660046141c8565b6115bb565b60405161049591906146d4565b348015610734575f80fd5b506104896107433660046146e2565b5f828152600b602090815260408083206001600160a01b038516845260030190915290205460ff1692915050565b34801561077c575f80fd5b506104bb61078b366004614513565b6115c5565b34801561079b575f80fd5b50610570611653565b3480156107af575f80fd5b506104896107be3660046141c8565b61165c565b3480156107ce575f80fd5b506104fc611677565b3480156107e2575f80fd5b506104bb6107f13660046141c8565b611737565b348015610801575f80fd5b5061082e6108103660046141c8565b5f908152600b60205260409020805460018201546002909201549092565b60408051938452602084019290925290820152606001610495565b348015610854575f80fd5b50610489610863366004614710565b611741565b348015610873575f80fd5b506040805180820190915260018152603160f81b60208201526104fc565b34801561089c575f80fd5b506104bb6108ab366004614760565b611789565b3480156108bb575f80fd5b506104bb6108ca36600461478a565b6117a8565b3480156108da575f80fd5b506104fc6118e7565b3480156108ee575f80fd5b506104bb6108fd36600461483c565b6118fd565b34801561090d575f80fd5b506104bb611945565b348015610921575f80fd5b506104bb6109303660046141c8565b61194e565b348015610940575f80fd5b506104bb61094f3660046148f9565b6119eb565b34801561095f575f80fd5b506104bb61096e366004614993565b611a97565b34801561097e575f80fd5b506104bb61098d3660046149bd565b611ae3565b34801561099d575f80fd5b506104646109ac366004614a3b565b611b69565b3480156109bc575f80fd5b506104bb6109cb366004614a56565b611bd4565b3480156109db575f80fd5b506104bb6109ea366004614aab565b611c24565b3480156109fa575f80fd5b506104bb610a0936600461459c565b6001600160a01b03165f9081526002602052604090205490565b348015610a2e575f80fd5b50610a37611f72565b6040516104959796959493929190614b90565b348015610a55575f80fd5b506104bb610a64366004614bff565b611fb4565b348015610a74575f80fd5b50610a7d612066565b60405165ffffffffffff9091168152602001610495565b348015610a9f575f80fd5b5060646104bb565b348015610ab2575f80fd5b506104bb610ac1366004614c4c565b6120ee565b348015610ad1575f80fd5b50610464610ae03660046141c8565b610f0f565b348015610af0575f80fd5b506104bb610aff366004614ca0565b612101565b348015610b0f575f80fd5b50610464610b1e366004614cbe565b61210b565b348015610b2e575f80fd5b506104bb61218e565b348015610b42575f80fd5b50610464610b5136600461459c565b6121a7565b348015610b61575f80fd5b506104bb610b703660046141c8565b5f9081526009602052604090205490565b348015610b8c575f80fd5b506104bb612212565b348015610ba0575f80fd5b5061046461221c565b348015610bb4575f80fd5b506105a7610bc3366004614d60565b612281565b348015610bd3575f80fd5b506104bb610be23660046141c8565b6122c4565b348015610bf2575f80fd5b50610464610c01366004614dec565b612306565b610464610c14366004614e60565b612350565b348015610c24575f80fd5b506104bb610c33366004614513565b612426565b348015610c43575f80fd5b506104bb610c52366004614e60565b61245f565b348015610c62575f80fd5b50600854600160501b90046001600160a01b0316610570565b348015610c86575f80fd5b50610464610c95366004614cbe565b6124a9565b348015610ca5575f80fd5b50610489610cb43660046141c8565b612522565b348015610cc4575f80fd5b50610464610cd3366004614cbe565b61252c565b348015610ce3575f80fd5b506040805180820190915260208082527f737570706f72743d627261766f2671756f72756d3d666f722c6162737461696e908201526104fc565b348015610d28575f80fd5b506104bb7ff2aad550cf55f045cb27e9c559f9889fdfb6e6cdaa032301d6ea397784ae51d781565b348015610d5b575f80fd5b50610464610d6a36600461423e565b6125a5565b348015610d7a575f80fd5b50610464610d89366004614a3b565b611bcb565b348015610d99575f80fd5b506104bb610da8366004614993565b61260f565b348015610db8575f80fd5b50610464610dc73660046141c8565b61262e565b348015610dd7575f80fd5b506105a7610de6366004614e9f565b612699565b348015610df6575f80fd5b506104bb610e053660046141c8565b6126dc565b348015610e15575f80fd5b506105707f000000000000000000000000000000000000000000000000000000000000000081565b348015610e48575f80fd5b50610464610e573660046141c8565b612690565b600854600160501b90046001600160a01b031690565b905090565b5f610e81826126e6565b92915050565b33610e90610e5c565b6001600160a01b031614610eca57335b6040516347096e4760e01b81526001600160a01b0390911660048201526024015b60405180910390fd5b30610ed3610e5c565b6001600160a01b031614610f0f575f8036604051610ef2929190614f02565b604051809103902090505b80610f08600561270a565b03610efd57505b610f1881612787565b50565b606060038054610f2a90614f11565b80601f0160208091040260200160405190810160405280929190818152602001828054610f5690614f11565b8015610fa15780601f10610f7857610100808354040283529160200191610fa1565b820191905f5260205f20905b815481529060010190602001808311610f8457829003601f168201915b5050505050905090565b610f188161282c565b6060610e726128c8565b5f30610fc8610e5c565b6001600160a01b031614610fef57604051637485328f60e11b815260040160405180910390fd5b50630a85bd0160e11b949350505050565b5f8061100e86868686612426565b90505f61101a826115bb565b90506004816007811115611030576110306146a0565b1461105d57818161104160046128f4565b6040516331b75e4d60e01b8152600401610ec193929190614f49565b5f6008600a9054906101000a90046001600160a01b03166001600160a01b0316636a42b8f86040518163ffffffff1660e01b8152600401602060405180830381865afa1580156110af573d5f803e3d5ffd5b505050506040513d601f19601f820116820180604052508101906110d39190614f6b565b6110dd9042614f96565b5f8481526009602052604081208290559091505b88518110156112f7576008600a9054906101000a90046001600160a01b03166001600160a01b031663f2b065378a838151811061113057611130614fa9565b60200260200101518a848151811061114a5761114a614fa9565b60200260200101518a858151811061116457611164614fa9565b6020026020010151866040516020016111809493929190614fbd565b604051602081830303815290604052805190602001206040518263ffffffff1660e01b81526004016111b491815260200190565b602060405180830381865afa1580156111cf573d5f803e3d5ffd5b505050506040513d601f19601f820116820180604052508101906111f39190615001565b156112145760405163f20e7d3760e01b815260048101859052602401610ec1565b6008600a9054906101000a90046001600160a01b03166001600160a01b0316633a66f9018a838151811061124a5761124a614fa9565b60200260200101518a848151811061126457611264614fa9565b60200260200101518a858151811061127e5761127e614fa9565b6020026020010151866040518563ffffffff1660e01b81526004016112a69493929190614fbd565b6020604051808303815f875af11580156112c2573d5f803e3d5ffd5b505050506040513d601f19601f820116820180604052508101906112e69190614f6b565b506112f081615020565b90506110f1565b5060408051848152602081018390527f9a2e42fd6722813d69113e7d0079d3d940171428df7373df9c7f7617cfda289291015b60405180910390a150909695505050505050565b6060610e72612916565b5f8061135686868686612426565b90505f611362826115bb565b90506004816007811115611378576113786146a0565b1415801561139857506005816007811115611395576113956146a0565b14155b156113d05781816113a960056128f4565b6113b360046128f4565b176040516331b75e4d60e01b8152600401610ec193929190614f49565b5f8281526004602052604090819020805460ff60f01b1916600160f01b179055517f712ae1383f79ac853f8d882153778e0260ef8f03b504e2866e0593e04d2b291f906114209084815260200190565b60405180910390a16114358288888888612943565b61144282888888886129e2565b61144f82888888886129ef565b5095945050505050565b5f90815260046020526040902054600160a01b900465ffffffffffff1690565b5f61148382612a27565b90507f8d5c13b1cd528a3e1895fdc833368c4e3af5391250c736a28e94c4fa59b3cee4816040516114b691815260200190565b60405180910390a1919050565b60605f368080601f0160208091040260200160405190810160405280939291908181526020018383808284375f9201919091525092949350505050565b5f61157588888888888080601f0160208091040260200160405190810160405280939291908181526020018383808284375f9201919091525050604080516020601f8c018190048102820181019092528a815292508a91508990819084018382808284375f92019190915250612a4992505050565b90507fbbc294ee3436818a3742886cdeae66253f76b5be8870371c691fc6998bd341d5816040516115a891815260200190565b60405180910390a1979650505050505050565b5f610e8182612b46565b5f806115d386868686612426565b90505f6115df826115bb565b90505f8160078111156115f4576115f46146a0565b146116045781816110415f6128f4565b5f828152600460205260409020546001600160a01b0316331461163c5760405163233d98e360e01b8152336004820152602401610ec1565b61164887878787612c28565b979650505050505050565b5f610e72610e5c565b5f818152600b60205260408120805460019091015411610e81565b60607f00000000000000000000000000000000000000000000000000000000000000006001600160a01b0316634bf5d7e96040518163ffffffff1660e01b81526004015f60405180830381865afa9250505080156116f657506040513d5f823e601f3d908101601f191682016040526116f39190810190615066565b60015b611732575060408051808201909152601d81527f6d6f64653d626c6f636b6e756d6265722666726f6d3d64656661756c74000000602082015290565b919050565b5f610e8182612c35565b5f6117818484848080601f0160208091040260200160405190810160405280939291908181526020018383808284375f92019190915250612c6192505050565b949350505050565b5f8033905061178184828560405180602001604052805f815250612d4f565b5f8061186c876118667f3e83946653575f9a39005e1545185629e92736b7528ab20ca3816f315424a8118c8c8c6117de8e612a27565b8d8d6040516117ee929190614f02565b60405180910390208c8051906020012060405160200161184b9796959493929190968752602087019590955260ff9390931660408601526001600160a01b03919091166060850152608084015260a083015260c082015260e00190565b60405160208183030381529060405280519060200120612c35565b85612d70565b905080611897576040516394ab6c0760e01b81526001600160a01b0388166004820152602401610ec1565b6118da89888a89898080601f0160208091040260200160405190810160405280939291908181526020018383808284375f920191909152508b9250612a49915050565b9998505050505050505050565b6060610e7260408051602081019091525f815290565b5f8033905061164887828888888080601f0160208091040260200160405190810160405280939291908181526020018383808284375f920191909152508a9250612a49915050565b5f610e72612dc5565b600a80545f9182906119616001846150aa565b8154811061197157611971614fa9565b5f9182526020918290206040805180820190915291015463ffffffff8116808352600160201b9091046001600160e01b031692820192909252915084106119c657602001516001600160e01b03169392505050565b6119da6119d285612eee565b600a90612f22565b6001600160e01b0316949350505050565b5f611a648888808060200260200160405190810160405280939291908181526020018383602002808284375f9201919091525050604080516020808c0282810182019093528b82529093508b92508a9182918501908490808284375f92019190915250611a5e92508891508990506150bd565b85612c28565b90507f1e0d283ef767dcb5f9efcfe0fbcac2701275d0c54fc3493502558dc018cc3ba2816040516115a891815260200190565b5f611aa28383612fcf565b90507f173c6dfbda204d89ae7b46789365591384ef0c959833564582f96cd15f445b9b81604051611ad591815260200190565b60405180910390a192915050565b5f611b2586868686868080601f0160208091040260200160405190810160405280939291908181526020018383808284375f92019190915250612d4f92505050565b90507fdbf058c917126a478393ed3aa13dcdc461cc19db88c176507846e6f69ca627f981604051611b5891815260200190565b60405180910390a195945050505050565b33611b72610e5c565b6001600160a01b031614611b865733610ea0565b30611b8f610e5c565b6001600160a01b031614611bcb575f8036604051611bae929190614f02565b604051809103902090505b80611bc4600561270a565b03611bb957505b610f188161300e565b5f80339050611c1a86828787878080601f0160208091040260200160405190810160405280939291908181526020018383808284375f92019190915250612d4f92505050565b9695505050505050565b5f33611c308184612c61565b611c7c5760405162461bcd60e51b815260206004820152601d60248201527f476f7665726e6f723a2070726f706f73657220726573747269637465640000006044820152606401610ec1565b5f611c85612066565b65ffffffffffff1690505f611c9f83610da86001856150aa565b90505f611caa612212565b905080821015611ce657604051636121770b60e11b81526001600160a01b03851660048201526024810183905260448101829052606401610ec1565b50505f611cfc8888888880519060200120612426565b905086518851141580611d1157508551885114155b80611d1b57508751155b15611d5057875186518851604051630447b05d60e41b8152600481019390935260248301919091526044820152606401610ec1565b5f81815260046020526040902054600160a01b900465ffffffffffff1615611d995780611d7c826115bb565b6040516331b75e4d60e01b8152610ec19291905f90600401614f49565b5f611dab60085465ffffffffffff1690565b611db59084614f96565b90505f611dcf60085463ffffffff600160301b9091041690565b90506040518060a00160405280866001600160a01b03168152602001611df484613074565b65ffffffffffff168152602001611e0a83612eee565b63ffffffff90811682525f60208084018290526040938401829052878252600481529083902084518154928601519486015160608701516080909701511515600160f81b026001600160f81b03971515600160f01b0260ff60f01b1992909616600160d01b029190911664ffffffffff60d01b1965ffffffffffff909716600160a01b026001600160d01b03199095166001600160a01b0390931692909217939093179490941693909317919091179290921691909117905589517f7d84a6263ae0d98d3329bd7b46bb4e8d6f98cd35a7adb45c274c8b7fd5ebd5e090849087908d908d906001600160401b03811115611f0657611f06614275565b604051908082528060200260200182016040528015611f3957816020015b6060815260200190600190039081611f245790505b508d88611f468982614f96565b8f604051611f5c99989796959493929190615153565b60405180910390a1509098975050505050505050565b5f6060805f805f6060611f836128c8565b611f8b612916565b604080515f80825260208201909252600f60f81b9b939a50919850469750309650945092509050565b5f80612021846118667ff2aad550cf55f045cb27e9c559f9889fdfb6e6cdaa032301d6ea397784ae51d7898989611fea8b612a27565b60408051602081019690965285019390935260ff90911660608401526001600160a01b0316608083015260a082015260c00161184b565b90508061204c576040516394ab6c0760e01b81526001600160a01b0385166004820152602401610ec1565b611c1a86858760405180602001604052805f815250612d4f565b5f7f00000000000000000000000000000000000000000000000000000000000000006001600160a01b03166391ddadf46040518163ffffffff1660e01b8152600401602060405180830381865afa9250505080156120e1575060408051601f3d908101601f191682019092526120de91810190615228565b60015b61173257610e7243613074565b5f6117818484846130a6565b9392505050565b5f610e81826128f4565b612184888888808060200260200160405190810160405280939291908181526020018383602002808284375f9201919091525050604080516020808c0282810182019093528b82529093508b92508a9182918501908490808284375f9201919091525061217e92508891508990506150bd565b856129ef565b5050505050505050565b5f612199600a613139565b6001600160e01b0316905090565b336121b0610e5c565b6001600160a01b0316146121c45733610ea0565b306121cd610e5c565b6001600160a01b031614612209575f80366040516121ec929190614f02565b604051809103902090505b80612202600561270a565b036121f757505b610f1881613170565b5f610e7260075490565b6008600a9054906101000a90046001600160a01b03166001600160a01b0316630e18b6816040518163ffffffff1660e01b81526004015f604051808303815f87803b158015612269575f80fd5b505af115801561227b573d5f803e3d5ffd5b50505050565b5f3061228b610e5c565b6001600160a01b0316146122b257604051637485328f60e11b815260040160405180910390fd5b5063bc197c8160e01b95945050505050565b5f818152600460205260408120546122f890600160d01b810463ffffffff1690600160a01b900465ffffffffffff16615243565b65ffffffffffff1692915050565b6123488686868686868080601f0160208091040260200160405190810160405280939291908181526020018383808284375f920191909152506131ff92505050565b505050505050565b33612359610e5c565b6001600160a01b03161461236d5733610ea0565b30612376610e5c565b6001600160a01b0316146123b2575f8036604051612395929190614f02565b604051809103902090505b806123ab600561270a565b036123a057505b5f80856001600160a01b03168585856040516123cf929190614f02565b5f6040518083038185875af1925050503d805f8114612409576040519150601f19603f3d011682016040523d82523d5f602084013e61240e565b606091505b509150915061241d82826132f1565b50505050505050565b5f8484848460405160200161243e9493929190615269565b60408051601f19818403018152919052805160209091012095945050505050565b5f6124a0858585858080601f0160208091040260200160405190810160405280939291908181526020018383808284375f920191909152506130a692505050565b95945050505050565b612184888888808060200260200160405190810160405280939291908181526020018383602002808284375f9201919091525050604080516020808c0282810182019093528b82529093508b92508a9182918501908490808284375f9201919091525061251c92508891508990506150bd565b85612943565b5f610e8182613300565b612184888888808060200260200160405190810160405280939291908181526020018383602002808284375f9201919091525050604080516020808c0282810182019093528b82529093508b92508a9182918501908490808284375f9201919091525061259f92508891508990506150bd565b856129e2565b336125ae610e5c565b6001600160a01b0316146125c25733610ea0565b306125cb610e5c565b6001600160a01b031614610fab575f80366040516125ea929190614f02565b604051809103902090505b80612600600561270a565b036125f55750610f188161282c565b5f6120fa838361262960408051602081019091525f815290565b6130a6565b33612637610e5c565b6001600160a01b03161461264b5733610ea0565b30612654610e5c565b6001600160a01b031614612690575f8036604051612673929190614f02565b604051809103902090505b80612689600561270a565b0361267e57505b610f1881613336565b5f306126a3610e5c565b6001600160a01b0316146126ca57604051637485328f60e11b815260040160405180910390fd5b5063f23a6e6160e01b95945050505050565b5f610e8182613377565b5f6001600160e01b03198216636e665ced60e01b1480610e815750610e818261341e565b5f6127248254600f81810b600160801b909204900b131590565b15612742576040516375e52f4f60e01b815260040160405180910390fd5b508054600f0b5f818152600180840160205260408220805492905583546fffffffffffffffffffffffffffffffff191692016001600160801b03169190911790915590565b6064808211156127b45760405163243e544560e01b81526004810183905260248101829052604401610ec1565b5f6127bd61218e565b90506127ec6127da6127cd612066565b65ffffffffffff16612eee565b6127e3856134b9565b600a91906134ec565b505060408051828152602081018590527f0553476bf02ef2726e8ce5ced78d63e26e602e4a2257b1f559418e24b4633997910160405180910390a1505050565b8063ffffffff165f036128545760405163f1cfbf0560e01b81525f6004820152602401610ec1565b6008546040805163ffffffff600160301b9093048316815291831660208301527f7e3f7f0708a84de9203036abaa450dccc85ad5ff52f78c170f3edb55cf5e8828910160405180910390a16008805463ffffffff909216600160301b0269ffffffff00000000000019909216919091179055565b6060610e727f00000000000000000000000000000000000000000000000000000000000000005f613506565b5f816007811115612907576129076146a0565b600160ff919091161b92915050565b6060610e727f00000000000000000000000000000000000000000000000000000000000000006001613506565b3061294c610e5c565b6001600160a01b0316146129db575f5b845181101561234857306001600160a01b031685828151811061298157612981614fa9565b60200260200101516001600160a01b0316036129cb576129cb8382815181106129ac576129ac614fa9565b60200260200101518051906020012060056135af90919063ffffffff16565b6129d481615020565b905061295c565b5050505050565b6129db85858585856135ea565b306129f8610e5c565b6001600160a01b0316146129db57600554600f81810b600160801b909204900b13156129db575f6005556129db565b6001600160a01b03165f90815260026020526040902080546001810190915590565b5f80612a54876115bb565b90506001816007811115612a6a57612a6a6146a0565b14612a7b57868161104160016128f4565b5f612a8f87612a898a611459565b866130a6565b9050612a9e88888884886131ff565b83515f03612af257866001600160a01b03167fb8e138887d0aa13bab447e82de9d5c1777041ecd21ca36ba824ff1e6c07ddda489888489604051612ae594939291906152b3565b60405180910390a2611648565b866001600160a01b03167fe2babfbac5889a709b63bb7f598b324e08bc5a4fb9ec647fb3cbc9ec07eb87128988848989604051612b339594939291906152da565b60405180910390a2979650505050505050565b5f80612b5183613729565b90506004816007811115612b6757612b676146a0565b14612b725792915050565b5f8381526009602052604081205490819003612b8f575092915050565b6008600a9054906101000a90046001600160a01b03166001600160a01b031663c1a287e26040518163ffffffff1660e01b8152600401602060405180830381865afa158015612be0573d5f803e3d5ffd5b505050506040513d601f19601f82011682018060405250810190612c049190614f6b565b612c0e9082614f96565b4210612c1e575060069392505050565b5060059392505050565b5f6124a085858585613873565b5f610e81612c41612dc5565b8360405161190160f01b8152600281019290925260228201526042902090565b80515f906034811015612c78576001915050610e81565b82810160131901516001600160a01b031981166b046e0e4dee0dee6cae47a60f60a31b14612cab57600192505050610e81565b5f80612cb86028856150aa565b90505b83811015612d2e575f80612cee888481518110612cda57612cda614fa9565b01602001516001600160f81b03191661398e565b9150915081612d065760019650505050505050610e81565b8060ff166004856001600160a01b0316901b179350505080612d2790615020565b9050612cbb565b50856001600160a01b0316816001600160a01b031614935050505092915050565b5f6124a085858585612d6b60408051602081019091525f815290565b612a49565b5f805f612d7d8585613a1e565b5090925090505f816003811115612d9657612d966146a0565b148015612db45750856001600160a01b0316826001600160a01b0316145b80611c1a5750611c1a868686613a67565b5f306001600160a01b037f000000000000000000000000000000000000000000000000000000000000000016148015612e1d57507f000000000000000000000000000000000000000000000000000000000000000046145b15612e4757507f000000000000000000000000000000000000000000000000000000000000000090565b610e72604080517f8b73c3c69bb8fe3d512ecc4cf759cc79239f7b179b0ffacaa9a75d522b39400f60208201527f0000000000000000000000000000000000000000000000000000000000000000918101919091527f000000000000000000000000000000000000000000000000000000000000000060608201524660808201523060a08201525f9060c00160405160208183030381529060405280519060200120905090565b5f63ffffffff821115612f1e576040516306dfcc6560e41b81526020600482015260248101839052604401610ec1565b5090565b81545f9081816005811115612f7c575f612f3b84613b3d565b612f4590856150aa565b5f8881526020902090915081015463ffffffff9081169087161015612f6c57809150612f7a565b612f77816001614f96565b92505b505b5f612f8987878585613c21565b90508015612fc357612fad87612fa06001846150aa565b5f91825260209091200190565b54600160201b90046001600160e01b0316611648565b5f979650505050505050565b5f80612fda84612a27565b90508083146120fa576040516301d4b62360e61b81526001600160a01b038516600482015260248101829052604401610ec1565b6008546040805165ffffffffffff928316815291831660208301527fc565b045403dc03c2eea82b81a0465edad9e2e7fc4d97e11421c209da93d7a93910160405180910390a16008805465ffffffffffff191665ffffffffffff92909216919091179055565b5f65ffffffffffff821115612f1e576040516306dfcc6560e41b81526030600482015260248101839052604401610ec1565b604051630748d63560e31b81526001600160a01b038481166004830152602482018490525f917f000000000000000000000000000000000000000000000000000000000000000090911690633a46b1a890604401602060405180830381865afa158015613115573d5f803e3d5ffd5b505050506040513d601f19601f820116820180604052508101906117819190614f6b565b80545f9080156131685761315283612fa06001846150aa565b54600160201b90046001600160e01b03166120fa565b5f9392505050565b600854604080516001600160a01b03600160501b9093048316815291831660208301527f08f74ea46ef7894f65eabfb5e6e695de773a000b47c529ab559178069b226401910160405180910390a1600880546001600160a01b03909216600160501b027fffff0000000000000000000000000000000000000000ffffffffffffffffffff909216919091179055565b5f858152600b602090815260408083206001600160a01b0388168452600381019092529091205460ff1615613252576040516371c6af4960e01b81526001600160a01b0386166004820152602401610ec1565b6001600160a01b0385165f9081526003820160205260409020805460ff1916600117905560ff841661329b5782815f015f8282546132909190614f96565b909155506123489050565b5f1960ff8516016132b95782816001015f8282546132909190614f96565b60011960ff8516016132d85782816002015f8282546132909190614f96565b6040516303599be160e11b815260040160405180910390fd5b60606120fa8383613c7c613c95565b5f818152600b60205260408120600281015460018201546133219190614f96565b61332d610e0585611459565b11159392505050565b60075460408051918252602082018390527fccb45da8d5717e6c4544694297c4ba5cf151d455c9bb0ed4fc7a38411bc05461910160405180910390a1600755565b5f60646133838361194e565b604051632394e7a360e21b8152600481018590527f00000000000000000000000000000000000000000000000000000000000000006001600160a01b031690638e539e8c90602401602060405180830381865afa1580156133e6573d5f803e3d5ffd5b505050506040513d601f19601f8201168201806040525081019061340a9190614f6b565b613414919061531f565b610e81919061534a565b5f63288ace0360e11b63278d2b9d60e21b630b184e8960e01b63952ce0fd60e01b6001600160e01b0319861682148061346357506001600160e01b0319868116908216145b8061347a57506001600160e01b0319868116908516145b8061349557506001600160e01b03198616630271189760e51b145b80611c1a57506301ffc9a760e01b6001600160e01b03198716149695505050505050565b5f6001600160e01b03821115612f1e576040516306dfcc6560e41b815260e0600482015260248101839052604401610ec1565b5f806134f9858585613cae565b915091505b935093915050565b606060ff83146135205761351983613e1a565b9050610e81565b81805461352c90614f11565b80601f016020809104026020016040519081016040528092919081815260200182805461355890614f11565b80156135a35780601f1061357a576101008083540402835291602001916135a3565b820191905f5260205f20905b81548152906001019060200180831161358657829003601f168201915b50505050509050610e81565b8154600160801b90819004600f0b5f818152600180860160205260409091209390935583546001600160801b03908116939091011602179055565b5f858152600960205260408120549081900361361c5760405163d5ddb82560e01b815260048101879052602401610ec1565b60085461363990600160501b90046001600160a01b031634613e57565b5f5b855181101561241d576008600a9054906101000a90046001600160a01b03166001600160a01b0316630825f38f87838151811061367a5761367a614fa9565b602002602001015187848151811061369457613694614fa9565b60200260200101518785815181106136ae576136ae614fa9565b6020026020010151866040518563ffffffff1660e01b81526004016136d69493929190614fbd565b5f604051808303815f875af11580156136f1573d5f803e3d5ffd5b505050506040513d5f823e601f3d908101601f191682016040526137189190810190615066565b5061372281615020565b905061363b565b5f818152600460209081526040808320815160a08101835290546001600160a01b038116825265ffffffffffff600160a01b8204169382019390935263ffffffff600160d01b8404169181019190915260ff600160f01b830481161580156060840152600160f81b9093041615156080820152906137aa5750600792915050565b8060800151156137bd5750600292915050565b5f6137c784611459565b9050805f036137ec57604051636ad0607560e01b815260048101859052602401610ec1565b5f6137f5612066565b65ffffffffffff16905080821061381057505f949350505050565b5f61381a866122c4565b905081811061382f5750600195945050505050565b61383886613300565b801561385657505f868152600b602052604090208054600190910154115b156138675750600495945050505050565b50600395945050505050565b5f8061388186868686613eef565b5f81815260096020526040902054909150801561144f575f8281526009602052604081208190555b8751811015613982576008600a9054906101000a90046001600160a01b03166001600160a01b031663591fcdfe8983815181106138e8576138e8614fa9565b602002602001015189848151811061390257613902614fa9565b602002602001015189858151811061391c5761391c614fa9565b6020026020010151866040518563ffffffff1660e01b81526004016139449493929190614fbd565b5f604051808303815f87803b15801561395b575f80fd5b505af115801561396d573d5f803e3d5ffd5b505050508061397b90615020565b90506138a9565b50509050949350505050565b5f8060f883901c602f811180156139a85750603a8160ff16105b156139bd57600194602f199091019350915050565b8060ff1660401080156139d3575060478160ff16105b156139e8576001946036199091019350915050565b8060ff1660601080156139fe575060678160ff16105b15613a13576001946056199091019350915050565b505f93849350915050565b5f805f8351604103613a55576020840151604085015160608601515f1a613a4788828585613fd4565b955095509550505050613a60565b505081515f91506002905b9250925092565b5f805f856001600160a01b03168585604051602401613a87929190615369565b60408051601f198184030181529181526020820180516001600160e01b0316630b135d3f60e11b17905251613abc9190615381565b5f60405180830381855afa9150503d805f8114613af4576040519150601f19603f3d011682016040523d82523d5f602084013e613af9565b606091505b5091509150818015613b0d57506020815110155b8015611c1a57508051630b135d3f60e11b90613b329083016020908101908401614f6b565b149695505050505050565b5f815f03613b4c57505f919050565b5f6001613b588461409c565b901c6001901b90506001818481613b7157613b71615336565b048201901c90506001818481613b8957613b89615336565b048201901c90506001818481613ba157613ba1615336565b048201901c90506001818481613bb957613bb9615336565b048201901c90506001818481613bd157613bd1615336565b048201901c90506001818481613be957613be9615336565b048201901c90506001818481613c0157613c01615336565b048201901c90506120fa81828581613c1b57613c1b615336565b0461412f565b5f5b81831015613c74575f613c368484614144565b5f8781526020902090915063ffffffff86169082015463ffffffff161115613c6057809250613c6e565b613c6b816001614f96565b93505b50613c23565b509392505050565b604051630a12f52160e11b815260040160405180910390fd5b60608315613ca45750816120fa565b6120fa838361415e565b82545f9081908015613dc2575f613cca87612fa06001856150aa565b60408051808201909152905463ffffffff808216808452600160201b9092046001600160e01b031660208401529192509087161015613d1c57604051632520601d60e01b815260040160405180910390fd5b805163ffffffff808816911603613d645784613d3d88612fa06001866150aa565b80546001600160e01b0392909216600160201b0263ffffffff909216919091179055613db2565b6040805180820190915263ffffffff80881682526001600160e01b0380881660208085019182528b54600181018d555f8d81529190912094519151909216600160201b029216919091179101555b6020015192508391506134fe9050565b50506040805180820190915263ffffffff80851682526001600160e01b0380851660208085019182528854600181018a555f8a815291822095519251909316600160201b0291909316179201919091559050816134fe565b60605f613e268361417a565b6040805160208082528183019092529192505f91906020820181803683375050509182525060208101929092525090565b80471015613e7a5760405163cd78605960e01b8152306004820152602401610ec1565b5f826001600160a01b0316826040515f6040518083038185875af1925050503d805f8114613ec3576040519150601f19603f3d011682016040523d82523d5f602084013e613ec8565b606091505b5050905080613eea57604051630a12f52160e11b815260040160405180910390fd5b505050565b5f80613efd86868686612426565b90505f613f09826115bb565b90505f613f1660076128f4565b613f2060066128f4565b613f2a60026128f4565b17179050613f37826128f4565b811615613f82578282826001613f4e60078261539c565b613f59906002615495565b613f6391906150aa565b5f1b186040516331b75e4d60e01b8152600401610ec193929190614f49565b5f838152600460205260409081902080546001600160f81b0316600160f81b179055517f789cf55be980739dad1d0699b93b58e806b51c9d96619bfa8fe0a28abaa7b30c9061132a9085815260200190565b5f80807f7fffffffffffffffffffffffffffffff5d576e7357a4501ddfe92f46681b20a084111561400d57505f91506003905082614092565b604080515f808252602082018084528a905260ff891692820192909252606081018790526080810186905260019060a0016020604051602081039080840390855afa15801561405e573d5f803e3d5ffd5b5050604051601f1901519150506001600160a01b03811661408957505f925060019150829050614092565b92505f91508190505b9450945094915050565b5f80608083901c156140b057608092831c92015b604083901c156140c257604092831c92015b602083901c156140d457602092831c92015b601083901c156140e657601092831c92015b600883901c156140f857600892831c92015b600483901c1561410a57600492831c92015b600283901c1561411c57600292831c92015b600183901c15610e815760010192915050565b5f81831061413d57816120fa565b5090919050565b5f614152600284841861534a565b6120fa90848416614f96565b81511561416e5781518083602001fd5b613c7c8163ffffffff16565b5f60ff8216601f811115610e8157604051632cd44ac360e21b815260040160405180910390fd5b5f602082840312156141b1575f80fd5b81356001600160e01b0319811681146120fa575f80fd5b5f602082840312156141d8575f80fd5b5035919050565b5f5b838110156141f95781810151838201526020016141e1565b50505f910152565b5f81518084526142188160208601602086016141df565b601f01601f19169290920160200192915050565b602081525f6120fa6020830184614201565b5f6020828403121561424e575f80fd5b813563ffffffff811681146120fa575f80fd5b6001600160a01b0381168114610f18575f80fd5b634e487b7160e01b5f52604160045260245ffd5b604051601f8201601f191681016001600160401b03811182821017156142b1576142b1614275565b604052919050565b5f6001600160401b038211156142d1576142d1614275565b50601f01601f191660200190565b5f6142f16142ec846142b9565b614289565b9050828152838383011115614304575f80fd5b828260208301375f602084830101529392505050565b5f82601f830112614329575f80fd5b6120fa838335602085016142df565b5f805f806080858703121561434b575f80fd5b843561435681614261565b9350602085013561436681614261565b92506040850135915060608501356001600160401b03811115614387575f80fd5b6143938782880161431a565b91505092959194509250565b5f6001600160401b038211156143b7576143b7614275565b5060051b60200190565b5f82601f8301126143d0575f80fd5b813560206143e06142ec8361439f565b82815260059290921b840181019181810190868411156143fe575f80fd5b8286015b8481101561442257803561441581614261565b8352918301918301614402565b509695505050505050565b5f82601f83011261443c575f80fd5b8135602061444c6142ec8361439f565b82815260059290921b8401810191818101908684111561446a575f80fd5b8286015b84811015614422578035835291830191830161446e565b5f6144926142ec8461439f565b8381529050602080820190600585901b8401868111156144b0575f80fd5b845b818110156144ea5780356001600160401b038111156144d0575f8081fd5b6144dc8982890161431a565b8552509282019282016144b2565b505050509392505050565b5f82601f830112614504575f80fd5b6120fa83833560208501614485565b5f805f8060808587031215614526575f80fd5b84356001600160401b038082111561453c575f80fd5b614548888389016143c1565b9550602087013591508082111561455d575f80fd5b6145698883890161442d565b9450604087013591508082111561457e575f80fd5b5061458b878288016144f5565b949793965093946060013593505050565b5f602082840312156145ac575f80fd5b81356120fa81614261565b803560ff81168114611732575f80fd5b5f8083601f8401126145d7575f80fd5b5081356001600160401b038111156145ed575f80fd5b602083019150836020828501011115614604575f80fd5b9250929050565b5f805f805f805f60a0888a031215614621575f80fd5b87359650602088013561463381614261565b9550614641604089016145b7565b945060608801356001600160401b038082111561465c575f80fd5b6146688b838c016145c7565b909650945060808a0135915080821115614680575f80fd5b5061468d8a828b016145c7565b989b979a50959850939692959293505050565b634e487b7160e01b5f52602160045260245ffd5b600881106146d057634e487b7160e01b5f52602160045260245ffd5b9052565b60208101610e8182846146b4565b5f80604083850312156146f3575f80fd5b82359150602083013561470581614261565b809150509250929050565b5f805f60408486031215614722575f80fd5b833561472d81614261565b925060208401356001600160401b03811115614747575f80fd5b614753868287016145c7565b9497909650939450505050565b5f8060408385031215614771575f80fd5b82359150614781602084016145b7565b90509250929050565b5f805f805f805f60c0888a0312156147a0575f80fd5b873596506147b0602089016145b7565b955060408801356147c081614261565b945060608801356001600160401b03808211156147db575f80fd5b6147e78b838c016145c7565b909650945060808a01359150808211156147ff575f80fd5b61480b8b838c0161431a565b935060a08a0135915080821115614820575f80fd5b5061482d8a828b0161431a565b91505092959891949750929550565b5f805f805f60808688031215614850575f80fd5b85359450614860602087016145b7565b935060408601356001600160401b038082111561487b575f80fd5b61488789838a016145c7565b9095509350606088013591508082111561489f575f80fd5b506148ac8882890161431a565b9150509295509295909350565b5f8083601f8401126148c9575f80fd5b5081356001600160401b038111156148df575f80fd5b6020830191508360208260051b8501011115614604575f80fd5b5f805f805f805f6080888a03121561490f575f80fd5b87356001600160401b0380821115614925575f80fd5b6149318b838c016148b9565b909950975060208a0135915080821115614949575f80fd5b6149558b838c016148b9565b909750955060408a013591508082111561496d575f80fd5b5061497a8a828b016148b9565b989b979a50959894979596606090950135949350505050565b5f80604083850312156149a4575f80fd5b82356149af81614261565b946020939093013593505050565b5f805f805f608086880312156149d1575f80fd5b8535945060208601356149e381614261565b93506149f1604087016145b7565b925060608601356001600160401b03811115614a0b575f80fd5b614a17888289016145c7565b969995985093965092949392505050565b65ffffffffffff81168114610f18575f80fd5b5f60208284031215614a4b575f80fd5b81356120fa81614a28565b5f805f8060608587031215614a69575f80fd5b84359350614a79602086016145b7565b925060408501356001600160401b03811115614a93575f80fd5b614a9f878288016145c7565b95989497509550505050565b5f805f8060808587031215614abe575f80fd5b84356001600160401b0380821115614ad4575f80fd5b614ae0888389016143c1565b95506020870135915080821115614af5575f80fd5b614b018883890161442d565b94506040870135915080821115614b16575f80fd5b614b22888389016144f5565b93506060870135915080821115614b37575f80fd5b508501601f81018713614b48575f80fd5b614393878235602084016142df565b5f8151808452602080850194508084015f5b83811015614b8557815187529582019590820190600101614b69565b509495945050505050565b60ff60f81b8816815260e060208201525f614bae60e0830189614201565b8281036040840152614bc08189614201565b606084018890526001600160a01b038716608085015260a0840186905283810360c08501529050614bf18185614b57565b9a9950505050505050505050565b5f805f8060808587031215614c12575f80fd5b84359350614c22602086016145b7565b92506040850135614c3281614261565b915060608501356001600160401b03811115614387575f80fd5b5f805f60608486031215614c5e575f80fd5b8335614c6981614261565b92506020840135915060408401356001600160401b03811115614c8a575f80fd5b614c968682870161431a565b9150509250925092565b5f60208284031215614cb0575f80fd5b8135600881106120fa575f80fd5b5f805f805f805f8060a0898b031215614cd5575f80fd5b8835975060208901356001600160401b0380821115614cf2575f80fd5b614cfe8c838d016148b9565b909950975060408b0135915080821115614d16575f80fd5b614d228c838d016148b9565b909750955060608b0135915080821115614d3a575f80fd5b50614d478b828c016148b9565b999c989b50969995989497949560800135949350505050565b5f805f805f60a08688031215614d74575f80fd5b8535614d7f81614261565b94506020860135614d8f81614261565b935060408601356001600160401b0380821115614daa575f80fd5b614db689838a0161442d565b94506060880135915080821115614dcb575f80fd5b614dd789838a0161442d565b9350608088013591508082111561489f575f80fd5b5f805f805f8060a08789031215614e01575f80fd5b863595506020870135614e1381614261565b9450614e21604088016145b7565b93506060870135925060808701356001600160401b03811115614e42575f80fd5b614e4e89828a016145c7565b979a9699509497509295939492505050565b5f805f8060608587031215614e73575f80fd5b8435614e7e81614261565b93506020850135925060408501356001600160401b03811115614a93575f80fd5b5f805f805f60a08688031215614eb3575f80fd5b8535614ebe81614261565b94506020860135614ece81614261565b9350604086013592506060860135915060808601356001600160401b03811115614ef6575f80fd5b6148ac8882890161431a565b818382375f9101908152919050565b600181811c90821680614f2557607f821691505b602082108103614f4357634e487b7160e01b5f52602260045260245ffd5b50919050565b83815260608101614f5d60208301856146b4565b826040830152949350505050565b5f60208284031215614f7b575f80fd5b5051919050565b634e487b7160e01b5f52601160045260245ffd5b80820180821115610e8157610e81614f82565b634e487b7160e01b5f52603260045260245ffd5b60018060a01b038516815283602082015260a060408201525f60a082015260c060608201525f614ff060c0830185614201565b905082608083015295945050505050565b5f60208284031215615011575f80fd5b815180151581146120fa575f80fd5b5f6001820161503157615031614f82565b5060010190565b5f6150456142ec846142b9565b9050828152838383011115615058575f80fd5b6120fa8360208301846141df565b5f60208284031215615076575f80fd5b81516001600160401b0381111561508b575f80fd5b8201601f8101841361509b575f80fd5b61178184825160208401615038565b81810381811115610e8157610e81614f82565b5f6120fa368484614485565b5f8151808452602080850194508084015f5b83811015614b855781516001600160a01b0316875295820195908201906001016150db565b5f81518084526020808501808196508360051b810191508286015f5b85811015615146578284038952615134848351614201565b9885019893509084019060010161511c565b5091979650505050505050565b5f6101208b8352602060018060a01b038c168185015281604085015261517b8285018c6150c9565b9150838203606085015261518f828b614b57565b915083820360808501528189518084528284019150828160051b850101838c015f5b838110156151df57601f198784030185526151cd838351614201565b948601949250908501906001016151b1565b505086810360a08801526151f3818c615100565b9450505050508560c08401528460e08401528281036101008401526152188185614201565b9c9b505050505050505050505050565b5f60208284031215615238575f80fd5b81516120fa81614a28565b65ffffffffffff81811683821601908082111561526257615262614f82565b5092915050565b608081525f61527b60808301876150c9565b828103602084015261528d8187614b57565b905082810360408401526152a18186615100565b91505082606083015295945050505050565b84815260ff84166020820152826040820152608060608201525f611c1a6080830184614201565b85815260ff8516602082015283604082015260a060608201525f61530160a0830185614201565b82810360808401526153138185614201565b98975050505050505050565b8082028115828204841417610e8157610e81614f82565b634e487b7160e01b5f52601260045260245ffd5b5f8261536457634e487b7160e01b5f52601260045260245ffd5b500490565b828152604060208201525f6117816040830184614201565b5f82516153928184602087016141df565b9190910192915050565b60ff8181168382160190811115610e8157610e81614f82565b600181815b808511156153ef57815f19048211156153d5576153d5614f82565b808516156153e257918102915b93841c93908002906153ba565b509250929050565b5f8261540557506001610e81565b8161541157505f610e81565b816001811461542757600281146154315761544d565b6001915050610e81565b60ff84111561544257615442614f82565b50506001821b610e81565b5060208310610133831016604e8410600b8410161715615470575081810a610e81565b61547a83836153b5565b805f190482111561548d5761548d614f82565b029392505050565b5f6120fa60ff8416836153f756fea264697066735822122042e1bc8d41e361ac866b02c6dde260b726ab5d43c3653522f2f70b74dba5dc0b64736f6c63430008140033",
  "linkReferences": {},
  "deployedLinkReferences": {}
}