{
  "_format": "hh-sol-artifact-1",
  "contractName": "$BeaconProxy",
  "sourceName": "contracts-exposed/proxy/beacon/BeaconProxy.sol",
  "abi": [
    {
      "inputs": [
        {
          "internalType": "address",
          "name": "beacon",
          "type": "address"
        },
        {
          "internalType": "bytes",
          "name": "data",
          "type": "bytes"
        }
      ],
      "stateMutability": "payable",
      "type": "constructor"
    },
    {
      "inputs": [
        {
          "internalType": "address",
          "name": "target",
          "type": "address"
        }
      ],
      "name": "AddressEmptyCode",
      "type": "error"
    },
    {
      "inputs": [
        {
          "internalType": "address",
          "name": "beacon",
          "type": "address"
        }
      ],
      "name": "ERC1967InvalidBeacon",
      "type": "error"
    },
    {
      "inputs": [
        {
          "internalType": "address",
          "name": "implementation",
          "type": "address"
        }
      ],
      "name": "ERC1967InvalidImplementation",
      "type": "error"
    },
    {
      "inputs": [],
      "name": "ERC1967NonPayable",
      "type": "error"
    },
    {
      "inputs": [],
      "name": "FailedInnerCall",
      "type": "error"
    },
    {
      "anonymous": false,
      "inputs": [
        {
          "indexed": true,
          "internalType": "address",
          "name": "beacon",
          "type": "address"
        }
      ],
      "name": "BeaconUpgraded",
      "type": "event"
    },
    {
      "stateMutability": "payable",
      "type": "fallback"
    },
    {
      "inputs": [],
      "name": "$_beforeFallback",
      "outputs": [],
      "stateMutability": "nonpayable",
      "type": "function"
    },
    {
      "inputs": [
        {
          "internalType": "address",
          "name": "implementation",
          "type": "address"
        }
      ],
      "name": "$_delegate",
      "outputs": [],
      "stateMutability": "nonpayable",
      "type": "function"
    },
    {
      "inputs": [],
      "name": "$_fallback",
      "outputs": [],
      "stateMutability": "nonpayable",
      "type": "function"
    },
    {
      "inputs": [],
      "name": "$_getBeacon",
      "outputs": [
        {
          "internalType": "address",
          "name": "ret0",
          "type": "address"
        }
      ],
      "stateMutability": "view",
      "type": "function"
    },
    {
      "inputs": [],
      "name": "$_implementation",
      "outputs": [
        {
          "internalType": "address",
          "name": "ret0",
          "type": "address"
        }
      ],
      "stateMutability": "view",
      "type": "function"
    },
    {
      "inputs": [],
      "name": "__hh_exposed_bytecode_marker",
      "outputs": [
        {
          "internalType": "bytes32",
          "name": "",
          "type": "bytes32"
        }
      ],
      "stateMutability": "view",
      "type": "function"
    },
    {
      "stateMutability": "payable",
      "type": "receive"
    }
  ],
  "bytecode": "0x60a0604052604051610765380380610765833981016040819052610022916103a8565b818161002e8282610043565b506001600160a01b0316608052506104979050565b61004c82610100565b6040516001600160a01b038316907f1cf3b03a6cf19fa2baba4df148e9dcabedea7f8a5c07840e207e5c089be95d3e905f90a28051156100f4576100ef826001600160a01b0316635c60da1b6040518163ffffffff1660e01b8152600401602060405180830381865afa1580156100c5573d5f803e3d5ffd5b505050506040513d601f19601f820116820180604052508101906100e99190610463565b82610214565b505050565b6100fc610231565b5050565b806001600160a01b03163b5f0361013a57604051631933b43b60e21b81526001600160a01b03821660048201526024015b60405180910390fd5b5f816001600160a01b0316635c60da1b6040518163ffffffff1660e01b8152600401602060405180830381865afa158015610177573d5f803e3d5ffd5b505050506040513d601f19601f8201168201806040525081019061019b9190610463565b9050806001600160a01b03163b5f036101d257604051634c9c8ce360e01b81526001600160a01b0382166004820152602401610131565b507fa3f0ad74e5423aebfd80d3ef4346578335a9a72aeaee59ff6cb3582b35133d5080546001600160a01b0319166001600160a01b0392909216919091179055565b606061022a838361017161025260201b1761026b565b9392505050565b34156102505760405163b398979f60e01b815260040160405180910390fd5b565b604051630a12f52160e11b815260040160405180910390fd5b60605f80856001600160a01b031685604051610287919061047c565b5f60405180830381855af49150503d805f81146102bf576040519150601f19603f3d011682016040523d82523d5f602084013e6102c4565b606091505b5090925090506102d6868383876102e0565b9695505050505050565b6060831561032c5782515f0361032557846001600160a01b03163b5f0361032557604051639996b31560e01b81526001600160a01b0386166004820152602401610131565b5081610336565b610336838361033e565b949350505050565b81511561034e5781518083602001fd5b6102528160201c565b80516001600160a01b038116811461036d575f80fd5b919050565b634e487b7160e01b5f52604160045260245ffd5b5f5b838110156103a0578181015183820152602001610388565b50505f910152565b5f80604083850312156103b9575f80fd5b6103c283610357565b60208401519092506001600160401b03808211156103de575f80fd5b818501915085601f8301126103f1575f80fd5b81518181111561040357610403610372565b604051601f8201601f19908116603f0116810190838211818310171561042b5761042b610372565b81604052828152886020848701011115610443575f80fd5b610454836020830160208801610386565b80955050505050509250929050565b5f60208284031215610473575f80fd5b61022a82610357565b5f825161048d818460208701610386565b9190910192915050565b6080516102b06104b55f395f818160e6015261018d01526102b05ff3fe608060405260043610610058575f3560e01c8063342db73914610069578063515f8df0146100a157806389194f73146100cd578063b472f0f4146100d8578063ee8d63991461010a578063f49367aa1461011e5761005f565b3661005f57005b61006761013d565b005b348015610074575f80fd5b5061008e6e1a185c991a185d0b595e1c1bdcd959608a1b81565b6040519081526020015b60405180910390f35b3480156100ac575f80fd5b506100b561014f565b6040516001600160a01b039091168152602001610098565b348015610067575f80fd5b3480156100e3575f80fd5b507f00000000000000000000000000000000000000000000000000000000000000006100b5565b348015610115575f80fd5b5061006761015d565b348015610129575f80fd5b5061006761013836600461023d565b610165565b61014d61014861018a565b61020b565b565b5f61015861018a565b905090565b61014d61013d565b61016e8161020b565b50565b604051630a12f52160e11b815260040160405180910390fd5b5f7f00000000000000000000000000000000000000000000000000000000000000006001600160a01b0316635c60da1b6040518163ffffffff1660e01b8152600401602060405180830381865afa1580156101e7573d5f803e3d5ffd5b505050506040513d601f19601f82011682018060405250810190610158919061025f565b365f80375f80365f845af43d5f803e808015610225573d5ff35b3d5ffd5b6001600160a01b038116811461016e575f80fd5b5f6020828403121561024d575f80fd5b813561025881610229565b9392505050565b5f6020828403121561026f575f80fd5b81516102588161022956fea26469706673582212207232ada38e2fb99531c240f05397979e7b0ed9b20973731a148164c71321793c64736f6c63430008140033",
  "linkReferences": {},
  "deployedLinkReferences": {}
}