{
  "_format": "hh-sol-artifact-1",
  "contractName": "$ERC4626Mock",
  "sourceName": "contracts-exposed/mocks/token/ERC4626Mock.sol",
  "abi": [
    {
      "inputs": [
        {
          "internalType": "address",
          "name": "underlying",
          "type": "address"
        }
      ],
      "stateMutability": "payable",
      "type": "constructor"
    },
    {
      "inputs": [
        {
          "internalType": "address",
          "name": "target",
          "type": "address"
        }
      ],
      "name": "AddressEmptyCode",
      "type": "error"
    },
    {
      "inputs": [
        {
          "internalType": "address",
          "name": "account",
          "type": "address"
        }
      ],
      "name": "AddressInsufficientBalance",
      "type": "error"
    },
    {
      "inputs": [
        {
          "internalType": "address",
          "name": "spender",
          "type": "address"
        },
        {
          "internalType": "uint256",
          "name": "currentAllowance",
          "type": "uint256"
        },
        {
          "internalType": "uint256",
          "name": "requestedDecrease",
          "type": "uint256"
        }
      ],
      "name": "ERC20FailedDecreaseAllowance",
      "type": "error"
    },
    {
      "inputs": [
        {
          "internalType": "address",
          "name": "spender",
          "type": "address"
        },
        {
          "internalType": "uint256",
          "name": "allowance",
          "type": "uint256"
        },
        {
          "internalType": "uint256",
          "name": "needed",
          "type": "uint256"
        }
      ],
      "name": "ERC20InsufficientAllowance",
      "type": "error"
    },
    {
      "inputs": [
        {
          "internalType": "address",
          "name": "sender",
          "type": "address"
        },
        {
          "internalType": "uint256",
          "name": "balance",
          "type": "uint256"
        },
        {
          "internalType": "uint256",
          "name": "needed",
          "type": "uint256"
        }
      ],
      "name": "ERC20InsufficientBalance",
      "type": "error"
    },
    {
      "inputs": [
        {
          "internalType": "address",
          "name": "approver",
          "type": "address"
        }
      ],
      "name": "ERC20InvalidApprover",
      "type": "error"
    },
    {
      "inputs": [
        {
          "internalType": "address",
          "name": "receiver",
          "type": "address"
        }
      ],
      "name": "ERC20InvalidReceiver",
      "type": "error"
    },
    {
      "inputs": [
        {
          "internalType": "address",
          "name": "sender",
          "type": "address"
        }
      ],
      "name": "ERC20InvalidSender",
      "type": "error"
    },
    {
      "inputs": [
        {
          "internalType": "address",
          "name": "spender",
          "type": "address"
        }
      ],
      "name": "ERC20InvalidSpender",
      "type": "error"
    },
    {
      "inputs": [
        {
          "internalType": "address",
          "name": "receiver",
          "type": "address"
        },
        {
          "internalType": "uint256",
          "name": "assets",
          "type": "uint256"
        },
        {
          "internalType": "uint256",
          "name": "max",
          "type": "uint256"
        }
      ],
      "name": "ERC4626ExceededMaxDeposit",
      "type": "error"
    },
    {
      "inputs": [
        {
          "internalType": "address",
          "name": "receiver",
          "type": "address"
        },
        {
          "internalType": "uint256",
          "name": "shares",
          "type": "uint256"
        },
        {
          "internalType": "uint256",
          "name": "max",
          "type": "uint256"
        }
      ],
      "name": "ERC4626ExceededMaxMint",
      "type": "error"
    },
    {
      "inputs": [
        {
          "internalType": "address",
          "name": "owner",
          "type": "address"
        },
        {
          "internalType": "uint256",
          "name": "shares",
          "type": "uint256"
        },
        {
          "internalType": "uint256",
          "name": "max",
          "type": "uint256"
        }
      ],
      "name": "ERC4626ExceededMaxRedeem",
      "type": "error"
    },
    {
      "inputs": [
        {
          "internalType": "address",
          "name": "owner",
          "type": "address"
        },
        {
          "internalType": "uint256",
          "name": "assets",
          "type": "uint256"
        },
        {
          "internalType": "uint256",
          "name": "max",
          "type": "uint256"
        }
      ],
      "name": "ERC4626ExceededMaxWithdraw",
      "type": "error"
    },
    {
      "inputs": [],
      "name": "FailedInnerCall",
      "type": "error"
    },
    {
      "inputs": [],
      "name": "MathOverflowedMulDiv",
      "type": "error"
    },
    {
      "inputs": [
        {
          "internalType": "address",
          "name": "token",
          "type": "address"
        }
      ],
      "name": "SafeERC20FailedOperation",
      "type": "error"
    },
    {
      "anonymous": false,
      "inputs": [
        {
          "indexed": true,
          "internalType": "address",
          "name": "owner",
          "type": "address"
        },
        {
          "indexed": true,
          "internalType": "address",
          "name": "spender",
          "type": "address"
        },
        {
          "indexed": false,
          "internalType": "uint256",
          "name": "value",
          "type": "uint256"
        }
      ],
      "name": "Approval",
      "type": "event"
    },
    {
      "anonymous": false,
      "inputs": [
        {
          "indexed": true,
          "internalType": "address",
          "name": "sender",
          "type": "address"
        },
        {
          "indexed": true,
          "internalType": "address",
          "name": "owner",
          "type": "address"
        },
        {
          "indexed": false,
          "internalType": "uint256",
          "name": "assets",
          "type": "uint256"
        },
        {
          "indexed": false,
          "internalType": "uint256",
          "name": "shares",
          "type": "uint256"
        }
      ],
      "name": "Deposit",
      "type": "event"
    },
    {
      "anonymous": false,
      "inputs": [
        {
          "indexed": true,
          "internalType": "address",
          "name": "from",
          "type": "address"
        },
        {
          "indexed": true,
          "internalType": "address",
          "name": "to",
          "type": "address"
        },
        {
          "indexed": false,
          "internalType": "uint256",
          "name": "value",
          "type": "uint256"
        }
      ],
      "name": "Transfer",
      "type": "event"
    },
    {
      "anonymous": false,
      "inputs": [
        {
          "indexed": true,
          "internalType": "address",
          "name": "sender",
          "type": "address"
        },
        {
          "indexed": true,
          "internalType": "address",
          "name": "receiver",
          "type": "address"
        },
        {
          "indexed": true,
          "internalType": "address",
          "name": "owner",
          "type": "address"
        },
        {
          "indexed": false,
          "internalType": "uint256",
          "name": "assets",
          "type": "uint256"
        },
        {
          "indexed": false,
          "internalType": "uint256",
          "name": "shares",
          "type": "uint256"
        }
      ],
      "name": "Withdraw",
      "type": "event"
    },
    {
      "inputs": [
        {
          "internalType": "address",
          "name": "owner",
          "type": "address"
        },
        {
          "internalType": "address",
          "name": "spender",
          "type": "address"
        },
        {
          "internalType": "uint256",
          "name": "value",
          "type": "uint256"
        },
        {
          "internalType": "bool",
          "name": "emitEvent",
          "type": "bool"
        }
      ],
      "name": "$_approve",
      "outputs": [],
      "stateMutability": "nonpayable",
      "type": "function"
    },
    {
      "inputs": [
        {
          "internalType": "address",
          "name": "owner",
          "type": "address"
        },
        {
          "internalType": "address",
          "name": "spender",
          "type": "address"
        },
        {
          "internalType": "uint256",
          "name": "value",
          "type": "uint256"
        }
      ],
      "name": "$_approve",
      "outputs": [],
      "stateMutability": "nonpayable",
      "type": "function"
    },
    {
      "inputs": [
        {
          "internalType": "address",
          "name": "account",
          "type": "address"
        },
        {
          "internalType": "uint256",
          "name": "value",
          "type": "uint256"
        }
      ],
      "name": "$_burn",
      "outputs": [],
      "stateMutability": "nonpayable",
      "type": "function"
    },
    {
      "inputs": [
        {
          "internalType": "uint256",
          "name": "shares",
          "type": "uint256"
        },
        {
          "internalType": "enum Math.Rounding",
          "name": "rounding",
          "type": "uint8"
        }
      ],
      "name": "$_convertToAssets",
      "outputs": [
        {
          "internalType": "uint256",
          "name": "ret0",
          "type": "uint256"
        }
      ],
      "stateMutability": "view",
      "type": "function"
    },
    {
      "inputs": [
        {
          "internalType": "uint256",
          "name": "assets",
          "type": "uint256"
        },
        {
          "internalType": "enum Math.Rounding",
          "name": "rounding",
          "type": "uint8"
        }
      ],
      "name": "$_convertToShares",
      "outputs": [
        {
          "internalType": "uint256",
          "name": "ret0",
          "type": "uint256"
        }
      ],
      "stateMutability": "view",
      "type": "function"
    },
    {
      "inputs": [],
      "name": "$_decimalsOffset",
      "outputs": [
        {
          "internalType": "uint8",
          "name": "ret0",
          "type": "uint8"
        }
      ],
      "stateMutability": "view",
      "type": "function"
    },
    {
      "inputs": [
        {
          "internalType": "address",
          "name": "caller",
          "type": "address"
        },
        {
          "internalType": "address",
          "name": "receiver",
          "type": "address"
        },
        {
          "internalType": "uint256",
          "name": "assets",
          "type": "uint256"
        },
        {
          "internalType": "uint256",
          "name": "shares",
          "type": "uint256"
        }
      ],
      "name": "$_deposit",
      "outputs": [],
      "stateMutability": "nonpayable",
      "type": "function"
    },
    {
      "inputs": [
        {
          "internalType": "address",
          "name": "account",
          "type": "address"
        },
        {
          "internalType": "uint256",
          "name": "value",
          "type": "uint256"
        }
      ],
      "name": "$_mint",
      "outputs": [],
      "stateMutability": "nonpayable",
      "type": "function"
    },
    {
      "inputs": [],
      "name": "$_msgData",
      "outputs": [
        {
          "internalType": "bytes",
          "name": "ret0",
          "type": "bytes"
        }
      ],
      "stateMutability": "view",
      "type": "function"
    },
    {
      "inputs": [],
      "name": "$_msgSender",
      "outputs": [
        {
          "internalType": "address",
          "name": "ret0",
          "type": "address"
        }
      ],
      "stateMutability": "view",
      "type": "function"
    },
    {
      "inputs": [
        {
          "internalType": "address",
          "name": "owner",
          "type": "address"
        },
        {
          "internalType": "address",
          "name": "spender",
          "type": "address"
        },
        {
          "internalType": "uint256",
          "name": "value",
          "type": "uint256"
        }
      ],
      "name": "$_spendAllowance",
      "outputs": [],
      "stateMutability": "nonpayable",
      "type": "function"
    },
    {
      "inputs": [
        {
          "internalType": "address",
          "name": "from",
          "type": "address"
        },
        {
          "internalType": "address",
          "name": "to",
          "type": "address"
        },
        {
          "internalType": "uint256",
          "name": "value",
          "type": "uint256"
        }
      ],
      "name": "$_transfer",
      "outputs": [],
      "stateMutability": "nonpayable",
      "type": "function"
    },
    {
      "inputs": [
        {
          "internalType": "address",
          "name": "from",
          "type": "address"
        },
        {
          "internalType": "address",
          "name": "to",
          "type": "address"
        },
        {
          "internalType": "uint256",
          "name": "value",
          "type": "uint256"
        }
      ],
      "name": "$_update",
      "outputs": [],
      "stateMutability": "nonpayable",
      "type": "function"
    },
    {
      "inputs": [
        {
          "internalType": "address",
          "name": "caller",
          "type": "address"
        },
        {
          "internalType": "address",
          "name": "receiver",
          "type": "address"
        },
        {
          "internalType": "address",
          "name": "owner",
          "type": "address"
        },
        {
          "internalType": "uint256",
          "name": "assets",
          "type": "uint256"
        },
        {
          "internalType": "uint256",
          "name": "shares",
          "type": "uint256"
        }
      ],
      "name": "$_withdraw",
      "outputs": [],
      "stateMutability": "nonpayable",
      "type": "function"
    },
    {
      "inputs": [],
      "name": "__hh_exposed_bytecode_marker",
      "outputs": [
        {
          "internalType": "bytes32",
          "name": "",
          "type": "bytes32"
        }
      ],
      "stateMutability": "view",
      "type": "function"
    },
    {
      "inputs": [
        {
          "internalType": "address",
          "name": "owner",
          "type": "address"
        },
        {
          "internalType": "address",
          "name": "spender",
          "type": "address"
        }
      ],
      "name": "allowance",
      "outputs": [
        {
          "internalType": "uint256",
          "name": "",
          "type": "uint256"
        }
      ],
      "stateMutability": "view",
      "type": "function"
    },
    {
      "inputs": [
        {
          "internalType": "address",
          "name": "spender",
          "type": "address"
        },
        {
          "internalType": "uint256",
          "name": "value",
          "type": "uint256"
        }
      ],
      "name": "approve",
      "outputs": [
        {
          "internalType": "bool",
          "name": "",
          "type": "bool"
        }
      ],
      "stateMutability": "nonpayable",
      "type": "function"
    },
    {
      "inputs": [],
      "name": "asset",
      "outputs": [
        {
          "internalType": "address",
          "name": "",
          "type": "address"
        }
      ],
      "stateMutability": "view",
      "type": "function"
    },
    {
      "inputs": [
        {
          "internalType": "address",
          "name": "account",
          "type": "address"
        }
      ],
      "name": "balanceOf",
      "outputs": [
        {
          "internalType": "uint256",
          "name": "",
          "type": "uint256"
        }
      ],
      "stateMutability": "view",
      "type": "function"
    },
    {
      "inputs": [
        {
          "internalType": "address",
          "name": "account",
          "type": "address"
        },
        {
          "internalType": "uint256",
          "name": "amount",
          "type": "uint256"
        }
      ],
      "name": "burn",
      "outputs": [],
      "stateMutability": "nonpayable",
      "type": "function"
    },
    {
      "inputs": [
        {
          "internalType": "uint256",
          "name": "shares",
          "type": "uint256"
        }
      ],
      "name": "convertToAssets",
      "outputs": [
        {
          "internalType": "uint256",
          "name": "",
          "type": "uint256"
        }
      ],
      "stateMutability": "view",
      "type": "function"
    },
    {
      "inputs": [
        {
          "internalType": "uint256",
          "name": "assets",
          "type": "uint256"
        }
      ],
      "name": "convertToShares",
      "outputs": [
        {
          "internalType": "uint256",
          "name": "",
          "type": "uint256"
        }
      ],
      "stateMutability": "view",
      "type": "function"
    },
    {
      "inputs": [],
      "name": "decimals",
      "outputs": [
        {
          "internalType": "uint8",
          "name": "",
          "type": "uint8"
        }
      ],
      "stateMutability": "view",
      "type": "function"
    },
    {
      "inputs": [
        {
          "internalType": "address",
          "name": "spender",
          "type": "address"
        },
        {
          "internalType": "uint256",
          "name": "requestedDecrease",
          "type": "uint256"
        }
      ],
      "name": "decreaseAllowance",
      "outputs": [
        {
          "internalType": "bool",
          "name": "",
          "type": "bool"
        }
      ],
      "stateMutability": "nonpayable",
      "type": "function"
    },
    {
      "inputs": [
        {
          "internalType": "uint256",
          "name": "assets",
          "type": "uint256"
        },
        {
          "internalType": "address",
          "name": "receiver",
          "type": "address"
        }
      ],
      "name": "deposit",
      "outputs": [
        {
          "internalType": "uint256",
          "name": "",
          "type": "uint256"
        }
      ],
      "stateMutability": "nonpayable",
      "type": "function"
    },
    {
      "inputs": [
        {
          "internalType": "address",
          "name": "spender",
          "type": "address"
        },
        {
          "internalType": "uint256",
          "name": "addedValue",
          "type": "uint256"
        }
      ],
      "name": "increaseAllowance",
      "outputs": [
        {
          "internalType": "bool",
          "name": "",
          "type": "bool"
        }
      ],
      "stateMutability": "nonpayable",
      "type": "function"
    },
    {
      "inputs": [
        {
          "internalType": "address",
          "name": "",
          "type": "address"
        }
      ],
      "name": "maxDeposit",
      "outputs": [
        {
          "internalType": "uint256",
          "name": "",
          "type": "uint256"
        }
      ],
      "stateMutability": "view",
      "type": "function"
    },
    {
      "inputs": [
        {
          "internalType": "address",
          "name": "",
          "type": "address"
        }
      ],
      "name": "maxMint",
      "outputs": [
        {
          "internalType": "uint256",
          "name": "",
          "type": "uint256"
        }
      ],
      "stateMutability": "view",
      "type": "function"
    },
    {
      "inputs": [
        {
          "internalType": "address",
          "name": "owner",
          "type": "address"
        }
      ],
      "name": "maxRedeem",
      "outputs": [
        {
          "internalType": "uint256",
          "name": "",
          "type": "uint256"
        }
      ],
      "stateMutability": "view",
      "type": "function"
    },
    {
      "inputs": [
        {
          "internalType": "address",
          "name": "owner",
          "type": "address"
        }
      ],
      "name": "maxWithdraw",
      "outputs": [
        {
          "internalType": "uint256",
          "name": "",
          "type": "uint256"
        }
      ],
      "stateMutability": "view",
      "type": "function"
    },
    {
      "inputs": [
        {
          "internalType": "address",
          "name": "account",
          "type": "address"
        },
        {
          "internalType": "uint256",
          "name": "amount",
          "type": "uint256"
        }
      ],
      "name": "mint",
      "outputs": [],
      "stateMutability": "nonpayable",
      "type": "function"
    },
    {
      "inputs": [
        {
          "internalType": "uint256",
          "name": "shares",
          "type": "uint256"
        },
        {
          "internalType": "address",
          "name": "receiver",
          "type": "address"
        }
      ],
      "name": "mint",
      "outputs": [
        {
          "internalType": "uint256",
          "name": "",
          "type": "uint256"
        }
      ],
      "stateMutability": "nonpayable",
      "type": "function"
    },
    {
      "inputs": [],
      "name": "name",
      "outputs": [
        {
          "internalType": "string",
          "name": "",
          "type": "string"
        }
      ],
      "stateMutability": "view",
      "type": "function"
    },
    {
      "inputs": [
        {
          "internalType": "uint256",
          "name": "assets",
          "type": "uint256"
        }
      ],
      "name": "previewDeposit",
      "outputs": [
        {
          "internalType": "uint256",
          "name": "",
          "type": "uint256"
        }
      ],
      "stateMutability": "view",
      "type": "function"
    },
    {
      "inputs": [
        {
          "internalType": "uint256",
          "name": "shares",
          "type": "uint256"
        }
      ],
      "name": "previewMint",
      "outputs": [
        {
          "internalType": "uint256",
          "name": "",
          "type": "uint256"
        }
      ],
      "stateMutability": "view",
      "type": "function"
    },
    {
      "inputs": [
        {
          "internalType": "uint256",
          "name": "shares",
          "type": "uint256"
        }
      ],
      "name": "previewRedeem",
      "outputs": [
        {
          "internalType": "uint256",
          "name": "",
          "type": "uint256"
        }
      ],
      "stateMutability": "view",
      "type": "function"
    },
    {
      "inputs": [
        {
          "internalType": "uint256",
          "name": "assets",
          "type": "uint256"
        }
      ],
      "name": "previewWithdraw",
      "outputs": [
        {
          "internalType": "uint256",
          "name": "",
          "type": "uint256"
        }
      ],
      "stateMutability": "view",
      "type": "function"
    },
    {
      "inputs": [
        {
          "internalType": "uint256",
          "name": "shares",
          "type": "uint256"
        },
        {
          "internalType": "address",
          "name": "receiver",
          "type": "address"
        },
        {
          "internalType": "address",
          "name": "owner",
          "type": "address"
        }
      ],
      "name": "redeem",
      "outputs": [
        {
          "internalType": "uint256",
          "name": "",
          "type": "uint256"
        }
      ],
      "stateMutability": "nonpayable",
      "type": "function"
    },
    {
      "inputs": [],
      "name": "symbol",
      "outputs": [
        {
          "internalType": "string",
          "name": "",
          "type": "string"
        }
      ],
      "stateMutability": "view",
      "type": "function"
    },
    {
      "inputs": [],
      "name": "totalAssets",
      "outputs": [
        {
          "internalType": "uint256",
          "name": "",
          "type": "uint256"
        }
      ],
      "stateMutability": "view",
      "type": "function"
    },
    {
      "inputs": [],
      "name": "totalSupply",
      "outputs": [
        {
          "internalType": "uint256",
          "name": "",
          "type": "uint256"
        }
      ],
      "stateMutability": "view",
      "type": "function"
    },
    {
      "inputs": [
        {
          "internalType": "address",
          "name": "to",
          "type": "address"
        },
        {
          "internalType": "uint256",
          "name": "value",
          "type": "uint256"
        }
      ],
      "name": "transfer",
      "outputs": [
        {
          "internalType": "bool",
          "name": "",
          "type": "bool"
        }
      ],
      "stateMutability": "nonpayable",
      "type": "function"
    },
    {
      "inputs": [
        {
          "internalType": "address",
          "name": "from",
          "type": "address"
        },
        {
          "internalType": "address",
          "name": "to",
          "type": "address"
        },
        {
          "internalType": "uint256",
          "name": "value",
          "type": "uint256"
        }
      ],
      "name": "transferFrom",
      "outputs": [
        {
          "internalType": "bool",
          "name": "",
          "type": "bool"
        }
      ],
      "stateMutability": "nonpayable",
      "type": "function"
    },
    {
      "inputs": [
        {
          "internalType": "uint256",
          "name": "assets",
          "type": "uint256"
        },
        {
          "internalType": "address",
          "name": "receiver",
          "type": "address"
        },
        {
          "internalType": "address",
          "name": "owner",
          "type": "address"
        }
      ],
      "name": "withdraw",
      "outputs": [
        {
          "internalType": "uint256",
          "name": "",
          "type": "uint256"
        }
      ],
      "stateMutability": "nonpayable",
      "type": "function"
    },
    {
      "stateMutability": "payable",
      "type": "receive"
    }
  ],
  "bytecode": "0x60c060405260405162001c8f38038062001c8f8339810160408190526200002691620001b1565b80806040518060400160405280600b81526020016a455243343632364d6f636b60a81b8152506040518060400160405280600681526020016545343632364d60d01b81525081600390816200007c919062000280565b5060046200008b828262000280565b5050505f80620000a183620000d260201b60201c565b9150915081620000b3576012620000b5565b805b60ff1660a05250506001600160a01b0316608052506200038e9050565b60408051600481526024810182526020810180516001600160e01b031663313ce56760e01b17905290515f918291829182916001600160a01b038716916200011a9162000348565b5f60405180830381855afa9150503d805f811462000154576040519150601f19603f3d011682016040523d82523d5f602084013e62000159565b606091505b50915091508180156200016e57506020815110155b15620001a5575f818060200190518101906200018b919062000376565b905060ff8111620001a3576001969095509350505050565b505b505f9485945092505050565b5f60208284031215620001c2575f80fd5b81516001600160a01b0381168114620001d9575f80fd5b9392505050565b634e487b7160e01b5f52604160045260245ffd5b600181811c908216806200020957607f821691505b6020821081036200022857634e487b7160e01b5f52602260045260245ffd5b50919050565b601f8211156200027b575f81815260208120601f850160051c81016020861015620002565750805b601f850160051c820191505b81811015620002775782815560010162000262565b5050505b505050565b81516001600160401b038111156200029c576200029c620001e0565b620002b481620002ad8454620001f4565b846200022e565b602080601f831160018114620002ea575f8415620002d25750858301515b5f19600386901b1c1916600185901b17855562000277565b5f85815260208120601f198616915b828110156200031a57888601518255948401946001909101908401620002f9565b50858210156200033857878501515f19600388901b60f8161c191681555b5050505050600190811b01905550565b5f82515f5b818110156200036957602081860181015185830152016200034d565b505f920191825250919050565b5f6020828403121562000387575f80fd5b5051919050565b60805160a0516118ca620003c55f395f6108ce01525f81816104090152818161076801528181610ee40152610f9601526118ca5ff3fe608060405260043610610262575f3560e01c80638b4e914a1161013f578063c63d75b6116100b3578063d905777e11610078578063d905777e146106e2578063dd62ed3e14610701578063e047838d146105ac578063ef4f78d114610720578063ef8b30f714610685578063efb43b0714610732575f80fd5b8063c63d75b61461044c578063c6e6f59214610685578063ca10eca0146106a4578063cc461d621461046c578063ce96cb77146106c3575f80fd5b8063a457c2d711610104578063a457c2d7146105cb578063a9059cbb146105ea578063b2331d7d14610609578063b3d7f6b914610628578063b460af9414610647578063ba08765214610666575f80fd5b80638b4e914a1461053b57806394bf804d1461055a57806395d89b41146105795780639c0b90c71461058d5780639dc29fac146105ac575f80fd5b8063342db739116101d65780634cdad5061161019b5780634cdad506146102b55780636855a1781461048b5780636e553f65146104aa57806370a08231146104c957806383b95579146104fd578063861e3d3d1461051c575f80fd5b8063342db739146103d657806338d52e0f146103fb578063395093511461042d578063402d267d1461044c57806340c10f191461046c575f80fd5b806318160ddd1161022757806318160ddd1461032257806323b872dd146103365780632904df2914610355578063313ce5671461037b57806332bc74aa146103a157806332cadf3c146103c2575f80fd5b806301e1d1141461026d57806306fdde031461029457806307a2d13a146102b5578063095ea7b3146102d45780630a28a47714610303575f80fd5b3661026957005b5f80fd5b348015610278575f80fd5b50610281610751565b6040519081526020015b60405180910390f35b34801561029f575f80fd5b506102a86107de565b60405161028b9190611405565b3480156102c0575f80fd5b506102816102cf366004611417565b61086e565b3480156102df575f80fd5b506102f36102ee366004611449565b61087f565b604051901515815260200161028b565b34801561030e575f80fd5b5061028161031d366004611417565b610896565b34801561032d575f80fd5b50600254610281565b348015610341575f80fd5b506102f3610350366004611471565b6108a2565b348015610360575f80fd5b50335b6040516001600160a01b03909116815260200161028b565b348015610386575f80fd5b5061038f6108c7565b60405160ff909116815260200161028b565b3480156103ac575f80fd5b506103c06103bb3660046114ba565b6108f2565b005b3480156103cd575f80fd5b506102a8610904565b3480156103e1575f80fd5b506102816e1a185c991a185d0b595e1c1bdcd959608a1b81565b348015610406575f80fd5b507f0000000000000000000000000000000000000000000000000000000000000000610363565b348015610438575f80fd5b506102f3610447366004611449565b610941565b348015610457575f80fd5b50610281610466366004611506565b505f1990565b348015610477575f80fd5b506103c0610486366004611449565b610962565b348015610496575f80fd5b506103c06104a5366004611471565b610970565b3480156104b5575f80fd5b506102816104c436600461151f565b610980565b3480156104d4575f80fd5b506102816104e3366004611506565b6001600160a01b03165f9081526020819052604090205490565b348015610508575f80fd5b506103c0610517366004611549565b6109b1565b348015610527575f80fd5b506103c0610536366004611471565b6109c5565b348015610546575f80fd5b5061028161055536600461159a565b6109d0565b348015610565575f80fd5b5061028161057436600461151f565b6109db565b348015610584575f80fd5b506102a86109f6565b348015610598575f80fd5b506103c06105a73660046115cb565b610a05565b3480156105b7575f80fd5b506103c06105c6366004611449565b610a11565b3480156105d6575f80fd5b506102f36105e5366004611449565b610a1b565b3480156105f5575f80fd5b506102f3610604366004611449565b610a69565b348015610614575f80fd5b506103c0610623366004611471565b610a76565b348015610633575f80fd5b50610281610642366004611417565b610a81565b348015610652575f80fd5b5061028161066136600461160a565b610a8d565b348015610671575f80fd5b5061028161068036600461160a565b610ae3565b348015610690575f80fd5b5061028161069f366004611417565b610b30565b3480156106af575f80fd5b506102816106be36600461159a565b610b3b565b3480156106ce575f80fd5b506102816106dd366004611506565b610b46565b3480156106ed575f80fd5b506102816106fc366004611506565b610b68565b34801561070c575f80fd5b5061028161071b366004611643565b610b85565b34801561072b575f80fd5b505f61038f565b34801561073d575f80fd5b506103c061074c366004611471565b610baf565b6040516370a0823160e01b81523060048201525f907f00000000000000000000000000000000000000000000000000000000000000006001600160a01b0316906370a0823190602401602060405180830381865afa1580156107b5573d5f803e3d5ffd5b505050506040513d601f19601f820116820180604052508101906107d9919061166b565b905090565b6060600380546107ed90611682565b80601f016020809104026020016040519081016040528092919081815260200182805461081990611682565b80156108645780601f1061083b57610100808354040283529160200191610864565b820191905f5260205f20905b81548152906001019060200180831161084757829003601f168201915b5050505050905090565b5f610879825f610bba565b92915050565b5f3361088c818585610bf2565b5060019392505050565b5f610879826001610bff565b5f336108af858285610c2e565b6108ba858585610c78565b60019150505b9392505050565b5f6107d9817f00000000000000000000000000000000000000000000000000000000000000006116ce565b6108fe84848484610cca565b50505050565b60605f368080601f0160208091040260200160405190810160405280939291908181526020018383808284375f9201919091525092949350505050565b5f3361088c8185856109538383610b85565b61095d91906116e7565b610bf2565b61096c8282610d9c565b5050565b61097b838383610dcc565b505050565b5f5f19610991565b60405180910390fd5b5f61099b85610b30565b90506109a933858784610edf565b949350505050565b6109be8585858585610f63565b5050505050565b61097b838383610bf2565b5f6108c08383610bff565b5f5f195f6109e885610a81565b90506109a933858388610edf565b6060600480546107ed90611682565b6108fe84848484610edf565b61096c8282611023565b5f3381610a288286610b85565b905083811015610a5157848185604051632983c0c360e21b8152600401610988939291906116fa565b610a5e8286868403610bf2565b506001949350505050565b5f3361088c818585610c78565b61097b838383610c2e565b5f610879826001610bba565b5f80610a9883610b46565b905080851115610ac157828582604051633fa733bb60e21b8152600401610988939291906116fa565b5f610acb86610896565b9050610ada3386868985610f63565b95945050505050565b5f80610aee83610b68565b905080851115610b1757828582604051632e52afbb60e21b8152600401610988939291906116fa565b5f610b218661086e565b9050610ada338686848a610f63565b5f610879825f610bff565b5f6108c08383610bba565b6001600160a01b0381165f90815260208190526040812054610879905f610bba565b6001600160a01b0381165f90815260208190526040812054610879565b6001600160a01b039182165f90815260016020908152604080832093909416825291909152205490565b61097b838383610c78565b5f6108c0610bc6610751565b610bd19060016116e7565b610bdc5f600a6117fb565b600254610be991906116e7565b85919085611057565b61097b8383836001610cca565b5f6108c0610c0e82600a6117fb565b600254610c1b91906116e7565b610c23610751565b610be99060016116e7565b5f610c398484610b85565b90505f1981146108fe5781811015610c6a57828183604051637dc7a0d960e11b8152600401610988939291906116fa565b6108fe84848484035f610cca565b6001600160a01b038316610ca157604051634b637e8f60e11b81525f6004820152602401610988565b6001600160a01b0382166109705760405163ec442f0560e01b81525f6004820152602401610988565b6001600160a01b038416610cf35760405163e602df0560e01b81525f6004820152602401610988565b6001600160a01b038316610d1c57604051634a1406b160e11b81525f6004820152602401610988565b6001600160a01b038085165f90815260016020908152604080832093871683529290522082905580156108fe57826001600160a01b0316846001600160a01b03167f8c5be1e5ebec7d5bd14f71427d1e84f3dd0314c0f7b2291e5b200ac8c7c3b92584604051610d8e91815260200190565b60405180910390a350505050565b6001600160a01b038216610dc55760405163ec442f0560e01b81525f6004820152602401610988565b61096c5f83835b6001600160a01b038316610df6578060025f828254610deb91906116e7565b90915550610e539050565b6001600160a01b0383165f9081526020819052604090205481811015610e355783818360405163391434e360e21b8152600401610988939291906116fa565b6001600160a01b0384165f9081526020819052604090209082900390555b6001600160a01b038216610e6f57600280548290039055610e8d565b6001600160a01b0382165f9081526020819052604090208054820190555b816001600160a01b0316836001600160a01b03167fddf252ad1be2c89b69c2b068fc378daa952ba7f163c4a11628f55a4df523b3ef83604051610ed291815260200190565b60405180910390a3505050565b610f0b7f00000000000000000000000000000000000000000000000000000000000000008530856110a4565b610f158382610d9c565b826001600160a01b0316846001600160a01b03167fdcbc1c05240f31ff3ad067ef1ee35ce4997762752e3a095284754544f4c709d78484604051610d8e929190918252602082015260400190565b826001600160a01b0316856001600160a01b031614610f8757610f87838683610c2e565b610f918382611023565b610fbc7f0000000000000000000000000000000000000000000000000000000000000000858461110b565b826001600160a01b0316846001600160a01b0316866001600160a01b03167ffbde797d201c681b91056529119e0b02407c7bb96a4a2c75c01fc9667232c8db8585604051611014929190918252602082015260400190565b60405180910390a45050505050565b6001600160a01b03821661104c57604051634b637e8f60e11b81525f6004820152602401610988565b61096c825f83610dcc565b5f8061106486868661113c565b905061106f836111fa565b801561108a57505f848061108557611085611809565b868809115b15610ada5761109a6001826116e7565b9695505050505050565b6040516001600160a01b0384811660248301528381166044830152606482018390526108fe9186918216906323b872dd906084015b604051602081830303815290604052915060e01b6020820180516001600160e01b038381831617835250505050611226565b6040516001600160a01b0383811660248301526044820183905261097b91859182169063a9059cbb906064016110d9565b5f80805f19858709858702925082811083820303915050805f036111735783828161116957611169611809565b04925050506108c0565b8084116111935760405163227bc15360e01b815260040160405180910390fd5b5f8486880960026001871981018816978890046003810283188082028403028082028403028082028403028082028403028082028403029081029092039091025f889003889004909101858311909403939093029303949094049190911702949350505050565b5f600282600381111561120f5761120f61181d565b6112199190611831565b60ff166001149050919050565b5f61123a6001600160a01b03841683611287565b905080515f1415801561125e57508080602001905181019061125c919061185e565b155b1561097b57604051635274afe760e01b81526001600160a01b0384166004820152602401610988565b60606108c083835f6112976112b0565b604051630a12f52160e11b815260040160405180910390fd5b6060824710156112d55760405163cd78605960e01b8152306004820152602401610988565b5f80866001600160a01b031685876040516112f09190611879565b5f6040518083038185875af1925050503d805f811461132a576040519150601f19603f3d011682016040523d82523d5f602084013e61132f565b606091505b50915091506113408783838761134b565b979650505050505050565b606083156113975782515f0361139057846001600160a01b03163b5f0361139057604051639996b31560e01b81526001600160a01b0386166004820152602401610988565b50816109a9565b6109a983838151156113ac5781518083602001fd5b6112978163ffffffff16565b5f5b838110156113d25781810151838201526020016113ba565b50505f910152565b5f81518084526113f18160208601602086016113b8565b601f01601f19169290920160200192915050565b602081525f6108c060208301846113da565b5f60208284031215611427575f80fd5b5035919050565b80356001600160a01b0381168114611444575f80fd5b919050565b5f806040838503121561145a575f80fd5b6114638361142e565b946020939093013593505050565b5f805f60608486031215611483575f80fd5b61148c8461142e565b925061149a6020850161142e565b9150604084013590509250925092565b80151581146114b7575f80fd5b50565b5f805f80608085870312156114cd575f80fd5b6114d68561142e565b93506114e46020860161142e565b92506040850135915060608501356114fb816114aa565b939692955090935050565b5f60208284031215611516575f80fd5b6108c08261142e565b5f8060408385031215611530575f80fd5b823591506115406020840161142e565b90509250929050565b5f805f805f60a0868803121561155d575f80fd5b6115668661142e565b94506115746020870161142e565b93506115826040870161142e565b94979396509394606081013594506080013592915050565b5f80604083850312156115ab575f80fd5b823591506020830135600481106115c0575f80fd5b809150509250929050565b5f805f80608085870312156115de575f80fd5b6115e78561142e565b93506115f56020860161142e565b93969395505050506040820135916060013590565b5f805f6060848603121561161c575f80fd5b8335925061162c6020850161142e565b915061163a6040850161142e565b90509250925092565b5f8060408385031215611654575f80fd5b61165d8361142e565b91506115406020840161142e565b5f6020828403121561167b575f80fd5b5051919050565b600181811c9082168061169657607f821691505b6020821081036116b457634e487b7160e01b5f52602260045260245ffd5b50919050565b634e487b7160e01b5f52601160045260245ffd5b60ff8181168382160190811115610879576108796116ba565b80820180821115610879576108796116ba565b6001600160a01b039390931683526020830191909152604082015260600190565b600181815b8085111561175557815f190482111561173b5761173b6116ba565b8085161561174857918102915b93841c9390800290611720565b509250929050565b5f8261176b57506001610879565b8161177757505f610879565b816001811461178d5760028114611797576117b3565b6001915050610879565b60ff8411156117a8576117a86116ba565b50506001821b610879565b5060208310610133831016604e8410600b84101617156117d6575081810a610879565b6117e0838361171b565b805f19048211156117f3576117f36116ba565b029392505050565b5f6108c060ff84168361175d565b634e487b7160e01b5f52601260045260245ffd5b634e487b7160e01b5f52602160045260245ffd5b5f60ff83168061184f57634e487b7160e01b5f52601260045260245ffd5b8060ff84160691505092915050565b5f6020828403121561186e575f80fd5b81516108c0816114aa565b5f825161188a8184602087016113b8565b919091019291505056fea26469706673582212207809936e11e4922a2788138472b1fa0f3b1e0ddbfd36fe452abc6bd8c70a14f664736f6c63430008140033",
  "linkReferences": {},
  "deployedLinkReferences": {}
}