{
  "_format": "hh-sol-artifact-1",
  "contractName": "$GovernorPreventLateQuorumMock",
  "sourceName": "contracts-exposed/mocks/governance/GovernorPreventLateQuorumMock.sol",
  "abi": [
    {
      "inputs": [
        {
          "internalType": "string",
          "name": "name_",
          "type": "string"
        },
        {
          "internalType": "uint48",
          "name": "initialVotingDelay",
          "type": "uint48"
        },
        {
          "internalType": "uint32",
          "name": "initialVotingPeriod",
          "type": "uint32"
        },
        {
          "internalType": "uint256",
          "name": "initialProposalThreshold",
          "type": "uint256"
        },
        {
          "internalType": "contract IVotes",
          "name": "tokenAddress",
          "type": "address"
        },
        {
          "internalType": "uint48",
          "name": "initialVoteExtension",
          "type": "uint48"
        },
        {
          "internalType": "uint256",
          "name": "quorum_",
          "type": "uint256"
        }
      ],
      "stateMutability": "payable",
      "type": "constructor"
    },
    {
      "inputs": [],
      "name": "FailedInnerCall",
      "type": "error"
    },
    {
      "inputs": [
        {
          "internalType": "address",
          "name": "voter",
          "type": "address"
        }
      ],
      "name": "GovernorAlreadyCastVote",
      "type": "error"
    },
    {
      "inputs": [],
      "name": "GovernorDisabledDeposit",
      "type": "error"
    },
    {
      "inputs": [
        {
          "internalType": "address",
          "name": "proposer",
          "type": "address"
        },
        {
          "internalType": "uint256",
          "name": "votes",
          "type": "uint256"
        },
        {
          "internalType": "uint256",
          "name": "threshold",
          "type": "uint256"
        }
      ],
      "name": "GovernorInsufficientProposerVotes",
      "type": "error"
    },
    {
      "inputs": [
        {
          "internalType": "uint256",
          "name": "targets",
          "type": "uint256"
        },
        {
          "internalType": "uint256",
          "name": "calldatas",
          "type": "uint256"
        },
        {
          "internalType": "uint256",
          "name": "values",
          "type": "uint256"
        }
      ],
      "name": "GovernorInvalidProposalLength",
      "type": "error"
    },
    {
      "inputs": [
        {
          "internalType": "address",
          "name": "voter",
          "type": "address"
        }
      ],
      "name": "GovernorInvalidSignature",
      "type": "error"
    },
    {
      "inputs": [],
      "name": "GovernorInvalidVoteType",
      "type": "error"
    },
    {
      "inputs": [
        {
          "internalType": "uint256",
          "name": "votingPeriod",
          "type": "uint256"
        }
      ],
      "name": "GovernorInvalidVotingPeriod",
      "type": "error"
    },
    {
      "inputs": [
        {
          "internalType": "uint256",
          "name": "proposalId",
          "type": "uint256"
        }
      ],
      "name": "GovernorNonexistentProposal",
      "type": "error"
    },
    {
      "inputs": [
        {
          "internalType": "address",
          "name": "account",
          "type": "address"
        }
      ],
      "name": "GovernorOnlyExecutor",
      "type": "error"
    },
    {
      "inputs": [
        {
          "internalType": "address",
          "name": "account",
          "type": "address"
        }
      ],
      "name": "GovernorOnlyProposer",
      "type": "error"
    },
    {
      "inputs": [
        {
          "internalType": "uint256",
          "name": "proposalId",
          "type": "uint256"
        },
        {
          "internalType": "enum IGovernor.ProposalState",
          "name": "current",
          "type": "uint8"
        },
        {
          "internalType": "bytes32",
          "name": "expectedStates",
          "type": "bytes32"
        }
      ],
      "name": "GovernorUnexpectedProposalState",
      "type": "error"
    },
    {
      "inputs": [
        {
          "internalType": "address",
          "name": "account",
          "type": "address"
        },
        {
          "internalType": "uint256",
          "name": "currentNonce",
          "type": "uint256"
        }
      ],
      "name": "InvalidAccountNonce",
      "type": "error"
    },
    {
      "inputs": [],
      "name": "InvalidShortString",
      "type": "error"
    },
    {
      "inputs": [],
      "name": "QueueEmpty",
      "type": "error"
    },
    {
      "inputs": [
        {
          "internalType": "uint8",
          "name": "bits",
          "type": "uint8"
        },
        {
          "internalType": "uint256",
          "name": "value",
          "type": "uint256"
        }
      ],
      "name": "SafeCastOverflowedUintDowncast",
      "type": "error"
    },
    {
      "inputs": [
        {
          "internalType": "string",
          "name": "str",
          "type": "string"
        }
      ],
      "name": "StringTooLong",
      "type": "error"
    },
    {
      "anonymous": false,
      "inputs": [],
      "name": "EIP712DomainChanged",
      "type": "event"
    },
    {
      "anonymous": false,
      "inputs": [
        {
          "indexed": false,
          "internalType": "uint64",
          "name": "oldVoteExtension",
          "type": "uint64"
        },
        {
          "indexed": false,
          "internalType": "uint64",
          "name": "newVoteExtension",
          "type": "uint64"
        }
      ],
      "name": "LateQuorumVoteExtensionSet",
      "type": "event"
    },
    {
      "anonymous": false,
      "inputs": [
        {
          "indexed": false,
          "internalType": "uint256",
          "name": "proposalId",
          "type": "uint256"
        }
      ],
      "name": "ProposalCanceled",
      "type": "event"
    },
    {
      "anonymous": false,
      "inputs": [
        {
          "indexed": false,
          "internalType": "uint256",
          "name": "proposalId",
          "type": "uint256"
        },
        {
          "indexed": false,
          "internalType": "address",
          "name": "proposer",
          "type": "address"
        },
        {
          "indexed": false,
          "internalType": "address[]",
          "name": "targets",
          "type": "address[]"
        },
        {
          "indexed": false,
          "internalType": "uint256[]",
          "name": "values",
          "type": "uint256[]"
        },
        {
          "indexed": false,
          "internalType": "string[]",
          "name": "signatures",
          "type": "string[]"
        },
        {
          "indexed": false,
          "internalType": "bytes[]",
          "name": "calldatas",
          "type": "bytes[]"
        },
        {
          "indexed": false,
          "internalType": "uint256",
          "name": "voteStart",
          "type": "uint256"
        },
        {
          "indexed": false,
          "internalType": "uint256",
          "name": "voteEnd",
          "type": "uint256"
        },
        {
          "indexed": false,
          "internalType": "string",
          "name": "description",
          "type": "string"
        }
      ],
      "name": "ProposalCreated",
      "type": "event"
    },
    {
      "anonymous": false,
      "inputs": [
        {
          "indexed": false,
          "internalType": "uint256",
          "name": "proposalId",
          "type": "uint256"
        }
      ],
      "name": "ProposalExecuted",
      "type": "event"
    },
    {
      "anonymous": false,
      "inputs": [
        {
          "indexed": true,
          "internalType": "uint256",
          "name": "proposalId",
          "type": "uint256"
        },
        {
          "indexed": false,
          "internalType": "uint64",
          "name": "extendedDeadline",
          "type": "uint64"
        }
      ],
      "name": "ProposalExtended",
      "type": "event"
    },
    {
      "anonymous": false,
      "inputs": [
        {
          "indexed": false,
          "internalType": "uint256",
          "name": "oldProposalThreshold",
          "type": "uint256"
        },
        {
          "indexed": false,
          "internalType": "uint256",
          "name": "newProposalThreshold",
          "type": "uint256"
        }
      ],
      "name": "ProposalThresholdSet",
      "type": "event"
    },
    {
      "anonymous": false,
      "inputs": [
        {
          "indexed": true,
          "internalType": "address",
          "name": "voter",
          "type": "address"
        },
        {
          "indexed": false,
          "internalType": "uint256",
          "name": "proposalId",
          "type": "uint256"
        },
        {
          "indexed": false,
          "internalType": "uint8",
          "name": "support",
          "type": "uint8"
        },
        {
          "indexed": false,
          "internalType": "uint256",
          "name": "weight",
          "type": "uint256"
        },
        {
          "indexed": false,
          "internalType": "string",
          "name": "reason",
          "type": "string"
        }
      ],
      "name": "VoteCast",
      "type": "event"
    },
    {
      "anonymous": false,
      "inputs": [
        {
          "indexed": true,
          "internalType": "address",
          "name": "voter",
          "type": "address"
        },
        {
          "indexed": false,
          "internalType": "uint256",
          "name": "proposalId",
          "type": "uint256"
        },
        {
          "indexed": false,
          "internalType": "uint8",
          "name": "support",
          "type": "uint8"
        },
        {
          "indexed": false,
          "internalType": "uint256",
          "name": "weight",
          "type": "uint256"
        },
        {
          "indexed": false,
          "internalType": "string",
          "name": "reason",
          "type": "string"
        },
        {
          "indexed": false,
          "internalType": "bytes",
          "name": "params",
          "type": "bytes"
        }
      ],
      "name": "VoteCastWithParams",
      "type": "event"
    },
    {
      "anonymous": false,
      "inputs": [
        {
          "indexed": false,
          "internalType": "uint256",
          "name": "oldVotingDelay",
          "type": "uint256"
        },
        {
          "indexed": false,
          "internalType": "uint256",
          "name": "newVotingDelay",
          "type": "uint256"
        }
      ],
      "name": "VotingDelaySet",
      "type": "event"
    },
    {
      "anonymous": false,
      "inputs": [
        {
          "indexed": false,
          "internalType": "uint256",
          "name": "oldVotingPeriod",
          "type": "uint256"
        },
        {
          "indexed": false,
          "internalType": "uint256",
          "name": "newVotingPeriod",
          "type": "uint256"
        }
      ],
      "name": "VotingPeriodSet",
      "type": "event"
    },
    {
      "anonymous": false,
      "inputs": [
        {
          "indexed": false,
          "internalType": "uint256",
          "name": "ret0",
          "type": "uint256"
        }
      ],
      "name": "return$_cancel",
      "type": "event"
    },
    {
      "anonymous": false,
      "inputs": [
        {
          "indexed": false,
          "internalType": "uint256",
          "name": "ret0",
          "type": "uint256"
        }
      ],
      "name": "return$_castVote_uint256_address_uint8_string",
      "type": "event"
    },
    {
      "anonymous": false,
      "inputs": [
        {
          "indexed": false,
          "internalType": "uint256",
          "name": "ret0",
          "type": "uint256"
        }
      ],
      "name": "return$_castVote_uint256_address_uint8_string_bytes",
      "type": "event"
    },
    {
      "anonymous": false,
      "inputs": [
        {
          "indexed": false,
          "internalType": "uint256",
          "name": "ret0",
          "type": "uint256"
        }
      ],
      "name": "return$_useCheckedNonce",
      "type": "event"
    },
    {
      "anonymous": false,
      "inputs": [
        {
          "indexed": false,
          "internalType": "uint256",
          "name": "ret0",
          "type": "uint256"
        }
      ],
      "name": "return$_useNonce",
      "type": "event"
    },
    {
      "inputs": [],
      "name": "$_EIP712Name",
      "outputs": [
        {
          "internalType": "string",
          "name": "ret0",
          "type": "string"
        }
      ],
      "stateMutability": "view",
      "type": "function"
    },
    {
      "inputs": [],
      "name": "$_EIP712Version",
      "outputs": [
        {
          "internalType": "string",
          "name": "ret0",
          "type": "string"
        }
      ],
      "stateMutability": "view",
      "type": "function"
    },
    {
      "inputs": [
        {
          "internalType": "uint256",
          "name": "arg0",
          "type": "uint256"
        },
        {
          "internalType": "address[]",
          "name": "arg1",
          "type": "address[]"
        },
        {
          "internalType": "uint256[]",
          "name": "arg2",
          "type": "uint256[]"
        },
        {
          "internalType": "bytes[]",
          "name": "arg3",
          "type": "bytes[]"
        },
        {
          "internalType": "bytes32",
          "name": "arg4",
          "type": "bytes32"
        }
      ],
      "name": "$_afterExecute",
      "outputs": [],
      "stateMutability": "nonpayable",
      "type": "function"
    },
    {
      "inputs": [
        {
          "internalType": "uint256",
          "name": "arg0",
          "type": "uint256"
        },
        {
          "internalType": "address[]",
          "name": "targets",
          "type": "address[]"
        },
        {
          "internalType": "uint256[]",
          "name": "arg2",
          "type": "uint256[]"
        },
        {
          "internalType": "bytes[]",
          "name": "calldatas",
          "type": "bytes[]"
        },
        {
          "internalType": "bytes32",
          "name": "arg4",
          "type": "bytes32"
        }
      ],
      "name": "$_beforeExecute",
      "outputs": [],
      "stateMutability": "nonpayable",
      "type": "function"
    },
    {
      "inputs": [
        {
          "internalType": "address[]",
          "name": "targets",
          "type": "address[]"
        },
        {
          "internalType": "uint256[]",
          "name": "values",
          "type": "uint256[]"
        },
        {
          "internalType": "bytes[]",
          "name": "calldatas",
          "type": "bytes[]"
        },
        {
          "internalType": "bytes32",
          "name": "descriptionHash",
          "type": "bytes32"
        }
      ],
      "name": "$_cancel",
      "outputs": [
        {
          "internalType": "uint256",
          "name": "ret0",
          "type": "uint256"
        }
      ],
      "stateMutability": "nonpayable",
      "type": "function"
    },
    {
      "inputs": [
        {
          "internalType": "uint256",
          "name": "proposalId",
          "type": "uint256"
        },
        {
          "internalType": "address",
          "name": "account",
          "type": "address"
        },
        {
          "internalType": "uint8",
          "name": "support",
          "type": "uint8"
        },
        {
          "internalType": "string",
          "name": "reason",
          "type": "string"
        },
        {
          "internalType": "bytes",
          "name": "params",
          "type": "bytes"
        }
      ],
      "name": "$_castVote",
      "outputs": [
        {
          "internalType": "uint256",
          "name": "ret0",
          "type": "uint256"
        }
      ],
      "stateMutability": "nonpayable",
      "type": "function"
    },
    {
      "inputs": [
        {
          "internalType": "uint256",
          "name": "proposalId",
          "type": "uint256"
        },
        {
          "internalType": "address",
          "name": "account",
          "type": "address"
        },
        {
          "internalType": "uint8",
          "name": "support",
          "type": "uint8"
        },
        {
          "internalType": "string",
          "name": "reason",
          "type": "string"
        }
      ],
      "name": "$_castVote",
      "outputs": [
        {
          "internalType": "uint256",
          "name": "ret0",
          "type": "uint256"
        }
      ],
      "stateMutability": "nonpayable",
      "type": "function"
    },
    {
      "inputs": [
        {
          "internalType": "uint256",
          "name": "proposalId",
          "type": "uint256"
        },
        {
          "internalType": "address",
          "name": "account",
          "type": "address"
        },
        {
          "internalType": "uint8",
          "name": "support",
          "type": "uint8"
        },
        {
          "internalType": "uint256",
          "name": "weight",
          "type": "uint256"
        },
        {
          "internalType": "bytes",
          "name": "arg4",
          "type": "bytes"
        }
      ],
      "name": "$_countVote",
      "outputs": [],
      "stateMutability": "nonpayable",
      "type": "function"
    },
    {
      "inputs": [],
      "name": "$_defaultParams",
      "outputs": [
        {
          "internalType": "bytes",
          "name": "ret0",
          "type": "bytes"
        }
      ],
      "stateMutability": "view",
      "type": "function"
    },
    {
      "inputs": [],
      "name": "$_domainSeparatorV4",
      "outputs": [
        {
          "internalType": "bytes32",
          "name": "ret0",
          "type": "bytes32"
        }
      ],
      "stateMutability": "view",
      "type": "function"
    },
    {
      "inputs": [
        {
          "internalType": "enum IGovernor.ProposalState",
          "name": "proposalState",
          "type": "uint8"
        }
      ],
      "name": "$_encodeStateBitmap",
      "outputs": [
        {
          "internalType": "bytes32",
          "name": "ret0",
          "type": "bytes32"
        }
      ],
      "stateMutability": "pure",
      "type": "function"
    },
    {
      "inputs": [
        {
          "internalType": "uint256",
          "name": "arg0",
          "type": "uint256"
        },
        {
          "internalType": "address[]",
          "name": "targets",
          "type": "address[]"
        },
        {
          "internalType": "uint256[]",
          "name": "values",
          "type": "uint256[]"
        },
        {
          "internalType": "bytes[]",
          "name": "calldatas",
          "type": "bytes[]"
        },
        {
          "internalType": "bytes32",
          "name": "arg4",
          "type": "bytes32"
        }
      ],
      "name": "$_execute",
      "outputs": [],
      "stateMutability": "nonpayable",
      "type": "function"
    },
    {
      "inputs": [],
      "name": "$_executor",
      "outputs": [
        {
          "internalType": "address",
          "name": "ret0",
          "type": "address"
        }
      ],
      "stateMutability": "view",
      "type": "function"
    },
    {
      "inputs": [
        {
          "internalType": "address",
          "name": "account",
          "type": "address"
        },
        {
          "internalType": "uint256",
          "name": "timepoint",
          "type": "uint256"
        },
        {
          "internalType": "bytes",
          "name": "arg2",
          "type": "bytes"
        }
      ],
      "name": "$_getVotes",
      "outputs": [
        {
          "internalType": "uint256",
          "name": "ret0",
          "type": "uint256"
        }
      ],
      "stateMutability": "view",
      "type": "function"
    },
    {
      "inputs": [
        {
          "internalType": "bytes32",
          "name": "structHash",
          "type": "bytes32"
        }
      ],
      "name": "$_hashTypedDataV4",
      "outputs": [
        {
          "internalType": "bytes32",
          "name": "ret0",
          "type": "bytes32"
        }
      ],
      "stateMutability": "view",
      "type": "function"
    },
    {
      "inputs": [
        {
          "internalType": "address",
          "name": "proposer",
          "type": "address"
        },
        {
          "internalType": "string",
          "name": "description",
          "type": "string"
        }
      ],
      "name": "$_isValidDescriptionForProposer",
      "outputs": [
        {
          "internalType": "bool",
          "name": "ret0",
          "type": "bool"
        }
      ],
      "stateMutability": "view",
      "type": "function"
    },
    {
      "inputs": [],
      "name": "$_msgData",
      "outputs": [
        {
          "internalType": "bytes",
          "name": "ret0",
          "type": "bytes"
        }
      ],
      "stateMutability": "view",
      "type": "function"
    },
    {
      "inputs": [],
      "name": "$_msgSender",
      "outputs": [
        {
          "internalType": "address",
          "name": "ret0",
          "type": "address"
        }
      ],
      "stateMutability": "view",
      "type": "function"
    },
    {
      "inputs": [
        {
          "internalType": "uint256",
          "name": "proposalId",
          "type": "uint256"
        }
      ],
      "name": "$_quorumReached",
      "outputs": [
        {
          "internalType": "bool",
          "name": "ret0",
          "type": "bool"
        }
      ],
      "stateMutability": "view",
      "type": "function"
    },
    {
      "inputs": [
        {
          "internalType": "uint48",
          "name": "newVoteExtension",
          "type": "uint48"
        }
      ],
      "name": "$_setLateQuorumVoteExtension",
      "outputs": [],
      "stateMutability": "nonpayable",
      "type": "function"
    },
    {
      "inputs": [
        {
          "internalType": "uint256",
          "name": "newProposalThreshold",
          "type": "uint256"
        }
      ],
      "name": "$_setProposalThreshold",
      "outputs": [],
      "stateMutability": "nonpayable",
      "type": "function"
    },
    {
      "inputs": [
        {
          "internalType": "uint48",
          "name": "newVotingDelay",
          "type": "uint48"
        }
      ],
      "name": "$_setVotingDelay",
      "outputs": [],
      "stateMutability": "nonpayable",
      "type": "function"
    },
    {
      "inputs": [
        {
          "internalType": "uint32",
          "name": "newVotingPeriod",
          "type": "uint32"
        }
      ],
      "name": "$_setVotingPeriod",
      "outputs": [],
      "stateMutability": "nonpayable",
      "type": "function"
    },
    {
      "inputs": [
        {
          "internalType": "address",
          "name": "owner",
          "type": "address"
        },
        {
          "internalType": "uint256",
          "name": "nonce",
          "type": "uint256"
        }
      ],
      "name": "$_useCheckedNonce",
      "outputs": [
        {
          "internalType": "uint256",
          "name": "ret0",
          "type": "uint256"
        }
      ],
      "stateMutability": "nonpayable",
      "type": "function"
    },
    {
      "inputs": [
        {
          "internalType": "address",
          "name": "owner",
          "type": "address"
        }
      ],
      "name": "$_useNonce",
      "outputs": [
        {
          "internalType": "uint256",
          "name": "ret0",
          "type": "uint256"
        }
      ],
      "stateMutability": "nonpayable",
      "type": "function"
    },
    {
      "inputs": [
        {
          "internalType": "uint256",
          "name": "proposalId",
          "type": "uint256"
        }
      ],
      "name": "$_voteSucceeded",
      "outputs": [
        {
          "internalType": "bool",
          "name": "ret0",
          "type": "bool"
        }
      ],
      "stateMutability": "view",
      "type": "function"
    },
    {
      "inputs": [],
      "name": "BALLOT_TYPEHASH",
      "outputs": [
        {
          "internalType": "bytes32",
          "name": "",
          "type": "bytes32"
        }
      ],
      "stateMutability": "view",
      "type": "function"
    },
    {
      "inputs": [],
      "name": "CLOCK_MODE",
      "outputs": [
        {
          "internalType": "string",
          "name": "",
          "type": "string"
        }
      ],
      "stateMutability": "view",
      "type": "function"
    },
    {
      "inputs": [],
      "name": "COUNTING_MODE",
      "outputs": [
        {
          "internalType": "string",
          "name": "",
          "type": "string"
        }
      ],
      "stateMutability": "pure",
      "type": "function"
    },
    {
      "inputs": [],
      "name": "EXTENDED_BALLOT_TYPEHASH",
      "outputs": [
        {
          "internalType": "bytes32",
          "name": "",
          "type": "bytes32"
        }
      ],
      "stateMutability": "view",
      "type": "function"
    },
    {
      "inputs": [],
      "name": "__hh_exposed_bytecode_marker",
      "outputs": [
        {
          "internalType": "bytes32",
          "name": "",
          "type": "bytes32"
        }
      ],
      "stateMutability": "view",
      "type": "function"
    },
    {
      "inputs": [
        {
          "internalType": "address[]",
          "name": "targets",
          "type": "address[]"
        },
        {
          "internalType": "uint256[]",
          "name": "values",
          "type": "uint256[]"
        },
        {
          "internalType": "bytes[]",
          "name": "calldatas",
          "type": "bytes[]"
        },
        {
          "internalType": "bytes32",
          "name": "descriptionHash",
          "type": "bytes32"
        }
      ],
      "name": "cancel",
      "outputs": [
        {
          "internalType": "uint256",
          "name": "",
          "type": "uint256"
        }
      ],
      "stateMutability": "nonpayable",
      "type": "function"
    },
    {
      "inputs": [
        {
          "internalType": "uint256",
          "name": "proposalId",
          "type": "uint256"
        },
        {
          "internalType": "uint8",
          "name": "support",
          "type": "uint8"
        }
      ],
      "name": "castVote",
      "outputs": [
        {
          "internalType": "uint256",
          "name": "",
          "type": "uint256"
        }
      ],
      "stateMutability": "nonpayable",
      "type": "function"
    },
    {
      "inputs": [
        {
          "internalType": "uint256",
          "name": "proposalId",
          "type": "uint256"
        },
        {
          "internalType": "uint8",
          "name": "support",
          "type": "uint8"
        },
        {
          "internalType": "address",
          "name": "voter",
          "type": "address"
        },
        {
          "internalType": "bytes",
          "name": "signature",
          "type": "bytes"
        }
      ],
      "name": "castVoteBySig",
      "outputs": [
        {
          "internalType": "uint256",
          "name": "",
          "type": "uint256"
        }
      ],
      "stateMutability": "nonpayable",
      "type": "function"
    },
    {
      "inputs": [
        {
          "internalType": "uint256",
          "name": "proposalId",
          "type": "uint256"
        },
        {
          "internalType": "uint8",
          "name": "support",
          "type": "uint8"
        },
        {
          "internalType": "string",
          "name": "reason",
          "type": "string"
        }
      ],
      "name": "castVoteWithReason",
      "outputs": [
        {
          "internalType": "uint256",
          "name": "",
          "type": "uint256"
        }
      ],
      "stateMutability": "nonpayable",
      "type": "function"
    },
    {
      "inputs": [
        {
          "internalType": "uint256",
          "name": "proposalId",
          "type": "uint256"
        },
        {
          "internalType": "uint8",
          "name": "support",
          "type": "uint8"
        },
        {
          "internalType": "string",
          "name": "reason",
          "type": "string"
        },
        {
          "internalType": "bytes",
          "name": "params",
          "type": "bytes"
        }
      ],
      "name": "castVoteWithReasonAndParams",
      "outputs": [
        {
          "internalType": "uint256",
          "name": "",
          "type": "uint256"
        }
      ],
      "stateMutability": "nonpayable",
      "type": "function"
    },
    {
      "inputs": [
        {
          "internalType": "uint256",
          "name": "proposalId",
          "type": "uint256"
        },
        {
          "internalType": "uint8",
          "name": "support",
          "type": "uint8"
        },
        {
          "internalType": "address",
          "name": "voter",
          "type": "address"
        },
        {
          "internalType": "string",
          "name": "reason",
          "type": "string"
        },
        {
          "internalType": "bytes",
          "name": "params",
          "type": "bytes"
        },
        {
          "internalType": "bytes",
          "name": "signature",
          "type": "bytes"
        }
      ],
      "name": "castVoteWithReasonAndParamsBySig",
      "outputs": [
        {
          "internalType": "uint256",
          "name": "",
          "type": "uint256"
        }
      ],
      "stateMutability": "nonpayable",
      "type": "function"
    },
    {
      "inputs": [],
      "name": "clock",
      "outputs": [
        {
          "internalType": "uint48",
          "name": "",
          "type": "uint48"
        }
      ],
      "stateMutability": "view",
      "type": "function"
    },
    {
      "inputs": [],
      "name": "eip712Domain",
      "outputs": [
        {
          "internalType": "bytes1",
          "name": "fields",
          "type": "bytes1"
        },
        {
          "internalType": "string",
          "name": "name",
          "type": "string"
        },
        {
          "internalType": "string",
          "name": "version",
          "type": "string"
        },
        {
          "internalType": "uint256",
          "name": "chainId",
          "type": "uint256"
        },
        {
          "internalType": "address",
          "name": "verifyingContract",
          "type": "address"
        },
        {
          "internalType": "bytes32",
          "name": "salt",
          "type": "bytes32"
        },
        {
          "internalType": "uint256[]",
          "name": "extensions",
          "type": "uint256[]"
        }
      ],
      "stateMutability": "view",
      "type": "function"
    },
    {
      "inputs": [
        {
          "internalType": "address[]",
          "name": "targets",
          "type": "address[]"
        },
        {
          "internalType": "uint256[]",
          "name": "values",
          "type": "uint256[]"
        },
        {
          "internalType": "bytes[]",
          "name": "calldatas",
          "type": "bytes[]"
        },
        {
          "internalType": "bytes32",
          "name": "descriptionHash",
          "type": "bytes32"
        }
      ],
      "name": "execute",
      "outputs": [
        {
          "internalType": "uint256",
          "name": "",
          "type": "uint256"
        }
      ],
      "stateMutability": "payable",
      "type": "function"
    },
    {
      "inputs": [
        {
          "internalType": "address",
          "name": "account",
          "type": "address"
        },
        {
          "internalType": "uint256",
          "name": "timepoint",
          "type": "uint256"
        }
      ],
      "name": "getVotes",
      "outputs": [
        {
          "internalType": "uint256",
          "name": "",
          "type": "uint256"
        }
      ],
      "stateMutability": "view",
      "type": "function"
    },
    {
      "inputs": [
        {
          "internalType": "address",
          "name": "account",
          "type": "address"
        },
        {
          "internalType": "uint256",
          "name": "timepoint",
          "type": "uint256"
        },
        {
          "internalType": "bytes",
          "name": "params",
          "type": "bytes"
        }
      ],
      "name": "getVotesWithParams",
      "outputs": [
        {
          "internalType": "uint256",
          "name": "",
          "type": "uint256"
        }
      ],
      "stateMutability": "view",
      "type": "function"
    },
    {
      "inputs": [
        {
          "internalType": "uint256",
          "name": "proposalId",
          "type": "uint256"
        },
        {
          "internalType": "address",
          "name": "account",
          "type": "address"
        }
      ],
      "name": "hasVoted",
      "outputs": [
        {
          "internalType": "bool",
          "name": "",
          "type": "bool"
        }
      ],
      "stateMutability": "view",
      "type": "function"
    },
    {
      "inputs": [
        {
          "internalType": "address[]",
          "name": "targets",
          "type": "address[]"
        },
        {
          "internalType": "uint256[]",
          "name": "values",
          "type": "uint256[]"
        },
        {
          "internalType": "bytes[]",
          "name": "calldatas",
          "type": "bytes[]"
        },
        {
          "internalType": "bytes32",
          "name": "descriptionHash",
          "type": "bytes32"
        }
      ],
      "name": "hashProposal",
      "outputs": [
        {
          "internalType": "uint256",
          "name": "",
          "type": "uint256"
        }
      ],
      "stateMutability": "pure",
      "type": "function"
    },
    {
      "inputs": [],
      "name": "lateQuorumVoteExtension",
      "outputs": [
        {
          "internalType": "uint48",
          "name": "",
          "type": "uint48"
        }
      ],
      "stateMutability": "view",
      "type": "function"
    },
    {
      "inputs": [],
      "name": "name",
      "outputs": [
        {
          "internalType": "string",
          "name": "",
          "type": "string"
        }
      ],
      "stateMutability": "view",
      "type": "function"
    },
    {
      "inputs": [
        {
          "internalType": "address",
          "name": "owner",
          "type": "address"
        }
      ],
      "name": "nonces",
      "outputs": [
        {
          "internalType": "uint256",
          "name": "",
          "type": "uint256"
        }
      ],
      "stateMutability": "view",
      "type": "function"
    },
    {
      "inputs": [
        {
          "internalType": "address",
          "name": "",
          "type": "address"
        },
        {
          "internalType": "address",
          "name": "",
          "type": "address"
        },
        {
          "internalType": "uint256[]",
          "name": "",
          "type": "uint256[]"
        },
        {
          "internalType": "uint256[]",
          "name": "",
          "type": "uint256[]"
        },
        {
          "internalType": "bytes",
          "name": "",
          "type": "bytes"
        }
      ],
      "name": "onERC1155BatchReceived",
      "outputs": [
        {
          "internalType": "bytes4",
          "name": "",
          "type": "bytes4"
        }
      ],
      "stateMutability": "nonpayable",
      "type": "function"
    },
    {
      "inputs": [
        {
          "internalType": "address",
          "name": "",
          "type": "address"
        },
        {
          "internalType": "address",
          "name": "",
          "type": "address"
        },
        {
          "internalType": "uint256",
          "name": "",
          "type": "uint256"
        },
        {
          "internalType": "uint256",
          "name": "",
          "type": "uint256"
        },
        {
          "internalType": "bytes",
          "name": "",
          "type": "bytes"
        }
      ],
      "name": "onERC1155Received",
      "outputs": [
        {
          "internalType": "bytes4",
          "name": "",
          "type": "bytes4"
        }
      ],
      "stateMutability": "nonpayable",
      "type": "function"
    },
    {
      "inputs": [
        {
          "internalType": "address",
          "name": "",
          "type": "address"
        },
        {
          "internalType": "address",
          "name": "",
          "type": "address"
        },
        {
          "internalType": "uint256",
          "name": "",
          "type": "uint256"
        },
        {
          "internalType": "bytes",
          "name": "",
          "type": "bytes"
        }
      ],
      "name": "onERC721Received",
      "outputs": [
        {
          "internalType": "bytes4",
          "name": "",
          "type": "bytes4"
        }
      ],
      "stateMutability": "nonpayable",
      "type": "function"
    },
    {
      "inputs": [
        {
          "internalType": "uint256",
          "name": "proposalId",
          "type": "uint256"
        }
      ],
      "name": "proposalDeadline",
      "outputs": [
        {
          "internalType": "uint256",
          "name": "",
          "type": "uint256"
        }
      ],
      "stateMutability": "view",
      "type": "function"
    },
    {
      "inputs": [
        {
          "internalType": "uint256",
          "name": "proposalId",
          "type": "uint256"
        }
      ],
      "name": "proposalProposer",
      "outputs": [
        {
          "internalType": "address",
          "name": "",
          "type": "address"
        }
      ],
      "stateMutability": "view",
      "type": "function"
    },
    {
      "inputs": [
        {
          "internalType": "uint256",
          "name": "proposalId",
          "type": "uint256"
        }
      ],
      "name": "proposalSnapshot",
      "outputs": [
        {
          "internalType": "uint256",
          "name": "",
          "type": "uint256"
        }
      ],
      "stateMutability": "view",
      "type": "function"
    },
    {
      "inputs": [],
      "name": "proposalThreshold",
      "outputs": [
        {
          "internalType": "uint256",
          "name": "",
          "type": "uint256"
        }
      ],
      "stateMutability": "view",
      "type": "function"
    },
    {
      "inputs": [
        {
          "internalType": "uint256",
          "name": "proposalId",
          "type": "uint256"
        }
      ],
      "name": "proposalVotes",
      "outputs": [
        {
          "internalType": "uint256",
          "name": "againstVotes",
          "type": "uint256"
        },
        {
          "internalType": "uint256",
          "name": "forVotes",
          "type": "uint256"
        },
        {
          "internalType": "uint256",
          "name": "abstainVotes",
          "type": "uint256"
        }
      ],
      "stateMutability": "view",
      "type": "function"
    },
    {
      "inputs": [
        {
          "internalType": "address[]",
          "name": "targets",
          "type": "address[]"
        },
        {
          "internalType": "uint256[]",
          "name": "values",
          "type": "uint256[]"
        },
        {
          "internalType": "bytes[]",
          "name": "calldatas",
          "type": "bytes[]"
        },
        {
          "internalType": "string",
          "name": "description",
          "type": "string"
        }
      ],
      "name": "propose",
      "outputs": [
        {
          "internalType": "uint256",
          "name": "",
          "type": "uint256"
        }
      ],
      "stateMutability": "nonpayable",
      "type": "function"
    },
    {
      "inputs": [
        {
          "internalType": "uint256",
          "name": "",
          "type": "uint256"
        }
      ],
      "name": "quorum",
      "outputs": [
        {
          "internalType": "uint256",
          "name": "",
          "type": "uint256"
        }
      ],
      "stateMutability": "view",
      "type": "function"
    },
    {
      "inputs": [
        {
          "internalType": "address",
          "name": "target",
          "type": "address"
        },
        {
          "internalType": "uint256",
          "name": "value",
          "type": "uint256"
        },
        {
          "internalType": "bytes",
          "name": "data",
          "type": "bytes"
        }
      ],
      "name": "relay",
      "outputs": [],
      "stateMutability": "payable",
      "type": "function"
    },
    {
      "inputs": [
        {
          "internalType": "uint48",
          "name": "newVoteExtension",
          "type": "uint48"
        }
      ],
      "name": "setLateQuorumVoteExtension",
      "outputs": [],
      "stateMutability": "nonpayable",
      "type": "function"
    },
    {
      "inputs": [
        {
          "internalType": "uint256",
          "name": "newProposalThreshold",
          "type": "uint256"
        }
      ],
      "name": "setProposalThreshold",
      "outputs": [],
      "stateMutability": "nonpayable",
      "type": "function"
    },
    {
      "inputs": [
        {
          "internalType": "uint48",
          "name": "newVotingDelay",
          "type": "uint48"
        }
      ],
      "name": "setVotingDelay",
      "outputs": [],
      "stateMutability": "nonpayable",
      "type": "function"
    },
    {
      "inputs": [
        {
          "internalType": "uint32",
          "name": "newVotingPeriod",
          "type": "uint32"
        }
      ],
      "name": "setVotingPeriod",
      "outputs": [],
      "stateMutability": "nonpayable",
      "type": "function"
    },
    {
      "inputs": [
        {
          "internalType": "uint256",
          "name": "proposalId",
          "type": "uint256"
        }
      ],
      "name": "state",
      "outputs": [
        {
          "internalType": "enum IGovernor.ProposalState",
          "name": "",
          "type": "uint8"
        }
      ],
      "stateMutability": "view",
      "type": "function"
    },
    {
      "inputs": [
        {
          "internalType": "bytes4",
          "name": "interfaceId",
          "type": "bytes4"
        }
      ],
      "name": "supportsInterface",
      "outputs": [
        {
          "internalType": "bool",
          "name": "",
          "type": "bool"
        }
      ],
      "stateMutability": "view",
      "type": "function"
    },
    {
      "inputs": [],
      "name": "token",
      "outputs": [
        {
          "internalType": "contract IERC5805",
          "name": "",
          "type": "address"
        }
      ],
      "stateMutability": "view",
      "type": "function"
    },
    {
      "inputs": [],
      "name": "version",
      "outputs": [
        {
          "internalType": "string",
          "name": "",
          "type": "string"
        }
      ],
      "stateMutability": "view",
      "type": "function"
    },
    {
      "inputs": [],
      "name": "votingDelay",
      "outputs": [
        {
          "internalType": "uint256",
          "name": "",
          "type": "uint256"
        }
      ],
      "stateMutability": "view",
      "type": "function"
    },
    {
      "inputs": [],
      "name": "votingPeriod",
      "outputs": [
        {
          "internalType": "uint256",
          "name": "",
          "type": "uint256"
        }
      ],
      "stateMutability": "view",
      "type": "function"
    },
    {
      "stateMutability": "payable",
      "type": "receive"
    }
  ],
  "bytecode": "0x61018060405260405162004a2938038062004a2983398101604081905262000027916200040a565b8082848888888c806200004e6040805180820190915260018152603160f81b602082015290565b6200005a825f62000160565b610120526200006b81600162000160565b61014052815160208084019190912060e052815190820120610100524660a052620000f860e05161010051604080517f8b73c3c69bb8fe3d512ecc4cf759cc79239f7b179b0ffacaa9a75d522b39400f60208201529081019290925260608201524660808201523060a08201525f9060c00160405160208183030381529060405280519060200120905090565b60805250503060c05260036200010f8282620005a6565b506200011d90508362000198565b6200012882620001fe565b6200013381620002a3565b5050506001600160a01b0316610160526200014e81620002e4565b50600c5550620006c695505050505050565b5f6020835110156200017f5762000177836200034a565b905062000192565b816200018c8482620005a6565b5060ff90505b92915050565b6008546040805165ffffffffffff928316815291831660208301527fc565b045403dc03c2eea82b81a0465edad9e2e7fc4d97e11421c209da93d7a93910160405180910390a16008805465ffffffffffff191665ffffffffffff92909216919091179055565b8063ffffffff165f036200022c5760405163f1cfbf0560e01b81525f60048201526024015b60405180910390fd5b6008546040805163ffffffff66010000000000009093048316815291831660208301527f7e3f7f0708a84de9203036abaa450dccc85ad5ff52f78c170f3edb55cf5e8828910160405180910390a16008805463ffffffff90921666010000000000000263ffffffff60301b19909216919091179055565b60075460408051918252602082018390527fccb45da8d5717e6c4544694297c4ba5cf151d455c9bb0ed4fc7a38411bc05461910160405180910390a1600755565b600a546040805165ffffffffffff928316815291831660208301527f7ca4ac117ed3cdce75c1161d8207c440389b1a15d69d096831664657c07dafc2910160405180910390a1600a805465ffffffffffff191665ffffffffffff92909216919091179055565b5f80829050601f8151111562000377578260405163305a27a960e01b81526004016200022391906200066e565b80516200038482620006a2565b179392505050565b634e487b7160e01b5f52604160045260245ffd5b5f5b83811015620003bc578181015183820152602001620003a2565b50505f910152565b805165ffffffffffff81168114620003da575f80fd5b919050565b805163ffffffff81168114620003da575f80fd5b80516001600160a01b0381168114620003da575f80fd5b5f805f805f805f60e0888a03121562000421575f80fd5b87516001600160401b038082111562000438575f80fd5b818a0191508a601f8301126200044c575f80fd5b8151818111156200046157620004616200038c565b604051601f8201601f19908116603f011681019083821181831017156200048c576200048c6200038c565b816040528281528d6020848701011115620004a5575f80fd5b620004b8836020830160208801620003a0565b809b505050505050620004ce60208901620003c4565b9550620004de60408901620003df565b945060608801519350620004f560808901620003f3565b92506200050560a08901620003c4565b915060c0880151905092959891949750929550565b600181811c908216806200052f57607f821691505b6020821081036200054e57634e487b7160e01b5f52602260045260245ffd5b50919050565b601f821115620005a1575f81815260208120601f850160051c810160208610156200057c5750805b601f850160051c820191505b818110156200059d5782815560010162000588565b5050505b505050565b81516001600160401b03811115620005c257620005c26200038c565b620005da81620005d384546200051a565b8462000554565b602080601f83116001811462000610575f8415620005f85750858301515b5f19600386901b1c1916600185901b1785556200059d565b5f85815260208120601f198616915b8281101562000640578886015182559484019460019091019084016200061f565b50858210156200065e57878501515f19600388901b60f8161c191681555b5050505050600190811b01905550565b602081525f82518060208401526200068e816040850160208701620003a0565b601f01601f19169190910160400192915050565b805160208083015191908110156200054e575f1960209190910360031b1b16919050565b60805160a05160c05160e051610100516101205161014051610160516142f2620007375f395f8181610cac0152818161134501528181611c49015261287b01525f6120a701525f61207b01525f6126f801525f6126d001525f61262b01525f61265501525f61267f01526142f25ff3fe6080604052600436106103e2575f3560e01c80636b2f5df0116101ff578063c242bfc711610113578063deaaa7cc116100a8578063ece40cc111610078578063ece40cc114610c30578063f23a6e6114610c4f578063f8ce560a14610c7a578063fc0c546a14610c9b578063fc2e6e3c14610cce575f80fd5b8063deaaa7cc14610ba0578063e540d01d14610bd3578063e7fadc1614610bf2578063eb9019d414610c11575f80fd5b8063da1c08ff116100e3578063da1c08ff14610a30578063daf80f5f14610b1d578063dc0e43d214610b3c578063dd4e2ba514610b5b575f80fd5b8063c242bfc714610aad578063c28bc2fa14610acc578063c59057e414610adf578063cbc1c5f314610afe575f80fd5b806385bf3b0b11610194578063a15697c411610164578063a15697c414610a11578063a4da590b14610a30578063b58131b014610a4f578063bc197c8114610a63578063c01f9e3714610a8e575f80fd5b806385bf3b0b146109a05780638ff262e3146109bf57806391ddadf4146109de5780639a802a6d146109f2575f80fd5b80637b3c71d3116101cf5780637b3c71d3146109075780637d5e81e2146109265780637ecebe001461094557806384b0196e14610979575f80fd5b80636b2f5df01461088b5780636b4ac502146108aa57806372352945146108c957806379051887146108e8575f80fd5b8063342db739116102f6578063506a6f0c1161028b578063567813881161025b57806356781388146108065780635b8d0e0d146108255780635c501ba8146108445780635f398a14146108585780635f8d5e7414610877575f80fd5b8063506a6f0c1461074c578063544ffc9c1461076b57806354dc7b41146107be57806354fd4d50146107dd575f80fd5b8063452115d6116102c6578063452115d6146106e85780634724aa99146107075780634abf4684146107195780634bf5d7e914610738575f80fd5b8063342db7391461065c5780633932abb1146106815780633e4f49e61461069d57806343859632146106c9575f80fd5b80632656227d116103775780632fe3e261116103475780632fe3e261146105a857806332b8113e146105db57806332cadf3c1461060a57806332f4dd991461061e578063330df7ff1461063d575f80fd5b80632656227d146105455780632904df29146105585780632d63f6931461056a5780632e8fbee514610589575f80fd5b80631164d13b116103b25780631164d13b1461048e578063143489d0146104a2578063150b7a02146104ee578063174ccd8214610531575f80fd5b806301ffc9a7146103ef57806302a251a31461042357806306fdde031461044e5780630ede0bea1461046f575f80fd5b366103eb57005b005b5f80fd5b3480156103fa575f80fd5b5061040e61040936600461309e565b610ced565b60405190151581526020015b60405180910390f35b34801561042e575f80fd5b50600854600160301b900463ffffffff165b60405190815260200161041a565b348015610459575f80fd5b50610462610d89565b60405161041a9190613112565b34801561047a575f80fd5b506103e9610489366004613124565b610e19565b348015610499575f80fd5b50610462610e25565b3480156104ad575f80fd5b506104d66104bc366004613147565b5f908152600460205260409020546001600160a01b031690565b6040516001600160a01b03909116815260200161041a565b3480156104f9575f80fd5b50610518610508366004613237565b630a85bd0160e11b949350505050565b6040516001600160e01b0319909116815260200161041a565b34801561053c575f80fd5b50610462610e34565b61044061055336600461340c565b610e3e565b348015610563575f80fd5b50336104d6565b348015610575575f80fd5b50610440610584366004613147565b610f58565b348015610594575f80fd5b506104406105a3366004613495565b610f78565b3480156105b3575f80fd5b506104407f3e83946653575f9a39005e1545185629e92736b7528ab20ca3816f315424a81181565b3480156105e6575f80fd5b50600a5465ffffffffffff165b60405165ffffffffffff909116815260200161041a565b348015610615575f80fd5b50610462610fc2565b348015610629575f80fd5b50610440610638366004613502565b610fff565b348015610648575f80fd5b506103e96106573660046135a8565b6110ba565b348015610667575f80fd5b506104406e1a185c991a185d0b595e1c1bdcd959608a1b81565b34801561068c575f80fd5b5060085465ffffffffffff16610440565b3480156106a8575f80fd5b506106bc6106b7366004613147565b611103565b60405161041a91906135f7565b3480156106d4575f80fd5b5061040e6106e3366004613605565b61124d565b3480156106f3575f80fd5b5061044061070236600461340c565b61127c565b348015610712575f80fd5b50306104d6565b348015610724575f80fd5b5061040e610733366004613147565b611326565b348015610743575f80fd5b50610462611341565b348015610757575f80fd5b50610440610766366004613147565b611401565b348015610776575f80fd5b506107a3610785366004613147565b5f908152600960205260409020805460018201546002909201549092565b6040805193845260208401929092529082015260600161041a565b3480156107c9575f80fd5b5061040e6107d836600461362f565b61140b565b3480156107e8575f80fd5b506040805180820190915260018152603160f81b6020820152610462565b348015610811575f80fd5b5061044061082036600461367d565b611453565b348015610830575f80fd5b5061044061083f36600461369e565b611472565b34801561084f575f80fd5b506104626115b1565b348015610863575f80fd5b5061044061087236600461374e565b6115c7565b348015610882575f80fd5b5061044061160f565b348015610896575f80fd5b506104406108a536600461380b565b611618565b3480156108b5575f80fd5b506104406108c43660046138a5565b6116c4565b3480156108d4575f80fd5b506104406108e33660046138cd565b611710565b3480156108f3575f80fd5b506103e96109023660046135a8565b611796565b348015610912575f80fd5b50610440610921366004613936565b6117be565b348015610931575f80fd5b5061044061094036600461398b565b611804565b348015610950575f80fd5b5061044061095f366004613495565b6001600160a01b03165f9081526002602052604090205490565b348015610984575f80fd5b5061098d611b52565b60405161041a9796959493929190613a70565b3480156109ab575f80fd5b506103e96109ba3660046135a8565b6110fa565b3480156109ca575f80fd5b506104406109d9366004613adf565b611b94565b3480156109e9575f80fd5b506105f3611c46565b3480156109fd575f80fd5b50610440610a0c366004613b2a565b611cce565b348015610a1c575f80fd5b50610440610a2b366004613b7c565b611ce1565b348015610a3b575f80fd5b506103e9610a4a366004613b9a565b611ceb565b348015610a5a575f80fd5b50610440611d6e565b348015610a6e575f80fd5b50610518610a7d366004613c3c565b63bc197c8160e01b95945050505050565b348015610a99575f80fd5b50610440610aa8366004613147565b611d78565b348015610ab8575f80fd5b506103e9610ac7366004613cc4565b611d82565b6103e9610ada366004613d36565b611dcc565b348015610aea575f80fd5b50610440610af936600461340c565b611e64565b348015610b09575f80fd5b50610440610b18366004613d36565b611e9d565b348015610b28575f80fd5b5061040e610b37366004613147565b611ee7565b348015610b47575f80fd5b506103e9610b56366004613b9a565b611ef1565b348015610b66575f80fd5b506040805180820190915260208082527f737570706f72743d627261766f2671756f72756d3d666f722c6162737461696e90820152610462565b348015610bab575f80fd5b506104407ff2aad550cf55f045cb27e9c559f9889fdfb6e6cdaa032301d6ea397784ae51d781565b348015610bde575f80fd5b506103e9610bed366004613124565b611f6a565b348015610bfd575f80fd5b506103e9610c0c3660046135a8565b6117b5565b348015610c1c575f80fd5b50610440610c2b3660046138a5565b611f91565b348015610c3b575f80fd5b506103e9610c4a366004613147565b611fb0565b348015610c5a575f80fd5b50610518610c69366004613d73565b63f23a6e6160e01b95945050505050565b348015610c85575f80fd5b50610440610c94366004613147565b50600c5490565b348015610ca6575f80fd5b506104d67f000000000000000000000000000000000000000000000000000000000000000081565b348015610cd9575f80fd5b506103e9610ce8366004613147565b611fcf565b5f63288ace0360e11b63278d2b9d60e21b630b184e8960e01b63952ce0fd60e01b6001600160e01b03198616821480610d3257506001600160e01b0319868116908216145b80610d4957506001600160e01b0319868116908516145b80610d6457506001600160e01b03198616630271189760e51b145b80610d7f57506301ffc9a760e01b6001600160e01b03198716145b9695505050505050565b606060038054610d9890613dd2565b80601f0160208091040260200160405190810160405280929190818152602001828054610dc490613dd2565b8015610e0f5780601f10610de657610100808354040283529160200191610e0f565b820191905f5260205f20905b815481529060010190602001808311610df257829003601f168201915b5050505050905090565b610e2281611fd8565b50565b6060610e2f612074565b905090565b6060610e2f6120a0565b5f80610e4c86868686611e64565b90505f610e5882611103565b90506004816007811115610e6e57610e6e6135c3565b14158015610e8e57506005816007811115610e8b57610e8b6135c3565b14155b15610ecf578181610e9f60056120cd565b610ea960046120cd565b176040516331b75e4d60e01b8152600401610ec693929190613e0a565b60405180910390fd5b5f8281526004602052604090819020805460ff60f01b1916600160f01b179055517f712ae1383f79ac853f8d882153778e0260ef8f03b504e2866e0593e04d2b291f90610f1f9084815260200190565b60405180910390a1610f3482888888886120ef565b610f41828888888861217a565b610f4e82888888886120ef565b5095945050505050565b5f90815260046020526040902054600160a01b900465ffffffffffff1690565b5f610f828261224d565b90507f8d5c13b1cd528a3e1895fdc833368c4e3af5391250c736a28e94c4fa59b3cee481604051610fb591815260200190565b60405180910390a1919050565b60605f368080601f0160208091040260200160405190810160405280939291908181526020018383808284375f9201919091525092949350505050565b5f61107488888888888080601f0160208091040260200160405190810160405280939291908181526020018383808284375f9201919091525050604080516020601f8c018190048102820181019092528a815292508a91508990819084018382808284375f9201919091525061226f92505050565b90507fbbc294ee3436818a3742886cdeae66253f76b5be8870371c691fc6998bd341d5816040516110a791815260200190565b60405180910390a1979650505050505050565b3033146109ba57335b6040516347096e4760e01b81526001600160a01b039091166004820152602401610ec6565b806110f3600561227d565b036110e857505b610e22816122fa565b5f818152600460209081526040808320815160a08101835290546001600160a01b038116825265ffffffffffff600160a01b8204169382019390935263ffffffff600160d01b8404169181019190915260ff600160f01b830481161580156060840152600160f81b9093041615156080820152906111845750600792915050565b8060800151156111975750600292915050565b5f6111a184610f58565b9050805f036111c657604051636ad0607560e01b815260048101859052602401610ec6565b5f6111cf611c46565b65ffffffffffff1690508082106111ea57505f949350505050565b5f6111f486611d78565b90508181106112095750600195945050505050565b61121286612360565b801561123057505f8681526009602052604090208054600190910154115b156112415750600495945050505050565b50600395945050505050565b5f8281526009602090815260408083206001600160a01b038516845260030190915290205460ff165b92915050565b5f8061128a86868686611e64565b90505f61129682611103565b90505f8160078111156112ab576112ab6135c3565b146112d75781816112bb5f6120cd565b6040516331b75e4d60e01b8152600401610ec693929190613e0a565b5f828152600460205260409020546001600160a01b0316331461130f5760405163233d98e360e01b8152336004820152602401610ec6565b61131b87878787612396565b979650505050505050565b5f818152600960205260408120805460019091015411611276565b60607f00000000000000000000000000000000000000000000000000000000000000006001600160a01b0316634bf5d7e96040518163ffffffff1660e01b81526004015f60405180830381865afa9250505080156113c057506040513d5f823e601f3d908101601f191682016040526113bd9190810190613e3b565b60015b6113fc575060408051808201909152601d81527f6d6f64653d626c6f636b6e756d6265722666726f6d3d64656661756c74000000602082015290565b919050565b5f6112768261248f565b5f61144b8484848080601f0160208091040260200160405190810160405280939291908181526020018383808284375f920191909152506124bb92505050565b949350505050565b5f8033905061144b84828560405180602001604052805f8152506125a9565b5f80611536876115307f3e83946653575f9a39005e1545185629e92736b7528ab20ca3816f315424a8118c8c8c6114a88e61224d565b8d8d6040516114b8929190613e2c565b60405180910390208c805190602001206040516020016115159796959493929190968752602087019590955260ff9390931660408601526001600160a01b03919091166060850152608084015260a083015260c082015260e00190565b6040516020818303038152906040528051906020012061248f565b856125ca565b905080611561576040516394ab6c0760e01b81526001600160a01b0388166004820152602401610ec6565b6115a489888a89898080601f0160208091040260200160405190810160405280939291908181526020018383808284375f920191909152508b925061226f915050565b9998505050505050505050565b6060610e2f60408051602081019091525f815290565b5f8033905061131b87828888888080601f0160208091040260200160405190810160405280939291908181526020018383808284375f920191909152508a925061226f915050565b5f610e2f61261f565b5f6116918888808060200260200160405190810160405280939291908181526020018383602002808284375f9201919091525050604080516020808c0282810182019093528b82529093508b92508a9182918501908490808284375f9201919091525061168b9250889150899050613ea3565b85612396565b90507f1e0d283ef767dcb5f9efcfe0fbcac2701275d0c54fc3493502558dc018cc3ba2816040516110a791815260200190565b5f6116cf8383612748565b90507f173c6dfbda204d89ae7b46789365591384ef0c959833564582f96cd15f445b9b8160405161170291815260200190565b60405180910390a192915050565b5f61175286868686868080601f0160208091040260200160405190810160405280939291908181526020018383808284375f920191909152506125a992505050565b90507fdbf058c917126a478393ed3aa13dcdc461cc19db88c176507846e6f69ca627f98160405161178591815260200190565b60405180910390a195945050505050565b303314610c0c57336110c3565b806117ae600561227d565b036117a357505b610e2281612787565b5f80339050610d7f86828787878080601f0160208091040260200160405190810160405280939291908181526020018383808284375f920191909152506125a992505050565b5f3361181081846124bb565b61185c5760405162461bcd60e51b815260206004820152601d60248201527f476f7665726e6f723a2070726f706f73657220726573747269637465640000006044820152606401610ec6565b5f611865611c46565b65ffffffffffff1690505f61187f83610c2b600185613ec3565b90505f61188a611d6e565b9050808210156118c657604051636121770b60e11b81526001600160a01b03851660048201526024810183905260448101829052606401610ec6565b50505f6118dc8888888880519060200120611e64565b9050865188511415806118f157508551885114155b806118fb57508751155b1561193057875186518851604051630447b05d60e41b8152600481019390935260248301919091526044820152606401610ec6565b5f81815260046020526040902054600160a01b900465ffffffffffff1615611979578061195c82611103565b6040516331b75e4d60e01b8152610ec69291905f90600401613e0a565b5f61198b60085465ffffffffffff1690565b6119959084613ed6565b90505f6119af60085463ffffffff600160301b9091041690565b90506040518060a00160405280866001600160a01b031681526020016119d4846127ed565b65ffffffffffff1681526020016119ea83612823565b63ffffffff90811682525f60208084018290526040938401829052878252600481529083902084518154928601519486015160608701516080909701511515600160f81b026001600160f81b03971515600160f01b0260ff60f01b1992909616600160d01b029190911664ffffffffff60d01b1965ffffffffffff909716600160a01b026001600160d01b03199095166001600160a01b0390931692909217939093179490941693909317919091179290921691909117905589517f7d84a6263ae0d98d3329bd7b46bb4e8d6f98cd35a7adb45c274c8b7fd5ebd5e090849087908d908d906001600160401b03811115611ae657611ae6613174565b604051908082528060200260200182016040528015611b1957816020015b6060815260200190600190039081611b045790505b508d88611b268982613ed6565b8f604051611b3c99989796959493929190613f73565b60405180910390a1509098975050505050505050565b5f6060805f805f6060611b63612074565b611b6b6120a0565b604080515f80825260208201909252600f60f81b9b939a50919850469750309650945092509050565b5f80611c01846115307ff2aad550cf55f045cb27e9c559f9889fdfb6e6cdaa032301d6ea397784ae51d7898989611bca8b61224d565b60408051602081019690965285019390935260ff90911660608401526001600160a01b0316608083015260a082015260c001611515565b905080611c2c576040516394ab6c0760e01b81526001600160a01b0385166004820152602401610ec6565b610d7f86858760405180602001604052805f8152506125a9565b5f7f00000000000000000000000000000000000000000000000000000000000000006001600160a01b03166391ddadf46040518163ffffffff1660e01b8152600401602060405180830381865afa925050508015611cc1575060408051601f3d908101601f19168201909252611cbe91810190614048565b60015b6113fc57610e2f436127ed565b5f61144b848484612853565b9392505050565b5f611276826120cd565b611d64888888808060200260200160405190810160405280939291908181526020018383602002808284375f9201919091525050604080516020808c0282810182019093528b82529093508b92508a9182918501908490808284375f92019190915250611d5e9250889150899050613ea3565b856120ef565b5050505050505050565b5f610e2f60075490565b5f611276826128e6565b611dc48686868686868080601f0160208091040260200160405190810160405280939291908181526020018383808284375f9201919091525061290e92505050565b505050505050565b303314611dd957336110c3565b611df0565b80611de9600561227d565b03611dde57505b5f80856001600160a01b0316858585604051611e0d929190613e2c565b5f6040518083038185875af1925050503d805f8114611e47576040519150601f19603f3d011682016040523d82523d5f602084013e611e4c565b606091505b5091509150611e5b8282612a00565b50505050505050565b5f84848484604051602001611e7c9493929190614063565b60408051601f19818403018152919052805160209091012095945050505050565b5f611ede858585858080601f0160208091040260200160405190810160405280939291908181526020018383808284375f9201919091525061285392505050565b95945050505050565b5f61127682612360565b611d64888888808060200260200160405190810160405280939291908181526020018383602002808284375f9201919091525050604080516020808c0282810182019093528b82529093508b92508a9182918501908490808284375f92019190915250611f649250889150899050613ea3565b8561217a565b30331461048957336110c3565b80611f82600561227d565b03611f775750610e2281611fd8565b5f611cda8383611fab60408051602081019091525f815290565b612853565b303314610ce857336110c3565b80611fc8600561227d565b03611fbd57505b610e2281612a0f565b8063ffffffff165f036120005760405163f1cfbf0560e01b81525f6004820152602401610ec6565b6008546040805163ffffffff600160301b9093048316815291831660208301527f7e3f7f0708a84de9203036abaa450dccc85ad5ff52f78c170f3edb55cf5e8828910160405180910390a16008805463ffffffff909216600160301b0269ffffffff00000000000019909216919091179055565b6060610e2f7f00000000000000000000000000000000000000000000000000000000000000005f612a50565b6060610e2f7f00000000000000000000000000000000000000000000000000000000000000006001612a50565b5f8160078111156120e0576120e06135c3565b600160ff919091161b92915050565b612173565b8451811015611dc457306001600160a01b0316858281518110612119576121196140ad565b60200260200101516001600160a01b03160361216357612163838281518110612144576121446140ad565b6020026020010151805190602001206005612af990919063ffffffff16565b61216c816140c1565b90506120f4565b5050505050565b5f5b8451811015611dc4575f80868381518110612199576121996140ad565b60200260200101516001600160a01b03168684815181106121bc576121bc6140ad565b60200260200101518685815181106121d6576121d66140ad565b60200260200101516040516121eb91906140d9565b5f6040518083038185875af1925050503d805f8114612225576040519150601f19603f3d011682016040523d82523d5f602084013e61222a565b606091505b50915091506122398282612a00565b50505080612246906140c1565b905061217c565b6001600160a01b03165f90815260026020526040902080546001810190915590565b5f610d7f8686868686612b34565b5f6122978254600f81810b600160801b909204900b131590565b156122b5576040516375e52f4f60e01b815260040160405180910390fd5b508054600f0b5f818152600180840160205260408220805492905583546fffffffffffffffffffffffffffffffff191692016001600160801b03169190911790915590565b600a546040805165ffffffffffff928316815291831660208301527f7ca4ac117ed3cdce75c1161d8207c440389b1a15d69d096831664657c07dafc2910160405180910390a1600a805465ffffffffffff191665ffffffffffff92909216919091179055565b5f818152600960205260408120600281015460018201546123819190613ed6565b61238d610c9485610f58565b11159392505050565b5f806123a486868686611e64565b90505f6123b082611103565b90505f6123bd60076120cd565b6123c760066120cd565b6123d160026120cd565b171790506123de826120cd565b8116156124295782828260016123f56007826140f4565b6124009060026141ed565b61240a9190613ec3565b5f1b186040516331b75e4d60e01b8152600401610ec693929190613e0a565b5f838152600460205260409081902080546001600160f81b0316600160f81b179055517f789cf55be980739dad1d0699b93b58e806b51c9d96619bfa8fe0a28abaa7b30c9061247b9085815260200190565b60405180910390a150909695505050505050565b5f61127661249b61261f565b8360405161190160f01b8152600281019290925260228201526042902090565b80515f9060348110156124d2576001915050611276565b82810160131901516001600160a01b031981166b046e0e4dee0dee6cae47a60f60a31b1461250557600192505050611276565b5f80612512602885613ec3565b90505b83811015612588575f80612548888481518110612534576125346140ad565b01602001516001600160f81b031916612c21565b91509150816125605760019650505050505050611276565b8060ff166004856001600160a01b0316901b179350505080612581906140c1565b9050612515565b50856001600160a01b0316816001600160a01b031614935050505092915050565b5f611ede858585856125c560408051602081019091525f815290565b61226f565b5f805f6125d78585612cb1565b5090925090505f8160038111156125f0576125f06135c3565b14801561260e5750856001600160a01b0316826001600160a01b0316145b80610d7f5750610d7f868686612cfa565b5f306001600160a01b037f00000000000000000000000000000000000000000000000000000000000000001614801561267757507f000000000000000000000000000000000000000000000000000000000000000046145b156126a157507f000000000000000000000000000000000000000000000000000000000000000090565b610e2f604080517f8b73c3c69bb8fe3d512ecc4cf759cc79239f7b179b0ffacaa9a75d522b39400f60208201527f0000000000000000000000000000000000000000000000000000000000000000918101919091527f000000000000000000000000000000000000000000000000000000000000000060608201524660808201523060a08201525f9060c00160405160208183030381529060405280519060200120905090565b5f806127538461224d565b9050808314611cda576040516301d4b62360e61b81526001600160a01b038516600482015260248101829052604401610ec6565b6008546040805165ffffffffffff928316815291831660208301527fc565b045403dc03c2eea82b81a0465edad9e2e7fc4d97e11421c209da93d7a93910160405180910390a16008805465ffffffffffff191665ffffffffffff92909216919091179055565b5f65ffffffffffff82111561281f576040516306dfcc6560e41b81526030600482015260248101839052604401610ec6565b5090565b5f63ffffffff82111561281f576040516306dfcc6560e41b81526020600482015260248101839052604401610ec6565b604051630748d63560e31b81526001600160a01b038481166004830152602482018490525f917f000000000000000000000000000000000000000000000000000000000000000090911690633a46b1a890604401602060405180830381865afa1580156128c2573d5f803e3d5ffd5b505050506040513d601f19601f8201168201806040525081019061144b91906141fb565b5f6112766128f383612dd0565b5f848152600b602052604090205465ffffffffffff16612e12565b5f8581526009602090815260408083206001600160a01b0388168452600381019092529091205460ff1615612961576040516371c6af4960e01b81526001600160a01b0386166004820152602401610ec6565b6001600160a01b0385165f9081526003820160205260409020805460ff1916600117905560ff84166129aa5782815f015f82825461299f9190613ed6565b90915550611dc49050565b5f1960ff8516016129c85782816001015f82825461299f9190613ed6565b60011960ff8516016129e75782816002015f82825461299f9190613ed6565b6040516303599be160e11b815260040160405180910390fd5b6060611cda8383612e27612e40565b60075460408051918252602082018390527fccb45da8d5717e6c4544694297c4ba5cf151d455c9bb0ed4fc7a38411bc05461910160405180910390a1600755565b606060ff8314612a6a57612a6383612e59565b9050611276565b818054612a7690613dd2565b80601f0160208091040260200160405190810160405280929190818152602001828054612aa290613dd2565b8015612aed5780601f10612ac457610100808354040283529160200191612aed565b820191905f5260205f20905b815481529060010190602001808311612ad057829003601f168201915b50505050509050611276565b8154600160801b90819004600f0b5f818152600180860160205260409091209390935583546001600160801b03908116939091011602179055565b5f80612b438787878787612e96565b5f888152600b602052604090205490915065ffffffffffff16158015612b6d5750612b6d87612360565b15610d7f575f612b84600a5465ffffffffffff1690565b612b8c611c46565b612b969190614212565b9050612ba188611d78565b8165ffffffffffff161115612bee5760405165ffffffffffff8216815288907f541f725fb9f7c98a30cc9c0ff32fbb14358cd7159c847a3aa20a2bdc442ba5119060200160405180910390a25b5f888152600b60205260409020805465ffffffffffff191665ffffffffffff929092169190911790559695505050505050565b5f8060f883901c602f81118015612c3b5750603a8160ff16105b15612c5057600194602f199091019350915050565b8060ff166040108015612c66575060478160ff16105b15612c7b576001946036199091019350915050565b8060ff166060108015612c91575060678160ff16105b15612ca6576001946056199091019350915050565b505f93849350915050565b5f805f8351604103612ce8576020840151604085015160608601515f1a612cda88828585612f93565b955095509550505050612cf3565b505081515f91506002905b9250925092565b5f805f856001600160a01b03168585604051602401612d1a929190614238565b60408051601f198184030181529181526020820180516001600160e01b0316630b135d3f60e11b17905251612d4f91906140d9565b5f60405180830381855afa9150503d805f8114612d87576040519150601f19603f3d011682016040523d82523d5f602084013e612d8c565b606091505b5091509150818015612da057506020815110155b8015610d7f57508051630b135d3f60e11b90612dc590830160209081019084016141fb565b149695505050505050565b5f81815260046020526040812054612e0490600160d01b810463ffffffff1690600160a01b900465ffffffffffff16614212565b65ffffffffffff1692915050565b5f818311612e205781611cda565b5090919050565b604051630a12f52160e11b815260040160405180910390fd5b60608315612e4f575081611cda565b611cda838361305b565b60605f612e6583613077565b6040805160208082528183019092529192505f91906020820181803683375050509182525060208101929092525090565b5f80612ea187611103565b90506001816007811115612eb757612eb76135c3565b14612ec85786816112bb60016120cd565b5f612edc87612ed68a610f58565b86612853565b9050612eeb888888848861290e565b83515f03612f3f57866001600160a01b03167fb8e138887d0aa13bab447e82de9d5c1777041ecd21ca36ba824ff1e6c07ddda489888489604051612f329493929190614250565b60405180910390a261131b565b866001600160a01b03167fe2babfbac5889a709b63bb7f598b324e08bc5a4fb9ec647fb3cbc9ec07eb87128988848989604051612f80959493929190614277565b60405180910390a2979650505050505050565b5f80807f7fffffffffffffffffffffffffffffff5d576e7357a4501ddfe92f46681b20a0841115612fcc57505f91506003905082613051565b604080515f808252602082018084528a905260ff891692820192909252606081018790526080810186905260019060a0016020604051602081039080840390855afa15801561301d573d5f803e3d5ffd5b5050604051601f1901519150506001600160a01b03811661304857505f925060019150829050613051565b92505f91508190505b9450945094915050565b81511561306b5781518083602001fd5b612e278163ffffffff16565b5f60ff8216601f81111561127657604051632cd44ac360e21b815260040160405180910390fd5b5f602082840312156130ae575f80fd5b81356001600160e01b031981168114611cda575f80fd5b5f5b838110156130df5781810151838201526020016130c7565b50505f910152565b5f81518084526130fe8160208601602086016130c5565b601f01601f19169290920160200192915050565b602081525f611cda60208301846130e7565b5f60208284031215613134575f80fd5b813563ffffffff81168114611cda575f80fd5b5f60208284031215613157575f80fd5b5035919050565b80356001600160a01b03811681146113fc575f80fd5b634e487b7160e01b5f52604160045260245ffd5b604051601f8201601f191681016001600160401b03811182821017156131b0576131b0613174565b604052919050565b5f6001600160401b038211156131d0576131d0613174565b50601f01601f191660200190565b5f6131f06131eb846131b8565b613188565b9050828152838383011115613203575f80fd5b828260208301375f602084830101529392505050565b5f82601f830112613228575f80fd5b611cda838335602085016131de565b5f805f806080858703121561324a575f80fd5b6132538561315e565b93506132616020860161315e565b92506040850135915060608501356001600160401b03811115613282575f80fd5b61328e87828801613219565b91505092959194509250565b5f6001600160401b038211156132b2576132b2613174565b5060051b60200190565b5f82601f8301126132cb575f80fd5b813560206132db6131eb8361329a565b82815260059290921b840181019181810190868411156132f9575f80fd5b8286015b8481101561331b5761330e8161315e565b83529183019183016132fd565b509695505050505050565b5f82601f830112613335575f80fd5b813560206133456131eb8361329a565b82815260059290921b84018101918181019086841115613363575f80fd5b8286015b8481101561331b5780358352918301918301613367565b5f61338b6131eb8461329a565b8381529050602080820190600585901b8401868111156133a9575f80fd5b845b818110156133e35780356001600160401b038111156133c9575f8081fd5b6133d589828901613219565b8552509282019282016133ab565b505050509392505050565b5f82601f8301126133fd575f80fd5b611cda8383356020850161337e565b5f805f806080858703121561341f575f80fd5b84356001600160401b0380821115613435575f80fd5b613441888389016132bc565b95506020870135915080821115613456575f80fd5b61346288838901613326565b94506040870135915080821115613477575f80fd5b50613484878288016133ee565b949793965093946060013593505050565b5f602082840312156134a5575f80fd5b611cda8261315e565b803560ff811681146113fc575f80fd5b5f8083601f8401126134ce575f80fd5b5081356001600160401b038111156134e4575f80fd5b6020830191508360208285010111156134fb575f80fd5b9250929050565b5f805f805f805f60a0888a031215613518575f80fd5b873596506135286020890161315e565b9550613536604089016134ae565b945060608801356001600160401b0380821115613551575f80fd5b61355d8b838c016134be565b909650945060808a0135915080821115613575575f80fd5b506135828a828b016134be565b989b979a50959850939692959293505050565b65ffffffffffff81168114610e22575f80fd5b5f602082840312156135b8575f80fd5b8135611cda81613595565b634e487b7160e01b5f52602160045260245ffd5b600881106135f357634e487b7160e01b5f52602160045260245ffd5b9052565b6020810161127682846135d7565b5f8060408385031215613616575f80fd5b823591506136266020840161315e565b90509250929050565b5f805f60408486031215613641575f80fd5b61364a8461315e565b925060208401356001600160401b03811115613664575f80fd5b613670868287016134be565b9497909650939450505050565b5f806040838503121561368e575f80fd5b82359150613626602084016134ae565b5f805f805f805f60c0888a0312156136b4575f80fd5b873596506136c4602089016134ae565b95506136d26040890161315e565b945060608801356001600160401b03808211156136ed575f80fd5b6136f98b838c016134be565b909650945060808a0135915080821115613711575f80fd5b61371d8b838c01613219565b935060a08a0135915080821115613732575f80fd5b5061373f8a828b01613219565b91505092959891949750929550565b5f805f805f60808688031215613762575f80fd5b85359450613772602087016134ae565b935060408601356001600160401b038082111561378d575f80fd5b61379989838a016134be565b909550935060608801359150808211156137b1575f80fd5b506137be88828901613219565b9150509295509295909350565b5f8083601f8401126137db575f80fd5b5081356001600160401b038111156137f1575f80fd5b6020830191508360208260051b85010111156134fb575f80fd5b5f805f805f805f6080888a031215613821575f80fd5b87356001600160401b0380821115613837575f80fd5b6138438b838c016137cb565b909950975060208a013591508082111561385b575f80fd5b6138678b838c016137cb565b909750955060408a013591508082111561387f575f80fd5b5061388c8a828b016137cb565b989b979a50959894979596606090950135949350505050565b5f80604083850312156138b6575f80fd5b6138bf8361315e565b946020939093013593505050565b5f805f805f608086880312156138e1575f80fd5b853594506138f16020870161315e565b93506138ff604087016134ae565b925060608601356001600160401b03811115613919575f80fd5b613925888289016134be565b969995985093965092949392505050565b5f805f8060608587031215613949575f80fd5b84359350613959602086016134ae565b925060408501356001600160401b03811115613973575f80fd5b61397f878288016134be565b95989497509550505050565b5f805f806080858703121561399e575f80fd5b84356001600160401b03808211156139b4575f80fd5b6139c0888389016132bc565b955060208701359150808211156139d5575f80fd5b6139e188838901613326565b945060408701359150808211156139f6575f80fd5b613a02888389016133ee565b93506060870135915080821115613a17575f80fd5b508501601f81018713613a28575f80fd5b61328e878235602084016131de565b5f8151808452602080850194508084015f5b83811015613a6557815187529582019590820190600101613a49565b509495945050505050565b60ff60f81b8816815260e060208201525f613a8e60e08301896130e7565b8281036040840152613aa081896130e7565b606084018890526001600160a01b038716608085015260a0840186905283810360c08501529050613ad18185613a37565b9a9950505050505050505050565b5f805f8060808587031215613af2575f80fd5b84359350613b02602086016134ae565b9250613b106040860161315e565b915060608501356001600160401b03811115613282575f80fd5b5f805f60608486031215613b3c575f80fd5b613b458461315e565b92506020840135915060408401356001600160401b03811115613b66575f80fd5b613b7286828701613219565b9150509250925092565b5f60208284031215613b8c575f80fd5b813560088110611cda575f80fd5b5f805f805f805f8060a0898b031215613bb1575f80fd5b8835975060208901356001600160401b0380821115613bce575f80fd5b613bda8c838d016137cb565b909950975060408b0135915080821115613bf2575f80fd5b613bfe8c838d016137cb565b909750955060608b0135915080821115613c16575f80fd5b50613c238b828c016137cb565b999c989b50969995989497949560800135949350505050565b5f805f805f60a08688031215613c50575f80fd5b613c598661315e565b9450613c676020870161315e565b935060408601356001600160401b0380821115613c82575f80fd5b613c8e89838a01613326565b94506060880135915080821115613ca3575f80fd5b613caf89838a01613326565b935060808801359150808211156137b1575f80fd5b5f805f805f8060a08789031215613cd9575f80fd5b86359550613ce96020880161315e565b9450613cf7604088016134ae565b93506060870135925060808701356001600160401b03811115613d18575f80fd5b613d2489828a016134be565b979a9699509497509295939492505050565b5f805f8060608587031215613d49575f80fd5b613d528561315e565b93506020850135925060408501356001600160401b03811115613973575f80fd5b5f805f805f60a08688031215613d87575f80fd5b613d908661315e565b9450613d9e6020870161315e565b9350604086013592506060860135915060808601356001600160401b03811115613dc6575f80fd5b6137be88828901613219565b600181811c90821680613de657607f821691505b602082108103613e0457634e487b7160e01b5f52602260045260245ffd5b50919050565b83815260608101613e1e60208301856135d7565b826040830152949350505050565b818382375f9101908152919050565b5f60208284031215613e4b575f80fd5b81516001600160401b03811115613e60575f80fd5b8201601f81018413613e70575f80fd5b8051613e7e6131eb826131b8565b818152856020838501011115613e92575f80fd5b611ede8260208301602086016130c5565b5f611cda36848461337e565b634e487b7160e01b5f52601160045260245ffd5b8181038181111561127657611276613eaf565b8082018082111561127657611276613eaf565b5f8151808452602080850194508084015f5b83811015613a655781516001600160a01b031687529582019590820190600101613efb565b5f81518084526020808501808196508360051b810191508286015f5b85811015613f66578284038952613f548483516130e7565b98850198935090840190600101613f3c565b5091979650505050505050565b5f6101208b8352602060018060a01b038c1681850152816040850152613f9b8285018c613ee9565b91508382036060850152613faf828b613a37565b915083820360808501528189518084528284019150828160051b850101838c015f5b83811015613fff57601f19878403018552613fed8383516130e7565b94860194925090850190600101613fd1565b505086810360a0880152614013818c613f20565b9450505050508560c08401528460e084015282810361010084015261403881856130e7565b9c9b505050505050505050505050565b5f60208284031215614058575f80fd5b8151611cda81613595565b608081525f6140756080830187613ee9565b82810360208401526140878187613a37565b9050828103604084015261409b8186613f20565b91505082606083015295945050505050565b634e487b7160e01b5f52603260045260245ffd5b5f600182016140d2576140d2613eaf565b5060010190565b5f82516140ea8184602087016130c5565b9190910192915050565b60ff818116838216019081111561127657611276613eaf565b600181815b8085111561414757815f190482111561412d5761412d613eaf565b8085161561413a57918102915b93841c9390800290614112565b509250929050565b5f8261415d57506001611276565b8161416957505f611276565b816001811461417f5760028114614189576141a5565b6001915050611276565b60ff84111561419a5761419a613eaf565b50506001821b611276565b5060208310610133831016604e8410600b84101617156141c8575081810a611276565b6141d2838361410d565b805f19048211156141e5576141e5613eaf565b029392505050565b5f611cda60ff84168361414f565b5f6020828403121561420b575f80fd5b5051919050565b65ffffffffffff81811683821601908082111561423157614231613eaf565b5092915050565b828152604060208201525f61144b60408301846130e7565b84815260ff84166020820152826040820152608060608201525f610d7f60808301846130e7565b85815260ff8516602082015283604082015260a060608201525f61429e60a08301856130e7565b82810360808401526142b081856130e7565b9897505050505050505056fea2646970667358221220a9f9785cd485225b549441c9c3e2403f39f15552ef3e0c655295513b5aa8a47464736f6c63430008140033",
  "linkReferences": {},
  "deployedLinkReferences": {}
}