{
  "_format": "hh-sol-artifact-1",
  "contractName": "$Address",
  "sourceName": "contracts-exposed/utils/Address.sol",
  "abi": [
    {
      "inputs": [],
      "stateMutability": "payable",
      "type": "constructor"
    },
    {
      "inputs": [
        {
          "internalType": "address",
          "name": "target",
          "type": "address"
        }
      ],
      "name": "AddressEmptyCode",
      "type": "error"
    },
    {
      "inputs": [
        {
          "internalType": "address",
          "name": "account",
          "type": "address"
        }
      ],
      "name": "AddressInsufficientBalance",
      "type": "error"
    },
    {
      "inputs": [],
      "name": "FailedInnerCall",
      "type": "error"
    },
    {
      "anonymous": false,
      "inputs": [
        {
          "indexed": false,
          "internalType": "bytes",
          "name": "ret0",
          "type": "bytes"
        }
      ],
      "name": "return$functionCall",
      "type": "event"
    },
    {
      "anonymous": false,
      "inputs": [
        {
          "indexed": false,
          "internalType": "bytes",
          "name": "ret0",
          "type": "bytes"
        }
      ],
      "name": "return$functionCallWithValue",
      "type": "event"
    },
    {
      "anonymous": false,
      "inputs": [
        {
          "indexed": false,
          "internalType": "bytes",
          "name": "ret0",
          "type": "bytes"
        }
      ],
      "name": "return$functionDelegateCall",
      "type": "event"
    },
    {
      "inputs": [],
      "name": "$defaultRevert",
      "outputs": [],
      "stateMutability": "pure",
      "type": "function"
    },
    {
      "inputs": [
        {
          "internalType": "address",
          "name": "target",
          "type": "address"
        },
        {
          "internalType": "bytes",
          "name": "data",
          "type": "bytes"
        }
      ],
      "name": "$functionCall",
      "outputs": [
        {
          "internalType": "bytes",
          "name": "ret0",
          "type": "bytes"
        }
      ],
      "stateMutability": "payable",
      "type": "function"
    },
    {
      "inputs": [
        {
          "internalType": "address",
          "name": "target",
          "type": "address"
        },
        {
          "internalType": "bytes",
          "name": "data",
          "type": "bytes"
        },
        {
          "internalType": "uint256",
          "name": "value",
          "type": "uint256"
        }
      ],
      "name": "$functionCallWithValue",
      "outputs": [
        {
          "internalType": "bytes",
          "name": "ret0",
          "type": "bytes"
        }
      ],
      "stateMutability": "payable",
      "type": "function"
    },
    {
      "inputs": [
        {
          "internalType": "address",
          "name": "target",
          "type": "address"
        },
        {
          "internalType": "bytes",
          "name": "data",
          "type": "bytes"
        }
      ],
      "name": "$functionDelegateCall",
      "outputs": [
        {
          "internalType": "bytes",
          "name": "ret0",
          "type": "bytes"
        }
      ],
      "stateMutability": "payable",
      "type": "function"
    },
    {
      "inputs": [
        {
          "internalType": "address",
          "name": "target",
          "type": "address"
        },
        {
          "internalType": "bytes",
          "name": "data",
          "type": "bytes"
        }
      ],
      "name": "$functionStaticCall",
      "outputs": [
        {
          "internalType": "bytes",
          "name": "ret0",
          "type": "bytes"
        }
      ],
      "stateMutability": "view",
      "type": "function"
    },
    {
      "inputs": [
        {
          "internalType": "address payable",
          "name": "recipient",
          "type": "address"
        },
        {
          "internalType": "uint256",
          "name": "amount",
          "type": "uint256"
        }
      ],
      "name": "$sendValue",
      "outputs": [],
      "stateMutability": "payable",
      "type": "function"
    },
    {
      "inputs": [
        {
          "internalType": "bool",
          "name": "success",
          "type": "bool"
        },
        {
          "internalType": "bytes",
          "name": "returndata",
          "type": "bytes"
        }
      ],
      "name": "$verifyCallResult",
      "outputs": [
        {
          "internalType": "bytes",
          "name": "ret0",
          "type": "bytes"
        }
      ],
      "stateMutability": "view",
      "type": "function"
    },
    {
      "inputs": [],
      "name": "__hh_exposed_bytecode_marker",
      "outputs": [
        {
          "internalType": "bytes32",
          "name": "",
          "type": "bytes32"
        }
      ],
      "stateMutability": "view",
      "type": "function"
    },
    {
      "stateMutability": "payable",
      "type": "receive"
    }
  ],
  "bytecode": "0x6080604052610872806100115f395ff3fe60806040526004361061007c575f3560e01c806351be3cfc1161004c57806351be3cfc1461011757806353aa32df1461012a5780635b201a521461013e57806389c43e801461015d575f80fd5b80633403129414610087578063342db739146100bc578063369cfd92146100ef5780633c33d1cd14610102575f80fd5b3661008357005b5f80fd5b348015610092575f80fd5b506100a66100a13660046106d9565b610170565b6040516100b3919061074c565b60405180910390f35b3480156100c7575f80fd5b506100e16e1a185c991a185d0b595e1c1bdcd959608a1b81565b6040519081526020016100b3565b6100a66100fd3660046106d9565b6101b9565b61011561011036600461077e565b61023a565b005b6100a66101253660046107a8565b610248565b348015610135575f80fd5b506101156102cc565b348015610149575f80fd5b506100a6610158366004610800565b6102d6565b6100a661016b3660046106d9565b610317565b60606101b18484848080601f0160208091040260200160405190810160405280939291908181526020018383808284375f9201919091525061038992505050565b949350505050565b60606101fa8484848080601f0160208091040260200160405190810160405280939291908181526020018383808284375f9201919091525061039f92505050565b90507f50a13cc3a931319c9620b70581a4ea9c3147764161a4642cbb90eb6717a1c5708160405161022b919061074c565b60405180910390a19392505050565b61024482826103af565b5050565b606061028b8585858080601f0160208091040260200160405190810160405280939291908181526020018383808284375f9201919091525087925061044c915050565b90507f87e618fff282ba4a301327671b0133490d09c9cf478f8504c23948059a9e3dfc816040516102bc919061074c565b60405180910390a1949350505050565b6102d461045c565b565b60606101b18484848080601f0160208091040260200160405190810160405280939291908181526020018383808284375f9201919091525061047592505050565b60606103588484848080601f0160208091040260200160405190810160405280939291908181526020018383808284375f9201919091525061048492505050565b90507f893d25cf9726c53f7baabba6de8a1a4d761766ce7ddbd7e4c64e04848da441e28160405161022b919061074c565b6060610398838361045c610493565b9392505050565b606061039883835f61045c610507565b804710156103d75760405163cd78605960e01b81523060048201526024015b60405180910390fd5b5f826001600160a01b0316826040515f6040518083038185875af1925050503d805f8114610420576040519150601f19603f3d011682016040523d82523d5f602084013e610425565b606091505b505090508061044757604051630a12f52160e11b815260040160405180910390fd5b505050565b60606101b184848461045c610507565b604051630a12f52160e11b815260040160405180910390fd5b6060610398838361045c6105a2565b6060610398838361045c6105bb565b60605f80856001600160a01b0316856040516104af9190610821565b5f60405180830381855afa9150503d805f81146104e7576040519150601f19603f3d011682016040523d82523d5f602084013e6104ec565b606091505b50915091506104fd8683838761060f565b9695505050505050565b60608247101561052c5760405163cd78605960e01b81523060048201526024016103ce565b5f80866001600160a01b031685876040516105479190610821565b5f6040518083038185875af1925050503d805f8114610581576040519150601f19603f3d011682016040523d82523d5f602084013e610586565b606091505b50915091506105978783838761060f565b979650505050505050565b606083156105b1575081610398565b6103988383610661565b60605f80856001600160a01b0316856040516105d79190610821565b5f60405180830381855af49150503d805f81146104e7576040519150601f19603f3d011682016040523d82523d5f602084013e6104ec565b6060831561065b5782515f0361065457846001600160a01b03163b5f0361065457604051639996b31560e01b81526001600160a01b03861660048201526024016103ce565b50816101b1565b6101b183835b8151156106715781518083602001fd5b61045c8163ffffffff16565b6001600160a01b0381168114610691575f80fd5b50565b5f8083601f8401126106a4575f80fd5b50813567ffffffffffffffff8111156106bb575f80fd5b6020830191508360208285010111156106d2575f80fd5b9250929050565b5f805f604084860312156106eb575f80fd5b83356106f68161067d565b9250602084013567ffffffffffffffff811115610711575f80fd5b61071d86828701610694565b9497909650939450505050565b5f5b8381101561074457818101518382015260200161072c565b50505f910152565b602081525f825180602084015261076a81604085016020870161072a565b601f01601f19169190910160400192915050565b5f806040838503121561078f575f80fd5b823561079a8161067d565b946020939093013593505050565b5f805f80606085870312156107bb575f80fd5b84356107c68161067d565b9350602085013567ffffffffffffffff8111156107e1575f80fd5b6107ed87828801610694565b9598909750949560400135949350505050565b5f805f60408486031215610812575f80fd5b833580151581146106f6575f80fd5b5f825161083281846020870161072a565b919091019291505056fea2646970667358221220643c1ca10f0c07e763417883fa766771994c5a18616d0967f892ed679c87a95c64736f6c63430008140033",
  "linkReferences": {},
  "deployedLinkReferences": {}
}