{
  "_format": "hh-sol-artifact-1",
  "contractName": "$ERC1155ReceiverMock",
  "sourceName": "contracts-exposed/mocks/token/ERC1155ReceiverMock.sol",
  "abi": [
    {
      "inputs": [
        {
          "internalType": "bytes4",
          "name": "recRetval",
          "type": "bytes4"
        },
        {
          "internalType": "bytes4",
          "name": "batRetval",
          "type": "bytes4"
        },
        {
          "internalType": "enum ERC1155ReceiverMock.RevertType",
          "name": "error",
          "type": "uint8"
        }
      ],
      "stateMutability": "payable",
      "type": "constructor"
    },
    {
      "inputs": [
        {
          "internalType": "bytes4",
          "name": "",
          "type": "bytes4"
        }
      ],
      "name": "CustomError",
      "type": "error"
    },
    {
      "anonymous": false,
      "inputs": [
        {
          "indexed": false,
          "internalType": "address",
          "name": "operator",
          "type": "address"
        },
        {
          "indexed": false,
          "internalType": "address",
          "name": "from",
          "type": "address"
        },
        {
          "indexed": false,
          "internalType": "uint256[]",
          "name": "ids",
          "type": "uint256[]"
        },
        {
          "indexed": false,
          "internalType": "uint256[]",
          "name": "values",
          "type": "uint256[]"
        },
        {
          "indexed": false,
          "internalType": "bytes",
          "name": "data",
          "type": "bytes"
        },
        {
          "indexed": false,
          "internalType": "uint256",
          "name": "gas",
          "type": "uint256"
        }
      ],
      "name": "BatchReceived",
      "type": "event"
    },
    {
      "anonymous": false,
      "inputs": [
        {
          "indexed": false,
          "internalType": "address",
          "name": "operator",
          "type": "address"
        },
        {
          "indexed": false,
          "internalType": "address",
          "name": "from",
          "type": "address"
        },
        {
          "indexed": false,
          "internalType": "uint256",
          "name": "id",
          "type": "uint256"
        },
        {
          "indexed": false,
          "internalType": "uint256",
          "name": "value",
          "type": "uint256"
        },
        {
          "indexed": false,
          "internalType": "bytes",
          "name": "data",
          "type": "bytes"
        },
        {
          "indexed": false,
          "internalType": "uint256",
          "name": "gas",
          "type": "uint256"
        }
      ],
      "name": "Received",
      "type": "event"
    },
    {
      "inputs": [],
      "name": "__hh_exposed_bytecode_marker",
      "outputs": [
        {
          "internalType": "bytes32",
          "name": "",
          "type": "bytes32"
        }
      ],
      "stateMutability": "view",
      "type": "function"
    },
    {
      "inputs": [
        {
          "internalType": "address",
          "name": "operator",
          "type": "address"
        },
        {
          "internalType": "address",
          "name": "from",
          "type": "address"
        },
        {
          "internalType": "uint256[]",
          "name": "ids",
          "type": "uint256[]"
        },
        {
          "internalType": "uint256[]",
          "name": "values",
          "type": "uint256[]"
        },
        {
          "internalType": "bytes",
          "name": "data",
          "type": "bytes"
        }
      ],
      "name": "onERC1155BatchReceived",
      "outputs": [
        {
          "internalType": "bytes4",
          "name": "",
          "type": "bytes4"
        }
      ],
      "stateMutability": "nonpayable",
      "type": "function"
    },
    {
      "inputs": [
        {
          "internalType": "address",
          "name": "operator",
          "type": "address"
        },
        {
          "internalType": "address",
          "name": "from",
          "type": "address"
        },
        {
          "internalType": "uint256",
          "name": "id",
          "type": "uint256"
        },
        {
          "internalType": "uint256",
          "name": "value",
          "type": "uint256"
        },
        {
          "internalType": "bytes",
          "name": "data",
          "type": "bytes"
        }
      ],
      "name": "onERC1155Received",
      "outputs": [
        {
          "internalType": "bytes4",
          "name": "",
          "type": "bytes4"
        }
      ],
      "stateMutability": "nonpayable",
      "type": "function"
    },
    {
      "inputs": [
        {
          "internalType": "bytes4",
          "name": "interfaceId",
          "type": "bytes4"
        }
      ],
      "name": "supportsInterface",
      "outputs": [
        {
          "internalType": "bool",
          "name": "",
          "type": "bool"
        }
      ],
      "stateMutability": "view",
      "type": "function"
    },
    {
      "stateMutability": "payable",
      "type": "receive"
    }
  ],
  "bytecode": "0x60e06040526040516109f33803806109f38339810160408190526100229161008a565b6001600160e01b0319808416608052821660a05282828280600481111561004b5761004b6100d1565b60c081600481111561005f5761005f6100d1565b815250505050505050506100e5565b80516001600160e01b031981168114610085575f80fd5b919050565b5f805f6060848603121561009c575f80fd5b6100a58461006e565b92506100b36020850161006e565b91506040840151600581106100c6575f80fd5b809150509250925092565b634e487b7160e01b5f52602160045260245ffd5b60805160a05160c0516108a561014e5f395f81816101200152818161015d015281816101fb01528181610279015281816103360152818161037301528181610406015261048401525f61030601525f818161024801528181610453015261050d01526108a55ff3fe608060405260043610610041575f3560e01c806301ffc9a71461004c578063342db73914610091578063bc197c81146100c4578063f23a6e61146100fc575f80fd5b3661004857005b5f80fd5b348015610057575f80fd5b5061007c610066366004610536565b6001600160e01b0319166301ffc9a760e01b1490565b60405190151581526020015b60405180910390f35b34801561009c575f80fd5b506100b66e1a185c991a185d0b595e1c1bdcd959608a1b81565b604051908152602001610088565b3480156100cf575f80fd5b506100e36100de366004610605565b61011b565b6040516001600160e01b03199091168152602001610088565b348015610107575f80fd5b506100e36101163660046106b8565b610331565b5f60017f000000000000000000000000000000000000000000000000000000000000000060048111156101505761015061072b565b03610159575f80fd5b60027f0000000000000000000000000000000000000000000000000000000000000000600481111561018d5761018d61072b565b036101f75760405162461bcd60e51b815260206004820152602f60248201527f4552433131353552656365697665724d6f636b3a20726576657274696e67206f60448201526e6e206261746368207265636569766560881b60648201526084015b60405180910390fd5b60037f0000000000000000000000000000000000000000000000000000000000000000600481111561022b5761022b61072b565b03610275576040516301990d6f60e61b81526001600160e01b03197f00000000000000000000000000000000000000000000000000000000000000001660048201526024016101ee565b60047f000000000000000000000000000000000000000000000000000000000000000060048111156102a9576102a961072b565b036102bc575f6102b9818061073f565b50505b7f0bcad9224ba33b574e9c85298de2f44b4c80015a21aa5df474896444909863d889898989898989895a6040516102fb999897969594939291906107b6565b60405180910390a1507f000000000000000000000000000000000000000000000000000000000000000098975050505050505050565b5f60017f000000000000000000000000000000000000000000000000000000000000000060048111156103665761036661072b565b0361036f575f80fd5b60027f000000000000000000000000000000000000000000000000000000000000000060048111156103a3576103a361072b565b036104025760405162461bcd60e51b815260206004820152602960248201527f4552433131353552656365697665724d6f636b3a20726576657274696e67206f6044820152686e207265636569766560b81b60648201526084016101ee565b60037f000000000000000000000000000000000000000000000000000000000000000060048111156104365761043661072b565b03610480576040516301990d6f60e61b81526001600160e01b03197f00000000000000000000000000000000000000000000000000000000000000001660048201526024016101ee565b60047f000000000000000000000000000000000000000000000000000000000000000060048111156104b4576104b461072b565b036104c7575f6104c4818061073f565b50505b7f20dfa9f79060c8c4d7fe892c97c71bcf6e3b63d1dcf66fea7aefc0211628cf298787878787875a6040516105029796959493929190610821565b60405180910390a1507f00000000000000000000000000000000000000000000000000000000000000009695505050505050565b5f60208284031215610546575f80fd5b81356001600160e01b03198116811461055d575f80fd5b9392505050565b80356001600160a01b038116811461057a575f80fd5b919050565b5f8083601f84011261058f575f80fd5b50813567ffffffffffffffff8111156105a6575f80fd5b6020830191508360208260051b85010111156105c0575f80fd5b9250929050565b5f8083601f8401126105d7575f80fd5b50813567ffffffffffffffff8111156105ee575f80fd5b6020830191508360208285010111156105c0575f80fd5b5f805f805f805f8060a0898b03121561061c575f80fd5b61062589610564565b975061063360208a01610564565b9650604089013567ffffffffffffffff8082111561064f575f80fd5b61065b8c838d0161057f565b909850965060608b0135915080821115610673575f80fd5b61067f8c838d0161057f565b909650945060808b0135915080821115610697575f80fd5b506106a48b828c016105c7565b999c989b5096995094979396929594505050565b5f805f805f8060a087890312156106cd575f80fd5b6106d687610564565b95506106e460208801610564565b94506040870135935060608701359250608087013567ffffffffffffffff81111561070d575f80fd5b61071989828a016105c7565b979a9699509497509295939492505050565b634e487b7160e01b5f52602160045260245ffd5b5f8261075957634e487b7160e01b5f52601260045260245ffd5b500490565b8183525f6001600160fb1b03831115610775575f80fd5b8260051b80836020870137939093016020019392505050565b81835281816020850137505f828201602090810191909152601f909101601f19169091010190565b6001600160a01b038a811682528916602082015260c0604082018190525f906107e2908301898b61075e565b82810360608401526107f581888a61075e565b9050828103608084015261080a81868861078e565b9150508260a08301529a9950505050505050505050565b6001600160a01b03888116825287166020820152604081018690526060810185905260c0608082018190525f9061085b908301858761078e565b90508260a08301529897505050505050505056fea2646970667358221220b1b7b8447cb62b5b95a7a79d9516e682b417ee436c5569c6e9ebe4d460cdd4e064736f6c63430008140033",
  "linkReferences": {},
  "deployedLinkReferences": {}
}