{"abi":[{"type":"function","name":"get","inputs":[],"outputs":[{"name":"","type":"bool","internalType":"bool"}],"stateMutability":"pure"},{"type":"function","name":"initialize","inputs":[{"name":"_value","type":"uint256","internalType":"uint256"},{"name":"_text","type":"string","internalType":"string"},{"name":"_values","type":"uint256[]","internalType":"uint256[]"}],"outputs":[],"stateMutability":"nonpayable"},{"type":"function","name":"initializeNonPayable","inputs":[],"outputs":[],"stateMutability":"nonpayable"},{"type":"function","name":"initializeNonPayableWithValue","inputs":[{"name":"_value","type":"uint256","internalType":"uint256"}],"outputs":[],"stateMutability":"nonpayable"},{"type":"function","name":"initializePayable","inputs":[],"outputs":[],"stateMutability":"payable"},{"type":"function","name":"initializePayableWithValue","inputs":[{"name":"_value","type":"uint256","internalType":"uint256"}],"outputs":[],"stateMutability":"payable"},{"type":"function","name":"migrate","inputs":[{"name":"newVal","type":"uint256","internalType":"uint256"}],"outputs":[],"stateMutability":"payable"},{"type":"function","name":"reverts","inputs":[],"outputs":[],"stateMutability":"pure"},{"type":"function","name":"text","inputs":[],"outputs":[{"name":"","type":"string","internalType":"string"}],"stateMutability":"view"},{"type":"function","name":"unsafeOverrideAdmin","inputs":[{"name":"newAdmin","type":"address","internalType":"address"}],"outputs":[],"stateMutability":"nonpayable"},{"type":"function","name":"value","inputs":[],"outputs":[{"name":"","type":"uint256","internalType":"uint256"}],"stateMutability":"view"},{"type":"function","name":"values","inputs":[{"name":"","type":"uint256","internalType":"uint256"}],"outputs":[{"name":"","type":"uint256","internalType":"uint256"}],"stateMutability":"view"},{"type":"function","name":"version","inputs":[],"outputs":[{"name":"","type":"string","internalType":"string"}],"stateMutability":"pure"}],"bytecode":{"object":"0x6080604052348015600f57600080fd5b506107938061001f6000396000f3fe6080604052600436106100c25760003560e01c806354fd4d501161007f578063763e283111610059578063763e28311461021a5780639fba1f9a14610235578063d31f8b6b1461023f578063e79f5bee146101a057600080fd5b806354fd4d50146101b35780635e383d21146101de5780636d4ce63c146101fe57600080fd5b806319af86e7146100c75780631f1bd69214610125578063227367d5146101505780633bccbbc9146101675780633fa4f2451461017c578063454b0608146101a0575b600080fd5b3480156100d357600080fd5b506101236100e23660046103e5565b7fb53127684a568b3173ae13b9f8a6016e243e63b6e8ee1178d6a717850b5d610380546001600160a01b0319166001600160a01b0392909216919091179055565b005b34801561013157600080fd5b5061013a61025f565b6040516101479190610415565b60405180910390f35b34801561015c57600080fd5b50610123600a600055565b34801561017357600080fd5b506101236102ed565b34801561018857600080fd5b5061019260005481565b604051908152602001610147565b6101236101ae366004610463565b600055565b3480156101bf57600080fd5b506040805180820190915260028152612b1960f11b602082015261013a565b3480156101ea57600080fd5b506101926101f9366004610463565b610339565b34801561020a57600080fd5b5060405160018152602001610147565b34801561022657600080fd5b506101236101ae366004610463565b6101236064600055565b34801561024b57600080fd5b5061012361025a366004610546565b61035a565b6001805461026c90610615565b80601f016020809104026020016040519081016040528092919081815260200182805461029890610615565b80156102e55780601f106102ba576101008083540402835291602001916102e5565b820191906000526020600020905b8154815290600101906020018083116102c857829003601f168201915b505050505081565b60405162461bcd60e51b815260206004820152601c60248201527f44756d6d79496d706c656d656e746174696f6e20726576657274656400000000604482015260640160405180910390fd5b6002818154811061034957600080fd5b600091825260209091200154905081565b6000839055600161036b838261069e565b50805161037f906002906020840190610385565b50505050565b8280548282559060005260206000209081019282156103c0579160200282015b828111156103c05782518255916020019190600101906103a5565b506103cc9291506103d0565b5090565b5b808211156103cc57600081556001016103d1565b6000602082840312156103f757600080fd5b81356001600160a01b038116811461040e57600080fd5b9392505050565b602081526000825180602084015260005b818110156104435760208186018101516040868401015201610426565b506000604082850101526040601f19601f83011684010191505092915050565b60006020828403121561047557600080fd5b5035919050565b634e487b7160e01b600052604160045260246000fd5b604051601f8201601f1916810167ffffffffffffffff811182821017156104bb576104bb61047c565b604052919050565b600082601f8301126104d457600080fd5b813567ffffffffffffffff8111156104ee576104ee61047c565b8060051b6104fe60208201610492565b9182526020818501810192908101908684111561051a57600080fd5b6020860192505b8383101561053c578235825260209283019290910190610521565b9695505050505050565b60008060006060848603121561055b57600080fd5b83359250602084013567ffffffffffffffff81111561057957600080fd5b8401601f8101861361058a57600080fd5b803567ffffffffffffffff8111156105a4576105a461047c565b6105b7601f8201601f1916602001610492565b8181528760208385010111156105cc57600080fd5b81602084016020830137600060208383010152809450505050604084013567ffffffffffffffff8111156105ff57600080fd5b61060b868287016104c3565b9150509250925092565b600181811c9082168061062957607f821691505b60208210810361064957634e487b7160e01b600052602260045260246000fd5b50919050565b601f82111561069957806000526020600020601f840160051c810160208510156106765750805b601f840160051c820191505b818110156106965760008155600101610682565b50505b505050565b815167ffffffffffffffff8111156106b8576106b861047c565b6106cc816106c68454610615565b8461064f565b6020601f82116001811461070057600083156106e85750848201515b600019600385901b1c1916600184901b178455610696565b600084815260208120601f198516915b828110156107305787850151825560209485019460019092019101610710565b508482101561074e5786840151600019600387901b60f8161c191681555b50505050600190811b0190555056fea26469706673582212206feff8276e4e53f0da92cc7579c5d15d47433766b89f381a8a720f1990ad687f64736f6c634300081b0033","linkReferences":{}},"methodIdentifiers":{"get()":"6d4ce63c","initialize(uint256,string,uint256[])":"d31f8b6b","initializeNonPayable()":"227367d5","initializeNonPayableWithValue(uint256)":"763e2831","initializePayable()":"9fba1f9a","initializePayableWithValue(uint256)":"e79f5bee","migrate(uint256)":"454b0608","reverts()":"3bccbbc9","text()":"1f1bd692","unsafeOverrideAdmin(address)":"19af86e7","value()":"3fa4f245","values(uint256)":"5e383d21","version()":"54fd4d50"},"id":64}