{"abi":[{"type":"function","name":"get","inputs":[],"outputs":[{"name":"","type":"bool","internalType":"bool"}],"stateMutability":"pure"},{"type":"function","name":"initialize","inputs":[{"name":"_value","type":"uint256","internalType":"uint256"},{"name":"_text","type":"string","internalType":"string"},{"name":"_values","type":"uint256[]","internalType":"uint256[]"}],"outputs":[],"stateMutability":"nonpayable"},{"type":"function","name":"initializeNonPayable","inputs":[],"outputs":[],"stateMutability":"nonpayable"},{"type":"function","name":"initializeNonPayableWithValue","inputs":[{"name":"_value","type":"uint256","internalType":"uint256"}],"outputs":[],"stateMutability":"nonpayable"},{"type":"function","name":"initializePayable","inputs":[],"outputs":[],"stateMutability":"payable"},{"type":"function","name":"initializePayableWithValue","inputs":[{"name":"_value","type":"uint256","internalType":"uint256"}],"outputs":[],"stateMutability":"payable"},{"type":"function","name":"reverts","inputs":[],"outputs":[],"stateMutability":"pure"},{"type":"function","name":"text","inputs":[],"outputs":[{"name":"","type":"string","internalType":"string"}],"stateMutability":"view"},{"type":"function","name":"unsafeOverrideAdmin","inputs":[{"name":"newAdmin","type":"address","internalType":"address"}],"outputs":[],"stateMutability":"nonpayable"},{"type":"function","name":"value","inputs":[],"outputs":[{"name":"","type":"uint256","internalType":"uint256"}],"stateMutability":"view"},{"type":"function","name":"values","inputs":[{"name":"","type":"uint256","internalType":"uint256"}],"outputs":[{"name":"","type":"uint256","internalType":"uint256"}],"stateMutability":"view"},{"type":"function","name":"version","inputs":[],"outputs":[{"name":"","type":"string","internalType":"string"}],"stateMutability":"pure"}],"bytecode":{"object":"0x6080604052348015600f57600080fd5b506107788061001f6000396000f3fe6080604052600436106100a75760003560e01c80635e383d21116100645780635e383d21146101b05780636d4ce63c146101d0578063763e2831146101ec5780639fba1f9a1461020c578063d31f8b6b14610216578063e79f5bee1461023657600080fd5b806319af86e7146100ac5780631f1bd6921461010a578063227367d5146101355780633bccbbc91461014c5780633fa4f2451461016157806354fd4d5014610185575b600080fd5b3480156100b857600080fd5b506101086100c73660046103ca565b7fb53127684a568b3173ae13b9f8a6016e243e63b6e8ee1178d6a717850b5d610380546001600160a01b0319166001600160a01b0392909216919091179055565b005b34801561011657600080fd5b5061011f610244565b60405161012c91906103fa565b60405180910390f35b34801561014157600080fd5b50610108600a600055565b34801561015857600080fd5b506101086102d2565b34801561016d57600080fd5b5061017760005481565b60405190815260200161012c565b34801561019157600080fd5b50604080518082019091526002815261563160f01b602082015261011f565b3480156101bc57600080fd5b506101776101cb366004610448565b61031e565b3480156101dc57600080fd5b506040516001815260200161012c565b3480156101f857600080fd5b50610108610207366004610448565b600055565b6101086064600055565b34801561022257600080fd5b5061010861023136600461052b565b61033f565b610108610207366004610448565b60018054610251906105fa565b80601f016020809104026020016040519081016040528092919081815260200182805461027d906105fa565b80156102ca5780601f1061029f576101008083540402835291602001916102ca565b820191906000526020600020905b8154815290600101906020018083116102ad57829003601f168201915b505050505081565b60405162461bcd60e51b815260206004820152601c60248201527f44756d6d79496d706c656d656e746174696f6e20726576657274656400000000604482015260640160405180910390fd5b6002818154811061032e57600080fd5b600091825260209091200154905081565b600083905560016103508382610683565b50805161036490600290602084019061036a565b50505050565b8280548282559060005260206000209081019282156103a5579160200282015b828111156103a557825182559160200191906001019061038a565b506103b19291506103b5565b5090565b5b808211156103b157600081556001016103b6565b6000602082840312156103dc57600080fd5b81356001600160a01b03811681146103f357600080fd5b9392505050565b602081526000825180602084015260005b81811015610428576020818601810151604086840101520161040b565b506000604082850101526040601f19601f83011684010191505092915050565b60006020828403121561045a57600080fd5b5035919050565b634e487b7160e01b600052604160045260246000fd5b604051601f8201601f1916810167ffffffffffffffff811182821017156104a0576104a0610461565b604052919050565b600082601f8301126104b957600080fd5b813567ffffffffffffffff8111156104d3576104d3610461565b8060051b6104e360208201610477565b918252602081850181019290810190868411156104ff57600080fd5b6020860192505b83831015610521578235825260209283019290910190610506565b9695505050505050565b60008060006060848603121561054057600080fd5b83359250602084013567ffffffffffffffff81111561055e57600080fd5b8401601f8101861361056f57600080fd5b803567ffffffffffffffff81111561058957610589610461565b61059c601f8201601f1916602001610477565b8181528760208385010111156105b157600080fd5b81602084016020830137600060208383010152809450505050604084013567ffffffffffffffff8111156105e457600080fd5b6105f0868287016104a8565b9150509250925092565b600181811c9082168061060e57607f821691505b60208210810361062e57634e487b7160e01b600052602260045260246000fd5b50919050565b601f82111561067e57806000526020600020601f840160051c8101602085101561065b5750805b601f840160051c820191505b8181101561067b5760008155600101610667565b50505b505050565b815167ffffffffffffffff81111561069d5761069d610461565b6106b1816106ab84546105fa565b84610634565b6020601f8211600181146106e557600083156106cd5750848201515b600019600385901b1c1916600184901b17845561067b565b600084815260208120601f198516915b8281101561071557878501518255602094850194600190920191016106f5565b50848210156107335786840151600019600387901b60f8161c191681555b50505050600190811b0190555056fea264697066735822122008d3268a6c92adf56d85a1d8a260ab5d05a415e84ce89a0011cd9857b51afa7c64736f6c634300081b0033","linkReferences":{}},"methodIdentifiers":{"get()":"6d4ce63c","initialize(uint256,string,uint256[])":"d31f8b6b","initializeNonPayable()":"227367d5","initializeNonPayableWithValue(uint256)":"763e2831","initializePayable()":"9fba1f9a","initializePayableWithValue(uint256)":"e79f5bee","reverts()":"3bccbbc9","text()":"1f1bd692","unsafeOverrideAdmin(address)":"19af86e7","value()":"3fa4f245","values(uint256)":"5e383d21","version()":"54fd4d50"},"id":64}