{
  "_format": "hh-sol-artifact-1",
  "contractName": "$ERC165Checker",
  "sourceName": "contracts-exposed/utils/introspection/ERC165Checker.sol",
  "abi": [
    {
      "inputs": [],
      "stateMutability": "payable",
      "type": "constructor"
    },
    {
      "inputs": [
        {
          "internalType": "address",
          "name": "account",
          "type": "address"
        },
        {
          "internalType": "bytes4[]",
          "name": "interfaceIds",
          "type": "bytes4[]"
        }
      ],
      "name": "$getSupportedInterfaces",
      "outputs": [
        {
          "internalType": "bool[]",
          "name": "ret0",
          "type": "bool[]"
        }
      ],
      "stateMutability": "view",
      "type": "function"
    },
    {
      "inputs": [
        {
          "internalType": "address",
          "name": "account",
          "type": "address"
        },
        {
          "internalType": "bytes4[]",
          "name": "interfaceIds",
          "type": "bytes4[]"
        }
      ],
      "name": "$supportsAllInterfaces",
      "outputs": [
        {
          "internalType": "bool",
          "name": "ret0",
          "type": "bool"
        }
      ],
      "stateMutability": "view",
      "type": "function"
    },
    {
      "inputs": [
        {
          "internalType": "address",
          "name": "account",
          "type": "address"
        }
      ],
      "name": "$supportsERC165",
      "outputs": [
        {
          "internalType": "bool",
          "name": "ret0",
          "type": "bool"
        }
      ],
      "stateMutability": "view",
      "type": "function"
    },
    {
      "inputs": [
        {
          "internalType": "address",
          "name": "account",
          "type": "address"
        },
        {
          "internalType": "bytes4",
          "name": "interfaceId",
          "type": "bytes4"
        }
      ],
      "name": "$supportsERC165InterfaceUnchecked",
      "outputs": [
        {
          "internalType": "bool",
          "name": "ret0",
          "type": "bool"
        }
      ],
      "stateMutability": "view",
      "type": "function"
    },
    {
      "inputs": [
        {
          "internalType": "address",
          "name": "account",
          "type": "address"
        },
        {
          "internalType": "bytes4",
          "name": "interfaceId",
          "type": "bytes4"
        }
      ],
      "name": "$supportsInterface",
      "outputs": [
        {
          "internalType": "bool",
          "name": "ret0",
          "type": "bool"
        }
      ],
      "stateMutability": "view",
      "type": "function"
    },
    {
      "inputs": [],
      "name": "__hh_exposed_bytecode_marker",
      "outputs": [
        {
          "internalType": "bytes32",
          "name": "",
          "type": "bytes32"
        }
      ],
      "stateMutability": "view",
      "type": "function"
    },
    {
      "stateMutability": "payable",
      "type": "receive"
    }
  ],
  "bytecode": "0x60806040526105b0806100115f395ff3fe608060405260043610610057575f3560e01c8063342db7391461006257806345db2bd31461009a5780636e16639a146100c95780637ae31071146100e85780638381eb5b14610107578063b92d70e214610133575f80fd5b3661005e57005b5f80fd5b34801561006d575f80fd5b506100876e1a185c991a185d0b595e1c1bdcd959608a1b81565b6040519081526020015b60405180910390f35b3480156100a5575f80fd5b506100b96100b4366004610410565b610152565b6040519015158152602001610091565b3480156100d4575f80fd5b506100b96100e3366004610429565b610162565b3480156100f3575f80fd5b506100b96101023660046104a8565b6101a7565b348015610112575f80fd5b50610126610121366004610429565b6101b9565b60405161009191906104e9565b34801561013e575f80fd5b506100b961014d3660046104a8565b6101f7565b5f61015c82610202565b92915050565b5f61019f848484808060200260200160405190810160405280939291908181526020018383602002808284375f9201919091525061023492505050565b949350505050565b5f6101b283836102a0565b9392505050565b606061019f848484808060200260200160405190810160405280939291908181526020018383602002808284375f9201919091525061032692505050565b5f6101b283836103da565b5f610214826301ffc9a760e01b6102a0565b801561015c575061022d826001600160e01b03196102a0565b1592915050565b5f61023e83610202565b61024957505f61015c565b5f5b8251811015610296576102778484838151811061026a5761026a61052e565b60200260200101516102a0565b610284575f91505061015c565b8061028e81610542565b91505061024b565b5060019392505050565b6040516001600160e01b0319821660248201525f90819060440160408051601f19818403018152919052602080820180516001600160e01b03166301ffc9a760e01b17815282519293505f9283928392909183918a617530fa92503d91505f519050828015610310575060208210155b801561031b57505f81115b979650505050505050565b60605f825167ffffffffffffffff81111561034357610343610566565b60405190808252806020026020018201604052801561036c578160200160208202803683370190505b50905061037884610202565b156101b2575f5b83518110156103d25761039e8585838151811061026a5761026a61052e565b8282815181106103b0576103b061052e565b91151560209283029190910190910152806103ca81610542565b91505061037f565b509392505050565b5f6103e483610202565b80156101b257506101b283836102a0565b80356001600160a01b038116811461040b575f80fd5b919050565b5f60208284031215610420575f80fd5b6101b2826103f5565b5f805f6040848603121561043b575f80fd5b610444846103f5565b9250602084013567ffffffffffffffff80821115610460575f80fd5b818601915086601f830112610473575f80fd5b813581811115610481575f80fd5b8760208260051b8501011115610495575f80fd5b6020830194508093505050509250925092565b5f80604083850312156104b9575f80fd5b6104c2836103f5565b915060208301356001600160e01b0319811681146104de575f80fd5b809150509250929050565b602080825282518282018190525f9190848201906040850190845b81811015610522578351151583529284019291840191600101610504565b50909695505050505050565b634e487b7160e01b5f52603260045260245ffd5b5f6001820161055f57634e487b7160e01b5f52601160045260245ffd5b5060010190565b634e487b7160e01b5f52604160045260245ffdfea26469706673582212204292f83205daf04b9de7933f674b5932b18d202f87017c49e3dd747ea988ba7964736f6c63430008140033",
  "linkReferences": {},
  "deployedLinkReferences": {}
}