{
  "_format": "hh-sol-artifact-1",
  "contractName": "$ERC20Wrapper",
  "sourceName": "contracts-exposed/token/ERC20/extensions/ERC20Wrapper.sol",
  "abi": [
    {
      "inputs": [
        {
          "internalType": "string",
          "name": "name_",
          "type": "string"
        },
        {
          "internalType": "string",
          "name": "symbol_",
          "type": "string"
        },
        {
          "internalType": "contract IERC20",
          "name": "underlyingToken",
          "type": "address"
        }
      ],
      "stateMutability": "payable",
      "type": "constructor"
    },
    {
      "inputs": [
        {
          "internalType": "address",
          "name": "target",
          "type": "address"
        }
      ],
      "name": "AddressEmptyCode",
      "type": "error"
    },
    {
      "inputs": [
        {
          "internalType": "address",
          "name": "account",
          "type": "address"
        }
      ],
      "name": "AddressInsufficientBalance",
      "type": "error"
    },
    {
      "inputs": [
        {
          "internalType": "address",
          "name": "spender",
          "type": "address"
        },
        {
          "internalType": "uint256",
          "name": "currentAllowance",
          "type": "uint256"
        },
        {
          "internalType": "uint256",
          "name": "requestedDecrease",
          "type": "uint256"
        }
      ],
      "name": "ERC20FailedDecreaseAllowance",
      "type": "error"
    },
    {
      "inputs": [
        {
          "internalType": "address",
          "name": "spender",
          "type": "address"
        },
        {
          "internalType": "uint256",
          "name": "allowance",
          "type": "uint256"
        },
        {
          "internalType": "uint256",
          "name": "needed",
          "type": "uint256"
        }
      ],
      "name": "ERC20InsufficientAllowance",
      "type": "error"
    },
    {
      "inputs": [
        {
          "internalType": "address",
          "name": "sender",
          "type": "address"
        },
        {
          "internalType": "uint256",
          "name": "balance",
          "type": "uint256"
        },
        {
          "internalType": "uint256",
          "name": "needed",
          "type": "uint256"
        }
      ],
      "name": "ERC20InsufficientBalance",
      "type": "error"
    },
    {
      "inputs": [
        {
          "internalType": "address",
          "name": "approver",
          "type": "address"
        }
      ],
      "name": "ERC20InvalidApprover",
      "type": "error"
    },
    {
      "inputs": [
        {
          "internalType": "address",
          "name": "receiver",
          "type": "address"
        }
      ],
      "name": "ERC20InvalidReceiver",
      "type": "error"
    },
    {
      "inputs": [
        {
          "internalType": "address",
          "name": "sender",
          "type": "address"
        }
      ],
      "name": "ERC20InvalidSender",
      "type": "error"
    },
    {
      "inputs": [
        {
          "internalType": "address",
          "name": "spender",
          "type": "address"
        }
      ],
      "name": "ERC20InvalidSpender",
      "type": "error"
    },
    {
      "inputs": [
        {
          "internalType": "address",
          "name": "token",
          "type": "address"
        }
      ],
      "name": "ERC20InvalidUnderlying",
      "type": "error"
    },
    {
      "inputs": [],
      "name": "FailedInnerCall",
      "type": "error"
    },
    {
      "inputs": [
        {
          "internalType": "address",
          "name": "token",
          "type": "address"
        }
      ],
      "name": "SafeERC20FailedOperation",
      "type": "error"
    },
    {
      "anonymous": false,
      "inputs": [
        {
          "indexed": true,
          "internalType": "address",
          "name": "owner",
          "type": "address"
        },
        {
          "indexed": true,
          "internalType": "address",
          "name": "spender",
          "type": "address"
        },
        {
          "indexed": false,
          "internalType": "uint256",
          "name": "value",
          "type": "uint256"
        }
      ],
      "name": "Approval",
      "type": "event"
    },
    {
      "anonymous": false,
      "inputs": [
        {
          "indexed": true,
          "internalType": "address",
          "name": "from",
          "type": "address"
        },
        {
          "indexed": true,
          "internalType": "address",
          "name": "to",
          "type": "address"
        },
        {
          "indexed": false,
          "internalType": "uint256",
          "name": "value",
          "type": "uint256"
        }
      ],
      "name": "Transfer",
      "type": "event"
    },
    {
      "anonymous": false,
      "inputs": [
        {
          "indexed": false,
          "internalType": "uint256",
          "name": "ret0",
          "type": "uint256"
        }
      ],
      "name": "return$_recover",
      "type": "event"
    },
    {
      "inputs": [
        {
          "internalType": "address",
          "name": "owner",
          "type": "address"
        },
        {
          "internalType": "address",
          "name": "spender",
          "type": "address"
        },
        {
          "internalType": "uint256",
          "name": "value",
          "type": "uint256"
        },
        {
          "internalType": "bool",
          "name": "emitEvent",
          "type": "bool"
        }
      ],
      "name": "$_approve",
      "outputs": [],
      "stateMutability": "nonpayable",
      "type": "function"
    },
    {
      "inputs": [
        {
          "internalType": "address",
          "name": "owner",
          "type": "address"
        },
        {
          "internalType": "address",
          "name": "spender",
          "type": "address"
        },
        {
          "internalType": "uint256",
          "name": "value",
          "type": "uint256"
        }
      ],
      "name": "$_approve",
      "outputs": [],
      "stateMutability": "nonpayable",
      "type": "function"
    },
    {
      "inputs": [
        {
          "internalType": "address",
          "name": "account",
          "type": "address"
        },
        {
          "internalType": "uint256",
          "name": "value",
          "type": "uint256"
        }
      ],
      "name": "$_burn",
      "outputs": [],
      "stateMutability": "nonpayable",
      "type": "function"
    },
    {
      "inputs": [
        {
          "internalType": "address",
          "name": "account",
          "type": "address"
        },
        {
          "internalType": "uint256",
          "name": "value",
          "type": "uint256"
        }
      ],
      "name": "$_mint",
      "outputs": [],
      "stateMutability": "nonpayable",
      "type": "function"
    },
    {
      "inputs": [],
      "name": "$_msgData",
      "outputs": [
        {
          "internalType": "bytes",
          "name": "ret0",
          "type": "bytes"
        }
      ],
      "stateMutability": "view",
      "type": "function"
    },
    {
      "inputs": [],
      "name": "$_msgSender",
      "outputs": [
        {
          "internalType": "address",
          "name": "ret0",
          "type": "address"
        }
      ],
      "stateMutability": "view",
      "type": "function"
    },
    {
      "inputs": [
        {
          "internalType": "address",
          "name": "account",
          "type": "address"
        }
      ],
      "name": "$_recover",
      "outputs": [
        {
          "internalType": "uint256",
          "name": "ret0",
          "type": "uint256"
        }
      ],
      "stateMutability": "nonpayable",
      "type": "function"
    },
    {
      "inputs": [
        {
          "internalType": "address",
          "name": "owner",
          "type": "address"
        },
        {
          "internalType": "address",
          "name": "spender",
          "type": "address"
        },
        {
          "internalType": "uint256",
          "name": "value",
          "type": "uint256"
        }
      ],
      "name": "$_spendAllowance",
      "outputs": [],
      "stateMutability": "nonpayable",
      "type": "function"
    },
    {
      "inputs": [
        {
          "internalType": "address",
          "name": "from",
          "type": "address"
        },
        {
          "internalType": "address",
          "name": "to",
          "type": "address"
        },
        {
          "internalType": "uint256",
          "name": "value",
          "type": "uint256"
        }
      ],
      "name": "$_transfer",
      "outputs": [],
      "stateMutability": "nonpayable",
      "type": "function"
    },
    {
      "inputs": [
        {
          "internalType": "address",
          "name": "from",
          "type": "address"
        },
        {
          "internalType": "address",
          "name": "to",
          "type": "address"
        },
        {
          "internalType": "uint256",
          "name": "value",
          "type": "uint256"
        }
      ],
      "name": "$_update",
      "outputs": [],
      "stateMutability": "nonpayable",
      "type": "function"
    },
    {
      "inputs": [],
      "name": "__hh_exposed_bytecode_marker",
      "outputs": [
        {
          "internalType": "bytes32",
          "name": "",
          "type": "bytes32"
        }
      ],
      "stateMutability": "view",
      "type": "function"
    },
    {
      "inputs": [
        {
          "internalType": "address",
          "name": "owner",
          "type": "address"
        },
        {
          "internalType": "address",
          "name": "spender",
          "type": "address"
        }
      ],
      "name": "allowance",
      "outputs": [
        {
          "internalType": "uint256",
          "name": "",
          "type": "uint256"
        }
      ],
      "stateMutability": "view",
      "type": "function"
    },
    {
      "inputs": [
        {
          "internalType": "address",
          "name": "spender",
          "type": "address"
        },
        {
          "internalType": "uint256",
          "name": "value",
          "type": "uint256"
        }
      ],
      "name": "approve",
      "outputs": [
        {
          "internalType": "bool",
          "name": "",
          "type": "bool"
        }
      ],
      "stateMutability": "nonpayable",
      "type": "function"
    },
    {
      "inputs": [
        {
          "internalType": "address",
          "name": "account",
          "type": "address"
        }
      ],
      "name": "balanceOf",
      "outputs": [
        {
          "internalType": "uint256",
          "name": "",
          "type": "uint256"
        }
      ],
      "stateMutability": "view",
      "type": "function"
    },
    {
      "inputs": [],
      "name": "decimals",
      "outputs": [
        {
          "internalType": "uint8",
          "name": "",
          "type": "uint8"
        }
      ],
      "stateMutability": "view",
      "type": "function"
    },
    {
      "inputs": [
        {
          "internalType": "address",
          "name": "spender",
          "type": "address"
        },
        {
          "internalType": "uint256",
          "name": "requestedDecrease",
          "type": "uint256"
        }
      ],
      "name": "decreaseAllowance",
      "outputs": [
        {
          "internalType": "bool",
          "name": "",
          "type": "bool"
        }
      ],
      "stateMutability": "nonpayable",
      "type": "function"
    },
    {
      "inputs": [
        {
          "internalType": "address",
          "name": "account",
          "type": "address"
        },
        {
          "internalType": "uint256",
          "name": "value",
          "type": "uint256"
        }
      ],
      "name": "depositFor",
      "outputs": [
        {
          "internalType": "bool",
          "name": "",
          "type": "bool"
        }
      ],
      "stateMutability": "nonpayable",
      "type": "function"
    },
    {
      "inputs": [
        {
          "internalType": "address",
          "name": "spender",
          "type": "address"
        },
        {
          "internalType": "uint256",
          "name": "addedValue",
          "type": "uint256"
        }
      ],
      "name": "increaseAllowance",
      "outputs": [
        {
          "internalType": "bool",
          "name": "",
          "type": "bool"
        }
      ],
      "stateMutability": "nonpayable",
      "type": "function"
    },
    {
      "inputs": [],
      "name": "name",
      "outputs": [
        {
          "internalType": "string",
          "name": "",
          "type": "string"
        }
      ],
      "stateMutability": "view",
      "type": "function"
    },
    {
      "inputs": [],
      "name": "symbol",
      "outputs": [
        {
          "internalType": "string",
          "name": "",
          "type": "string"
        }
      ],
      "stateMutability": "view",
      "type": "function"
    },
    {
      "inputs": [],
      "name": "totalSupply",
      "outputs": [
        {
          "internalType": "uint256",
          "name": "",
          "type": "uint256"
        }
      ],
      "stateMutability": "view",
      "type": "function"
    },
    {
      "inputs": [
        {
          "internalType": "address",
          "name": "to",
          "type": "address"
        },
        {
          "internalType": "uint256",
          "name": "value",
          "type": "uint256"
        }
      ],
      "name": "transfer",
      "outputs": [
        {
          "internalType": "bool",
          "name": "",
          "type": "bool"
        }
      ],
      "stateMutability": "nonpayable",
      "type": "function"
    },
    {
      "inputs": [
        {
          "internalType": "address",
          "name": "from",
          "type": "address"
        },
        {
          "internalType": "address",
          "name": "to",
          "type": "address"
        },
        {
          "internalType": "uint256",
          "name": "value",
          "type": "uint256"
        }
      ],
      "name": "transferFrom",
      "outputs": [
        {
          "internalType": "bool",
          "name": "",
          "type": "bool"
        }
      ],
      "stateMutability": "nonpayable",
      "type": "function"
    },
    {
      "inputs": [],
      "name": "underlying",
      "outputs": [
        {
          "internalType": "contract IERC20",
          "name": "",
          "type": "address"
        }
      ],
      "stateMutability": "view",
      "type": "function"
    },
    {
      "inputs": [
        {
          "internalType": "address",
          "name": "account",
          "type": "address"
        },
        {
          "internalType": "uint256",
          "name": "value",
          "type": "uint256"
        }
      ],
      "name": "withdrawTo",
      "outputs": [
        {
          "internalType": "bool",
          "name": "",
          "type": "bool"
        }
      ],
      "stateMutability": "nonpayable",
      "type": "function"
    },
    {
      "stateMutability": "payable",
      "type": "receive"
    }
  ],
  "bytecode": "0x60a0604052604051620014983803806200149883398101604081905262000026916200014e565b808383600362000037838262000261565b50600462000046828262000261565b5050306001600160a01b0383160390506200007a5760405163438d6fe360e01b815230600482015260240160405180910390fd5b6001600160a01b03166080525062000329915050565b634e487b7160e01b5f52604160045260245ffd5b5f82601f830112620000b4575f80fd5b81516001600160401b0380821115620000d157620000d162000090565b604051601f8301601f19908116603f01168101908282118183101715620000fc57620000fc62000090565b8160405283815260209250868385880101111562000118575f80fd5b5f91505b838210156200013b57858201830151818301840152908201906200011c565b5f93810190920192909252949350505050565b5f805f6060848603121562000161575f80fd5b83516001600160401b038082111562000178575f80fd5b6200018687838801620000a4565b945060208601519150808211156200019c575f80fd5b50620001ab86828701620000a4565b604086015190935090506001600160a01b0381168114620001ca575f80fd5b809150509250925092565b600181811c90821680620001ea57607f821691505b6020821081036200020957634e487b7160e01b5f52602260045260245ffd5b50919050565b601f8211156200025c575f81815260208120601f850160051c81016020861015620002375750805b601f850160051c820191505b81811015620002585782815560010162000243565b5050505b505050565b81516001600160401b038111156200027d576200027d62000090565b62000295816200028e8454620001d5565b846200020f565b602080601f831160018114620002cb575f8415620002b35750858301515b5f19600386901b1c1916600185901b17855562000258565b5f85815260208120601f198616915b82811015620002fb57888601518255948401946001909101908401620002da565b50858210156200031957878501515f19600388901b60f8161c191681555b5050505050600190811b01905550565b60805161113a6200035e5f395f8181610354015281816105aa015281816106590152818161068d0152610b61015261113a5ff3fe608060405260043610610164575f3560e01c80636242b9d0116100cd578063a457c2d711610087578063cc461d6211610062578063cc461d621461043c578063dd62ed3e1461045b578063e047838d1461047a578063efb43b0714610499575f80fd5b8063a457c2d7146103df578063a9059cbb146103fe578063b2331d7d1461041d575f80fd5b80636242b9d0146103085780636855a178146103275780636f307dc31461034657806370a0823114610378578063861e3d3d146103ac57806395d89b41146103cb575f80fd5b80632f4f21e21161011e5780632f4f21e21461024a578063313ce5671461026957806332bc74aa1461028f57806332cadf3c146102b0578063342db739146102c457806339509351146102e9575f80fd5b806306fdde031461016f578063095ea7b31461019957806318160ddd146101c8578063205c2878146101e657806323b872dd146102055780632904df2914610224575f80fd5b3661016b57005b5f80fd5b34801561017a575f80fd5b506101836104b8565b6040516101909190610ef6565b60405180910390f35b3480156101a4575f80fd5b506101b86101b3366004610f1e565b610548565b6040519015158152602001610190565b3480156101d3575f80fd5b506002545b604051908152602001610190565b3480156101f1575f80fd5b506101b8610200366004610f1e565b610561565b348015610210575f80fd5b506101b861021f366004610f46565b6105d9565b34801561022f575f80fd5b50335b6040516001600160a01b039091168152602001610190565b348015610255575f80fd5b506101b8610264366004610f1e565b6105fc565b348015610274575f80fd5b5061027d61068a565b60405160ff9091168152602001610190565b34801561029a575f80fd5b506102ae6102a9366004610f8f565b610714565b005b3480156102bb575f80fd5b50610183610726565b3480156102cf575f80fd5b506101d86e1a185c991a185d0b595e1c1bdcd959608a1b81565b3480156102f4575f80fd5b506101b8610303366004610f1e565b610763565b348015610313575f80fd5b506101d8610322366004610fdb565b610784565b348015610332575f80fd5b506102ae610341366004610f46565b6107ce565b348015610351575f80fd5b507f0000000000000000000000000000000000000000000000000000000000000000610232565b348015610383575f80fd5b506101d8610392366004610fdb565b6001600160a01b03165f9081526020819052604090205490565b3480156103b7575f80fd5b506102ae6103c6366004610f46565b6107de565b3480156103d6575f80fd5b506101836107e9565b3480156103ea575f80fd5b506101b86103f9366004610f1e565b6107f8565b348015610409575f80fd5b506101b8610418366004610f1e565b61084e565b348015610428575f80fd5b506102ae610437366004610f46565b61085b565b348015610447575f80fd5b506102ae610456366004610f1e565b610866565b348015610466575f80fd5b506101d8610475366004610ff4565b610874565b348015610485575f80fd5b506102ae610494366004610f1e565b61089e565b3480156104a4575f80fd5b506102ae6104b3366004610f46565b6108a8565b6060600380546104c790611025565b80601f01602080910402602001604051908101604052809291908181526020018280546104f390611025565b801561053e5780601f106105155761010080835404028352916020019161053e565b820191905f5260205f20905b81548152906001019060200180831161052157829003601f168201915b5050505050905090565b5f336105558185856108b3565b60019150505b92915050565b5f306001600160a01b0384160361059b5760405163ec442f0560e01b81526001600160a01b03841660048201526024015b60405180910390fd5b6105a533836108c0565b6105d07f000000000000000000000000000000000000000000000000000000000000000084846108f4565b50600192915050565b5f336105e6858285610953565b6105f18585856109b0565b506001949350505050565b5f3330810361062057604051634b637e8f60e11b8152306004820152602401610592565b306001600160a01b038516036106545760405163ec442f0560e01b81526001600160a01b0385166004820152602401610592565b6106807f0000000000000000000000000000000000000000000000000000000000000000823086610a02565b6105558484610a3b565b5f7f00000000000000000000000000000000000000000000000000000000000000006001600160a01b031663313ce5676040518163ffffffff1660e01b8152600401602060405180830381865afa925050508015610705575060408051601f3d908101601f191682019092526107029181019061105d565b60015b61070f5750601290565b919050565b61072084848484610a6f565b50505050565b60605f368080601f0160208091040260200160405190810160405280939291908181526020018383808284375f9201919091525092949350505050565b5f336105558185856107758383610874565b61077f9190611091565b6108b3565b5f61078e82610b41565b90507f1abff978536966f470533a0a53cd23b392e2a9d1672b0e18941e1f57949e7cdc816040516107c191815260200190565b60405180910390a1919050565b6107d9838383610be8565b505050565b6107d98383836108b3565b6060600480546104c790611025565b5f33816108058286610874565b90508381101561084157604051632983c0c360e21b81526001600160a01b03861660048201526024810182905260448101859052606401610592565b6105f182868684036108b3565b5f336105558185856109b0565b6107d9838383610953565b6108708282610a3b565b5050565b6001600160a01b039182165f90815260016020908152604080832093909416825291909152205490565b61087082826108c0565b6107d98383836109b0565b6107d98383836001610a6f565b6001600160a01b0382166108e957604051634b637e8f60e11b81525f6004820152602401610592565b610870825f83610be8565b6040516001600160a01b038381166024830152604482018390526107d991859182169063a9059cbb906064015b604051602081830303815290604052915060e01b6020820180516001600160e01b038381831617835250505050610d0e565b5f61095e8484610874565b90505f19811461072057818110156109a257604051637dc7a0d960e11b81526001600160a01b03841660048201526024810182905260448101839052606401610592565b61072084848484035f610a6f565b6001600160a01b0383166109d957604051634b637e8f60e11b81525f6004820152602401610592565b6001600160a01b0382166107ce5760405163ec442f0560e01b81525f6004820152602401610592565b6040516001600160a01b0384811660248301528381166044830152606482018390526107209186918216906323b872dd90608401610921565b6001600160a01b038216610a645760405163ec442f0560e01b81525f6004820152602401610592565b6108705f8383610be8565b6001600160a01b038416610a985760405163e602df0560e01b81525f6004820152602401610592565b6001600160a01b038316610ac157604051634a1406b160e11b81525f6004820152602401610592565b6001600160a01b038085165f908152600160209081526040808320938716835292905220829055801561072057826001600160a01b0316846001600160a01b03167f8c5be1e5ebec7d5bd14f71427d1e84f3dd0314c0f7b2291e5b200ac8c7c3b92584604051610b3391815260200190565b60405180910390a350505050565b5f80610b4c60025490565b6040516370a0823160e01b81523060048201527f00000000000000000000000000000000000000000000000000000000000000006001600160a01b0316906370a0823190602401602060405180830381865afa158015610bae573d5f803e3d5ffd5b505050506040513d601f19601f82011682018060405250810190610bd291906110a4565b610bdc91906110bb565b905061055b8382610a3b565b6001600160a01b038316610c12578060025f828254610c079190611091565b90915550610c829050565b6001600160a01b0383165f9081526020819052604090205481811015610c645760405163391434e360e21b81526001600160a01b03851660048201526024810182905260448101839052606401610592565b6001600160a01b0384165f9081526020819052604090209082900390555b6001600160a01b038216610c9e57600280548290039055610cbc565b6001600160a01b0382165f9081526020819052604090208054820190555b816001600160a01b0316836001600160a01b03167fddf252ad1be2c89b69c2b068fc378daa952ba7f163c4a11628f55a4df523b3ef83604051610d0191815260200190565b60405180910390a3505050565b5f610d226001600160a01b03841683610d6f565b905080515f14158015610d46575080806020019051810190610d4491906110ce565b155b156107d957604051635274afe760e01b81526001600160a01b0384166004820152602401610592565b6060610d7f83835f610d86610d9f565b9392505050565b604051630a12f52160e11b815260040160405180910390fd5b606082471015610dc45760405163cd78605960e01b8152306004820152602401610592565b5f80866001600160a01b03168587604051610ddf91906110e9565b5f6040518083038185875af1925050503d805f8114610e19576040519150601f19603f3d011682016040523d82523d5f602084013e610e1e565b606091505b5091509150610e2f87838387610e3c565b925050505b949350505050565b60608315610e885782515f03610e8157846001600160a01b03163b5f03610e8157604051639996b31560e01b81526001600160a01b0386166004820152602401610592565b5081610e34565b610e348383815115610e9d5781518083602001fd5b610d868163ffffffff16565b5f5b83811015610ec3578181015183820152602001610eab565b50505f910152565b5f8151808452610ee2816020860160208601610ea9565b601f01601f19169290920160200192915050565b602081525f610d7f6020830184610ecb565b80356001600160a01b038116811461070f575f80fd5b5f8060408385031215610f2f575f80fd5b610f3883610f08565b946020939093013593505050565b5f805f60608486031215610f58575f80fd5b610f6184610f08565b9250610f6f60208501610f08565b9150604084013590509250925092565b8015158114610f8c575f80fd5b50565b5f805f8060808587031215610fa2575f80fd5b610fab85610f08565b9350610fb960208601610f08565b9250604085013591506060850135610fd081610f7f565b939692955090935050565b5f60208284031215610feb575f80fd5b610d7f82610f08565b5f8060408385031215611005575f80fd5b61100e83610f08565b915061101c60208401610f08565b90509250929050565b600181811c9082168061103957607f821691505b60208210810361105757634e487b7160e01b5f52602260045260245ffd5b50919050565b5f6020828403121561106d575f80fd5b815160ff81168114610d7f575f80fd5b634e487b7160e01b5f52601160045260245ffd5b8082018082111561055b5761055b61107d565b5f602082840312156110b4575f80fd5b5051919050565b8181038181111561055b5761055b61107d565b5f602082840312156110de575f80fd5b8151610d7f81610f7f565b5f82516110fa818460208701610ea9565b919091019291505056fea26469706673582212203a6f03590d45991ef9f9fbb0e5d38684d69a775c8b08a0b643fa91bdc51fae8964736f6c63430008140033",
  "linkReferences": {},
  "deployedLinkReferences": {}
}