{
  "_format": "hh-sol-artifact-1",
  "contractName": "TimelockReentrant",
  "sourceName": "contracts/mocks/TimelockReentrant.sol",
  "abi": [
    {
      "inputs": [
        {
          "internalType": "address",
          "name": "target",
          "type": "address"
        }
      ],
      "name": "AddressEmptyCode",
      "type": "error"
    },
    {
      "inputs": [
        {
          "internalType": "address",
          "name": "account",
          "type": "address"
        }
      ],
      "name": "AddressInsufficientBalance",
      "type": "error"
    },
    {
      "inputs": [],
      "name": "FailedInnerCall",
      "type": "error"
    },
    {
      "inputs": [],
      "name": "disableReentrancy",
      "outputs": [],
      "stateMutability": "nonpayable",
      "type": "function"
    },
    {
      "inputs": [
        {
          "internalType": "address",
          "name": "target",
          "type": "address"
        },
        {
          "internalType": "bytes",
          "name": "data",
          "type": "bytes"
        }
      ],
      "name": "enableRentrancy",
      "outputs": [],
      "stateMutability": "nonpayable",
      "type": "function"
    },
    {
      "inputs": [],
      "name": "reenter",
      "outputs": [],
      "stateMutability": "nonpayable",
      "type": "function"
    }
  ],
  "bytecode": "0x608060405234801561000f575f80fd5b506104dc8061001d5f395ff3fe608060405234801561000f575f80fd5b506004361061003f575f3560e01c80633654421b14610043578063a0fe97e314610058578063cc23fb1c14610060575b5f80fd5b61005661005136600461029b565b610072565b005b61005661009f565b6100566002805460ff19166001179055565b5f80546001600160a01b0319166001600160a01b03851617905560016100998284836103be565b50505050565b60025460ff1661015a576002805460ff191660019081179091555f548154610158926001600160a01b0390921691906100d790610338565b80601f016020809104026020016040519081016040528092919081815260200182805461010390610338565b801561014e5780601f106101255761010080835404028352916020019161014e565b820191905f5260205f20905b81548152906001019060200180831161013157829003601f168201915b505050505061015c565b505b565b606061016c83835f61017361018c565b9392505050565b604051630a12f52160e11b815260040160405180910390fd5b6060824710156101b65760405163cd78605960e01b81523060048201526024015b60405180910390fd5b5f80866001600160a01b031685876040516101d1919061047a565b5f6040518083038185875af1925050503d805f811461020b576040519150601f19603f3d011682016040523d82523d5f602084013e610210565b606091505b50915091506102218783838761022e565b925050505b949350505050565b6060831561027a5782515f0361027357846001600160a01b03163b5f0361027357604051639996b31560e01b81526001600160a01b03861660048201526024016101ad565b5081610226565b610226838381511561028f5781518083602001fd5b6101738163ffffffff16565b5f805f604084860312156102ad575f80fd5b83356001600160a01b03811681146102c3575f80fd5b9250602084013567ffffffffffffffff808211156102df575f80fd5b818601915086601f8301126102f2575f80fd5b813581811115610300575f80fd5b876020828501011115610311575f80fd5b6020830194508093505050509250925092565b634e487b7160e01b5f52604160045260245ffd5b600181811c9082168061034c57607f821691505b60208210810361036a57634e487b7160e01b5f52602260045260245ffd5b50919050565b601f8211156103b9575f81815260208120601f850160051c810160208610156103965750805b601f850160051c820191505b818110156103b5578281556001016103a2565b5050505b505050565b67ffffffffffffffff8311156103d6576103d6610324565b6103ea836103e48354610338565b83610370565b5f601f84116001811461041b575f85156104045750838201355b5f19600387901b1c1916600186901b178355610473565b5f83815260209020601f19861690835b8281101561044b578685013582556020948501946001909201910161042b565b5086821015610467575f1960f88860031b161c19848701351681555b505060018560011b0183555b5050505050565b5f82515f5b81811015610499576020818601810151858301520161047f565b505f92019182525091905056fea2646970667358221220e9cff7369b7c4c1e6765fc107591226ce1e707fed00822a7f8cbc4e48d3a1c9664736f6c63430008140033",
  "linkReferences": {},
  "deployedLinkReferences": {}
}