{
  "_format": "hh-sol-artifact-1",
  "contractName": "$ERC1155Burnable",
  "sourceName": "contracts-exposed/token/ERC1155/extensions/ERC1155Burnable.sol",
  "abi": [
    {
      "inputs": [
        {
          "internalType": "string",
          "name": "uri_",
          "type": "string"
        }
      ],
      "stateMutability": "payable",
      "type": "constructor"
    },
    {
      "inputs": [
        {
          "internalType": "address",
          "name": "sender",
          "type": "address"
        },
        {
          "internalType": "uint256",
          "name": "balance",
          "type": "uint256"
        },
        {
          "internalType": "uint256",
          "name": "needed",
          "type": "uint256"
        },
        {
          "internalType": "uint256",
          "name": "tokenId",
          "type": "uint256"
        }
      ],
      "name": "ERC1155InsufficientBalance",
      "type": "error"
    },
    {
      "inputs": [
        {
          "internalType": "address",
          "name": "approver",
          "type": "address"
        }
      ],
      "name": "ERC1155InvalidApprover",
      "type": "error"
    },
    {
      "inputs": [
        {
          "internalType": "uint256",
          "name": "idsLength",
          "type": "uint256"
        },
        {
          "internalType": "uint256",
          "name": "valuesLength",
          "type": "uint256"
        }
      ],
      "name": "ERC1155InvalidArrayLength",
      "type": "error"
    },
    {
      "inputs": [
        {
          "internalType": "address",
          "name": "operator",
          "type": "address"
        }
      ],
      "name": "ERC1155InvalidOperator",
      "type": "error"
    },
    {
      "inputs": [
        {
          "internalType": "address",
          "name": "receiver",
          "type": "address"
        }
      ],
      "name": "ERC1155InvalidReceiver",
      "type": "error"
    },
    {
      "inputs": [
        {
          "internalType": "address",
          "name": "sender",
          "type": "address"
        }
      ],
      "name": "ERC1155InvalidSender",
      "type": "error"
    },
    {
      "inputs": [
        {
          "internalType": "address",
          "name": "operator",
          "type": "address"
        },
        {
          "internalType": "address",
          "name": "owner",
          "type": "address"
        }
      ],
      "name": "ERC1155MissingApprovalForAll",
      "type": "error"
    },
    {
      "anonymous": false,
      "inputs": [
        {
          "indexed": true,
          "internalType": "address",
          "name": "account",
          "type": "address"
        },
        {
          "indexed": true,
          "internalType": "address",
          "name": "operator",
          "type": "address"
        },
        {
          "indexed": false,
          "internalType": "bool",
          "name": "approved",
          "type": "bool"
        }
      ],
      "name": "ApprovalForAll",
      "type": "event"
    },
    {
      "anonymous": false,
      "inputs": [
        {
          "indexed": true,
          "internalType": "address",
          "name": "operator",
          "type": "address"
        },
        {
          "indexed": true,
          "internalType": "address",
          "name": "from",
          "type": "address"
        },
        {
          "indexed": true,
          "internalType": "address",
          "name": "to",
          "type": "address"
        },
        {
          "indexed": false,
          "internalType": "uint256[]",
          "name": "ids",
          "type": "uint256[]"
        },
        {
          "indexed": false,
          "internalType": "uint256[]",
          "name": "values",
          "type": "uint256[]"
        }
      ],
      "name": "TransferBatch",
      "type": "event"
    },
    {
      "anonymous": false,
      "inputs": [
        {
          "indexed": true,
          "internalType": "address",
          "name": "operator",
          "type": "address"
        },
        {
          "indexed": true,
          "internalType": "address",
          "name": "from",
          "type": "address"
        },
        {
          "indexed": true,
          "internalType": "address",
          "name": "to",
          "type": "address"
        },
        {
          "indexed": false,
          "internalType": "uint256",
          "name": "id",
          "type": "uint256"
        },
        {
          "indexed": false,
          "internalType": "uint256",
          "name": "value",
          "type": "uint256"
        }
      ],
      "name": "TransferSingle",
      "type": "event"
    },
    {
      "anonymous": false,
      "inputs": [
        {
          "indexed": false,
          "internalType": "string",
          "name": "value",
          "type": "string"
        },
        {
          "indexed": true,
          "internalType": "uint256",
          "name": "id",
          "type": "uint256"
        }
      ],
      "name": "URI",
      "type": "event"
    },
    {
      "inputs": [
        {
          "internalType": "address",
          "name": "from",
          "type": "address"
        },
        {
          "internalType": "uint256",
          "name": "id",
          "type": "uint256"
        },
        {
          "internalType": "uint256",
          "name": "value",
          "type": "uint256"
        }
      ],
      "name": "$_burn",
      "outputs": [],
      "stateMutability": "nonpayable",
      "type": "function"
    },
    {
      "inputs": [
        {
          "internalType": "address",
          "name": "from",
          "type": "address"
        },
        {
          "internalType": "uint256[]",
          "name": "ids",
          "type": "uint256[]"
        },
        {
          "internalType": "uint256[]",
          "name": "values",
          "type": "uint256[]"
        }
      ],
      "name": "$_burnBatch",
      "outputs": [],
      "stateMutability": "nonpayable",
      "type": "function"
    },
    {
      "inputs": [
        {
          "internalType": "address",
          "name": "to",
          "type": "address"
        },
        {
          "internalType": "uint256",
          "name": "id",
          "type": "uint256"
        },
        {
          "internalType": "uint256",
          "name": "value",
          "type": "uint256"
        },
        {
          "internalType": "bytes",
          "name": "data",
          "type": "bytes"
        }
      ],
      "name": "$_mint",
      "outputs": [],
      "stateMutability": "nonpayable",
      "type": "function"
    },
    {
      "inputs": [
        {
          "internalType": "address",
          "name": "to",
          "type": "address"
        },
        {
          "internalType": "uint256[]",
          "name": "ids",
          "type": "uint256[]"
        },
        {
          "internalType": "uint256[]",
          "name": "values",
          "type": "uint256[]"
        },
        {
          "internalType": "bytes",
          "name": "data",
          "type": "bytes"
        }
      ],
      "name": "$_mintBatch",
      "outputs": [],
      "stateMutability": "nonpayable",
      "type": "function"
    },
    {
      "inputs": [],
      "name": "$_msgData",
      "outputs": [
        {
          "internalType": "bytes",
          "name": "ret0",
          "type": "bytes"
        }
      ],
      "stateMutability": "view",
      "type": "function"
    },
    {
      "inputs": [],
      "name": "$_msgSender",
      "outputs": [
        {
          "internalType": "address",
          "name": "ret0",
          "type": "address"
        }
      ],
      "stateMutability": "view",
      "type": "function"
    },
    {
      "inputs": [
        {
          "internalType": "address",
          "name": "from",
          "type": "address"
        },
        {
          "internalType": "address",
          "name": "to",
          "type": "address"
        },
        {
          "internalType": "uint256[]",
          "name": "ids",
          "type": "uint256[]"
        },
        {
          "internalType": "uint256[]",
          "name": "values",
          "type": "uint256[]"
        },
        {
          "internalType": "bytes",
          "name": "data",
          "type": "bytes"
        }
      ],
      "name": "$_safeBatchTransferFrom",
      "outputs": [],
      "stateMutability": "nonpayable",
      "type": "function"
    },
    {
      "inputs": [
        {
          "internalType": "address",
          "name": "from",
          "type": "address"
        },
        {
          "internalType": "address",
          "name": "to",
          "type": "address"
        },
        {
          "internalType": "uint256",
          "name": "id",
          "type": "uint256"
        },
        {
          "internalType": "uint256",
          "name": "value",
          "type": "uint256"
        },
        {
          "internalType": "bytes",
          "name": "data",
          "type": "bytes"
        }
      ],
      "name": "$_safeTransferFrom",
      "outputs": [],
      "stateMutability": "nonpayable",
      "type": "function"
    },
    {
      "inputs": [
        {
          "internalType": "address",
          "name": "owner",
          "type": "address"
        },
        {
          "internalType": "address",
          "name": "operator",
          "type": "address"
        },
        {
          "internalType": "bool",
          "name": "approved",
          "type": "bool"
        }
      ],
      "name": "$_setApprovalForAll",
      "outputs": [],
      "stateMutability": "nonpayable",
      "type": "function"
    },
    {
      "inputs": [
        {
          "internalType": "string",
          "name": "newuri",
          "type": "string"
        }
      ],
      "name": "$_setURI",
      "outputs": [],
      "stateMutability": "nonpayable",
      "type": "function"
    },
    {
      "inputs": [
        {
          "internalType": "address",
          "name": "from",
          "type": "address"
        },
        {
          "internalType": "address",
          "name": "to",
          "type": "address"
        },
        {
          "internalType": "uint256[]",
          "name": "ids",
          "type": "uint256[]"
        },
        {
          "internalType": "uint256[]",
          "name": "values",
          "type": "uint256[]"
        }
      ],
      "name": "$_update",
      "outputs": [],
      "stateMutability": "nonpayable",
      "type": "function"
    },
    {
      "inputs": [
        {
          "internalType": "address",
          "name": "from",
          "type": "address"
        },
        {
          "internalType": "address",
          "name": "to",
          "type": "address"
        },
        {
          "internalType": "uint256[]",
          "name": "ids",
          "type": "uint256[]"
        },
        {
          "internalType": "uint256[]",
          "name": "values",
          "type": "uint256[]"
        },
        {
          "internalType": "bytes",
          "name": "data",
          "type": "bytes"
        }
      ],
      "name": "$_updateWithAcceptanceCheck",
      "outputs": [],
      "stateMutability": "nonpayable",
      "type": "function"
    },
    {
      "inputs": [],
      "name": "__hh_exposed_bytecode_marker",
      "outputs": [
        {
          "internalType": "bytes32",
          "name": "",
          "type": "bytes32"
        }
      ],
      "stateMutability": "view",
      "type": "function"
    },
    {
      "inputs": [
        {
          "internalType": "address",
          "name": "account",
          "type": "address"
        },
        {
          "internalType": "uint256",
          "name": "id",
          "type": "uint256"
        }
      ],
      "name": "balanceOf",
      "outputs": [
        {
          "internalType": "uint256",
          "name": "",
          "type": "uint256"
        }
      ],
      "stateMutability": "view",
      "type": "function"
    },
    {
      "inputs": [
        {
          "internalType": "address[]",
          "name": "accounts",
          "type": "address[]"
        },
        {
          "internalType": "uint256[]",
          "name": "ids",
          "type": "uint256[]"
        }
      ],
      "name": "balanceOfBatch",
      "outputs": [
        {
          "internalType": "uint256[]",
          "name": "",
          "type": "uint256[]"
        }
      ],
      "stateMutability": "view",
      "type": "function"
    },
    {
      "inputs": [
        {
          "internalType": "address",
          "name": "account",
          "type": "address"
        },
        {
          "internalType": "uint256",
          "name": "id",
          "type": "uint256"
        },
        {
          "internalType": "uint256",
          "name": "value",
          "type": "uint256"
        }
      ],
      "name": "burn",
      "outputs": [],
      "stateMutability": "nonpayable",
      "type": "function"
    },
    {
      "inputs": [
        {
          "internalType": "address",
          "name": "account",
          "type": "address"
        },
        {
          "internalType": "uint256[]",
          "name": "ids",
          "type": "uint256[]"
        },
        {
          "internalType": "uint256[]",
          "name": "values",
          "type": "uint256[]"
        }
      ],
      "name": "burnBatch",
      "outputs": [],
      "stateMutability": "nonpayable",
      "type": "function"
    },
    {
      "inputs": [
        {
          "internalType": "address",
          "name": "account",
          "type": "address"
        },
        {
          "internalType": "address",
          "name": "operator",
          "type": "address"
        }
      ],
      "name": "isApprovedForAll",
      "outputs": [
        {
          "internalType": "bool",
          "name": "",
          "type": "bool"
        }
      ],
      "stateMutability": "view",
      "type": "function"
    },
    {
      "inputs": [
        {
          "internalType": "address",
          "name": "from",
          "type": "address"
        },
        {
          "internalType": "address",
          "name": "to",
          "type": "address"
        },
        {
          "internalType": "uint256[]",
          "name": "ids",
          "type": "uint256[]"
        },
        {
          "internalType": "uint256[]",
          "name": "values",
          "type": "uint256[]"
        },
        {
          "internalType": "bytes",
          "name": "data",
          "type": "bytes"
        }
      ],
      "name": "safeBatchTransferFrom",
      "outputs": [],
      "stateMutability": "nonpayable",
      "type": "function"
    },
    {
      "inputs": [
        {
          "internalType": "address",
          "name": "from",
          "type": "address"
        },
        {
          "internalType": "address",
          "name": "to",
          "type": "address"
        },
        {
          "internalType": "uint256",
          "name": "id",
          "type": "uint256"
        },
        {
          "internalType": "uint256",
          "name": "value",
          "type": "uint256"
        },
        {
          "internalType": "bytes",
          "name": "data",
          "type": "bytes"
        }
      ],
      "name": "safeTransferFrom",
      "outputs": [],
      "stateMutability": "nonpayable",
      "type": "function"
    },
    {
      "inputs": [
        {
          "internalType": "address",
          "name": "operator",
          "type": "address"
        },
        {
          "internalType": "bool",
          "name": "approved",
          "type": "bool"
        }
      ],
      "name": "setApprovalForAll",
      "outputs": [],
      "stateMutability": "nonpayable",
      "type": "function"
    },
    {
      "inputs": [
        {
          "internalType": "bytes4",
          "name": "interfaceId",
          "type": "bytes4"
        }
      ],
      "name": "supportsInterface",
      "outputs": [
        {
          "internalType": "bool",
          "name": "",
          "type": "bool"
        }
      ],
      "stateMutability": "view",
      "type": "function"
    },
    {
      "inputs": [
        {
          "internalType": "uint256",
          "name": "",
          "type": "uint256"
        }
      ],
      "name": "uri",
      "outputs": [
        {
          "internalType": "string",
          "name": "",
          "type": "string"
        }
      ],
      "stateMutability": "view",
      "type": "function"
    },
    {
      "stateMutability": "payable",
      "type": "receive"
    }
  ],
  "bytecode": "0x60806040526040516200213f3803806200213f833981016040819052620000269162000060565b8062000032816200003a565b505062000282565b6002620000488282620001ba565b5050565b634e487b7160e01b5f52604160045260245ffd5b5f602080838503121562000072575f80fd5b82516001600160401b038082111562000089575f80fd5b818501915085601f8301126200009d575f80fd5b815181811115620000b257620000b26200004c565b604051601f8201601f19908116603f01168101908382118183101715620000dd57620000dd6200004c565b816040528281528886848701011115620000f5575f80fd5b5f93505b82841015620001185784840186015181850187015292850192620000f9565b5f86848301015280965050505050505092915050565b600181811c908216806200014357607f821691505b6020821081036200016257634e487b7160e01b5f52602260045260245ffd5b50919050565b601f821115620001b5575f81815260208120601f850160051c81016020861015620001905750805b601f850160051c820191505b81811015620001b1578281556001016200019c565b5050505b505050565b81516001600160401b03811115620001d657620001d66200004c565b620001ee81620001e784546200012e565b8462000168565b602080601f83116001811462000224575f84156200020c5750858301515b5f19600386901b1c1916600185901b178555620001b1565b5f85815260208120601f198616915b82811015620002545788860151825594840194600190910190840162000233565b50858210156200027257878501515f19600388901b60f8161c191681555b5050505050600190811b01905550565b611eaf80620002905f395ff3fe60806040526004361061013e575f3560e01c80636b20c454116100b3578063cfeea0d41161006d578063cfeea0d41461038d578063e985e9c5146103ac578063ec3016f7146103cb578063eebe6ab4146103ea578063f242432a14610409578063f5298aca14610428575f80fd5b80636b20c454146102d35780637dfd6d69146102f2578063a22cb46514610311578063af32f2f214610330578063b556c3281461034f578063bf445cb81461036e575f80fd5b80632d64f479116101045780632d64f479146102115780632eb2c2d61461023057806332cadf3c1461024f578063342db7391461026357806338106e25146102885780634e1273f4146102a7575f80fd5b8062fdd58e1461014957806301ffc9a71461017b5780630c3c37ae146101aa5780630e89341c146101cb5780632904df29146101f7575f80fd5b3661014557005b5f80fd5b348015610154575f80fd5b506101686101633660046112e8565b610447565b6040519081526020015b60405180910390f35b348015610186575f80fd5b5061019a610195366004611328565b61046e565b6040519015158152602001610172565b3480156101b5575f80fd5b506101c96101c436600461138e565b6104bd565b005b3480156101d6575f80fd5b506101ea6101e5366004611400565b610507565b604051610172919061145a565b348015610202575f80fd5b50604051338152602001610172565b34801561021c575f80fd5b506101c961022b3660046114ac565b610599565b34801561023b575f80fd5b506101c961024a366004611697565b610643565b34801561025a575f80fd5b506101ea6106a7565b34801561026e575f80fd5b506101686e1a185c991a185d0b595e1c1bdcd959608a1b81565b348015610293575f80fd5b506101c96102a2366004611739565b6106e4565b3480156102b2575f80fd5b506102c66102c13660046117b3565b610757565b60405161017291906118a5565b3480156102de575f80fd5b506101c96102ed3660046118b7565b610829565b3480156102fd575f80fd5b506101c961030c366004611925565b61088d565b34801561031c575f80fd5b506101c961032b366004611985565b6108ce565b34801561033b575f80fd5b506101c961034a3660046119b6565b6108dd565b34801561035a575f80fd5b506101c9610369366004611a2e565b61094a565b348015610379575f80fd5b506101c9610388366004611a5e565b610955565b348015610398575f80fd5b506101c96103a7366004611b00565b6109fd565b3480156103b7575f80fd5b5061019a6103c6366004611b40565b610a08565b3480156103d6575f80fd5b506101c96103e5366004611b68565b610a35565b3480156103f5575f80fd5b506101c96104043660046114ac565b610a73565b348015610414575f80fd5b506101c9610423366004611ba6565b610b13565b348015610433575f80fd5b506101c9610442366004611a2e565b610b72565b5f818152602081815260408083206001600160a01b03861684529091529020545b92915050565b5f6001600160e01b03198216636cdb3d1360e11b148061049e57506001600160e01b031982166303a24d0760e21b145b8061046857506301ffc9a760e01b6001600160e01b0319831614610468565b6104ff8686868686868080601f0160208091040260200160405190810160405280939291908181526020018383808284375f92019190915250610b9d92505050565b505050505050565b60606002805461051690611c05565b80601f016020809104026020016040519081016040528092919081815260200182805461054290611c05565b801561058d5780601f106105645761010080835404028352916020019161058d565b820191905f5260205f20905b81548152906001019060200180831161057057829003601f168201915b50505050509050919050565b61063988888888808060200260200160405190810160405280939291908181526020018383602002808284375f9201919091525050604080516020808c0282810182019093528b82529093508b92508a9182918501908490808284375f9201919091525050604080516020601f8b0181900481028201810190925289815292508991508890819084018382808284375f92019190915250610c1c92505050565b5050505050505050565b336001600160a01b038616811480159061066457506106628682610a08565b155b1561069a5760405163711bec9160e11b81526001600160a01b038083166004830152871660248201526044015b60405180910390fd5b6104ff8686868686610c6f565b60605f368080601f0160208091040260200160405190810160405280939291908181526020018383808284375f9201919091525092949350505050565b610750858585808060200260200160405190810160405280939291908181526020018383602002808284375f92019190915250506040805160208089028281018201909352888252909350889250879182918501908490808284375f92019190915250610ccd92505050565b5050505050565b606081518351146107885781518351604051635b05999160e01b815260048101929092526024820152604401610691565b5f83516001600160401b038111156107a2576107a261155e565b6040519080825280602002602001820160405280156107cb578160200160208202803683370190505b5090505f5b8451811015610821576020808202860101516107f490602080840287010151610447565b82828151811061080657610806611c3d565b602090810291909101015261081a81611c65565b90506107d0565b509392505050565b6001600160a01b038316331480159061084957506108478333610a08565b155b1561087d57335b60405163711bec9160e11b81526001600160a01b0391821660048201529084166024820152604401610691565b610888838383610ccd565b505050565b61075085858585858080601f0160208091040260200160405190810160405280939291908181526020018383808284375f92019190915250610d1092505050565b6108d9338383610d6b565b5050565b6104ff86868686808060200260200160405190810160405280939291908181526020018383602002808284375f9201919091525050604080516020808a028281018201909352898252909350899250889182918501908490808284375f92019190915250610dff92505050565b610888838383611017565b6109f4878787808060200260200160405190810160405280939291908181526020018383602002808284375f9201919091525050604080516020808b0282810182019093528a82529093508a9250899182918501908490808284375f9201919091525050604080516020601f8a0181900481028201810190925288815292508891508790819084018382808284375f9201919091525061107d92505050565b50505050505050565b610888838383610d6b565b6001600160a01b039182165f90815260016020908152604080832093909416825291909152205460ff1690565b6108d982828080601f0160208091040260200160405190810160405280939291908181526020018383808284375f920191909152506110b992505050565b61063988888888808060200260200160405190810160405280939291908181526020018383602002808284375f9201919091525050604080516020808c0282810182019093528b82529093508b92508a9182918501908490808284375f9201919091525050604080516020601f8b0181900481028201810190925289815292508991508890819084018382808284375f92019190915250610c6f92505050565b336001600160a01b0386168114801590610b345750610b328682610a08565b155b15610b655760405163711bec9160e11b81526001600160a01b03808316600483015287166024820152604401610691565b6104ff8686868686610b9d565b6001600160a01b0383163314801590610b925750610b908333610a08565b155b1561094a5733610850565b6001600160a01b038416610bc657604051632bfa23e760e11b81525f6004820152602401610691565b6001600160a01b038516610bee57604051626a0d4560e21b81525f6004820152602401610691565b604080516001808252602082018690528183019081526060820185905260808201909252906109f487878484875b610c2885858585610dff565b6001600160a01b038416156107505782513390600103610c615760208481015190840151610c5a8389898585896110c5565b50506104ff565b6104ff8187878787876111e6565b6001600160a01b038416610c9857604051632bfa23e760e11b81525f6004820152602401610691565b6001600160a01b038516610cc057604051626a0d4560e21b81525f6004820152602401610691565b6107508585858585610c1c565b6001600160a01b038316610cf557604051626a0d4560e21b81525f6004820152602401610691565b610888835f848460405180602001604052805f815250610c1c565b6001600160a01b038416610d3957604051632bfa23e760e11b81525f6004820152602401610691565b604080516001808252602082018690528183019081526060820185905260808201909252906104ff5f87848487610c1c565b6001600160a01b038216610d935760405162ced3e160e81b81525f6004820152602401610691565b6001600160a01b038381165f81815260016020908152604080832094871680845294825291829020805460ff191686151590811790915591519182527f17307eab39ab6107e8899845ad3d59bd9653f200f220920489ca2b5937696c31910160405180910390a3505050565b8051825114610e2e5781518151604051635b05999160e01b815260048101929092526024820152604401610691565b335f5b8351811015610f39576020818102858101820151908501909101516001600160a01b03881615610ee2575f828152602081815260408083206001600160a01b038c16845290915290205481811015610ebc576040516303dee4c560e01b81526001600160a01b038a166004820152602481018290526044810183905260648101849052608401610691565b5f838152602081815260408083206001600160a01b038d16845290915290209082900390555b6001600160a01b03871615610f26575f828152602081815260408083206001600160a01b038b16845290915281208054839290610f20908490611c7d565b90915550505b505080610f3290611c65565b9050610e31565b508251600103610fb95760208301515f906020840151909150856001600160a01b0316876001600160a01b0316846001600160a01b03167fc3d58168c5ae7397731d063d5bbf3d657854427343f4c083240f7aacaa2d0f628585604051610faa929190918252602082015260400190565b60405180910390a45050610750565b836001600160a01b0316856001600160a01b0316826001600160a01b03167f4a39dc06d4c0dbc64b70af90fd698a233a518aa5d07e595d983b8c0526c8f7fb8686604051611008929190611c90565b60405180910390a45050505050565b6001600160a01b03831661103f57604051626a0d4560e21b81525f6004820152602401610691565b604080516001808252602082018590528183019081526060820184905260a082019092525f6080820181815291929161075091879185908590610c1c565b6001600160a01b0384166110a657604051632bfa23e760e11b81525f6004820152602401610691565b6110b35f85858585610c1c565b50505050565b60026108d98282611d02565b6001600160a01b0384163b156104ff5760405163f23a6e6160e01b81526001600160a01b0385169063f23a6e61906111099089908990889088908890600401611dbd565b6020604051808303815f875af1925050508015611143575060408051601f3d908101601f1916820190925261114091810190611e01565b60015b6111aa573d808015611170576040519150601f19603f3d011682016040523d82523d5f602084013e611175565b606091505b5080515f036111a257604051632bfa23e760e11b81526001600160a01b0386166004820152602401610691565b805181602001fd5b6001600160e01b0319811663f23a6e6160e01b146109f457604051632bfa23e760e11b81526001600160a01b0386166004820152602401610691565b6001600160a01b0384163b156104ff5760405163bc197c8160e01b81526001600160a01b0385169063bc197c819061122a9089908990889088908890600401611e1c565b6020604051808303815f875af1925050508015611264575060408051601f3d908101601f1916820190925261126191810190611e01565b60015b611291573d808015611170576040519150601f19603f3d011682016040523d82523d5f602084013e611175565b6001600160e01b0319811663bc197c8160e01b146109f457604051632bfa23e760e11b81526001600160a01b0386166004820152602401610691565b80356001600160a01b03811681146112e3575f80fd5b919050565b5f80604083850312156112f9575f80fd5b611302836112cd565b946020939093013593505050565b6001600160e01b031981168114611325575f80fd5b50565b5f60208284031215611338575f80fd5b813561134381611310565b9392505050565b5f8083601f84011261135a575f80fd5b5081356001600160401b03811115611370575f80fd5b602083019150836020828501011115611387575f80fd5b9250929050565b5f805f805f8060a087890312156113a3575f80fd5b6113ac876112cd565b95506113ba602088016112cd565b9450604087013593506060870135925060808701356001600160401b038111156113e2575f80fd5b6113ee89828a0161134a565b979a9699509497509295939492505050565b5f60208284031215611410575f80fd5b5035919050565b5f81518084525f5b8181101561143b5760208185018101518683018201520161141f565b505f602082860101526020601f19601f83011685010191505092915050565b602081525f6113436020830184611417565b5f8083601f84011261147c575f80fd5b5081356001600160401b03811115611492575f80fd5b6020830191508360208260051b8501011115611387575f80fd5b5f805f805f805f8060a0898b0312156114c3575f80fd5b6114cc896112cd565b97506114da60208a016112cd565b965060408901356001600160401b03808211156114f5575f80fd5b6115018c838d0161146c565b909850965060608b0135915080821115611519575f80fd5b6115258c838d0161146c565b909650945060808b013591508082111561153d575f80fd5b5061154a8b828c0161134a565b999c989b5096995094979396929594505050565b634e487b7160e01b5f52604160045260245ffd5b604051601f8201601f191681016001600160401b038111828210171561159a5761159a61155e565b604052919050565b5f6001600160401b038211156115ba576115ba61155e565b5060051b60200190565b5f82601f8301126115d3575f80fd5b813560206115e86115e3836115a2565b611572565b82815260059290921b84018101918181019086841115611606575f80fd5b8286015b84811015611621578035835291830191830161160a565b509695505050505050565b5f82601f83011261163b575f80fd5b81356001600160401b038111156116545761165461155e565b611667601f8201601f1916602001611572565b81815284602083860101111561167b575f80fd5b816020850160208301375f918101602001919091529392505050565b5f805f805f60a086880312156116ab575f80fd5b6116b4866112cd565b94506116c2602087016112cd565b935060408601356001600160401b03808211156116dd575f80fd5b6116e989838a016115c4565b945060608801359150808211156116fe575f80fd5b61170a89838a016115c4565b9350608088013591508082111561171f575f80fd5b5061172c8882890161162c565b9150509295509295909350565b5f805f805f6060868803121561174d575f80fd5b611756866112cd565b945060208601356001600160401b0380821115611771575f80fd5b61177d89838a0161146c565b90965094506040880135915080821115611795575f80fd5b506117a28882890161146c565b969995985093965092949392505050565b5f80604083850312156117c4575f80fd5b82356001600160401b03808211156117da575f80fd5b818501915085601f8301126117ed575f80fd5b813560206117fd6115e3836115a2565b82815260059290921b8401810191818101908984111561181b575f80fd5b948201945b8386101561184057611831866112cd565b82529482019490820190611820565b96505086013592505080821115611855575f80fd5b50611862858286016115c4565b9150509250929050565b5f8151808452602080850194508084015f5b8381101561189a5781518752958201959082019060010161187e565b509495945050505050565b602081525f611343602083018461186c565b5f805f606084860312156118c9575f80fd5b6118d2846112cd565b925060208401356001600160401b03808211156118ed575f80fd5b6118f9878388016115c4565b9350604086013591508082111561190e575f80fd5b5061191b868287016115c4565b9150509250925092565b5f805f805f60808688031215611939575f80fd5b611942866112cd565b9450602086013593506040860135925060608601356001600160401b0381111561196a575f80fd5b6117a28882890161134a565b803580151581146112e3575f80fd5b5f8060408385031215611996575f80fd5b61199f836112cd565b91506119ad60208401611976565b90509250929050565b5f805f805f80608087890312156119cb575f80fd5b6119d4876112cd565b95506119e2602088016112cd565b945060408701356001600160401b03808211156119fd575f80fd5b611a098a838b0161146c565b90965094506060890135915080821115611a21575f80fd5b506113ee89828a0161146c565b5f805f60608486031215611a40575f80fd5b611a49846112cd565b95602085013595506040909401359392505050565b5f805f805f805f6080888a031215611a74575f80fd5b611a7d886112cd565b965060208801356001600160401b0380821115611a98575f80fd5b611aa48b838c0161146c565b909850965060408a0135915080821115611abc575f80fd5b611ac88b838c0161146c565b909650945060608a0135915080821115611ae0575f80fd5b50611aed8a828b0161134a565b989b979a50959850939692959293505050565b5f805f60608486031215611b12575f80fd5b611b1b846112cd565b9250611b29602085016112cd565b9150611b3760408501611976565b90509250925092565b5f8060408385031215611b51575f80fd5b611b5a836112cd565b91506119ad602084016112cd565b5f8060208385031215611b79575f80fd5b82356001600160401b03811115611b8e575f80fd5b611b9a8582860161134a565b90969095509350505050565b5f805f805f60a08688031215611bba575f80fd5b611bc3866112cd565b9450611bd1602087016112cd565b9350604086013592506060860135915060808601356001600160401b03811115611bf9575f80fd5b61172c8882890161162c565b600181811c90821680611c1957607f821691505b602082108103611c3757634e487b7160e01b5f52602260045260245ffd5b50919050565b634e487b7160e01b5f52603260045260245ffd5b634e487b7160e01b5f52601160045260245ffd5b5f60018201611c7657611c76611c51565b5060010190565b8082018082111561046857610468611c51565b604081525f611ca2604083018561186c565b8281036020840152611cb4818561186c565b95945050505050565b601f821115610888575f81815260208120601f850160051c81016020861015611ce35750805b601f850160051c820191505b818110156104ff57828155600101611cef565b81516001600160401b03811115611d1b57611d1b61155e565b611d2f81611d298454611c05565b84611cbd565b602080601f831160018114611d62575f8415611d4b5750858301515b5f19600386901b1c1916600185901b1785556104ff565b5f85815260208120601f198616915b82811015611d9057888601518255948401946001909101908401611d71565b5085821015611dad57878501515f19600388901b60f8161c191681555b5050505050600190811b01905550565b6001600160a01b03868116825285166020820152604081018490526060810183905260a0608082018190525f90611df690830184611417565b979650505050505050565b5f60208284031215611e11575f80fd5b815161134381611310565b6001600160a01b0386811682528516602082015260a0604082018190525f90611e479083018661186c565b8281036060840152611e59818661186c565b90508281036080840152611e6d8185611417565b9897505050505050505056fea2646970667358221220b85fd08f71d04154c1bbc7c14a4de3333fe47d319686359e7d5539d7f2b9498964736f6c63430008140033",
  "linkReferences": {},
  "deployedLinkReferences": {}
}