{
  "_format": "hh-sol-artifact-1",
  "contractName": "$GovernorVoteMocks",
  "sourceName": "contracts-exposed/mocks/governance/GovernorVoteMock.sol",
  "abi": [
    {
      "inputs": [
        {
          "internalType": "string",
          "name": "name_",
          "type": "string"
        },
        {
          "internalType": "contract IVotes",
          "name": "tokenAddress",
          "type": "address"
        }
      ],
      "stateMutability": "payable",
      "type": "constructor"
    },
    {
      "inputs": [],
      "name": "FailedInnerCall",
      "type": "error"
    },
    {
      "inputs": [
        {
          "internalType": "address",
          "name": "voter",
          "type": "address"
        }
      ],
      "name": "GovernorAlreadyCastVote",
      "type": "error"
    },
    {
      "inputs": [],
      "name": "GovernorDisabledDeposit",
      "type": "error"
    },
    {
      "inputs": [
        {
          "internalType": "address",
          "name": "proposer",
          "type": "address"
        },
        {
          "internalType": "uint256",
          "name": "votes",
          "type": "uint256"
        },
        {
          "internalType": "uint256",
          "name": "threshold",
          "type": "uint256"
        }
      ],
      "name": "GovernorInsufficientProposerVotes",
      "type": "error"
    },
    {
      "inputs": [
        {
          "internalType": "uint256",
          "name": "targets",
          "type": "uint256"
        },
        {
          "internalType": "uint256",
          "name": "calldatas",
          "type": "uint256"
        },
        {
          "internalType": "uint256",
          "name": "values",
          "type": "uint256"
        }
      ],
      "name": "GovernorInvalidProposalLength",
      "type": "error"
    },
    {
      "inputs": [
        {
          "internalType": "address",
          "name": "voter",
          "type": "address"
        }
      ],
      "name": "GovernorInvalidSignature",
      "type": "error"
    },
    {
      "inputs": [],
      "name": "GovernorInvalidVoteType",
      "type": "error"
    },
    {
      "inputs": [
        {
          "internalType": "uint256",
          "name": "votingPeriod",
          "type": "uint256"
        }
      ],
      "name": "GovernorInvalidVotingPeriod",
      "type": "error"
    },
    {
      "inputs": [
        {
          "internalType": "uint256",
          "name": "proposalId",
          "type": "uint256"
        }
      ],
      "name": "GovernorNonexistentProposal",
      "type": "error"
    },
    {
      "inputs": [
        {
          "internalType": "address",
          "name": "account",
          "type": "address"
        }
      ],
      "name": "GovernorOnlyExecutor",
      "type": "error"
    },
    {
      "inputs": [
        {
          "internalType": "address",
          "name": "account",
          "type": "address"
        }
      ],
      "name": "GovernorOnlyProposer",
      "type": "error"
    },
    {
      "inputs": [
        {
          "internalType": "uint256",
          "name": "proposalId",
          "type": "uint256"
        },
        {
          "internalType": "enum IGovernor.ProposalState",
          "name": "current",
          "type": "uint8"
        },
        {
          "internalType": "bytes32",
          "name": "expectedStates",
          "type": "bytes32"
        }
      ],
      "name": "GovernorUnexpectedProposalState",
      "type": "error"
    },
    {
      "inputs": [
        {
          "internalType": "address",
          "name": "account",
          "type": "address"
        },
        {
          "internalType": "uint256",
          "name": "currentNonce",
          "type": "uint256"
        }
      ],
      "name": "InvalidAccountNonce",
      "type": "error"
    },
    {
      "inputs": [],
      "name": "InvalidShortString",
      "type": "error"
    },
    {
      "inputs": [],
      "name": "QueueEmpty",
      "type": "error"
    },
    {
      "inputs": [
        {
          "internalType": "uint8",
          "name": "bits",
          "type": "uint8"
        },
        {
          "internalType": "uint256",
          "name": "value",
          "type": "uint256"
        }
      ],
      "name": "SafeCastOverflowedUintDowncast",
      "type": "error"
    },
    {
      "inputs": [
        {
          "internalType": "string",
          "name": "str",
          "type": "string"
        }
      ],
      "name": "StringTooLong",
      "type": "error"
    },
    {
      "anonymous": false,
      "inputs": [],
      "name": "EIP712DomainChanged",
      "type": "event"
    },
    {
      "anonymous": false,
      "inputs": [
        {
          "indexed": false,
          "internalType": "uint256",
          "name": "proposalId",
          "type": "uint256"
        }
      ],
      "name": "ProposalCanceled",
      "type": "event"
    },
    {
      "anonymous": false,
      "inputs": [
        {
          "indexed": false,
          "internalType": "uint256",
          "name": "proposalId",
          "type": "uint256"
        },
        {
          "indexed": false,
          "internalType": "address",
          "name": "proposer",
          "type": "address"
        },
        {
          "indexed": false,
          "internalType": "address[]",
          "name": "targets",
          "type": "address[]"
        },
        {
          "indexed": false,
          "internalType": "uint256[]",
          "name": "values",
          "type": "uint256[]"
        },
        {
          "indexed": false,
          "internalType": "string[]",
          "name": "signatures",
          "type": "string[]"
        },
        {
          "indexed": false,
          "internalType": "bytes[]",
          "name": "calldatas",
          "type": "bytes[]"
        },
        {
          "indexed": false,
          "internalType": "uint256",
          "name": "voteStart",
          "type": "uint256"
        },
        {
          "indexed": false,
          "internalType": "uint256",
          "name": "voteEnd",
          "type": "uint256"
        },
        {
          "indexed": false,
          "internalType": "string",
          "name": "description",
          "type": "string"
        }
      ],
      "name": "ProposalCreated",
      "type": "event"
    },
    {
      "anonymous": false,
      "inputs": [
        {
          "indexed": false,
          "internalType": "uint256",
          "name": "proposalId",
          "type": "uint256"
        }
      ],
      "name": "ProposalExecuted",
      "type": "event"
    },
    {
      "anonymous": false,
      "inputs": [
        {
          "indexed": true,
          "internalType": "address",
          "name": "voter",
          "type": "address"
        },
        {
          "indexed": false,
          "internalType": "uint256",
          "name": "proposalId",
          "type": "uint256"
        },
        {
          "indexed": false,
          "internalType": "uint8",
          "name": "support",
          "type": "uint8"
        },
        {
          "indexed": false,
          "internalType": "uint256",
          "name": "weight",
          "type": "uint256"
        },
        {
          "indexed": false,
          "internalType": "string",
          "name": "reason",
          "type": "string"
        }
      ],
      "name": "VoteCast",
      "type": "event"
    },
    {
      "anonymous": false,
      "inputs": [
        {
          "indexed": true,
          "internalType": "address",
          "name": "voter",
          "type": "address"
        },
        {
          "indexed": false,
          "internalType": "uint256",
          "name": "proposalId",
          "type": "uint256"
        },
        {
          "indexed": false,
          "internalType": "uint8",
          "name": "support",
          "type": "uint8"
        },
        {
          "indexed": false,
          "internalType": "uint256",
          "name": "weight",
          "type": "uint256"
        },
        {
          "indexed": false,
          "internalType": "string",
          "name": "reason",
          "type": "string"
        },
        {
          "indexed": false,
          "internalType": "bytes",
          "name": "params",
          "type": "bytes"
        }
      ],
      "name": "VoteCastWithParams",
      "type": "event"
    },
    {
      "anonymous": false,
      "inputs": [
        {
          "indexed": false,
          "internalType": "uint256",
          "name": "ret0",
          "type": "uint256"
        }
      ],
      "name": "return$_cancel",
      "type": "event"
    },
    {
      "anonymous": false,
      "inputs": [
        {
          "indexed": false,
          "internalType": "uint256",
          "name": "ret0",
          "type": "uint256"
        }
      ],
      "name": "return$_castVote_uint256_address_uint8_string",
      "type": "event"
    },
    {
      "anonymous": false,
      "inputs": [
        {
          "indexed": false,
          "internalType": "uint256",
          "name": "ret0",
          "type": "uint256"
        }
      ],
      "name": "return$_castVote_uint256_address_uint8_string_bytes",
      "type": "event"
    },
    {
      "anonymous": false,
      "inputs": [
        {
          "indexed": false,
          "internalType": "uint256",
          "name": "ret0",
          "type": "uint256"
        }
      ],
      "name": "return$_useCheckedNonce",
      "type": "event"
    },
    {
      "anonymous": false,
      "inputs": [
        {
          "indexed": false,
          "internalType": "uint256",
          "name": "ret0",
          "type": "uint256"
        }
      ],
      "name": "return$_useNonce",
      "type": "event"
    },
    {
      "inputs": [],
      "name": "$_EIP712Name",
      "outputs": [
        {
          "internalType": "string",
          "name": "ret0",
          "type": "string"
        }
      ],
      "stateMutability": "view",
      "type": "function"
    },
    {
      "inputs": [],
      "name": "$_EIP712Version",
      "outputs": [
        {
          "internalType": "string",
          "name": "ret0",
          "type": "string"
        }
      ],
      "stateMutability": "view",
      "type": "function"
    },
    {
      "inputs": [
        {
          "internalType": "uint256",
          "name": "arg0",
          "type": "uint256"
        },
        {
          "internalType": "address[]",
          "name": "arg1",
          "type": "address[]"
        },
        {
          "internalType": "uint256[]",
          "name": "arg2",
          "type": "uint256[]"
        },
        {
          "internalType": "bytes[]",
          "name": "arg3",
          "type": "bytes[]"
        },
        {
          "internalType": "bytes32",
          "name": "arg4",
          "type": "bytes32"
        }
      ],
      "name": "$_afterExecute",
      "outputs": [],
      "stateMutability": "nonpayable",
      "type": "function"
    },
    {
      "inputs": [
        {
          "internalType": "uint256",
          "name": "arg0",
          "type": "uint256"
        },
        {
          "internalType": "address[]",
          "name": "targets",
          "type": "address[]"
        },
        {
          "internalType": "uint256[]",
          "name": "arg2",
          "type": "uint256[]"
        },
        {
          "internalType": "bytes[]",
          "name": "calldatas",
          "type": "bytes[]"
        },
        {
          "internalType": "bytes32",
          "name": "arg4",
          "type": "bytes32"
        }
      ],
      "name": "$_beforeExecute",
      "outputs": [],
      "stateMutability": "nonpayable",
      "type": "function"
    },
    {
      "inputs": [
        {
          "internalType": "address[]",
          "name": "targets",
          "type": "address[]"
        },
        {
          "internalType": "uint256[]",
          "name": "values",
          "type": "uint256[]"
        },
        {
          "internalType": "bytes[]",
          "name": "calldatas",
          "type": "bytes[]"
        },
        {
          "internalType": "bytes32",
          "name": "descriptionHash",
          "type": "bytes32"
        }
      ],
      "name": "$_cancel",
      "outputs": [
        {
          "internalType": "uint256",
          "name": "ret0",
          "type": "uint256"
        }
      ],
      "stateMutability": "nonpayable",
      "type": "function"
    },
    {
      "inputs": [
        {
          "internalType": "uint256",
          "name": "proposalId",
          "type": "uint256"
        },
        {
          "internalType": "address",
          "name": "account",
          "type": "address"
        },
        {
          "internalType": "uint8",
          "name": "support",
          "type": "uint8"
        },
        {
          "internalType": "string",
          "name": "reason",
          "type": "string"
        },
        {
          "internalType": "bytes",
          "name": "params",
          "type": "bytes"
        }
      ],
      "name": "$_castVote",
      "outputs": [
        {
          "internalType": "uint256",
          "name": "ret0",
          "type": "uint256"
        }
      ],
      "stateMutability": "nonpayable",
      "type": "function"
    },
    {
      "inputs": [
        {
          "internalType": "uint256",
          "name": "proposalId",
          "type": "uint256"
        },
        {
          "internalType": "address",
          "name": "account",
          "type": "address"
        },
        {
          "internalType": "uint8",
          "name": "support",
          "type": "uint8"
        },
        {
          "internalType": "string",
          "name": "reason",
          "type": "string"
        }
      ],
      "name": "$_castVote",
      "outputs": [
        {
          "internalType": "uint256",
          "name": "ret0",
          "type": "uint256"
        }
      ],
      "stateMutability": "nonpayable",
      "type": "function"
    },
    {
      "inputs": [
        {
          "internalType": "uint256",
          "name": "proposalId",
          "type": "uint256"
        },
        {
          "internalType": "address",
          "name": "account",
          "type": "address"
        },
        {
          "internalType": "uint8",
          "name": "support",
          "type": "uint8"
        },
        {
          "internalType": "uint256",
          "name": "weight",
          "type": "uint256"
        },
        {
          "internalType": "bytes",
          "name": "arg4",
          "type": "bytes"
        }
      ],
      "name": "$_countVote",
      "outputs": [],
      "stateMutability": "nonpayable",
      "type": "function"
    },
    {
      "inputs": [],
      "name": "$_defaultParams",
      "outputs": [
        {
          "internalType": "bytes",
          "name": "ret0",
          "type": "bytes"
        }
      ],
      "stateMutability": "view",
      "type": "function"
    },
    {
      "inputs": [],
      "name": "$_domainSeparatorV4",
      "outputs": [
        {
          "internalType": "bytes32",
          "name": "ret0",
          "type": "bytes32"
        }
      ],
      "stateMutability": "view",
      "type": "function"
    },
    {
      "inputs": [
        {
          "internalType": "enum IGovernor.ProposalState",
          "name": "proposalState",
          "type": "uint8"
        }
      ],
      "name": "$_encodeStateBitmap",
      "outputs": [
        {
          "internalType": "bytes32",
          "name": "ret0",
          "type": "bytes32"
        }
      ],
      "stateMutability": "pure",
      "type": "function"
    },
    {
      "inputs": [
        {
          "internalType": "uint256",
          "name": "arg0",
          "type": "uint256"
        },
        {
          "internalType": "address[]",
          "name": "targets",
          "type": "address[]"
        },
        {
          "internalType": "uint256[]",
          "name": "values",
          "type": "uint256[]"
        },
        {
          "internalType": "bytes[]",
          "name": "calldatas",
          "type": "bytes[]"
        },
        {
          "internalType": "bytes32",
          "name": "arg4",
          "type": "bytes32"
        }
      ],
      "name": "$_execute",
      "outputs": [],
      "stateMutability": "nonpayable",
      "type": "function"
    },
    {
      "inputs": [],
      "name": "$_executor",
      "outputs": [
        {
          "internalType": "address",
          "name": "ret0",
          "type": "address"
        }
      ],
      "stateMutability": "view",
      "type": "function"
    },
    {
      "inputs": [
        {
          "internalType": "address",
          "name": "account",
          "type": "address"
        },
        {
          "internalType": "uint256",
          "name": "timepoint",
          "type": "uint256"
        },
        {
          "internalType": "bytes",
          "name": "arg2",
          "type": "bytes"
        }
      ],
      "name": "$_getVotes",
      "outputs": [
        {
          "internalType": "uint256",
          "name": "ret0",
          "type": "uint256"
        }
      ],
      "stateMutability": "view",
      "type": "function"
    },
    {
      "inputs": [
        {
          "internalType": "bytes32",
          "name": "structHash",
          "type": "bytes32"
        }
      ],
      "name": "$_hashTypedDataV4",
      "outputs": [
        {
          "internalType": "bytes32",
          "name": "ret0",
          "type": "bytes32"
        }
      ],
      "stateMutability": "view",
      "type": "function"
    },
    {
      "inputs": [
        {
          "internalType": "address",
          "name": "proposer",
          "type": "address"
        },
        {
          "internalType": "string",
          "name": "description",
          "type": "string"
        }
      ],
      "name": "$_isValidDescriptionForProposer",
      "outputs": [
        {
          "internalType": "bool",
          "name": "ret0",
          "type": "bool"
        }
      ],
      "stateMutability": "view",
      "type": "function"
    },
    {
      "inputs": [],
      "name": "$_msgData",
      "outputs": [
        {
          "internalType": "bytes",
          "name": "ret0",
          "type": "bytes"
        }
      ],
      "stateMutability": "view",
      "type": "function"
    },
    {
      "inputs": [],
      "name": "$_msgSender",
      "outputs": [
        {
          "internalType": "address",
          "name": "ret0",
          "type": "address"
        }
      ],
      "stateMutability": "view",
      "type": "function"
    },
    {
      "inputs": [
        {
          "internalType": "uint256",
          "name": "proposalId",
          "type": "uint256"
        }
      ],
      "name": "$_quorumReached",
      "outputs": [
        {
          "internalType": "bool",
          "name": "ret0",
          "type": "bool"
        }
      ],
      "stateMutability": "view",
      "type": "function"
    },
    {
      "inputs": [
        {
          "internalType": "address",
          "name": "owner",
          "type": "address"
        },
        {
          "internalType": "uint256",
          "name": "nonce",
          "type": "uint256"
        }
      ],
      "name": "$_useCheckedNonce",
      "outputs": [
        {
          "internalType": "uint256",
          "name": "ret0",
          "type": "uint256"
        }
      ],
      "stateMutability": "nonpayable",
      "type": "function"
    },
    {
      "inputs": [
        {
          "internalType": "address",
          "name": "owner",
          "type": "address"
        }
      ],
      "name": "$_useNonce",
      "outputs": [
        {
          "internalType": "uint256",
          "name": "ret0",
          "type": "uint256"
        }
      ],
      "stateMutability": "nonpayable",
      "type": "function"
    },
    {
      "inputs": [
        {
          "internalType": "uint256",
          "name": "proposalId",
          "type": "uint256"
        }
      ],
      "name": "$_voteSucceeded",
      "outputs": [
        {
          "internalType": "bool",
          "name": "ret0",
          "type": "bool"
        }
      ],
      "stateMutability": "view",
      "type": "function"
    },
    {
      "inputs": [],
      "name": "BALLOT_TYPEHASH",
      "outputs": [
        {
          "internalType": "bytes32",
          "name": "",
          "type": "bytes32"
        }
      ],
      "stateMutability": "view",
      "type": "function"
    },
    {
      "inputs": [],
      "name": "CLOCK_MODE",
      "outputs": [
        {
          "internalType": "string",
          "name": "",
          "type": "string"
        }
      ],
      "stateMutability": "view",
      "type": "function"
    },
    {
      "inputs": [],
      "name": "COUNTING_MODE",
      "outputs": [
        {
          "internalType": "string",
          "name": "",
          "type": "string"
        }
      ],
      "stateMutability": "pure",
      "type": "function"
    },
    {
      "inputs": [],
      "name": "EXTENDED_BALLOT_TYPEHASH",
      "outputs": [
        {
          "internalType": "bytes32",
          "name": "",
          "type": "bytes32"
        }
      ],
      "stateMutability": "view",
      "type": "function"
    },
    {
      "inputs": [],
      "name": "__hh_exposed_bytecode_marker",
      "outputs": [
        {
          "internalType": "bytes32",
          "name": "",
          "type": "bytes32"
        }
      ],
      "stateMutability": "view",
      "type": "function"
    },
    {
      "inputs": [
        {
          "internalType": "address[]",
          "name": "targets",
          "type": "address[]"
        },
        {
          "internalType": "uint256[]",
          "name": "values",
          "type": "uint256[]"
        },
        {
          "internalType": "bytes[]",
          "name": "calldatas",
          "type": "bytes[]"
        },
        {
          "internalType": "bytes32",
          "name": "descriptionHash",
          "type": "bytes32"
        }
      ],
      "name": "cancel",
      "outputs": [
        {
          "internalType": "uint256",
          "name": "",
          "type": "uint256"
        }
      ],
      "stateMutability": "nonpayable",
      "type": "function"
    },
    {
      "inputs": [
        {
          "internalType": "uint256",
          "name": "proposalId",
          "type": "uint256"
        },
        {
          "internalType": "uint8",
          "name": "support",
          "type": "uint8"
        }
      ],
      "name": "castVote",
      "outputs": [
        {
          "internalType": "uint256",
          "name": "",
          "type": "uint256"
        }
      ],
      "stateMutability": "nonpayable",
      "type": "function"
    },
    {
      "inputs": [
        {
          "internalType": "uint256",
          "name": "proposalId",
          "type": "uint256"
        },
        {
          "internalType": "uint8",
          "name": "support",
          "type": "uint8"
        },
        {
          "internalType": "address",
          "name": "voter",
          "type": "address"
        },
        {
          "internalType": "bytes",
          "name": "signature",
          "type": "bytes"
        }
      ],
      "name": "castVoteBySig",
      "outputs": [
        {
          "internalType": "uint256",
          "name": "",
          "type": "uint256"
        }
      ],
      "stateMutability": "nonpayable",
      "type": "function"
    },
    {
      "inputs": [
        {
          "internalType": "uint256",
          "name": "proposalId",
          "type": "uint256"
        },
        {
          "internalType": "uint8",
          "name": "support",
          "type": "uint8"
        },
        {
          "internalType": "string",
          "name": "reason",
          "type": "string"
        }
      ],
      "name": "castVoteWithReason",
      "outputs": [
        {
          "internalType": "uint256",
          "name": "",
          "type": "uint256"
        }
      ],
      "stateMutability": "nonpayable",
      "type": "function"
    },
    {
      "inputs": [
        {
          "internalType": "uint256",
          "name": "proposalId",
          "type": "uint256"
        },
        {
          "internalType": "uint8",
          "name": "support",
          "type": "uint8"
        },
        {
          "internalType": "string",
          "name": "reason",
          "type": "string"
        },
        {
          "internalType": "bytes",
          "name": "params",
          "type": "bytes"
        }
      ],
      "name": "castVoteWithReasonAndParams",
      "outputs": [
        {
          "internalType": "uint256",
          "name": "",
          "type": "uint256"
        }
      ],
      "stateMutability": "nonpayable",
      "type": "function"
    },
    {
      "inputs": [
        {
          "internalType": "uint256",
          "name": "proposalId",
          "type": "uint256"
        },
        {
          "internalType": "uint8",
          "name": "support",
          "type": "uint8"
        },
        {
          "internalType": "address",
          "name": "voter",
          "type": "address"
        },
        {
          "internalType": "string",
          "name": "reason",
          "type": "string"
        },
        {
          "internalType": "bytes",
          "name": "params",
          "type": "bytes"
        },
        {
          "internalType": "bytes",
          "name": "signature",
          "type": "bytes"
        }
      ],
      "name": "castVoteWithReasonAndParamsBySig",
      "outputs": [
        {
          "internalType": "uint256",
          "name": "",
          "type": "uint256"
        }
      ],
      "stateMutability": "nonpayable",
      "type": "function"
    },
    {
      "inputs": [],
      "name": "clock",
      "outputs": [
        {
          "internalType": "uint48",
          "name": "",
          "type": "uint48"
        }
      ],
      "stateMutability": "view",
      "type": "function"
    },
    {
      "inputs": [],
      "name": "eip712Domain",
      "outputs": [
        {
          "internalType": "bytes1",
          "name": "fields",
          "type": "bytes1"
        },
        {
          "internalType": "string",
          "name": "name",
          "type": "string"
        },
        {
          "internalType": "string",
          "name": "version",
          "type": "string"
        },
        {
          "internalType": "uint256",
          "name": "chainId",
          "type": "uint256"
        },
        {
          "internalType": "address",
          "name": "verifyingContract",
          "type": "address"
        },
        {
          "internalType": "bytes32",
          "name": "salt",
          "type": "bytes32"
        },
        {
          "internalType": "uint256[]",
          "name": "extensions",
          "type": "uint256[]"
        }
      ],
      "stateMutability": "view",
      "type": "function"
    },
    {
      "inputs": [
        {
          "internalType": "address[]",
          "name": "targets",
          "type": "address[]"
        },
        {
          "internalType": "uint256[]",
          "name": "values",
          "type": "uint256[]"
        },
        {
          "internalType": "bytes[]",
          "name": "calldatas",
          "type": "bytes[]"
        },
        {
          "internalType": "bytes32",
          "name": "descriptionHash",
          "type": "bytes32"
        }
      ],
      "name": "execute",
      "outputs": [
        {
          "internalType": "uint256",
          "name": "",
          "type": "uint256"
        }
      ],
      "stateMutability": "payable",
      "type": "function"
    },
    {
      "inputs": [
        {
          "internalType": "address",
          "name": "account",
          "type": "address"
        },
        {
          "internalType": "uint256",
          "name": "timepoint",
          "type": "uint256"
        }
      ],
      "name": "getVotes",
      "outputs": [
        {
          "internalType": "uint256",
          "name": "",
          "type": "uint256"
        }
      ],
      "stateMutability": "view",
      "type": "function"
    },
    {
      "inputs": [
        {
          "internalType": "address",
          "name": "account",
          "type": "address"
        },
        {
          "internalType": "uint256",
          "name": "timepoint",
          "type": "uint256"
        },
        {
          "internalType": "bytes",
          "name": "params",
          "type": "bytes"
        }
      ],
      "name": "getVotesWithParams",
      "outputs": [
        {
          "internalType": "uint256",
          "name": "",
          "type": "uint256"
        }
      ],
      "stateMutability": "view",
      "type": "function"
    },
    {
      "inputs": [
        {
          "internalType": "uint256",
          "name": "proposalId",
          "type": "uint256"
        },
        {
          "internalType": "address",
          "name": "account",
          "type": "address"
        }
      ],
      "name": "hasVoted",
      "outputs": [
        {
          "internalType": "bool",
          "name": "",
          "type": "bool"
        }
      ],
      "stateMutability": "view",
      "type": "function"
    },
    {
      "inputs": [
        {
          "internalType": "address[]",
          "name": "targets",
          "type": "address[]"
        },
        {
          "internalType": "uint256[]",
          "name": "values",
          "type": "uint256[]"
        },
        {
          "internalType": "bytes[]",
          "name": "calldatas",
          "type": "bytes[]"
        },
        {
          "internalType": "bytes32",
          "name": "descriptionHash",
          "type": "bytes32"
        }
      ],
      "name": "hashProposal",
      "outputs": [
        {
          "internalType": "uint256",
          "name": "",
          "type": "uint256"
        }
      ],
      "stateMutability": "pure",
      "type": "function"
    },
    {
      "inputs": [],
      "name": "name",
      "outputs": [
        {
          "internalType": "string",
          "name": "",
          "type": "string"
        }
      ],
      "stateMutability": "view",
      "type": "function"
    },
    {
      "inputs": [
        {
          "internalType": "address",
          "name": "owner",
          "type": "address"
        }
      ],
      "name": "nonces",
      "outputs": [
        {
          "internalType": "uint256",
          "name": "",
          "type": "uint256"
        }
      ],
      "stateMutability": "view",
      "type": "function"
    },
    {
      "inputs": [
        {
          "internalType": "address",
          "name": "",
          "type": "address"
        },
        {
          "internalType": "address",
          "name": "",
          "type": "address"
        },
        {
          "internalType": "uint256[]",
          "name": "",
          "type": "uint256[]"
        },
        {
          "internalType": "uint256[]",
          "name": "",
          "type": "uint256[]"
        },
        {
          "internalType": "bytes",
          "name": "",
          "type": "bytes"
        }
      ],
      "name": "onERC1155BatchReceived",
      "outputs": [
        {
          "internalType": "bytes4",
          "name": "",
          "type": "bytes4"
        }
      ],
      "stateMutability": "nonpayable",
      "type": "function"
    },
    {
      "inputs": [
        {
          "internalType": "address",
          "name": "",
          "type": "address"
        },
        {
          "internalType": "address",
          "name": "",
          "type": "address"
        },
        {
          "internalType": "uint256",
          "name": "",
          "type": "uint256"
        },
        {
          "internalType": "uint256",
          "name": "",
          "type": "uint256"
        },
        {
          "internalType": "bytes",
          "name": "",
          "type": "bytes"
        }
      ],
      "name": "onERC1155Received",
      "outputs": [
        {
          "internalType": "bytes4",
          "name": "",
          "type": "bytes4"
        }
      ],
      "stateMutability": "nonpayable",
      "type": "function"
    },
    {
      "inputs": [
        {
          "internalType": "address",
          "name": "",
          "type": "address"
        },
        {
          "internalType": "address",
          "name": "",
          "type": "address"
        },
        {
          "internalType": "uint256",
          "name": "",
          "type": "uint256"
        },
        {
          "internalType": "bytes",
          "name": "",
          "type": "bytes"
        }
      ],
      "name": "onERC721Received",
      "outputs": [
        {
          "internalType": "bytes4",
          "name": "",
          "type": "bytes4"
        }
      ],
      "stateMutability": "nonpayable",
      "type": "function"
    },
    {
      "inputs": [
        {
          "internalType": "uint256",
          "name": "proposalId",
          "type": "uint256"
        }
      ],
      "name": "proposalDeadline",
      "outputs": [
        {
          "internalType": "uint256",
          "name": "",
          "type": "uint256"
        }
      ],
      "stateMutability": "view",
      "type": "function"
    },
    {
      "inputs": [
        {
          "internalType": "uint256",
          "name": "proposalId",
          "type": "uint256"
        }
      ],
      "name": "proposalProposer",
      "outputs": [
        {
          "internalType": "address",
          "name": "",
          "type": "address"
        }
      ],
      "stateMutability": "view",
      "type": "function"
    },
    {
      "inputs": [
        {
          "internalType": "uint256",
          "name": "proposalId",
          "type": "uint256"
        }
      ],
      "name": "proposalSnapshot",
      "outputs": [
        {
          "internalType": "uint256",
          "name": "",
          "type": "uint256"
        }
      ],
      "stateMutability": "view",
      "type": "function"
    },
    {
      "inputs": [],
      "name": "proposalThreshold",
      "outputs": [
        {
          "internalType": "uint256",
          "name": "",
          "type": "uint256"
        }
      ],
      "stateMutability": "view",
      "type": "function"
    },
    {
      "inputs": [
        {
          "internalType": "uint256",
          "name": "proposalId",
          "type": "uint256"
        }
      ],
      "name": "proposalVotes",
      "outputs": [
        {
          "internalType": "uint256",
          "name": "againstVotes",
          "type": "uint256"
        },
        {
          "internalType": "uint256",
          "name": "forVotes",
          "type": "uint256"
        },
        {
          "internalType": "uint256",
          "name": "abstainVotes",
          "type": "uint256"
        }
      ],
      "stateMutability": "view",
      "type": "function"
    },
    {
      "inputs": [
        {
          "internalType": "address[]",
          "name": "targets",
          "type": "address[]"
        },
        {
          "internalType": "uint256[]",
          "name": "values",
          "type": "uint256[]"
        },
        {
          "internalType": "bytes[]",
          "name": "calldatas",
          "type": "bytes[]"
        },
        {
          "internalType": "string",
          "name": "description",
          "type": "string"
        }
      ],
      "name": "propose",
      "outputs": [
        {
          "internalType": "uint256",
          "name": "",
          "type": "uint256"
        }
      ],
      "stateMutability": "nonpayable",
      "type": "function"
    },
    {
      "inputs": [
        {
          "internalType": "uint256",
          "name": "",
          "type": "uint256"
        }
      ],
      "name": "quorum",
      "outputs": [
        {
          "internalType": "uint256",
          "name": "",
          "type": "uint256"
        }
      ],
      "stateMutability": "pure",
      "type": "function"
    },
    {
      "inputs": [
        {
          "internalType": "address",
          "name": "target",
          "type": "address"
        },
        {
          "internalType": "uint256",
          "name": "value",
          "type": "uint256"
        },
        {
          "internalType": "bytes",
          "name": "data",
          "type": "bytes"
        }
      ],
      "name": "relay",
      "outputs": [],
      "stateMutability": "payable",
      "type": "function"
    },
    {
      "inputs": [
        {
          "internalType": "uint256",
          "name": "proposalId",
          "type": "uint256"
        }
      ],
      "name": "state",
      "outputs": [
        {
          "internalType": "enum IGovernor.ProposalState",
          "name": "",
          "type": "uint8"
        }
      ],
      "stateMutability": "view",
      "type": "function"
    },
    {
      "inputs": [
        {
          "internalType": "bytes4",
          "name": "interfaceId",
          "type": "bytes4"
        }
      ],
      "name": "supportsInterface",
      "outputs": [
        {
          "internalType": "bool",
          "name": "",
          "type": "bool"
        }
      ],
      "stateMutability": "view",
      "type": "function"
    },
    {
      "inputs": [],
      "name": "token",
      "outputs": [
        {
          "internalType": "contract IERC5805",
          "name": "",
          "type": "address"
        }
      ],
      "stateMutability": "view",
      "type": "function"
    },
    {
      "inputs": [],
      "name": "version",
      "outputs": [
        {
          "internalType": "string",
          "name": "",
          "type": "string"
        }
      ],
      "stateMutability": "view",
      "type": "function"
    },
    {
      "inputs": [],
      "name": "votingDelay",
      "outputs": [
        {
          "internalType": "uint256",
          "name": "",
          "type": "uint256"
        }
      ],
      "stateMutability": "pure",
      "type": "function"
    },
    {
      "inputs": [],
      "name": "votingPeriod",
      "outputs": [
        {
          "internalType": "uint256",
          "name": "",
          "type": "uint256"
        }
      ],
      "stateMutability": "pure",
      "type": "function"
    },
    {
      "stateMutability": "payable",
      "type": "receive"
    }
  ],
  "bytecode": "0x610180604052604051620041e1380380620041e18339810160408190526200002791620001f9565b808280620000496040805180820190915260018152603160f81b602082015290565b62000055825f62000122565b610120526200006681600162000122565b61014052815160208084019190912060e052815190820120610100524660a052620000f360e05161010051604080517f8b73c3c69bb8fe3d512ecc4cf759cc79239f7b179b0ffacaa9a75d522b39400f60208201529081019290925260608201524660808201523060a08201525f9060c00160405160208183030381529060405280519060200120905090565b60805250503060c05260036200010a82826200034d565b50506001600160a01b031661016052506200046d9050565b5f602083511015620001415762000139836200015a565b905062000154565b816200014e84826200034d565b5060ff90505b92915050565b5f80829050601f8151111562000190578260405163305a27a960e01b815260040162000187919062000415565b60405180910390fd5b80516200019d8262000449565b179392505050565b634e487b7160e01b5f52604160045260245ffd5b5f5b83811015620001d5578181015183820152602001620001bb565b50505f910152565b80516001600160a01b0381168114620001f4575f80fd5b919050565b5f80604083850312156200020b575f80fd5b82516001600160401b038082111562000222575f80fd5b818501915085601f83011262000236575f80fd5b8151818111156200024b576200024b620001a5565b604051601f8201601f19908116603f01168101908382118183101715620002765762000276620001a5565b816040528281528860208487010111156200028f575f80fd5b620002a2836020830160208801620001b9565b8096505050505050620002b860208401620001dd565b90509250929050565b600181811c90821680620002d657607f821691505b602082108103620002f557634e487b7160e01b5f52602260045260245ffd5b50919050565b601f82111562000348575f81815260208120601f850160051c81016020861015620003235750805b601f850160051c820191505b8181101562000344578281556001016200032f565b5050505b505050565b81516001600160401b03811115620003695762000369620001a5565b62000381816200037a8454620002c1565b84620002fb565b602080601f831160018114620003b7575f84156200039f5750858301515b5f19600386901b1c1916600185901b17855562000344565b5f85815260208120601f198616915b82811015620003e757888601518255948401946001909101908401620003c6565b50858210156200040557878501515f19600388901b60f8161c191681555b5050505050600190811b01905550565b602081525f825180602084015262000435816040850160208701620001b9565b601f01601f19169190910160400192915050565b80516020808301519190811015620002f5575f1960209190910360031b1b16919050565b60805160a05160c05160e05161010051610120516101405161016051613d03620004de5f395f8181610b3d01528181611162015281816119d3015261250301525f611d8901525f611d5d01525f6123e601525f6123be01525f61231901525f61234301525f61236d0152613d035ff3fe60806040526004361061037f575f3560e01c80635f398a14116101d3578063bc197c81116100fd578063daf80f5f1161009d578063eb9019d41161006d578063eb9019d414610ac3578063f23a6e6114610ae2578063f8ce560a14610b0d578063fc0c546a14610b2c575f80fd5b8063daf80f5f14610a0d578063dc0e43d214610a2c578063dd4e2ba514610a4b578063deaaa7cc14610a90575f80fd5b8063c28bc2fa116100d8578063c28bc2fa146109bc578063c59057e4146109cf578063cbc1c5f3146109ee578063da1c08ff14610922575f80fd5b8063bc197c8114610953578063c01f9e371461097e578063c242bfc71461099d575f80fd5b80637ecebe00116101735780639a802a6d116101435780639a802a6d146108e4578063a15697c414610903578063a4da590b14610922578063b58131b014610941575f80fd5b80637ecebe001461083f57806384b0196e146108735780638ff262e31461089a57806391ddadf4146108b9575f80fd5b80636b4ac502116101ae5780636b4ac502146107c357806372352945146107e25780637b3c71d3146108015780637d5e81e214610820575f80fd5b80635f398a14146107715780635f8d5e74146107905780636b2f5df0146107a4575f80fd5b8063342db739116102b45780634bf5d7e91161025457806354fd4d501161022457806354fd4d50146106f6578063567813881461071f5780635b8d0e0d1461073e5780635c501ba81461075d575f80fd5b80634bf5d7e914610651578063506a6f0c14610665578063544ffc9c1461068457806354dc7b41146106d7575f80fd5b8063438596321161028f57806343859632146105e2578063452115d6146106015780634724aa99146106205780634abf468414610632575f80fd5b8063342db7391461057e5780633932abb1146105a35780633e4f49e6146105b6575f80fd5b80632656227d1161031f5780632e8fbee5116102fa5780632e8fbee5146104f95780632fe3e2611461051857806332cadf3c1461054b57806332f4dd991461055f575f80fd5b80632656227d146104b55780632904df29146104c85780632d63f693146104da575f80fd5b80631164d13b1161035a5780631164d13b146103fe578063143489d014610412578063150b7a021461045e578063174ccd82146104a1575f80fd5b806301ffc9a71461038c57806302a251a3146103c057806306fdde03146103dd575f80fd5b3661038857005b005b5f80fd5b348015610397575f80fd5b506103ab6103a6366004612af9565b610b5f565b60405190151581526020015b60405180910390f35b3480156103cb575f80fd5b5060105b6040519081526020016103b7565b3480156103e8575f80fd5b506103f1610bfb565b6040516103b79190612b6d565b348015610409575f80fd5b506103f1610c8b565b34801561041d575f80fd5b5061044661042c366004612b7f565b5f908152600460205260409020546001600160a01b031690565b6040516001600160a01b0390911681526020016103b7565b348015610469575f80fd5b50610488610478366004612c6f565b630a85bd0160e11b949350505050565b6040516001600160e01b031990911681526020016103b7565b3480156104ac575f80fd5b506103f1610c9a565b6103cf6104c3366004612e44565b610ca4565b3480156104d3575f80fd5b5033610446565b3480156104e5575f80fd5b506103cf6104f4366004612b7f565b610dbe565b348015610504575f80fd5b506103cf610513366004612ecd565b610dde565b348015610523575f80fd5b506103cf7f3e83946653575f9a39005e1545185629e92736b7528ab20ca3816f315424a81181565b348015610556575f80fd5b506103f1610e28565b34801561056a575f80fd5b506103cf610579366004612f3a565b610e65565b348015610589575f80fd5b506103cf6e1a185c991a185d0b595e1c1bdcd959608a1b81565b3480156105ae575f80fd5b5060046103cf565b3480156105c1575f80fd5b506105d56105d0366004612b7f565b610f20565b6040516103b79190613001565b3480156105ed575f80fd5b506103ab6105fc36600461300f565b61106a565b34801561060c575f80fd5b506103cf61061b366004612e44565b611099565b34801561062b575f80fd5b5030610446565b34801561063d575f80fd5b506103ab61064c366004612b7f565b611143565b34801561065c575f80fd5b506103f161115e565b348015610670575f80fd5b506103cf61067f366004612b7f565b61121e565b34801561068f575f80fd5b506106bc61069e366004612b7f565b5f908152600760205260409020805460018201546002909201549092565b604080519384526020840192909252908201526060016103b7565b3480156106e2575f80fd5b506103ab6106f1366004613039565b611228565b348015610701575f80fd5b506040805180820190915260018152603160f81b60208201526103f1565b34801561072a575f80fd5b506103cf610739366004613087565b611270565b348015610749575f80fd5b506103cf6107583660046130a8565b61128f565b348015610768575f80fd5b506103f16113ce565b34801561077c575f80fd5b506103cf61078b366004613158565b6113e4565b34801561079b575f80fd5b506103cf61142c565b3480156107af575f80fd5b506103cf6107be366004613215565b611435565b3480156107ce575f80fd5b506103cf6107dd3660046132af565b6114e1565b3480156107ed575f80fd5b506103cf6107fc3660046132d7565b61152d565b34801561080c575f80fd5b506103cf61081b366004613340565b6115b3565b34801561082b575f80fd5b506103cf61083a366004613395565b6115f9565b34801561084a575f80fd5b506103cf610859366004612ecd565b6001600160a01b03165f9081526002602052604090205490565b34801561087e575f80fd5b506108876118dc565b6040516103b7979695949392919061347a565b3480156108a5575f80fd5b506103cf6108b43660046134e9565b61191e565b3480156108c4575f80fd5b506108cd6119d0565b60405165ffffffffffff90911681526020016103b7565b3480156108ef575f80fd5b506103cf6108fe366004613534565b611a58565b34801561090e575f80fd5b506103cf61091d366004613586565b611a6b565b34801561092d575f80fd5b5061038661093c3660046135a4565b611a75565b34801561094c575f80fd5b505f6103cf565b34801561095e575f80fd5b5061048861096d366004613646565b63bc197c8160e01b95945050505050565b348015610989575f80fd5b506103cf610998366004612b7f565b611af8565b3480156109a8575f80fd5b506103866109b73660046136ce565b611b3a565b6103866109ca366004613740565b611b84565b3480156109da575f80fd5b506103cf6109e9366004612e44565b611c31565b3480156109f9575f80fd5b506103cf610a08366004613740565b611c6a565b348015610a18575f80fd5b506103ab610a27366004612b7f565b611cb4565b348015610a37575f80fd5b50610386610a463660046135a4565b611cbe565b348015610a56575f80fd5b506040805180820190915260208082527f737570706f72743d627261766f2671756f72756d3d666f722c6162737461696e908201526103f1565b348015610a9b575f80fd5b506103cf7ff2aad550cf55f045cb27e9c559f9889fdfb6e6cdaa032301d6ea397784ae51d781565b348015610ace575f80fd5b506103cf610add3660046132af565b611d37565b348015610aed575f80fd5b50610488610afc36600461377d565b63f23a6e6160e01b95945050505050565b348015610b18575f80fd5b506103cf610b27366004612b7f565b505f90565b348015610b37575f80fd5b506104467f000000000000000000000000000000000000000000000000000000000000000081565b5f63288ace0360e11b63278d2b9d60e21b630b184e8960e01b63952ce0fd60e01b6001600160e01b03198616821480610ba457506001600160e01b0319868116908216145b80610bbb57506001600160e01b0319868116908516145b80610bd657506001600160e01b03198616630271189760e51b145b80610bf157506301ffc9a760e01b6001600160e01b03198716145b9695505050505050565b606060038054610c0a906137dc565b80601f0160208091040260200160405190810160405280929190818152602001828054610c36906137dc565b8015610c815780601f10610c5857610100808354040283529160200191610c81565b820191905f5260205f20905b815481529060010190602001808311610c6457829003601f168201915b5050505050905090565b6060610c95611d56565b905090565b6060610c95611d82565b5f80610cb286868686611c31565b90505f610cbe82610f20565b90506004816007811115610cd457610cd4612fcd565b14158015610cf457506005816007811115610cf157610cf1612fcd565b14155b15610d35578181610d056005611daf565b610d0f6004611daf565b176040516331b75e4d60e01b8152600401610d2c93929190613814565b60405180910390fd5b5f8281526004602052604090819020805460ff60f01b1916600160f01b179055517f712ae1383f79ac853f8d882153778e0260ef8f03b504e2866e0593e04d2b291f90610d859084815260200190565b60405180910390a1610d9a8288888888611dd1565b610da78288888888611e5c565b610db48288888888611dd1565b5095945050505050565b5f90815260046020526040902054600160a01b900465ffffffffffff1690565b5f610de882611f2f565b90507f8d5c13b1cd528a3e1895fdc833368c4e3af5391250c736a28e94c4fa59b3cee481604051610e1b91815260200190565b60405180910390a1919050565b60605f368080601f0160208091040260200160405190810160405280939291908181526020018383808284375f9201919091525092949350505050565b5f610eda88888888888080601f0160208091040260200160405190810160405280939291908181526020018383808284375f9201919091525050604080516020601f8c018190048102820181019092528a815292508a91508990819084018382808284375f92019190915250611f5192505050565b90507fbbc294ee3436818a3742886cdeae66253f76b5be8870371c691fc6998bd341d581604051610f0d91815260200190565b60405180910390a1979650505050505050565b5f818152600460209081526040808320815160a08101835290546001600160a01b038116825265ffffffffffff600160a01b8204169382019390935263ffffffff600160d01b8404169181019190915260ff600160f01b830481161580156060840152600160f81b909304161515608082015290610fa15750600792915050565b806080015115610fb45750600292915050565b5f610fbe84610dbe565b9050805f03610fe357604051636ad0607560e01b815260048101859052602401610d2c565b5f610fec6119d0565b65ffffffffffff16905080821061100757505f949350505050565b5f61101186611af8565b90508181106110265750600195945050505050565b61102f8661204e565b801561104d57505f8681526007602052604090208054600190910154115b1561105e5750600495945050505050565b50600395945050505050565b5f8281526007602090815260408083206001600160a01b038516845260030190915290205460ff165b92915050565b5f806110a786868686611c31565b90505f6110b382610f20565b90505f8160078111156110c8576110c8612fcd565b146110f45781816110d85f611daf565b6040516331b75e4d60e01b8152600401610d2c93929190613814565b5f828152600460205260409020546001600160a01b0316331461112c5760405163233d98e360e01b8152336004820152602401610d2c565b61113887878787612084565b979650505050505050565b5f818152600760205260408120805460019091015411611093565b60607f00000000000000000000000000000000000000000000000000000000000000006001600160a01b0316634bf5d7e96040518163ffffffff1660e01b81526004015f60405180830381865afa9250505080156111dd57506040513d5f823e601f3d908101601f191682016040526111da9190810190613836565b60015b611219575060408051808201909152601d81527f6d6f64653d626c6f636b6e756d6265722666726f6d3d64656661756c74000000602082015290565b919050565b5f6110938261217d565b5f6112688484848080601f0160208091040260200160405190810160405280939291908181526020018383808284375f920191909152506121a992505050565b949350505050565b5f8033905061126884828560405180602001604052805f815250612297565b5f806113538761134d7f3e83946653575f9a39005e1545185629e92736b7528ab20ca3816f315424a8118c8c8c6112c58e611f2f565b8d8d6040516112d592919061389e565b60405180910390208c805190602001206040516020016113329796959493929190968752602087019590955260ff9390931660408601526001600160a01b03919091166060850152608084015260a083015260c082015260e00190565b6040516020818303038152906040528051906020012061217d565b856122b8565b90508061137e576040516394ab6c0760e01b81526001600160a01b0388166004820152602401610d2c565b6113c189888a89898080601f0160208091040260200160405190810160405280939291908181526020018383808284375f920191909152508b9250611f51915050565b9998505050505050505050565b6060610c9560408051602081019091525f815290565b5f8033905061113887828888888080601f0160208091040260200160405190810160405280939291908181526020018383808284375f920191909152508a9250611f51915050565b5f610c9561230d565b5f6114ae8888808060200260200160405190810160405280939291908181526020018383602002808284375f9201919091525050604080516020808c0282810182019093528b82529093508b92508a9182918501908490808284375f920191909152506114a892508891508990506138ad565b85612084565b90507f1e0d283ef767dcb5f9efcfe0fbcac2701275d0c54fc3493502558dc018cc3ba281604051610f0d91815260200190565b5f6114ec8383612436565b90507f173c6dfbda204d89ae7b46789365591384ef0c959833564582f96cd15f445b9b8160405161151f91815260200190565b60405180910390a192915050565b5f61156f86868686868080601f0160208091040260200160405190810160405280939291908181526020018383808284375f9201919091525061229792505050565b90507fdbf058c917126a478393ed3aa13dcdc461cc19db88c176507846e6f69ca627f9816040516115a291815260200190565b60405180910390a195945050505050565b5f80339050610bf186828787878080601f0160208091040260200160405190810160405280939291908181526020018383808284375f9201919091525061229792505050565b5f3361160581846121a9565b6116515760405162461bcd60e51b815260206004820152601d60248201527f476f7665726e6f723a2070726f706f73657220726573747269637465640000006044820152606401610d2c565b5f61165a6119d0565b65ffffffffffff1690505f61167483610add6001856138cd565b9050505f61168b8888888880519060200120611c31565b9050865188511415806116a057508551885114155b806116aa57508751155b156116df57875186518851604051630447b05d60e41b8152600481019390935260248301919091526044820152606401610d2c565b5f81815260046020526040902054600160a01b900465ffffffffffff1615611728578061170b82610f20565b6040516331b75e4d60e01b8152610d2c9291905f90600401613814565b5f6117346004846138e0565b90505f601090506040518060a00160405280866001600160a01b0316815260200161175e84612475565b65ffffffffffff168152602001611774836124ab565b63ffffffff90811682525f60208084018290526040938401829052878252600481529083902084518154928601519486015160608701516080909701511515600160f81b026001600160f81b03971515600160f01b0260ff60f01b1992909616600160d01b029190911664ffffffffff60d01b1965ffffffffffff909716600160a01b026001600160d01b03199095166001600160a01b0390931692909217939093179490941693909317919091179290921691909117905589517f7d84a6263ae0d98d3329bd7b46bb4e8d6f98cd35a7adb45c274c8b7fd5ebd5e090849087908d908d906001600160401b0381111561187057611870612bac565b6040519080825280602002602001820160405280156118a357816020015b606081526020019060019003908161188e5790505b508d886118b089826138e0565b8f6040516118c69998979695949392919061397a565b60405180910390a1509098975050505050505050565b5f6060805f805f60606118ed611d56565b6118f5611d82565b604080515f80825260208201909252600f60f81b9b939a50919850469750309650945092509050565b5f8061198b8461134d7ff2aad550cf55f045cb27e9c559f9889fdfb6e6cdaa032301d6ea397784ae51d78989896119548b611f2f565b60408051602081019690965285019390935260ff90911660608401526001600160a01b0316608083015260a082015260c001611332565b9050806119b6576040516394ab6c0760e01b81526001600160a01b0385166004820152602401610d2c565b610bf186858760405180602001604052805f815250612297565b5f7f00000000000000000000000000000000000000000000000000000000000000006001600160a01b03166391ddadf46040518163ffffffff1660e01b8152600401602060405180830381865afa925050508015611a4b575060408051601f3d908101601f19168201909252611a4891810190613a4f565b60015b61121957610c9543612475565b5f6112688484846124db565b9392505050565b5f61109382611daf565b611aee888888808060200260200160405190810160405280939291908181526020018383602002808284375f9201919091525050604080516020808c0282810182019093528b82529093508b92508a9182918501908490808284375f92019190915250611ae892508891508990506138ad565b85611dd1565b5050505050505050565b5f81815260046020526040812054611b2c90600160d01b810463ffffffff1690600160a01b900465ffffffffffff16613a74565b65ffffffffffff1692915050565b611b7c8686868686868080601f0160208091040260200160405190810160405280939291908181526020018383808284375f9201919091525061256e92505050565b505050505050565b303314611ba6576040516347096e4760e01b8152336004820152602401610d2c565b611bbd565b80611bb66005612660565b03611bab57505b5f80856001600160a01b0316858585604051611bda92919061389e565b5f6040518083038185875af1925050503d805f8114611c14576040519150601f19603f3d011682016040523d82523d5f602084013e611c19565b606091505b5091509150611c2882826126dd565b50505050505050565b5f84848484604051602001611c499493929190613a9a565b60408051601f19818403018152919052805160209091012095945050505050565b5f611cab858585858080601f0160208091040260200160405190810160405280939291908181526020018383808284375f920191909152506124db92505050565b95945050505050565b5f6110938261204e565b611aee888888808060200260200160405190810160405280939291908181526020018383602002808284375f9201919091525050604080516020808c0282810182019093528b82529093508b92508a9182918501908490808284375f92019190915250611d3192508891508990506138ad565b85611e5c565b5f611a648383611d5160408051602081019091525f815290565b6124db565b6060610c957f00000000000000000000000000000000000000000000000000000000000000005f6126ec565b6060610c957f000000000000000000000000000000000000000000000000000000000000000060016126ec565b5f816007811115611dc257611dc2612fcd565b600160ff919091161b92915050565b611e55565b8451811015611b7c57306001600160a01b0316858281518110611dfb57611dfb613ae4565b60200260200101516001600160a01b031603611e4557611e45838281518110611e2657611e26613ae4565b602002602001015180519060200120600561279590919063ffffffff16565b611e4e81613af8565b9050611dd6565b5050505050565b5f5b8451811015611b7c575f80868381518110611e7b57611e7b613ae4565b60200260200101516001600160a01b0316868481518110611e9e57611e9e613ae4565b6020026020010151868581518110611eb857611eb8613ae4565b6020026020010151604051611ecd9190613b10565b5f6040518083038185875af1925050503d805f8114611f07576040519150601f19603f3d011682016040523d82523d5f602084013e611f0c565b606091505b5091509150611f1b82826126dd565b50505080611f2890613af8565b9050611e5e565b6001600160a01b03165f90815260026020526040902080546001810190915590565b5f80611f5c87610f20565b90506001816007811115611f7257611f72612fcd565b14611f835786816110d86001611daf565b5f611f9787611f918a610dbe565b866124db565b9050611fa6888888848861256e565b83515f03611ffa57866001600160a01b03167fb8e138887d0aa13bab447e82de9d5c1777041ecd21ca36ba824ff1e6c07ddda489888489604051611fed9493929190613b2b565b60405180910390a2611138565b866001600160a01b03167fe2babfbac5889a709b63bb7f598b324e08bc5a4fb9ec647fb3cbc9ec07eb8712898884898960405161203b959493929190613b52565b60405180910390a2979650505050505050565b5f8181526007602052604081206002810154600182015461206f91906138e0565b61207b610b2785610dbe565b11159392505050565b5f8061209286868686611c31565b90505f61209e82610f20565b90505f6120ab6007611daf565b6120b56006611daf565b6120bf6002611daf565b171790506120cc82611daf565b8116156121175782828260016120e3600782613b97565b6120ee906002613c90565b6120f891906138cd565b5f1b186040516331b75e4d60e01b8152600401610d2c93929190613814565b5f838152600460205260409081902080546001600160f81b0316600160f81b179055517f789cf55be980739dad1d0699b93b58e806b51c9d96619bfa8fe0a28abaa7b30c906121699085815260200190565b60405180910390a150909695505050505050565b5f61109361218961230d565b8360405161190160f01b8152600281019290925260228201526042902090565b80515f9060348110156121c0576001915050611093565b82810160131901516001600160a01b031981166b046e0e4dee0dee6cae47a60f60a31b146121f357600192505050611093565b5f806122006028856138cd565b90505b83811015612276575f8061223688848151811061222257612222613ae4565b01602001516001600160f81b0319166127d0565b915091508161224e5760019650505050505050611093565b8060ff166004856001600160a01b0316901b17935050508061226f90613af8565b9050612203565b50856001600160a01b0316816001600160a01b031614935050505092915050565b5f611cab858585856122b360408051602081019091525f815290565b611f51565b5f805f6122c58585612860565b5090925090505f8160038111156122de576122de612fcd565b1480156122fc5750856001600160a01b0316826001600160a01b0316145b80610bf15750610bf18686866128a9565b5f306001600160a01b037f00000000000000000000000000000000000000000000000000000000000000001614801561236557507f000000000000000000000000000000000000000000000000000000000000000046145b1561238f57507f000000000000000000000000000000000000000000000000000000000000000090565b610c95604080517f8b73c3c69bb8fe3d512ecc4cf759cc79239f7b179b0ffacaa9a75d522b39400f60208201527f0000000000000000000000000000000000000000000000000000000000000000918101919091527f000000000000000000000000000000000000000000000000000000000000000060608201524660808201523060a08201525f9060c00160405160208183030381529060405280519060200120905090565b5f8061244184611f2f565b9050808314611a64576040516301d4b62360e61b81526001600160a01b038516600482015260248101829052604401610d2c565b5f65ffffffffffff8211156124a7576040516306dfcc6560e41b81526030600482015260248101839052604401610d2c565b5090565b5f63ffffffff8211156124a7576040516306dfcc6560e41b81526020600482015260248101839052604401610d2c565b604051630748d63560e31b81526001600160a01b038481166004830152602482018490525f917f000000000000000000000000000000000000000000000000000000000000000090911690633a46b1a890604401602060405180830381865afa15801561254a573d5f803e3d5ffd5b505050506040513d601f19601f820116820180604052508101906112689190613c9e565b5f8581526007602090815260408083206001600160a01b0388168452600381019092529091205460ff16156125c1576040516371c6af4960e01b81526001600160a01b0386166004820152602401610d2c565b6001600160a01b0385165f9081526003820160205260409020805460ff1916600117905560ff841661260a5782815f015f8282546125ff91906138e0565b90915550611b7c9050565b5f1960ff8516016126285782816001015f8282546125ff91906138e0565b60011960ff8516016126475782816002015f8282546125ff91906138e0565b6040516303599be160e11b815260040160405180910390fd5b5f61267a8254600f81810b600160801b909204900b131590565b15612698576040516375e52f4f60e01b815260040160405180910390fd5b508054600f0b5f818152600180840160205260408220805492905583546fffffffffffffffffffffffffffffffff191692016001600160801b03169190911790915590565b6060611a64838361297f612998565b606060ff8314612706576126ff836129b1565b9050611093565b818054612712906137dc565b80601f016020809104026020016040519081016040528092919081815260200182805461273e906137dc565b80156127895780601f1061276057610100808354040283529160200191612789565b820191905f5260205f20905b81548152906001019060200180831161276c57829003601f168201915b50505050509050611093565b8154600160801b90819004600f0b5f818152600180860160205260409091209390935583546001600160801b03908116939091011602179055565b5f8060f883901c602f811180156127ea5750603a8160ff16105b156127ff57600194602f199091019350915050565b8060ff166040108015612815575060478160ff16105b1561282a576001946036199091019350915050565b8060ff166060108015612840575060678160ff16105b15612855576001946056199091019350915050565b505f93849350915050565b5f805f8351604103612897576020840151604085015160608601515f1a612889888285856129ee565b9550955095505050506128a2565b505081515f91506002905b9250925092565b5f805f856001600160a01b031685856040516024016128c9929190613cb5565b60408051601f198184030181529181526020820180516001600160e01b0316630b135d3f60e11b179052516128fe9190613b10565b5f60405180830381855afa9150503d805f8114612936576040519150601f19603f3d011682016040523d82523d5f602084013e61293b565b606091505b509150915081801561294f57506020815110155b8015610bf157508051630b135d3f60e11b906129749083016020908101908401613c9e565b149695505050505050565b604051630a12f52160e11b815260040160405180910390fd5b606083156129a7575081611a64565b611a648383612ab6565b60605f6129bd83612ad2565b6040805160208082528183019092529192505f91906020820181803683375050509182525060208101929092525090565b5f80807f7fffffffffffffffffffffffffffffff5d576e7357a4501ddfe92f46681b20a0841115612a2757505f91506003905082612aac565b604080515f808252602082018084528a905260ff891692820192909252606081018790526080810186905260019060a0016020604051602081039080840390855afa158015612a78573d5f803e3d5ffd5b5050604051601f1901519150506001600160a01b038116612aa357505f925060019150829050612aac565b92505f91508190505b9450945094915050565b815115612ac65781518083602001fd5b61297f8163ffffffff16565b5f60ff8216601f81111561109357604051632cd44ac360e21b815260040160405180910390fd5b5f60208284031215612b09575f80fd5b81356001600160e01b031981168114611a64575f80fd5b5f5b83811015612b3a578181015183820152602001612b22565b50505f910152565b5f8151808452612b59816020860160208601612b20565b601f01601f19169290920160200192915050565b602081525f611a646020830184612b42565b5f60208284031215612b8f575f80fd5b5035919050565b80356001600160a01b0381168114611219575f80fd5b634e487b7160e01b5f52604160045260245ffd5b604051601f8201601f191681016001600160401b0381118282101715612be857612be8612bac565b604052919050565b5f6001600160401b03821115612c0857612c08612bac565b50601f01601f191660200190565b5f612c28612c2384612bf0565b612bc0565b9050828152838383011115612c3b575f80fd5b828260208301375f602084830101529392505050565b5f82601f830112612c60575f80fd5b611a6483833560208501612c16565b5f805f8060808587031215612c82575f80fd5b612c8b85612b96565b9350612c9960208601612b96565b92506040850135915060608501356001600160401b03811115612cba575f80fd5b612cc687828801612c51565b91505092959194509250565b5f6001600160401b03821115612cea57612cea612bac565b5060051b60200190565b5f82601f830112612d03575f80fd5b81356020612d13612c2383612cd2565b82815260059290921b84018101918181019086841115612d31575f80fd5b8286015b84811015612d5357612d4681612b96565b8352918301918301612d35565b509695505050505050565b5f82601f830112612d6d575f80fd5b81356020612d7d612c2383612cd2565b82815260059290921b84018101918181019086841115612d9b575f80fd5b8286015b84811015612d535780358352918301918301612d9f565b5f612dc3612c2384612cd2565b8381529050602080820190600585901b840186811115612de1575f80fd5b845b81811015612e1b5780356001600160401b03811115612e01575f8081fd5b612e0d89828901612c51565b855250928201928201612de3565b505050509392505050565b5f82601f830112612e35575f80fd5b611a6483833560208501612db6565b5f805f8060808587031215612e57575f80fd5b84356001600160401b0380821115612e6d575f80fd5b612e7988838901612cf4565b95506020870135915080821115612e8e575f80fd5b612e9a88838901612d5e565b94506040870135915080821115612eaf575f80fd5b50612ebc87828801612e26565b949793965093946060013593505050565b5f60208284031215612edd575f80fd5b611a6482612b96565b803560ff81168114611219575f80fd5b5f8083601f840112612f06575f80fd5b5081356001600160401b03811115612f1c575f80fd5b602083019150836020828501011115612f33575f80fd5b9250929050565b5f805f805f805f60a0888a031215612f50575f80fd5b87359650612f6060208901612b96565b9550612f6e60408901612ee6565b945060608801356001600160401b0380821115612f89575f80fd5b612f958b838c01612ef6565b909650945060808a0135915080821115612fad575f80fd5b50612fba8a828b01612ef6565b989b979a50959850939692959293505050565b634e487b7160e01b5f52602160045260245ffd5b60088110612ffd57634e487b7160e01b5f52602160045260245ffd5b9052565b602081016110938284612fe1565b5f8060408385031215613020575f80fd5b8235915061303060208401612b96565b90509250929050565b5f805f6040848603121561304b575f80fd5b61305484612b96565b925060208401356001600160401b0381111561306e575f80fd5b61307a86828701612ef6565b9497909650939450505050565b5f8060408385031215613098575f80fd5b8235915061303060208401612ee6565b5f805f805f805f60c0888a0312156130be575f80fd5b873596506130ce60208901612ee6565b95506130dc60408901612b96565b945060608801356001600160401b03808211156130f7575f80fd5b6131038b838c01612ef6565b909650945060808a013591508082111561311b575f80fd5b6131278b838c01612c51565b935060a08a013591508082111561313c575f80fd5b506131498a828b01612c51565b91505092959891949750929550565b5f805f805f6080868803121561316c575f80fd5b8535945061317c60208701612ee6565b935060408601356001600160401b0380821115613197575f80fd5b6131a389838a01612ef6565b909550935060608801359150808211156131bb575f80fd5b506131c888828901612c51565b9150509295509295909350565b5f8083601f8401126131e5575f80fd5b5081356001600160401b038111156131fb575f80fd5b6020830191508360208260051b8501011115612f33575f80fd5b5f805f805f805f6080888a03121561322b575f80fd5b87356001600160401b0380821115613241575f80fd5b61324d8b838c016131d5565b909950975060208a0135915080821115613265575f80fd5b6132718b838c016131d5565b909750955060408a0135915080821115613289575f80fd5b506132968a828b016131d5565b989b979a50959894979596606090950135949350505050565b5f80604083850312156132c0575f80fd5b6132c983612b96565b946020939093013593505050565b5f805f805f608086880312156132eb575f80fd5b853594506132fb60208701612b96565b935061330960408701612ee6565b925060608601356001600160401b03811115613323575f80fd5b61332f88828901612ef6565b969995985093965092949392505050565b5f805f8060608587031215613353575f80fd5b8435935061336360208601612ee6565b925060408501356001600160401b0381111561337d575f80fd5b61338987828801612ef6565b95989497509550505050565b5f805f80608085870312156133a8575f80fd5b84356001600160401b03808211156133be575f80fd5b6133ca88838901612cf4565b955060208701359150808211156133df575f80fd5b6133eb88838901612d5e565b94506040870135915080821115613400575f80fd5b61340c88838901612e26565b93506060870135915080821115613421575f80fd5b508501601f81018713613432575f80fd5b612cc687823560208401612c16565b5f8151808452602080850194508084015f5b8381101561346f57815187529582019590820190600101613453565b509495945050505050565b60ff60f81b8816815260e060208201525f61349860e0830189612b42565b82810360408401526134aa8189612b42565b606084018890526001600160a01b038716608085015260a0840186905283810360c085015290506134db8185613441565b9a9950505050505050505050565b5f805f80608085870312156134fc575f80fd5b8435935061350c60208601612ee6565b925061351a60408601612b96565b915060608501356001600160401b03811115612cba575f80fd5b5f805f60608486031215613546575f80fd5b61354f84612b96565b92506020840135915060408401356001600160401b03811115613570575f80fd5b61357c86828701612c51565b9150509250925092565b5f60208284031215613596575f80fd5b813560088110611a64575f80fd5b5f805f805f805f8060a0898b0312156135bb575f80fd5b8835975060208901356001600160401b03808211156135d8575f80fd5b6135e48c838d016131d5565b909950975060408b01359150808211156135fc575f80fd5b6136088c838d016131d5565b909750955060608b0135915080821115613620575f80fd5b5061362d8b828c016131d5565b999c989b50969995989497949560800135949350505050565b5f805f805f60a0868803121561365a575f80fd5b61366386612b96565b945061367160208701612b96565b935060408601356001600160401b038082111561368c575f80fd5b61369889838a01612d5e565b945060608801359150808211156136ad575f80fd5b6136b989838a01612d5e565b935060808801359150808211156131bb575f80fd5b5f805f805f8060a087890312156136e3575f80fd5b863595506136f360208801612b96565b945061370160408801612ee6565b93506060870135925060808701356001600160401b03811115613722575f80fd5b61372e89828a01612ef6565b979a9699509497509295939492505050565b5f805f8060608587031215613753575f80fd5b61375c85612b96565b93506020850135925060408501356001600160401b0381111561337d575f80fd5b5f805f805f60a08688031215613791575f80fd5b61379a86612b96565b94506137a860208701612b96565b9350604086013592506060860135915060808601356001600160401b038111156137d0575f80fd5b6131c888828901612c51565b600181811c908216806137f057607f821691505b60208210810361380e57634e487b7160e01b5f52602260045260245ffd5b50919050565b838152606081016138286020830185612fe1565b826040830152949350505050565b5f60208284031215613846575f80fd5b81516001600160401b0381111561385b575f80fd5b8201601f8101841361386b575f80fd5b8051613879612c2382612bf0565b81815285602083850101111561388d575f80fd5b611cab826020830160208601612b20565b818382375f9101908152919050565b5f611a64368484612db6565b634e487b7160e01b5f52601160045260245ffd5b81810381811115611093576110936138b9565b80820180821115611093576110936138b9565b5f8151808452602080850194508084015f5b8381101561346f5781516001600160a01b031687529582019590820190600101613905565b5f815180845260208085019450848260051b86018286015f5b8581101561396d57838303895261395b838351612b42565b98850198925090840190600101613943565b5090979650505050505050565b5f6101208b8352602060018060a01b038c16818501528160408501526139a28285018c6138f3565b915083820360608501526139b6828b613441565b915083820360808501528189518084528284019150828160051b850101838c015f5b83811015613a0657601f198784030185526139f4838351612b42565b948601949250908501906001016139d8565b505086810360a0880152613a1a818c61392a565b9450505050508560c08401528460e0840152828103610100840152613a3f8185612b42565b9c9b505050505050505050505050565b5f60208284031215613a5f575f80fd5b815165ffffffffffff81168114611a64575f80fd5b65ffffffffffff818116838216019080821115613a9357613a936138b9565b5092915050565b608081525f613aac60808301876138f3565b8281036020840152613abe8187613441565b90508281036040840152613ad2818661392a565b91505082606083015295945050505050565b634e487b7160e01b5f52603260045260245ffd5b5f60018201613b0957613b096138b9565b5060010190565b5f8251613b21818460208701612b20565b9190910192915050565b84815260ff84166020820152826040820152608060608201525f610bf16080830184612b42565b85815260ff8516602082015283604082015260a060608201525f613b7960a0830185612b42565b8281036080840152613b8b8185612b42565b98975050505050505050565b60ff8181168382160190811115611093576110936138b9565b600181815b80851115613bea57815f1904821115613bd057613bd06138b9565b80851615613bdd57918102915b93841c9390800290613bb5565b509250929050565b5f82613c0057506001611093565b81613c0c57505f611093565b8160018114613c225760028114613c2c57613c48565b6001915050611093565b60ff841115613c3d57613c3d6138b9565b50506001821b611093565b5060208310610133831016604e8410600b8410161715613c6b575081810a611093565b613c758383613bb0565b805f1904821115613c8857613c886138b9565b029392505050565b5f611a6460ff841683613bf2565b5f60208284031215613cae575f80fd5b5051919050565b828152604060208201525f6112686040830184612b4256fea2646970667358221220aee3612c81edeb35a97cba165bf70c904f24eaf2ccfd83c3324fc21c6f29b94964736f6c63430008140033",
  "linkReferences": {},
  "deployedLinkReferences": {}
}