{
  "_format": "hh-sol-artifact-1",
  "contractName": "StorageSlotMock",
  "sourceName": "contracts/mocks/StorageSlotMock.sol",
  "abi": [
    {
      "inputs": [
        {
          "internalType": "uint256",
          "name": "",
          "type": "uint256"
        }
      ],
      "name": "bytesMap",
      "outputs": [
        {
          "internalType": "bytes",
          "name": "",
          "type": "bytes"
        }
      ],
      "stateMutability": "view",
      "type": "function"
    },
    {
      "inputs": [
        {
          "internalType": "bytes32",
          "name": "slot",
          "type": "bytes32"
        }
      ],
      "name": "getAddress",
      "outputs": [
        {
          "internalType": "address",
          "name": "",
          "type": "address"
        }
      ],
      "stateMutability": "view",
      "type": "function"
    },
    {
      "inputs": [
        {
          "internalType": "bytes32",
          "name": "slot",
          "type": "bytes32"
        }
      ],
      "name": "getBoolean",
      "outputs": [
        {
          "internalType": "bool",
          "name": "",
          "type": "bool"
        }
      ],
      "stateMutability": "view",
      "type": "function"
    },
    {
      "inputs": [
        {
          "internalType": "bytes32",
          "name": "slot",
          "type": "bytes32"
        }
      ],
      "name": "getBytes",
      "outputs": [
        {
          "internalType": "bytes",
          "name": "",
          "type": "bytes"
        }
      ],
      "stateMutability": "view",
      "type": "function"
    },
    {
      "inputs": [
        {
          "internalType": "bytes32",
          "name": "slot",
          "type": "bytes32"
        }
      ],
      "name": "getBytes32",
      "outputs": [
        {
          "internalType": "bytes32",
          "name": "",
          "type": "bytes32"
        }
      ],
      "stateMutability": "view",
      "type": "function"
    },
    {
      "inputs": [
        {
          "internalType": "uint256",
          "name": "key",
          "type": "uint256"
        }
      ],
      "name": "getBytesStorage",
      "outputs": [
        {
          "internalType": "bytes",
          "name": "",
          "type": "bytes"
        }
      ],
      "stateMutability": "view",
      "type": "function"
    },
    {
      "inputs": [
        {
          "internalType": "bytes32",
          "name": "slot",
          "type": "bytes32"
        }
      ],
      "name": "getString",
      "outputs": [
        {
          "internalType": "string",
          "name": "",
          "type": "string"
        }
      ],
      "stateMutability": "view",
      "type": "function"
    },
    {
      "inputs": [
        {
          "internalType": "uint256",
          "name": "key",
          "type": "uint256"
        }
      ],
      "name": "getStringStorage",
      "outputs": [
        {
          "internalType": "string",
          "name": "",
          "type": "string"
        }
      ],
      "stateMutability": "view",
      "type": "function"
    },
    {
      "inputs": [
        {
          "internalType": "bytes32",
          "name": "slot",
          "type": "bytes32"
        }
      ],
      "name": "getUint256",
      "outputs": [
        {
          "internalType": "uint256",
          "name": "",
          "type": "uint256"
        }
      ],
      "stateMutability": "view",
      "type": "function"
    },
    {
      "inputs": [
        {
          "internalType": "bytes32",
          "name": "slot",
          "type": "bytes32"
        },
        {
          "internalType": "address",
          "name": "value",
          "type": "address"
        }
      ],
      "name": "setAddress",
      "outputs": [],
      "stateMutability": "nonpayable",
      "type": "function"
    },
    {
      "inputs": [
        {
          "internalType": "bytes32",
          "name": "slot",
          "type": "bytes32"
        },
        {
          "internalType": "bool",
          "name": "value",
          "type": "bool"
        }
      ],
      "name": "setBoolean",
      "outputs": [],
      "stateMutability": "nonpayable",
      "type": "function"
    },
    {
      "inputs": [
        {
          "internalType": "bytes32",
          "name": "slot",
          "type": "bytes32"
        },
        {
          "internalType": "bytes",
          "name": "value",
          "type": "bytes"
        }
      ],
      "name": "setBytes",
      "outputs": [],
      "stateMutability": "nonpayable",
      "type": "function"
    },
    {
      "inputs": [
        {
          "internalType": "bytes32",
          "name": "slot",
          "type": "bytes32"
        },
        {
          "internalType": "bytes32",
          "name": "value",
          "type": "bytes32"
        }
      ],
      "name": "setBytes32",
      "outputs": [],
      "stateMutability": "nonpayable",
      "type": "function"
    },
    {
      "inputs": [
        {
          "internalType": "uint256",
          "name": "key",
          "type": "uint256"
        },
        {
          "internalType": "bytes",
          "name": "value",
          "type": "bytes"
        }
      ],
      "name": "setBytesStorage",
      "outputs": [],
      "stateMutability": "nonpayable",
      "type": "function"
    },
    {
      "inputs": [
        {
          "internalType": "bytes32",
          "name": "slot",
          "type": "bytes32"
        },
        {
          "internalType": "string",
          "name": "value",
          "type": "string"
        }
      ],
      "name": "setString",
      "outputs": [],
      "stateMutability": "nonpayable",
      "type": "function"
    },
    {
      "inputs": [
        {
          "internalType": "uint256",
          "name": "key",
          "type": "uint256"
        },
        {
          "internalType": "string",
          "name": "value",
          "type": "string"
        }
      ],
      "name": "setStringStorage",
      "outputs": [],
      "stateMutability": "nonpayable",
      "type": "function"
    },
    {
      "inputs": [
        {
          "internalType": "bytes32",
          "name": "slot",
          "type": "bytes32"
        },
        {
          "internalType": "uint256",
          "name": "value",
          "type": "uint256"
        }
      ],
      "name": "setUint256",
      "outputs": [],
      "stateMutability": "nonpayable",
      "type": "function"
    },
    {
      "inputs": [
        {
          "internalType": "uint256",
          "name": "",
          "type": "uint256"
        }
      ],
      "name": "stringMap",
      "outputs": [
        {
          "internalType": "string",
          "name": "",
          "type": "string"
        }
      ],
      "stateMutability": "view",
      "type": "function"
    }
  ],
  "bytecode": "0x608060405234801561000f575f80fd5b5061074f8061001d5f395ff3fe608060405234801561000f575f80fd5b5060043610610111575f3560e01c80635a46e25d1161009e578063a6ed563e1161006e578063a6ed563e14610199578063c031a18014610216578063ca446dd91461023c578063df6e58d614610267578063f8715b3e1461027a575f80fd5b80635a46e25d146102035780636e89955014610186578063986e791a146102165780639b22f34314610229575f80fd5b806333598b00116100e457806333598b00146101995780633848207a146101b95780633e60bd78146101de5780634e91db08146101f15780634f3029c2146101f1575f80fd5b80630afb30ba146101155780631e133d0f1461012a57806321f8a721146101535780632e28d08414610186575b5f80fd5b610128610123366004610488565b610296565b005b61013d6101383660046104d0565b6102ba565b60405161014a919061052a565b60405180910390f35b61016e6101613660046104d0565b546001600160a01b031690565b6040516001600160a01b03909116815260200161014a565b610128610194366004610488565b610351565b6101ab6101a73660046104d0565b5490565b60405190815260200161014a565b6101ce6101c73660046104d0565b5460ff1690565b604051901515815260200161014a565b6101286101ec366004610488565b610359565b6101286101ff366004610543565b9055565b61013d6102113660046104d0565b61036f565b61013d6102243660046104d0565b610387565b61013d6102373660046104d0565b610419565b61012861024a366004610563565b81546001600160a01b0319166001600160a01b0391909116179055565b61013d6102753660046104d0565b61042e565b61012861028836600461059c565b815460ff1916901515179055565b5f838152600160205260409020829082905b916102b491908361065d565b50505050565b5f60208190529081526040902080546102d2906105d7565b80601f01602080910402602001604051908101604052809291908181526020018280546102fe906105d7565b80156103495780601f1061032057610100808354040283529160200191610349565b820191905f5260205f20905b81548152906001019060200180831161032c57829003601f168201915b505050505081565b8181846102a8565b5f838152602081905260409020829082906102a8565b60016020525f9081526040902080546102d2906105d7565b6060815b8054610396906105d7565b80601f01602080910402602001604051908101604052809291908181526020018280546103c2906105d7565b801561040d5780601f106103e45761010080835404028352916020019161040d565b820191905f5260205f20905b8154815290600101906020018083116103f057829003601f168201915b50505050509050919050565b5f81815260016020526040902060609061038b565b5f81815260208190526040902060609061038b565b5f8083601f840112610453575f80fd5b50813567ffffffffffffffff81111561046a575f80fd5b602083019150836020828501011115610481575f80fd5b9250929050565b5f805f6040848603121561049a575f80fd5b83359250602084013567ffffffffffffffff8111156104b7575f80fd5b6104c386828701610443565b9497909650939450505050565b5f602082840312156104e0575f80fd5b5035919050565b5f81518084525f5b8181101561050b576020818501810151868301820152016104ef565b505f602082860101526020601f19601f83011685010191505092915050565b602081525f61053c60208301846104e7565b9392505050565b5f8060408385031215610554575f80fd5b50508035926020909101359150565b5f8060408385031215610574575f80fd5b8235915060208301356001600160a01b0381168114610591575f80fd5b809150509250929050565b5f80604083850312156105ad575f80fd5b8235915060208301358015158114610591575f80fd5b634e487b7160e01b5f52604160045260245ffd5b600181811c908216806105eb57607f821691505b60208210810361060957634e487b7160e01b5f52602260045260245ffd5b50919050565b601f821115610658575f81815260208120601f850160051c810160208610156106355750805b601f850160051c820191505b8181101561065457828155600101610641565b5050505b505050565b67ffffffffffffffff831115610675576106756105c3565b6106898361068383546105d7565b8361060f565b5f601f8411600181146106ba575f85156106a35750838201355b5f19600387901b1c1916600186901b178355610712565b5f83815260209020601f19861690835b828110156106ea57868501358255602094850194600190920191016106ca565b5086821015610706575f1960f88860031b161c19848701351681555b505060018560011b0183555b505050505056fea2646970667358221220befce31986296ef377848aaeda32440395c0b39596be9f3927ba49f02914752c64736f6c63430008140033",
  "linkReferences": {},
  "deployedLinkReferences": {}
}