{
  "_format": "hh-sol-artifact-1",
  "contractName": "$SafeCast",
  "sourceName": "contracts-exposed/utils/math/SafeCast.sol",
  "abi": [
    {
      "inputs": [],
      "stateMutability": "payable",
      "type": "constructor"
    },
    {
      "inputs": [
        {
          "internalType": "uint8",
          "name": "bits",
          "type": "uint8"
        },
        {
          "internalType": "int256",
          "name": "value",
          "type": "int256"
        }
      ],
      "name": "SafeCastOverflowedIntDowncast",
      "type": "error"
    },
    {
      "inputs": [
        {
          "internalType": "int256",
          "name": "value",
          "type": "int256"
        }
      ],
      "name": "SafeCastOverflowedIntToUint",
      "type": "error"
    },
    {
      "inputs": [
        {
          "internalType": "uint8",
          "name": "bits",
          "type": "uint8"
        },
        {
          "internalType": "uint256",
          "name": "value",
          "type": "uint256"
        }
      ],
      "name": "SafeCastOverflowedUintDowncast",
      "type": "error"
    },
    {
      "inputs": [
        {
          "internalType": "uint256",
          "name": "value",
          "type": "uint256"
        }
      ],
      "name": "SafeCastOverflowedUintToInt",
      "type": "error"
    },
    {
      "inputs": [
        {
          "internalType": "int256",
          "name": "value",
          "type": "int256"
        }
      ],
      "name": "$toInt104",
      "outputs": [
        {
          "internalType": "int104",
          "name": "downcasted",
          "type": "int104"
        }
      ],
      "stateMutability": "pure",
      "type": "function"
    },
    {
      "inputs": [
        {
          "internalType": "int256",
          "name": "value",
          "type": "int256"
        }
      ],
      "name": "$toInt112",
      "outputs": [
        {
          "internalType": "int112",
          "name": "downcasted",
          "type": "int112"
        }
      ],
      "stateMutability": "pure",
      "type": "function"
    },
    {
      "inputs": [
        {
          "internalType": "int256",
          "name": "value",
          "type": "int256"
        }
      ],
      "name": "$toInt120",
      "outputs": [
        {
          "internalType": "int120",
          "name": "downcasted",
          "type": "int120"
        }
      ],
      "stateMutability": "pure",
      "type": "function"
    },
    {
      "inputs": [
        {
          "internalType": "int256",
          "name": "value",
          "type": "int256"
        }
      ],
      "name": "$toInt128",
      "outputs": [
        {
          "internalType": "int128",
          "name": "downcasted",
          "type": "int128"
        }
      ],
      "stateMutability": "pure",
      "type": "function"
    },
    {
      "inputs": [
        {
          "internalType": "int256",
          "name": "value",
          "type": "int256"
        }
      ],
      "name": "$toInt136",
      "outputs": [
        {
          "internalType": "int136",
          "name": "downcasted",
          "type": "int136"
        }
      ],
      "stateMutability": "pure",
      "type": "function"
    },
    {
      "inputs": [
        {
          "internalType": "int256",
          "name": "value",
          "type": "int256"
        }
      ],
      "name": "$toInt144",
      "outputs": [
        {
          "internalType": "int144",
          "name": "downcasted",
          "type": "int144"
        }
      ],
      "stateMutability": "pure",
      "type": "function"
    },
    {
      "inputs": [
        {
          "internalType": "int256",
          "name": "value",
          "type": "int256"
        }
      ],
      "name": "$toInt152",
      "outputs": [
        {
          "internalType": "int152",
          "name": "downcasted",
          "type": "int152"
        }
      ],
      "stateMutability": "pure",
      "type": "function"
    },
    {
      "inputs": [
        {
          "internalType": "int256",
          "name": "value",
          "type": "int256"
        }
      ],
      "name": "$toInt16",
      "outputs": [
        {
          "internalType": "int16",
          "name": "downcasted",
          "type": "int16"
        }
      ],
      "stateMutability": "pure",
      "type": "function"
    },
    {
      "inputs": [
        {
          "internalType": "int256",
          "name": "value",
          "type": "int256"
        }
      ],
      "name": "$toInt160",
      "outputs": [
        {
          "internalType": "int160",
          "name": "downcasted",
          "type": "int160"
        }
      ],
      "stateMutability": "pure",
      "type": "function"
    },
    {
      "inputs": [
        {
          "internalType": "int256",
          "name": "value",
          "type": "int256"
        }
      ],
      "name": "$toInt168",
      "outputs": [
        {
          "internalType": "int168",
          "name": "downcasted",
          "type": "int168"
        }
      ],
      "stateMutability": "pure",
      "type": "function"
    },
    {
      "inputs": [
        {
          "internalType": "int256",
          "name": "value",
          "type": "int256"
        }
      ],
      "name": "$toInt176",
      "outputs": [
        {
          "internalType": "int176",
          "name": "downcasted",
          "type": "int176"
        }
      ],
      "stateMutability": "pure",
      "type": "function"
    },
    {
      "inputs": [
        {
          "internalType": "int256",
          "name": "value",
          "type": "int256"
        }
      ],
      "name": "$toInt184",
      "outputs": [
        {
          "internalType": "int184",
          "name": "downcasted",
          "type": "int184"
        }
      ],
      "stateMutability": "pure",
      "type": "function"
    },
    {
      "inputs": [
        {
          "internalType": "int256",
          "name": "value",
          "type": "int256"
        }
      ],
      "name": "$toInt192",
      "outputs": [
        {
          "internalType": "int192",
          "name": "downcasted",
          "type": "int192"
        }
      ],
      "stateMutability": "pure",
      "type": "function"
    },
    {
      "inputs": [
        {
          "internalType": "int256",
          "name": "value",
          "type": "int256"
        }
      ],
      "name": "$toInt200",
      "outputs": [
        {
          "internalType": "int200",
          "name": "downcasted",
          "type": "int200"
        }
      ],
      "stateMutability": "pure",
      "type": "function"
    },
    {
      "inputs": [
        {
          "internalType": "int256",
          "name": "value",
          "type": "int256"
        }
      ],
      "name": "$toInt208",
      "outputs": [
        {
          "internalType": "int208",
          "name": "downcasted",
          "type": "int208"
        }
      ],
      "stateMutability": "pure",
      "type": "function"
    },
    {
      "inputs": [
        {
          "internalType": "int256",
          "name": "value",
          "type": "int256"
        }
      ],
      "name": "$toInt216",
      "outputs": [
        {
          "internalType": "int216",
          "name": "downcasted",
          "type": "int216"
        }
      ],
      "stateMutability": "pure",
      "type": "function"
    },
    {
      "inputs": [
        {
          "internalType": "int256",
          "name": "value",
          "type": "int256"
        }
      ],
      "name": "$toInt224",
      "outputs": [
        {
          "internalType": "int224",
          "name": "downcasted",
          "type": "int224"
        }
      ],
      "stateMutability": "pure",
      "type": "function"
    },
    {
      "inputs": [
        {
          "internalType": "int256",
          "name": "value",
          "type": "int256"
        }
      ],
      "name": "$toInt232",
      "outputs": [
        {
          "internalType": "int232",
          "name": "downcasted",
          "type": "int232"
        }
      ],
      "stateMutability": "pure",
      "type": "function"
    },
    {
      "inputs": [
        {
          "internalType": "int256",
          "name": "value",
          "type": "int256"
        }
      ],
      "name": "$toInt24",
      "outputs": [
        {
          "internalType": "int24",
          "name": "downcasted",
          "type": "int24"
        }
      ],
      "stateMutability": "pure",
      "type": "function"
    },
    {
      "inputs": [
        {
          "internalType": "int256",
          "name": "value",
          "type": "int256"
        }
      ],
      "name": "$toInt240",
      "outputs": [
        {
          "internalType": "int240",
          "name": "downcasted",
          "type": "int240"
        }
      ],
      "stateMutability": "pure",
      "type": "function"
    },
    {
      "inputs": [
        {
          "internalType": "int256",
          "name": "value",
          "type": "int256"
        }
      ],
      "name": "$toInt248",
      "outputs": [
        {
          "internalType": "int248",
          "name": "downcasted",
          "type": "int248"
        }
      ],
      "stateMutability": "pure",
      "type": "function"
    },
    {
      "inputs": [
        {
          "internalType": "uint256",
          "name": "value",
          "type": "uint256"
        }
      ],
      "name": "$toInt256",
      "outputs": [
        {
          "internalType": "int256",
          "name": "ret0",
          "type": "int256"
        }
      ],
      "stateMutability": "pure",
      "type": "function"
    },
    {
      "inputs": [
        {
          "internalType": "int256",
          "name": "value",
          "type": "int256"
        }
      ],
      "name": "$toInt32",
      "outputs": [
        {
          "internalType": "int32",
          "name": "downcasted",
          "type": "int32"
        }
      ],
      "stateMutability": "pure",
      "type": "function"
    },
    {
      "inputs": [
        {
          "internalType": "int256",
          "name": "value",
          "type": "int256"
        }
      ],
      "name": "$toInt40",
      "outputs": [
        {
          "internalType": "int40",
          "name": "downcasted",
          "type": "int40"
        }
      ],
      "stateMutability": "pure",
      "type": "function"
    },
    {
      "inputs": [
        {
          "internalType": "int256",
          "name": "value",
          "type": "int256"
        }
      ],
      "name": "$toInt48",
      "outputs": [
        {
          "internalType": "int48",
          "name": "downcasted",
          "type": "int48"
        }
      ],
      "stateMutability": "pure",
      "type": "function"
    },
    {
      "inputs": [
        {
          "internalType": "int256",
          "name": "value",
          "type": "int256"
        }
      ],
      "name": "$toInt56",
      "outputs": [
        {
          "internalType": "int56",
          "name": "downcasted",
          "type": "int56"
        }
      ],
      "stateMutability": "pure",
      "type": "function"
    },
    {
      "inputs": [
        {
          "internalType": "int256",
          "name": "value",
          "type": "int256"
        }
      ],
      "name": "$toInt64",
      "outputs": [
        {
          "internalType": "int64",
          "name": "downcasted",
          "type": "int64"
        }
      ],
      "stateMutability": "pure",
      "type": "function"
    },
    {
      "inputs": [
        {
          "internalType": "int256",
          "name": "value",
          "type": "int256"
        }
      ],
      "name": "$toInt72",
      "outputs": [
        {
          "internalType": "int72",
          "name": "downcasted",
          "type": "int72"
        }
      ],
      "stateMutability": "pure",
      "type": "function"
    },
    {
      "inputs": [
        {
          "internalType": "int256",
          "name": "value",
          "type": "int256"
        }
      ],
      "name": "$toInt8",
      "outputs": [
        {
          "internalType": "int8",
          "name": "downcasted",
          "type": "int8"
        }
      ],
      "stateMutability": "pure",
      "type": "function"
    },
    {
      "inputs": [
        {
          "internalType": "int256",
          "name": "value",
          "type": "int256"
        }
      ],
      "name": "$toInt80",
      "outputs": [
        {
          "internalType": "int80",
          "name": "downcasted",
          "type": "int80"
        }
      ],
      "stateMutability": "pure",
      "type": "function"
    },
    {
      "inputs": [
        {
          "internalType": "int256",
          "name": "value",
          "type": "int256"
        }
      ],
      "name": "$toInt88",
      "outputs": [
        {
          "internalType": "int88",
          "name": "downcasted",
          "type": "int88"
        }
      ],
      "stateMutability": "pure",
      "type": "function"
    },
    {
      "inputs": [
        {
          "internalType": "int256",
          "name": "value",
          "type": "int256"
        }
      ],
      "name": "$toInt96",
      "outputs": [
        {
          "internalType": "int96",
          "name": "downcasted",
          "type": "int96"
        }
      ],
      "stateMutability": "pure",
      "type": "function"
    },
    {
      "inputs": [
        {
          "internalType": "uint256",
          "name": "value",
          "type": "uint256"
        }
      ],
      "name": "$toUint104",
      "outputs": [
        {
          "internalType": "uint104",
          "name": "ret0",
          "type": "uint104"
        }
      ],
      "stateMutability": "pure",
      "type": "function"
    },
    {
      "inputs": [
        {
          "internalType": "uint256",
          "name": "value",
          "type": "uint256"
        }
      ],
      "name": "$toUint112",
      "outputs": [
        {
          "internalType": "uint112",
          "name": "ret0",
          "type": "uint112"
        }
      ],
      "stateMutability": "pure",
      "type": "function"
    },
    {
      "inputs": [
        {
          "internalType": "uint256",
          "name": "value",
          "type": "uint256"
        }
      ],
      "name": "$toUint120",
      "outputs": [
        {
          "internalType": "uint120",
          "name": "ret0",
          "type": "uint120"
        }
      ],
      "stateMutability": "pure",
      "type": "function"
    },
    {
      "inputs": [
        {
          "internalType": "uint256",
          "name": "value",
          "type": "uint256"
        }
      ],
      "name": "$toUint128",
      "outputs": [
        {
          "internalType": "uint128",
          "name": "ret0",
          "type": "uint128"
        }
      ],
      "stateMutability": "pure",
      "type": "function"
    },
    {
      "inputs": [
        {
          "internalType": "uint256",
          "name": "value",
          "type": "uint256"
        }
      ],
      "name": "$toUint136",
      "outputs": [
        {
          "internalType": "uint136",
          "name": "ret0",
          "type": "uint136"
        }
      ],
      "stateMutability": "pure",
      "type": "function"
    },
    {
      "inputs": [
        {
          "internalType": "uint256",
          "name": "value",
          "type": "uint256"
        }
      ],
      "name": "$toUint144",
      "outputs": [
        {
          "internalType": "uint144",
          "name": "ret0",
          "type": "uint144"
        }
      ],
      "stateMutability": "pure",
      "type": "function"
    },
    {
      "inputs": [
        {
          "internalType": "uint256",
          "name": "value",
          "type": "uint256"
        }
      ],
      "name": "$toUint152",
      "outputs": [
        {
          "internalType": "uint152",
          "name": "ret0",
          "type": "uint152"
        }
      ],
      "stateMutability": "pure",
      "type": "function"
    },
    {
      "inputs": [
        {
          "internalType": "uint256",
          "name": "value",
          "type": "uint256"
        }
      ],
      "name": "$toUint16",
      "outputs": [
        {
          "internalType": "uint16",
          "name": "ret0",
          "type": "uint16"
        }
      ],
      "stateMutability": "pure",
      "type": "function"
    },
    {
      "inputs": [
        {
          "internalType": "uint256",
          "name": "value",
          "type": "uint256"
        }
      ],
      "name": "$toUint160",
      "outputs": [
        {
          "internalType": "uint160",
          "name": "ret0",
          "type": "uint160"
        }
      ],
      "stateMutability": "pure",
      "type": "function"
    },
    {
      "inputs": [
        {
          "internalType": "uint256",
          "name": "value",
          "type": "uint256"
        }
      ],
      "name": "$toUint168",
      "outputs": [
        {
          "internalType": "uint168",
          "name": "ret0",
          "type": "uint168"
        }
      ],
      "stateMutability": "pure",
      "type": "function"
    },
    {
      "inputs": [
        {
          "internalType": "uint256",
          "name": "value",
          "type": "uint256"
        }
      ],
      "name": "$toUint176",
      "outputs": [
        {
          "internalType": "uint176",
          "name": "ret0",
          "type": "uint176"
        }
      ],
      "stateMutability": "pure",
      "type": "function"
    },
    {
      "inputs": [
        {
          "internalType": "uint256",
          "name": "value",
          "type": "uint256"
        }
      ],
      "name": "$toUint184",
      "outputs": [
        {
          "internalType": "uint184",
          "name": "ret0",
          "type": "uint184"
        }
      ],
      "stateMutability": "pure",
      "type": "function"
    },
    {
      "inputs": [
        {
          "internalType": "uint256",
          "name": "value",
          "type": "uint256"
        }
      ],
      "name": "$toUint192",
      "outputs": [
        {
          "internalType": "uint192",
          "name": "ret0",
          "type": "uint192"
        }
      ],
      "stateMutability": "pure",
      "type": "function"
    },
    {
      "inputs": [
        {
          "internalType": "uint256",
          "name": "value",
          "type": "uint256"
        }
      ],
      "name": "$toUint200",
      "outputs": [
        {
          "internalType": "uint200",
          "name": "ret0",
          "type": "uint200"
        }
      ],
      "stateMutability": "pure",
      "type": "function"
    },
    {
      "inputs": [
        {
          "internalType": "uint256",
          "name": "value",
          "type": "uint256"
        }
      ],
      "name": "$toUint208",
      "outputs": [
        {
          "internalType": "uint208",
          "name": "ret0",
          "type": "uint208"
        }
      ],
      "stateMutability": "pure",
      "type": "function"
    },
    {
      "inputs": [
        {
          "internalType": "uint256",
          "name": "value",
          "type": "uint256"
        }
      ],
      "name": "$toUint216",
      "outputs": [
        {
          "internalType": "uint216",
          "name": "ret0",
          "type": "uint216"
        }
      ],
      "stateMutability": "pure",
      "type": "function"
    },
    {
      "inputs": [
        {
          "internalType": "uint256",
          "name": "value",
          "type": "uint256"
        }
      ],
      "name": "$toUint224",
      "outputs": [
        {
          "internalType": "uint224",
          "name": "ret0",
          "type": "uint224"
        }
      ],
      "stateMutability": "pure",
      "type": "function"
    },
    {
      "inputs": [
        {
          "internalType": "uint256",
          "name": "value",
          "type": "uint256"
        }
      ],
      "name": "$toUint232",
      "outputs": [
        {
          "internalType": "uint232",
          "name": "ret0",
          "type": "uint232"
        }
      ],
      "stateMutability": "pure",
      "type": "function"
    },
    {
      "inputs": [
        {
          "internalType": "uint256",
          "name": "value",
          "type": "uint256"
        }
      ],
      "name": "$toUint24",
      "outputs": [
        {
          "internalType": "uint24",
          "name": "ret0",
          "type": "uint24"
        }
      ],
      "stateMutability": "pure",
      "type": "function"
    },
    {
      "inputs": [
        {
          "internalType": "uint256",
          "name": "value",
          "type": "uint256"
        }
      ],
      "name": "$toUint240",
      "outputs": [
        {
          "internalType": "uint240",
          "name": "ret0",
          "type": "uint240"
        }
      ],
      "stateMutability": "pure",
      "type": "function"
    },
    {
      "inputs": [
        {
          "internalType": "uint256",
          "name": "value",
          "type": "uint256"
        }
      ],
      "name": "$toUint248",
      "outputs": [
        {
          "internalType": "uint248",
          "name": "ret0",
          "type": "uint248"
        }
      ],
      "stateMutability": "pure",
      "type": "function"
    },
    {
      "inputs": [
        {
          "internalType": "int256",
          "name": "value",
          "type": "int256"
        }
      ],
      "name": "$toUint256",
      "outputs": [
        {
          "internalType": "uint256",
          "name": "ret0",
          "type": "uint256"
        }
      ],
      "stateMutability": "pure",
      "type": "function"
    },
    {
      "inputs": [
        {
          "internalType": "uint256",
          "name": "value",
          "type": "uint256"
        }
      ],
      "name": "$toUint32",
      "outputs": [
        {
          "internalType": "uint32",
          "name": "ret0",
          "type": "uint32"
        }
      ],
      "stateMutability": "pure",
      "type": "function"
    },
    {
      "inputs": [
        {
          "internalType": "uint256",
          "name": "value",
          "type": "uint256"
        }
      ],
      "name": "$toUint40",
      "outputs": [
        {
          "internalType": "uint40",
          "name": "ret0",
          "type": "uint40"
        }
      ],
      "stateMutability": "pure",
      "type": "function"
    },
    {
      "inputs": [
        {
          "internalType": "uint256",
          "name": "value",
          "type": "uint256"
        }
      ],
      "name": "$toUint48",
      "outputs": [
        {
          "internalType": "uint48",
          "name": "ret0",
          "type": "uint48"
        }
      ],
      "stateMutability": "pure",
      "type": "function"
    },
    {
      "inputs": [
        {
          "internalType": "uint256",
          "name": "value",
          "type": "uint256"
        }
      ],
      "name": "$toUint56",
      "outputs": [
        {
          "internalType": "uint56",
          "name": "ret0",
          "type": "uint56"
        }
      ],
      "stateMutability": "pure",
      "type": "function"
    },
    {
      "inputs": [
        {
          "internalType": "uint256",
          "name": "value",
          "type": "uint256"
        }
      ],
      "name": "$toUint64",
      "outputs": [
        {
          "internalType": "uint64",
          "name": "ret0",
          "type": "uint64"
        }
      ],
      "stateMutability": "pure",
      "type": "function"
    },
    {
      "inputs": [
        {
          "internalType": "uint256",
          "name": "value",
          "type": "uint256"
        }
      ],
      "name": "$toUint72",
      "outputs": [
        {
          "internalType": "uint72",
          "name": "ret0",
          "type": "uint72"
        }
      ],
      "stateMutability": "pure",
      "type": "function"
    },
    {
      "inputs": [
        {
          "internalType": "uint256",
          "name": "value",
          "type": "uint256"
        }
      ],
      "name": "$toUint8",
      "outputs": [
        {
          "internalType": "uint8",
          "name": "ret0",
          "type": "uint8"
        }
      ],
      "stateMutability": "pure",
      "type": "function"
    },
    {
      "inputs": [
        {
          "internalType": "uint256",
          "name": "value",
          "type": "uint256"
        }
      ],
      "name": "$toUint80",
      "outputs": [
        {
          "internalType": "uint80",
          "name": "ret0",
          "type": "uint80"
        }
      ],
      "stateMutability": "pure",
      "type": "function"
    },
    {
      "inputs": [
        {
          "internalType": "uint256",
          "name": "value",
          "type": "uint256"
        }
      ],
      "name": "$toUint88",
      "outputs": [
        {
          "internalType": "uint88",
          "name": "ret0",
          "type": "uint88"
        }
      ],
      "stateMutability": "pure",
      "type": "function"
    },
    {
      "inputs": [
        {
          "internalType": "uint256",
          "name": "value",
          "type": "uint256"
        }
      ],
      "name": "$toUint96",
      "outputs": [
        {
          "internalType": "uint96",
          "name": "ret0",
          "type": "uint96"
        }
      ],
      "stateMutability": "pure",
      "type": "function"
    },
    {
      "inputs": [],
      "name": "__hh_exposed_bytecode_marker",
      "outputs": [
        {
          "internalType": "bytes32",
          "name": "",
          "type": "bytes32"
        }
      ],
      "stateMutability": "view",
      "type": "function"
    },
    {
      "stateMutability": "payable",
      "type": "receive"
    }
  ],
  "bytecode": "0x608060405261200a806100115f395ff3fe6080604052600436106103c0575f3560e01c8063940aa6e7116101f4578063d53eb8a411610113578063edab0f66116100a8578063f83a370c11610078578063f83a370c14610ff6578063f8e4d7001461102c578063fa9306951461105e578063fcbf854614611093578063ff7bb7b0146110c5575f80fd5b8063edab0f6614610f1f578063edc5df2d14610f56578063ef44894114610f8d578063f714a32514610fbf575f80fd5b8063e2bbbef4116100e3578063e2bbbef414610e62578063e41bac9b14610e81578063e447929c14610ebc578063ed9d0e3514610eee575f80fd5b8063d53eb8a414610d90578063dae839ba14610dc7578063dc7b773a14610df9578063dedef39f14610e2b575f80fd5b8063b87fa1b511610189578063bdd3ff5311610159578063bdd3ff5314610cb3578063cbf294c114610cea578063d2dcc34e14610d22578063d32aa3c614610d54575f80fd5b8063b87fa1b514610be1578063ba1993f614610c13578063bb34988014610c4a578063bb6b14d414610c81575f80fd5b8063a511644a116101c4578063a511644a14610b0a578063ad73dae614610b41578063af71e11314610b78578063b125016714610baf575f80fd5b8063940aa6e714610a3957806398e34d3c14610a70578063a084a66a14610aa1578063a33675d614610ad8575f80fd5b80633c41718b116102e05780637f83f9cf116102755780638b4baa76116102455780638b4baa761461096a5780638d4883e21461099c578063901d6177146109ce57806390506c3b14610a07575f80fd5b80637f83f9cf1461089d57806382c5114f146108d457806384d21abb14610906578063891c1cd414610938575f80fd5b80635d565c2c116102b05780635d565c2c146107cb57806362cacaee146108025780637c882bf0146108345780637ecd8c4114610866575f80fd5b80633c41718b146107115780634467d1f8146107485780634b8d0dc5146107675780634fd16c6114610799575f80fd5b8063211f44f3116103565780632bc92a6b116103265780632bc92a6b146106425780633158b57914610675578063342db739146106a7578063370ad0b5146106da575f80fd5b8063211f44f31461057357806324b0d17f146105a75780632aced3c4146105de5780632b3e28a914610610575f80fd5b80630d8243b0116103915780630d8243b0146104a057806319b2f8c8146104d25780631d4125991461050457806320c85d6614610541575f80fd5b8062319523146103cb57806308efd51814610402578063094cbdb8146104345780630b28c34a14610466575f80fd5b366103c757005b5f80fd5b3480156103d6575f80fd5b506103ea6103e5366004611fbd565b6110f7565b60405160079190910b81526020015b60405180910390f35b34801561040d575f80fd5b5061042161041c366004611fbd565b611107565b60405161ffff90911681526020016103f9565b34801561043f575f80fd5b5061045361044e366004611fbd565b611111565b604051601c9190910b81526020016103f9565b348015610471575f80fd5b50610485610480366004611fbd565b61111b565b60405169ffffffffffffffffffff90911681526020016103f9565b3480156104ab575f80fd5b506104bf6104ba366004611fbd565b611125565b60405160099190910b81526020016103f9565b3480156104dd575f80fd5b506104f16104ec366004611fbd565b61112f565b604051601d9190910b81526020016103f9565b34801561050f575f80fd5b5061052361051e366004611fbd565b611139565b6040516cffffffffffffffffffffffffff90911681526020016103f9565b34801561054c575f80fd5b5061056061055b366004611fbd565b611143565b604051600c9190910b81526020016103f9565b34801561057e575f80fd5b5061059261058d366004611fbd565b61114d565b60405163ffffffff90911681526020016103f9565b3480156105b2575f80fd5b506105c66105c1366004611fbd565b611157565b6040516001600160781b0390911681526020016103f9565b3480156105e9575f80fd5b506105fd6105f8366004611fbd565b611161565b60405160139190910b81526020016103f9565b34801561061b575f80fd5b5061062f61062a366004611fbd565b61116b565b604051601b9190910b81526020016103f9565b34801561064d575f80fd5b5061066161065c366004611fbd565b611175565b60405162ffffff90911681526020016103f9565b348015610680575f80fd5b5061069461068f366004611fbd565b61117f565b60405160109190910b81526020016103f9565b3480156106b2575f80fd5b506106cc6e1a185c991a185d0b595e1c1bdcd959608a1b81565b6040519081526020016103f9565b3480156106e5575f80fd5b506106f96106f4366004611fbd565b611189565b6040516001600160e01b0390911681526020016103f9565b34801561071c575f80fd5b5061073061072b366004611fbd565b611193565b6040516001600160801b0390911681526020016103f9565b348015610753575f80fd5b506106cc610762366004611fbd565b61119d565b348015610772575f80fd5b50610786610781366004611fbd565b6111a7565b60405160179190910b81526020016103f9565b3480156107a4575f80fd5b506107b86107b3366004611fbd565b6111b1565b604051601e9190910b81526020016103f9565b3480156107d6575f80fd5b506107ea6107e5366004611fbd565b6111bb565b6040516001600160701b0390911681526020016103f9565b34801561080d575f80fd5b5061082161081c366004611fbd565b6111c5565b60405160089190910b81526020016103f9565b34801561083f575f80fd5b5061085361084e366004611fbd565b6111cf565b60405160199190910b81526020016103f9565b348015610871575f80fd5b50610885610880366004611fbd565b6111d9565b6040516001600160c81b0390911681526020016103f9565b3480156108a8575f80fd5b506108bc6108b7366004611fbd565b6111e3565b6040516001600160f01b0390911681526020016103f9565b3480156108df575f80fd5b506108f36108ee366004611fbd565b6111ed565b604051600a9190910b81526020016103f9565b348015610911575f80fd5b50610925610920366004611fbd565b6111f7565b60405160169190910b81526020016103f9565b348015610943575f80fd5b50610957610952366004611fbd565b611201565b60405160069190910b81526020016103f9565b348015610975575f80fd5b50610989610984366004611fbd565b61120b565b60405160129190910b81526020016103f9565b3480156109a7575f80fd5b506109bb6109b6366004611fbd565b611215565b604051601a9190910b81526020016103f9565b3480156109d9575f80fd5b506109ed6109e8366004611fbd565b61121f565b60405168ffffffffffffffffff90911681526020016103f9565b348015610a12575f80fd5b50610a26610a21366004611fbd565b611229565b60405160049190910b81526020016103f9565b348015610a44575f80fd5b50610a58610a53366004611fbd565b611233565b6040516001600160f81b0390911681526020016103f9565b348015610a7b575f80fd5b50610a8f610a8a366004611fbd565b61123d565b60405160ff90911681526020016103f9565b348015610aac575f80fd5b50610ac0610abb366004611fbd565b611247565b60405166ffffffffffffff90911681526020016103f9565b348015610ae3575f80fd5b50610af7610af2366004611fbd565b611251565b60405160029190910b81526020016103f9565b348015610b15575f80fd5b50610b29610b24366004611fbd565b61125b565b6040516001600160881b0390911681526020016103f9565b348015610b4c575f80fd5b50610b60610b5b366004611fbd565b611265565b6040516001600160c01b0390911681526020016103f9565b348015610b83575f80fd5b50610b97610b92366004611fbd565b61126f565b6040516001600160e81b0390911681526020016103f9565b348015610bba575f80fd5b50610bce610bc9366004611fbd565b611279565b60405160039190910b81526020016103f9565b348015610bec575f80fd5b50610c00610bfb366004611fbd565b611283565b604051600e9190910b81526020016103f9565b348015610c1e575f80fd5b50610c32610c2d366004611fbd565b61128d565b6040516001600160b01b0390911681526020016103f9565b348015610c55575f80fd5b50610c69610c64366004611fbd565b611297565b6040516001600160b81b0390911681526020016103f9565b348015610c8c575f80fd5b50610ca0610c9b366004611fbd565b6112a1565b604051600d9190910b81526020016103f9565b348015610cbe575f80fd5b50610cd2610ccd366004611fbd565b6112ab565b6040516001600160d81b0390911681526020016103f9565b348015610cf5575f80fd5b50610d09610d04366004611fbd565b6112b5565b60405167ffffffffffffffff90911681526020016103f9565b348015610d2d575f80fd5b50610d41610d3c366004611fbd565b6112bf565b604051600f9190910b81526020016103f9565b348015610d5f575f80fd5b50610d73610d6e366004611fbd565b6112c9565b6040516bffffffffffffffffffffffff90911681526020016103f9565b348015610d9b575f80fd5b50610daf610daa366004611fbd565b6112d3565b6040516001600160d01b0390911681526020016103f9565b348015610dd2575f80fd5b50610de6610de1366004611fbd565b6112dd565b604051600b9190910b81526020016103f9565b348015610e04575f80fd5b50610e18610e13366004611fbd565b6112e7565b60405160159190910b81526020016103f9565b348015610e36575f80fd5b50610e4a610e45366004611fbd565b6112f1565b6040516001600160a01b0390911681526020016103f9565b348015610e6d575f80fd5b506106cc610e7c366004611fbd565b6112fb565b348015610e8c575f80fd5b50610ea0610e9b366004611fbd565b611305565b6040516affffffffffffffffffffff90911681526020016103f9565b348015610ec7575f80fd5b50610edb610ed6366004611fbd565b61130f565b60405160189190910b81526020016103f9565b348015610ef9575f80fd5b50610f0d610f08366004611fbd565b611319565b6040515f9190910b81526020016103f9565b348015610f2a575f80fd5b50610f3e610f39366004611fbd565b611323565b6040516001600160901b0390911681526020016103f9565b348015610f61575f80fd5b50610f75610f70366004611fbd565b61132d565b6040516001600160a81b0390911681526020016103f9565b348015610f98575f80fd5b50610fac610fa7366004611fbd565b611337565b60405160019190910b81526020016103f9565b348015610fca575f80fd5b50610fde610fd9366004611fbd565b611341565b6040516001600160981b0390911681526020016103f9565b348015611001575f80fd5b50611015611010366004611fbd565b61134b565b60405165ffffffffffff90911681526020016103f9565b348015611037575f80fd5b5061104b611046366004611fbd565b611355565b60405160119190910b81526020016103f9565b348015611069575f80fd5b5061107d611078366004611fbd565b61135f565b60405164ffffffffff90911681526020016103f9565b34801561109e575f80fd5b506110b26110ad366004611fbd565b611369565b60405160149190910b81526020016103f9565b3480156110d0575f80fd5b506110e46110df366004611fbd565b611373565b60405160059190910b81526020016103f9565b5f6111018261137d565b92915050565b5f611101826113b8565b5f611101826113ea565b5f61110182611419565b5f6111018261144f565b5f6111018261147e565b5f611101826114ad565b5f611101826114e6565b5f61110182611515565b5f61110182611545565b5f61110182611578565b5f611101826115a7565b5f611101826115d6565b5f61110182611605565b5f61110182611634565b5f61110182611667565b5f6111018261169a565b5f611101826116c6565b5f611101826116f5565b5f61110182611724565b5f61110182611757565b5f61110182611786565b5f611101826117b5565b5f611101826117e8565b5f6111018261181b565b5f6111018261184a565b5f61110182611879565b5f611101826118a8565b5f611101826118d7565b5f61110182611906565b5f6111018261193b565b5f6111018261196a565b5f6111018261199d565b5f611101826119ca565b5f611101826119fd565b5f61110182611a2c565b5f61110182611a5f565b5f61110182611a92565b5f61110182611ac5565b5f61110182611af4565b5f61110182611b23565b5f61110182611b56565b5f61110182611b89565b5f61110182611bb8565b5f61110182611beb565b5f61110182611c21565b5f61110182611c50565b5f61110182611c88565b5f61110182611cbb565b5f61110182611cea565b5f61110182611d19565b5f61110182611d4c565b5f61110182611d71565b5f61110182611da8565b5f61110182611dd7565b5f61110182611e05565b5f61110182611e38565b5f61110182611e6b565b5f61110182611e9a565b5f61110182611ecd565b5f61110182611eff565b5f61110182611f2e565b5f61110182611f5f565b5f61110182611f8e565b80600781900b81146113b3576040805163327269a760e01b81526004810191909152602481018390526044015b60405180910390fd5b919050565b5f61ffff8211156113e6576040516306dfcc6560e41b815260106004820152602481018390526044016113aa565b5090565b80601c81900b81146113b35760405163327269a760e01b815260e86004820152602481018390526044016113aa565b5f69ffffffffffffffffffff8211156113e6576040516306dfcc6560e41b815260506004820152602481018390526044016113aa565b80600981900b81146113b35760405163327269a760e01b815260506004820152602481018390526044016113aa565b80601d81900b81146113b35760405163327269a760e01b815260f06004820152602481018390526044016113aa565b5f6cffffffffffffffffffffffffff8211156113e6576040516306dfcc6560e41b815260686004820152602481018390526044016113aa565b80600c81900b81146113b35760405163327269a760e01b815260686004820152602481018390526044016113aa565b5f63ffffffff8211156113e6576040516306dfcc6560e41b815260206004820152602481018390526044016113aa565b5f6001600160781b038211156113e6576040516306dfcc6560e41b815260786004820152602481018390526044016113aa565b80601381900b81146113b35760405163327269a760e01b815260a06004820152602481018390526044016113aa565b80601b81900b81146113b35760405163327269a760e01b815260e06004820152602481018390526044016113aa565b5f62ffffff8211156113e6576040516306dfcc6560e41b815260186004820152602481018390526044016113aa565b80601081900b81146113b35760405163327269a760e01b815260886004820152602481018390526044016113aa565b5f6001600160e01b038211156113e6576040516306dfcc6560e41b815260e06004820152602481018390526044016113aa565b5f6001600160801b038211156113e6576040516306dfcc6560e41b815260806004820152602481018390526044016113aa565b5f6001600160ff1b038211156113e65760405163123baf0360e11b8152600481018390526024016113aa565b80601781900b81146113b35760405163327269a760e01b815260c06004820152602481018390526044016113aa565b80601e81900b81146113b35760405163327269a760e01b815260f86004820152602481018390526044016113aa565b5f6001600160701b038211156113e6576040516306dfcc6560e41b815260706004820152602481018390526044016113aa565b80600881900b81146113b35760405163327269a760e01b815260486004820152602481018390526044016113aa565b80601981900b81146113b35760405163327269a760e01b815260d06004820152602481018390526044016113aa565b5f6001600160c81b038211156113e6576040516306dfcc6560e41b815260c86004820152602481018390526044016113aa565b5f6001600160f01b038211156113e6576040516306dfcc6560e41b815260f06004820152602481018390526044016113aa565b80600a81900b81146113b35760405163327269a760e01b815260586004820152602481018390526044016113aa565b80601681900b81146113b35760405163327269a760e01b815260b86004820152602481018390526044016113aa565b80600681900b81146113b35760405163327269a760e01b815260386004820152602481018390526044016113aa565b80601281900b81146113b35760405163327269a760e01b815260986004820152602481018390526044016113aa565b80601a81900b81146113b35760405163327269a760e01b815260d86004820152602481018390526044016113aa565b5f68ffffffffffffffffff8211156113e6576040516306dfcc6560e41b815260486004820152602481018390526044016113aa565b80600481900b81146113b35760405163327269a760e01b815260286004820152602481018390526044016113aa565b5f6001600160f81b038211156113e6576040516306dfcc6560e41b815260f86004820152602481018390526044016113aa565b5f60ff8211156113e6576040516306dfcc6560e41b815260086004820152602481018390526044016113aa565b5f66ffffffffffffff8211156113e6576040516306dfcc6560e41b815260386004820152602481018390526044016113aa565b80600281900b81146113b35760405163327269a760e01b815260186004820152602481018390526044016113aa565b5f6001600160881b038211156113e6576040516306dfcc6560e41b815260886004820152602481018390526044016113aa565b5f6001600160c01b038211156113e6576040516306dfcc6560e41b815260c06004820152602481018390526044016113aa565b5f6001600160e81b038211156113e6576040516306dfcc6560e41b815260e86004820152602481018390526044016113aa565b80600381900b81146113b35760405163327269a760e01b815260206004820152602481018390526044016113aa565b80600e81900b81146113b35760405163327269a760e01b815260786004820152602481018390526044016113aa565b5f6001600160b01b038211156113e6576040516306dfcc6560e41b815260b06004820152602481018390526044016113aa565b5f6001600160b81b038211156113e6576040516306dfcc6560e41b815260b86004820152602481018390526044016113aa565b80600d81900b81146113b35760405163327269a760e01b815260706004820152602481018390526044016113aa565b5f6001600160d81b038211156113e6576040516306dfcc6560e41b815260d86004820152602481018390526044016113aa565b5f67ffffffffffffffff8211156113e657604080516306dfcc6560e41b81526004810191909152602481018390526044016113aa565b80600f81900b81146113b35760405163327269a760e01b815260806004820152602481018390526044016113aa565b5f6bffffffffffffffffffffffff8211156113e6576040516306dfcc6560e41b815260606004820152602481018390526044016113aa565b5f6001600160d01b038211156113e6576040516306dfcc6560e41b815260d06004820152602481018390526044016113aa565b80600b81900b81146113b35760405163327269a760e01b815260606004820152602481018390526044016113aa565b80601581900b81146113b35760405163327269a760e01b815260b06004820152602481018390526044016113aa565b5f6001600160a01b038211156113e6576040516306dfcc6560e41b815260a06004820152602481018390526044016113aa565b5f808212156113e657604051635467221960e11b8152600481018390526024016113aa565b5f6affffffffffffffffffffff8211156113e6576040516306dfcc6560e41b815260586004820152602481018390526044016113aa565b80601881900b81146113b35760405163327269a760e01b815260c86004820152602481018390526044016113aa565b805f81900b81146113b35760405163327269a760e01b815260086004820152602481018390526044016113aa565b5f6001600160901b038211156113e6576040516306dfcc6560e41b815260906004820152602481018390526044016113aa565b5f6001600160a81b038211156113e6576040516306dfcc6560e41b815260a86004820152602481018390526044016113aa565b80600181900b81146113b35760405163327269a760e01b815260106004820152602481018390526044016113aa565b5f6001600160981b038211156113e6576040516306dfcc6560e41b815260986004820152602481018390526044016113aa565b5f65ffffffffffff8211156113e6576040516306dfcc6560e41b815260306004820152602481018390526044016113aa565b80601181900b81146113b35760405163327269a760e01b815260906004820152602481018390526044016113aa565b5f64ffffffffff8211156113e6576040516306dfcc6560e41b815260286004820152602481018390526044016113aa565b80601481900b81146113b35760405163327269a760e01b815260a86004820152602481018390526044016113aa565b80600581900b81146113b35760405163327269a760e01b815260306004820152602481018390526044016113aa565b5f60208284031215611fcd575f80fd5b503591905056fea2646970667358221220e3851ff51ebdf0cfe982ca1cf9b49303818dfea7aa5c2b4d9d609f5174a35f0f64736f6c63430008140033",
  "linkReferences": {},
  "deployedLinkReferences": {}
}