{
  "_format": "hh-sol-artifact-1",
  "contractName": "$VotesTimestampMock",
  "sourceName": "contracts-exposed/mocks/VotesMock.sol",
  "abi": [
    {
      "inputs": [
        {
          "internalType": "string",
          "name": "name",
          "type": "string"
        },
        {
          "internalType": "string",
          "name": "version",
          "type": "string"
        }
      ],
      "stateMutability": "payable",
      "type": "constructor"
    },
    {
      "inputs": [],
      "name": "CheckpointUnorderedInsertion",
      "type": "error"
    },
    {
      "inputs": [],
      "name": "ECDSAInvalidSignature",
      "type": "error"
    },
    {
      "inputs": [
        {
          "internalType": "uint256",
          "name": "length",
          "type": "uint256"
        }
      ],
      "name": "ECDSAInvalidSignatureLength",
      "type": "error"
    },
    {
      "inputs": [
        {
          "internalType": "bytes32",
          "name": "s",
          "type": "bytes32"
        }
      ],
      "name": "ECDSAInvalidSignatureS",
      "type": "error"
    },
    {
      "inputs": [
        {
          "internalType": "uint256",
          "name": "timepoint",
          "type": "uint256"
        },
        {
          "internalType": "uint48",
          "name": "clock",
          "type": "uint48"
        }
      ],
      "name": "ERC5805FutureLookup",
      "type": "error"
    },
    {
      "inputs": [],
      "name": "ERC6372InconsistentClock",
      "type": "error"
    },
    {
      "inputs": [
        {
          "internalType": "address",
          "name": "account",
          "type": "address"
        },
        {
          "internalType": "uint256",
          "name": "currentNonce",
          "type": "uint256"
        }
      ],
      "name": "InvalidAccountNonce",
      "type": "error"
    },
    {
      "inputs": [],
      "name": "InvalidShortString",
      "type": "error"
    },
    {
      "inputs": [
        {
          "internalType": "uint8",
          "name": "bits",
          "type": "uint8"
        },
        {
          "internalType": "uint256",
          "name": "value",
          "type": "uint256"
        }
      ],
      "name": "SafeCastOverflowedUintDowncast",
      "type": "error"
    },
    {
      "inputs": [
        {
          "internalType": "string",
          "name": "str",
          "type": "string"
        }
      ],
      "name": "StringTooLong",
      "type": "error"
    },
    {
      "inputs": [
        {
          "internalType": "uint256",
          "name": "expiry",
          "type": "uint256"
        }
      ],
      "name": "VotesExpiredSignature",
      "type": "error"
    },
    {
      "anonymous": false,
      "inputs": [
        {
          "indexed": true,
          "internalType": "address",
          "name": "delegator",
          "type": "address"
        },
        {
          "indexed": true,
          "internalType": "address",
          "name": "fromDelegate",
          "type": "address"
        },
        {
          "indexed": true,
          "internalType": "address",
          "name": "toDelegate",
          "type": "address"
        }
      ],
      "name": "DelegateChanged",
      "type": "event"
    },
    {
      "anonymous": false,
      "inputs": [
        {
          "indexed": true,
          "internalType": "address",
          "name": "delegate",
          "type": "address"
        },
        {
          "indexed": false,
          "internalType": "uint256",
          "name": "previousVotes",
          "type": "uint256"
        },
        {
          "indexed": false,
          "internalType": "uint256",
          "name": "newVotes",
          "type": "uint256"
        }
      ],
      "name": "DelegateVotesChanged",
      "type": "event"
    },
    {
      "anonymous": false,
      "inputs": [],
      "name": "EIP712DomainChanged",
      "type": "event"
    },
    {
      "anonymous": false,
      "inputs": [
        {
          "indexed": false,
          "internalType": "uint256",
          "name": "ret0",
          "type": "uint256"
        }
      ],
      "name": "return$_useCheckedNonce",
      "type": "event"
    },
    {
      "anonymous": false,
      "inputs": [
        {
          "indexed": false,
          "internalType": "uint256",
          "name": "ret0",
          "type": "uint256"
        }
      ],
      "name": "return$_useNonce",
      "type": "event"
    },
    {
      "inputs": [],
      "name": "$_EIP712Name",
      "outputs": [
        {
          "internalType": "string",
          "name": "ret0",
          "type": "string"
        }
      ],
      "stateMutability": "view",
      "type": "function"
    },
    {
      "inputs": [],
      "name": "$_EIP712Version",
      "outputs": [
        {
          "internalType": "string",
          "name": "ret0",
          "type": "string"
        }
      ],
      "stateMutability": "view",
      "type": "function"
    },
    {
      "inputs": [
        {
          "internalType": "address",
          "name": "account",
          "type": "address"
        },
        {
          "internalType": "uint256",
          "name": "votes",
          "type": "uint256"
        }
      ],
      "name": "$_burn",
      "outputs": [],
      "stateMutability": "nonpayable",
      "type": "function"
    },
    {
      "inputs": [
        {
          "internalType": "address",
          "name": "account",
          "type": "address"
        },
        {
          "internalType": "uint32",
          "name": "pos",
          "type": "uint32"
        }
      ],
      "name": "$_checkpoints",
      "outputs": [
        {
          "components": [
            {
              "internalType": "uint32",
              "name": "_key",
              "type": "uint32"
            },
            {
              "internalType": "uint224",
              "name": "_value",
              "type": "uint224"
            }
          ],
          "internalType": "struct Checkpoints.Checkpoint224",
          "name": "ret0",
          "type": "tuple"
        }
      ],
      "stateMutability": "view",
      "type": "function"
    },
    {
      "inputs": [
        {
          "internalType": "address",
          "name": "account",
          "type": "address"
        },
        {
          "internalType": "address",
          "name": "delegatee",
          "type": "address"
        }
      ],
      "name": "$_delegate",
      "outputs": [],
      "stateMutability": "nonpayable",
      "type": "function"
    },
    {
      "inputs": [],
      "name": "$_domainSeparatorV4",
      "outputs": [
        {
          "internalType": "bytes32",
          "name": "ret0",
          "type": "bytes32"
        }
      ],
      "stateMutability": "view",
      "type": "function"
    },
    {
      "inputs": [],
      "name": "$_getTotalSupply",
      "outputs": [
        {
          "internalType": "uint256",
          "name": "ret0",
          "type": "uint256"
        }
      ],
      "stateMutability": "view",
      "type": "function"
    },
    {
      "inputs": [
        {
          "internalType": "address",
          "name": "account",
          "type": "address"
        }
      ],
      "name": "$_getVotingUnits",
      "outputs": [
        {
          "internalType": "uint256",
          "name": "ret0",
          "type": "uint256"
        }
      ],
      "stateMutability": "view",
      "type": "function"
    },
    {
      "inputs": [
        {
          "internalType": "bytes32",
          "name": "structHash",
          "type": "bytes32"
        }
      ],
      "name": "$_hashTypedDataV4",
      "outputs": [
        {
          "internalType": "bytes32",
          "name": "ret0",
          "type": "bytes32"
        }
      ],
      "stateMutability": "view",
      "type": "function"
    },
    {
      "inputs": [
        {
          "internalType": "address",
          "name": "account",
          "type": "address"
        },
        {
          "internalType": "uint256",
          "name": "votes",
          "type": "uint256"
        }
      ],
      "name": "$_mint",
      "outputs": [],
      "stateMutability": "nonpayable",
      "type": "function"
    },
    {
      "inputs": [],
      "name": "$_msgData",
      "outputs": [
        {
          "internalType": "bytes",
          "name": "ret0",
          "type": "bytes"
        }
      ],
      "stateMutability": "view",
      "type": "function"
    },
    {
      "inputs": [],
      "name": "$_msgSender",
      "outputs": [
        {
          "internalType": "address",
          "name": "ret0",
          "type": "address"
        }
      ],
      "stateMutability": "view",
      "type": "function"
    },
    {
      "inputs": [
        {
          "internalType": "address",
          "name": "account",
          "type": "address"
        }
      ],
      "name": "$_numCheckpoints",
      "outputs": [
        {
          "internalType": "uint32",
          "name": "ret0",
          "type": "uint32"
        }
      ],
      "stateMutability": "view",
      "type": "function"
    },
    {
      "inputs": [
        {
          "internalType": "address",
          "name": "from",
          "type": "address"
        },
        {
          "internalType": "address",
          "name": "to",
          "type": "address"
        },
        {
          "internalType": "uint256",
          "name": "amount",
          "type": "uint256"
        }
      ],
      "name": "$_transferVotingUnits",
      "outputs": [],
      "stateMutability": "nonpayable",
      "type": "function"
    },
    {
      "inputs": [
        {
          "internalType": "address",
          "name": "owner",
          "type": "address"
        },
        {
          "internalType": "uint256",
          "name": "nonce",
          "type": "uint256"
        }
      ],
      "name": "$_useCheckedNonce",
      "outputs": [
        {
          "internalType": "uint256",
          "name": "ret0",
          "type": "uint256"
        }
      ],
      "stateMutability": "nonpayable",
      "type": "function"
    },
    {
      "inputs": [
        {
          "internalType": "address",
          "name": "owner",
          "type": "address"
        }
      ],
      "name": "$_useNonce",
      "outputs": [
        {
          "internalType": "uint256",
          "name": "ret0",
          "type": "uint256"
        }
      ],
      "stateMutability": "nonpayable",
      "type": "function"
    },
    {
      "inputs": [],
      "name": "CLOCK_MODE",
      "outputs": [
        {
          "internalType": "string",
          "name": "",
          "type": "string"
        }
      ],
      "stateMutability": "view",
      "type": "function"
    },
    {
      "inputs": [],
      "name": "__hh_exposed_bytecode_marker",
      "outputs": [
        {
          "internalType": "bytes32",
          "name": "",
          "type": "bytes32"
        }
      ],
      "stateMutability": "view",
      "type": "function"
    },
    {
      "inputs": [],
      "name": "clock",
      "outputs": [
        {
          "internalType": "uint48",
          "name": "",
          "type": "uint48"
        }
      ],
      "stateMutability": "view",
      "type": "function"
    },
    {
      "inputs": [
        {
          "internalType": "address",
          "name": "delegatee",
          "type": "address"
        }
      ],
      "name": "delegate",
      "outputs": [],
      "stateMutability": "nonpayable",
      "type": "function"
    },
    {
      "inputs": [
        {
          "internalType": "address",
          "name": "account",
          "type": "address"
        },
        {
          "internalType": "address",
          "name": "newDelegation",
          "type": "address"
        }
      ],
      "name": "delegate",
      "outputs": [],
      "stateMutability": "nonpayable",
      "type": "function"
    },
    {
      "inputs": [
        {
          "internalType": "address",
          "name": "delegatee",
          "type": "address"
        },
        {
          "internalType": "uint256",
          "name": "nonce",
          "type": "uint256"
        },
        {
          "internalType": "uint256",
          "name": "expiry",
          "type": "uint256"
        },
        {
          "internalType": "uint8",
          "name": "v",
          "type": "uint8"
        },
        {
          "internalType": "bytes32",
          "name": "r",
          "type": "bytes32"
        },
        {
          "internalType": "bytes32",
          "name": "s",
          "type": "bytes32"
        }
      ],
      "name": "delegateBySig",
      "outputs": [],
      "stateMutability": "nonpayable",
      "type": "function"
    },
    {
      "inputs": [
        {
          "internalType": "address",
          "name": "account",
          "type": "address"
        }
      ],
      "name": "delegates",
      "outputs": [
        {
          "internalType": "address",
          "name": "",
          "type": "address"
        }
      ],
      "stateMutability": "view",
      "type": "function"
    },
    {
      "inputs": [],
      "name": "eip712Domain",
      "outputs": [
        {
          "internalType": "bytes1",
          "name": "fields",
          "type": "bytes1"
        },
        {
          "internalType": "string",
          "name": "name",
          "type": "string"
        },
        {
          "internalType": "string",
          "name": "version",
          "type": "string"
        },
        {
          "internalType": "uint256",
          "name": "chainId",
          "type": "uint256"
        },
        {
          "internalType": "address",
          "name": "verifyingContract",
          "type": "address"
        },
        {
          "internalType": "bytes32",
          "name": "salt",
          "type": "bytes32"
        },
        {
          "internalType": "uint256[]",
          "name": "extensions",
          "type": "uint256[]"
        }
      ],
      "stateMutability": "view",
      "type": "function"
    },
    {
      "inputs": [
        {
          "internalType": "uint256",
          "name": "timepoint",
          "type": "uint256"
        }
      ],
      "name": "getPastTotalSupply",
      "outputs": [
        {
          "internalType": "uint256",
          "name": "",
          "type": "uint256"
        }
      ],
      "stateMutability": "view",
      "type": "function"
    },
    {
      "inputs": [
        {
          "internalType": "address",
          "name": "account",
          "type": "address"
        },
        {
          "internalType": "uint256",
          "name": "timepoint",
          "type": "uint256"
        }
      ],
      "name": "getPastVotes",
      "outputs": [
        {
          "internalType": "uint256",
          "name": "",
          "type": "uint256"
        }
      ],
      "stateMutability": "view",
      "type": "function"
    },
    {
      "inputs": [],
      "name": "getTotalSupply",
      "outputs": [
        {
          "internalType": "uint256",
          "name": "",
          "type": "uint256"
        }
      ],
      "stateMutability": "view",
      "type": "function"
    },
    {
      "inputs": [
        {
          "internalType": "address",
          "name": "account",
          "type": "address"
        }
      ],
      "name": "getVotes",
      "outputs": [
        {
          "internalType": "uint256",
          "name": "",
          "type": "uint256"
        }
      ],
      "stateMutability": "view",
      "type": "function"
    },
    {
      "inputs": [
        {
          "internalType": "address",
          "name": "owner",
          "type": "address"
        }
      ],
      "name": "nonces",
      "outputs": [
        {
          "internalType": "uint256",
          "name": "",
          "type": "uint256"
        }
      ],
      "stateMutability": "view",
      "type": "function"
    },
    {
      "stateMutability": "payable",
      "type": "receive"
    }
  ],
  "bytecode": "0x61016060405260405162001f0238038062001f0283398101604081905262000027916200022e565b818162000035825f620000e5565b6101205262000046816001620000e5565b61014052815160208084019190912060e052815190820120610100524660a052620000d360e05161010051604080517f8b73c3c69bb8fe3d512ecc4cf759cc79239f7b179b0ffacaa9a75d522b39400f60208201529081019290925260608201524660808201523060a08201525f9060c00160405160208183030381529060405280519060200120905090565b60805250503060c05250620004409050565b5f6020835110156200010457620000fc836200011d565b905062000117565b8162000111848262000320565b5060ff90505b92915050565b5f80829050601f8151111562000153578260405163305a27a960e01b81526004016200014a9190620003e8565b60405180910390fd5b805162000160826200041c565b179392505050565b634e487b7160e01b5f52604160045260245ffd5b5f5b83811015620001985781810151838201526020016200017e565b50505f910152565b5f82601f830112620001b0575f80fd5b81516001600160401b0380821115620001cd57620001cd62000168565b604051601f8301601f19908116603f01168101908282118183101715620001f857620001f862000168565b8160405283815286602085880101111562000211575f80fd5b620002248460208301602089016200017c565b9695505050505050565b5f806040838503121562000240575f80fd5b82516001600160401b038082111562000257575f80fd5b6200026586838701620001a0565b935060208501519150808211156200027b575f80fd5b506200028a85828601620001a0565b9150509250929050565b600181811c90821680620002a957607f821691505b602082108103620002c857634e487b7160e01b5f52602260045260245ffd5b50919050565b601f8211156200031b575f81815260208120601f850160051c81016020861015620002f65750805b601f850160051c820191505b81811015620003175782815560010162000302565b5050505b505050565b81516001600160401b038111156200033c576200033c62000168565b62000354816200034d845462000294565b84620002ce565b602080601f8311600181146200038a575f8415620003725750858301515b5f19600386901b1c1916600185901b17855562000317565b5f85815260208120601f198616915b82811015620003ba5788860151825594840194600190910190840162000399565b5085821015620003d857878501515f19600388901b60f8161c191681555b5050505050600190811b01905550565b602081525f8251806020840152620004088160408501602087016200017c565b601f01601f19169190910160400192915050565b80516020808301519190811015620002c8575f1960209190910360031b1b16919050565b60805160a05160c05160e051610100516101205161014051611a70620004925f395f6109fe01525f6109d201525f610c9e01525f610c7601525f610bd101525f610bfb01525f610c250152611a705ff3fe6080604052600436106101bc575f3560e01c80635f8d5e74116100f257806391ddadf411610092578063c4e41b2211610062578063c4e41b2214610326578063cc461d6214610524578063d41ecac314610543578063e047838d14610577575f80fd5b806391ddadf4146104a55780639ab24eb0146104c7578063b3068e41146104e6578063c3cda52014610505575f80fd5b80637ecebe00116100cd5780637ecebe001461042b57806384b0196e1461045f5780638ab65686146101c75780638e539e8c14610486575f80fd5b80635f8d5e74146103af57806361f5b530146103c35780636b4ac5021461040c575f80fd5b80633a46b1a81161015d578063535de33411610138578063535de33414610326578063587cde1e1461033a5780635b28e1e8146103715780635c19a95c14610390575f80fd5b80633a46b1a8146102b25780634bf5d7e9146102d1578063506a6f0c14610307575f80fd5b80632904df29116101985780632904df29146102265780632e8fbee51461024c57806332cadf3c14610279578063342db7391461028d575f80fd5b8062cae220146101c75780631164d13b146101e8578063174ccd8214610212575f80fd5b366101c357005b5f80fd5b3480156101d2575f80fd5b506101e66101e13660046116e3565b610596565b005b3480156101f3575f80fd5b506101fc6105a4565b6040516102099190611757565b60405180910390f35b34801561021d575f80fd5b506101fc6105b3565b348015610231575f80fd5b50335b6040516001600160a01b039091168152602001610209565b348015610257575f80fd5b5061026b610266366004611769565b6105bd565b604051908152602001610209565b348015610284575f80fd5b506101fc61061d565b348015610298575f80fd5b5061026b6e1a185c991a185d0b595e1c1bdcd959608a1b81565b3480156102bd575f80fd5b5061026b6102cc366004611782565b61065a565b3480156102dc575f80fd5b5060408051808201909152600e81526d06d6f64653d74696d657374616d760941b60208201526101fc565b348015610312575f80fd5b5061026b6103213660046117aa565b6106d6565b348015610331575f80fd5b5061026b6106e0565b348015610345575f80fd5b50610234610354366004611769565b6001600160a01b039081165f908152600360205260409020541690565b34801561037c575f80fd5b506101e661038b3660046117c1565b6106e9565b34801561039b575f80fd5b506101e66103aa366004611769565b6106f9565b3480156103ba575f80fd5b5061026b610704565b3480156103ce575f80fd5b506103e26103dd3660046117fa565b61070d565b60408051825163ffffffff1681526020928301516001600160e01b03169281019290925201610209565b348015610417575f80fd5b5061026b610426366004611782565b610731565b348015610436575f80fd5b5061026b610445366004611769565b6001600160a01b03165f9081526002602052604090205490565b34801561046a575f80fd5b5061047361077d565b6040516102099796959493929190611837565b348015610491575f80fd5b5061026b6104a03660046117aa565b6107bf565b3480156104b0575f80fd5b5060405165ffffffffffff42168152602001610209565b3480156104d2575f80fd5b5061026b6104e1366004611769565b61081e565b3480156104f1575f80fd5b5061026b610500366004611769565b61084d565b348015610510575f80fd5b506101e661051f3660046118cb565b61086a565b34801561052f575f80fd5b506101e661053e366004611782565b610927565b34801561054e575f80fd5b5061056261055d366004611769565b610931565b60405163ffffffff9091168152602001610209565b348015610582575f80fd5b506101e6610591366004611782565b61093b565b6105a08282610945565b5050565b60606105ae6109cb565b905090565b60606105ae6109f7565b6001600160a01b0381165f90815260026020526040812080546001810190915590507f8d5c13b1cd528a3e1895fdc833368c4e3af5391250c736a28e94c4fa59b3cee48160405161061091815260200190565b60405180910390a1919050565b60605f368080601f0160208091040260200160405190810160405280939291908181526020018383808284375f9201919091525092949350505050565b5f4265ffffffffffff8116831061069a57604051637669fc0f60e11b81526004810184905265ffffffffffff821660248201526044015b60405180910390fd5b6106c36106a684610a24565b6001600160a01b0386165f90815260046020526040902090610a58565b6001600160e01b03169150505b92915050565b5f6106d082610b06565b5f6105ae610b32565b6106f4838383610b4b565b505050565b336105a08183610945565b5f6105ae610bc5565b604080518082019091525f808252602082015261072a8383610cee565b9392505050565b5f61073c8383610d22565b90507f173c6dfbda204d89ae7b46789365591384ef0c959833564582f96cd15f445b9b8160405161076f91815260200190565b60405180910390a192915050565b5f6060805f805f606061078e6109cb565b6107966109f7565b604080515f80825260208201909252600f60f81b9b939a50919850469750309650945092509050565b5f4265ffffffffffff811683106107fa57604051637669fc0f60e11b81526004810184905265ffffffffffff82166024820152604401610691565b61080e61080684610a24565b600590610a58565b6001600160e01b03169392505050565b6001600160a01b0381165f90815260046020526040812061083e90610d74565b6001600160e01b031692915050565b6001600160a01b0381165f908152600660205260408120546106d0565b8342111561088e57604051632341d78760e11b815260048101859052602401610691565b604080517fe48329057bfd03d55e49b547132e39cffd9c1820ad7b9d4c5307691425d15adf60208201526001600160a01b0388169181019190915260608101869052608081018590525f90610907906108ff9060a00160405160208183030381529060405280519060200120610b06565b858585610dab565b90506109138187610d22565b5061091e8188610945565b50505050505050565b6105a08282610dd7565b5f6106d082610e0f565b6105a08282610e30565b6001600160a01b038281165f8181526003602052604080822080548686166001600160a01b0319821681179092559151919094169392849290917f3134e8a2e6d97e929a7e54011ea5485d7d196dd5f0ba4d4ef95803e8e3fc257f9190a46106f481836109c6866001600160a01b03165f9081526006602052604090205490565b610e68565b60606105ae7f00000000000000000000000000000000000000000000000000000000000000005f610fcc565b60606105ae7f00000000000000000000000000000000000000000000000000000000000000006001610fcc565b5f63ffffffff821115610a54576040516306dfcc6560e41b81526020600482015260248101839052604401610691565b5090565b81545f9081816005811115610ab2575f610a7184611075565b610a7b908561193a565b5f8881526020902090915081015463ffffffff9081169087161015610aa257809150610ab0565b610aad81600161194d565b92505b505b5f610abf87878585611159565b90508015610af957610ae387610ad660018461193a565b5f91825260209091200190565b54600160201b90046001600160e01b0316610afb565b5f5b979650505050505050565b5f6106d0610b12610bc5565b8360405161190160f01b8152600281019290925260228201526042902090565b5f610b3d6005610d74565b6001600160e01b0316905090565b6001600160a01b038316610b7257610b6f60056111b4610b6a846111bf565b6111f2565b50505b6001600160a01b038216610b9457610b916005611233610b6a846111bf565b50505b6001600160a01b038381165f908152600360205260408082205485841683529120546106f492918216911683610e68565b5f306001600160a01b037f000000000000000000000000000000000000000000000000000000000000000016148015610c1d57507f000000000000000000000000000000000000000000000000000000000000000046145b15610c4757507f000000000000000000000000000000000000000000000000000000000000000090565b6105ae604080517f8b73c3c69bb8fe3d512ecc4cf759cc79239f7b179b0ffacaa9a75d522b39400f60208201527f0000000000000000000000000000000000000000000000000000000000000000918101919091527f000000000000000000000000000000000000000000000000000000000000000060608201524660808201523060a08201525f9060c00160405160208183030381529060405280519060200120905090565b604080518082019091525f80825260208201526001600160a01b0383165f90815260046020526040902061072a908361123e565b6001600160a01b0382165f90815260026020526040812080546001810190915580831461072a576040516301d4b62360e61b81526001600160a01b038516600482015260248101829052604401610691565b80545f908015610da357610d8d83610ad660018461193a565b54600160201b90046001600160e01b031661072a565b5f9392505050565b5f805f80610dbb888888886112a9565b925092509250610dcb8282611371565b50909695505050505050565b6001600160a01b0382165f9081526006602052604081208054839290610dfe90849061194d565b909155506105a090505f8383610b4b565b6001600160a01b0381165f908152600460205260408120546106d090610a24565b6001600160a01b0382165f9081526006602052604081208054839290610e5790849061194d565b909155506105a09050825f83610b4b565b816001600160a01b0316836001600160a01b031614158015610e8957505f81115b156106f4576001600160a01b03831615610f2b576001600160a01b0383165f9081526004602052604081208190610ec690611233610b6a866111bf565b6001600160e01b031691506001600160e01b03169150846001600160a01b03167fdec2bacdd2f05b59de34da9b523dff8be42e5e38e818c82fdb0bae774387a7248383604051610f20929190918252602082015260400190565b60405180910390a250505b6001600160a01b038216156106f4576001600160a01b0382165f9081526004602052604081208190610f63906111b4610b6a866111bf565b6001600160e01b031691506001600160e01b03169150836001600160a01b03167fdec2bacdd2f05b59de34da9b523dff8be42e5e38e818c82fdb0bae774387a7248383604051610fbd929190918252602082015260400190565b60405180910390a25050505050565b606060ff8314610fe657610fdf83611429565b90506106d0565b818054610ff290611960565b80601f016020809104026020016040519081016040528092919081815260200182805461101e90611960565b80156110695780601f1061104057610100808354040283529160200191611069565b820191905f5260205f20905b81548152906001019060200180831161104c57829003601f168201915b505050505090506106d0565b5f815f0361108457505f919050565b5f600161109084611466565b901c6001901b905060018184816110a9576110a9611998565b048201901c905060018184816110c1576110c1611998565b048201901c905060018184816110d9576110d9611998565b048201901c905060018184816110f1576110f1611998565b048201901c9050600181848161110957611109611998565b048201901c9050600181848161112157611121611998565b048201901c9050600181848161113957611139611998565b048201901c905061072a8182858161115357611153611998565b046114f9565b5f5b818310156111ac575f61116e848461150e565b5f8781526020902090915063ffffffff86169082015463ffffffff161115611198578092506111a6565b6111a381600161194d565b93505b5061115b565b509392505050565b5f61072a82846119ac565b5f6001600160e01b03821115610a54576040516306dfcc6560e41b815260e0600482015260248101839052604401610691565b5f806112266112084265ffffffffffff16610a24565b61121e61121488610d74565b868863ffffffff16565b879190611528565b915091505b935093915050565b5f61072a82846119d3565b604080518082019091525f8082526020820152825f018263ffffffff168154811061126b5761126b6119f3565b5f9182526020918290206040805180820190915291015463ffffffff81168252600160201b90046001600160e01b0316918101919091529392505050565b5f80807f7fffffffffffffffffffffffffffffff5d576e7357a4501ddfe92f46681b20a08411156112e257505f91506003905082611367565b604080515f808252602082018084528a905260ff891692820192909252606081018790526080810186905260019060a0016020604051602081039080840390855afa158015611333573d5f803e3d5ffd5b5050604051601f1901519150506001600160a01b03811661135e57505f925060019150829050611367565b92505f91508190505b9450945094915050565b5f82600381111561138457611384611a07565b0361138d575050565b60018260038111156113a1576113a1611a07565b036113bf5760405163f645eedf60e01b815260040160405180910390fd5b60028260038111156113d3576113d3611a07565b036113f45760405163fce698f760e01b815260048101829052602401610691565b600382600381111561140857611408611a07565b036105a0576040516335e2f38360e21b815260048101829052602401610691565b60605f61143583611535565b6040805160208082528183019092529192505f91906020820181803683375050509182525060208101929092525090565b5f80608083901c1561147a57608092831c92015b604083901c1561148c57604092831c92015b602083901c1561149e57602092831c92015b601083901c156114b057601092831c92015b600883901c156114c257600892831c92015b600483901c156114d457600492831c92015b600283901c156114e657600292831c92015b600183901c156106d05760010192915050565b5f818310611507578161072a565b5090919050565b5f61151c6002848418611a1b565b61072a9084841661194d565b5f8061122685858561155c565b5f60ff8216601f8111156106d057604051632cd44ac360e21b815260040160405180910390fd5b82545f9081908015611670575f61157887610ad660018561193a565b60408051808201909152905463ffffffff808216808452600160201b9092046001600160e01b0316602084015291925090871610156115ca57604051632520601d60e01b815260040160405180910390fd5b805163ffffffff80881691160361161257846115eb88610ad660018661193a565b80546001600160e01b0392909216600160201b0263ffffffff909216919091179055611660565b6040805180820190915263ffffffff80881682526001600160e01b0380881660208085019182528b54600181018d555f8d81529190912094519151909216600160201b029216919091179101555b60200151925083915061122b9050565b50506040805180820190915263ffffffff80851682526001600160e01b0380851660208085019182528854600181018a555f8a815291822095519251909316600160201b02919093161792019190915590508161122b565b80356001600160a01b03811681146116de575f80fd5b919050565b5f80604083850312156116f4575f80fd5b6116fd836116c8565b915061170b602084016116c8565b90509250929050565b5f81518084525f5b818110156117385760208185018101518683018201520161171c565b505f602082860101526020601f19601f83011685010191505092915050565b602081525f61072a6020830184611714565b5f60208284031215611779575f80fd5b61072a826116c8565b5f8060408385031215611793575f80fd5b61179c836116c8565b946020939093013593505050565b5f602082840312156117ba575f80fd5b5035919050565b5f805f606084860312156117d3575f80fd5b6117dc846116c8565b92506117ea602085016116c8565b9150604084013590509250925092565b5f806040838503121561180b575f80fd5b611814836116c8565b9150602083013563ffffffff8116811461182c575f80fd5b809150509250929050565b60ff60f81b881681525f602060e08184015261185660e084018a611714565b8381036040850152611868818a611714565b606085018990526001600160a01b038816608086015260a0850187905284810360c086015285518082528387019250908301905f5b818110156118b95783518352928401929184019160010161189d565b50909c9b505050505050505050505050565b5f805f805f8060c087890312156118e0575f80fd5b6118e9876116c8565b95506020870135945060408701359350606087013560ff8116811461190c575f80fd5b9598949750929560808101359460a0909101359350915050565b634e487b7160e01b5f52601160045260245ffd5b818103818111156106d0576106d0611926565b808201808211156106d0576106d0611926565b600181811c9082168061197457607f821691505b60208210810361199257634e487b7160e01b5f52602260045260245ffd5b50919050565b634e487b7160e01b5f52601260045260245ffd5b6001600160e01b038181168382160190808211156119cc576119cc611926565b5092915050565b6001600160e01b038281168282160390808211156119cc576119cc611926565b634e487b7160e01b5f52603260045260245ffd5b634e487b7160e01b5f52602160045260245ffd5b5f82611a3557634e487b7160e01b5f52601260045260245ffd5b50049056fea26469706673582212201502418d8ac0071ae022bae93bb1d10405645c5c19d516b33761185c6a2878a764736f6c63430008140033",
  "linkReferences": {},
  "deployedLinkReferences": {}
}