{
  "_format": "hh-sol-artifact-1",
  "contractName": "$VotesMock",
  "sourceName": "contracts-exposed/mocks/VotesMock.sol",
  "abi": [
    {
      "inputs": [
        {
          "internalType": "string",
          "name": "name",
          "type": "string"
        },
        {
          "internalType": "string",
          "name": "version",
          "type": "string"
        }
      ],
      "stateMutability": "payable",
      "type": "constructor"
    },
    {
      "inputs": [],
      "name": "CheckpointUnorderedInsertion",
      "type": "error"
    },
    {
      "inputs": [],
      "name": "ECDSAInvalidSignature",
      "type": "error"
    },
    {
      "inputs": [
        {
          "internalType": "uint256",
          "name": "length",
          "type": "uint256"
        }
      ],
      "name": "ECDSAInvalidSignatureLength",
      "type": "error"
    },
    {
      "inputs": [
        {
          "internalType": "bytes32",
          "name": "s",
          "type": "bytes32"
        }
      ],
      "name": "ECDSAInvalidSignatureS",
      "type": "error"
    },
    {
      "inputs": [
        {
          "internalType": "uint256",
          "name": "timepoint",
          "type": "uint256"
        },
        {
          "internalType": "uint48",
          "name": "clock",
          "type": "uint48"
        }
      ],
      "name": "ERC5805FutureLookup",
      "type": "error"
    },
    {
      "inputs": [],
      "name": "ERC6372InconsistentClock",
      "type": "error"
    },
    {
      "inputs": [
        {
          "internalType": "address",
          "name": "account",
          "type": "address"
        },
        {
          "internalType": "uint256",
          "name": "currentNonce",
          "type": "uint256"
        }
      ],
      "name": "InvalidAccountNonce",
      "type": "error"
    },
    {
      "inputs": [],
      "name": "InvalidShortString",
      "type": "error"
    },
    {
      "inputs": [
        {
          "internalType": "uint8",
          "name": "bits",
          "type": "uint8"
        },
        {
          "internalType": "uint256",
          "name": "value",
          "type": "uint256"
        }
      ],
      "name": "SafeCastOverflowedUintDowncast",
      "type": "error"
    },
    {
      "inputs": [
        {
          "internalType": "string",
          "name": "str",
          "type": "string"
        }
      ],
      "name": "StringTooLong",
      "type": "error"
    },
    {
      "inputs": [
        {
          "internalType": "uint256",
          "name": "expiry",
          "type": "uint256"
        }
      ],
      "name": "VotesExpiredSignature",
      "type": "error"
    },
    {
      "anonymous": false,
      "inputs": [
        {
          "indexed": true,
          "internalType": "address",
          "name": "delegator",
          "type": "address"
        },
        {
          "indexed": true,
          "internalType": "address",
          "name": "fromDelegate",
          "type": "address"
        },
        {
          "indexed": true,
          "internalType": "address",
          "name": "toDelegate",
          "type": "address"
        }
      ],
      "name": "DelegateChanged",
      "type": "event"
    },
    {
      "anonymous": false,
      "inputs": [
        {
          "indexed": true,
          "internalType": "address",
          "name": "delegate",
          "type": "address"
        },
        {
          "indexed": false,
          "internalType": "uint256",
          "name": "previousVotes",
          "type": "uint256"
        },
        {
          "indexed": false,
          "internalType": "uint256",
          "name": "newVotes",
          "type": "uint256"
        }
      ],
      "name": "DelegateVotesChanged",
      "type": "event"
    },
    {
      "anonymous": false,
      "inputs": [],
      "name": "EIP712DomainChanged",
      "type": "event"
    },
    {
      "anonymous": false,
      "inputs": [
        {
          "indexed": false,
          "internalType": "uint256",
          "name": "ret0",
          "type": "uint256"
        }
      ],
      "name": "return$_useCheckedNonce",
      "type": "event"
    },
    {
      "anonymous": false,
      "inputs": [
        {
          "indexed": false,
          "internalType": "uint256",
          "name": "ret0",
          "type": "uint256"
        }
      ],
      "name": "return$_useNonce",
      "type": "event"
    },
    {
      "inputs": [],
      "name": "$_EIP712Name",
      "outputs": [
        {
          "internalType": "string",
          "name": "ret0",
          "type": "string"
        }
      ],
      "stateMutability": "view",
      "type": "function"
    },
    {
      "inputs": [],
      "name": "$_EIP712Version",
      "outputs": [
        {
          "internalType": "string",
          "name": "ret0",
          "type": "string"
        }
      ],
      "stateMutability": "view",
      "type": "function"
    },
    {
      "inputs": [
        {
          "internalType": "address",
          "name": "account",
          "type": "address"
        },
        {
          "internalType": "uint256",
          "name": "votes",
          "type": "uint256"
        }
      ],
      "name": "$_burn",
      "outputs": [],
      "stateMutability": "nonpayable",
      "type": "function"
    },
    {
      "inputs": [
        {
          "internalType": "address",
          "name": "account",
          "type": "address"
        },
        {
          "internalType": "uint32",
          "name": "pos",
          "type": "uint32"
        }
      ],
      "name": "$_checkpoints",
      "outputs": [
        {
          "components": [
            {
              "internalType": "uint32",
              "name": "_key",
              "type": "uint32"
            },
            {
              "internalType": "uint224",
              "name": "_value",
              "type": "uint224"
            }
          ],
          "internalType": "struct Checkpoints.Checkpoint224",
          "name": "ret0",
          "type": "tuple"
        }
      ],
      "stateMutability": "view",
      "type": "function"
    },
    {
      "inputs": [
        {
          "internalType": "address",
          "name": "account",
          "type": "address"
        },
        {
          "internalType": "address",
          "name": "delegatee",
          "type": "address"
        }
      ],
      "name": "$_delegate",
      "outputs": [],
      "stateMutability": "nonpayable",
      "type": "function"
    },
    {
      "inputs": [],
      "name": "$_domainSeparatorV4",
      "outputs": [
        {
          "internalType": "bytes32",
          "name": "ret0",
          "type": "bytes32"
        }
      ],
      "stateMutability": "view",
      "type": "function"
    },
    {
      "inputs": [],
      "name": "$_getTotalSupply",
      "outputs": [
        {
          "internalType": "uint256",
          "name": "ret0",
          "type": "uint256"
        }
      ],
      "stateMutability": "view",
      "type": "function"
    },
    {
      "inputs": [
        {
          "internalType": "address",
          "name": "account",
          "type": "address"
        }
      ],
      "name": "$_getVotingUnits",
      "outputs": [
        {
          "internalType": "uint256",
          "name": "ret0",
          "type": "uint256"
        }
      ],
      "stateMutability": "view",
      "type": "function"
    },
    {
      "inputs": [
        {
          "internalType": "bytes32",
          "name": "structHash",
          "type": "bytes32"
        }
      ],
      "name": "$_hashTypedDataV4",
      "outputs": [
        {
          "internalType": "bytes32",
          "name": "ret0",
          "type": "bytes32"
        }
      ],
      "stateMutability": "view",
      "type": "function"
    },
    {
      "inputs": [
        {
          "internalType": "address",
          "name": "account",
          "type": "address"
        },
        {
          "internalType": "uint256",
          "name": "votes",
          "type": "uint256"
        }
      ],
      "name": "$_mint",
      "outputs": [],
      "stateMutability": "nonpayable",
      "type": "function"
    },
    {
      "inputs": [],
      "name": "$_msgData",
      "outputs": [
        {
          "internalType": "bytes",
          "name": "ret0",
          "type": "bytes"
        }
      ],
      "stateMutability": "view",
      "type": "function"
    },
    {
      "inputs": [],
      "name": "$_msgSender",
      "outputs": [
        {
          "internalType": "address",
          "name": "ret0",
          "type": "address"
        }
      ],
      "stateMutability": "view",
      "type": "function"
    },
    {
      "inputs": [
        {
          "internalType": "address",
          "name": "account",
          "type": "address"
        }
      ],
      "name": "$_numCheckpoints",
      "outputs": [
        {
          "internalType": "uint32",
          "name": "ret0",
          "type": "uint32"
        }
      ],
      "stateMutability": "view",
      "type": "function"
    },
    {
      "inputs": [
        {
          "internalType": "address",
          "name": "from",
          "type": "address"
        },
        {
          "internalType": "address",
          "name": "to",
          "type": "address"
        },
        {
          "internalType": "uint256",
          "name": "amount",
          "type": "uint256"
        }
      ],
      "name": "$_transferVotingUnits",
      "outputs": [],
      "stateMutability": "nonpayable",
      "type": "function"
    },
    {
      "inputs": [
        {
          "internalType": "address",
          "name": "owner",
          "type": "address"
        },
        {
          "internalType": "uint256",
          "name": "nonce",
          "type": "uint256"
        }
      ],
      "name": "$_useCheckedNonce",
      "outputs": [
        {
          "internalType": "uint256",
          "name": "ret0",
          "type": "uint256"
        }
      ],
      "stateMutability": "nonpayable",
      "type": "function"
    },
    {
      "inputs": [
        {
          "internalType": "address",
          "name": "owner",
          "type": "address"
        }
      ],
      "name": "$_useNonce",
      "outputs": [
        {
          "internalType": "uint256",
          "name": "ret0",
          "type": "uint256"
        }
      ],
      "stateMutability": "nonpayable",
      "type": "function"
    },
    {
      "inputs": [],
      "name": "CLOCK_MODE",
      "outputs": [
        {
          "internalType": "string",
          "name": "",
          "type": "string"
        }
      ],
      "stateMutability": "view",
      "type": "function"
    },
    {
      "inputs": [],
      "name": "__hh_exposed_bytecode_marker",
      "outputs": [
        {
          "internalType": "bytes32",
          "name": "",
          "type": "bytes32"
        }
      ],
      "stateMutability": "view",
      "type": "function"
    },
    {
      "inputs": [],
      "name": "clock",
      "outputs": [
        {
          "internalType": "uint48",
          "name": "",
          "type": "uint48"
        }
      ],
      "stateMutability": "view",
      "type": "function"
    },
    {
      "inputs": [
        {
          "internalType": "address",
          "name": "delegatee",
          "type": "address"
        }
      ],
      "name": "delegate",
      "outputs": [],
      "stateMutability": "nonpayable",
      "type": "function"
    },
    {
      "inputs": [
        {
          "internalType": "address",
          "name": "account",
          "type": "address"
        },
        {
          "internalType": "address",
          "name": "newDelegation",
          "type": "address"
        }
      ],
      "name": "delegate",
      "outputs": [],
      "stateMutability": "nonpayable",
      "type": "function"
    },
    {
      "inputs": [
        {
          "internalType": "address",
          "name": "delegatee",
          "type": "address"
        },
        {
          "internalType": "uint256",
          "name": "nonce",
          "type": "uint256"
        },
        {
          "internalType": "uint256",
          "name": "expiry",
          "type": "uint256"
        },
        {
          "internalType": "uint8",
          "name": "v",
          "type": "uint8"
        },
        {
          "internalType": "bytes32",
          "name": "r",
          "type": "bytes32"
        },
        {
          "internalType": "bytes32",
          "name": "s",
          "type": "bytes32"
        }
      ],
      "name": "delegateBySig",
      "outputs": [],
      "stateMutability": "nonpayable",
      "type": "function"
    },
    {
      "inputs": [
        {
          "internalType": "address",
          "name": "account",
          "type": "address"
        }
      ],
      "name": "delegates",
      "outputs": [
        {
          "internalType": "address",
          "name": "",
          "type": "address"
        }
      ],
      "stateMutability": "view",
      "type": "function"
    },
    {
      "inputs": [],
      "name": "eip712Domain",
      "outputs": [
        {
          "internalType": "bytes1",
          "name": "fields",
          "type": "bytes1"
        },
        {
          "internalType": "string",
          "name": "name",
          "type": "string"
        },
        {
          "internalType": "string",
          "name": "version",
          "type": "string"
        },
        {
          "internalType": "uint256",
          "name": "chainId",
          "type": "uint256"
        },
        {
          "internalType": "address",
          "name": "verifyingContract",
          "type": "address"
        },
        {
          "internalType": "bytes32",
          "name": "salt",
          "type": "bytes32"
        },
        {
          "internalType": "uint256[]",
          "name": "extensions",
          "type": "uint256[]"
        }
      ],
      "stateMutability": "view",
      "type": "function"
    },
    {
      "inputs": [
        {
          "internalType": "uint256",
          "name": "timepoint",
          "type": "uint256"
        }
      ],
      "name": "getPastTotalSupply",
      "outputs": [
        {
          "internalType": "uint256",
          "name": "",
          "type": "uint256"
        }
      ],
      "stateMutability": "view",
      "type": "function"
    },
    {
      "inputs": [
        {
          "internalType": "address",
          "name": "account",
          "type": "address"
        },
        {
          "internalType": "uint256",
          "name": "timepoint",
          "type": "uint256"
        }
      ],
      "name": "getPastVotes",
      "outputs": [
        {
          "internalType": "uint256",
          "name": "",
          "type": "uint256"
        }
      ],
      "stateMutability": "view",
      "type": "function"
    },
    {
      "inputs": [],
      "name": "getTotalSupply",
      "outputs": [
        {
          "internalType": "uint256",
          "name": "",
          "type": "uint256"
        }
      ],
      "stateMutability": "view",
      "type": "function"
    },
    {
      "inputs": [
        {
          "internalType": "address",
          "name": "account",
          "type": "address"
        }
      ],
      "name": "getVotes",
      "outputs": [
        {
          "internalType": "uint256",
          "name": "",
          "type": "uint256"
        }
      ],
      "stateMutability": "view",
      "type": "function"
    },
    {
      "inputs": [
        {
          "internalType": "address",
          "name": "owner",
          "type": "address"
        }
      ],
      "name": "nonces",
      "outputs": [
        {
          "internalType": "uint256",
          "name": "",
          "type": "uint256"
        }
      ],
      "stateMutability": "view",
      "type": "function"
    },
    {
      "stateMutability": "payable",
      "type": "receive"
    }
  ],
  "bytecode": "0x61016060405260405162001fa938038062001fa983398101604081905262000027916200022e565b818162000035825f620000e5565b6101205262000046816001620000e5565b61014052815160208084019190912060e052815190820120610100524660a052620000d360e05161010051604080517f8b73c3c69bb8fe3d512ecc4cf759cc79239f7b179b0ffacaa9a75d522b39400f60208201529081019290925260608201524660808201523060a08201525f9060c00160405160208183030381529060405280519060200120905090565b60805250503060c05250620004409050565b5f6020835110156200010457620000fc836200011d565b905062000117565b8162000111848262000320565b5060ff90505b92915050565b5f80829050601f8151111562000153578260405163305a27a960e01b81526004016200014a9190620003e8565b60405180910390fd5b805162000160826200041c565b179392505050565b634e487b7160e01b5f52604160045260245ffd5b5f5b83811015620001985781810151838201526020016200017e565b50505f910152565b5f82601f830112620001b0575f80fd5b81516001600160401b0380821115620001cd57620001cd62000168565b604051601f8301601f19908116603f01168101908282118183101715620001f857620001f862000168565b8160405283815286602085880101111562000211575f80fd5b620002248460208301602089016200017c565b9695505050505050565b5f806040838503121562000240575f80fd5b82516001600160401b038082111562000257575f80fd5b6200026586838701620001a0565b935060208501519150808211156200027b575f80fd5b506200028a85828601620001a0565b9150509250929050565b600181811c90821680620002a957607f821691505b602082108103620002c857634e487b7160e01b5f52602260045260245ffd5b50919050565b601f8211156200031b575f81815260208120601f850160051c81016020861015620002f65750805b601f850160051c820191505b81811015620003175782815560010162000302565b5050505b505050565b81516001600160401b038111156200033c576200033c62000168565b62000354816200034d845462000294565b84620002ce565b602080601f8311600181146200038a575f8415620003725750858301515b5f19600386901b1c1916600185901b17855562000317565b5f85815260208120601f198616915b82811015620003ba5788860151825594840194600190910190840162000399565b5085821015620003d857878501515f19600388901b60f8161c191681555b5050505050600190811b01905550565b602081525f8251806020840152620004088160408501602087016200017c565b601f01601f19169190910160400192915050565b80516020808301519190811015620002c8575f1960209190910360031b1b16919050565b60805160a05160c05160e051610100516101205161014051611b17620004925f395f610a6c01525f610a4001525f610d0c01525f610ce401525f610c3f01525f610c6901525f610c930152611b175ff3fe6080604052600436106101bc575f3560e01c80635f8d5e74116100f257806391ddadf411610092578063c4e41b2211610062578063c4e41b2214610304578063cc461d621461050b578063d41ecac31461052a578063e047838d1461055e575f80fd5b806391ddadf4146104835780639ab24eb0146104ae578063b3068e41146104cd578063c3cda520146104ec575f80fd5b80637ecebe00116100cd5780637ecebe001461040957806384b0196e1461043d5780638ab65686146101c75780638e539e8c14610464575f80fd5b80635f8d5e741461038d57806361f5b530146103a15780636b4ac502146103ea575f80fd5b80633a46b1a81161015d578063535de33411610138578063535de33414610304578063587cde1e146103185780635b28e1e81461034f5780635c19a95c1461036e575f80fd5b80633a46b1a8146102b25780634bf5d7e9146102d1578063506a6f0c146102e5575f80fd5b80632904df29116101985780632904df29146102265780632e8fbee51461024c57806332cadf3c14610279578063342db7391461028d575f80fd5b8062cae220146101c75780631164d13b146101e8578063174ccd8214610212575f80fd5b366101c357005b5f80fd5b3480156101d2575f80fd5b506101e66101e136600461178a565b61057d565b005b3480156101f3575f80fd5b506101fc61058b565b60405161020991906117fe565b60405180910390f35b34801561021d575f80fd5b506101fc61059a565b348015610231575f80fd5b50335b6040516001600160a01b039091168152602001610209565b348015610257575f80fd5b5061026b610266366004611810565b6105a4565b604051908152602001610209565b348015610284575f80fd5b506101fc610604565b348015610298575f80fd5b5061026b6e1a185c991a185d0b595e1c1bdcd959608a1b81565b3480156102bd575f80fd5b5061026b6102cc366004611829565b610641565b3480156102dc575f80fd5b506101fc6106c7565b3480156102f0575f80fd5b5061026b6102ff366004611851565b610730565b34801561030f575f80fd5b5061026b61073a565b348015610323575f80fd5b50610234610332366004611810565b6001600160a01b039081165f908152600360205260409020541690565b34801561035a575f80fd5b506101e6610369366004611868565b610743565b348015610379575f80fd5b506101e6610388366004611810565b610753565b348015610398575f80fd5b5061026b61075e565b3480156103ac575f80fd5b506103c06103bb3660046118a1565b610767565b60408051825163ffffffff1681526020928301516001600160e01b03169281019290925201610209565b3480156103f5575f80fd5b5061026b610404366004611829565b61078b565b348015610414575f80fd5b5061026b610423366004611810565b6001600160a01b03165f9081526002602052604090205490565b348015610448575f80fd5b506104516107d7565b60405161020997969594939291906118de565b34801561046f575f80fd5b5061026b61047e366004611851565b610819565b34801561048e575f80fd5b50610497610882565b60405165ffffffffffff9091168152602001610209565b3480156104b9575f80fd5b5061026b6104c8366004611810565b61088c565b3480156104d8575f80fd5b5061026b6104e7366004611810565b6108bb565b3480156104f7575f80fd5b506101e6610506366004611972565b6108d8565b348015610516575f80fd5b506101e6610525366004611829565b610995565b348015610535575f80fd5b50610549610544366004611810565b61099f565b60405163ffffffff9091168152602001610209565b348015610569575f80fd5b506101e6610578366004611829565b6109a9565b61058782826109b3565b5050565b6060610595610a39565b905090565b6060610595610a65565b6001600160a01b0381165f90815260026020526040812080546001810190915590507f8d5c13b1cd528a3e1895fdc833368c4e3af5391250c736a28e94c4fa59b3cee4816040516105f791815260200190565b60405180910390a1919050565b60605f368080601f0160208091040260200160405190810160405280939291908181526020018383808284375f9201919091525092949350505050565b5f8061064b610882565b90508065ffffffffffff16831061068b57604051637669fc0f60e11b81526004810184905265ffffffffffff821660248201526044015b60405180910390fd5b6106b461069784610a92565b6001600160a01b0386165f90815260046020526040902090610ac6565b6001600160e01b03169150505b92915050565b6060436106d2610882565b65ffffffffffff16146106f8576040516301bfc1c560e61b815260040160405180910390fd5b5060408051808201909152601d81527f6d6f64653d626c6f636b6e756d6265722666726f6d3d64656661756c74000000602082015290565b5f6106c182610b74565b5f610595610ba0565b61074e838383610bb9565b505050565b3361058781836109b3565b5f610595610c33565b604080518082019091525f80825260208201526107848383610d5c565b9392505050565b5f6107968383610d90565b90507f173c6dfbda204d89ae7b46789365591384ef0c959833564582f96cd15f445b9b816040516107c991815260200190565b60405180910390a192915050565b5f6060805f805f60606107e8610a39565b6107f0610a65565b604080515f80825260208201909252600f60f81b9b939a50919850469750309650945092509050565b5f80610823610882565b90508065ffffffffffff16831061085e57604051637669fc0f60e11b81526004810184905265ffffffffffff82166024820152604401610682565b61087261086a84610a92565b600590610ac6565b6001600160e01b03169392505050565b5f61059543610de2565b6001600160a01b0381165f9081526004602052604081206108ac90610e14565b6001600160e01b031692915050565b6001600160a01b0381165f908152600660205260408120546106c1565b834211156108fc57604051632341d78760e11b815260048101859052602401610682565b604080517fe48329057bfd03d55e49b547132e39cffd9c1820ad7b9d4c5307691425d15adf60208201526001600160a01b0388169181019190915260608101869052608081018590525f906109759061096d9060a00160405160208183030381529060405280519060200120610b74565b858585610e4b565b90506109818187610d90565b5061098c81886109b3565b50505050505050565b6105878282610e77565b5f6106c182610eaf565b6105878282610ed0565b6001600160a01b038281165f8181526003602052604080822080548686166001600160a01b0319821681179092559151919094169392849290917f3134e8a2e6d97e929a7e54011ea5485d7d196dd5f0ba4d4ef95803e8e3fc257f9190a461074e8183610a34866001600160a01b03165f9081526006602052604090205490565b610f08565b60606105957f00000000000000000000000000000000000000000000000000000000000000005f61106c565b60606105957f0000000000000000000000000000000000000000000000000000000000000000600161106c565b5f63ffffffff821115610ac2576040516306dfcc6560e41b81526020600482015260248101839052604401610682565b5090565b81545f9081816005811115610b20575f610adf84611115565b610ae990856119e1565b5f8881526020902090915081015463ffffffff9081169087161015610b1057809150610b1e565b610b1b8160016119f4565b92505b505b5f610b2d878785856111f9565b90508015610b6757610b5187610b446001846119e1565b5f91825260209091200190565b54600160201b90046001600160e01b0316610b69565b5f5b979650505050505050565b5f6106c1610b80610c33565b8360405161190160f01b8152600281019290925260228201526042902090565b5f610bab6005610e14565b6001600160e01b0316905090565b6001600160a01b038316610be057610bdd6005611254610bd88461125f565b611292565b50505b6001600160a01b038216610c0257610bff60056112da610bd88461125f565b50505b6001600160a01b038381165f9081526003602052604080822054858416835291205461074e92918216911683610f08565b5f306001600160a01b037f000000000000000000000000000000000000000000000000000000000000000016148015610c8b57507f000000000000000000000000000000000000000000000000000000000000000046145b15610cb557507f000000000000000000000000000000000000000000000000000000000000000090565b610595604080517f8b73c3c69bb8fe3d512ecc4cf759cc79239f7b179b0ffacaa9a75d522b39400f60208201527f0000000000000000000000000000000000000000000000000000000000000000918101919091527f000000000000000000000000000000000000000000000000000000000000000060608201524660808201523060a08201525f9060c00160405160208183030381529060405280519060200120905090565b604080518082019091525f80825260208201526001600160a01b0383165f90815260046020526040902061078490836112e5565b6001600160a01b0382165f908152600260205260408120805460018101909155808314610784576040516301d4b62360e61b81526001600160a01b038516600482015260248101829052604401610682565b5f65ffffffffffff821115610ac2576040516306dfcc6560e41b81526030600482015260248101839052604401610682565b80545f908015610e4357610e2d83610b446001846119e1565b54600160201b90046001600160e01b0316610784565b5f9392505050565b5f805f80610e5b88888888611350565b925092509250610e6b8282611418565b50909695505050505050565b6001600160a01b0382165f9081526006602052604081208054839290610e9e9084906119f4565b9091555061058790505f8383610bb9565b6001600160a01b0381165f908152600460205260408120546106c190610a92565b6001600160a01b0382165f9081526006602052604081208054839290610ef79084906119f4565b909155506105879050825f83610bb9565b816001600160a01b0316836001600160a01b031614158015610f2957505f81115b1561074e576001600160a01b03831615610fcb576001600160a01b0383165f9081526004602052604081208190610f66906112da610bd88661125f565b6001600160e01b031691506001600160e01b03169150846001600160a01b03167fdec2bacdd2f05b59de34da9b523dff8be42e5e38e818c82fdb0bae774387a7248383604051610fc0929190918252602082015260400190565b60405180910390a250505b6001600160a01b0382161561074e576001600160a01b0382165f908152600460205260408120819061100390611254610bd88661125f565b6001600160e01b031691506001600160e01b03169150836001600160a01b03167fdec2bacdd2f05b59de34da9b523dff8be42e5e38e818c82fdb0bae774387a724838360405161105d929190918252602082015260400190565b60405180910390a25050505050565b606060ff83146110865761107f836114d0565b90506106c1565b81805461109290611a07565b80601f01602080910402602001604051908101604052809291908181526020018280546110be90611a07565b80156111095780601f106110e057610100808354040283529160200191611109565b820191905f5260205f20905b8154815290600101906020018083116110ec57829003601f168201915b505050505090506106c1565b5f815f0361112457505f919050565b5f60016111308461150d565b901c6001901b9050600181848161114957611149611a3f565b048201901c9050600181848161116157611161611a3f565b048201901c9050600181848161117957611179611a3f565b048201901c9050600181848161119157611191611a3f565b048201901c905060018184816111a9576111a9611a3f565b048201901c905060018184816111c1576111c1611a3f565b048201901c905060018184816111d9576111d9611a3f565b048201901c9050610784818285816111f3576111f3611a3f565b046115a0565b5f5b8183101561124c575f61120e84846115b5565b5f8781526020902090915063ffffffff86169082015463ffffffff16111561123857809250611246565b6112438160016119f4565b93505b506111fb565b509392505050565b5f6107848284611a53565b5f6001600160e01b03821115610ac2576040516306dfcc6560e41b815260e0600482015260248101839052604401610682565b5f806112cd6112af6112a2610882565b65ffffffffffff16610a92565b6112c56112bb88610e14565b868863ffffffff16565b8791906115cf565b915091505b935093915050565b5f6107848284611a7a565b604080518082019091525f8082526020820152825f018263ffffffff168154811061131257611312611a9a565b5f9182526020918290206040805180820190915291015463ffffffff81168252600160201b90046001600160e01b0316918101919091529392505050565b5f80807f7fffffffffffffffffffffffffffffff5d576e7357a4501ddfe92f46681b20a084111561138957505f9150600390508261140e565b604080515f808252602082018084528a905260ff891692820192909252606081018790526080810186905260019060a0016020604051602081039080840390855afa1580156113da573d5f803e3d5ffd5b5050604051601f1901519150506001600160a01b03811661140557505f92506001915082905061140e565b92505f91508190505b9450945094915050565b5f82600381111561142b5761142b611aae565b03611434575050565b600182600381111561144857611448611aae565b036114665760405163f645eedf60e01b815260040160405180910390fd5b600282600381111561147a5761147a611aae565b0361149b5760405163fce698f760e01b815260048101829052602401610682565b60038260038111156114af576114af611aae565b03610587576040516335e2f38360e21b815260048101829052602401610682565b60605f6114dc836115dc565b6040805160208082528183019092529192505f91906020820181803683375050509182525060208101929092525090565b5f80608083901c1561152157608092831c92015b604083901c1561153357604092831c92015b602083901c1561154557602092831c92015b601083901c1561155757601092831c92015b600883901c1561156957600892831c92015b600483901c1561157b57600492831c92015b600283901c1561158d57600292831c92015b600183901c156106c15760010192915050565b5f8183106115ae5781610784565b5090919050565b5f6115c36002848418611ac2565b610784908484166119f4565b5f806112cd858585611603565b5f60ff8216601f8111156106c157604051632cd44ac360e21b815260040160405180910390fd5b82545f9081908015611717575f61161f87610b446001856119e1565b60408051808201909152905463ffffffff808216808452600160201b9092046001600160e01b03166020840152919250908716101561167157604051632520601d60e01b815260040160405180910390fd5b805163ffffffff8088169116036116b9578461169288610b446001866119e1565b80546001600160e01b0392909216600160201b0263ffffffff909216919091179055611707565b6040805180820190915263ffffffff80881682526001600160e01b0380881660208085019182528b54600181018d555f8d81529190912094519151909216600160201b029216919091179101555b6020015192508391506112d29050565b50506040805180820190915263ffffffff80851682526001600160e01b0380851660208085019182528854600181018a555f8a815291822095519251909316600160201b0291909316179201919091559050816112d2565b80356001600160a01b0381168114611785575f80fd5b919050565b5f806040838503121561179b575f80fd5b6117a48361176f565b91506117b26020840161176f565b90509250929050565b5f81518084525f5b818110156117df576020818501810151868301820152016117c3565b505f602082860101526020601f19601f83011685010191505092915050565b602081525f61078460208301846117bb565b5f60208284031215611820575f80fd5b6107848261176f565b5f806040838503121561183a575f80fd5b6118438361176f565b946020939093013593505050565b5f60208284031215611861575f80fd5b5035919050565b5f805f6060848603121561187a575f80fd5b6118838461176f565b92506118916020850161176f565b9150604084013590509250925092565b5f80604083850312156118b2575f80fd5b6118bb8361176f565b9150602083013563ffffffff811681146118d3575f80fd5b809150509250929050565b60ff60f81b881681525f602060e0818401526118fd60e084018a6117bb565b838103604085015261190f818a6117bb565b606085018990526001600160a01b038816608086015260a0850187905284810360c086015285518082528387019250908301905f5b8181101561196057835183529284019291840191600101611944565b50909c9b505050505050505050505050565b5f805f805f8060c08789031215611987575f80fd5b6119908761176f565b95506020870135945060408701359350606087013560ff811681146119b3575f80fd5b9598949750929560808101359460a0909101359350915050565b634e487b7160e01b5f52601160045260245ffd5b818103818111156106c1576106c16119cd565b808201808211156106c1576106c16119cd565b600181811c90821680611a1b57607f821691505b602082108103611a3957634e487b7160e01b5f52602260045260245ffd5b50919050565b634e487b7160e01b5f52601260045260245ffd5b6001600160e01b03818116838216019080821115611a7357611a736119cd565b5092915050565b6001600160e01b03828116828216039080821115611a7357611a736119cd565b634e487b7160e01b5f52603260045260245ffd5b634e487b7160e01b5f52602160045260245ffd5b5f82611adc57634e487b7160e01b5f52601260045260245ffd5b50049056fea26469706673582212200a5f2e839f530ca9eb9d3d9f8ed5941b477938fdc75e3ae7155d378c6e7a7b3e64736f6c63430008140033",
  "linkReferences": {},
  "deployedLinkReferences": {}
}