{
  "_format": "hh-sol-artifact-1",
  "contractName": "$SignatureChecker",
  "sourceName": "contracts-exposed/utils/cryptography/SignatureChecker.sol",
  "abi": [
    {
      "inputs": [],
      "stateMutability": "payable",
      "type": "constructor"
    },
    {
      "inputs": [
        {
          "internalType": "address",
          "name": "signer",
          "type": "address"
        },
        {
          "internalType": "bytes32",
          "name": "hash",
          "type": "bytes32"
        },
        {
          "internalType": "bytes",
          "name": "signature",
          "type": "bytes"
        }
      ],
      "name": "$isValidERC1271SignatureNow",
      "outputs": [
        {
          "internalType": "bool",
          "name": "ret0",
          "type": "bool"
        }
      ],
      "stateMutability": "view",
      "type": "function"
    },
    {
      "inputs": [
        {
          "internalType": "address",
          "name": "signer",
          "type": "address"
        },
        {
          "internalType": "bytes32",
          "name": "hash",
          "type": "bytes32"
        },
        {
          "internalType": "bytes",
          "name": "signature",
          "type": "bytes"
        }
      ],
      "name": "$isValidSignatureNow",
      "outputs": [
        {
          "internalType": "bool",
          "name": "ret0",
          "type": "bool"
        }
      ],
      "stateMutability": "view",
      "type": "function"
    },
    {
      "inputs": [],
      "name": "__hh_exposed_bytecode_marker",
      "outputs": [
        {
          "internalType": "bytes32",
          "name": "",
          "type": "bytes32"
        }
      ],
      "stateMutability": "view",
      "type": "function"
    },
    {
      "stateMutability": "payable",
      "type": "receive"
    }
  ],
  "bytecode": "0x60806040526104f3806100115f395ff3fe608060405260043610610036575f3560e01c80632dbf913914610041578063342db73914610075578063df396d86146100a8575f80fd5b3661003d57005b5f80fd5b34801561004c575f80fd5b5061006061005b36600461038f565b6100c7565b60405190151581526020015b60405180910390f35b348015610080575f80fd5b5061009a6e1a185c991a185d0b595e1c1bdcd959608a1b81565b60405190815260200161006c565b3480156100b3575f80fd5b506100606100c236600461038f565b610111565b5f610108858585858080601f0160208091040260200160405190810160405280939291908181526020018383808284375f9201919091525061015292505050565b95945050505050565b5f610108858585858080601f0160208091040260200160405190810160405280939291908181526020018383808284375f9201919091525061022992505050565b5f805f856001600160a01b0316858560405160240161017292919061043e565b60408051601f198184030181529181526020820180516001600160e01b0316630b135d3f60e11b179052516101a79190610477565b5f60405180830381855afa9150503d805f81146101df576040519150601f19603f3d011682016040523d82523d5f602084013e6101e4565b606091505b50915091508180156101f857506020815110155b801561021f57508051630b135d3f60e11b9061021d9083016020908101908401610492565b145b9695505050505050565b5f805f610236858561027e565b5090925090505f81600381111561024f5761024f6104a9565b14801561026d5750856001600160a01b0316826001600160a01b0316145b8061021f575061021f868686610152565b5f805f83516041036102b5576020840151604085015160608601515f1a6102a7888285856102c7565b9550955095505050506102c0565b505081515f91506002905b9250925092565b5f80807f7fffffffffffffffffffffffffffffff5d576e7357a4501ddfe92f46681b20a084111561030057505f91506003905082610385565b604080515f808252602082018084528a905260ff891692820192909252606081018790526080810186905260019060a0016020604051602081039080840390855afa158015610351573d5f803e3d5ffd5b5050604051601f1901519150506001600160a01b03811661037c57505f925060019150829050610385565b92505f91508190505b9450945094915050565b5f805f80606085870312156103a2575f80fd5b84356001600160a01b03811681146103b8575f80fd5b935060208501359250604085013567ffffffffffffffff808211156103db575f80fd5b818701915087601f8301126103ee575f80fd5b8135818111156103fc575f80fd5b88602082850101111561040d575f80fd5b95989497505060200194505050565b5f5b8381101561043657818101518382015260200161041e565b50505f910152565b828152604060208201525f825180604084015261046281606085016020870161041c565b601f01601f1916919091016060019392505050565b5f825161048881846020870161041c565b9190910192915050565b5f602082840312156104a2575f80fd5b5051919050565b634e487b7160e01b5f52602160045260245ffdfea2646970667358221220f203a87826074aeaa350bcf6b707c7430e242da980418babbdf2da7ff8738c4364736f6c63430008140033",
  "linkReferences": {},
  "deployedLinkReferences": {}
}