{
  "_format": "hh-sol-artifact-1",
  "contractName": "$Base64",
  "sourceName": "contracts-exposed/utils/Base64.sol",
  "abi": [
    {
      "inputs": [],
      "stateMutability": "payable",
      "type": "constructor"
    },
    {
      "inputs": [],
      "name": "$_TABLE",
      "outputs": [
        {
          "internalType": "string",
          "name": "",
          "type": "string"
        }
      ],
      "stateMutability": "pure",
      "type": "function"
    },
    {
      "inputs": [
        {
          "internalType": "bytes",
          "name": "data",
          "type": "bytes"
        }
      ],
      "name": "$encode",
      "outputs": [
        {
          "internalType": "string",
          "name": "ret0",
          "type": "string"
        }
      ],
      "stateMutability": "pure",
      "type": "function"
    },
    {
      "inputs": [],
      "name": "__hh_exposed_bytecode_marker",
      "outputs": [
        {
          "internalType": "bytes32",
          "name": "",
          "type": "bytes32"
        }
      ],
      "stateMutability": "view",
      "type": "function"
    },
    {
      "stateMutability": "payable",
      "type": "receive"
    }
  ],
  "bytecode": "0x6080604052610417806100115f395ff3fe608060405260043610610036575f3560e01c80632cf1b5e314610041578063342db7391461006b578063b853a4e21461009e575f80fd5b3661003d57005b5f80fd5b34801561004c575f80fd5b506100556100bd565b6040516100629190610273565b60405180910390f35b348015610076575f80fd5b506100906e1a185c991a185d0b595e1c1bdcd959608a1b81565b604051908152602001610062565b3480156100a9575f80fd5b506100556100b83660046102be565b6100dd565b60606040518060600160405280604081526020016103a260409139905090565b606061011d83838080601f0160208091040260200160405190810160405280939291908181526020018383808284375f9201919091525061012492505050565b9392505050565b606081515f0361014157505060408051602081019091525f815290565b5f6040518060600160405280604081526020016103a26040913990505f60038451600261016e919061033e565b6101789190610357565b610183906004610376565b67ffffffffffffffff81111561019b5761019b61038d565b6040519080825280601f01601f1916602001820160405280156101c5576020820181803683370190505b509050600182016020820185865187015b80821015610231576003820191508151603f8160121c168501518453600184019350603f81600c1c168501518453600184019350603f8160061c168501518453600184019350603f81168501518453506001830192506101d6565b505060038651066001811461024d576002811461026057610268565b603d6001830353603d6002830353610268565b603d60018303535b509195945050505050565b5f6020808352835180828501525f5b8181101561029e57858101830151858201604001528201610282565b505f604082860101526040601f19601f8301168501019250505092915050565b5f80602083850312156102cf575f80fd5b823567ffffffffffffffff808211156102e6575f80fd5b818501915085601f8301126102f9575f80fd5b813581811115610307575f80fd5b866020828501011115610318575f80fd5b60209290920196919550909350505050565b634e487b7160e01b5f52601160045260245ffd5b808201808211156103515761035161032a565b92915050565b5f8261037157634e487b7160e01b5f52601260045260245ffd5b500490565b80820281158282048414176103515761035161032a565b634e487b7160e01b5f52604160045260245ffdfe4142434445464748494a4b4c4d4e4f505152535455565758595a6162636465666768696a6b6c6d6e6f707172737475767778797a303132333435363738392b2fa26469706673582212201fa1772407688ad83019a879d9fdfe43910a31460867cf47933e56670c7e8c5f64736f6c63430008140033",
  "linkReferences": {},
  "deployedLinkReferences": {}
}