{
  "_format": "hh-sol-artifact-1",
  "contractName": "$ERC1155Supply",
  "sourceName": "contracts-exposed/token/ERC1155/extensions/ERC1155Supply.sol",
  "abi": [
    {
      "inputs": [
        {
          "internalType": "string",
          "name": "uri_",
          "type": "string"
        }
      ],
      "stateMutability": "payable",
      "type": "constructor"
    },
    {
      "inputs": [
        {
          "internalType": "address",
          "name": "sender",
          "type": "address"
        },
        {
          "internalType": "uint256",
          "name": "balance",
          "type": "uint256"
        },
        {
          "internalType": "uint256",
          "name": "needed",
          "type": "uint256"
        },
        {
          "internalType": "uint256",
          "name": "tokenId",
          "type": "uint256"
        }
      ],
      "name": "ERC1155InsufficientBalance",
      "type": "error"
    },
    {
      "inputs": [
        {
          "internalType": "address",
          "name": "approver",
          "type": "address"
        }
      ],
      "name": "ERC1155InvalidApprover",
      "type": "error"
    },
    {
      "inputs": [
        {
          "internalType": "uint256",
          "name": "idsLength",
          "type": "uint256"
        },
        {
          "internalType": "uint256",
          "name": "valuesLength",
          "type": "uint256"
        }
      ],
      "name": "ERC1155InvalidArrayLength",
      "type": "error"
    },
    {
      "inputs": [
        {
          "internalType": "address",
          "name": "operator",
          "type": "address"
        }
      ],
      "name": "ERC1155InvalidOperator",
      "type": "error"
    },
    {
      "inputs": [
        {
          "internalType": "address",
          "name": "receiver",
          "type": "address"
        }
      ],
      "name": "ERC1155InvalidReceiver",
      "type": "error"
    },
    {
      "inputs": [
        {
          "internalType": "address",
          "name": "sender",
          "type": "address"
        }
      ],
      "name": "ERC1155InvalidSender",
      "type": "error"
    },
    {
      "inputs": [
        {
          "internalType": "address",
          "name": "operator",
          "type": "address"
        },
        {
          "internalType": "address",
          "name": "owner",
          "type": "address"
        }
      ],
      "name": "ERC1155MissingApprovalForAll",
      "type": "error"
    },
    {
      "anonymous": false,
      "inputs": [
        {
          "indexed": true,
          "internalType": "address",
          "name": "account",
          "type": "address"
        },
        {
          "indexed": true,
          "internalType": "address",
          "name": "operator",
          "type": "address"
        },
        {
          "indexed": false,
          "internalType": "bool",
          "name": "approved",
          "type": "bool"
        }
      ],
      "name": "ApprovalForAll",
      "type": "event"
    },
    {
      "anonymous": false,
      "inputs": [
        {
          "indexed": true,
          "internalType": "address",
          "name": "operator",
          "type": "address"
        },
        {
          "indexed": true,
          "internalType": "address",
          "name": "from",
          "type": "address"
        },
        {
          "indexed": true,
          "internalType": "address",
          "name": "to",
          "type": "address"
        },
        {
          "indexed": false,
          "internalType": "uint256[]",
          "name": "ids",
          "type": "uint256[]"
        },
        {
          "indexed": false,
          "internalType": "uint256[]",
          "name": "values",
          "type": "uint256[]"
        }
      ],
      "name": "TransferBatch",
      "type": "event"
    },
    {
      "anonymous": false,
      "inputs": [
        {
          "indexed": true,
          "internalType": "address",
          "name": "operator",
          "type": "address"
        },
        {
          "indexed": true,
          "internalType": "address",
          "name": "from",
          "type": "address"
        },
        {
          "indexed": true,
          "internalType": "address",
          "name": "to",
          "type": "address"
        },
        {
          "indexed": false,
          "internalType": "uint256",
          "name": "id",
          "type": "uint256"
        },
        {
          "indexed": false,
          "internalType": "uint256",
          "name": "value",
          "type": "uint256"
        }
      ],
      "name": "TransferSingle",
      "type": "event"
    },
    {
      "anonymous": false,
      "inputs": [
        {
          "indexed": false,
          "internalType": "string",
          "name": "value",
          "type": "string"
        },
        {
          "indexed": true,
          "internalType": "uint256",
          "name": "id",
          "type": "uint256"
        }
      ],
      "name": "URI",
      "type": "event"
    },
    {
      "inputs": [
        {
          "internalType": "address",
          "name": "from",
          "type": "address"
        },
        {
          "internalType": "uint256",
          "name": "id",
          "type": "uint256"
        },
        {
          "internalType": "uint256",
          "name": "value",
          "type": "uint256"
        }
      ],
      "name": "$_burn",
      "outputs": [],
      "stateMutability": "nonpayable",
      "type": "function"
    },
    {
      "inputs": [
        {
          "internalType": "address",
          "name": "from",
          "type": "address"
        },
        {
          "internalType": "uint256[]",
          "name": "ids",
          "type": "uint256[]"
        },
        {
          "internalType": "uint256[]",
          "name": "values",
          "type": "uint256[]"
        }
      ],
      "name": "$_burnBatch",
      "outputs": [],
      "stateMutability": "nonpayable",
      "type": "function"
    },
    {
      "inputs": [
        {
          "internalType": "address",
          "name": "to",
          "type": "address"
        },
        {
          "internalType": "uint256",
          "name": "id",
          "type": "uint256"
        },
        {
          "internalType": "uint256",
          "name": "value",
          "type": "uint256"
        },
        {
          "internalType": "bytes",
          "name": "data",
          "type": "bytes"
        }
      ],
      "name": "$_mint",
      "outputs": [],
      "stateMutability": "nonpayable",
      "type": "function"
    },
    {
      "inputs": [
        {
          "internalType": "address",
          "name": "to",
          "type": "address"
        },
        {
          "internalType": "uint256[]",
          "name": "ids",
          "type": "uint256[]"
        },
        {
          "internalType": "uint256[]",
          "name": "values",
          "type": "uint256[]"
        },
        {
          "internalType": "bytes",
          "name": "data",
          "type": "bytes"
        }
      ],
      "name": "$_mintBatch",
      "outputs": [],
      "stateMutability": "nonpayable",
      "type": "function"
    },
    {
      "inputs": [],
      "name": "$_msgData",
      "outputs": [
        {
          "internalType": "bytes",
          "name": "ret0",
          "type": "bytes"
        }
      ],
      "stateMutability": "view",
      "type": "function"
    },
    {
      "inputs": [],
      "name": "$_msgSender",
      "outputs": [
        {
          "internalType": "address",
          "name": "ret0",
          "type": "address"
        }
      ],
      "stateMutability": "view",
      "type": "function"
    },
    {
      "inputs": [
        {
          "internalType": "address",
          "name": "from",
          "type": "address"
        },
        {
          "internalType": "address",
          "name": "to",
          "type": "address"
        },
        {
          "internalType": "uint256[]",
          "name": "ids",
          "type": "uint256[]"
        },
        {
          "internalType": "uint256[]",
          "name": "values",
          "type": "uint256[]"
        },
        {
          "internalType": "bytes",
          "name": "data",
          "type": "bytes"
        }
      ],
      "name": "$_safeBatchTransferFrom",
      "outputs": [],
      "stateMutability": "nonpayable",
      "type": "function"
    },
    {
      "inputs": [
        {
          "internalType": "address",
          "name": "from",
          "type": "address"
        },
        {
          "internalType": "address",
          "name": "to",
          "type": "address"
        },
        {
          "internalType": "uint256",
          "name": "id",
          "type": "uint256"
        },
        {
          "internalType": "uint256",
          "name": "value",
          "type": "uint256"
        },
        {
          "internalType": "bytes",
          "name": "data",
          "type": "bytes"
        }
      ],
      "name": "$_safeTransferFrom",
      "outputs": [],
      "stateMutability": "nonpayable",
      "type": "function"
    },
    {
      "inputs": [
        {
          "internalType": "address",
          "name": "owner",
          "type": "address"
        },
        {
          "internalType": "address",
          "name": "operator",
          "type": "address"
        },
        {
          "internalType": "bool",
          "name": "approved",
          "type": "bool"
        }
      ],
      "name": "$_setApprovalForAll",
      "outputs": [],
      "stateMutability": "nonpayable",
      "type": "function"
    },
    {
      "inputs": [
        {
          "internalType": "string",
          "name": "newuri",
          "type": "string"
        }
      ],
      "name": "$_setURI",
      "outputs": [],
      "stateMutability": "nonpayable",
      "type": "function"
    },
    {
      "inputs": [
        {
          "internalType": "address",
          "name": "from",
          "type": "address"
        },
        {
          "internalType": "address",
          "name": "to",
          "type": "address"
        },
        {
          "internalType": "uint256[]",
          "name": "ids",
          "type": "uint256[]"
        },
        {
          "internalType": "uint256[]",
          "name": "values",
          "type": "uint256[]"
        }
      ],
      "name": "$_update",
      "outputs": [],
      "stateMutability": "nonpayable",
      "type": "function"
    },
    {
      "inputs": [
        {
          "internalType": "address",
          "name": "from",
          "type": "address"
        },
        {
          "internalType": "address",
          "name": "to",
          "type": "address"
        },
        {
          "internalType": "uint256[]",
          "name": "ids",
          "type": "uint256[]"
        },
        {
          "internalType": "uint256[]",
          "name": "values",
          "type": "uint256[]"
        },
        {
          "internalType": "bytes",
          "name": "data",
          "type": "bytes"
        }
      ],
      "name": "$_updateWithAcceptanceCheck",
      "outputs": [],
      "stateMutability": "nonpayable",
      "type": "function"
    },
    {
      "inputs": [],
      "name": "__hh_exposed_bytecode_marker",
      "outputs": [
        {
          "internalType": "bytes32",
          "name": "",
          "type": "bytes32"
        }
      ],
      "stateMutability": "view",
      "type": "function"
    },
    {
      "inputs": [
        {
          "internalType": "address",
          "name": "account",
          "type": "address"
        },
        {
          "internalType": "uint256",
          "name": "id",
          "type": "uint256"
        }
      ],
      "name": "balanceOf",
      "outputs": [
        {
          "internalType": "uint256",
          "name": "",
          "type": "uint256"
        }
      ],
      "stateMutability": "view",
      "type": "function"
    },
    {
      "inputs": [
        {
          "internalType": "address[]",
          "name": "accounts",
          "type": "address[]"
        },
        {
          "internalType": "uint256[]",
          "name": "ids",
          "type": "uint256[]"
        }
      ],
      "name": "balanceOfBatch",
      "outputs": [
        {
          "internalType": "uint256[]",
          "name": "",
          "type": "uint256[]"
        }
      ],
      "stateMutability": "view",
      "type": "function"
    },
    {
      "inputs": [
        {
          "internalType": "uint256",
          "name": "id",
          "type": "uint256"
        }
      ],
      "name": "exists",
      "outputs": [
        {
          "internalType": "bool",
          "name": "",
          "type": "bool"
        }
      ],
      "stateMutability": "view",
      "type": "function"
    },
    {
      "inputs": [
        {
          "internalType": "address",
          "name": "account",
          "type": "address"
        },
        {
          "internalType": "address",
          "name": "operator",
          "type": "address"
        }
      ],
      "name": "isApprovedForAll",
      "outputs": [
        {
          "internalType": "bool",
          "name": "",
          "type": "bool"
        }
      ],
      "stateMutability": "view",
      "type": "function"
    },
    {
      "inputs": [
        {
          "internalType": "address",
          "name": "from",
          "type": "address"
        },
        {
          "internalType": "address",
          "name": "to",
          "type": "address"
        },
        {
          "internalType": "uint256[]",
          "name": "ids",
          "type": "uint256[]"
        },
        {
          "internalType": "uint256[]",
          "name": "values",
          "type": "uint256[]"
        },
        {
          "internalType": "bytes",
          "name": "data",
          "type": "bytes"
        }
      ],
      "name": "safeBatchTransferFrom",
      "outputs": [],
      "stateMutability": "nonpayable",
      "type": "function"
    },
    {
      "inputs": [
        {
          "internalType": "address",
          "name": "from",
          "type": "address"
        },
        {
          "internalType": "address",
          "name": "to",
          "type": "address"
        },
        {
          "internalType": "uint256",
          "name": "id",
          "type": "uint256"
        },
        {
          "internalType": "uint256",
          "name": "value",
          "type": "uint256"
        },
        {
          "internalType": "bytes",
          "name": "data",
          "type": "bytes"
        }
      ],
      "name": "safeTransferFrom",
      "outputs": [],
      "stateMutability": "nonpayable",
      "type": "function"
    },
    {
      "inputs": [
        {
          "internalType": "address",
          "name": "operator",
          "type": "address"
        },
        {
          "internalType": "bool",
          "name": "approved",
          "type": "bool"
        }
      ],
      "name": "setApprovalForAll",
      "outputs": [],
      "stateMutability": "nonpayable",
      "type": "function"
    },
    {
      "inputs": [
        {
          "internalType": "bytes4",
          "name": "interfaceId",
          "type": "bytes4"
        }
      ],
      "name": "supportsInterface",
      "outputs": [
        {
          "internalType": "bool",
          "name": "",
          "type": "bool"
        }
      ],
      "stateMutability": "view",
      "type": "function"
    },
    {
      "inputs": [],
      "name": "totalSupply",
      "outputs": [
        {
          "internalType": "uint256",
          "name": "",
          "type": "uint256"
        }
      ],
      "stateMutability": "view",
      "type": "function"
    },
    {
      "inputs": [
        {
          "internalType": "uint256",
          "name": "id",
          "type": "uint256"
        }
      ],
      "name": "totalSupply",
      "outputs": [
        {
          "internalType": "uint256",
          "name": "",
          "type": "uint256"
        }
      ],
      "stateMutability": "view",
      "type": "function"
    },
    {
      "inputs": [
        {
          "internalType": "uint256",
          "name": "",
          "type": "uint256"
        }
      ],
      "name": "uri",
      "outputs": [
        {
          "internalType": "string",
          "name": "",
          "type": "string"
        }
      ],
      "stateMutability": "view",
      "type": "function"
    },
    {
      "stateMutability": "payable",
      "type": "receive"
    }
  ],
  "bytecode": "0x6080604052604051620021c6380380620021c6833981016040819052620000269162000060565b8062000032816200003a565b505062000282565b6002620000488282620001ba565b5050565b634e487b7160e01b5f52604160045260245ffd5b5f602080838503121562000072575f80fd5b82516001600160401b038082111562000089575f80fd5b818501915085601f8301126200009d575f80fd5b815181811115620000b257620000b26200004c565b604051601f8201601f19908116603f01168101908382118183101715620000dd57620000dd6200004c565b816040528281528886848701011115620000f5575f80fd5b5f93505b82841015620001185784840186015181850187015292850192620000f9565b5f86848301015280965050505050505092915050565b600181811c908216806200014357607f821691505b6020821081036200016257634e487b7160e01b5f52602260045260245ffd5b50919050565b601f821115620001b5575f81815260208120601f850160051c81016020861015620001905750805b601f850160051c820191505b81811015620001b1578281556001016200019c565b5050505b505050565b81516001600160401b03811115620001d657620001d66200004c565b620001ee81620001e784546200012e565b8462000168565b602080601f83116001811462000224575f84156200020c5750858301515b5f19600386901b1c1916600185901b178555620001b1565b5f85815260208120601f198616915b82811015620002545788860151825594840194600190910190840162000233565b50858210156200027257878501515f19600388901b60f8161c191681555b5050505050600190811b01905550565b611f3680620002905f395ff3fe608060405260043610610149575f3560e01c80634f558e79116100b3578063bf445cb81161006d578063bf445cb8146103c6578063cfeea0d4146103e5578063e985e9c514610404578063ec3016f714610423578063eebe6ab414610442578063f242432a14610461575f80fd5b80634f558e79146102f25780637dfd6d691461031f578063a22cb4651461033e578063af32f2f21461035d578063b556c3281461037c578063bd85b0391461039b575f80fd5b80632d64f479116101045780632d64f479146102305780632eb2c2d61461024f57806332cadf3c1461026e578063342db7391461028257806338106e25146102a75780634e1273f4146102c6575f80fd5b8062fdd58e1461015457806301ffc9a7146101865780630c3c37ae146101b55780630e89341c146101d657806318160ddd146102025780632904df2914610216575f80fd5b3661015057005b5f80fd5b34801561015f575f80fd5b5061017361016e3660046113dd565b610480565b6040519081526020015b60405180910390f35b348015610191575f80fd5b506101a56101a036600461141d565b6104a7565b604051901515815260200161017d565b3480156101c0575f80fd5b506101d46101cf366004611483565b6104f6565b005b3480156101e1575f80fd5b506101f56101f03660046114f5565b610540565b60405161017d919061154f565b34801561020d575f80fd5b50600454610173565b348015610221575f80fd5b5060405133815260200161017d565b34801561023b575f80fd5b506101d461024a3660046115a1565b6105d2565b34801561025a575f80fd5b506101d461026936600461178c565b61067c565b348015610279575f80fd5b506101f56106e0565b34801561028d575f80fd5b506101736e1a185c991a185d0b595e1c1bdcd959608a1b81565b3480156102b2575f80fd5b506101d46102c136600461182e565b61071d565b3480156102d1575f80fd5b506102e56102e03660046118a8565b610790565b60405161017d919061199a565b3480156102fd575f80fd5b506101a561030c3660046114f5565b5f90815260036020526040902054151590565b34801561032a575f80fd5b506101d46103393660046119ac565b610862565b348015610349575f80fd5b506101d4610358366004611a0c565b6108a3565b348015610368575f80fd5b506101d4610377366004611a3d565b6108b2565b348015610387575f80fd5b506101d4610396366004611ab5565b61091f565b3480156103a6575f80fd5b506101736103b53660046114f5565b5f9081526003602052604090205490565b3480156103d1575f80fd5b506101d46103e0366004611ae5565b61092f565b3480156103f0575f80fd5b506101d46103ff366004611b87565b6109d7565b34801561040f575f80fd5b506101a561041e366004611bc7565b6109e2565b34801561042e575f80fd5b506101d461043d366004611bef565b610a0f565b34801561044d575f80fd5b506101d461045c3660046115a1565b610a4d565b34801561046c575f80fd5b506101d461047b366004611c2d565b610aed565b5f818152602081815260408083206001600160a01b03861684529091529020545b92915050565b5f6001600160e01b03198216636cdb3d1360e11b14806104d757506001600160e01b031982166303a24d0760e21b145b806104a157506301ffc9a760e01b6001600160e01b03198316146104a1565b6105388686868686868080601f0160208091040260200160405190810160405280939291908181526020018383808284375f92019190915250610b4892505050565b505050505050565b60606002805461054f90611c8c565b80601f016020809104026020016040519081016040528092919081815260200182805461057b90611c8c565b80156105c65780601f1061059d576101008083540402835291602001916105c6565b820191905f5260205f20905b8154815290600101906020018083116105a957829003601f168201915b50505050509050919050565b61067288888888808060200260200160405190810160405280939291908181526020018383602002808284375f9201919091525050604080516020808c0282810182019093528b82529093508b92508a9182918501908490808284375f9201919091525050604080516020601f8b0181900481028201810190925289815292508991508890819084018382808284375f92019190915250610bc792505050565b5050505050505050565b336001600160a01b038616811480159061069d575061069b86826109e2565b155b156106d35760405163711bec9160e11b81526001600160a01b038083166004830152871660248201526044015b60405180910390fd5b6105388686868686610c1a565b60605f368080601f0160208091040260200160405190810160405280939291908181526020018383808284375f9201919091525092949350505050565b610789858585808060200260200160405190810160405280939291908181526020018383602002808284375f92019190915250506040805160208089028281018201909352888252909350889250879182918501908490808284375f92019190915250610c7892505050565b5050505050565b606081518351146107c15781518351604051635b05999160e01b8152600481019290925260248201526044016106ca565b5f83516001600160401b038111156107db576107db611653565b604051908082528060200260200182016040528015610804578160200160208202803683370190505b5090505f5b845181101561085a5760208082028601015161082d90602080840287010151610480565b82828151811061083f5761083f611cc4565b602090810291909101015261085381611cec565b9050610809565b509392505050565b61078985858585858080601f0160208091040260200160405190810160405280939291908181526020018383808284375f92019190915250610cbb92505050565b6108ae338383610d16565b5050565b61053886868686808060200260200160405190810160405280939291908181526020018383602002808284375f9201919091525050604080516020808a028281018201909352898252909350899250889182918501908490808284375f92019190915250610daa92505050565b61092a838383610efa565b505050565b6109ce878787808060200260200160405190810160405280939291908181526020018383602002808284375f9201919091525050604080516020808b0282810182019093528a82529093508a9250899182918501908490808284375f9201919091525050604080516020601f8a0181900481028201810190925288815292508891508790819084018382808284375f92019190915250610f6092505050565b50505050505050565b61092a838383610d16565b6001600160a01b039182165f90815260016020908152604080832093909416825291909152205460ff1690565b6108ae82828080601f0160208091040260200160405190810160405280939291908181526020018383808284375f92019190915250610f9692505050565b61067288888888808060200260200160405190810160405280939291908181526020018383602002808284375f9201919091525050604080516020808c0282810182019093528b82529093508b92508a9182918501908490808284375f9201919091525050604080516020601f8b0181900481028201810190925289815292508991508890819084018382808284375f92019190915250610c1a92505050565b336001600160a01b0386168114801590610b0e5750610b0c86826109e2565b155b15610b3f5760405163711bec9160e11b81526001600160a01b038083166004830152871660248201526044016106ca565b61053886868686865b6001600160a01b038416610b7157604051632bfa23e760e11b81525f60048201526024016106ca565b6001600160a01b038516610b9957604051626a0d4560e21b81525f60048201526024016106ca565b604080516001808252602082018690528183019081526060820185905260808201909252906109ce87878484875b610bd385858585610daa565b6001600160a01b038416156107895782513390600103610c0c5760208481015190840151610c05838989858589610fa2565b5050610538565b6105388187878787876110c3565b6001600160a01b038416610c4357604051632bfa23e760e11b81525f60048201526024016106ca565b6001600160a01b038516610c6b57604051626a0d4560e21b81525f60048201526024016106ca565b6107898585858585610bc7565b6001600160a01b038316610ca057604051626a0d4560e21b81525f60048201526024016106ca565b61092a835f848460405180602001604052805f815250610bc7565b6001600160a01b038416610ce457604051632bfa23e760e11b81525f60048201526024016106ca565b604080516001808252602082018690528183019081526060820185905260808201909252906105385f87848487610bc7565b6001600160a01b038216610d3e5760405162ced3e160e81b81525f60048201526024016106ca565b6001600160a01b038381165f81815260016020908152604080832094871680845294825291829020805460ff191686151590811790915591519182527f17307eab39ab6107e8899845ad3d59bd9653f200f220920489ca2b5937696c31910160405180910390a3505050565b610db6848484846111aa565b6001600160a01b038416610e63575f805b8351811015610e4a575f838281518110610de357610de3611cc4565b602002602001015190508060035f878581518110610e0357610e03611cc4565b602002602001015181526020019081526020015f205f828254610e269190611d04565b90915550610e3690508184611d04565b92505080610e4390611cec565b9050610dc7565b508060045f828254610e5c9190611d04565b9091555050505b6001600160a01b038316610ef4575f805b8351811015610ee8575f838281518110610e9057610e90611cc4565b602002602001015190508060035f878581518110610eb057610eb0611cc4565b602002602001015181526020019081526020015f205f828254039250508190555080830192505080610ee190611cec565b9050610e74565b50600480549190910390555b50505050565b6001600160a01b038316610f2257604051626a0d4560e21b81525f60048201526024016106ca565b604080516001808252602082018590528183019081526060820184905260a082019092525f6080820181815291929161078991879185908590610bc7565b6001600160a01b038416610f8957604051632bfa23e760e11b81525f60048201526024016106ca565b610ef45f85858585610bc7565b60026108ae8282611d5c565b6001600160a01b0384163b156105385760405163f23a6e6160e01b81526001600160a01b0385169063f23a6e6190610fe69089908990889088908890600401611e17565b6020604051808303815f875af1925050508015611020575060408051601f3d908101601f1916820190925261101d91810190611e5b565b60015b611087573d80801561104d576040519150601f19603f3d011682016040523d82523d5f602084013e611052565b606091505b5080515f0361107f57604051632bfa23e760e11b81526001600160a01b03861660048201526024016106ca565b805181602001fd5b6001600160e01b0319811663f23a6e6160e01b146109ce57604051632bfa23e760e11b81526001600160a01b03861660048201526024016106ca565b6001600160a01b0384163b156105385760405163bc197c8160e01b81526001600160a01b0385169063bc197c81906111079089908990889088908890600401611e76565b6020604051808303815f875af1925050508015611141575060408051601f3d908101601f1916820190925261113e91810190611e5b565b60015b61116e573d80801561104d576040519150601f19603f3d011682016040523d82523d5f602084013e611052565b6001600160e01b0319811663bc197c8160e01b146109ce57604051632bfa23e760e11b81526001600160a01b03861660048201526024016106ca565b80518251146111d95781518151604051635b05999160e01b8152600481019290925260248201526044016106ca565b335f5b83518110156112e4576020818102858101820151908501909101516001600160a01b0388161561128d575f828152602081815260408083206001600160a01b038c16845290915290205481811015611267576040516303dee4c560e01b81526001600160a01b038a1660048201526024810182905260448101839052606481018490526084016106ca565b5f838152602081815260408083206001600160a01b038d16845290915290209082900390555b6001600160a01b038716156112d1575f828152602081815260408083206001600160a01b038b168452909152812080548392906112cb908490611d04565b90915550505b5050806112dd90611cec565b90506111dc565b5082516001036113645760208301515f906020840151909150856001600160a01b0316876001600160a01b0316846001600160a01b03167fc3d58168c5ae7397731d063d5bbf3d657854427343f4c083240f7aacaa2d0f628585604051611355929190918252602082015260400190565b60405180910390a45050610789565b836001600160a01b0316856001600160a01b0316826001600160a01b03167f4a39dc06d4c0dbc64b70af90fd698a233a518aa5d07e595d983b8c0526c8f7fb86866040516113b3929190611ed3565b60405180910390a45050505050565b80356001600160a01b03811681146113d8575f80fd5b919050565b5f80604083850312156113ee575f80fd5b6113f7836113c2565b946020939093013593505050565b6001600160e01b03198116811461141a575f80fd5b50565b5f6020828403121561142d575f80fd5b813561143881611405565b9392505050565b5f8083601f84011261144f575f80fd5b5081356001600160401b03811115611465575f80fd5b60208301915083602082850101111561147c575f80fd5b9250929050565b5f805f805f8060a08789031215611498575f80fd5b6114a1876113c2565b95506114af602088016113c2565b9450604087013593506060870135925060808701356001600160401b038111156114d7575f80fd5b6114e389828a0161143f565b979a9699509497509295939492505050565b5f60208284031215611505575f80fd5b5035919050565b5f81518084525f5b8181101561153057602081850181015186830182015201611514565b505f602082860101526020601f19601f83011685010191505092915050565b602081525f611438602083018461150c565b5f8083601f840112611571575f80fd5b5081356001600160401b03811115611587575f80fd5b6020830191508360208260051b850101111561147c575f80fd5b5f805f805f805f8060a0898b0312156115b8575f80fd5b6115c1896113c2565b97506115cf60208a016113c2565b965060408901356001600160401b03808211156115ea575f80fd5b6115f68c838d01611561565b909850965060608b013591508082111561160e575f80fd5b61161a8c838d01611561565b909650945060808b0135915080821115611632575f80fd5b5061163f8b828c0161143f565b999c989b5096995094979396929594505050565b634e487b7160e01b5f52604160045260245ffd5b604051601f8201601f191681016001600160401b038111828210171561168f5761168f611653565b604052919050565b5f6001600160401b038211156116af576116af611653565b5060051b60200190565b5f82601f8301126116c8575f80fd5b813560206116dd6116d883611697565b611667565b82815260059290921b840181019181810190868411156116fb575f80fd5b8286015b8481101561171657803583529183019183016116ff565b509695505050505050565b5f82601f830112611730575f80fd5b81356001600160401b0381111561174957611749611653565b61175c601f8201601f1916602001611667565b818152846020838601011115611770575f80fd5b816020850160208301375f918101602001919091529392505050565b5f805f805f60a086880312156117a0575f80fd5b6117a9866113c2565b94506117b7602087016113c2565b935060408601356001600160401b03808211156117d2575f80fd5b6117de89838a016116b9565b945060608801359150808211156117f3575f80fd5b6117ff89838a016116b9565b93506080880135915080821115611814575f80fd5b5061182188828901611721565b9150509295509295909350565b5f805f805f60608688031215611842575f80fd5b61184b866113c2565b945060208601356001600160401b0380821115611866575f80fd5b61187289838a01611561565b9096509450604088013591508082111561188a575f80fd5b5061189788828901611561565b969995985093965092949392505050565b5f80604083850312156118b9575f80fd5b82356001600160401b03808211156118cf575f80fd5b818501915085601f8301126118e2575f80fd5b813560206118f26116d883611697565b82815260059290921b84018101918181019089841115611910575f80fd5b948201945b8386101561193557611926866113c2565b82529482019490820190611915565b9650508601359250508082111561194a575f80fd5b50611957858286016116b9565b9150509250929050565b5f8151808452602080850194508084015f5b8381101561198f57815187529582019590820190600101611973565b509495945050505050565b602081525f6114386020830184611961565b5f805f805f608086880312156119c0575f80fd5b6119c9866113c2565b9450602086013593506040860135925060608601356001600160401b038111156119f1575f80fd5b6118978882890161143f565b803580151581146113d8575f80fd5b5f8060408385031215611a1d575f80fd5b611a26836113c2565b9150611a34602084016119fd565b90509250929050565b5f805f805f8060808789031215611a52575f80fd5b611a5b876113c2565b9550611a69602088016113c2565b945060408701356001600160401b0380821115611a84575f80fd5b611a908a838b01611561565b90965094506060890135915080821115611aa8575f80fd5b506114e389828a01611561565b5f805f60608486031215611ac7575f80fd5b611ad0846113c2565b95602085013595506040909401359392505050565b5f805f805f805f6080888a031215611afb575f80fd5b611b04886113c2565b965060208801356001600160401b0380821115611b1f575f80fd5b611b2b8b838c01611561565b909850965060408a0135915080821115611b43575f80fd5b611b4f8b838c01611561565b909650945060608a0135915080821115611b67575f80fd5b50611b748a828b0161143f565b989b979a50959850939692959293505050565b5f805f60608486031215611b99575f80fd5b611ba2846113c2565b9250611bb0602085016113c2565b9150611bbe604085016119fd565b90509250925092565b5f8060408385031215611bd8575f80fd5b611be1836113c2565b9150611a34602084016113c2565b5f8060208385031215611c00575f80fd5b82356001600160401b03811115611c15575f80fd5b611c218582860161143f565b90969095509350505050565b5f805f805f60a08688031215611c41575f80fd5b611c4a866113c2565b9450611c58602087016113c2565b9350604086013592506060860135915060808601356001600160401b03811115611c80575f80fd5b61182188828901611721565b600181811c90821680611ca057607f821691505b602082108103611cbe57634e487b7160e01b5f52602260045260245ffd5b50919050565b634e487b7160e01b5f52603260045260245ffd5b634e487b7160e01b5f52601160045260245ffd5b5f60018201611cfd57611cfd611cd8565b5060010190565b808201808211156104a1576104a1611cd8565b601f82111561092a575f81815260208120601f850160051c81016020861015611d3d5750805b601f850160051c820191505b8181101561053857828155600101611d49565b81516001600160401b03811115611d7557611d75611653565b611d8981611d838454611c8c565b84611d17565b602080601f831160018114611dbc575f8415611da55750858301515b5f19600386901b1c1916600185901b178555610538565b5f85815260208120601f198616915b82811015611dea57888601518255948401946001909101908401611dcb565b5085821015611e0757878501515f19600388901b60f8161c191681555b5050505050600190811b01905550565b6001600160a01b03868116825285166020820152604081018490526060810183905260a0608082018190525f90611e509083018461150c565b979650505050505050565b5f60208284031215611e6b575f80fd5b815161143881611405565b6001600160a01b0386811682528516602082015260a0604082018190525f90611ea190830186611961565b8281036060840152611eb38186611961565b90508281036080840152611ec7818561150c565b98975050505050505050565b604081525f611ee56040830185611961565b8281036020840152611ef78185611961565b9594505050505056fea2646970667358221220904cf3ef83004cf27dc7f4d5e9392a180543473669cbe9bbda4529ee108de2f764736f6c63430008140033",
  "linkReferences": {},
  "deployedLinkReferences": {}
}