{
  "_format": "hh-sol-artifact-1",
  "contractName": "EtherReceiverMock",
  "sourceName": "contracts/mocks/EtherReceiverMock.sol",
  "abi": [
    {
      "inputs": [
        {
          "internalType": "bool",
          "name": "acceptEther",
          "type": "bool"
        }
      ],
      "name": "setAcceptEther",
      "outputs": [],
      "stateMutability": "nonpayable",
      "type": "function"
    },
    {
      "stateMutability": "payable",
      "type": "receive"
    }
  ],
  "bytecode": "0x608060405234801561000f575f80fd5b5060b68061001c5f395ff3fe608060405260043610601e575f3560e01c80634fea120c146034575f80fd5b366030575f5460ff16602e575f80fd5b005b5f80fd5b348015603e575f80fd5b50602e604a366004605c565b5f805460ff1916911515919091179055565b5f60208284031215606b575f80fd5b813580151581146079575f80fd5b939250505056fea2646970667358221220fa94cc6634261c7f7c33f5ed81e8514dfa6bc2892f4abf8e43429964877d211c64736f6c63430008140033",
  "linkReferences": {},
  "deployedLinkReferences": {}
}