{
  "_format": "hh-sol-artifact-1",
  "contractName": "ERC4626Mock",
  "sourceName": "contracts/mocks/token/ERC4626Mock.sol",
  "abi": [
    {
      "inputs": [
        {
          "internalType": "address",
          "name": "underlying",
          "type": "address"
        }
      ],
      "stateMutability": "nonpayable",
      "type": "constructor"
    },
    {
      "inputs": [
        {
          "internalType": "address",
          "name": "target",
          "type": "address"
        }
      ],
      "name": "AddressEmptyCode",
      "type": "error"
    },
    {
      "inputs": [
        {
          "internalType": "address",
          "name": "account",
          "type": "address"
        }
      ],
      "name": "AddressInsufficientBalance",
      "type": "error"
    },
    {
      "inputs": [
        {
          "internalType": "address",
          "name": "spender",
          "type": "address"
        },
        {
          "internalType": "uint256",
          "name": "currentAllowance",
          "type": "uint256"
        },
        {
          "internalType": "uint256",
          "name": "requestedDecrease",
          "type": "uint256"
        }
      ],
      "name": "ERC20FailedDecreaseAllowance",
      "type": "error"
    },
    {
      "inputs": [
        {
          "internalType": "address",
          "name": "spender",
          "type": "address"
        },
        {
          "internalType": "uint256",
          "name": "allowance",
          "type": "uint256"
        },
        {
          "internalType": "uint256",
          "name": "needed",
          "type": "uint256"
        }
      ],
      "name": "ERC20InsufficientAllowance",
      "type": "error"
    },
    {
      "inputs": [
        {
          "internalType": "address",
          "name": "sender",
          "type": "address"
        },
        {
          "internalType": "uint256",
          "name": "balance",
          "type": "uint256"
        },
        {
          "internalType": "uint256",
          "name": "needed",
          "type": "uint256"
        }
      ],
      "name": "ERC20InsufficientBalance",
      "type": "error"
    },
    {
      "inputs": [
        {
          "internalType": "address",
          "name": "approver",
          "type": "address"
        }
      ],
      "name": "ERC20InvalidApprover",
      "type": "error"
    },
    {
      "inputs": [
        {
          "internalType": "address",
          "name": "receiver",
          "type": "address"
        }
      ],
      "name": "ERC20InvalidReceiver",
      "type": "error"
    },
    {
      "inputs": [
        {
          "internalType": "address",
          "name": "sender",
          "type": "address"
        }
      ],
      "name": "ERC20InvalidSender",
      "type": "error"
    },
    {
      "inputs": [
        {
          "internalType": "address",
          "name": "spender",
          "type": "address"
        }
      ],
      "name": "ERC20InvalidSpender",
      "type": "error"
    },
    {
      "inputs": [
        {
          "internalType": "address",
          "name": "receiver",
          "type": "address"
        },
        {
          "internalType": "uint256",
          "name": "assets",
          "type": "uint256"
        },
        {
          "internalType": "uint256",
          "name": "max",
          "type": "uint256"
        }
      ],
      "name": "ERC4626ExceededMaxDeposit",
      "type": "error"
    },
    {
      "inputs": [
        {
          "internalType": "address",
          "name": "receiver",
          "type": "address"
        },
        {
          "internalType": "uint256",
          "name": "shares",
          "type": "uint256"
        },
        {
          "internalType": "uint256",
          "name": "max",
          "type": "uint256"
        }
      ],
      "name": "ERC4626ExceededMaxMint",
      "type": "error"
    },
    {
      "inputs": [
        {
          "internalType": "address",
          "name": "owner",
          "type": "address"
        },
        {
          "internalType": "uint256",
          "name": "shares",
          "type": "uint256"
        },
        {
          "internalType": "uint256",
          "name": "max",
          "type": "uint256"
        }
      ],
      "name": "ERC4626ExceededMaxRedeem",
      "type": "error"
    },
    {
      "inputs": [
        {
          "internalType": "address",
          "name": "owner",
          "type": "address"
        },
        {
          "internalType": "uint256",
          "name": "assets",
          "type": "uint256"
        },
        {
          "internalType": "uint256",
          "name": "max",
          "type": "uint256"
        }
      ],
      "name": "ERC4626ExceededMaxWithdraw",
      "type": "error"
    },
    {
      "inputs": [],
      "name": "FailedInnerCall",
      "type": "error"
    },
    {
      "inputs": [],
      "name": "MathOverflowedMulDiv",
      "type": "error"
    },
    {
      "inputs": [
        {
          "internalType": "address",
          "name": "token",
          "type": "address"
        }
      ],
      "name": "SafeERC20FailedOperation",
      "type": "error"
    },
    {
      "anonymous": false,
      "inputs": [
        {
          "indexed": true,
          "internalType": "address",
          "name": "owner",
          "type": "address"
        },
        {
          "indexed": true,
          "internalType": "address",
          "name": "spender",
          "type": "address"
        },
        {
          "indexed": false,
          "internalType": "uint256",
          "name": "value",
          "type": "uint256"
        }
      ],
      "name": "Approval",
      "type": "event"
    },
    {
      "anonymous": false,
      "inputs": [
        {
          "indexed": true,
          "internalType": "address",
          "name": "sender",
          "type": "address"
        },
        {
          "indexed": true,
          "internalType": "address",
          "name": "owner",
          "type": "address"
        },
        {
          "indexed": false,
          "internalType": "uint256",
          "name": "assets",
          "type": "uint256"
        },
        {
          "indexed": false,
          "internalType": "uint256",
          "name": "shares",
          "type": "uint256"
        }
      ],
      "name": "Deposit",
      "type": "event"
    },
    {
      "anonymous": false,
      "inputs": [
        {
          "indexed": true,
          "internalType": "address",
          "name": "from",
          "type": "address"
        },
        {
          "indexed": true,
          "internalType": "address",
          "name": "to",
          "type": "address"
        },
        {
          "indexed": false,
          "internalType": "uint256",
          "name": "value",
          "type": "uint256"
        }
      ],
      "name": "Transfer",
      "type": "event"
    },
    {
      "anonymous": false,
      "inputs": [
        {
          "indexed": true,
          "internalType": "address",
          "name": "sender",
          "type": "address"
        },
        {
          "indexed": true,
          "internalType": "address",
          "name": "receiver",
          "type": "address"
        },
        {
          "indexed": true,
          "internalType": "address",
          "name": "owner",
          "type": "address"
        },
        {
          "indexed": false,
          "internalType": "uint256",
          "name": "assets",
          "type": "uint256"
        },
        {
          "indexed": false,
          "internalType": "uint256",
          "name": "shares",
          "type": "uint256"
        }
      ],
      "name": "Withdraw",
      "type": "event"
    },
    {
      "inputs": [
        {
          "internalType": "address",
          "name": "owner",
          "type": "address"
        },
        {
          "internalType": "address",
          "name": "spender",
          "type": "address"
        }
      ],
      "name": "allowance",
      "outputs": [
        {
          "internalType": "uint256",
          "name": "",
          "type": "uint256"
        }
      ],
      "stateMutability": "view",
      "type": "function"
    },
    {
      "inputs": [
        {
          "internalType": "address",
          "name": "spender",
          "type": "address"
        },
        {
          "internalType": "uint256",
          "name": "value",
          "type": "uint256"
        }
      ],
      "name": "approve",
      "outputs": [
        {
          "internalType": "bool",
          "name": "",
          "type": "bool"
        }
      ],
      "stateMutability": "nonpayable",
      "type": "function"
    },
    {
      "inputs": [],
      "name": "asset",
      "outputs": [
        {
          "internalType": "address",
          "name": "",
          "type": "address"
        }
      ],
      "stateMutability": "view",
      "type": "function"
    },
    {
      "inputs": [
        {
          "internalType": "address",
          "name": "account",
          "type": "address"
        }
      ],
      "name": "balanceOf",
      "outputs": [
        {
          "internalType": "uint256",
          "name": "",
          "type": "uint256"
        }
      ],
      "stateMutability": "view",
      "type": "function"
    },
    {
      "inputs": [
        {
          "internalType": "address",
          "name": "account",
          "type": "address"
        },
        {
          "internalType": "uint256",
          "name": "amount",
          "type": "uint256"
        }
      ],
      "name": "burn",
      "outputs": [],
      "stateMutability": "nonpayable",
      "type": "function"
    },
    {
      "inputs": [
        {
          "internalType": "uint256",
          "name": "shares",
          "type": "uint256"
        }
      ],
      "name": "convertToAssets",
      "outputs": [
        {
          "internalType": "uint256",
          "name": "",
          "type": "uint256"
        }
      ],
      "stateMutability": "view",
      "type": "function"
    },
    {
      "inputs": [
        {
          "internalType": "uint256",
          "name": "assets",
          "type": "uint256"
        }
      ],
      "name": "convertToShares",
      "outputs": [
        {
          "internalType": "uint256",
          "name": "",
          "type": "uint256"
        }
      ],
      "stateMutability": "view",
      "type": "function"
    },
    {
      "inputs": [],
      "name": "decimals",
      "outputs": [
        {
          "internalType": "uint8",
          "name": "",
          "type": "uint8"
        }
      ],
      "stateMutability": "view",
      "type": "function"
    },
    {
      "inputs": [
        {
          "internalType": "address",
          "name": "spender",
          "type": "address"
        },
        {
          "internalType": "uint256",
          "name": "requestedDecrease",
          "type": "uint256"
        }
      ],
      "name": "decreaseAllowance",
      "outputs": [
        {
          "internalType": "bool",
          "name": "",
          "type": "bool"
        }
      ],
      "stateMutability": "nonpayable",
      "type": "function"
    },
    {
      "inputs": [
        {
          "internalType": "uint256",
          "name": "assets",
          "type": "uint256"
        },
        {
          "internalType": "address",
          "name": "receiver",
          "type": "address"
        }
      ],
      "name": "deposit",
      "outputs": [
        {
          "internalType": "uint256",
          "name": "",
          "type": "uint256"
        }
      ],
      "stateMutability": "nonpayable",
      "type": "function"
    },
    {
      "inputs": [
        {
          "internalType": "address",
          "name": "spender",
          "type": "address"
        },
        {
          "internalType": "uint256",
          "name": "addedValue",
          "type": "uint256"
        }
      ],
      "name": "increaseAllowance",
      "outputs": [
        {
          "internalType": "bool",
          "name": "",
          "type": "bool"
        }
      ],
      "stateMutability": "nonpayable",
      "type": "function"
    },
    {
      "inputs": [
        {
          "internalType": "address",
          "name": "",
          "type": "address"
        }
      ],
      "name": "maxDeposit",
      "outputs": [
        {
          "internalType": "uint256",
          "name": "",
          "type": "uint256"
        }
      ],
      "stateMutability": "view",
      "type": "function"
    },
    {
      "inputs": [
        {
          "internalType": "address",
          "name": "",
          "type": "address"
        }
      ],
      "name": "maxMint",
      "outputs": [
        {
          "internalType": "uint256",
          "name": "",
          "type": "uint256"
        }
      ],
      "stateMutability": "view",
      "type": "function"
    },
    {
      "inputs": [
        {
          "internalType": "address",
          "name": "owner",
          "type": "address"
        }
      ],
      "name": "maxRedeem",
      "outputs": [
        {
          "internalType": "uint256",
          "name": "",
          "type": "uint256"
        }
      ],
      "stateMutability": "view",
      "type": "function"
    },
    {
      "inputs": [
        {
          "internalType": "address",
          "name": "owner",
          "type": "address"
        }
      ],
      "name": "maxWithdraw",
      "outputs": [
        {
          "internalType": "uint256",
          "name": "",
          "type": "uint256"
        }
      ],
      "stateMutability": "view",
      "type": "function"
    },
    {
      "inputs": [
        {
          "internalType": "address",
          "name": "account",
          "type": "address"
        },
        {
          "internalType": "uint256",
          "name": "amount",
          "type": "uint256"
        }
      ],
      "name": "mint",
      "outputs": [],
      "stateMutability": "nonpayable",
      "type": "function"
    },
    {
      "inputs": [
        {
          "internalType": "uint256",
          "name": "shares",
          "type": "uint256"
        },
        {
          "internalType": "address",
          "name": "receiver",
          "type": "address"
        }
      ],
      "name": "mint",
      "outputs": [
        {
          "internalType": "uint256",
          "name": "",
          "type": "uint256"
        }
      ],
      "stateMutability": "nonpayable",
      "type": "function"
    },
    {
      "inputs": [],
      "name": "name",
      "outputs": [
        {
          "internalType": "string",
          "name": "",
          "type": "string"
        }
      ],
      "stateMutability": "view",
      "type": "function"
    },
    {
      "inputs": [
        {
          "internalType": "uint256",
          "name": "assets",
          "type": "uint256"
        }
      ],
      "name": "previewDeposit",
      "outputs": [
        {
          "internalType": "uint256",
          "name": "",
          "type": "uint256"
        }
      ],
      "stateMutability": "view",
      "type": "function"
    },
    {
      "inputs": [
        {
          "internalType": "uint256",
          "name": "shares",
          "type": "uint256"
        }
      ],
      "name": "previewMint",
      "outputs": [
        {
          "internalType": "uint256",
          "name": "",
          "type": "uint256"
        }
      ],
      "stateMutability": "view",
      "type": "function"
    },
    {
      "inputs": [
        {
          "internalType": "uint256",
          "name": "shares",
          "type": "uint256"
        }
      ],
      "name": "previewRedeem",
      "outputs": [
        {
          "internalType": "uint256",
          "name": "",
          "type": "uint256"
        }
      ],
      "stateMutability": "view",
      "type": "function"
    },
    {
      "inputs": [
        {
          "internalType": "uint256",
          "name": "assets",
          "type": "uint256"
        }
      ],
      "name": "previewWithdraw",
      "outputs": [
        {
          "internalType": "uint256",
          "name": "",
          "type": "uint256"
        }
      ],
      "stateMutability": "view",
      "type": "function"
    },
    {
      "inputs": [
        {
          "internalType": "uint256",
          "name": "shares",
          "type": "uint256"
        },
        {
          "internalType": "address",
          "name": "receiver",
          "type": "address"
        },
        {
          "internalType": "address",
          "name": "owner",
          "type": "address"
        }
      ],
      "name": "redeem",
      "outputs": [
        {
          "internalType": "uint256",
          "name": "",
          "type": "uint256"
        }
      ],
      "stateMutability": "nonpayable",
      "type": "function"
    },
    {
      "inputs": [],
      "name": "symbol",
      "outputs": [
        {
          "internalType": "string",
          "name": "",
          "type": "string"
        }
      ],
      "stateMutability": "view",
      "type": "function"
    },
    {
      "inputs": [],
      "name": "totalAssets",
      "outputs": [
        {
          "internalType": "uint256",
          "name": "",
          "type": "uint256"
        }
      ],
      "stateMutability": "view",
      "type": "function"
    },
    {
      "inputs": [],
      "name": "totalSupply",
      "outputs": [
        {
          "internalType": "uint256",
          "name": "",
          "type": "uint256"
        }
      ],
      "stateMutability": "view",
      "type": "function"
    },
    {
      "inputs": [
        {
          "internalType": "address",
          "name": "to",
          "type": "address"
        },
        {
          "internalType": "uint256",
          "name": "value",
          "type": "uint256"
        }
      ],
      "name": "transfer",
      "outputs": [
        {
          "internalType": "bool",
          "name": "",
          "type": "bool"
        }
      ],
      "stateMutability": "nonpayable",
      "type": "function"
    },
    {
      "inputs": [
        {
          "internalType": "address",
          "name": "from",
          "type": "address"
        },
        {
          "internalType": "address",
          "name": "to",
          "type": "address"
        },
        {
          "internalType": "uint256",
          "name": "value",
          "type": "uint256"
        }
      ],
      "name": "transferFrom",
      "outputs": [
        {
          "internalType": "bool",
          "name": "",
          "type": "bool"
        }
      ],
      "stateMutability": "nonpayable",
      "type": "function"
    },
    {
      "inputs": [
        {
          "internalType": "uint256",
          "name": "assets",
          "type": "uint256"
        },
        {
          "internalType": "address",
          "name": "receiver",
          "type": "address"
        },
        {
          "internalType": "address",
          "name": "owner",
          "type": "address"
        }
      ],
      "name": "withdraw",
      "outputs": [
        {
          "internalType": "uint256",
          "name": "",
          "type": "uint256"
        }
      ],
      "stateMutability": "nonpayable",
      "type": "function"
    }
  ],
  "bytecode": "0x60c060405234801562000010575f80fd5b5060405162001787380380620017878339810160408190526200003391620001bb565b806040518060400160405280600b81526020016a455243343632364d6f636b60a81b8152506040518060400160405280600681526020016545343632364d60d01b81525081600390816200008891906200028a565b5060046200009782826200028a565b5050505f80620000ad83620000dc60201b60201c565b9150915081620000bf576012620000c1565b805b60ff1660a05250506001600160a01b03166080525062000398565b60408051600481526024810182526020810180516001600160e01b031663313ce56760e01b17905290515f918291829182916001600160a01b03871691620001249162000352565b5f60405180830381855afa9150503d805f81146200015e576040519150601f19603f3d011682016040523d82523d5f602084013e62000163565b606091505b50915091508180156200017857506020815110155b15620001af575f8180602001905181019062000195919062000380565b905060ff8111620001ad576001969095509350505050565b505b505f9485945092505050565b5f60208284031215620001cc575f80fd5b81516001600160a01b0381168114620001e3575f80fd5b9392505050565b634e487b7160e01b5f52604160045260245ffd5b600181811c908216806200021357607f821691505b6020821081036200023257634e487b7160e01b5f52602260045260245ffd5b50919050565b601f82111562000285575f81815260208120601f850160051c81016020861015620002605750805b601f850160051c820191505b8181101562000281578281556001016200026c565b5050505b505050565b81516001600160401b03811115620002a657620002a6620001ea565b620002be81620002b78454620001fe565b8462000238565b602080601f831160018114620002f4575f8415620002dc5750858301515b5f19600386901b1c1916600185901b17855562000281565b5f85815260208120601f198616915b82811015620003245788860151825594840194600190910190840162000303565b50858210156200034257878501515f19600388901b60f8161c191681555b5050505050600190811b01905550565b5f82515f5b8181101562000373576020818601810151858301520162000357565b505f920191825250919050565b5f6020828403121562000391575f80fd5b5051919050565b60805160a0516113b8620003cf5f395f61057c01525f818161028501528181610416015281816109110152610a0501526113b85ff3fe608060405234801561000f575f80fd5b50600436106101c6575f3560e01c806370a08231116100fe578063b460af941161009e578063ce96cb771161006e578063ce96cb77146103c6578063d905777e146103d9578063dd62ed3e146103ec578063ef8b30f7146103b3575f80fd5b8063b460af941461038d578063ba087652146103a0578063c63d75b6146102c2578063c6e6f592146103b3575f80fd5b80639dc29fac116100d95780639dc29fac14610341578063a457c2d714610354578063a9059cbb14610367578063b3d7f6b91461037a575f80fd5b806370a08231146102fe57806394bf804d1461032657806395d89b4114610339575f80fd5b8063313ce56711610169578063402d267d11610144578063402d267d146102c257806340c10f19146102d65780634cdad506146101fa5780636e553f65146102eb575f80fd5b8063313ce5671461025e57806338d52e0f1461027857806339509351146102af575f80fd5b8063095ea7b3116101a4578063095ea7b31461020d5780630a28a4771461023057806318160ddd1461024357806323b872dd1461024b575f80fd5b806301e1d114146101ca57806306fdde03146101e557806307a2d13a146101fa575b5f80fd5b6101d26103ff565b6040519081526020015b60405180910390f35b6101ed61048c565b6040516101dc9190610fec565b6101d261020836600461101e565b61051c565b61022061021b366004611050565b61052d565b60405190151581526020016101dc565b6101d261023e36600461101e565b610544565b6002546101d2565b610220610259366004611078565b610550565b610266610575565b60405160ff90911681526020016101dc565b6040516001600160a01b037f00000000000000000000000000000000000000000000000000000000000000001681526020016101dc565b6102206102bd366004611050565b6105a0565b6101d26102d03660046110b1565b505f1990565b6102e96102e4366004611050565b6105c1565b005b6101d26102f93660046110ca565b6105cf565b6101d261030c3660046110b1565b6001600160a01b03165f9081526020819052604090205490565b6101d26103343660046110ca565b610600565b6101ed61061b565b6102e961034f366004611050565b61062a565b610220610362366004611050565b610634565b610220610375366004611050565b610682565b6101d261038836600461101e565b61068f565b6101d261039b3660046110f4565b61069b565b6101d26103ae3660046110f4565b6106f1565b6101d26103c136600461101e565b61073e565b6101d26103d43660046110b1565b610749565b6101d26103e73660046110b1565b61076b565b6101d26103fa36600461112d565b610788565b6040516370a0823160e01b81523060048201525f907f00000000000000000000000000000000000000000000000000000000000000006001600160a01b0316906370a0823190602401602060405180830381865afa158015610463573d5f803e3d5ffd5b505050506040513d601f19601f820116820180604052508101906104879190611155565b905090565b60606003805461049b9061116c565b80601f01602080910402602001604051908101604052809291908181526020018280546104c79061116c565b80156105125780601f106104e957610100808354040283529160200191610512565b820191905f5260205f20905b8154815290600101906020018083116104f557829003601f168201915b5050505050905090565b5f610527825f6107b2565b92915050565b5f3361053a8185856107ea565b5060019392505050565b5f6105278260016107fc565b5f3361055d85828561082b565b61056885858561087b565b60019150505b9392505050565b5f610487817f00000000000000000000000000000000000000000000000000000000000000006111b8565b5f3361053a8185856105b28383610788565b6105bc91906111d1565b6107ea565b6105cb82826108d8565b5050565b5f5f196105e0565b60405180910390fd5b5f6105ea8561073e565b90506105f83385878461090c565b949350505050565b5f5f195f61060d8561068f565b90506105f83385838861090c565b60606004805461049b9061116c565b6105cb828261099e565b5f33816106418286610788565b90508381101561066a57848185604051632983c0c360e21b81526004016105d7939291906111e4565b61067782868684036107ea565b506001949350505050565b5f3361053a81858561087b565b5f6105278260016107b2565b5f806106a683610749565b9050808511156106cf57828582604051633fa733bb60e21b81526004016105d7939291906111e4565b5f6106d986610544565b90506106e833868689856109d2565b95945050505050565b5f806106fc8361076b565b90508085111561072557828582604051632e52afbb60e21b81526004016105d7939291906111e4565b5f61072f8661051c565b90506106e8338686848a6109d2565b5f610527825f6107fc565b6001600160a01b0381165f90815260208190526040812054610527905f6107b2565b6001600160a01b0381165f90815260208190526040812054610527565b6001600160a01b039182165f90815260016020908152604080832093909416825291909152205490565b5f61056e6107be6103ff565b6107c99060016111d1565b6107d45f600a6112e5565b6002546107e191906111d1565b85919085610a92565b6107f78383836001610adf565b505050565b5f61056e61080b82600a6112e5565b60025461081891906111d1565b6108206103ff565b6107e19060016111d1565b5f6108368484610788565b90505f198114610875578181101561086757828183604051637dc7a0d960e11b81526004016105d7939291906111e4565b61087584848484035f610adf565b50505050565b6001600160a01b0383166108a457604051634b637e8f60e11b81525f60048201526024016105d7565b6001600160a01b0382166108cd5760405163ec442f0560e01b81525f60048201526024016105d7565b6107f7838383610ba3565b6001600160a01b0382166109015760405163ec442f0560e01b81525f60048201526024016105d7565b6105cb5f8383610ba3565b6109387f0000000000000000000000000000000000000000000000000000000000000000853085610cb6565b61094283826108d8565b826001600160a01b0316846001600160a01b03167fdcbc1c05240f31ff3ad067ef1ee35ce4997762752e3a095284754544f4c709d78484604051610990929190918252602082015260400190565b60405180910390a350505050565b6001600160a01b0382166109c757604051634b637e8f60e11b81525f60048201526024016105d7565b6105cb825f83610ba3565b826001600160a01b0316856001600160a01b0316146109f6576109f683868361082b565b610a00838261099e565b610a2b7f00000000000000000000000000000000000000000000000000000000000000008584610d1d565b826001600160a01b0316846001600160a01b0316866001600160a01b03167ffbde797d201c681b91056529119e0b02407c7bb96a4a2c75c01fc9667232c8db8585604051610a83929190918252602082015260400190565b60405180910390a45050505050565b5f80610a9f868686610d4e565b9050610aaa83610e0c565b8015610ac557505f8480610ac057610ac06112f3565b868809115b156106e857610ad56001826111d1565b9695505050505050565b6001600160a01b038416610b085760405163e602df0560e01b81525f60048201526024016105d7565b6001600160a01b038316610b3157604051634a1406b160e11b81525f60048201526024016105d7565b6001600160a01b038085165f908152600160209081526040808320938716835292905220829055801561087557826001600160a01b0316846001600160a01b03167f8c5be1e5ebec7d5bd14f71427d1e84f3dd0314c0f7b2291e5b200ac8c7c3b9258460405161099091815260200190565b6001600160a01b038316610bcd578060025f828254610bc291906111d1565b90915550610c2a9050565b6001600160a01b0383165f9081526020819052604090205481811015610c0c5783818360405163391434e360e21b81526004016105d7939291906111e4565b6001600160a01b0384165f9081526020819052604090209082900390555b6001600160a01b038216610c4657600280548290039055610c64565b6001600160a01b0382165f9081526020819052604090208054820190555b816001600160a01b0316836001600160a01b03167fddf252ad1be2c89b69c2b068fc378daa952ba7f163c4a11628f55a4df523b3ef83604051610ca991815260200190565b60405180910390a3505050565b6040516001600160a01b0384811660248301528381166044830152606482018390526108759186918216906323b872dd906084015b604051602081830303815290604052915060e01b6020820180516001600160e01b038381831617835250505050610e38565b6040516001600160a01b038381166024830152604482018390526107f791859182169063a9059cbb90606401610ceb565b5f80805f19858709858702925082811083820303915050805f03610d8557838281610d7b57610d7b6112f3565b049250505061056e565b808411610da55760405163227bc15360e01b815260040160405180910390fd5b5f8486880960026001871981018816978890046003810283188082028403028082028403028082028403028082028403028082028403029081029092039091025f889003889004909101858311909403939093029303949094049190911702949350505050565b5f6002826003811115610e2157610e21611307565b610e2b919061131b565b60ff166001149050919050565b5f610e4c6001600160a01b03841683610e99565b905080515f14158015610e70575080806020019051810190610e6e9190611348565b155b156107f757604051635274afe760e01b81526001600160a01b03841660048201526024016105d7565b606061056e83835f610ea9610ec2565b604051630a12f52160e11b815260040160405180910390fd5b606082471015610ee75760405163cd78605960e01b81523060048201526024016105d7565b5f80866001600160a01b03168587604051610f029190611367565b5f6040518083038185875af1925050503d805f8114610f3c576040519150601f19603f3d011682016040523d82523d5f602084013e610f41565b606091505b5091509150610f5287838387610f5d565b979650505050505050565b60608315610fa95782515f03610fa257846001600160a01b03163b5f03610fa257604051639996b31560e01b81526001600160a01b03861660048201526024016105d7565b50816105f8565b6105f88383815115610fbe5781518083602001fd5b610ea98163ffffffff16565b5f5b83811015610fe4578181015183820152602001610fcc565b50505f910152565b602081525f825180602084015261100a816040850160208701610fca565b601f01601f19169190910160400192915050565b5f6020828403121561102e575f80fd5b5035919050565b80356001600160a01b038116811461104b575f80fd5b919050565b5f8060408385031215611061575f80fd5b61106a83611035565b946020939093013593505050565b5f805f6060848603121561108a575f80fd5b61109384611035565b92506110a160208501611035565b9150604084013590509250925092565b5f602082840312156110c1575f80fd5b61056e82611035565b5f80604083850312156110db575f80fd5b823591506110eb60208401611035565b90509250929050565b5f805f60608486031215611106575f80fd5b8335925061111660208501611035565b915061112460408501611035565b90509250925092565b5f806040838503121561113e575f80fd5b61114783611035565b91506110eb60208401611035565b5f60208284031215611165575f80fd5b5051919050565b600181811c9082168061118057607f821691505b60208210810361119e57634e487b7160e01b5f52602260045260245ffd5b50919050565b634e487b7160e01b5f52601160045260245ffd5b60ff8181168382160190811115610527576105276111a4565b80820180821115610527576105276111a4565b6001600160a01b039390931683526020830191909152604082015260600190565b600181815b8085111561123f57815f1904821115611225576112256111a4565b8085161561123257918102915b93841c939080029061120a565b509250929050565b5f8261125557506001610527565b8161126157505f610527565b816001811461127757600281146112815761129d565b6001915050610527565b60ff841115611292576112926111a4565b50506001821b610527565b5060208310610133831016604e8410600b84101617156112c0575081810a610527565b6112ca8383611205565b805f19048211156112dd576112dd6111a4565b029392505050565b5f61056e60ff841683611247565b634e487b7160e01b5f52601260045260245ffd5b634e487b7160e01b5f52602160045260245ffd5b5f60ff83168061133957634e487b7160e01b5f52601260045260245ffd5b8060ff84160691505092915050565b5f60208284031215611358575f80fd5b8151801515811461056e575f80fd5b5f8251611378818460208701610fca565b919091019291505056fea2646970667358221220922259f77c1329cc701773e14edb03510d05392b91e40616e18dd27f39c8210964736f6c63430008140033",
  "linkReferences": {},
  "deployedLinkReferences": {}
}