{
  "_format": "hh-sol-artifact-1",
  "contractName": "$StorageSlot",
  "sourceName": "contracts-exposed/utils/StorageSlot.sol",
  "abi": [
    {
      "inputs": [],
      "stateMutability": "payable",
      "type": "constructor"
    },
    {
      "inputs": [
        {
          "internalType": "bytes32",
          "name": "slot",
          "type": "bytes32"
        }
      ],
      "name": "$getAddressSlot",
      "outputs": [
        {
          "components": [
            {
              "internalType": "address",
              "name": "value",
              "type": "address"
            }
          ],
          "internalType": "struct StorageSlot.AddressSlot",
          "name": "r",
          "type": "tuple"
        }
      ],
      "stateMutability": "pure",
      "type": "function"
    },
    {
      "inputs": [
        {
          "internalType": "bytes32",
          "name": "slot",
          "type": "bytes32"
        }
      ],
      "name": "$getBooleanSlot",
      "outputs": [
        {
          "components": [
            {
              "internalType": "bool",
              "name": "value",
              "type": "bool"
            }
          ],
          "internalType": "struct StorageSlot.BooleanSlot",
          "name": "r",
          "type": "tuple"
        }
      ],
      "stateMutability": "pure",
      "type": "function"
    },
    {
      "inputs": [
        {
          "internalType": "bytes32",
          "name": "slot",
          "type": "bytes32"
        }
      ],
      "name": "$getBytes32Slot",
      "outputs": [
        {
          "components": [
            {
              "internalType": "bytes32",
              "name": "value",
              "type": "bytes32"
            }
          ],
          "internalType": "struct StorageSlot.Bytes32Slot",
          "name": "r",
          "type": "tuple"
        }
      ],
      "stateMutability": "pure",
      "type": "function"
    },
    {
      "inputs": [
        {
          "internalType": "bytes32",
          "name": "slot",
          "type": "bytes32"
        }
      ],
      "name": "$getBytesSlot",
      "outputs": [
        {
          "components": [
            {
              "internalType": "bytes",
              "name": "value",
              "type": "bytes"
            }
          ],
          "internalType": "struct StorageSlot.BytesSlot",
          "name": "r",
          "type": "tuple"
        }
      ],
      "stateMutability": "pure",
      "type": "function"
    },
    {
      "inputs": [
        {
          "internalType": "uint256",
          "name": "store",
          "type": "uint256"
        }
      ],
      "name": "$getBytesSlot",
      "outputs": [
        {
          "components": [
            {
              "internalType": "bytes",
              "name": "value",
              "type": "bytes"
            }
          ],
          "internalType": "struct StorageSlot.BytesSlot",
          "name": "r",
          "type": "tuple"
        }
      ],
      "stateMutability": "view",
      "type": "function"
    },
    {
      "inputs": [
        {
          "internalType": "uint256",
          "name": "store",
          "type": "uint256"
        }
      ],
      "name": "$getStringSlot",
      "outputs": [
        {
          "components": [
            {
              "internalType": "string",
              "name": "value",
              "type": "string"
            }
          ],
          "internalType": "struct StorageSlot.StringSlot",
          "name": "r",
          "type": "tuple"
        }
      ],
      "stateMutability": "view",
      "type": "function"
    },
    {
      "inputs": [
        {
          "internalType": "bytes32",
          "name": "slot",
          "type": "bytes32"
        }
      ],
      "name": "$getStringSlot",
      "outputs": [
        {
          "components": [
            {
              "internalType": "string",
              "name": "value",
              "type": "string"
            }
          ],
          "internalType": "struct StorageSlot.StringSlot",
          "name": "r",
          "type": "tuple"
        }
      ],
      "stateMutability": "pure",
      "type": "function"
    },
    {
      "inputs": [
        {
          "internalType": "bytes32",
          "name": "slot",
          "type": "bytes32"
        }
      ],
      "name": "$getUint256Slot",
      "outputs": [
        {
          "components": [
            {
              "internalType": "uint256",
              "name": "value",
              "type": "uint256"
            }
          ],
          "internalType": "struct StorageSlot.Uint256Slot",
          "name": "r",
          "type": "tuple"
        }
      ],
      "stateMutability": "pure",
      "type": "function"
    },
    {
      "inputs": [],
      "name": "__hh_exposed_bytecode_marker",
      "outputs": [
        {
          "internalType": "bytes32",
          "name": "",
          "type": "bytes32"
        }
      ],
      "stateMutability": "view",
      "type": "function"
    },
    {
      "stateMutability": "payable",
      "type": "receive"
    }
  ],
  "bytecode": "0x608060405261043b806100115f395ff3fe608060405260043610610087575f3560e01c8063718de66c11610057578063718de66c1461017d5780637b5d4e201461019c578063d8cd5221146101bb578063f5a6439d14610151578063ff59feda146101da575f80fd5b80632ccb036214610092578063342db739146100f05780634c2b48f5146101235780636064f5bb14610151575f80fd5b3661008e57005b5f80fd5b34801561009d575f80fd5b506100d36100ac366004610351565b60408051602080820183525f909152815190810190915290546001600160a01b0316815290565b60405190516001600160a01b031681526020015b60405180910390f35b3480156100fb575f80fd5b506101156e1a185c991a185d0b595e1c1bdcd959608a1b81565b6040519081526020016100e7565b34801561012e575f80fd5b5061014261013d366004610351565b610228565b604051905181526020016100e7565b34801561015c575f80fd5b5061017061016b366004610351565b61024a565b6040516100e791906103ab565b348015610188575f80fd5b50610170610197366004610351565b6102fc565b3480156101a7575f80fd5b506101706101b6366004610351565b61031d565b3480156101c6575f80fd5b506101426101d5366004610351565b61033e565b3480156101e5575f80fd5b506102176101f4366004610351565b60408051602080820183525f9091528151908101909152905460ff161515815290565b6040519051151581526020016100e7565b60408051602081019091525f81525b5060408051602081019091529054815290565b604080516020810190915260608152815b6040518060200160405290815f82018054610275906103cd565b80601f01602080910402602001604051908101604052809291908181526020018280546102a1906103cd565b80156102ec5780601f106102c3576101008083540402835291602001916102ec565b820191905f5260205f20905b8154815290600101906020018083116102cf57829003601f168201915b5050505050815250509050919050565b6040805160208101909152606081525f82815260016020526040902061025b565b6040805160208101909152606081525f82815260208190526040902061025b565b60408051602081019091525f8152610237565b5f60208284031215610361575f80fd5b5035919050565b5f81518084525f5b8181101561038c57602081850181015186830182015201610370565b505f602082860101526020601f19601f83011685010191505092915050565b602081525f82516020808401526103c56040840182610368565b949350505050565b600181811c908216806103e157607f821691505b6020821081036103ff57634e487b7160e01b5f52602260045260245ffd5b5091905056fea2646970667358221220111cd0a22d268c6d6c1cb0b0b897b16c6216c32cf8f72cbb15ca3c625a8e95e664736f6c63430008140033",
  "linkReferences": {},
  "deployedLinkReferences": {}
}