{
  "_format": "hh-sol-artifact-1",
  "contractName": "$ERC721URIStorageMock",
  "sourceName": "contracts-exposed/mocks/token/ERC721URIStorageMock.sol",
  "abi": [
    {
      "inputs": [
        {
          "internalType": "string",
          "name": "name_",
          "type": "string"
        },
        {
          "internalType": "string",
          "name": "symbol_",
          "type": "string"
        }
      ],
      "stateMutability": "payable",
      "type": "constructor"
    },
    {
      "inputs": [
        {
          "internalType": "address",
          "name": "sender",
          "type": "address"
        },
        {
          "internalType": "uint256",
          "name": "tokenId",
          "type": "uint256"
        },
        {
          "internalType": "address",
          "name": "owner",
          "type": "address"
        }
      ],
      "name": "ERC721IncorrectOwner",
      "type": "error"
    },
    {
      "inputs": [
        {
          "internalType": "address",
          "name": "operator",
          "type": "address"
        },
        {
          "internalType": "uint256",
          "name": "tokenId",
          "type": "uint256"
        }
      ],
      "name": "ERC721InsufficientApproval",
      "type": "error"
    },
    {
      "inputs": [
        {
          "internalType": "address",
          "name": "approver",
          "type": "address"
        }
      ],
      "name": "ERC721InvalidApprover",
      "type": "error"
    },
    {
      "inputs": [
        {
          "internalType": "address",
          "name": "operator",
          "type": "address"
        }
      ],
      "name": "ERC721InvalidOperator",
      "type": "error"
    },
    {
      "inputs": [
        {
          "internalType": "address",
          "name": "owner",
          "type": "address"
        }
      ],
      "name": "ERC721InvalidOwner",
      "type": "error"
    },
    {
      "inputs": [
        {
          "internalType": "address",
          "name": "receiver",
          "type": "address"
        }
      ],
      "name": "ERC721InvalidReceiver",
      "type": "error"
    },
    {
      "inputs": [
        {
          "internalType": "address",
          "name": "sender",
          "type": "address"
        }
      ],
      "name": "ERC721InvalidSender",
      "type": "error"
    },
    {
      "inputs": [
        {
          "internalType": "uint256",
          "name": "tokenId",
          "type": "uint256"
        }
      ],
      "name": "ERC721NonexistentToken",
      "type": "error"
    },
    {
      "anonymous": false,
      "inputs": [
        {
          "indexed": true,
          "internalType": "address",
          "name": "owner",
          "type": "address"
        },
        {
          "indexed": true,
          "internalType": "address",
          "name": "approved",
          "type": "address"
        },
        {
          "indexed": true,
          "internalType": "uint256",
          "name": "tokenId",
          "type": "uint256"
        }
      ],
      "name": "Approval",
      "type": "event"
    },
    {
      "anonymous": false,
      "inputs": [
        {
          "indexed": true,
          "internalType": "address",
          "name": "owner",
          "type": "address"
        },
        {
          "indexed": true,
          "internalType": "address",
          "name": "operator",
          "type": "address"
        },
        {
          "indexed": false,
          "internalType": "bool",
          "name": "approved",
          "type": "bool"
        }
      ],
      "name": "ApprovalForAll",
      "type": "event"
    },
    {
      "anonymous": false,
      "inputs": [
        {
          "indexed": false,
          "internalType": "uint256",
          "name": "_fromTokenId",
          "type": "uint256"
        },
        {
          "indexed": false,
          "internalType": "uint256",
          "name": "_toTokenId",
          "type": "uint256"
        }
      ],
      "name": "BatchMetadataUpdate",
      "type": "event"
    },
    {
      "anonymous": false,
      "inputs": [
        {
          "indexed": false,
          "internalType": "uint256",
          "name": "_tokenId",
          "type": "uint256"
        }
      ],
      "name": "MetadataUpdate",
      "type": "event"
    },
    {
      "anonymous": false,
      "inputs": [
        {
          "indexed": true,
          "internalType": "address",
          "name": "from",
          "type": "address"
        },
        {
          "indexed": true,
          "internalType": "address",
          "name": "to",
          "type": "address"
        },
        {
          "indexed": true,
          "internalType": "uint256",
          "name": "tokenId",
          "type": "uint256"
        }
      ],
      "name": "Transfer",
      "type": "event"
    },
    {
      "inputs": [
        {
          "internalType": "address",
          "name": "account",
          "type": "address"
        },
        {
          "internalType": "uint256",
          "name": "value",
          "type": "uint256"
        }
      ],
      "name": "$__unsafe_increaseBalance",
      "outputs": [],
      "stateMutability": "nonpayable",
      "type": "function"
    },
    {
      "inputs": [
        {
          "internalType": "address",
          "name": "from",
          "type": "address"
        },
        {
          "internalType": "address",
          "name": "to",
          "type": "address"
        },
        {
          "internalType": "uint256",
          "name": "firstTokenId",
          "type": "uint256"
        },
        {
          "internalType": "uint256",
          "name": "batchSize",
          "type": "uint256"
        }
      ],
      "name": "$_afterTokenTransfer",
      "outputs": [],
      "stateMutability": "nonpayable",
      "type": "function"
    },
    {
      "inputs": [
        {
          "internalType": "address",
          "name": "to",
          "type": "address"
        },
        {
          "internalType": "uint256",
          "name": "tokenId",
          "type": "uint256"
        }
      ],
      "name": "$_approve",
      "outputs": [],
      "stateMutability": "nonpayable",
      "type": "function"
    },
    {
      "inputs": [],
      "name": "$_baseURI",
      "outputs": [
        {
          "internalType": "string",
          "name": "ret0",
          "type": "string"
        }
      ],
      "stateMutability": "view",
      "type": "function"
    },
    {
      "inputs": [
        {
          "internalType": "address",
          "name": "from",
          "type": "address"
        },
        {
          "internalType": "address",
          "name": "to",
          "type": "address"
        },
        {
          "internalType": "uint256",
          "name": "firstTokenId",
          "type": "uint256"
        },
        {
          "internalType": "uint256",
          "name": "batchSize",
          "type": "uint256"
        }
      ],
      "name": "$_beforeTokenTransfer",
      "outputs": [],
      "stateMutability": "nonpayable",
      "type": "function"
    },
    {
      "inputs": [
        {
          "internalType": "uint256",
          "name": "tokenId",
          "type": "uint256"
        }
      ],
      "name": "$_burn",
      "outputs": [],
      "stateMutability": "nonpayable",
      "type": "function"
    },
    {
      "inputs": [
        {
          "internalType": "uint256",
          "name": "tokenId",
          "type": "uint256"
        }
      ],
      "name": "$_exists",
      "outputs": [
        {
          "internalType": "bool",
          "name": "ret0",
          "type": "bool"
        }
      ],
      "stateMutability": "view",
      "type": "function"
    },
    {
      "inputs": [
        {
          "internalType": "address",
          "name": "spender",
          "type": "address"
        },
        {
          "internalType": "uint256",
          "name": "tokenId",
          "type": "uint256"
        }
      ],
      "name": "$_isApprovedOrOwner",
      "outputs": [
        {
          "internalType": "bool",
          "name": "ret0",
          "type": "bool"
        }
      ],
      "stateMutability": "view",
      "type": "function"
    },
    {
      "inputs": [
        {
          "internalType": "address",
          "name": "to",
          "type": "address"
        },
        {
          "internalType": "uint256",
          "name": "tokenId",
          "type": "uint256"
        }
      ],
      "name": "$_mint",
      "outputs": [],
      "stateMutability": "nonpayable",
      "type": "function"
    },
    {
      "inputs": [],
      "name": "$_msgData",
      "outputs": [
        {
          "internalType": "bytes",
          "name": "ret0",
          "type": "bytes"
        }
      ],
      "stateMutability": "view",
      "type": "function"
    },
    {
      "inputs": [],
      "name": "$_msgSender",
      "outputs": [
        {
          "internalType": "address",
          "name": "ret0",
          "type": "address"
        }
      ],
      "stateMutability": "view",
      "type": "function"
    },
    {
      "inputs": [
        {
          "internalType": "uint256",
          "name": "tokenId",
          "type": "uint256"
        }
      ],
      "name": "$_ownerOf",
      "outputs": [
        {
          "internalType": "address",
          "name": "ret0",
          "type": "address"
        }
      ],
      "stateMutability": "view",
      "type": "function"
    },
    {
      "inputs": [
        {
          "internalType": "uint256",
          "name": "tokenId",
          "type": "uint256"
        }
      ],
      "name": "$_requireMinted",
      "outputs": [],
      "stateMutability": "view",
      "type": "function"
    },
    {
      "inputs": [
        {
          "internalType": "address",
          "name": "to",
          "type": "address"
        },
        {
          "internalType": "uint256",
          "name": "tokenId",
          "type": "uint256"
        },
        {
          "internalType": "bytes",
          "name": "data",
          "type": "bytes"
        }
      ],
      "name": "$_safeMint",
      "outputs": [],
      "stateMutability": "nonpayable",
      "type": "function"
    },
    {
      "inputs": [
        {
          "internalType": "address",
          "name": "to",
          "type": "address"
        },
        {
          "internalType": "uint256",
          "name": "tokenId",
          "type": "uint256"
        }
      ],
      "name": "$_safeMint",
      "outputs": [],
      "stateMutability": "nonpayable",
      "type": "function"
    },
    {
      "inputs": [
        {
          "internalType": "address",
          "name": "from",
          "type": "address"
        },
        {
          "internalType": "address",
          "name": "to",
          "type": "address"
        },
        {
          "internalType": "uint256",
          "name": "tokenId",
          "type": "uint256"
        },
        {
          "internalType": "bytes",
          "name": "data",
          "type": "bytes"
        }
      ],
      "name": "$_safeTransfer",
      "outputs": [],
      "stateMutability": "nonpayable",
      "type": "function"
    },
    {
      "inputs": [
        {
          "internalType": "address",
          "name": "owner",
          "type": "address"
        },
        {
          "internalType": "address",
          "name": "operator",
          "type": "address"
        },
        {
          "internalType": "bool",
          "name": "approved",
          "type": "bool"
        }
      ],
      "name": "$_setApprovalForAll",
      "outputs": [],
      "stateMutability": "nonpayable",
      "type": "function"
    },
    {
      "inputs": [
        {
          "internalType": "uint256",
          "name": "tokenId",
          "type": "uint256"
        },
        {
          "internalType": "string",
          "name": "_tokenURI",
          "type": "string"
        }
      ],
      "name": "$_setTokenURI",
      "outputs": [],
      "stateMutability": "nonpayable",
      "type": "function"
    },
    {
      "inputs": [
        {
          "internalType": "address",
          "name": "from",
          "type": "address"
        },
        {
          "internalType": "address",
          "name": "to",
          "type": "address"
        },
        {
          "internalType": "uint256",
          "name": "tokenId",
          "type": "uint256"
        }
      ],
      "name": "$_transfer",
      "outputs": [],
      "stateMutability": "nonpayable",
      "type": "function"
    },
    {
      "inputs": [],
      "name": "__hh_exposed_bytecode_marker",
      "outputs": [
        {
          "internalType": "bytes32",
          "name": "",
          "type": "bytes32"
        }
      ],
      "stateMutability": "view",
      "type": "function"
    },
    {
      "inputs": [
        {
          "internalType": "address",
          "name": "to",
          "type": "address"
        },
        {
          "internalType": "uint256",
          "name": "tokenId",
          "type": "uint256"
        }
      ],
      "name": "approve",
      "outputs": [],
      "stateMutability": "nonpayable",
      "type": "function"
    },
    {
      "inputs": [
        {
          "internalType": "address",
          "name": "owner",
          "type": "address"
        }
      ],
      "name": "balanceOf",
      "outputs": [
        {
          "internalType": "uint256",
          "name": "",
          "type": "uint256"
        }
      ],
      "stateMutability": "view",
      "type": "function"
    },
    {
      "inputs": [
        {
          "internalType": "uint256",
          "name": "tokenId",
          "type": "uint256"
        }
      ],
      "name": "getApproved",
      "outputs": [
        {
          "internalType": "address",
          "name": "",
          "type": "address"
        }
      ],
      "stateMutability": "view",
      "type": "function"
    },
    {
      "inputs": [
        {
          "internalType": "address",
          "name": "owner",
          "type": "address"
        },
        {
          "internalType": "address",
          "name": "operator",
          "type": "address"
        }
      ],
      "name": "isApprovedForAll",
      "outputs": [
        {
          "internalType": "bool",
          "name": "",
          "type": "bool"
        }
      ],
      "stateMutability": "view",
      "type": "function"
    },
    {
      "inputs": [],
      "name": "name",
      "outputs": [
        {
          "internalType": "string",
          "name": "",
          "type": "string"
        }
      ],
      "stateMutability": "view",
      "type": "function"
    },
    {
      "inputs": [
        {
          "internalType": "uint256",
          "name": "tokenId",
          "type": "uint256"
        }
      ],
      "name": "ownerOf",
      "outputs": [
        {
          "internalType": "address",
          "name": "",
          "type": "address"
        }
      ],
      "stateMutability": "view",
      "type": "function"
    },
    {
      "inputs": [
        {
          "internalType": "address",
          "name": "from",
          "type": "address"
        },
        {
          "internalType": "address",
          "name": "to",
          "type": "address"
        },
        {
          "internalType": "uint256",
          "name": "tokenId",
          "type": "uint256"
        }
      ],
      "name": "safeTransferFrom",
      "outputs": [],
      "stateMutability": "nonpayable",
      "type": "function"
    },
    {
      "inputs": [
        {
          "internalType": "address",
          "name": "from",
          "type": "address"
        },
        {
          "internalType": "address",
          "name": "to",
          "type": "address"
        },
        {
          "internalType": "uint256",
          "name": "tokenId",
          "type": "uint256"
        },
        {
          "internalType": "bytes",
          "name": "data",
          "type": "bytes"
        }
      ],
      "name": "safeTransferFrom",
      "outputs": [],
      "stateMutability": "nonpayable",
      "type": "function"
    },
    {
      "inputs": [
        {
          "internalType": "address",
          "name": "operator",
          "type": "address"
        },
        {
          "internalType": "bool",
          "name": "approved",
          "type": "bool"
        }
      ],
      "name": "setApprovalForAll",
      "outputs": [],
      "stateMutability": "nonpayable",
      "type": "function"
    },
    {
      "inputs": [
        {
          "internalType": "string",
          "name": "newBaseTokenURI",
          "type": "string"
        }
      ],
      "name": "setBaseURI",
      "outputs": [],
      "stateMutability": "nonpayable",
      "type": "function"
    },
    {
      "inputs": [
        {
          "internalType": "bytes4",
          "name": "interfaceId",
          "type": "bytes4"
        }
      ],
      "name": "supportsInterface",
      "outputs": [
        {
          "internalType": "bool",
          "name": "",
          "type": "bool"
        }
      ],
      "stateMutability": "view",
      "type": "function"
    },
    {
      "inputs": [],
      "name": "symbol",
      "outputs": [
        {
          "internalType": "string",
          "name": "",
          "type": "string"
        }
      ],
      "stateMutability": "view",
      "type": "function"
    },
    {
      "inputs": [
        {
          "internalType": "uint256",
          "name": "tokenId",
          "type": "uint256"
        }
      ],
      "name": "tokenURI",
      "outputs": [
        {
          "internalType": "string",
          "name": "",
          "type": "string"
        }
      ],
      "stateMutability": "view",
      "type": "function"
    },
    {
      "inputs": [
        {
          "internalType": "address",
          "name": "from",
          "type": "address"
        },
        {
          "internalType": "address",
          "name": "to",
          "type": "address"
        },
        {
          "internalType": "uint256",
          "name": "tokenId",
          "type": "uint256"
        }
      ],
      "name": "transferFrom",
      "outputs": [],
      "stateMutability": "nonpayable",
      "type": "function"
    },
    {
      "stateMutability": "payable",
      "type": "receive"
    }
  ],
  "bytecode": "0x608060405260405162001fe838038062001fe883398101604081905262000026916200010d565b81815f620000358382620001ff565b506001620000448282620001ff565b5050505050620002c7565b634e487b7160e01b5f52604160045260245ffd5b5f82601f83011262000073575f80fd5b81516001600160401b03808211156200009057620000906200004f565b604051601f8301601f19908116603f01168101908282118183101715620000bb57620000bb6200004f565b81604052838152602092508683858801011115620000d7575f80fd5b5f91505b83821015620000fa5785820183015181830184015290820190620000db565b5f93810190920192909252949350505050565b5f80604083850312156200011f575f80fd5b82516001600160401b038082111562000136575f80fd5b620001448683870162000063565b935060208501519150808211156200015a575f80fd5b50620001698582860162000063565b9150509250929050565b600181811c908216806200018857607f821691505b602082108103620001a757634e487b7160e01b5f52602260045260245ffd5b50919050565b601f821115620001fa575f81815260208120601f850160051c81016020861015620001d55750805b601f850160051c820191505b81811015620001f657828155600101620001e1565b5050505b505050565b81516001600160401b038111156200021b576200021b6200004f565b62000233816200022c845462000173565b84620001ad565b602080601f83116001811462000269575f8415620002515750858301515b5f19600386901b1c1916600185901b178555620001f6565b5f85815260208120601f198616915b82811015620002995788860151825594840194600190910190840162000278565b5085821015620002b757878501515f19600388901b60f8161c191681555b5050505050600190811b01905550565b611d1380620002d55f395ff3fe6080604052600436106101f4575f3560e01c806395d89b4111610108578063c87b56dd1161009d578063d261af541161006d578063d261af541461059a578063e07084c2146102cb578063e985e9c5146105b9578063efb43b07146105d8578063f604b102146105f7575f80fd5b8063c87b56dd1461051e578063cc461d621461053d578063cd43f47d1461055c578063cfeea0d41461057b575f80fd5b8063a2373a82116100d8578063a2373a82146104a2578063b88d4fde146104c1578063c37add51146104e0578063c4a96fa6146104ff575f80fd5b806395d89b411461043157806398a1f7a0146104455780639ff2f02d14610464578063a22cb46514610483575f80fd5b80632904df2911610189578063458ee00211610159578063458ee0021461039657806355f804b3146103b55780636352211e146103d457806370a08231146103f3578063733555ec14610412575f80fd5b80632904df291461031e57806332cadf3c14610330578063342db7391461034457806342842e0e14610377575f80fd5b806309854d72116101c457806309854d72146102ac578063147619da146102cb578063161e977d146102eb57806323b872dd146102ff575f80fd5b806301ffc9a7146101ff57806306fdde0314610233578063081812fc14610254578063095ea7b31461028b575f80fd5b366101fb57005b5f80fd5b34801561020a575f80fd5b5061021e6102193660046115a0565b610616565b60405190151581526020015b60405180910390f35b34801561023e575f80fd5b50610247610640565b60405161022a9190611608565b34801561025f575f80fd5b5061027361026e36600461161a565b6106cf565b6040516001600160a01b03909116815260200161022a565b348015610296575f80fd5b506102aa6102a536600461164c565b6106f4565b005b3480156102b7575f80fd5b506102aa6102c636600461161a565b610791565b3480156102d6575f80fd5b506102aa6102e5366004611674565b50505050565b3480156102f6575f80fd5b5061024761079d565b34801561030a575f80fd5b506102aa6103193660046116b3565b6107ac565b348015610329575f80fd5b5033610273565b34801561033b575f80fd5b506102476107e7565b34801561034f575f80fd5b506103696e1a185c991a185d0b595e1c1bdcd959608a1b81565b60405190815260200161022a565b348015610382575f80fd5b506102aa6103913660046116b3565b610824565b3480156103a1575f80fd5b506102736103b036600461161a565b61083e565b3480156103c0575f80fd5b506102aa6103cf366004611731565b61085a565b3480156103df575f80fd5b506102736103ee36600461161a565b610867565b3480156103fe575f80fd5b5061036961040d366004611770565b61089f565b34801561041d575f80fd5b506102aa61042c366004611789565b6108e4565b34801561043c575f80fd5b5061024761092c565b348015610450575f80fd5b506102aa61045f36600461164c565b61093b565b34801561046f575f80fd5b506102aa61047e3660046117f3565b610949565b34801561048e575f80fd5b506102aa61049d366004611858565b610989565b3480156104ad575f80fd5b506102aa6104bc36600461161a565b610994565b3480156104cc575f80fd5b506102aa6104db36600461189d565b61099d565b3480156104eb575f80fd5b5061021e6104fa36600461161a565b6109d9565b34801561050a575f80fd5b5061021e61051936600461164c565b6109f7565b348015610529575f80fd5b5061024761053836600461161a565b610a09565b348015610548575f80fd5b506102aa61055736600461164c565b610b07565b348015610567575f80fd5b506102aa61057636600461164c565b610b11565b348015610586575f80fd5b506102aa610595366004611972565b610b1b565b3480156105a5575f80fd5b506102aa6105b436600461164c565b610b26565b3480156105c4575f80fd5b5061021e6105d33660046119b2565b610b30565b3480156105e3575f80fd5b506102aa6105f23660046116b3565b6107dc565b348015610602575f80fd5b506102aa6106113660046119da565b610b5d565b5f6001600160e01b03198216632483248360e11b148061063a575061063a82610b9c565b92915050565b60605f805461064e90611a22565b80601f016020809104026020016040519081016040528092919081815260200182805461067a90611a22565b80156106c55780601f1061069c576101008083540402835291602001916106c5565b820191905f5260205f20905b8154815290600101906020018083116106a857829003601f168201915b5050505050905090565b5f6106d982610beb565b505f908152600460205260409020546001600160a01b031690565b5f6106fe82610867565b9050806001600160a01b0316836001600160a01b03160361074257604051630b61174360e31b81526001600160a01b03821660048201526024015b60405180910390fd5b336001600160a01b0382161480159061076257506107608133610b30565b155b156107825760405163a9fbf51f60e01b8152336004820152602401610739565b61078c8383610c22565b505050565b61079a81610beb565b50565b60606107a7610c8f565b905090565b6107b63382610c9e565b6107dc5760405163177e802f60e01b815233600482015260248101829052604401610739565b61078c838383610cfb565b60605f368080601f0160208091040260200160405190810160405280939291908181526020018383808284375f9201919091525092949350505050565b61078c83838360405180602001604052805f81525061099d565b5f818152600260205260408120546001600160a01b031661063a565b600761078c828483611aa7565b5f818152600260205260408120546001600160a01b03168061063a57604051637e27328960e01b815260048101849052602401610739565b5f6001600160a01b0382166108c9576040516322718ad960e21b81525f6004820152602401610739565b506001600160a01b03165f9081526003602052604090205490565b61092585858585858080601f0160208091040260200160405190810160405280939291908181526020018383808284375f92019190915250610e8592505050565b5050505050565b60606001805461064e90611a22565b6109458282610ec4565b5050565b6102e5848484848080601f0160208091040260200160405190810160405280939291908181526020018383808284375f92019190915250610ef492505050565b610945338383610f32565b61079a81610fdb565b6109a73383610c9e565b6109cd5760405163177e802f60e01b815233600482015260248101839052604401610739565b6102e584848484610e85565b5f818152600260205260408120546001600160a01b0316151561063a565b5f610a028383610c9e565b9392505050565b6060610a1482610beb565b5f8281526006602052604081208054610a2c90611a22565b80601f0160208091040260200160405190810160405280929190818152602001828054610a5890611a22565b8015610aa35780601f10610a7a57610100808354040283529160200191610aa3565b820191905f5260205f20905b815481529060010190602001808311610a8657829003601f168201915b505050505090505f610ab3610c8f565b905080515f03610ac4575092915050565b815115610af6578082604051602001610ade929190611b62565b60405160208183030381529060405292505050919050565b610aff84611019565b949350505050565b610945828261107c565b6109458282610c22565b61078c838383610f32565b610945828261117d565b6001600160a01b039182165f90815260056020908152604080832093909416825291909152205460ff1690565b61078c8383838080601f0160208091040260200160405190810160405280939291908181526020018383808284375f9201919091525061119692505050565b5f6001600160e01b031982166380ac58cd60e01b1480610bcc57506001600160e01b03198216635b5e139f60e01b145b8061063a57506301ffc9a760e01b6001600160e01b031983161461063a565b5f818152600260205260409020546001600160a01b031661079a57604051637e27328960e01b815260048101829052602401610739565b5f81815260046020526040902080546001600160a01b0319166001600160a01b0384169081179091558190610c5682610867565b6001600160a01b03167f8c5be1e5ebec7d5bd14f71427d1e84f3dd0314c0f7b2291e5b200ac8c7c3b92560405160405180910390a45050565b60606007805461064e90611a22565b5f80610ca983610867565b9050806001600160a01b0316846001600160a01b03161480610cd05750610cd08185610b30565b80610aff5750836001600160a01b0316610ce9846106cf565b6001600160a01b031614949350505050565b5f610d0582610867565b9050836001600160a01b0316816001600160a01b031614610d53576040516364283d7b60e01b81526001600160a01b0380861660048301526024820184905282166044820152606401610739565b6001600160a01b038316610d7c57604051633250574960e11b81525f6004820152602401610739565b610d8582610867565b9050836001600160a01b0316816001600160a01b031614610dd3576040516364283d7b60e01b81526001600160a01b0380861660048301526024820184905282166044820152606401610739565b5f82815260046020908152604080832080546001600160a01b03191690556001600160a01b038716835260039091528120805460019290610e15908490611ba4565b90915550506001600160a01b038084165f81815260036020908152604080832080546001019055868352600290915280822080546001600160a01b031916841790555185938816917fddf252ad1be2c89b69c2b068fc378daa952ba7f163c4a11628f55a4df523b3ef91a46102e5565b610e90848484610cfb565b610e9c8484848461121c565b6102e557604051633250574960e11b81526001600160a01b0384166004820152602401610739565b6001600160a01b0382165f9081526003602052604081208054839290610eeb908490611bb7565b90915550505050565b610efe838361107c565b610f0a5f84848461121c565b61078c57604051633250574960e11b81526001600160a01b0384166004820152602401610739565b816001600160a01b0316836001600160a01b031603610f6f57604051630b61174360e31b81526001600160a01b0384166004820152602401610739565b6001600160a01b038381165f81815260056020908152604080832094871680845294825291829020805460ff191686151590811790915591519182527f17307eab39ab6107e8899845ad3d59bd9653f200f220920489ca2b5937696c31910160405180910390a3505050565b610fe481611325565b5f8181526006602052604090208054610ffc90611a22565b15905061079a575f81815260066020526040812061079a91611541565b606061102482610beb565b5f61102d610c8f565b90505f81511161104b5760405180602001604052805f815250610a02565b80611055846113da565b604051602001611066929190611b62565b6040516020818303038152906040529392505050565b6001600160a01b0382166110a557604051633250574960e11b81525f6004820152602401610739565b5f818152600260205260409020546001600160a01b0316156110dc576040516339e3563760e11b81525f6004820152602401610739565b5f818152600260205260409020546001600160a01b031615611113576040516339e3563760e11b81525f6004820152602401610739565b6001600160a01b0382165f81815260036020908152604080832080546001019055848352600290915280822080546001600160a01b0319168417905551839291907fddf252ad1be2c89b69c2b068fc378daa952ba7f163c4a11628f55a4df523b3ef908290a45050565b610945828260405180602001604052805f815250610ef4565b5f828152600260205260409020546001600160a01b03166111cd57604051637e27328960e01b815260048101839052602401610739565b5f8281526006602052604090206111e48282611bca565b506040518281527ff8e1a15aba9398e019f0b49df1a4fde98ee17ae345cb5f6b5e2c27f5033e8ce79060200160405180910390a15050565b5f6001600160a01b0384163b1561131a57604051630a85bd0160e11b81526001600160a01b0385169063150b7a029061125f903390899088908890600401611c86565b6020604051808303815f875af1925050508015611299575060408051601f3d908101601f1916820190925261129691810190611cc2565b60015b611300573d8080156112c6576040519150601f19603f3d011682016040523d82523d5f602084013e6112cb565b606091505b5080515f036112f857604051633250574960e11b81526001600160a01b0386166004820152602401610739565b805181602001fd5b6001600160e01b031916630a85bd0160e11b149050610aff565b506001949350505050565b5f61132f82610867565b905061133a82610867565b5f83815260046020908152604080832080546001600160a01b03191690556001600160a01b0384168352600390915281208054929350600192909190611381908490611ba4565b90915550505f8281526002602052604080822080546001600160a01b0319169055518391906001600160a01b038416907fddf252ad1be2c89b69c2b068fc378daa952ba7f163c4a11628f55a4df523b3ef908390a45050565b60605f6113e68361146a565b60010190505f8167ffffffffffffffff81111561140557611405611889565b6040519080825280601f01601f19166020018201604052801561142f576020820181803683370190505b5090508181016020015b5f19016f181899199a1a9b1b9c1cb0b131b232b360811b600a86061a8153600a850494508461143957509392505050565b5f8072184f03e93ff9f4daa797ed6e38ed64bf6a1f0160401b83106114a85772184f03e93ff9f4daa797ed6e38ed64bf6a1f0160401b830492506040015b6d04ee2d6d415b85acef810000000083106114d4576d04ee2d6d415b85acef8100000000830492506020015b662386f26fc1000083106114f257662386f26fc10000830492506010015b6305f5e100831061150a576305f5e100830492506008015b612710831061151e57612710830492506004015b60648310611530576064830492506002015b600a831061063a5760010192915050565b50805461154d90611a22565b5f825580601f1061155c575050565b601f0160209004905f5260205f209081019061079a91905b80821115611587575f8155600101611574565b5090565b6001600160e01b03198116811461079a575f80fd5b5f602082840312156115b0575f80fd5b8135610a028161158b565b5f5b838110156115d55781810151838201526020016115bd565b50505f910152565b5f81518084526115f48160208601602086016115bb565b601f01601f19169290920160200192915050565b602081525f610a0260208301846115dd565b5f6020828403121561162a575f80fd5b5035919050565b80356001600160a01b0381168114611647575f80fd5b919050565b5f806040838503121561165d575f80fd5b61166683611631565b946020939093013593505050565b5f805f8060808587031215611687575f80fd5b61169085611631565b935061169e60208601611631565b93969395505050506040820135916060013590565b5f805f606084860312156116c5575f80fd5b6116ce84611631565b92506116dc60208501611631565b9150604084013590509250925092565b5f8083601f8401126116fc575f80fd5b50813567ffffffffffffffff811115611713575f80fd5b60208301915083602082850101111561172a575f80fd5b9250929050565b5f8060208385031215611742575f80fd5b823567ffffffffffffffff811115611758575f80fd5b611764858286016116ec565b90969095509350505050565b5f60208284031215611780575f80fd5b610a0282611631565b5f805f805f6080868803121561179d575f80fd5b6117a686611631565b94506117b460208701611631565b935060408601359250606086013567ffffffffffffffff8111156117d6575f80fd5b6117e2888289016116ec565b969995985093965092949392505050565b5f805f8060608587031215611806575f80fd5b61180f85611631565b935060208501359250604085013567ffffffffffffffff811115611831575f80fd5b61183d878288016116ec565b95989497509550505050565b80358015158114611647575f80fd5b5f8060408385031215611869575f80fd5b61187283611631565b915061188060208401611849565b90509250929050565b634e487b7160e01b5f52604160045260245ffd5b5f805f80608085870312156118b0575f80fd5b6118b985611631565b93506118c760208601611631565b925060408501359150606085013567ffffffffffffffff808211156118ea575f80fd5b818701915087601f8301126118fd575f80fd5b81358181111561190f5761190f611889565b604051601f8201601f19908116603f0116810190838211818310171561193757611937611889565b816040528281528a602084870101111561194f575f80fd5b826020860160208301375f60208483010152809550505050505092959194509250565b5f805f60608486031215611984575f80fd5b61198d84611631565b925061199b60208501611631565b91506119a960408501611849565b90509250925092565b5f80604083850312156119c3575f80fd5b6119cc83611631565b915061188060208401611631565b5f805f604084860312156119ec575f80fd5b83359250602084013567ffffffffffffffff811115611a09575f80fd5b611a15868287016116ec565b9497909650939450505050565b600181811c90821680611a3657607f821691505b602082108103611a5457634e487b7160e01b5f52602260045260245ffd5b50919050565b601f82111561078c575f81815260208120601f850160051c81016020861015611a805750805b601f850160051c820191505b81811015611a9f57828155600101611a8c565b505050505050565b67ffffffffffffffff831115611abf57611abf611889565b611ad383611acd8354611a22565b83611a5a565b5f601f841160018114611b04575f8515611aed5750838201355b5f19600387901b1c1916600186901b178355610925565b5f83815260209020601f19861690835b82811015611b345786850135825560209485019460019092019101611b14565b5086821015611b50575f1960f88860031b161c19848701351681555b505060018560011b0183555050505050565b5f8351611b738184602088016115bb565b835190830190611b878183602088016115bb565b01949350505050565b634e487b7160e01b5f52601160045260245ffd5b8181038181111561063a5761063a611b90565b8082018082111561063a5761063a611b90565b815167ffffffffffffffff811115611be457611be4611889565b611bf881611bf28454611a22565b84611a5a565b602080601f831160018114611c2b575f8415611c145750858301515b5f19600386901b1c1916600185901b178555611a9f565b5f85815260208120601f198616915b82811015611c5957888601518255948401946001909101908401611c3a565b5085821015611c7657878501515f19600388901b60f8161c191681555b5050505050600190811b01905550565b6001600160a01b03858116825284166020820152604081018390526080606082018190525f90611cb8908301846115dd565b9695505050505050565b5f60208284031215611cd2575f80fd5b8151610a028161158b56fea264697066735822122032b234936ce3da9bc1b897f485b89866e4c64103a9e5900231fdc9de6540123264736f6c63430008140033",
  "linkReferences": {},
  "deployedLinkReferences": {}
}