{"abi":[{"type":"constructor","inputs":[],"stateMutability":"nonpayable"},{"type":"function","name":"callback","inputs":[],"outputs":[],"stateMutability":"nonpayable"},{"type":"function","name":"countAndCall","inputs":[{"name":"attacker","type":"address","internalType":"contract ReentrancyAttack"}],"outputs":[],"stateMutability":"nonpayable"},{"type":"function","name":"countLocalRecursive","inputs":[{"name":"n","type":"uint256","internalType":"uint256"}],"outputs":[],"stateMutability":"nonpayable"},{"type":"function","name":"countThisRecursive","inputs":[{"name":"n","type":"uint256","internalType":"uint256"}],"outputs":[],"stateMutability":"nonpayable"},{"type":"function","name":"counter","inputs":[],"outputs":[{"name":"","type":"uint256","internalType":"uint256"}],"stateMutability":"view"},{"type":"function","name":"guardedCheckEntered","inputs":[],"outputs":[],"stateMutability":"nonpayable"},{"type":"function","name":"unguardedCheckNotEntered","inputs":[],"outputs":[],"stateMutability":"view"},{"type":"error","name":"ReentrancyGuardReentrantCall","inputs":[]}],"bytecode":{"object":"0x6080604052348015600f57600080fd5b50600160008181559055610485806100286000396000f3fe608060405234801561001057600080fd5b506004361061007d5760003560e01c806396ffa6901161005b57806396ffa690146100ba578063a408f312146100cd578063b672ad8b146100d5578063cecc95a7146100e857600080fd5b8063083b27321461008257806361bc221a1461008c5780638c5344fa146100a7575b600080fd5b61008a6100f0565b005b61009560015481565b60405190815260200160405180910390f35b61008a6100b5366004610351565b61010c565b61008a6100c8366004610351565b610226565b61008a61024a565b61008a6100e336600461036a565b610261565b61008a6102ff565b6100f861030e565b610100610338565b61010a6001600055565b565b61011461030e565b801561021957610122610338565b60003080638c5344fa6101366001866103b0565b60405160240161014891815260200190565b60408051601f198184030181529181526020820180516001600160e01b031660e09490941b93909317909252905161018092506103ed565b6000604051808303816000865af19150503d80600081146101bd576040519150601f19603f3d011682016040523d82523d6000602084013e6101c2565b606091505b50509050806102175760405162461bcd60e51b815260206004820152601b60248201527f5265656e7472616e63794d6f636b3a206661696c65642063616c6c0000000000604482015260640160405180910390fd5b505b6102236001600055565b50565b61022e61030e565b80156102195761023c610338565b6102196100c86001836103b0565b61025261030e565b60005460021461010057600080fd5b61026961030e565b610271610338565b6040805160048082526024820183526020820180516001600160e01b031663041d939960e11b179052915163f8123dd560e01b81526001600160a01b0384169263f8123dd5926102c392909101610409565b600060405180830381600087803b1580156102dd57600080fd5b505af11580156102f1573d6000803e3d6000fd5b505050506102236001600055565b60005460020361010a57600080fd5b60026000540361033157604051633ee5aeb560e01b815260040160405180910390fd5b6002600055565b600180600082825461034a919061043c565b9091555050565b60006020828403121561036357600080fd5b5035919050565b60006020828403121561037c57600080fd5b81356001600160a01b038116811461039357600080fd5b9392505050565b634e487b7160e01b600052601160045260246000fd5b818103818111156103c3576103c361039a565b92915050565b60005b838110156103e45781810151838201526020016103cc565b50506000910152565b600082516103ff8184602087016103c9565b9190910192915050565b60208152600082518060208401526104288160408501602087016103c9565b601f01601f19169190910160400192915050565b808201808211156103c3576103c361039a56fea26469706673582212204890a580602a699bfdea9484bdb0aaa6ce306001d8fced1ebf049615a6fa348064736f6c634300081b0033","linkReferences":{}},"methodIdentifiers":{"callback()":"083b2732","countAndCall(address)":"b672ad8b","countLocalRecursive(uint256)":"96ffa690","countThisRecursive(uint256)":"8c5344fa","counter()":"61bc221a","guardedCheckEntered()":"a408f312","unguardedCheckNotEntered()":"cecc95a7"},"id":80}