{
  "_format": "hh-sol-artifact-1",
  "contractName": "ReentrancyAttack",
  "sourceName": "contracts/mocks/ReentrancyAttack.sol",
  "abi": [
    {
      "inputs": [
        {
          "internalType": "bytes",
          "name": "data",
          "type": "bytes"
        }
      ],
      "name": "callSender",
      "outputs": [],
      "stateMutability": "nonpayable",
      "type": "function"
    }
  ],
  "bytecode": "0x608060405234801561000f575f80fd5b506101a68061001d5f395ff3fe608060405234801561000f575f80fd5b5060043610610029575f3560e01c8063f8123dd51461002d575b5f80fd5b61004061003b3660046100f5565b610042565b005b5f336001600160a01b0316838360405161005d929190610161565b5f604051808303815f865af19150503d805f8114610096576040519150601f19603f3d011682016040523d82523d5f602084013e61009b565b606091505b50509050806100f05760405162461bcd60e51b815260206004820152601d60248201527f5265656e7472616e637941747461636b3a206661696c65642063616c6c000000604482015260640160405180910390fd5b505050565b5f8060208385031215610106575f80fd5b823567ffffffffffffffff8082111561011d575f80fd5b818501915085601f830112610130575f80fd5b81358181111561013e575f80fd5b86602082850101111561014f575f80fd5b60209290920196919550909350505050565b818382375f910190815291905056fea26469706673582212205e7d76c13d441bc7bb48e1bb7d4646cb38a3cd2772a18218ad660c04ea7aadb464736f6c63430008140033",
  "linkReferences": {},
  "deployedLinkReferences": {}
}