{
  "_format": "hh-sol-artifact-1",
  "contractName": "ERC3156FlashBorrowerMock",
  "sourceName": "contracts/mocks/ERC3156FlashBorrowerMock.sol",
  "abi": [
    {
      "inputs": [
        {
          "internalType": "bool",
          "name": "enableReturn",
          "type": "bool"
        },
        {
          "internalType": "bool",
          "name": "enableApprove",
          "type": "bool"
        }
      ],
      "stateMutability": "nonpayable",
      "type": "constructor"
    },
    {
      "inputs": [
        {
          "internalType": "address",
          "name": "target",
          "type": "address"
        }
      ],
      "name": "AddressEmptyCode",
      "type": "error"
    },
    {
      "inputs": [
        {
          "internalType": "address",
          "name": "account",
          "type": "address"
        }
      ],
      "name": "AddressInsufficientBalance",
      "type": "error"
    },
    {
      "inputs": [],
      "name": "FailedInnerCall",
      "type": "error"
    },
    {
      "anonymous": false,
      "inputs": [
        {
          "indexed": false,
          "internalType": "address",
          "name": "token",
          "type": "address"
        },
        {
          "indexed": false,
          "internalType": "address",
          "name": "account",
          "type": "address"
        },
        {
          "indexed": false,
          "internalType": "uint256",
          "name": "value",
          "type": "uint256"
        }
      ],
      "name": "BalanceOf",
      "type": "event"
    },
    {
      "anonymous": false,
      "inputs": [
        {
          "indexed": false,
          "internalType": "address",
          "name": "token",
          "type": "address"
        },
        {
          "indexed": false,
          "internalType": "uint256",
          "name": "value",
          "type": "uint256"
        }
      ],
      "name": "TotalSupply",
      "type": "event"
    },
    {
      "inputs": [
        {
          "internalType": "address",
          "name": "",
          "type": "address"
        },
        {
          "internalType": "address",
          "name": "token",
          "type": "address"
        },
        {
          "internalType": "uint256",
          "name": "amount",
          "type": "uint256"
        },
        {
          "internalType": "uint256",
          "name": "fee",
          "type": "uint256"
        },
        {
          "internalType": "bytes",
          "name": "data",
          "type": "bytes"
        }
      ],
      "name": "onFlashLoan",
      "outputs": [
        {
          "internalType": "bytes32",
          "name": "",
          "type": "bytes32"
        }
      ],
      "stateMutability": "nonpayable",
      "type": "function"
    }
  ],
  "bytecode": "0x60c060405234801561000f575f80fd5b5060405161066938038061066983398101604081905261002e91610051565b1515608052151560a052610082565b8051801515811461004c575f80fd5b919050565b5f8060408385031215610062575f80fd5b61006b8361003d565b91506100796020840161003d565b90509250929050565b60805160a0516105c66100a35f395f6102b801525f61020a01526105c65ff3fe608060405234801561000f575f80fd5b5060043610610029575f3560e01c806323e30c8b1461002d575b5f80fd5b61004061003b36600461046a565b610052565b60405190815260200160405180910390f35b5f336001600160a01b03871614610067575f80fd5b6040516370a0823160e01b815230600482018190527f6ff2acfcb07917b1e80e53f0fe390b467b1151d15b38730a6e08397799c05a8b918891906001600160a01b038316906370a0823190602401602060405180830381865afa1580156100d0573d5f803e3d5ffd5b505050506040513d601f19601f820116820180604052508101906100f49190610508565b604080516001600160a01b0394851681529390921660208401529082015260600160405180910390a17f7249fd4c03cce09b30a13d77804b198e2647c0ccd59eadf4de4e7c16099badc586876001600160a01b03166318160ddd6040518163ffffffff1660e01b8152600401602060405180830381865afa15801561017b573d5f803e3d5ffd5b505050506040513d601f19601f8201168201806040525081019061019f9190610508565b604080516001600160a01b03909316835260208301919091520160405180910390a18115610208576102068684848080601f0160208091040260200160405190810160405280939291908181526020018383808284375f9201919091525061030e92505050565b505b7f0000000000000000000000000000000000000000000000000000000000000000156102b6576001600160a01b03861663095ea7b387610248878961051f565b6040516001600160e01b031960e085901b1681526001600160a01b03909216600483015260248201526044016020604051808303815f875af1158015610290573d5f803e3d5ffd5b505050506040513d601f19601f820116820180604052508101906102b4919061053e565b505b7f00000000000000000000000000000000000000000000000000000000000000006102e1575f610303565b7f439148f0bbc682ca079e46d6e2c2f0c1e3b820f1a291b069d8882abf8cf18dd95b979650505050505050565b606061031e83835f610327610340565b90505b92915050565b604051630a12f52160e11b815260040160405180910390fd5b60608247101561036a5760405163cd78605960e01b81523060048201526024015b60405180910390fd5b5f80866001600160a01b031685876040516103859190610564565b5f6040518083038185875af1925050503d805f81146103bf576040519150601f19603f3d011682016040523d82523d5f602084013e6103c4565b606091505b50915091506103d5878383876103e2565b925050505b949350505050565b6060831561042e5782515f0361042757846001600160a01b03163b5f0361042757604051639996b31560e01b81526001600160a01b0386166004820152602401610361565b50816103da565b6103da83838151156104435781518083602001fd5b6103278163ffffffff16565b80356001600160a01b0381168114610465575f80fd5b919050565b5f805f805f8060a0878903121561047f575f80fd5b6104888761044f565b95506104966020880161044f565b94506040870135935060608701359250608087013567ffffffffffffffff808211156104c0575f80fd5b818901915089601f8301126104d3575f80fd5b8135818111156104e1575f80fd5b8a60208285010111156104f2575f80fd5b6020830194508093505050509295509295509295565b5f60208284031215610518575f80fd5b5051919050565b8082018082111561032157634e487b7160e01b5f52601160045260245ffd5b5f6020828403121561054e575f80fd5b8151801515811461055d575f80fd5b9392505050565b5f82515f5b818110156105835760208186018101518583015201610569565b505f92019182525091905056fea2646970667358221220486f72b3586eb03f95f0f2b09517858c5a09c929e2737120f982d68598596ed564736f6c63430008140033",
  "linkReferences": {},
  "deployedLinkReferences": {}
}