{"abi":[{"type":"function","name":"supportsInterface","inputs":[{"name":"interfaceId","type":"bytes4","internalType":"bytes4"}],"outputs":[],"stateMutability":"view"}],"bytecode":{"object":"0x6080604052348015600f57600080fd5b5060a280601d6000396000f3fe6080604052348015600f57600080fd5b506004361060285760003560e01c806301ffc9a714602d575b600080fd5b603b6038366004603d565b50565b005b600060208284031215604e57600080fd5b81356001600160e01b031981168114606557600080fd5b939250505056fea2646970667358221220695435f0bd192912ed251fc7682f94f33ba7e7bd574721e4207181f6b9cb15c264736f6c634300081b0033","linkReferences":{}},"methodIdentifiers":{"supportsInterface(bytes4)":"01ffc9a7"},"id":69}