{
  "_format": "hh-sol-artifact-1",
  "contractName": "$ReentrancyAttack",
  "sourceName": "contracts-exposed/mocks/ReentrancyAttack.sol",
  "abi": [
    {
      "inputs": [],
      "stateMutability": "payable",
      "type": "constructor"
    },
    {
      "inputs": [],
      "name": "$_msgData",
      "outputs": [
        {
          "internalType": "bytes",
          "name": "ret0",
          "type": "bytes"
        }
      ],
      "stateMutability": "view",
      "type": "function"
    },
    {
      "inputs": [],
      "name": "$_msgSender",
      "outputs": [
        {
          "internalType": "address",
          "name": "ret0",
          "type": "address"
        }
      ],
      "stateMutability": "view",
      "type": "function"
    },
    {
      "inputs": [],
      "name": "__hh_exposed_bytecode_marker",
      "outputs": [
        {
          "internalType": "bytes32",
          "name": "",
          "type": "bytes32"
        }
      ],
      "stateMutability": "view",
      "type": "function"
    },
    {
      "inputs": [
        {
          "internalType": "bytes",
          "name": "data",
          "type": "bytes"
        }
      ],
      "name": "callSender",
      "outputs": [],
      "stateMutability": "nonpayable",
      "type": "function"
    },
    {
      "stateMutability": "payable",
      "type": "receive"
    }
  ],
  "bytecode": "0x60806040526102cc806100115f395ff3fe608060405260043610610041575f3560e01c80632904df291461004c57806332cadf3c1461006b578063342db7391461008c578063f8123dd5146100bf575f80fd5b3661004857005b5f80fd5b348015610057575f80fd5b506040513381526020015b60405180910390f35b348015610076575f80fd5b5061007f6100e0565b60405161006291906101d0565b348015610097575f80fd5b506100b16e1a185c991a185d0b595e1c1bdcd959608a1b81565b604051908152602001610062565b3480156100ca575f80fd5b506100de6100d936600461021b565b61011d565b005b60605f368080601f0160208091040260200160405190810160405280939291908181526020018383808284375f9201919091525092949350505050565b5f336001600160a01b03168383604051610138929190610287565b5f604051808303815f865af19150503d805f8114610171576040519150601f19603f3d011682016040523d82523d5f602084013e610176565b606091505b50509050806101cb5760405162461bcd60e51b815260206004820152601d60248201527f5265656e7472616e637941747461636b3a206661696c65642063616c6c000000604482015260640160405180910390fd5b505050565b5f6020808352835180828501525f5b818110156101fb578581018301518582016040015282016101df565b505f604082860101526040601f19601f8301168501019250505092915050565b5f806020838503121561022c575f80fd5b823567ffffffffffffffff80821115610243575f80fd5b818501915085601f830112610256575f80fd5b813581811115610264575f80fd5b866020828501011115610275575f80fd5b60209290920196919550909350505050565b818382375f910190815291905056fea264697066735822122003172802cb33c29b28733636346d6532781cf2d88a5231b344971b032a07a0d064736f6c63430008140033",
  "linkReferences": {},
  "deployedLinkReferences": {}
}