{
  "_format": "hh-sol-artifact-1",
  "contractName": "$ERC721Burnable",
  "sourceName": "contracts-exposed/token/ERC721/extensions/ERC721Burnable.sol",
  "abi": [
    {
      "inputs": [
        {
          "internalType": "string",
          "name": "name_",
          "type": "string"
        },
        {
          "internalType": "string",
          "name": "symbol_",
          "type": "string"
        }
      ],
      "stateMutability": "payable",
      "type": "constructor"
    },
    {
      "inputs": [
        {
          "internalType": "address",
          "name": "sender",
          "type": "address"
        },
        {
          "internalType": "uint256",
          "name": "tokenId",
          "type": "uint256"
        },
        {
          "internalType": "address",
          "name": "owner",
          "type": "address"
        }
      ],
      "name": "ERC721IncorrectOwner",
      "type": "error"
    },
    {
      "inputs": [
        {
          "internalType": "address",
          "name": "operator",
          "type": "address"
        },
        {
          "internalType": "uint256",
          "name": "tokenId",
          "type": "uint256"
        }
      ],
      "name": "ERC721InsufficientApproval",
      "type": "error"
    },
    {
      "inputs": [
        {
          "internalType": "address",
          "name": "approver",
          "type": "address"
        }
      ],
      "name": "ERC721InvalidApprover",
      "type": "error"
    },
    {
      "inputs": [
        {
          "internalType": "address",
          "name": "operator",
          "type": "address"
        }
      ],
      "name": "ERC721InvalidOperator",
      "type": "error"
    },
    {
      "inputs": [
        {
          "internalType": "address",
          "name": "owner",
          "type": "address"
        }
      ],
      "name": "ERC721InvalidOwner",
      "type": "error"
    },
    {
      "inputs": [
        {
          "internalType": "address",
          "name": "receiver",
          "type": "address"
        }
      ],
      "name": "ERC721InvalidReceiver",
      "type": "error"
    },
    {
      "inputs": [
        {
          "internalType": "address",
          "name": "sender",
          "type": "address"
        }
      ],
      "name": "ERC721InvalidSender",
      "type": "error"
    },
    {
      "inputs": [
        {
          "internalType": "uint256",
          "name": "tokenId",
          "type": "uint256"
        }
      ],
      "name": "ERC721NonexistentToken",
      "type": "error"
    },
    {
      "anonymous": false,
      "inputs": [
        {
          "indexed": true,
          "internalType": "address",
          "name": "owner",
          "type": "address"
        },
        {
          "indexed": true,
          "internalType": "address",
          "name": "approved",
          "type": "address"
        },
        {
          "indexed": true,
          "internalType": "uint256",
          "name": "tokenId",
          "type": "uint256"
        }
      ],
      "name": "Approval",
      "type": "event"
    },
    {
      "anonymous": false,
      "inputs": [
        {
          "indexed": true,
          "internalType": "address",
          "name": "owner",
          "type": "address"
        },
        {
          "indexed": true,
          "internalType": "address",
          "name": "operator",
          "type": "address"
        },
        {
          "indexed": false,
          "internalType": "bool",
          "name": "approved",
          "type": "bool"
        }
      ],
      "name": "ApprovalForAll",
      "type": "event"
    },
    {
      "anonymous": false,
      "inputs": [
        {
          "indexed": true,
          "internalType": "address",
          "name": "from",
          "type": "address"
        },
        {
          "indexed": true,
          "internalType": "address",
          "name": "to",
          "type": "address"
        },
        {
          "indexed": true,
          "internalType": "uint256",
          "name": "tokenId",
          "type": "uint256"
        }
      ],
      "name": "Transfer",
      "type": "event"
    },
    {
      "inputs": [
        {
          "internalType": "address",
          "name": "account",
          "type": "address"
        },
        {
          "internalType": "uint256",
          "name": "value",
          "type": "uint256"
        }
      ],
      "name": "$__unsafe_increaseBalance",
      "outputs": [],
      "stateMutability": "nonpayable",
      "type": "function"
    },
    {
      "inputs": [
        {
          "internalType": "address",
          "name": "from",
          "type": "address"
        },
        {
          "internalType": "address",
          "name": "to",
          "type": "address"
        },
        {
          "internalType": "uint256",
          "name": "firstTokenId",
          "type": "uint256"
        },
        {
          "internalType": "uint256",
          "name": "batchSize",
          "type": "uint256"
        }
      ],
      "name": "$_afterTokenTransfer",
      "outputs": [],
      "stateMutability": "nonpayable",
      "type": "function"
    },
    {
      "inputs": [
        {
          "internalType": "address",
          "name": "to",
          "type": "address"
        },
        {
          "internalType": "uint256",
          "name": "tokenId",
          "type": "uint256"
        }
      ],
      "name": "$_approve",
      "outputs": [],
      "stateMutability": "nonpayable",
      "type": "function"
    },
    {
      "inputs": [],
      "name": "$_baseURI",
      "outputs": [
        {
          "internalType": "string",
          "name": "ret0",
          "type": "string"
        }
      ],
      "stateMutability": "view",
      "type": "function"
    },
    {
      "inputs": [
        {
          "internalType": "address",
          "name": "from",
          "type": "address"
        },
        {
          "internalType": "address",
          "name": "to",
          "type": "address"
        },
        {
          "internalType": "uint256",
          "name": "firstTokenId",
          "type": "uint256"
        },
        {
          "internalType": "uint256",
          "name": "batchSize",
          "type": "uint256"
        }
      ],
      "name": "$_beforeTokenTransfer",
      "outputs": [],
      "stateMutability": "nonpayable",
      "type": "function"
    },
    {
      "inputs": [
        {
          "internalType": "uint256",
          "name": "tokenId",
          "type": "uint256"
        }
      ],
      "name": "$_burn",
      "outputs": [],
      "stateMutability": "nonpayable",
      "type": "function"
    },
    {
      "inputs": [
        {
          "internalType": "uint256",
          "name": "tokenId",
          "type": "uint256"
        }
      ],
      "name": "$_exists",
      "outputs": [
        {
          "internalType": "bool",
          "name": "ret0",
          "type": "bool"
        }
      ],
      "stateMutability": "view",
      "type": "function"
    },
    {
      "inputs": [
        {
          "internalType": "address",
          "name": "spender",
          "type": "address"
        },
        {
          "internalType": "uint256",
          "name": "tokenId",
          "type": "uint256"
        }
      ],
      "name": "$_isApprovedOrOwner",
      "outputs": [
        {
          "internalType": "bool",
          "name": "ret0",
          "type": "bool"
        }
      ],
      "stateMutability": "view",
      "type": "function"
    },
    {
      "inputs": [
        {
          "internalType": "address",
          "name": "to",
          "type": "address"
        },
        {
          "internalType": "uint256",
          "name": "tokenId",
          "type": "uint256"
        }
      ],
      "name": "$_mint",
      "outputs": [],
      "stateMutability": "nonpayable",
      "type": "function"
    },
    {
      "inputs": [],
      "name": "$_msgData",
      "outputs": [
        {
          "internalType": "bytes",
          "name": "ret0",
          "type": "bytes"
        }
      ],
      "stateMutability": "view",
      "type": "function"
    },
    {
      "inputs": [],
      "name": "$_msgSender",
      "outputs": [
        {
          "internalType": "address",
          "name": "ret0",
          "type": "address"
        }
      ],
      "stateMutability": "view",
      "type": "function"
    },
    {
      "inputs": [
        {
          "internalType": "uint256",
          "name": "tokenId",
          "type": "uint256"
        }
      ],
      "name": "$_ownerOf",
      "outputs": [
        {
          "internalType": "address",
          "name": "ret0",
          "type": "address"
        }
      ],
      "stateMutability": "view",
      "type": "function"
    },
    {
      "inputs": [
        {
          "internalType": "uint256",
          "name": "tokenId",
          "type": "uint256"
        }
      ],
      "name": "$_requireMinted",
      "outputs": [],
      "stateMutability": "view",
      "type": "function"
    },
    {
      "inputs": [
        {
          "internalType": "address",
          "name": "to",
          "type": "address"
        },
        {
          "internalType": "uint256",
          "name": "tokenId",
          "type": "uint256"
        },
        {
          "internalType": "bytes",
          "name": "data",
          "type": "bytes"
        }
      ],
      "name": "$_safeMint",
      "outputs": [],
      "stateMutability": "nonpayable",
      "type": "function"
    },
    {
      "inputs": [
        {
          "internalType": "address",
          "name": "to",
          "type": "address"
        },
        {
          "internalType": "uint256",
          "name": "tokenId",
          "type": "uint256"
        }
      ],
      "name": "$_safeMint",
      "outputs": [],
      "stateMutability": "nonpayable",
      "type": "function"
    },
    {
      "inputs": [
        {
          "internalType": "address",
          "name": "from",
          "type": "address"
        },
        {
          "internalType": "address",
          "name": "to",
          "type": "address"
        },
        {
          "internalType": "uint256",
          "name": "tokenId",
          "type": "uint256"
        },
        {
          "internalType": "bytes",
          "name": "data",
          "type": "bytes"
        }
      ],
      "name": "$_safeTransfer",
      "outputs": [],
      "stateMutability": "nonpayable",
      "type": "function"
    },
    {
      "inputs": [
        {
          "internalType": "address",
          "name": "owner",
          "type": "address"
        },
        {
          "internalType": "address",
          "name": "operator",
          "type": "address"
        },
        {
          "internalType": "bool",
          "name": "approved",
          "type": "bool"
        }
      ],
      "name": "$_setApprovalForAll",
      "outputs": [],
      "stateMutability": "nonpayable",
      "type": "function"
    },
    {
      "inputs": [
        {
          "internalType": "address",
          "name": "from",
          "type": "address"
        },
        {
          "internalType": "address",
          "name": "to",
          "type": "address"
        },
        {
          "internalType": "uint256",
          "name": "tokenId",
          "type": "uint256"
        }
      ],
      "name": "$_transfer",
      "outputs": [],
      "stateMutability": "nonpayable",
      "type": "function"
    },
    {
      "inputs": [],
      "name": "__hh_exposed_bytecode_marker",
      "outputs": [
        {
          "internalType": "bytes32",
          "name": "",
          "type": "bytes32"
        }
      ],
      "stateMutability": "view",
      "type": "function"
    },
    {
      "inputs": [
        {
          "internalType": "address",
          "name": "to",
          "type": "address"
        },
        {
          "internalType": "uint256",
          "name": "tokenId",
          "type": "uint256"
        }
      ],
      "name": "approve",
      "outputs": [],
      "stateMutability": "nonpayable",
      "type": "function"
    },
    {
      "inputs": [
        {
          "internalType": "address",
          "name": "owner",
          "type": "address"
        }
      ],
      "name": "balanceOf",
      "outputs": [
        {
          "internalType": "uint256",
          "name": "",
          "type": "uint256"
        }
      ],
      "stateMutability": "view",
      "type": "function"
    },
    {
      "inputs": [
        {
          "internalType": "uint256",
          "name": "tokenId",
          "type": "uint256"
        }
      ],
      "name": "burn",
      "outputs": [],
      "stateMutability": "nonpayable",
      "type": "function"
    },
    {
      "inputs": [
        {
          "internalType": "uint256",
          "name": "tokenId",
          "type": "uint256"
        }
      ],
      "name": "getApproved",
      "outputs": [
        {
          "internalType": "address",
          "name": "",
          "type": "address"
        }
      ],
      "stateMutability": "view",
      "type": "function"
    },
    {
      "inputs": [
        {
          "internalType": "address",
          "name": "owner",
          "type": "address"
        },
        {
          "internalType": "address",
          "name": "operator",
          "type": "address"
        }
      ],
      "name": "isApprovedForAll",
      "outputs": [
        {
          "internalType": "bool",
          "name": "",
          "type": "bool"
        }
      ],
      "stateMutability": "view",
      "type": "function"
    },
    {
      "inputs": [],
      "name": "name",
      "outputs": [
        {
          "internalType": "string",
          "name": "",
          "type": "string"
        }
      ],
      "stateMutability": "view",
      "type": "function"
    },
    {
      "inputs": [
        {
          "internalType": "uint256",
          "name": "tokenId",
          "type": "uint256"
        }
      ],
      "name": "ownerOf",
      "outputs": [
        {
          "internalType": "address",
          "name": "",
          "type": "address"
        }
      ],
      "stateMutability": "view",
      "type": "function"
    },
    {
      "inputs": [
        {
          "internalType": "address",
          "name": "from",
          "type": "address"
        },
        {
          "internalType": "address",
          "name": "to",
          "type": "address"
        },
        {
          "internalType": "uint256",
          "name": "tokenId",
          "type": "uint256"
        }
      ],
      "name": "safeTransferFrom",
      "outputs": [],
      "stateMutability": "nonpayable",
      "type": "function"
    },
    {
      "inputs": [
        {
          "internalType": "address",
          "name": "from",
          "type": "address"
        },
        {
          "internalType": "address",
          "name": "to",
          "type": "address"
        },
        {
          "internalType": "uint256",
          "name": "tokenId",
          "type": "uint256"
        },
        {
          "internalType": "bytes",
          "name": "data",
          "type": "bytes"
        }
      ],
      "name": "safeTransferFrom",
      "outputs": [],
      "stateMutability": "nonpayable",
      "type": "function"
    },
    {
      "inputs": [
        {
          "internalType": "address",
          "name": "operator",
          "type": "address"
        },
        {
          "internalType": "bool",
          "name": "approved",
          "type": "bool"
        }
      ],
      "name": "setApprovalForAll",
      "outputs": [],
      "stateMutability": "nonpayable",
      "type": "function"
    },
    {
      "inputs": [
        {
          "internalType": "bytes4",
          "name": "interfaceId",
          "type": "bytes4"
        }
      ],
      "name": "supportsInterface",
      "outputs": [
        {
          "internalType": "bool",
          "name": "",
          "type": "bool"
        }
      ],
      "stateMutability": "view",
      "type": "function"
    },
    {
      "inputs": [],
      "name": "symbol",
      "outputs": [
        {
          "internalType": "string",
          "name": "",
          "type": "string"
        }
      ],
      "stateMutability": "view",
      "type": "function"
    },
    {
      "inputs": [
        {
          "internalType": "uint256",
          "name": "tokenId",
          "type": "uint256"
        }
      ],
      "name": "tokenURI",
      "outputs": [
        {
          "internalType": "string",
          "name": "",
          "type": "string"
        }
      ],
      "stateMutability": "view",
      "type": "function"
    },
    {
      "inputs": [
        {
          "internalType": "address",
          "name": "from",
          "type": "address"
        },
        {
          "internalType": "address",
          "name": "to",
          "type": "address"
        },
        {
          "internalType": "uint256",
          "name": "tokenId",
          "type": "uint256"
        }
      ],
      "name": "transferFrom",
      "outputs": [],
      "stateMutability": "nonpayable",
      "type": "function"
    },
    {
      "stateMutability": "payable",
      "type": "receive"
    }
  ],
  "bytecode": "0x608060405260405162001b1d38038062001b1d83398101604081905262000026916200010d565b81815f620000358382620001ff565b506001620000448282620001ff565b5050505050620002c7565b634e487b7160e01b5f52604160045260245ffd5b5f82601f83011262000073575f80fd5b81516001600160401b03808211156200009057620000906200004f565b604051601f8301601f19908116603f01168101908282118183101715620000bb57620000bb6200004f565b81604052838152602092508683858801011115620000d7575f80fd5b5f91505b83821015620000fa5785820183015181830184015290820190620000db565b5f93810190920192909252949350505050565b5f80604083850312156200011f575f80fd5b82516001600160401b038082111562000136575f80fd5b620001448683870162000063565b935060208501519150808211156200015a575f80fd5b50620001698582860162000063565b9150509250929050565b600181811c908216806200018857607f821691505b602082108103620001a757634e487b7160e01b5f52602260045260245ffd5b50919050565b601f821115620001fa575f81815260208120601f850160051c81016020861015620001d55750805b601f850160051c820191505b81811015620001f657828155600101620001e1565b5050505b505050565b81516001600160401b038111156200021b576200021b6200004f565b62000233816200022c845462000173565b84620001ad565b602080601f83116001811462000269575f8415620002515750858301515b5f19600386901b1c1916600185901b178555620001f6565b5f85815260208120601f198616915b82811015620002995788860151825594840194600190910190840162000278565b5085821015620002b757878501515f19600388901b60f8161c191681555b5050505050600190811b01905550565b61184880620002d55f395ff3fe6080604052600436106101e9575f3560e01c8063733555ec11610108578063c4a96fa61161009d578063cfeea0d41161006d578063cfeea0d414610570578063d261af541461058f578063e07084c2146102c0578063e985e9c5146105ae578063efb43b07146105cd575f80fd5b8063c4a96fa6146104f4578063c87b56dd14610513578063cc461d6214610532578063cd43f47d14610551575f80fd5b8063a22cb465116100d8578063a22cb46514610478578063a2373a8214610497578063b88d4fde146104b6578063c37add51146104d5575f80fd5b8063733555ec1461040757806395d89b411461042657806398a1f7a01461043a5780639ff2f02d14610459575f80fd5b80632904df291161017e57806342966c681161014e57806342966c681461038b578063458ee002146103aa5780636352211e146103c957806370a08231146103e8575f80fd5b80632904df291461031357806332cadf3c14610325578063342db7391461033957806342842e0e1461036c575f80fd5b806309854d72116101b957806309854d72146102a1578063147619da146102c0578063161e977d146102e057806323b872dd146102f4575f80fd5b806301ffc9a7146101f457806306fdde0314610228578063081812fc14610249578063095ea7b314610280575f80fd5b366101f057005b5f80fd5b3480156101ff575f80fd5b5061021361020e366004611320565b6105ec565b60405190151581526020015b60405180910390f35b348015610233575f80fd5b5061023c61063d565b60405161021f9190611388565b348015610254575f80fd5b5061026861026336600461139a565b6106cc565b6040516001600160a01b03909116815260200161021f565b34801561028b575f80fd5b5061029f61029a3660046113cc565b6106f1565b005b3480156102ac575f80fd5b5061029f6102bb36600461139a565b61078e565b3480156102cb575f80fd5b5061029f6102da3660046113f4565b50505050565b3480156102eb575f80fd5b5061023c61079a565b3480156102ff575f80fd5b5061029f61030e366004611433565b6107b5565b34801561031e575f80fd5b5033610268565b348015610330575f80fd5b5061023c6107fd565b348015610344575f80fd5b5061035e6e1a185c991a185d0b595e1c1bdcd959608a1b81565b60405190815260200161021f565b348015610377575f80fd5b5061029f610386366004611433565b61083a565b348015610396575f80fd5b5061029f6103a536600461139a565b610854565b3480156103b5575f80fd5b506102686103c436600461139a565b610870565b3480156103d4575f80fd5b506102686103e336600461139a565b61088c565b3480156103f3575f80fd5b5061035e61040236600461146c565b6108c4565b348015610412575f80fd5b5061029f6104213660046114ca565b610909565b348015610431575f80fd5b5061023c610951565b348015610445575f80fd5b5061029f6104543660046113cc565b610960565b348015610464575f80fd5b5061029f610473366004611534565b61096e565b348015610483575f80fd5b5061029f610492366004611599565b6109ae565b3480156104a2575f80fd5b5061029f6104b136600461139a565b610867565b3480156104c1575f80fd5b5061029f6104d03660046115de565b6109b9565b3480156104e0575f80fd5b506102136104ef36600461139a565b6109f5565b3480156104ff575f80fd5b5061021361050e3660046113cc565b610a13565b34801561051e575f80fd5b5061023c61052d36600461139a565b610a25565b34801561053d575f80fd5b5061029f61054c3660046113cc565b610a94565b34801561055c575f80fd5b5061029f61056b3660046113cc565b610a9e565b34801561057b575f80fd5b5061029f61058a3660046116b3565b610aa8565b34801561059a575f80fd5b5061029f6105a93660046113cc565b610ab3565b3480156105b9575f80fd5b506102136105c83660046116f3565b610abd565b3480156105d8575f80fd5b5061029f6105e7366004611433565b6107f2565b5f6001600160e01b031982166380ac58cd60e01b148061061c57506001600160e01b03198216635b5e139f60e01b145b8061063757506301ffc9a760e01b6001600160e01b03198316145b92915050565b60605f805461064b9061171b565b80601f01602080910402602001604051908101604052809291908181526020018280546106779061171b565b80156106c25780601f10610699576101008083540402835291602001916106c2565b820191905f5260205f20905b8154815290600101906020018083116106a557829003601f168201915b5050505050905090565b5f6106d682610aea565b505f908152600460205260409020546001600160a01b031690565b5f6106fb8261088c565b9050806001600160a01b0316836001600160a01b03160361073f57604051630b61174360e31b81526001600160a01b03821660048201526024015b60405180910390fd5b336001600160a01b0382161480159061075f575061075d8133610abd565b155b1561077f5760405163a9fbf51f60e01b8152336004820152602401610736565b6107898383610b21565b505050565b61079781610aea565b50565b60606107b060408051602081019091525f815290565b905090565b6107c0335b82610b8e565b6107f257335b60405163177e802f60e01b81526001600160a01b03909116600482015260248101829052604401610736565b610789838383610bec565b60605f368080601f0160208091040260200160405190810160405280939291908181526020018383808284375f9201919091525092949350505050565b61078983838360405180602001604052805f8152506109b9565b61085d336107ba565b61086757336107c6565b61079781610d76565b5f818152600260205260408120546001600160a01b0316610637565b5f818152600260205260408120546001600160a01b03168061063757604051637e27328960e01b815260048101849052602401610736565b5f6001600160a01b0382166108ee576040516322718ad960e21b81525f6004820152602401610736565b506001600160a01b03165f9081526003602052604090205490565b61094a85858585858080601f0160208091040260200160405190810160405280939291908181526020018383808284375f92019190915250610e2b92505050565b5050505050565b60606001805461064b9061171b565b61096a8282610e6a565b5050565b6102da848484848080601f0160208091040260200160405190810160405280939291908181526020018383808284375f92019190915250610e9a92505050565b61096a338383610ed8565b6109c33383610b8e565b6109e95760405163177e802f60e01b815233600482015260248101839052604401610736565b6102da84848484610e2b565b5f818152600260205260408120546001600160a01b03161515610637565b5f610a1e8383610b8e565b9392505050565b6060610a3082610aea565b5f610a4560408051602081019091525f815290565b90505f815111610a635760405180602001604052805f815250610a1e565b80610a6d84610f81565b604051602001610a7e929190611753565b6040516020818303038152906040529392505050565b61096a8282611011565b61096a8282610b21565b610789838383610ed8565b61096a8282611112565b6001600160a01b039182165f90815260056020908152604080832093909416825291909152205460ff1690565b5f818152600260205260409020546001600160a01b031661079757604051637e27328960e01b815260048101829052602401610736565b5f81815260046020526040902080546001600160a01b0319166001600160a01b0384169081179091558190610b558261088c565b6001600160a01b03167f8c5be1e5ebec7d5bd14f71427d1e84f3dd0314c0f7b2291e5b200ac8c7c3b92560405160405180910390a45050565b5f80610b998361088c565b9050806001600160a01b0316846001600160a01b03161480610bc05750610bc08185610abd565b80610be45750836001600160a01b0316610bd9846106cc565b6001600160a01b0316145b949350505050565b5f610bf68261088c565b9050836001600160a01b0316816001600160a01b031614610c44576040516364283d7b60e01b81526001600160a01b0380861660048301526024820184905282166044820152606401610736565b6001600160a01b038316610c6d57604051633250574960e11b81525f6004820152602401610736565b610c768261088c565b9050836001600160a01b0316816001600160a01b031614610cc4576040516364283d7b60e01b81526001600160a01b0380861660048301526024820184905282166044820152606401610736565b5f82815260046020908152604080832080546001600160a01b03191690556001600160a01b038716835260039091528120805460019290610d06908490611795565b90915550506001600160a01b038084165f81815260036020908152604080832080546001019055868352600290915280822080546001600160a01b031916841790555185938816917fddf252ad1be2c89b69c2b068fc378daa952ba7f163c4a11628f55a4df523b3ef91a46102da565b5f610d808261088c565b9050610d8b8261088c565b5f83815260046020908152604080832080546001600160a01b03191690556001600160a01b0384168352600390915281208054929350600192909190610dd2908490611795565b90915550505f8281526002602052604080822080546001600160a01b0319169055518391906001600160a01b038416907fddf252ad1be2c89b69c2b068fc378daa952ba7f163c4a11628f55a4df523b3ef908390a45050565b610e36848484610bec565b610e428484848461112b565b6102da57604051633250574960e11b81526001600160a01b0384166004820152602401610736565b6001600160a01b0382165f9081526003602052604081208054839290610e919084906117a8565b90915550505050565b610ea48383611011565b610eb05f84848461112b565b61078957604051633250574960e11b81526001600160a01b0384166004820152602401610736565b816001600160a01b0316836001600160a01b031603610f1557604051630b61174360e31b81526001600160a01b0384166004820152602401610736565b6001600160a01b038381165f81815260056020908152604080832094871680845294825291829020805460ff191686151590811790915591519182527f17307eab39ab6107e8899845ad3d59bd9653f200f220920489ca2b5937696c31910160405180910390a3505050565b60605f610f8d83611234565b60010190505f8167ffffffffffffffff811115610fac57610fac6115ca565b6040519080825280601f01601f191660200182016040528015610fd6576020820181803683370190505b5090508181016020015b5f19016f181899199a1a9b1b9c1cb0b131b232b360811b600a86061a8153600a8504945084610fe057509392505050565b6001600160a01b03821661103a57604051633250574960e11b81525f6004820152602401610736565b5f818152600260205260409020546001600160a01b031615611071576040516339e3563760e11b81525f6004820152602401610736565b5f818152600260205260409020546001600160a01b0316156110a8576040516339e3563760e11b81525f6004820152602401610736565b6001600160a01b0382165f81815260036020908152604080832080546001019055848352600290915280822080546001600160a01b0319168417905551839291907fddf252ad1be2c89b69c2b068fc378daa952ba7f163c4a11628f55a4df523b3ef908290a45050565b61096a828260405180602001604052805f815250610e9a565b5f6001600160a01b0384163b1561122957604051630a85bd0160e11b81526001600160a01b0385169063150b7a029061116e9033908990889088906004016117bb565b6020604051808303815f875af19250505080156111a8575060408051601f3d908101601f191682019092526111a5918101906117f7565b60015b61120f573d8080156111d5576040519150601f19603f3d011682016040523d82523d5f602084013e6111da565b606091505b5080515f0361120757604051633250574960e11b81526001600160a01b0386166004820152602401610736565b805181602001fd5b6001600160e01b031916630a85bd0160e11b149050610be4565b506001949350505050565b5f8072184f03e93ff9f4daa797ed6e38ed64bf6a1f0160401b83106112725772184f03e93ff9f4daa797ed6e38ed64bf6a1f0160401b830492506040015b6d04ee2d6d415b85acef8100000000831061129e576d04ee2d6d415b85acef8100000000830492506020015b662386f26fc1000083106112bc57662386f26fc10000830492506010015b6305f5e10083106112d4576305f5e100830492506008015b61271083106112e857612710830492506004015b606483106112fa576064830492506002015b600a83106106375760010192915050565b6001600160e01b031981168114610797575f80fd5b5f60208284031215611330575f80fd5b8135610a1e8161130b565b5f5b8381101561135557818101518382015260200161133d565b50505f910152565b5f815180845261137481602086016020860161133b565b601f01601f19169290920160200192915050565b602081525f610a1e602083018461135d565b5f602082840312156113aa575f80fd5b5035919050565b80356001600160a01b03811681146113c7575f80fd5b919050565b5f80604083850312156113dd575f80fd5b6113e6836113b1565b946020939093013593505050565b5f805f8060808587031215611407575f80fd5b611410856113b1565b935061141e602086016113b1565b93969395505050506040820135916060013590565b5f805f60608486031215611445575f80fd5b61144e846113b1565b925061145c602085016113b1565b9150604084013590509250925092565b5f6020828403121561147c575f80fd5b610a1e826113b1565b5f8083601f840112611495575f80fd5b50813567ffffffffffffffff8111156114ac575f80fd5b6020830191508360208285010111156114c3575f80fd5b9250929050565b5f805f805f608086880312156114de575f80fd5b6114e7866113b1565b94506114f5602087016113b1565b935060408601359250606086013567ffffffffffffffff811115611517575f80fd5b61152388828901611485565b969995985093965092949392505050565b5f805f8060608587031215611547575f80fd5b611550856113b1565b935060208501359250604085013567ffffffffffffffff811115611572575f80fd5b61157e87828801611485565b95989497509550505050565b803580151581146113c7575f80fd5b5f80604083850312156115aa575f80fd5b6115b3836113b1565b91506115c16020840161158a565b90509250929050565b634e487b7160e01b5f52604160045260245ffd5b5f805f80608085870312156115f1575f80fd5b6115fa856113b1565b9350611608602086016113b1565b925060408501359150606085013567ffffffffffffffff8082111561162b575f80fd5b818701915087601f83011261163e575f80fd5b813581811115611650576116506115ca565b604051601f8201601f19908116603f01168101908382118183101715611678576116786115ca565b816040528281528a6020848701011115611690575f80fd5b826020860160208301375f60208483010152809550505050505092959194509250565b5f805f606084860312156116c5575f80fd5b6116ce846113b1565b92506116dc602085016113b1565b91506116ea6040850161158a565b90509250925092565b5f8060408385031215611704575f80fd5b61170d836113b1565b91506115c1602084016113b1565b600181811c9082168061172f57607f821691505b60208210810361174d57634e487b7160e01b5f52602260045260245ffd5b50919050565b5f835161176481846020880161133b565b83519083019061177881836020880161133b565b01949350505050565b634e487b7160e01b5f52601160045260245ffd5b8181038181111561063757610637611781565b8082018082111561063757610637611781565b6001600160a01b03858116825284166020820152604081018390526080606082018190525f906117ed9083018461135d565b9695505050505050565b5f60208284031215611807575f80fd5b8151610a1e8161130b56fea26469706673582212209e5d7e0a87316127c975da7e79998c1aa41bd71f4384c0df6d2439607051119e64736f6c63430008140033",
  "linkReferences": {},
  "deployedLinkReferences": {}
}