{
  "_format": "hh-sol-artifact-1",
  "contractName": "$TransparentUpgradeableProxy",
  "sourceName": "contracts-exposed/proxy/transparent/TransparentUpgradeableProxy.sol",
  "abi": [
    {
      "inputs": [
        {
          "internalType": "address",
          "name": "_logic",
          "type": "address"
        },
        {
          "internalType": "address",
          "name": "initialOwner",
          "type": "address"
        },
        {
          "internalType": "bytes",
          "name": "_data",
          "type": "bytes"
        }
      ],
      "stateMutability": "payable",
      "type": "constructor"
    },
    {
      "inputs": [
        {
          "internalType": "address",
          "name": "target",
          "type": "address"
        }
      ],
      "name": "AddressEmptyCode",
      "type": "error"
    },
    {
      "inputs": [
        {
          "internalType": "address",
          "name": "admin",
          "type": "address"
        }
      ],
      "name": "ERC1967InvalidAdmin",
      "type": "error"
    },
    {
      "inputs": [
        {
          "internalType": "address",
          "name": "implementation",
          "type": "address"
        }
      ],
      "name": "ERC1967InvalidImplementation",
      "type": "error"
    },
    {
      "inputs": [],
      "name": "ERC1967NonPayable",
      "type": "error"
    },
    {
      "inputs": [],
      "name": "FailedInnerCall",
      "type": "error"
    },
    {
      "inputs": [],
      "name": "ProxyDeniedAdminAccess",
      "type": "error"
    },
    {
      "anonymous": false,
      "inputs": [
        {
          "indexed": false,
          "internalType": "address",
          "name": "previousAdmin",
          "type": "address"
        },
        {
          "indexed": false,
          "internalType": "address",
          "name": "newAdmin",
          "type": "address"
        }
      ],
      "name": "AdminChanged",
      "type": "event"
    },
    {
      "anonymous": false,
      "inputs": [
        {
          "indexed": true,
          "internalType": "address",
          "name": "implementation",
          "type": "address"
        }
      ],
      "name": "Upgraded",
      "type": "event"
    },
    {
      "stateMutability": "payable",
      "type": "fallback"
    },
    {
      "inputs": [],
      "name": "$_beforeFallback",
      "outputs": [],
      "stateMutability": "nonpayable",
      "type": "function"
    },
    {
      "inputs": [
        {
          "internalType": "address",
          "name": "implementation",
          "type": "address"
        }
      ],
      "name": "$_delegate",
      "outputs": [],
      "stateMutability": "nonpayable",
      "type": "function"
    },
    {
      "inputs": [],
      "name": "$_fallback",
      "outputs": [],
      "stateMutability": "nonpayable",
      "type": "function"
    },
    {
      "inputs": [],
      "name": "$_implementation",
      "outputs": [
        {
          "internalType": "address",
          "name": "impl",
          "type": "address"
        }
      ],
      "stateMutability": "view",
      "type": "function"
    },
    {
      "inputs": [],
      "name": "__hh_exposed_bytecode_marker",
      "outputs": [
        {
          "internalType": "bytes32",
          "name": "",
          "type": "bytes32"
        }
      ],
      "stateMutability": "view",
      "type": "function"
    },
    {
      "stateMutability": "payable",
      "type": "receive"
    }
  ],
  "bytecode": "0x60a060405260405162000fa538038062000fa58339810160408190526200002691620003e7565b828282828162000037828262000098565b505081604051620000489062000385565b6001600160a01b039091168152602001604051809103905ff08015801562000072573d5f803e3d5ffd5b506001600160a01b031660808190526200008c90620000fd565b505050505050620004de565b620000a3826200016e565b6040516001600160a01b038316907fbc7cd75a20ee27fd9adebab32041f755214dbc6bffa90cc0225b39da2e5c2d3b905f90a2805115620000ef57620000ea8282620001ed565b505050565b620000f96200020e565b5050565b7f7e644d79422f17c01e4894b5f4f588d331ebfa28653d42ae832dc59e38c9798f6200013e5f8051602062000f85833981519152546001600160a01b031690565b604080516001600160a01b03928316815291841660208301520160405180910390a16200016b8162000230565b50565b806001600160a01b03163b5f03620001a957604051634c9c8ce360e01b81526001600160a01b03821660048201526024015b60405180910390fd5b807f360894a13ba1a3210667c828492db98dca3e2076cc3735a920a3ca505d382bbc5b80546001600160a01b0319166001600160a01b039290921691909117905550565b6060620002078383620001966200027160201b176200028a565b9392505050565b34156200022e5760405163b398979f60e01b815260040160405180910390fd5b565b6001600160a01b0381166200025b57604051633173bdd160e11b81525f6004820152602401620001a0565b805f8051602062000f85833981519152620001cc565b604051630a12f52160e11b815260040160405180910390fd5b60605f80856001600160a01b031685604051620002a89190620004c1565b5f60405180830381855af49150503d805f8114620002e2576040519150601f19603f3d011682016040523d82523d5f602084013e620002e7565b606091505b509092509050620002fb8683838762000305565b9695505050505050565b60608315620003565782515f036200034e57846001600160a01b03163b5f036200034e57604051639996b31560e01b81526001600160a01b0386166004820152602401620001a0565b508162000362565b6200036283836200036a565b949350505050565b8151156200037b5781518083602001fd5b620002718160201c565b6104cf8062000ab683390190565b80516001600160a01b0381168114620003aa575f80fd5b919050565b634e487b7160e01b5f52604160045260245ffd5b5f5b83811015620003df578181015183820152602001620003c5565b50505f910152565b5f805f60608486031215620003fa575f80fd5b620004058462000393565b9250620004156020850162000393565b60408501519092506001600160401b038082111562000432575f80fd5b818601915086601f83011262000446575f80fd5b8151818111156200045b576200045b620003af565b604051601f8201601f19908116603f01168101908382118183101715620004865762000486620003af565b816040528281528960208487010111156200049f575f80fd5b620004b2836020830160208801620003c3565b80955050505050509250925092565b5f8251620004d4818460208701620003c3565b9190910192915050565b6080516105bf620004f75f395f61010a01526105bf5ff3fe60806040526004361061004d575f3560e01c8063342db7391461005e578063515f8df01461009657806389194f73146100c2578063ee8d6399146100cd578063f49367aa146100e157610054565b3661005457005b61005c610100565b005b348015610069575f80fd5b506100836e1a185c991a185d0b595e1c1bdcd959608a1b81565b6040519081526020015b60405180910390f35b3480156100a1575f80fd5b506100aa610174565b6040516001600160a01b03909116815260200161008d565b34801561005c575f80fd5b3480156100d8575f80fd5b5061005c610182565b3480156100ec575f80fd5b5061005c6100fb366004610449565b61018a565b6001600160a01b037f000000000000000000000000000000000000000000000000000000000000000016330361016c5763587086bd60e11b5f356001600160e01b03191601610153576101516101af565b565b6040516334ad5dbb60e21b815260040160405180910390fd5b6101516101dd565b5f61017d6101ed565b905090565b610151610100565b6101938161021f565b50565b604051630a12f52160e11b815260040160405180910390fd5b5f806101be3660048184610464565b8101906101cb919061049f565b915091506101d9828261023d565b5050565b6101516101e86101ed565b61021f565b5f61017d7f360894a13ba1a3210667c828492db98dca3e2076cc3735a920a3ca505d382bbc546001600160a01b031690565b365f80375f80365f845af43d5f803e808015610239573d5ff35b3d5ffd5b61024682610297565b6040516001600160a01b038316907fbc7cd75a20ee27fd9adebab32041f755214dbc6bffa90cc0225b39da2e5c2d3b905f90a280511561028f5761028a8282610312565b505050565b6101d9610328565b806001600160a01b03163b5f036102d157604051634c9c8ce360e01b81526001600160a01b03821660048201526024015b60405180910390fd5b7f360894a13ba1a3210667c828492db98dca3e2076cc3735a920a3ca505d382bbc80546001600160a01b0319166001600160a01b0392909216919091179055565b60606103218383610196610347565b9392505050565b34156101515760405163b398979f60e01b815260040160405180910390fd5b60605f80856001600160a01b031685604051610363919061055d565b5f60405180830381855af49150503d805f811461039b576040519150601f19603f3d011682016040523d82523d5f602084013e6103a0565b606091505b50915091506103b1868383876103bb565b9695505050505050565b606083156104075782515f0361040057846001600160a01b03163b5f0361040057604051639996b31560e01b81526001600160a01b03861660048201526024016102c8565b5081610411565b6104118383610419565b949350505050565b8151156104295781518083602001fd5b6101968163ffffffff16565b6001600160a01b0381168114610193575f80fd5b5f60208284031215610459575f80fd5b813561032181610435565b5f8085851115610472575f80fd5b8386111561047e575f80fd5b5050820193919092039150565b634e487b7160e01b5f52604160045260245ffd5b5f80604083850312156104b0575f80fd5b82356104bb81610435565b9150602083013567ffffffffffffffff808211156104d7575f80fd5b818501915085601f8301126104ea575f80fd5b8135818111156104fc576104fc61048b565b604051601f8201601f19908116603f011681019083821181831017156105245761052461048b565b8160405282815288602084870101111561053c575f80fd5b826020860160208301375f6020848301015280955050505050509250929050565b5f82515f5b8181101561057c5760208186018101518583015201610562565b505f92019182525091905056fea2646970667358221220c852e284ee318bcd5b4e357a0423f75c3b0a0c2f14bd12a4a34260d22b9e0cb464736f6c63430008140033608060405234801561000f575f80fd5b506040516104cf3803806104cf83398101604081905261002e9161008e565b806100388161003f565b50506100bb565b5f80546001600160a01b038381166001600160a01b0319831681178455604051919092169283917f8be0079c531659141344cd1fd0a4f28419497f9722a3daafe3b4186f6b6457e09190a35050565b5f6020828403121561009e575f80fd5b81516001600160a01b03811681146100b4575f80fd5b9392505050565b610407806100c85f395ff3fe608060405260043610610049575f3560e01c8063715018a61461004d5780638da5cb5b146100635780639623609d1461008e578063ad3cb1cc146100a1578063f2fde38b146100de575b5f80fd5b348015610058575f80fd5b506100616100fd565b005b34801561006e575f80fd5b505f546040516001600160a01b0390911681526020015b60405180910390f35b61006161009c366004610260565b610110565b3480156100ac575f80fd5b506100d1604051806040016040528060058152602001640352e302e360dc1b81525081565b6040516100859190610372565b3480156100e9575f80fd5b506100616100f836600461038b565b61017b565b6101056101bd565b61010e5f6101e9565b565b6101186101bd565b60405163278f794360e11b81526001600160a01b03841690634f1ef28690349061014890869086906004016103a6565b5f604051808303818588803b15801561015f575f80fd5b505af1158015610171573d5f803e3d5ffd5b5050505050505050565b6101836101bd565b6001600160a01b0381166101b157604051631e4fbdf760e01b81525f60048201526024015b60405180910390fd5b6101ba816101e9565b50565b5f546001600160a01b0316331461010e5760405163118cdaa760e01b81523360048201526024016101a8565b5f80546001600160a01b038381166001600160a01b0319831681178455604051919092169283917f8be0079c531659141344cd1fd0a4f28419497f9722a3daafe3b4186f6b6457e09190a35050565b6001600160a01b03811681146101ba575f80fd5b634e487b7160e01b5f52604160045260245ffd5b5f805f60608486031215610272575f80fd5b833561027d81610238565b9250602084013561028d81610238565b9150604084013567ffffffffffffffff808211156102a9575f80fd5b818601915086601f8301126102bc575f80fd5b8135818111156102ce576102ce61024c565b604051601f8201601f19908116603f011681019083821181831017156102f6576102f661024c565b8160405282815289602084870101111561030e575f80fd5b826020860160208301375f6020848301015280955050505050509250925092565b5f81518084525f5b8181101561035357602081850181015186830182015201610337565b505f602082860101526020601f19601f83011685010191505092915050565b602081525f610384602083018461032f565b9392505050565b5f6020828403121561039b575f80fd5b813561038481610238565b6001600160a01b03831681526040602082018190525f906103c99083018461032f565b94935050505056fea264697066735822122059dcf6a179853588bf02eba23c79e9b90ac873aa4731bc2f88a87c6e70b6990264736f6c63430008140033b53127684a568b3173ae13b9f8a6016e243e63b6e8ee1178d6a717850b5d6103",
  "linkReferences": {},
  "deployedLinkReferences": {}
}