{
  "_format": "hh-sol-artifact-1",
  "contractName": "$SampleChild",
  "sourceName": "contracts-exposed/mocks/MultipleInheritanceInitializableMocks.sol",
  "abi": [
    {
      "inputs": [
        {
          "internalType": "uint256",
          "name": "_mother",
          "type": "uint256"
        },
        {
          "internalType": "string",
          "name": "_gramps",
          "type": "string"
        },
        {
          "internalType": "uint256",
          "name": "_father",
          "type": "uint256"
        },
        {
          "internalType": "uint256",
          "name": "_child",
          "type": "uint256"
        }
      ],
      "stateMutability": "payable",
      "type": "constructor"
    },
    {
      "inputs": [],
      "name": "AlreadyInitialized",
      "type": "error"
    },
    {
      "inputs": [],
      "name": "NotInitializing",
      "type": "error"
    },
    {
      "anonymous": false,
      "inputs": [
        {
          "indexed": false,
          "internalType": "uint8",
          "name": "version",
          "type": "uint8"
        }
      ],
      "name": "Initialized",
      "type": "event"
    },
    {
      "inputs": [
        {
          "internalType": "uint256",
          "name": "_mother",
          "type": "uint256"
        },
        {
          "internalType": "string",
          "name": "_gramps",
          "type": "string"
        },
        {
          "internalType": "uint256",
          "name": "_father",
          "type": "uint256"
        },
        {
          "internalType": "uint256",
          "name": "_child",
          "type": "uint256"
        }
      ],
      "name": "$__SampleChild_init",
      "outputs": [],
      "stateMutability": "nonpayable",
      "type": "function"
    },
    {
      "inputs": [
        {
          "internalType": "uint256",
          "name": "_child",
          "type": "uint256"
        }
      ],
      "name": "$__SampleChild_init_unchained",
      "outputs": [],
      "stateMutability": "nonpayable",
      "type": "function"
    },
    {
      "inputs": [
        {
          "internalType": "string",
          "name": "_gramps",
          "type": "string"
        },
        {
          "internalType": "uint256",
          "name": "_father",
          "type": "uint256"
        }
      ],
      "name": "$__SampleFather_init",
      "outputs": [],
      "stateMutability": "nonpayable",
      "type": "function"
    },
    {
      "inputs": [
        {
          "internalType": "uint256",
          "name": "_father",
          "type": "uint256"
        }
      ],
      "name": "$__SampleFather_init_unchained",
      "outputs": [],
      "stateMutability": "nonpayable",
      "type": "function"
    },
    {
      "inputs": [
        {
          "internalType": "string",
          "name": "value",
          "type": "string"
        }
      ],
      "name": "$__SampleGramps_init",
      "outputs": [],
      "stateMutability": "nonpayable",
      "type": "function"
    },
    {
      "inputs": [
        {
          "internalType": "string",
          "name": "value",
          "type": "string"
        }
      ],
      "name": "$__SampleGramps_init_unchained",
      "outputs": [],
      "stateMutability": "nonpayable",
      "type": "function"
    },
    {
      "inputs": [],
      "name": "$__SampleHuman_init",
      "outputs": [],
      "stateMutability": "nonpayable",
      "type": "function"
    },
    {
      "inputs": [],
      "name": "$__SampleHuman_init_unchained",
      "outputs": [],
      "stateMutability": "nonpayable",
      "type": "function"
    },
    {
      "inputs": [
        {
          "internalType": "uint256",
          "name": "value",
          "type": "uint256"
        }
      ],
      "name": "$__SampleMother_init",
      "outputs": [],
      "stateMutability": "nonpayable",
      "type": "function"
    },
    {
      "inputs": [
        {
          "internalType": "uint256",
          "name": "value",
          "type": "uint256"
        }
      ],
      "name": "$__SampleMother_init_unchained",
      "outputs": [],
      "stateMutability": "nonpayable",
      "type": "function"
    },
    {
      "inputs": [],
      "name": "$_disableInitializers",
      "outputs": [],
      "stateMutability": "nonpayable",
      "type": "function"
    },
    {
      "inputs": [],
      "name": "$_getInitializedVersion",
      "outputs": [
        {
          "internalType": "uint8",
          "name": "ret0",
          "type": "uint8"
        }
      ],
      "stateMutability": "view",
      "type": "function"
    },
    {
      "inputs": [],
      "name": "$_isInitializing",
      "outputs": [
        {
          "internalType": "bool",
          "name": "ret0",
          "type": "bool"
        }
      ],
      "stateMutability": "view",
      "type": "function"
    },
    {
      "inputs": [],
      "name": "__hh_exposed_bytecode_marker",
      "outputs": [
        {
          "internalType": "bytes32",
          "name": "",
          "type": "bytes32"
        }
      ],
      "stateMutability": "view",
      "type": "function"
    },
    {
      "inputs": [],
      "name": "child",
      "outputs": [
        {
          "internalType": "uint256",
          "name": "",
          "type": "uint256"
        }
      ],
      "stateMutability": "view",
      "type": "function"
    },
    {
      "inputs": [],
      "name": "father",
      "outputs": [
        {
          "internalType": "uint256",
          "name": "",
          "type": "uint256"
        }
      ],
      "stateMutability": "view",
      "type": "function"
    },
    {
      "inputs": [],
      "name": "gramps",
      "outputs": [
        {
          "internalType": "string",
          "name": "",
          "type": "string"
        }
      ],
      "stateMutability": "view",
      "type": "function"
    },
    {
      "inputs": [
        {
          "internalType": "uint256",
          "name": "_mother",
          "type": "uint256"
        },
        {
          "internalType": "string",
          "name": "_gramps",
          "type": "string"
        },
        {
          "internalType": "uint256",
          "name": "_father",
          "type": "uint256"
        },
        {
          "internalType": "uint256",
          "name": "_child",
          "type": "uint256"
        }
      ],
      "name": "initialize",
      "outputs": [],
      "stateMutability": "nonpayable",
      "type": "function"
    },
    {
      "inputs": [],
      "name": "initialize",
      "outputs": [],
      "stateMutability": "nonpayable",
      "type": "function"
    },
    {
      "inputs": [
        {
          "internalType": "string",
          "name": "_gramps",
          "type": "string"
        },
        {
          "internalType": "uint256",
          "name": "_father",
          "type": "uint256"
        }
      ],
      "name": "initialize",
      "outputs": [],
      "stateMutability": "nonpayable",
      "type": "function"
    },
    {
      "inputs": [
        {
          "internalType": "string",
          "name": "value",
          "type": "string"
        }
      ],
      "name": "initialize",
      "outputs": [],
      "stateMutability": "nonpayable",
      "type": "function"
    },
    {
      "inputs": [
        {
          "internalType": "uint256",
          "name": "value",
          "type": "uint256"
        }
      ],
      "name": "initialize",
      "outputs": [],
      "stateMutability": "nonpayable",
      "type": "function"
    },
    {
      "inputs": [],
      "name": "isHuman",
      "outputs": [
        {
          "internalType": "bool",
          "name": "",
          "type": "bool"
        }
      ],
      "stateMutability": "view",
      "type": "function"
    },
    {
      "inputs": [],
      "name": "mother",
      "outputs": [
        {
          "internalType": "uint256",
          "name": "",
          "type": "uint256"
        }
      ],
      "stateMutability": "view",
      "type": "function"
    },
    {
      "stateMutability": "payable",
      "type": "receive"
    }
  ],
  "bytecode": "0x6080604052604051620015e1380380620015e1833981016040819052620000269162000351565b5f54610100900460ff16158080156200004557505f54600160ff909116105b158015620000645750303b1580156200006257505f5460ff166001145b155b15620000825760405162dc149f60e41b815260040160405180910390fd5b5f805460ff191660011790558015620000a4575f805461ff0019166101001790555b620000b28585858562000103565b8015620000f8575f805461ff0019169055604051600181527f7f26b83ff96e1f2b6a682f133852f6798a09c465da95921460cefb38474024989060200160405180910390a15b50505050506200058d565b5f54610100900460ff166200012b57604051631afcd79f60e31b815260040160405180910390fd5b620001368462000153565b62000142838362000193565b6200014d81620001d5565b50505050565b5f54610100900460ff166200017b57604051631afcd79f60e31b815260040160405180910390fd5b6200018562000202565b620001908162000236565b50565b5f54610100900460ff16620001bb57604051631afcd79f60e31b815260040160405180910390fd5b620001c68262000263565b620001d181620002a0565b5050565b5f54610100900460ff16620001fd57604051631afcd79f60e31b815260040160405180910390fd5b600455565b5f54610100900460ff166200022a57604051631afcd79f60e31b815260040160405180910390fd5b62000234620002cd565b565b5f54610100900460ff166200025e57604051631afcd79f60e31b815260040160405180910390fd5b600155565b5f54610100900460ff166200028b57604051631afcd79f60e31b815260040160405180910390fd5b6200029562000202565b620001908162000307565b5f54610100900460ff16620002c857604051631afcd79f60e31b815260040160405180910390fd5b600355565b5f54610100900460ff16620002f557604051631afcd79f60e31b815260040160405180910390fd5b5f805462ff0000191662010000179055565b5f54610100900460ff166200032f57604051631afcd79f60e31b815260040160405180910390fd5b6002620001d18282620004c5565b634e487b7160e01b5f52604160045260245ffd5b5f805f806080858703121562000365575f80fd5b8451602080870151919550906001600160401b038082111562000386575f80fd5b818801915088601f8301126200039a575f80fd5b815181811115620003af57620003af6200033d565b604051601f8201601f19908116603f01168101908382118183101715620003da57620003da6200033d565b816040528281528b86848701011115620003f2575f80fd5b5f93505b82841015620004155784840186015181850187015292850192620003f6565b5f928101909501919091525050506040860151606090960151949790965092505050565b600181811c908216806200044e57607f821691505b6020821081036200046d57634e487b7160e01b5f52602260045260245ffd5b50919050565b601f821115620004c0575f81815260208120601f850160051c810160208610156200049b5750805b601f850160051c820191505b81811015620004bc57828155600101620004a7565b5050505b505050565b81516001600160401b03811115620004e157620004e16200033d565b620004f981620004f2845462000439565b8462000473565b602080601f8311600181146200052f575f8415620005175750858301515b5f19600386901b1c1916600185901b178555620004bc565b5f85815260208120601f198616915b828110156200055f578886015182559484019460019091019084016200053e565b50858210156200057d57878501515f19600388901b60f8161c191681555b5050505050600190811b01905550565b611046806200059b5f395ff3fe60806040526004361061014a575f3560e01c80636f2edbd2116100b3578063e883dee81161006d578063e883dee814610380578063ed7dfee314610394578063f5f1bec0146103a9578063f62d1888146103bd578063fa39851f146103dc578063fe4b84df146103fd575f80fd5b80636f2edbd2146102d55780638129fc1c146102f45780638beaf7d714610308578063a7d4582b14610327578063c9eb057114610346578063d35c4ad214610361575f80fd5b80634457e6d5116101045780634457e6d5146102165780634a6c9db6146102355780634fd5303d14610263578063555d9f79146102835780636b1da91a146102a25780636e33593e146102c1575f80fd5b80630a7cd83a1461015557806316c9da3b146101765780631c8aca3b14610195578063237b5e96146101bd578063342db739146101d25780633e114d00146101f7575f80fd5b3661015157005b5f80fd5b348015610160575f80fd5b5061017461016f366004610c01565b61041c565b005b348015610181575f80fd5b50610174610190366004610c49565b610461565b3480156101a0575f80fd5b506101aa60035481565b6040519081526020015b60405180910390f35b3480156101c8575f80fd5b506101aa60045481565b3480156101dd575f80fd5b506101aa6e1a185c991a185d0b595e1c1bdcd959608a1b81565b348015610202575f80fd5b50610174610211366004610c60565b61046d565b348015610221575f80fd5b50610174610230366004610c60565b6104af565b348015610240575f80fd5b505f546102539062010000900460ff1681565b60405190151581526020016101b4565b34801561026e575f80fd5b505f5460405160ff90911681526020016101b4565b34801561028e575f80fd5b5061017461029d366004610c9f565b6104ed565b3480156102ad575f80fd5b506101746102bc366004610c49565b610537565b3480156102cc575f80fd5b50610174610540565b3480156102e0575f80fd5b506101746102ef366004610d95565b61054a565b3480156102ff575f80fd5b50610174610607565b348015610313575f80fd5b50610174610322366004610de8565b6106bc565b348015610332575f80fd5b50610174610341366004610c49565b610775565b348015610351575f80fd5b505f54610100900460ff16610253565b34801561036c575f80fd5b5061017461037b366004610c49565b61077e565b34801561038b575f80fd5b50610174610787565b34801561039f575f80fd5b506101aa60015481565b3480156103b4575f80fd5b5061017461078f565b3480156103c8575f80fd5b506101746103d7366004610e2a565b610797565b3480156103e7575f80fd5b506103f061084e565b6040516101b49190610e64565b348015610408575f80fd5b50610174610417366004610c49565b6108da565b61045c83838080601f0160208091040260200160405190810160405280939291908181526020018383808284375f9201919091525085925061095c915050565b505050565b61046a81610995565b50565b6104ab82828080601f0160208091040260200160405190810160405280939291908181526020018383808284375f920191909152506109c192505050565b5050565b6104ab82828080601f0160208091040260200160405190810160405280939291908181526020018383808284375f920191909152506109f592505050565b6105308585858080601f0160208091040260200160405190810160405280939291908181526020018383808284375f92019190915250879250869150610a289050565b5050505050565b61046a81610a71565b610548610aa0565b565b5f54610100900460ff161580801561056857505f54600160ff909116105b1580156105855750303b15801561058357505f5460ff166001145b155b156105a25760405162dc149f60e41b815260040160405180910390fd5b5f805460ff1916600117905580156105c3575f805461ff0019166101001790555b6105cf85858585610a28565b8015610530575f805461ff0019169055604051600181525f80516020610ff18339815191529060200160405180910390a15050505050565b5f54610100900460ff161580801561062557505f54600160ff909116105b1580156106425750303b15801561064057505f5460ff166001145b155b1561065f5760405162dc149f60e41b815260040160405180910390fd5b5f805460ff191660011790558015610680575f805461ff0019166101001790555b610688610ad9565b801561046a575f805461ff0019169055604051600181525f80516020610ff18339815191529060200160405180910390a150565b5f54610100900460ff16158080156106da57505f54600160ff909116105b1580156106f75750303b1580156106f557505f5460ff166001145b155b156107145760405162dc149f60e41b815260040160405180910390fd5b5f805460ff191660011790558015610735575f805461ff0019166101001790555b61073f838361095c565b801561045c575f805461ff0019169055604051600181525f80516020610ff18339815191529060200160405180910390a1505050565b61046a81610b00565b61046a81610b2c565b610548610ad9565b610548610b58565b5f54610100900460ff16158080156107b557505f54600160ff909116105b1580156107d25750303b1580156107d057505f5460ff166001145b155b156107ef5760405162dc149f60e41b815260040160405180910390fd5b5f805460ff191660011790558015610810575f805461ff0019166101001790555b610819826109c1565b80156104ab575f805461ff0019169055604051600181525f80516020610ff18339815191529060200160405180910390a15050565b6002805461085b90610eaf565b80601f016020809104026020016040519081016040528092919081815260200182805461088790610eaf565b80156108d25780601f106108a9576101008083540402835291602001916108d2565b820191905f5260205f20905b8154815290600101906020018083116108b557829003601f168201915b505050505081565b5f54610100900460ff16158080156108f857505f54600160ff909116105b1580156109155750303b15801561091357505f5460ff166001145b155b156109325760405162dc149f60e41b815260040160405180910390fd5b5f805460ff191660011790558015610953575f805461ff0019166101001790555b61081982610a71565b5f54610100900460ff1661098357604051631afcd79f60e31b815260040160405180910390fd5b61098c826109c1565b6104ab81610b2c565b5f54610100900460ff166109bc57604051631afcd79f60e31b815260040160405180910390fd5b600155565b5f54610100900460ff166109e857604051631afcd79f60e31b815260040160405180910390fd5b6109f0610ad9565b61046a815b5f54610100900460ff16610a1c57604051631afcd79f60e31b815260040160405180910390fd5b60026104ab8282610f34565b5f54610100900460ff16610a4f57604051631afcd79f60e31b815260040160405180910390fd5b610a5884610a71565b610a62838361095c565b610a6b81610b00565b50505050565b5f54610100900460ff16610a9857604051631afcd79f60e31b815260040160405180910390fd5b610461610ad9565b5f54610100900460ff16610ac757604051631afcd79f60e31b815260040160405180910390fd5b5f805462ff0000191662010000179055565b5f54610100900460ff1661054057604051631afcd79f60e31b815260040160405180910390fd5b5f54610100900460ff16610b2757604051631afcd79f60e31b815260040160405180910390fd5b600455565b5f54610100900460ff16610b5357604051631afcd79f60e31b815260040160405180910390fd5b600355565b5f54610100900460ff1615610b7f5760405162dc149f60e41b815260040160405180910390fd5b5f5460ff90811614610548575f805460ff191660ff9081179091556040519081525f80516020610ff18339815191529060200160405180910390a1565b5f8083601f840112610bcc575f80fd5b50813567ffffffffffffffff811115610be3575f80fd5b602083019150836020828501011115610bfa575f80fd5b9250929050565b5f805f60408486031215610c13575f80fd5b833567ffffffffffffffff811115610c29575f80fd5b610c3586828701610bbc565b909790965060209590950135949350505050565b5f60208284031215610c59575f80fd5b5035919050565b5f8060208385031215610c71575f80fd5b823567ffffffffffffffff811115610c87575f80fd5b610c9385828601610bbc565b90969095509350505050565b5f805f805f60808688031215610cb3575f80fd5b85359450602086013567ffffffffffffffff811115610cd0575f80fd5b610cdc88828901610bbc565b9699909850959660408101359660609091013595509350505050565b634e487b7160e01b5f52604160045260245ffd5b5f82601f830112610d1b575f80fd5b813567ffffffffffffffff80821115610d3657610d36610cf8565b604051601f8301601f19908116603f01168101908282118183101715610d5e57610d5e610cf8565b81604052838152866020858801011115610d76575f80fd5b836020870160208301375f602085830101528094505050505092915050565b5f805f8060808587031215610da8575f80fd5b84359350602085013567ffffffffffffffff811115610dc5575f80fd5b610dd187828801610d0c565b949794965050505060408301359260600135919050565b5f8060408385031215610df9575f80fd5b823567ffffffffffffffff811115610e0f575f80fd5b610e1b85828601610d0c565b95602094909401359450505050565b5f60208284031215610e3a575f80fd5b813567ffffffffffffffff811115610e50575f80fd5b610e5c84828501610d0c565b949350505050565b5f6020808352835180828501525f5b81811015610e8f57858101830151858201604001528201610e73565b505f604082860101526040601f19601f8301168501019250505092915050565b600181811c90821680610ec357607f821691505b602082108103610ee157634e487b7160e01b5f52602260045260245ffd5b50919050565b601f82111561045c575f81815260208120601f850160051c81016020861015610f0d5750805b601f850160051c820191505b81811015610f2c57828155600101610f19565b505050505050565b815167ffffffffffffffff811115610f4e57610f4e610cf8565b610f6281610f5c8454610eaf565b84610ee7565b602080601f831160018114610f95575f8415610f7e5750858301515b5f19600386901b1c1916600185901b178555610f2c565b5f85815260208120601f198616915b82811015610fc357888601518255948401946001909101908401610fa4565b5085821015610fe057878501515f19600388901b60f8161c191681555b5050505050600190811b0190555056fe7f26b83ff96e1f2b6a682f133852f6798a09c465da95921460cefb3847402498a2646970667358221220b74a9f9dde24cf6dea4eb340ebca6cf745d81e27124e143d05991edba066800364736f6c63430008140033",
  "linkReferences": {},
  "deployedLinkReferences": {}
}