{
  "_format": "hh-sol-artifact-1",
  "contractName": "$SampleHuman",
  "sourceName": "contracts-exposed/mocks/MultipleInheritanceInitializableMocks.sol",
  "abi": [
    {
      "inputs": [],
      "stateMutability": "payable",
      "type": "constructor"
    },
    {
      "inputs": [],
      "name": "AlreadyInitialized",
      "type": "error"
    },
    {
      "inputs": [],
      "name": "NotInitializing",
      "type": "error"
    },
    {
      "anonymous": false,
      "inputs": [
        {
          "indexed": false,
          "internalType": "uint8",
          "name": "version",
          "type": "uint8"
        }
      ],
      "name": "Initialized",
      "type": "event"
    },
    {
      "inputs": [],
      "name": "$__SampleHuman_init",
      "outputs": [],
      "stateMutability": "nonpayable",
      "type": "function"
    },
    {
      "inputs": [],
      "name": "$__SampleHuman_init_unchained",
      "outputs": [],
      "stateMutability": "nonpayable",
      "type": "function"
    },
    {
      "inputs": [],
      "name": "$_disableInitializers",
      "outputs": [],
      "stateMutability": "nonpayable",
      "type": "function"
    },
    {
      "inputs": [],
      "name": "$_getInitializedVersion",
      "outputs": [
        {
          "internalType": "uint8",
          "name": "ret0",
          "type": "uint8"
        }
      ],
      "stateMutability": "view",
      "type": "function"
    },
    {
      "inputs": [],
      "name": "$_isInitializing",
      "outputs": [
        {
          "internalType": "bool",
          "name": "ret0",
          "type": "bool"
        }
      ],
      "stateMutability": "view",
      "type": "function"
    },
    {
      "inputs": [],
      "name": "__hh_exposed_bytecode_marker",
      "outputs": [
        {
          "internalType": "bytes32",
          "name": "",
          "type": "bytes32"
        }
      ],
      "stateMutability": "view",
      "type": "function"
    },
    {
      "inputs": [],
      "name": "initialize",
      "outputs": [],
      "stateMutability": "nonpayable",
      "type": "function"
    },
    {
      "inputs": [],
      "name": "isHuman",
      "outputs": [
        {
          "internalType": "bool",
          "name": "",
          "type": "bool"
        }
      ],
      "stateMutability": "view",
      "type": "function"
    },
    {
      "stateMutability": "payable",
      "type": "receive"
    }
  ],
  "bytecode": "0x60806040525f54610100900460ff161580801561002257505f54600160ff909116105b15801561003f5750303b15801561003d57505f5460ff166001145b155b1561005c5760405162dc149f60e41b815260040160405180910390fd5b5f805460ff19166001179055801561007d575f805461ff0019166101001790555b6100856100d0565b80156100ca575f805461ff0019169055604051600181527f7f26b83ff96e1f2b6a682f133852f6798a09c465da95921460cefb38474024989060200160405180910390a15b5061013a565b5f54610100900460ff166100f757604051631afcd79f60e31b815260040160405180910390fd5b6100ff610101565b565b5f54610100900460ff1661012857604051631afcd79f60e31b815260040160405180910390fd5b5f805462ff0000191662010000179055565b61036a806101475f395ff3fe60806040526004361061007c575f3560e01c80638129fc1c1161004c5780638129fc1c14610123578063c9eb057114610137578063e883dee814610152578063f5f1bec014610166575f80fd5b8063342db739146100875780634a6c9db6146100bf5780634fd5303d146100ed5780636e33593e1461010d575f80fd5b3661008357005b5f80fd5b348015610092575f80fd5b506100ac6e1a185c991a185d0b595e1c1bdcd959608a1b81565b6040519081526020015b60405180910390f35b3480156100ca575f80fd5b505f546100dd9062010000900460ff1681565b60405190151581526020016100b6565b3480156100f8575f80fd5b505f5460405160ff90911681526020016100b6565b348015610118575f80fd5b5061012161017a565b005b34801561012e575f80fd5b50610121610184565b348015610142575f80fd5b505f54610100900460ff166100dd565b34801561015d575f80fd5b5061012161024d565b348015610171575f80fd5b50610121610255565b61018261025d565b565b5f54610100900460ff16158080156101a257505f54600160ff909116105b1580156101bf5750303b1580156101bd57505f5460ff166001145b155b156101dc5760405162dc149f60e41b815260040160405180910390fd5b5f805460ff1916600117905580156101fd575f805461ff0019166101001790555b610205610296565b801561024a575f805461ff0019169055604051600181527f7f26b83ff96e1f2b6a682f133852f6798a09c465da95921460cefb38474024989060200160405180910390a15b50565b610182610296565b6101826102bd565b5f54610100900460ff1661028457604051631afcd79f60e31b815260040160405180910390fd5b5f805462ff0000191662010000179055565b5f54610100900460ff1661017a57604051631afcd79f60e31b815260040160405180910390fd5b5f54610100900460ff16156102e45760405162dc149f60e41b815260040160405180910390fd5b5f5460ff90811614610182575f805460ff191660ff9081179091556040519081527f7f26b83ff96e1f2b6a682f133852f6798a09c465da95921460cefb38474024989060200160405180910390a156fea2646970667358221220b08a5b656abdd3a6c10cc51ecf0bebb24b02ffef29596396cadfb61bd8a19b7864736f6c63430008140033",
  "linkReferences": {},
  "deployedLinkReferences": {}
}