{
  "_format": "hh-sol-artifact-1",
  "contractName": "$SampleGramps",
  "sourceName": "contracts-exposed/mocks/MultipleInheritanceInitializableMocks.sol",
  "abi": [
    {
      "inputs": [
        {
          "internalType": "string",
          "name": "value",
          "type": "string"
        }
      ],
      "stateMutability": "payable",
      "type": "constructor"
    },
    {
      "inputs": [],
      "name": "AlreadyInitialized",
      "type": "error"
    },
    {
      "inputs": [],
      "name": "NotInitializing",
      "type": "error"
    },
    {
      "anonymous": false,
      "inputs": [
        {
          "indexed": false,
          "internalType": "uint8",
          "name": "version",
          "type": "uint8"
        }
      ],
      "name": "Initialized",
      "type": "event"
    },
    {
      "inputs": [
        {
          "internalType": "string",
          "name": "value",
          "type": "string"
        }
      ],
      "name": "$__SampleGramps_init",
      "outputs": [],
      "stateMutability": "nonpayable",
      "type": "function"
    },
    {
      "inputs": [
        {
          "internalType": "string",
          "name": "value",
          "type": "string"
        }
      ],
      "name": "$__SampleGramps_init_unchained",
      "outputs": [],
      "stateMutability": "nonpayable",
      "type": "function"
    },
    {
      "inputs": [],
      "name": "$__SampleHuman_init",
      "outputs": [],
      "stateMutability": "nonpayable",
      "type": "function"
    },
    {
      "inputs": [],
      "name": "$__SampleHuman_init_unchained",
      "outputs": [],
      "stateMutability": "nonpayable",
      "type": "function"
    },
    {
      "inputs": [],
      "name": "$_disableInitializers",
      "outputs": [],
      "stateMutability": "nonpayable",
      "type": "function"
    },
    {
      "inputs": [],
      "name": "$_getInitializedVersion",
      "outputs": [
        {
          "internalType": "uint8",
          "name": "ret0",
          "type": "uint8"
        }
      ],
      "stateMutability": "view",
      "type": "function"
    },
    {
      "inputs": [],
      "name": "$_isInitializing",
      "outputs": [
        {
          "internalType": "bool",
          "name": "ret0",
          "type": "bool"
        }
      ],
      "stateMutability": "view",
      "type": "function"
    },
    {
      "inputs": [],
      "name": "__hh_exposed_bytecode_marker",
      "outputs": [
        {
          "internalType": "bytes32",
          "name": "",
          "type": "bytes32"
        }
      ],
      "stateMutability": "view",
      "type": "function"
    },
    {
      "inputs": [],
      "name": "gramps",
      "outputs": [
        {
          "internalType": "string",
          "name": "",
          "type": "string"
        }
      ],
      "stateMutability": "view",
      "type": "function"
    },
    {
      "inputs": [],
      "name": "initialize",
      "outputs": [],
      "stateMutability": "nonpayable",
      "type": "function"
    },
    {
      "inputs": [
        {
          "internalType": "string",
          "name": "value",
          "type": "string"
        }
      ],
      "name": "initialize",
      "outputs": [],
      "stateMutability": "nonpayable",
      "type": "function"
    },
    {
      "inputs": [],
      "name": "isHuman",
      "outputs": [
        {
          "internalType": "bool",
          "name": "",
          "type": "bool"
        }
      ],
      "stateMutability": "view",
      "type": "function"
    },
    {
      "stateMutability": "payable",
      "type": "receive"
    }
  ],
  "bytecode": "0x608060405260405162000d3238038062000d328339810160408190526200002691620001f9565b5f54610100900460ff16158080156200004557505f54600160ff909116105b158015620000645750303b1580156200006257505f5460ff166001145b155b15620000825760405162dc149f60e41b815260040160405180910390fd5b5f805460ff191660011790558015620000a4575f805461ff0019166101001790555b620000af82620000fd565b8015620000f5575f805461ff0019169055604051600181527f7f26b83ff96e1f2b6a682f133852f6798a09c465da95921460cefb38474024989060200160405180910390a15b50506200041b565b5f54610100900460ff166200012557604051631afcd79f60e31b815260040160405180910390fd5b6200012f6200013d565b6200013a8162000171565b50565b5f54610100900460ff166200016557604051631afcd79f60e31b815260040160405180910390fd5b6200016f620001ab565b565b5f54610100900460ff166200019957604051631afcd79f60e31b815260040160405180910390fd5b6001620001a7828262000353565b5050565b5f54610100900460ff16620001d357604051631afcd79f60e31b815260040160405180910390fd5b5f805462ff0000191662010000179055565b634e487b7160e01b5f52604160045260245ffd5b5f60208083850312156200020b575f80fd5b82516001600160401b038082111562000222575f80fd5b818501915085601f83011262000236575f80fd5b8151818111156200024b576200024b620001e5565b604051601f8201601f19908116603f01168101908382118183101715620002765762000276620001e5565b8160405282815288868487010111156200028e575f80fd5b5f93505b82841015620002b1578484018601518185018701529285019262000292565b5f86848301015280965050505050505092915050565b600181811c90821680620002dc57607f821691505b602082108103620002fb57634e487b7160e01b5f52602260045260245ffd5b50919050565b601f8211156200034e575f81815260208120601f850160051c81016020861015620003295750805b601f850160051c820191505b818110156200034a5782815560010162000335565b5050505b505050565b81516001600160401b038111156200036f576200036f620001e5565b6200038781620003808454620002c7565b8462000301565b602080601f831160018114620003bd575f8415620003a55750858301515b5f19600386901b1c1916600185901b1785556200034a565b5f85815260208120601f198616915b82811015620003ed57888601518255948401946001909101908401620003cc565b50858210156200040b57878501515f19600388901b60f8161c191681555b5050505050600190811b01905550565b61090980620004295f395ff3fe6080604052600436106100a8575f3560e01c80638129fc1c116100625780638129fc1c1461018d578063c9eb0571146101a1578063e883dee8146101bc578063f5f1bec0146101d0578063f62d1888146101e4578063fa39851f14610203575f80fd5b8063342db739146100b35780633e114d00146100eb5780634457e6d51461010c5780634a6c9db61461012b5780634fd5303d146101595780636e33593e14610179575f80fd5b366100af57005b5f80fd5b3480156100be575f80fd5b506100d86e1a185c991a185d0b595e1c1bdcd959608a1b81565b6040519081526020015b60405180910390f35b3480156100f6575f80fd5b5061010a61010536600461061b565b610224565b005b348015610117575f80fd5b5061010a61012636600461061b565b610266565b348015610136575f80fd5b505f546101499062010000900460ff1681565b60405190151581526020016100e2565b348015610164575f80fd5b505f5460405160ff90911681526020016100e2565b348015610184575f80fd5b5061010a6102a4565b348015610198575f80fd5b5061010a6102ae565b3480156101ac575f80fd5b505f54610100900460ff16610149565b3480156101c7575f80fd5b5061010a610377565b3480156101db575f80fd5b5061010a61037f565b3480156101ef575f80fd5b5061010a6101fe36600461069b565b610387565b34801561020e575f80fd5b50610217610451565b6040516100e29190610746565b61026282828080601f0160208091040260200160405190810160405280939291908181526020018383808284375f920191909152506104dd92505050565b5050565b61026282828080601f0160208091040260200160405190810160405280939291908181526020018383808284375f9201919091525061051192505050565b6102ac610544565b565b5f54610100900460ff16158080156102cc57505f54600160ff909116105b1580156102e95750303b1580156102e757505f5460ff166001145b155b156103065760405162dc149f60e41b815260040160405180910390fd5b5f805460ff191660011790558015610327575f805461ff0019166101001790555b61032f61057d565b8015610374575f805461ff0019169055604051600181527f7f26b83ff96e1f2b6a682f133852f6798a09c465da95921460cefb38474024989060200160405180910390a15b50565b6102ac61057d565b6102ac6105a4565b5f54610100900460ff16158080156103a557505f54600160ff909116105b1580156103c25750303b1580156103c057505f5460ff166001145b155b156103df5760405162dc149f60e41b815260040160405180910390fd5b5f805460ff191660011790558015610400575f805461ff0019166101001790555b610409826104dd565b8015610262575f805461ff0019169055604051600181527f7f26b83ff96e1f2b6a682f133852f6798a09c465da95921460cefb38474024989060200160405180910390a15050565b6001805461045e90610791565b80601f016020809104026020016040519081016040528092919081815260200182805461048a90610791565b80156104d55780601f106104ac576101008083540402835291602001916104d5565b820191905f5260205f20905b8154815290600101906020018083116104b857829003601f168201915b505050505081565b5f54610100900460ff1661050457604051631afcd79f60e31b815260040160405180910390fd5b61050c61057d565b610374815b5f54610100900460ff1661053857604051631afcd79f60e31b815260040160405180910390fd5b60016102628282610817565b5f54610100900460ff1661056b57604051631afcd79f60e31b815260040160405180910390fd5b5f805462ff0000191662010000179055565b5f54610100900460ff166102a457604051631afcd79f60e31b815260040160405180910390fd5b5f54610100900460ff16156105cb5760405162dc149f60e41b815260040160405180910390fd5b5f5460ff908116146102ac575f805460ff191660ff9081179091556040519081527f7f26b83ff96e1f2b6a682f133852f6798a09c465da95921460cefb38474024989060200160405180910390a1565b5f806020838503121561062c575f80fd5b823567ffffffffffffffff80821115610643575f80fd5b818501915085601f830112610656575f80fd5b813581811115610664575f80fd5b866020828501011115610675575f80fd5b60209290920196919550909350505050565b634e487b7160e01b5f52604160045260245ffd5b5f602082840312156106ab575f80fd5b813567ffffffffffffffff808211156106c2575f80fd5b818401915084601f8301126106d5575f80fd5b8135818111156106e7576106e7610687565b604051601f8201601f19908116603f0116810190838211818310171561070f5761070f610687565b81604052828152876020848701011115610727575f80fd5b826020860160208301375f928101602001929092525095945050505050565b5f6020808352835180828501525f5b8181101561077157858101830151858201604001528201610755565b505f604082860101526040601f19601f8301168501019250505092915050565b600181811c908216806107a557607f821691505b6020821081036107c357634e487b7160e01b5f52602260045260245ffd5b50919050565b601f821115610812575f81815260208120601f850160051c810160208610156107ef5750805b601f850160051c820191505b8181101561080e578281556001016107fb565b5050505b505050565b815167ffffffffffffffff81111561083157610831610687565b6108458161083f8454610791565b846107c9565b602080601f831160018114610878575f84156108615750858301515b5f19600386901b1c1916600185901b17855561080e565b5f85815260208120601f198616915b828110156108a657888601518255948401946001909101908401610887565b50858210156108c357878501515f19600388901b60f8161c191681555b5050505050600190811b0190555056fea2646970667358221220e92076003adb45438cdd38485a40a370b494764188b5ad2d609c2966e186609a64736f6c63430008140033",
  "linkReferences": {},
  "deployedLinkReferences": {}
}