{
  "_format": "hh-sol-artifact-1",
  "contractName": "$SampleFather",
  "sourceName": "contracts-exposed/mocks/MultipleInheritanceInitializableMocks.sol",
  "abi": [
    {
      "inputs": [
        {
          "internalType": "string",
          "name": "_gramps",
          "type": "string"
        },
        {
          "internalType": "uint256",
          "name": "_father",
          "type": "uint256"
        }
      ],
      "stateMutability": "payable",
      "type": "constructor"
    },
    {
      "inputs": [],
      "name": "AlreadyInitialized",
      "type": "error"
    },
    {
      "inputs": [],
      "name": "NotInitializing",
      "type": "error"
    },
    {
      "anonymous": false,
      "inputs": [
        {
          "indexed": false,
          "internalType": "uint8",
          "name": "version",
          "type": "uint8"
        }
      ],
      "name": "Initialized",
      "type": "event"
    },
    {
      "inputs": [
        {
          "internalType": "string",
          "name": "_gramps",
          "type": "string"
        },
        {
          "internalType": "uint256",
          "name": "_father",
          "type": "uint256"
        }
      ],
      "name": "$__SampleFather_init",
      "outputs": [],
      "stateMutability": "nonpayable",
      "type": "function"
    },
    {
      "inputs": [
        {
          "internalType": "uint256",
          "name": "_father",
          "type": "uint256"
        }
      ],
      "name": "$__SampleFather_init_unchained",
      "outputs": [],
      "stateMutability": "nonpayable",
      "type": "function"
    },
    {
      "inputs": [
        {
          "internalType": "string",
          "name": "value",
          "type": "string"
        }
      ],
      "name": "$__SampleGramps_init",
      "outputs": [],
      "stateMutability": "nonpayable",
      "type": "function"
    },
    {
      "inputs": [
        {
          "internalType": "string",
          "name": "value",
          "type": "string"
        }
      ],
      "name": "$__SampleGramps_init_unchained",
      "outputs": [],
      "stateMutability": "nonpayable",
      "type": "function"
    },
    {
      "inputs": [],
      "name": "$__SampleHuman_init",
      "outputs": [],
      "stateMutability": "nonpayable",
      "type": "function"
    },
    {
      "inputs": [],
      "name": "$__SampleHuman_init_unchained",
      "outputs": [],
      "stateMutability": "nonpayable",
      "type": "function"
    },
    {
      "inputs": [],
      "name": "$_disableInitializers",
      "outputs": [],
      "stateMutability": "nonpayable",
      "type": "function"
    },
    {
      "inputs": [],
      "name": "$_getInitializedVersion",
      "outputs": [
        {
          "internalType": "uint8",
          "name": "ret0",
          "type": "uint8"
        }
      ],
      "stateMutability": "view",
      "type": "function"
    },
    {
      "inputs": [],
      "name": "$_isInitializing",
      "outputs": [
        {
          "internalType": "bool",
          "name": "ret0",
          "type": "bool"
        }
      ],
      "stateMutability": "view",
      "type": "function"
    },
    {
      "inputs": [],
      "name": "__hh_exposed_bytecode_marker",
      "outputs": [
        {
          "internalType": "bytes32",
          "name": "",
          "type": "bytes32"
        }
      ],
      "stateMutability": "view",
      "type": "function"
    },
    {
      "inputs": [],
      "name": "father",
      "outputs": [
        {
          "internalType": "uint256",
          "name": "",
          "type": "uint256"
        }
      ],
      "stateMutability": "view",
      "type": "function"
    },
    {
      "inputs": [],
      "name": "gramps",
      "outputs": [
        {
          "internalType": "string",
          "name": "",
          "type": "string"
        }
      ],
      "stateMutability": "view",
      "type": "function"
    },
    {
      "inputs": [],
      "name": "initialize",
      "outputs": [],
      "stateMutability": "nonpayable",
      "type": "function"
    },
    {
      "inputs": [
        {
          "internalType": "string",
          "name": "_gramps",
          "type": "string"
        },
        {
          "internalType": "uint256",
          "name": "_father",
          "type": "uint256"
        }
      ],
      "name": "initialize",
      "outputs": [],
      "stateMutability": "nonpayable",
      "type": "function"
    },
    {
      "inputs": [
        {
          "internalType": "string",
          "name": "value",
          "type": "string"
        }
      ],
      "name": "initialize",
      "outputs": [],
      "stateMutability": "nonpayable",
      "type": "function"
    },
    {
      "inputs": [],
      "name": "isHuman",
      "outputs": [
        {
          "internalType": "bool",
          "name": "",
          "type": "bool"
        }
      ],
      "stateMutability": "view",
      "type": "function"
    },
    {
      "stateMutability": "payable",
      "type": "receive"
    }
  ],
  "bytecode": "0x60806040526040516200108438038062001084833981016040819052620000269162000266565b5f54610100900460ff16158080156200004557505f54600160ff909116105b158015620000645750303b1580156200006257505f5460ff166001145b155b15620000825760405162dc149f60e41b815260040160405180910390fd5b5f805460ff191660011790558015620000a4575f805461ff0019166101001790555b620000b08383620000ff565b8015620000f6575f805461ff0019169055604051600181527f7f26b83ff96e1f2b6a682f133852f6798a09c465da95921460cefb38474024989060200160405180910390a15b5050506200048e565b5f54610100900460ff166200012757604051631afcd79f60e31b815260040160405180910390fd5b620001328262000141565b6200013d8162000181565b5050565b5f54610100900460ff166200016957604051631afcd79f60e31b815260040160405180910390fd5b62000173620001ae565b6200017e81620001e2565b50565b5f54610100900460ff16620001a957604051631afcd79f60e31b815260040160405180910390fd5b600255565b5f54610100900460ff16620001d657604051631afcd79f60e31b815260040160405180910390fd5b620001e062000218565b565b5f54610100900460ff166200020a57604051631afcd79f60e31b815260040160405180910390fd5b60016200013d8282620003c6565b5f54610100900460ff166200024057604051631afcd79f60e31b815260040160405180910390fd5b5f805462ff0000191662010000179055565b634e487b7160e01b5f52604160045260245ffd5b5f806040838503121562000278575f80fd5b82516001600160401b03808211156200028f575f80fd5b818501915085601f830112620002a3575f80fd5b815181811115620002b857620002b862000252565b604051601f8201601f19908116603f01168101908382118183101715620002e357620002e362000252565b81604052828152602093508884848701011115620002ff575f80fd5b5f91505b8282101562000322578482018401518183018501529083019062000303565b5f928101840192909252509401519395939450505050565b600181811c908216806200034f57607f821691505b6020821081036200036e57634e487b7160e01b5f52602260045260245ffd5b50919050565b601f821115620003c1575f81815260208120601f850160051c810160208610156200039c5750805b601f850160051c820191505b81811015620003bd57828155600101620003a8565b5050505b505050565b81516001600160401b03811115620003e257620003e262000252565b620003fa81620003f384546200033a565b8462000374565b602080601f83116001811462000430575f8415620004185750858301515b5f19600386901b1c1916600185901b178555620003bd565b5f85815260208120601f198616915b8281101562000460578886015182559484019460019091019084016200043f565b50858210156200047e57878501515f19600388901b60f8161c191681555b5050505050600190811b01905550565b610be8806200049c5f395ff3fe6080604052600436106100f2575f3560e01c80638129fc1c11610087578063e883dee811610057578063e883dee814610278578063f5f1bec01461028c578063f62d1888146102a0578063fa39851f146102bf575f80fd5b80638129fc1c1461020b5780638beaf7d71461021f578063c9eb05711461023e578063d35c4ad214610259575f80fd5b80634457e6d5116100c25780634457e6d51461018a5780634a6c9db6146101a95780634fd5303d146101d75780636e33593e146101f7575f80fd5b80630a7cd83a146100fd5780631c8aca3b1461011e578063342db739146101465780633e114d001461016b575f80fd5b366100f957005b5f80fd5b348015610108575f80fd5b5061011c61011736600461084f565b6102e0565b005b348015610129575f80fd5b5061013360025481565b6040519081526020015b60405180910390f35b348015610151575f80fd5b506101336e1a185c991a185d0b595e1c1bdcd959608a1b81565b348015610176575f80fd5b5061011c610185366004610897565b610325565b348015610195575f80fd5b5061011c6101a4366004610897565b610367565b3480156101b4575f80fd5b505f546101c79062010000900460ff1681565b604051901515815260200161013d565b3480156101e2575f80fd5b505f5460405160ff909116815260200161013d565b348015610202575f80fd5b5061011c6103a5565b348015610216575f80fd5b5061011c6103af565b34801561022a575f80fd5b5061011c610239366004610973565b610465565b348015610249575f80fd5b505f54610100900460ff166101c7565b348015610264575f80fd5b5061011c6102733660046109b5565b61051e565b348015610283575f80fd5b5061011c610527565b348015610297575f80fd5b5061011c61052f565b3480156102ab575f80fd5b5061011c6102ba3660046109cc565b610537565b3480156102ca575f80fd5b506102d36105ee565b60405161013d9190610a06565b61032083838080601f0160208091040260200160405190810160405280939291908181526020018383808284375f9201919091525085925061067a915050565b505050565b61036382828080601f0160208091040260200160405190810160405280939291908181526020018383808284375f920191909152506106b392505050565b5050565b61036382828080601f0160208091040260200160405190810160405280939291908181526020018383808284375f920191909152506106e792505050565b6103ad61071a565b565b5f54610100900460ff16158080156103cd57505f54600160ff909116105b1580156103ea5750303b1580156103e857505f5460ff166001145b155b156104075760405162dc149f60e41b815260040160405180910390fd5b5f805460ff191660011790558015610428575f805461ff0019166101001790555b610430610753565b8015610462575f805461ff0019169055604051600181525f80516020610b938339815191529060200160405180910390a15b50565b5f54610100900460ff161580801561048357505f54600160ff909116105b1580156104a05750303b15801561049e57505f5460ff166001145b155b156104bd5760405162dc149f60e41b815260040160405180910390fd5b5f805460ff1916600117905580156104de575f805461ff0019166101001790555b6104e8838361067a565b8015610320575f805461ff0019169055604051600181525f80516020610b938339815191529060200160405180910390a1505050565b6104628161077a565b6103ad610753565b6103ad6107a6565b5f54610100900460ff161580801561055557505f54600160ff909116105b1580156105725750303b15801561057057505f5460ff166001145b155b1561058f5760405162dc149f60e41b815260040160405180910390fd5b5f805460ff1916600117905580156105b0575f805461ff0019166101001790555b6105b9826106b3565b8015610363575f805461ff0019169055604051600181525f80516020610b938339815191529060200160405180910390a15050565b600180546105fb90610a51565b80601f016020809104026020016040519081016040528092919081815260200182805461062790610a51565b80156106725780601f1061064957610100808354040283529160200191610672565b820191905f5260205f20905b81548152906001019060200180831161065557829003601f168201915b505050505081565b5f54610100900460ff166106a157604051631afcd79f60e31b815260040160405180910390fd5b6106aa826106b3565b6103638161077a565b5f54610100900460ff166106da57604051631afcd79f60e31b815260040160405180910390fd5b6106e2610753565b610462815b5f54610100900460ff1661070e57604051631afcd79f60e31b815260040160405180910390fd5b60016103638282610ad6565b5f54610100900460ff1661074157604051631afcd79f60e31b815260040160405180910390fd5b5f805462ff0000191662010000179055565b5f54610100900460ff166103a557604051631afcd79f60e31b815260040160405180910390fd5b5f54610100900460ff166107a157604051631afcd79f60e31b815260040160405180910390fd5b600255565b5f54610100900460ff16156107cd5760405162dc149f60e41b815260040160405180910390fd5b5f5460ff908116146103ad575f805460ff191660ff9081179091556040519081525f80516020610b938339815191529060200160405180910390a1565b5f8083601f84011261081a575f80fd5b50813567ffffffffffffffff811115610831575f80fd5b602083019150836020828501011115610848575f80fd5b9250929050565b5f805f60408486031215610861575f80fd5b833567ffffffffffffffff811115610877575f80fd5b6108838682870161080a565b909790965060209590950135949350505050565b5f80602083850312156108a8575f80fd5b823567ffffffffffffffff8111156108be575f80fd5b6108ca8582860161080a565b90969095509350505050565b634e487b7160e01b5f52604160045260245ffd5b5f82601f8301126108f9575f80fd5b813567ffffffffffffffff80821115610914576109146108d6565b604051601f8301601f19908116603f0116810190828211818310171561093c5761093c6108d6565b81604052838152866020858801011115610954575f80fd5b836020870160208301375f602085830101528094505050505092915050565b5f8060408385031215610984575f80fd5b823567ffffffffffffffff81111561099a575f80fd5b6109a6858286016108ea565b95602094909401359450505050565b5f602082840312156109c5575f80fd5b5035919050565b5f602082840312156109dc575f80fd5b813567ffffffffffffffff8111156109f2575f80fd5b6109fe848285016108ea565b949350505050565b5f6020808352835180828501525f5b81811015610a3157858101830151858201604001528201610a15565b505f604082860101526040601f19601f8301168501019250505092915050565b600181811c90821680610a6557607f821691505b602082108103610a8357634e487b7160e01b5f52602260045260245ffd5b50919050565b601f821115610320575f81815260208120601f850160051c81016020861015610aaf5750805b601f850160051c820191505b81811015610ace57828155600101610abb565b505050505050565b815167ffffffffffffffff811115610af057610af06108d6565b610b0481610afe8454610a51565b84610a89565b602080601f831160018114610b37575f8415610b205750858301515b5f19600386901b1c1916600185901b178555610ace565b5f85815260208120601f198616915b82811015610b6557888601518255948401946001909101908401610b46565b5085821015610b8257878501515f19600388901b60f8161c191681555b5050505050600190811b0190555056fe7f26b83ff96e1f2b6a682f133852f6798a09c465da95921460cefb3847402498a264697066735822122098491b6df2ec2444aec88ecaac69e8cb49b197d917bbe90464717317d7cecfc964736f6c63430008140033",
  "linkReferences": {},
  "deployedLinkReferences": {}
}