{
  "_format": "hh-sol-artifact-1",
  "contractName": "$SampleMother",
  "sourceName": "contracts-exposed/mocks/MultipleInheritanceInitializableMocks.sol",
  "abi": [
    {
      "inputs": [
        {
          "internalType": "uint256",
          "name": "value",
          "type": "uint256"
        }
      ],
      "stateMutability": "payable",
      "type": "constructor"
    },
    {
      "inputs": [],
      "name": "AlreadyInitialized",
      "type": "error"
    },
    {
      "inputs": [],
      "name": "NotInitializing",
      "type": "error"
    },
    {
      "anonymous": false,
      "inputs": [
        {
          "indexed": false,
          "internalType": "uint8",
          "name": "version",
          "type": "uint8"
        }
      ],
      "name": "Initialized",
      "type": "event"
    },
    {
      "inputs": [],
      "name": "$__SampleHuman_init",
      "outputs": [],
      "stateMutability": "nonpayable",
      "type": "function"
    },
    {
      "inputs": [],
      "name": "$__SampleHuman_init_unchained",
      "outputs": [],
      "stateMutability": "nonpayable",
      "type": "function"
    },
    {
      "inputs": [
        {
          "internalType": "uint256",
          "name": "value",
          "type": "uint256"
        }
      ],
      "name": "$__SampleMother_init",
      "outputs": [],
      "stateMutability": "nonpayable",
      "type": "function"
    },
    {
      "inputs": [
        {
          "internalType": "uint256",
          "name": "value",
          "type": "uint256"
        }
      ],
      "name": "$__SampleMother_init_unchained",
      "outputs": [],
      "stateMutability": "nonpayable",
      "type": "function"
    },
    {
      "inputs": [],
      "name": "$_disableInitializers",
      "outputs": [],
      "stateMutability": "nonpayable",
      "type": "function"
    },
    {
      "inputs": [],
      "name": "$_getInitializedVersion",
      "outputs": [
        {
          "internalType": "uint8",
          "name": "ret0",
          "type": "uint8"
        }
      ],
      "stateMutability": "view",
      "type": "function"
    },
    {
      "inputs": [],
      "name": "$_isInitializing",
      "outputs": [
        {
          "internalType": "bool",
          "name": "ret0",
          "type": "bool"
        }
      ],
      "stateMutability": "view",
      "type": "function"
    },
    {
      "inputs": [],
      "name": "__hh_exposed_bytecode_marker",
      "outputs": [
        {
          "internalType": "bytes32",
          "name": "",
          "type": "bytes32"
        }
      ],
      "stateMutability": "view",
      "type": "function"
    },
    {
      "inputs": [],
      "name": "initialize",
      "outputs": [],
      "stateMutability": "nonpayable",
      "type": "function"
    },
    {
      "inputs": [
        {
          "internalType": "uint256",
          "name": "value",
          "type": "uint256"
        }
      ],
      "name": "initialize",
      "outputs": [],
      "stateMutability": "nonpayable",
      "type": "function"
    },
    {
      "inputs": [],
      "name": "isHuman",
      "outputs": [
        {
          "internalType": "bool",
          "name": "",
          "type": "bool"
        }
      ],
      "stateMutability": "view",
      "type": "function"
    },
    {
      "inputs": [],
      "name": "mother",
      "outputs": [
        {
          "internalType": "uint256",
          "name": "",
          "type": "uint256"
        }
      ],
      "stateMutability": "view",
      "type": "function"
    },
    {
      "stateMutability": "payable",
      "type": "receive"
    }
  ],
  "bytecode": "0x608060405260405161073e38038061073e833981016040819052610022916101c1565b5f54610100900460ff161580801561004057505f54600160ff909116105b15801561005d5750303b15801561005b57505f5460ff166001145b155b1561007a5760405162dc149f60e41b815260040160405180910390fd5b5f805460ff19166001179055801561009b575f805461ff0019166101001790555b6100a4826100f0565b80156100e9575f805461ff0019169055604051600181527f7f26b83ff96e1f2b6a682f133852f6798a09c465da95921460cefb38474024989060200160405180910390a15b50506101d8565b5f54610100900460ff1661011757604051631afcd79f60e31b815260040160405180910390fd5b61011f61012b565b6101288161015c565b50565b5f54610100900460ff1661015257604051631afcd79f60e31b815260040160405180910390fd5b61015a610188565b565b5f54610100900460ff1661018357604051631afcd79f60e31b815260040160405180910390fd5b600155565b5f54610100900460ff166101af57604051631afcd79f60e31b815260040160405180910390fd5b5f805462ff0000191662010000179055565b5f602082840312156101d1575f80fd5b5051919050565b610559806101e55f395ff3fe6080604052600436106100a8575f3560e01c80638129fc1c116100625780638129fc1c1461018d578063c9eb0571146101a1578063e883dee8146101bc578063ed7dfee3146101d0578063f5f1bec0146101e5578063fe4b84df146101f9575f80fd5b806316c9da3b146100b3578063342db739146100d45780634a6c9db61461010c5780634fd5303d1461013a5780636b1da91a1461015a5780636e33593e14610179575f80fd5b366100af57005b5f80fd5b3480156100be575f80fd5b506100d26100cd36600461050c565b610218565b005b3480156100df575f80fd5b506100f96e1a185c991a185d0b595e1c1bdcd959608a1b81565b6040519081526020015b60405180910390f35b348015610117575f80fd5b505f5461012a9062010000900460ff1681565b6040519015158152602001610103565b348015610145575f80fd5b505f5460405160ff9091168152602001610103565b348015610165575f80fd5b506100d261017436600461050c565b610224565b348015610184575f80fd5b506100d261022d565b348015610198575f80fd5b506100d2610237565b3480156101ac575f80fd5b505f54610100900460ff1661012a565b3480156101c7575f80fd5b506100d26102ff565b3480156101db575f80fd5b506100f960015481565b3480156101f0575f80fd5b506100d2610307565b348015610204575f80fd5b506100d261021336600461050c565b61030f565b610221816103da565b50565b61022181610406565b610235610435565b565b5f54610100900460ff161580801561025557505f54600160ff909116105b1580156102725750303b15801561027057505f5460ff166001145b155b1561028f5760405162dc149f60e41b815260040160405180910390fd5b5f805460ff1916600117905580156102b0575f805461ff0019166101001790555b6102b861046e565b8015610221575f805461ff0019169055604051600181527f7f26b83ff96e1f2b6a682f133852f6798a09c465da95921460cefb38474024989060200160405180910390a150565b61023561046e565b610235610495565b5f54610100900460ff161580801561032d57505f54600160ff909116105b15801561034a5750303b15801561034857505f5460ff166001145b155b156103675760405162dc149f60e41b815260040160405180910390fd5b5f805460ff191660011790558015610388575f805461ff0019166101001790555b61039182610406565b80156103d6575f805461ff0019169055604051600181527f7f26b83ff96e1f2b6a682f133852f6798a09c465da95921460cefb38474024989060200160405180910390a15b5050565b5f54610100900460ff1661040157604051631afcd79f60e31b815260040160405180910390fd5b600155565b5f54610100900460ff1661042d57604051631afcd79f60e31b815260040160405180910390fd5b61021861046e565b5f54610100900460ff1661045c57604051631afcd79f60e31b815260040160405180910390fd5b5f805462ff0000191662010000179055565b5f54610100900460ff1661022d57604051631afcd79f60e31b815260040160405180910390fd5b5f54610100900460ff16156104bc5760405162dc149f60e41b815260040160405180910390fd5b5f5460ff90811614610235575f805460ff191660ff9081179091556040519081527f7f26b83ff96e1f2b6a682f133852f6798a09c465da95921460cefb38474024989060200160405180910390a1565b5f6020828403121561051c575f80fd5b503591905056fea2646970667358221220f794b6fdb30bad756d9546ecac0b46b48bf1ef21162539e24a9d56cf489a7c5f64736f6c63430008140033",
  "linkReferences": {},
  "deployedLinkReferences": {}
}