{
  "_format": "hh-sol-artifact-1",
  "contractName": "MigratableMockV2",
  "sourceName": "contracts/mocks/SingleInheritanceInitializableMocks.sol",
  "abi": [
    {
      "inputs": [],
      "name": "AlreadyInitialized",
      "type": "error"
    },
    {
      "inputs": [],
      "name": "NotInitializing",
      "type": "error"
    },
    {
      "anonymous": false,
      "inputs": [
        {
          "indexed": false,
          "internalType": "uint8",
          "name": "version",
          "type": "uint8"
        }
      ],
      "name": "Initialized",
      "type": "event"
    },
    {
      "inputs": [
        {
          "internalType": "uint256",
          "name": "value",
          "type": "uint256"
        }
      ],
      "name": "initialize",
      "outputs": [],
      "stateMutability": "payable",
      "type": "function"
    },
    {
      "inputs": [
        {
          "internalType": "uint256",
          "name": "value",
          "type": "uint256"
        },
        {
          "internalType": "uint256",
          "name": "anotherValue",
          "type": "uint256"
        }
      ],
      "name": "migrate",
      "outputs": [],
      "stateMutability": "payable",
      "type": "function"
    },
    {
      "inputs": [],
      "name": "x",
      "outputs": [
        {
          "internalType": "uint256",
          "name": "",
          "type": "uint256"
        }
      ],
      "stateMutability": "view",
      "type": "function"
    },
    {
      "inputs": [],
      "name": "y",
      "outputs": [
        {
          "internalType": "uint256",
          "name": "",
          "type": "uint256"
        }
      ],
      "stateMutability": "view",
      "type": "function"
    }
  ],
  "bytecode": "0x608060405234801561000f575f80fd5b506102008061001d5f395ff3fe60806040526004361061003e575f3560e01c80630c55699c146100425780633e54bacb14610069578063a56dfe4a1461007e578063fe4b84df14610093575b5f80fd5b34801561004d575f80fd5b5061005760015481565b60405190815260200160405180910390f35b61007c610077366004610193565b6100a6565b005b348015610089575f80fd5b5061005760035481565b61007c6100a13660046101b3565b6100cc565b60025460ff16156100b5575f80fd5b60019182556003556002805460ff19169091179055565b5f54610100900460ff16158080156100ea57505f54600160ff909116105b1580156101075750303b15801561010557505f5460ff166001145b155b156101245760405162dc149f60e41b815260040160405180910390fd5b5f805460ff191660011790558015610145575f805461ff0019166101001790555b6001829055801561018f575f805461ff0019169055604051600181527f7f26b83ff96e1f2b6a682f133852f6798a09c465da95921460cefb38474024989060200160405180910390a15b5050565b5f80604083850312156101a4575f80fd5b50508035926020909101359150565b5f602082840312156101c3575f80fd5b503591905056fea264697066735822122010a4baf996da02e90d47494c9acae9c3a173ae8e8edd65435065c5563b53ae2464736f6c63430008140033",
  "linkReferences": {},
  "deployedLinkReferences": {}
}