{
  "_format": "hh-sol-artifact-1",
  "contractName": "MigratableMockV3",
  "sourceName": "contracts/mocks/SingleInheritanceInitializableMocks.sol",
  "abi": [
    {
      "inputs": [],
      "name": "AlreadyInitialized",
      "type": "error"
    },
    {
      "inputs": [],
      "name": "NotInitializing",
      "type": "error"
    },
    {
      "anonymous": false,
      "inputs": [
        {
          "indexed": false,
          "internalType": "uint8",
          "name": "version",
          "type": "uint8"
        }
      ],
      "name": "Initialized",
      "type": "event"
    },
    {
      "inputs": [
        {
          "internalType": "uint256",
          "name": "value",
          "type": "uint256"
        }
      ],
      "name": "initialize",
      "outputs": [],
      "stateMutability": "payable",
      "type": "function"
    },
    {
      "inputs": [
        {
          "internalType": "uint256",
          "name": "value",
          "type": "uint256"
        },
        {
          "internalType": "uint256",
          "name": "anotherValue",
          "type": "uint256"
        }
      ],
      "name": "migrate",
      "outputs": [],
      "stateMutability": "payable",
      "type": "function"
    },
    {
      "inputs": [],
      "name": "migrate",
      "outputs": [],
      "stateMutability": "payable",
      "type": "function"
    },
    {
      "inputs": [],
      "name": "x",
      "outputs": [
        {
          "internalType": "uint256",
          "name": "",
          "type": "uint256"
        }
      ],
      "stateMutability": "view",
      "type": "function"
    },
    {
      "inputs": [],
      "name": "y",
      "outputs": [
        {
          "internalType": "uint256",
          "name": "",
          "type": "uint256"
        }
      ],
      "stateMutability": "view",
      "type": "function"
    }
  ],
  "bytecode": "0x608060405234801561000f575f80fd5b5061023c8061001d5f395ff3fe608060405260043610610049575f3560e01c80630c55699c1461004d5780633e54bacb146100745780638fd3ab8014610089578063a56dfe4a14610091578063fe4b84df146100a6575b5f80fd5b348015610058575f80fd5b5061006260015481565b60405190815260200160405180910390f35b6100876100823660046101cf565b6100b9565b005b6100876100df565b34801561009c575f80fd5b5061006260035481565b6100876100b43660046101ef565b610108565b60025460ff16156100c8575f80fd5b60019182556003556002805460ff19169091179055565b60045460ff16156100ee575f80fd5b60018054600380548355556004805460ff19169091179055565b5f54610100900460ff161580801561012657505f54600160ff909116105b1580156101435750303b15801561014157505f5460ff166001145b155b156101605760405162dc149f60e41b815260040160405180910390fd5b5f805460ff191660011790558015610181575f805461ff0019166101001790555b600182905580156101cb575f805461ff0019169055604051600181527f7f26b83ff96e1f2b6a682f133852f6798a09c465da95921460cefb38474024989060200160405180910390a15b5050565b5f80604083850312156101e0575f80fd5b50508035926020909101359150565b5f602082840312156101ff575f80fd5b503591905056fea26469706673582212206d095e18ef2a581a35623e8993096cf097903d31d9ca10b56e14714c78bc074964736f6c63430008140033",
  "linkReferences": {},
  "deployedLinkReferences": {}
}