{
  "_format": "hh-sol-artifact-1",
  "contractName": "$ERC20PermitNoRevertMock",
  "sourceName": "contracts-exposed/mocks/token/ERC20PermitNoRevertMock.sol",
  "abi": [
    {
      "inputs": [
        {
          "internalType": "string",
          "name": "name_",
          "type": "string"
        },
        {
          "internalType": "string",
          "name": "symbol_",
          "type": "string"
        },
        {
          "internalType": "string",
          "name": "name",
          "type": "string"
        }
      ],
      "stateMutability": "payable",
      "type": "constructor"
    },
    {
      "inputs": [],
      "name": "ECDSAInvalidSignature",
      "type": "error"
    },
    {
      "inputs": [
        {
          "internalType": "uint256",
          "name": "length",
          "type": "uint256"
        }
      ],
      "name": "ECDSAInvalidSignatureLength",
      "type": "error"
    },
    {
      "inputs": [
        {
          "internalType": "bytes32",
          "name": "s",
          "type": "bytes32"
        }
      ],
      "name": "ECDSAInvalidSignatureS",
      "type": "error"
    },
    {
      "inputs": [
        {
          "internalType": "address",
          "name": "spender",
          "type": "address"
        },
        {
          "internalType": "uint256",
          "name": "currentAllowance",
          "type": "uint256"
        },
        {
          "internalType": "uint256",
          "name": "requestedDecrease",
          "type": "uint256"
        }
      ],
      "name": "ERC20FailedDecreaseAllowance",
      "type": "error"
    },
    {
      "inputs": [
        {
          "internalType": "address",
          "name": "spender",
          "type": "address"
        },
        {
          "internalType": "uint256",
          "name": "allowance",
          "type": "uint256"
        },
        {
          "internalType": "uint256",
          "name": "needed",
          "type": "uint256"
        }
      ],
      "name": "ERC20InsufficientAllowance",
      "type": "error"
    },
    {
      "inputs": [
        {
          "internalType": "address",
          "name": "sender",
          "type": "address"
        },
        {
          "internalType": "uint256",
          "name": "balance",
          "type": "uint256"
        },
        {
          "internalType": "uint256",
          "name": "needed",
          "type": "uint256"
        }
      ],
      "name": "ERC20InsufficientBalance",
      "type": "error"
    },
    {
      "inputs": [
        {
          "internalType": "address",
          "name": "approver",
          "type": "address"
        }
      ],
      "name": "ERC20InvalidApprover",
      "type": "error"
    },
    {
      "inputs": [
        {
          "internalType": "address",
          "name": "receiver",
          "type": "address"
        }
      ],
      "name": "ERC20InvalidReceiver",
      "type": "error"
    },
    {
      "inputs": [
        {
          "internalType": "address",
          "name": "sender",
          "type": "address"
        }
      ],
      "name": "ERC20InvalidSender",
      "type": "error"
    },
    {
      "inputs": [
        {
          "internalType": "address",
          "name": "spender",
          "type": "address"
        }
      ],
      "name": "ERC20InvalidSpender",
      "type": "error"
    },
    {
      "inputs": [
        {
          "internalType": "uint256",
          "name": "deadline",
          "type": "uint256"
        }
      ],
      "name": "ERC2612ExpiredSignature",
      "type": "error"
    },
    {
      "inputs": [
        {
          "internalType": "address",
          "name": "signer",
          "type": "address"
        },
        {
          "internalType": "address",
          "name": "owner",
          "type": "address"
        }
      ],
      "name": "ERC2612InvalidSigner",
      "type": "error"
    },
    {
      "inputs": [
        {
          "internalType": "address",
          "name": "account",
          "type": "address"
        },
        {
          "internalType": "uint256",
          "name": "currentNonce",
          "type": "uint256"
        }
      ],
      "name": "InvalidAccountNonce",
      "type": "error"
    },
    {
      "inputs": [],
      "name": "InvalidShortString",
      "type": "error"
    },
    {
      "inputs": [
        {
          "internalType": "string",
          "name": "str",
          "type": "string"
        }
      ],
      "name": "StringTooLong",
      "type": "error"
    },
    {
      "anonymous": false,
      "inputs": [
        {
          "indexed": true,
          "internalType": "address",
          "name": "owner",
          "type": "address"
        },
        {
          "indexed": true,
          "internalType": "address",
          "name": "spender",
          "type": "address"
        },
        {
          "indexed": false,
          "internalType": "uint256",
          "name": "value",
          "type": "uint256"
        }
      ],
      "name": "Approval",
      "type": "event"
    },
    {
      "anonymous": false,
      "inputs": [],
      "name": "EIP712DomainChanged",
      "type": "event"
    },
    {
      "anonymous": false,
      "inputs": [
        {
          "indexed": true,
          "internalType": "address",
          "name": "from",
          "type": "address"
        },
        {
          "indexed": true,
          "internalType": "address",
          "name": "to",
          "type": "address"
        },
        {
          "indexed": false,
          "internalType": "uint256",
          "name": "value",
          "type": "uint256"
        }
      ],
      "name": "Transfer",
      "type": "event"
    },
    {
      "anonymous": false,
      "inputs": [
        {
          "indexed": false,
          "internalType": "uint256",
          "name": "ret0",
          "type": "uint256"
        }
      ],
      "name": "return$_useCheckedNonce",
      "type": "event"
    },
    {
      "anonymous": false,
      "inputs": [
        {
          "indexed": false,
          "internalType": "uint256",
          "name": "ret0",
          "type": "uint256"
        }
      ],
      "name": "return$_useNonce",
      "type": "event"
    },
    {
      "inputs": [],
      "name": "$_EIP712Name",
      "outputs": [
        {
          "internalType": "string",
          "name": "ret0",
          "type": "string"
        }
      ],
      "stateMutability": "view",
      "type": "function"
    },
    {
      "inputs": [],
      "name": "$_EIP712Version",
      "outputs": [
        {
          "internalType": "string",
          "name": "ret0",
          "type": "string"
        }
      ],
      "stateMutability": "view",
      "type": "function"
    },
    {
      "inputs": [
        {
          "internalType": "address",
          "name": "owner",
          "type": "address"
        },
        {
          "internalType": "address",
          "name": "spender",
          "type": "address"
        },
        {
          "internalType": "uint256",
          "name": "value",
          "type": "uint256"
        },
        {
          "internalType": "bool",
          "name": "emitEvent",
          "type": "bool"
        }
      ],
      "name": "$_approve",
      "outputs": [],
      "stateMutability": "nonpayable",
      "type": "function"
    },
    {
      "inputs": [
        {
          "internalType": "address",
          "name": "owner",
          "type": "address"
        },
        {
          "internalType": "address",
          "name": "spender",
          "type": "address"
        },
        {
          "internalType": "uint256",
          "name": "value",
          "type": "uint256"
        }
      ],
      "name": "$_approve",
      "outputs": [],
      "stateMutability": "nonpayable",
      "type": "function"
    },
    {
      "inputs": [
        {
          "internalType": "address",
          "name": "account",
          "type": "address"
        },
        {
          "internalType": "uint256",
          "name": "value",
          "type": "uint256"
        }
      ],
      "name": "$_burn",
      "outputs": [],
      "stateMutability": "nonpayable",
      "type": "function"
    },
    {
      "inputs": [],
      "name": "$_domainSeparatorV4",
      "outputs": [
        {
          "internalType": "bytes32",
          "name": "ret0",
          "type": "bytes32"
        }
      ],
      "stateMutability": "view",
      "type": "function"
    },
    {
      "inputs": [
        {
          "internalType": "bytes32",
          "name": "structHash",
          "type": "bytes32"
        }
      ],
      "name": "$_hashTypedDataV4",
      "outputs": [
        {
          "internalType": "bytes32",
          "name": "ret0",
          "type": "bytes32"
        }
      ],
      "stateMutability": "view",
      "type": "function"
    },
    {
      "inputs": [
        {
          "internalType": "address",
          "name": "account",
          "type": "address"
        },
        {
          "internalType": "uint256",
          "name": "value",
          "type": "uint256"
        }
      ],
      "name": "$_mint",
      "outputs": [],
      "stateMutability": "nonpayable",
      "type": "function"
    },
    {
      "inputs": [],
      "name": "$_msgData",
      "outputs": [
        {
          "internalType": "bytes",
          "name": "ret0",
          "type": "bytes"
        }
      ],
      "stateMutability": "view",
      "type": "function"
    },
    {
      "inputs": [],
      "name": "$_msgSender",
      "outputs": [
        {
          "internalType": "address",
          "name": "ret0",
          "type": "address"
        }
      ],
      "stateMutability": "view",
      "type": "function"
    },
    {
      "inputs": [
        {
          "internalType": "address",
          "name": "owner",
          "type": "address"
        },
        {
          "internalType": "address",
          "name": "spender",
          "type": "address"
        },
        {
          "internalType": "uint256",
          "name": "value",
          "type": "uint256"
        }
      ],
      "name": "$_spendAllowance",
      "outputs": [],
      "stateMutability": "nonpayable",
      "type": "function"
    },
    {
      "inputs": [
        {
          "internalType": "address",
          "name": "from",
          "type": "address"
        },
        {
          "internalType": "address",
          "name": "to",
          "type": "address"
        },
        {
          "internalType": "uint256",
          "name": "value",
          "type": "uint256"
        }
      ],
      "name": "$_transfer",
      "outputs": [],
      "stateMutability": "nonpayable",
      "type": "function"
    },
    {
      "inputs": [
        {
          "internalType": "address",
          "name": "from",
          "type": "address"
        },
        {
          "internalType": "address",
          "name": "to",
          "type": "address"
        },
        {
          "internalType": "uint256",
          "name": "value",
          "type": "uint256"
        }
      ],
      "name": "$_update",
      "outputs": [],
      "stateMutability": "nonpayable",
      "type": "function"
    },
    {
      "inputs": [
        {
          "internalType": "address",
          "name": "owner",
          "type": "address"
        },
        {
          "internalType": "uint256",
          "name": "nonce",
          "type": "uint256"
        }
      ],
      "name": "$_useCheckedNonce",
      "outputs": [
        {
          "internalType": "uint256",
          "name": "ret0",
          "type": "uint256"
        }
      ],
      "stateMutability": "nonpayable",
      "type": "function"
    },
    {
      "inputs": [
        {
          "internalType": "address",
          "name": "owner",
          "type": "address"
        }
      ],
      "name": "$_useNonce",
      "outputs": [
        {
          "internalType": "uint256",
          "name": "ret0",
          "type": "uint256"
        }
      ],
      "stateMutability": "nonpayable",
      "type": "function"
    },
    {
      "inputs": [],
      "name": "DOMAIN_SEPARATOR",
      "outputs": [
        {
          "internalType": "bytes32",
          "name": "",
          "type": "bytes32"
        }
      ],
      "stateMutability": "view",
      "type": "function"
    },
    {
      "inputs": [],
      "name": "__hh_exposed_bytecode_marker",
      "outputs": [
        {
          "internalType": "bytes32",
          "name": "",
          "type": "bytes32"
        }
      ],
      "stateMutability": "view",
      "type": "function"
    },
    {
      "inputs": [
        {
          "internalType": "address",
          "name": "owner",
          "type": "address"
        },
        {
          "internalType": "address",
          "name": "spender",
          "type": "address"
        }
      ],
      "name": "allowance",
      "outputs": [
        {
          "internalType": "uint256",
          "name": "",
          "type": "uint256"
        }
      ],
      "stateMutability": "view",
      "type": "function"
    },
    {
      "inputs": [
        {
          "internalType": "address",
          "name": "spender",
          "type": "address"
        },
        {
          "internalType": "uint256",
          "name": "value",
          "type": "uint256"
        }
      ],
      "name": "approve",
      "outputs": [
        {
          "internalType": "bool",
          "name": "",
          "type": "bool"
        }
      ],
      "stateMutability": "nonpayable",
      "type": "function"
    },
    {
      "inputs": [
        {
          "internalType": "address",
          "name": "account",
          "type": "address"
        }
      ],
      "name": "balanceOf",
      "outputs": [
        {
          "internalType": "uint256",
          "name": "",
          "type": "uint256"
        }
      ],
      "stateMutability": "view",
      "type": "function"
    },
    {
      "inputs": [],
      "name": "decimals",
      "outputs": [
        {
          "internalType": "uint8",
          "name": "",
          "type": "uint8"
        }
      ],
      "stateMutability": "view",
      "type": "function"
    },
    {
      "inputs": [
        {
          "internalType": "address",
          "name": "spender",
          "type": "address"
        },
        {
          "internalType": "uint256",
          "name": "requestedDecrease",
          "type": "uint256"
        }
      ],
      "name": "decreaseAllowance",
      "outputs": [
        {
          "internalType": "bool",
          "name": "",
          "type": "bool"
        }
      ],
      "stateMutability": "nonpayable",
      "type": "function"
    },
    {
      "inputs": [],
      "name": "eip712Domain",
      "outputs": [
        {
          "internalType": "bytes1",
          "name": "fields",
          "type": "bytes1"
        },
        {
          "internalType": "string",
          "name": "name",
          "type": "string"
        },
        {
          "internalType": "string",
          "name": "version",
          "type": "string"
        },
        {
          "internalType": "uint256",
          "name": "chainId",
          "type": "uint256"
        },
        {
          "internalType": "address",
          "name": "verifyingContract",
          "type": "address"
        },
        {
          "internalType": "bytes32",
          "name": "salt",
          "type": "bytes32"
        },
        {
          "internalType": "uint256[]",
          "name": "extensions",
          "type": "uint256[]"
        }
      ],
      "stateMutability": "view",
      "type": "function"
    },
    {
      "inputs": [
        {
          "internalType": "address",
          "name": "spender",
          "type": "address"
        },
        {
          "internalType": "uint256",
          "name": "addedValue",
          "type": "uint256"
        }
      ],
      "name": "increaseAllowance",
      "outputs": [
        {
          "internalType": "bool",
          "name": "",
          "type": "bool"
        }
      ],
      "stateMutability": "nonpayable",
      "type": "function"
    },
    {
      "inputs": [],
      "name": "name",
      "outputs": [
        {
          "internalType": "string",
          "name": "",
          "type": "string"
        }
      ],
      "stateMutability": "view",
      "type": "function"
    },
    {
      "inputs": [
        {
          "internalType": "address",
          "name": "owner",
          "type": "address"
        }
      ],
      "name": "nonces",
      "outputs": [
        {
          "internalType": "uint256",
          "name": "",
          "type": "uint256"
        }
      ],
      "stateMutability": "view",
      "type": "function"
    },
    {
      "inputs": [
        {
          "internalType": "address",
          "name": "owner",
          "type": "address"
        },
        {
          "internalType": "address",
          "name": "spender",
          "type": "address"
        },
        {
          "internalType": "uint256",
          "name": "value",
          "type": "uint256"
        },
        {
          "internalType": "uint256",
          "name": "deadline",
          "type": "uint256"
        },
        {
          "internalType": "uint8",
          "name": "v",
          "type": "uint8"
        },
        {
          "internalType": "bytes32",
          "name": "r",
          "type": "bytes32"
        },
        {
          "internalType": "bytes32",
          "name": "s",
          "type": "bytes32"
        }
      ],
      "name": "permit",
      "outputs": [],
      "stateMutability": "nonpayable",
      "type": "function"
    },
    {
      "inputs": [
        {
          "internalType": "address",
          "name": "owner",
          "type": "address"
        },
        {
          "internalType": "address",
          "name": "spender",
          "type": "address"
        },
        {
          "internalType": "uint256",
          "name": "value",
          "type": "uint256"
        },
        {
          "internalType": "uint256",
          "name": "deadline",
          "type": "uint256"
        },
        {
          "internalType": "uint8",
          "name": "v",
          "type": "uint8"
        },
        {
          "internalType": "bytes32",
          "name": "r",
          "type": "bytes32"
        },
        {
          "internalType": "bytes32",
          "name": "s",
          "type": "bytes32"
        }
      ],
      "name": "permitThatMayRevert",
      "outputs": [],
      "stateMutability": "nonpayable",
      "type": "function"
    },
    {
      "inputs": [],
      "name": "symbol",
      "outputs": [
        {
          "internalType": "string",
          "name": "",
          "type": "string"
        }
      ],
      "stateMutability": "view",
      "type": "function"
    },
    {
      "inputs": [],
      "name": "totalSupply",
      "outputs": [
        {
          "internalType": "uint256",
          "name": "",
          "type": "uint256"
        }
      ],
      "stateMutability": "view",
      "type": "function"
    },
    {
      "inputs": [
        {
          "internalType": "address",
          "name": "to",
          "type": "address"
        },
        {
          "internalType": "uint256",
          "name": "value",
          "type": "uint256"
        }
      ],
      "name": "transfer",
      "outputs": [
        {
          "internalType": "bool",
          "name": "",
          "type": "bool"
        }
      ],
      "stateMutability": "nonpayable",
      "type": "function"
    },
    {
      "inputs": [
        {
          "internalType": "address",
          "name": "from",
          "type": "address"
        },
        {
          "internalType": "address",
          "name": "to",
          "type": "address"
        },
        {
          "internalType": "uint256",
          "name": "value",
          "type": "uint256"
        }
      ],
      "name": "transferFrom",
      "outputs": [
        {
          "internalType": "bool",
          "name": "",
          "type": "bool"
        }
      ],
      "stateMutability": "nonpayable",
      "type": "function"
    },
    {
      "stateMutability": "payable",
      "type": "receive"
    }
  ],
  "bytecode": "0x61016060405260405162001ad738038062001ad783398101604081905262000027916200026f565b6040805180820190915260018152603160f81b6020820152819081908585600362000053838262000386565b50600462000062828262000386565b50620000749150839050600562000126565b610120526200008581600662000126565b61014052815160208084019190912060e052815190820120610100524660a0526200011260e05161010051604080517f8b73c3c69bb8fe3d512ecc4cf759cc79239f7b179b0ffacaa9a75d522b39400f60208201529081019290925260608201524660808201523060a08201525f9060c00160405160208183030381529060405280519060200120905090565b60805250503060c05250620004a692505050565b5f60208351101562000145576200013d836200015e565b905062000158565b8162000152848262000386565b5060ff90505b92915050565b5f80829050601f8151111562000194578260405163305a27a960e01b81526004016200018b91906200044e565b60405180910390fd5b8051620001a18262000482565b179392505050565b634e487b7160e01b5f52604160045260245ffd5b5f5b83811015620001d9578181015183820152602001620001bf565b50505f910152565b5f82601f830112620001f1575f80fd5b81516001600160401b03808211156200020e576200020e620001a9565b604051601f8301601f19908116603f01168101908282118183101715620002395762000239620001a9565b8160405283815286602085880101111562000252575f80fd5b62000265846020830160208901620001bd565b9695505050505050565b5f805f6060848603121562000282575f80fd5b83516001600160401b038082111562000299575f80fd5b620002a787838801620001e1565b94506020860151915080821115620002bd575f80fd5b620002cb87838801620001e1565b93506040860151915080821115620002e1575f80fd5b50620002f086828701620001e1565b9150509250925092565b600181811c908216806200030f57607f821691505b6020821081036200032e57634e487b7160e01b5f52602260045260245ffd5b50919050565b601f82111562000381575f81815260208120601f850160051c810160208610156200035c5750805b601f850160051c820191505b818110156200037d5782815560010162000368565b5050505b505050565b81516001600160401b03811115620003a257620003a2620001a9565b620003ba81620003b38454620002fa565b8462000334565b602080601f831160018114620003f0575f8415620003d85750858301515b5f19600386901b1c1916600185901b1785556200037d565b5f85815260208120601f198616915b828110156200042057888601518255948401946001909101908401620003ff565b50858210156200043e57878501515f19600388901b60f8161c191681555b5050505050600190811b01905550565b602081525f82518060208401526200046e816040850160208701620001bd565b601f01601f19169190910160400192915050565b805160208083015191908110156200032e575f1960209190910360031b1b16919050565b60805160a05160c05160e0516101005161012051610140516115df620004f85f395f6109e901525f6109bc01525f610c6901525f610c4101525f610b9c01525f610bc601525f610bf001526115df5ff3fe6080604052600436106101de575f3560e01c80636855a178116100fd578063a457c2d711610092578063d505accf11610062578063d505accf1461052d578063dd62ed3e1461054c578063e047838d1461056b578063efb43b071461058a575f80fd5b8063a457c2d7146104b1578063a9059cbb146104d0578063b2331d7d146104ef578063cc461d621461050e575f80fd5b806384b0196e116100cd57806384b0196e14610438578063861e3d3d1461045f57806395d89b411461047e57806396a9fc3114610492575f80fd5b80636855a178146103a75780636b4ac502146103c657806370a08231146103e55780637ecebe0014610419575f80fd5b8063313ce567116101735780633644e515116101435780633644e515146103555780633950935114610369578063506a6f0c146103885780635f8d5e7414610355575f80fd5b8063313ce567146102e057806332bc74aa146102fb57806332cadf3c1461031c578063342db73914610330575f80fd5b806318160ddd116101ae57806318160ddd1461026a57806323b872dd146102885780632904df29146102a75780632e8fbee5146102c1575f80fd5b806306fdde03146101e9578063095ea7b3146102135780631164d13b14610242578063174ccd8214610256575f80fd5b366101e557005b5f80fd5b3480156101f4575f80fd5b506101fd6105a9565b60405161020a91906112fe565b60405180910390f35b34801561021e575f80fd5b5061023261022d36600461132b565b610639565b604051901515815260200161020a565b34801561024d575f80fd5b506101fd610652565b348015610261575f80fd5b506101fd610661565b348015610275575f80fd5b506002545b60405190815260200161020a565b348015610293575f80fd5b506102326102a2366004611353565b61066b565b3480156102b2575f80fd5b5060405133815260200161020a565b3480156102cc575f80fd5b5061027a6102db36600461138c565b61068e565b3480156102eb575f80fd5b506040516012815260200161020a565b348015610306575f80fd5b5061031a6103153660046113a5565b6106ee565b005b348015610327575f80fd5b506101fd610700565b34801561033b575f80fd5b5061027a6e1a185c991a185d0b595e1c1bdcd959608a1b81565b348015610360575f80fd5b5061027a61073d565b348015610374575f80fd5b5061023261038336600461132b565b610746565b348015610393575f80fd5b5061027a6103a23660046113f5565b610767565b3480156103b2575f80fd5b5061031a6103c1366004611353565b610771565b3480156103d1575f80fd5b5061027a6103e036600461132b565b610781565b3480156103f0575f80fd5b5061027a6103ff36600461138c565b6001600160a01b03165f9081526020819052604090205490565b348015610424575f80fd5b5061027a61043336600461138c565b6107cd565b348015610443575f80fd5b5061044c6107ea565b60405161020a979695949392919061140c565b34801561046a575f80fd5b5061031a610479366004611353565b61082c565b348015610489575f80fd5b506101fd610837565b34801561049d575f80fd5b5061031a6104ac3660046114a0565b610846565b3480156104bc575f80fd5b506102326104cb36600461132b565b61085e565b3480156104db575f80fd5b506102326104ea36600461132b565b6108b9565b3480156104fa575f80fd5b5061031a610509366004611353565b6108c6565b348015610519575f80fd5b5061031a61052836600461132b565b6108d1565b348015610538575f80fd5b5061031a6105473660046114a0565b6108df565b348015610557575f80fd5b5061027a61056636600461150d565b610969565b348015610576575f80fd5b5061031a61058536600461132b565b610993565b348015610595575f80fd5b5061031a6105a4366004611353565b61099d565b6060600380546105b89061153e565b80601f01602080910402602001604051908101604052809291908181526020018280546105e49061153e565b801561062f5780601f106106065761010080835404028352916020019161062f565b820191905f5260205f20905b81548152906001019060200180831161061257829003601f168201915b5050505050905090565b5f336106468185856109a8565b60019150505b92915050565b606061065c6109b5565b905090565b606061065c6109e2565b5f33610678858285610a0f565b610683858585610a6c565b506001949350505050565b6001600160a01b0381165f90815260076020526040812080546001810190915590507f8d5c13b1cd528a3e1895fdc833368c4e3af5391250c736a28e94c4fa59b3cee4816040516106e191815260200190565b60405180910390a1919050565b6106fa84848484610abe565b50505050565b60605f368080601f0160208091040260200160405190810160405280939291908181526020018383808284375f9201919091525092949350505050565b5f61065c610b90565b5f336106468185856107588383610969565b6107629190611576565b6109a8565b5f61064c82610cb9565b61077c838383610ce5565b505050565b5f61078c8383610e0b565b90507f173c6dfbda204d89ae7b46789365591384ef0c959833564582f96cd15f445b9b816040516107bf91815260200190565b60405180910390a192915050565b6001600160a01b0381165f9081526007602052604081205461064c565b5f6060805f805f60606107fb6109b5565b6108036109e2565b604080515f80825260208201909252600f60f81b9b939a50919850469750309650945092509050565b61077c8383836109a8565b6060600480546105b89061153e565b61085587878787878787610e64565b50505050505050565b5f338161086b8286610969565b9050838110156108ac57604051632983c0c360e21b81526001600160a01b038616600482015260248101829052604481018590526064015b60405180910390fd5b61068382868684036109a8565b5f33610646818585610a6c565b61077c838383610a0f565b6108db8282610f9a565b5050565b6040516396a9fc3160e01b81526001600160a01b03808916600483015287166024820152604481018690526064810185905260ff8416608482015260a4810183905260c4810182905230906396a9fc319060e4015f604051808303815f87803b15801561094a575f80fd5b505af192505050801561095b575060015b156108555750505050505050565b6001600160a01b039182165f90815260016020908152604080832093909416825291909152205490565b6108db8282610fce565b61077c838383610a6c565b61077c8383836001610abe565b606061065c7f00000000000000000000000000000000000000000000000000000000000000006005611002565b606061065c7f00000000000000000000000000000000000000000000000000000000000000006006611002565b5f610a1a8484610969565b90505f1981146106fa5781811015610a5e57604051637dc7a0d960e11b81526001600160a01b038416600482015260248101829052604481018390526064016108a3565b6106fa84848484035f610abe565b6001600160a01b038316610a9557604051634b637e8f60e11b81525f60048201526024016108a3565b6001600160a01b0382166107715760405163ec442f0560e01b81525f60048201526024016108a3565b6001600160a01b038416610ae75760405163e602df0560e01b81525f60048201526024016108a3565b6001600160a01b038316610b1057604051634a1406b160e11b81525f60048201526024016108a3565b6001600160a01b038085165f90815260016020908152604080832093871683529290522082905580156106fa57826001600160a01b0316846001600160a01b03167f8c5be1e5ebec7d5bd14f71427d1e84f3dd0314c0f7b2291e5b200ac8c7c3b92584604051610b8291815260200190565b60405180910390a350505050565b5f306001600160a01b037f000000000000000000000000000000000000000000000000000000000000000016148015610be857507f000000000000000000000000000000000000000000000000000000000000000046145b15610c1257507f000000000000000000000000000000000000000000000000000000000000000090565b61065c604080517f8b73c3c69bb8fe3d512ecc4cf759cc79239f7b179b0ffacaa9a75d522b39400f60208201527f0000000000000000000000000000000000000000000000000000000000000000918101919091527f000000000000000000000000000000000000000000000000000000000000000060608201524660808201523060a08201525f9060c00160405160208183030381529060405280519060200120905090565b5f61064c610cc5610b90565b8360405161190160f01b8152600281019290925260228201526042902090565b6001600160a01b038316610d0f578060025f828254610d049190611576565b90915550610d7f9050565b6001600160a01b0383165f9081526020819052604090205481811015610d615760405163391434e360e21b81526001600160a01b038516600482015260248101829052604481018390526064016108a3565b6001600160a01b0384165f9081526020819052604090209082900390555b6001600160a01b038216610d9b57600280548290039055610db9565b6001600160a01b0382165f9081526020819052604090208054820190555b816001600160a01b0316836001600160a01b03167fddf252ad1be2c89b69c2b068fc378daa952ba7f163c4a11628f55a4df523b3ef83604051610dfe91815260200190565b60405180910390a3505050565b6001600160a01b0382165f908152600760205260408120805460018101909155808314610e5d576040516301d4b62360e61b81526001600160a01b0385166004820152602481018290526044016108a3565b9392505050565b83421115610e885760405163313c898160e11b8152600481018590526024016108a3565b5f7f6e71edae12b1b97f4d1f60370fef10105fa2faae0126114a169c64845d6126c9888888610ed38c6001600160a01b03165f90815260076020526040902080546001810190915590565b6040805160208101969096526001600160a01b0394851690860152929091166060840152608083015260a082015260c0810186905260e0016040516020818303038152906040528051906020012090505f610f2d82610cb9565b90505f610f3c828787876110ab565b9050896001600160a01b0316816001600160a01b031614610f83576040516325c0072360e11b81526001600160a01b0380831660048301528b1660248201526044016108a3565b610f8e8a8a8a6109a8565b50505050505050505050565b6001600160a01b038216610fc35760405163ec442f0560e01b81525f60048201526024016108a3565b6108db5f8383610ce5565b6001600160a01b038216610ff757604051634b637e8f60e11b81525f60048201526024016108a3565b6108db825f83610ce5565b606060ff831461101c57611015836110d7565b905061064c565b8180546110289061153e565b80601f01602080910402602001604051908101604052809291908181526020018280546110549061153e565b801561109f5780601f106110765761010080835404028352916020019161109f565b820191905f5260205f20905b81548152906001019060200180831161108257829003601f168201915b5050505050905061064c565b5f805f806110bb88888888611114565b9250925092506110cb82826111dc565b50909695505050505050565b60605f6110e383611294565b6040805160208082528183019092529192505f91906020820181803683375050509182525060208101929092525090565b5f80807f7fffffffffffffffffffffffffffffff5d576e7357a4501ddfe92f46681b20a084111561114d57505f915060039050826111d2565b604080515f808252602082018084528a905260ff891692820192909252606081018790526080810186905260019060a0016020604051602081039080840390855afa15801561119e573d5f803e3d5ffd5b5050604051601f1901519150506001600160a01b0381166111c957505f9250600191508290506111d2565b92505f91508190505b9450945094915050565b5f8260038111156111ef576111ef611595565b036111f8575050565b600182600381111561120c5761120c611595565b0361122a5760405163f645eedf60e01b815260040160405180910390fd5b600282600381111561123e5761123e611595565b0361125f5760405163fce698f760e01b8152600481018290526024016108a3565b600382600381111561127357611273611595565b036108db576040516335e2f38360e21b8152600481018290526024016108a3565b5f60ff8216601f81111561064c57604051632cd44ac360e21b815260040160405180910390fd5b5f81518084525f5b818110156112df576020818501810151868301820152016112c3565b505f602082860101526020601f19601f83011685010191505092915050565b602081525f610e5d60208301846112bb565b80356001600160a01b0381168114611326575f80fd5b919050565b5f806040838503121561133c575f80fd5b61134583611310565b946020939093013593505050565b5f805f60608486031215611365575f80fd5b61136e84611310565b925061137c60208501611310565b9150604084013590509250925092565b5f6020828403121561139c575f80fd5b610e5d82611310565b5f805f80608085870312156113b8575f80fd5b6113c185611310565b93506113cf60208601611310565b925060408501359150606085013580151581146113ea575f80fd5b939692955090935050565b5f60208284031215611405575f80fd5b5035919050565b60ff60f81b881681525f602060e08184015261142b60e084018a6112bb565b838103604085015261143d818a6112bb565b606085018990526001600160a01b038816608086015260a0850187905284810360c086015285518082528387019250908301905f5b8181101561148e57835183529284019291840191600101611472565b50909c9b505050505050505050505050565b5f805f805f805f60e0888a0312156114b6575f80fd5b6114bf88611310565b96506114cd60208901611310565b95506040880135945060608801359350608088013560ff811681146114f0575f80fd5b9699959850939692959460a0840135945060c09093013592915050565b5f806040838503121561151e575f80fd5b61152783611310565b915061153560208401611310565b90509250929050565b600181811c9082168061155257607f821691505b60208210810361157057634e487b7160e01b5f52602260045260245ffd5b50919050565b8082018082111561064c57634e487b7160e01b5f52601160045260245ffd5b634e487b7160e01b5f52602160045260245ffdfea2646970667358221220e2bbdbf9c4beee644aef5e81c4727db24fbe891ef7ca7a37e6045509b160489764736f6c63430008140033",
  "linkReferences": {},
  "deployedLinkReferences": {}
}