{
  "_format": "hh-sol-artifact-1",
  "contractName": "$Math",
  "sourceName": "contracts-exposed/utils/math/Math.sol",
  "abi": [
    {
      "inputs": [],
      "stateMutability": "payable",
      "type": "constructor"
    },
    {
      "inputs": [],
      "name": "MathOverflowedMulDiv",
      "type": "error"
    },
    {
      "inputs": [
        {
          "internalType": "uint256",
          "name": "a",
          "type": "uint256"
        },
        {
          "internalType": "uint256",
          "name": "b",
          "type": "uint256"
        }
      ],
      "name": "$average",
      "outputs": [
        {
          "internalType": "uint256",
          "name": "ret0",
          "type": "uint256"
        }
      ],
      "stateMutability": "pure",
      "type": "function"
    },
    {
      "inputs": [
        {
          "internalType": "uint256",
          "name": "a",
          "type": "uint256"
        },
        {
          "internalType": "uint256",
          "name": "b",
          "type": "uint256"
        }
      ],
      "name": "$ceilDiv",
      "outputs": [
        {
          "internalType": "uint256",
          "name": "ret0",
          "type": "uint256"
        }
      ],
      "stateMutability": "pure",
      "type": "function"
    },
    {
      "inputs": [
        {
          "internalType": "uint256",
          "name": "value",
          "type": "uint256"
        },
        {
          "internalType": "enum Math.Rounding",
          "name": "rounding",
          "type": "uint8"
        }
      ],
      "name": "$log10",
      "outputs": [
        {
          "internalType": "uint256",
          "name": "ret0",
          "type": "uint256"
        }
      ],
      "stateMutability": "pure",
      "type": "function"
    },
    {
      "inputs": [
        {
          "internalType": "uint256",
          "name": "value",
          "type": "uint256"
        }
      ],
      "name": "$log10",
      "outputs": [
        {
          "internalType": "uint256",
          "name": "ret0",
          "type": "uint256"
        }
      ],
      "stateMutability": "pure",
      "type": "function"
    },
    {
      "inputs": [
        {
          "internalType": "uint256",
          "name": "value",
          "type": "uint256"
        }
      ],
      "name": "$log2",
      "outputs": [
        {
          "internalType": "uint256",
          "name": "ret0",
          "type": "uint256"
        }
      ],
      "stateMutability": "pure",
      "type": "function"
    },
    {
      "inputs": [
        {
          "internalType": "uint256",
          "name": "value",
          "type": "uint256"
        },
        {
          "internalType": "enum Math.Rounding",
          "name": "rounding",
          "type": "uint8"
        }
      ],
      "name": "$log2",
      "outputs": [
        {
          "internalType": "uint256",
          "name": "ret0",
          "type": "uint256"
        }
      ],
      "stateMutability": "pure",
      "type": "function"
    },
    {
      "inputs": [
        {
          "internalType": "uint256",
          "name": "value",
          "type": "uint256"
        },
        {
          "internalType": "enum Math.Rounding",
          "name": "rounding",
          "type": "uint8"
        }
      ],
      "name": "$log256",
      "outputs": [
        {
          "internalType": "uint256",
          "name": "ret0",
          "type": "uint256"
        }
      ],
      "stateMutability": "pure",
      "type": "function"
    },
    {
      "inputs": [
        {
          "internalType": "uint256",
          "name": "value",
          "type": "uint256"
        }
      ],
      "name": "$log256",
      "outputs": [
        {
          "internalType": "uint256",
          "name": "ret0",
          "type": "uint256"
        }
      ],
      "stateMutability": "pure",
      "type": "function"
    },
    {
      "inputs": [
        {
          "internalType": "uint256",
          "name": "a",
          "type": "uint256"
        },
        {
          "internalType": "uint256",
          "name": "b",
          "type": "uint256"
        }
      ],
      "name": "$max",
      "outputs": [
        {
          "internalType": "uint256",
          "name": "ret0",
          "type": "uint256"
        }
      ],
      "stateMutability": "pure",
      "type": "function"
    },
    {
      "inputs": [
        {
          "internalType": "uint256",
          "name": "a",
          "type": "uint256"
        },
        {
          "internalType": "uint256",
          "name": "b",
          "type": "uint256"
        }
      ],
      "name": "$min",
      "outputs": [
        {
          "internalType": "uint256",
          "name": "ret0",
          "type": "uint256"
        }
      ],
      "stateMutability": "pure",
      "type": "function"
    },
    {
      "inputs": [
        {
          "internalType": "uint256",
          "name": "x",
          "type": "uint256"
        },
        {
          "internalType": "uint256",
          "name": "y",
          "type": "uint256"
        },
        {
          "internalType": "uint256",
          "name": "denominator",
          "type": "uint256"
        },
        {
          "internalType": "enum Math.Rounding",
          "name": "rounding",
          "type": "uint8"
        }
      ],
      "name": "$mulDiv",
      "outputs": [
        {
          "internalType": "uint256",
          "name": "ret0",
          "type": "uint256"
        }
      ],
      "stateMutability": "pure",
      "type": "function"
    },
    {
      "inputs": [
        {
          "internalType": "uint256",
          "name": "x",
          "type": "uint256"
        },
        {
          "internalType": "uint256",
          "name": "y",
          "type": "uint256"
        },
        {
          "internalType": "uint256",
          "name": "denominator",
          "type": "uint256"
        }
      ],
      "name": "$mulDiv",
      "outputs": [
        {
          "internalType": "uint256",
          "name": "result",
          "type": "uint256"
        }
      ],
      "stateMutability": "pure",
      "type": "function"
    },
    {
      "inputs": [
        {
          "internalType": "uint256",
          "name": "a",
          "type": "uint256"
        },
        {
          "internalType": "enum Math.Rounding",
          "name": "rounding",
          "type": "uint8"
        }
      ],
      "name": "$sqrt",
      "outputs": [
        {
          "internalType": "uint256",
          "name": "ret0",
          "type": "uint256"
        }
      ],
      "stateMutability": "pure",
      "type": "function"
    },
    {
      "inputs": [
        {
          "internalType": "uint256",
          "name": "a",
          "type": "uint256"
        }
      ],
      "name": "$sqrt",
      "outputs": [
        {
          "internalType": "uint256",
          "name": "ret0",
          "type": "uint256"
        }
      ],
      "stateMutability": "pure",
      "type": "function"
    },
    {
      "inputs": [
        {
          "internalType": "uint256",
          "name": "a",
          "type": "uint256"
        },
        {
          "internalType": "uint256",
          "name": "b",
          "type": "uint256"
        }
      ],
      "name": "$tryAdd",
      "outputs": [
        {
          "internalType": "bool",
          "name": "ret0",
          "type": "bool"
        },
        {
          "internalType": "uint256",
          "name": "ret1",
          "type": "uint256"
        }
      ],
      "stateMutability": "pure",
      "type": "function"
    },
    {
      "inputs": [
        {
          "internalType": "uint256",
          "name": "a",
          "type": "uint256"
        },
        {
          "internalType": "uint256",
          "name": "b",
          "type": "uint256"
        }
      ],
      "name": "$tryDiv",
      "outputs": [
        {
          "internalType": "bool",
          "name": "ret0",
          "type": "bool"
        },
        {
          "internalType": "uint256",
          "name": "ret1",
          "type": "uint256"
        }
      ],
      "stateMutability": "pure",
      "type": "function"
    },
    {
      "inputs": [
        {
          "internalType": "uint256",
          "name": "a",
          "type": "uint256"
        },
        {
          "internalType": "uint256",
          "name": "b",
          "type": "uint256"
        }
      ],
      "name": "$tryMod",
      "outputs": [
        {
          "internalType": "bool",
          "name": "ret0",
          "type": "bool"
        },
        {
          "internalType": "uint256",
          "name": "ret1",
          "type": "uint256"
        }
      ],
      "stateMutability": "pure",
      "type": "function"
    },
    {
      "inputs": [
        {
          "internalType": "uint256",
          "name": "a",
          "type": "uint256"
        },
        {
          "internalType": "uint256",
          "name": "b",
          "type": "uint256"
        }
      ],
      "name": "$tryMul",
      "outputs": [
        {
          "internalType": "bool",
          "name": "ret0",
          "type": "bool"
        },
        {
          "internalType": "uint256",
          "name": "ret1",
          "type": "uint256"
        }
      ],
      "stateMutability": "pure",
      "type": "function"
    },
    {
      "inputs": [
        {
          "internalType": "uint256",
          "name": "a",
          "type": "uint256"
        },
        {
          "internalType": "uint256",
          "name": "b",
          "type": "uint256"
        }
      ],
      "name": "$trySub",
      "outputs": [
        {
          "internalType": "bool",
          "name": "ret0",
          "type": "bool"
        },
        {
          "internalType": "uint256",
          "name": "ret1",
          "type": "uint256"
        }
      ],
      "stateMutability": "pure",
      "type": "function"
    },
    {
      "inputs": [
        {
          "internalType": "enum Math.Rounding",
          "name": "rounding",
          "type": "uint8"
        }
      ],
      "name": "$unsignedRoundsUp",
      "outputs": [
        {
          "internalType": "bool",
          "name": "ret0",
          "type": "bool"
        }
      ],
      "stateMutability": "pure",
      "type": "function"
    },
    {
      "inputs": [],
      "name": "__hh_exposed_bytecode_marker",
      "outputs": [
        {
          "internalType": "bytes32",
          "name": "",
          "type": "bytes32"
        }
      ],
      "stateMutability": "view",
      "type": "function"
    },
    {
      "stateMutability": "payable",
      "type": "receive"
    }
  ],
  "bytecode": "0x6080604052610ce6806100115f395ff3fe608060405260043610610129575f3560e01c80638297669e116100a8578063b30b5c541161006d578063b30b5c5414610345578063bed59e3f14610364578063c7e099df14610383578063d3165dad146103a2578063d7343fc5146103c1578063f2e5c907146103e0575f80fd5b80638297669e146102aa578063879f1a90146102c95780638c9f9553146102e85780639198059c146103075780639cb9837514610326575f80fd5b8063342db739116100ee578063342db73914610209578063421cc11e1461022e578063515581451461024d57806356f58b261461026c5780637ec960031461028b575f80fd5b806309475312146101345780631c71f2b9146101665780631c822c5c1461019c5780631eb4adde146101bb578063257b616d146101da575f80fd5b3661013057005b5f80fd5b34801561013f575f80fd5b5061015361014e366004610b28565b6103ff565b6040519081526020015b60405180910390f35b348015610171575f80fd5b50610185610180366004610b28565b610411565b60408051921515835260208301919091520161015d565b3480156101a7575f80fd5b506101536101b6366004610b5b565b610428565b3480156101c6575f80fd5b506101856101d5366004610b28565b61043e565b3480156101e5575f80fd5b506101f96101f4366004610b97565b61044a565b604051901515815260200161015d565b348015610214575f80fd5b506101536e1a185c991a185d0b595e1c1bdcd959608a1b81565b348015610239575f80fd5b50610153610248366004610b28565b61045a565b348015610258575f80fd5b50610185610267366004610b28565b610465565b348015610277575f80fd5b50610153610286366004610bb0565b610471565b348015610296575f80fd5b506101536102a5366004610bda565b61047c565b3480156102b5575f80fd5b506101536102c4366004610c03565b610490565b3480156102d4575f80fd5b506101536102e3366004610c03565b61049a565b3480156102f3575f80fd5b50610185610302366004610b28565b6104a4565b348015610312575f80fd5b50610153610321366004610b28565b6104b0565b348015610331575f80fd5b50610153610340366004610bb0565b6104bb565b348015610350575f80fd5b5061015361035f366004610bb0565b6104c6565b34801561036f575f80fd5b5061015361037e366004610c03565b6104d1565b34801561038e575f80fd5b5061015361039d366004610b28565b6104db565b3480156103ad575f80fd5b506101856103bc366004610b28565b6104e6565b3480156103cc575f80fd5b506101536103db366004610bb0565b6104f2565b3480156103eb575f80fd5b506101536103fa366004610c03565b6104fd565b5f61040a8383610507565b9392505050565b5f8061041d8484610521565b909590945092505050565b5f61043585858585610545565b95945050505050565b5f8061041d8484610592565b5f610454826105c2565b92915050565b5f61040a83836105ee565b5f8061041d8484610603565b5f61040a8383610633565b5f61048884848461066f565b949350505050565b5f6104548261072c565b5f610454826107bf565b5f8061041d8484610896565b5f61040a83836108db565b5f61040a83836108e9565b5f61040a8383610917565b5f61045482610949565b5f61040a83836109b2565b5f8061041d84846109ff565b5f61040a8383610a18565b5f61045482610a44565b5f6105156002848418610c42565b61040a90848416610c55565b5f808383111561053557505f90508061053e565b50600190508183035b9250929050565b5f8061055286868661066f565b905061055d836105c2565b801561057857505f848061057357610573610c1a565b868809115b1561043557610588600182610c55565b9695505050505050565b5f80825f036105a557505f90508061053e565b60018385816105b6576105b6610c1a565b06915091509250929050565b5f60028260038111156105d7576105d7610c68565b6105e19190610c7c565b60ff166001149050919050565b5f8183116105fc578161040a565b5090919050565b5f80825f0361061657505f90508061053e565b600183858161062757610627610c1a565b04915091509250929050565b5f8061063e846107bf565b9050610649836105c2565b801561065757508381600a0a105b610661575f610664565b60015b60ff16019392505050565b5f80805f19858709858702925082811083820303915050805f036106a65783828161069c5761069c610c1a565b049250505061040a565b8084116106c65760405163227bc15360e01b815260040160405180910390fd5b5f84868809600260036001881981018916988990049182028318808302840302808302840302808302840302808302840302808302840302918202909203025f889003889004909101858311909403939093029303949094049190911702949350505050565b5f80608083901c1561074057608092831c92015b604083901c1561075257604092831c92015b602083901c1561076457602092831c92015b601083901c1561077657601092831c92015b600883901c1561078857600892831c92015b600483901c1561079a57600492831c92015b600283901c156107ac57600292831c92015b600183901c156104545760010192915050565b5f8072184f03e93ff9f4daa797ed6e38ed64bf6a1f0160401b83106107fd5772184f03e93ff9f4daa797ed6e38ed64bf6a1f0160401b830492506040015b6d04ee2d6d415b85acef81000000008310610829576d04ee2d6d415b85acef8100000000830492506020015b662386f26fc10000831061084757662386f26fc10000830492506010015b6305f5e100831061085f576305f5e100830492506008015b612710831061087357612710830492506004015b60648310610885576064830492506002015b600a83106104545760010192915050565b5f80835f036108aa5750600190505f61053e565b838302838582816108bd576108bd610c1a565b04146108cf575f80925092505061053e565b60019590945092505050565b5f8183106105fc578161040a565b5f806108f48461072c565b90506108ff836105c2565b8015610657575083816001901b10610661575f610664565b5f8061092284610949565b905061092d836105c2565b8015610657575083600382901b6001901b10610661575f610664565b5f80608083901c156109605760809290921c916010015b604083901c156109755760409290921c916008015b602083901c1561098a5760209290921c916004015b601083901c1561099f5760109290921c916002015b600883901c156104545760010192915050565b5f815f036109cb576109c48284610c42565b9050610454565b82156109f757816109dd600185610c9d565b6109e79190610c42565b6109f2906001610c55565b61040a565b505f92915050565b5f80838301848110156108cf575f80925092505061053e565b5f80610a2384610a44565b9050610a2e836105c2565b801561065757508381820210610661575f610664565b5f815f03610a5357505f919050565b5f6001610a5f8461072c565b901c6001901b90506001818481610a7857610a78610c1a565b048201901c90506001818481610a9057610a90610c1a565b048201901c90506001818481610aa857610aa8610c1a565b048201901c90506001818481610ac057610ac0610c1a565b048201901c90506001818481610ad857610ad8610c1a565b048201901c90506001818481610af057610af0610c1a565b048201901c90506001818481610b0857610b08610c1a565b048201901c905061040a81828581610b2257610b22610c1a565b046108db565b5f8060408385031215610b39575f80fd5b50508035926020909101359150565b803560048110610b56575f80fd5b919050565b5f805f8060808587031215610b6e575f80fd5b843593506020850135925060408501359150610b8c60608601610b48565b905092959194509250565b5f60208284031215610ba7575f80fd5b61040a82610b48565b5f8060408385031215610bc1575f80fd5b82359150610bd160208401610b48565b90509250929050565b5f805f60608486031215610bec575f80fd5b505081359360208301359350604090920135919050565b5f60208284031215610c13575f80fd5b5035919050565b634e487b7160e01b5f52601260045260245ffd5b634e487b7160e01b5f52601160045260245ffd5b5f82610c5057610c50610c1a565b500490565b8082018082111561045457610454610c2e565b634e487b7160e01b5f52602160045260245ffd5b5f60ff831680610c8e57610c8e610c1a565b8060ff84160691505092915050565b8181038181111561045457610454610c2e56fea26469706673582212202f2d48e6a905d4ab1fa51e1742e60db5ed61ff01e1f84315ffcebdfeee1f83c664736f6c63430008140033",
  "linkReferences": {},
  "deployedLinkReferences": {}
}