{
  "_format": "hh-sol-artifact-1",
  "contractName": "SampleMother",
  "sourceName": "contracts/mocks/MultipleInheritanceInitializableMocks.sol",
  "abi": [
    {
      "inputs": [],
      "name": "AlreadyInitialized",
      "type": "error"
    },
    {
      "inputs": [],
      "name": "NotInitializing",
      "type": "error"
    },
    {
      "anonymous": false,
      "inputs": [
        {
          "indexed": false,
          "internalType": "uint8",
          "name": "version",
          "type": "uint8"
        }
      ],
      "name": "Initialized",
      "type": "event"
    },
    {
      "inputs": [],
      "name": "initialize",
      "outputs": [],
      "stateMutability": "nonpayable",
      "type": "function"
    },
    {
      "inputs": [
        {
          "internalType": "uint256",
          "name": "value",
          "type": "uint256"
        }
      ],
      "name": "initialize",
      "outputs": [],
      "stateMutability": "nonpayable",
      "type": "function"
    },
    {
      "inputs": [],
      "name": "isHuman",
      "outputs": [
        {
          "internalType": "bool",
          "name": "",
          "type": "bool"
        }
      ],
      "stateMutability": "view",
      "type": "function"
    },
    {
      "inputs": [],
      "name": "mother",
      "outputs": [
        {
          "internalType": "uint256",
          "name": "",
          "type": "uint256"
        }
      ],
      "stateMutability": "view",
      "type": "function"
    }
  ],
  "bytecode": "0x608060405234801561000f575f80fd5b506103588061001d5f395ff3fe608060405234801561000f575f80fd5b506004361061004a575f3560e01c80634a6c9db61461004e5780638129fc1c14610075578063ed7dfee31461007f578063fe4b84df14610096575b5f80fd5b5f546100609062010000900460ff1681565b60405190151581526020015b60405180910390f35b61007d6100a9565b005b61008860015481565b60405190815260200161006c565b61007d6100a436600461030b565b610172565b5f54610100900460ff16158080156100c757505f54600160ff909116105b1580156100e45750303b1580156100e257505f5460ff166001145b155b156101015760405162dc149f60e41b815260040160405180910390fd5b5f805460ff191660011790558015610122575f805461ff0019166101001790555b61012a61023d565b801561016f575f805461ff0019169055604051600181527f7f26b83ff96e1f2b6a682f133852f6798a09c465da95921460cefb38474024989060200160405180910390a15b50565b5f54610100900460ff161580801561019057505f54600160ff909116105b1580156101ad5750303b1580156101ab57505f5460ff166001145b155b156101ca5760405162dc149f60e41b815260040160405180910390fd5b5f805460ff1916600117905580156101eb575f805461ff0019166101001790555b6101f48261026e565b8015610239575f805461ff0019169055604051600181527f7f26b83ff96e1f2b6a682f133852f6798a09c465da95921460cefb38474024989060200160405180910390a15b5050565b5f54610100900460ff1661026457604051631afcd79f60e31b815260040160405180910390fd5b61026c6102a6565b565b5f54610100900460ff1661029557604051631afcd79f60e31b815260040160405180910390fd5b61029d61023d565b61016f816102df565b5f54610100900460ff166102cd57604051631afcd79f60e31b815260040160405180910390fd5b5f805462ff0000191662010000179055565b5f54610100900460ff1661030657604051631afcd79f60e31b815260040160405180910390fd5b600155565b5f6020828403121561031b575f80fd5b503591905056fea26469706673582212202f8d67b369fb300356440374b5c79bb3aee5d6b06c82a3a9d7ea2765714e584d64736f6c63430008140033",
  "linkReferences": {},
  "deployedLinkReferences": {}
}