{
  "_format": "hh-sol-artifact-1",
  "contractName": "$ERC721Consecutive",
  "sourceName": "contracts-exposed/token/ERC721/extensions/ERC721Consecutive.sol",
  "abi": [
    {
      "inputs": [
        {
          "internalType": "string",
          "name": "name_",
          "type": "string"
        },
        {
          "internalType": "string",
          "name": "symbol_",
          "type": "string"
        }
      ],
      "stateMutability": "payable",
      "type": "constructor"
    },
    {
      "inputs": [],
      "name": "CheckpointUnorderedInsertion",
      "type": "error"
    },
    {
      "inputs": [
        {
          "internalType": "uint256",
          "name": "batchSize",
          "type": "uint256"
        },
        {
          "internalType": "uint256",
          "name": "maxBatch",
          "type": "uint256"
        }
      ],
      "name": "ERC721ExceededMaxBatchMint",
      "type": "error"
    },
    {
      "inputs": [],
      "name": "ERC721ForbiddenBatchBurn",
      "type": "error"
    },
    {
      "inputs": [],
      "name": "ERC721ForbiddenBatchMint",
      "type": "error"
    },
    {
      "inputs": [],
      "name": "ERC721ForbiddenMint",
      "type": "error"
    },
    {
      "inputs": [
        {
          "internalType": "address",
          "name": "sender",
          "type": "address"
        },
        {
          "internalType": "uint256",
          "name": "tokenId",
          "type": "uint256"
        },
        {
          "internalType": "address",
          "name": "owner",
          "type": "address"
        }
      ],
      "name": "ERC721IncorrectOwner",
      "type": "error"
    },
    {
      "inputs": [
        {
          "internalType": "address",
          "name": "operator",
          "type": "address"
        },
        {
          "internalType": "uint256",
          "name": "tokenId",
          "type": "uint256"
        }
      ],
      "name": "ERC721InsufficientApproval",
      "type": "error"
    },
    {
      "inputs": [
        {
          "internalType": "address",
          "name": "approver",
          "type": "address"
        }
      ],
      "name": "ERC721InvalidApprover",
      "type": "error"
    },
    {
      "inputs": [
        {
          "internalType": "address",
          "name": "operator",
          "type": "address"
        }
      ],
      "name": "ERC721InvalidOperator",
      "type": "error"
    },
    {
      "inputs": [
        {
          "internalType": "address",
          "name": "owner",
          "type": "address"
        }
      ],
      "name": "ERC721InvalidOwner",
      "type": "error"
    },
    {
      "inputs": [
        {
          "internalType": "address",
          "name": "receiver",
          "type": "address"
        }
      ],
      "name": "ERC721InvalidReceiver",
      "type": "error"
    },
    {
      "inputs": [
        {
          "internalType": "address",
          "name": "sender",
          "type": "address"
        }
      ],
      "name": "ERC721InvalidSender",
      "type": "error"
    },
    {
      "inputs": [
        {
          "internalType": "uint256",
          "name": "tokenId",
          "type": "uint256"
        }
      ],
      "name": "ERC721NonexistentToken",
      "type": "error"
    },
    {
      "anonymous": false,
      "inputs": [
        {
          "indexed": true,
          "internalType": "address",
          "name": "owner",
          "type": "address"
        },
        {
          "indexed": true,
          "internalType": "address",
          "name": "approved",
          "type": "address"
        },
        {
          "indexed": true,
          "internalType": "uint256",
          "name": "tokenId",
          "type": "uint256"
        }
      ],
      "name": "Approval",
      "type": "event"
    },
    {
      "anonymous": false,
      "inputs": [
        {
          "indexed": true,
          "internalType": "address",
          "name": "owner",
          "type": "address"
        },
        {
          "indexed": true,
          "internalType": "address",
          "name": "operator",
          "type": "address"
        },
        {
          "indexed": false,
          "internalType": "bool",
          "name": "approved",
          "type": "bool"
        }
      ],
      "name": "ApprovalForAll",
      "type": "event"
    },
    {
      "anonymous": false,
      "inputs": [
        {
          "indexed": true,
          "internalType": "uint256",
          "name": "fromTokenId",
          "type": "uint256"
        },
        {
          "indexed": false,
          "internalType": "uint256",
          "name": "toTokenId",
          "type": "uint256"
        },
        {
          "indexed": true,
          "internalType": "address",
          "name": "fromAddress",
          "type": "address"
        },
        {
          "indexed": true,
          "internalType": "address",
          "name": "toAddress",
          "type": "address"
        }
      ],
      "name": "ConsecutiveTransfer",
      "type": "event"
    },
    {
      "anonymous": false,
      "inputs": [
        {
          "indexed": true,
          "internalType": "address",
          "name": "from",
          "type": "address"
        },
        {
          "indexed": true,
          "internalType": "address",
          "name": "to",
          "type": "address"
        },
        {
          "indexed": true,
          "internalType": "uint256",
          "name": "tokenId",
          "type": "uint256"
        }
      ],
      "name": "Transfer",
      "type": "event"
    },
    {
      "anonymous": false,
      "inputs": [
        {
          "indexed": false,
          "internalType": "uint96",
          "name": "ret0",
          "type": "uint96"
        }
      ],
      "name": "return$_mintConsecutive",
      "type": "event"
    },
    {
      "inputs": [
        {
          "internalType": "address",
          "name": "account",
          "type": "address"
        },
        {
          "internalType": "uint256",
          "name": "value",
          "type": "uint256"
        }
      ],
      "name": "$__unsafe_increaseBalance",
      "outputs": [],
      "stateMutability": "nonpayable",
      "type": "function"
    },
    {
      "inputs": [
        {
          "internalType": "address",
          "name": "from",
          "type": "address"
        },
        {
          "internalType": "address",
          "name": "to",
          "type": "address"
        },
        {
          "internalType": "uint256",
          "name": "firstTokenId",
          "type": "uint256"
        },
        {
          "internalType": "uint256",
          "name": "batchSize",
          "type": "uint256"
        }
      ],
      "name": "$_afterTokenTransfer",
      "outputs": [],
      "stateMutability": "nonpayable",
      "type": "function"
    },
    {
      "inputs": [
        {
          "internalType": "address",
          "name": "to",
          "type": "address"
        },
        {
          "internalType": "uint256",
          "name": "tokenId",
          "type": "uint256"
        }
      ],
      "name": "$_approve",
      "outputs": [],
      "stateMutability": "nonpayable",
      "type": "function"
    },
    {
      "inputs": [],
      "name": "$_baseURI",
      "outputs": [
        {
          "internalType": "string",
          "name": "ret0",
          "type": "string"
        }
      ],
      "stateMutability": "view",
      "type": "function"
    },
    {
      "inputs": [
        {
          "internalType": "address",
          "name": "from",
          "type": "address"
        },
        {
          "internalType": "address",
          "name": "to",
          "type": "address"
        },
        {
          "internalType": "uint256",
          "name": "firstTokenId",
          "type": "uint256"
        },
        {
          "internalType": "uint256",
          "name": "batchSize",
          "type": "uint256"
        }
      ],
      "name": "$_beforeTokenTransfer",
      "outputs": [],
      "stateMutability": "nonpayable",
      "type": "function"
    },
    {
      "inputs": [
        {
          "internalType": "uint256",
          "name": "tokenId",
          "type": "uint256"
        }
      ],
      "name": "$_burn",
      "outputs": [],
      "stateMutability": "nonpayable",
      "type": "function"
    },
    {
      "inputs": [
        {
          "internalType": "uint256",
          "name": "tokenId",
          "type": "uint256"
        }
      ],
      "name": "$_exists",
      "outputs": [
        {
          "internalType": "bool",
          "name": "ret0",
          "type": "bool"
        }
      ],
      "stateMutability": "view",
      "type": "function"
    },
    {
      "inputs": [],
      "name": "$_firstConsecutiveId",
      "outputs": [
        {
          "internalType": "uint96",
          "name": "ret0",
          "type": "uint96"
        }
      ],
      "stateMutability": "view",
      "type": "function"
    },
    {
      "inputs": [
        {
          "internalType": "address",
          "name": "spender",
          "type": "address"
        },
        {
          "internalType": "uint256",
          "name": "tokenId",
          "type": "uint256"
        }
      ],
      "name": "$_isApprovedOrOwner",
      "outputs": [
        {
          "internalType": "bool",
          "name": "ret0",
          "type": "bool"
        }
      ],
      "stateMutability": "view",
      "type": "function"
    },
    {
      "inputs": [],
      "name": "$_maxBatchSize",
      "outputs": [
        {
          "internalType": "uint96",
          "name": "ret0",
          "type": "uint96"
        }
      ],
      "stateMutability": "view",
      "type": "function"
    },
    {
      "inputs": [
        {
          "internalType": "address",
          "name": "to",
          "type": "address"
        },
        {
          "internalType": "uint256",
          "name": "tokenId",
          "type": "uint256"
        }
      ],
      "name": "$_mint",
      "outputs": [],
      "stateMutability": "nonpayable",
      "type": "function"
    },
    {
      "inputs": [
        {
          "internalType": "address",
          "name": "to",
          "type": "address"
        },
        {
          "internalType": "uint96",
          "name": "batchSize",
          "type": "uint96"
        }
      ],
      "name": "$_mintConsecutive",
      "outputs": [
        {
          "internalType": "uint96",
          "name": "ret0",
          "type": "uint96"
        }
      ],
      "stateMutability": "nonpayable",
      "type": "function"
    },
    {
      "inputs": [],
      "name": "$_msgData",
      "outputs": [
        {
          "internalType": "bytes",
          "name": "ret0",
          "type": "bytes"
        }
      ],
      "stateMutability": "view",
      "type": "function"
    },
    {
      "inputs": [],
      "name": "$_msgSender",
      "outputs": [
        {
          "internalType": "address",
          "name": "ret0",
          "type": "address"
        }
      ],
      "stateMutability": "view",
      "type": "function"
    },
    {
      "inputs": [
        {
          "internalType": "uint256",
          "name": "tokenId",
          "type": "uint256"
        }
      ],
      "name": "$_ownerOf",
      "outputs": [
        {
          "internalType": "address",
          "name": "ret0",
          "type": "address"
        }
      ],
      "stateMutability": "view",
      "type": "function"
    },
    {
      "inputs": [
        {
          "internalType": "uint256",
          "name": "tokenId",
          "type": "uint256"
        }
      ],
      "name": "$_requireMinted",
      "outputs": [],
      "stateMutability": "view",
      "type": "function"
    },
    {
      "inputs": [
        {
          "internalType": "address",
          "name": "to",
          "type": "address"
        },
        {
          "internalType": "uint256",
          "name": "tokenId",
          "type": "uint256"
        },
        {
          "internalType": "bytes",
          "name": "data",
          "type": "bytes"
        }
      ],
      "name": "$_safeMint",
      "outputs": [],
      "stateMutability": "nonpayable",
      "type": "function"
    },
    {
      "inputs": [
        {
          "internalType": "address",
          "name": "to",
          "type": "address"
        },
        {
          "internalType": "uint256",
          "name": "tokenId",
          "type": "uint256"
        }
      ],
      "name": "$_safeMint",
      "outputs": [],
      "stateMutability": "nonpayable",
      "type": "function"
    },
    {
      "inputs": [
        {
          "internalType": "address",
          "name": "from",
          "type": "address"
        },
        {
          "internalType": "address",
          "name": "to",
          "type": "address"
        },
        {
          "internalType": "uint256",
          "name": "tokenId",
          "type": "uint256"
        },
        {
          "internalType": "bytes",
          "name": "data",
          "type": "bytes"
        }
      ],
      "name": "$_safeTransfer",
      "outputs": [],
      "stateMutability": "nonpayable",
      "type": "function"
    },
    {
      "inputs": [
        {
          "internalType": "address",
          "name": "owner",
          "type": "address"
        },
        {
          "internalType": "address",
          "name": "operator",
          "type": "address"
        },
        {
          "internalType": "bool",
          "name": "approved",
          "type": "bool"
        }
      ],
      "name": "$_setApprovalForAll",
      "outputs": [],
      "stateMutability": "nonpayable",
      "type": "function"
    },
    {
      "inputs": [
        {
          "internalType": "address",
          "name": "from",
          "type": "address"
        },
        {
          "internalType": "address",
          "name": "to",
          "type": "address"
        },
        {
          "internalType": "uint256",
          "name": "tokenId",
          "type": "uint256"
        }
      ],
      "name": "$_transfer",
      "outputs": [],
      "stateMutability": "nonpayable",
      "type": "function"
    },
    {
      "inputs": [],
      "name": "__hh_exposed_bytecode_marker",
      "outputs": [
        {
          "internalType": "bytes32",
          "name": "",
          "type": "bytes32"
        }
      ],
      "stateMutability": "view",
      "type": "function"
    },
    {
      "inputs": [
        {
          "internalType": "address",
          "name": "to",
          "type": "address"
        },
        {
          "internalType": "uint256",
          "name": "tokenId",
          "type": "uint256"
        }
      ],
      "name": "approve",
      "outputs": [],
      "stateMutability": "nonpayable",
      "type": "function"
    },
    {
      "inputs": [
        {
          "internalType": "address",
          "name": "owner",
          "type": "address"
        }
      ],
      "name": "balanceOf",
      "outputs": [
        {
          "internalType": "uint256",
          "name": "",
          "type": "uint256"
        }
      ],
      "stateMutability": "view",
      "type": "function"
    },
    {
      "inputs": [
        {
          "internalType": "uint256",
          "name": "tokenId",
          "type": "uint256"
        }
      ],
      "name": "getApproved",
      "outputs": [
        {
          "internalType": "address",
          "name": "",
          "type": "address"
        }
      ],
      "stateMutability": "view",
      "type": "function"
    },
    {
      "inputs": [
        {
          "internalType": "address",
          "name": "owner",
          "type": "address"
        },
        {
          "internalType": "address",
          "name": "operator",
          "type": "address"
        }
      ],
      "name": "isApprovedForAll",
      "outputs": [
        {
          "internalType": "bool",
          "name": "",
          "type": "bool"
        }
      ],
      "stateMutability": "view",
      "type": "function"
    },
    {
      "inputs": [],
      "name": "name",
      "outputs": [
        {
          "internalType": "string",
          "name": "",
          "type": "string"
        }
      ],
      "stateMutability": "view",
      "type": "function"
    },
    {
      "inputs": [
        {
          "internalType": "uint256",
          "name": "tokenId",
          "type": "uint256"
        }
      ],
      "name": "ownerOf",
      "outputs": [
        {
          "internalType": "address",
          "name": "",
          "type": "address"
        }
      ],
      "stateMutability": "view",
      "type": "function"
    },
    {
      "inputs": [
        {
          "internalType": "address",
          "name": "from",
          "type": "address"
        },
        {
          "internalType": "address",
          "name": "to",
          "type": "address"
        },
        {
          "internalType": "uint256",
          "name": "tokenId",
          "type": "uint256"
        }
      ],
      "name": "safeTransferFrom",
      "outputs": [],
      "stateMutability": "nonpayable",
      "type": "function"
    },
    {
      "inputs": [
        {
          "internalType": "address",
          "name": "from",
          "type": "address"
        },
        {
          "internalType": "address",
          "name": "to",
          "type": "address"
        },
        {
          "internalType": "uint256",
          "name": "tokenId",
          "type": "uint256"
        },
        {
          "internalType": "bytes",
          "name": "data",
          "type": "bytes"
        }
      ],
      "name": "safeTransferFrom",
      "outputs": [],
      "stateMutability": "nonpayable",
      "type": "function"
    },
    {
      "inputs": [
        {
          "internalType": "address",
          "name": "operator",
          "type": "address"
        },
        {
          "internalType": "bool",
          "name": "approved",
          "type": "bool"
        }
      ],
      "name": "setApprovalForAll",
      "outputs": [],
      "stateMutability": "nonpayable",
      "type": "function"
    },
    {
      "inputs": [
        {
          "internalType": "bytes4",
          "name": "interfaceId",
          "type": "bytes4"
        }
      ],
      "name": "supportsInterface",
      "outputs": [
        {
          "internalType": "bool",
          "name": "",
          "type": "bool"
        }
      ],
      "stateMutability": "view",
      "type": "function"
    },
    {
      "inputs": [],
      "name": "symbol",
      "outputs": [
        {
          "internalType": "string",
          "name": "",
          "type": "string"
        }
      ],
      "stateMutability": "view",
      "type": "function"
    },
    {
      "inputs": [
        {
          "internalType": "uint256",
          "name": "tokenId",
          "type": "uint256"
        }
      ],
      "name": "tokenURI",
      "outputs": [
        {
          "internalType": "string",
          "name": "",
          "type": "string"
        }
      ],
      "stateMutability": "view",
      "type": "function"
    },
    {
      "inputs": [
        {
          "internalType": "address",
          "name": "from",
          "type": "address"
        },
        {
          "internalType": "address",
          "name": "to",
          "type": "address"
        },
        {
          "internalType": "uint256",
          "name": "tokenId",
          "type": "uint256"
        }
      ],
      "name": "transferFrom",
      "outputs": [],
      "stateMutability": "nonpayable",
      "type": "function"
    },
    {
      "stateMutability": "payable",
      "type": "receive"
    }
  ],
  "bytecode": "0x6080604052604051620021e9380380620021e983398101604081905262000026916200010d565b81815f620000358382620001ff565b506001620000448282620001ff565b5050505050620002c7565b634e487b7160e01b5f52604160045260245ffd5b5f82601f83011262000073575f80fd5b81516001600160401b03808211156200009057620000906200004f565b604051601f8301601f19908116603f01168101908282118183101715620000bb57620000bb6200004f565b81604052838152602092508683858801011115620000d7575f80fd5b5f91505b83821015620000fa5785820183015181830184015290820190620000db565b5f93810190920192909252949350505050565b5f80604083850312156200011f575f80fd5b82516001600160401b038082111562000136575f80fd5b620001448683870162000063565b935060208501519150808211156200015a575f80fd5b50620001698582860162000063565b9150509250929050565b600181811c908216806200018857607f821691505b602082108103620001a757634e487b7160e01b5f52602260045260245ffd5b50919050565b601f821115620001fa575f81815260208120601f850160051c81016020861015620001d55750805b601f850160051c820191505b81811015620001f657828155600101620001e1565b5050505b505050565b81516001600160401b038111156200021b576200021b6200004f565b62000233816200022c845462000173565b84620001ad565b602080601f83116001811462000269575f8415620002515750858301515b5f19600386901b1c1916600185901b178555620001f6565b5f85815260208120601f198616915b82811015620002995788860151825594840194600190910190840162000278565b5085821015620002b757878501515f19600388901b60f8161c191681555b5050505050600190811b01905550565b611f1480620002d55f395ff3fe6080604052600436106101ff575f3560e01c806398a1f7a011610113578063c87b56dd1161009d578063d261af541161006d578063d261af54146105cd578063e07084c2146105ec578063e203000d1461060b578063e985e9c51461061d578063efb43b071461063c575f80fd5b8063c87b56dd14610551578063cc461d6214610570578063cd43f47d1461058f578063cfeea0d4146105ae575f80fd5b8063b88d4fde116100e3578063b88d4fde146104ad578063b895757b146104cc578063c26838c5146104f4578063c37add5114610513578063c4a96fa614610532575f80fd5b806398a1f7a0146104315780639ff2f02d14610450578063a22cb4651461046f578063a2373a821461048e575f80fd5b80632904df2911610194578063458ee00211610164578063458ee002146103a15780636352211e146103c057806370a08231146103df578063733555ec146103fe57806395d89b411461041d575f80fd5b80632904df291461032957806332cadf3c1461033b578063342db7391461034f57806342842e0e14610382575f80fd5b806309854d72116101cf57806309854d72146102b7578063147619da146102d6578063161e977d146102f657806323b872dd1461030a575f80fd5b806301ffc9a71461020a57806306fdde031461023e578063081812fc1461025f578063095ea7b314610296575f80fd5b3661020657005b5f80fd5b348015610215575f80fd5b50610229610224366004611946565b61065b565b60405190151581526020015b60405180910390f35b348015610249575f80fd5b506102526106ac565b60405161023591906119ae565b34801561026a575f80fd5b5061027e6102793660046119c0565b61073b565b6040516001600160a01b039091168152602001610235565b3480156102a1575f80fd5b506102b56102b03660046119f2565b610760565b005b3480156102c2575f80fd5b506102b56102d13660046119c0565b6107fd565b3480156102e1575f80fd5b506102b56102f0366004611a1a565b50505050565b348015610301575f80fd5b50610252610809565b348015610315575f80fd5b506102b5610324366004611a59565b610824565b348015610334575f80fd5b503361027e565b348015610346575f80fd5b5061025261085f565b34801561035a575f80fd5b506103746e1a185c991a185d0b595e1c1bdcd959608a1b81565b604051908152602001610235565b34801561038d575f80fd5b506102b561039c366004611a59565b61089c565b3480156103ac575f80fd5b5061027e6103bb3660046119c0565b6108b6565b3480156103cb575f80fd5b5061027e6103da3660046119c0565b6108c0565b3480156103ea575f80fd5b506103746103f9366004611a92565b6108f7565b348015610409575f80fd5b506102b5610418366004611af0565b61093c565b348015610428575f80fd5b50610252610984565b34801561043c575f80fd5b506102b561044b3660046119f2565b610993565b34801561045b575f80fd5b506102b561046a366004611b5a565b6109a1565b34801561047a575f80fd5b506102b5610489366004611bbf565b6109e1565b348015610499575f80fd5b506102b56104a83660046119c0565b6109ec565b3480156104b8575f80fd5b506102b56104c7366004611c04565b6109f5565b3480156104d7575f80fd5b506113885b6040516001600160601b039091168152602001610235565b3480156104ff575f80fd5b506104dc61050e366004611cd9565b610a31565b34801561051e575f80fd5b5061022961052d3660046119c0565b610a81565b34801561053d575f80fd5b5061022961054c3660046119f2565b610a8b565b34801561055c575f80fd5b5061025261056b3660046119c0565b610a9d565b34801561057b575f80fd5b506102b561058a3660046119f2565b610b0c565b34801561059a575f80fd5b506102b56105a93660046119f2565b610b16565b3480156105b9575f80fd5b506102b56105c8366004611d19565b610b20565b3480156105d8575f80fd5b506102b56105e73660046119f2565b610b2b565b3480156105f7575f80fd5b506102b5610606366004611a1a565b610b35565b348015610616575f80fd5b505f6104dc565b348015610628575f80fd5b50610229610637366004611d59565b610b41565b348015610647575f80fd5b506102b5610656366004611a59565b610854565b5f6001600160e01b031982166380ac58cd60e01b148061068b57506001600160e01b03198216635b5e139f60e01b145b806106a657506301ffc9a760e01b6001600160e01b03198316145b92915050565b60605f80546106ba90611d81565b80601f01602080910402602001604051908101604052809291908181526020018280546106e690611d81565b80156107315780601f1061070857610100808354040283529160200191610731565b820191905f5260205f20905b81548152906001019060200180831161071457829003601f168201915b5050505050905090565b5f61074582610b6e565b505f908152600460205260409020546001600160a01b031690565b5f61076a826108c0565b9050806001600160a01b0316836001600160a01b0316036107ae57604051630b61174360e31b81526001600160a01b03821660048201526024015b60405180910390fd5b336001600160a01b038216148015906107ce57506107cc8133610b41565b155b156107ee5760405163a9fbf51f60e01b81523360048201526024016107a5565b6107f88383610b97565b505050565b61080681610b6e565b50565b606061081f60408051602081019091525f815290565b905090565b61082e3382610c04565b6108545760405163177e802f60e01b8152336004820152602481018290526044016107a5565b6107f8838383610c62565b60605f368080601f0160208091040260200160405190810160405280939291908181526020018383808284375f9201919091525092949350505050565b6107f883838360405180602001604052805f8152506109f5565b5f6106a682610df4565b5f806108cb83610df4565b90506001600160a01b0381166106a657604051637e27328960e01b8152600481018490526024016107a5565b5f6001600160a01b038216610921576040516322718ad960e21b81525f60048201526024016107a5565b506001600160a01b03165f9081526003602052604090205490565b61097d85858585858080601f0160208091040260200160405190810160405280939291908181526020018383808284375f92019190915250610e6992505050565b5050505050565b6060600180546106ba90611d81565b61099d8282610ea8565b5050565b6102f0848484848080601f0160208091040260200160405190810160405280939291908181526020018383808284375f92019190915250610ed892505050565b61099d338383610f16565b61080681610fbf565b6109ff3383610c04565b610a255760405163177e802f60e01b8152336004820152602481018390526044016107a5565b6102f084848484610e69565b5f610a3c838361107d565b6040516001600160601b03821681529091507f7a8bfd5fd00523f8302cd69cdf99d84752006f3fe7b006851ec4cdd02fab58ad9060200160405180910390a192915050565b5f6106a6826111ce565b5f610a968383610c04565b9392505050565b6060610aa882610b6e565b5f610abd60408051602081019091525f815290565b90505f815111610adb5760405180602001604052805f815250610a96565b80610ae5846111ea565b604051602001610af6929190611db9565b6040516020818303038152906040529392505050565b61099d828261127a565b61099d8282610b97565b6107f8838383610f16565b61099d82826112a5565b6102f0848484846112be565b6001600160a01b039182165f90815260056020908152604080832093909416825291909152205460ff1690565b610b77816111ce565b61080657604051637e27328960e01b8152600481018290526024016107a5565b5f81815260046020526040902080546001600160a01b0319166001600160a01b0384169081179091558190610bcb826108c0565b6001600160a01b03167f8c5be1e5ebec7d5bd14f71427d1e84f3dd0314c0f7b2291e5b200ac8c7c3b92560405160405180910390a45050565b5f80610c0f836108c0565b9050806001600160a01b0316846001600160a01b03161480610c365750610c368185610b41565b80610c5a5750836001600160a01b0316610c4f8461073b565b6001600160a01b0316145b949350505050565b5f610c6c826108c0565b9050836001600160a01b0316816001600160a01b031614610cba576040516364283d7b60e01b81526001600160a01b03808616600483015260248201849052821660448201526064016107a5565b6001600160a01b038316610ce357604051633250574960e11b81525f60048201526024016107a5565b610cec826108c0565b9050836001600160a01b0316816001600160a01b031614610d3a576040516364283d7b60e01b81526001600160a01b03808616600483015260248201849052821660448201526064016107a5565b5f82815260046020908152604080832080546001600160a01b03191690556001600160a01b038716835260039091528120805460019290610d7c908490611dfb565b90915550506001600160a01b038084165f81815260036020908152604080832080546001019055868352600290915280822080546001600160a01b031916841790555185938816917fddf252ad1be2c89b69c2b068fc378daa952ba7f163c4a11628f55a4df523b3ef91a46102f084848460016112be565b5f818152600260205260408120546001600160a01b031680151580610e1f57506001600160601b0383115b80610e2757505f5b15610e325792915050565b600883901c5f90815260076020526040902054600160ff85161b16610e6157610e5c60068461135b565b610a96565b5f9392505050565b610e74848484610c62565b610e80848484846113a0565b6102f057604051633250574960e11b81526001600160a01b03841660048201526024016107a5565b6001600160a01b0382165f9081526003602052604081208054839290610ecf908490611e0e565b90915550505050565b610ee2838361127a565b610eee5f8484846113a0565b6107f857604051633250574960e11b81526001600160a01b03841660048201526024016107a5565b816001600160a01b0316836001600160a01b031603610f5357604051630b61174360e31b81526001600160a01b03841660048201526024016107a5565b6001600160a01b038381165f81815260056020908152604080832094871680845294825291829020805460ff191686151590811790915591519182527f17307eab39ab6107e8899845ad3d59bd9653f200f220920489ca2b5937696c31910160405180910390a3505050565b5f610fc9826108c0565b9050610fd4826108c0565b5f83815260046020908152604080832080546001600160a01b03191690556001600160a01b038416835260039091528120805492935060019290919061101b908490611dfb565b90915550505f8281526002602052604080822080546001600160a01b0319169055518391906001600160a01b038416907fddf252ad1be2c89b69c2b068fc378daa952ba7f163c4a11628f55a4df523b3ef908390a461099d815f8460016112be565b5f806110876114a9565b90506001600160601b03831615610a9657303b156110b8576040516329cfc83160e11b815260040160405180910390fd5b6001600160a01b0384166110e157604051633250574960e11b81525f60048201526024016107a5565b6113886001600160601b038416811015611120576040516308f58e5760e41b81526001600160601b0385166004820152602481018290526044016107a5565b5f600161112d8685611e21565b6111379190611e48565b9050611145600682886114d8565b505061115a86866001600160601b0316610ea8565b6040516001600160601b0382811682526001600160a01b038816915f918616907fdeaa91b6123d068f5821d0fb0678463d1a8a6079fe8af5de3ce5e896dcf9133d9060200160405180910390a46111c55f87856001600160601b0316886001600160601b03166112be565b50509392505050565b5f806111d983610df4565b6001600160a01b0316141592915050565b60605f6111f6836114f2565b60010190505f8167ffffffffffffffff81111561121557611215611bf0565b6040519080825280601f01601f19166020018201604052801561123f576020820181803683370190505b5090508181016020015b5f19016f181899199a1a9b1b9c1cb0b131b232b360811b600a86061a8153600a850494508461124957509392505050565b303b5f0361129b576040516356c4a82960e11b815260040160405180910390fd5b61099d82826115c9565b61099d828260405180602001604052805f815250610ed8565b6001600160a01b0383161580156112d3575060015b80156112ee57506112e26114a9565b6001600160601b031682105b80156113125750600882901c5f90815260076020526040902054600160ff84161b16155b156102f0578060011461133857604051631d08916560e01b815260040160405180910390fd5b600882901c5f9081526007602052604090208054600160ff85161b1790556102f0565b81545f908161136c858583856116b7565b9050818114611395575f85815260209020810154600160601b90046001600160a01b0316611397565b5f5b95945050505050565b5f6001600160a01b0384163b1561149e57604051630a85bd0160e11b81526001600160a01b0385169063150b7a02906113e3903390899088908890600401611e68565b6020604051808303815f875af192505050801561141d575060408051601f3d908101601f1916820190925261141a91810190611ea4565b60015b611484573d80801561144a576040519150601f19603f3d011682016040523d82523d5f602084013e61144f565b606091505b5080515f0361147c57604051633250574960e11b81526001600160a01b03861660048201526024016107a5565b805181602001fd5b6001600160e01b031916630a85bd0160e11b149050610c5a565b506001949350505050565b5f805f6114b66006611718565b5091509150816114c6575f6114d1565b6114d1816001611e21565b9250505090565b5f806114e585858561179c565b915091505b935093915050565b5f8072184f03e93ff9f4daa797ed6e38ed64bf6a1f0160401b83106115305772184f03e93ff9f4daa797ed6e38ed64bf6a1f0160401b830492506040015b6d04ee2d6d415b85acef8100000000831061155c576d04ee2d6d415b85acef8100000000830492506020015b662386f26fc10000831061157a57662386f26fc10000830492506010015b6305f5e1008310611592576305f5e100830492506008015b61271083106115a657612710830492506004015b606483106115b8576064830492506002015b600a83106106a65760010192915050565b6001600160a01b0382166115f257604051633250574960e11b81525f60048201526024016107a5565b6115fb816111ce565b1561161b576040516339e3563760e11b81525f60048201526024016107a5565b611624816111ce565b15611644576040516339e3563760e11b81525f60048201526024016107a5565b6001600160a01b0382165f81815260036020908152604080832080546001019055848352600290915280822080546001600160a01b0319168417905551839291907fddf252ad1be2c89b69c2b068fc378daa952ba7f163c4a11628f55a4df523b3ef908290a461099d5f838360016112be565b5f5b81831015611710575f6116cc8484611917565b5f878152602090209091506001600160601b038616908201546001600160601b03161015611706576116ff816001611e0e565b935061170a565b8092505b506116b9565b509392505050565b80545f9081908190808203611736575f805f93509350935050611795565b5f61175386611746600185611dfb565b5f91825260209091200190565b6040805180820190915290546001600160601b038116808352600160601b9091046001600160a01b031660209092018290526001965094509250611795915050565b9193909250565b82545f90819080156118bc575f6117b887611746600185611dfb565b6040805180820190915290546001600160601b03808216808452600160601b9092046001600160a01b03166020840152919250908716101561180d57604051632520601d60e01b815260040160405180910390fd5b80516001600160601b0380881691160361185b578461183188611746600186611dfb565b80546001600160a01b0392909216600160601b026001600160601b039092169190911790556118ac565b604080518082019091526001600160601b0380881682526001600160a01b0380881660208085019182528b54600181018d555f8d81529190912094519151909216600160601b029216919091179101555b6020015192508391506114ea9050565b5050604080518082019091526001600160601b0380851682526001600160a01b0380851660208085019182528854600181018a555f8a815291822095519251909316600160601b0291909316179201919091559050816114ea565b5f6119256002848418611ebf565b610a9690848416611e0e565b6001600160e01b031981168114610806575f80fd5b5f60208284031215611956575f80fd5b8135610a9681611931565b5f5b8381101561197b578181015183820152602001611963565b50505f910152565b5f815180845261199a816020860160208601611961565b601f01601f19169290920160200192915050565b602081525f610a966020830184611983565b5f602082840312156119d0575f80fd5b5035919050565b80356001600160a01b03811681146119ed575f80fd5b919050565b5f8060408385031215611a03575f80fd5b611a0c836119d7565b946020939093013593505050565b5f805f8060808587031215611a2d575f80fd5b611a36856119d7565b9350611a44602086016119d7565b93969395505050506040820135916060013590565b5f805f60608486031215611a6b575f80fd5b611a74846119d7565b9250611a82602085016119d7565b9150604084013590509250925092565b5f60208284031215611aa2575f80fd5b610a96826119d7565b5f8083601f840112611abb575f80fd5b50813567ffffffffffffffff811115611ad2575f80fd5b602083019150836020828501011115611ae9575f80fd5b9250929050565b5f805f805f60808688031215611b04575f80fd5b611b0d866119d7565b9450611b1b602087016119d7565b935060408601359250606086013567ffffffffffffffff811115611b3d575f80fd5b611b4988828901611aab565b969995985093965092949392505050565b5f805f8060608587031215611b6d575f80fd5b611b76856119d7565b935060208501359250604085013567ffffffffffffffff811115611b98575f80fd5b611ba487828801611aab565b95989497509550505050565b803580151581146119ed575f80fd5b5f8060408385031215611bd0575f80fd5b611bd9836119d7565b9150611be760208401611bb0565b90509250929050565b634e487b7160e01b5f52604160045260245ffd5b5f805f8060808587031215611c17575f80fd5b611c20856119d7565b9350611c2e602086016119d7565b925060408501359150606085013567ffffffffffffffff80821115611c51575f80fd5b818701915087601f830112611c64575f80fd5b813581811115611c7657611c76611bf0565b604051601f8201601f19908116603f01168101908382118183101715611c9e57611c9e611bf0565b816040528281528a6020848701011115611cb6575f80fd5b826020860160208301375f60208483010152809550505050505092959194509250565b5f8060408385031215611cea575f80fd5b611cf3836119d7565b915060208301356001600160601b0381168114611d0e575f80fd5b809150509250929050565b5f805f60608486031215611d2b575f80fd5b611d34846119d7565b9250611d42602085016119d7565b9150611d5060408501611bb0565b90509250925092565b5f8060408385031215611d6a575f80fd5b611d73836119d7565b9150611be7602084016119d7565b600181811c90821680611d9557607f821691505b602082108103611db357634e487b7160e01b5f52602260045260245ffd5b50919050565b5f8351611dca818460208801611961565b835190830190611dde818360208801611961565b01949350505050565b634e487b7160e01b5f52601160045260245ffd5b818103818111156106a6576106a6611de7565b808201808211156106a6576106a6611de7565b6001600160601b03818116838216019080821115611e4157611e41611de7565b5092915050565b6001600160601b03828116828216039080821115611e4157611e41611de7565b6001600160a01b03858116825284166020820152604081018390526080606082018190525f90611e9a90830184611983565b9695505050505050565b5f60208284031215611eb4575f80fd5b8151610a9681611931565b5f82611ed957634e487b7160e01b5f52601260045260245ffd5b50049056fea2646970667358221220f605a77ffb7ef4c42d65e1c0acc18261fc5a293c90d33b94b523fa5d2fb5745d64736f6c63430008140033",
  "linkReferences": {},
  "deployedLinkReferences": {}
}