{
  "_format": "hh-sol-artifact-1",
  "contractName": "$ERC165ReturnBombMock",
  "sourceName": "contracts-exposed/mocks/ERC165/ERC165ReturnBomb.sol",
  "abi": [
    {
      "inputs": [],
      "stateMutability": "payable",
      "type": "constructor"
    },
    {
      "inputs": [],
      "name": "__hh_exposed_bytecode_marker",
      "outputs": [
        {
          "internalType": "bytes32",
          "name": "",
          "type": "bytes32"
        }
      ],
      "stateMutability": "view",
      "type": "function"
    },
    {
      "inputs": [
        {
          "internalType": "bytes4",
          "name": "interfaceId",
          "type": "bytes4"
        }
      ],
      "name": "supportsInterface",
      "outputs": [
        {
          "internalType": "bool",
          "name": "",
          "type": "bool"
        }
      ],
      "stateMutability": "pure",
      "type": "function"
    },
    {
      "stateMutability": "payable",
      "type": "receive"
    }
  ],
  "bytecode": "0x6080604052610117806100115f395ff3fe6080604052600436106028575f3560e01c806301ffc9a7146032578063342db739146061575f80fd5b36602e57005b5f80fd5b348015603c575f80fd5b50604c604836600460b5565b6091565b60405190151581526020015b60405180910390f35b348015606b575f80fd5b5060846e1a185c991a185d0b595e1c1bdcd959608a1b81565b6040519081526020016058565b5f63fe00365960e01b6001600160e01b031983160160ae5760015f525b62018c7c5ff35b5f6020828403121560c4575f80fd5b81356001600160e01b03198116811460da575f80fd5b939250505056fea26469706673582212202d348489a730ec9e1ff1682774cb7a3fcfe7250486705cb08d6443e50ad5191864736f6c63430008140033",
  "linkReferences": {},
  "deployedLinkReferences": {}
}