{
  "_format": "hh-sol-artifact-1",
  "contractName": "$ERC20Burnable",
  "sourceName": "contracts-exposed/token/ERC20/extensions/ERC20Burnable.sol",
  "abi": [
    {
      "inputs": [
        {
          "internalType": "string",
          "name": "name_",
          "type": "string"
        },
        {
          "internalType": "string",
          "name": "symbol_",
          "type": "string"
        }
      ],
      "stateMutability": "payable",
      "type": "constructor"
    },
    {
      "inputs": [
        {
          "internalType": "address",
          "name": "spender",
          "type": "address"
        },
        {
          "internalType": "uint256",
          "name": "currentAllowance",
          "type": "uint256"
        },
        {
          "internalType": "uint256",
          "name": "requestedDecrease",
          "type": "uint256"
        }
      ],
      "name": "ERC20FailedDecreaseAllowance",
      "type": "error"
    },
    {
      "inputs": [
        {
          "internalType": "address",
          "name": "spender",
          "type": "address"
        },
        {
          "internalType": "uint256",
          "name": "allowance",
          "type": "uint256"
        },
        {
          "internalType": "uint256",
          "name": "needed",
          "type": "uint256"
        }
      ],
      "name": "ERC20InsufficientAllowance",
      "type": "error"
    },
    {
      "inputs": [
        {
          "internalType": "address",
          "name": "sender",
          "type": "address"
        },
        {
          "internalType": "uint256",
          "name": "balance",
          "type": "uint256"
        },
        {
          "internalType": "uint256",
          "name": "needed",
          "type": "uint256"
        }
      ],
      "name": "ERC20InsufficientBalance",
      "type": "error"
    },
    {
      "inputs": [
        {
          "internalType": "address",
          "name": "approver",
          "type": "address"
        }
      ],
      "name": "ERC20InvalidApprover",
      "type": "error"
    },
    {
      "inputs": [
        {
          "internalType": "address",
          "name": "receiver",
          "type": "address"
        }
      ],
      "name": "ERC20InvalidReceiver",
      "type": "error"
    },
    {
      "inputs": [
        {
          "internalType": "address",
          "name": "sender",
          "type": "address"
        }
      ],
      "name": "ERC20InvalidSender",
      "type": "error"
    },
    {
      "inputs": [
        {
          "internalType": "address",
          "name": "spender",
          "type": "address"
        }
      ],
      "name": "ERC20InvalidSpender",
      "type": "error"
    },
    {
      "anonymous": false,
      "inputs": [
        {
          "indexed": true,
          "internalType": "address",
          "name": "owner",
          "type": "address"
        },
        {
          "indexed": true,
          "internalType": "address",
          "name": "spender",
          "type": "address"
        },
        {
          "indexed": false,
          "internalType": "uint256",
          "name": "value",
          "type": "uint256"
        }
      ],
      "name": "Approval",
      "type": "event"
    },
    {
      "anonymous": false,
      "inputs": [
        {
          "indexed": true,
          "internalType": "address",
          "name": "from",
          "type": "address"
        },
        {
          "indexed": true,
          "internalType": "address",
          "name": "to",
          "type": "address"
        },
        {
          "indexed": false,
          "internalType": "uint256",
          "name": "value",
          "type": "uint256"
        }
      ],
      "name": "Transfer",
      "type": "event"
    },
    {
      "inputs": [
        {
          "internalType": "address",
          "name": "owner",
          "type": "address"
        },
        {
          "internalType": "address",
          "name": "spender",
          "type": "address"
        },
        {
          "internalType": "uint256",
          "name": "value",
          "type": "uint256"
        },
        {
          "internalType": "bool",
          "name": "emitEvent",
          "type": "bool"
        }
      ],
      "name": "$_approve",
      "outputs": [],
      "stateMutability": "nonpayable",
      "type": "function"
    },
    {
      "inputs": [
        {
          "internalType": "address",
          "name": "owner",
          "type": "address"
        },
        {
          "internalType": "address",
          "name": "spender",
          "type": "address"
        },
        {
          "internalType": "uint256",
          "name": "value",
          "type": "uint256"
        }
      ],
      "name": "$_approve",
      "outputs": [],
      "stateMutability": "nonpayable",
      "type": "function"
    },
    {
      "inputs": [
        {
          "internalType": "address",
          "name": "account",
          "type": "address"
        },
        {
          "internalType": "uint256",
          "name": "value",
          "type": "uint256"
        }
      ],
      "name": "$_burn",
      "outputs": [],
      "stateMutability": "nonpayable",
      "type": "function"
    },
    {
      "inputs": [
        {
          "internalType": "address",
          "name": "account",
          "type": "address"
        },
        {
          "internalType": "uint256",
          "name": "value",
          "type": "uint256"
        }
      ],
      "name": "$_mint",
      "outputs": [],
      "stateMutability": "nonpayable",
      "type": "function"
    },
    {
      "inputs": [],
      "name": "$_msgData",
      "outputs": [
        {
          "internalType": "bytes",
          "name": "ret0",
          "type": "bytes"
        }
      ],
      "stateMutability": "view",
      "type": "function"
    },
    {
      "inputs": [],
      "name": "$_msgSender",
      "outputs": [
        {
          "internalType": "address",
          "name": "ret0",
          "type": "address"
        }
      ],
      "stateMutability": "view",
      "type": "function"
    },
    {
      "inputs": [
        {
          "internalType": "address",
          "name": "owner",
          "type": "address"
        },
        {
          "internalType": "address",
          "name": "spender",
          "type": "address"
        },
        {
          "internalType": "uint256",
          "name": "value",
          "type": "uint256"
        }
      ],
      "name": "$_spendAllowance",
      "outputs": [],
      "stateMutability": "nonpayable",
      "type": "function"
    },
    {
      "inputs": [
        {
          "internalType": "address",
          "name": "from",
          "type": "address"
        },
        {
          "internalType": "address",
          "name": "to",
          "type": "address"
        },
        {
          "internalType": "uint256",
          "name": "value",
          "type": "uint256"
        }
      ],
      "name": "$_transfer",
      "outputs": [],
      "stateMutability": "nonpayable",
      "type": "function"
    },
    {
      "inputs": [
        {
          "internalType": "address",
          "name": "from",
          "type": "address"
        },
        {
          "internalType": "address",
          "name": "to",
          "type": "address"
        },
        {
          "internalType": "uint256",
          "name": "value",
          "type": "uint256"
        }
      ],
      "name": "$_update",
      "outputs": [],
      "stateMutability": "nonpayable",
      "type": "function"
    },
    {
      "inputs": [],
      "name": "__hh_exposed_bytecode_marker",
      "outputs": [
        {
          "internalType": "bytes32",
          "name": "",
          "type": "bytes32"
        }
      ],
      "stateMutability": "view",
      "type": "function"
    },
    {
      "inputs": [
        {
          "internalType": "address",
          "name": "owner",
          "type": "address"
        },
        {
          "internalType": "address",
          "name": "spender",
          "type": "address"
        }
      ],
      "name": "allowance",
      "outputs": [
        {
          "internalType": "uint256",
          "name": "",
          "type": "uint256"
        }
      ],
      "stateMutability": "view",
      "type": "function"
    },
    {
      "inputs": [
        {
          "internalType": "address",
          "name": "spender",
          "type": "address"
        },
        {
          "internalType": "uint256",
          "name": "value",
          "type": "uint256"
        }
      ],
      "name": "approve",
      "outputs": [
        {
          "internalType": "bool",
          "name": "",
          "type": "bool"
        }
      ],
      "stateMutability": "nonpayable",
      "type": "function"
    },
    {
      "inputs": [
        {
          "internalType": "address",
          "name": "account",
          "type": "address"
        }
      ],
      "name": "balanceOf",
      "outputs": [
        {
          "internalType": "uint256",
          "name": "",
          "type": "uint256"
        }
      ],
      "stateMutability": "view",
      "type": "function"
    },
    {
      "inputs": [
        {
          "internalType": "uint256",
          "name": "value",
          "type": "uint256"
        }
      ],
      "name": "burn",
      "outputs": [],
      "stateMutability": "nonpayable",
      "type": "function"
    },
    {
      "inputs": [
        {
          "internalType": "address",
          "name": "account",
          "type": "address"
        },
        {
          "internalType": "uint256",
          "name": "value",
          "type": "uint256"
        }
      ],
      "name": "burnFrom",
      "outputs": [],
      "stateMutability": "nonpayable",
      "type": "function"
    },
    {
      "inputs": [],
      "name": "decimals",
      "outputs": [
        {
          "internalType": "uint8",
          "name": "",
          "type": "uint8"
        }
      ],
      "stateMutability": "view",
      "type": "function"
    },
    {
      "inputs": [
        {
          "internalType": "address",
          "name": "spender",
          "type": "address"
        },
        {
          "internalType": "uint256",
          "name": "requestedDecrease",
          "type": "uint256"
        }
      ],
      "name": "decreaseAllowance",
      "outputs": [
        {
          "internalType": "bool",
          "name": "",
          "type": "bool"
        }
      ],
      "stateMutability": "nonpayable",
      "type": "function"
    },
    {
      "inputs": [
        {
          "internalType": "address",
          "name": "spender",
          "type": "address"
        },
        {
          "internalType": "uint256",
          "name": "addedValue",
          "type": "uint256"
        }
      ],
      "name": "increaseAllowance",
      "outputs": [
        {
          "internalType": "bool",
          "name": "",
          "type": "bool"
        }
      ],
      "stateMutability": "nonpayable",
      "type": "function"
    },
    {
      "inputs": [],
      "name": "name",
      "outputs": [
        {
          "internalType": "string",
          "name": "",
          "type": "string"
        }
      ],
      "stateMutability": "view",
      "type": "function"
    },
    {
      "inputs": [],
      "name": "symbol",
      "outputs": [
        {
          "internalType": "string",
          "name": "",
          "type": "string"
        }
      ],
      "stateMutability": "view",
      "type": "function"
    },
    {
      "inputs": [],
      "name": "totalSupply",
      "outputs": [
        {
          "internalType": "uint256",
          "name": "",
          "type": "uint256"
        }
      ],
      "stateMutability": "view",
      "type": "function"
    },
    {
      "inputs": [
        {
          "internalType": "address",
          "name": "to",
          "type": "address"
        },
        {
          "internalType": "uint256",
          "name": "value",
          "type": "uint256"
        }
      ],
      "name": "transfer",
      "outputs": [
        {
          "internalType": "bool",
          "name": "",
          "type": "bool"
        }
      ],
      "stateMutability": "nonpayable",
      "type": "function"
    },
    {
      "inputs": [
        {
          "internalType": "address",
          "name": "from",
          "type": "address"
        },
        {
          "internalType": "address",
          "name": "to",
          "type": "address"
        },
        {
          "internalType": "uint256",
          "name": "value",
          "type": "uint256"
        }
      ],
      "name": "transferFrom",
      "outputs": [
        {
          "internalType": "bool",
          "name": "",
          "type": "bool"
        }
      ],
      "stateMutability": "nonpayable",
      "type": "function"
    },
    {
      "stateMutability": "payable",
      "type": "receive"
    }
  ],
  "bytecode": "0x608060405260405162000e6d38038062000e6d83398101604081905262000026916200010e565b8181600362000036838262000200565b50600462000045828262000200565b5050505050620002c8565b634e487b7160e01b5f52604160045260245ffd5b5f82601f83011262000074575f80fd5b81516001600160401b038082111562000091576200009162000050565b604051601f8301601f19908116603f01168101908282118183101715620000bc57620000bc62000050565b81604052838152602092508683858801011115620000d8575f80fd5b5f91505b83821015620000fb5785820183015181830184015290820190620000dc565b5f93810190920192909252949350505050565b5f806040838503121562000120575f80fd5b82516001600160401b038082111562000137575f80fd5b620001458683870162000064565b935060208501519150808211156200015b575f80fd5b506200016a8582860162000064565b9150509250929050565b600181811c908216806200018957607f821691505b602082108103620001a857634e487b7160e01b5f52602260045260245ffd5b50919050565b601f821115620001fb575f81815260208120601f850160051c81016020861015620001d65750805b601f850160051c820191505b81811015620001f757828155600101620001e2565b5050505b505050565b81516001600160401b038111156200021c576200021c62000050565b62000234816200022d845462000174565b84620001ae565b602080601f8311600181146200026a575f8415620002525750858301515b5f19600386901b1c1916600185901b178555620001f7565b5f85815260208120601f198616915b828110156200029a5788860151825594840194600190910190840162000279565b5085821015620002b857878501515f19600388901b60f8161c191681555b5050505050600190811b01905550565b610b9780620002d65f395ff3fe60806040526004361061013f575f3560e01c80636855a178116100b3578063a9059cbb1161006d578063a9059cbb14610371578063b2331d7d14610390578063cc461d62146103af578063dd62ed3e146103ce578063e047838d146103ed578063efb43b071461040c575f80fd5b80636855a178146102ad57806370a08231146102cc57806379cc679014610300578063861e3d3d1461031f57806395d89b411461033e578063a457c2d714610352575f80fd5b8063313ce56711610104578063313ce567146101fa57806332bc74aa1461021557806332cadf3c14610236578063342db7391461024a578063395093511461026f57806342966c681461028e575f80fd5b806306fdde031461014a578063095ea7b31461017457806318160ddd146101a357806323b872dd146101c15780632904df29146101e0575f80fd5b3661014657005b5f80fd5b348015610155575f80fd5b5061015e61042b565b60405161016b91906109c4565b60405180910390f35b34801561017f575f80fd5b5061019361018e3660046109f8565b6104bb565b604051901515815260200161016b565b3480156101ae575f80fd5b506002545b60405190815260200161016b565b3480156101cc575f80fd5b506101936101db366004610a20565b6104d4565b3480156101eb575f80fd5b5060405133815260200161016b565b348015610205575f80fd5b506040516012815260200161016b565b348015610220575f80fd5b5061023461022f366004610a59565b6104f7565b005b348015610241575f80fd5b5061015e610509565b348015610255575f80fd5b506101b36e1a185c991a185d0b595e1c1bdcd959608a1b81565b34801561027a575f80fd5b506101936102893660046109f8565b610546565b348015610299575f80fd5b506102346102a8366004610aa9565b610567565b3480156102b8575f80fd5b506102346102c7366004610a20565b610574565b3480156102d7575f80fd5b506101b36102e6366004610ac0565b6001600160a01b03165f9081526020819052604090205490565b34801561030b575f80fd5b5061023461031a3660046109f8565b610584565b34801561032a575f80fd5b50610234610339366004610a20565b61059d565b348015610349575f80fd5b5061015e6105a8565b34801561035d575f80fd5b5061019361036c3660046109f8565b6105b7565b34801561037c575f80fd5b5061019361038b3660046109f8565b610612565b34801561039b575f80fd5b506102346103aa366004610a20565b61061f565b3480156103ba575f80fd5b506102346103c93660046109f8565b61062a565b3480156103d9575f80fd5b506101b36103e8366004610ad9565b610634565b3480156103f8575f80fd5b506102346104073660046109f8565b61058f565b348015610417575f80fd5b50610234610426366004610a20565b61065e565b60606003805461043a90610b0a565b80601f016020809104026020016040519081016040528092919081815260200182805461046690610b0a565b80156104b15780601f10610488576101008083540402835291602001916104b1565b820191905f5260205f20905b81548152906001019060200180831161049457829003601f168201915b5050505050905090565b5f336104c8818585610669565b60019150505b92915050565b5f336104e1858285610676565b6104ec8585856106d3565b506001949350505050565b61050384848484610725565b50505050565b60605f368080601f0160208091040260200160405190810160405280939291908181526020018383808284375f9201919091525092949350505050565b5f336104c88185856105588383610634565b6105629190610b42565b610669565b61057133826107f7565b50565b61057f838383610827565b505050565b61058f823383610676565b61059982826107f7565b5050565b61057f838383610669565b60606004805461043a90610b0a565b5f33816105c48286610634565b90508381101561060557604051632983c0c360e21b81526001600160a01b038616600482015260248101829052604481018590526064015b60405180910390fd5b6104ec8286868403610669565b5f336104c88185856106d3565b61057f838383610676565b610599828261094d565b6001600160a01b039182165f90815260016020908152604080832093909416825291909152205490565b61057f8383836106d3565b61057f8383836001610725565b5f6106818484610634565b90505f19811461050357818110156106c557604051637dc7a0d960e11b81526001600160a01b038416600482015260248101829052604481018390526064016105fc565b61050384848484035f610725565b6001600160a01b0383166106fc57604051634b637e8f60e11b81525f60048201526024016105fc565b6001600160a01b0382166105745760405163ec442f0560e01b81525f60048201526024016105fc565b6001600160a01b03841661074e5760405163e602df0560e01b81525f60048201526024016105fc565b6001600160a01b03831661077757604051634a1406b160e11b81525f60048201526024016105fc565b6001600160a01b038085165f908152600160209081526040808320938716835292905220829055801561050357826001600160a01b0316846001600160a01b03167f8c5be1e5ebec7d5bd14f71427d1e84f3dd0314c0f7b2291e5b200ac8c7c3b925846040516107e991815260200190565b60405180910390a350505050565b6001600160a01b03821661082057604051634b637e8f60e11b81525f60048201526024016105fc565b610599825f835b6001600160a01b038316610851578060025f8282546108469190610b42565b909155506108c19050565b6001600160a01b0383165f90815260208190526040902054818110156108a35760405163391434e360e21b81526001600160a01b038516600482015260248101829052604481018390526064016105fc565b6001600160a01b0384165f9081526020819052604090209082900390555b6001600160a01b0382166108dd576002805482900390556108fb565b6001600160a01b0382165f9081526020819052604090208054820190555b816001600160a01b0316836001600160a01b03167fddf252ad1be2c89b69c2b068fc378daa952ba7f163c4a11628f55a4df523b3ef8360405161094091815260200190565b60405180910390a3505050565b6001600160a01b0382166109765760405163ec442f0560e01b81525f60048201526024016105fc565b6105995f8383610827565b5f81518084525f5b818110156109a557602081850181015186830182015201610989565b505f602082860101526020601f19601f83011685010191505092915050565b602081525f6109d66020830184610981565b9392505050565b80356001600160a01b03811681146109f3575f80fd5b919050565b5f8060408385031215610a09575f80fd5b610a12836109dd565b946020939093013593505050565b5f805f60608486031215610a32575f80fd5b610a3b846109dd565b9250610a49602085016109dd565b9150604084013590509250925092565b5f805f8060808587031215610a6c575f80fd5b610a75856109dd565b9350610a83602086016109dd565b92506040850135915060608501358015158114610a9e575f80fd5b939692955090935050565b5f60208284031215610ab9575f80fd5b5035919050565b5f60208284031215610ad0575f80fd5b6109d6826109dd565b5f8060408385031215610aea575f80fd5b610af3836109dd565b9150610b01602084016109dd565b90509250929050565b600181811c90821680610b1e57607f821691505b602082108103610b3c57634e487b7160e01b5f52602260045260245ffd5b50919050565b808201808211156104ce57634e487b7160e01b5f52601160045260245ffdfea2646970667358221220cb990987309edcd1b728f353660836623ea5629741124b7b1d5530c609fa0c8d64736f6c63430008140033",
  "linkReferences": {},
  "deployedLinkReferences": {}
}