{
  "_format": "hh-sol-artifact-1",
  "contractName": "$ERC20VotesLegacyMock",
  "sourceName": "contracts-exposed/mocks/token/ERC20VotesLegacyMock.sol",
  "abi": [
    {
      "inputs": [
        {
          "internalType": "string",
          "name": "name_",
          "type": "string"
        },
        {
          "internalType": "string",
          "name": "symbol_",
          "type": "string"
        },
        {
          "internalType": "string",
          "name": "name",
          "type": "string"
        }
      ],
      "stateMutability": "payable",
      "type": "constructor"
    },
    {
      "inputs": [],
      "name": "ECDSAInvalidSignature",
      "type": "error"
    },
    {
      "inputs": [
        {
          "internalType": "uint256",
          "name": "length",
          "type": "uint256"
        }
      ],
      "name": "ECDSAInvalidSignatureLength",
      "type": "error"
    },
    {
      "inputs": [
        {
          "internalType": "bytes32",
          "name": "s",
          "type": "bytes32"
        }
      ],
      "name": "ECDSAInvalidSignatureS",
      "type": "error"
    },
    {
      "inputs": [
        {
          "internalType": "address",
          "name": "spender",
          "type": "address"
        },
        {
          "internalType": "uint256",
          "name": "currentAllowance",
          "type": "uint256"
        },
        {
          "internalType": "uint256",
          "name": "requestedDecrease",
          "type": "uint256"
        }
      ],
      "name": "ERC20FailedDecreaseAllowance",
      "type": "error"
    },
    {
      "inputs": [
        {
          "internalType": "address",
          "name": "spender",
          "type": "address"
        },
        {
          "internalType": "uint256",
          "name": "allowance",
          "type": "uint256"
        },
        {
          "internalType": "uint256",
          "name": "needed",
          "type": "uint256"
        }
      ],
      "name": "ERC20InsufficientAllowance",
      "type": "error"
    },
    {
      "inputs": [
        {
          "internalType": "address",
          "name": "sender",
          "type": "address"
        },
        {
          "internalType": "uint256",
          "name": "balance",
          "type": "uint256"
        },
        {
          "internalType": "uint256",
          "name": "needed",
          "type": "uint256"
        }
      ],
      "name": "ERC20InsufficientBalance",
      "type": "error"
    },
    {
      "inputs": [
        {
          "internalType": "address",
          "name": "approver",
          "type": "address"
        }
      ],
      "name": "ERC20InvalidApprover",
      "type": "error"
    },
    {
      "inputs": [
        {
          "internalType": "address",
          "name": "receiver",
          "type": "address"
        }
      ],
      "name": "ERC20InvalidReceiver",
      "type": "error"
    },
    {
      "inputs": [
        {
          "internalType": "address",
          "name": "sender",
          "type": "address"
        }
      ],
      "name": "ERC20InvalidSender",
      "type": "error"
    },
    {
      "inputs": [
        {
          "internalType": "address",
          "name": "spender",
          "type": "address"
        }
      ],
      "name": "ERC20InvalidSpender",
      "type": "error"
    },
    {
      "inputs": [
        {
          "internalType": "uint256",
          "name": "deadline",
          "type": "uint256"
        }
      ],
      "name": "ERC2612ExpiredSignature",
      "type": "error"
    },
    {
      "inputs": [
        {
          "internalType": "address",
          "name": "signer",
          "type": "address"
        },
        {
          "internalType": "address",
          "name": "owner",
          "type": "address"
        }
      ],
      "name": "ERC2612InvalidSigner",
      "type": "error"
    },
    {
      "inputs": [
        {
          "internalType": "address",
          "name": "account",
          "type": "address"
        },
        {
          "internalType": "uint256",
          "name": "currentNonce",
          "type": "uint256"
        }
      ],
      "name": "InvalidAccountNonce",
      "type": "error"
    },
    {
      "inputs": [],
      "name": "InvalidShortString",
      "type": "error"
    },
    {
      "inputs": [
        {
          "internalType": "uint8",
          "name": "bits",
          "type": "uint8"
        },
        {
          "internalType": "uint256",
          "name": "value",
          "type": "uint256"
        }
      ],
      "name": "SafeCastOverflowedUintDowncast",
      "type": "error"
    },
    {
      "inputs": [
        {
          "internalType": "string",
          "name": "str",
          "type": "string"
        }
      ],
      "name": "StringTooLong",
      "type": "error"
    },
    {
      "inputs": [
        {
          "internalType": "uint256",
          "name": "expiry",
          "type": "uint256"
        }
      ],
      "name": "VotesExpiredSignature",
      "type": "error"
    },
    {
      "anonymous": false,
      "inputs": [
        {
          "indexed": true,
          "internalType": "address",
          "name": "owner",
          "type": "address"
        },
        {
          "indexed": true,
          "internalType": "address",
          "name": "spender",
          "type": "address"
        },
        {
          "indexed": false,
          "internalType": "uint256",
          "name": "value",
          "type": "uint256"
        }
      ],
      "name": "Approval",
      "type": "event"
    },
    {
      "anonymous": false,
      "inputs": [
        {
          "indexed": true,
          "internalType": "address",
          "name": "delegator",
          "type": "address"
        },
        {
          "indexed": true,
          "internalType": "address",
          "name": "fromDelegate",
          "type": "address"
        },
        {
          "indexed": true,
          "internalType": "address",
          "name": "toDelegate",
          "type": "address"
        }
      ],
      "name": "DelegateChanged",
      "type": "event"
    },
    {
      "anonymous": false,
      "inputs": [
        {
          "indexed": true,
          "internalType": "address",
          "name": "delegate",
          "type": "address"
        },
        {
          "indexed": false,
          "internalType": "uint256",
          "name": "previousVotes",
          "type": "uint256"
        },
        {
          "indexed": false,
          "internalType": "uint256",
          "name": "newVotes",
          "type": "uint256"
        }
      ],
      "name": "DelegateVotesChanged",
      "type": "event"
    },
    {
      "anonymous": false,
      "inputs": [],
      "name": "EIP712DomainChanged",
      "type": "event"
    },
    {
      "anonymous": false,
      "inputs": [
        {
          "indexed": true,
          "internalType": "address",
          "name": "from",
          "type": "address"
        },
        {
          "indexed": true,
          "internalType": "address",
          "name": "to",
          "type": "address"
        },
        {
          "indexed": false,
          "internalType": "uint256",
          "name": "value",
          "type": "uint256"
        }
      ],
      "name": "Transfer",
      "type": "event"
    },
    {
      "anonymous": false,
      "inputs": [
        {
          "indexed": false,
          "internalType": "uint256",
          "name": "ret0",
          "type": "uint256"
        }
      ],
      "name": "return$_useCheckedNonce",
      "type": "event"
    },
    {
      "anonymous": false,
      "inputs": [
        {
          "indexed": false,
          "internalType": "uint256",
          "name": "ret0",
          "type": "uint256"
        }
      ],
      "name": "return$_useNonce",
      "type": "event"
    },
    {
      "inputs": [],
      "name": "$_EIP712Name",
      "outputs": [
        {
          "internalType": "string",
          "name": "ret0",
          "type": "string"
        }
      ],
      "stateMutability": "view",
      "type": "function"
    },
    {
      "inputs": [],
      "name": "$_EIP712Version",
      "outputs": [
        {
          "internalType": "string",
          "name": "ret0",
          "type": "string"
        }
      ],
      "stateMutability": "view",
      "type": "function"
    },
    {
      "inputs": [
        {
          "internalType": "address",
          "name": "owner",
          "type": "address"
        },
        {
          "internalType": "address",
          "name": "spender",
          "type": "address"
        },
        {
          "internalType": "uint256",
          "name": "value",
          "type": "uint256"
        },
        {
          "internalType": "bool",
          "name": "emitEvent",
          "type": "bool"
        }
      ],
      "name": "$_approve",
      "outputs": [],
      "stateMutability": "nonpayable",
      "type": "function"
    },
    {
      "inputs": [
        {
          "internalType": "address",
          "name": "owner",
          "type": "address"
        },
        {
          "internalType": "address",
          "name": "spender",
          "type": "address"
        },
        {
          "internalType": "uint256",
          "name": "value",
          "type": "uint256"
        }
      ],
      "name": "$_approve",
      "outputs": [],
      "stateMutability": "nonpayable",
      "type": "function"
    },
    {
      "inputs": [
        {
          "internalType": "address",
          "name": "account",
          "type": "address"
        },
        {
          "internalType": "uint256",
          "name": "value",
          "type": "uint256"
        }
      ],
      "name": "$_burn",
      "outputs": [],
      "stateMutability": "nonpayable",
      "type": "function"
    },
    {
      "inputs": [
        {
          "internalType": "address",
          "name": "delegator",
          "type": "address"
        },
        {
          "internalType": "address",
          "name": "delegatee",
          "type": "address"
        }
      ],
      "name": "$_delegate",
      "outputs": [],
      "stateMutability": "nonpayable",
      "type": "function"
    },
    {
      "inputs": [],
      "name": "$_domainSeparatorV4",
      "outputs": [
        {
          "internalType": "bytes32",
          "name": "ret0",
          "type": "bytes32"
        }
      ],
      "stateMutability": "view",
      "type": "function"
    },
    {
      "inputs": [
        {
          "internalType": "bytes32",
          "name": "structHash",
          "type": "bytes32"
        }
      ],
      "name": "$_hashTypedDataV4",
      "outputs": [
        {
          "internalType": "bytes32",
          "name": "ret0",
          "type": "bytes32"
        }
      ],
      "stateMutability": "view",
      "type": "function"
    },
    {
      "inputs": [],
      "name": "$_maxSupply",
      "outputs": [
        {
          "internalType": "uint224",
          "name": "ret0",
          "type": "uint224"
        }
      ],
      "stateMutability": "view",
      "type": "function"
    },
    {
      "inputs": [
        {
          "internalType": "address",
          "name": "account",
          "type": "address"
        },
        {
          "internalType": "uint256",
          "name": "value",
          "type": "uint256"
        }
      ],
      "name": "$_mint",
      "outputs": [],
      "stateMutability": "nonpayable",
      "type": "function"
    },
    {
      "inputs": [],
      "name": "$_msgData",
      "outputs": [
        {
          "internalType": "bytes",
          "name": "ret0",
          "type": "bytes"
        }
      ],
      "stateMutability": "view",
      "type": "function"
    },
    {
      "inputs": [],
      "name": "$_msgSender",
      "outputs": [
        {
          "internalType": "address",
          "name": "ret0",
          "type": "address"
        }
      ],
      "stateMutability": "view",
      "type": "function"
    },
    {
      "inputs": [
        {
          "internalType": "address",
          "name": "owner",
          "type": "address"
        },
        {
          "internalType": "address",
          "name": "spender",
          "type": "address"
        },
        {
          "internalType": "uint256",
          "name": "value",
          "type": "uint256"
        }
      ],
      "name": "$_spendAllowance",
      "outputs": [],
      "stateMutability": "nonpayable",
      "type": "function"
    },
    {
      "inputs": [
        {
          "internalType": "address",
          "name": "from",
          "type": "address"
        },
        {
          "internalType": "address",
          "name": "to",
          "type": "address"
        },
        {
          "internalType": "uint256",
          "name": "value",
          "type": "uint256"
        }
      ],
      "name": "$_transfer",
      "outputs": [],
      "stateMutability": "nonpayable",
      "type": "function"
    },
    {
      "inputs": [
        {
          "internalType": "address",
          "name": "from",
          "type": "address"
        },
        {
          "internalType": "address",
          "name": "to",
          "type": "address"
        },
        {
          "internalType": "uint256",
          "name": "amount",
          "type": "uint256"
        }
      ],
      "name": "$_update",
      "outputs": [],
      "stateMutability": "nonpayable",
      "type": "function"
    },
    {
      "inputs": [
        {
          "internalType": "address",
          "name": "owner",
          "type": "address"
        },
        {
          "internalType": "uint256",
          "name": "nonce",
          "type": "uint256"
        }
      ],
      "name": "$_useCheckedNonce",
      "outputs": [
        {
          "internalType": "uint256",
          "name": "ret0",
          "type": "uint256"
        }
      ],
      "stateMutability": "nonpayable",
      "type": "function"
    },
    {
      "inputs": [
        {
          "internalType": "address",
          "name": "owner",
          "type": "address"
        }
      ],
      "name": "$_useNonce",
      "outputs": [
        {
          "internalType": "uint256",
          "name": "ret0",
          "type": "uint256"
        }
      ],
      "stateMutability": "nonpayable",
      "type": "function"
    },
    {
      "inputs": [],
      "name": "DOMAIN_SEPARATOR",
      "outputs": [
        {
          "internalType": "bytes32",
          "name": "",
          "type": "bytes32"
        }
      ],
      "stateMutability": "view",
      "type": "function"
    },
    {
      "inputs": [],
      "name": "__hh_exposed_bytecode_marker",
      "outputs": [
        {
          "internalType": "bytes32",
          "name": "",
          "type": "bytes32"
        }
      ],
      "stateMutability": "view",
      "type": "function"
    },
    {
      "inputs": [
        {
          "internalType": "address",
          "name": "owner",
          "type": "address"
        },
        {
          "internalType": "address",
          "name": "spender",
          "type": "address"
        }
      ],
      "name": "allowance",
      "outputs": [
        {
          "internalType": "uint256",
          "name": "",
          "type": "uint256"
        }
      ],
      "stateMutability": "view",
      "type": "function"
    },
    {
      "inputs": [
        {
          "internalType": "address",
          "name": "spender",
          "type": "address"
        },
        {
          "internalType": "uint256",
          "name": "value",
          "type": "uint256"
        }
      ],
      "name": "approve",
      "outputs": [
        {
          "internalType": "bool",
          "name": "",
          "type": "bool"
        }
      ],
      "stateMutability": "nonpayable",
      "type": "function"
    },
    {
      "inputs": [
        {
          "internalType": "address",
          "name": "account",
          "type": "address"
        }
      ],
      "name": "balanceOf",
      "outputs": [
        {
          "internalType": "uint256",
          "name": "",
          "type": "uint256"
        }
      ],
      "stateMutability": "view",
      "type": "function"
    },
    {
      "inputs": [
        {
          "internalType": "address",
          "name": "account",
          "type": "address"
        },
        {
          "internalType": "uint32",
          "name": "pos",
          "type": "uint32"
        }
      ],
      "name": "checkpoints",
      "outputs": [
        {
          "components": [
            {
              "internalType": "uint32",
              "name": "fromBlock",
              "type": "uint32"
            },
            {
              "internalType": "uint224",
              "name": "votes",
              "type": "uint224"
            }
          ],
          "internalType": "struct ERC20VotesLegacyMock.Checkpoint",
          "name": "",
          "type": "tuple"
        }
      ],
      "stateMutability": "view",
      "type": "function"
    },
    {
      "inputs": [],
      "name": "decimals",
      "outputs": [
        {
          "internalType": "uint8",
          "name": "",
          "type": "uint8"
        }
      ],
      "stateMutability": "view",
      "type": "function"
    },
    {
      "inputs": [
        {
          "internalType": "address",
          "name": "spender",
          "type": "address"
        },
        {
          "internalType": "uint256",
          "name": "requestedDecrease",
          "type": "uint256"
        }
      ],
      "name": "decreaseAllowance",
      "outputs": [
        {
          "internalType": "bool",
          "name": "",
          "type": "bool"
        }
      ],
      "stateMutability": "nonpayable",
      "type": "function"
    },
    {
      "inputs": [
        {
          "internalType": "address",
          "name": "delegatee",
          "type": "address"
        }
      ],
      "name": "delegate",
      "outputs": [],
      "stateMutability": "nonpayable",
      "type": "function"
    },
    {
      "inputs": [
        {
          "internalType": "address",
          "name": "delegatee",
          "type": "address"
        },
        {
          "internalType": "uint256",
          "name": "nonce",
          "type": "uint256"
        },
        {
          "internalType": "uint256",
          "name": "expiry",
          "type": "uint256"
        },
        {
          "internalType": "uint8",
          "name": "v",
          "type": "uint8"
        },
        {
          "internalType": "bytes32",
          "name": "r",
          "type": "bytes32"
        },
        {
          "internalType": "bytes32",
          "name": "s",
          "type": "bytes32"
        }
      ],
      "name": "delegateBySig",
      "outputs": [],
      "stateMutability": "nonpayable",
      "type": "function"
    },
    {
      "inputs": [
        {
          "internalType": "address",
          "name": "account",
          "type": "address"
        }
      ],
      "name": "delegates",
      "outputs": [
        {
          "internalType": "address",
          "name": "",
          "type": "address"
        }
      ],
      "stateMutability": "view",
      "type": "function"
    },
    {
      "inputs": [],
      "name": "eip712Domain",
      "outputs": [
        {
          "internalType": "bytes1",
          "name": "fields",
          "type": "bytes1"
        },
        {
          "internalType": "string",
          "name": "name",
          "type": "string"
        },
        {
          "internalType": "string",
          "name": "version",
          "type": "string"
        },
        {
          "internalType": "uint256",
          "name": "chainId",
          "type": "uint256"
        },
        {
          "internalType": "address",
          "name": "verifyingContract",
          "type": "address"
        },
        {
          "internalType": "bytes32",
          "name": "salt",
          "type": "bytes32"
        },
        {
          "internalType": "uint256[]",
          "name": "extensions",
          "type": "uint256[]"
        }
      ],
      "stateMutability": "view",
      "type": "function"
    },
    {
      "inputs": [
        {
          "internalType": "uint256",
          "name": "blockNumber",
          "type": "uint256"
        }
      ],
      "name": "getPastTotalSupply",
      "outputs": [
        {
          "internalType": "uint256",
          "name": "",
          "type": "uint256"
        }
      ],
      "stateMutability": "view",
      "type": "function"
    },
    {
      "inputs": [
        {
          "internalType": "address",
          "name": "account",
          "type": "address"
        },
        {
          "internalType": "uint256",
          "name": "blockNumber",
          "type": "uint256"
        }
      ],
      "name": "getPastVotes",
      "outputs": [
        {
          "internalType": "uint256",
          "name": "",
          "type": "uint256"
        }
      ],
      "stateMutability": "view",
      "type": "function"
    },
    {
      "inputs": [
        {
          "internalType": "address",
          "name": "account",
          "type": "address"
        }
      ],
      "name": "getVotes",
      "outputs": [
        {
          "internalType": "uint256",
          "name": "",
          "type": "uint256"
        }
      ],
      "stateMutability": "view",
      "type": "function"
    },
    {
      "inputs": [
        {
          "internalType": "address",
          "name": "spender",
          "type": "address"
        },
        {
          "internalType": "uint256",
          "name": "addedValue",
          "type": "uint256"
        }
      ],
      "name": "increaseAllowance",
      "outputs": [
        {
          "internalType": "bool",
          "name": "",
          "type": "bool"
        }
      ],
      "stateMutability": "nonpayable",
      "type": "function"
    },
    {
      "inputs": [],
      "name": "name",
      "outputs": [
        {
          "internalType": "string",
          "name": "",
          "type": "string"
        }
      ],
      "stateMutability": "view",
      "type": "function"
    },
    {
      "inputs": [
        {
          "internalType": "address",
          "name": "owner",
          "type": "address"
        }
      ],
      "name": "nonces",
      "outputs": [
        {
          "internalType": "uint256",
          "name": "",
          "type": "uint256"
        }
      ],
      "stateMutability": "view",
      "type": "function"
    },
    {
      "inputs": [
        {
          "internalType": "address",
          "name": "account",
          "type": "address"
        }
      ],
      "name": "numCheckpoints",
      "outputs": [
        {
          "internalType": "uint32",
          "name": "",
          "type": "uint32"
        }
      ],
      "stateMutability": "view",
      "type": "function"
    },
    {
      "inputs": [
        {
          "internalType": "address",
          "name": "owner",
          "type": "address"
        },
        {
          "internalType": "address",
          "name": "spender",
          "type": "address"
        },
        {
          "internalType": "uint256",
          "name": "value",
          "type": "uint256"
        },
        {
          "internalType": "uint256",
          "name": "deadline",
          "type": "uint256"
        },
        {
          "internalType": "uint8",
          "name": "v",
          "type": "uint8"
        },
        {
          "internalType": "bytes32",
          "name": "r",
          "type": "bytes32"
        },
        {
          "internalType": "bytes32",
          "name": "s",
          "type": "bytes32"
        }
      ],
      "name": "permit",
      "outputs": [],
      "stateMutability": "nonpayable",
      "type": "function"
    },
    {
      "inputs": [],
      "name": "symbol",
      "outputs": [
        {
          "internalType": "string",
          "name": "",
          "type": "string"
        }
      ],
      "stateMutability": "view",
      "type": "function"
    },
    {
      "inputs": [],
      "name": "totalSupply",
      "outputs": [
        {
          "internalType": "uint256",
          "name": "",
          "type": "uint256"
        }
      ],
      "stateMutability": "view",
      "type": "function"
    },
    {
      "inputs": [
        {
          "internalType": "address",
          "name": "to",
          "type": "address"
        },
        {
          "internalType": "uint256",
          "name": "value",
          "type": "uint256"
        }
      ],
      "name": "transfer",
      "outputs": [
        {
          "internalType": "bool",
          "name": "",
          "type": "bool"
        }
      ],
      "stateMutability": "nonpayable",
      "type": "function"
    },
    {
      "inputs": [
        {
          "internalType": "address",
          "name": "from",
          "type": "address"
        },
        {
          "internalType": "address",
          "name": "to",
          "type": "address"
        },
        {
          "internalType": "uint256",
          "name": "value",
          "type": "uint256"
        }
      ],
      "name": "transferFrom",
      "outputs": [
        {
          "internalType": "bool",
          "name": "",
          "type": "bool"
        }
      ],
      "stateMutability": "nonpayable",
      "type": "function"
    },
    {
      "stateMutability": "payable",
      "type": "receive"
    }
  ],
  "bytecode": "0x6101606040526040516200270f3803806200270f83398101604081905262000027916200026f565b6040805180820190915260018152603160f81b6020820152819081908585600362000053838262000386565b50600462000062828262000386565b50620000749150839050600562000126565b610120526200008581600662000126565b61014052815160208084019190912060e052815190820120610100524660a0526200011260e05161010051604080517f8b73c3c69bb8fe3d512ecc4cf759cc79239f7b179b0ffacaa9a75d522b39400f60208201529081019290925260608201524660808201523060a08201525f9060c00160405160208183030381529060405280519060200120905090565b60805250503060c05250620004a692505050565b5f60208351101562000145576200013d836200015e565b905062000158565b8162000152848262000386565b5060ff90505b92915050565b5f80829050601f8151111562000194578260405163305a27a960e01b81526004016200018b91906200044e565b60405180910390fd5b8051620001a18262000482565b179392505050565b634e487b7160e01b5f52604160045260245ffd5b5f5b83811015620001d9578181015183820152602001620001bf565b50505f910152565b5f82601f830112620001f1575f80fd5b81516001600160401b03808211156200020e576200020e620001a9565b604051601f8301601f19908116603f01168101908282118183101715620002395762000239620001a9565b8160405283815286602085880101111562000252575f80fd5b62000265846020830160208901620001bd565b9695505050505050565b5f805f6060848603121562000282575f80fd5b83516001600160401b038082111562000299575f80fd5b620002a787838801620001e1565b94506020860151915080821115620002bd575f80fd5b620002cb87838801620001e1565b93506040860151915080821115620002e1575f80fd5b50620002f086828701620001e1565b9150509250925092565b600181811c908216806200030f57607f821691505b6020821081036200032e57634e487b7160e01b5f52602260045260245ffd5b50919050565b601f82111562000381575f81815260208120601f850160051c810160208610156200035c5750805b601f850160051c820191505b818110156200037d5782815560010162000368565b5050505b505050565b81516001600160401b03811115620003a257620003a2620001a9565b620003ba81620003b38454620002fa565b8462000334565b602080601f831160018114620003f0575f8415620003d85750858301515b5f19600386901b1c1916600185901b1785556200037d565b5f85815260208120601f198616915b828110156200042057888601518255948401946001909101908401620003ff565b50858210156200043e57878501515f19600388901b60f8161c191681555b5050505050600190811b01905550565b602081525f82518060208401526200046e816040850160208701620001bd565b601f01601f19169190910160400192915050565b805160208083015191908110156200032e575f1960209190910360031b1b16919050565b60805160a05160c05160e051610100516101205161014051612217620004f85f395f610fde01525f610fb101525f61128001525f61125801525f6111b301525f6111dd01525f61120701526122175ff3fe608060405260043610610240575f3560e01c80635f8d5e74116101345780639ab24eb0116100b3578063cc461d6211610078578063cc461d62146106a3578063d505accf146106c2578063dd62ed3e146106e1578063e047838d14610700578063efb43b071461071f578063f1127ed81461073e575f80fd5b80639ab24eb014610608578063a457c2d714610627578063a9059cbb14610646578063b2331d7d14610665578063c3cda52014610684575f80fd5b80637ecebe00116100f95780637ecebe001461057057806384b0196e1461058f578063861e3d3d146105b65780638e539e8c146105d557806395d89b41146105f4575f80fd5b80635f8d5e74146104035780636855a178146104ca5780636b4ac502146104e95780636fcfff451461050857806370a082311461053c575f80fd5b8063313ce567116101c0578063395093511161018557806339509351146104175780633a46b1a814610436578063506a6f0c14610455578063587cde1e146104745780635c19a95c146104ab575f80fd5b8063313ce5671461039057806332bc74aa146103ab57806332cadf3c146103ca578063342db739146103de5780633644e51514610403575f80fd5b8063174ccd8211610206578063174ccd82146102fa57806318160ddd1461030e57806323b872dd1461032c5780632904df291461034b5780632e8fbee514610371575f80fd5b8062cae2201461024b57806306fdde031461026c578063095ea7b31461029657806310d2aa7e146102c55780631164d13b146102e6575f80fd5b3661024757005b5f80fd5b348015610256575f80fd5b5061026a610265366004611e13565b610787565b005b348015610277575f80fd5b50610280610795565b60405161028d9190611e87565b60405180910390f35b3480156102a1575f80fd5b506102b56102b0366004611e99565b610825565b604051901515815260200161028d565b3480156102d0575f80fd5b506040516001600160e01b03815260200161028d565b3480156102f1575f80fd5b50610280610843565b348015610305575f80fd5b5061028061084d565b348015610319575f80fd5b506002545b60405190815260200161028d565b348015610337575f80fd5b506102b5610346366004611ec1565b610857565b348015610356575f80fd5b50335b6040516001600160a01b03909116815260200161028d565b34801561037c575f80fd5b5061031e61038b366004611efa565b61087a565b34801561039b575f80fd5b506040516012815260200161028d565b3480156103b6575f80fd5b5061026a6103c5366004611f13565b6108c4565b3480156103d5575f80fd5b506102806108d6565b3480156103e9575f80fd5b5061031e6e1a185c991a185d0b595e1c1bdcd959608a1b81565b34801561040e575f80fd5b5061031e610913565b348015610422575f80fd5b506102b5610431366004611e99565b61091c565b348015610441575f80fd5b5061031e610450366004611e99565b61093d565b348015610460575f80fd5b5061031e61046f366004611f63565b6109ba565b34801561047f575f80fd5b5061035961048e366004611efa565b6001600160a01b039081165f908152600860205260409020541690565b3480156104b6575f80fd5b5061026a6104c5366004611efa565b6109c4565b3480156104d5575f80fd5b5061026a6104e4366004611ec1565b6109d1565b3480156104f4575f80fd5b5061031e610503366004611e99565b6109e1565b348015610513575f80fd5b50610527610522366004611efa565b610a2d565b60405163ffffffff909116815260200161028d565b348015610547575f80fd5b5061031e610556366004611efa565b6001600160a01b03165f9081526020819052604090205490565b34801561057b575f80fd5b5061031e61058a366004611efa565b610a4e565b34801561059a575f80fd5b506105a3610a6b565b60405161028d9796959493929190611f7a565b3480156105c1575f80fd5b5061026a6105d0366004611ec1565b610aad565b3480156105e0575f80fd5b5061031e6105ef366004611f63565b610ab8565b3480156105ff575f80fd5b50610280610b13565b348015610613575f80fd5b5061031e610622366004611efa565b610b22565b348015610632575f80fd5b506102b5610641366004611e99565b610b9f565b348015610651575f80fd5b506102b5610660366004611e99565b610bf5565b348015610670575f80fd5b5061026a61067f366004611ec1565b610c02565b34801561068f575f80fd5b5061026a61069e36600461201e565b610c0d565b3480156106ae575f80fd5b5061026a6106bd366004611e99565b610d42565b3480156106cd575f80fd5b5061026a6106dc366004612072565b610d4c565b3480156106ec575f80fd5b5061031e6106fb366004611e13565b610e65565b34801561070b575f80fd5b5061026a61071a366004611e99565b610e8f565b34801561072a575f80fd5b5061026a610739366004611ec1565b610e99565b348015610749575f80fd5b5061075d6107583660046120d7565b610ea4565b60408051825163ffffffff1681526020928301516001600160e01b0316928101929092520161028d565b6107918282610f25565b5050565b6060600380546107a490612114565b80601f01602080910402602001604051908101604052809291908181526020018280546107d090612114565b801561081b5780601f106107f25761010080835404028352916020019161081b565b820191905f5260205f20905b8154815290600101906020018083116107fe57829003601f168201915b5050505050905090565b5f33610832818585610f9d565b60019150505b92915050565b905090565b606061083e610faa565b606061083e610fd7565b5f33610864858285611004565b61086f858585611061565b506001949350505050565b5f610884826110b3565b90507f8d5c13b1cd528a3e1895fdc833368c4e3af5391250c736a28e94c4fa59b3cee4816040516108b791815260200190565b60405180910390a1919050565b6108d0848484846110d5565b50505050565b60605f368080601f0160208091040260200160405190810160405280939291908181526020018383808284375f9201919091525092949350505050565b5f61083e6111a7565b5f3361083281858561092e8383610e65565b6109389190612160565b610f9d565b5f4382106109925760405162461bcd60e51b815260206004820152601f60248201527f4552433230566f7465733a20626c6f636b206e6f7420796574206d696e65640060448201526064015b60405180910390fd5b6001600160a01b0383165f9081526009602052604090206109b390836112d0565b9392505050565b5f610838826113b1565b6109ce3382610f25565b50565b6109dc8383836113dd565b505050565b5f6109ec83836114c9565b90507f173c6dfbda204d89ae7b46789365591384ef0c959833564582f96cd15f445b9b81604051610a1f91815260200190565b60405180910390a192915050565b6001600160a01b0381165f9081526009602052604081205461083890611508565b6001600160a01b0381165f90815260076020526040812054610838565b5f6060805f805f6060610a7c610faa565b610a84610fd7565b604080515f80825260208201909252600f60f81b9b939a50919850469750309650945092509050565b6109dc838383610f9d565b5f438210610b085760405162461bcd60e51b815260206004820152601f60248201527f4552433230566f7465733a20626c6f636b206e6f7420796574206d696e6564006044820152606401610989565b610838600a836112d0565b6060600480546107a490612114565b6001600160a01b0381165f908152600960205260408120548015610b8d576001600160a01b0383165f90815260096020526040902080545f198301908110610b6c57610b6c612173565b5f9182526020909120015464010000000090046001600160e01b0316610b8f565b5f5b6001600160e01b03169392505050565b5f3381610bac8286610e65565b905083811015610be857604051632983c0c360e21b81526001600160a01b03861660048201526024810182905260448101859052606401610989565b61086f8286868403610f9d565b5f33610832818585611061565b6109dc838383611004565b83421115610c5d5760405162461bcd60e51b815260206004820152601d60248201527f4552433230566f7465733a207369676e617475726520657870697265640000006044820152606401610989565b604080517fe48329057bfd03d55e49b547132e39cffd9c1820ad7b9d4c5307691425d15adf60208201526001600160a01b0388169181019190915260608101869052608081018590525f90610cd690610cce9060a001604051602081830303815290604052805190602001206113b1565b85858561153c565b9050610ce1816110b3565b8614610d2f5760405162461bcd60e51b815260206004820152601960248201527f4552433230566f7465733a20696e76616c6964206e6f6e6365000000000000006044820152606401610989565b610d398188610f25565b50505050505050565b6107918282611568565b83421115610d705760405163313c898160e11b815260048101859052602401610989565b5f7f6e71edae12b1b97f4d1f60370fef10105fa2faae0126114a169c64845d6126c9888888610d9e8c6110b3565b6040805160208101969096526001600160a01b0394851690860152929091166060840152608083015260a082015260c0810186905260e0016040516020818303038152906040528051906020012090505f610df8826113b1565b90505f610e078287878761153c565b9050896001600160a01b0316816001600160a01b031614610e4e576040516325c0072360e11b81526001600160a01b0380831660048301528b166024820152604401610989565b610e598a8a8a610f9d565b50505050505050505050565b6001600160a01b039182165f90815260016020908152604080832093909416825291909152205490565b610791828261159c565b6109dc838383611061565b604080518082019091525f80825260208201526001600160a01b0383165f908152600960205260409020805463ffffffff8416908110610ee657610ee6612173565b5f9182526020918290206040805180820190915291015463ffffffff8116825264010000000090046001600160e01b0316918101919091529392505050565b6001600160a01b038281165f818152600860208181526040808420805485845282862054949093528787166001600160a01b03198416811790915590519190951694919391928592917f3134e8a2e6d97e929a7e54011ea5485d7d196dd5f0ba4d4ef95803e8e3fc257f9190a46108d08284836115d0565b6109dc83838360016110d5565b606061083e7f0000000000000000000000000000000000000000000000000000000000000000600561170a565b606061083e7f0000000000000000000000000000000000000000000000000000000000000000600661170a565b5f61100f8484610e65565b90505f1981146108d0578181101561105357604051637dc7a0d960e11b81526001600160a01b03841660048201526024810182905260448101839052606401610989565b6108d084848484035f6110d5565b6001600160a01b03831661108a57604051634b637e8f60e11b81525f6004820152602401610989565b6001600160a01b0382166109d15760405163ec442f0560e01b81525f6004820152602401610989565b6001600160a01b03165f90815260076020526040902080546001810190915590565b6001600160a01b0384166110fe5760405163e602df0560e01b81525f6004820152602401610989565b6001600160a01b03831661112757604051634a1406b160e11b81525f6004820152602401610989565b6001600160a01b038085165f90815260016020908152604080832093871683529290522082905580156108d057826001600160a01b0316846001600160a01b03167f8c5be1e5ebec7d5bd14f71427d1e84f3dd0314c0f7b2291e5b200ac8c7c3b9258460405161119991815260200190565b60405180910390a350505050565b5f306001600160a01b037f0000000000000000000000000000000000000000000000000000000000000000161480156111ff57507f000000000000000000000000000000000000000000000000000000000000000046145b1561122957507f000000000000000000000000000000000000000000000000000000000000000090565b61083e604080517f8b73c3c69bb8fe3d512ecc4cf759cc79239f7b179b0ffacaa9a75d522b39400f60208201527f0000000000000000000000000000000000000000000000000000000000000000918101919091527f000000000000000000000000000000000000000000000000000000000000000060608201524660808201523060a08201525f9060c00160405160208183030381529060405280519060200120905090565b81545f9081816005811115611327575f6112e9846117b3565b6112f39085612187565b5f88815260209020909150869082015463ffffffff16111561131757809150611325565b611322816001612160565b92505b505b80821015611372575f61133a8383611897565b5f88815260209020909150869082015463ffffffff16111561135e5780915061136c565b611369816001612160565b92505b50611327565b801561139c575f8681526020902081015f19015464010000000090046001600160e01b031661139e565b5f5b6001600160e01b03169695505050505050565b5f6108386113bd6111a7565b8360405161190160f01b8152600281019290925260228201526042902090565b6113e88383836118b1565b6001600160a01b038316611479576002546001600160e01b0310156114685760405162461bcd60e51b815260206004820152603060248201527f4552433230566f7465733a20746f74616c20737570706c79207269736b73206f60448201526f766572666c6f77696e6720766f74657360801b6064820152608401610989565b611476600a6119d7836119e2565b50505b6001600160a01b03821661149857611495600a611b2e836119e2565b50505b6001600160a01b038381165f908152600860205260408082205485841683529120546109dc929182169116836115d0565b5f806114d4846110b3565b90508083146109b3576040516301d4b62360e61b81526001600160a01b038516600482015260248101829052604401610989565b5f63ffffffff821115611538576040516306dfcc6560e41b81526020600482015260248101839052604401610989565b5090565b5f805f8061154c88888888611b39565b92509250925061155c8282611c01565b50909695505050505050565b6001600160a01b0382166115915760405163ec442f0560e01b81525f6004820152602401610989565b6107915f83836113dd565b6001600160a01b0382166115c557604051634b637e8f60e11b81525f6004820152602401610989565b610791825f836113dd565b816001600160a01b0316836001600160a01b0316141580156115f157505f81115b156109dc576001600160a01b0383161561167e576001600160a01b0383165f908152600960205260408120819061162b90611b2e856119e2565b91509150846001600160a01b03167fdec2bacdd2f05b59de34da9b523dff8be42e5e38e818c82fdb0bae774387a7248383604051611673929190918252602082015260400190565b60405180910390a250505b6001600160a01b038216156109dc576001600160a01b0382165f90815260096020526040812081906116b3906119d7856119e2565b91509150836001600160a01b03167fdec2bacdd2f05b59de34da9b523dff8be42e5e38e818c82fdb0bae774387a72483836040516116fb929190918252602082015260400190565b60405180910390a25050505050565b606060ff83146117245761171d83611cb9565b9050610838565b81805461173090612114565b80601f016020809104026020016040519081016040528092919081815260200182805461175c90612114565b80156117a75780601f1061177e576101008083540402835291602001916117a7565b820191905f5260205f20905b81548152906001019060200180831161178a57829003601f168201915b50505050509050610838565b5f815f036117c257505f919050565b5f60016117ce84611cf6565b901c6001901b905060018184816117e7576117e761219a565b048201901c905060018184816117ff576117ff61219a565b048201901c905060018184816118175761181761219a565b048201901c9050600181848161182f5761182f61219a565b048201901c905060018184816118475761184761219a565b048201901c9050600181848161185f5761185f61219a565b048201901c905060018184816118775761187761219a565b048201901c90506109b3818285816118915761189161219a565b04611d89565b5f6118a560028484186121ae565b6109b390848416612160565b6001600160a01b0383166118db578060025f8282546118d09190612160565b9091555061194b9050565b6001600160a01b0383165f908152602081905260409020548181101561192d5760405163391434e360e21b81526001600160a01b03851660048201526024810182905260448101839052606401610989565b6001600160a01b0384165f9081526020819052604090209082900390555b6001600160a01b03821661196757600280548290039055611985565b6001600160a01b0382165f9081526020819052604090208054820190555b816001600160a01b0316836001600160a01b03167fddf252ad1be2c89b69c2b068fc378daa952ba7f163c4a11628f55a4df523b3ef836040516119ca91815260200190565b60405180910390a3505050565b5f6109b38284612160565b82545f908190818115611a2c575f8781526020902082015f190160408051808201909152905463ffffffff8116825264010000000090046001600160e01b03166020820152611a40565b604080518082019091525f80825260208201525b905080602001516001600160e01b03169350611a6084868863ffffffff16565b92505f82118015611a775750805163ffffffff1643145b15611aba57611a8583611d9e565b5f8881526020902083015f190180546001600160e01b03929092166401000000000263ffffffff909216919091179055611b24565b866040518060400160405280611acf43611508565b63ffffffff168152602001611ae386611d9e565b6001600160e01b0390811690915282546001810184555f938452602093849020835194909301519091166401000000000263ffffffff909316929092179101555b5050935093915050565b5f6109b38284612187565b5f80807f7fffffffffffffffffffffffffffffff5d576e7357a4501ddfe92f46681b20a0841115611b7257505f91506003905082611bf7565b604080515f808252602082018084528a905260ff891692820192909252606081018790526080810186905260019060a0016020604051602081039080840390855afa158015611bc3573d5f803e3d5ffd5b5050604051601f1901519150506001600160a01b038116611bee57505f925060019150829050611bf7565b92505f91508190505b9450945094915050565b5f826003811115611c1457611c146121cd565b03611c1d575050565b6001826003811115611c3157611c316121cd565b03611c4f5760405163f645eedf60e01b815260040160405180910390fd5b6002826003811115611c6357611c636121cd565b03611c845760405163fce698f760e01b815260048101829052602401610989565b6003826003811115611c9857611c986121cd565b03610791576040516335e2f38360e21b815260048101829052602401610989565b60605f611cc583611dd1565b6040805160208082528183019092529192505f91906020820181803683375050509182525060208101929092525090565b5f80608083901c15611d0a57608092831c92015b604083901c15611d1c57604092831c92015b602083901c15611d2e57602092831c92015b601083901c15611d4057601092831c92015b600883901c15611d5257600892831c92015b600483901c15611d6457600492831c92015b600283901c15611d7657600292831c92015b600183901c156108385760010192915050565b5f818310611d9757816109b3565b5090919050565b5f6001600160e01b03821115611538576040516306dfcc6560e41b815260e0600482015260248101839052604401610989565b5f60ff8216601f81111561083857604051632cd44ac360e21b815260040160405180910390fd5b80356001600160a01b0381168114611e0e575f80fd5b919050565b5f8060408385031215611e24575f80fd5b611e2d83611df8565b9150611e3b60208401611df8565b90509250929050565b5f81518084525f5b81811015611e6857602081850181015186830182015201611e4c565b505f602082860101526020601f19601f83011685010191505092915050565b602081525f6109b36020830184611e44565b5f8060408385031215611eaa575f80fd5b611eb383611df8565b946020939093013593505050565b5f805f60608486031215611ed3575f80fd5b611edc84611df8565b9250611eea60208501611df8565b9150604084013590509250925092565b5f60208284031215611f0a575f80fd5b6109b382611df8565b5f805f8060808587031215611f26575f80fd5b611f2f85611df8565b9350611f3d60208601611df8565b92506040850135915060608501358015158114611f58575f80fd5b939692955090935050565b5f60208284031215611f73575f80fd5b5035919050565b60ff60f81b881681525f602060e081840152611f9960e084018a611e44565b8381036040850152611fab818a611e44565b606085018990526001600160a01b038816608086015260a0850187905284810360c086015285518082528387019250908301905f5b81811015611ffc57835183529284019291840191600101611fe0565b50909c9b505050505050505050505050565b803560ff81168114611e0e575f80fd5b5f805f805f8060c08789031215612033575f80fd5b61203c87611df8565b955060208701359450604087013593506120586060880161200e565b92506080870135915060a087013590509295509295509295565b5f805f805f805f60e0888a031215612088575f80fd5b61209188611df8565b965061209f60208901611df8565b955060408801359450606088013593506120bb6080890161200e565b925060a0880135915060c0880135905092959891949750929550565b5f80604083850312156120e8575f80fd5b6120f183611df8565b9150602083013563ffffffff81168114612109575f80fd5b809150509250929050565b600181811c9082168061212857607f821691505b60208210810361214657634e487b7160e01b5f52602260045260245ffd5b50919050565b634e487b7160e01b5f52601160045260245ffd5b808201808211156108385761083861214c565b634e487b7160e01b5f52603260045260245ffd5b818103818111156108385761083861214c565b634e487b7160e01b5f52601260045260245ffd5b5f826121c857634e487b7160e01b5f52601260045260245ffd5b500490565b634e487b7160e01b5f52602160045260245ffdfea2646970667358221220d4c60128b88d1abc20c48ae0275c32c29886d1958085b9b3c137e647649ac90264736f6c63430008140033",
  "linkReferences": {},
  "deployedLinkReferences": {}
}