{
  "_format": "hh-sol-artifact-1",
  "contractName": "$BitMaps",
  "sourceName": "contracts-exposed/utils/structs/BitMaps.sol",
  "abi": [
    {
      "inputs": [],
      "stateMutability": "payable",
      "type": "constructor"
    },
    {
      "inputs": [
        {
          "internalType": "uint256",
          "name": "bitmap",
          "type": "uint256"
        },
        {
          "internalType": "uint256",
          "name": "index",
          "type": "uint256"
        }
      ],
      "name": "$get",
      "outputs": [
        {
          "internalType": "bool",
          "name": "ret0",
          "type": "bool"
        }
      ],
      "stateMutability": "view",
      "type": "function"
    },
    {
      "inputs": [
        {
          "internalType": "uint256",
          "name": "bitmap",
          "type": "uint256"
        },
        {
          "internalType": "uint256",
          "name": "index",
          "type": "uint256"
        }
      ],
      "name": "$set",
      "outputs": [],
      "stateMutability": "payable",
      "type": "function"
    },
    {
      "inputs": [
        {
          "internalType": "uint256",
          "name": "bitmap",
          "type": "uint256"
        },
        {
          "internalType": "uint256",
          "name": "index",
          "type": "uint256"
        },
        {
          "internalType": "bool",
          "name": "value",
          "type": "bool"
        }
      ],
      "name": "$setTo",
      "outputs": [],
      "stateMutability": "payable",
      "type": "function"
    },
    {
      "inputs": [
        {
          "internalType": "uint256",
          "name": "bitmap",
          "type": "uint256"
        },
        {
          "internalType": "uint256",
          "name": "index",
          "type": "uint256"
        }
      ],
      "name": "$unset",
      "outputs": [],
      "stateMutability": "payable",
      "type": "function"
    },
    {
      "inputs": [],
      "name": "__hh_exposed_bytecode_marker",
      "outputs": [
        {
          "internalType": "bytes32",
          "name": "",
          "type": "bytes32"
        }
      ],
      "stateMutability": "view",
      "type": "function"
    },
    {
      "stateMutability": "payable",
      "type": "receive"
    }
  ],
  "bytecode": "0x6080604052610265806100115f395ff3fe60806040526004361061004c575f3560e01c8063331ea64714610057578063342db739146100925780637535f763146100ca57806390820071146100dd578063bdb3fd8b14610133575f80fd5b3661005357005b5f80fd5b6100906100653660046101d5565b5f82815260208181526040808320600885901c845290915290208054600160ff84161b191690555050565b005b34801561009d575f80fd5b506100b76e1a185c991a185d0b595e1c1bdcd959608a1b81565b6040519081526020015b60405180910390f35b6100906100d83660046101f5565b61016b565b3480156100e8575f80fd5b506101236100f73660046101d5565b5f82815260208181526040808320600885901c8452909152812054600160ff84161b1615159392505050565b60405190151581526020016100c1565b6100906101413660046101d5565b5f82815260208181526040808320600885901c845290915290208054600160ff84161b1790555050565b5f838152602081905260409020610183908383610188565b505050565b80156101b157600882901c5f9081526020849052604090208054600160ff85161b179055505050565b600882901c5f9081526020849052604090208054600160ff85161b19169055505050565b5f80604083850312156101e6575f80fd5b50508035926020909101359150565b5f805f60608486031215610207575f80fd5b833592506020840135915060408401358015158114610224575f80fd5b80915050925092509256fea2646970667358221220a238b12c282900b8d4a8330bfcead8f7a5849003c9db44d112996dc838370e2864736f6c63430008140033",
  "linkReferences": {},
  "deployedLinkReferences": {}
}