{
  "_format": "hh-sol-artifact-1",
  "contractName": "$ReentrancyMock",
  "sourceName": "contracts-exposed/mocks/ReentrancyMock.sol",
  "abi": [
    {
      "inputs": [],
      "stateMutability": "payable",
      "type": "constructor"
    },
    {
      "inputs": [],
      "name": "ReentrancyGuardReentrantCall",
      "type": "error"
    },
    {
      "inputs": [],
      "name": "$_reentrancyGuardEntered",
      "outputs": [
        {
          "internalType": "bool",
          "name": "ret0",
          "type": "bool"
        }
      ],
      "stateMutability": "view",
      "type": "function"
    },
    {
      "inputs": [],
      "name": "__hh_exposed_bytecode_marker",
      "outputs": [
        {
          "internalType": "bytes32",
          "name": "",
          "type": "bytes32"
        }
      ],
      "stateMutability": "view",
      "type": "function"
    },
    {
      "inputs": [],
      "name": "callback",
      "outputs": [],
      "stateMutability": "nonpayable",
      "type": "function"
    },
    {
      "inputs": [
        {
          "internalType": "contract ReentrancyAttack",
          "name": "attacker",
          "type": "address"
        }
      ],
      "name": "countAndCall",
      "outputs": [],
      "stateMutability": "nonpayable",
      "type": "function"
    },
    {
      "inputs": [
        {
          "internalType": "uint256",
          "name": "n",
          "type": "uint256"
        }
      ],
      "name": "countLocalRecursive",
      "outputs": [],
      "stateMutability": "nonpayable",
      "type": "function"
    },
    {
      "inputs": [
        {
          "internalType": "uint256",
          "name": "n",
          "type": "uint256"
        }
      ],
      "name": "countThisRecursive",
      "outputs": [],
      "stateMutability": "nonpayable",
      "type": "function"
    },
    {
      "inputs": [],
      "name": "counter",
      "outputs": [
        {
          "internalType": "uint256",
          "name": "",
          "type": "uint256"
        }
      ],
      "stateMutability": "view",
      "type": "function"
    },
    {
      "inputs": [],
      "name": "guardedCheckEntered",
      "outputs": [],
      "stateMutability": "nonpayable",
      "type": "function"
    },
    {
      "inputs": [],
      "name": "unguardedCheckNotEntered",
      "outputs": [],
      "stateMutability": "view",
      "type": "function"
    },
    {
      "stateMutability": "payable",
      "type": "receive"
    }
  ],
  "bytecode": "0x608060405260015f8181559055610510806100195f395ff3fe608060405260043610610087575f3560e01c806396ffa6901161005757806396ffa69014610114578063a408f31214610133578063b672ad8b14610147578063cecc95a714610166578063d67f250a1461017a575f80fd5b8063083b273214610092578063342db739146100a857806361bc221a146100e05780638c5344fa146100f5575f80fd5b3661008e57005b5f80fd5b34801561009d575f80fd5b506100a661019a565b005b3480156100b3575f80fd5b506100cd6e1a185c991a185d0b595e1c1bdcd959608a1b81565b6040519081526020015b60405180910390f35b3480156100eb575f80fd5b506100cd60015481565b348015610100575f80fd5b506100a661010f3660046103e7565b6101b5565b34801561011f575f80fd5b506100a661012e3660046103e7565b6102c9565b34801561013e575f80fd5b506100a66102ed565b348015610152575f80fd5b506100a66101613660046103fe565b610302565b348015610171575f80fd5b506100a661039a565b348015610185575f80fd5b505f54604051600290911481526020016100d7565b6101a26103a7565b6101aa6103cf565b6101b360015f55565b565b6101bd6103a7565b80156102bd576101cb6103cf565b5f3080638c5344fa6101de60018661043f565b6040516024016101f091815260200190565b60408051601f198184030181529181526020820180516001600160e01b031660e09490941b939093179092529051610228925061047a565b5f604051808303815f865af19150503d805f8114610261576040519150601f19603f3d011682016040523d82523d5f602084013e610266565b606091505b50509050806102bb5760405162461bcd60e51b815260206004820152601b60248201527f5265656e7472616e63794d6f636b3a206661696c65642063616c6c0000000000604482015260640160405180910390fd5b505b6102c660015f55565b50565b6102d16103a7565b80156102bd576102df6103cf565b6102bd61012e60018361043f565b6102f56103a7565b5f546002146101aa575f80fd5b61030a6103a7565b6103126103cf565b6040805160048082526024820183526020820180516001600160e01b031663041d939960e11b179052915163f8123dd560e01b81526001600160a01b0384169263f8123dd59261036492909101610495565b5f604051808303815f87803b15801561037b575f80fd5b505af115801561038d573d5f803e3d5ffd5b505050506102c660015f55565b5f546002036101b3575f80fd5b60025f54036103c957604051633ee5aeb560e01b815260040160405180910390fd5b60025f55565b6001805f8282546103e091906104c7565b9091555050565b5f602082840312156103f7575f80fd5b5035919050565b5f6020828403121561040e575f80fd5b81356001600160a01b0381168114610424575f80fd5b9392505050565b634e487b7160e01b5f52601160045260245ffd5b818103818111156104525761045261042b565b92915050565b5f5b8381101561047257818101518382015260200161045a565b50505f910152565b5f825161048b818460208701610458565b9190910192915050565b602081525f82518060208401526104b3816040850160208701610458565b601f01601f19169190910160400192915050565b808201808211156104525761045261042b56fea2646970667358221220143f6b20d86094883c09f61293793d52c987ff389f1ca4331bd8fe7dffc6782064736f6c63430008140033",
  "linkReferences": {},
  "deployedLinkReferences": {}
}