{
  "_format": "hh-sol-artifact-1",
  "contractName": "$ERC721Holder",
  "sourceName": "contracts-exposed/token/ERC721/utils/ERC721Holder.sol",
  "abi": [
    {
      "inputs": [],
      "stateMutability": "payable",
      "type": "constructor"
    },
    {
      "inputs": [],
      "name": "__hh_exposed_bytecode_marker",
      "outputs": [
        {
          "internalType": "bytes32",
          "name": "",
          "type": "bytes32"
        }
      ],
      "stateMutability": "view",
      "type": "function"
    },
    {
      "inputs": [
        {
          "internalType": "address",
          "name": "",
          "type": "address"
        },
        {
          "internalType": "address",
          "name": "",
          "type": "address"
        },
        {
          "internalType": "uint256",
          "name": "",
          "type": "uint256"
        },
        {
          "internalType": "bytes",
          "name": "",
          "type": "bytes"
        }
      ],
      "name": "onERC721Received",
      "outputs": [
        {
          "internalType": "bytes4",
          "name": "",
          "type": "bytes4"
        }
      ],
      "stateMutability": "nonpayable",
      "type": "function"
    },
    {
      "stateMutability": "payable",
      "type": "receive"
    }
  ],
  "bytecode": "0x60806040526101eb806100115f395ff3fe60806040526004361061002b575f3560e01c8063150b7a0214610036578063342db7391461007e575f80fd5b3661003257005b5f80fd5b348015610041575f80fd5b506100606100503660046100e0565b630a85bd0160e11b949350505050565b6040516001600160e01b031990911681526020015b60405180910390f35b348015610089575f80fd5b506100a36e1a185c991a185d0b595e1c1bdcd959608a1b81565b604051908152602001610075565b80356001600160a01b03811681146100c7575f80fd5b919050565b634e487b7160e01b5f52604160045260245ffd5b5f805f80608085870312156100f3575f80fd5b6100fc856100b1565b935061010a602086016100b1565b925060408501359150606085013567ffffffffffffffff8082111561012d575f80fd5b818701915087601f830112610140575f80fd5b813581811115610152576101526100cc565b604051601f8201601f19908116603f0116810190838211818310171561017a5761017a6100cc565b816040528281528a6020848701011115610192575f80fd5b826020860160208301375f6020848301015280955050505050509295919450925056fea26469706673582212200c2c1be0e3d3e3e37a7dac9ff6c3778d5578e93cc480946a9936f7061c5c3e9164736f6c63430008140033",
  "linkReferences": {},
  "deployedLinkReferences": {}
}