{
  "_format": "hh-sol-artifact-1",
  "contractName": "$ERC20Reentrant",
  "sourceName": "contracts-exposed/mocks/token/ERC20Reentrant.sol",
  "abi": [
    {
      "inputs": [],
      "stateMutability": "payable",
      "type": "constructor"
    },
    {
      "inputs": [
        {
          "internalType": "address",
          "name": "target",
          "type": "address"
        }
      ],
      "name": "AddressEmptyCode",
      "type": "error"
    },
    {
      "inputs": [
        {
          "internalType": "address",
          "name": "account",
          "type": "address"
        }
      ],
      "name": "AddressInsufficientBalance",
      "type": "error"
    },
    {
      "inputs": [
        {
          "internalType": "address",
          "name": "spender",
          "type": "address"
        },
        {
          "internalType": "uint256",
          "name": "currentAllowance",
          "type": "uint256"
        },
        {
          "internalType": "uint256",
          "name": "requestedDecrease",
          "type": "uint256"
        }
      ],
      "name": "ERC20FailedDecreaseAllowance",
      "type": "error"
    },
    {
      "inputs": [
        {
          "internalType": "address",
          "name": "spender",
          "type": "address"
        },
        {
          "internalType": "uint256",
          "name": "allowance",
          "type": "uint256"
        },
        {
          "internalType": "uint256",
          "name": "needed",
          "type": "uint256"
        }
      ],
      "name": "ERC20InsufficientAllowance",
      "type": "error"
    },
    {
      "inputs": [
        {
          "internalType": "address",
          "name": "sender",
          "type": "address"
        },
        {
          "internalType": "uint256",
          "name": "balance",
          "type": "uint256"
        },
        {
          "internalType": "uint256",
          "name": "needed",
          "type": "uint256"
        }
      ],
      "name": "ERC20InsufficientBalance",
      "type": "error"
    },
    {
      "inputs": [
        {
          "internalType": "address",
          "name": "approver",
          "type": "address"
        }
      ],
      "name": "ERC20InvalidApprover",
      "type": "error"
    },
    {
      "inputs": [
        {
          "internalType": "address",
          "name": "receiver",
          "type": "address"
        }
      ],
      "name": "ERC20InvalidReceiver",
      "type": "error"
    },
    {
      "inputs": [
        {
          "internalType": "address",
          "name": "sender",
          "type": "address"
        }
      ],
      "name": "ERC20InvalidSender",
      "type": "error"
    },
    {
      "inputs": [
        {
          "internalType": "address",
          "name": "spender",
          "type": "address"
        }
      ],
      "name": "ERC20InvalidSpender",
      "type": "error"
    },
    {
      "inputs": [],
      "name": "FailedInnerCall",
      "type": "error"
    },
    {
      "anonymous": false,
      "inputs": [
        {
          "indexed": true,
          "internalType": "address",
          "name": "owner",
          "type": "address"
        },
        {
          "indexed": true,
          "internalType": "address",
          "name": "spender",
          "type": "address"
        },
        {
          "indexed": false,
          "internalType": "uint256",
          "name": "value",
          "type": "uint256"
        }
      ],
      "name": "Approval",
      "type": "event"
    },
    {
      "anonymous": false,
      "inputs": [
        {
          "indexed": true,
          "internalType": "address",
          "name": "from",
          "type": "address"
        },
        {
          "indexed": true,
          "internalType": "address",
          "name": "to",
          "type": "address"
        },
        {
          "indexed": false,
          "internalType": "uint256",
          "name": "value",
          "type": "uint256"
        }
      ],
      "name": "Transfer",
      "type": "event"
    },
    {
      "inputs": [
        {
          "internalType": "address",
          "name": "owner",
          "type": "address"
        },
        {
          "internalType": "address",
          "name": "spender",
          "type": "address"
        },
        {
          "internalType": "uint256",
          "name": "value",
          "type": "uint256"
        },
        {
          "internalType": "bool",
          "name": "emitEvent",
          "type": "bool"
        }
      ],
      "name": "$_approve",
      "outputs": [],
      "stateMutability": "nonpayable",
      "type": "function"
    },
    {
      "inputs": [
        {
          "internalType": "address",
          "name": "owner",
          "type": "address"
        },
        {
          "internalType": "address",
          "name": "spender",
          "type": "address"
        },
        {
          "internalType": "uint256",
          "name": "value",
          "type": "uint256"
        }
      ],
      "name": "$_approve",
      "outputs": [],
      "stateMutability": "nonpayable",
      "type": "function"
    },
    {
      "inputs": [
        {
          "internalType": "address",
          "name": "account",
          "type": "address"
        },
        {
          "internalType": "uint256",
          "name": "value",
          "type": "uint256"
        }
      ],
      "name": "$_burn",
      "outputs": [],
      "stateMutability": "nonpayable",
      "type": "function"
    },
    {
      "inputs": [
        {
          "internalType": "address",
          "name": "account",
          "type": "address"
        },
        {
          "internalType": "uint256",
          "name": "value",
          "type": "uint256"
        }
      ],
      "name": "$_mint",
      "outputs": [],
      "stateMutability": "nonpayable",
      "type": "function"
    },
    {
      "inputs": [],
      "name": "$_msgData",
      "outputs": [
        {
          "internalType": "bytes",
          "name": "ret0",
          "type": "bytes"
        }
      ],
      "stateMutability": "view",
      "type": "function"
    },
    {
      "inputs": [],
      "name": "$_msgSender",
      "outputs": [
        {
          "internalType": "address",
          "name": "ret0",
          "type": "address"
        }
      ],
      "stateMutability": "view",
      "type": "function"
    },
    {
      "inputs": [
        {
          "internalType": "address",
          "name": "owner",
          "type": "address"
        },
        {
          "internalType": "address",
          "name": "spender",
          "type": "address"
        },
        {
          "internalType": "uint256",
          "name": "value",
          "type": "uint256"
        }
      ],
      "name": "$_spendAllowance",
      "outputs": [],
      "stateMutability": "nonpayable",
      "type": "function"
    },
    {
      "inputs": [
        {
          "internalType": "address",
          "name": "from",
          "type": "address"
        },
        {
          "internalType": "address",
          "name": "to",
          "type": "address"
        },
        {
          "internalType": "uint256",
          "name": "value",
          "type": "uint256"
        }
      ],
      "name": "$_transfer",
      "outputs": [],
      "stateMutability": "nonpayable",
      "type": "function"
    },
    {
      "inputs": [
        {
          "internalType": "address",
          "name": "from",
          "type": "address"
        },
        {
          "internalType": "address",
          "name": "to",
          "type": "address"
        },
        {
          "internalType": "uint256",
          "name": "amount",
          "type": "uint256"
        }
      ],
      "name": "$_update",
      "outputs": [],
      "stateMutability": "nonpayable",
      "type": "function"
    },
    {
      "inputs": [],
      "name": "__hh_exposed_bytecode_marker",
      "outputs": [
        {
          "internalType": "bytes32",
          "name": "",
          "type": "bytes32"
        }
      ],
      "stateMutability": "view",
      "type": "function"
    },
    {
      "inputs": [
        {
          "internalType": "address",
          "name": "owner",
          "type": "address"
        },
        {
          "internalType": "address",
          "name": "spender",
          "type": "address"
        }
      ],
      "name": "allowance",
      "outputs": [
        {
          "internalType": "uint256",
          "name": "",
          "type": "uint256"
        }
      ],
      "stateMutability": "view",
      "type": "function"
    },
    {
      "inputs": [
        {
          "internalType": "address",
          "name": "spender",
          "type": "address"
        },
        {
          "internalType": "uint256",
          "name": "value",
          "type": "uint256"
        }
      ],
      "name": "approve",
      "outputs": [
        {
          "internalType": "bool",
          "name": "",
          "type": "bool"
        }
      ],
      "stateMutability": "nonpayable",
      "type": "function"
    },
    {
      "inputs": [
        {
          "internalType": "address",
          "name": "account",
          "type": "address"
        }
      ],
      "name": "balanceOf",
      "outputs": [
        {
          "internalType": "uint256",
          "name": "",
          "type": "uint256"
        }
      ],
      "stateMutability": "view",
      "type": "function"
    },
    {
      "inputs": [],
      "name": "decimals",
      "outputs": [
        {
          "internalType": "uint8",
          "name": "",
          "type": "uint8"
        }
      ],
      "stateMutability": "view",
      "type": "function"
    },
    {
      "inputs": [
        {
          "internalType": "address",
          "name": "spender",
          "type": "address"
        },
        {
          "internalType": "uint256",
          "name": "requestedDecrease",
          "type": "uint256"
        }
      ],
      "name": "decreaseAllowance",
      "outputs": [
        {
          "internalType": "bool",
          "name": "",
          "type": "bool"
        }
      ],
      "stateMutability": "nonpayable",
      "type": "function"
    },
    {
      "inputs": [
        {
          "internalType": "address",
          "name": "target",
          "type": "address"
        },
        {
          "internalType": "bytes",
          "name": "data",
          "type": "bytes"
        }
      ],
      "name": "functionCall",
      "outputs": [
        {
          "internalType": "bytes",
          "name": "",
          "type": "bytes"
        }
      ],
      "stateMutability": "nonpayable",
      "type": "function"
    },
    {
      "inputs": [
        {
          "internalType": "address",
          "name": "spender",
          "type": "address"
        },
        {
          "internalType": "uint256",
          "name": "addedValue",
          "type": "uint256"
        }
      ],
      "name": "increaseAllowance",
      "outputs": [
        {
          "internalType": "bool",
          "name": "",
          "type": "bool"
        }
      ],
      "stateMutability": "nonpayable",
      "type": "function"
    },
    {
      "inputs": [],
      "name": "name",
      "outputs": [
        {
          "internalType": "string",
          "name": "",
          "type": "string"
        }
      ],
      "stateMutability": "view",
      "type": "function"
    },
    {
      "inputs": [
        {
          "internalType": "enum ERC20Reentrant.Type",
          "name": "when",
          "type": "uint8"
        },
        {
          "internalType": "address",
          "name": "target",
          "type": "address"
        },
        {
          "internalType": "bytes",
          "name": "data",
          "type": "bytes"
        }
      ],
      "name": "scheduleReenter",
      "outputs": [],
      "stateMutability": "nonpayable",
      "type": "function"
    },
    {
      "inputs": [],
      "name": "symbol",
      "outputs": [
        {
          "internalType": "string",
          "name": "",
          "type": "string"
        }
      ],
      "stateMutability": "view",
      "type": "function"
    },
    {
      "inputs": [],
      "name": "totalSupply",
      "outputs": [
        {
          "internalType": "uint256",
          "name": "",
          "type": "uint256"
        }
      ],
      "stateMutability": "view",
      "type": "function"
    },
    {
      "inputs": [
        {
          "internalType": "address",
          "name": "to",
          "type": "address"
        },
        {
          "internalType": "uint256",
          "name": "value",
          "type": "uint256"
        }
      ],
      "name": "transfer",
      "outputs": [
        {
          "internalType": "bool",
          "name": "",
          "type": "bool"
        }
      ],
      "stateMutability": "nonpayable",
      "type": "function"
    },
    {
      "inputs": [
        {
          "internalType": "address",
          "name": "from",
          "type": "address"
        },
        {
          "internalType": "address",
          "name": "to",
          "type": "address"
        },
        {
          "internalType": "uint256",
          "name": "value",
          "type": "uint256"
        }
      ],
      "name": "transferFrom",
      "outputs": [
        {
          "internalType": "bool",
          "name": "",
          "type": "bool"
        }
      ],
      "stateMutability": "nonpayable",
      "type": "function"
    },
    {
      "stateMutability": "payable",
      "type": "receive"
    }
  ],
  "bytecode": "0x6004608090815263151154d560e21b60a052610100604052600360c0818152621514d560ea1b60e05290620000358382620000ed565b506004620000448282620000ed565b505050620001b5565b634e487b7160e01b5f52604160045260245ffd5b600181811c908216806200007657607f821691505b6020821081036200009557634e487b7160e01b5f52602260045260245ffd5b50919050565b601f821115620000e8575f81815260208120601f850160051c81016020861015620000c35750805b601f850160051c820191505b81811015620000e457828155600101620000cf565b5050505b505050565b81516001600160401b038111156200010957620001096200004d565b62000121816200011a845462000061565b846200009b565b602080601f83116001811462000157575f84156200013f5750858301515b5f19600386901b1c1916600185901b178555620000e4565b5f85815260208120601f198616915b82811015620001875788860151825594840194600190910190840162000166565b5085821015620001a557878501515f19600388901b60f8161c191681555b5050505050600190811b01905550565b6110c480620001c35f395ff3fe60806040526004361061013f575f3560e01c806370a08231116100b3578063b2331d7d1161006d578063b2331d7d14610371578063cc461d6214610390578063cd594b63146103af578063dd62ed3e146103ce578063e047838d146103ed578063efb43b071461040c575f80fd5b806370a08231146102ad578063861e3d3d146102e157806395d89b4114610300578063a0b5ffb014610314578063a457c2d714610333578063a9059cbb14610352575f80fd5b8063313ce56711610104578063313ce567146101fa57806332bc74aa1461021557806332cadf3c14610236578063342db7391461024a578063395093511461026f5780636855a1781461028e575f80fd5b806306fdde031461014a578063095ea7b31461017457806318160ddd146101a357806323b872dd146101c15780632904df29146101e0575f80fd5b3661014657005b5f80fd5b348015610155575f80fd5b5061015e61042b565b60405161016b9190610c7c565b60405180910390f35b34801561017f575f80fd5b5061019361018e366004610ca9565b6104bb565b604051901515815260200161016b565b3480156101ae575f80fd5b506002545b60405190815260200161016b565b3480156101cc575f80fd5b506101936101db366004610cd1565b6104d4565b3480156101eb575f80fd5b5060405133815260200161016b565b348015610205575f80fd5b506040516012815260200161016b565b348015610220575f80fd5b5061023461022f366004610d0a565b6104f7565b005b348015610241575f80fd5b5061015e610509565b348015610255575f80fd5b506101b36e1a185c991a185d0b595e1c1bdcd959608a1b81565b34801561027a575f80fd5b50610193610289366004610ca9565b610546565b348015610299575f80fd5b506102346102a8366004610cd1565b610567565b3480156102b8575f80fd5b506101b36102c7366004610d5a565b6001600160a01b03165f9081526020819052604090205490565b3480156102ec575f80fd5b506102346102fb366004610cd1565b610577565b34801561030b575f80fd5b5061015e610582565b34801561031f575f80fd5b5061015e61032e366004610d87565b610591565b34801561033e575f80fd5b5061019361034d366004610ca9565b6105a4565b34801561035d575f80fd5b5061019361036c366004610ca9565b6105ff565b34801561037c575f80fd5b5061023461038b366004610cd1565b61060c565b34801561039b575f80fd5b506102346103aa366004610ca9565b610617565b3480156103ba575f80fd5b506102346103c9366004610e43565b610625565b3480156103d9575f80fd5b506101b36103e8366004610ecf565b61067d565b3480156103f8575f80fd5b50610234610407366004610ca9565b6106a7565b348015610417575f80fd5b50610234610426366004610cd1565b6106b1565b60606003805461043a90610f00565b80601f016020809104026020016040519081016040528092919081815260200182805461046690610f00565b80156104b15780601f10610488576101008083540402835291602001916104b1565b820191905f5260205f20905b81548152906001019060200180831161049457829003601f168201915b5050505050905090565b5f336104c88185856106bc565b60019150505b92915050565b5f336104e18582856106c9565b6104ec858585610726565b506001949350505050565b61050384848484610778565b50505050565b60605f368080601f0160208091040260200160405190810160405280939291908181526020018383808284375f9201919091525092949350505050565b5f336104c8818585610558838361067d565b6105629190610f38565b6106bc565b61057283838361084a565b505050565b6105728383836106bc565b60606004805461043a90610f00565b606061059d838361096e565b9392505050565b5f33816105b1828661067d565b9050838110156105f257604051632983c0c360e21b81526001600160a01b038616600482015260248101829052604481018590526064015b60405180910390fd5b6104ec82868684036106bc565b5f336104c8818585610726565b6105728383836106c9565b610621828261097e565b5050565b6005805485919060ff1916600183600281111561064457610644610f57565b021790555060058054610100600160a81b0319166101006001600160a01b038616021790556006610676828483610fb8565b5050505050565b6001600160a01b039182165f90815260016020908152604080832093909416825291909152205490565b61062182826109b2565b610572838383610726565b6105728383836001610778565b5f6106d4848461067d565b90505f198114610503578181101561071857604051637dc7a0d960e11b81526001600160a01b038416600482015260248101829052604481018390526064016105e9565b61050384848484035f610778565b6001600160a01b03831661074f57604051634b637e8f60e11b81525f60048201526024016105e9565b6001600160a01b0382166105675760405163ec442f0560e01b81525f60048201526024016105e9565b6001600160a01b0384166107a15760405163e602df0560e01b81525f60048201526024016105e9565b6001600160a01b0383166107ca57604051634a1406b160e11b81525f60048201526024016105e9565b6001600160a01b038085165f908152600160209081526040808320938716835292905220829055801561050357826001600160a01b0316846001600160a01b03167f8c5be1e5ebec7d5bd14f71427d1e84f3dd0314c0f7b2291e5b200ac8c7c3b9258460405161083c91815260200190565b60405180910390a350505050565b600160055460ff16600281111561086357610863610f57565b03610918576005805460ff191690819055600680546109169261010090046001600160a01b0316919061089590610f00565b80601f01602080910402602001604051908101604052809291908181526020018280546108c190610f00565b801561090c5780601f106108e35761010080835404028352916020019161090c565b820191905f5260205f20905b8154815290600101906020018083116108ef57829003601f168201915b5050505050610591565b505b6109238383836109e6565b600260055460ff16600281111561093c5761093c610f57565b03610572576005805460ff191690819055600680546105039261010090046001600160a01b0316919061089590610f00565b606061059d83835f610b0c610b25565b6001600160a01b0382166109a75760405163ec442f0560e01b81525f60048201526024016105e9565b6106215f838361084a565b6001600160a01b0382166109db57604051634b637e8f60e11b81525f60048201526024016105e9565b610621825f8361084a565b6001600160a01b038316610a10578060025f828254610a059190610f38565b90915550610a809050565b6001600160a01b0383165f9081526020819052604090205481811015610a625760405163391434e360e21b81526001600160a01b038516600482015260248101829052604481018390526064016105e9565b6001600160a01b0384165f9081526020819052604090209082900390555b6001600160a01b038216610a9c57600280548290039055610aba565b6001600160a01b0382165f9081526020819052604090208054820190555b816001600160a01b0316836001600160a01b03167fddf252ad1be2c89b69c2b068fc378daa952ba7f163c4a11628f55a4df523b3ef83604051610aff91815260200190565b60405180910390a3505050565b604051630a12f52160e11b815260040160405180910390fd5b606082471015610b4a5760405163cd78605960e01b81523060048201526024016105e9565b5f80866001600160a01b03168587604051610b659190611073565b5f6040518083038185875af1925050503d805f8114610b9f576040519150601f19603f3d011682016040523d82523d5f602084013e610ba4565b606091505b5091509150610bb587838387610bc2565b925050505b949350505050565b60608315610c0e5782515f03610c0757846001600160a01b03163b5f03610c0757604051639996b31560e01b81526001600160a01b03861660048201526024016105e9565b5081610bba565b610bba8383815115610c235781518083602001fd5b610b0c8163ffffffff16565b5f5b83811015610c49578181015183820152602001610c31565b50505f910152565b5f8151808452610c68816020860160208601610c2f565b601f01601f19169290920160200192915050565b602081525f61059d6020830184610c51565b80356001600160a01b0381168114610ca4575f80fd5b919050565b5f8060408385031215610cba575f80fd5b610cc383610c8e565b946020939093013593505050565b5f805f60608486031215610ce3575f80fd5b610cec84610c8e565b9250610cfa60208501610c8e565b9150604084013590509250925092565b5f805f8060808587031215610d1d575f80fd5b610d2685610c8e565b9350610d3460208601610c8e565b92506040850135915060608501358015158114610d4f575f80fd5b939692955090935050565b5f60208284031215610d6a575f80fd5b61059d82610c8e565b634e487b7160e01b5f52604160045260245ffd5b5f8060408385031215610d98575f80fd5b610da183610c8e565b9150602083013567ffffffffffffffff80821115610dbd575f80fd5b818501915085601f830112610dd0575f80fd5b813581811115610de257610de2610d73565b604051601f8201601f19908116603f01168101908382118183101715610e0a57610e0a610d73565b81604052828152886020848701011115610e22575f80fd5b826020860160208301375f6020848301015280955050505050509250929050565b5f805f8060608587031215610e56575f80fd5b843560038110610e64575f80fd5b9350610e7260208601610c8e565b9250604085013567ffffffffffffffff80821115610e8e575f80fd5b818701915087601f830112610ea1575f80fd5b813581811115610eaf575f80fd5b886020828501011115610ec0575f80fd5b95989497505060200194505050565b5f8060408385031215610ee0575f80fd5b610ee983610c8e565b9150610ef760208401610c8e565b90509250929050565b600181811c90821680610f1457607f821691505b602082108103610f3257634e487b7160e01b5f52602260045260245ffd5b50919050565b808201808211156104ce57634e487b7160e01b5f52601160045260245ffd5b634e487b7160e01b5f52602160045260245ffd5b601f821115610572575f81815260208120601f850160051c81016020861015610f915750805b601f850160051c820191505b81811015610fb057828155600101610f9d565b505050505050565b67ffffffffffffffff831115610fd057610fd0610d73565b610fe483610fde8354610f00565b83610f6b565b5f601f841160018114611015575f8515610ffe5750838201355b5f19600387901b1c1916600186901b178355610676565b5f83815260209020601f19861690835b828110156110455786850135825560209485019460019092019101611025565b5086821015611061575f1960f88860031b161c19848701351681555b505060018560011b0183555050505050565b5f8251611084818460208701610c2f565b919091019291505056fea2646970667358221220dee64e1f124532c0f726df675c2febf5beea576ece3d956f2d76b2f71a5aaaa764736f6c63430008140033",
  "linkReferences": {},
  "deployedLinkReferences": {}
}