{
  "_format": "hh-sol-artifact-1",
  "contractName": "$UpgradeableBeacon",
  "sourceName": "contracts-exposed/proxy/beacon/UpgradeableBeacon.sol",
  "abi": [
    {
      "inputs": [
        {
          "internalType": "address",
          "name": "implementation_",
          "type": "address"
        },
        {
          "internalType": "address",
          "name": "initialOwner",
          "type": "address"
        }
      ],
      "stateMutability": "payable",
      "type": "constructor"
    },
    {
      "inputs": [
        {
          "internalType": "address",
          "name": "implementation",
          "type": "address"
        }
      ],
      "name": "BeaconInvalidImplementation",
      "type": "error"
    },
    {
      "inputs": [
        {
          "internalType": "address",
          "name": "owner",
          "type": "address"
        }
      ],
      "name": "OwnableInvalidOwner",
      "type": "error"
    },
    {
      "inputs": [
        {
          "internalType": "address",
          "name": "account",
          "type": "address"
        }
      ],
      "name": "OwnableUnauthorizedAccount",
      "type": "error"
    },
    {
      "anonymous": false,
      "inputs": [
        {
          "indexed": true,
          "internalType": "address",
          "name": "previousOwner",
          "type": "address"
        },
        {
          "indexed": true,
          "internalType": "address",
          "name": "newOwner",
          "type": "address"
        }
      ],
      "name": "OwnershipTransferred",
      "type": "event"
    },
    {
      "anonymous": false,
      "inputs": [
        {
          "indexed": true,
          "internalType": "address",
          "name": "implementation",
          "type": "address"
        }
      ],
      "name": "Upgraded",
      "type": "event"
    },
    {
      "inputs": [],
      "name": "$_checkOwner",
      "outputs": [],
      "stateMutability": "view",
      "type": "function"
    },
    {
      "inputs": [],
      "name": "$_msgData",
      "outputs": [
        {
          "internalType": "bytes",
          "name": "ret0",
          "type": "bytes"
        }
      ],
      "stateMutability": "view",
      "type": "function"
    },
    {
      "inputs": [],
      "name": "$_msgSender",
      "outputs": [
        {
          "internalType": "address",
          "name": "ret0",
          "type": "address"
        }
      ],
      "stateMutability": "view",
      "type": "function"
    },
    {
      "inputs": [
        {
          "internalType": "address",
          "name": "newOwner",
          "type": "address"
        }
      ],
      "name": "$_transferOwnership",
      "outputs": [],
      "stateMutability": "nonpayable",
      "type": "function"
    },
    {
      "inputs": [],
      "name": "__hh_exposed_bytecode_marker",
      "outputs": [
        {
          "internalType": "bytes32",
          "name": "",
          "type": "bytes32"
        }
      ],
      "stateMutability": "view",
      "type": "function"
    },
    {
      "inputs": [],
      "name": "implementation",
      "outputs": [
        {
          "internalType": "address",
          "name": "",
          "type": "address"
        }
      ],
      "stateMutability": "view",
      "type": "function"
    },
    {
      "inputs": [],
      "name": "owner",
      "outputs": [
        {
          "internalType": "address",
          "name": "",
          "type": "address"
        }
      ],
      "stateMutability": "view",
      "type": "function"
    },
    {
      "inputs": [],
      "name": "renounceOwnership",
      "outputs": [],
      "stateMutability": "nonpayable",
      "type": "function"
    },
    {
      "inputs": [
        {
          "internalType": "address",
          "name": "newOwner",
          "type": "address"
        }
      ],
      "name": "transferOwnership",
      "outputs": [],
      "stateMutability": "nonpayable",
      "type": "function"
    },
    {
      "inputs": [
        {
          "internalType": "address",
          "name": "newImplementation",
          "type": "address"
        }
      ],
      "name": "upgradeTo",
      "outputs": [],
      "stateMutability": "nonpayable",
      "type": "function"
    },
    {
      "stateMutability": "payable",
      "type": "receive"
    }
  ],
  "bytecode": "0x608060405260405161058138038061058183398101604081905261002291610106565b81818061002e81610041565b5061003882610090565b50505050610137565b5f80546001600160a01b038381166001600160a01b0319831681178455604051919092169283917f8be0079c531659141344cd1fd0a4f28419497f9722a3daafe3b4186f6b6457e09190a35050565b806001600160a01b03163b5f036100c95760405163211eb15960e21b81526001600160a01b038216600482015260240160405180910390fd5b600180546001600160a01b0319166001600160a01b0392909216919091179055565b80516001600160a01b0381168114610101575f80fd5b919050565b5f8060408385031215610117575f80fd5b610120836100eb565b915061012e602084016100eb565b90509250929050565b61043d806101445f395ff3fe608060405260043610610092575f3560e01c8063715018a611610057578063715018a61461015a5780638da5cb5b1461016e578063ebcca7071461018a578063f2fde38b1461019e578063fe1c9a24146101bd575f80fd5b80632904df291461009d57806332cadf3c146100c8578063342db739146100e95780633659cfe61461011c5780635c60da1b1461013d575f80fd5b3661009957005b5f80fd5b3480156100a8575f80fd5b50335b6040516001600160a01b0390911681526020015b60405180910390f35b3480156100d3575f80fd5b506100dc6101dc565b6040516100bf919061038f565b3480156100f4575f80fd5b5061010e6e1a185c991a185d0b595e1c1bdcd959608a1b81565b6040519081526020016100bf565b348015610127575f80fd5b5061013b6101363660046103da565b610219565b005b348015610148575f80fd5b506001546001600160a01b03166100ab565b348015610165575f80fd5b5061013b610260565b348015610179575f80fd5b505f546001600160a01b03166100ab565b348015610195575f80fd5b5061013b610273565b3480156101a9575f80fd5b5061013b6101b83660046103da565b61027b565b3480156101c8575f80fd5b5061013b6101d73660046103da565b6102b1565b60605f368080601f0160208091040260200160405190810160405280939291908181526020018383808284375f9201919091525092949350505050565b6102216102bd565b61022a816102e9565b6040516001600160a01b038216907fbc7cd75a20ee27fd9adebab32041f755214dbc6bffa90cc0225b39da2e5c2d3b905f90a250565b6102686102bd565b6102715f610340565b565b6102716102bd565b6102836102bd565b6001600160a01b0381166102b157604051631e4fbdf760e01b81525f60048201526024015b60405180910390fd5b6102ba81610340565b50565b5f546001600160a01b031633146102715760405163118cdaa760e01b81523360048201526024016102a8565b806001600160a01b03163b5f0361031e5760405163211eb15960e21b81526001600160a01b03821660048201526024016102a8565b600180546001600160a01b0319166001600160a01b0392909216919091179055565b5f80546001600160a01b038381166001600160a01b0319831681178455604051919092169283917f8be0079c531659141344cd1fd0a4f28419497f9722a3daafe3b4186f6b6457e09190a35050565b5f6020808352835180828501525f5b818110156103ba5785810183015185820160400152820161039e565b505f604082860101526040601f19601f8301168501019250505092915050565b5f602082840312156103ea575f80fd5b81356001600160a01b0381168114610400575f80fd5b939250505056fea264697066735822122068db83a18d5aec5e7f05c56e1cd78890da39f29c201df3ecae6a8dc968cb039c64736f6c63430008140033",
  "linkReferences": {},
  "deployedLinkReferences": {}
}