{
  "_format": "hh-sol-artifact-1",
  "contractName": "$MyGovernor",
  "sourceName": "contracts-exposed/mocks/docs/governance/MyGovernor.sol",
  "abi": [
    {
      "inputs": [
        {
          "internalType": "contract IVotes",
          "name": "_token",
          "type": "address"
        },
        {
          "internalType": "contract TimelockController",
          "name": "_timelock",
          "type": "address"
        }
      ],
      "stateMutability": "payable",
      "type": "constructor"
    },
    {
      "inputs": [],
      "name": "CheckpointUnorderedInsertion",
      "type": "error"
    },
    {
      "inputs": [],
      "name": "FailedInnerCall",
      "type": "error"
    },
    {
      "inputs": [
        {
          "internalType": "address",
          "name": "voter",
          "type": "address"
        }
      ],
      "name": "GovernorAlreadyCastVote",
      "type": "error"
    },
    {
      "inputs": [
        {
          "internalType": "uint256",
          "name": "proposalId",
          "type": "uint256"
        }
      ],
      "name": "GovernorAlreadyQueuedProposal",
      "type": "error"
    },
    {
      "inputs": [],
      "name": "GovernorDisabledDeposit",
      "type": "error"
    },
    {
      "inputs": [
        {
          "internalType": "address",
          "name": "proposer",
          "type": "address"
        },
        {
          "internalType": "uint256",
          "name": "votes",
          "type": "uint256"
        },
        {
          "internalType": "uint256",
          "name": "threshold",
          "type": "uint256"
        }
      ],
      "name": "GovernorInsufficientProposerVotes",
      "type": "error"
    },
    {
      "inputs": [
        {
          "internalType": "uint256",
          "name": "targets",
          "type": "uint256"
        },
        {
          "internalType": "uint256",
          "name": "calldatas",
          "type": "uint256"
        },
        {
          "internalType": "uint256",
          "name": "values",
          "type": "uint256"
        }
      ],
      "name": "GovernorInvalidProposalLength",
      "type": "error"
    },
    {
      "inputs": [
        {
          "internalType": "uint256",
          "name": "quorumNumerator",
          "type": "uint256"
        },
        {
          "internalType": "uint256",
          "name": "quorumDenominator",
          "type": "uint256"
        }
      ],
      "name": "GovernorInvalidQuorumFraction",
      "type": "error"
    },
    {
      "inputs": [
        {
          "internalType": "address",
          "name": "voter",
          "type": "address"
        }
      ],
      "name": "GovernorInvalidSignature",
      "type": "error"
    },
    {
      "inputs": [
        {
          "internalType": "uint256",
          "name": "signatures",
          "type": "uint256"
        },
        {
          "internalType": "uint256",
          "name": "calldatas",
          "type": "uint256"
        }
      ],
      "name": "GovernorInvalidSignaturesLength",
      "type": "error"
    },
    {
      "inputs": [],
      "name": "GovernorInvalidVoteType",
      "type": "error"
    },
    {
      "inputs": [
        {
          "internalType": "uint256",
          "name": "votingPeriod",
          "type": "uint256"
        }
      ],
      "name": "GovernorInvalidVotingPeriod",
      "type": "error"
    },
    {
      "inputs": [
        {
          "internalType": "uint256",
          "name": "proposalId",
          "type": "uint256"
        }
      ],
      "name": "GovernorNonexistentProposal",
      "type": "error"
    },
    {
      "inputs": [
        {
          "internalType": "uint256",
          "name": "proposalId",
          "type": "uint256"
        }
      ],
      "name": "GovernorNotQueuedProposal",
      "type": "error"
    },
    {
      "inputs": [
        {
          "internalType": "address",
          "name": "account",
          "type": "address"
        }
      ],
      "name": "GovernorOnlyExecutor",
      "type": "error"
    },
    {
      "inputs": [
        {
          "internalType": "address",
          "name": "account",
          "type": "address"
        }
      ],
      "name": "GovernorOnlyProposer",
      "type": "error"
    },
    {
      "inputs": [
        {
          "internalType": "uint256",
          "name": "proposalId",
          "type": "uint256"
        },
        {
          "internalType": "enum IGovernor.ProposalState",
          "name": "current",
          "type": "uint8"
        },
        {
          "internalType": "bytes32",
          "name": "expectedStates",
          "type": "bytes32"
        }
      ],
      "name": "GovernorUnexpectedProposalState",
      "type": "error"
    },
    {
      "inputs": [
        {
          "internalType": "address",
          "name": "account",
          "type": "address"
        },
        {
          "internalType": "uint256",
          "name": "currentNonce",
          "type": "uint256"
        }
      ],
      "name": "InvalidAccountNonce",
      "type": "error"
    },
    {
      "inputs": [],
      "name": "InvalidShortString",
      "type": "error"
    },
    {
      "inputs": [],
      "name": "QueueEmpty",
      "type": "error"
    },
    {
      "inputs": [
        {
          "internalType": "uint8",
          "name": "bits",
          "type": "uint8"
        },
        {
          "internalType": "uint256",
          "name": "value",
          "type": "uint256"
        }
      ],
      "name": "SafeCastOverflowedUintDowncast",
      "type": "error"
    },
    {
      "inputs": [
        {
          "internalType": "string",
          "name": "str",
          "type": "string"
        }
      ],
      "name": "StringTooLong",
      "type": "error"
    },
    {
      "anonymous": false,
      "inputs": [],
      "name": "EIP712DomainChanged",
      "type": "event"
    },
    {
      "anonymous": false,
      "inputs": [
        {
          "indexed": false,
          "internalType": "uint256",
          "name": "proposalId",
          "type": "uint256"
        }
      ],
      "name": "ProposalCanceled",
      "type": "event"
    },
    {
      "anonymous": false,
      "inputs": [
        {
          "indexed": false,
          "internalType": "uint256",
          "name": "proposalId",
          "type": "uint256"
        },
        {
          "indexed": false,
          "internalType": "address",
          "name": "proposer",
          "type": "address"
        },
        {
          "indexed": false,
          "internalType": "address[]",
          "name": "targets",
          "type": "address[]"
        },
        {
          "indexed": false,
          "internalType": "uint256[]",
          "name": "values",
          "type": "uint256[]"
        },
        {
          "indexed": false,
          "internalType": "string[]",
          "name": "signatures",
          "type": "string[]"
        },
        {
          "indexed": false,
          "internalType": "bytes[]",
          "name": "calldatas",
          "type": "bytes[]"
        },
        {
          "indexed": false,
          "internalType": "uint256",
          "name": "voteStart",
          "type": "uint256"
        },
        {
          "indexed": false,
          "internalType": "uint256",
          "name": "voteEnd",
          "type": "uint256"
        },
        {
          "indexed": false,
          "internalType": "string",
          "name": "description",
          "type": "string"
        }
      ],
      "name": "ProposalCreated",
      "type": "event"
    },
    {
      "anonymous": false,
      "inputs": [
        {
          "indexed": false,
          "internalType": "uint256",
          "name": "proposalId",
          "type": "uint256"
        }
      ],
      "name": "ProposalExecuted",
      "type": "event"
    },
    {
      "anonymous": false,
      "inputs": [
        {
          "indexed": false,
          "internalType": "uint256",
          "name": "proposalId",
          "type": "uint256"
        },
        {
          "indexed": false,
          "internalType": "uint256",
          "name": "eta",
          "type": "uint256"
        }
      ],
      "name": "ProposalQueued",
      "type": "event"
    },
    {
      "anonymous": false,
      "inputs": [
        {
          "indexed": false,
          "internalType": "uint256",
          "name": "oldQuorumNumerator",
          "type": "uint256"
        },
        {
          "indexed": false,
          "internalType": "uint256",
          "name": "newQuorumNumerator",
          "type": "uint256"
        }
      ],
      "name": "QuorumNumeratorUpdated",
      "type": "event"
    },
    {
      "anonymous": false,
      "inputs": [
        {
          "indexed": false,
          "internalType": "address",
          "name": "oldTimelock",
          "type": "address"
        },
        {
          "indexed": false,
          "internalType": "address",
          "name": "newTimelock",
          "type": "address"
        }
      ],
      "name": "TimelockChange",
      "type": "event"
    },
    {
      "anonymous": false,
      "inputs": [
        {
          "indexed": true,
          "internalType": "address",
          "name": "voter",
          "type": "address"
        },
        {
          "indexed": false,
          "internalType": "uint256",
          "name": "proposalId",
          "type": "uint256"
        },
        {
          "indexed": false,
          "internalType": "uint8",
          "name": "support",
          "type": "uint8"
        },
        {
          "indexed": false,
          "internalType": "uint256",
          "name": "weight",
          "type": "uint256"
        },
        {
          "indexed": false,
          "internalType": "string",
          "name": "reason",
          "type": "string"
        }
      ],
      "name": "VoteCast",
      "type": "event"
    },
    {
      "anonymous": false,
      "inputs": [
        {
          "indexed": true,
          "internalType": "address",
          "name": "voter",
          "type": "address"
        },
        {
          "indexed": false,
          "internalType": "uint256",
          "name": "proposalId",
          "type": "uint256"
        },
        {
          "indexed": false,
          "internalType": "uint8",
          "name": "support",
          "type": "uint8"
        },
        {
          "indexed": false,
          "internalType": "uint256",
          "name": "weight",
          "type": "uint256"
        },
        {
          "indexed": false,
          "internalType": "string",
          "name": "reason",
          "type": "string"
        },
        {
          "indexed": false,
          "internalType": "bytes",
          "name": "params",
          "type": "bytes"
        }
      ],
      "name": "VoteCastWithParams",
      "type": "event"
    },
    {
      "anonymous": false,
      "inputs": [
        {
          "indexed": false,
          "internalType": "uint256",
          "name": "ret0",
          "type": "uint256"
        }
      ],
      "name": "return$_cancel",
      "type": "event"
    },
    {
      "anonymous": false,
      "inputs": [
        {
          "indexed": false,
          "internalType": "uint256",
          "name": "ret0",
          "type": "uint256"
        }
      ],
      "name": "return$_castVote_uint256_address_uint8_string",
      "type": "event"
    },
    {
      "anonymous": false,
      "inputs": [
        {
          "indexed": false,
          "internalType": "uint256",
          "name": "ret0",
          "type": "uint256"
        }
      ],
      "name": "return$_castVote_uint256_address_uint8_string_bytes",
      "type": "event"
    },
    {
      "anonymous": false,
      "inputs": [
        {
          "indexed": false,
          "internalType": "uint256",
          "name": "ret0",
          "type": "uint256"
        }
      ],
      "name": "return$_useCheckedNonce",
      "type": "event"
    },
    {
      "anonymous": false,
      "inputs": [
        {
          "indexed": false,
          "internalType": "uint256",
          "name": "ret0",
          "type": "uint256"
        }
      ],
      "name": "return$_useNonce",
      "type": "event"
    },
    {
      "inputs": [],
      "name": "$_EIP712Name",
      "outputs": [
        {
          "internalType": "string",
          "name": "ret0",
          "type": "string"
        }
      ],
      "stateMutability": "view",
      "type": "function"
    },
    {
      "inputs": [],
      "name": "$_EIP712Version",
      "outputs": [
        {
          "internalType": "string",
          "name": "ret0",
          "type": "string"
        }
      ],
      "stateMutability": "view",
      "type": "function"
    },
    {
      "inputs": [
        {
          "internalType": "uint256",
          "name": "arg0",
          "type": "uint256"
        },
        {
          "internalType": "address[]",
          "name": "arg1",
          "type": "address[]"
        },
        {
          "internalType": "uint256[]",
          "name": "arg2",
          "type": "uint256[]"
        },
        {
          "internalType": "bytes[]",
          "name": "arg3",
          "type": "bytes[]"
        },
        {
          "internalType": "bytes32",
          "name": "arg4",
          "type": "bytes32"
        }
      ],
      "name": "$_afterExecute",
      "outputs": [],
      "stateMutability": "nonpayable",
      "type": "function"
    },
    {
      "inputs": [
        {
          "internalType": "uint256",
          "name": "arg0",
          "type": "uint256"
        },
        {
          "internalType": "address[]",
          "name": "targets",
          "type": "address[]"
        },
        {
          "internalType": "uint256[]",
          "name": "arg2",
          "type": "uint256[]"
        },
        {
          "internalType": "bytes[]",
          "name": "calldatas",
          "type": "bytes[]"
        },
        {
          "internalType": "bytes32",
          "name": "arg4",
          "type": "bytes32"
        }
      ],
      "name": "$_beforeExecute",
      "outputs": [],
      "stateMutability": "nonpayable",
      "type": "function"
    },
    {
      "inputs": [
        {
          "internalType": "address[]",
          "name": "targets",
          "type": "address[]"
        },
        {
          "internalType": "uint256[]",
          "name": "values",
          "type": "uint256[]"
        },
        {
          "internalType": "bytes[]",
          "name": "calldatas",
          "type": "bytes[]"
        },
        {
          "internalType": "bytes32",
          "name": "descriptionHash",
          "type": "bytes32"
        }
      ],
      "name": "$_cancel",
      "outputs": [
        {
          "internalType": "uint256",
          "name": "ret0",
          "type": "uint256"
        }
      ],
      "stateMutability": "nonpayable",
      "type": "function"
    },
    {
      "inputs": [
        {
          "internalType": "uint256",
          "name": "proposalId",
          "type": "uint256"
        },
        {
          "internalType": "address",
          "name": "account",
          "type": "address"
        },
        {
          "internalType": "uint8",
          "name": "support",
          "type": "uint8"
        },
        {
          "internalType": "string",
          "name": "reason",
          "type": "string"
        },
        {
          "internalType": "bytes",
          "name": "params",
          "type": "bytes"
        }
      ],
      "name": "$_castVote",
      "outputs": [
        {
          "internalType": "uint256",
          "name": "ret0",
          "type": "uint256"
        }
      ],
      "stateMutability": "nonpayable",
      "type": "function"
    },
    {
      "inputs": [
        {
          "internalType": "uint256",
          "name": "proposalId",
          "type": "uint256"
        },
        {
          "internalType": "address",
          "name": "account",
          "type": "address"
        },
        {
          "internalType": "uint8",
          "name": "support",
          "type": "uint8"
        },
        {
          "internalType": "string",
          "name": "reason",
          "type": "string"
        }
      ],
      "name": "$_castVote",
      "outputs": [
        {
          "internalType": "uint256",
          "name": "ret0",
          "type": "uint256"
        }
      ],
      "stateMutability": "nonpayable",
      "type": "function"
    },
    {
      "inputs": [
        {
          "internalType": "uint256",
          "name": "proposalId",
          "type": "uint256"
        },
        {
          "internalType": "address",
          "name": "account",
          "type": "address"
        },
        {
          "internalType": "uint8",
          "name": "support",
          "type": "uint8"
        },
        {
          "internalType": "uint256",
          "name": "weight",
          "type": "uint256"
        },
        {
          "internalType": "bytes",
          "name": "arg4",
          "type": "bytes"
        }
      ],
      "name": "$_countVote",
      "outputs": [],
      "stateMutability": "nonpayable",
      "type": "function"
    },
    {
      "inputs": [],
      "name": "$_defaultParams",
      "outputs": [
        {
          "internalType": "bytes",
          "name": "ret0",
          "type": "bytes"
        }
      ],
      "stateMutability": "view",
      "type": "function"
    },
    {
      "inputs": [],
      "name": "$_domainSeparatorV4",
      "outputs": [
        {
          "internalType": "bytes32",
          "name": "ret0",
          "type": "bytes32"
        }
      ],
      "stateMutability": "view",
      "type": "function"
    },
    {
      "inputs": [
        {
          "internalType": "enum IGovernor.ProposalState",
          "name": "proposalState",
          "type": "uint8"
        }
      ],
      "name": "$_encodeStateBitmap",
      "outputs": [
        {
          "internalType": "bytes32",
          "name": "ret0",
          "type": "bytes32"
        }
      ],
      "stateMutability": "pure",
      "type": "function"
    },
    {
      "inputs": [
        {
          "internalType": "uint256",
          "name": "proposalId",
          "type": "uint256"
        },
        {
          "internalType": "address[]",
          "name": "targets",
          "type": "address[]"
        },
        {
          "internalType": "uint256[]",
          "name": "values",
          "type": "uint256[]"
        },
        {
          "internalType": "bytes[]",
          "name": "calldatas",
          "type": "bytes[]"
        },
        {
          "internalType": "bytes32",
          "name": "descriptionHash",
          "type": "bytes32"
        }
      ],
      "name": "$_execute",
      "outputs": [],
      "stateMutability": "nonpayable",
      "type": "function"
    },
    {
      "inputs": [],
      "name": "$_executor",
      "outputs": [
        {
          "internalType": "address",
          "name": "ret0",
          "type": "address"
        }
      ],
      "stateMutability": "view",
      "type": "function"
    },
    {
      "inputs": [
        {
          "internalType": "address",
          "name": "account",
          "type": "address"
        },
        {
          "internalType": "uint256",
          "name": "timepoint",
          "type": "uint256"
        },
        {
          "internalType": "bytes",
          "name": "arg2",
          "type": "bytes"
        }
      ],
      "name": "$_getVotes",
      "outputs": [
        {
          "internalType": "uint256",
          "name": "ret0",
          "type": "uint256"
        }
      ],
      "stateMutability": "view",
      "type": "function"
    },
    {
      "inputs": [
        {
          "internalType": "bytes32",
          "name": "structHash",
          "type": "bytes32"
        }
      ],
      "name": "$_hashTypedDataV4",
      "outputs": [
        {
          "internalType": "bytes32",
          "name": "ret0",
          "type": "bytes32"
        }
      ],
      "stateMutability": "view",
      "type": "function"
    },
    {
      "inputs": [
        {
          "internalType": "address",
          "name": "proposer",
          "type": "address"
        },
        {
          "internalType": "string",
          "name": "description",
          "type": "string"
        }
      ],
      "name": "$_isValidDescriptionForProposer",
      "outputs": [
        {
          "internalType": "bool",
          "name": "ret0",
          "type": "bool"
        }
      ],
      "stateMutability": "view",
      "type": "function"
    },
    {
      "inputs": [],
      "name": "$_msgData",
      "outputs": [
        {
          "internalType": "bytes",
          "name": "ret0",
          "type": "bytes"
        }
      ],
      "stateMutability": "view",
      "type": "function"
    },
    {
      "inputs": [],
      "name": "$_msgSender",
      "outputs": [
        {
          "internalType": "address",
          "name": "ret0",
          "type": "address"
        }
      ],
      "stateMutability": "view",
      "type": "function"
    },
    {
      "inputs": [
        {
          "internalType": "uint256",
          "name": "proposalId",
          "type": "uint256"
        }
      ],
      "name": "$_quorumReached",
      "outputs": [
        {
          "internalType": "bool",
          "name": "ret0",
          "type": "bool"
        }
      ],
      "stateMutability": "view",
      "type": "function"
    },
    {
      "inputs": [
        {
          "internalType": "uint256",
          "name": "newQuorumNumerator",
          "type": "uint256"
        }
      ],
      "name": "$_updateQuorumNumerator",
      "outputs": [],
      "stateMutability": "nonpayable",
      "type": "function"
    },
    {
      "inputs": [
        {
          "internalType": "address",
          "name": "owner",
          "type": "address"
        },
        {
          "internalType": "uint256",
          "name": "nonce",
          "type": "uint256"
        }
      ],
      "name": "$_useCheckedNonce",
      "outputs": [
        {
          "internalType": "uint256",
          "name": "ret0",
          "type": "uint256"
        }
      ],
      "stateMutability": "nonpayable",
      "type": "function"
    },
    {
      "inputs": [
        {
          "internalType": "address",
          "name": "owner",
          "type": "address"
        }
      ],
      "name": "$_useNonce",
      "outputs": [
        {
          "internalType": "uint256",
          "name": "ret0",
          "type": "uint256"
        }
      ],
      "stateMutability": "nonpayable",
      "type": "function"
    },
    {
      "inputs": [
        {
          "internalType": "uint256",
          "name": "proposalId",
          "type": "uint256"
        }
      ],
      "name": "$_voteSucceeded",
      "outputs": [
        {
          "internalType": "bool",
          "name": "ret0",
          "type": "bool"
        }
      ],
      "stateMutability": "view",
      "type": "function"
    },
    {
      "inputs": [],
      "name": "BALLOT_TYPEHASH",
      "outputs": [
        {
          "internalType": "bytes32",
          "name": "",
          "type": "bytes32"
        }
      ],
      "stateMutability": "view",
      "type": "function"
    },
    {
      "inputs": [],
      "name": "CLOCK_MODE",
      "outputs": [
        {
          "internalType": "string",
          "name": "",
          "type": "string"
        }
      ],
      "stateMutability": "view",
      "type": "function"
    },
    {
      "inputs": [],
      "name": "COUNTING_MODE",
      "outputs": [
        {
          "internalType": "string",
          "name": "",
          "type": "string"
        }
      ],
      "stateMutability": "pure",
      "type": "function"
    },
    {
      "inputs": [],
      "name": "EXTENDED_BALLOT_TYPEHASH",
      "outputs": [
        {
          "internalType": "bytes32",
          "name": "",
          "type": "bytes32"
        }
      ],
      "stateMutability": "view",
      "type": "function"
    },
    {
      "inputs": [],
      "name": "__hh_exposed_bytecode_marker",
      "outputs": [
        {
          "internalType": "bytes32",
          "name": "",
          "type": "bytes32"
        }
      ],
      "stateMutability": "view",
      "type": "function"
    },
    {
      "inputs": [
        {
          "internalType": "uint256",
          "name": "proposalId",
          "type": "uint256"
        }
      ],
      "name": "cancel",
      "outputs": [],
      "stateMutability": "nonpayable",
      "type": "function"
    },
    {
      "inputs": [
        {
          "internalType": "address[]",
          "name": "targets",
          "type": "address[]"
        },
        {
          "internalType": "uint256[]",
          "name": "values",
          "type": "uint256[]"
        },
        {
          "internalType": "bytes[]",
          "name": "calldatas",
          "type": "bytes[]"
        },
        {
          "internalType": "bytes32",
          "name": "descriptionHash",
          "type": "bytes32"
        }
      ],
      "name": "cancel",
      "outputs": [
        {
          "internalType": "uint256",
          "name": "",
          "type": "uint256"
        }
      ],
      "stateMutability": "nonpayable",
      "type": "function"
    },
    {
      "inputs": [
        {
          "internalType": "uint256",
          "name": "proposalId",
          "type": "uint256"
        },
        {
          "internalType": "uint8",
          "name": "support",
          "type": "uint8"
        }
      ],
      "name": "castVote",
      "outputs": [
        {
          "internalType": "uint256",
          "name": "",
          "type": "uint256"
        }
      ],
      "stateMutability": "nonpayable",
      "type": "function"
    },
    {
      "inputs": [
        {
          "internalType": "uint256",
          "name": "proposalId",
          "type": "uint256"
        },
        {
          "internalType": "uint8",
          "name": "support",
          "type": "uint8"
        },
        {
          "internalType": "address",
          "name": "voter",
          "type": "address"
        },
        {
          "internalType": "bytes",
          "name": "signature",
          "type": "bytes"
        }
      ],
      "name": "castVoteBySig",
      "outputs": [
        {
          "internalType": "uint256",
          "name": "",
          "type": "uint256"
        }
      ],
      "stateMutability": "nonpayable",
      "type": "function"
    },
    {
      "inputs": [
        {
          "internalType": "uint256",
          "name": "proposalId",
          "type": "uint256"
        },
        {
          "internalType": "uint8",
          "name": "support",
          "type": "uint8"
        },
        {
          "internalType": "string",
          "name": "reason",
          "type": "string"
        }
      ],
      "name": "castVoteWithReason",
      "outputs": [
        {
          "internalType": "uint256",
          "name": "",
          "type": "uint256"
        }
      ],
      "stateMutability": "nonpayable",
      "type": "function"
    },
    {
      "inputs": [
        {
          "internalType": "uint256",
          "name": "proposalId",
          "type": "uint256"
        },
        {
          "internalType": "uint8",
          "name": "support",
          "type": "uint8"
        },
        {
          "internalType": "string",
          "name": "reason",
          "type": "string"
        },
        {
          "internalType": "bytes",
          "name": "params",
          "type": "bytes"
        }
      ],
      "name": "castVoteWithReasonAndParams",
      "outputs": [
        {
          "internalType": "uint256",
          "name": "",
          "type": "uint256"
        }
      ],
      "stateMutability": "nonpayable",
      "type": "function"
    },
    {
      "inputs": [
        {
          "internalType": "uint256",
          "name": "proposalId",
          "type": "uint256"
        },
        {
          "internalType": "uint8",
          "name": "support",
          "type": "uint8"
        },
        {
          "internalType": "address",
          "name": "voter",
          "type": "address"
        },
        {
          "internalType": "string",
          "name": "reason",
          "type": "string"
        },
        {
          "internalType": "bytes",
          "name": "params",
          "type": "bytes"
        },
        {
          "internalType": "bytes",
          "name": "signature",
          "type": "bytes"
        }
      ],
      "name": "castVoteWithReasonAndParamsBySig",
      "outputs": [
        {
          "internalType": "uint256",
          "name": "",
          "type": "uint256"
        }
      ],
      "stateMutability": "nonpayable",
      "type": "function"
    },
    {
      "inputs": [],
      "name": "clock",
      "outputs": [
        {
          "internalType": "uint48",
          "name": "",
          "type": "uint48"
        }
      ],
      "stateMutability": "view",
      "type": "function"
    },
    {
      "inputs": [],
      "name": "eip712Domain",
      "outputs": [
        {
          "internalType": "bytes1",
          "name": "fields",
          "type": "bytes1"
        },
        {
          "internalType": "string",
          "name": "name",
          "type": "string"
        },
        {
          "internalType": "string",
          "name": "version",
          "type": "string"
        },
        {
          "internalType": "uint256",
          "name": "chainId",
          "type": "uint256"
        },
        {
          "internalType": "address",
          "name": "verifyingContract",
          "type": "address"
        },
        {
          "internalType": "bytes32",
          "name": "salt",
          "type": "bytes32"
        },
        {
          "internalType": "uint256[]",
          "name": "extensions",
          "type": "uint256[]"
        }
      ],
      "stateMutability": "view",
      "type": "function"
    },
    {
      "inputs": [
        {
          "internalType": "address[]",
          "name": "targets",
          "type": "address[]"
        },
        {
          "internalType": "uint256[]",
          "name": "values",
          "type": "uint256[]"
        },
        {
          "internalType": "bytes[]",
          "name": "calldatas",
          "type": "bytes[]"
        },
        {
          "internalType": "bytes32",
          "name": "descriptionHash",
          "type": "bytes32"
        }
      ],
      "name": "execute",
      "outputs": [
        {
          "internalType": "uint256",
          "name": "",
          "type": "uint256"
        }
      ],
      "stateMutability": "payable",
      "type": "function"
    },
    {
      "inputs": [
        {
          "internalType": "uint256",
          "name": "proposalId",
          "type": "uint256"
        }
      ],
      "name": "execute",
      "outputs": [],
      "stateMutability": "payable",
      "type": "function"
    },
    {
      "inputs": [
        {
          "internalType": "uint256",
          "name": "proposalId",
          "type": "uint256"
        }
      ],
      "name": "getActions",
      "outputs": [
        {
          "internalType": "address[]",
          "name": "targets",
          "type": "address[]"
        },
        {
          "internalType": "uint256[]",
          "name": "values",
          "type": "uint256[]"
        },
        {
          "internalType": "string[]",
          "name": "signatures",
          "type": "string[]"
        },
        {
          "internalType": "bytes[]",
          "name": "calldatas",
          "type": "bytes[]"
        }
      ],
      "stateMutability": "view",
      "type": "function"
    },
    {
      "inputs": [
        {
          "internalType": "uint256",
          "name": "proposalId",
          "type": "uint256"
        },
        {
          "internalType": "address",
          "name": "voter",
          "type": "address"
        }
      ],
      "name": "getReceipt",
      "outputs": [
        {
          "components": [
            {
              "internalType": "bool",
              "name": "hasVoted",
              "type": "bool"
            },
            {
              "internalType": "uint8",
              "name": "support",
              "type": "uint8"
            },
            {
              "internalType": "uint96",
              "name": "votes",
              "type": "uint96"
            }
          ],
          "internalType": "struct IGovernorCompatibilityBravo.Receipt",
          "name": "",
          "type": "tuple"
        }
      ],
      "stateMutability": "view",
      "type": "function"
    },
    {
      "inputs": [
        {
          "internalType": "address",
          "name": "account",
          "type": "address"
        },
        {
          "internalType": "uint256",
          "name": "timepoint",
          "type": "uint256"
        }
      ],
      "name": "getVotes",
      "outputs": [
        {
          "internalType": "uint256",
          "name": "",
          "type": "uint256"
        }
      ],
      "stateMutability": "view",
      "type": "function"
    },
    {
      "inputs": [
        {
          "internalType": "address",
          "name": "account",
          "type": "address"
        },
        {
          "internalType": "uint256",
          "name": "timepoint",
          "type": "uint256"
        },
        {
          "internalType": "bytes",
          "name": "params",
          "type": "bytes"
        }
      ],
      "name": "getVotesWithParams",
      "outputs": [
        {
          "internalType": "uint256",
          "name": "",
          "type": "uint256"
        }
      ],
      "stateMutability": "view",
      "type": "function"
    },
    {
      "inputs": [
        {
          "internalType": "uint256",
          "name": "proposalId",
          "type": "uint256"
        },
        {
          "internalType": "address",
          "name": "account",
          "type": "address"
        }
      ],
      "name": "hasVoted",
      "outputs": [
        {
          "internalType": "bool",
          "name": "",
          "type": "bool"
        }
      ],
      "stateMutability": "view",
      "type": "function"
    },
    {
      "inputs": [
        {
          "internalType": "address[]",
          "name": "targets",
          "type": "address[]"
        },
        {
          "internalType": "uint256[]",
          "name": "values",
          "type": "uint256[]"
        },
        {
          "internalType": "bytes[]",
          "name": "calldatas",
          "type": "bytes[]"
        },
        {
          "internalType": "bytes32",
          "name": "descriptionHash",
          "type": "bytes32"
        }
      ],
      "name": "hashProposal",
      "outputs": [
        {
          "internalType": "uint256",
          "name": "",
          "type": "uint256"
        }
      ],
      "stateMutability": "pure",
      "type": "function"
    },
    {
      "inputs": [],
      "name": "name",
      "outputs": [
        {
          "internalType": "string",
          "name": "",
          "type": "string"
        }
      ],
      "stateMutability": "view",
      "type": "function"
    },
    {
      "inputs": [
        {
          "internalType": "address",
          "name": "owner",
          "type": "address"
        }
      ],
      "name": "nonces",
      "outputs": [
        {
          "internalType": "uint256",
          "name": "",
          "type": "uint256"
        }
      ],
      "stateMutability": "view",
      "type": "function"
    },
    {
      "inputs": [
        {
          "internalType": "address",
          "name": "",
          "type": "address"
        },
        {
          "internalType": "address",
          "name": "",
          "type": "address"
        },
        {
          "internalType": "uint256[]",
          "name": "",
          "type": "uint256[]"
        },
        {
          "internalType": "uint256[]",
          "name": "",
          "type": "uint256[]"
        },
        {
          "internalType": "bytes",
          "name": "",
          "type": "bytes"
        }
      ],
      "name": "onERC1155BatchReceived",
      "outputs": [
        {
          "internalType": "bytes4",
          "name": "",
          "type": "bytes4"
        }
      ],
      "stateMutability": "nonpayable",
      "type": "function"
    },
    {
      "inputs": [
        {
          "internalType": "address",
          "name": "",
          "type": "address"
        },
        {
          "internalType": "address",
          "name": "",
          "type": "address"
        },
        {
          "internalType": "uint256",
          "name": "",
          "type": "uint256"
        },
        {
          "internalType": "uint256",
          "name": "",
          "type": "uint256"
        },
        {
          "internalType": "bytes",
          "name": "",
          "type": "bytes"
        }
      ],
      "name": "onERC1155Received",
      "outputs": [
        {
          "internalType": "bytes4",
          "name": "",
          "type": "bytes4"
        }
      ],
      "stateMutability": "nonpayable",
      "type": "function"
    },
    {
      "inputs": [
        {
          "internalType": "address",
          "name": "",
          "type": "address"
        },
        {
          "internalType": "address",
          "name": "",
          "type": "address"
        },
        {
          "internalType": "uint256",
          "name": "",
          "type": "uint256"
        },
        {
          "internalType": "bytes",
          "name": "",
          "type": "bytes"
        }
      ],
      "name": "onERC721Received",
      "outputs": [
        {
          "internalType": "bytes4",
          "name": "",
          "type": "bytes4"
        }
      ],
      "stateMutability": "nonpayable",
      "type": "function"
    },
    {
      "inputs": [
        {
          "internalType": "uint256",
          "name": "proposalId",
          "type": "uint256"
        }
      ],
      "name": "proposalDeadline",
      "outputs": [
        {
          "internalType": "uint256",
          "name": "",
          "type": "uint256"
        }
      ],
      "stateMutability": "view",
      "type": "function"
    },
    {
      "inputs": [
        {
          "internalType": "uint256",
          "name": "proposalId",
          "type": "uint256"
        }
      ],
      "name": "proposalEta",
      "outputs": [
        {
          "internalType": "uint256",
          "name": "",
          "type": "uint256"
        }
      ],
      "stateMutability": "view",
      "type": "function"
    },
    {
      "inputs": [
        {
          "internalType": "uint256",
          "name": "proposalId",
          "type": "uint256"
        }
      ],
      "name": "proposalProposer",
      "outputs": [
        {
          "internalType": "address",
          "name": "",
          "type": "address"
        }
      ],
      "stateMutability": "view",
      "type": "function"
    },
    {
      "inputs": [
        {
          "internalType": "uint256",
          "name": "proposalId",
          "type": "uint256"
        }
      ],
      "name": "proposalSnapshot",
      "outputs": [
        {
          "internalType": "uint256",
          "name": "",
          "type": "uint256"
        }
      ],
      "stateMutability": "view",
      "type": "function"
    },
    {
      "inputs": [],
      "name": "proposalThreshold",
      "outputs": [
        {
          "internalType": "uint256",
          "name": "",
          "type": "uint256"
        }
      ],
      "stateMutability": "pure",
      "type": "function"
    },
    {
      "inputs": [
        {
          "internalType": "uint256",
          "name": "proposalId",
          "type": "uint256"
        }
      ],
      "name": "proposals",
      "outputs": [
        {
          "internalType": "uint256",
          "name": "id",
          "type": "uint256"
        },
        {
          "internalType": "address",
          "name": "proposer",
          "type": "address"
        },
        {
          "internalType": "uint256",
          "name": "eta",
          "type": "uint256"
        },
        {
          "internalType": "uint256",
          "name": "startBlock",
          "type": "uint256"
        },
        {
          "internalType": "uint256",
          "name": "endBlock",
          "type": "uint256"
        },
        {
          "internalType": "uint256",
          "name": "forVotes",
          "type": "uint256"
        },
        {
          "internalType": "uint256",
          "name": "againstVotes",
          "type": "uint256"
        },
        {
          "internalType": "uint256",
          "name": "abstainVotes",
          "type": "uint256"
        },
        {
          "internalType": "bool",
          "name": "canceled",
          "type": "bool"
        },
        {
          "internalType": "bool",
          "name": "executed",
          "type": "bool"
        }
      ],
      "stateMutability": "view",
      "type": "function"
    },
    {
      "inputs": [
        {
          "internalType": "address[]",
          "name": "targets",
          "type": "address[]"
        },
        {
          "internalType": "uint256[]",
          "name": "values",
          "type": "uint256[]"
        },
        {
          "internalType": "bytes[]",
          "name": "calldatas",
          "type": "bytes[]"
        },
        {
          "internalType": "string",
          "name": "description",
          "type": "string"
        }
      ],
      "name": "propose",
      "outputs": [
        {
          "internalType": "uint256",
          "name": "",
          "type": "uint256"
        }
      ],
      "stateMutability": "nonpayable",
      "type": "function"
    },
    {
      "inputs": [
        {
          "internalType": "address[]",
          "name": "targets",
          "type": "address[]"
        },
        {
          "internalType": "uint256[]",
          "name": "values",
          "type": "uint256[]"
        },
        {
          "internalType": "string[]",
          "name": "signatures",
          "type": "string[]"
        },
        {
          "internalType": "bytes[]",
          "name": "calldatas",
          "type": "bytes[]"
        },
        {
          "internalType": "string",
          "name": "description",
          "type": "string"
        }
      ],
      "name": "propose",
      "outputs": [
        {
          "internalType": "uint256",
          "name": "",
          "type": "uint256"
        }
      ],
      "stateMutability": "nonpayable",
      "type": "function"
    },
    {
      "inputs": [
        {
          "internalType": "address[]",
          "name": "targets",
          "type": "address[]"
        },
        {
          "internalType": "uint256[]",
          "name": "values",
          "type": "uint256[]"
        },
        {
          "internalType": "bytes[]",
          "name": "calldatas",
          "type": "bytes[]"
        },
        {
          "internalType": "bytes32",
          "name": "descriptionHash",
          "type": "bytes32"
        }
      ],
      "name": "queue",
      "outputs": [
        {
          "internalType": "uint256",
          "name": "",
          "type": "uint256"
        }
      ],
      "stateMutability": "nonpayable",
      "type": "function"
    },
    {
      "inputs": [
        {
          "internalType": "uint256",
          "name": "proposalId",
          "type": "uint256"
        }
      ],
      "name": "queue",
      "outputs": [],
      "stateMutability": "nonpayable",
      "type": "function"
    },
    {
      "inputs": [
        {
          "internalType": "uint256",
          "name": "timepoint",
          "type": "uint256"
        }
      ],
      "name": "quorum",
      "outputs": [
        {
          "internalType": "uint256",
          "name": "",
          "type": "uint256"
        }
      ],
      "stateMutability": "view",
      "type": "function"
    },
    {
      "inputs": [],
      "name": "quorumDenominator",
      "outputs": [
        {
          "internalType": "uint256",
          "name": "",
          "type": "uint256"
        }
      ],
      "stateMutability": "view",
      "type": "function"
    },
    {
      "inputs": [
        {
          "internalType": "uint256",
          "name": "timepoint",
          "type": "uint256"
        }
      ],
      "name": "quorumNumerator",
      "outputs": [
        {
          "internalType": "uint256",
          "name": "",
          "type": "uint256"
        }
      ],
      "stateMutability": "view",
      "type": "function"
    },
    {
      "inputs": [],
      "name": "quorumNumerator",
      "outputs": [
        {
          "internalType": "uint256",
          "name": "",
          "type": "uint256"
        }
      ],
      "stateMutability": "view",
      "type": "function"
    },
    {
      "inputs": [],
      "name": "quorumVotes",
      "outputs": [
        {
          "internalType": "uint256",
          "name": "",
          "type": "uint256"
        }
      ],
      "stateMutability": "view",
      "type": "function"
    },
    {
      "inputs": [
        {
          "internalType": "address",
          "name": "target",
          "type": "address"
        },
        {
          "internalType": "uint256",
          "name": "value",
          "type": "uint256"
        },
        {
          "internalType": "bytes",
          "name": "data",
          "type": "bytes"
        }
      ],
      "name": "relay",
      "outputs": [],
      "stateMutability": "payable",
      "type": "function"
    },
    {
      "inputs": [
        {
          "internalType": "uint256",
          "name": "proposalId",
          "type": "uint256"
        }
      ],
      "name": "state",
      "outputs": [
        {
          "internalType": "enum IGovernor.ProposalState",
          "name": "",
          "type": "uint8"
        }
      ],
      "stateMutability": "view",
      "type": "function"
    },
    {
      "inputs": [
        {
          "internalType": "bytes4",
          "name": "interfaceId",
          "type": "bytes4"
        }
      ],
      "name": "supportsInterface",
      "outputs": [
        {
          "internalType": "bool",
          "name": "",
          "type": "bool"
        }
      ],
      "stateMutability": "view",
      "type": "function"
    },
    {
      "inputs": [],
      "name": "timelock",
      "outputs": [
        {
          "internalType": "address",
          "name": "",
          "type": "address"
        }
      ],
      "stateMutability": "view",
      "type": "function"
    },
    {
      "inputs": [],
      "name": "token",
      "outputs": [
        {
          "internalType": "contract IERC5805",
          "name": "",
          "type": "address"
        }
      ],
      "stateMutability": "view",
      "type": "function"
    },
    {
      "inputs": [
        {
          "internalType": "uint256",
          "name": "newQuorumNumerator",
          "type": "uint256"
        }
      ],
      "name": "updateQuorumNumerator",
      "outputs": [],
      "stateMutability": "nonpayable",
      "type": "function"
    },
    {
      "inputs": [
        {
          "internalType": "contract TimelockController",
          "name": "newTimelock",
          "type": "address"
        }
      ],
      "name": "updateTimelock",
      "outputs": [],
      "stateMutability": "nonpayable",
      "type": "function"
    },
    {
      "inputs": [],
      "name": "version",
      "outputs": [
        {
          "internalType": "string",
          "name": "",
          "type": "string"
        }
      ],
      "stateMutability": "view",
      "type": "function"
    },
    {
      "inputs": [],
      "name": "votingDelay",
      "outputs": [
        {
          "internalType": "uint256",
          "name": "",
          "type": "uint256"
        }
      ],
      "stateMutability": "pure",
      "type": "function"
    },
    {
      "inputs": [],
      "name": "votingPeriod",
      "outputs": [
        {
          "internalType": "uint256",
          "name": "",
          "type": "uint256"
        }
      ],
      "stateMutability": "pure",
      "type": "function"
    },
    {
      "stateMutability": "payable",
      "type": "receive"
    }
  ],
  "bytecode": "0x610180604052604051620066be380380620066be833981016040819052620000279162000636565b8181806004836040518060400160405280600a81526020016926bca3b7bb32b93737b960b11b81525080620000616200015360201b60201c565b6200006d825f6200016e565b610120526200007e8160016200016e565b61014052815160208084019190912060e052815190820120610100524660a0526200010b60e05161010051604080517f8b73c3c69bb8fe3d512ecc4cf759cc79239f7b179b0ffacaa9a75d522b39400f60208201529081019290925260608201524660808201523060a08201525f9060c00160405160208183030381529060405280519060200120905090565b60805250503060c052600362000122828262000713565b50506001600160a01b0316610160526200013c81620001a6565b5062000148816200025b565b505050505062000893565b6040805180820190915260018152603160f81b602082015290565b5f6020835110156200018d576200018583620002c4565b9050620001a0565b816200019a848262000713565b5060ff90505b92915050565b606480821115620001d95760405163243e544560e01b815260048101839052602481018290526044015b60405180910390fd5b5f620001e462000306565b90506200021b62000206620001f862000321565b65ffffffffffff166200039c565b6200021185620003d2565b6008919062000407565b505060408051828152602081018590527f0553476bf02ef2726e8ce5ced78d63e26e602e4a2257b1f559418e24b4633997910160405180910390a1505050565b600954604080516001600160a01b03928316815291831660208301527f08f74ea46ef7894f65eabfb5e6e695de773a000b47c529ab559178069b226401910160405180910390a1600980546001600160a01b0319166001600160a01b0392909216919091179055565b5f80829050601f81511115620002f1578260405163305a27a960e01b8152600401620001d09190620007db565b8051620002fe8262000828565b179392505050565b5f62000313600862000423565b6001600160e01b0316905090565b5f610160516001600160a01b03166391ddadf46040518163ffffffff1660e01b8152600401602060405180830381865afa92505050801562000382575060408051601f3d908101601f191682019092526200037f918101906200084c565b60015b620003975762000392436200046e565b905090565b919050565b5f63ffffffff821115620003ce576040516306dfcc6560e41b81526020600482015260248101839052604401620001d0565b5090565b5f6001600160e01b03821115620003ce576040516306dfcc6560e41b815260e0600482015260248101839052604401620001d0565b5f8062000416858585620004a2565b915091505b935093915050565b80545f90801562000465576200044d836200044060018462000873565b5f91825260209091200190565b5464010000000090046001600160e01b031662000467565b5f5b9392505050565b5f65ffffffffffff821115620003ce576040516306dfcc6560e41b81526030600482015260248101839052604401620001d0565b82545f9081908015620005c4575f620004c2876200044060018562000873565b60408051808201909152905463ffffffff8082168084526401000000009092046001600160e01b0316602084015291925090871610156200051657604051632520601d60e01b815260040160405180910390fd5b805163ffffffff8088169116036200056457846200053b886200044060018662000873565b80546001600160e01b03929092166401000000000263ffffffff909216919091179055620005b3565b6040805180820190915263ffffffff80881682526001600160e01b0380881660208085019182528b54600181018d555f8d81529190912094519151909216640100000000029216919091179101555b6020015192508391506200041b9050565b50506040805180820190915263ffffffff80851682526001600160e01b0380851660208085019182528854600181018a555f8a8152918220955192519093166401000000000291909316179201919091559050816200041b565b6001600160a01b038116811462000633575f80fd5b50565b5f806040838503121562000648575f80fd5b825162000655816200061e565b602084015190925062000668816200061e565b809150509250929050565b634e487b7160e01b5f52604160045260245ffd5b600181811c908216806200069c57607f821691505b602082108103620006bb57634e487b7160e01b5f52602260045260245ffd5b50919050565b601f8211156200070e575f81815260208120601f850160051c81016020861015620006e95750805b601f850160051c820191505b818110156200070a57828155600101620006f5565b5050505b505050565b81516001600160401b038111156200072f576200072f62000673565b620007478162000740845462000687565b84620006c1565b602080601f8311600181146200077d575f8415620007655750858301515b5f19600386901b1c1916600185901b1785556200070a565b5f85815260208120601f198616915b82811015620007ad578886015182559484019460019091019084016200078c565b5085821015620007cb57878501515f19600388901b60f8161c191681555b5050505050600190811b01905550565b5f6020808352835180828501525f5b818110156200080857858101830151858201604001528201620007ea565b505f604082860101526040601f19601f8301168501019250505092915050565b80516020808301519190811015620006bb575f1960209190910360031b1b16919050565b5f602082840312156200085d575f80fd5b815165ffffffffffff8116811462000467575f80fd5b81810381811115620001a057634e487b7160e01b5f52601160045260245ffd5b60805160a05160c05160e05161010051610120516101405161016051615db36200090b5f395f8181610ec90152818161190501528181611f520152818161259b015261331c01525f6127dc01525f61278e01525f6130df01525f6130b701525f61301201525f61303c01525f6130660152615db35ff3fe60806040526004361061042f575f3560e01c80636b2f5df01161022b578063c01f9e3711610129578063dc0e43d2116100b3578063eb9019d411610078578063eb9019d414610e5b578063f23a6e6114610e7a578063f8ce560a14610e99578063fc0c546a14610eb8578063fe0d94c114610eeb575f80fd5b8063dc0e43d214610cdf578063dd4e2ba514610cfe578063ddf0b00914610d43578063deaaa7cc14610d62578063e23a9a5214610d95575f80fd5b8063cbc1c5f3116100f9578063cbc1c5f314610c46578063d33219b414610c65578063da1c08ff14610c82578063da95691a14610ca1578063daf80f5f14610cc0575f80fd5b8063c01f9e3714610bd6578063c242bfc714610bf5578063c28bc2fa14610c14578063c59057e414610c27575f80fd5b806397c3d334116101b5578063a7713a701161017a578063a7713a7014610b53578063a890c91014610b67578063ab58fb8e14610b86578063b58131b014610ba5578063bc197c8114610bb7575f80fd5b806397c3d33414610ac45780639a802a6d14610ad75780639e3db5e914610af6578063a15697c414610b15578063a4da590b14610b34575f80fd5b80637d5e81e2116101fb5780637d5e81e214610a005780637ecebe0014610a1f57806384b0196e14610a535780638ff262e314610a7a57806391ddadf414610a99575f80fd5b80636b2f5df0146109845780636b4ac502146109a357806372352945146109c25780637b3c71d3146109e1575f80fd5b806332f4dd99116103385780634bf5d7e9116102c25780635b8d0e0d116102875780635b8d0e0d146108ff5780635c501ba81461091e5780635f398a14146109325780635f8d5e741461095157806360c4247f14610965575f80fd5b80634bf5d7e914610865578063506a6f0c1461087957806354dc7b411461089857806354fd4d50146108b757806356781388146108e0575f80fd5b806340e58ee51161030857806340e58ee5146107ad57806343859632146107cc578063452115d6146108135780634724aa99146108325780634abf468414610846575f80fd5b806332f4dd9914610729578063342db739146107485780633932abb11461076d5780633e4f49e614610781575f80fd5b8063174ccd82116103b95780632d63f693116103895780632d63f693146106755780632e8fbee5146106945780632fe3e261146106b3578063328dd982146106e657806332cadf3c14610715575f80fd5b8063174ccd821461062857806324bc1a641461063c5780632656227d146106505780632904df2914610663575f80fd5b806306fdde03116103ff57806306fdde03146105505780631164d13b14610571578063143489d014610585578063150b7a02146105d1578063160cbed714610609575f80fd5b8063013cf08b1461046a57806301ffc9a7146104e457806302a251a31461051357806306f3f9e614610531575f80fd5b36610466573061043d610efe565b6001600160a01b03161461046457604051637485328f60e11b815260040160405180910390fd5b005b5f80fd5b348015610475575f80fd5b50610489610484366004614812565b610f16565b604080519a8b526001600160a01b0390991660208b0152978901969096526060880194909452608087019290925260a086015260c085015260e084015215156101008301521515610120820152610140015b60405180910390f35b3480156104ef575f80fd5b506105036104fe366004614829565b610fce565b60405190151581526020016104db565b34801561051e575f80fd5b5061c4e05b6040519081526020016104db565b34801561053c575f80fd5b5061046461054b366004614812565b610fde565b34801561055b575f80fd5b50610564611072565b6040516104db919061489d565b34801561057c575f80fd5b50610564611102565b348015610590575f80fd5b506105b961059f366004614812565b5f908152600460205260409020546001600160a01b031690565b6040516001600160a01b0390911681526020016104db565b3480156105dc575f80fd5b506105f06105eb36600461497f565b61110c565b6040516001600160e01b031990911681526020016104db565b348015610614575f80fd5b50610523610623366004614b5a565b61114e565b348015610633575f80fd5b50610564611370565b348015610647575f80fd5b5061052361137a565b61052361065e366004614b5a565b61139f565b34801561066e575f80fd5b50336105b9565b348015610680575f80fd5b5061052361068f366004614812565b6114b0565b34801561069f575f80fd5b506105236106ae366004614be3565b6114d0565b3480156106be575f80fd5b506105237f3e83946653575f9a39005e1545185629e92736b7528ab20ca3816f315424a81181565b3480156106f1575f80fd5b50610705610700366004614812565b61151a565b6040516104db9493929190614cc1565b348015610720575f80fd5b50610564611799565b348015610734575f80fd5b50610523610743366004614d61565b6117d6565b348015610753575f80fd5b506105236e1a185c991a185d0b595e1c1bdcd959608a1b81565b348015610778575f80fd5b50611c20610523565b34801561078c575f80fd5b506107a061079b366004614812565b611891565b6040516104db9190614e2a565b3480156107b8575f80fd5b506104646107c7366004614812565b61189b565b3480156107d7575f80fd5b506105036107e6366004614e38565b5f8281526007602081815260408084206001600160a01b0386168552909201905290205460ff1692915050565b34801561081e575f80fd5b5061052361082d366004614b5a565b6118c4565b34801561083d575f80fd5b506105b96118da565b348015610851575f80fd5b50610503610860366004614812565b6118e3565b348015610870575f80fd5b50610564611901565b348015610884575f80fd5b50610523610893366004614812565b6119c1565b3480156108a3575f80fd5b506105036108b2366004614e66565b6119cb565b3480156108c2575f80fd5b506040805180820190915260018152603160f81b6020820152610564565b3480156108eb575f80fd5b506105236108fa366004614eb6565b611a13565b34801561090a575f80fd5b50610523610919366004614ee0565b611a32565b348015610929575f80fd5b50610564611b71565b34801561093d575f80fd5b5061052361094c366004614f92565b611b87565b34801561095c575f80fd5b50610523611bda565b348015610970575f80fd5b5061052361097f366004614812565b611be3565b34801561098f575f80fd5b5061052361099e36600461504f565b611c80565b3480156109ae575f80fd5b506105236109bd3660046150e9565b611d2c565b3480156109cd575f80fd5b506105236109dc366004615113565b611d78565b3480156109ec575f80fd5b506105236109fb36600461517e565b611dfe565b348015610a0b575f80fd5b50610523610a1a3660046151d3565b611e4e565b348015610a2a575f80fd5b50610523610a39366004614be3565b6001600160a01b03165f9081526002602052604090205490565b348015610a5e575f80fd5b50610a67611e5b565b6040516104db979695949392919061526c565b348015610a85575f80fd5b50610523610a943660046152db565b611e9d565b348015610aa4575f80fd5b50610aad611f4f565b60405165ffffffffffff90911681526020016104db565b348015610acf575f80fd5b506064610523565b348015610ae2575f80fd5b50610523610af1366004615328565b611fd7565b348015610b01575f80fd5b50610464610b10366004614812565b611066565b348015610b20575f80fd5b50610523610b2f36600461537c565b611fea565b348015610b3f575f80fd5b50610464610b4e36600461539a565b611ff4565b348015610b5e575f80fd5b50610523612077565b348015610b72575f80fd5b50610464610b81366004614be3565b612090565b348015610b91575f80fd5b50610523610ba0366004614812565b6120fb565b348015610bb0575f80fd5b505f610523565b348015610bc2575f80fd5b506105f0610bd136600461543c565b612191565b348015610be1575f80fd5b50610523610bf0366004614812565b6121d4565b348015610c00575f80fd5b50610464610c0f3660046154c8565b612216565b610464610c2236600461553c565b612258565b348015610c32575f80fd5b50610523610c41366004614b5a565b61232e565b348015610c51575f80fd5b50610523610c6036600461553c565b612367565b348015610c70575f80fd5b506009546001600160a01b03166105b9565b348015610c8d575f80fd5b50610464610c9c36600461539a565b6123a8565b348015610cac575f80fd5b50610523610cbb3660046155f6565b612421565b348015610ccb575f80fd5b50610503610cda366004614812565b612473565b348015610cea575f80fd5b50610464610cf936600461539a565b61247d565b348015610d09575f80fd5b5060408051808201909152601a81527f737570706f72743d627261766f2671756f72756d3d627261766f0000000000006020820152610564565b348015610d4e575f80fd5b50610464610d5d366004614812565b6124f6565b348015610d6d575f80fd5b506105237ff2aad550cf55f045cb27e9c559f9889fdfb6e6cdaa032301d6ea397784ae51d781565b348015610da0575f80fd5b50610e2b610daf366004614e38565b604080516060810182525f8082526020820181905291810191909152505f9182526007602081815260408085206001600160a01b03949094168552929091018152918190208151606081018352905460ff8082161515835261010082041693820193909352620100009092046001600160601b03169082015290565b6040805182511515815260208084015160ff1690820152918101516001600160601b0316908201526060016104db565b348015610e66575f80fd5b50610523610e753660046150e9565b612517565b348015610e85575f80fd5b506105f0610e9436600461568f565b612536565b348015610ea4575f80fd5b50610523610eb3366004614812565b612579565b348015610ec3575f80fd5b506105b97f000000000000000000000000000000000000000000000000000000000000000081565b610464610ef9366004614812565b612620565b5f610f116009546001600160a01b031690565b905090565b805f8080808080808080610f3e8a5f908152600460205260409020546001600160a01b031690565b9850610f498b6120fb565b9750610f548b6114b0565b9650610f5f8b6121d4565b5f8c8152600760205260408120600481015460058201546006830154949a509098509650919450610f8f8d611891565b90506002816007811115610fa557610fa5614df6565b1493506007816007811115610fbc57610fbc614df6565b14925050509193959799509193959799565b5f610fd882612641565b92915050565b33610fe7610efe565b6001600160a01b03161461102157335b6040516347096e4760e01b81526001600160a01b0390911660048201526024015b60405180910390fd5b3061102a610efe565b6001600160a01b031614611066575f80366040516110499291906156f2565b604051809103902090505b8061105f6005612665565b0361105457505b61106f816126e2565b50565b60606003805461108190615701565b80601f01602080910402602001604051908101604052809291908181526020018280546110ad90615701565b80156110f85780601f106110cf576101008083540402835291602001916110f8565b820191905f5260205f20905b8154815290600101906020018083116110db57829003601f168201915b5050505050905090565b6060610f11612787565b5f30611116610efe565b6001600160a01b03161461113d57604051637485328f60e11b815260040160405180910390fd5b50630a85bd0160e11b949350505050565b5f8061115c8686868661232e565b90505f61116882611891565b9050600481600781111561117e5761117e614df6565b146111ab57818161118f60046127b3565b6040516331b75e4d60e01b815260040161101893929190615739565b6009546040805163793d064960e11b815290515f926001600160a01b03169163f27a0c929160048083019260209291908290030181865afa1580156111f2573d5f803e3d5ffd5b505050506040513d601f19601f82011682018060405250810190611216919061575b565b90505f3060601b6bffffffffffffffffffffffff1916861860095460405163b1c5f42760e01b81529192506001600160a01b03169063b1c5f42790611267908c908c908c905f908890600401615772565b602060405180830381865afa158015611282573d5f803e3d5ffd5b505050506040513d601f19601f820116820180604052508101906112a6919061575b565b5f858152600a60205260408082209290925560095491516308f2a0bb60e41b81526001600160a01b0390921691638f2a0bb0916112f0918d918d918d919088908a906004016157bf565b5f604051808303815f87803b158015611307575f80fd5b505af1158015611319573d5f803e3d5ffd5b505050507f9a2e42fd6722813d69113e7d0079d3d940171428df7373df9c7f7617cfda289284834261134b919061582a565b6040805192835260208301919091520160405180910390a15091979650505050505050565b6060610f116127d5565b5f610f116001611388611f4f565b611392919061583d565b65ffffffffffff16612579565b5f806113ad8686868661232e565b90505f6113b982611891565b905060048160078111156113cf576113cf614df6565b141580156113ef575060058160078111156113ec576113ec614df6565b14155b1561142757818161140060056127b3565b61140a60046127b3565b176040516331b75e4d60e01b815260040161101893929190615739565b5f8281526004602052604090819020805460ff60f01b1916600160f01b179055517f712ae1383f79ac853f8d882153778e0260ef8f03b504e2866e0593e04d2b291f906114779084815260200190565b60405180910390a161148c8288888888612802565b61149982888888886128a1565b6114a682888888886128ae565b5095945050505050565b5f90815260046020526040902054600160a01b900465ffffffffffff1690565b5f6114da826128e6565b90507f8d5c13b1cd528a3e1895fdc833368c4e3af5391250c736a28e94c4fa59b3cee48160405161150d91815260200190565b60405180910390a1919050565b6060806060805f60075f8781526020019081526020015f209050805f018160010182600201836003018380548060200260200160405190810160405280929190818152602001828054801561159657602002820191905f5260205f20905b81546001600160a01b03168152600190910190602001808311611578575b50505050509350828054806020026020016040519081016040528092919081815260200182805480156115e657602002820191905f5260205f20905b8154815260200190600101908083116115d2575b5050505050925081805480602002602001604051908101604052809291908181526020015f905b828210156116b5578382905f5260205f2001805461162a90615701565b80601f016020809104026020016040519081016040528092919081815260200182805461165690615701565b80156116a15780601f10611678576101008083540402835291602001916116a1565b820191905f5260205f20905b81548152906001019060200180831161168457829003601f168201915b50505050508152602001906001019061160d565b50505050915080805480602002602001604051908101604052809291908181526020015f905b82821015611783578382905f5260205f200180546116f890615701565b80601f016020809104026020016040519081016040528092919081815260200182805461172490615701565b801561176f5780601f106117465761010080835404028352916020019161176f565b820191905f5260205f20905b81548152906001019060200180831161175257829003601f168201915b5050505050815260200190600101906116db565b5050505090509450945094509450509193509193565b60605f368080601f0160208091040260200160405190810160405280939291908181526020018383808284375f9201919091525092949350505050565b5f61184b88888888888080601f0160208091040260200160405190810160405280939291908181526020018383808284375f9201919091525050604080516020601f8c018190048102820181019092528a815292508a91508990819084018382808284375f9201919091525061290892505050565b90507fbbc294ee3436818a3742886cdeae66253f76b5be8870371c691fc6998bd341d58160405161187e91815260200190565b60405180910390a1979650505050505050565b5f610fd882612a05565b5f805f806118a885612b49565b93509350935093506118bc848484846118c4565b505050505050565b5f6118d185858585612dc7565b95945050505050565b5f610f11610efe565b5f818152600760205260408120600581015460049091015411610fd8565b60607f00000000000000000000000000000000000000000000000000000000000000006001600160a01b0316634bf5d7e96040518163ffffffff1660e01b81526004015f60405180830381865afa92505050801561198057506040513d5f823e601f3d908101601f1916820160405261197d9190810190615863565b60015b6119bc575060408051808201909152601d81527f6d6f64653d626c6f636b6e756d6265722666726f6d3d64656661756c74000000602082015290565b919050565b5f610fd882612e76565b5f611a0b8484848080601f0160208091040260200160405190810160405280939291908181526020018383808284375f92019190915250612ea292505050565b949350505050565b5f80339050611a0b84828560405180602001604052805f815250612f90565b5f80611af687611af07f3e83946653575f9a39005e1545185629e92736b7528ab20ca3816f315424a8118c8c8c611a688e6128e6565b8d8d604051611a789291906156f2565b60405180910390208c80519060200120604051602001611ad59796959493929190968752602087019590955260ff9390931660408601526001600160a01b03919091166060850152608084015260a083015260c082015260e00190565b60405160208183030381529060405280519060200120612e76565b85612fb1565b905080611b21576040516394ab6c0760e01b81526001600160a01b0388166004820152602401611018565b611b6489888a89898080601f0160208091040260200160405190810160405280939291908181526020018383808284375f920191909152508b9250612908915050565b9998505050505050505050565b6060610f1160408051602081019091525f815290565b5f80339050611bcf87828888888080601f0160208091040260200160405190810160405280939291908181526020018383808284375f920191909152508a9250612908915050565b979650505050505050565b5f610f11613006565b600880545f918290611bf66001846158cb565b81548110611c0657611c066158de565b5f9182526020918290206040805180820190915291015463ffffffff8116808352600160201b9091046001600160e01b03169282019290925291508410611c5b57602001516001600160e01b03169392505050565b611c6f611c678561312f565b600890613163565b6001600160e01b0316949350505050565b5f611cf98888808060200260200160405190810160405280939291908181526020018383602002808284375f9201919091525050604080516020808c0282810182019093528b82529093508b92508a9182918501908490808284375f92019190915250611cf392508891508990506158f2565b85613210565b90507f1e0d283ef767dcb5f9efcfe0fbcac2701275d0c54fc3493502558dc018cc3ba28160405161187e91815260200190565b5f611d37838361321d565b90507f173c6dfbda204d89ae7b46789365591384ef0c959833564582f96cd15f445b9b81604051611d6a91815260200190565b60405180910390a192915050565b5f611dba86868686868080601f0160208091040260200160405190810160405280939291908181526020018383808284375f92019190915250612f9092505050565b90507fdbf058c917126a478393ed3aa13dcdc461cc19db88c176507846e6f69ca627f981604051611ded91815260200190565b60405180910390a195945050505050565b5f80339050611e4486828787878080601f0160208091040260200160405190810160405280939291908181526020018383808284375f92019190915250612f9092505050565b9695505050505050565b5f6118d18585858561325c565b5f6060805f805f6060611e6c612787565b611e746127d5565b604080515f80825260208201909252600f60f81b9b939a50919850469750309650945092509050565b5f80611f0a84611af07ff2aad550cf55f045cb27e9c559f9889fdfb6e6cdaa032301d6ea397784ae51d7898989611ed38b6128e6565b60408051602081019690965285019390935260ff90911660608401526001600160a01b0316608083015260a082015260c001611ad5565b905080611f35576040516394ab6c0760e01b81526001600160a01b0385166004820152602401611018565b611e4486858760405180602001604052805f815250612f90565b5f7f00000000000000000000000000000000000000000000000000000000000000006001600160a01b03166391ddadf46040518163ffffffff1660e01b8152600401602060405180830381865afa925050508015611fca575060408051601f3d908101601f19168201909252611fc7918101906158fe565b60015b6119bc57610f11436132c2565b5f611a0b8484846132f4565b9392505050565b5f610fd8826127b3565b61206d888888808060200260200160405190810160405280939291908181526020018383602002808284375f9201919091525050604080516020808c0282810182019093528b82529093508b92508a9182918501908490808284375f9201919091525061206792508891508990506158f2565b856128ae565b5050505050505050565b5f6120826008613387565b6001600160e01b0316905090565b33612099610efe565b6001600160a01b0316146120ad5733610ff7565b306120b6610efe565b6001600160a01b0316146120f2575f80366040516120d59291906156f2565b604051809103902090505b806120eb6005612665565b036120e057505b61106f816133b6565b6009545f828152600a602052604080822054905163d45c443560e01b81526004810191909152909182916001600160a01b039091169063d45c443590602401602060405180830381865afa158015612155573d5f803e3d5ffd5b505050506040513d601f19601f82011682018060405250810190612179919061575b565b9050806001146121895780611fe3565b5f9392505050565b5f3061219b610efe565b6001600160a01b0316146121c257604051637485328f60e11b815260040160405180910390fd5b5063bc197c8160e01b95945050505050565b5f8181526004602052604081205461220890600160d01b810463ffffffff1690600160a01b900465ffffffffffff16615923565b65ffffffffffff1692915050565b6118bc8686868686868080601f0160208091040260200160405190810160405280939291908181526020018383808284375f9201919091525061341f92505050565b33612261610efe565b6001600160a01b0316146122755733610ff7565b3061227e610efe565b6001600160a01b0316146122ba575f803660405161229d9291906156f2565b604051809103902090505b806122b36005612665565b036122a857505b5f80856001600160a01b03168585856040516122d79291906156f2565b5f6040518083038185875af1925050503d805f8114612311576040519150601f19603f3d011682016040523d82523d5f602084013e612316565b606091505b50915091506123258282613537565b50505050505050565b5f848484846040516020016123469493929190615942565b60408051601f19818403018152919052805160209091012095945050505050565b5f6118d1858585858080601f0160208091040260200160405190810160405280939291908181526020018383808284375f920191909152506132f492505050565b61206d888888808060200260200160405190810160405280939291908181526020018383602002808284375f9201919091525050604080516020808c0282810182019093528b82529093508b92508a9182918501908490808284375f9201919091525061241b92508891508990506158f2565b85612802565b5f82518451146124515783518351604051632c8458e160e01b815260048101929092526024820152604401611018565b61245e8686868686613546565b611e44868661246d87876135e1565b85611e4e565b5f610fd882613751565b61206d888888808060200260200160405190810160405280939291908181526020018383602002808284375f9201919091525050604080516020808c0282810182019093528b82529093508b92508a9182918501908490808284375f920191909152506124f092508891508990506158f2565b856128a1565b5f805f8061250385612b49565b93509350935093506118bc8484848461114e565b5f611fe3838361253160408051602081019091525f815290565b6132f4565b5f30612540610efe565b6001600160a01b03161461256757604051637485328f60e11b815260040160405180910390fd5b5063f23a6e6160e01b95945050505050565b5f606461258583611be3565b604051632394e7a360e21b8152600481018590527f00000000000000000000000000000000000000000000000000000000000000006001600160a01b031690638e539e8c90602401602060405180830381865afa1580156125e8573d5f803e3d5ffd5b505050506040513d601f19601f8201168201806040525081019061260c919061575b565b612616919061598c565b610fd891906159b7565b5f805f8061262d85612b49565b93509350935093506118bc8484848461139f565b5f6001600160e01b03198216636e665ced60e01b1480610fd85750610fd882613778565b5f61267f8254600f81810b600160801b909204900b131590565b1561269d576040516375e52f4f60e01b815260040160405180910390fd5b508054600f0b5f818152600180840160205260408220805492905583546fffffffffffffffffffffffffffffffff191692016001600160801b03169190911790915590565b60648082111561270f5760405163243e544560e01b81526004810183905260248101829052604401611018565b5f612718612077565b9050612747612735612728611f4f565b65ffffffffffff1661312f565b61273e85613813565b60089190613846565b505060408051828152602081018590527f0553476bf02ef2726e8ce5ced78d63e26e602e4a2257b1f559418e24b4633997910160405180910390a1505050565b6060610f117f00000000000000000000000000000000000000000000000000000000000000005f613860565b5f8160078111156127c6576127c6614df6565b600160ff919091161b92915050565b6060610f117f00000000000000000000000000000000000000000000000000000000000000006001613860565b3061280b610efe565b6001600160a01b03161461289a575f5b84518110156118bc57306001600160a01b0316858281518110612840576128406158de565b60200260200101516001600160a01b03160361288a5761288a83828151811061286b5761286b6158de565b602002602001015180519060200120600561390990919063ffffffff16565b612893816159d6565b905061281b565b5050505050565b61289a8585858585613944565b306128b7610efe565b6001600160a01b03161461289a57600554600f81810b600160801b909204900b131561289a575f60055561289a565b6001600160a01b03165f90815260026020526040902080546001810190915590565b5f8061291387611891565b9050600181600781111561292957612929614df6565b1461293a57868161118f60016127b3565b5f61294e876129488a6114b0565b866132f4565b905061295d888888848861341f565b83515f036129b157866001600160a01b03167fb8e138887d0aa13bab447e82de9d5c1777041ecd21ca36ba824ff1e6c07ddda4898884896040516129a494939291906159ee565b60405180910390a2611bcf565b866001600160a01b03167fe2babfbac5889a709b63bb7f598b324e08bc5a4fb9ec647fb3cbc9ec07eb871289888489896040516129f2959493929190615a15565b60405180910390a2979650505050505050565b5f80612a10836139d4565b90506004816007811115612a2657612a26614df6565b14612a315792915050565b5f838152600a602052604090205480612a4b575092915050565b600954604051632c258a9f60e11b8152600481018390526001600160a01b039091169063584b153e90602401602060405180830381865afa158015612a92573d5f803e3d5ffd5b505050506040513d601f19601f82011682018060405250810190612ab69190615a5a565b15612ac5575060059392505050565b600954604051632ab0f52960e01b8152600481018390526001600160a01b0390911690632ab0f52990602401602060405180830381865afa158015612b0c573d5f803e3d5ffd5b505050506040513d601f19601f82011682018060405250810190612b309190615a5a565b15612b3f575060079392505050565b5060029392505050565b60608060605f8060075f8781526020019081526020015f209050805f0181600101612d0c83600201805480602002602001604051908101604052809291908181526020015f905b82821015612c38578382905f5260205f20018054612bad90615701565b80601f0160208091040260200160405190810160405280929190818152602001828054612bd990615701565b8015612c245780601f10612bfb57610100808354040283529160200191612c24565b820191905f5260205f20905b815481529060010190602001808311612c0757829003601f168201915b505050505081526020019060010190612b90565b5050506003860180546040805160208084028201810190925282815293505f9084015b82821015612d03578382905f5260205f20018054612c7890615701565b80601f0160208091040260200160405190810160405280929190818152602001828054612ca490615701565b8015612cef5780601f10612cc657610100808354040283529160200191612cef565b820191905f5260205f20905b815481529060010190602001808311612cd257829003601f168201915b505050505081526020019060010190612c5b565b505050506135e1565b6008840154835460408051602080840282018101909252828152918691830182828015612d6057602002820191905f5260205f20905b81546001600160a01b03168152600190910190602001808311612d42575b5050505050935082805480602002602001604051908101604052809291908181526020018280548015612db057602002820191905f5260205f20905b815481526020019060010190808311612d9c575b505050505092509450945094509450509193509193565b5f80612dd58686868661232e565b5f818152600460205260408120549192506001600160a01b0390911690612e17826001612e00611f4f565b612e0a919061583d565b65ffffffffffff16612517565b90505f336001600160a01b03841614801590612e335750808210155b15612e6a57604051636121770b60e11b81526001600160a01b03841660048201526024810183905260448101829052606401611018565b611b6489898989613210565b5f610fd8612e82613006565b8360405161190160f01b8152600281019290925260228201526042902090565b80515f906034811015612eb9576001915050610fd8565b82810160131901516001600160a01b031981166b046e0e4dee0dee6cae47a60f60a31b14612eec57600192505050610fd8565b5f80612ef96028856158cb565b90505b83811015612f6f575f80612f2f888481518110612f1b57612f1b6158de565b01602001516001600160f81b031916613b21565b9150915081612f475760019650505050505050610fd8565b8060ff166004856001600160a01b0316901b179350505080612f68906159d6565b9050612efc565b50856001600160a01b0316816001600160a01b031614935050505092915050565b5f6118d185858585612fac60408051602081019091525f815290565b612908565b5f805f612fbe8585613bb1565b5090925090505f816003811115612fd757612fd7614df6565b148015612ff55750856001600160a01b0316826001600160a01b0316145b80611e445750611e44868686613bfa565b5f306001600160a01b037f00000000000000000000000000000000000000000000000000000000000000001614801561305e57507f000000000000000000000000000000000000000000000000000000000000000046145b1561308857507f000000000000000000000000000000000000000000000000000000000000000090565b610f11604080517f8b73c3c69bb8fe3d512ecc4cf759cc79239f7b179b0ffacaa9a75d522b39400f60208201527f0000000000000000000000000000000000000000000000000000000000000000918101919091527f000000000000000000000000000000000000000000000000000000000000000060608201524660808201523060a08201525f9060c00160405160208183030381529060405280519060200120905090565b5f63ffffffff82111561315f576040516306dfcc6560e41b81526020600482015260248101839052604401611018565b5090565b81545f90818160058111156131bd575f61317c84613cd0565b61318690856158cb565b5f8881526020902090915081015463ffffffff90811690871610156131ad578091506131bb565b6131b881600161582a565b92505b505b5f6131ca87878585613db4565b90508015613204576131ee876131e16001846158cb565b5f91825260209091200190565b54600160201b90046001600160e01b0316611bcf565b5f979650505050505050565b5f6118d185858585613e07565b5f80613228846128e6565b9050808314611fe3576040516301d4b62360e61b81526001600160a01b038516600482015260248101829052604401611018565b5f6132b6858585516001600160401b0381111561327b5761327b6148c3565b6040519080825280602002602001820160405280156132ae57816020015b60608152602001906001900390816132995790505b508686613546565b6118d185858585613e9e565b5f65ffffffffffff82111561315f576040516306dfcc6560e41b81526030600482015260248101839052604401611018565b604051630748d63560e31b81526001600160a01b038481166004830152602482018490525f917f000000000000000000000000000000000000000000000000000000000000000090911690633a46b1a890604401602060405180830381865afa158015613363573d5f803e3d5ffd5b505050506040513d601f19601f82011682018060405250810190611a0b919061575b565b80545f908015612189576133a0836131e16001846158cb565b54600160201b90046001600160e01b0316611fe3565b600954604080516001600160a01b03928316815291831660208301527f08f74ea46ef7894f65eabfb5e6e695de773a000b47c529ab559178069b226401910160405180910390a1600980546001600160a01b0319166001600160a01b0392909216919091179055565b5f8581526007602081815260408084206001600160a01b0389168552928301909152909120805460ff1615613472576040516371c6af4960e01b81526001600160a01b0387166004820152602401611018565b805460ff86166101000261ffff1990911617600117815561349284614183565b81546001600160601b039190911662010000026dffffffffffffffffffffffff00001990911617815560ff85166134e15783826005015f8282546134d6919061582a565b909155506123259050565b5f1960ff8616016134ff5783826004015f8282546134d6919061582a565b60011960ff86160161351e5783826006015f8282546134d6919061582a565b6040516303599be160e11b815260040160405180910390fd5b6060611fe383836141b66141cf565b805160208201205f613563878761355d88886135e1565b8561232e565b5f81815260076020526040902060088101549192509061206d57875161358f90829060208b0190614657565b5086516135a590600183019060208a01906146b6565b5085516135bb90600283019060208901906146ef565b5084516135d1906003830190602088019061473f565b5060080191909155505050505050565b60605f82516001600160401b038111156135fd576135fd6148c3565b60405190808252806020026020018201604052801561363057816020015b606081526020019060019003908161361b5790505b5090505f5b815181101561374957848181518110613650576136506158de565b6020026020010151515f1461370057848181518110613671576136716158de565b6020908102919091010151604080516004815260248101918290529161369691615a79565b60405180910390206001600160e01b0319166020820180516001600160e01b0383818316178352505050508482815181106136d3576136d36158de565b60200260200101516040516020016136ec929190615a94565b60405160208183030381529060405261371b565b838181518110613712576137126158de565b60200260200101515b82828151811061372d5761372d6158de565b602002602001018190525080613742906159d6565b9050613635565b509392505050565b5f818152600760205260408120600481015461376f610eb3856114b0565b11159392505050565b5f63288ace0360e11b63278d2b9d60e21b630b184e8960e01b63952ce0fd60e01b6001600160e01b031986168214806137bd57506001600160e01b0319868116908216145b806137d457506001600160e01b0319868116908516145b806137ef57506001600160e01b03198616630271189760e51b145b80611e4457506301ffc9a760e01b6001600160e01b03198716149695505050505050565b5f6001600160e01b0382111561315f576040516306dfcc6560e41b815260e0600482015260248101839052604401611018565b5f806138538585856141e8565b915091505b935093915050565b606060ff831461387a5761387383614354565b9050610fd8565b81805461388690615701565b80601f01602080910402602001604051908101604052809291908181526020018280546138b290615701565b80156138fd5780601f106138d4576101008083540402835291602001916138fd565b820191905f5260205f20905b8154815290600101906020018083116138e057829003601f168201915b50505050509050610fd8565b8154600160801b90819004600f0b5f818152600180860160205260409091209390935583546001600160801b03908116939091011602179055565b6009546001600160a01b031663e38335e5348686865f3060601b6bffffffffffffffffffffffff191688186040518763ffffffff1660e01b815260040161398f959493929190615772565b5f604051808303818588803b1580156139a6575f80fd5b505af11580156139b8573d5f803e3d5ffd5b5050505f9687525050600a602052505060408320929092555050565b5f818152600460209081526040808320815160a08101835290546001600160a01b038116825265ffffffffffff600160a01b8204169382019390935263ffffffff600160d01b8404169181019190915260ff600160f01b830481161580156060840152600160f81b909304161515608082015290613a555750600792915050565b806080015115613a685750600292915050565b5f613a72846114b0565b9050805f03613a9757604051636ad0607560e01b815260048101859052602401611018565b5f613aa0611f4f565b65ffffffffffff169050808210613abb57505f949350505050565b5f613ac5866121d4565b9050818110613ada5750600195945050505050565b613ae386613751565b8015613b0457505f8681526007602052604090206005810154600490910154115b15613b155750600495945050505050565b50600395945050505050565b5f8060f883901c602f81118015613b3b5750603a8160ff16105b15613b5057600194602f199091019350915050565b8060ff166040108015613b66575060478160ff16105b15613b7b576001946036199091019350915050565b8060ff166060108015613b91575060678160ff16105b15613ba6576001946056199091019350915050565b505f93849350915050565b5f805f8351604103613be8576020840151604085015160608601515f1a613bda88828585614391565b955095509550505050613bf3565b505081515f91506002905b9250925092565b5f805f856001600160a01b03168585604051602401613c1a929190615ac2565b60408051601f198184030181529181526020820180516001600160e01b0316630b135d3f60e11b17905251613c4f9190615a79565b5f60405180830381855afa9150503d805f8114613c87576040519150601f19603f3d011682016040523d82523d5f602084013e613c8c565b606091505b5091509150818015613ca057506020815110155b8015611e4457508051630b135d3f60e11b90613cc5908301602090810190840161575b565b149695505050505050565b5f815f03613cdf57505f919050565b5f6001613ceb84614459565b901c6001901b90506001818481613d0457613d046159a3565b048201901c90506001818481613d1c57613d1c6159a3565b048201901c90506001818481613d3457613d346159a3565b048201901c90506001818481613d4c57613d4c6159a3565b048201901c90506001818481613d6457613d646159a3565b048201901c90506001818481613d7c57613d7c6159a3565b048201901c90506001818481613d9457613d946159a3565b048201901c9050611fe381828581613dae57613dae6159a3565b046144ec565b5f5b81831015613749575f613dc98484614501565b5f8781526020902090915063ffffffff86169082015463ffffffff161115613df357809250613e01565b613dfe81600161582a565b93505b50613db6565b5f80613e158686868661451b565b5f818152600a602052604090205490915080156114a65760095460405163c4d252f560e01b8152600481018390526001600160a01b039091169063c4d252f5906024015f604051808303815f87803b158015613e6f575f80fd5b505af1158015613e81573d5f803e3d5ffd5b5050505f838152600a602052604081205550509050949350505050565b5f33613eaa8184612ea2565b613ef65760405162461bcd60e51b815260206004820152601d60248201527f476f7665726e6f723a2070726f706f73657220726573747269637465640000006044820152606401611018565b5f613eff611f4f565b65ffffffffffff1690505f613f1983610e756001856158cb565b9050505f613f30888888888051906020012061232e565b905086518851141580613f4557508551885114155b80613f4f57508751155b15613f8457875186518851604051630447b05d60e41b8152600481019390935260248301919091526044820152606401611018565b5f81815260046020526040902054600160a01b900465ffffffffffff1615613fcd5780613fb082611891565b6040516331b75e4d60e01b81526110189291905f90600401615739565b5f613fda611c208461582a565b90505f61c4e090506040518060a00160405280866001600160a01b03168152602001614005846132c2565b65ffffffffffff16815260200161401b8361312f565b63ffffffff90811682525f60208084018290526040938401829052878252600481529083902084518154928601519486015160608701516080909701511515600160f81b026001600160f81b03971515600160f01b0260ff60f01b1992909616600160d01b029190911664ffffffffff60d01b1965ffffffffffff909716600160a01b026001600160d01b03199095166001600160a01b0390931692909217939093179490941693909317919091179290921691909117905589517f7d84a6263ae0d98d3329bd7b46bb4e8d6f98cd35a7adb45c274c8b7fd5ebd5e090849087908d908d906001600160401b03811115614117576141176148c3565b60405190808252806020026020018201604052801561414a57816020015b60608152602001906001900390816141355790505b508d88614157898261582a565b8f60405161416d99989796959493929190615ada565b60405180910390a1509098975050505050505050565b5f6001600160601b0382111561315f576040516306dfcc6560e41b81526060600482015260248101839052604401611018565b604051630a12f52160e11b815260040160405180910390fd5b606083156141de575081611fe3565b611fe38383614614565b82545f90819080156142fc575f614204876131e16001856158cb565b60408051808201909152905463ffffffff808216808452600160201b9092046001600160e01b03166020840152919250908716101561425657604051632520601d60e01b815260040160405180910390fd5b805163ffffffff80881691160361429e5784614277886131e16001866158cb565b80546001600160e01b0392909216600160201b0263ffffffff9092169190911790556142ec565b6040805180820190915263ffffffff80881682526001600160e01b0380881660208085019182528b54600181018d555f8d81529190912094519151909216600160201b029216919091179101555b6020015192508391506138589050565b50506040805180820190915263ffffffff80851682526001600160e01b0380851660208085019182528854600181018a555f8a815291822095519251909316600160201b029190931617920191909155905081613858565b60605f61436083614630565b6040805160208082528183019092529192505f91906020820181803683375050509182525060208101929092525090565b5f80807f7fffffffffffffffffffffffffffffff5d576e7357a4501ddfe92f46681b20a08411156143ca57505f9150600390508261444f565b604080515f808252602082018084528a905260ff891692820192909252606081018790526080810186905260019060a0016020604051602081039080840390855afa15801561441b573d5f803e3d5ffd5b5050604051601f1901519150506001600160a01b03811661444657505f92506001915082905061444f565b92505f91508190505b9450945094915050565b5f80608083901c1561446d57608092831c92015b604083901c1561447f57604092831c92015b602083901c1561449157602092831c92015b601083901c156144a357601092831c92015b600883901c156144b557600892831c92015b600483901c156144c757600492831c92015b600283901c156144d957600292831c92015b600183901c15610fd85760010192915050565b5f8183106144fa5781611fe3565b5090919050565b5f61450f60028484186159b7565b611fe39084841661582a565b5f806145298686868661232e565b90505f61453582611891565b90505f61454260076127b3565b61454c60066127b3565b61455660026127b3565b17179050614563826127b3565b8116156145ae57828282600161457a600782615b71565b614585906002615c6a565b61458f91906158cb565b5f1b186040516331b75e4d60e01b815260040161101893929190615739565b5f838152600460205260409081902080546001600160f81b0316600160f81b179055517f789cf55be980739dad1d0699b93b58e806b51c9d96619bfa8fe0a28abaa7b30c906146009085815260200190565b60405180910390a150909695505050505050565b8151156146245781518083602001fd5b6141b68163ffffffff16565b5f60ff8216601f811115610fd857604051632cd44ac360e21b815260040160405180910390fd5b828054828255905f5260205f209081019282156146aa579160200282015b828111156146aa57825182546001600160a01b0319166001600160a01b03909116178255602090920191600190910190614675565b5061315f92915061478f565b828054828255905f5260205f209081019282156146aa579160200282015b828111156146aa5782518255916020019190600101906146d4565b828054828255905f5260205f20908101928215614733579160200282015b8281111561473357825182906147239082615cc2565b509160200191906001019061470d565b5061315f9291506147a3565b828054828255905f5260205f20908101928215614783579160200282015b8281111561478357825182906147739082615cc2565b509160200191906001019061475d565b5061315f9291506147bf565b5b8082111561315f575f8155600101614790565b8082111561315f575f6147b682826147db565b506001016147a3565b8082111561315f575f6147d282826147db565b506001016147bf565b5080546147e790615701565b5f825580601f106147f6575050565b601f0160209004905f5260205f209081019061106f919061478f565b5f60208284031215614822575f80fd5b5035919050565b5f60208284031215614839575f80fd5b81356001600160e01b031981168114611fe3575f80fd5b5f5b8381101561486a578181015183820152602001614852565b50505f910152565b5f8151808452614889816020860160208601614850565b601f01601f19169290920160200192915050565b602081525f611fe36020830184614872565b6001600160a01b038116811461106f575f80fd5b634e487b7160e01b5f52604160045260245ffd5b604051601f8201601f191681016001600160401b03811182821017156148ff576148ff6148c3565b604052919050565b5f6001600160401b0382111561491f5761491f6148c3565b50601f01601f191660200190565b5f82601f83011261493c575f80fd5b813561494f61494a82614907565b6148d7565b818152846020838601011115614963575f80fd5b816020850160208301375f918101602001919091529392505050565b5f805f8060808587031215614992575f80fd5b843561499d816148af565b935060208501356149ad816148af565b92506040850135915060608501356001600160401b038111156149ce575f80fd5b6149da8782880161492d565b91505092959194509250565b5f6001600160401b038211156149fe576149fe6148c3565b5060051b60200190565b5f82601f830112614a17575f80fd5b81356020614a2761494a836149e6565b82815260059290921b84018101918181019086841115614a45575f80fd5b8286015b84811015614a69578035614a5c816148af565b8352918301918301614a49565b509695505050505050565b5f82601f830112614a83575f80fd5b81356020614a9361494a836149e6565b82815260059290921b84018101918181019086841115614ab1575f80fd5b8286015b84811015614a695780358352918301918301614ab5565b5f614ad961494a846149e6565b8381529050602080820190600585901b840186811115614af7575f80fd5b845b81811015614b315780356001600160401b03811115614b17575f8081fd5b614b238982890161492d565b855250928201928201614af9565b505050509392505050565b5f82601f830112614b4b575f80fd5b611fe383833560208501614acc565b5f805f8060808587031215614b6d575f80fd5b84356001600160401b0380821115614b83575f80fd5b614b8f88838901614a08565b95506020870135915080821115614ba4575f80fd5b614bb088838901614a74565b94506040870135915080821115614bc5575f80fd5b50614bd287828801614b3c565b949793965093946060013593505050565b5f60208284031215614bf3575f80fd5b8135611fe3816148af565b5f8151808452602080850194508084015f5b83811015614c355781516001600160a01b031687529582019590820190600101614c10565b509495945050505050565b5f8151808452602080850194508084015f5b83811015614c3557815187529582019590820190600101614c52565b5f81518084526020808501808196508360051b810191508286015f5b85811015614cb4578284038952614ca2848351614872565b98850198935090840190600101614c8a565b5091979650505050505050565b608081525f614cd36080830187614bfe565b8281036020840152614ce58187614c40565b90508281036040840152614cf98186614c6e565b90508281036060840152611bcf8185614c6e565b803560ff811681146119bc575f80fd5b5f8083601f840112614d2d575f80fd5b5081356001600160401b03811115614d43575f80fd5b602083019150836020828501011115614d5a575f80fd5b9250929050565b5f805f805f805f60a0888a031215614d77575f80fd5b873596506020880135614d89816148af565b9550614d9760408901614d0d565b945060608801356001600160401b0380821115614db2575f80fd5b614dbe8b838c01614d1d565b909650945060808a0135915080821115614dd6575f80fd5b50614de38a828b01614d1d565b989b979a50959850939692959293505050565b634e487b7160e01b5f52602160045260245ffd5b60088110614e2657634e487b7160e01b5f52602160045260245ffd5b9052565b60208101610fd88284614e0a565b5f8060408385031215614e49575f80fd5b823591506020830135614e5b816148af565b809150509250929050565b5f805f60408486031215614e78575f80fd5b8335614e83816148af565b925060208401356001600160401b03811115614e9d575f80fd5b614ea986828701614d1d565b9497909650939450505050565b5f8060408385031215614ec7575f80fd5b82359150614ed760208401614d0d565b90509250929050565b5f805f805f805f60c0888a031215614ef6575f80fd5b87359650614f0660208901614d0d565b95506040880135614f16816148af565b945060608801356001600160401b0380821115614f31575f80fd5b614f3d8b838c01614d1d565b909650945060808a0135915080821115614f55575f80fd5b614f618b838c0161492d565b935060a08a0135915080821115614f76575f80fd5b50614f838a828b0161492d565b91505092959891949750929550565b5f805f805f60808688031215614fa6575f80fd5b85359450614fb660208701614d0d565b935060408601356001600160401b0380821115614fd1575f80fd5b614fdd89838a01614d1d565b90955093506060880135915080821115614ff5575f80fd5b506150028882890161492d565b9150509295509295909350565b5f8083601f84011261501f575f80fd5b5081356001600160401b03811115615035575f80fd5b6020830191508360208260051b8501011115614d5a575f80fd5b5f805f805f805f6080888a031215615065575f80fd5b87356001600160401b038082111561507b575f80fd5b6150878b838c0161500f565b909950975060208a013591508082111561509f575f80fd5b6150ab8b838c0161500f565b909750955060408a01359150808211156150c3575f80fd5b506150d08a828b0161500f565b989b979a50959894979596606090950135949350505050565b5f80604083850312156150fa575f80fd5b8235615105816148af565b946020939093013593505050565b5f805f805f60808688031215615127575f80fd5b853594506020860135615139816148af565b935061514760408701614d0d565b925060608601356001600160401b03811115615161575f80fd5b61516d88828901614d1d565b969995985093965092949392505050565b5f805f8060608587031215615191575f80fd5b843593506151a160208601614d0d565b925060408501356001600160401b038111156151bb575f80fd5b6151c787828801614d1d565b95989497509550505050565b5f805f80608085870312156151e6575f80fd5b84356001600160401b03808211156151fc575f80fd5b61520888838901614a08565b9550602087013591508082111561521d575f80fd5b61522988838901614a74565b9450604087013591508082111561523e575f80fd5b61524a88838901614b3c565b9350606087013591508082111561525f575f80fd5b506149da8782880161492d565b60ff60f81b8816815260e060208201525f61528a60e0830189614872565b828103604084015261529c8189614872565b606084018890526001600160a01b038716608085015260a0840186905283810360c085015290506152cd8185614c40565b9a9950505050505050505050565b5f805f80608085870312156152ee575f80fd5b843593506152fe60208601614d0d565b9250604085013561530e816148af565b915060608501356001600160401b038111156149ce575f80fd5b5f805f6060848603121561533a575f80fd5b8335615345816148af565b92506020840135915060408401356001600160401b03811115615366575f80fd5b6153728682870161492d565b9150509250925092565b5f6020828403121561538c575f80fd5b813560088110611fe3575f80fd5b5f805f805f805f8060a0898b0312156153b1575f80fd5b8835975060208901356001600160401b03808211156153ce575f80fd5b6153da8c838d0161500f565b909950975060408b01359150808211156153f2575f80fd5b6153fe8c838d0161500f565b909750955060608b0135915080821115615416575f80fd5b506154238b828c0161500f565b999c989b50969995989497949560800135949350505050565b5f805f805f60a08688031215615450575f80fd5b853561545b816148af565b9450602086013561546b816148af565b935060408601356001600160401b0380821115615486575f80fd5b61549289838a01614a74565b945060608801359150808211156154a7575f80fd5b6154b389838a01614a74565b93506080880135915080821115614ff5575f80fd5b5f805f805f8060a087890312156154dd575f80fd5b8635955060208701356154ef816148af565b94506154fd60408801614d0d565b93506060870135925060808701356001600160401b0381111561551e575f80fd5b61552a89828a01614d1d565b979a9699509497509295939492505050565b5f805f806060858703121561554f575f80fd5b843561555a816148af565b93506020850135925060408501356001600160401b038111156151bb575f80fd5b5f82601f83011261558a575f80fd5b8135602061559a61494a836149e6565b82815260059290921b840181019181810190868411156155b8575f80fd5b8286015b84811015614a695780356001600160401b038111156155da575f8081fd5b6155e88986838b010161492d565b8452509183019183016155bc565b5f805f805f60a0868803121561560a575f80fd5b85356001600160401b0380821115615620575f80fd5b61562c89838a01614a08565b96506020880135915080821115615641575f80fd5b61564d89838a01614a74565b95506040880135915080821115615662575f80fd5b61566e89838a0161557b565b94506060880135915080821115615683575f80fd5b6154b389838a01614b3c565b5f805f805f60a086880312156156a3575f80fd5b85356156ae816148af565b945060208601356156be816148af565b9350604086013592506060860135915060808601356001600160401b038111156156e6575f80fd5b6150028882890161492d565b818382375f9101908152919050565b600181811c9082168061571557607f821691505b60208210810361573357634e487b7160e01b5f52602260045260245ffd5b50919050565b8381526060810161574d6020830185614e0a565b826040830152949350505050565b5f6020828403121561576b575f80fd5b5051919050565b60a081525f61578460a0830188614bfe565b82810360208401526157968188614c40565b905082810360408401526157aa8187614c6e565b60608401959095525050608001529392505050565b60c081525f6157d160c0830189614bfe565b82810360208401526157e38189614c40565b905082810360408401526157f78188614c6e565b60608401969096525050608081019290925260a0909101529392505050565b634e487b7160e01b5f52601160045260245ffd5b80820180821115610fd857610fd8615816565b65ffffffffffff82811682821603908082111561585c5761585c615816565b5092915050565b5f60208284031215615873575f80fd5b81516001600160401b03811115615888575f80fd5b8201601f81018413615898575f80fd5b80516158a661494a82614907565b8181528560208385010111156158ba575f80fd5b6118d1826020830160208601614850565b81810381811115610fd857610fd8615816565b634e487b7160e01b5f52603260045260245ffd5b5f611fe3368484614acc565b5f6020828403121561590e575f80fd5b815165ffffffffffff81168114611fe3575f80fd5b65ffffffffffff81811683821601908082111561585c5761585c615816565b608081525f6159546080830187614bfe565b82810360208401526159668187614c40565b9050828103604084015261597a8186614c6e565b91505082606083015295945050505050565b8082028115828204841417610fd857610fd8615816565b634e487b7160e01b5f52601260045260245ffd5b5f826159d157634e487b7160e01b5f52601260045260245ffd5b500490565b5f600182016159e7576159e7615816565b5060010190565b84815260ff84166020820152826040820152608060608201525f611e446080830184614872565b85815260ff8516602082015283604082015260a060608201525f615a3c60a0830185614872565b8281036080840152615a4e8185614872565b98975050505050505050565b5f60208284031215615a6a575f80fd5b81518015158114611fe3575f80fd5b5f8251615a8a818460208701614850565b9190910192915050565b5f8351615aa5818460208801614850565b835190830190615ab9818360208801614850565b01949350505050565b828152604060208201525f611a0b6040830184614872565b8981526001600160a01b0389166020820152610120604082018190525f90615b048382018b614bfe565b90508281036060840152615b18818a614c40565b90508281036080840152615b2c8189614c6e565b905082810360a0840152615b408188614c6e565b90508560c08401528460e0840152828103610100840152615b618185614872565b9c9b505050505050505050505050565b60ff8181168382160190811115610fd857610fd8615816565b600181815b80851115615bc457815f1904821115615baa57615baa615816565b80851615615bb757918102915b93841c9390800290615b8f565b509250929050565b5f82615bda57506001610fd8565b81615be657505f610fd8565b8160018114615bfc5760028114615c0657615c22565b6001915050610fd8565b60ff841115615c1757615c17615816565b50506001821b610fd8565b5060208310610133831016604e8410600b8410161715615c45575081810a610fd8565b615c4f8383615b8a565b805f1904821115615c6257615c62615816565b029392505050565b5f611fe360ff841683615bcc565b601f821115615cbd575f81815260208120601f850160051c81016020861015615c9e5750805b601f850160051c820191505b818110156118bc57828155600101615caa565b505050565b81516001600160401b03811115615cdb57615cdb6148c3565b615cef81615ce98454615701565b84615c78565b602080601f831160018114615d22575f8415615d0b5750858301515b5f19600386901b1c1916600185901b1785556118bc565b5f85815260208120601f198616915b82811015615d5057888601518255948401946001909101908401615d31565b5085821015615d6d57878501515f19600388901b60f8161c191681555b5050505050600190811b0190555056fea26469706673582212202b78caf3a2ead578a228d9d8ee8dd0df1f3f8b663bdd868198669b38877833ab64736f6c63430008140033",
  "linkReferences": {},
  "deployedLinkReferences": {}
}