{"abi":[{"type":"constructor","inputs":[{"name":"_token","type":"address","internalType":"contract IVotes"},{"name":"_timelock","type":"address","internalType":"contract TimelockController"}],"stateMutability":"nonpayable"},{"type":"receive","stateMutability":"payable"},{"type":"function","name":"BALLOT_TYPEHASH","inputs":[],"outputs":[{"name":"","type":"bytes32","internalType":"bytes32"}],"stateMutability":"view"},{"type":"function","name":"CLOCK_MODE","inputs":[],"outputs":[{"name":"","type":"string","internalType":"string"}],"stateMutability":"view"},{"type":"function","name":"COUNTING_MODE","inputs":[],"outputs":[{"name":"","type":"string","internalType":"string"}],"stateMutability":"pure"},{"type":"function","name":"EXTENDED_BALLOT_TYPEHASH","inputs":[],"outputs":[{"name":"","type":"bytes32","internalType":"bytes32"}],"stateMutability":"view"},{"type":"function","name":"cancel","inputs":[{"name":"proposalId","type":"uint256","internalType":"uint256"}],"outputs":[],"stateMutability":"nonpayable"},{"type":"function","name":"cancel","inputs":[{"name":"targets","type":"address[]","internalType":"address[]"},{"name":"values","type":"uint256[]","internalType":"uint256[]"},{"name":"calldatas","type":"bytes[]","internalType":"bytes[]"},{"name":"descriptionHash","type":"bytes32","internalType":"bytes32"}],"outputs":[{"name":"","type":"uint256","internalType":"uint256"}],"stateMutability":"nonpayable"},{"type":"function","name":"castVote","inputs":[{"name":"proposalId","type":"uint256","internalType":"uint256"},{"name":"support","type":"uint8","internalType":"uint8"}],"outputs":[{"name":"","type":"uint256","internalType":"uint256"}],"stateMutability":"nonpayable"},{"type":"function","name":"castVoteBySig","inputs":[{"name":"proposalId","type":"uint256","internalType":"uint256"},{"name":"support","type":"uint8","internalType":"uint8"},{"name":"voter","type":"address","internalType":"address"},{"name":"signature","type":"bytes","internalType":"bytes"}],"outputs":[{"name":"","type":"uint256","internalType":"uint256"}],"stateMutability":"nonpayable"},{"type":"function","name":"castVoteWithReason","inputs":[{"name":"proposalId","type":"uint256","internalType":"uint256"},{"name":"support","type":"uint8","internalType":"uint8"},{"name":"reason","type":"string","internalType":"string"}],"outputs":[{"name":"","type":"uint256","internalType":"uint256"}],"stateMutability":"nonpayable"},{"type":"function","name":"castVoteWithReasonAndParams","inputs":[{"name":"proposalId","type":"uint256","internalType":"uint256"},{"name":"support","type":"uint8","internalType":"uint8"},{"name":"reason","type":"string","internalType":"string"},{"name":"params","type":"bytes","internalType":"bytes"}],"outputs":[{"name":"","type":"uint256","internalType":"uint256"}],"stateMutability":"nonpayable"},{"type":"function","name":"castVoteWithReasonAndParamsBySig","inputs":[{"name":"proposalId","type":"uint256","internalType":"uint256"},{"name":"support","type":"uint8","internalType":"uint8"},{"name":"voter","type":"address","internalType":"address"},{"name":"reason","type":"string","internalType":"string"},{"name":"params","type":"bytes","internalType":"bytes"},{"name":"signature","type":"bytes","internalType":"bytes"}],"outputs":[{"name":"","type":"uint256","internalType":"uint256"}],"stateMutability":"nonpayable"},{"type":"function","name":"clock","inputs":[],"outputs":[{"name":"","type":"uint48","internalType":"uint48"}],"stateMutability":"view"},{"type":"function","name":"eip712Domain","inputs":[],"outputs":[{"name":"fields","type":"bytes1","internalType":"bytes1"},{"name":"name","type":"string","internalType":"string"},{"name":"version","type":"string","internalType":"string"},{"name":"chainId","type":"uint256","internalType":"uint256"},{"name":"verifyingContract","type":"address","internalType":"address"},{"name":"salt","type":"bytes32","internalType":"bytes32"},{"name":"extensions","type":"uint256[]","internalType":"uint256[]"}],"stateMutability":"view"},{"type":"function","name":"execute","inputs":[{"name":"targets","type":"address[]","internalType":"address[]"},{"name":"values","type":"uint256[]","internalType":"uint256[]"},{"name":"calldatas","type":"bytes[]","internalType":"bytes[]"},{"name":"descriptionHash","type":"bytes32","internalType":"bytes32"}],"outputs":[{"name":"","type":"uint256","internalType":"uint256"}],"stateMutability":"payable"},{"type":"function","name":"execute","inputs":[{"name":"proposalId","type":"uint256","internalType":"uint256"}],"outputs":[],"stateMutability":"payable"},{"type":"function","name":"getActions","inputs":[{"name":"proposalId","type":"uint256","internalType":"uint256"}],"outputs":[{"name":"targets","type":"address[]","internalType":"address[]"},{"name":"values","type":"uint256[]","internalType":"uint256[]"},{"name":"signatures","type":"string[]","internalType":"string[]"},{"name":"calldatas","type":"bytes[]","internalType":"bytes[]"}],"stateMutability":"view"},{"type":"function","name":"getReceipt","inputs":[{"name":"proposalId","type":"uint256","internalType":"uint256"},{"name":"voter","type":"address","internalType":"address"}],"outputs":[{"name":"","type":"tuple","internalType":"struct IGovernorCompatibilityBravo.Receipt","components":[{"name":"hasVoted","type":"bool","internalType":"bool"},{"name":"support","type":"uint8","internalType":"uint8"},{"name":"votes","type":"uint96","internalType":"uint96"}]}],"stateMutability":"view"},{"type":"function","name":"getVotes","inputs":[{"name":"account","type":"address","internalType":"address"},{"name":"timepoint","type":"uint256","internalType":"uint256"}],"outputs":[{"name":"","type":"uint256","internalType":"uint256"}],"stateMutability":"view"},{"type":"function","name":"getVotesWithParams","inputs":[{"name":"account","type":"address","internalType":"address"},{"name":"timepoint","type":"uint256","internalType":"uint256"},{"name":"params","type":"bytes","internalType":"bytes"}],"outputs":[{"name":"","type":"uint256","internalType":"uint256"}],"stateMutability":"view"},{"type":"function","name":"hasVoted","inputs":[{"name":"proposalId","type":"uint256","internalType":"uint256"},{"name":"account","type":"address","internalType":"address"}],"outputs":[{"name":"","type":"bool","internalType":"bool"}],"stateMutability":"view"},{"type":"function","name":"hashProposal","inputs":[{"name":"targets","type":"address[]","internalType":"address[]"},{"name":"values","type":"uint256[]","internalType":"uint256[]"},{"name":"calldatas","type":"bytes[]","internalType":"bytes[]"},{"name":"descriptionHash","type":"bytes32","internalType":"bytes32"}],"outputs":[{"name":"","type":"uint256","internalType":"uint256"}],"stateMutability":"pure"},{"type":"function","name":"name","inputs":[],"outputs":[{"name":"","type":"string","internalType":"string"}],"stateMutability":"view"},{"type":"function","name":"nonces","inputs":[{"name":"owner","type":"address","internalType":"address"}],"outputs":[{"name":"","type":"uint256","internalType":"uint256"}],"stateMutability":"view"},{"type":"function","name":"onERC1155BatchReceived","inputs":[{"name":"","type":"address","internalType":"address"},{"name":"","type":"address","internalType":"address"},{"name":"","type":"uint256[]","internalType":"uint256[]"},{"name":"","type":"uint256[]","internalType":"uint256[]"},{"name":"","type":"bytes","internalType":"bytes"}],"outputs":[{"name":"","type":"bytes4","internalType":"bytes4"}],"stateMutability":"nonpayable"},{"type":"function","name":"onERC1155Received","inputs":[{"name":"","type":"address","internalType":"address"},{"name":"","type":"address","internalType":"address"},{"name":"","type":"uint256","internalType":"uint256"},{"name":"","type":"uint256","internalType":"uint256"},{"name":"","type":"bytes","internalType":"bytes"}],"outputs":[{"name":"","type":"bytes4","internalType":"bytes4"}],"stateMutability":"nonpayable"},{"type":"function","name":"onERC721Received","inputs":[{"name":"","type":"address","internalType":"address"},{"name":"","type":"address","internalType":"address"},{"name":"","type":"uint256","internalType":"uint256"},{"name":"","type":"bytes","internalType":"bytes"}],"outputs":[{"name":"","type":"bytes4","internalType":"bytes4"}],"stateMutability":"nonpayable"},{"type":"function","name":"proposalDeadline","inputs":[{"name":"proposalId","type":"uint256","internalType":"uint256"}],"outputs":[{"name":"","type":"uint256","internalType":"uint256"}],"stateMutability":"view"},{"type":"function","name":"proposalEta","inputs":[{"name":"proposalId","type":"uint256","internalType":"uint256"}],"outputs":[{"name":"","type":"uint256","internalType":"uint256"}],"stateMutability":"view"},{"type":"function","name":"proposalProposer","inputs":[{"name":"proposalId","type":"uint256","internalType":"uint256"}],"outputs":[{"name":"","type":"address","internalType":"address"}],"stateMutability":"view"},{"type":"function","name":"proposalSnapshot","inputs":[{"name":"proposalId","type":"uint256","internalType":"uint256"}],"outputs":[{"name":"","type":"uint256","internalType":"uint256"}],"stateMutability":"view"},{"type":"function","name":"proposalThreshold","inputs":[],"outputs":[{"name":"","type":"uint256","internalType":"uint256"}],"stateMutability":"pure"},{"type":"function","name":"proposals","inputs":[{"name":"proposalId","type":"uint256","internalType":"uint256"}],"outputs":[{"name":"id","type":"uint256","internalType":"uint256"},{"name":"proposer","type":"address","internalType":"address"},{"name":"eta","type":"uint256","internalType":"uint256"},{"name":"startBlock","type":"uint256","internalType":"uint256"},{"name":"endBlock","type":"uint256","internalType":"uint256"},{"name":"forVotes","type":"uint256","internalType":"uint256"},{"name":"againstVotes","type":"uint256","internalType":"uint256"},{"name":"abstainVotes","type":"uint256","internalType":"uint256"},{"name":"canceled","type":"bool","internalType":"bool"},{"name":"executed","type":"bool","internalType":"bool"}],"stateMutability":"view"},{"type":"function","name":"propose","inputs":[{"name":"targets","type":"address[]","internalType":"address[]"},{"name":"values","type":"uint256[]","internalType":"uint256[]"},{"name":"calldatas","type":"bytes[]","internalType":"bytes[]"},{"name":"description","type":"string","internalType":"string"}],"outputs":[{"name":"","type":"uint256","internalType":"uint256"}],"stateMutability":"nonpayable"},{"type":"function","name":"propose","inputs":[{"name":"targets","type":"address[]","internalType":"address[]"},{"name":"values","type":"uint256[]","internalType":"uint256[]"},{"name":"signatures","type":"string[]","internalType":"string[]"},{"name":"calldatas","type":"bytes[]","internalType":"bytes[]"},{"name":"description","type":"string","internalType":"string"}],"outputs":[{"name":"","type":"uint256","internalType":"uint256"}],"stateMutability":"nonpayable"},{"type":"function","name":"queue","inputs":[{"name":"targets","type":"address[]","internalType":"address[]"},{"name":"values","type":"uint256[]","internalType":"uint256[]"},{"name":"calldatas","type":"bytes[]","internalType":"bytes[]"},{"name":"descriptionHash","type":"bytes32","internalType":"bytes32"}],"outputs":[{"name":"","type":"uint256","internalType":"uint256"}],"stateMutability":"nonpayable"},{"type":"function","name":"queue","inputs":[{"name":"proposalId","type":"uint256","internalType":"uint256"}],"outputs":[],"stateMutability":"nonpayable"},{"type":"function","name":"quorum","inputs":[{"name":"timepoint","type":"uint256","internalType":"uint256"}],"outputs":[{"name":"","type":"uint256","internalType":"uint256"}],"stateMutability":"view"},{"type":"function","name":"quorumDenominator","inputs":[],"outputs":[{"name":"","type":"uint256","internalType":"uint256"}],"stateMutability":"view"},{"type":"function","name":"quorumNumerator","inputs":[{"name":"timepoint","type":"uint256","internalType":"uint256"}],"outputs":[{"name":"","type":"uint256","internalType":"uint256"}],"stateMutability":"view"},{"type":"function","name":"quorumNumerator","inputs":[],"outputs":[{"name":"","type":"uint256","internalType":"uint256"}],"stateMutability":"view"},{"type":"function","name":"quorumVotes","inputs":[],"outputs":[{"name":"","type":"uint256","internalType":"uint256"}],"stateMutability":"view"},{"type":"function","name":"relay","inputs":[{"name":"target","type":"address","internalType":"address"},{"name":"value","type":"uint256","internalType":"uint256"},{"name":"data","type":"bytes","internalType":"bytes"}],"outputs":[],"stateMutability":"payable"},{"type":"function","name":"state","inputs":[{"name":"proposalId","type":"uint256","internalType":"uint256"}],"outputs":[{"name":"","type":"uint8","internalType":"enum IGovernor.ProposalState"}],"stateMutability":"view"},{"type":"function","name":"supportsInterface","inputs":[{"name":"interfaceId","type":"bytes4","internalType":"bytes4"}],"outputs":[{"name":"","type":"bool","internalType":"bool"}],"stateMutability":"view"},{"type":"function","name":"timelock","inputs":[],"outputs":[{"name":"","type":"address","internalType":"address"}],"stateMutability":"view"},{"type":"function","name":"token","inputs":[],"outputs":[{"name":"","type":"address","internalType":"contract IERC5805"}],"stateMutability":"view"},{"type":"function","name":"updateQuorumNumerator","inputs":[{"name":"newQuorumNumerator","type":"uint256","internalType":"uint256"}],"outputs":[],"stateMutability":"nonpayable"},{"type":"function","name":"updateTimelock","inputs":[{"name":"newTimelock","type":"address","internalType":"contract TimelockController"}],"outputs":[],"stateMutability":"nonpayable"},{"type":"function","name":"version","inputs":[],"outputs":[{"name":"","type":"string","internalType":"string"}],"stateMutability":"view"},{"type":"function","name":"votingDelay","inputs":[],"outputs":[{"name":"","type":"uint256","internalType":"uint256"}],"stateMutability":"pure"},{"type":"function","name":"votingPeriod","inputs":[],"outputs":[{"name":"","type":"uint256","internalType":"uint256"}],"stateMutability":"pure"},{"type":"event","name":"EIP712DomainChanged","inputs":[],"anonymous":false},{"type":"event","name":"ProposalCanceled","inputs":[{"name":"proposalId","type":"uint256","indexed":false,"internalType":"uint256"}],"anonymous":false},{"type":"event","name":"ProposalCreated","inputs":[{"name":"proposalId","type":"uint256","indexed":false,"internalType":"uint256"},{"name":"proposer","type":"address","indexed":false,"internalType":"address"},{"name":"targets","type":"address[]","indexed":false,"internalType":"address[]"},{"name":"values","type":"uint256[]","indexed":false,"internalType":"uint256[]"},{"name":"signatures","type":"string[]","indexed":false,"internalType":"string[]"},{"name":"calldatas","type":"bytes[]","indexed":false,"internalType":"bytes[]"},{"name":"voteStart","type":"uint256","indexed":false,"internalType":"uint256"},{"name":"voteEnd","type":"uint256","indexed":false,"internalType":"uint256"},{"name":"description","type":"string","indexed":false,"internalType":"string"}],"anonymous":false},{"type":"event","name":"ProposalExecuted","inputs":[{"name":"proposalId","type":"uint256","indexed":false,"internalType":"uint256"}],"anonymous":false},{"type":"event","name":"ProposalQueued","inputs":[{"name":"proposalId","type":"uint256","indexed":false,"internalType":"uint256"},{"name":"eta","type":"uint256","indexed":false,"internalType":"uint256"}],"anonymous":false},{"type":"event","name":"QuorumNumeratorUpdated","inputs":[{"name":"oldQuorumNumerator","type":"uint256","indexed":false,"internalType":"uint256"},{"name":"newQuorumNumerator","type":"uint256","indexed":false,"internalType":"uint256"}],"anonymous":false},{"type":"event","name":"TimelockChange","inputs":[{"name":"oldTimelock","type":"address","indexed":false,"internalType":"address"},{"name":"newTimelock","type":"address","indexed":false,"internalType":"address"}],"anonymous":false},{"type":"event","name":"VoteCast","inputs":[{"name":"voter","type":"address","indexed":true,"internalType":"address"},{"name":"proposalId","type":"uint256","indexed":false,"internalType":"uint256"},{"name":"support","type":"uint8","indexed":false,"internalType":"uint8"},{"name":"weight","type":"uint256","indexed":false,"internalType":"uint256"},{"name":"reason","type":"string","indexed":false,"internalType":"string"}],"anonymous":false},{"type":"event","name":"VoteCastWithParams","inputs":[{"name":"voter","type":"address","indexed":true,"internalType":"address"},{"name":"proposalId","type":"uint256","indexed":false,"internalType":"uint256"},{"name":"support","type":"uint8","indexed":false,"internalType":"uint8"},{"name":"weight","type":"uint256","indexed":false,"internalType":"uint256"},{"name":"reason","type":"string","indexed":false,"internalType":"string"},{"name":"params","type":"bytes","indexed":false,"internalType":"bytes"}],"anonymous":false},{"type":"error","name":"CheckpointUnorderedInsertion","inputs":[]},{"type":"error","name":"FailedInnerCall","inputs":[]},{"type":"error","name":"GovernorAlreadyCastVote","inputs":[{"name":"voter","type":"address","internalType":"address"}]},{"type":"error","name":"GovernorAlreadyQueuedProposal","inputs":[{"name":"proposalId","type":"uint256","internalType":"uint256"}]},{"type":"error","name":"GovernorDisabledDeposit","inputs":[]},{"type":"error","name":"GovernorInsufficientProposerVotes","inputs":[{"name":"proposer","type":"address","internalType":"address"},{"name":"votes","type":"uint256","internalType":"uint256"},{"name":"threshold","type":"uint256","internalType":"uint256"}]},{"type":"error","name":"GovernorInvalidProposalLength","inputs":[{"name":"targets","type":"uint256","internalType":"uint256"},{"name":"calldatas","type":"uint256","internalType":"uint256"},{"name":"values","type":"uint256","internalType":"uint256"}]},{"type":"error","name":"GovernorInvalidQuorumFraction","inputs":[{"name":"quorumNumerator","type":"uint256","internalType":"uint256"},{"name":"quorumDenominator","type":"uint256","internalType":"uint256"}]},{"type":"error","name":"GovernorInvalidSignature","inputs":[{"name":"voter","type":"address","internalType":"address"}]},{"type":"error","name":"GovernorInvalidSignaturesLength","inputs":[{"name":"signatures","type":"uint256","internalType":"uint256"},{"name":"calldatas","type":"uint256","internalType":"uint256"}]},{"type":"error","name":"GovernorInvalidVoteType","inputs":[]},{"type":"error","name":"GovernorInvalidVotingPeriod","inputs":[{"name":"votingPeriod","type":"uint256","internalType":"uint256"}]},{"type":"error","name":"GovernorNonexistentProposal","inputs":[{"name":"proposalId","type":"uint256","internalType":"uint256"}]},{"type":"error","name":"GovernorNotQueuedProposal","inputs":[{"name":"proposalId","type":"uint256","internalType":"uint256"}]},{"type":"error","name":"GovernorOnlyExecutor","inputs":[{"name":"account","type":"address","internalType":"address"}]},{"type":"error","name":"GovernorOnlyProposer","inputs":[{"name":"account","type":"address","internalType":"address"}]},{"type":"error","name":"GovernorUnexpectedProposalState","inputs":[{"name":"proposalId","type":"uint256","internalType":"uint256"},{"name":"current","type":"uint8","internalType":"enum IGovernor.ProposalState"},{"name":"expectedStates","type":"bytes32","internalType":"bytes32"}]},{"type":"error","name":"InvalidAccountNonce","inputs":[{"name":"account","type":"address","internalType":"address"},{"name":"currentNonce","type":"uint256","internalType":"uint256"}]},{"type":"error","name":"InvalidShortString","inputs":[]},{"type":"error","name":"QueueEmpty","inputs":[]},{"type":"error","name":"SafeCastOverflowedUintDowncast","inputs":[{"name":"bits","type":"uint8","internalType":"uint8"},{"name":"value","type":"uint256","internalType":"uint256"}]},{"type":"error","name":"StringTooLong","inputs":[{"name":"str","type":"string","internalType":"string"}]}],"bytecode":{"object":"0x61018060405234801561001157600080fd5b50604051615afa380380615afa83398101604081905261003091610608565b806004836040518060400160405280600a81526020016926bca3b7bb32b93737b960b11b8152508061006661014c60201b60201c565b610071826000610167565b61012052610080816001610167565b61014052815160208084019190912060e052815190820120610100524660a05261010d60e05161010051604080517f8b73c3c69bb8fe3d512ecc4cf759cc79239f7b179b0ffacaa9a75d522b39400f60208201529081019290925260608201524660808201523060a082015260009060c00160405160208183030381529060405280519060200120905090565b60805250503060c052600361012282826106e1565b50506001600160a01b03166101605261013a8161019a565b5061014481610245565b50505061085a565b6040805180820190915260018152603160f81b602082015290565b60006020835110156101835761017c836102ae565b9050610194565b8161018e84826106e1565b5060ff90505b92915050565b6064808211156101cc5760405163243e544560e01b815260048101839052602481018290526044015b60405180910390fd5b60006101d66102ec565b90506102056101f36101e6610306565b65ffffffffffff1661037c565b6101fc856103b1565b600891906103e5565b505060408051828152602081018590527f0553476bf02ef2726e8ce5ced78d63e26e602e4a2257b1f559418e24b4633997910160405180910390a1505050565b600954604080516001600160a01b03928316815291831660208301527f08f74ea46ef7894f65eabfb5e6e695de773a000b47c529ab559178069b226401910160405180910390a1600980546001600160a01b0319166001600160a01b0392909216919091179055565b600080829050601f815111156102d9578260405163305a27a960e01b81526004016101c3919061079f565b80516102e4826107ed565b179392505050565b60006102f86008610400565b6001600160e01b0316905090565b6000610160516001600160a01b03166391ddadf46040518163ffffffff1660e01b8152600401602060405180830381865afa925050508015610365575060408051601f3d908101601f1916820190925261036291810190610811565b60015b6103775761037243610449565b905090565b919050565b600063ffffffff8211156103ad576040516306dfcc6560e41b815260206004820152602481018390526044016101c3565b5090565b60006001600160e01b038211156103ad576040516306dfcc6560e41b815260e06004820152602481018390526044016101c3565b6000806103f385858561047c565b915091505b935093915050565b8054600090801561043f576104288361041a600184610839565b600091825260209091200190565b5464010000000090046001600160e01b0316610442565b60005b9392505050565b600065ffffffffffff8211156103ad576040516306dfcc6560e41b815260306004820152602481018390526044016101c3565b82546000908190801561059657600061049a8761041a600185610839565b60408051808201909152905463ffffffff8082168084526401000000009092046001600160e01b0316602084015291925090871610156104ed57604051632520601d60e01b815260040160405180910390fd5b805163ffffffff808816911603610536578461050e8861041a600186610839565b80546001600160e01b03929092166401000000000263ffffffff909216919091179055610586565b6040805180820190915263ffffffff80881682526001600160e01b0380881660208085019182528b54600181018d5560008d81529190912094519151909216640100000000029216919091179101555b6020015192508391506103f89050565b50506040805180820190915263ffffffff80851682526001600160e01b0380851660208085019182528854600181018a5560008a8152918220955192519093166401000000000291909316179201919091559050816103f8565b6001600160a01b038116811461060557600080fd5b50565b6000806040838503121561061b57600080fd5b8251610626816105f0565b6020840151909250610637816105f0565b809150509250929050565b634e487b7160e01b600052604160045260246000fd5b600181811c9082168061066c57607f821691505b60208210810361068c57634e487b7160e01b600052602260045260246000fd5b50919050565b601f8211156106dc57806000526020600020601f840160051c810160208510156106b95750805b601f840160051c820191505b818110156106d957600081556001016106c5565b50505b505050565b81516001600160401b038111156106fa576106fa610642565b61070e816107088454610658565b84610692565b6020601f821160018114610742576000831561072a5750848201515b600019600385901b1c1916600184901b1784556106d9565b600084815260208120601f198516915b828110156107725787850151825560209485019460019092019101610752565b50848210156107905786840151600019600387901b60f8161c191681555b50505050600190811b01905550565b602081526000825180602084015260005b818110156107cd57602081860181015160408684010152016107b0565b506000604082850101526040601f19601f83011684010191505092915050565b8051602080830151919081101561068c5760001960209190910360031b1b16919050565b60006020828403121561082357600080fd5b815165ffffffffffff8116811461044257600080fd5b8181038181111561019457634e487b7160e01b600052601160045260246000fd5b60805160a05160c05160e0516101005161012051610140516101605161521f6108db60003960008181610b1a0152818161140c015281816118c201528181611d180152612846015260006127c40152600061279701526000612f5e01526000612f3601526000612e9101526000612ebb01526000612ee5015261521f6000f3fe6080604052600436106102e85760003560e01c80637d5e81e211610190578063c28bc2fa116100dc578063deaaa7cc11610095578063f23a6e611161006f578063f23a6e6114610ac8578063f8ce560a14610ae8578063fc0c546a14610b08578063fe0d94c114610b3c57600080fd5b8063deaaa7cc146109ab578063e23a9a52146109df578063eb9019d414610aa857600080fd5b8063c28bc2fa146108d4578063c59057e4146108e7578063d33219b414610907578063da95691a14610925578063dd4e2ba514610945578063ddf0b0091461098b57600080fd5b80639a802a6d11610149578063ab58fb8e11610123578063ab58fb8e14610860578063b58131b014610880578063bc197c8114610894578063c01f9e37146108b457600080fd5b80639a802a6d1461080b578063a7713a701461082b578063a890c9101461084057600080fd5b80637d5e81e21461072d5780637ecebe001461074d57806384b0196e146107835780638ff262e3146107ab57806391ddadf4146107cb57806397c3d334146107f757600080fd5b8063328dd9821161024f5780634bf5d7e9116102085780635b8d0e0d116101e25780635b8d0e0d146106ad5780635f398a14146106cd57806360c4247f146106ed5780637b3c71d31461070d57600080fd5b80634bf5d7e91461064e57806354fd4d5014610663578063567813881461068d57600080fd5b8063328dd982146105535780633932abb1146105835780633e4f49e61461059857806340e58ee5146105c557806343859632146105e5578063452115d61461062e57600080fd5b8063150b7a02116102a1578063150b7a021461047e578063160cbed7146104b757806324bc1a64146104d75780632656227d146104ec5780632d63f693146104ff5780632fe3e2611461051f57600080fd5b8063013cf08b1461032457806301ffc9a71461039f57806302a251a3146103cf57806306f3f9e6146103ee57806306fdde031461040e578063143489d01461043057600080fd5b3661031f57306102f6610b4f565b6001600160a01b03161461031d57604051637485328f60e11b815260040160405180910390fd5b005b600080fd5b34801561033057600080fd5b5061034461033f366004613fc3565b610b68565b604080519a8b526001600160a01b0390991660208b0152978901969096526060880194909452608087019290925260a086015260c085015260e084015215156101008301521515610120820152610140015b60405180910390f35b3480156103ab57600080fd5b506103bf6103ba366004613fdc565b610c23565b6040519015158152602001610396565b3480156103db57600080fd5b5061c4e05b604051908152602001610396565b3480156103fa57600080fd5b5061031d610409366004613fc3565b610c34565b34801561041a57600080fd5b50610423610cc9565b6040516103969190614056565b34801561043c57600080fd5b5061046661044b366004613fc3565b6000908152600460205260409020546001600160a01b031690565b6040516001600160a01b039091168152602001610396565b34801561048a57600080fd5b5061049e610499366004614144565b610d5b565b6040516001600160e01b03199091168152602001610396565b3480156104c357600080fd5b506103e06104d2366004614319565b610d9e565b3480156104e357600080fd5b506103e0610fcf565b6103e06104fa366004614319565b610ff5565b34801561050b57600080fd5b506103e061051a366004613fc3565b611109565b34801561052b57600080fd5b506103e07f3e83946653575f9a39005e1545185629e92736b7528ab20ca3816f315424a81181565b34801561055f57600080fd5b5061057361056e366004613fc3565b61112a565b6040516103969493929190614485565b34801561058f57600080fd5b50611c206103e0565b3480156105a457600080fd5b506105b86105b3366004613fc3565b6113bb565b604051610396919061450a565b3480156105d157600080fd5b5061031d6105e0366004613fc3565b6113c6565b3480156105f157600080fd5b506103bf610600366004614518565b60008281526007602081815260408084206001600160a01b0386168552909201905290205460ff1692915050565b34801561063a57600080fd5b506103e0610649366004614319565b6113f1565b34801561065a57600080fd5b50610423611408565b34801561066f57600080fd5b506040805180820190915260018152603160f81b6020820152610423565b34801561069957600080fd5b506103e06106a8366004614559565b6114ca565b3480156106b957600080fd5b506103e06106c83660046145cd565b6114f3565b3480156106d957600080fd5b506103e06106e8366004614691565b611652565b3480156106f957600080fd5b506103e0610708366004613fc3565b6116a7565b34801561071957600080fd5b506103e0610728366004614718565b611746565b34801561073957600080fd5b506103e0610748366004614771565b611798565b34801561075957600080fd5b506103e0610768366004614815565b6001600160a01b031660009081526002602052604090205490565b34801561078f57600080fd5b506107986117a6565b6040516103969796959493929190614832565b3480156107b757600080fd5b506103e06107c63660046148a2565b6117ec565b3480156107d757600080fd5b506107e06118be565b60405165ffffffffffff9091168152602001610396565b34801561080357600080fd5b5060646103e0565b34801561081757600080fd5b506103e06108263660046148f3565b611947565b34801561083757600080fd5b506103e061195e565b34801561084c57600080fd5b5061031d61085b366004614815565b611978565b34801561086c57600080fd5b506103e061087b366004613fc3565b6119e4565b34801561088c57600080fd5b5060006103e0565b3480156108a057600080fd5b5061049e6108af36600461494b565b611a7e565b3480156108c057600080fd5b506103e06108cf366004613fc3565b611ac2565b61031d6108e23660046149e9565b611b05565b3480156108f357600080fd5b506103e0610902366004614319565b611be0565b34801561091357600080fd5b506009546001600160a01b0316610466565b34801561093157600080fd5b506103e0610940366004614a2c565b611c1a565b34801561095157600080fd5b5060408051808201909152601a81527f737570706f72743d627261766f2671756f72756d3d627261766f0000000000006020820152610423565b34801561099757600080fd5b5061031d6109a6366004613fc3565b611c6d565b3480156109b757600080fd5b506103e07ff2aad550cf55f045cb27e9c559f9889fdfb6e6cdaa032301d6ea397784ae51d781565b3480156109eb57600080fd5b50610a786109fa366004614518565b60408051606081018252600080825260208201819052918101919091525060009182526007602081815260408085206001600160a01b03949094168552929091018152918190208151606081018352905460ff8082161515835261010082041693820193909352620100009092046001600160601b03169082015290565b6040805182511515815260208084015160ff1690820152918101516001600160601b031690820152606001610396565b348015610ab457600080fd5b506103e0610ac3366004614ade565b611c90565b348015610ad457600080fd5b5061049e610ae3366004614b0a565b611cb1565b348015610af457600080fd5b506103e0610b03366004613fc3565b611cf5565b348015610b1457600080fd5b506104667f000000000000000000000000000000000000000000000000000000000000000081565b61031d610b4a366004613fc3565b611d9f565b6000610b636009546001600160a01b031690565b905090565b8060008080808080808080610b928a6000908152600460205260409020546001600160a01b031690565b9850610b9d8b6119e4565b9750610ba88b611109565b9650610bb38b611ac2565b60008c8152600760205260408120600481015460058201546006830154949a509098509650919450610be48d6113bb565b90506002816007811115610bfa57610bfa6144d2565b1493506007816007811115610c1157610c116144d2565b14925050509193959799509193959799565b6000610c2e82611dc2565b92915050565b33610c3d610b4f565b6001600160a01b031614610c7757335b6040516347096e4760e01b81526001600160a01b0390911660048201526024015b60405180910390fd5b30610c80610b4f565b6001600160a01b031614610cbd5760008036604051610ca0929190614b66565b604051809103902090505b80610cb66005611de7565b03610cab57505b610cc681611e66565b50565b606060038054610cd890614b76565b80601f0160208091040260200160405190810160405280929190818152602001828054610d0490614b76565b8015610d515780601f10610d2657610100808354040283529160200191610d51565b820191906000526020600020905b815481529060010190602001808311610d3457829003601f168201915b5050505050905090565b600030610d66610b4f565b6001600160a01b031614610d8d57604051637485328f60e11b815260040160405180910390fd5b50630a85bd0160e11b949350505050565b600080610dad86868686611be0565b90506000610dba826113bb565b90506004816007811115610dd057610dd06144d2565b14610dfd578181610de16004611f0c565b6040516331b75e4d60e01b8152600401610c6e93929190614bb0565b6009546040805163793d064960e11b815290516000926001600160a01b03169163f27a0c929160048083019260209291908290030181865afa158015610e47573d6000803e3d6000fd5b505050506040513d601f19601f82011682018060405250810190610e6b9190614bd2565b905060003060601b6bffffffffffffffffffffffff1916861860095460405163b1c5f42760e01b81529192506001600160a01b03169063b1c5f42790610ebe908c908c908c906000908890600401614beb565b602060405180830381865afa158015610edb573d6000803e3d6000fd5b505050506040513d601f19601f82011682018060405250810190610eff9190614bd2565b6000858152600a60205260408082209290925560095491516308f2a0bb60e41b81526001600160a01b0390921691638f2a0bb091610f4a918d918d918d919088908a90600401614c39565b600060405180830381600087803b158015610f6457600080fd5b505af1158015610f78573d6000803e3d6000fd5b505050507f9a2e42fd6722813d69113e7d0079d3d940171428df7373df9c7f7617cfda2892848342610faa9190614ca7565b6040805192835260208301919091520160405180910390a15091979650505050505050565b6000610b636001610fde6118be565b610fe89190614cba565b65ffffffffffff16611cf5565b60008061100486868686611be0565b90506000611011826113bb565b90506004816007811115611027576110276144d2565b1415801561104757506005816007811115611044576110446144d2565b14155b1561107f5781816110586005611f0c565b6110626004611f0c565b176040516331b75e4d60e01b8152600401610c6e93929190614bb0565b60008281526004602052604090819020805460ff60f01b1916600160f01b179055517f712ae1383f79ac853f8d882153778e0260ef8f03b504e2866e0593e04d2b291f906110d09084815260200190565b60405180910390a16110e58288888888611f2f565b6110f28288888888611fc7565b6110ff8288888888611fd4565b5095945050505050565b600090815260046020526040902054600160a01b900465ffffffffffff1690565b606080606080600060076000878152602001908152602001600020905080600001816001018260020183600301838054806020026020016040519081016040528092919081815260200182805480156111ac57602002820191906000526020600020905b81546001600160a01b0316815260019091019060200180831161118e575b50505050509350828054806020026020016040519081016040528092919081815260200182805480156111fe57602002820191906000526020600020905b8154815260200190600101908083116111ea575b5050505050925081805480602002602001604051908101604052809291908181526020016000905b828210156112d257838290600052602060002001805461124590614b76565b80601f016020809104026020016040519081016040528092919081815260200182805461127190614b76565b80156112be5780601f10611293576101008083540402835291602001916112be565b820191906000526020600020905b8154815290600101906020018083116112a157829003601f168201915b505050505081526020019060010190611226565b50505050915080805480602002602001604051908101604052809291908181526020016000905b828210156113a557838290600052602060002001805461131890614b76565b80601f016020809104026020016040519081016040528092919081815260200182805461134490614b76565b80156113915780601f1061136657610100808354040283529160200191611391565b820191906000526020600020905b81548152906001019060200180831161137457829003601f168201915b5050505050815260200190600101906112f9565b5050505090509450945094509450509193509193565b6000610c2e8261200d565b6000806000806113d585612157565b93509350935093506113e9848484846113f1565b505050505050565b60006113ff858585856123e7565b95945050505050565b60607f00000000000000000000000000000000000000000000000000000000000000006001600160a01b0316634bf5d7e96040518163ffffffff1660e01b8152600401600060405180830381865afa92505050801561148957506040513d6000823e601f3d908101601f191682016040526114869190810190614cd8565b60015b6114c5575060408051808201909152601d81527f6d6f64653d626c6f636b6e756d6265722666726f6d3d64656661756c74000000602082015290565b919050565b6000803390506114eb84828560405180602001604052806000815250612499565b949350505050565b6000806115d6876115d07f3e83946653575f9a39005e1545185629e92736b7528ab20ca3816f315424a8118c8c8c6115488e6001600160a01b0316600090815260026020526040902080546001810190915590565b8d8d604051611558929190614b66565b60405180910390208c805190602001206040516020016115b59796959493929190968752602087019590955260ff9390931660408601526001600160a01b03919091166060850152608084015260a083015260c082015260e00190565b604051602081830303815290604052805190602001206124bc565b856124e9565b905080611601576040516394ab6c0760e01b81526001600160a01b0388166004820152602401610c6e565b61164589888a89898080601f0160208091040260200160405190810160405280939291908181526020018383808284376000920191909152508b9250612541915050565b9998505050505050505050565b60008033905061169c87828888888080601f0160208091040260200160405190810160405280939291908181526020018383808284376000920191909152508a9250612541915050565b979650505050505050565b6008805460009182906116bb600184614d45565b815481106116cb576116cb614d58565b60009182526020918290206040805180820190915291015463ffffffff8116808352600160201b9091046001600160e01b0316928201929092529150841061172157602001516001600160e01b03169392505050565b61173561172d85612641565b600890612676565b6001600160e01b0316949350505050565b60008033905061178e86828787878080601f01602080910402602001604051908101604052809392919081815260200183838082843760009201919091525061249992505050565b9695505050505050565b60006113ff85858585612729565b6000606080600080600060606117ba612790565b6117c26127bd565b60408051600080825260208201909252600f60f81b9b939a50919850469750309650945092509050565b600080611878846115d07ff2aad550cf55f045cb27e9c559f9889fdfb6e6cdaa032301d6ea397784ae51d78989896118418b6001600160a01b0316600090815260026020526040902080546001810190915590565b60408051602081019690965285019390935260ff90911660608401526001600160a01b0316608083015260a082015260c0016115b5565b9050806118a3576040516394ab6c0760e01b81526001600160a01b0385166004820152602401610c6e565b61178e86858760405180602001604052806000815250612499565b60007f00000000000000000000000000000000000000000000000000000000000000006001600160a01b03166391ddadf46040518163ffffffff1660e01b8152600401602060405180830381865afa92505050801561193a575060408051601f3d908101601f1916820190925261193791810190614d6e565b60015b6114c557610b63436127ea565b600061195484848461281d565b90505b9392505050565b600061196a60086128b3565b6001600160e01b0316905090565b33611981610b4f565b6001600160a01b0316146119955733610c4d565b3061199e610b4f565b6001600160a01b0316146119db57600080366040516119be929190614b66565b604051809103902090505b806119d46005611de7565b036119c957505b610cc6816128e3565b6009546000828152600a602052604080822054905163d45c443560e01b81526004810191909152909182916001600160a01b039091169063d45c443590602401602060405180830381865afa158015611a41573d6000803e3d6000fd5b505050506040513d601f19601f82011682018060405250810190611a659190614bd2565b905080600114611a755780611957565b60009392505050565b600030611a89610b4f565b6001600160a01b031614611ab057604051637485328f60e11b815260040160405180910390fd5b5063bc197c8160e01b95945050505050565b600081815260046020526040812054611af790600160d01b810463ffffffff1690600160a01b900465ffffffffffff16614d96565b65ffffffffffff1692915050565b33611b0e610b4f565b6001600160a01b031614611b225733610c4d565b30611b2b610b4f565b6001600160a01b031614611b685760008036604051611b4b929190614b66565b604051809103902090505b80611b616005611de7565b03611b5657505b600080856001600160a01b0316858585604051611b86929190614b66565b60006040518083038185875af1925050503d8060008114611bc3576040519150601f19603f3d011682016040523d82523d6000602084013e611bc8565b606091505b5091509150611bd7828261294c565b50505050505050565b600084848484604051602001611bf99493929190614db4565b60408051601f19818403018152919052805160209091012095945050505050565b60008251845114611c4b5783518351604051632c8458e160e01b815260048101929092526024820152604401610c6e565b611c58868686868661295b565b61178e8686611c6787876129fb565b85611798565b600080600080611c7c85612157565b93509350935093506113e984848484610d9e565b60006119578383611cac60408051602081019091526000815290565b61281d565b600030611cbc610b4f565b6001600160a01b031614611ce357604051637485328f60e11b815260040160405180910390fd5b5063f23a6e6160e01b95945050505050565b60006064611d02836116a7565b604051632394e7a360e21b8152600481018590527f00000000000000000000000000000000000000000000000000000000000000006001600160a01b031690638e539e8c90602401602060405180830381865afa158015611d67573d6000803e3d6000fd5b505050506040513d601f19601f82011682018060405250810190611d8b9190614bd2565b611d959190614dff565b610c2e9190614e2c565b600080600080611dae85612157565b93509350935093506113e984848484610ff5565b60006001600160e01b03198216636e665ced60e01b1480610c2e5750610c2e82612b65565b6000611e028254600f81810b600160801b909204900b131590565b15611e20576040516375e52f4f60e01b815260040160405180910390fd5b508054600f0b6000818152600180840160205260408220805492905583546fffffffffffffffffffffffffffffffff191692016001600160801b03169190911790915590565b606480821115611e935760405163243e544560e01b81526004810183905260248101829052604401610c6e565b6000611e9d61195e565b9050611ecc611eba611ead6118be565b65ffffffffffff16612641565b611ec385612c01565b60089190612c35565b505060408051828152602081018590527f0553476bf02ef2726e8ce5ced78d63e26e602e4a2257b1f559418e24b4633997910160405180910390a1505050565b6000816007811115611f2057611f206144d2565b600160ff919091161b92915050565b30611f38610b4f565b6001600160a01b031614611fc05760005b84518110156113e957306001600160a01b0316858281518110611f6e57611f6e614d58565b60200260200101516001600160a01b031603611fb857611fb8838281518110611f9957611f99614d58565b6020026020010151805190602001206005612c5090919063ffffffff16565b600101611f49565b5050505050565b611fc08585858585612c8c565b30611fdd610b4f565b6001600160a01b031614611fc057600554600f81810b600160801b909204900b1315611fc0576000600555611fc0565b60008061201983612d22565b9050600481600781111561202f5761202f6144d2565b1461203a5792915050565b6000838152600a602052604090205480612055575092915050565b600954604051632c258a9f60e11b8152600481018390526001600160a01b039091169063584b153e90602401602060405180830381865afa15801561209e573d6000803e3d6000fd5b505050506040513d601f19601f820116820180604052508101906120c29190614e4e565b156120d1575060059392505050565b600954604051632ab0f52960e01b8152600481018390526001600160a01b0390911690632ab0f52990602401602060405180830381865afa15801561211a573d6000803e3d6000fd5b505050506040513d601f19601f8201168201806040525081019061213e9190614e4e565b1561214d575060079392505050565b5060029392505050565b6060806060600080600760008781526020019081526020016000209050806000018160010161232883600201805480602002602001604051908101604052809291908181526020016000905b8282101561224f5783829060005260206000200180546121c290614b76565b80601f01602080910402602001604051908101604052809291908181526020018280546121ee90614b76565b801561223b5780601f106122105761010080835404028352916020019161223b565b820191906000526020600020905b81548152906001019060200180831161221e57829003601f168201915b5050505050815260200190600101906121a3565b50505060038601805460408051602080840282018101909252828152935060009084015b8282101561231f57838290600052602060002001805461229290614b76565b80601f01602080910402602001604051908101604052809291908181526020018280546122be90614b76565b801561230b5780601f106122e05761010080835404028352916020019161230b565b820191906000526020600020905b8154815290600101906020018083116122ee57829003601f168201915b505050505081526020019060010190612273565b505050506129fb565b600884015483546040805160208084028201810190925282815291869183018282801561237e57602002820191906000526020600020905b81546001600160a01b03168152600190910190602001808311612360575b50505050509350828054806020026020016040519081016040528092919081815260200182805480156123d057602002820191906000526020600020905b8154815260200190600101908083116123bc575b505050505092509450945094509450509193509193565b6000806123f686868686611be0565b6000818152600460205260408120549192506001600160a01b03909116906124398260016124226118be565b61242c9190614cba565b65ffffffffffff16611c90565b90506000336001600160a01b038416148015906124565750808210155b1561248d57604051636121770b60e11b81526001600160a01b03841660048201526024810183905260448101829052606401610c6e565b61164589898989612e76565b60006113ff858585856124b760408051602081019091526000815290565b612541565b6000610c2e6124c9612e84565b8360405161190160f01b8152600281019290925260228201526042902090565b60008060006124f88585612faf565b5090925090506000816003811115612512576125126144d2565b1480156125305750856001600160a01b0316826001600160a01b0316145b8061178e575061178e868686612ffc565b60008061254d876113bb565b90506001816007811115612563576125636144d2565b14612574578681610de16001611f0c565b6000612589876125838a611109565b8661281d565b905061259888888884886130d7565b83516000036125ed57866001600160a01b03167fb8e138887d0aa13bab447e82de9d5c1777041ecd21ca36ba824ff1e6c07ddda4898884896040516125e09493929190614e70565b60405180910390a261169c565b866001600160a01b03167fe2babfbac5889a709b63bb7f598b324e08bc5a4fb9ec647fb3cbc9ec07eb8712898884898960405161262e959493929190614e98565b60405180910390a2979650505050505050565b600063ffffffff821115612672576040516306dfcc6560e41b81526020600482015260248101839052604401610c6e565b5090565b8154600090818160058111156126d3576000612691846131f4565b61269b9085614d45565b60008881526020902090915081015463ffffffff90811690871610156126c3578091506126d1565b6126ce816001614ca7565b92505b505b60006126e1878785856132dc565b9050801561271c57612706876126f8600184614d45565b600091825260209091200190565b54600160201b90046001600160e01b031661169c565b6000979650505050505050565b6000612784858585516001600160401b038111156127495761274961407e565b60405190808252806020026020018201604052801561277c57816020015b60608152602001906001900390816127675790505b50868661295b565b6113ff85858585613332565b6060610b637f00000000000000000000000000000000000000000000000000000000000000006000613620565b6060610b637f00000000000000000000000000000000000000000000000000000000000000006001613620565b600065ffffffffffff821115612672576040516306dfcc6560e41b81526030600482015260248101839052604401610c6e565b604051630748d63560e31b81526001600160a01b038481166004830152602482018490526000917f000000000000000000000000000000000000000000000000000000000000000090911690633a46b1a890604401602060405180830381865afa15801561288f573d6000803e3d6000fd5b505050506040513d601f19601f820116820180604052508101906119549190614bd2565b80546000908015611a75576128cd836126f8600184614d45565b54600160201b90046001600160e01b0316611957565b600954604080516001600160a01b03928316815291831660208301527f08f74ea46ef7894f65eabfb5e6e695de773a000b47c529ab559178069b226401910160405180910390a1600980546001600160a01b0319166001600160a01b0392909216919091179055565b606061195783836136cb6136e4565b805160208201206000612979878761297388886129fb565b85611be0565b60008181526007602052604090206008810154919250906129f15787516129a690829060208b0190613dfa565b5086516129bc90600183019060208a0190613e5b565b5085516129d29060028301906020890190613e96565b5084516129e89060038301906020880190613ee8565b50600881018390555b5050505050505050565b6060600082516001600160401b03811115612a1857612a1861407e565b604051908082528060200260200182016040528015612a4b57816020015b6060815260200190600190039081612a365790505b50905060005b8151811015612b5d57848181518110612a6c57612a6c614d58565b602002602001015151600014612b1d57848181518110612a8e57612a8e614d58565b60209081029190910101516040805160048152602481019182905291612ab391614ede565b60405180910390206001600160e01b0319166020820180516001600160e01b038381831617835250505050848281518110612af057612af0614d58565b6020026020010151604051602001612b09929190614efa565b604051602081830303815290604052612b38565b838181518110612b2f57612b2f614d58565b60200260200101515b828281518110612b4a57612b4a614d58565b6020908102919091010152600101612a51565b509392505050565b600063288ace0360e11b63278d2b9d60e21b630b184e8960e01b63952ce0fd60e01b6001600160e01b03198616821480612bab57506001600160e01b0319868116908216145b80612bc257506001600160e01b0319868116908516145b80612bdd57506001600160e01b03198616630271189760e51b145b8061178e57506301ffc9a760e01b6001600160e01b03198716149695505050505050565b60006001600160e01b03821115612672576040516306dfcc6560e41b815260e0600482015260248101839052604401610c6e565b600080612c438585856136fd565b915091505b935093915050565b8154600160801b90819004600f0b6000818152600180860160205260409091209390935583546001600160801b03908116939091011602179055565b6009546001600160a01b031663e38335e53486868660003060601b6bffffffffffffffffffffffff191688186040518763ffffffff1660e01b8152600401612cd8959493929190614beb565b6000604051808303818588803b158015612cf157600080fd5b505af1158015612d05573d6000803e3d6000fd5b50505060009687525050600a602052505060408320929092555050565b6000818152600460209081526040808320815160a08101835290546001600160a01b038116825265ffffffffffff600160a01b8204169382019390935263ffffffff600160d01b8404169181019190915260ff600160f01b830481161580156060840152600160f81b909304161515608082015290612da45750600792915050565b806080015115612db75750600292915050565b6000612dc284611109565b905080600003612de857604051636ad0607560e01b815260048101859052602401610c6e565b6000612df26118be565b65ffffffffffff169050808210612e0e57506000949350505050565b6000612e1986611ac2565b9050818110612e2e5750600195945050505050565b612e378661386d565b8015612e59575060008681526007602052604090206005810154600490910154115b15612e6a5750600495945050505050565b50600395945050505050565b60006113ff85858585613895565b6000306001600160a01b037f000000000000000000000000000000000000000000000000000000000000000016148015612edd57507f000000000000000000000000000000000000000000000000000000000000000046145b15612f0757507f000000000000000000000000000000000000000000000000000000000000000090565b610b63604080517f8b73c3c69bb8fe3d512ecc4cf759cc79239f7b179b0ffacaa9a75d522b39400f60208201527f0000000000000000000000000000000000000000000000000000000000000000918101919091527f000000000000000000000000000000000000000000000000000000000000000060608201524660808201523060a082015260009060c00160405160208183030381529060405280519060200120905090565b60008060008351604103612fe95760208401516040850151606086015160001a612fdb88828585613934565b955095509550505050612ff5565b50508151600091506002905b9250925092565b6000806000856001600160a01b0316858560405160240161301e929190614f29565b60408051601f198184030181529181526020820180516001600160e01b0316630b135d3f60e11b179052516130539190614ede565b600060405180830381855afa9150503d806000811461308e576040519150601f19603f3d011682016040523d82523d6000602084013e613093565b606091505b50915091508180156130a757506020815110155b801561178e57508051630b135d3f60e11b906130cc9083016020908101908401614bd2565b149695505050505050565b60008581526007602081815260408084206001600160a01b0389168552928301909152909120805460ff161561312b576040516371c6af4960e01b81526001600160a01b0387166004820152602401610c6e565b805460ff86166101000261ffff1990911617600117815561314b84613a03565b81546001600160601b039190911662010000026dffffffffffffffffffffffff00001990911617815560ff851661319b57838260050160008282546131909190614ca7565b90915550611bd79050565b60001960ff8616016131bb57838260040160008282546131909190614ca7565b60011960ff8616016131db57838260060160008282546131909190614ca7565b6040516303599be160e11b815260040160405180910390fd5b60008160000361320657506000919050565b6000600161321384613a37565b901c6001901b9050600181848161322c5761322c614e16565b048201901c9050600181848161324457613244614e16565b048201901c9050600181848161325c5761325c614e16565b048201901c9050600181848161327457613274614e16565b048201901c9050600181848161328c5761328c614e16565b048201901c905060018184816132a4576132a4614e16565b048201901c905060018184816132bc576132bc614e16565b048201901c9050611957818285816132d6576132d6614e16565b04613acb565b60005b81831015612b5d5760006132f38484613ae1565b60008781526020902090915063ffffffff86169082015463ffffffff16111561331e5780925061332c565b613329816001614ca7565b93505b506132df565b60003361333f8184613afc565b61338b5760405162461bcd60e51b815260206004820152601d60248201527f476f7665726e6f723a2070726f706f73657220726573747269637465640000006044820152606401610c6e565b60006133956118be565b65ffffffffffff16905060006133b083610ac3600185614d45565b90505060006133c88888888880519060200120611be0565b9050865188511415806133dd57508551885114155b806133e757508751155b1561341c57875186518851604051630447b05d60e41b8152600481019390935260248301919091526044820152606401610c6e565b600081815260046020526040902054600160a01b900465ffffffffffff16156134675780613449826113bb565b6040516331b75e4d60e01b8152610c6e929190600090600401614bb0565b6000613475611c2084614ca7565b9050600061c4e090506040518060a00160405280866001600160a01b031681526020016134a1846127ea565b65ffffffffffff1681526020016134b783612641565b63ffffffff9081168252600060208084018290526040938401829052878252600481529083902084518154928601519486015160608701516080909701511515600160f81b026001600160f81b03971515600160f01b0260ff60f01b1992909616600160d01b029190911664ffffffffff60d01b1965ffffffffffff909716600160a01b026001600160d01b03199095166001600160a01b0390931692909217939093179490941693909317919091179290921691909117905589517f7d84a6263ae0d98d3329bd7b46bb4e8d6f98cd35a7adb45c274c8b7fd5ebd5e090849087908d908d906001600160401b038111156135b4576135b461407e565b6040519080825280602002602001820160405280156135e757816020015b60608152602001906001900390816135d25790505b508d886135f48982614ca7565b8f60405161360a99989796959493929190614f42565b60405180910390a1509098975050505050505050565b606060ff831461363a5761363383613be7565b9050610c2e565b81805461364690614b76565b80601f016020809104026020016040519081016040528092919081815260200182805461367290614b76565b80156136bf5780601f10613694576101008083540402835291602001916136bf565b820191906000526020600020905b8154815290600101906020018083116136a257829003601f168201915b50505050509050610c2e565b604051630a12f52160e11b815260040160405180910390fd5b606083156136f3575081611957565b6119578383613c26565b82546000908190801561381457600061371b876126f8600185614d45565b60408051808201909152905463ffffffff808216808452600160201b9092046001600160e01b03166020840152919250908716101561376d57604051632520601d60e01b815260040160405180910390fd5b805163ffffffff8088169116036137b5578461378e886126f8600186614d45565b80546001600160e01b0392909216600160201b0263ffffffff909216919091179055613804565b6040805180820190915263ffffffff80881682526001600160e01b0380881660208085019182528b54600181018d5560008d81529190912094519151909216600160201b029216919091179101555b602001519250839150612c489050565b50506040805180820190915263ffffffff80851682526001600160e01b0380851660208085019182528854600181018a5560008a815291822095519251909316600160201b029190931617920191909155905081612c48565b6000818152600760205260408120600481015461388c610b0385611109565b11159392505050565b6000806138a486868686613c42565b6000818152600a602052604090205490915080156110ff5760095460405163c4d252f560e01b8152600481018390526001600160a01b039091169063c4d252f590602401600060405180830381600087803b15801561390257600080fd5b505af1158015613916573d6000803e3d6000fd5b5050506000838152600a602052604081205550509050949350505050565b600080807f7fffffffffffffffffffffffffffffff5d576e7357a4501ddfe92f46681b20a084111561396f57506000915060039050826139f9565b604080516000808252602082018084528a905260ff891692820192909252606081018790526080810186905260019060a0016020604051602081039080840390855afa1580156139c3573d6000803e3d6000fd5b5050604051601f1901519150506001600160a01b0381166139ef575060009250600191508290506139f9565b9250600091508190505b9450945094915050565b60006001600160601b03821115612672576040516306dfcc6560e41b81526060600482015260248101839052604401610c6e565b600080608083901c15613a4c57608092831c92015b604083901c15613a5e57604092831c92015b602083901c15613a7057602092831c92015b601083901c15613a8257601092831c92015b600883901c15613a9457600892831c92015b600483901c15613aa657600492831c92015b600283901c15613ab857600292831c92015b600183901c15610c2e5760010192915050565b6000818310613ada5781611957565b5090919050565b6000613af06002848418614e2c565b61195790848416614ca7565b80516000906034811015613b14576001915050610c2e565b82810160131901516001600160a01b031981166b046e0e4dee0dee6cae47a60f60a31b14613b4757600192505050610c2e565b600080613b55602885614d45565b90505b83811015613bc657600080613b8c888481518110613b7857613b78614d58565b01602001516001600160f81b031916613d40565b9150915081613ba45760019650505050505050610c2e565b8060ff166004856001600160a01b0316901b1793505050806001019050613b58565b50856001600160a01b0316816001600160a01b031614935050505092915050565b60606000613bf483613dd2565b604080516020808252818301909252919250600091906020820181803683375050509182525060208101929092525090565b815115613c365781518083602001fd5b6136cb8163ffffffff16565b600080613c5186868686611be0565b90506000613c5e826113bb565b90506000613c6c6007611f0c565b613c766006611f0c565b613c806002611f0c565b17179050613c8d82611f0c565b811615613cd9578282826001613ca4600782614fd8565b613caf9060026150d0565b613cb99190614d45565b60001b186040516331b75e4d60e01b8152600401610c6e93929190614bb0565b6000838152600460205260409081902080546001600160f81b0316600160f81b179055517f789cf55be980739dad1d0699b93b58e806b51c9d96619bfa8fe0a28abaa7b30c90613d2c9085815260200190565b60405180910390a150909695505050505050565b60008060f883901c602f81118015613d5b5750603a8160ff16105b15613d7057600194602f199091019350915050565b8060ff166040108015613d86575060478160ff16105b15613d9b576001946036199091019350915050565b8060ff166060108015613db1575060678160ff16105b15613dc6576001946056199091019350915050565b50600093849350915050565b600060ff8216601f811115610c2e57604051632cd44ac360e21b815260040160405180910390fd5b828054828255906000526020600020908101928215613e4f579160200282015b82811115613e4f57825182546001600160a01b0319166001600160a01b03909116178255602090920191600190910190613e1a565b50612672929150613f3a565b828054828255906000526020600020908101928215613e4f579160200282015b82811115613e4f578251825591602001919060010190613e7b565b828054828255906000526020600020908101928215613edc579160200282015b82811115613edc5782518290613ecc908261512b565b5091602001919060010190613eb6565b50612672929150613f4f565b828054828255906000526020600020908101928215613f2e579160200282015b82811115613f2e5782518290613f1e908261512b565b5091602001919060010190613f08565b50612672929150613f6c565b5b808211156126725760008155600101613f3b565b80821115612672576000613f638282613f89565b50600101613f4f565b80821115612672576000613f808282613f89565b50600101613f6c565b508054613f9590614b76565b6000825580601f10613fa5575050565b601f016020900490600052602060002090810190610cc69190613f3a565b600060208284031215613fd557600080fd5b5035919050565b600060208284031215613fee57600080fd5b81356001600160e01b03198116811461195757600080fd5b60005b83811015614021578181015183820152602001614009565b50506000910152565b60008151808452614042816020860160208601614006565b601f01601f19169290920160200192915050565b602081526000611957602083018461402a565b6001600160a01b0381168114610cc657600080fd5b634e487b7160e01b600052604160045260246000fd5b604051601f8201601f191681016001600160401b03811182821017156140bc576140bc61407e565b604052919050565b60006001600160401b038211156140dd576140dd61407e565b50601f01601f191660200190565b600082601f8301126140fc57600080fd5b8135602083016000614115614110846140c4565b614094565b905082815285838301111561412957600080fd5b82826020830137600092810160200192909252509392505050565b6000806000806080858703121561415a57600080fd5b843561416581614069565b9350602085013561417581614069565b92506040850135915060608501356001600160401b0381111561419757600080fd5b6141a3878288016140eb565b91505092959194509250565b60006001600160401b038211156141c8576141c861407e565b5060051b60200190565b600082601f8301126141e357600080fd5b81356141f1614110826141af565b8082825260208201915060208360051b86010192508583111561421357600080fd5b602085015b838110156110ff57803561422b81614069565b835260209283019201614218565b600082601f83011261424a57600080fd5b8135614258614110826141af565b8082825260208201915060208360051b86010192508583111561427a57600080fd5b602085015b838110156110ff57803583526020928301920161427f565b600082601f8301126142a857600080fd5b81356142b6614110826141af565b8082825260208201915060208360051b8601019250858311156142d857600080fd5b602085015b838110156110ff5780356001600160401b038111156142fb57600080fd5b61430a886020838a01016140eb565b845250602092830192016142dd565b6000806000806080858703121561432f57600080fd5b84356001600160401b0381111561434557600080fd5b614351878288016141d2565b94505060208501356001600160401b0381111561436d57600080fd5b61437987828801614239565b93505060408501356001600160401b0381111561439557600080fd5b6143a187828801614297565b949793965093946060013593505050565b600081518084526020840193506020830160005b828110156143ed5781516001600160a01b03168652602095860195909101906001016143c6565b5093949350505050565b600081518084526020840193506020830160005b828110156143ed57815186526020958601959091019060010161440b565b600082825180855260208501945060208160051b8301016020850160005b8381101561447957601f1985840301885261446383835161402a565b6020988901989093509190910190600101614447565b50909695505050505050565b60808152600061449860808301876143b2565b82810360208401526144aa81876143f7565b905082810360408401526144be8186614429565b9050828103606084015261169c8185614429565b634e487b7160e01b600052602160045260246000fd5b6008811061450657634e487b7160e01b600052602160045260246000fd5b9052565b60208101610c2e82846144e8565b6000806040838503121561452b57600080fd5b82359150602083013561453d81614069565b809150509250929050565b803560ff811681146114c557600080fd5b6000806040838503121561456c57600080fd5b8235915061457c60208401614548565b90509250929050565b60008083601f84011261459757600080fd5b5081356001600160401b038111156145ae57600080fd5b6020830191508360208285010111156145c657600080fd5b9250929050565b600080600080600080600060c0888a0312156145e857600080fd5b873596506145f860208901614548565b9550604088013561460881614069565b945060608801356001600160401b0381111561462357600080fd5b61462f8a828b01614585565b90955093505060808801356001600160401b0381111561464e57600080fd5b61465a8a828b016140eb565b92505060a08801356001600160401b0381111561467657600080fd5b6146828a828b016140eb565b91505092959891949750929550565b6000806000806000608086880312156146a957600080fd5b853594506146b960208701614548565b935060408601356001600160401b038111156146d457600080fd5b6146e088828901614585565b90945092505060608601356001600160401b038111156146ff57600080fd5b61470b888289016140eb565b9150509295509295909350565b6000806000806060858703121561472e57600080fd5b8435935061473e60208601614548565b925060408501356001600160401b0381111561475957600080fd5b61476587828801614585565b95989497509550505050565b6000806000806080858703121561478757600080fd5b84356001600160401b0381111561479d57600080fd5b6147a9878288016141d2565b94505060208501356001600160401b038111156147c557600080fd5b6147d187828801614239565b93505060408501356001600160401b038111156147ed57600080fd5b6147f987828801614297565b92505060608501356001600160401b0381111561419757600080fd5b60006020828403121561482757600080fd5b813561195781614069565b60ff60f81b8816815260e06020820152600061485160e083018961402a565b8281036040840152614863818961402a565b606084018890526001600160a01b038716608085015260a0840186905283810360c0850152905061489481856143f7565b9a9950505050505050505050565b600080600080608085870312156148b857600080fd5b843593506148c860208601614548565b925060408501356148d881614069565b915060608501356001600160401b0381111561419757600080fd5b60008060006060848603121561490857600080fd5b833561491381614069565b92506020840135915060408401356001600160401b0381111561493557600080fd5b614941868287016140eb565b9150509250925092565b600080600080600060a0868803121561496357600080fd5b853561496e81614069565b9450602086013561497e81614069565b935060408601356001600160401b0381111561499957600080fd5b6149a588828901614239565b93505060608601356001600160401b038111156149c157600080fd5b6149cd88828901614239565b92505060808601356001600160401b038111156146ff57600080fd5b600080600080606085870312156149ff57600080fd5b8435614a0a81614069565b93506020850135925060408501356001600160401b0381111561475957600080fd5b600080600080600060a08688031215614a4457600080fd5b85356001600160401b03811115614a5a57600080fd5b614a66888289016141d2565b95505060208601356001600160401b03811115614a8257600080fd5b614a8e88828901614239565b94505060408601356001600160401b03811115614aaa57600080fd5b614ab688828901614297565b93505060608601356001600160401b03811115614ad257600080fd5b6149cd88828901614297565b60008060408385031215614af157600080fd5b8235614afc81614069565b946020939093013593505050565b600080600080600060a08688031215614b2257600080fd5b8535614b2d81614069565b94506020860135614b3d81614069565b9350604086013592506060860135915060808601356001600160401b038111156146ff57600080fd5b8183823760009101908152919050565b600181811c90821680614b8a57607f821691505b602082108103614baa57634e487b7160e01b600052602260045260246000fd5b50919050565b83815260608101614bc460208301856144e8565b826040830152949350505050565b600060208284031215614be457600080fd5b5051919050565b60a081526000614bfe60a08301886143b2565b8281036020840152614c1081886143f7565b90508281036040840152614c248187614429565b60608401959095525050608001529392505050565b60c081526000614c4c60c08301896143b2565b8281036020840152614c5e81896143f7565b90508281036040840152614c728188614429565b60608401969096525050608081019290925260a0909101529392505050565b634e487b7160e01b600052601160045260246000fd5b80820180821115610c2e57610c2e614c91565b65ffffffffffff8281168282160390811115610c2e57610c2e614c91565b600060208284031215614cea57600080fd5b81516001600160401b03811115614d0057600080fd5b8201601f81018413614d1157600080fd5b8051614d1f614110826140c4565b818152856020838501011115614d3457600080fd5b6113ff826020830160208601614006565b81810381811115610c2e57610c2e614c91565b634e487b7160e01b600052603260045260246000fd5b600060208284031215614d8057600080fd5b815165ffffffffffff8116811461195757600080fd5b65ffffffffffff8181168382160190811115610c2e57610c2e614c91565b608081526000614dc760808301876143b2565b8281036020840152614dd981876143f7565b90508281036040840152614ded8186614429565b91505082606083015295945050505050565b8082028115828204841417610c2e57610c2e614c91565b634e487b7160e01b600052601260045260246000fd5b600082614e4957634e487b7160e01b600052601260045260246000fd5b500490565b600060208284031215614e6057600080fd5b8151801515811461195757600080fd5b84815260ff8416602082015282604082015260806060820152600061178e608083018461402a565b85815260ff8516602082015283604082015260a060608201526000614ec060a083018561402a565b8281036080840152614ed2818561402a565b98975050505050505050565b60008251614ef0818460208701614006565b9190910192915050565b60008351614f0c818460208801614006565b835190830190614f20818360208801614006565b01949350505050565b828152604060208201526000611954604083018461402a565b8981526001600160a01b038916602082015261012060408201819052600090614f6d9083018a6143b2565b8281036060840152614f7f818a6143f7565b90508281036080840152614f938189614429565b905082810360a0840152614fa78188614429565b90508560c08401528460e0840152828103610100840152614fc8818561402a565b9c9b505050505050505050505050565b60ff8181168382160190811115610c2e57610c2e614c91565b6001815b6001841115612c485780850481111561501057615010614c91565b600184161561501e57908102905b60019390931c928002614ff5565b60008261503b57506001610c2e565b8161504857506000610c2e565b816001811461505e576002811461506857615084565b6001915050610c2e565b60ff84111561507957615079614c91565b50506001821b610c2e565b5060208310610133831016604e8410600b84101617156150a7575081810a610c2e565b6150b46000198484614ff1565b80600019048211156150c8576150c8614c91565b029392505050565b600061195760ff84168361502c565b601f82111561512657806000526020600020601f840160051c810160208510156151065750805b601f840160051c820191505b81811015611fc05760008155600101615112565b505050565b81516001600160401b038111156151445761514461407e565b615158816151528454614b76565b846150df565b6020601f82116001811461518c57600083156151745750848201515b600019600385901b1c1916600184901b178455611fc0565b600084815260208120601f198516915b828110156151bc578785015182556020948501946001909201910161519c565b50848210156151da5786840151600019600387901b60f8161c191681555b50505050600190811b0190555056fea26469706673582212209419cf277fc2c5a94d3d676b2163427c39ad58dcc96c2b9e6cf054a96000097364736f6c634300081b0033","linkReferences":{}},"methodIdentifiers":{"BALLOT_TYPEHASH()":"deaaa7cc","CLOCK_MODE()":"4bf5d7e9","COUNTING_MODE()":"dd4e2ba5","EXTENDED_BALLOT_TYPEHASH()":"2fe3e261","cancel(address[],uint256[],bytes[],bytes32)":"452115d6","cancel(uint256)":"40e58ee5","castVote(uint256,uint8)":"56781388","castVoteBySig(uint256,uint8,address,bytes)":"8ff262e3","castVoteWithReason(uint256,uint8,string)":"7b3c71d3","castVoteWithReasonAndParams(uint256,uint8,string,bytes)":"5f398a14","castVoteWithReasonAndParamsBySig(uint256,uint8,address,string,bytes,bytes)":"5b8d0e0d","clock()":"91ddadf4","eip712Domain()":"84b0196e","execute(address[],uint256[],bytes[],bytes32)":"2656227d","execute(uint256)":"fe0d94c1","getActions(uint256)":"328dd982","getReceipt(uint256,address)":"e23a9a52","getVotes(address,uint256)":"eb9019d4","getVotesWithParams(address,uint256,bytes)":"9a802a6d","hasVoted(uint256,address)":"43859632","hashProposal(address[],uint256[],bytes[],bytes32)":"c59057e4","name()":"06fdde03","nonces(address)":"7ecebe00","onERC1155BatchReceived(address,address,uint256[],uint256[],bytes)":"bc197c81","onERC1155Received(address,address,uint256,uint256,bytes)":"f23a6e61","onERC721Received(address,address,uint256,bytes)":"150b7a02","proposalDeadline(uint256)":"c01f9e37","proposalEta(uint256)":"ab58fb8e","proposalProposer(uint256)":"143489d0","proposalSnapshot(uint256)":"2d63f693","proposalThreshold()":"b58131b0","proposals(uint256)":"013cf08b","propose(address[],uint256[],bytes[],string)":"7d5e81e2","propose(address[],uint256[],string[],bytes[],string)":"da95691a","queue(address[],uint256[],bytes[],bytes32)":"160cbed7","queue(uint256)":"ddf0b009","quorum(uint256)":"f8ce560a","quorumDenominator()":"97c3d334","quorumNumerator()":"a7713a70","quorumNumerator(uint256)":"60c4247f","quorumVotes()":"24bc1a64","relay(address,uint256,bytes)":"c28bc2fa","state(uint256)":"3e4f49e6","supportsInterface(bytes4)":"01ffc9a7","timelock()":"d33219b4","token()":"fc0c546a","updateQuorumNumerator(uint256)":"06f3f9e6","updateTimelock(address)":"a890c910","version()":"54fd4d50","votingDelay()":"3932abb1","votingPeriod()":"02a251a3"},"id":89}