{
  "_format": "hh-sol-artifact-1",
  "contractName": "$ERC3156FlashBorrowerMock",
  "sourceName": "contracts-exposed/mocks/ERC3156FlashBorrowerMock.sol",
  "abi": [
    {
      "inputs": [
        {
          "internalType": "bool",
          "name": "enableReturn",
          "type": "bool"
        },
        {
          "internalType": "bool",
          "name": "enableApprove",
          "type": "bool"
        }
      ],
      "stateMutability": "payable",
      "type": "constructor"
    },
    {
      "inputs": [
        {
          "internalType": "address",
          "name": "target",
          "type": "address"
        }
      ],
      "name": "AddressEmptyCode",
      "type": "error"
    },
    {
      "inputs": [
        {
          "internalType": "address",
          "name": "account",
          "type": "address"
        }
      ],
      "name": "AddressInsufficientBalance",
      "type": "error"
    },
    {
      "inputs": [],
      "name": "FailedInnerCall",
      "type": "error"
    },
    {
      "anonymous": false,
      "inputs": [
        {
          "indexed": false,
          "internalType": "address",
          "name": "token",
          "type": "address"
        },
        {
          "indexed": false,
          "internalType": "address",
          "name": "account",
          "type": "address"
        },
        {
          "indexed": false,
          "internalType": "uint256",
          "name": "value",
          "type": "uint256"
        }
      ],
      "name": "BalanceOf",
      "type": "event"
    },
    {
      "anonymous": false,
      "inputs": [
        {
          "indexed": false,
          "internalType": "address",
          "name": "token",
          "type": "address"
        },
        {
          "indexed": false,
          "internalType": "uint256",
          "name": "value",
          "type": "uint256"
        }
      ],
      "name": "TotalSupply",
      "type": "event"
    },
    {
      "inputs": [],
      "name": "$_RETURN_VALUE",
      "outputs": [
        {
          "internalType": "bytes32",
          "name": "",
          "type": "bytes32"
        }
      ],
      "stateMutability": "pure",
      "type": "function"
    },
    {
      "inputs": [],
      "name": "$_enableApprove",
      "outputs": [
        {
          "internalType": "bool",
          "name": "",
          "type": "bool"
        }
      ],
      "stateMutability": "view",
      "type": "function"
    },
    {
      "inputs": [],
      "name": "$_enableReturn",
      "outputs": [
        {
          "internalType": "bool",
          "name": "",
          "type": "bool"
        }
      ],
      "stateMutability": "view",
      "type": "function"
    },
    {
      "inputs": [],
      "name": "__hh_exposed_bytecode_marker",
      "outputs": [
        {
          "internalType": "bytes32",
          "name": "",
          "type": "bytes32"
        }
      ],
      "stateMutability": "view",
      "type": "function"
    },
    {
      "inputs": [
        {
          "internalType": "address",
          "name": "",
          "type": "address"
        },
        {
          "internalType": "address",
          "name": "token",
          "type": "address"
        },
        {
          "internalType": "uint256",
          "name": "amount",
          "type": "uint256"
        },
        {
          "internalType": "uint256",
          "name": "fee",
          "type": "uint256"
        },
        {
          "internalType": "bytes",
          "name": "data",
          "type": "bytes"
        }
      ],
      "name": "onFlashLoan",
      "outputs": [
        {
          "internalType": "bytes32",
          "name": "",
          "type": "bytes32"
        }
      ],
      "stateMutability": "nonpayable",
      "type": "function"
    },
    {
      "stateMutability": "payable",
      "type": "receive"
    }
  ],
  "bytecode": "0x60c060405260405161076438038061076483398101604081905261002291610045565b1515608052151560a052610076565b80518015158114610040575f80fd5b919050565b5f8060408385031215610056575f80fd5b61005f83610031565b915061006d60208401610031565b90509250929050565b60805160a0516106c06100a45f395f818161012801526103b201525f818160ea015261030401526106c05ff3fe60806040526004361061004c575f3560e01c806304750bd01461005757806323e30c8b14610098578063342db739146100b75780633f131f93146100dc578063ad1f92341461011a575f80fd5b3661005357005b5f80fd5b348015610062575f80fd5b507f439148f0bbc682ca079e46d6e2c2f0c1e3b820f1a291b069d8882abf8cf18dd95b6040519081526020015b60405180910390f35b3480156100a3575f80fd5b506100856100b2366004610564565b61014c565b3480156100c2575f80fd5b506100856e1a185c991a185d0b595e1c1bdcd959608a1b81565b3480156100e7575f80fd5b507f00000000000000000000000000000000000000000000000000000000000000005b604051901515815260200161008f565b348015610125575f80fd5b507f000000000000000000000000000000000000000000000000000000000000000061010a565b5f336001600160a01b03871614610161575f80fd5b6040516370a0823160e01b815230600482018190527f6ff2acfcb07917b1e80e53f0fe390b467b1151d15b38730a6e08397799c05a8b918891906001600160a01b038316906370a0823190602401602060405180830381865afa1580156101ca573d5f803e3d5ffd5b505050506040513d601f19601f820116820180604052508101906101ee9190610602565b604080516001600160a01b0394851681529390921660208401529082015260600160405180910390a17f7249fd4c03cce09b30a13d77804b198e2647c0ccd59eadf4de4e7c16099badc586876001600160a01b03166318160ddd6040518163ffffffff1660e01b8152600401602060405180830381865afa158015610275573d5f803e3d5ffd5b505050506040513d601f19601f820116820180604052508101906102999190610602565b604080516001600160a01b03909316835260208301919091520160405180910390a18115610302576103008684848080601f0160208091040260200160405190810160405280939291908181526020018383808284375f9201919091525061040892505050565b505b7f0000000000000000000000000000000000000000000000000000000000000000156103b0576001600160a01b03861663095ea7b3876103428789610619565b6040516001600160e01b031960e085901b1681526001600160a01b03909216600483015260248201526044016020604051808303815f875af115801561038a573d5f803e3d5ffd5b505050506040513d601f19601f820116820180604052508101906103ae9190610638565b505b7f00000000000000000000000000000000000000000000000000000000000000006103db575f6103fd565b7f439148f0bbc682ca079e46d6e2c2f0c1e3b820f1a291b069d8882abf8cf18dd95b979650505050505050565b606061041883835f61042161043a565b90505b92915050565b604051630a12f52160e11b815260040160405180910390fd5b6060824710156104645760405163cd78605960e01b81523060048201526024015b60405180910390fd5b5f80866001600160a01b0316858760405161047f919061065e565b5f6040518083038185875af1925050503d805f81146104b9576040519150601f19603f3d011682016040523d82523d5f602084013e6104be565b606091505b50915091506104cf878383876104dc565b925050505b949350505050565b606083156105285782515f0361052157846001600160a01b03163b5f0361052157604051639996b31560e01b81526001600160a01b038616600482015260240161045b565b50816104d4565b6104d4838381511561053d5781518083602001fd5b6104218163ffffffff16565b80356001600160a01b038116811461055f575f80fd5b919050565b5f805f805f8060a08789031215610579575f80fd5b61058287610549565b955061059060208801610549565b94506040870135935060608701359250608087013567ffffffffffffffff808211156105ba575f80fd5b818901915089601f8301126105cd575f80fd5b8135818111156105db575f80fd5b8a60208285010111156105ec575f80fd5b6020830194508093505050509295509295509295565b5f60208284031215610612575f80fd5b5051919050565b8082018082111561041b57634e487b7160e01b5f52601160045260245ffd5b5f60208284031215610648575f80fd5b81518015158114610657575f80fd5b9392505050565b5f82515f5b8181101561067d5760208186018101518583015201610663565b505f92019182525091905056fea2646970667358221220095f3b32f4860fd53817ae3dff26c56e71334918223bc2eabb6e55e54835625c64736f6c63430008140033",
  "linkReferences": {},
  "deployedLinkReferences": {}
}