{"abi":[{"type":"function","name":"child","inputs":[],"outputs":[{"name":"","type":"uint256","internalType":"uint256"}],"stateMutability":"view"},{"type":"function","name":"father","inputs":[],"outputs":[{"name":"","type":"uint256","internalType":"uint256"}],"stateMutability":"view"},{"type":"function","name":"gramps","inputs":[],"outputs":[{"name":"","type":"string","internalType":"string"}],"stateMutability":"view"},{"type":"function","name":"initialize","inputs":[{"name":"_mother","type":"uint256","internalType":"uint256"},{"name":"_gramps","type":"string","internalType":"string"},{"name":"_father","type":"uint256","internalType":"uint256"},{"name":"_child","type":"uint256","internalType":"uint256"}],"outputs":[],"stateMutability":"nonpayable"},{"type":"function","name":"initialize","inputs":[],"outputs":[],"stateMutability":"nonpayable"},{"type":"function","name":"initialize","inputs":[{"name":"_gramps","type":"string","internalType":"string"},{"name":"_father","type":"uint256","internalType":"uint256"}],"outputs":[],"stateMutability":"nonpayable"},{"type":"function","name":"initialize","inputs":[{"name":"value","type":"string","internalType":"string"}],"outputs":[],"stateMutability":"nonpayable"},{"type":"function","name":"initialize","inputs":[{"name":"value","type":"uint256","internalType":"uint256"}],"outputs":[],"stateMutability":"nonpayable"},{"type":"function","name":"isHuman","inputs":[],"outputs":[{"name":"","type":"bool","internalType":"bool"}],"stateMutability":"view"},{"type":"function","name":"mother","inputs":[],"outputs":[{"name":"","type":"uint256","internalType":"uint256"}],"stateMutability":"view"},{"type":"event","name":"Initialized","inputs":[{"name":"version","type":"uint8","indexed":false,"internalType":"uint8"}],"anonymous":false},{"type":"error","name":"AlreadyInitialized","inputs":[]},{"type":"error","name":"NotInitializing","inputs":[]}],"bytecode":{"object":"0x6080604052348015600f57600080fd5b50610b0f8061001f6000396000f3fe608060405234801561001057600080fd5b506004361061009e5760003560e01c80638beaf7d7116100665780638beaf7d714610108578063ed7dfee31461011b578063f62d188814610124578063fa39851f14610137578063fe4b84df1461014c57600080fd5b80631c8aca3b146100a3578063237b5e96146100bf5780634a6c9db6146100c85780636f2edbd2146100eb5780638129fc1c14610100575b600080fd5b6100ac60035481565b6040519081526020015b60405180910390f35b6100ac60045481565b6000546100db9062010000900460ff1681565b60405190151581526020016100b6565b6100fe6100f9366004610839565b61015f565b005b6100fe610224565b6100fe610116366004610890565b6102e1565b6100ac60015481565b6100fe6101323660046108d5565b6103a2565b61013f610461565b6040516100b69190610912565b6100fe61015a366004610960565b6104ef565b600054610100900460ff161580801561017f5750600054600160ff909116105b15801561019d5750303b15801561019b575060005460ff166001145b155b156101ba5760405162dc149f60e41b815260040160405180910390fd5b6000805460ff1916600117905580156101dd576000805461ff0019166101001790555b6101e985858585610576565b801561021d576000805461ff001916905560405160018152600080516020610aba8339815191529060200160405180910390a15b5050505050565b600054610100900460ff16158080156102445750600054600160ff909116105b1580156102625750303b158015610260575060005460ff166001145b155b1561027f5760405162dc149f60e41b815260040160405180910390fd5b6000805460ff1916600117905580156102a2576000805461ff0019166101001790555b6102aa6105c0565b80156102de576000805461ff001916905560405160018152600080516020610aba8339815191529060200160405180910390a15b50565b600054610100900460ff16158080156103015750600054600160ff909116105b15801561031f5750303b15801561031d575060005460ff166001145b155b1561033c5760405162dc149f60e41b815260040160405180910390fd5b6000805460ff19166001179055801561035f576000805461ff0019166101001790555b61036983836105f2565b801561039d576000805461ff001916905560405160018152600080516020610aba8339815191529060200160405180910390a15b505050565b600054610100900460ff16158080156103c25750600054600160ff909116105b1580156103e05750303b1580156103de575060005460ff166001145b155b156103fd5760405162dc149f60e41b815260040160405180910390fd5b6000805460ff191660011790558015610420576000805461ff0019166101001790555b6104298261062c565b801561045d576000805461ff001916905560405160018152600080516020610aba8339815191529060200160405180910390a15b5050565b6002805461046e90610979565b80601f016020809104026020016040519081016040528092919081815260200182805461049a90610979565b80156104e75780601f106104bc576101008083540402835291602001916104e7565b820191906000526020600020905b8154815290600101906020018083116104ca57829003601f168201915b505050505081565b600054610100900460ff161580801561050f5750600054600160ff909116105b15801561052d5750303b15801561052b575060005460ff166001145b155b1561054a5760405162dc149f60e41b815260040160405180910390fd5b6000805460ff19166001179055801561056d576000805461ff0019166101001790555b61042982610665565b600054610100900460ff1661059e57604051631afcd79f60e31b815260040160405180910390fd5b6105a784610665565b6105b183836105f2565b6105ba8161069e565b50505050565b600054610100900460ff166105e857604051631afcd79f60e31b815260040160405180910390fd5b6105f06106cb565b565b600054610100900460ff1661061a57604051631afcd79f60e31b815260040160405180910390fd5b6106238261062c565b61045d81610706565b600054610100900460ff1661065457604051631afcd79f60e31b815260040160405180910390fd5b61065c6105c0565b6102de81610733565b600054610100900460ff1661068d57604051631afcd79f60e31b815260040160405180910390fd5b6106956105c0565b6102de81610767565b600054610100900460ff166106c657604051631afcd79f60e31b815260040160405180910390fd5b600455565b600054610100900460ff166106f357604051631afcd79f60e31b815260040160405180910390fd5b6000805462ff0000191662010000179055565b600054610100900460ff1661072e57604051631afcd79f60e31b815260040160405180910390fd5b600355565b600054610100900460ff1661075b57604051631afcd79f60e31b815260040160405180910390fd5b600261045d82826109fa565b600054610100900460ff1661078f57604051631afcd79f60e31b815260040160405180910390fd5b600155565b634e487b7160e01b600052604160045260246000fd5b600082601f8301126107bb57600080fd5b813567ffffffffffffffff8111156107d5576107d5610794565b604051601f8201601f19908116603f0116810167ffffffffffffffff8111828210171561080457610804610794565b60405281815283820160200185101561081c57600080fd5b816020850160208301376000918101602001919091529392505050565b6000806000806080858703121561084f57600080fd5b84359350602085013567ffffffffffffffff81111561086d57600080fd5b610879878288016107aa565b949794965050505060408301359260600135919050565b600080604083850312156108a357600080fd5b823567ffffffffffffffff8111156108ba57600080fd5b6108c6858286016107aa565b95602094909401359450505050565b6000602082840312156108e757600080fd5b813567ffffffffffffffff8111156108fe57600080fd5b61090a848285016107aa565b949350505050565b602081526000825180602084015260005b818110156109405760208186018101516040868401015201610923565b506000604082850101526040601f19601f83011684010191505092915050565b60006020828403121561097257600080fd5b5035919050565b600181811c9082168061098d57607f821691505b6020821081036109ad57634e487b7160e01b600052602260045260246000fd5b50919050565b601f82111561039d57806000526020600020601f840160051c810160208510156109da5750805b601f840160051c820191505b8181101561021d57600081556001016109e6565b815167ffffffffffffffff811115610a1457610a14610794565b610a2881610a228454610979565b846109b3565b6020601f821160018114610a5c5760008315610a445750848201515b600019600385901b1c1916600184901b17845561021d565b600084815260208120601f198516915b82811015610a8c5787850151825560209485019460019092019101610a6c565b5084821015610aaa5786840151600019600387901b60f8161c191681555b50505050600190811b0190555056fe7f26b83ff96e1f2b6a682f133852f6798a09c465da95921460cefb3847402498a2646970667358221220db2107768247c0926a74ac9fe3f8670472aa302e7a3951cf2dec941e221491ab64736f6c634300081b0033","linkReferences":{}},"methodIdentifiers":{"child()":"237b5e96","father()":"1c8aca3b","gramps()":"fa39851f","initialize()":"8129fc1c","initialize(string)":"f62d1888","initialize(string,uint256)":"8beaf7d7","initialize(uint256)":"fe4b84df","initialize(uint256,string,uint256,uint256)":"6f2edbd2","isHuman()":"4a6c9db6","mother()":"ed7dfee3"},"id":77}