{
  "_format": "hh-sol-artifact-1",
  "contractName": "$AddressArraysMock",
  "sourceName": "contracts-exposed/mocks/ArraysMock.sol",
  "abi": [
    {
      "inputs": [
        {
          "internalType": "address[]",
          "name": "array",
          "type": "address[]"
        }
      ],
      "stateMutability": "payable",
      "type": "constructor"
    },
    {
      "inputs": [],
      "name": "__hh_exposed_bytecode_marker",
      "outputs": [
        {
          "internalType": "bytes32",
          "name": "",
          "type": "bytes32"
        }
      ],
      "stateMutability": "view",
      "type": "function"
    },
    {
      "inputs": [
        {
          "internalType": "uint256",
          "name": "pos",
          "type": "uint256"
        }
      ],
      "name": "unsafeAccess",
      "outputs": [
        {
          "internalType": "address",
          "name": "",
          "type": "address"
        }
      ],
      "stateMutability": "view",
      "type": "function"
    },
    {
      "stateMutability": "payable",
      "type": "receive"
    }
  ],
  "bytecode": "0x60806040526040516102c33803806102c3833981016040819052610022916100e4565b80518190610036905f90602084019061003e565b5050506101a3565b828054828255905f5260205f20908101928215610091579160200282015b8281111561009157825182546001600160a01b0319166001600160a01b0390911617825560209092019160019091019061005c565b5061009d9291506100a1565b5090565b5b8082111561009d575f81556001016100a2565b634e487b7160e01b5f52604160045260245ffd5b80516001600160a01b03811681146100df575f80fd5b919050565b5f60208083850312156100f5575f80fd5b82516001600160401b038082111561010b575f80fd5b818501915085601f83011261011e575f80fd5b815181811115610130576101306100b5565b8060051b604051601f19603f83011681018181108582111715610155576101556100b5565b604052918252848201925083810185019188831115610172575f80fd5b938501935b8285101561019757610188856100c9565b84529385019392850192610177565b98975050505050505050565b610113806101b05f395ff3fe6080604052600436106028575f3560e01c8063342db73914603257806340aa934d146068575f80fd5b36602e57005b5f80fd5b348015603c575f80fd5b5060556e1a185c991a185d0b595e1c1bdcd959608a1b81565b6040519081526020015b60405180910390f35b3480156072575f80fd5b5060b0607e36600460c7565b5f80527f290decd9548b62a8d60345a988386fc84ba6bc95484008f6362f93160ef3e56301546001600160a01b031690565b6040516001600160a01b039091168152602001605f565b5f6020828403121560d6575f80fd5b503591905056fea264697066735822122035c2cd80c2e9f65821ea4e7b314dbd02d859535aad7052dc0cf0a65c87b8a02864736f6c63430008140033",
  "linkReferences": {},
  "deployedLinkReferences": {}
}