{
  "_format": "hh-sol-artifact-1",
  "contractName": "$Bytes32ArraysMock",
  "sourceName": "contracts-exposed/mocks/ArraysMock.sol",
  "abi": [
    {
      "inputs": [
        {
          "internalType": "bytes32[]",
          "name": "array",
          "type": "bytes32[]"
        }
      ],
      "stateMutability": "payable",
      "type": "constructor"
    },
    {
      "inputs": [],
      "name": "__hh_exposed_bytecode_marker",
      "outputs": [
        {
          "internalType": "bytes32",
          "name": "",
          "type": "bytes32"
        }
      ],
      "stateMutability": "view",
      "type": "function"
    },
    {
      "inputs": [
        {
          "internalType": "uint256",
          "name": "pos",
          "type": "uint256"
        }
      ],
      "name": "unsafeAccess",
      "outputs": [
        {
          "internalType": "bytes32",
          "name": "",
          "type": "bytes32"
        }
      ],
      "stateMutability": "view",
      "type": "function"
    },
    {
      "stateMutability": "payable",
      "type": "receive"
    }
  ],
  "bytecode": "0x6080604052604051610265380380610265833981016040819052610022916100af565b80518190610036905f90602084019061003e565b505050610167565b828054828255905f5260205f20908101928215610077579160200282015b8281111561007757825182559160200191906001019061005c565b50610083929150610087565b5090565b5b80821115610083575f8155600101610088565b634e487b7160e01b5f52604160045260245ffd5b5f60208083850312156100c0575f80fd5b82516001600160401b03808211156100d6575f80fd5b818501915085601f8301126100e9575f80fd5b8151818111156100fb576100fb61009b565b8060051b604051601f19603f830116810181811085821117156101205761012061009b565b60405291825284820192508381018501918883111561013d575f80fd5b938501935b8285101561015b57845184529385019392850192610142565b98975050505050505050565b60f2806101735f395ff3fe6080604052600436106028575f3560e01c8063342db73914603257806340aa934d146067575f80fd5b36602e57005b5f80fd5b348015603c575f80fd5b5060556e1a185c991a185d0b595e1c1bdcd959608a1b81565b60405190815260200160405180910390f35b3480156071575f80fd5b506055607d36600460a6565b5f80527f290decd9548b62a8d60345a988386fc84ba6bc95484008f6362f93160ef3e563015490565b5f6020828403121560b5575f80fd5b503591905056fea2646970667358221220524238b73d0ebaaabfe79bd10d121741a85865f2eea1f03146f93687d8aa824364736f6c63430008140033",
  "linkReferences": {},
  "deployedLinkReferences": {}
}