{
  "_format": "hh-sol-artifact-1",
  "contractName": "$Uint256ArraysMock",
  "sourceName": "contracts-exposed/mocks/ArraysMock.sol",
  "abi": [
    {
      "inputs": [
        {
          "internalType": "uint256[]",
          "name": "array",
          "type": "uint256[]"
        }
      ],
      "stateMutability": "payable",
      "type": "constructor"
    },
    {
      "inputs": [],
      "name": "__hh_exposed_bytecode_marker",
      "outputs": [
        {
          "internalType": "bytes32",
          "name": "",
          "type": "bytes32"
        }
      ],
      "stateMutability": "view",
      "type": "function"
    },
    {
      "inputs": [
        {
          "internalType": "uint256",
          "name": "element",
          "type": "uint256"
        }
      ],
      "name": "findUpperBound",
      "outputs": [
        {
          "internalType": "uint256",
          "name": "",
          "type": "uint256"
        }
      ],
      "stateMutability": "view",
      "type": "function"
    },
    {
      "inputs": [
        {
          "internalType": "uint256",
          "name": "pos",
          "type": "uint256"
        }
      ],
      "name": "unsafeAccess",
      "outputs": [
        {
          "internalType": "uint256",
          "name": "",
          "type": "uint256"
        }
      ],
      "stateMutability": "view",
      "type": "function"
    },
    {
      "stateMutability": "payable",
      "type": "receive"
    }
  ],
  "bytecode": "0x60806040526040516103cd3803806103cd833981016040819052610022916100af565b80518190610036905f90602084019061003e565b505050610167565b828054828255905f5260205f20908101928215610077579160200282015b8281111561007757825182559160200191906001019061005c565b50610083929150610087565b5090565b5b80821115610083575f8155600101610088565b634e487b7160e01b5f52604160045260245ffd5b5f60208083850312156100c0575f80fd5b82516001600160401b03808211156100d6575f80fd5b818501915085601f8301126100e9575f80fd5b8151818111156100fb576100fb61009b565b8060051b604051601f19603f830116810181811085821117156101205761012061009b565b60405291825284820192508381018501918883111561013d575f80fd5b938501935b8285101561015b57845184529385019392850192610142565b98975050505050505050565b610259806101745f395ff3fe608060405260043610610036575f3560e01c806333e3a58a14610041578063342db7391461007257806340aa934d14610097575f80fd5b3661003d57005b5f80fd5b34801561004c575f80fd5b5061006061005b3660046101b3565b6100da565b60405190815260200160405180910390f35b34801561007d575f80fd5b506100606e1a185c991a185d0b595e1c1bdcd959608a1b81565b3480156100a2575f80fd5b506100606100b13660046101b3565b5f80527f290decd9548b62a8d60345a988386fc84ba6bc95484008f6362f93160ef3e563015490565b5f6100e581836100eb565b92915050565b81545f908190808203610102575f925050506100e5565b80821015610147575f6101158383610192565b5f878152602090209091508590820154111561013357809150610141565b61013e8160016101de565b92505b50610102565b5f8211801561017157508361016e866101616001866101f1565b5f91825260209091200190565b54145b1561018a576101816001836101f1565b925050506100e5565b509392505050565b5f6101a06002848418610204565b6101ac908484166101de565b9392505050565b5f602082840312156101c3575f80fd5b5035919050565b634e487b7160e01b5f52601160045260245ffd5b808201808211156100e5576100e56101ca565b818103818111156100e5576100e56101ca565b5f8261021e57634e487b7160e01b5f52601260045260245ffd5b50049056fea2646970667358221220d6bd5369fea1f6a97b283db3db0a31860cc39950792626d973c6168b539621a764736f6c63430008140033",
  "linkReferences": {},
  "deployedLinkReferences": {}
}