{
  "_format": "hh-sol-artifact-1",
  "contractName": "$ERC20",
  "sourceName": "contracts-exposed/token/ERC20/ERC20.sol",
  "abi": [
    {
      "inputs": [
        {
          "internalType": "string",
          "name": "name_",
          "type": "string"
        },
        {
          "internalType": "string",
          "name": "symbol_",
          "type": "string"
        }
      ],
      "stateMutability": "payable",
      "type": "constructor"
    },
    {
      "inputs": [
        {
          "internalType": "address",
          "name": "spender",
          "type": "address"
        },
        {
          "internalType": "uint256",
          "name": "currentAllowance",
          "type": "uint256"
        },
        {
          "internalType": "uint256",
          "name": "requestedDecrease",
          "type": "uint256"
        }
      ],
      "name": "ERC20FailedDecreaseAllowance",
      "type": "error"
    },
    {
      "inputs": [
        {
          "internalType": "address",
          "name": "spender",
          "type": "address"
        },
        {
          "internalType": "uint256",
          "name": "allowance",
          "type": "uint256"
        },
        {
          "internalType": "uint256",
          "name": "needed",
          "type": "uint256"
        }
      ],
      "name": "ERC20InsufficientAllowance",
      "type": "error"
    },
    {
      "inputs": [
        {
          "internalType": "address",
          "name": "sender",
          "type": "address"
        },
        {
          "internalType": "uint256",
          "name": "balance",
          "type": "uint256"
        },
        {
          "internalType": "uint256",
          "name": "needed",
          "type": "uint256"
        }
      ],
      "name": "ERC20InsufficientBalance",
      "type": "error"
    },
    {
      "inputs": [
        {
          "internalType": "address",
          "name": "approver",
          "type": "address"
        }
      ],
      "name": "ERC20InvalidApprover",
      "type": "error"
    },
    {
      "inputs": [
        {
          "internalType": "address",
          "name": "receiver",
          "type": "address"
        }
      ],
      "name": "ERC20InvalidReceiver",
      "type": "error"
    },
    {
      "inputs": [
        {
          "internalType": "address",
          "name": "sender",
          "type": "address"
        }
      ],
      "name": "ERC20InvalidSender",
      "type": "error"
    },
    {
      "inputs": [
        {
          "internalType": "address",
          "name": "spender",
          "type": "address"
        }
      ],
      "name": "ERC20InvalidSpender",
      "type": "error"
    },
    {
      "anonymous": false,
      "inputs": [
        {
          "indexed": true,
          "internalType": "address",
          "name": "owner",
          "type": "address"
        },
        {
          "indexed": true,
          "internalType": "address",
          "name": "spender",
          "type": "address"
        },
        {
          "indexed": false,
          "internalType": "uint256",
          "name": "value",
          "type": "uint256"
        }
      ],
      "name": "Approval",
      "type": "event"
    },
    {
      "anonymous": false,
      "inputs": [
        {
          "indexed": true,
          "internalType": "address",
          "name": "from",
          "type": "address"
        },
        {
          "indexed": true,
          "internalType": "address",
          "name": "to",
          "type": "address"
        },
        {
          "indexed": false,
          "internalType": "uint256",
          "name": "value",
          "type": "uint256"
        }
      ],
      "name": "Transfer",
      "type": "event"
    },
    {
      "inputs": [
        {
          "internalType": "address",
          "name": "owner",
          "type": "address"
        },
        {
          "internalType": "address",
          "name": "spender",
          "type": "address"
        },
        {
          "internalType": "uint256",
          "name": "value",
          "type": "uint256"
        },
        {
          "internalType": "bool",
          "name": "emitEvent",
          "type": "bool"
        }
      ],
      "name": "$_approve",
      "outputs": [],
      "stateMutability": "nonpayable",
      "type": "function"
    },
    {
      "inputs": [
        {
          "internalType": "address",
          "name": "owner",
          "type": "address"
        },
        {
          "internalType": "address",
          "name": "spender",
          "type": "address"
        },
        {
          "internalType": "uint256",
          "name": "value",
          "type": "uint256"
        }
      ],
      "name": "$_approve",
      "outputs": [],
      "stateMutability": "nonpayable",
      "type": "function"
    },
    {
      "inputs": [
        {
          "internalType": "address",
          "name": "account",
          "type": "address"
        },
        {
          "internalType": "uint256",
          "name": "value",
          "type": "uint256"
        }
      ],
      "name": "$_burn",
      "outputs": [],
      "stateMutability": "nonpayable",
      "type": "function"
    },
    {
      "inputs": [
        {
          "internalType": "address",
          "name": "account",
          "type": "address"
        },
        {
          "internalType": "uint256",
          "name": "value",
          "type": "uint256"
        }
      ],
      "name": "$_mint",
      "outputs": [],
      "stateMutability": "nonpayable",
      "type": "function"
    },
    {
      "inputs": [],
      "name": "$_msgData",
      "outputs": [
        {
          "internalType": "bytes",
          "name": "ret0",
          "type": "bytes"
        }
      ],
      "stateMutability": "view",
      "type": "function"
    },
    {
      "inputs": [],
      "name": "$_msgSender",
      "outputs": [
        {
          "internalType": "address",
          "name": "ret0",
          "type": "address"
        }
      ],
      "stateMutability": "view",
      "type": "function"
    },
    {
      "inputs": [
        {
          "internalType": "address",
          "name": "owner",
          "type": "address"
        },
        {
          "internalType": "address",
          "name": "spender",
          "type": "address"
        },
        {
          "internalType": "uint256",
          "name": "value",
          "type": "uint256"
        }
      ],
      "name": "$_spendAllowance",
      "outputs": [],
      "stateMutability": "nonpayable",
      "type": "function"
    },
    {
      "inputs": [
        {
          "internalType": "address",
          "name": "from",
          "type": "address"
        },
        {
          "internalType": "address",
          "name": "to",
          "type": "address"
        },
        {
          "internalType": "uint256",
          "name": "value",
          "type": "uint256"
        }
      ],
      "name": "$_transfer",
      "outputs": [],
      "stateMutability": "nonpayable",
      "type": "function"
    },
    {
      "inputs": [
        {
          "internalType": "address",
          "name": "from",
          "type": "address"
        },
        {
          "internalType": "address",
          "name": "to",
          "type": "address"
        },
        {
          "internalType": "uint256",
          "name": "value",
          "type": "uint256"
        }
      ],
      "name": "$_update",
      "outputs": [],
      "stateMutability": "nonpayable",
      "type": "function"
    },
    {
      "inputs": [],
      "name": "__hh_exposed_bytecode_marker",
      "outputs": [
        {
          "internalType": "bytes32",
          "name": "",
          "type": "bytes32"
        }
      ],
      "stateMutability": "view",
      "type": "function"
    },
    {
      "inputs": [
        {
          "internalType": "address",
          "name": "owner",
          "type": "address"
        },
        {
          "internalType": "address",
          "name": "spender",
          "type": "address"
        }
      ],
      "name": "allowance",
      "outputs": [
        {
          "internalType": "uint256",
          "name": "",
          "type": "uint256"
        }
      ],
      "stateMutability": "view",
      "type": "function"
    },
    {
      "inputs": [
        {
          "internalType": "address",
          "name": "spender",
          "type": "address"
        },
        {
          "internalType": "uint256",
          "name": "value",
          "type": "uint256"
        }
      ],
      "name": "approve",
      "outputs": [
        {
          "internalType": "bool",
          "name": "",
          "type": "bool"
        }
      ],
      "stateMutability": "nonpayable",
      "type": "function"
    },
    {
      "inputs": [
        {
          "internalType": "address",
          "name": "account",
          "type": "address"
        }
      ],
      "name": "balanceOf",
      "outputs": [
        {
          "internalType": "uint256",
          "name": "",
          "type": "uint256"
        }
      ],
      "stateMutability": "view",
      "type": "function"
    },
    {
      "inputs": [],
      "name": "decimals",
      "outputs": [
        {
          "internalType": "uint8",
          "name": "",
          "type": "uint8"
        }
      ],
      "stateMutability": "view",
      "type": "function"
    },
    {
      "inputs": [
        {
          "internalType": "address",
          "name": "spender",
          "type": "address"
        },
        {
          "internalType": "uint256",
          "name": "requestedDecrease",
          "type": "uint256"
        }
      ],
      "name": "decreaseAllowance",
      "outputs": [
        {
          "internalType": "bool",
          "name": "",
          "type": "bool"
        }
      ],
      "stateMutability": "nonpayable",
      "type": "function"
    },
    {
      "inputs": [
        {
          "internalType": "address",
          "name": "spender",
          "type": "address"
        },
        {
          "internalType": "uint256",
          "name": "addedValue",
          "type": "uint256"
        }
      ],
      "name": "increaseAllowance",
      "outputs": [
        {
          "internalType": "bool",
          "name": "",
          "type": "bool"
        }
      ],
      "stateMutability": "nonpayable",
      "type": "function"
    },
    {
      "inputs": [],
      "name": "name",
      "outputs": [
        {
          "internalType": "string",
          "name": "",
          "type": "string"
        }
      ],
      "stateMutability": "view",
      "type": "function"
    },
    {
      "inputs": [],
      "name": "symbol",
      "outputs": [
        {
          "internalType": "string",
          "name": "",
          "type": "string"
        }
      ],
      "stateMutability": "view",
      "type": "function"
    },
    {
      "inputs": [],
      "name": "totalSupply",
      "outputs": [
        {
          "internalType": "uint256",
          "name": "",
          "type": "uint256"
        }
      ],
      "stateMutability": "view",
      "type": "function"
    },
    {
      "inputs": [
        {
          "internalType": "address",
          "name": "to",
          "type": "address"
        },
        {
          "internalType": "uint256",
          "name": "value",
          "type": "uint256"
        }
      ],
      "name": "transfer",
      "outputs": [
        {
          "internalType": "bool",
          "name": "",
          "type": "bool"
        }
      ],
      "stateMutability": "nonpayable",
      "type": "function"
    },
    {
      "inputs": [
        {
          "internalType": "address",
          "name": "from",
          "type": "address"
        },
        {
          "internalType": "address",
          "name": "to",
          "type": "address"
        },
        {
          "internalType": "uint256",
          "name": "value",
          "type": "uint256"
        }
      ],
      "name": "transferFrom",
      "outputs": [
        {
          "internalType": "bool",
          "name": "",
          "type": "bool"
        }
      ],
      "stateMutability": "nonpayable",
      "type": "function"
    },
    {
      "stateMutability": "payable",
      "type": "receive"
    }
  ],
  "bytecode": "0x608060405260405162000dee38038062000dee83398101604081905262000026916200010e565b8181600362000036838262000200565b50600462000045828262000200565b5050505050620002c8565b634e487b7160e01b5f52604160045260245ffd5b5f82601f83011262000074575f80fd5b81516001600160401b038082111562000091576200009162000050565b604051601f8301601f19908116603f01168101908282118183101715620000bc57620000bc62000050565b81604052838152602092508683858801011115620000d8575f80fd5b5f91505b83821015620000fb5785820183015181830184015290820190620000dc565b5f93810190920192909252949350505050565b5f806040838503121562000120575f80fd5b82516001600160401b038082111562000137575f80fd5b620001458683870162000064565b935060208501519150808211156200015b575f80fd5b506200016a8582860162000064565b9150509250929050565b600181811c908216806200018957607f821691505b602082108103620001a857634e487b7160e01b5f52602260045260245ffd5b50919050565b601f821115620001fb575f81815260208120601f850160051c81016020861015620001d65750805b601f850160051c820191505b81811015620001f757828155600101620001e2565b5050505b505050565b81516001600160401b038111156200021c576200021c62000050565b62000234816200022d845462000174565b84620001ae565b602080601f8311600181146200026a575f8415620002525750858301515b5f19600386901b1c1916600185901b178555620001f7565b5f85815260208120601f198616915b828110156200029a5788860151825594840194600190910190840162000279565b5085821015620002b857878501515f19600388901b60f8161c191681555b5050505050600190811b01905550565b610b1880620002d65f395ff3fe608060405260043610610129575f3560e01c80636855a178116100a8578063a9059cbb1161006d578063a9059cbb1461031d578063b2331d7d1461033c578063cc461d621461035b578063dd62ed3e1461037a578063e047838d14610399578063efb43b07146103b8575f80fd5b80636855a1781461027857806370a0823114610297578063861e3d3d146102cb57806395d89b41146102ea578063a457c2d7146102fe575f80fd5b8063313ce567116100ee578063313ce567146101e457806332bc74aa146101ff57806332cadf3c14610220578063342db739146102345780633950935114610259575f80fd5b806306fdde0314610134578063095ea7b31461015e57806318160ddd1461018d57806323b872dd146101ab5780632904df29146101ca575f80fd5b3661013057005b5f80fd5b34801561013f575f80fd5b506101486103d7565b604051610155919061095c565b60405180910390f35b348015610169575f80fd5b5061017d610178366004610990565b610467565b6040519015158152602001610155565b348015610198575f80fd5b506002545b604051908152602001610155565b3480156101b6575f80fd5b5061017d6101c53660046109b8565b610480565b3480156101d5575f80fd5b50604051338152602001610155565b3480156101ef575f80fd5b5060405160128152602001610155565b34801561020a575f80fd5b5061021e6102193660046109f1565b6104a3565b005b34801561022b575f80fd5b506101486104b5565b34801561023f575f80fd5b5061019d6e1a185c991a185d0b595e1c1bdcd959608a1b81565b348015610264575f80fd5b5061017d610273366004610990565b6104f2565b348015610283575f80fd5b5061021e6102923660046109b8565b610513565b3480156102a2575f80fd5b5061019d6102b1366004610a41565b6001600160a01b03165f9081526020819052604090205490565b3480156102d6575f80fd5b5061021e6102e53660046109b8565b610523565b3480156102f5575f80fd5b5061014861052e565b348015610309575f80fd5b5061017d610318366004610990565b61053d565b348015610328575f80fd5b5061017d610337366004610990565b610598565b348015610347575f80fd5b5061021e6103563660046109b8565b6105a5565b348015610366575f80fd5b5061021e610375366004610990565b6105b0565b348015610385575f80fd5b5061019d610394366004610a5a565b6105be565b3480156103a4575f80fd5b5061021e6103b3366004610990565b6105e8565b3480156103c3575f80fd5b5061021e6103d23660046109b8565b6105f2565b6060600380546103e690610a8b565b80601f016020809104026020016040519081016040528092919081815260200182805461041290610a8b565b801561045d5780601f106104345761010080835404028352916020019161045d565b820191905f5260205f20905b81548152906001019060200180831161044057829003601f168201915b5050505050905090565b5f336104748185856105fd565b60019150505b92915050565b5f3361048d85828561060a565b610498858585610667565b506001949350505050565b6104af848484846106b9565b50505050565b60605f368080601f0160208091040260200160405190810160405280939291908181526020018383808284375f9201919091525092949350505050565b5f3361047481858561050483836105be565b61050e9190610ac3565b6105fd565b61051e83838361078b565b505050565b61051e8383836105fd565b6060600480546103e690610a8b565b5f338161054a82866105be565b90508381101561058b57604051632983c0c360e21b81526001600160a01b038616600482015260248101829052604481018590526064015b60405180910390fd5b61049882868684036105fd565b5f33610474818585610667565b61051e83838361060a565b6105ba82826108b1565b5050565b6001600160a01b039182165f90815260016020908152604080832093909416825291909152205490565b6105ba82826108e5565b61051e838383610667565b61051e83838360016106b9565b5f61061584846105be565b90505f1981146104af578181101561065957604051637dc7a0d960e11b81526001600160a01b03841660048201526024810182905260448101839052606401610582565b6104af84848484035f6106b9565b6001600160a01b03831661069057604051634b637e8f60e11b81525f6004820152602401610582565b6001600160a01b0382166105135760405163ec442f0560e01b81525f6004820152602401610582565b6001600160a01b0384166106e25760405163e602df0560e01b81525f6004820152602401610582565b6001600160a01b03831661070b57604051634a1406b160e11b81525f6004820152602401610582565b6001600160a01b038085165f90815260016020908152604080832093871683529290522082905580156104af57826001600160a01b0316846001600160a01b03167f8c5be1e5ebec7d5bd14f71427d1e84f3dd0314c0f7b2291e5b200ac8c7c3b9258460405161077d91815260200190565b60405180910390a350505050565b6001600160a01b0383166107b5578060025f8282546107aa9190610ac3565b909155506108259050565b6001600160a01b0383165f90815260208190526040902054818110156108075760405163391434e360e21b81526001600160a01b03851660048201526024810182905260448101839052606401610582565b6001600160a01b0384165f9081526020819052604090209082900390555b6001600160a01b0382166108415760028054829003905561085f565b6001600160a01b0382165f9081526020819052604090208054820190555b816001600160a01b0316836001600160a01b03167fddf252ad1be2c89b69c2b068fc378daa952ba7f163c4a11628f55a4df523b3ef836040516108a491815260200190565b60405180910390a3505050565b6001600160a01b0382166108da5760405163ec442f0560e01b81525f6004820152602401610582565b6105ba5f838361078b565b6001600160a01b03821661090e57604051634b637e8f60e11b81525f6004820152602401610582565b6105ba825f8361078b565b5f81518084525f5b8181101561093d57602081850181015186830182015201610921565b505f602082860101526020601f19601f83011685010191505092915050565b602081525f61096e6020830184610919565b9392505050565b80356001600160a01b038116811461098b575f80fd5b919050565b5f80604083850312156109a1575f80fd5b6109aa83610975565b946020939093013593505050565b5f805f606084860312156109ca575f80fd5b6109d384610975565b92506109e160208501610975565b9150604084013590509250925092565b5f805f8060808587031215610a04575f80fd5b610a0d85610975565b9350610a1b60208601610975565b92506040850135915060608501358015158114610a36575f80fd5b939692955090935050565b5f60208284031215610a51575f80fd5b61096e82610975565b5f8060408385031215610a6b575f80fd5b610a7483610975565b9150610a8260208401610975565b90509250929050565b600181811c90821680610a9f57607f821691505b602082108103610abd57634e487b7160e01b5f52602260045260245ffd5b50919050565b8082018082111561047a57634e487b7160e01b5f52601160045260245ffdfea2646970667358221220f7770024f229d67e8f2601f22dd1d6a865d2e4049541c3bd7a0e0603e1fc0de664736f6c63430008140033",
  "linkReferences": {},
  "deployedLinkReferences": {}
}