{
  "_format": "hh-sol-artifact-1",
  "contractName": "$ERC2771ContextMock",
  "sourceName": "contracts-exposed/mocks/ERC2771ContextMock.sol",
  "abi": [
    {
      "inputs": [
        {
          "internalType": "address",
          "name": "trustedForwarder",
          "type": "address"
        }
      ],
      "stateMutability": "payable",
      "type": "constructor"
    },
    {
      "anonymous": false,
      "inputs": [
        {
          "indexed": false,
          "internalType": "bytes",
          "name": "data",
          "type": "bytes"
        },
        {
          "indexed": false,
          "internalType": "uint256",
          "name": "integerValue",
          "type": "uint256"
        },
        {
          "indexed": false,
          "internalType": "string",
          "name": "stringValue",
          "type": "string"
        }
      ],
      "name": "Data",
      "type": "event"
    },
    {
      "anonymous": false,
      "inputs": [
        {
          "indexed": false,
          "internalType": "address",
          "name": "sender",
          "type": "address"
        }
      ],
      "name": "Sender",
      "type": "event"
    },
    {
      "inputs": [],
      "name": "$_msgData",
      "outputs": [
        {
          "internalType": "bytes",
          "name": "ret0",
          "type": "bytes"
        }
      ],
      "stateMutability": "view",
      "type": "function"
    },
    {
      "inputs": [],
      "name": "$_msgSender",
      "outputs": [
        {
          "internalType": "address",
          "name": "ret0",
          "type": "address"
        }
      ],
      "stateMutability": "view",
      "type": "function"
    },
    {
      "inputs": [],
      "name": "__hh_exposed_bytecode_marker",
      "outputs": [
        {
          "internalType": "bytes32",
          "name": "",
          "type": "bytes32"
        }
      ],
      "stateMutability": "view",
      "type": "function"
    },
    {
      "inputs": [
        {
          "internalType": "address",
          "name": "forwarder",
          "type": "address"
        }
      ],
      "name": "isTrustedForwarder",
      "outputs": [
        {
          "internalType": "bool",
          "name": "",
          "type": "bool"
        }
      ],
      "stateMutability": "view",
      "type": "function"
    },
    {
      "inputs": [
        {
          "internalType": "uint256",
          "name": "integerValue",
          "type": "uint256"
        },
        {
          "internalType": "string",
          "name": "stringValue",
          "type": "string"
        }
      ],
      "name": "msgData",
      "outputs": [],
      "stateMutability": "nonpayable",
      "type": "function"
    },
    {
      "inputs": [],
      "name": "msgSender",
      "outputs": [],
      "stateMutability": "nonpayable",
      "type": "function"
    },
    {
      "stateMutability": "payable",
      "type": "receive"
    }
  ],
  "bytecode": "0x60a06040526040516105d73803806105d7833981016040819052610022916100af565b6001600160a01b038116608052807fd6558c3ed910d959271054471fd1c326679d9fece99c5091b00ed89627cf2bfc61005961007b565b6040516001600160a01b03909116815260200160405180910390a150506100dc565b5f610084610089565b905090565b6080515f906001600160a01b031633036100aa575060131936013560601c90565b503390565b5f602082840312156100bf575f80fd5b81516001600160a01b03811681146100d5575f80fd5b9392505050565b6080516104e36100f45f395f6101e501526104e35ff3fe608060405260043610610057575f3560e01c80632904df291461006257806332cadf3c14610093578063342db739146100b4578063376bf262146100e7578063572b6c0514610108578063d737d0c714610137575f80fd5b3661005e57005b5f80fd5b34801561006d575f80fd5b5061007661014b565b6040516001600160a01b0390911681526020015b60405180910390f35b34801561009e575f80fd5b506100a7610159565b60405161008a919061030c565b3480156100bf575f80fd5b506100d96e1a185c991a185d0b595e1c1bdcd959608a1b81565b60405190815260200161008a565b3480156100f2575f80fd5b50610106610101366004610339565b61019c565b005b348015610113575f80fd5b506101276101223660046103ee565b6101e3565b604051901515815260200161008a565b348015610142575f80fd5b50610106610215565b5f61015461025b565b905090565b6060610163610264565b8080601f0160208091040260200160405190810160405280939291908181526020018383808284375f9201919091525092949350505050565b7faf235354a0a47c91ee171961326335cb2d1a8e55b8a89859b0e61eb049e50ea06101c5610264565b84846040516101d79493929190610414565b60405180910390a15050565b7f00000000000000000000000000000000000000000000000000000000000000006001600160a01b0390811691161490565b7fd6558c3ed910d959271054471fd1c326679d9fece99c5091b00ed89627cf2bfc61023e61025b565b6040516001600160a01b03909116815260200160405180910390a1565b5f610154610276565b365f61026e610297565b915091509091565b5f610280336101e3565b15610292575060131936013560601c90565b503390565b365f6102a2336101e3565b156102c2575f80366102b5601482610461565b9261026e93929190610486565b5f3661026e565b5f81518084525f5b818110156102ed576020818501810151868301820152016102d1565b505f602082860101526020601f19601f83011685010191505092915050565b602081525f61031e60208301846102c9565b9392505050565b634e487b7160e01b5f52604160045260245ffd5b5f806040838503121561034a575f80fd5b82359150602083013567ffffffffffffffff80821115610368575f80fd5b818501915085601f83011261037b575f80fd5b81358181111561038d5761038d610325565b604051601f8201601f19908116603f011681019083821181831017156103b5576103b5610325565b816040528281528860208487010111156103cd575f80fd5b826020860160208301375f6020848301015280955050505050509250929050565b5f602082840312156103fe575f80fd5b81356001600160a01b038116811461031e575f80fd5b60608152836060820152838560808301375f608085830101525f601f19601f8601168201846020840152608083820301604084015261045660808201856102c9565b979650505050505050565b8181038181111561048057634e487b7160e01b5f52601160045260245ffd5b92915050565b5f8085851115610494575f80fd5b838611156104a0575f80fd5b505082019391909203915056fea2646970667358221220abacc2f617ac0cdcd4d8436ee475309ea64d755d6b30a7ffef86ea1a7fe930a064736f6c63430008140033",
  "linkReferences": {},
  "deployedLinkReferences": {}
}