{
  "_format": "hh-sol-artifact-1",
  "contractName": "$ERC1155Pausable",
  "sourceName": "contracts-exposed/token/ERC1155/extensions/ERC1155Pausable.sol",
  "abi": [
    {
      "inputs": [
        {
          "internalType": "string",
          "name": "uri_",
          "type": "string"
        }
      ],
      "stateMutability": "payable",
      "type": "constructor"
    },
    {
      "inputs": [
        {
          "internalType": "address",
          "name": "sender",
          "type": "address"
        },
        {
          "internalType": "uint256",
          "name": "balance",
          "type": "uint256"
        },
        {
          "internalType": "uint256",
          "name": "needed",
          "type": "uint256"
        },
        {
          "internalType": "uint256",
          "name": "tokenId",
          "type": "uint256"
        }
      ],
      "name": "ERC1155InsufficientBalance",
      "type": "error"
    },
    {
      "inputs": [
        {
          "internalType": "address",
          "name": "approver",
          "type": "address"
        }
      ],
      "name": "ERC1155InvalidApprover",
      "type": "error"
    },
    {
      "inputs": [
        {
          "internalType": "uint256",
          "name": "idsLength",
          "type": "uint256"
        },
        {
          "internalType": "uint256",
          "name": "valuesLength",
          "type": "uint256"
        }
      ],
      "name": "ERC1155InvalidArrayLength",
      "type": "error"
    },
    {
      "inputs": [
        {
          "internalType": "address",
          "name": "operator",
          "type": "address"
        }
      ],
      "name": "ERC1155InvalidOperator",
      "type": "error"
    },
    {
      "inputs": [
        {
          "internalType": "address",
          "name": "receiver",
          "type": "address"
        }
      ],
      "name": "ERC1155InvalidReceiver",
      "type": "error"
    },
    {
      "inputs": [
        {
          "internalType": "address",
          "name": "sender",
          "type": "address"
        }
      ],
      "name": "ERC1155InvalidSender",
      "type": "error"
    },
    {
      "inputs": [
        {
          "internalType": "address",
          "name": "operator",
          "type": "address"
        },
        {
          "internalType": "address",
          "name": "owner",
          "type": "address"
        }
      ],
      "name": "ERC1155MissingApprovalForAll",
      "type": "error"
    },
    {
      "inputs": [],
      "name": "EnforcedPause",
      "type": "error"
    },
    {
      "inputs": [],
      "name": "ExpectedPause",
      "type": "error"
    },
    {
      "anonymous": false,
      "inputs": [
        {
          "indexed": true,
          "internalType": "address",
          "name": "account",
          "type": "address"
        },
        {
          "indexed": true,
          "internalType": "address",
          "name": "operator",
          "type": "address"
        },
        {
          "indexed": false,
          "internalType": "bool",
          "name": "approved",
          "type": "bool"
        }
      ],
      "name": "ApprovalForAll",
      "type": "event"
    },
    {
      "anonymous": false,
      "inputs": [
        {
          "indexed": false,
          "internalType": "address",
          "name": "account",
          "type": "address"
        }
      ],
      "name": "Paused",
      "type": "event"
    },
    {
      "anonymous": false,
      "inputs": [
        {
          "indexed": true,
          "internalType": "address",
          "name": "operator",
          "type": "address"
        },
        {
          "indexed": true,
          "internalType": "address",
          "name": "from",
          "type": "address"
        },
        {
          "indexed": true,
          "internalType": "address",
          "name": "to",
          "type": "address"
        },
        {
          "indexed": false,
          "internalType": "uint256[]",
          "name": "ids",
          "type": "uint256[]"
        },
        {
          "indexed": false,
          "internalType": "uint256[]",
          "name": "values",
          "type": "uint256[]"
        }
      ],
      "name": "TransferBatch",
      "type": "event"
    },
    {
      "anonymous": false,
      "inputs": [
        {
          "indexed": true,
          "internalType": "address",
          "name": "operator",
          "type": "address"
        },
        {
          "indexed": true,
          "internalType": "address",
          "name": "from",
          "type": "address"
        },
        {
          "indexed": true,
          "internalType": "address",
          "name": "to",
          "type": "address"
        },
        {
          "indexed": false,
          "internalType": "uint256",
          "name": "id",
          "type": "uint256"
        },
        {
          "indexed": false,
          "internalType": "uint256",
          "name": "value",
          "type": "uint256"
        }
      ],
      "name": "TransferSingle",
      "type": "event"
    },
    {
      "anonymous": false,
      "inputs": [
        {
          "indexed": false,
          "internalType": "string",
          "name": "value",
          "type": "string"
        },
        {
          "indexed": true,
          "internalType": "uint256",
          "name": "id",
          "type": "uint256"
        }
      ],
      "name": "URI",
      "type": "event"
    },
    {
      "anonymous": false,
      "inputs": [
        {
          "indexed": false,
          "internalType": "address",
          "name": "account",
          "type": "address"
        }
      ],
      "name": "Unpaused",
      "type": "event"
    },
    {
      "inputs": [
        {
          "internalType": "address",
          "name": "from",
          "type": "address"
        },
        {
          "internalType": "uint256",
          "name": "id",
          "type": "uint256"
        },
        {
          "internalType": "uint256",
          "name": "value",
          "type": "uint256"
        }
      ],
      "name": "$_burn",
      "outputs": [],
      "stateMutability": "nonpayable",
      "type": "function"
    },
    {
      "inputs": [
        {
          "internalType": "address",
          "name": "from",
          "type": "address"
        },
        {
          "internalType": "uint256[]",
          "name": "ids",
          "type": "uint256[]"
        },
        {
          "internalType": "uint256[]",
          "name": "values",
          "type": "uint256[]"
        }
      ],
      "name": "$_burnBatch",
      "outputs": [],
      "stateMutability": "nonpayable",
      "type": "function"
    },
    {
      "inputs": [
        {
          "internalType": "address",
          "name": "to",
          "type": "address"
        },
        {
          "internalType": "uint256",
          "name": "id",
          "type": "uint256"
        },
        {
          "internalType": "uint256",
          "name": "value",
          "type": "uint256"
        },
        {
          "internalType": "bytes",
          "name": "data",
          "type": "bytes"
        }
      ],
      "name": "$_mint",
      "outputs": [],
      "stateMutability": "nonpayable",
      "type": "function"
    },
    {
      "inputs": [
        {
          "internalType": "address",
          "name": "to",
          "type": "address"
        },
        {
          "internalType": "uint256[]",
          "name": "ids",
          "type": "uint256[]"
        },
        {
          "internalType": "uint256[]",
          "name": "values",
          "type": "uint256[]"
        },
        {
          "internalType": "bytes",
          "name": "data",
          "type": "bytes"
        }
      ],
      "name": "$_mintBatch",
      "outputs": [],
      "stateMutability": "nonpayable",
      "type": "function"
    },
    {
      "inputs": [],
      "name": "$_msgData",
      "outputs": [
        {
          "internalType": "bytes",
          "name": "ret0",
          "type": "bytes"
        }
      ],
      "stateMutability": "view",
      "type": "function"
    },
    {
      "inputs": [],
      "name": "$_msgSender",
      "outputs": [
        {
          "internalType": "address",
          "name": "ret0",
          "type": "address"
        }
      ],
      "stateMutability": "view",
      "type": "function"
    },
    {
      "inputs": [],
      "name": "$_pause",
      "outputs": [],
      "stateMutability": "nonpayable",
      "type": "function"
    },
    {
      "inputs": [],
      "name": "$_requireNotPaused",
      "outputs": [],
      "stateMutability": "view",
      "type": "function"
    },
    {
      "inputs": [],
      "name": "$_requirePaused",
      "outputs": [],
      "stateMutability": "view",
      "type": "function"
    },
    {
      "inputs": [
        {
          "internalType": "address",
          "name": "from",
          "type": "address"
        },
        {
          "internalType": "address",
          "name": "to",
          "type": "address"
        },
        {
          "internalType": "uint256[]",
          "name": "ids",
          "type": "uint256[]"
        },
        {
          "internalType": "uint256[]",
          "name": "values",
          "type": "uint256[]"
        },
        {
          "internalType": "bytes",
          "name": "data",
          "type": "bytes"
        }
      ],
      "name": "$_safeBatchTransferFrom",
      "outputs": [],
      "stateMutability": "nonpayable",
      "type": "function"
    },
    {
      "inputs": [
        {
          "internalType": "address",
          "name": "from",
          "type": "address"
        },
        {
          "internalType": "address",
          "name": "to",
          "type": "address"
        },
        {
          "internalType": "uint256",
          "name": "id",
          "type": "uint256"
        },
        {
          "internalType": "uint256",
          "name": "value",
          "type": "uint256"
        },
        {
          "internalType": "bytes",
          "name": "data",
          "type": "bytes"
        }
      ],
      "name": "$_safeTransferFrom",
      "outputs": [],
      "stateMutability": "nonpayable",
      "type": "function"
    },
    {
      "inputs": [
        {
          "internalType": "address",
          "name": "owner",
          "type": "address"
        },
        {
          "internalType": "address",
          "name": "operator",
          "type": "address"
        },
        {
          "internalType": "bool",
          "name": "approved",
          "type": "bool"
        }
      ],
      "name": "$_setApprovalForAll",
      "outputs": [],
      "stateMutability": "nonpayable",
      "type": "function"
    },
    {
      "inputs": [
        {
          "internalType": "string",
          "name": "newuri",
          "type": "string"
        }
      ],
      "name": "$_setURI",
      "outputs": [],
      "stateMutability": "nonpayable",
      "type": "function"
    },
    {
      "inputs": [],
      "name": "$_unpause",
      "outputs": [],
      "stateMutability": "nonpayable",
      "type": "function"
    },
    {
      "inputs": [
        {
          "internalType": "address",
          "name": "from",
          "type": "address"
        },
        {
          "internalType": "address",
          "name": "to",
          "type": "address"
        },
        {
          "internalType": "uint256[]",
          "name": "ids",
          "type": "uint256[]"
        },
        {
          "internalType": "uint256[]",
          "name": "values",
          "type": "uint256[]"
        }
      ],
      "name": "$_update",
      "outputs": [],
      "stateMutability": "nonpayable",
      "type": "function"
    },
    {
      "inputs": [
        {
          "internalType": "address",
          "name": "from",
          "type": "address"
        },
        {
          "internalType": "address",
          "name": "to",
          "type": "address"
        },
        {
          "internalType": "uint256[]",
          "name": "ids",
          "type": "uint256[]"
        },
        {
          "internalType": "uint256[]",
          "name": "values",
          "type": "uint256[]"
        },
        {
          "internalType": "bytes",
          "name": "data",
          "type": "bytes"
        }
      ],
      "name": "$_updateWithAcceptanceCheck",
      "outputs": [],
      "stateMutability": "nonpayable",
      "type": "function"
    },
    {
      "inputs": [],
      "name": "__hh_exposed_bytecode_marker",
      "outputs": [
        {
          "internalType": "bytes32",
          "name": "",
          "type": "bytes32"
        }
      ],
      "stateMutability": "view",
      "type": "function"
    },
    {
      "inputs": [
        {
          "internalType": "address",
          "name": "account",
          "type": "address"
        },
        {
          "internalType": "uint256",
          "name": "id",
          "type": "uint256"
        }
      ],
      "name": "balanceOf",
      "outputs": [
        {
          "internalType": "uint256",
          "name": "",
          "type": "uint256"
        }
      ],
      "stateMutability": "view",
      "type": "function"
    },
    {
      "inputs": [
        {
          "internalType": "address[]",
          "name": "accounts",
          "type": "address[]"
        },
        {
          "internalType": "uint256[]",
          "name": "ids",
          "type": "uint256[]"
        }
      ],
      "name": "balanceOfBatch",
      "outputs": [
        {
          "internalType": "uint256[]",
          "name": "",
          "type": "uint256[]"
        }
      ],
      "stateMutability": "view",
      "type": "function"
    },
    {
      "inputs": [
        {
          "internalType": "address",
          "name": "account",
          "type": "address"
        },
        {
          "internalType": "address",
          "name": "operator",
          "type": "address"
        }
      ],
      "name": "isApprovedForAll",
      "outputs": [
        {
          "internalType": "bool",
          "name": "",
          "type": "bool"
        }
      ],
      "stateMutability": "view",
      "type": "function"
    },
    {
      "inputs": [],
      "name": "paused",
      "outputs": [
        {
          "internalType": "bool",
          "name": "",
          "type": "bool"
        }
      ],
      "stateMutability": "view",
      "type": "function"
    },
    {
      "inputs": [
        {
          "internalType": "address",
          "name": "from",
          "type": "address"
        },
        {
          "internalType": "address",
          "name": "to",
          "type": "address"
        },
        {
          "internalType": "uint256[]",
          "name": "ids",
          "type": "uint256[]"
        },
        {
          "internalType": "uint256[]",
          "name": "values",
          "type": "uint256[]"
        },
        {
          "internalType": "bytes",
          "name": "data",
          "type": "bytes"
        }
      ],
      "name": "safeBatchTransferFrom",
      "outputs": [],
      "stateMutability": "nonpayable",
      "type": "function"
    },
    {
      "inputs": [
        {
          "internalType": "address",
          "name": "from",
          "type": "address"
        },
        {
          "internalType": "address",
          "name": "to",
          "type": "address"
        },
        {
          "internalType": "uint256",
          "name": "id",
          "type": "uint256"
        },
        {
          "internalType": "uint256",
          "name": "value",
          "type": "uint256"
        },
        {
          "internalType": "bytes",
          "name": "data",
          "type": "bytes"
        }
      ],
      "name": "safeTransferFrom",
      "outputs": [],
      "stateMutability": "nonpayable",
      "type": "function"
    },
    {
      "inputs": [
        {
          "internalType": "address",
          "name": "operator",
          "type": "address"
        },
        {
          "internalType": "bool",
          "name": "approved",
          "type": "bool"
        }
      ],
      "name": "setApprovalForAll",
      "outputs": [],
      "stateMutability": "nonpayable",
      "type": "function"
    },
    {
      "inputs": [
        {
          "internalType": "bytes4",
          "name": "interfaceId",
          "type": "bytes4"
        }
      ],
      "name": "supportsInterface",
      "outputs": [
        {
          "internalType": "bool",
          "name": "",
          "type": "bool"
        }
      ],
      "stateMutability": "view",
      "type": "function"
    },
    {
      "inputs": [
        {
          "internalType": "uint256",
          "name": "",
          "type": "uint256"
        }
      ],
      "name": "uri",
      "outputs": [
        {
          "internalType": "string",
          "name": "",
          "type": "string"
        }
      ],
      "stateMutability": "view",
      "type": "function"
    },
    {
      "stateMutability": "payable",
      "type": "receive"
    }
  ],
  "bytecode": "0x6080604052604051620021c9380380620021c983398101604081905262000026916200006a565b80620000328162000044565b50506003805460ff191690556200028c565b6002620000528282620001c4565b5050565b634e487b7160e01b5f52604160045260245ffd5b5f60208083850312156200007c575f80fd5b82516001600160401b038082111562000093575f80fd5b818501915085601f830112620000a7575f80fd5b815181811115620000bc57620000bc62000056565b604051601f8201601f19908116603f01168101908382118183101715620000e757620000e762000056565b816040528281528886848701011115620000ff575f80fd5b5f93505b8284101562000122578484018601518185018701529285019262000103565b5f86848301015280965050505050505092915050565b600181811c908216806200014d57607f821691505b6020821081036200016c57634e487b7160e01b5f52602260045260245ffd5b50919050565b601f821115620001bf575f81815260208120601f850160051c810160208610156200019a5750805b601f850160051c820191505b81811015620001bb57828155600101620001a6565b5050505b505050565b81516001600160401b03811115620001e057620001e062000056565b620001f881620001f1845462000138565b8462000172565b602080601f8311600181146200022e575f8415620002165750858301515b5f19600386901b1c1916600185901b178555620001bb565b5f85815260208120601f198616915b828110156200025e578886015182559484019460019091019084016200023d565b50858210156200027c57878501515f19600388901b60f8161c191681555b5050505050600190811b01905550565b611f2f806200029a5f395ff3fe60806040526004361061017d575f3560e01c80637dfd6d69116100cd578063bf445cb811610087578063ec3016f711610062578063ec3016f71461043e578063eebe6ab41461045d578063f242432a1461047c578063f85810a71461049b575f80fd5b8063bf445cb8146103e1578063cfeea0d414610400578063e985e9c51461041f575f80fd5b80637dfd6d691461033d578063838122411461035c578063a22cb46514610370578063af32f2f21461038f578063b0a1fefa146103ae578063b556c328146103c2575f80fd5b80632d64f47911610138578063342db73911610113578063342db739146102b657806338106e25146102db5780634e1273f4146102fa5780635c975abb14610326575f80fd5b80632d64f479146102645780632eb2c2d61461028357806332cadf3c146102a2575f80fd5b8062fdd58e1461018857806301ffc9a7146101ba5780630c3c37ae146101e95780630e89341c1461020a5780632904df29146102365780632c85c6e214610250575f80fd5b3661018457005b5f80fd5b348015610193575f80fd5b506101a76101a23660046113d6565b6104af565b6040519081526020015b60405180910390f35b3480156101c5575f80fd5b506101d96101d4366004611416565b6104d6565b60405190151581526020016101b1565b3480156101f4575f80fd5b5061020861020336600461147c565b610525565b005b348015610215575f80fd5b506102296102243660046114ee565b61056f565b6040516101b19190611548565b348015610241575f80fd5b506040513381526020016101b1565b34801561025b575f80fd5b50610208610601565b34801561026f575f80fd5b5061020861027e36600461159a565b61060b565b34801561028e575f80fd5b5061020861029d366004611785565b6106b5565b3480156102ad575f80fd5b50610229610719565b3480156102c1575f80fd5b506101a76e1a185c991a185d0b595e1c1bdcd959608a1b81565b3480156102e6575f80fd5b506102086102f5366004611827565b610756565b348015610305575f80fd5b506103196103143660046118a1565b6107c9565b6040516101b19190611993565b348015610331575f80fd5b5060035460ff166101d9565b348015610348575f80fd5b506102086103573660046119a5565b61089b565b348015610367575f80fd5b506102086108dc565b34801561037b575f80fd5b5061020861038a366004611a05565b6108e4565b34801561039a575f80fd5b506102086103a9366004611a36565b6108f3565b3480156103b9575f80fd5b50610208610960565b3480156103cd575f80fd5b506102086103dc366004611aae565b610968565b3480156103ec575f80fd5b506102086103fb366004611ade565b610978565b34801561040b575f80fd5b5061020861041a366004611b80565b610a20565b34801561042a575f80fd5b506101d9610439366004611bc0565b610a2b565b348015610449575f80fd5b50610208610458366004611be8565b610a58565b348015610468575f80fd5b5061020861047736600461159a565b610a96565b348015610487575f80fd5b50610208610496366004611c26565b610b36565b3480156104a6575f80fd5b50610208610b95565b5f818152602081815260408083206001600160a01b03861684529091529020545b92915050565b5f6001600160e01b03198216636cdb3d1360e11b148061050657506001600160e01b031982166303a24d0760e21b145b806104d057506301ffc9a760e01b6001600160e01b03198316146104d0565b6105678686868686868080601f0160208091040260200160405190810160405280939291908181526020018383808284375f92019190915250610b9d92505050565b505050505050565b60606002805461057e90611c85565b80601f01602080910402602001604051908101604052809291908181526020018280546105aa90611c85565b80156105f55780601f106105cc576101008083540402835291602001916105f5565b820191905f5260205f20905b8154815290600101906020018083116105d857829003601f168201915b50505050509050919050565b610609610c20565b565b6106ab88888888808060200260200160405190810160405280939291908181526020018383602002808284375f9201919091525050604080516020808c0282810182019093528b82529093508b92508a9182918501908490808284375f9201919091525050604080516020601f8b0181900481028201810190925289815292508991508890819084018382808284375f92019190915250610c4492505050565b5050505050505050565b336001600160a01b03861681148015906106d657506106d48682610a2b565b155b1561070c5760405163711bec9160e11b81526001600160a01b038083166004830152871660248201526044015b60405180910390fd5b6105678686868686610c97565b60605f368080601f0160208091040260200160405190810160405280939291908181526020018383808284375f9201919091525092949350505050565b6107c2858585808060200260200160405190810160405280939291908181526020018383602002808284375f92019190915250506040805160208089028281018201909352888252909350889250879182918501908490808284375f92019190915250610cf592505050565b5050505050565b606081518351146107fa5781518351604051635b05999160e01b815260048101929092526024820152604401610703565b5f83516001600160401b038111156108145761081461164c565b60405190808252806020026020018201604052801561083d578160200160208202803683370190505b5090505f5b845181101561089357602080820286010151610866906020808402870101516104af565b82828151811061087857610878611cbd565b602090810291909101015261088c81611ce5565b9050610842565b509392505050565b6107c285858585858080601f0160208091040260200160405190810160405280939291908181526020018383808284375f92019190915250610d3892505050565b610609610d93565b6108ef338383610db6565b5050565b61056786868686808060200260200160405190810160405280939291908181526020018383602002808284375f9201919091525050604080516020808a028281018201909352898252909350899250889182918501908490808284375f92019190915250610e4a92505050565b610609610e64565b610973838383610eb6565b505050565b610a17878787808060200260200160405190810160405280939291908181526020018383602002808284375f9201919091525050604080516020808b0282810182019093528a82529093508a9250899182918501908490808284375f9201919091525050604080516020601f8a0181900481028201810190925288815292508891508790819084018382808284375f92019190915250610f1c92505050565b50505050505050565b610973838383610db6565b6001600160a01b039182165f90815260016020908152604080832093909416825291909152205460ff1690565b6108ef82828080601f0160208091040260200160405190810160405280939291908181526020018383808284375f92019190915250610f5292505050565b6106ab88888888808060200260200160405190810160405280939291908181526020018383602002808284375f9201919091525050604080516020808c0282810182019093528b82529093508b92508a9182918501908490808284375f9201919091525050604080516020601f8b0181900481028201810190925289815292508991508890819084018382808284375f92019190915250610c9792505050565b336001600160a01b0386168114801590610b575750610b558682610a2b565b155b15610b885760405163711bec9160e11b81526001600160a01b03808316600483015287166024820152604401610703565b6105678686868686610b9d565b610609610f5e565b6001600160a01b038416610bc657604051632bfa23e760e11b81525f6004820152602401610703565b6001600160a01b038516610bee57604051626a0d4560e21b81525f6004820152602401610703565b60408051600180825260208201869052818301908152606082018590526080820190925290610a178787848487610c44565b60035460ff16156106095760405163d93c066560e01b815260040160405180910390fd5b610c5085858585610e4a565b6001600160a01b038416156107c25782513390600103610c895760208481015190840151610c82838989858589610f9b565b5050610567565b6105678187878787876110bc565b6001600160a01b038416610cc057604051632bfa23e760e11b81525f6004820152602401610703565b6001600160a01b038516610ce857604051626a0d4560e21b81525f6004820152602401610703565b6107c28585858585610c44565b6001600160a01b038316610d1d57604051626a0d4560e21b81525f6004820152602401610703565b610973835f848460405180602001604052805f815250610c44565b6001600160a01b038416610d6157604051632bfa23e760e11b81525f6004820152602401610703565b604080516001808252602082018690528183019081526060820185905260808201909252906105675f87848487610c44565b60035460ff1661060957604051638dfc202b60e01b815260040160405180910390fd5b6001600160a01b038216610dde5760405162ced3e160e81b81525f6004820152602401610703565b6001600160a01b038381165f81815260016020908152604080832094871680845294825291829020805460ff191686151590811790915591519182527f17307eab39ab6107e8899845ad3d59bd9653f200f220920489ca2b5937696c31910160405180910390a3505050565b610e52610c20565b610e5e848484846111a3565b50505050565b610e6c610d93565b6003805460ff191690557f5db9ee0a495bf2e6ff9c91a7834c1ba4fdd244a5e8aa4e537bd38aeae4b073aa335b6040516001600160a01b03909116815260200160405180910390a1565b6001600160a01b038316610ede57604051626a0d4560e21b81525f6004820152602401610703565b604080516001808252602082018590528183019081526060820184905260a082019092525f608082018181529192916107c291879185908590610c44565b6001600160a01b038416610f4557604051632bfa23e760e11b81525f6004820152602401610703565b610e5e5f85858585610c44565b60026108ef8282611d42565b610f66610c20565b6003805460ff191660011790557f62e78cea01bee320cd4e420270b5ea74000d11b0c9f74754ebdbfc544b05a258610e993390565b6001600160a01b0384163b156105675760405163f23a6e6160e01b81526001600160a01b0385169063f23a6e6190610fdf9089908990889088908890600401611dfd565b6020604051808303815f875af1925050508015611019575060408051601f3d908101601f1916820190925261101691810190611e41565b60015b611080573d808015611046576040519150601f19603f3d011682016040523d82523d5f602084013e61104b565b606091505b5080515f0361107857604051632bfa23e760e11b81526001600160a01b0386166004820152602401610703565b805181602001fd5b6001600160e01b0319811663f23a6e6160e01b14610a1757604051632bfa23e760e11b81526001600160a01b0386166004820152602401610703565b6001600160a01b0384163b156105675760405163bc197c8160e01b81526001600160a01b0385169063bc197c81906111009089908990889088908890600401611e5c565b6020604051808303815f875af192505050801561113a575060408051601f3d908101601f1916820190925261113791810190611e41565b60015b611167573d808015611046576040519150601f19603f3d011682016040523d82523d5f602084013e61104b565b6001600160e01b0319811663bc197c8160e01b14610a1757604051632bfa23e760e11b81526001600160a01b0386166004820152602401610703565b80518251146111d25781518151604051635b05999160e01b815260048101929092526024820152604401610703565b335f5b83518110156112dd576020818102858101820151908501909101516001600160a01b03881615611286575f828152602081815260408083206001600160a01b038c16845290915290205481811015611260576040516303dee4c560e01b81526001600160a01b038a166004820152602481018290526044810183905260648101849052608401610703565b5f838152602081815260408083206001600160a01b038d16845290915290209082900390555b6001600160a01b038716156112ca575f828152602081815260408083206001600160a01b038b168452909152812080548392906112c4908490611eb9565b90915550505b5050806112d690611ce5565b90506111d5565b50825160010361135d5760208301515f906020840151909150856001600160a01b0316876001600160a01b0316846001600160a01b03167fc3d58168c5ae7397731d063d5bbf3d657854427343f4c083240f7aacaa2d0f62858560405161134e929190918252602082015260400190565b60405180910390a450506107c2565b836001600160a01b0316856001600160a01b0316826001600160a01b03167f4a39dc06d4c0dbc64b70af90fd698a233a518aa5d07e595d983b8c0526c8f7fb86866040516113ac929190611ecc565b60405180910390a45050505050565b80356001600160a01b03811681146113d1575f80fd5b919050565b5f80604083850312156113e7575f80fd5b6113f0836113bb565b946020939093013593505050565b6001600160e01b031981168114611413575f80fd5b50565b5f60208284031215611426575f80fd5b8135611431816113fe565b9392505050565b5f8083601f840112611448575f80fd5b5081356001600160401b0381111561145e575f80fd5b602083019150836020828501011115611475575f80fd5b9250929050565b5f805f805f8060a08789031215611491575f80fd5b61149a876113bb565b95506114a8602088016113bb565b9450604087013593506060870135925060808701356001600160401b038111156114d0575f80fd5b6114dc89828a01611438565b979a9699509497509295939492505050565b5f602082840312156114fe575f80fd5b5035919050565b5f81518084525f5b818110156115295760208185018101518683018201520161150d565b505f602082860101526020601f19601f83011685010191505092915050565b602081525f6114316020830184611505565b5f8083601f84011261156a575f80fd5b5081356001600160401b03811115611580575f80fd5b6020830191508360208260051b8501011115611475575f80fd5b5f805f805f805f8060a0898b0312156115b1575f80fd5b6115ba896113bb565b97506115c860208a016113bb565b965060408901356001600160401b03808211156115e3575f80fd5b6115ef8c838d0161155a565b909850965060608b0135915080821115611607575f80fd5b6116138c838d0161155a565b909650945060808b013591508082111561162b575f80fd5b506116388b828c01611438565b999c989b5096995094979396929594505050565b634e487b7160e01b5f52604160045260245ffd5b604051601f8201601f191681016001600160401b03811182821017156116885761168861164c565b604052919050565b5f6001600160401b038211156116a8576116a861164c565b5060051b60200190565b5f82601f8301126116c1575f80fd5b813560206116d66116d183611690565b611660565b82815260059290921b840181019181810190868411156116f4575f80fd5b8286015b8481101561170f57803583529183019183016116f8565b509695505050505050565b5f82601f830112611729575f80fd5b81356001600160401b038111156117425761174261164c565b611755601f8201601f1916602001611660565b818152846020838601011115611769575f80fd5b816020850160208301375f918101602001919091529392505050565b5f805f805f60a08688031215611799575f80fd5b6117a2866113bb565b94506117b0602087016113bb565b935060408601356001600160401b03808211156117cb575f80fd5b6117d789838a016116b2565b945060608801359150808211156117ec575f80fd5b6117f889838a016116b2565b9350608088013591508082111561180d575f80fd5b5061181a8882890161171a565b9150509295509295909350565b5f805f805f6060868803121561183b575f80fd5b611844866113bb565b945060208601356001600160401b038082111561185f575f80fd5b61186b89838a0161155a565b90965094506040880135915080821115611883575f80fd5b506118908882890161155a565b969995985093965092949392505050565b5f80604083850312156118b2575f80fd5b82356001600160401b03808211156118c8575f80fd5b818501915085601f8301126118db575f80fd5b813560206118eb6116d183611690565b82815260059290921b84018101918181019089841115611909575f80fd5b948201945b8386101561192e5761191f866113bb565b8252948201949082019061190e565b96505086013592505080821115611943575f80fd5b50611950858286016116b2565b9150509250929050565b5f8151808452602080850194508084015f5b838110156119885781518752958201959082019060010161196c565b509495945050505050565b602081525f611431602083018461195a565b5f805f805f608086880312156119b9575f80fd5b6119c2866113bb565b9450602086013593506040860135925060608601356001600160401b038111156119ea575f80fd5b61189088828901611438565b803580151581146113d1575f80fd5b5f8060408385031215611a16575f80fd5b611a1f836113bb565b9150611a2d602084016119f6565b90509250929050565b5f805f805f8060808789031215611a4b575f80fd5b611a54876113bb565b9550611a62602088016113bb565b945060408701356001600160401b0380821115611a7d575f80fd5b611a898a838b0161155a565b90965094506060890135915080821115611aa1575f80fd5b506114dc89828a0161155a565b5f805f60608486031215611ac0575f80fd5b611ac9846113bb565b95602085013595506040909401359392505050565b5f805f805f805f6080888a031215611af4575f80fd5b611afd886113bb565b965060208801356001600160401b0380821115611b18575f80fd5b611b248b838c0161155a565b909850965060408a0135915080821115611b3c575f80fd5b611b488b838c0161155a565b909650945060608a0135915080821115611b60575f80fd5b50611b6d8a828b01611438565b989b979a50959850939692959293505050565b5f805f60608486031215611b92575f80fd5b611b9b846113bb565b9250611ba9602085016113bb565b9150611bb7604085016119f6565b90509250925092565b5f8060408385031215611bd1575f80fd5b611bda836113bb565b9150611a2d602084016113bb565b5f8060208385031215611bf9575f80fd5b82356001600160401b03811115611c0e575f80fd5b611c1a85828601611438565b90969095509350505050565b5f805f805f60a08688031215611c3a575f80fd5b611c43866113bb565b9450611c51602087016113bb565b9350604086013592506060860135915060808601356001600160401b03811115611c79575f80fd5b61181a8882890161171a565b600181811c90821680611c9957607f821691505b602082108103611cb757634e487b7160e01b5f52602260045260245ffd5b50919050565b634e487b7160e01b5f52603260045260245ffd5b634e487b7160e01b5f52601160045260245ffd5b5f60018201611cf657611cf6611cd1565b5060010190565b601f821115610973575f81815260208120601f850160051c81016020861015611d235750805b601f850160051c820191505b8181101561056757828155600101611d2f565b81516001600160401b03811115611d5b57611d5b61164c565b611d6f81611d698454611c85565b84611cfd565b602080601f831160018114611da2575f8415611d8b5750858301515b5f19600386901b1c1916600185901b178555610567565b5f85815260208120601f198616915b82811015611dd057888601518255948401946001909101908401611db1565b5085821015611ded57878501515f19600388901b60f8161c191681555b5050505050600190811b01905550565b6001600160a01b03868116825285166020820152604081018490526060810183905260a0608082018190525f90611e3690830184611505565b979650505050505050565b5f60208284031215611e51575f80fd5b8151611431816113fe565b6001600160a01b0386811682528516602082015260a0604082018190525f90611e879083018661195a565b8281036060840152611e99818661195a565b90508281036080840152611ead8185611505565b98975050505050505050565b808201808211156104d0576104d0611cd1565b604081525f611ede604083018561195a565b8281036020840152611ef0818561195a565b9594505050505056fea2646970667358221220628edf8c72bd5d316a236ef3fa1553f40c7b841885ce007b3bb185bf98e17ff764736f6c63430008140033",
  "linkReferences": {},
  "deployedLinkReferences": {}
}