{
  "_format": "hh-sol-artifact-1",
  "contractName": "$EnumerableMap",
  "sourceName": "contracts-exposed/utils/structs/EnumerableMap.sol",
  "abi": [
    {
      "inputs": [],
      "stateMutability": "payable",
      "type": "constructor"
    },
    {
      "inputs": [
        {
          "internalType": "bytes32",
          "name": "key",
          "type": "bytes32"
        }
      ],
      "name": "EnumerableMapNonexistentKey",
      "type": "error"
    },
    {
      "anonymous": false,
      "inputs": [
        {
          "indexed": false,
          "internalType": "bool",
          "name": "ret0",
          "type": "bool"
        }
      ],
      "name": "return$remove_EnumerableMap_AddressToUintMap_address",
      "type": "event"
    },
    {
      "anonymous": false,
      "inputs": [
        {
          "indexed": false,
          "internalType": "bool",
          "name": "ret0",
          "type": "bool"
        }
      ],
      "name": "return$remove_EnumerableMap_Bytes32ToBytes32Map_bytes32",
      "type": "event"
    },
    {
      "anonymous": false,
      "inputs": [
        {
          "indexed": false,
          "internalType": "bool",
          "name": "ret0",
          "type": "bool"
        }
      ],
      "name": "return$remove_EnumerableMap_Bytes32ToUintMap_bytes32",
      "type": "event"
    },
    {
      "anonymous": false,
      "inputs": [
        {
          "indexed": false,
          "internalType": "bool",
          "name": "ret0",
          "type": "bool"
        }
      ],
      "name": "return$remove_EnumerableMap_UintToAddressMap_uint256",
      "type": "event"
    },
    {
      "anonymous": false,
      "inputs": [
        {
          "indexed": false,
          "internalType": "bool",
          "name": "ret0",
          "type": "bool"
        }
      ],
      "name": "return$remove_EnumerableMap_UintToUintMap_uint256",
      "type": "event"
    },
    {
      "anonymous": false,
      "inputs": [
        {
          "indexed": false,
          "internalType": "bool",
          "name": "ret0",
          "type": "bool"
        }
      ],
      "name": "return$set_EnumerableMap_AddressToUintMap_address_uint256",
      "type": "event"
    },
    {
      "anonymous": false,
      "inputs": [
        {
          "indexed": false,
          "internalType": "bool",
          "name": "ret0",
          "type": "bool"
        }
      ],
      "name": "return$set_EnumerableMap_Bytes32ToBytes32Map_bytes32_bytes32",
      "type": "event"
    },
    {
      "anonymous": false,
      "inputs": [
        {
          "indexed": false,
          "internalType": "bool",
          "name": "ret0",
          "type": "bool"
        }
      ],
      "name": "return$set_EnumerableMap_Bytes32ToUintMap_bytes32_uint256",
      "type": "event"
    },
    {
      "anonymous": false,
      "inputs": [
        {
          "indexed": false,
          "internalType": "bool",
          "name": "ret0",
          "type": "bool"
        }
      ],
      "name": "return$set_EnumerableMap_UintToAddressMap_uint256_address",
      "type": "event"
    },
    {
      "anonymous": false,
      "inputs": [
        {
          "indexed": false,
          "internalType": "bool",
          "name": "ret0",
          "type": "bool"
        }
      ],
      "name": "return$set_EnumerableMap_UintToUintMap_uint256_uint256",
      "type": "event"
    },
    {
      "inputs": [
        {
          "internalType": "uint256",
          "name": "map",
          "type": "uint256"
        },
        {
          "internalType": "uint256",
          "name": "index",
          "type": "uint256"
        }
      ],
      "name": "$at_EnumerableMap_AddressToUintMap",
      "outputs": [
        {
          "internalType": "address",
          "name": "ret0",
          "type": "address"
        },
        {
          "internalType": "uint256",
          "name": "ret1",
          "type": "uint256"
        }
      ],
      "stateMutability": "view",
      "type": "function"
    },
    {
      "inputs": [
        {
          "internalType": "uint256",
          "name": "map",
          "type": "uint256"
        },
        {
          "internalType": "uint256",
          "name": "index",
          "type": "uint256"
        }
      ],
      "name": "$at_EnumerableMap_Bytes32ToBytes32Map",
      "outputs": [
        {
          "internalType": "bytes32",
          "name": "ret0",
          "type": "bytes32"
        },
        {
          "internalType": "bytes32",
          "name": "ret1",
          "type": "bytes32"
        }
      ],
      "stateMutability": "view",
      "type": "function"
    },
    {
      "inputs": [
        {
          "internalType": "uint256",
          "name": "map",
          "type": "uint256"
        },
        {
          "internalType": "uint256",
          "name": "index",
          "type": "uint256"
        }
      ],
      "name": "$at_EnumerableMap_Bytes32ToUintMap",
      "outputs": [
        {
          "internalType": "bytes32",
          "name": "ret0",
          "type": "bytes32"
        },
        {
          "internalType": "uint256",
          "name": "ret1",
          "type": "uint256"
        }
      ],
      "stateMutability": "view",
      "type": "function"
    },
    {
      "inputs": [
        {
          "internalType": "uint256",
          "name": "map",
          "type": "uint256"
        },
        {
          "internalType": "uint256",
          "name": "index",
          "type": "uint256"
        }
      ],
      "name": "$at_EnumerableMap_UintToAddressMap",
      "outputs": [
        {
          "internalType": "uint256",
          "name": "ret0",
          "type": "uint256"
        },
        {
          "internalType": "address",
          "name": "ret1",
          "type": "address"
        }
      ],
      "stateMutability": "view",
      "type": "function"
    },
    {
      "inputs": [
        {
          "internalType": "uint256",
          "name": "map",
          "type": "uint256"
        },
        {
          "internalType": "uint256",
          "name": "index",
          "type": "uint256"
        }
      ],
      "name": "$at_EnumerableMap_UintToUintMap",
      "outputs": [
        {
          "internalType": "uint256",
          "name": "ret0",
          "type": "uint256"
        },
        {
          "internalType": "uint256",
          "name": "ret1",
          "type": "uint256"
        }
      ],
      "stateMutability": "view",
      "type": "function"
    },
    {
      "inputs": [
        {
          "internalType": "uint256",
          "name": "map",
          "type": "uint256"
        },
        {
          "internalType": "address",
          "name": "key",
          "type": "address"
        }
      ],
      "name": "$contains",
      "outputs": [
        {
          "internalType": "bool",
          "name": "ret0",
          "type": "bool"
        }
      ],
      "stateMutability": "view",
      "type": "function"
    },
    {
      "inputs": [
        {
          "internalType": "uint256",
          "name": "map",
          "type": "uint256"
        },
        {
          "internalType": "bytes32",
          "name": "key",
          "type": "bytes32"
        }
      ],
      "name": "$contains_EnumerableMap_Bytes32ToBytes32Map",
      "outputs": [
        {
          "internalType": "bool",
          "name": "ret0",
          "type": "bool"
        }
      ],
      "stateMutability": "view",
      "type": "function"
    },
    {
      "inputs": [
        {
          "internalType": "uint256",
          "name": "map",
          "type": "uint256"
        },
        {
          "internalType": "bytes32",
          "name": "key",
          "type": "bytes32"
        }
      ],
      "name": "$contains_EnumerableMap_Bytes32ToUintMap",
      "outputs": [
        {
          "internalType": "bool",
          "name": "ret0",
          "type": "bool"
        }
      ],
      "stateMutability": "view",
      "type": "function"
    },
    {
      "inputs": [
        {
          "internalType": "uint256",
          "name": "map",
          "type": "uint256"
        },
        {
          "internalType": "uint256",
          "name": "key",
          "type": "uint256"
        }
      ],
      "name": "$contains_EnumerableMap_UintToAddressMap",
      "outputs": [
        {
          "internalType": "bool",
          "name": "ret0",
          "type": "bool"
        }
      ],
      "stateMutability": "view",
      "type": "function"
    },
    {
      "inputs": [
        {
          "internalType": "uint256",
          "name": "map",
          "type": "uint256"
        },
        {
          "internalType": "uint256",
          "name": "key",
          "type": "uint256"
        }
      ],
      "name": "$contains_EnumerableMap_UintToUintMap",
      "outputs": [
        {
          "internalType": "bool",
          "name": "ret0",
          "type": "bool"
        }
      ],
      "stateMutability": "view",
      "type": "function"
    },
    {
      "inputs": [
        {
          "internalType": "uint256",
          "name": "map",
          "type": "uint256"
        },
        {
          "internalType": "address",
          "name": "key",
          "type": "address"
        }
      ],
      "name": "$get",
      "outputs": [
        {
          "internalType": "uint256",
          "name": "ret0",
          "type": "uint256"
        }
      ],
      "stateMutability": "view",
      "type": "function"
    },
    {
      "inputs": [
        {
          "internalType": "uint256",
          "name": "map",
          "type": "uint256"
        },
        {
          "internalType": "bytes32",
          "name": "key",
          "type": "bytes32"
        }
      ],
      "name": "$get_EnumerableMap_Bytes32ToBytes32Map",
      "outputs": [
        {
          "internalType": "bytes32",
          "name": "ret0",
          "type": "bytes32"
        }
      ],
      "stateMutability": "view",
      "type": "function"
    },
    {
      "inputs": [
        {
          "internalType": "uint256",
          "name": "map",
          "type": "uint256"
        },
        {
          "internalType": "bytes32",
          "name": "key",
          "type": "bytes32"
        }
      ],
      "name": "$get_EnumerableMap_Bytes32ToUintMap",
      "outputs": [
        {
          "internalType": "uint256",
          "name": "ret0",
          "type": "uint256"
        }
      ],
      "stateMutability": "view",
      "type": "function"
    },
    {
      "inputs": [
        {
          "internalType": "uint256",
          "name": "map",
          "type": "uint256"
        },
        {
          "internalType": "uint256",
          "name": "key",
          "type": "uint256"
        }
      ],
      "name": "$get_EnumerableMap_UintToAddressMap",
      "outputs": [
        {
          "internalType": "address",
          "name": "ret0",
          "type": "address"
        }
      ],
      "stateMutability": "view",
      "type": "function"
    },
    {
      "inputs": [
        {
          "internalType": "uint256",
          "name": "map",
          "type": "uint256"
        },
        {
          "internalType": "uint256",
          "name": "key",
          "type": "uint256"
        }
      ],
      "name": "$get_EnumerableMap_UintToUintMap",
      "outputs": [
        {
          "internalType": "uint256",
          "name": "ret0",
          "type": "uint256"
        }
      ],
      "stateMutability": "view",
      "type": "function"
    },
    {
      "inputs": [
        {
          "internalType": "uint256",
          "name": "map",
          "type": "uint256"
        }
      ],
      "name": "$keys_EnumerableMap_AddressToUintMap",
      "outputs": [
        {
          "internalType": "address[]",
          "name": "ret0",
          "type": "address[]"
        }
      ],
      "stateMutability": "view",
      "type": "function"
    },
    {
      "inputs": [
        {
          "internalType": "uint256",
          "name": "map",
          "type": "uint256"
        }
      ],
      "name": "$keys_EnumerableMap_Bytes32ToBytes32Map",
      "outputs": [
        {
          "internalType": "bytes32[]",
          "name": "ret0",
          "type": "bytes32[]"
        }
      ],
      "stateMutability": "view",
      "type": "function"
    },
    {
      "inputs": [
        {
          "internalType": "uint256",
          "name": "map",
          "type": "uint256"
        }
      ],
      "name": "$keys_EnumerableMap_Bytes32ToUintMap",
      "outputs": [
        {
          "internalType": "bytes32[]",
          "name": "ret0",
          "type": "bytes32[]"
        }
      ],
      "stateMutability": "view",
      "type": "function"
    },
    {
      "inputs": [
        {
          "internalType": "uint256",
          "name": "map",
          "type": "uint256"
        }
      ],
      "name": "$keys_EnumerableMap_UintToAddressMap",
      "outputs": [
        {
          "internalType": "uint256[]",
          "name": "ret0",
          "type": "uint256[]"
        }
      ],
      "stateMutability": "view",
      "type": "function"
    },
    {
      "inputs": [
        {
          "internalType": "uint256",
          "name": "map",
          "type": "uint256"
        }
      ],
      "name": "$keys_EnumerableMap_UintToUintMap",
      "outputs": [
        {
          "internalType": "uint256[]",
          "name": "ret0",
          "type": "uint256[]"
        }
      ],
      "stateMutability": "view",
      "type": "function"
    },
    {
      "inputs": [
        {
          "internalType": "uint256",
          "name": "map",
          "type": "uint256"
        }
      ],
      "name": "$length_EnumerableMap_AddressToUintMap",
      "outputs": [
        {
          "internalType": "uint256",
          "name": "ret0",
          "type": "uint256"
        }
      ],
      "stateMutability": "view",
      "type": "function"
    },
    {
      "inputs": [
        {
          "internalType": "uint256",
          "name": "map",
          "type": "uint256"
        }
      ],
      "name": "$length_EnumerableMap_Bytes32ToBytes32Map",
      "outputs": [
        {
          "internalType": "uint256",
          "name": "ret0",
          "type": "uint256"
        }
      ],
      "stateMutability": "view",
      "type": "function"
    },
    {
      "inputs": [
        {
          "internalType": "uint256",
          "name": "map",
          "type": "uint256"
        }
      ],
      "name": "$length_EnumerableMap_Bytes32ToUintMap",
      "outputs": [
        {
          "internalType": "uint256",
          "name": "ret0",
          "type": "uint256"
        }
      ],
      "stateMutability": "view",
      "type": "function"
    },
    {
      "inputs": [
        {
          "internalType": "uint256",
          "name": "map",
          "type": "uint256"
        }
      ],
      "name": "$length_EnumerableMap_UintToAddressMap",
      "outputs": [
        {
          "internalType": "uint256",
          "name": "ret0",
          "type": "uint256"
        }
      ],
      "stateMutability": "view",
      "type": "function"
    },
    {
      "inputs": [
        {
          "internalType": "uint256",
          "name": "map",
          "type": "uint256"
        }
      ],
      "name": "$length_EnumerableMap_UintToUintMap",
      "outputs": [
        {
          "internalType": "uint256",
          "name": "ret0",
          "type": "uint256"
        }
      ],
      "stateMutability": "view",
      "type": "function"
    },
    {
      "inputs": [
        {
          "internalType": "uint256",
          "name": "map",
          "type": "uint256"
        },
        {
          "internalType": "address",
          "name": "key",
          "type": "address"
        }
      ],
      "name": "$remove",
      "outputs": [
        {
          "internalType": "bool",
          "name": "ret0",
          "type": "bool"
        }
      ],
      "stateMutability": "payable",
      "type": "function"
    },
    {
      "inputs": [
        {
          "internalType": "uint256",
          "name": "map",
          "type": "uint256"
        },
        {
          "internalType": "bytes32",
          "name": "key",
          "type": "bytes32"
        }
      ],
      "name": "$remove_EnumerableMap_Bytes32ToBytes32Map",
      "outputs": [
        {
          "internalType": "bool",
          "name": "ret0",
          "type": "bool"
        }
      ],
      "stateMutability": "payable",
      "type": "function"
    },
    {
      "inputs": [
        {
          "internalType": "uint256",
          "name": "map",
          "type": "uint256"
        },
        {
          "internalType": "bytes32",
          "name": "key",
          "type": "bytes32"
        }
      ],
      "name": "$remove_EnumerableMap_Bytes32ToUintMap",
      "outputs": [
        {
          "internalType": "bool",
          "name": "ret0",
          "type": "bool"
        }
      ],
      "stateMutability": "payable",
      "type": "function"
    },
    {
      "inputs": [
        {
          "internalType": "uint256",
          "name": "map",
          "type": "uint256"
        },
        {
          "internalType": "uint256",
          "name": "key",
          "type": "uint256"
        }
      ],
      "name": "$remove_EnumerableMap_UintToAddressMap",
      "outputs": [
        {
          "internalType": "bool",
          "name": "ret0",
          "type": "bool"
        }
      ],
      "stateMutability": "payable",
      "type": "function"
    },
    {
      "inputs": [
        {
          "internalType": "uint256",
          "name": "map",
          "type": "uint256"
        },
        {
          "internalType": "uint256",
          "name": "key",
          "type": "uint256"
        }
      ],
      "name": "$remove_EnumerableMap_UintToUintMap",
      "outputs": [
        {
          "internalType": "bool",
          "name": "ret0",
          "type": "bool"
        }
      ],
      "stateMutability": "payable",
      "type": "function"
    },
    {
      "inputs": [
        {
          "internalType": "uint256",
          "name": "map",
          "type": "uint256"
        },
        {
          "internalType": "uint256",
          "name": "key",
          "type": "uint256"
        },
        {
          "internalType": "address",
          "name": "value",
          "type": "address"
        }
      ],
      "name": "$set",
      "outputs": [
        {
          "internalType": "bool",
          "name": "ret0",
          "type": "bool"
        }
      ],
      "stateMutability": "payable",
      "type": "function"
    },
    {
      "inputs": [
        {
          "internalType": "uint256",
          "name": "map",
          "type": "uint256"
        },
        {
          "internalType": "address",
          "name": "key",
          "type": "address"
        },
        {
          "internalType": "uint256",
          "name": "value",
          "type": "uint256"
        }
      ],
      "name": "$set",
      "outputs": [
        {
          "internalType": "bool",
          "name": "ret0",
          "type": "bool"
        }
      ],
      "stateMutability": "payable",
      "type": "function"
    },
    {
      "inputs": [
        {
          "internalType": "uint256",
          "name": "map",
          "type": "uint256"
        },
        {
          "internalType": "bytes32",
          "name": "key",
          "type": "bytes32"
        },
        {
          "internalType": "bytes32",
          "name": "value",
          "type": "bytes32"
        }
      ],
      "name": "$set",
      "outputs": [
        {
          "internalType": "bool",
          "name": "ret0",
          "type": "bool"
        }
      ],
      "stateMutability": "payable",
      "type": "function"
    },
    {
      "inputs": [
        {
          "internalType": "uint256",
          "name": "map",
          "type": "uint256"
        },
        {
          "internalType": "bytes32",
          "name": "key",
          "type": "bytes32"
        },
        {
          "internalType": "uint256",
          "name": "value",
          "type": "uint256"
        }
      ],
      "name": "$set",
      "outputs": [
        {
          "internalType": "bool",
          "name": "ret0",
          "type": "bool"
        }
      ],
      "stateMutability": "payable",
      "type": "function"
    },
    {
      "inputs": [
        {
          "internalType": "uint256",
          "name": "map",
          "type": "uint256"
        },
        {
          "internalType": "uint256",
          "name": "key",
          "type": "uint256"
        },
        {
          "internalType": "uint256",
          "name": "value",
          "type": "uint256"
        }
      ],
      "name": "$set",
      "outputs": [
        {
          "internalType": "bool",
          "name": "ret0",
          "type": "bool"
        }
      ],
      "stateMutability": "payable",
      "type": "function"
    },
    {
      "inputs": [
        {
          "internalType": "uint256",
          "name": "map",
          "type": "uint256"
        },
        {
          "internalType": "address",
          "name": "key",
          "type": "address"
        }
      ],
      "name": "$tryGet",
      "outputs": [
        {
          "internalType": "bool",
          "name": "ret0",
          "type": "bool"
        },
        {
          "internalType": "uint256",
          "name": "ret1",
          "type": "uint256"
        }
      ],
      "stateMutability": "view",
      "type": "function"
    },
    {
      "inputs": [
        {
          "internalType": "uint256",
          "name": "map",
          "type": "uint256"
        },
        {
          "internalType": "bytes32",
          "name": "key",
          "type": "bytes32"
        }
      ],
      "name": "$tryGet_EnumerableMap_Bytes32ToBytes32Map",
      "outputs": [
        {
          "internalType": "bool",
          "name": "ret0",
          "type": "bool"
        },
        {
          "internalType": "bytes32",
          "name": "ret1",
          "type": "bytes32"
        }
      ],
      "stateMutability": "view",
      "type": "function"
    },
    {
      "inputs": [
        {
          "internalType": "uint256",
          "name": "map",
          "type": "uint256"
        },
        {
          "internalType": "bytes32",
          "name": "key",
          "type": "bytes32"
        }
      ],
      "name": "$tryGet_EnumerableMap_Bytes32ToUintMap",
      "outputs": [
        {
          "internalType": "bool",
          "name": "ret0",
          "type": "bool"
        },
        {
          "internalType": "uint256",
          "name": "ret1",
          "type": "uint256"
        }
      ],
      "stateMutability": "view",
      "type": "function"
    },
    {
      "inputs": [
        {
          "internalType": "uint256",
          "name": "map",
          "type": "uint256"
        },
        {
          "internalType": "uint256",
          "name": "key",
          "type": "uint256"
        }
      ],
      "name": "$tryGet_EnumerableMap_UintToAddressMap",
      "outputs": [
        {
          "internalType": "bool",
          "name": "ret0",
          "type": "bool"
        },
        {
          "internalType": "address",
          "name": "ret1",
          "type": "address"
        }
      ],
      "stateMutability": "view",
      "type": "function"
    },
    {
      "inputs": [
        {
          "internalType": "uint256",
          "name": "map",
          "type": "uint256"
        },
        {
          "internalType": "uint256",
          "name": "key",
          "type": "uint256"
        }
      ],
      "name": "$tryGet_EnumerableMap_UintToUintMap",
      "outputs": [
        {
          "internalType": "bool",
          "name": "ret0",
          "type": "bool"
        },
        {
          "internalType": "uint256",
          "name": "ret1",
          "type": "uint256"
        }
      ],
      "stateMutability": "view",
      "type": "function"
    },
    {
      "inputs": [],
      "name": "__hh_exposed_bytecode_marker",
      "outputs": [
        {
          "internalType": "bytes32",
          "name": "",
          "type": "bytes32"
        }
      ],
      "stateMutability": "view",
      "type": "function"
    },
    {
      "stateMutability": "payable",
      "type": "receive"
    }
  ],
  "bytecode": "0x60806040526113a7806100115f395ff3fe608060405260043610610240575f3560e01c80636f29f52c11610134578063c3ad41d4116100b3578063daeee38411610078578063daeee384146106ef578063e22b59af1461072d578063e44c48b314610740578063ef78c2b31461075f578063efd68f861461077e578063f6f614b21461079d575f80fd5b8063c3ad41d41461062c578063d13b4e7a14610660578063d25633671461069e578063d6bc3b76146106bd578063d87ce41a146106dc575f80fd5b8063953d5a65116100f9578063953d5a6514610580578063962dd11f146105935780639c1a6f79146105cf578063ab12284f146105ee578063b027b8711461060d575f80fd5b80636f29f52c146104f1578063745d480e1461050457806382561a2a14610523578063840d31ab146105425780638c66c49014610561575f80fd5b8063342db739116101c0578063421aefb411610185578063421aefb41461046e5780634d4e59071461048d57806350ea1cb8146104a05780635b115a48146104b35780636519b281146104d2575f80fd5b8063342db739146103c0578063346ff2e4146103e5578063389fb096146104045780633c9e5cd61461042357806341fec1651461044f575f80fd5b806324182492116102065780632418249214610302578063250892491461032157806327d24b9d1461034057806328999c4a1461035357806331f627301461038a575f80fd5b806203b69b1461024b578063039774a31461028057806308b26de5146102ad5780630af65226146102dc57806312917f98146102ef575f80fd5b3661024757005b5f80fd5b348015610256575f80fd5b5061026a61026536600461119e565b6107b0565b60405161027791906111b5565b60405180910390f35b34801561028b575f80fd5b5061029f61029a36600461119e565b6107cf565b604051908152602001610277565b3480156102b8575f80fd5b506102cc6102c73660046111f8565b6107e5565b6040519015158152602001610277565b6102cc6102ea366004611233565b610803565b6102cc6102fd3660046111f8565b61085f565b34801561030d575f80fd5b5061029f61031c36600461119e565b6108b9565b34801561032c575f80fd5b5061026a61033b36600461119e565b6108cf565b6102cc61034e366004611265565b6108e8565b34801561035e575f80fd5b5061037261036d3660046111f8565b610935565b6040516001600160a01b039091168152602001610277565b348015610395575f80fd5b506103a96103a43660046111f8565b61094c565b604080519215158352602083019190915201610277565b3480156103cb575f80fd5b5061029f6e1a185c991a185d0b595e1c1bdcd959608a1b81565b3480156103f0575f80fd5b506102cc6103ff3660046111f8565b610970565b34801561040f575f80fd5b5061029f61041e36600461119e565b610987565b34801561042e575f80fd5b5061044261043d36600461119e565b61099d565b6040516102779190611297565b34801561045a575f80fd5b5061029f61046936600461119e565b6109b6565b348015610479575f80fd5b5061029f6104883660046111f8565b6109cc565b6102cc61049b3660046111f8565b6109e3565b6102cc6104ae3660046112d7565b610a2f565b3480156104be575f80fd5b506103a96104cd366004611300565b610a7c565b3480156104dd575f80fd5b506102cc6104ec3660046111f8565b610a95565b6102cc6104ff3660046111f8565b610aac565b34801561050f575f80fd5b5061029f61051e36600461119e565b610af8565b34801561052e575f80fd5b5061026a61053d36600461119e565b610b0e565b34801561054d575f80fd5b506102cc61055c3660046111f8565b610b27565b34801561056c575f80fd5b5061029f61057b366004611300565b610b3e565b6102cc61058e3660046112d7565b610b55565b34801561059e575f80fd5b506105b26105ad3660046111f8565b610ba2565b604080519283526001600160a01b03909116602083015201610277565b3480156105da575f80fd5b506102cc6105e9366004611300565b610bbb565b3480156105f9575f80fd5b506103a96106083660046111f8565b610bd2565b348015610618575f80fd5b5061029f6106273660046111f8565b610beb565b348015610637575f80fd5b5061064b6106463660046111f8565b610c02565b60408051928352602083019190915201610277565b34801561066b575f80fd5b5061067f61067a3660046111f8565b610c1b565b604080516001600160a01b039093168352602083019190915201610277565b3480156106a9575f80fd5b5061064b6106b83660046111f8565b610c34565b3480156106c8575f80fd5b5061026a6106d736600461119e565b610c4d565b6102cc6106ea3660046111f8565b610c66565b3480156106fa575f80fd5b5061070e6107093660046111f8565b610cb2565b6040805192151583526001600160a01b03909116602083015201610277565b6102cc61073b366004611300565b610ccb565b34801561074b575f80fd5b506103a961075a3660046111f8565b610d17565b34801561076a575f80fd5b5061029f6107793660046111f8565b610d30565b348015610789575f80fd5b5061064b6107983660046111f8565b610d47565b6102cc6107ab3660046112d7565b610d60565b5f8181526004602052604090206060906107c990610dad565b92915050565b5f8181526002602052604081206107c990610db9565b5f8281526002602052604081206107fc9083610dc3565b9392505050565b5f83815260026020526040812061081b908484610dce565b90507fbfdd2ec9ceb252e1f945352134cc9c5489dada1ba35628fd5c5258f6f8537e5081604051610850911515815260200190565b60405180910390a19392505050565b5f8281526020819052604081206108769083610deb565b90507f899334193bc495c660b28e0f37de0df8d1c56c678d180c007f0179a4f4907b23816040516108ab911515815260200190565b60405180910390a192915050565b5f8181526004602052604081206107c990610db9565b5f8181526001602052604090206060906107c990610dad565b5f838152600360205260408120610900908484610e07565b90507f62b88f3541188a52543b634adf6722cc196c0dc2d40f1ab71b86f484eca4a7b481604051610850911515815260200190565b5f8281526002602052604081206107fc9083610e1c565b5f82815260046020526040812081906109659084610e27565b909590945092505050565b5f8281526001602052604081206107fc9083610dc3565b5f8181526020819052604081206107c990610e44565b5f8181526003602052604090206060906107c990610dad565b5f8181526001602052604081206107c990610db9565b5f8281526020819052604081206107fc9083610e4e565b5f8281526002602052604081206109fa9083610e98565b90507fc49bd67e0955d3151ed2780e7e63096a045b564b64cd95a33d8c6b403b93fdd8816040516108ab911515815260200190565b5f838152602081905260408120610a47908484610ea3565b90507fe545206912a7cdefeb6a76168befc4a002eeef1390931715a944b709f5a2290581604051610850911515815260200190565b5f82815260036020526040812081906109659084610ebf565b5f8281526004602052604081206107fc9083610dc3565b5f828152600460205260408120610ac39083610e98565b90507f831855cf252d16521b4badf0611f7d2826dbb746ccac67f0ff802e52f43a5000816040516108ab911515815260200190565b5f8181526003602052604081206107c990610db9565b5f8181526020819052604090206060906107c990610ed6565b5f8281526020819052604081206107fc9083610ee1565b5f8281526003602052604081206107fc9083610eec565b5f838152600460205260408120610b6d908484610f00565b90507f94e7afc878383aaa76130736c65c0c94a6fa28da219804a6352f86974792cec281604051610850911515815260200190565b5f82815260026020526040812081906109659084610f0c565b5f8281526003602052604081206107fc9083610f1a565b5f82815260016020526040812081906109659084610e27565b5f8281526004602052604081206107fc9083610e1c565b5f82815260046020526040812081906109659084610f0c565b5f82815260036020526040812081906109659084610f0c565b5f82815260016020526040812081906109659084610f0c565b5f8181526002602052604090206060906107c990610dad565b5f828152600160205260408120610c7d9083610e98565b90507f5a29c6c2013d22f6c8177abfa00db3474e2fc51e16288e55124ed408c2b7f640816040516108ab911515815260200190565b5f82815260026020526040812081906109659084610e27565b5f828152600360205260408120610ce29083610f2e565b90507f93c9005c992de518102186d7b002a76c8985c51e74ee342a58f922c68e282161816040516108ab911515815260200190565b5f82815260208190526040812081906109659084610f42565b5f8281526001602052604081206107fc9083610e1c565b5f82815260208190526040812081906109659084610f7a565b5f838152600160205260408120610d78908484610f00565b90507f33aa05776b12580a872871546ba9073d90c0dafed19b8a2c96bd24fd7ba1907181604051610850911515815260200190565b60605f6107fc83610ed6565b5f6107c982610e44565b5f6107fc8383610ee1565b5f610de384846001600160a01b038516610ea3565b949350505050565b5f81815260028301602052604081208190556107fc8383610fa3565b5f610de3846001600160a01b03851684610ea3565b5f6107fc8383610e4e565b5f808080610e358686610f42565b909450925050505b9250929050565b5f6107c982610fae565b5f81815260028301602052604081205480158015610e735750610e718484610ee1565b155b156107fc5760405163015ab34360e11b81526004810184905260240160405180910390fd5b5f6107fc8383610deb565b5f8281526002840160205260408120829055610de38484610fb7565b5f808080610e35866001600160a01b038716610f42565b60606107c982610fc2565b5f6107fc8383610fce565b5f6107fc836001600160a01b038416610e4e565b5f610de3848484610ea3565b5f808080610e358686610f7a565b5f6107fc836001600160a01b038416610ee1565b5f6107fc836001600160a01b038416610deb565b5f818152600283016020526040812054819080610f6f57610f638585610ee1565b92505f9150610e3d9050565b600192509050610e3d565b5f8080610f878585610fe5565b5f81815260029690960160205260409095205494959350505050565b5f6107fc8383610ff0565b5f6107c9825490565b5f6107fc83836110d3565b60605f6107fc8361111f565b5f81815260018301602052604081205415156107fc565b5f6107fc8383611178565b5f81815260018301602052604081205480156110ca575f61101260018361132a565b85549091505f906110259060019061132a565b9050818114611084575f865f01828154811061104357611043611349565b905f5260205f200154905080875f01848154811061106357611063611349565b5f918252602080832090910192909255918252600188019052604090208390555b85548690806110955761109561135d565b600190038181905f5260205f20015f90559055856001015f8681526020019081526020015f205f9055600193505050506107c9565b5f9150506107c9565b5f81815260018301602052604081205461111857508154600181810184555f8481526020808220909301849055845484825282860190935260409020919091556107c9565b505f6107c9565b6060815f0180548060200260200160405190810160405280929190818152602001828054801561116c57602002820191905f5260205f20905b815481526020019060010190808311611158575b50505050509050919050565b5f825f01828154811061118d5761118d611349565b905f5260205f200154905092915050565b5f602082840312156111ae575f80fd5b5035919050565b602080825282518282018190525f9190848201906040850190845b818110156111ec578351835292840192918401916001016111d0565b50909695505050505050565b5f8060408385031215611209575f80fd5b50508035926020909101359150565b80356001600160a01b038116811461122e575f80fd5b919050565b5f805f60608486031215611245575f80fd5b833592506020840135915061125c60408501611218565b90509250925092565b5f805f60608486031215611277575f80fd5b8335925061128760208501611218565b9150604084013590509250925092565b602080825282518282018190525f9190848201906040850190845b818110156111ec5783516001600160a01b0316835292840192918401916001016112b2565b5f805f606084860312156112e9575f80fd5b505081359360208301359350604090920135919050565b5f8060408385031215611311575f80fd5b8235915061132160208401611218565b90509250929050565b818103818111156107c957634e487b7160e01b5f52601160045260245ffd5b634e487b7160e01b5f52603260045260245ffd5b634e487b7160e01b5f52603160045260245ffdfea2646970667358221220198aeebdc60389aa4ba402f9ffb931a536397fa6e136a8eaa3c3ddab0ce2545564736f6c63430008140033",
  "linkReferences": {},
  "deployedLinkReferences": {}
}