{
  "_format": "hh-sol-artifact-1",
  "contractName": "$ERC1271WalletMock",
  "sourceName": "contracts-exposed/mocks/ERC1271WalletMock.sol",
  "abi": [
    {
      "inputs": [
        {
          "internalType": "address",
          "name": "originalOwner",
          "type": "address"
        }
      ],
      "stateMutability": "payable",
      "type": "constructor"
    },
    {
      "inputs": [],
      "name": "ECDSAInvalidSignature",
      "type": "error"
    },
    {
      "inputs": [
        {
          "internalType": "uint256",
          "name": "length",
          "type": "uint256"
        }
      ],
      "name": "ECDSAInvalidSignatureLength",
      "type": "error"
    },
    {
      "inputs": [
        {
          "internalType": "bytes32",
          "name": "s",
          "type": "bytes32"
        }
      ],
      "name": "ECDSAInvalidSignatureS",
      "type": "error"
    },
    {
      "inputs": [
        {
          "internalType": "address",
          "name": "owner",
          "type": "address"
        }
      ],
      "name": "OwnableInvalidOwner",
      "type": "error"
    },
    {
      "inputs": [
        {
          "internalType": "address",
          "name": "account",
          "type": "address"
        }
      ],
      "name": "OwnableUnauthorizedAccount",
      "type": "error"
    },
    {
      "anonymous": false,
      "inputs": [
        {
          "indexed": true,
          "internalType": "address",
          "name": "previousOwner",
          "type": "address"
        },
        {
          "indexed": true,
          "internalType": "address",
          "name": "newOwner",
          "type": "address"
        }
      ],
      "name": "OwnershipTransferred",
      "type": "event"
    },
    {
      "inputs": [],
      "name": "$_checkOwner",
      "outputs": [],
      "stateMutability": "view",
      "type": "function"
    },
    {
      "inputs": [],
      "name": "$_msgData",
      "outputs": [
        {
          "internalType": "bytes",
          "name": "ret0",
          "type": "bytes"
        }
      ],
      "stateMutability": "view",
      "type": "function"
    },
    {
      "inputs": [],
      "name": "$_msgSender",
      "outputs": [
        {
          "internalType": "address",
          "name": "ret0",
          "type": "address"
        }
      ],
      "stateMutability": "view",
      "type": "function"
    },
    {
      "inputs": [
        {
          "internalType": "address",
          "name": "newOwner",
          "type": "address"
        }
      ],
      "name": "$_transferOwnership",
      "outputs": [],
      "stateMutability": "nonpayable",
      "type": "function"
    },
    {
      "inputs": [],
      "name": "__hh_exposed_bytecode_marker",
      "outputs": [
        {
          "internalType": "bytes32",
          "name": "",
          "type": "bytes32"
        }
      ],
      "stateMutability": "view",
      "type": "function"
    },
    {
      "inputs": [
        {
          "internalType": "bytes32",
          "name": "hash",
          "type": "bytes32"
        },
        {
          "internalType": "bytes",
          "name": "signature",
          "type": "bytes"
        }
      ],
      "name": "isValidSignature",
      "outputs": [
        {
          "internalType": "bytes4",
          "name": "magicValue",
          "type": "bytes4"
        }
      ],
      "stateMutability": "view",
      "type": "function"
    },
    {
      "inputs": [],
      "name": "owner",
      "outputs": [
        {
          "internalType": "address",
          "name": "",
          "type": "address"
        }
      ],
      "stateMutability": "view",
      "type": "function"
    },
    {
      "inputs": [],
      "name": "renounceOwnership",
      "outputs": [],
      "stateMutability": "nonpayable",
      "type": "function"
    },
    {
      "inputs": [
        {
          "internalType": "address",
          "name": "newOwner",
          "type": "address"
        }
      ],
      "name": "transferOwnership",
      "outputs": [],
      "stateMutability": "nonpayable",
      "type": "function"
    },
    {
      "stateMutability": "payable",
      "type": "receive"
    }
  ],
  "bytecode": "0x608060405260405161075338038061075383398101604081905261002291610084565b808061002d81610035565b5050506100b1565b5f80546001600160a01b038381166001600160a01b0319831681178455604051919092169283917f8be0079c531659141344cd1fd0a4f28419497f9722a3daafe3b4186f6b6457e09190a35050565b5f60208284031215610094575f80fd5b81516001600160a01b03811681146100aa575f80fd5b9392505050565b610695806100be5f395ff3fe608060405260043610610087575f3560e01c8063715018a611610057578063715018a6146101495780638da5cb5b1461015f578063ebcca7071461017b578063f2fde38b1461018f578063fe1c9a24146101ae575f80fd5b80631626ba7e146100925780632904df29146100cf57806332cadf3c146100f5578063342db73914610116575f80fd5b3661008e57005b5f80fd5b34801561009d575f80fd5b506100b16100ac366004610525565b6101cd565b6040516001600160e01b031990911681526020015b60405180910390f35b3480156100da575f80fd5b50335b6040516001600160a01b0390911681526020016100c6565b348015610100575f80fd5b50610109610207565b6040516100c691906105da565b348015610121575f80fd5b5061013b6e1a185c991a185d0b595e1c1bdcd959608a1b81565b6040519081526020016100c6565b348015610154575f80fd5b5061015d610244565b005b34801561016a575f80fd5b505f546001600160a01b03166100dd565b348015610186575f80fd5b5061015d610257565b34801561019a575f80fd5b5061015d6101a9366004610625565b61025f565b3480156101b9575f80fd5b5061015d6101c8366004610625565b610295565b5f80546001600160a01b03166101e384846102a1565b6001600160a01b0316146101f7575f610200565b630b135d3f60e11b5b9392505050565b60605f368080601f0160208091040260200160405190810160405280939291908181526020018383808284375f9201919091525092949350505050565b61024c6102c9565b6102555f6102f5565b565b6102556102c9565b6102676102c9565b6001600160a01b03811661029557604051631e4fbdf760e01b81525f60048201526024015b60405180910390fd5b61029e816102f5565b50565b5f805f806102af8686610344565b9250925092506102bf828261038d565b5090949350505050565b5f546001600160a01b031633146102555760405163118cdaa760e01b815233600482015260240161028c565b5f80546001600160a01b038381166001600160a01b0319831681178455604051919092169283917f8be0079c531659141344cd1fd0a4f28419497f9722a3daafe3b4186f6b6457e09190a35050565b5f805f835160410361037b576020840151604085015160608601515f1a61036d88828585610449565b955095509550505050610386565b505081515f91506002905b9250925092565b5f8260038111156103a0576103a061064b565b036103a9575050565b60018260038111156103bd576103bd61064b565b036103db5760405163f645eedf60e01b815260040160405180910390fd5b60028260038111156103ef576103ef61064b565b036104105760405163fce698f760e01b81526004810182905260240161028c565b60038260038111156104245761042461064b565b03610445576040516335e2f38360e21b81526004810182905260240161028c565b5050565b5f80807f7fffffffffffffffffffffffffffffff5d576e7357a4501ddfe92f46681b20a084111561048257505f91506003905082610507565b604080515f808252602082018084528a905260ff891692820192909252606081018790526080810186905260019060a0016020604051602081039080840390855afa1580156104d3573d5f803e3d5ffd5b5050604051601f1901519150506001600160a01b0381166104fe57505f925060019150829050610507565b92505f91508190505b9450945094915050565b634e487b7160e01b5f52604160045260245ffd5b5f8060408385031215610536575f80fd5b82359150602083013567ffffffffffffffff80821115610554575f80fd5b818501915085601f830112610567575f80fd5b81358181111561057957610579610511565b604051601f8201601f19908116603f011681019083821181831017156105a1576105a1610511565b816040528281528860208487010111156105b9575f80fd5b826020860160208301375f6020848301015280955050505050509250929050565b5f6020808352835180828501525f5b81811015610605578581018301518582016040015282016105e9565b505f604082860101526040601f19601f8301168501019250505092915050565b5f60208284031215610635575f80fd5b81356001600160a01b0381168114610200575f80fd5b634e487b7160e01b5f52602160045260245ffdfea2646970667358221220563ef1606927bf37e9d9315555903a4d2091370ae66df67346ff50e0b828b2a464736f6c63430008140033",
  "linkReferences": {},
  "deployedLinkReferences": {}
}