{
  "_format": "hh-sol-artifact-1",
  "contractName": "$ERC1271MaliciousMock",
  "sourceName": "contracts-exposed/mocks/ERC1271WalletMock.sol",
  "abi": [
    {
      "inputs": [],
      "stateMutability": "payable",
      "type": "constructor"
    },
    {
      "inputs": [],
      "name": "__hh_exposed_bytecode_marker",
      "outputs": [
        {
          "internalType": "bytes32",
          "name": "",
          "type": "bytes32"
        }
      ],
      "stateMutability": "view",
      "type": "function"
    },
    {
      "inputs": [
        {
          "internalType": "bytes32",
          "name": "",
          "type": "bytes32"
        },
        {
          "internalType": "bytes",
          "name": "",
          "type": "bytes"
        }
      ],
      "name": "isValidSignature",
      "outputs": [
        {
          "internalType": "bytes4",
          "name": "",
          "type": "bytes4"
        }
      ],
      "stateMutability": "pure",
      "type": "function"
    },
    {
      "stateMutability": "payable",
      "type": "receive"
    }
  ],
  "bytecode": "0x60806040526101af806100115f395ff3fe60806040526004361061002b575f3560e01c80631626ba7e14610036578063342db73914610073575f80fd5b3661003257005b5f80fd5b348015610041575f80fd5b506100556100503660046100c4565b6100a6565b6040516001600160e01b031990911681526020015b60405180910390f35b34801561007e575f80fd5b506100986e1a185c991a185d0b595e1c1bdcd959608a1b81565b60405190815260200161006a565b5f80195f5260205ff35b634e487b7160e01b5f52604160045260245ffd5b5f80604083850312156100d5575f80fd5b82359150602083013567ffffffffffffffff808211156100f3575f80fd5b818501915085601f830112610106575f80fd5b813581811115610118576101186100b0565b604051601f8201601f19908116603f01168101908382118183101715610140576101406100b0565b81604052828152886020848701011115610158575f80fd5b826020860160208301375f602084830101528095505050505050925092905056fea26469706673582212202f1885bfb44034cb625efcde38f395aa7299fe443aa53a57f42cd39f53687a4c64736f6c63430008140033",
  "linkReferences": {},
  "deployedLinkReferences": {}
}