{
  "_format": "hh-sol-artifact-1",
  "contractName": "$ERC20Mock",
  "sourceName": "contracts-exposed/mocks/token/ERC20Mock.sol",
  "abi": [
    {
      "inputs": [],
      "stateMutability": "payable",
      "type": "constructor"
    },
    {
      "inputs": [
        {
          "internalType": "address",
          "name": "spender",
          "type": "address"
        },
        {
          "internalType": "uint256",
          "name": "currentAllowance",
          "type": "uint256"
        },
        {
          "internalType": "uint256",
          "name": "requestedDecrease",
          "type": "uint256"
        }
      ],
      "name": "ERC20FailedDecreaseAllowance",
      "type": "error"
    },
    {
      "inputs": [
        {
          "internalType": "address",
          "name": "spender",
          "type": "address"
        },
        {
          "internalType": "uint256",
          "name": "allowance",
          "type": "uint256"
        },
        {
          "internalType": "uint256",
          "name": "needed",
          "type": "uint256"
        }
      ],
      "name": "ERC20InsufficientAllowance",
      "type": "error"
    },
    {
      "inputs": [
        {
          "internalType": "address",
          "name": "sender",
          "type": "address"
        },
        {
          "internalType": "uint256",
          "name": "balance",
          "type": "uint256"
        },
        {
          "internalType": "uint256",
          "name": "needed",
          "type": "uint256"
        }
      ],
      "name": "ERC20InsufficientBalance",
      "type": "error"
    },
    {
      "inputs": [
        {
          "internalType": "address",
          "name": "approver",
          "type": "address"
        }
      ],
      "name": "ERC20InvalidApprover",
      "type": "error"
    },
    {
      "inputs": [
        {
          "internalType": "address",
          "name": "receiver",
          "type": "address"
        }
      ],
      "name": "ERC20InvalidReceiver",
      "type": "error"
    },
    {
      "inputs": [
        {
          "internalType": "address",
          "name": "sender",
          "type": "address"
        }
      ],
      "name": "ERC20InvalidSender",
      "type": "error"
    },
    {
      "inputs": [
        {
          "internalType": "address",
          "name": "spender",
          "type": "address"
        }
      ],
      "name": "ERC20InvalidSpender",
      "type": "error"
    },
    {
      "anonymous": false,
      "inputs": [
        {
          "indexed": true,
          "internalType": "address",
          "name": "owner",
          "type": "address"
        },
        {
          "indexed": true,
          "internalType": "address",
          "name": "spender",
          "type": "address"
        },
        {
          "indexed": false,
          "internalType": "uint256",
          "name": "value",
          "type": "uint256"
        }
      ],
      "name": "Approval",
      "type": "event"
    },
    {
      "anonymous": false,
      "inputs": [
        {
          "indexed": true,
          "internalType": "address",
          "name": "from",
          "type": "address"
        },
        {
          "indexed": true,
          "internalType": "address",
          "name": "to",
          "type": "address"
        },
        {
          "indexed": false,
          "internalType": "uint256",
          "name": "value",
          "type": "uint256"
        }
      ],
      "name": "Transfer",
      "type": "event"
    },
    {
      "inputs": [
        {
          "internalType": "address",
          "name": "owner",
          "type": "address"
        },
        {
          "internalType": "address",
          "name": "spender",
          "type": "address"
        },
        {
          "internalType": "uint256",
          "name": "value",
          "type": "uint256"
        },
        {
          "internalType": "bool",
          "name": "emitEvent",
          "type": "bool"
        }
      ],
      "name": "$_approve",
      "outputs": [],
      "stateMutability": "nonpayable",
      "type": "function"
    },
    {
      "inputs": [
        {
          "internalType": "address",
          "name": "owner",
          "type": "address"
        },
        {
          "internalType": "address",
          "name": "spender",
          "type": "address"
        },
        {
          "internalType": "uint256",
          "name": "value",
          "type": "uint256"
        }
      ],
      "name": "$_approve",
      "outputs": [],
      "stateMutability": "nonpayable",
      "type": "function"
    },
    {
      "inputs": [
        {
          "internalType": "address",
          "name": "account",
          "type": "address"
        },
        {
          "internalType": "uint256",
          "name": "value",
          "type": "uint256"
        }
      ],
      "name": "$_burn",
      "outputs": [],
      "stateMutability": "nonpayable",
      "type": "function"
    },
    {
      "inputs": [
        {
          "internalType": "address",
          "name": "account",
          "type": "address"
        },
        {
          "internalType": "uint256",
          "name": "value",
          "type": "uint256"
        }
      ],
      "name": "$_mint",
      "outputs": [],
      "stateMutability": "nonpayable",
      "type": "function"
    },
    {
      "inputs": [],
      "name": "$_msgData",
      "outputs": [
        {
          "internalType": "bytes",
          "name": "ret0",
          "type": "bytes"
        }
      ],
      "stateMutability": "view",
      "type": "function"
    },
    {
      "inputs": [],
      "name": "$_msgSender",
      "outputs": [
        {
          "internalType": "address",
          "name": "ret0",
          "type": "address"
        }
      ],
      "stateMutability": "view",
      "type": "function"
    },
    {
      "inputs": [
        {
          "internalType": "address",
          "name": "owner",
          "type": "address"
        },
        {
          "internalType": "address",
          "name": "spender",
          "type": "address"
        },
        {
          "internalType": "uint256",
          "name": "value",
          "type": "uint256"
        }
      ],
      "name": "$_spendAllowance",
      "outputs": [],
      "stateMutability": "nonpayable",
      "type": "function"
    },
    {
      "inputs": [
        {
          "internalType": "address",
          "name": "from",
          "type": "address"
        },
        {
          "internalType": "address",
          "name": "to",
          "type": "address"
        },
        {
          "internalType": "uint256",
          "name": "value",
          "type": "uint256"
        }
      ],
      "name": "$_transfer",
      "outputs": [],
      "stateMutability": "nonpayable",
      "type": "function"
    },
    {
      "inputs": [
        {
          "internalType": "address",
          "name": "from",
          "type": "address"
        },
        {
          "internalType": "address",
          "name": "to",
          "type": "address"
        },
        {
          "internalType": "uint256",
          "name": "value",
          "type": "uint256"
        }
      ],
      "name": "$_update",
      "outputs": [],
      "stateMutability": "nonpayable",
      "type": "function"
    },
    {
      "inputs": [],
      "name": "__hh_exposed_bytecode_marker",
      "outputs": [
        {
          "internalType": "bytes32",
          "name": "",
          "type": "bytes32"
        }
      ],
      "stateMutability": "view",
      "type": "function"
    },
    {
      "inputs": [
        {
          "internalType": "address",
          "name": "owner",
          "type": "address"
        },
        {
          "internalType": "address",
          "name": "spender",
          "type": "address"
        }
      ],
      "name": "allowance",
      "outputs": [
        {
          "internalType": "uint256",
          "name": "",
          "type": "uint256"
        }
      ],
      "stateMutability": "view",
      "type": "function"
    },
    {
      "inputs": [
        {
          "internalType": "address",
          "name": "spender",
          "type": "address"
        },
        {
          "internalType": "uint256",
          "name": "value",
          "type": "uint256"
        }
      ],
      "name": "approve",
      "outputs": [
        {
          "internalType": "bool",
          "name": "",
          "type": "bool"
        }
      ],
      "stateMutability": "nonpayable",
      "type": "function"
    },
    {
      "inputs": [
        {
          "internalType": "address",
          "name": "account",
          "type": "address"
        }
      ],
      "name": "balanceOf",
      "outputs": [
        {
          "internalType": "uint256",
          "name": "",
          "type": "uint256"
        }
      ],
      "stateMutability": "view",
      "type": "function"
    },
    {
      "inputs": [
        {
          "internalType": "address",
          "name": "account",
          "type": "address"
        },
        {
          "internalType": "uint256",
          "name": "amount",
          "type": "uint256"
        }
      ],
      "name": "burn",
      "outputs": [],
      "stateMutability": "nonpayable",
      "type": "function"
    },
    {
      "inputs": [],
      "name": "decimals",
      "outputs": [
        {
          "internalType": "uint8",
          "name": "",
          "type": "uint8"
        }
      ],
      "stateMutability": "view",
      "type": "function"
    },
    {
      "inputs": [
        {
          "internalType": "address",
          "name": "spender",
          "type": "address"
        },
        {
          "internalType": "uint256",
          "name": "requestedDecrease",
          "type": "uint256"
        }
      ],
      "name": "decreaseAllowance",
      "outputs": [
        {
          "internalType": "bool",
          "name": "",
          "type": "bool"
        }
      ],
      "stateMutability": "nonpayable",
      "type": "function"
    },
    {
      "inputs": [
        {
          "internalType": "address",
          "name": "spender",
          "type": "address"
        },
        {
          "internalType": "uint256",
          "name": "addedValue",
          "type": "uint256"
        }
      ],
      "name": "increaseAllowance",
      "outputs": [
        {
          "internalType": "bool",
          "name": "",
          "type": "bool"
        }
      ],
      "stateMutability": "nonpayable",
      "type": "function"
    },
    {
      "inputs": [
        {
          "internalType": "address",
          "name": "account",
          "type": "address"
        },
        {
          "internalType": "uint256",
          "name": "amount",
          "type": "uint256"
        }
      ],
      "name": "mint",
      "outputs": [],
      "stateMutability": "nonpayable",
      "type": "function"
    },
    {
      "inputs": [],
      "name": "name",
      "outputs": [
        {
          "internalType": "string",
          "name": "",
          "type": "string"
        }
      ],
      "stateMutability": "view",
      "type": "function"
    },
    {
      "inputs": [],
      "name": "symbol",
      "outputs": [
        {
          "internalType": "string",
          "name": "",
          "type": "string"
        }
      ],
      "stateMutability": "view",
      "type": "function"
    },
    {
      "inputs": [],
      "name": "totalSupply",
      "outputs": [
        {
          "internalType": "uint256",
          "name": "",
          "type": "uint256"
        }
      ],
      "stateMutability": "view",
      "type": "function"
    },
    {
      "inputs": [
        {
          "internalType": "address",
          "name": "to",
          "type": "address"
        },
        {
          "internalType": "uint256",
          "name": "value",
          "type": "uint256"
        }
      ],
      "name": "transfer",
      "outputs": [
        {
          "internalType": "bool",
          "name": "",
          "type": "bool"
        }
      ],
      "stateMutability": "nonpayable",
      "type": "function"
    },
    {
      "inputs": [
        {
          "internalType": "address",
          "name": "from",
          "type": "address"
        },
        {
          "internalType": "address",
          "name": "to",
          "type": "address"
        },
        {
          "internalType": "uint256",
          "name": "value",
          "type": "uint256"
        }
      ],
      "name": "transferFrom",
      "outputs": [
        {
          "internalType": "bool",
          "name": "",
          "type": "bool"
        }
      ],
      "stateMutability": "nonpayable",
      "type": "function"
    },
    {
      "stateMutability": "payable",
      "type": "receive"
    }
  ],
  "bytecode": "0x600960809081526845524332304d6f636b60b81b60a052610100604052600460c0908152634532304d60e01b60e05260036200003c8382620000f4565b5060046200004b8282620000f4565b505050620001bc565b634e487b7160e01b5f52604160045260245ffd5b600181811c908216806200007d57607f821691505b6020821081036200009c57634e487b7160e01b5f52602260045260245ffd5b50919050565b601f821115620000ef575f81815260208120601f850160051c81016020861015620000ca5750805b601f850160051c820191505b81811015620000eb57828155600101620000d6565b5050505b505050565b81516001600160401b0381111562000110576200011062000054565b620001288162000121845462000068565b84620000a2565b602080601f8311600181146200015e575f8415620001465750858301515b5f19600386901b1c1916600185901b178555620000eb565b5f85815260208120601f198616915b828110156200018e578886015182559484019460019091019084016200016d565b5085821015620001ac57878501515f19600388901b60f8161c191681555b5050505050600190811b01905550565b610b2a80620001ca5f395ff3fe60806040526004361061013f575f3560e01c80636855a178116100b3578063a9059cbb1161006d578063a9059cbb14610371578063b2331d7d14610390578063cc461d621461028e578063dd62ed3e146103af578063e047838d14610333578063efb43b07146103ce575f80fd5b80636855a178146102ad57806370a08231146102cc578063861e3d3d1461030057806395d89b411461031f5780639dc29fac14610333578063a457c2d714610352575f80fd5b8063313ce56711610104578063313ce567146101fa57806332bc74aa1461021557806332cadf3c14610236578063342db7391461024a578063395093511461026f57806340c10f191461028e575f80fd5b806306fdde031461014a578063095ea7b31461017457806318160ddd146101a357806323b872dd146101c15780632904df29146101e0575f80fd5b3661014657005b5f80fd5b348015610155575f80fd5b5061015e6103ed565b60405161016b919061096e565b60405180910390f35b34801561017f575f80fd5b5061019361018e3660046109a2565b61047d565b604051901515815260200161016b565b3480156101ae575f80fd5b506002545b60405190815260200161016b565b3480156101cc575f80fd5b506101936101db3660046109ca565b610496565b3480156101eb575f80fd5b5060405133815260200161016b565b348015610205575f80fd5b506040516012815260200161016b565b348015610220575f80fd5b5061023461022f366004610a03565b6104b9565b005b348015610241575f80fd5b5061015e6104cb565b348015610255575f80fd5b506101b36e1a185c991a185d0b595e1c1bdcd959608a1b81565b34801561027a575f80fd5b506101936102893660046109a2565b610508565b348015610299575f80fd5b506102346102a83660046109a2565b610529565b3480156102b8575f80fd5b506102346102c73660046109ca565b610537565b3480156102d7575f80fd5b506101b36102e6366004610a53565b6001600160a01b03165f9081526020819052604090205490565b34801561030b575f80fd5b5061023461031a3660046109ca565b610547565b34801561032a575f80fd5b5061015e610552565b34801561033e575f80fd5b5061023461034d3660046109a2565b610561565b34801561035d575f80fd5b5061019361036c3660046109a2565b61056b565b34801561037c575f80fd5b5061019361038b3660046109a2565b6105c6565b34801561039b575f80fd5b506102346103aa3660046109ca565b6105d3565b3480156103ba575f80fd5b506101b36103c9366004610a6c565b6105de565b3480156103d9575f80fd5b506102346103e83660046109ca565b610608565b6060600380546103fc90610a9d565b80601f016020809104026020016040519081016040528092919081815260200182805461042890610a9d565b80156104735780601f1061044a57610100808354040283529160200191610473565b820191905f5260205f20905b81548152906001019060200180831161045657829003601f168201915b5050505050905090565b5f3361048a818585610613565b60019150505b92915050565b5f336104a3858285610620565b6104ae85858561067d565b506001949350505050565b6104c5848484846106cf565b50505050565b60605f368080601f0160208091040260200160405190810160405280939291908181526020018383808284375f9201919091525092949350505050565b5f3361048a81858561051a83836105de565b6105249190610ad5565b610613565b61053382826107a1565b5050565b6105428383836107d1565b505050565b610542838383610613565b6060600480546103fc90610a9d565b61053382826108f7565b5f338161057882866105de565b9050838110156105b957604051632983c0c360e21b81526001600160a01b038616600482015260248101829052604481018590526064015b60405180910390fd5b6104ae8286868403610613565b5f3361048a81858561067d565b610542838383610620565b6001600160a01b039182165f90815260016020908152604080832093909416825291909152205490565b61054283838361067d565b61054283838360016106cf565b5f61062b84846105de565b90505f1981146104c5578181101561066f57604051637dc7a0d960e11b81526001600160a01b038416600482015260248101829052604481018390526064016105b0565b6104c584848484035f6106cf565b6001600160a01b0383166106a657604051634b637e8f60e11b81525f60048201526024016105b0565b6001600160a01b0382166105375760405163ec442f0560e01b81525f60048201526024016105b0565b6001600160a01b0384166106f85760405163e602df0560e01b81525f60048201526024016105b0565b6001600160a01b03831661072157604051634a1406b160e11b81525f60048201526024016105b0565b6001600160a01b038085165f90815260016020908152604080832093871683529290522082905580156104c557826001600160a01b0316846001600160a01b03167f8c5be1e5ebec7d5bd14f71427d1e84f3dd0314c0f7b2291e5b200ac8c7c3b9258460405161079391815260200190565b60405180910390a350505050565b6001600160a01b0382166107ca5760405163ec442f0560e01b81525f60048201526024016105b0565b6105335f83835b6001600160a01b0383166107fb578060025f8282546107f09190610ad5565b9091555061086b9050565b6001600160a01b0383165f908152602081905260409020548181101561084d5760405163391434e360e21b81526001600160a01b038516600482015260248101829052604481018390526064016105b0565b6001600160a01b0384165f9081526020819052604090209082900390555b6001600160a01b038216610887576002805482900390556108a5565b6001600160a01b0382165f9081526020819052604090208054820190555b816001600160a01b0316836001600160a01b03167fddf252ad1be2c89b69c2b068fc378daa952ba7f163c4a11628f55a4df523b3ef836040516108ea91815260200190565b60405180910390a3505050565b6001600160a01b03821661092057604051634b637e8f60e11b81525f60048201526024016105b0565b610533825f836107d1565b5f81518084525f5b8181101561094f57602081850181015186830182015201610933565b505f602082860101526020601f19601f83011685010191505092915050565b602081525f610980602083018461092b565b9392505050565b80356001600160a01b038116811461099d575f80fd5b919050565b5f80604083850312156109b3575f80fd5b6109bc83610987565b946020939093013593505050565b5f805f606084860312156109dc575f80fd5b6109e584610987565b92506109f360208501610987565b9150604084013590509250925092565b5f805f8060808587031215610a16575f80fd5b610a1f85610987565b9350610a2d60208601610987565b92506040850135915060608501358015158114610a48575f80fd5b939692955090935050565b5f60208284031215610a63575f80fd5b61098082610987565b5f8060408385031215610a7d575f80fd5b610a8683610987565b9150610a9460208401610987565b90509250929050565b600181811c90821680610ab157607f821691505b602082108103610acf57634e487b7160e01b5f52602260045260245ffd5b50919050565b8082018082111561049057634e487b7160e01b5f52601160045260245ffdfea2646970667358221220a901cc3fe7cdad6b08a7356f4ce5331f62b160b7c226ad8da2b27871288a11df64736f6c63430008140033",
  "linkReferences": {},
  "deployedLinkReferences": {}
}