{
  "_format": "hh-sol-artifact-1",
  "contractName": "$EIP712",
  "sourceName": "contracts-exposed/utils/cryptography/EIP712.sol",
  "abi": [
    {
      "inputs": [
        {
          "internalType": "string",
          "name": "name",
          "type": "string"
        },
        {
          "internalType": "string",
          "name": "version",
          "type": "string"
        }
      ],
      "stateMutability": "payable",
      "type": "constructor"
    },
    {
      "inputs": [],
      "name": "InvalidShortString",
      "type": "error"
    },
    {
      "inputs": [
        {
          "internalType": "string",
          "name": "str",
          "type": "string"
        }
      ],
      "name": "StringTooLong",
      "type": "error"
    },
    {
      "anonymous": false,
      "inputs": [],
      "name": "EIP712DomainChanged",
      "type": "event"
    },
    {
      "inputs": [],
      "name": "$_EIP712Name",
      "outputs": [
        {
          "internalType": "string",
          "name": "ret0",
          "type": "string"
        }
      ],
      "stateMutability": "view",
      "type": "function"
    },
    {
      "inputs": [],
      "name": "$_EIP712Version",
      "outputs": [
        {
          "internalType": "string",
          "name": "ret0",
          "type": "string"
        }
      ],
      "stateMutability": "view",
      "type": "function"
    },
    {
      "inputs": [],
      "name": "$_domainSeparatorV4",
      "outputs": [
        {
          "internalType": "bytes32",
          "name": "ret0",
          "type": "bytes32"
        }
      ],
      "stateMutability": "view",
      "type": "function"
    },
    {
      "inputs": [
        {
          "internalType": "bytes32",
          "name": "structHash",
          "type": "bytes32"
        }
      ],
      "name": "$_hashTypedDataV4",
      "outputs": [
        {
          "internalType": "bytes32",
          "name": "ret0",
          "type": "bytes32"
        }
      ],
      "stateMutability": "view",
      "type": "function"
    },
    {
      "inputs": [],
      "name": "__hh_exposed_bytecode_marker",
      "outputs": [
        {
          "internalType": "bytes32",
          "name": "",
          "type": "bytes32"
        }
      ],
      "stateMutability": "view",
      "type": "function"
    },
    {
      "inputs": [],
      "name": "eip712Domain",
      "outputs": [
        {
          "internalType": "bytes1",
          "name": "fields",
          "type": "bytes1"
        },
        {
          "internalType": "string",
          "name": "name",
          "type": "string"
        },
        {
          "internalType": "string",
          "name": "version",
          "type": "string"
        },
        {
          "internalType": "uint256",
          "name": "chainId",
          "type": "uint256"
        },
        {
          "internalType": "address",
          "name": "verifyingContract",
          "type": "address"
        },
        {
          "internalType": "bytes32",
          "name": "salt",
          "type": "bytes32"
        },
        {
          "internalType": "uint256[]",
          "name": "extensions",
          "type": "uint256[]"
        }
      ],
      "stateMutability": "view",
      "type": "function"
    },
    {
      "stateMutability": "payable",
      "type": "receive"
    }
  ],
  "bytecode": "0x61016060405260405162000a6438038062000a6483398101604081905262000027916200022e565b818162000035825f620000e5565b6101205262000046816001620000e5565b61014052815160208084019190912060e052815190820120610100524660a052620000d360e05161010051604080517f8b73c3c69bb8fe3d512ecc4cf759cc79239f7b179b0ffacaa9a75d522b39400f60208201529081019290925260608201524660808201523060a08201525f9060c00160405160208183030381529060405280519060200120905090565b60805250503060c05250620004409050565b5f6020835110156200010457620000fc836200011d565b905062000117565b8162000111848262000320565b5060ff90505b92915050565b5f80829050601f8151111562000153578260405163305a27a960e01b81526004016200014a9190620003e8565b60405180910390fd5b805162000160826200041c565b179392505050565b634e487b7160e01b5f52604160045260245ffd5b5f5b83811015620001985781810151838201526020016200017e565b50505f910152565b5f82601f830112620001b0575f80fd5b81516001600160401b0380821115620001cd57620001cd62000168565b604051601f8301601f19908116603f01168101908282118183101715620001f857620001f862000168565b8160405283815286602085880101111562000211575f80fd5b620002248460208301602089016200017c565b9695505050505050565b5f806040838503121562000240575f80fd5b82516001600160401b038082111562000257575f80fd5b6200026586838701620001a0565b935060208501519150808211156200027b575f80fd5b506200028a85828601620001a0565b9150509250929050565b600181811c90821680620002a957607f821691505b602082108103620002c857634e487b7160e01b5f52602260045260245ffd5b50919050565b601f8211156200031b575f81815260208120601f850160051c81016020861015620002f65750805b601f850160051c820191505b81811015620003175782815560010162000302565b5050505b505050565b81516001600160401b038111156200033c576200033c62000168565b62000354816200034d845462000294565b84620002ce565b602080601f8311600181146200038a575f8415620003725750858301515b5f19600386901b1c1916600185901b17855562000317565b5f85815260208120601f198616915b82811015620003ba5788860151825594840194600190910190840162000399565b5085821015620003d857878501515f19600388901b60f8161c191681555b5050505050600190811b01905550565b602081525f8251806020840152620004088160408501602087016200017c565b601f01601f19169190910160400192915050565b80516020808301519190811015620002c8575f1960209190910360031b1b16919050565b60805160a05160c05160e0516101005161012051610140516105d2620004925f395f6101d401525f6101a801525f6102ff01525f6102d701525f61023201525f61025c01525f61028601526105d25ff3fe608060405260043610610057575f3560e01c80631164d13b14610062578063174ccd821461008c578063342db739146100a0578063506a6f0c146100d35780635f8d5e74146100f257806384b0196e14610106575f80fd5b3661005e57005b5f80fd5b34801561006d575f80fd5b5061007661012d565b60405161008391906104a0565b60405180910390f35b348015610097575f80fd5b5061007661013c565b3480156100ab575f80fd5b506100c56e1a185c991a185d0b595e1c1bdcd959608a1b81565b604051908152602001610083565b3480156100de575f80fd5b506100c56100ed3660046104b9565b610146565b3480156100fd575f80fd5b506100c5610156565b348015610111575f80fd5b5061011a61015f565b60405161008397969594939291906104d0565b60606101376101a1565b905090565b60606101376101cd565b5f610150826101fa565b92915050565b5f610137610226565b5f6060805f805f60606101706101a1565b6101786101cd565b604080515f80825260208201909252600f60f81b9b939a50919850469750309650945092509050565b60606101377f00000000000000000000000000000000000000000000000000000000000000005f61034f565b60606101377f0000000000000000000000000000000000000000000000000000000000000000600161034f565b5f610150610206610226565b8360405161190160f01b8152600281019290925260228201526042902090565b5f306001600160a01b037f00000000000000000000000000000000000000000000000000000000000000001614801561027e57507f000000000000000000000000000000000000000000000000000000000000000046145b156102a857507f000000000000000000000000000000000000000000000000000000000000000090565b610137604080517f8b73c3c69bb8fe3d512ecc4cf759cc79239f7b179b0ffacaa9a75d522b39400f60208201527f0000000000000000000000000000000000000000000000000000000000000000918101919091527f000000000000000000000000000000000000000000000000000000000000000060608201524660808201523060a08201525f9060c00160405160208183030381529060405280519060200120905090565b606060ff831461036957610362836103f9565b9050610150565b81805461037590610564565b80601f01602080910402602001604051908101604052809291908181526020018280546103a190610564565b80156103ec5780601f106103c3576101008083540402835291602001916103ec565b820191905f5260205f20905b8154815290600101906020018083116103cf57829003601f168201915b5050505050905092915050565b60605f61040583610436565b6040805160208082528183019092529192505f91906020820181803683375050509182525060208101929092525090565b5f60ff8216601f81111561015057604051632cd44ac360e21b815260040160405180910390fd5b5f81518084525f5b8181101561048157602081850181015186830182015201610465565b505f602082860101526020601f19601f83011685010191505092915050565b602081525f6104b2602083018461045d565b9392505050565b5f602082840312156104c9575f80fd5b5035919050565b60ff60f81b881681525f602060e0818401526104ef60e084018a61045d565b8381036040850152610501818a61045d565b606085018990526001600160a01b038816608086015260a0850187905284810360c086015285518082528387019250908301905f5b8181101561055257835183529284019291840191600101610536565b50909c9b505050505050505050505050565b600181811c9082168061057857607f821691505b60208210810361059657634e487b7160e01b5f52602260045260245ffd5b5091905056fea2646970667358221220792d726d03b1c383f11b3e719a3dd666ae3e8212df7a9eb4093ef2bc62ae6b3864736f6c63430008140033",
  "linkReferences": {},
  "deployedLinkReferences": {}
}