{
  "_format": "hh-sol-artifact-1",
  "contractName": "$Ownable2Step",
  "sourceName": "contracts-exposed/access/Ownable2Step.sol",
  "abi": [
    {
      "inputs": [
        {
          "internalType": "address",
          "name": "initialOwner",
          "type": "address"
        }
      ],
      "stateMutability": "payable",
      "type": "constructor"
    },
    {
      "inputs": [
        {
          "internalType": "address",
          "name": "owner",
          "type": "address"
        }
      ],
      "name": "OwnableInvalidOwner",
      "type": "error"
    },
    {
      "inputs": [
        {
          "internalType": "address",
          "name": "account",
          "type": "address"
        }
      ],
      "name": "OwnableUnauthorizedAccount",
      "type": "error"
    },
    {
      "anonymous": false,
      "inputs": [
        {
          "indexed": true,
          "internalType": "address",
          "name": "previousOwner",
          "type": "address"
        },
        {
          "indexed": true,
          "internalType": "address",
          "name": "newOwner",
          "type": "address"
        }
      ],
      "name": "OwnershipTransferStarted",
      "type": "event"
    },
    {
      "anonymous": false,
      "inputs": [
        {
          "indexed": true,
          "internalType": "address",
          "name": "previousOwner",
          "type": "address"
        },
        {
          "indexed": true,
          "internalType": "address",
          "name": "newOwner",
          "type": "address"
        }
      ],
      "name": "OwnershipTransferred",
      "type": "event"
    },
    {
      "inputs": [],
      "name": "$_checkOwner",
      "outputs": [],
      "stateMutability": "view",
      "type": "function"
    },
    {
      "inputs": [],
      "name": "$_msgData",
      "outputs": [
        {
          "internalType": "bytes",
          "name": "ret0",
          "type": "bytes"
        }
      ],
      "stateMutability": "view",
      "type": "function"
    },
    {
      "inputs": [],
      "name": "$_msgSender",
      "outputs": [
        {
          "internalType": "address",
          "name": "ret0",
          "type": "address"
        }
      ],
      "stateMutability": "view",
      "type": "function"
    },
    {
      "inputs": [
        {
          "internalType": "address",
          "name": "newOwner",
          "type": "address"
        }
      ],
      "name": "$_transferOwnership",
      "outputs": [],
      "stateMutability": "nonpayable",
      "type": "function"
    },
    {
      "inputs": [],
      "name": "__hh_exposed_bytecode_marker",
      "outputs": [
        {
          "internalType": "bytes32",
          "name": "",
          "type": "bytes32"
        }
      ],
      "stateMutability": "view",
      "type": "function"
    },
    {
      "inputs": [],
      "name": "acceptOwnership",
      "outputs": [],
      "stateMutability": "nonpayable",
      "type": "function"
    },
    {
      "inputs": [],
      "name": "owner",
      "outputs": [
        {
          "internalType": "address",
          "name": "",
          "type": "address"
        }
      ],
      "stateMutability": "view",
      "type": "function"
    },
    {
      "inputs": [],
      "name": "pendingOwner",
      "outputs": [
        {
          "internalType": "address",
          "name": "",
          "type": "address"
        }
      ],
      "stateMutability": "view",
      "type": "function"
    },
    {
      "inputs": [],
      "name": "renounceOwnership",
      "outputs": [],
      "stateMutability": "nonpayable",
      "type": "function"
    },
    {
      "inputs": [
        {
          "internalType": "address",
          "name": "newOwner",
          "type": "address"
        }
      ],
      "name": "transferOwnership",
      "outputs": [],
      "stateMutability": "nonpayable",
      "type": "function"
    },
    {
      "stateMutability": "payable",
      "type": "receive"
    }
  ],
  "bytecode": "0x60806040526040516104f73803806104f78339810160408190526100229161009e565b8061002c81610033565b50506100cb565b600180546001600160a01b031916905561004c8161004f565b50565b5f80546001600160a01b038381166001600160a01b0319831681178455604051919092169283917f8be0079c531659141344cd1fd0a4f28419497f9722a3daafe3b4186f6b6457e09190a35050565b5f602082840312156100ae575f80fd5b81516001600160a01b03811681146100c4575f80fd5b9392505050565b61041f806100d85f395ff3fe608060405260043610610092575f3560e01c80638da5cb5b116100575780638da5cb5b14610146578063e30c397814610162578063ebcca7071461017f578063f2fde38b14610193578063fe1c9a24146101b2575f80fd5b80632904df291461009d57806332cadf3c146100c8578063342db739146100e9578063715018a61461011c57806379ba509714610132575f80fd5b3661009957005b5f80fd5b3480156100a8575f80fd5b50335b6040516001600160a01b0390911681526020015b60405180910390f35b3480156100d3575f80fd5b506100dc6101d1565b6040516100bf9190610371565b3480156100f4575f80fd5b5061010e6e1a185c991a185d0b595e1c1bdcd959608a1b81565b6040519081526020016100bf565b348015610127575f80fd5b5061013061020e565b005b34801561013d575f80fd5b50610130610221565b348015610151575f80fd5b505f546001600160a01b03166100ab565b34801561016d575f80fd5b506001546001600160a01b03166100ab565b34801561018a575f80fd5b5061013061026a565b34801561019e575f80fd5b506101306101ad3660046103bc565b610272565b3480156101bd575f80fd5b506101306101cc3660046103bc565b61025e565b60605f368080601f0160208091040260200160405190810160405280939291908181526020018383808284375f9201919091525092949350505050565b6102166102e2565b61021f5f61030e565b565b60015433906001600160a01b0316811461025e5760405163118cdaa760e01b81526001600160a01b03821660048201526024015b60405180910390fd5b6102678161030e565b50565b61021f6102e2565b61027a6102e2565b600180546001600160a01b0383166001600160a01b031990911681179091556102aa5f546001600160a01b031690565b6001600160a01b03167f38d16b8cac22d99fc7c124b9cd0de2d3fa1faef420bfe791d8c362d765e2270060405160405180910390a350565b5f546001600160a01b0316331461021f5760405163118cdaa760e01b8152336004820152602401610255565b600180546001600160a01b0319169055610267815f80546001600160a01b038381166001600160a01b0319831681178455604051919092169283917f8be0079c531659141344cd1fd0a4f28419497f9722a3daafe3b4186f6b6457e09190a35050565b5f6020808352835180828501525f5b8181101561039c57858101830151858201604001528201610380565b505f604082860101526040601f19601f8301168501019250505092915050565b5f602082840312156103cc575f80fd5b81356001600160a01b03811681146103e2575f80fd5b939250505056fea2646970667358221220525c0977e4b9979fbbe5e240b804e26700d150817713ec38ba3bb2f5a72824ec64736f6c63430008140033",
  "linkReferences": {},
  "deployedLinkReferences": {}
}