{
  "_format": "hh-sol-artifact-1",
  "contractName": "$DummyImplementationV2",
  "sourceName": "contracts-exposed/mocks/DummyImplementation.sol",
  "abi": [
    {
      "inputs": [],
      "stateMutability": "payable",
      "type": "constructor"
    },
    {
      "inputs": [],
      "name": "__hh_exposed_bytecode_marker",
      "outputs": [
        {
          "internalType": "bytes32",
          "name": "",
          "type": "bytes32"
        }
      ],
      "stateMutability": "view",
      "type": "function"
    },
    {
      "inputs": [],
      "name": "get",
      "outputs": [
        {
          "internalType": "bool",
          "name": "",
          "type": "bool"
        }
      ],
      "stateMutability": "pure",
      "type": "function"
    },
    {
      "inputs": [
        {
          "internalType": "uint256",
          "name": "_value",
          "type": "uint256"
        },
        {
          "internalType": "string",
          "name": "_text",
          "type": "string"
        },
        {
          "internalType": "uint256[]",
          "name": "_values",
          "type": "uint256[]"
        }
      ],
      "name": "initialize",
      "outputs": [],
      "stateMutability": "nonpayable",
      "type": "function"
    },
    {
      "inputs": [],
      "name": "initializeNonPayable",
      "outputs": [],
      "stateMutability": "nonpayable",
      "type": "function"
    },
    {
      "inputs": [
        {
          "internalType": "uint256",
          "name": "_value",
          "type": "uint256"
        }
      ],
      "name": "initializeNonPayableWithValue",
      "outputs": [],
      "stateMutability": "nonpayable",
      "type": "function"
    },
    {
      "inputs": [],
      "name": "initializePayable",
      "outputs": [],
      "stateMutability": "payable",
      "type": "function"
    },
    {
      "inputs": [
        {
          "internalType": "uint256",
          "name": "_value",
          "type": "uint256"
        }
      ],
      "name": "initializePayableWithValue",
      "outputs": [],
      "stateMutability": "payable",
      "type": "function"
    },
    {
      "inputs": [
        {
          "internalType": "uint256",
          "name": "newVal",
          "type": "uint256"
        }
      ],
      "name": "migrate",
      "outputs": [],
      "stateMutability": "payable",
      "type": "function"
    },
    {
      "inputs": [],
      "name": "reverts",
      "outputs": [],
      "stateMutability": "pure",
      "type": "function"
    },
    {
      "inputs": [],
      "name": "text",
      "outputs": [
        {
          "internalType": "string",
          "name": "",
          "type": "string"
        }
      ],
      "stateMutability": "view",
      "type": "function"
    },
    {
      "inputs": [
        {
          "internalType": "address",
          "name": "newAdmin",
          "type": "address"
        }
      ],
      "name": "unsafeOverrideAdmin",
      "outputs": [],
      "stateMutability": "nonpayable",
      "type": "function"
    },
    {
      "inputs": [],
      "name": "value",
      "outputs": [
        {
          "internalType": "uint256",
          "name": "",
          "type": "uint256"
        }
      ],
      "stateMutability": "view",
      "type": "function"
    },
    {
      "inputs": [
        {
          "internalType": "uint256",
          "name": "",
          "type": "uint256"
        }
      ],
      "name": "values",
      "outputs": [
        {
          "internalType": "uint256",
          "name": "",
          "type": "uint256"
        }
      ],
      "stateMutability": "view",
      "type": "function"
    },
    {
      "inputs": [],
      "name": "version",
      "outputs": [
        {
          "internalType": "string",
          "name": "",
          "type": "string"
        }
      ],
      "stateMutability": "pure",
      "type": "function"
    },
    {
      "stateMutability": "payable",
      "type": "receive"
    }
  ],
  "bytecode": "0x6080604052610795806100115f395ff3fe6080604052600436106100dc575f3560e01c806354fd4d501161007c578063763e283111610057578063763e2831146102545780639fba1f9a1461026e578063d31f8b6b14610277578063e79f5bee146101de575f80fd5b806354fd4d50146101f05780635e383d211461021a5780636d4ce63c14610239575f80fd5b8063342db739116100b7578063342db739146101835780633bccbbc9146101b65780633fa4f245146101ca578063454b0608146101de575f80fd5b806319af86e7146100e75780631f1bd69214610144578063227367d51461016e575f80fd5b366100e357005b5f80fd5b3480156100f2575f80fd5b50610142610101366004610414565b7fb53127684a568b3173ae13b9f8a6016e243e63b6e8ee1178d6a717850b5d610380546001600160a01b0319166001600160a01b0392909216919091179055565b005b34801561014f575f80fd5b50610158610296565b6040516101659190610441565b60405180910390f35b348015610179575f80fd5b50610142600a5f55565b34801561018e575f80fd5b506101a86e1a185c991a185d0b595e1c1bdcd959608a1b81565b604051908152602001610165565b3480156101c1575f80fd5b50610142610322565b3480156101d5575f80fd5b506101a85f5481565b6101426101ec36600461048c565b5f55565b3480156101fb575f80fd5b506040805180820190915260028152612b1960f11b6020820152610158565b348015610225575f80fd5b506101a861023436600461048c565b61036e565b348015610244575f80fd5b5060405160018152602001610165565b34801561025f575f80fd5b506101426101ec36600461048c565b61014260645f55565b348015610282575f80fd5b50610142610291366004610565565b61038d565b600180546102a39061061d565b80601f01602080910402602001604051908101604052809291908181526020018280546102cf9061061d565b801561031a5780601f106102f15761010080835404028352916020019161031a565b820191905f5260205f20905b8154815290600101906020018083116102fd57829003601f168201915b505050505081565b60405162461bcd60e51b815260206004820152601c60248201527f44756d6d79496d706c656d656e746174696f6e20726576657274656400000000604482015260640160405180910390fd5b6002818154811061037d575f80fd5b5f91825260209091200154905081565b5f839055600161039d83826106a3565b5080516103b19060029060208401906103b7565b50505050565b828054828255905f5260205f209081019282156103f0579160200282015b828111156103f05782518255916020019190600101906103d5565b506103fc929150610400565b5090565b5b808211156103fc575f8155600101610401565b5f60208284031215610424575f80fd5b81356001600160a01b038116811461043a575f80fd5b9392505050565b5f6020808352835180828501525f5b8181101561046c57858101830151858201604001528201610450565b505f604082860101526040601f19601f8301168501019250505092915050565b5f6020828403121561049c575f80fd5b5035919050565b634e487b7160e01b5f52604160045260245ffd5b604051601f8201601f1916810167ffffffffffffffff811182821017156104e0576104e06104a3565b604052919050565b5f82601f8301126104f7575f80fd5b8135602067ffffffffffffffff821115610513576105136104a3565b8160051b6105228282016104b7565b928352848101820192828101908785111561053b575f80fd5b83870192505b8483101561055a57823582529183019190830190610541565b979650505050505050565b5f805f60608486031215610577575f80fd5b8335925060208085013567ffffffffffffffff80821115610596575f80fd5b818701915087601f8301126105a9575f80fd5b8135818111156105bb576105bb6104a3565b6105cd601f8201601f191685016104b7565b81815289858386010111156105e0575f80fd5b81858501868301375f9181019094015291935060408601359180831115610605575f80fd5b5050610613868287016104e8565b9150509250925092565b600181811c9082168061063157607f821691505b60208210810361064f57634e487b7160e01b5f52602260045260245ffd5b50919050565b601f82111561069e575f81815260208120601f850160051c8101602086101561067b5750805b601f850160051c820191505b8181101561069a57828155600101610687565b5050505b505050565b815167ffffffffffffffff8111156106bd576106bd6104a3565b6106d1816106cb845461061d565b84610655565b602080601f831160018114610704575f84156106ed5750858301515b5f19600386901b1c1916600185901b17855561069a565b5f85815260208120601f198616915b8281101561073257888601518255948401946001909101908401610713565b508582101561074f57878501515f19600388901b60f8161c191681555b5050505050600190811b0190555056fea26469706673582212202fcbe67e09cc2d56f09f0c8455fcd69553c132e2bb1ff401a7e960c1d205774a64736f6c63430008140033",
  "linkReferences": {},
  "deployedLinkReferences": {}
}