{
  "_format": "hh-sol-artifact-1",
  "contractName": "$DummyImplementation",
  "sourceName": "contracts-exposed/mocks/DummyImplementation.sol",
  "abi": [
    {
      "inputs": [],
      "stateMutability": "payable",
      "type": "constructor"
    },
    {
      "inputs": [],
      "name": "__hh_exposed_bytecode_marker",
      "outputs": [
        {
          "internalType": "bytes32",
          "name": "",
          "type": "bytes32"
        }
      ],
      "stateMutability": "view",
      "type": "function"
    },
    {
      "inputs": [],
      "name": "get",
      "outputs": [
        {
          "internalType": "bool",
          "name": "",
          "type": "bool"
        }
      ],
      "stateMutability": "pure",
      "type": "function"
    },
    {
      "inputs": [
        {
          "internalType": "uint256",
          "name": "_value",
          "type": "uint256"
        },
        {
          "internalType": "string",
          "name": "_text",
          "type": "string"
        },
        {
          "internalType": "uint256[]",
          "name": "_values",
          "type": "uint256[]"
        }
      ],
      "name": "initialize",
      "outputs": [],
      "stateMutability": "nonpayable",
      "type": "function"
    },
    {
      "inputs": [],
      "name": "initializeNonPayable",
      "outputs": [],
      "stateMutability": "nonpayable",
      "type": "function"
    },
    {
      "inputs": [
        {
          "internalType": "uint256",
          "name": "_value",
          "type": "uint256"
        }
      ],
      "name": "initializeNonPayableWithValue",
      "outputs": [],
      "stateMutability": "nonpayable",
      "type": "function"
    },
    {
      "inputs": [],
      "name": "initializePayable",
      "outputs": [],
      "stateMutability": "payable",
      "type": "function"
    },
    {
      "inputs": [
        {
          "internalType": "uint256",
          "name": "_value",
          "type": "uint256"
        }
      ],
      "name": "initializePayableWithValue",
      "outputs": [],
      "stateMutability": "payable",
      "type": "function"
    },
    {
      "inputs": [],
      "name": "reverts",
      "outputs": [],
      "stateMutability": "pure",
      "type": "function"
    },
    {
      "inputs": [],
      "name": "text",
      "outputs": [
        {
          "internalType": "string",
          "name": "",
          "type": "string"
        }
      ],
      "stateMutability": "view",
      "type": "function"
    },
    {
      "inputs": [
        {
          "internalType": "address",
          "name": "newAdmin",
          "type": "address"
        }
      ],
      "name": "unsafeOverrideAdmin",
      "outputs": [],
      "stateMutability": "nonpayable",
      "type": "function"
    },
    {
      "inputs": [],
      "name": "value",
      "outputs": [
        {
          "internalType": "uint256",
          "name": "",
          "type": "uint256"
        }
      ],
      "stateMutability": "view",
      "type": "function"
    },
    {
      "inputs": [
        {
          "internalType": "uint256",
          "name": "",
          "type": "uint256"
        }
      ],
      "name": "values",
      "outputs": [
        {
          "internalType": "uint256",
          "name": "",
          "type": "uint256"
        }
      ],
      "stateMutability": "view",
      "type": "function"
    },
    {
      "inputs": [],
      "name": "version",
      "outputs": [
        {
          "internalType": "string",
          "name": "",
          "type": "string"
        }
      ],
      "stateMutability": "pure",
      "type": "function"
    },
    {
      "stateMutability": "payable",
      "type": "receive"
    }
  ],
  "bytecode": "0x608060405261077b806100115f395ff3fe6080604052600436106100c2575f3560e01c806354fd4d501161007c578063763e283111610057578063763e2831146102285780639fba1f9a14610246578063d31f8b6b1461024f578063e79f5bee1461026e575f80fd5b806354fd4d50146101c45780635e383d21146101ee5780636d4ce63c1461020d575f80fd5b806319af86e7146100cd5780631f1bd6921461012a578063227367d514610154578063342db739146101695780633bccbbc91461019c5780633fa4f245146101b0575f80fd5b366100c957005b5f80fd5b3480156100d8575f80fd5b506101286100e73660046103fa565b7fb53127684a568b3173ae13b9f8a6016e243e63b6e8ee1178d6a717850b5d610380546001600160a01b0319166001600160a01b0392909216919091179055565b005b348015610135575f80fd5b5061013e61027c565b60405161014b9190610427565b60405180910390f35b34801561015f575f80fd5b50610128600a5f55565b348015610174575f80fd5b5061018e6e1a185c991a185d0b595e1c1bdcd959608a1b81565b60405190815260200161014b565b3480156101a7575f80fd5b50610128610308565b3480156101bb575f80fd5b5061018e5f5481565b3480156101cf575f80fd5b50604080518082019091526002815261563160f01b602082015261013e565b3480156101f9575f80fd5b5061018e610208366004610472565b610354565b348015610218575f80fd5b506040516001815260200161014b565b348015610233575f80fd5b50610128610242366004610472565b5f55565b61012860645f55565b34801561025a575f80fd5b5061012861026936600461054b565b610373565b610128610242366004610472565b6001805461028990610603565b80601f01602080910402602001604051908101604052809291908181526020018280546102b590610603565b80156103005780601f106102d757610100808354040283529160200191610300565b820191905f5260205f20905b8154815290600101906020018083116102e357829003601f168201915b505050505081565b60405162461bcd60e51b815260206004820152601c60248201527f44756d6d79496d706c656d656e746174696f6e20726576657274656400000000604482015260640160405180910390fd5b60028181548110610363575f80fd5b5f91825260209091200154905081565b5f83905560016103838382610689565b50805161039790600290602084019061039d565b50505050565b828054828255905f5260205f209081019282156103d6579160200282015b828111156103d65782518255916020019190600101906103bb565b506103e29291506103e6565b5090565b5b808211156103e2575f81556001016103e7565b5f6020828403121561040a575f80fd5b81356001600160a01b0381168114610420575f80fd5b9392505050565b5f6020808352835180828501525f5b8181101561045257858101830151858201604001528201610436565b505f604082860101526040601f19601f8301168501019250505092915050565b5f60208284031215610482575f80fd5b5035919050565b634e487b7160e01b5f52604160045260245ffd5b604051601f8201601f1916810167ffffffffffffffff811182821017156104c6576104c6610489565b604052919050565b5f82601f8301126104dd575f80fd5b8135602067ffffffffffffffff8211156104f9576104f9610489565b8160051b61050882820161049d565b9283528481018201928281019087851115610521575f80fd5b83870192505b8483101561054057823582529183019190830190610527565b979650505050505050565b5f805f6060848603121561055d575f80fd5b8335925060208085013567ffffffffffffffff8082111561057c575f80fd5b818701915087601f83011261058f575f80fd5b8135818111156105a1576105a1610489565b6105b3601f8201601f1916850161049d565b81815289858386010111156105c6575f80fd5b81858501868301375f91810190940152919350604086013591808311156105eb575f80fd5b50506105f9868287016104ce565b9150509250925092565b600181811c9082168061061757607f821691505b60208210810361063557634e487b7160e01b5f52602260045260245ffd5b50919050565b601f821115610684575f81815260208120601f850160051c810160208610156106615750805b601f850160051c820191505b818110156106805782815560010161066d565b5050505b505050565b815167ffffffffffffffff8111156106a3576106a3610489565b6106b7816106b18454610603565b8461063b565b602080601f8311600181146106ea575f84156106d35750858301515b5f19600386901b1c1916600185901b178555610680565b5f85815260208120601f198616915b82811015610718578886015182559484019460019091019084016106f9565b508582101561073557878501515f19600388901b60f8161c191681555b5050505050600190811b0190555056fea264697066735822122075f0d99ad7ccc6a0be797c6886070ad2b7110d90f7a783e936d00360423366d364736f6c63430008140033",
  "linkReferences": {},
  "deployedLinkReferences": {}
}