{"abi":[{"type":"function","name":"delegatedFunction","inputs":[],"outputs":[{"name":"","type":"bool","internalType":"bool"}],"stateMutability":"pure"},{"type":"function","name":"upgradeToAndCall","inputs":[{"name":"","type":"address","internalType":"address"},{"name":"","type":"bytes","internalType":"bytes"}],"outputs":[],"stateMutability":"payable"},{"type":"event","name":"ClashingImplementationCall","inputs":[],"anonymous":false}],"bytecode":{"object":"0x6080604052348015600f57600080fd5b5061015b8061001f6000396000f3fe6080604052600436106100295760003560e01c80634f1ef2861461002e578063abf8e0e714610043575b600080fd5b61004161003c366004610092565b610064565b005b34801561004f57600080fd5b50604080516001815290519081900360200190f35b6040517f87f295955c288a63c1ec9524b11bb3e2b47480139ca4755c7d6e1dacaa8c4b1b90600090a1505050565b6000806000604084860312156100a757600080fd5b83356001600160a01b03811681146100be57600080fd5b9250602084013567ffffffffffffffff8111156100da57600080fd5b8401601f810186136100eb57600080fd5b803567ffffffffffffffff81111561010257600080fd5b86602082840101111561011457600080fd5b93966020919091019550929350505056fea264697066735822122089e59b02a5f270e21519f120aa573a4aba3302bb390701b69e1a9b9ecbdec0f164736f6c634300081b0033","linkReferences":{}},"methodIdentifiers":{"delegatedFunction()":"abf8e0e7","upgradeToAndCall(address,bytes)":"4f1ef286"},"id":101}