{
  "_format": "hh-sol-artifact-1",
  "contractName": "$EIP712Verifier",
  "sourceName": "contracts-exposed/mocks/EIP712Verifier.sol",
  "abi": [
    {
      "inputs": [
        {
          "internalType": "string",
          "name": "name",
          "type": "string"
        },
        {
          "internalType": "string",
          "name": "version",
          "type": "string"
        }
      ],
      "stateMutability": "payable",
      "type": "constructor"
    },
    {
      "inputs": [],
      "name": "ECDSAInvalidSignature",
      "type": "error"
    },
    {
      "inputs": [
        {
          "internalType": "uint256",
          "name": "length",
          "type": "uint256"
        }
      ],
      "name": "ECDSAInvalidSignatureLength",
      "type": "error"
    },
    {
      "inputs": [
        {
          "internalType": "bytes32",
          "name": "s",
          "type": "bytes32"
        }
      ],
      "name": "ECDSAInvalidSignatureS",
      "type": "error"
    },
    {
      "inputs": [],
      "name": "InvalidShortString",
      "type": "error"
    },
    {
      "inputs": [
        {
          "internalType": "string",
          "name": "str",
          "type": "string"
        }
      ],
      "name": "StringTooLong",
      "type": "error"
    },
    {
      "anonymous": false,
      "inputs": [],
      "name": "EIP712DomainChanged",
      "type": "event"
    },
    {
      "inputs": [],
      "name": "$_EIP712Name",
      "outputs": [
        {
          "internalType": "string",
          "name": "ret0",
          "type": "string"
        }
      ],
      "stateMutability": "view",
      "type": "function"
    },
    {
      "inputs": [],
      "name": "$_EIP712Version",
      "outputs": [
        {
          "internalType": "string",
          "name": "ret0",
          "type": "string"
        }
      ],
      "stateMutability": "view",
      "type": "function"
    },
    {
      "inputs": [],
      "name": "$_domainSeparatorV4",
      "outputs": [
        {
          "internalType": "bytes32",
          "name": "ret0",
          "type": "bytes32"
        }
      ],
      "stateMutability": "view",
      "type": "function"
    },
    {
      "inputs": [
        {
          "internalType": "bytes32",
          "name": "structHash",
          "type": "bytes32"
        }
      ],
      "name": "$_hashTypedDataV4",
      "outputs": [
        {
          "internalType": "bytes32",
          "name": "ret0",
          "type": "bytes32"
        }
      ],
      "stateMutability": "view",
      "type": "function"
    },
    {
      "inputs": [],
      "name": "__hh_exposed_bytecode_marker",
      "outputs": [
        {
          "internalType": "bytes32",
          "name": "",
          "type": "bytes32"
        }
      ],
      "stateMutability": "view",
      "type": "function"
    },
    {
      "inputs": [],
      "name": "eip712Domain",
      "outputs": [
        {
          "internalType": "bytes1",
          "name": "fields",
          "type": "bytes1"
        },
        {
          "internalType": "string",
          "name": "name",
          "type": "string"
        },
        {
          "internalType": "string",
          "name": "version",
          "type": "string"
        },
        {
          "internalType": "uint256",
          "name": "chainId",
          "type": "uint256"
        },
        {
          "internalType": "address",
          "name": "verifyingContract",
          "type": "address"
        },
        {
          "internalType": "bytes32",
          "name": "salt",
          "type": "bytes32"
        },
        {
          "internalType": "uint256[]",
          "name": "extensions",
          "type": "uint256[]"
        }
      ],
      "stateMutability": "view",
      "type": "function"
    },
    {
      "inputs": [
        {
          "internalType": "bytes",
          "name": "signature",
          "type": "bytes"
        },
        {
          "internalType": "address",
          "name": "signer",
          "type": "address"
        },
        {
          "internalType": "address",
          "name": "mailTo",
          "type": "address"
        },
        {
          "internalType": "string",
          "name": "mailContents",
          "type": "string"
        }
      ],
      "name": "verify",
      "outputs": [],
      "stateMutability": "view",
      "type": "function"
    },
    {
      "stateMutability": "payable",
      "type": "receive"
    }
  ],
  "bytecode": "0x61016060405260405162000ea038038062000ea083398101604081905262000027916200022e565b818162000035825f620000e5565b6101205262000046816001620000e5565b61014052815160208084019190912060e052815190820120610100524660a052620000d360e05161010051604080517f8b73c3c69bb8fe3d512ecc4cf759cc79239f7b179b0ffacaa9a75d522b39400f60208201529081019290925260608201524660808201523060a08201525f9060c00160405160208183030381529060405280519060200120905090565b60805250503060c05250620004409050565b5f6020835110156200010457620000fc836200011d565b905062000117565b8162000111848262000320565b5060ff90505b92915050565b5f80829050601f8151111562000153578260405163305a27a960e01b81526004016200014a9190620003e8565b60405180910390fd5b805162000160826200041c565b179392505050565b634e487b7160e01b5f52604160045260245ffd5b5f5b83811015620001985781810151838201526020016200017e565b50505f910152565b5f82601f830112620001b0575f80fd5b81516001600160401b0380821115620001cd57620001cd62000168565b604051601f8301601f19908116603f01168101908282118183101715620001f857620001f862000168565b8160405283815286602085880101111562000211575f80fd5b620002248460208301602089016200017c565b9695505050505050565b5f806040838503121562000240575f80fd5b82516001600160401b038082111562000257575f80fd5b6200026586838701620001a0565b935060208501519150808211156200027b575f80fd5b506200028a85828601620001a0565b9150509250929050565b600181811c90821680620002a957607f821691505b602082108103620002c857634e487b7160e01b5f52602260045260245ffd5b50919050565b601f8211156200031b575f81815260208120601f850160051c81016020861015620002f65750805b601f850160051c820191505b81811015620003175782815560010162000302565b5050505b505050565b81516001600160401b038111156200033c576200033c62000168565b62000354816200034d845462000294565b84620002ce565b602080601f8311600181146200038a575f8415620003725750858301515b5f19600386901b1c1916600185901b17855562000317565b5f85815260208120601f198616915b82811015620003ba5788860151825594840194600190910190840162000399565b5085821015620003d857878501515f19600388901b60f8161c191681555b5050505050600190811b01905550565b602081525f8251806020840152620004088160408501602087016200017c565b601f01601f19169190910160400192915050565b80516020808301519190811015620002c8575f1960209190910360031b1b16919050565b60805160a05160c05160e051610100516101205161014051610a0e620004925f395f61030c01525f6102e001525f61040b01525f6103e301525f61033e01525f61036801525f6103920152610a0e5ff3fe608060405260043610610071575f3560e01c8063342db7391161004c578063342db739146100db578063506a6f0c1461010e5780635f8d5e741461012d57806384b0196e14610141575f80fd5b806308c6e0791461007c5780631164d13b1461009d578063174ccd82146100c7575f80fd5b3661007857005b5f80fd5b348015610087575f80fd5b5061009b6100963660046107dc565b610168565b005b3480156100a8575f80fd5b506100b1610211565b6040516100be91906108c8565b60405180910390f35b3480156100d2575f80fd5b506100b1610220565b3480156100e6575f80fd5b506101006e1a185c991a185d0b595e1c1bdcd959608a1b81565b6040519081526020016100be565b348015610119575f80fd5b506101006101283660046108e1565b61022a565b348015610138575f80fd5b5061010061023a565b34801561014c575f80fd5b50610155610243565b6040516100be97969594939291906108f8565b5f6101dd7f847fc9da8ec3c72cae85ca691245eaeb0a4a1e74f77c3a919c43afda231d39ba8484805190602001206040516020016101c2939291909283526001600160a01b03919091166020830152604082015260600190565b60405160208183030381529060405280519060200120610285565b90505f6101ea82876102b1565b9050846001600160a01b0316816001600160a01b031614610209575f80fd5b505050505050565b606061021b6102d9565b905090565b606061021b610305565b5f61023482610285565b92915050565b5f61021b610332565b5f6060805f805f60606102546102d9565b61025c610305565b604080515f80825260208201909252600f60f81b9b939a50919850469750309650945092509050565b5f610234610291610332565b8360405161190160f01b8152600281019290925260228201526042902090565b5f805f806102bf868661045b565b9250925092506102cf82826104a4565b5090949350505050565b606061021b7f00000000000000000000000000000000000000000000000000000000000000005f610565565b606061021b7f00000000000000000000000000000000000000000000000000000000000000006001610565565b5f306001600160a01b037f00000000000000000000000000000000000000000000000000000000000000001614801561038a57507f000000000000000000000000000000000000000000000000000000000000000046145b156103b457507f000000000000000000000000000000000000000000000000000000000000000090565b61021b604080517f8b73c3c69bb8fe3d512ecc4cf759cc79239f7b179b0ffacaa9a75d522b39400f60208201527f0000000000000000000000000000000000000000000000000000000000000000918101919091527f000000000000000000000000000000000000000000000000000000000000000060608201524660808201523060a08201525f9060c00160405160208183030381529060405280519060200120905090565b5f805f8351604103610492576020840151604085015160608601515f1a6104848882858561060e565b95509550955050505061049d565b505081515f91506002905b9250925092565b5f8260038111156104b7576104b761098c565b036104c0575050565b60018260038111156104d4576104d461098c565b036104f25760405163f645eedf60e01b815260040160405180910390fd5b60028260038111156105065761050661098c565b0361052c5760405163fce698f760e01b8152600481018290526024015b60405180910390fd5b60038260038111156105405761054061098c565b03610561576040516335e2f38360e21b815260048101829052602401610523565b5050565b606060ff831461057f57610578836106d6565b9050610234565b81805461058b906109a0565b80601f01602080910402602001604051908101604052809291908181526020018280546105b7906109a0565b80156106025780601f106105d957610100808354040283529160200191610602565b820191905f5260205f20905b8154815290600101906020018083116105e557829003601f168201915b50505050509050610234565b5f80807f7fffffffffffffffffffffffffffffff5d576e7357a4501ddfe92f46681b20a084111561064757505f915060039050826106cc565b604080515f808252602082018084528a905260ff891692820192909252606081018790526080810186905260019060a0016020604051602081039080840390855afa158015610698573d5f803e3d5ffd5b5050604051601f1901519150506001600160a01b0381166106c357505f9250600191508290506106cc565b92505f91508190505b9450945094915050565b60605f6106e283610713565b6040805160208082528183019092529192505f91906020820181803683375050509182525060208101929092525090565b5f60ff8216601f81111561023457604051632cd44ac360e21b815260040160405180910390fd5b634e487b7160e01b5f52604160045260245ffd5b5f67ffffffffffffffff808411156107685761076861073a565b604051601f8501601f19908116603f011681019082821181831017156107905761079061073a565b816040528093508581528686860111156107a8575f80fd5b858560208301375f602087830101525050509392505050565b80356001600160a01b03811681146107d7575f80fd5b919050565b5f805f80608085870312156107ef575f80fd5b843567ffffffffffffffff80821115610806575f80fd5b818701915087601f830112610819575f80fd5b6108288883356020850161074e565b9550610836602088016107c1565b9450610844604088016107c1565b93506060870135915080821115610859575f80fd5b508501601f8101871361086a575f80fd5b6108798782356020840161074e565b91505092959194509250565b5f81518084525f5b818110156108a95760208185018101518683018201520161088d565b505f602082860101526020601f19601f83011685010191505092915050565b602081525f6108da6020830184610885565b9392505050565b5f602082840312156108f1575f80fd5b5035919050565b60ff60f81b881681525f602060e08184015261091760e084018a610885565b8381036040850152610929818a610885565b606085018990526001600160a01b038816608086015260a0850187905284810360c086015285518082528387019250908301905f5b8181101561097a5783518352928401929184019160010161095e565b50909c9b505050505050505050505050565b634e487b7160e01b5f52602160045260245ffd5b600181811c908216806109b457607f821691505b6020821081036109d257634e487b7160e01b5f52602260045260245ffd5b5091905056fea26469706673582212203096a9f76ba23deef0c297e9a78b91e66295920c6278ce07d4c1bba96e788c1c64736f6c63430008140033",
  "linkReferences": {},
  "deployedLinkReferences": {}
}