{
  "_format": "hh-sol-artifact-1",
  "contractName": "$CompTimelock",
  "sourceName": "contracts-exposed/mocks/compound/CompTimelock.sol",
  "abi": [
    {
      "inputs": [
        {
          "internalType": "address",
          "name": "admin_",
          "type": "address"
        },
        {
          "internalType": "uint256",
          "name": "delay_",
          "type": "uint256"
        }
      ],
      "stateMutability": "payable",
      "type": "constructor"
    },
    {
      "anonymous": false,
      "inputs": [
        {
          "indexed": true,
          "internalType": "bytes32",
          "name": "txHash",
          "type": "bytes32"
        },
        {
          "indexed": true,
          "internalType": "address",
          "name": "target",
          "type": "address"
        },
        {
          "indexed": false,
          "internalType": "uint256",
          "name": "value",
          "type": "uint256"
        },
        {
          "indexed": false,
          "internalType": "string",
          "name": "signature",
          "type": "string"
        },
        {
          "indexed": false,
          "internalType": "bytes",
          "name": "data",
          "type": "bytes"
        },
        {
          "indexed": false,
          "internalType": "uint256",
          "name": "eta",
          "type": "uint256"
        }
      ],
      "name": "CancelTransaction",
      "type": "event"
    },
    {
      "anonymous": false,
      "inputs": [
        {
          "indexed": true,
          "internalType": "bytes32",
          "name": "txHash",
          "type": "bytes32"
        },
        {
          "indexed": true,
          "internalType": "address",
          "name": "target",
          "type": "address"
        },
        {
          "indexed": false,
          "internalType": "uint256",
          "name": "value",
          "type": "uint256"
        },
        {
          "indexed": false,
          "internalType": "string",
          "name": "signature",
          "type": "string"
        },
        {
          "indexed": false,
          "internalType": "bytes",
          "name": "data",
          "type": "bytes"
        },
        {
          "indexed": false,
          "internalType": "uint256",
          "name": "eta",
          "type": "uint256"
        }
      ],
      "name": "ExecuteTransaction",
      "type": "event"
    },
    {
      "anonymous": false,
      "inputs": [
        {
          "indexed": true,
          "internalType": "address",
          "name": "newAdmin",
          "type": "address"
        }
      ],
      "name": "NewAdmin",
      "type": "event"
    },
    {
      "anonymous": false,
      "inputs": [
        {
          "indexed": true,
          "internalType": "uint256",
          "name": "newDelay",
          "type": "uint256"
        }
      ],
      "name": "NewDelay",
      "type": "event"
    },
    {
      "anonymous": false,
      "inputs": [
        {
          "indexed": true,
          "internalType": "address",
          "name": "newPendingAdmin",
          "type": "address"
        }
      ],
      "name": "NewPendingAdmin",
      "type": "event"
    },
    {
      "anonymous": false,
      "inputs": [
        {
          "indexed": true,
          "internalType": "bytes32",
          "name": "txHash",
          "type": "bytes32"
        },
        {
          "indexed": true,
          "internalType": "address",
          "name": "target",
          "type": "address"
        },
        {
          "indexed": false,
          "internalType": "uint256",
          "name": "value",
          "type": "uint256"
        },
        {
          "indexed": false,
          "internalType": "string",
          "name": "signature",
          "type": "string"
        },
        {
          "indexed": false,
          "internalType": "bytes",
          "name": "data",
          "type": "bytes"
        },
        {
          "indexed": false,
          "internalType": "uint256",
          "name": "eta",
          "type": "uint256"
        }
      ],
      "name": "QueueTransaction",
      "type": "event"
    },
    {
      "inputs": [],
      "name": "$getBlockTimestamp",
      "outputs": [
        {
          "internalType": "uint256",
          "name": "ret0",
          "type": "uint256"
        }
      ],
      "stateMutability": "view",
      "type": "function"
    },
    {
      "inputs": [],
      "name": "GRACE_PERIOD",
      "outputs": [
        {
          "internalType": "uint256",
          "name": "",
          "type": "uint256"
        }
      ],
      "stateMutability": "view",
      "type": "function"
    },
    {
      "inputs": [],
      "name": "MAXIMUM_DELAY",
      "outputs": [
        {
          "internalType": "uint256",
          "name": "",
          "type": "uint256"
        }
      ],
      "stateMutability": "view",
      "type": "function"
    },
    {
      "inputs": [],
      "name": "MINIMUM_DELAY",
      "outputs": [
        {
          "internalType": "uint256",
          "name": "",
          "type": "uint256"
        }
      ],
      "stateMutability": "view",
      "type": "function"
    },
    {
      "inputs": [],
      "name": "__hh_exposed_bytecode_marker",
      "outputs": [
        {
          "internalType": "bytes32",
          "name": "",
          "type": "bytes32"
        }
      ],
      "stateMutability": "view",
      "type": "function"
    },
    {
      "inputs": [],
      "name": "acceptAdmin",
      "outputs": [],
      "stateMutability": "nonpayable",
      "type": "function"
    },
    {
      "inputs": [],
      "name": "admin",
      "outputs": [
        {
          "internalType": "address",
          "name": "",
          "type": "address"
        }
      ],
      "stateMutability": "view",
      "type": "function"
    },
    {
      "inputs": [
        {
          "internalType": "address",
          "name": "target",
          "type": "address"
        },
        {
          "internalType": "uint256",
          "name": "value",
          "type": "uint256"
        },
        {
          "internalType": "string",
          "name": "signature",
          "type": "string"
        },
        {
          "internalType": "bytes",
          "name": "data",
          "type": "bytes"
        },
        {
          "internalType": "uint256",
          "name": "eta",
          "type": "uint256"
        }
      ],
      "name": "cancelTransaction",
      "outputs": [],
      "stateMutability": "nonpayable",
      "type": "function"
    },
    {
      "inputs": [],
      "name": "delay",
      "outputs": [
        {
          "internalType": "uint256",
          "name": "",
          "type": "uint256"
        }
      ],
      "stateMutability": "view",
      "type": "function"
    },
    {
      "inputs": [
        {
          "internalType": "address",
          "name": "target",
          "type": "address"
        },
        {
          "internalType": "uint256",
          "name": "value",
          "type": "uint256"
        },
        {
          "internalType": "string",
          "name": "signature",
          "type": "string"
        },
        {
          "internalType": "bytes",
          "name": "data",
          "type": "bytes"
        },
        {
          "internalType": "uint256",
          "name": "eta",
          "type": "uint256"
        }
      ],
      "name": "executeTransaction",
      "outputs": [
        {
          "internalType": "bytes",
          "name": "",
          "type": "bytes"
        }
      ],
      "stateMutability": "payable",
      "type": "function"
    },
    {
      "inputs": [],
      "name": "pendingAdmin",
      "outputs": [
        {
          "internalType": "address",
          "name": "",
          "type": "address"
        }
      ],
      "stateMutability": "view",
      "type": "function"
    },
    {
      "inputs": [
        {
          "internalType": "address",
          "name": "target",
          "type": "address"
        },
        {
          "internalType": "uint256",
          "name": "value",
          "type": "uint256"
        },
        {
          "internalType": "string",
          "name": "signature",
          "type": "string"
        },
        {
          "internalType": "bytes",
          "name": "data",
          "type": "bytes"
        },
        {
          "internalType": "uint256",
          "name": "eta",
          "type": "uint256"
        }
      ],
      "name": "queueTransaction",
      "outputs": [
        {
          "internalType": "bytes32",
          "name": "",
          "type": "bytes32"
        }
      ],
      "stateMutability": "nonpayable",
      "type": "function"
    },
    {
      "inputs": [
        {
          "internalType": "bytes32",
          "name": "",
          "type": "bytes32"
        }
      ],
      "name": "queuedTransactions",
      "outputs": [
        {
          "internalType": "bool",
          "name": "",
          "type": "bool"
        }
      ],
      "stateMutability": "view",
      "type": "function"
    },
    {
      "inputs": [
        {
          "internalType": "uint256",
          "name": "delay_",
          "type": "uint256"
        }
      ],
      "name": "setDelay",
      "outputs": [],
      "stateMutability": "nonpayable",
      "type": "function"
    },
    {
      "inputs": [
        {
          "internalType": "address",
          "name": "pendingAdmin_",
          "type": "address"
        }
      ],
      "name": "setPendingAdmin",
      "outputs": [],
      "stateMutability": "nonpayable",
      "type": "function"
    },
    {
      "stateMutability": "payable",
      "type": "receive"
    }
  ],
  "bytecode": "0x60806040526040516110c53803806110c583398101604081905261002291610146565b81816202a3008110156100a25760405162461bcd60e51b815260206004820152603760248201527f54696d656c6f636b3a3a636f6e7374727563746f723a2044656c6179206d757360448201527f7420657863656564206d696e696d756d2064656c61792e00000000000000000060648201526084015b60405180910390fd5b62278d0081111561011b5760405162461bcd60e51b815260206004820152603860248201527f54696d656c6f636b3a3a73657444656c61793a2044656c6179206d757374206e60448201527f6f7420657863656564206d6178696d756d2064656c61792e00000000000000006064820152608401610099565b5f80546001600160a01b0319166001600160a01b0393909316929092179091556002555061017d9050565b5f8060408385031215610157575f80fd5b82516001600160a01b038116811461016d575f80fd5b6020939093015192949293505050565b610f3b8061018a5f395ff3fe6080604052600436106100e7575f3560e01c80636a42b8f811610087578063c1a287e211610057578063c1a287e21461024b578063e177246e14610261578063f2b0653714610280578063f851a440146102be575f80fd5b80636a42b8f8146101f85780637d645fab1461020d5780639e1cbc3c14610223578063b1b43ae514610235575f80fd5b8063342db739116100c2578063342db739146101685780633a66f9011461019b5780634dd18bf5146101ba578063591fcdfe146101d9575f80fd5b80630825f38f146100f25780630e18b6811461011b5780632678224714610131575f80fd5b366100ee57005b5f80fd5b610105610100366004610caf565b6102dc565b6040516101129190610da5565b60405180910390f35b348015610126575f80fd5b5061012f610642565b005b34801561013c575f80fd5b50600154610150906001600160a01b031681565b6040516001600160a01b039091168152602001610112565b348015610173575f80fd5b5061018d6e1a185c991a185d0b595e1c1bdcd959608a1b81565b604051908152602001610112565b3480156101a6575f80fd5b5061018d6101b5366004610caf565b61070a565b3480156101c5575f80fd5b5061012f6101d4366004610dbe565b6108b4565b3480156101e4575f80fd5b5061012f6101f3366004610caf565b610972565b348015610203575f80fd5b5061018d60025481565b348015610218575f80fd5b5061018d62278d0081565b34801561022e575f80fd5b504261018d565b348015610240575f80fd5b5061018d6202a30081565b348015610256575f80fd5b5061018d6212750081565b34801561026c575f80fd5b5061012f61027b366004610dd7565b610a89565b34801561028b575f80fd5b506102ae61029a366004610dd7565b60036020525f908152604090205460ff1681565b6040519015158152602001610112565b3480156102c9575f80fd5b505f54610150906001600160a01b031681565b5f546060906001600160a01b031633146103635760405162461bcd60e51b815260206004820152603860248201527f54696d656c6f636b3a3a657865637574655472616e73616374696f6e3a20436160448201527f6c6c206d75737420636f6d652066726f6d2061646d696e2e000000000000000060648201526084015b60405180910390fd5b5f868686868660405160200161037d959493929190610dee565b60408051601f1981840301815291815281516020928301205f818152600390935291205490915060ff166104065760405162461bcd60e51b815260206004820152603d60248201525f80516020610ee683398151915260448201527f616e73616374696f6e206861736e2774206265656e207175657565642e000000606482015260840161035a565b824210156104775760405162461bcd60e51b815260206004820152604560248201525f80516020610ee683398151915260448201527f616e73616374696f6e206861736e2774207375727061737365642074696d65206064820152643637b1b59760d91b608482015260a40161035a565b6104846212750084610e39565b4211156104dc5760405162461bcd60e51b815260206004820152603360248201525f80516020610ee683398151915260448201527230b739b0b1ba34b7b71034b99039ba30b6329760691b606482015260840161035a565b5f818152600360205260408120805460ff1916905585516060910361050257508361052e565b85805190602001208560405160200161051c929190610e5e565b60405160208183030381529060405290505b5f80896001600160a01b031689846040516105499190610e8e565b5f6040518083038185875af1925050503d805f8114610583576040519150601f19603f3d011682016040523d82523d5f602084013e610588565b606091505b5091509150816105ed5760405162461bcd60e51b815260206004820152603d60248201525f80516020610ee683398151915260448201527f616e73616374696f6e20657865637574696f6e2072657665727465642e000000606482015260840161035a565b896001600160a01b0316847fa560e3198060a2f10670c1ec5b403077ea6ae93ca8de1c32b451dc1a943cd6e78b8b8b8b60405161062d9493929190610ea9565b60405180910390a39998505050505050505050565b6001546001600160a01b031633146106c25760405162461bcd60e51b815260206004820152603860248201527f54696d656c6f636b3a3a61636365707441646d696e3a2043616c6c206d75737460448201527f20636f6d652066726f6d2070656e64696e6741646d696e2e0000000000000000606482015260840161035a565b5f8054336001600160a01b0319918216811783556001805490921690915560405190917f71614071b88dee5e0b2ae578a9dd7b2ebbe9ae832ba419dc0242cd065a290b6c91a2565b5f80546001600160a01b031633146107835760405162461bcd60e51b815260206004820152603660248201527f54696d656c6f636b3a3a71756575655472616e73616374696f6e3a2043616c6c6044820152751036bab9ba1031b7b6b290333937b69030b236b4b71760511b606482015260840161035a565b6002546107909042610e39565b8210156108175760405162461bcd60e51b815260206004820152604960248201527f54696d656c6f636b3a3a71756575655472616e73616374696f6e3a204573746960448201527f6d6174656420657865637574696f6e20626c6f636b206d757374207361746973606482015268333c903232b630bc9760b91b608482015260a40161035a565b5f8686868686604051602001610831959493929190610dee565b60408051601f1981840301815282825280516020918201205f8181526003909252919020805460ff1916600117905591506001600160a01b0388169082907f76e2796dc3a81d57b0e8504b647febcbeeb5f4af818e164f11eef8131a6a763f906108a2908a908a908a908a90610ea9565b60405180910390a39695505050505050565b3330146109295760405162461bcd60e51b815260206004820152603860248201527f54696d656c6f636b3a3a73657450656e64696e6741646d696e3a2043616c6c2060448201527f6d75737420636f6d652066726f6d2054696d656c6f636b2e0000000000000000606482015260840161035a565b600180546001600160a01b0319166001600160a01b0383169081179091556040517f69d78e38a01985fbb1462961809b4b2d65531bc93b2b94037f3334b82ca4a756905f90a250565b5f546001600160a01b031633146109f15760405162461bcd60e51b815260206004820152603760248201527f54696d656c6f636b3a3a63616e63656c5472616e73616374696f6e3a2043616c60448201527f6c206d75737420636f6d652066726f6d2061646d696e2e000000000000000000606482015260840161035a565b5f8585858585604051602001610a0b959493929190610dee565b60408051601f1981840301815282825280516020918201205f8181526003909252919020805460ff1916905591506001600160a01b0387169082907f2fffc091a501fd91bfbff27141450d3acb40fb8e6d8382b243ec7a812a3aaf8790610a79908990899089908990610ea9565b60405180910390a3505050505050565b333014610af25760405162461bcd60e51b815260206004820152603160248201527f54696d656c6f636b3a3a73657444656c61793a2043616c6c206d75737420636f60448201527036b290333937b6902a34b6b2b637b1b59760791b606482015260840161035a565b6202a300811015610b625760405162461bcd60e51b815260206004820152603460248201527f54696d656c6f636b3a3a73657444656c61793a2044656c6179206d75737420656044820152733c31b2b2b21036b4b734b6bab6903232b630bc9760611b606482015260840161035a565b62278d00811115610bdb5760405162461bcd60e51b815260206004820152603860248201527f54696d656c6f636b3a3a73657444656c61793a2044656c6179206d757374206e60448201527f6f7420657863656564206d6178696d756d2064656c61792e0000000000000000606482015260840161035a565b600281905560405181907f948b1f6a42ee138b7e34058ba85a37f716d55ff25ff05a763f15bed6a04c8d2c905f90a250565b80356001600160a01b0381168114610c23575f80fd5b919050565b634e487b7160e01b5f52604160045260245ffd5b5f67ffffffffffffffff80841115610c5657610c56610c28565b604051601f8501601f19908116603f01168101908282118183101715610c7e57610c7e610c28565b81604052809350858152868686011115610c96575f80fd5b858560208301375f602087830101525050509392505050565b5f805f805f60a08688031215610cc3575f80fd5b610ccc86610c0d565b945060208601359350604086013567ffffffffffffffff80821115610cef575f80fd5b818801915088601f830112610d02575f80fd5b610d1189833560208501610c3c565b94506060880135915080821115610d26575f80fd5b508601601f81018813610d37575f80fd5b610d4688823560208401610c3c565b95989497509295608001359392505050565b5f5b83811015610d72578181015183820152602001610d5a565b50505f910152565b5f8151808452610d91816020860160208601610d58565b601f01601f19169290920160200192915050565b602081525f610db76020830184610d7a565b9392505050565b5f60208284031215610dce575f80fd5b610db782610c0d565b5f60208284031215610de7575f80fd5b5035919050565b60018060a01b038616815284602082015260a060408201525f610e1460a0830186610d7a565b8281036060840152610e268186610d7a565b9150508260808301529695505050505050565b80820180821115610e5857634e487b7160e01b5f52601160045260245ffd5b92915050565b6001600160e01b03198316815281515f90610e80816004850160208701610d58565b919091016004019392505050565b5f8251610e9f818460208701610d58565b9190910192915050565b848152608060208201525f610ec16080830186610d7a565b8281036040840152610ed38186610d7a565b9150508260608301529594505050505056fe54696d656c6f636b3a3a657865637574655472616e73616374696f6e3a205472a2646970667358221220257545d5bf69ddb54d2122d5fbd4e17a4fdf9e95f36f259af386c34ca6fbe20864736f6c63430008140033",
  "linkReferences": {},
  "deployedLinkReferences": {}
}