{"abi":[{"type":"function","name":"functionCall","inputs":[{"name":"target","type":"address","internalType":"address"},{"name":"data","type":"bytes","internalType":"bytes"}],"outputs":[{"name":"","type":"bytes","internalType":"bytes"}],"stateMutability":"nonpayable"},{"type":"function","name":"functionCallWithValue","inputs":[{"name":"target","type":"address","internalType":"address"},{"name":"data","type":"bytes","internalType":"bytes"},{"name":"value","type":"uint256","internalType":"uint256"}],"outputs":[{"name":"","type":"bytes","internalType":"bytes"}],"stateMutability":"nonpayable"},{"type":"function","name":"functionDelegateCall","inputs":[{"name":"target","type":"address","internalType":"address"},{"name":"data","type":"bytes","internalType":"bytes"}],"outputs":[{"name":"","type":"bytes","internalType":"bytes"}],"stateMutability":"nonpayable"},{"type":"function","name":"functionStaticCall","inputs":[{"name":"target","type":"address","internalType":"address"},{"name":"data","type":"bytes","internalType":"bytes"}],"outputs":[{"name":"","type":"bytes","internalType":"bytes"}],"stateMutability":"view"},{"type":"function","name":"verifyCallResult","inputs":[{"name":"success","type":"bool","internalType":"bool"},{"name":"returndata","type":"bytes","internalType":"bytes"}],"outputs":[{"name":"","type":"bytes","internalType":"bytes"}],"stateMutability":"view"},{"type":"function","name":"verifyCallResultFromTarget","inputs":[{"name":"target","type":"address","internalType":"address"},{"name":"success","type":"bool","internalType":"bool"},{"name":"returndata","type":"bytes","internalType":"bytes"}],"outputs":[{"name":"","type":"bytes","internalType":"bytes"}],"stateMutability":"view"},{"type":"function","name":"verifyCallResultVoid","inputs":[{"name":"success","type":"bool","internalType":"bool"},{"name":"returndata","type":"bytes","internalType":"bytes"}],"outputs":[{"name":"","type":"bytes","internalType":"bytes"}],"stateMutability":"view"},{"type":"error","name":"AddressEmptyCode","inputs":[{"name":"target","type":"address","internalType":"address"}]},{"type":"error","name":"AddressInsufficientBalance","inputs":[{"name":"account","type":"address","internalType":"address"}]},{"type":"error","name":"CustomRevert","inputs":[]},{"type":"error","name":"FailedInnerCall","inputs":[]}],"bytecode":{"object":"0x6080604052348015600f57600080fd5b506106718061001f6000396000f3fe608060405234801561001057600080fd5b506004361061007d5760003560e01c8063a0b5ffb01161005b578063a0b5ffb0146100d1578063c21d36f3146100e4578063e2fa2e78146100f7578063ee33b7e21461010a57600080fd5b80632a0115941461008257806360df1e4e146100ab5780636a76e9b4146100be575b600080fd5b610095610090366004610499565b61011d565b6040516100a29190610514565b60405180910390f35b6100956100b9366004610557565b610137565b6100956100cc3660046105b5565b610147565b6100956100df366004610603565b610156565b6100956100f2366004610603565b610165565b6100956101053660046105b5565b610174565b610095610118366004610603565b610183565b606061012d8484846101926101ab565b90505b9392505050565b606061012d848484610192610251565b606061013083836101926102a9565b606061013083836101926102c2565b606061013083836101926102d1565b606061013083836103496102a9565b6060610130838361019261034b565b6040516322c5b66160e21b815260040160405180910390fd5b6060824710156101d55760405163cd78605960e01b81523060048201526024015b60405180910390fd5b600080866001600160a01b031685876040516101f1919061061f565b60006040518083038185875af1925050503d806000811461022e576040519150601f19603f3d011682016040523d82523d6000602084013e610233565b606091505b509150915061024487838387610251565b925050505b949350505050565b6060831561029f57825160000361029857846001600160a01b03163b60000361029857604051639996b31560e01b81526001600160a01b03861660048201526024016101cc565b5081610249565b61024983836103a3565b606083156102b8575081610130565b61013083836103a3565b606061012d84846000856101ab565b6060600080856001600160a01b0316856040516102ee919061061f565b600060405180830381855afa9150503d8060008114610329576040519150601f19603f3d011682016040523d82523d6000602084013e61032e565b606091505b509150915061033f86838387610251565b9695505050505050565b565b6060600080856001600160a01b031685604051610368919061061f565b600060405180830381855af49150503d8060008114610329576040519150601f19603f3d011682016040523d82523d6000602084013e61032e565b8151156103b35781518083602001fd5b6103bf8163ffffffff16565b604051630a12f52160e11b815260040160405180910390fd5b80356001600160a01b03811681146103ef57600080fd5b919050565b634e487b7160e01b600052604160045260246000fd5b600082601f83011261041b57600080fd5b813567ffffffffffffffff811115610435576104356103f4565b604051601f8201601f19908116603f0116810167ffffffffffffffff81118282101715610464576104646103f4565b60405281815283820160200185101561047c57600080fd5b816020850160208301376000918101602001919091529392505050565b6000806000606084860312156104ae57600080fd5b6104b7846103d8565b9250602084013567ffffffffffffffff8111156104d357600080fd5b6104df8682870161040a565b925050604084013590509250925092565b60005b8381101561050b5781810151838201526020016104f3565b50506000910152565b60208152600082518060208401526105338160408501602087016104f0565b601f01601f19169190910160400192915050565b803580151581146103ef57600080fd5b60008060006060848603121561056c57600080fd5b610575846103d8565b925061058360208501610547565b9150604084013567ffffffffffffffff81111561059f57600080fd5b6105ab8682870161040a565b9150509250925092565b600080604083850312156105c857600080fd5b6105d183610547565b9150602083013567ffffffffffffffff8111156105ed57600080fd5b6105f98582860161040a565b9150509250929050565b6000806040838503121561061657600080fd5b6105d1836103d8565b600082516106318184602087016104f0565b919091019291505056fea2646970667358221220de02ad2369d8f65f93682cb6eeb49cc452fd7d0a5c7833c073cb44c78cc1607264736f6c634300081b0033","linkReferences":{}},"methodIdentifiers":{"functionCall(address,bytes)":"a0b5ffb0","functionCallWithValue(address,bytes,uint256)":"2a011594","functionDelegateCall(address,bytes)":"ee33b7e2","functionStaticCall(address,bytes)":"c21d36f3","verifyCallResult(bool,bytes)":"6a76e9b4","verifyCallResultFromTarget(address,bool,bytes)":"60df1e4e","verifyCallResultVoid(bool,bytes)":"e2fa2e78"},"id":60}