{
  "_format": "hh-sol-artifact-1",
  "contractName": "$Ownable",
  "sourceName": "contracts-exposed/access/Ownable.sol",
  "abi": [
    {
      "inputs": [
        {
          "internalType": "address",
          "name": "initialOwner",
          "type": "address"
        }
      ],
      "stateMutability": "payable",
      "type": "constructor"
    },
    {
      "inputs": [
        {
          "internalType": "address",
          "name": "owner",
          "type": "address"
        }
      ],
      "name": "OwnableInvalidOwner",
      "type": "error"
    },
    {
      "inputs": [
        {
          "internalType": "address",
          "name": "account",
          "type": "address"
        }
      ],
      "name": "OwnableUnauthorizedAccount",
      "type": "error"
    },
    {
      "anonymous": false,
      "inputs": [
        {
          "indexed": true,
          "internalType": "address",
          "name": "previousOwner",
          "type": "address"
        },
        {
          "indexed": true,
          "internalType": "address",
          "name": "newOwner",
          "type": "address"
        }
      ],
      "name": "OwnershipTransferred",
      "type": "event"
    },
    {
      "inputs": [],
      "name": "$_checkOwner",
      "outputs": [],
      "stateMutability": "view",
      "type": "function"
    },
    {
      "inputs": [],
      "name": "$_msgData",
      "outputs": [
        {
          "internalType": "bytes",
          "name": "ret0",
          "type": "bytes"
        }
      ],
      "stateMutability": "view",
      "type": "function"
    },
    {
      "inputs": [],
      "name": "$_msgSender",
      "outputs": [
        {
          "internalType": "address",
          "name": "ret0",
          "type": "address"
        }
      ],
      "stateMutability": "view",
      "type": "function"
    },
    {
      "inputs": [
        {
          "internalType": "address",
          "name": "newOwner",
          "type": "address"
        }
      ],
      "name": "$_transferOwnership",
      "outputs": [],
      "stateMutability": "nonpayable",
      "type": "function"
    },
    {
      "inputs": [],
      "name": "__hh_exposed_bytecode_marker",
      "outputs": [
        {
          "internalType": "bytes32",
          "name": "",
          "type": "bytes32"
        }
      ],
      "stateMutability": "view",
      "type": "function"
    },
    {
      "inputs": [],
      "name": "owner",
      "outputs": [
        {
          "internalType": "address",
          "name": "",
          "type": "address"
        }
      ],
      "stateMutability": "view",
      "type": "function"
    },
    {
      "inputs": [],
      "name": "renounceOwnership",
      "outputs": [],
      "stateMutability": "nonpayable",
      "type": "function"
    },
    {
      "inputs": [
        {
          "internalType": "address",
          "name": "newOwner",
          "type": "address"
        }
      ],
      "name": "transferOwnership",
      "outputs": [],
      "stateMutability": "nonpayable",
      "type": "function"
    },
    {
      "stateMutability": "payable",
      "type": "receive"
    }
  ],
  "bytecode": "0x608060405260405161040938038061040983398101604081905261002291610082565b8061002c81610033565b50506100af565b5f80546001600160a01b038381166001600160a01b0319831681178455604051919092169283917f8be0079c531659141344cd1fd0a4f28419497f9722a3daafe3b4186f6b6457e09190a35050565b5f60208284031215610092575f80fd5b81516001600160a01b03811681146100a8575f80fd5b9392505050565b61034d806100bc5f395ff3fe60806040526004361061007c575f3560e01c80638da5cb5b1161004c5780638da5cb5b1461011c578063ebcca70714610138578063f2fde38b1461014c578063fe1c9a241461016b575f80fd5b80632904df291461008757806332cadf3c146100b2578063342db739146100d3578063715018a614610106575f80fd5b3661008357005b5f80fd5b348015610092575f80fd5b50335b6040516001600160a01b0390911681526020015b60405180910390f35b3480156100bd575f80fd5b506100c661018a565b6040516100a9919061029f565b3480156100de575f80fd5b506100f86e1a185c991a185d0b595e1c1bdcd959608a1b81565b6040519081526020016100a9565b348015610111575f80fd5b5061011a6101c7565b005b348015610127575f80fd5b505f546001600160a01b0316610095565b348015610143575f80fd5b5061011a6101da565b348015610157575f80fd5b5061011a6101663660046102ea565b6101e2565b348015610176575f80fd5b5061011a6101853660046102ea565b610218565b60605f368080601f0160208091040260200160405190810160405280939291908181526020018383808284375f9201919091525092949350505050565b6101cf610224565b6101d85f610250565b565b6101d8610224565b6101ea610224565b6001600160a01b03811661021857604051631e4fbdf760e01b81525f60048201526024015b60405180910390fd5b61022181610250565b50565b5f546001600160a01b031633146101d85760405163118cdaa760e01b815233600482015260240161020f565b5f80546001600160a01b038381166001600160a01b0319831681178455604051919092169283917f8be0079c531659141344cd1fd0a4f28419497f9722a3daafe3b4186f6b6457e09190a35050565b5f6020808352835180828501525f5b818110156102ca578581018301518582016040015282016102ae565b505f604082860101526040601f19601f8301168501019250505092915050565b5f602082840312156102fa575f80fd5b81356001600160a01b0381168114610310575f80fd5b939250505056fea2646970667358221220aa08adfee006d2e32a88f0ba59d4861421b86f0052413090f702923d7fe3aca664736f6c63430008140033",
  "linkReferences": {},
  "deployedLinkReferences": {}
}