{
  "_format": "hh-sol-artifact-1",
  "contractName": "$MulticallTest",
  "sourceName": "contracts-exposed/mocks/MulticallTest.sol",
  "abi": [
    {
      "inputs": [],
      "stateMutability": "payable",
      "type": "constructor"
    },
    {
      "inputs": [],
      "name": "__hh_exposed_bytecode_marker",
      "outputs": [
        {
          "internalType": "bytes32",
          "name": "",
          "type": "bytes32"
        }
      ],
      "stateMutability": "view",
      "type": "function"
    },
    {
      "inputs": [
        {
          "internalType": "contract ERC20MulticallMock",
          "name": "multicallToken",
          "type": "address"
        },
        {
          "internalType": "address[]",
          "name": "recipients",
          "type": "address[]"
        },
        {
          "internalType": "uint256[]",
          "name": "amounts",
          "type": "uint256[]"
        }
      ],
      "name": "checkReturnValues",
      "outputs": [],
      "stateMutability": "nonpayable",
      "type": "function"
    },
    {
      "stateMutability": "payable",
      "type": "receive"
    }
  ],
  "bytecode": "0x60806040526105f8806100115f395ff3fe60806040526004361061002b575f3560e01c8063342db73914610036578063b568d0161461006d575f80fd5b3661003257005b5f80fd5b348015610041575f80fd5b5061005b6e1a185c991a185d0b595e1c1bdcd959608a1b81565b60405190815260200160405180910390f35b348015610078575f80fd5b5061008c6100873660046102df565b61008e565b005b5f8367ffffffffffffffff8111156100a8576100a861035c565b6040519080825280602002602001820160405280156100db57816020015b60608152602001906001900390816100c65790505b5090505f5b848110156101b157866001600160a01b031663a9059cbb87878481811061010957610109610370565b905060200201602081019061011e9190610384565b86868581811061013057610130610370565b6040516001600160a01b0390941660248501526020029190910135604483015250606401604051602081830303815290604052915060e01b6020820180516001600160e01b03838183161783525050505082828151811061019357610193610370565b602002602001018190525080806101a9906103a6565b9150506100e0565b50604051631592ca1b60e31b81525f906001600160a01b0388169063ac9650d8906101e09085906004016103ec565b5f604051808303815f875af11580156101fb573d5f803e3d5ffd5b505050506040513d5f823e601f3d908101601f191682016040526102229190810190610495565b90505f5b81518110156102765781818151811061024157610241610370565b602002602001015180602001905181019061025c91906105a3565b610264575f80fd5b8061026e816103a6565b915050610226565b5050505050505050565b6001600160a01b0381168114610294575f80fd5b50565b5f8083601f8401126102a7575f80fd5b50813567ffffffffffffffff8111156102be575f80fd5b6020830191508360208260051b85010111156102d8575f80fd5b9250929050565b5f805f805f606086880312156102f3575f80fd5b85356102fe81610280565b9450602086013567ffffffffffffffff8082111561031a575f80fd5b61032689838a01610297565b9096509450604088013591508082111561033e575f80fd5b5061034b88828901610297565b969995985093965092949392505050565b634e487b7160e01b5f52604160045260245ffd5b634e487b7160e01b5f52603260045260245ffd5b5f60208284031215610394575f80fd5b813561039f81610280565b9392505050565b5f600182016103c357634e487b7160e01b5f52601160045260245ffd5b5060010190565b5f5b838110156103e45781810151838201526020016103cc565b50505f910152565b5f602080830181845280855180835260408601915060408160051b87010192508387015f5b8281101561045757878503603f1901845281518051808752610438818989018a85016103ca565b601f01601f191695909501860194509285019290850190600101610411565b5092979650505050505050565b604051601f8201601f1916810167ffffffffffffffff8111828210171561048d5761048d61035c565b604052919050565b5f60208083850312156104a6575f80fd5b825167ffffffffffffffff808211156104bd575f80fd5b8185019150601f86818401126104d1575f80fd5b8251828111156104e3576104e361035c565b8060051b6104f2868201610464565b918252848101860191868101908a84111561050b575f80fd5b87870192505b8383101561059557825186811115610528575f8081fd5b8701603f81018c13610539575f8081fd5b8881015160408882111561054f5761054f61035c565b610560828901601f19168c01610464565b8281528e82848601011115610574575f8081fd5b610583838d83018487016103ca565b85525050509187019190870190610511565b9a9950505050505050505050565b5f602082840312156105b3575f80fd5b8151801515811461039f575f80fdfea2646970667358221220b5a2ee5c14ffc15267b49544f75a7d6d7d5df09051222f91bf05bbf0d8e3591164736f6c63430008140033",
  "linkReferences": {},
  "deployedLinkReferences": {}
}