{
  "_format": "hh-sol-artifact-1",
  "contractName": "$Implementation1",
  "sourceName": "contracts-exposed/mocks/RegressionImplementation.sol",
  "abi": [
    {
      "inputs": [],
      "stateMutability": "payable",
      "type": "constructor"
    },
    {
      "inputs": [],
      "name": "AlreadyInitialized",
      "type": "error"
    },
    {
      "inputs": [],
      "name": "NotInitializing",
      "type": "error"
    },
    {
      "anonymous": false,
      "inputs": [
        {
          "indexed": false,
          "internalType": "uint8",
          "name": "version",
          "type": "uint8"
        }
      ],
      "name": "Initialized",
      "type": "event"
    },
    {
      "inputs": [],
      "name": "$_disableInitializers",
      "outputs": [],
      "stateMutability": "nonpayable",
      "type": "function"
    },
    {
      "inputs": [],
      "name": "$_getInitializedVersion",
      "outputs": [
        {
          "internalType": "uint8",
          "name": "ret0",
          "type": "uint8"
        }
      ],
      "stateMutability": "view",
      "type": "function"
    },
    {
      "inputs": [],
      "name": "$_isInitializing",
      "outputs": [
        {
          "internalType": "bool",
          "name": "ret0",
          "type": "bool"
        }
      ],
      "stateMutability": "view",
      "type": "function"
    },
    {
      "inputs": [],
      "name": "$_value",
      "outputs": [
        {
          "internalType": "uint256",
          "name": "",
          "type": "uint256"
        }
      ],
      "stateMutability": "view",
      "type": "function"
    },
    {
      "inputs": [],
      "name": "__hh_exposed_bytecode_marker",
      "outputs": [
        {
          "internalType": "bytes32",
          "name": "",
          "type": "bytes32"
        }
      ],
      "stateMutability": "view",
      "type": "function"
    },
    {
      "inputs": [],
      "name": "initialize",
      "outputs": [],
      "stateMutability": "nonpayable",
      "type": "function"
    },
    {
      "inputs": [
        {
          "internalType": "uint256",
          "name": "_number",
          "type": "uint256"
        }
      ],
      "name": "setValue",
      "outputs": [],
      "stateMutability": "nonpayable",
      "type": "function"
    },
    {
      "stateMutability": "payable",
      "type": "receive"
    }
  ],
  "bytecode": "0x60806040526102e6806100115f395ff3fe608060405260043610610071575f3560e01c806377f9d7c01161004c57806377f9d7c0146100f55780638129fc1c14610109578063c9eb05711461011d578063f5f1bec014610143575f80fd5b8063342db7391461007c5780634fd5303d146100b457806355241077146100d4575f80fd5b3661007857005b5f80fd5b348015610087575f80fd5b506100a16e1a185c991a185d0b595e1c1bdcd959608a1b81565b6040519081526020015b60405180910390f35b3480156100bf575f80fd5b505f5460405160ff90911681526020016100ab565b3480156100df575f80fd5b506100f36100ee366004610299565b600155565b005b348015610100575f80fd5b506001546100a1565b348015610114575f80fd5b506100f3610157565b348015610128575f80fd5b505f54610100900460ff1660405190151581526020016100ab565b34801561014e575f80fd5b506100f3610218565b5f54610100900460ff161580801561017557505f54600160ff909116105b1580156101925750303b15801561019057505f5460ff166001145b155b156101af5760405162dc149f60e41b815260040160405180910390fd5b5f805460ff1916600117905580156101d0575f805461ff0019166101001790555b8015610215575f805461ff0019169055604051600181527f7f26b83ff96e1f2b6a682f133852f6798a09c465da95921460cefb38474024989060200160405180910390a15b50565b610220610222565b565b5f54610100900460ff16156102495760405162dc149f60e41b815260040160405180910390fd5b5f5460ff90811614610220575f805460ff191660ff9081179091556040519081527f7f26b83ff96e1f2b6a682f133852f6798a09c465da95921460cefb38474024989060200160405180910390a1565b5f602082840312156102a9575f80fd5b503591905056fea264697066735822122091dd813055ec93f1077c2c3536862540df57d092e0a9e0d6a0312142fe0d277064736f6c63430008140033",
  "linkReferences": {},
  "deployedLinkReferences": {}
}