{
  "_format": "hh-sol-artifact-1",
  "contractName": "$Implementation3",
  "sourceName": "contracts-exposed/mocks/RegressionImplementation.sol",
  "abi": [
    {
      "inputs": [],
      "stateMutability": "payable",
      "type": "constructor"
    },
    {
      "inputs": [],
      "name": "AlreadyInitialized",
      "type": "error"
    },
    {
      "inputs": [],
      "name": "NotInitializing",
      "type": "error"
    },
    {
      "anonymous": false,
      "inputs": [
        {
          "indexed": false,
          "internalType": "uint8",
          "name": "version",
          "type": "uint8"
        }
      ],
      "name": "Initialized",
      "type": "event"
    },
    {
      "inputs": [],
      "name": "$_disableInitializers",
      "outputs": [],
      "stateMutability": "nonpayable",
      "type": "function"
    },
    {
      "inputs": [],
      "name": "$_getInitializedVersion",
      "outputs": [
        {
          "internalType": "uint8",
          "name": "ret0",
          "type": "uint8"
        }
      ],
      "stateMutability": "view",
      "type": "function"
    },
    {
      "inputs": [],
      "name": "$_isInitializing",
      "outputs": [
        {
          "internalType": "bool",
          "name": "ret0",
          "type": "bool"
        }
      ],
      "stateMutability": "view",
      "type": "function"
    },
    {
      "inputs": [],
      "name": "$_value",
      "outputs": [
        {
          "internalType": "uint256",
          "name": "",
          "type": "uint256"
        }
      ],
      "stateMutability": "view",
      "type": "function"
    },
    {
      "inputs": [],
      "name": "__hh_exposed_bytecode_marker",
      "outputs": [
        {
          "internalType": "bytes32",
          "name": "",
          "type": "bytes32"
        }
      ],
      "stateMutability": "view",
      "type": "function"
    },
    {
      "inputs": [
        {
          "internalType": "uint256",
          "name": "_number",
          "type": "uint256"
        }
      ],
      "name": "getValue",
      "outputs": [
        {
          "internalType": "uint256",
          "name": "",
          "type": "uint256"
        }
      ],
      "stateMutability": "view",
      "type": "function"
    },
    {
      "inputs": [],
      "name": "initialize",
      "outputs": [],
      "stateMutability": "nonpayable",
      "type": "function"
    },
    {
      "inputs": [
        {
          "internalType": "uint256",
          "name": "_number",
          "type": "uint256"
        }
      ],
      "name": "setValue",
      "outputs": [],
      "stateMutability": "nonpayable",
      "type": "function"
    },
    {
      "stateMutability": "payable",
      "type": "receive"
    }
  ],
  "bytecode": "0x6080604052610344806100115f395ff3fe60806040526004361061007c575f3560e01c806377f9d7c01161004c57806377f9d7c01461011f5780638129fc1c14610133578063c9eb057114610147578063f5f1bec01461016d575f80fd5b80630ff4c91614610087578063342db739146100b95780634fd5303d146100de57806355241077146100fe575f80fd5b3661008357005b5f80fd5b348015610092575f80fd5b506100a66100a13660046102d8565b610181565b6040519081526020015b60405180910390f35b3480156100c4575f80fd5b506100a66e1a185c991a185d0b595e1c1bdcd959608a1b81565b3480156100e9575f80fd5b505f5460405160ff90911681526020016100b0565b348015610109575f80fd5b5061011d6101183660046102d8565b600155565b005b34801561012a575f80fd5b506001546100a6565b34801561013e575f80fd5b5061011d610196565b348015610152575f80fd5b505f54610100900460ff1660405190151581526020016100b0565b348015610178575f80fd5b5061011d610257565b5f8160015461019091906102ef565b92915050565b5f54610100900460ff16158080156101b457505f54600160ff909116105b1580156101d15750303b1580156101cf57505f5460ff166001145b155b156101ee5760405162dc149f60e41b815260040160405180910390fd5b5f805460ff19166001179055801561020f575f805461ff0019166101001790555b8015610254575f805461ff0019169055604051600181527f7f26b83ff96e1f2b6a682f133852f6798a09c465da95921460cefb38474024989060200160405180910390a15b50565b61025f610261565b565b5f54610100900460ff16156102885760405162dc149f60e41b815260040160405180910390fd5b5f5460ff9081161461025f575f805460ff191660ff9081179091556040519081527f7f26b83ff96e1f2b6a682f133852f6798a09c465da95921460cefb38474024989060200160405180910390a1565b5f602082840312156102e8575f80fd5b5035919050565b8082018082111561019057634e487b7160e01b5f52601160045260245ffdfea26469706673582212203fafbe37d101a063b1b3518d9847e4ecb32790418ba8b8e1da2a49f1fb99dffe64736f6c63430008140033",
  "linkReferences": {},
  "deployedLinkReferences": {}
}