{
  "_format": "hh-sol-artifact-1",
  "contractName": "$Implementation2",
  "sourceName": "contracts-exposed/mocks/RegressionImplementation.sol",
  "abi": [
    {
      "inputs": [],
      "stateMutability": "payable",
      "type": "constructor"
    },
    {
      "inputs": [],
      "name": "AlreadyInitialized",
      "type": "error"
    },
    {
      "inputs": [],
      "name": "NotInitializing",
      "type": "error"
    },
    {
      "anonymous": false,
      "inputs": [
        {
          "indexed": false,
          "internalType": "uint8",
          "name": "version",
          "type": "uint8"
        }
      ],
      "name": "Initialized",
      "type": "event"
    },
    {
      "inputs": [],
      "name": "$_disableInitializers",
      "outputs": [],
      "stateMutability": "nonpayable",
      "type": "function"
    },
    {
      "inputs": [],
      "name": "$_getInitializedVersion",
      "outputs": [
        {
          "internalType": "uint8",
          "name": "ret0",
          "type": "uint8"
        }
      ],
      "stateMutability": "view",
      "type": "function"
    },
    {
      "inputs": [],
      "name": "$_isInitializing",
      "outputs": [
        {
          "internalType": "bool",
          "name": "ret0",
          "type": "bool"
        }
      ],
      "stateMutability": "view",
      "type": "function"
    },
    {
      "inputs": [],
      "name": "$_value",
      "outputs": [
        {
          "internalType": "uint256",
          "name": "",
          "type": "uint256"
        }
      ],
      "stateMutability": "view",
      "type": "function"
    },
    {
      "inputs": [],
      "name": "__hh_exposed_bytecode_marker",
      "outputs": [
        {
          "internalType": "bytes32",
          "name": "",
          "type": "bytes32"
        }
      ],
      "stateMutability": "view",
      "type": "function"
    },
    {
      "inputs": [],
      "name": "getValue",
      "outputs": [
        {
          "internalType": "uint256",
          "name": "",
          "type": "uint256"
        }
      ],
      "stateMutability": "view",
      "type": "function"
    },
    {
      "inputs": [],
      "name": "initialize",
      "outputs": [],
      "stateMutability": "nonpayable",
      "type": "function"
    },
    {
      "inputs": [
        {
          "internalType": "uint256",
          "name": "_number",
          "type": "uint256"
        }
      ],
      "name": "setValue",
      "outputs": [],
      "stateMutability": "nonpayable",
      "type": "function"
    },
    {
      "stateMutability": "payable",
      "type": "receive"
    }
  ],
  "bytecode": "0x60806040526102ed806100115f395ff3fe60806040526004361061007c575f3560e01c806377f9d7c01161004c57806377f9d7c0146100875780638129fc1c14610110578063c9eb057114610124578063f5f1bec01461014a575f80fd5b80632096525514610087578063342db739146100aa5780634fd5303d146100cf57806355241077146100ef575f80fd5b3661008357005b5f80fd5b348015610092575f80fd5b506001545b6040519081526020015b60405180910390f35b3480156100b5575f80fd5b506100976e1a185c991a185d0b595e1c1bdcd959608a1b81565b3480156100da575f80fd5b505f5460405160ff90911681526020016100a1565b3480156100fa575f80fd5b5061010e6101093660046102a0565b600155565b005b34801561011b575f80fd5b5061010e61015e565b34801561012f575f80fd5b505f54610100900460ff1660405190151581526020016100a1565b348015610155575f80fd5b5061010e61021f565b5f54610100900460ff161580801561017c57505f54600160ff909116105b1580156101995750303b15801561019757505f5460ff166001145b155b156101b65760405162dc149f60e41b815260040160405180910390fd5b5f805460ff1916600117905580156101d7575f805461ff0019166101001790555b801561021c575f805461ff0019169055604051600181527f7f26b83ff96e1f2b6a682f133852f6798a09c465da95921460cefb38474024989060200160405180910390a15b50565b610227610229565b565b5f54610100900460ff16156102505760405162dc149f60e41b815260040160405180910390fd5b5f5460ff90811614610227575f805460ff191660ff9081179091556040519081527f7f26b83ff96e1f2b6a682f133852f6798a09c465da95921460cefb38474024989060200160405180910390a1565b5f602082840312156102b0575f80fd5b503591905056fea26469706673582212208f09544c529f4192c45cedb06987ac9a50ba1479fdb9cea7c1dfca5eb098d00364736f6c63430008140033",
  "linkReferences": {},
  "deployedLinkReferences": {}
}