{
  "_format": "hh-sol-artifact-1",
  "contractName": "$ERC721Enumerable",
  "sourceName": "contracts-exposed/token/ERC721/extensions/ERC721Enumerable.sol",
  "abi": [
    {
      "inputs": [
        {
          "internalType": "string",
          "name": "name_",
          "type": "string"
        },
        {
          "internalType": "string",
          "name": "symbol_",
          "type": "string"
        }
      ],
      "stateMutability": "payable",
      "type": "constructor"
    },
    {
      "inputs": [],
      "name": "ERC721EnumerableForbiddenBatchMint",
      "type": "error"
    },
    {
      "inputs": [
        {
          "internalType": "address",
          "name": "sender",
          "type": "address"
        },
        {
          "internalType": "uint256",
          "name": "tokenId",
          "type": "uint256"
        },
        {
          "internalType": "address",
          "name": "owner",
          "type": "address"
        }
      ],
      "name": "ERC721IncorrectOwner",
      "type": "error"
    },
    {
      "inputs": [
        {
          "internalType": "address",
          "name": "operator",
          "type": "address"
        },
        {
          "internalType": "uint256",
          "name": "tokenId",
          "type": "uint256"
        }
      ],
      "name": "ERC721InsufficientApproval",
      "type": "error"
    },
    {
      "inputs": [
        {
          "internalType": "address",
          "name": "approver",
          "type": "address"
        }
      ],
      "name": "ERC721InvalidApprover",
      "type": "error"
    },
    {
      "inputs": [
        {
          "internalType": "address",
          "name": "operator",
          "type": "address"
        }
      ],
      "name": "ERC721InvalidOperator",
      "type": "error"
    },
    {
      "inputs": [
        {
          "internalType": "address",
          "name": "owner",
          "type": "address"
        }
      ],
      "name": "ERC721InvalidOwner",
      "type": "error"
    },
    {
      "inputs": [
        {
          "internalType": "address",
          "name": "receiver",
          "type": "address"
        }
      ],
      "name": "ERC721InvalidReceiver",
      "type": "error"
    },
    {
      "inputs": [
        {
          "internalType": "address",
          "name": "sender",
          "type": "address"
        }
      ],
      "name": "ERC721InvalidSender",
      "type": "error"
    },
    {
      "inputs": [
        {
          "internalType": "uint256",
          "name": "tokenId",
          "type": "uint256"
        }
      ],
      "name": "ERC721NonexistentToken",
      "type": "error"
    },
    {
      "inputs": [
        {
          "internalType": "address",
          "name": "owner",
          "type": "address"
        },
        {
          "internalType": "uint256",
          "name": "index",
          "type": "uint256"
        }
      ],
      "name": "ERC721OutOfBoundsIndex",
      "type": "error"
    },
    {
      "anonymous": false,
      "inputs": [
        {
          "indexed": true,
          "internalType": "address",
          "name": "owner",
          "type": "address"
        },
        {
          "indexed": true,
          "internalType": "address",
          "name": "approved",
          "type": "address"
        },
        {
          "indexed": true,
          "internalType": "uint256",
          "name": "tokenId",
          "type": "uint256"
        }
      ],
      "name": "Approval",
      "type": "event"
    },
    {
      "anonymous": false,
      "inputs": [
        {
          "indexed": true,
          "internalType": "address",
          "name": "owner",
          "type": "address"
        },
        {
          "indexed": true,
          "internalType": "address",
          "name": "operator",
          "type": "address"
        },
        {
          "indexed": false,
          "internalType": "bool",
          "name": "approved",
          "type": "bool"
        }
      ],
      "name": "ApprovalForAll",
      "type": "event"
    },
    {
      "anonymous": false,
      "inputs": [
        {
          "indexed": true,
          "internalType": "address",
          "name": "from",
          "type": "address"
        },
        {
          "indexed": true,
          "internalType": "address",
          "name": "to",
          "type": "address"
        },
        {
          "indexed": true,
          "internalType": "uint256",
          "name": "tokenId",
          "type": "uint256"
        }
      ],
      "name": "Transfer",
      "type": "event"
    },
    {
      "inputs": [
        {
          "internalType": "address",
          "name": "account",
          "type": "address"
        },
        {
          "internalType": "uint256",
          "name": "value",
          "type": "uint256"
        }
      ],
      "name": "$__unsafe_increaseBalance",
      "outputs": [],
      "stateMutability": "nonpayable",
      "type": "function"
    },
    {
      "inputs": [
        {
          "internalType": "address",
          "name": "from",
          "type": "address"
        },
        {
          "internalType": "address",
          "name": "to",
          "type": "address"
        },
        {
          "internalType": "uint256",
          "name": "firstTokenId",
          "type": "uint256"
        },
        {
          "internalType": "uint256",
          "name": "batchSize",
          "type": "uint256"
        }
      ],
      "name": "$_afterTokenTransfer",
      "outputs": [],
      "stateMutability": "nonpayable",
      "type": "function"
    },
    {
      "inputs": [
        {
          "internalType": "address",
          "name": "to",
          "type": "address"
        },
        {
          "internalType": "uint256",
          "name": "tokenId",
          "type": "uint256"
        }
      ],
      "name": "$_approve",
      "outputs": [],
      "stateMutability": "nonpayable",
      "type": "function"
    },
    {
      "inputs": [],
      "name": "$_baseURI",
      "outputs": [
        {
          "internalType": "string",
          "name": "ret0",
          "type": "string"
        }
      ],
      "stateMutability": "view",
      "type": "function"
    },
    {
      "inputs": [
        {
          "internalType": "address",
          "name": "from",
          "type": "address"
        },
        {
          "internalType": "address",
          "name": "to",
          "type": "address"
        },
        {
          "internalType": "uint256",
          "name": "firstTokenId",
          "type": "uint256"
        },
        {
          "internalType": "uint256",
          "name": "batchSize",
          "type": "uint256"
        }
      ],
      "name": "$_beforeTokenTransfer",
      "outputs": [],
      "stateMutability": "nonpayable",
      "type": "function"
    },
    {
      "inputs": [
        {
          "internalType": "uint256",
          "name": "tokenId",
          "type": "uint256"
        }
      ],
      "name": "$_burn",
      "outputs": [],
      "stateMutability": "nonpayable",
      "type": "function"
    },
    {
      "inputs": [
        {
          "internalType": "uint256",
          "name": "tokenId",
          "type": "uint256"
        }
      ],
      "name": "$_exists",
      "outputs": [
        {
          "internalType": "bool",
          "name": "ret0",
          "type": "bool"
        }
      ],
      "stateMutability": "view",
      "type": "function"
    },
    {
      "inputs": [
        {
          "internalType": "address",
          "name": "spender",
          "type": "address"
        },
        {
          "internalType": "uint256",
          "name": "tokenId",
          "type": "uint256"
        }
      ],
      "name": "$_isApprovedOrOwner",
      "outputs": [
        {
          "internalType": "bool",
          "name": "ret0",
          "type": "bool"
        }
      ],
      "stateMutability": "view",
      "type": "function"
    },
    {
      "inputs": [
        {
          "internalType": "address",
          "name": "to",
          "type": "address"
        },
        {
          "internalType": "uint256",
          "name": "tokenId",
          "type": "uint256"
        }
      ],
      "name": "$_mint",
      "outputs": [],
      "stateMutability": "nonpayable",
      "type": "function"
    },
    {
      "inputs": [],
      "name": "$_msgData",
      "outputs": [
        {
          "internalType": "bytes",
          "name": "ret0",
          "type": "bytes"
        }
      ],
      "stateMutability": "view",
      "type": "function"
    },
    {
      "inputs": [],
      "name": "$_msgSender",
      "outputs": [
        {
          "internalType": "address",
          "name": "ret0",
          "type": "address"
        }
      ],
      "stateMutability": "view",
      "type": "function"
    },
    {
      "inputs": [
        {
          "internalType": "uint256",
          "name": "tokenId",
          "type": "uint256"
        }
      ],
      "name": "$_ownerOf",
      "outputs": [
        {
          "internalType": "address",
          "name": "ret0",
          "type": "address"
        }
      ],
      "stateMutability": "view",
      "type": "function"
    },
    {
      "inputs": [
        {
          "internalType": "uint256",
          "name": "tokenId",
          "type": "uint256"
        }
      ],
      "name": "$_requireMinted",
      "outputs": [],
      "stateMutability": "view",
      "type": "function"
    },
    {
      "inputs": [
        {
          "internalType": "address",
          "name": "to",
          "type": "address"
        },
        {
          "internalType": "uint256",
          "name": "tokenId",
          "type": "uint256"
        },
        {
          "internalType": "bytes",
          "name": "data",
          "type": "bytes"
        }
      ],
      "name": "$_safeMint",
      "outputs": [],
      "stateMutability": "nonpayable",
      "type": "function"
    },
    {
      "inputs": [
        {
          "internalType": "address",
          "name": "to",
          "type": "address"
        },
        {
          "internalType": "uint256",
          "name": "tokenId",
          "type": "uint256"
        }
      ],
      "name": "$_safeMint",
      "outputs": [],
      "stateMutability": "nonpayable",
      "type": "function"
    },
    {
      "inputs": [
        {
          "internalType": "address",
          "name": "from",
          "type": "address"
        },
        {
          "internalType": "address",
          "name": "to",
          "type": "address"
        },
        {
          "internalType": "uint256",
          "name": "tokenId",
          "type": "uint256"
        },
        {
          "internalType": "bytes",
          "name": "data",
          "type": "bytes"
        }
      ],
      "name": "$_safeTransfer",
      "outputs": [],
      "stateMutability": "nonpayable",
      "type": "function"
    },
    {
      "inputs": [
        {
          "internalType": "address",
          "name": "owner",
          "type": "address"
        },
        {
          "internalType": "address",
          "name": "operator",
          "type": "address"
        },
        {
          "internalType": "bool",
          "name": "approved",
          "type": "bool"
        }
      ],
      "name": "$_setApprovalForAll",
      "outputs": [],
      "stateMutability": "nonpayable",
      "type": "function"
    },
    {
      "inputs": [
        {
          "internalType": "address",
          "name": "from",
          "type": "address"
        },
        {
          "internalType": "address",
          "name": "to",
          "type": "address"
        },
        {
          "internalType": "uint256",
          "name": "tokenId",
          "type": "uint256"
        }
      ],
      "name": "$_transfer",
      "outputs": [],
      "stateMutability": "nonpayable",
      "type": "function"
    },
    {
      "inputs": [],
      "name": "__hh_exposed_bytecode_marker",
      "outputs": [
        {
          "internalType": "bytes32",
          "name": "",
          "type": "bytes32"
        }
      ],
      "stateMutability": "view",
      "type": "function"
    },
    {
      "inputs": [
        {
          "internalType": "address",
          "name": "to",
          "type": "address"
        },
        {
          "internalType": "uint256",
          "name": "tokenId",
          "type": "uint256"
        }
      ],
      "name": "approve",
      "outputs": [],
      "stateMutability": "nonpayable",
      "type": "function"
    },
    {
      "inputs": [
        {
          "internalType": "address",
          "name": "owner",
          "type": "address"
        }
      ],
      "name": "balanceOf",
      "outputs": [
        {
          "internalType": "uint256",
          "name": "",
          "type": "uint256"
        }
      ],
      "stateMutability": "view",
      "type": "function"
    },
    {
      "inputs": [
        {
          "internalType": "uint256",
          "name": "tokenId",
          "type": "uint256"
        }
      ],
      "name": "getApproved",
      "outputs": [
        {
          "internalType": "address",
          "name": "",
          "type": "address"
        }
      ],
      "stateMutability": "view",
      "type": "function"
    },
    {
      "inputs": [
        {
          "internalType": "address",
          "name": "owner",
          "type": "address"
        },
        {
          "internalType": "address",
          "name": "operator",
          "type": "address"
        }
      ],
      "name": "isApprovedForAll",
      "outputs": [
        {
          "internalType": "bool",
          "name": "",
          "type": "bool"
        }
      ],
      "stateMutability": "view",
      "type": "function"
    },
    {
      "inputs": [],
      "name": "name",
      "outputs": [
        {
          "internalType": "string",
          "name": "",
          "type": "string"
        }
      ],
      "stateMutability": "view",
      "type": "function"
    },
    {
      "inputs": [
        {
          "internalType": "uint256",
          "name": "tokenId",
          "type": "uint256"
        }
      ],
      "name": "ownerOf",
      "outputs": [
        {
          "internalType": "address",
          "name": "",
          "type": "address"
        }
      ],
      "stateMutability": "view",
      "type": "function"
    },
    {
      "inputs": [
        {
          "internalType": "address",
          "name": "from",
          "type": "address"
        },
        {
          "internalType": "address",
          "name": "to",
          "type": "address"
        },
        {
          "internalType": "uint256",
          "name": "tokenId",
          "type": "uint256"
        }
      ],
      "name": "safeTransferFrom",
      "outputs": [],
      "stateMutability": "nonpayable",
      "type": "function"
    },
    {
      "inputs": [
        {
          "internalType": "address",
          "name": "from",
          "type": "address"
        },
        {
          "internalType": "address",
          "name": "to",
          "type": "address"
        },
        {
          "internalType": "uint256",
          "name": "tokenId",
          "type": "uint256"
        },
        {
          "internalType": "bytes",
          "name": "data",
          "type": "bytes"
        }
      ],
      "name": "safeTransferFrom",
      "outputs": [],
      "stateMutability": "nonpayable",
      "type": "function"
    },
    {
      "inputs": [
        {
          "internalType": "address",
          "name": "operator",
          "type": "address"
        },
        {
          "internalType": "bool",
          "name": "approved",
          "type": "bool"
        }
      ],
      "name": "setApprovalForAll",
      "outputs": [],
      "stateMutability": "nonpayable",
      "type": "function"
    },
    {
      "inputs": [
        {
          "internalType": "bytes4",
          "name": "interfaceId",
          "type": "bytes4"
        }
      ],
      "name": "supportsInterface",
      "outputs": [
        {
          "internalType": "bool",
          "name": "",
          "type": "bool"
        }
      ],
      "stateMutability": "view",
      "type": "function"
    },
    {
      "inputs": [],
      "name": "symbol",
      "outputs": [
        {
          "internalType": "string",
          "name": "",
          "type": "string"
        }
      ],
      "stateMutability": "view",
      "type": "function"
    },
    {
      "inputs": [
        {
          "internalType": "uint256",
          "name": "index",
          "type": "uint256"
        }
      ],
      "name": "tokenByIndex",
      "outputs": [
        {
          "internalType": "uint256",
          "name": "",
          "type": "uint256"
        }
      ],
      "stateMutability": "view",
      "type": "function"
    },
    {
      "inputs": [
        {
          "internalType": "address",
          "name": "owner",
          "type": "address"
        },
        {
          "internalType": "uint256",
          "name": "index",
          "type": "uint256"
        }
      ],
      "name": "tokenOfOwnerByIndex",
      "outputs": [
        {
          "internalType": "uint256",
          "name": "",
          "type": "uint256"
        }
      ],
      "stateMutability": "view",
      "type": "function"
    },
    {
      "inputs": [
        {
          "internalType": "uint256",
          "name": "tokenId",
          "type": "uint256"
        }
      ],
      "name": "tokenURI",
      "outputs": [
        {
          "internalType": "string",
          "name": "",
          "type": "string"
        }
      ],
      "stateMutability": "view",
      "type": "function"
    },
    {
      "inputs": [],
      "name": "totalSupply",
      "outputs": [
        {
          "internalType": "uint256",
          "name": "",
          "type": "uint256"
        }
      ],
      "stateMutability": "view",
      "type": "function"
    },
    {
      "inputs": [
        {
          "internalType": "address",
          "name": "from",
          "type": "address"
        },
        {
          "internalType": "address",
          "name": "to",
          "type": "address"
        },
        {
          "internalType": "uint256",
          "name": "tokenId",
          "type": "uint256"
        }
      ],
      "name": "transferFrom",
      "outputs": [],
      "stateMutability": "nonpayable",
      "type": "function"
    },
    {
      "stateMutability": "payable",
      "type": "receive"
    }
  ],
  "bytecode": "0x608060405260405162001f2138038062001f2183398101604081905262000026916200010d565b81815f620000358382620001ff565b506001620000448282620001ff565b5050505050620002c7565b634e487b7160e01b5f52604160045260245ffd5b5f82601f83011262000073575f80fd5b81516001600160401b03808211156200009057620000906200004f565b604051601f8301601f19908116603f01168101908282118183101715620000bb57620000bb6200004f565b81604052838152602092508683858801011115620000d7575f80fd5b5f91505b83821015620000fa5785820183015181830184015290820190620000db565b5f93810190920192909252949350505050565b5f80604083850312156200011f575f80fd5b82516001600160401b038082111562000136575f80fd5b620001448683870162000063565b935060208501519150808211156200015a575f80fd5b50620001698582860162000063565b9150509250929050565b600181811c908216806200018857607f821691505b602082108103620001a757634e487b7160e01b5f52602260045260245ffd5b50919050565b601f821115620001fa575f81815260208120601f850160051c81016020861015620001d55750805b601f850160051c820191505b81811015620001f657828155600101620001e1565b5050505b505050565b81516001600160401b038111156200021b576200021b6200004f565b62000233816200022c845462000173565b84620001ad565b602080601f83116001811462000269575f8415620002515750858301515b5f19600386901b1c1916600185901b178555620001f6565b5f85815260208120601f198616915b82811015620002995788860151825594840194600190910190840162000278565b5085821015620002b757878501515f19600388901b60f8161c191681555b5050505050600190811b01905550565b611c4c80620002d55f395ff3fe6080604052600436106101ff575f3560e01c806370a0823111610113578063c4a96fa61161009d578063cfeea0d41161006d578063cfeea0d4146105b4578063d261af54146105d3578063e07084c2146105f2578063e985e9c514610611578063efb43b0714610658575f80fd5b8063c4a96fa614610538578063c87b56dd14610557578063cc461d6214610576578063cd43f47d14610595575f80fd5b80639ff2f02d116100e35780639ff2f02d1461049d578063a22cb465146104bc578063a2373a82146104db578063b88d4fde146104fa578063c37add5114610519575f80fd5b806370a082311461042c578063733555ec1461044b57806395d89b411461046a57806398a1f7a01461047e575f80fd5b806323b872dd11610194578063342db73911610164578063342db7391461038b57806342842e0e146103b0578063458ee002146103cf5780634f6ccce7146103ee5780636352211e1461040d575f80fd5b806323b872dd146103275780632904df29146103465780632f745c591461035857806332cadf3c14610377575f80fd5b806309854d72116101cf57806309854d72146102b7578063147619da146102d6578063161e977d146102f557806318160ddd14610309575f80fd5b806301ffc9a71461020a57806306fdde031461023e578063081812fc1461025f578063095ea7b314610296575f80fd5b3661020657005b5f80fd5b348015610215575f80fd5b506102296102243660046116fc565b610677565b60405190151581526020015b60405180910390f35b348015610249575f80fd5b506102526106a1565b6040516102359190611764565b34801561026a575f80fd5b5061027e610279366004611776565b610730565b6040516001600160a01b039091168152602001610235565b3480156102a1575f80fd5b506102b56102b03660046117a8565b610755565b005b3480156102c2575f80fd5b506102b56102d1366004611776565b6107f2565b3480156102e1575f80fd5b506102b56102f03660046117d0565b6107fe565b348015610300575f80fd5b50610252610810565b348015610314575f80fd5b506008545b604051908152602001610235565b348015610332575f80fd5b506102b561034136600461180f565b61082b565b348015610351575f80fd5b503361027e565b348015610363575f80fd5b506103196103723660046117a8565b610866565b348015610382575f80fd5b506102526108c9565b348015610396575f80fd5b506103196e1a185c991a185d0b595e1c1bdcd959608a1b81565b3480156103bb575f80fd5b506102b56103ca36600461180f565b610906565b3480156103da575f80fd5b5061027e6103e9366004611776565b610920565b3480156103f9575f80fd5b50610319610408366004611776565b61093c565b348015610418575f80fd5b5061027e610427366004611776565b610991565b348015610437575f80fd5b50610319610446366004611848565b6109c9565b348015610456575f80fd5b506102b56104653660046118a6565b610a0e565b348015610475575f80fd5b50610252610a56565b348015610489575f80fd5b506102b56104983660046117a8565b610a65565b3480156104a8575f80fd5b506102b56104b7366004611910565b610a73565b3480156104c7575f80fd5b506102b56104d6366004611975565b610ab3565b3480156104e6575f80fd5b506102b56104f5366004611776565b610abe565b348015610505575f80fd5b506102b56105143660046119ba565b610ac7565b348015610524575f80fd5b50610229610533366004611776565b610b03565b348015610543575f80fd5b506102296105523660046117a8565b610b21565b348015610562575f80fd5b50610252610571366004611776565b610b33565b348015610581575f80fd5b506102b56105903660046117a8565b610ba2565b3480156105a0575f80fd5b506102b56105af3660046117a8565b610bac565b3480156105bf575f80fd5b506102b56105ce366004611a8f565b610bb6565b3480156105de575f80fd5b506102b56105ed3660046117a8565b610bc1565b3480156105fd575f80fd5b506102b561060c3660046117d0565b610bcb565b34801561061c575f80fd5b5061022961062b366004611acf565b6001600160a01b039182165f90815260056020908152604080832093909416825291909152205460ff1690565b348015610663575f80fd5b506102b561067236600461180f565b61085b565b5f6001600160e01b0319821663780e9d6360e01b148061069b575061069b82610bd0565b92915050565b60605f80546106af90611af7565b80601f01602080910402602001604051908101604052809291908181526020018280546106db90611af7565b80156107265780601f106106fd57610100808354040283529160200191610726565b820191905f5260205f20905b81548152906001019060200180831161070957829003601f168201915b5050505050905090565b5f61073a82610c1f565b505f908152600460205260409020546001600160a01b031690565b5f61075f82610991565b9050806001600160a01b0316836001600160a01b0316036107a357604051630b61174360e31b81526001600160a01b03821660048201526024015b60405180910390fd5b336001600160a01b038216148015906107c357506107c1813361062b565b155b156107e35760405163a9fbf51f60e01b815233600482015260240161079a565b6107ed8383610c56565b505050565b6107fb81610c1f565b50565b61080a84848484610cc3565b50505050565b606061082660408051602081019091525f815290565b905090565b6108353382610da2565b61085b5760405163177e802f60e01b81523360048201526024810182905260440161079a565b6107ed838383610e1f565b5f610870836109c9565b82106108a15760405163295f44f760e21b81526001600160a01b03841660048201526024810183905260440161079a565b506001600160a01b03919091165f908152600660209081526040808320938352929052205490565b60605f368080601f0160208091040260200160405190810160405280939291908181526020018383808284375f9201919091525092949350505050565b6107ed83838360405180602001604052805f815250610ac7565b5f818152600260205260408120546001600160a01b031661069b565b5f61094660085490565b821061096e5760405163295f44f760e21b81525f60048201526024810183905260440161079a565b6008828154811061098157610981611b2f565b905f5260205f2001549050919050565b5f818152600260205260408120546001600160a01b03168061069b57604051637e27328960e01b81526004810184905260240161079a565b5f6001600160a01b0382166109f3576040516322718ad960e21b81525f600482015260240161079a565b506001600160a01b03165f9081526003602052604090205490565b610a4f85858585858080601f0160208091040260200160405190810160405280939291908181526020018383808284375f92019190915250610fb692505050565b5050505050565b6060600180546106af90611af7565b610a6f8282610ff5565b5050565b61080a848484848080601f0160208091040260200160405190810160405280939291908181526020018383808284375f9201919091525061102592505050565b610a6f338383611063565b6107fb8161110c565b610ad13383610da2565b610af75760405163177e802f60e01b81523360048201526024810183905260440161079a565b61080a84848484610fb6565b5f818152600260205260408120546001600160a01b0316151561069b565b5f610b2c8383610da2565b9392505050565b6060610b3e82610c1f565b5f610b5360408051602081019091525f815290565b90505f815111610b715760405180602001604052805f815250610b2c565b80610b7b846111ce565b604051602001610b8c929190611b43565b6040516020818303038152906040529392505050565b610a6f828261125e565b610a6f8282610c56565b6107ed838383611063565b610a6f828261136c565b61080a565b5f6001600160e01b031982166380ac58cd60e01b1480610c0057506001600160e01b03198216635b5e139f60e01b145b8061069b57506301ffc9a760e01b6001600160e01b031983161461069b565b5f818152600260205260409020546001600160a01b03166107fb57604051637e27328960e01b81526004810182905260240161079a565b5f81815260046020526040902080546001600160a01b0319166001600160a01b0384169081179091558190610c8a82610991565b6001600160a01b03167f8c5be1e5ebec7d5bd14f71427d1e84f3dd0314c0f7b2291e5b200ac8c7c3b92560405160405180910390a45050565b6001811115610ce5576040516359171fc160e01b815260040160405180910390fd5b816001600160a01b038516610d4057610d3b81600880545f838152600960205260408120829055600182018355919091527ff3f7a9fe364faab93b216da50a3214154f22a0a2b415b23a84c8169e8b636ee30155565b610d63565b836001600160a01b0316856001600160a01b031614610d6357610d638582611385565b6001600160a01b038416610d7f57610d7a8161141e565b610a4f565b846001600160a01b0316846001600160a01b031614610a4f57610a4f84826114c5565b5f80610dad83610991565b9050806001600160a01b0316846001600160a01b03161480610df357506001600160a01b038082165f9081526005602090815260408083209388168352929052205460ff165b80610e175750836001600160a01b0316610e0c84610730565b6001600160a01b0316145b949350505050565b5f610e2982610991565b9050836001600160a01b0316816001600160a01b031614610e77576040516364283d7b60e01b81526001600160a01b038086166004830152602482018490528216604482015260640161079a565b6001600160a01b038316610ea057604051633250574960e11b81525f600482015260240161079a565b610ead8484846001610cc3565b610eb682610991565b9050836001600160a01b0316816001600160a01b031614610f04576040516364283d7b60e01b81526001600160a01b038086166004830152602482018490528216604482015260640161079a565b5f82815260046020908152604080832080546001600160a01b03191690556001600160a01b038716835260039091528120805460019290610f46908490611b85565b90915550506001600160a01b038084165f81815260036020908152604080832080546001019055868352600290915280822080546001600160a01b031916841790555185938816917fddf252ad1be2c89b69c2b068fc378daa952ba7f163c4a11628f55a4df523b3ef91a461080a565b610fc1848484610e1f565b610fcd84848484611507565b61080a57604051633250574960e11b81526001600160a01b038416600482015260240161079a565b6001600160a01b0382165f908152600360205260408120805483929061101c908490611b98565b90915550505050565b61102f838361125e565b61103b5f848484611507565b6107ed57604051633250574960e11b81526001600160a01b038416600482015260240161079a565b816001600160a01b0316836001600160a01b0316036110a057604051630b61174360e31b81526001600160a01b038416600482015260240161079a565b6001600160a01b038381165f81815260056020908152604080832094871680845294825291829020805460ff191686151590811790915591519182527f17307eab39ab6107e8899845ad3d59bd9653f200f220920489ca2b5937696c31910160405180910390a3505050565b5f61111682610991565b9050611125815f846001610cc3565b61112e82610991565b5f83815260046020908152604080832080546001600160a01b03191690556001600160a01b0384168352600390915281208054929350600192909190611175908490611b85565b90915550505f8281526002602052604080822080546001600160a01b0319169055518391906001600160a01b038416907fddf252ad1be2c89b69c2b068fc378daa952ba7f163c4a11628f55a4df523b3ef908390a45050565b60605f6111da83611610565b60010190505f8167ffffffffffffffff8111156111f9576111f96119a6565b6040519080825280601f01601f191660200182016040528015611223576020820181803683370190505b5090508181016020015b5f19016f181899199a1a9b1b9c1cb0b131b232b360811b600a86061a8153600a850494508461122d57509392505050565b6001600160a01b03821661128757604051633250574960e11b81525f600482015260240161079a565b5f818152600260205260409020546001600160a01b0316156112be576040516339e3563760e11b81525f600482015260240161079a565b6112cb5f83836001610cc3565b5f818152600260205260409020546001600160a01b031615611302576040516339e3563760e11b81525f600482015260240161079a565b6001600160a01b0382165f81815260036020908152604080832080546001019055848352600290915280822080546001600160a01b0319168417905551839291907fddf252ad1be2c89b69c2b068fc378daa952ba7f163c4a11628f55a4df523b3ef908290a45050565b610a6f828260405180602001604052805f815250611025565b5f6001611391846109c9565b61139b9190611b85565b5f838152600760205260409020549091508082146113ec576001600160a01b0384165f9081526006602090815260408083208584528252808320548484528184208190558352600790915290208190555b505f9182526007602090815260408084208490556001600160a01b039094168352600681528383209183525290812055565b6008545f9061142f90600190611b85565b5f838152600960205260408120546008805493945090928490811061145657611456611b2f565b905f5260205f2001549050806008838154811061147557611475611b2f565b5f9182526020808320909101929092558281526009909152604080822084905585825281205560088054806114ac576114ac611bab565b600190038181905f5260205f20015f9055905550505050565b5f6114cf836109c9565b6001600160a01b039093165f908152600660209081526040808320868452825280832085905593825260079052919091209190915550565b5f6001600160a01b0384163b1561160557604051630a85bd0160e11b81526001600160a01b0385169063150b7a029061154a903390899088908890600401611bbf565b6020604051808303815f875af1925050508015611584575060408051601f3d908101601f1916820190925261158191810190611bfb565b60015b6115eb573d8080156115b1576040519150601f19603f3d011682016040523d82523d5f602084013e6115b6565b606091505b5080515f036115e357604051633250574960e11b81526001600160a01b038616600482015260240161079a565b805181602001fd5b6001600160e01b031916630a85bd0160e11b149050610e17565b506001949350505050565b5f8072184f03e93ff9f4daa797ed6e38ed64bf6a1f0160401b831061164e5772184f03e93ff9f4daa797ed6e38ed64bf6a1f0160401b830492506040015b6d04ee2d6d415b85acef8100000000831061167a576d04ee2d6d415b85acef8100000000830492506020015b662386f26fc10000831061169857662386f26fc10000830492506010015b6305f5e10083106116b0576305f5e100830492506008015b61271083106116c457612710830492506004015b606483106116d6576064830492506002015b600a831061069b5760010192915050565b6001600160e01b0319811681146107fb575f80fd5b5f6020828403121561170c575f80fd5b8135610b2c816116e7565b5f5b83811015611731578181015183820152602001611719565b50505f910152565b5f8151808452611750816020860160208601611717565b601f01601f19169290920160200192915050565b602081525f610b2c6020830184611739565b5f60208284031215611786575f80fd5b5035919050565b80356001600160a01b03811681146117a3575f80fd5b919050565b5f80604083850312156117b9575f80fd5b6117c28361178d565b946020939093013593505050565b5f805f80608085870312156117e3575f80fd5b6117ec8561178d565b93506117fa6020860161178d565b93969395505050506040820135916060013590565b5f805f60608486031215611821575f80fd5b61182a8461178d565b92506118386020850161178d565b9150604084013590509250925092565b5f60208284031215611858575f80fd5b610b2c8261178d565b5f8083601f840112611871575f80fd5b50813567ffffffffffffffff811115611888575f80fd5b60208301915083602082850101111561189f575f80fd5b9250929050565b5f805f805f608086880312156118ba575f80fd5b6118c38661178d565b94506118d16020870161178d565b935060408601359250606086013567ffffffffffffffff8111156118f3575f80fd5b6118ff88828901611861565b969995985093965092949392505050565b5f805f8060608587031215611923575f80fd5b61192c8561178d565b935060208501359250604085013567ffffffffffffffff81111561194e575f80fd5b61195a87828801611861565b95989497509550505050565b803580151581146117a3575f80fd5b5f8060408385031215611986575f80fd5b61198f8361178d565b915061199d60208401611966565b90509250929050565b634e487b7160e01b5f52604160045260245ffd5b5f805f80608085870312156119cd575f80fd5b6119d68561178d565b93506119e46020860161178d565b925060408501359150606085013567ffffffffffffffff80821115611a07575f80fd5b818701915087601f830112611a1a575f80fd5b813581811115611a2c57611a2c6119a6565b604051601f8201601f19908116603f01168101908382118183101715611a5457611a546119a6565b816040528281528a6020848701011115611a6c575f80fd5b826020860160208301375f60208483010152809550505050505092959194509250565b5f805f60608486031215611aa1575f80fd5b611aaa8461178d565b9250611ab86020850161178d565b9150611ac660408501611966565b90509250925092565b5f8060408385031215611ae0575f80fd5b611ae98361178d565b915061199d6020840161178d565b600181811c90821680611b0b57607f821691505b602082108103611b2957634e487b7160e01b5f52602260045260245ffd5b50919050565b634e487b7160e01b5f52603260045260245ffd5b5f8351611b54818460208801611717565b835190830190611b68818360208801611717565b01949350505050565b634e487b7160e01b5f52601160045260245ffd5b8181038181111561069b5761069b611b71565b8082018082111561069b5761069b611b71565b634e487b7160e01b5f52603160045260245ffd5b6001600160a01b03858116825284166020820152604081018390526080606082018190525f90611bf190830184611739565b9695505050505050565b5f60208284031215611c0b575f80fd5b8151610b2c816116e756fea2646970667358221220b24ba75cf9bbaa96d30c640a2ea8f04bf7117cf9f8c49199e6ae5a8463c1f45364736f6c63430008140033",
  "linkReferences": {},
  "deployedLinkReferences": {}
}