{
  "_format": "hh-sol-artifact-1",
  "contractName": "$VestingWallet",
  "sourceName": "contracts-exposed/finance/VestingWallet.sol",
  "abi": [
    {
      "inputs": [
        {
          "internalType": "address",
          "name": "beneficiaryAddress",
          "type": "address"
        },
        {
          "internalType": "uint64",
          "name": "startTimestamp",
          "type": "uint64"
        },
        {
          "internalType": "uint64",
          "name": "durationSeconds",
          "type": "uint64"
        }
      ],
      "stateMutability": "payable",
      "type": "constructor"
    },
    {
      "inputs": [
        {
          "internalType": "address",
          "name": "target",
          "type": "address"
        }
      ],
      "name": "AddressEmptyCode",
      "type": "error"
    },
    {
      "inputs": [
        {
          "internalType": "address",
          "name": "account",
          "type": "address"
        }
      ],
      "name": "AddressInsufficientBalance",
      "type": "error"
    },
    {
      "inputs": [],
      "name": "FailedInnerCall",
      "type": "error"
    },
    {
      "inputs": [
        {
          "internalType": "address",
          "name": "token",
          "type": "address"
        }
      ],
      "name": "SafeERC20FailedOperation",
      "type": "error"
    },
    {
      "inputs": [
        {
          "internalType": "address",
          "name": "beneficiary",
          "type": "address"
        }
      ],
      "name": "VestingWalletInvalidBeneficiary",
      "type": "error"
    },
    {
      "anonymous": false,
      "inputs": [
        {
          "indexed": true,
          "internalType": "address",
          "name": "token",
          "type": "address"
        },
        {
          "indexed": false,
          "internalType": "uint256",
          "name": "amount",
          "type": "uint256"
        }
      ],
      "name": "ERC20Released",
      "type": "event"
    },
    {
      "anonymous": false,
      "inputs": [
        {
          "indexed": false,
          "internalType": "uint256",
          "name": "amount",
          "type": "uint256"
        }
      ],
      "name": "EtherReleased",
      "type": "event"
    },
    {
      "inputs": [],
      "name": "$_msgData",
      "outputs": [
        {
          "internalType": "bytes",
          "name": "ret0",
          "type": "bytes"
        }
      ],
      "stateMutability": "view",
      "type": "function"
    },
    {
      "inputs": [],
      "name": "$_msgSender",
      "outputs": [
        {
          "internalType": "address",
          "name": "ret0",
          "type": "address"
        }
      ],
      "stateMutability": "view",
      "type": "function"
    },
    {
      "inputs": [
        {
          "internalType": "uint256",
          "name": "totalAllocation",
          "type": "uint256"
        },
        {
          "internalType": "uint64",
          "name": "timestamp",
          "type": "uint64"
        }
      ],
      "name": "$_vestingSchedule",
      "outputs": [
        {
          "internalType": "uint256",
          "name": "ret0",
          "type": "uint256"
        }
      ],
      "stateMutability": "view",
      "type": "function"
    },
    {
      "inputs": [],
      "name": "__hh_exposed_bytecode_marker",
      "outputs": [
        {
          "internalType": "bytes32",
          "name": "",
          "type": "bytes32"
        }
      ],
      "stateMutability": "view",
      "type": "function"
    },
    {
      "inputs": [],
      "name": "beneficiary",
      "outputs": [
        {
          "internalType": "address",
          "name": "",
          "type": "address"
        }
      ],
      "stateMutability": "view",
      "type": "function"
    },
    {
      "inputs": [],
      "name": "duration",
      "outputs": [
        {
          "internalType": "uint256",
          "name": "",
          "type": "uint256"
        }
      ],
      "stateMutability": "view",
      "type": "function"
    },
    {
      "inputs": [],
      "name": "end",
      "outputs": [
        {
          "internalType": "uint256",
          "name": "",
          "type": "uint256"
        }
      ],
      "stateMutability": "view",
      "type": "function"
    },
    {
      "inputs": [
        {
          "internalType": "address",
          "name": "token",
          "type": "address"
        }
      ],
      "name": "releasable",
      "outputs": [
        {
          "internalType": "uint256",
          "name": "",
          "type": "uint256"
        }
      ],
      "stateMutability": "view",
      "type": "function"
    },
    {
      "inputs": [],
      "name": "releasable",
      "outputs": [
        {
          "internalType": "uint256",
          "name": "",
          "type": "uint256"
        }
      ],
      "stateMutability": "view",
      "type": "function"
    },
    {
      "inputs": [
        {
          "internalType": "address",
          "name": "token",
          "type": "address"
        }
      ],
      "name": "release",
      "outputs": [],
      "stateMutability": "nonpayable",
      "type": "function"
    },
    {
      "inputs": [],
      "name": "release",
      "outputs": [],
      "stateMutability": "nonpayable",
      "type": "function"
    },
    {
      "inputs": [],
      "name": "released",
      "outputs": [
        {
          "internalType": "uint256",
          "name": "",
          "type": "uint256"
        }
      ],
      "stateMutability": "view",
      "type": "function"
    },
    {
      "inputs": [
        {
          "internalType": "address",
          "name": "token",
          "type": "address"
        }
      ],
      "name": "released",
      "outputs": [
        {
          "internalType": "uint256",
          "name": "",
          "type": "uint256"
        }
      ],
      "stateMutability": "view",
      "type": "function"
    },
    {
      "inputs": [],
      "name": "start",
      "outputs": [
        {
          "internalType": "uint256",
          "name": "",
          "type": "uint256"
        }
      ],
      "stateMutability": "view",
      "type": "function"
    },
    {
      "inputs": [
        {
          "internalType": "uint64",
          "name": "timestamp",
          "type": "uint64"
        }
      ],
      "name": "vestedAmount",
      "outputs": [
        {
          "internalType": "uint256",
          "name": "",
          "type": "uint256"
        }
      ],
      "stateMutability": "view",
      "type": "function"
    },
    {
      "inputs": [
        {
          "internalType": "address",
          "name": "token",
          "type": "address"
        },
        {
          "internalType": "uint64",
          "name": "timestamp",
          "type": "uint64"
        }
      ],
      "name": "vestedAmount",
      "outputs": [
        {
          "internalType": "uint256",
          "name": "",
          "type": "uint256"
        }
      ],
      "stateMutability": "view",
      "type": "function"
    },
    {
      "stateMutability": "payable",
      "type": "receive"
    }
  ],
  "bytecode": "0x60e0604052604051610c46380380610c4683398101604081905261002291610096565b8282826001600160a01b03831661005257604051631cad2e7360e01b81525f600482015260240160405180910390fd5b6001600160a01b039092166080526001600160401b0390811660a0521660c052506100e3915050565b80516001600160401b0381168114610091575f80fd5b919050565b5f805f606084860312156100a8575f80fd5b83516001600160a01b03811681146100be575f80fd5b92506100cc6020850161007b565b91506100da6040850161007b565b90509250925092565b60805160a05160c051610b1d6101295f395f818161013d015281816105a5015261063901525f61057f01525f8181610206015281816103bf01526105200152610b1d5ff3fe6080604052600436106100f2575f3560e01c8063810ec23b11610087578063a3f8eace11610057578063a3f8eace146102c3578063be9a6555146102e2578063efbe1c1c146102f6578063fbccedae1461030a575f80fd5b8063810ec23b1461024957806386d1a69f14610268578063961325211461027c5780639852595c1461028f575f80fd5b806332cadf3c116100c257806332cadf3c146101b2578063342db739146101d357806338af3eed146101f85780633f2979531461022a575f80fd5b80630a17b06b146100fd5780630fb5a6b41461012f578063191655871461016b5780632904df291461018c575f80fd5b366100f957005b5f80fd5b348015610108575f80fd5b5061011c610117366004610938565b61031e565b6040519081526020015b60405180910390f35b34801561013a575f80fd5b507f000000000000000000000000000000000000000000000000000000000000000067ffffffffffffffff1661011c565b348015610176575f80fd5b5061018a610185366004610967565b610340565b005b348015610197575f80fd5b50335b6040516001600160a01b039091168152602001610126565b3480156101bd575f80fd5b506101c66103ed565b60405161012691906109a2565b3480156101de575f80fd5b5061011c6e1a185c991a185d0b595e1c1bdcd959608a1b81565b348015610203575f80fd5b507f000000000000000000000000000000000000000000000000000000000000000061019a565b348015610235575f80fd5b5061011c6102443660046109d4565b61042a565b348015610254575f80fd5b5061011c6102633660046109fe565b61043c565b348015610273575f80fd5b5061018a6104c8565b348015610287575f80fd5b505f5461011c565b34801561029a575f80fd5b5061011c6102a9366004610967565b6001600160a01b03165f9081526001602052604090205490565b3480156102ce575f80fd5b5061011c6102dd366004610967565b610548565b3480156102ed575f80fd5b5061011c610574565b348015610301575f80fd5b5061011c6105a2565b348015610315575f80fd5b5061011c6105e0565b5f61033a61032a5f5490565b6103349047610a3a565b836105f6565b92915050565b5f61034a82610548565b6001600160a01b0383165f90815260016020526040812080549293508392909190610376908490610a3a565b90915550506040518181526001600160a01b038316907fc0e523490dd523c33b1878c9eb14ff46991e3f5b2cd33710918618f2a39cba1b9060200160405180910390a26103e4827f000000000000000000000000000000000000000000000000000000000000000083610699565b5050565b905090565b60605f368080601f0160208091040260200160405190810160405280939291908181526020018383808284375f9201919091525092949350505050565b5f61043583836105f6565b9392505050565b6001600160a01b0382165f90815260016020526040812054610435906040516370a0823160e01b81523060048201526001600160a01b038616906370a0823190602401602060405180830381865afa15801561049a573d5f803e3d5ffd5b505050506040513d601f19601f820116820180604052508101906104be9190610a4d565b6103349190610a3a565b5f6104d16105e0565b9050805f808282546104e39190610a3a565b90915550506040518181527fda9d4e5f101b8b9b1c5b76d0c5a9f7923571acfc02376aa076b75a8c080c956b9060200160405180910390a16105457f0000000000000000000000000000000000000000000000000000000000000000826106f0565b50565b6001600160a01b0381165f9081526001602052604081205461056a834261043c565b61033a9190610a64565b67ffffffffffffffff7f00000000000000000000000000000000000000000000000000000000000000001690565b5f7f000000000000000000000000000000000000000000000000000000000000000067ffffffffffffffff166105d6610574565b6103e89190610a3a565b5f80546105ec4261031e565b6103e89190610a64565b5f6105ff610574565b8267ffffffffffffffff16101561061757505f61033a565b61061f6105a2565b8267ffffffffffffffff16111561063757508161033a565b7f000000000000000000000000000000000000000000000000000000000000000067ffffffffffffffff1661066a610574565b61067e9067ffffffffffffffff8516610a64565b6106889085610a77565b6106929190610a8e565b905061033a565b604080516001600160a01b038416602482015260448082018490528251808303909101815260649091019091526020810180516001600160e01b031663a9059cbb60e01b1790526106eb908490610788565b505050565b804710156107185760405163cd78605960e01b81523060048201526024015b60405180910390fd5b5f826001600160a01b0316826040515f6040518083038185875af1925050503d805f8114610761576040519150601f19603f3d011682016040523d82523d5f602084013e610766565b606091505b50509050806106eb57604051630a12f52160e11b815260040160405180910390fd5b5f61079c6001600160a01b038416836107e9565b905080515f141580156107c05750808060200190518101906107be9190610aad565b155b156106eb57604051635274afe760e01b81526001600160a01b038416600482015260240161070f565b606061043583835f6107f9610812565b604051630a12f52160e11b815260040160405180910390fd5b6060824710156108375760405163cd78605960e01b815230600482015260240161070f565b5f80866001600160a01b031685876040516108529190610acc565b5f6040518083038185875af1925050503d805f811461088c576040519150601f19603f3d011682016040523d82523d5f602084013e610891565b606091505b50915091506108a2878383876108af565b925050505b949350505050565b606083156108fb5782515f036108f457846001600160a01b03163b5f036108f457604051639996b31560e01b81526001600160a01b038616600482015260240161070f565b50816108a7565b6108a783838151156109105781518083602001fd5b6107f98163ffffffff16565b803567ffffffffffffffff81168114610933575f80fd5b919050565b5f60208284031215610948575f80fd5b6104358261091c565b80356001600160a01b0381168114610933575f80fd5b5f60208284031215610977575f80fd5b61043582610951565b5f5b8381101561099a578181015183820152602001610982565b50505f910152565b602081525f82518060208401526109c0816040850160208701610980565b601f01601f19169190910160400192915050565b5f80604083850312156109e5575f80fd5b823591506109f56020840161091c565b90509250929050565b5f8060408385031215610a0f575f80fd5b610a1883610951565b91506109f56020840161091c565b634e487b7160e01b5f52601160045260245ffd5b8082018082111561033a5761033a610a26565b5f60208284031215610a5d575f80fd5b5051919050565b8181038181111561033a5761033a610a26565b808202811582820484141761033a5761033a610a26565b5f82610aa857634e487b7160e01b5f52601260045260245ffd5b500490565b5f60208284031215610abd575f80fd5b81518015158114610435575f80fd5b5f8251610add818460208701610980565b919091019291505056fea2646970667358221220fa81cde591892b8ff7e55141012357ab6ca3684976a77ff3e0136b5c2265f10f64736f6c63430008140033",
  "linkReferences": {},
  "deployedLinkReferences": {}
}