{"abi":[{"type":"constructor","inputs":[{"name":"enableReturn","type":"bool","internalType":"bool"},{"name":"enableApprove","type":"bool","internalType":"bool"}],"stateMutability":"nonpayable"},{"type":"function","name":"onFlashLoan","inputs":[{"name":"","type":"address","internalType":"address"},{"name":"token","type":"address","internalType":"address"},{"name":"amount","type":"uint256","internalType":"uint256"},{"name":"fee","type":"uint256","internalType":"uint256"},{"name":"data","type":"bytes","internalType":"bytes"}],"outputs":[{"name":"","type":"bytes32","internalType":"bytes32"}],"stateMutability":"nonpayable"},{"type":"event","name":"BalanceOf","inputs":[{"name":"token","type":"address","indexed":false,"internalType":"address"},{"name":"account","type":"address","indexed":false,"internalType":"address"},{"name":"value","type":"uint256","indexed":false,"internalType":"uint256"}],"anonymous":false},{"type":"event","name":"TotalSupply","inputs":[{"name":"token","type":"address","indexed":false,"internalType":"address"},{"name":"value","type":"uint256","indexed":false,"internalType":"uint256"}],"anonymous":false},{"type":"error","name":"AddressEmptyCode","inputs":[{"name":"target","type":"address","internalType":"address"}]},{"type":"error","name":"AddressInsufficientBalance","inputs":[{"name":"account","type":"address","internalType":"address"}]},{"type":"error","name":"FailedInnerCall","inputs":[]}],"bytecode":{"object":"0x60c0604052348015600f57600080fd5b50604051610692380380610692833981016040819052602c91604e565b1515608052151560a052607c565b80518015158114604957600080fd5b919050565b60008060408385031215606057600080fd5b606783603a565b9150607360208401603a565b90509250929050565b60805160a0516105f16100a160003960006102c50152600061021401526105f16000f3fe608060405234801561001057600080fd5b506004361061002b5760003560e01c806323e30c8b14610030575b600080fd5b61004361003e366004610480565b610055565b60405190815260200160405180910390f35b6000336001600160a01b0387161461006c57600080fd5b6040516370a0823160e01b815230600482018190527f6ff2acfcb07917b1e80e53f0fe390b467b1151d15b38730a6e08397799c05a8b918891906001600160a01b038316906370a0823190602401602060405180830381865afa1580156100d7573d6000803e3d6000fd5b505050506040513d601f19601f820116820180604052508101906100fb9190610529565b604080516001600160a01b0394851681529390921660208401529082015260600160405180910390a17f7249fd4c03cce09b30a13d77804b198e2647c0ccd59eadf4de4e7c16099badc586876001600160a01b03166318160ddd6040518163ffffffff1660e01b8152600401602060405180830381865afa158015610184573d6000803e3d6000fd5b505050506040513d601f19601f820116820180604052508101906101a89190610529565b604080516001600160a01b03909316835260208301919091520160405180910390a18115610212576102108684848080601f01602080910402602001604051908101604052809392919081815260200183838082843760009201919091525061031c92505050565b505b7f0000000000000000000000000000000000000000000000000000000000000000156102c3576001600160a01b03861663095ea7b3876102528789610542565b6040516001600160e01b031960e085901b1681526001600160a01b03909216600483015260248201526044016020604051808303816000875af115801561029d573d6000803e3d6000fd5b505050506040513d601f19601f820116820180604052508101906102c19190610563565b505b7f00000000000000000000000000000000000000000000000000000000000000006102ef576000610311565b7f439148f0bbc682ca079e46d6e2c2f0c1e3b820f1a291b069d8882abf8cf18dd95b979650505050505050565b606061032d8383600061033661034f565b90505b92915050565b604051630a12f52160e11b815260040160405180910390fd5b6060824710156103795760405163cd78605960e01b81523060048201526024015b60405180910390fd5b600080866001600160a01b03168587604051610395919061058c565b60006040518083038185875af1925050503d80600081146103d2576040519150601f19603f3d011682016040523d82523d6000602084013e6103d7565b606091505b50915091506103e8878383876103f5565b925050505b949350505050565b6060831561044357825160000361043c57846001600160a01b03163b60000361043c57604051639996b31560e01b81526001600160a01b0386166004820152602401610370565b50816103ed565b6103ed83838151156104585781518083602001fd5b6103368163ffffffff16565b80356001600160a01b038116811461047b57600080fd5b919050565b60008060008060008060a0878903121561049957600080fd5b6104a287610464565b95506104b060208801610464565b94506040870135935060608701359250608087013567ffffffffffffffff8111156104da57600080fd5b8701601f810189136104eb57600080fd5b803567ffffffffffffffff81111561050257600080fd5b89602082840101111561051457600080fd5b60208201935080925050509295509295509295565b60006020828403121561053b57600080fd5b5051919050565b8082018082111561033057634e487b7160e01b600052601160045260246000fd5b60006020828403121561057557600080fd5b8151801515811461058557600080fd5b9392505050565b6000825160005b818110156105ad5760208186018101518583015201610593565b50600092019182525091905056fea264697066735822122041e7366d18e2e1298dbee6c13199326a9dfe71f443baef13a2c02078d812be6e64736f6c634300081b0033","linkReferences":{}},"methodIdentifiers":{"onFlashLoan(address,address,uint256,uint256,bytes)":"23e30c8b"},"id":73}